{
  "contractName": "DelegateContract",
  "abi": [
    {
      "inputs": [
        {
          "internalType": "address",
          "name": "_addressContract",
          "type": "address"
        }
      ],
      "stateMutability": "nonpayable",
      "type": "constructor"
    },
    {
      "anonymous": false,
      "inputs": [
        {
          "indexed": true,
          "internalType": "address",
          "name": "previousOwner",
          "type": "address"
        },
        {
          "indexed": true,
          "internalType": "address",
          "name": "newOwner",
          "type": "address"
        }
      ],
      "name": "OwnershipTransferred",
      "type": "event"
    },
    {
      "inputs": [],
      "name": "owner",
      "outputs": [
        {
          "internalType": "address",
          "name": "",
          "type": "address"
        }
      ],
      "stateMutability": "view",
      "type": "function",
      "constant": true
    },
    {
      "inputs": [],
      "name": "renounceOwnership",
      "outputs": [],
      "stateMutability": "nonpayable",
      "type": "function"
    },
    {
      "inputs": [
        {
          "internalType": "address",
          "name": "newOwner",
          "type": "address"
        }
      ],
      "name": "transferOwnership",
      "outputs": [],
      "stateMutability": "nonpayable",
      "type": "function"
    },
    {
      "inputs": [
        {
          "internalType": "address",
          "name": "_addressContract",
          "type": "address"
        }
      ],
      "name": "setAddressContract",
      "outputs": [],
      "stateMutability": "nonpayable",
      "type": "function"
    },
    {
      "inputs": [
        {
          "internalType": "string",
          "name": "keyParams",
          "type": "string"
        },
        {
          "internalType": "uint256",
          "name": "valueParams",
          "type": "uint256"
        }
      ],
      "name": "setParamsContract",
      "outputs": [],
      "stateMutability": "nonpayable",
      "type": "function"
    },
    {
      "inputs": [
        {
          "internalType": "string",
          "name": "keyParams",
          "type": "string"
        }
      ],
      "name": "getParamsContract",
      "outputs": [
        {
          "internalType": "uint256",
          "name": "",
          "type": "uint256"
        }
      ],
      "stateMutability": "view",
      "type": "function",
      "constant": true
    },
    {
      "inputs": [
        {
          "internalType": "string",
          "name": "keyParams",
          "type": "string"
        },
        {
          "internalType": "uint256",
          "name": "valueParams",
          "type": "uint256"
        }
      ],
      "name": "setParamsDelegate",
      "outputs": [],
      "stateMutability": "nonpayable",
      "type": "function"
    },
    {
      "inputs": [
        {
          "internalType": "uint8",
          "name": "typeMint",
          "type": "uint8"
        },
        {
          "internalType": "address",
          "name": "to",
          "type": "address"
        }
      ],
      "name": "giveNyxie",
      "outputs": [],
      "stateMutability": "nonpayable",
      "type": "function"
    },
    {
      "inputs": [
        {
          "internalType": "uint8",
          "name": "typeMint",
          "type": "uint8"
        }
      ],
      "name": "mintDelegate",
      "outputs": [],
      "stateMutability": "payable",
      "type": "function",
      "payable": true
    },
    {
      "inputs": [
        {
          "internalType": "uint256",
          "name": "tokenId",
          "type": "uint256"
        },
        {
          "internalType": "bool",
          "name": "sellable",
          "type": "bool"
        },
        {
          "internalType": "bool",
          "name": "egg",
          "type": "bool"
        },
        {
          "internalType": "uint256",
          "name": "tokenIdReproducable",
          "type": "uint256"
        }
      ],
      "name": "paramsNyxies",
      "outputs": [],
      "stateMutability": "nonpayable",
      "type": "function"
    },
    {
      "inputs": [
        {
          "internalType": "address",
          "name": "contactAddr",
          "type": "address"
        },
        {
          "internalType": "uint256",
          "name": "tokenId",
          "type": "uint256"
        }
      ],
      "name": "purchase",
      "outputs": [],
      "stateMutability": "payable",
      "type": "function",
      "payable": true
    },
    {
      "inputs": [
        {
          "internalType": "address",
          "name": "user",
          "type": "address"
        }
      ],
      "name": "getAllTokensForUser",
      "outputs": [
        {
          "internalType": "uint256[]",
          "name": "",
          "type": "uint256[]"
        }
      ],
      "stateMutability": "view",
      "type": "function",
      "constant": true
    },
    {
      "inputs": [
        {
          "internalType": "uint256",
          "name": "tokenId",
          "type": "uint256"
        }
      ],
      "name": "getTokenDetails",
      "outputs": [
        {
          "components": [
            {
              "internalType": "bool",
              "name": "inSell",
              "type": "bool"
            },
            {
              "internalType": "bool",
              "name": "egg",
              "type": "bool"
            },
            {
              "internalType": "uint8[]",
              "name": "params8",
              "type": "uint8[]"
            },
            {
              "internalType": "uint256[]",
              "name": "params256",
              "type": "uint256[]"
            }
          ],
          "internalType": "struct TokenDelegable.Nyxies",
          "name": "",
          "type": "tuple"
        }
      ],
      "stateMutability": "view",
      "type": "function",
      "constant": true
    },
    {
      "inputs": [
        {
          "internalType": "uint8",
          "name": "maxNumber",
          "type": "uint8"
        }
      ],
      "name": "random",
      "outputs": [
        {
          "internalType": "uint8",
          "name": "",
          "type": "uint8"
        }
      ],
      "stateMutability": "nonpayable",
      "type": "function"
    },
    {
      "inputs": [],
      "name": "withdraw",
      "outputs": [],
      "stateMutability": "nonpayable",
      "type": "function"
    },
    {
      "inputs": [
        {
          "internalType": "uint256",
          "name": "amount",
          "type": "uint256"
        }
      ],
      "name": "deposit",
      "outputs": [],
      "stateMutability": "payable",
      "type": "function",
      "payable": true
    },
    {
      "inputs": [],
      "name": "getBalance",
      "outputs": [
        {
          "internalType": "uint256",
          "name": "",
          "type": "uint256"
        }
      ],
      "stateMutability": "view",
      "type": "function",
      "constant": true
    }
  ],
  "bytecode": "0x60806040523480156200001157600080fd5b50604051620040423803806200404283398181016040528101906200003791906200035c565b620000576200004b6200026260201b60201c565b6200026a60201b60201c565b80600160006101000a81548173ffffffffffffffffffffffffffffffffffffffff021916908373ffffffffffffffffffffffffffffffffffffffff160217905550600160009054906101000a900473ffffffffffffffffffffffffffffffffffffffff1673ffffffffffffffffffffffffffffffffffffffff1663f26bf0b76040518163ffffffff1660e01b8152600401620000f39062000665565b60206040518083038186803b1580156200010c57600080fd5b505afa15801562000121573d6000803e3d6000fd5b505050506040513d601f19601f8201168201806040525081019062000147919062000388565b6002604051620001579062000609565b90815260200160405180910390208190555068056bc75e2d631000006002604051620001839062000620565b9081526020016040518091039020819055506801158e460913d000006002604051620001af90620005f2565b908152602001604051809103902081905550678ac7230489e800006002604051620001da9062000637565b9081526020016040518091039020819055506103e86002604051620001ff90620005db565b908152602001604051809103902081905550610bb860026040516200022490620005c4565b908152602001604051809103902081905550611770600260405162000249906200064e565b9081526020016040518091039020819055505062000715565b600033905090565b60008060009054906101000a900473ffffffffffffffffffffffffffffffffffffffff169050816000806101000a81548173ffffffffffffffffffffffffffffffffffffffff021916908373ffffffffffffffffffffffffffffffffffffffff1602179055508173ffffffffffffffffffffffffffffffffffffffff168173ffffffffffffffffffffffffffffffffffffffff167f8be0079c531659141344cd1fd0a4f28419497f9722a3daafe3b4186f6b6457e060405160405180910390a35050565b6000815190506200033f81620006e1565b92915050565b6000815190506200035681620006fb565b92915050565b6000602082840312156200036f57600080fd5b60006200037f848285016200032e565b91505092915050565b6000602082840312156200039b57600080fd5b6000620003ab8482850162000345565b91505092915050565b6000620003c3600c8362000698565b91507f65676754776f52656d61696e00000000000000000000000000000000000000006000830152600c82019050919050565b600062000405600c8362000698565b91507f6567674f6e6552656d61696e00000000000000000000000000000000000000006000830152600c82019050919050565b600062000447600b8362000698565b91507f707269636545676754776f0000000000000000000000000000000000000000006000830152600b82019050919050565b60006200048960068362000687565b91507f6e657874496400000000000000000000000000000000000000000000000000006000830152602082019050919050565b6000620004cb60068362000698565b91507f6e657874496400000000000000000000000000000000000000000000000000006000830152600682019050919050565b60006200050d600b8362000698565b91507f70726963654567674f6e650000000000000000000000000000000000000000006000830152600b82019050919050565b60006200054f600d8362000698565b91507f70726963654567675468726565000000000000000000000000000000000000006000830152600d82019050919050565b600062000591600e8362000698565b91507f656767546872656552656d61696e0000000000000000000000000000000000006000830152600e82019050919050565b6000620005d182620003b4565b9150819050919050565b6000620005e882620003f6565b9150819050919050565b6000620005ff8262000438565b9150819050919050565b60006200061682620004bc565b9150819050919050565b60006200062d82620004fe565b9150819050919050565b6000620006448262000540565b9150819050919050565b60006200065b8262000582565b9150819050919050565b6000602082019050818103600083015262000680816200047a565b9050919050565b600082825260208201905092915050565b600081905092915050565b6000620006b082620006b7565b9050919050565b600073ffffffffffffffffffffffffffffffffffffffff82169050919050565b6000819050919050565b620006ec81620006a3565b8114620006f857600080fd5b50565b6200070681620006d7565b81146200071257600080fd5b50565b61391d80620007256000396000f3fe6080604052600436106100fe5760003560e01c80638da5cb5b11610095578063c1e0372811610064578063c1e03728146102bc578063d6b730d2146102f9578063e0e0e2d314610322578063f26bf0b71461035f578063f2fde38b1461039c576100fe565b80638da5cb5b1461023d5780638de9322214610268578063b558072314610284578063b6b55f25146102a0576100fe565b8063422add3e116100d1578063422add3e1461019757806369cb44f7146101c0578063715018a6146101e957806382de8fe914610200576100fe565b806312065fe0146101035780633a2ef8fc1461012e5780633cb11944146101575780633ccfd60b14610180575b600080fd5b34801561010f57600080fd5b506101186103c5565b6040516101259190613496565b60405180910390f35b34801561013a57600080fd5b50610155600480360381019061015091906128a1565b6103cd565b005b34801561016357600080fd5b5061017e600480360381019061017991906128a1565b610466565b005b34801561018c57600080fd5b50610195610509565b005b3480156101a357600080fd5b506101be60048036038101906101b991906129eb565b6105ce565b005b3480156101cc57600080fd5b506101e760048036038101906101e2919061295f565b610da4565b005b3480156101f557600080fd5b506101fe610f9a565b005b34801561020c57600080fd5b5061022760048036038101906102229190612791565b611022565b60405161023491906132e4565b60405180910390f35b34801561024957600080fd5b506102526110e1565b60405161025f919061324d565b60405180910390f35b610282600480360381019061027d91906127e3565b61110a565b005b61029e600480360381019061029991906129c2565b611628565b005b6102ba60048036038101906102b59190612936565b611ff1565b005b3480156102c857600080fd5b506102e360048036038101906102de9190612936565b61207c565b6040516102f09190613436565b60405180910390f35b34801561030557600080fd5b50610320600480360381019061031b9190612791565b612141565b005b34801561032e57600080fd5b50610349600480360381019061034491906129c2565b612201565b60405161035691906134b1565b60405180910390f35b34801561036b57600080fd5b5061038660048036038101906103819190612860565b612299565b6040516103939190613496565b60405180910390f35b3480156103a857600080fd5b506103c360048036038101906103be9190612791565b6122c1565b005b600047905090565b6000600160009054906101000a900473ffffffffffffffffffffffffffffffffffffffff1690508073ffffffffffffffffffffffffffffffffffffffff16633cb1194484846040518363ffffffff1660e01b815260040161042f929190613306565b600060405180830381600087803b15801561044957600080fd5b505af115801561045d573d6000803e3d6000fd5b50505050505050565b61046e6123b9565b73ffffffffffffffffffffffffffffffffffffffff1661048c6110e1565b73ffffffffffffffffffffffffffffffffffffffff16146104e2576040517f08c379a00000000000000000000000000000000000000000000000000000000081526004016104d9906133d6565b60405180910390fd5b806002836040516104f39190613151565b9081526020016040518091039020819055505050565b6105116123b9565b73ffffffffffffffffffffffffffffffffffffffff1661052f6110e1565b73ffffffffffffffffffffffffffffffffffffffff1614610585576040517f08c379a000000000000000000000000000000000000000000000000000000000815260040161057c906133d6565b60405180910390fd5b3373ffffffffffffffffffffffffffffffffffffffff166108fc479081150290604051600060405180830381858888f193505050501580156105cb573d6000803e3d6000fd5b50565b6105d66123b9565b73ffffffffffffffffffffffffffffffffffffffff166105f46110e1565b73ffffffffffffffffffffffffffffffffffffffff161461064a576040517f08c379a0000000000000000000000000000000000000000000000000000000008152600401610641906133d6565b60405180910390fd5b60008060008460ff161480610662575060018460ff16145b80610670575060028460ff16145b6106af576040517f08c379a00000000000000000000000000000000000000000000000000000000081526004016106a690613396565b60405180910390fd5b60008460ff1614156106e3576008915060026040516106cd906131d1565b9081526020016040518091039020549050610749565b60018460ff1614156107175760049150600260405161070190613192565b9081526020016040518091039020549050610748565b60028460ff16141561074757600091506002604051610735906131e6565b90815260200160405180910390205490505b5b5b6000600667ffffffffffffffff81111561078c577f4e487b7100000000000000000000000000000000000000000000000000000000600052604160045260246000fd5b6040519080825280602002602001820160405280156107ba5781602001602082028036833780820191505090505b5090506000600a67ffffffffffffffff811115610800577f4e487b7100000000000000000000000000000000000000000000000000000000600052604160045260246000fd5b60405190808252806020026020018201604052801561082e5781602001602082028036833780820191505090505b50905061083b6004612201565b82600081518110610875577f4e487b7100000000000000000000000000000000000000000000000000000000600052603260045260246000fd5b602002602001019060ff16908160ff1681525050836108946004612201565b61089e9190613640565b826001815181106108d8577f4e487b7100000000000000000000000000000000000000000000000000000000600052603260045260246000fd5b602002602001019060ff16908160ff1681525050836108f76004612201565b6109019190613640565b8260028151811061093b577f4e487b7100000000000000000000000000000000000000000000000000000000600052603260045260246000fd5b602002602001019060ff16908160ff16815250508361095a6004612201565b6109649190613640565b8260038151811061099e577f4e487b7100000000000000000000000000000000000000000000000000000000600052603260045260246000fd5b602002602001019060ff16908160ff1681525050836109bd6004612201565b6109c79190613640565b82600481518110610a01577f4e487b7100000000000000000000000000000000000000000000000000000000600052603260045260246000fd5b602002602001019060ff16908160ff168152505083610a206004612201565b610a2a9190613640565b82600581518110610a64577f4e487b7100000000000000000000000000000000000000000000000000000000600052603260045260246000fd5b602002602001019060ff16908160ff16815250504281600081518110610ab3577f4e487b7100000000000000000000000000000000000000000000000000000000600052603260045260246000fd5b6020026020010181815250508281600181518110610afa577f4e487b7100000000000000000000000000000000000000000000000000000000600052603260045260246000fd5b602002602001018181525050600081600281518110610b42577f4e487b7100000000000000000000000000000000000000000000000000000000600052603260045260246000fd5b602002602001018181525050600081600381518110610b8a577f4e487b7100000000000000000000000000000000000000000000000000000000600052603260045260246000fd5b602002602001018181525050600081600481518110610bd2577f4e487b7100000000000000000000000000000000000000000000000000000000600052603260045260246000fd5b602002602001018181525050600081600581518110610c1a577f4e487b7100000000000000000000000000000000000000000000000000000000600052603260045260246000fd5b6020026020010181815250506002604051610c34906131a7565b90815260200160405180910390205481600681518110610c7d577f4e487b7100000000000000000000000000000000000000000000000000000000600052603260045260246000fd5b6020026020010181815250508560ff1681600781518110610cc7577f4e487b7100000000000000000000000000000000000000000000000000000000600052603260045260246000fd5b6020026020010181815250506002604051610ce1906131a7565b90815260200160405180910390206000815480929190610d0090613738565b91905055506000600160009054906101000a900473ffffffffffffffffffffffffffffffffffffffff1690508073ffffffffffffffffffffffffffffffffffffffff1663ea4edda28785856040518463ffffffff1660e01b8152600401610d699392919061329f565b600060405180830381600087803b158015610d8357600080fd5b505af1158015610d97573d6000803e3d6000fd5b5050505050505050505050565b6000600160009054906101000a900473ffffffffffffffffffffffffffffffffffffffff16905060008173ffffffffffffffffffffffffffffffffffffffff1663c1e03728876040518263ffffffff1660e01b8152600401610e069190613496565b60006040518083038186803b158015610e1e57600080fd5b505afa158015610e32573d6000803e3d6000fd5b505050506040513d6000823e3d601f19601f82011682018060405250810190610e5b91906128f5565b9050848160000190151590811515815250508315158160200151151514610ec857428160600151600081518110610ebb577f4e487b7100000000000000000000000000000000000000000000000000000000600052603260045260246000fd5b6020026020010181815250505b83816020019015159081151581525050828160600151600181518110610f17577f4e487b7100000000000000000000000000000000000000000000000000000000600052603260045260246000fd5b6020026020010181815250508173ffffffffffffffffffffffffffffffffffffffff16635105d1718288336040518463ffffffff1660e01b8152600401610f6093929190613458565b600060405180830381600087803b158015610f7a57600080fd5b505af1158015610f8e573d6000803e3d6000fd5b50505050505050505050565b610fa26123b9565b73ffffffffffffffffffffffffffffffffffffffff16610fc06110e1565b73ffffffffffffffffffffffffffffffffffffffff1614611016576040517f08c379a000000000000000000000000000000000000000000000000000000000815260040161100d906133d6565b60405180910390fd5b61102060006123c1565b565b60606000600160009054906101000a900473ffffffffffffffffffffffffffffffffffffffff1690508073ffffffffffffffffffffffffffffffffffffffff166382de8fe9846040518263ffffffff1660e01b8152600401611084919061324d565b60006040518083038186803b15801561109c57600080fd5b505afa1580156110b0573d6000803e3d6000fd5b505050506040513d6000823e3d601f19601f820116820180604052508101906110d9919061281f565b915050919050565b60008060009054906101000a900473ffffffffffffffffffffffffffffffffffffffff16905090565b6000600160009054906101000a900473ffffffffffffffffffffffffffffffffffffffff16905060008173ffffffffffffffffffffffffffffffffffffffff1663c1e03728846040518263ffffffff1660e01b815260040161116c9190613496565b60006040518083038186803b15801561118457600080fd5b505afa158015611198573d6000803e3d6000fd5b505050506040513d6000823e3d601f19601f820116820180604052508101906111c191906128f5565b90508060600151600181518110611201577f4e487b7100000000000000000000000000000000000000000000000000000000600052603260045260246000fd5b602002602001015134101561124b576040517f08c379a000000000000000000000000000000000000000000000000000000000815260040161124290613416565b60405180910390fd5b3373ffffffffffffffffffffffffffffffffffffffff168273ffffffffffffffffffffffffffffffffffffffff166383638710856040518263ffffffff1660e01b815260040161129b9190613496565b60206040518083038186803b1580156112b357600080fd5b505afa1580156112c7573d6000803e3d6000fd5b505050506040513d601f19601f820116820180604052508101906112eb91906127ba565b73ffffffffffffffffffffffffffffffffffffffff161415611342576040517f08c379a0000000000000000000000000000000000000000000000000000000008152600401611339906133b6565b60405180910390fd5b600015158160200151151514156115335760008273ffffffffffffffffffffffffffffffffffffffff166382de8fe9336040518263ffffffff1660e01b815260040161138e919061324d565b60006040518083038186803b1580156113a657600080fd5b505afa1580156113ba573d6000803e3d6000fd5b505050506040513d6000823e3d601f19601f820116820180604052508101906113e3919061281f565b90506000805b82518110156114e857600015158573ffffffffffffffffffffffffffffffffffffffff1663c1e0372885848151811061144b577f4e487b7100000000000000000000000000000000000000000000000000000000600052603260045260246000fd5b60200260200101516040518263ffffffff1660e01b815260040161146f9190613496565b60006040518083038186803b15801561148757600080fd5b505afa15801561149b573d6000803e3d6000fd5b505050506040513d6000823e3d601f19601f820116820180604052508101906114c491906128f5565b60200151151514156114d557600191505b80806114e090613738565b9150506113e9565b600015158215151461152f576040517f08c379a000000000000000000000000000000000000000000000000000000000815260040161152690613376565b60405180910390fd5b5050505b60008160000190151590811515815250508173ffffffffffffffffffffffffffffffffffffffff16635105d1718285336040518463ffffffff1660e01b815260040161158193929190613458565b600060405180830381600087803b15801561159b57600080fd5b505af11580156115af573d6000803e3d6000fd5b505050508173ffffffffffffffffffffffffffffffffffffffff1663beabacc88533866040518463ffffffff1660e01b81526004016115f093929190613268565b600060405180830381600087803b15801561160a57600080fd5b505af115801561161e573d6000803e3d6000fd5b5050505050505050565b6000808260ff16148061163e575060018260ff16145b8061164c575060028260ff16145b61168b576040517f08c379a000000000000000000000000000000000000000000000000000000000815260040161168290613396565b60405180910390fd5b60008260ff1614156117905760026040516116a5906131d1565b9081526020016040518091039020543410156116f6576040517f08c379a00000000000000000000000000000000000000000000000000000000081526004016116ed906133f6565b60405180910390fd5b600060026040516117069061317d565b90815260200160405180910390205411611755576040517f08c379a000000000000000000000000000000000000000000000000000000000815260040161174c90613356565b60405180910390fd5b6008905060026040516117679061317d565b908152602001604051809103902060008154809291906117869061370e565b9190505550611998565b60018260ff1614156118955760026040516117aa90613192565b9081526020016040518091039020543410156117fb576040517f08c379a00000000000000000000000000000000000000000000000000000000081526004016117f2906133f6565b60405180910390fd5b6000600260405161180b90613168565b9081526020016040518091039020541161185a576040517f08c379a000000000000000000000000000000000000000000000000000000000815260040161185190613356565b60405180910390fd5b60049050600260405161186c90613168565b9081526020016040518091039020600081548092919061188b9061370e565b9190505550611997565b60028260ff1614156119965760026040516118af906131e6565b908152602001604051809103902054341015611900576040517f08c379a00000000000000000000000000000000000000000000000000000000081526004016118f7906133f6565b60405180910390fd5b60006002604051611910906131fb565b9081526020016040518091039020541161195f576040517f08c379a000000000000000000000000000000000000000000000000000000000815260040161195690613356565b60405180910390fd5b600090506002604051611971906131fb565b908152602001604051809103902060008154809291906119909061370e565b91905055505b5b5b6000600667ffffffffffffffff8111156119db577f4e487b7100000000000000000000000000000000000000000000000000000000600052604160045260246000fd5b604051908082528060200260200182016040528015611a095781602001602082028036833780820191505090505b5090506000600a67ffffffffffffffff811115611a4f577f4e487b7100000000000000000000000000000000000000000000000000000000600052604160045260246000fd5b604051908082528060200260200182016040528015611a7d5781602001602082028036833780820191505090505b509050611a8a6004612201565b82600081518110611ac4577f4e487b7100000000000000000000000000000000000000000000000000000000600052603260045260246000fd5b602002602001019060ff16908160ff168152505082611ae36004612201565b611aed9190613640565b82600181518110611b27577f4e487b7100000000000000000000000000000000000000000000000000000000600052603260045260246000fd5b602002602001019060ff16908160ff168152505082611b466004612201565b611b509190613640565b82600281518110611b8a577f4e487b7100000000000000000000000000000000000000000000000000000000600052603260045260246000fd5b602002602001019060ff16908160ff168152505082611ba96004612201565b611bb39190613640565b82600381518110611bed577f4e487b7100000000000000000000000000000000000000000000000000000000600052603260045260246000fd5b602002602001019060ff16908160ff168152505082611c0c6004612201565b611c169190613640565b82600481518110611c50577f4e487b7100000000000000000000000000000000000000000000000000000000600052603260045260246000fd5b602002602001019060ff16908160ff168152505082611c6f6004612201565b611c799190613640565b82600581518110611cb3577f4e487b7100000000000000000000000000000000000000000000000000000000600052603260045260246000fd5b602002602001019060ff16908160ff16815250504281600081518110611d02577f4e487b7100000000000000000000000000000000000000000000000000000000600052603260045260246000fd5b6020026020010181815250503481600181518110611d49577f4e487b7100000000000000000000000000000000000000000000000000000000600052603260045260246000fd5b602002602001018181525050600081600281518110611d91577f4e487b7100000000000000000000000000000000000000000000000000000000600052603260045260246000fd5b602002602001018181525050600081600381518110611dd9577f4e487b7100000000000000000000000000000000000000000000000000000000600052603260045260246000fd5b602002602001018181525050600081600481518110611e21577f4e487b7100000000000000000000000000000000000000000000000000000000600052603260045260246000fd5b602002602001018181525050600081600581518110611e69577f4e487b7100000000000000000000000000000000000000000000000000000000600052603260045260246000fd5b6020026020010181815250506002604051611e83906131a7565b90815260200160405180910390205481600681518110611ecc577f4e487b7100000000000000000000000000000000000000000000000000000000600052603260045260246000fd5b6020026020010181815250508360ff1681600781518110611f16577f4e487b7100000000000000000000000000000000000000000000000000000000600052603260045260246000fd5b6020026020010181815250506002604051611f30906131a7565b90815260200160405180910390206000815480929190611f4f90613738565b91905055506000600160009054906101000a900473ffffffffffffffffffffffffffffffffffffffff1690508073ffffffffffffffffffffffffffffffffffffffff1663ea4edda23385856040518463ffffffff1660e01b8152600401611fb89392919061329f565b600060405180830381600087803b158015611fd257600080fd5b505af1158015611fe6573d6000803e3d6000fd5b505050505050505050565b611ff96123b9565b73ffffffffffffffffffffffffffffffffffffffff166120176110e1565b73ffffffffffffffffffffffffffffffffffffffff161461206d576040517f08c379a0000000000000000000000000000000000000000000000000000000008152600401612064906133d6565b60405180910390fd5b80341461207957600080fd5b50565b612084612485565b6000600160009054906101000a900473ffffffffffffffffffffffffffffffffffffffff1690508073ffffffffffffffffffffffffffffffffffffffff1663c1e03728846040518263ffffffff1660e01b81526004016120e49190613496565b60006040518083038186803b1580156120fc57600080fd5b505afa158015612110573d6000803e3d6000fd5b505050506040513d6000823e3d601f19601f8201168201806040525081019061213991906128f5565b915050919050565b6121496123b9565b73ffffffffffffffffffffffffffffffffffffffff166121676110e1565b73ffffffffffffffffffffffffffffffffffffffff16146121bd576040517f08c379a00000000000000000000000000000000000000000000000000000000081526004016121b4906133d6565b60405180910390fd5b80600160006101000a81548173ffffffffffffffffffffffffffffffffffffffff021916908373ffffffffffffffffffffffffffffffffffffffff16021790555050565b6000808260ff1642336002604051612218906131bc565b90815260200160405180910390205460405160200161223993929190613210565b6040516020818303038152906040528051906020012060001c61225c91906137af565b9050600260405161226c906131bc565b9081526020016040518091039020600081548092919061228b90613738565b919050555080915050919050565b60006002826040516122ab9190613151565b9081526020016040518091039020549050919050565b6122c96123b9565b73ffffffffffffffffffffffffffffffffffffffff166122e76110e1565b73ffffffffffffffffffffffffffffffffffffffff161461233d576040517f08c379a0000000000000000000000000000000000000000000000000000000008152600401612334906133d6565b60405180910390fd5b600073ffffffffffffffffffffffffffffffffffffffff168173ffffffffffffffffffffffffffffffffffffffff1614156123ad576040517f08c379a00000000000000000000000000000000000000000000000000000000081526004016123a490613336565b60405180910390fd5b6123b6816123c1565b50565b600033905090565b60008060009054906101000a900473ffffffffffffffffffffffffffffffffffffffff169050816000806101000a81548173ffffffffffffffffffffffffffffffffffffffff021916908373ffffffffffffffffffffffffffffffffffffffff1602179055508173ffffffffffffffffffffffffffffffffffffffff168173ffffffffffffffffffffffffffffffffffffffff167f8be0079c531659141344cd1fd0a4f28419497f9722a3daafe3b4186f6b6457e060405160405180910390a35050565b604051806080016040528060001515815260200160001515815260200160608152602001606081525090565b60006124c46124bf846134fd565b6134cc565b905080838252602082019050828560208602820111156124e357600080fd5b60005b8581101561251357816124f98882612752565b8452602084019350602083019250506001810190506124e6565b5050509392505050565b600061253061252b84613529565b6134cc565b9050808382526020820190508285602086028201111561254f57600080fd5b60005b8581101561257f5781612565888261277c565b845260208401935060208301925050600181019050612552565b5050509392505050565b600061259c61259784613555565b6134cc565b9050828152602081018484840111156125b457600080fd5b6125bf8482856136cc565b509392505050565b6000813590506125d68161388b565b92915050565b6000815190506125eb8161388b565b92915050565b600082601f83011261260257600080fd5b81516126128482602086016124b1565b91505092915050565b600082601f83011261262c57600080fd5b815161263c84826020860161251d565b91505092915050565b600081359050612654816138a2565b92915050565b600081519050612669816138a2565b92915050565b600082601f83011261268057600080fd5b8135612690848260208601612589565b91505092915050565b6000608082840312156126ab57600080fd5b6126b560806134cc565b905060006126c58482850161265a565b60008301525060206126d98482850161265a565b602083015250604082015167ffffffffffffffff8111156126f957600080fd5b6127058482850161261b565b604083015250606082015167ffffffffffffffff81111561272557600080fd5b612731848285016125f1565b60608301525092915050565b60008135905061274c816138b9565b92915050565b600081519050612761816138b9565b92915050565b600081359050612776816138d0565b92915050565b60008151905061278b816138d0565b92915050565b6000602082840312156127a357600080fd5b60006127b1848285016125c7565b91505092915050565b6000602082840312156127cc57600080fd5b60006127da848285016125dc565b91505092915050565b600080604083850312156127f657600080fd5b6000612804858286016125c7565b92505060206128158582860161273d565b9150509250929050565b60006020828403121561283157600080fd5b600082015167ffffffffffffffff81111561284b57600080fd5b612857848285016125f1565b91505092915050565b60006020828403121561287257600080fd5b600082013567ffffffffffffffff81111561288c57600080fd5b6128988482850161266f565b91505092915050565b600080604083850312156128b457600080fd5b600083013567ffffffffffffffff8111156128ce57600080fd5b6128da8582860161266f565b92505060206128eb8582860161273d565b9150509250929050565b60006020828403121561290757600080fd5b600082015167ffffffffffffffff81111561292157600080fd5b61292d84828501612699565b91505092915050565b60006020828403121561294857600080fd5b60006129568482850161273d565b91505092915050565b6000806000806080858703121561297557600080fd5b60006129838782880161273d565b945050602061299487828801612645565b93505060406129a587828801612645565b92505060606129b68782880161273d565b91505092959194509250565b6000602082840312156129d457600080fd5b60006129e284828501612767565b91505092915050565b600080604083850312156129fe57600080fd5b6000612a0c85828601612767565b9250506020612a1d858286016125c7565b9150509250929050565b6000612a3383836130fe565b60208301905092915050565b6000612a4b8383613133565b60208301905092915050565b612a6081613677565b82525050565b612a77612a7282613677565b613781565b82525050565b6000612a88826135a5565b612a9281856135e0565b9350612a9d83613585565b8060005b83811015612ace578151612ab58882612a27565b9750612ac0836135c6565b925050600181019050612aa1565b5085935050505092915050565b6000612ae6826135a5565b612af081856135f1565b9350612afb83613585565b8060005b83811015612b2c578151612b138882612a27565b9750612b1e836135c6565b925050600181019050612aff565b5085935050505092915050565b6000612b44826135b0565b612b4e8185613602565b9350612b5983613595565b8060005b83811015612b8a578151612b718882612a3f565b9750612b7c836135d3565b925050600181019050612b5d565b5085935050505092915050565b6000612ba2826135b0565b612bac8185613613565b9350612bb783613595565b8060005b83811015612be8578151612bcf8882612a3f565b9750612bda836135d3565b925050600181019050612bbb565b5085935050505092915050565b612bfe81613689565b82525050565b6000612c0f826135bb565b612c198185613624565b9350612c298185602086016136db565b612c328161386d565b840191505092915050565b6000612c48826135bb565b612c528185613635565b9350612c628185602086016136db565b80840191505092915050565b6000612c7b600c83613635565b91507f65676754776f52656d61696e00000000000000000000000000000000000000006000830152600c82019050919050565b6000612cbb602683613624565b91507f4f776e61626c653a206e6577206f776e657220697320746865207a65726f206160008301527f64647265737300000000000000000000000000000000000000000000000000006020830152604082019050919050565b6000612d21600c83613635565b91507f6567674f6e6552656d61696e00000000000000000000000000000000000000006000830152600c82019050919050565b6000612d61601183613624565b91507f4e6f20656767732072656d61696e696e670000000000000000000000000000006000830152602082019050919050565b6000612da1600b83613635565b91507f707269636545676754776f0000000000000000000000000000000000000000006000830152600b82019050919050565b6000612de1600683613635565b91507f6e657874496400000000000000000000000000000000000000000000000000006000830152600682019050919050565b6000612e21601583613624565b91507f416c726561647920686176652061206e797869657300000000000000000000006000830152602082019050919050565b6000612e61600d83613624565b91507f54797065206e6f7420676f6f64000000000000000000000000000000000000006000830152602082019050919050565b6000612ea1600583613635565b91507f6e6f6e63650000000000000000000000000000000000000000000000000000006000830152600582019050919050565b6000612ee1600d83613624565b91507f416c7265616479204f776e6564000000000000000000000000000000000000006000830152602082019050919050565b6000612f21600b83613635565b91507f70726963654567674f6e650000000000000000000000000000000000000000006000830152600b82019050919050565b6000612f61602083613624565b91507f4f776e61626c653a2063616c6c6572206973206e6f7420746865206f776e65726000830152602082019050919050565b6000612fa1601183613624565b91507f4d6f7265204554482072657175697265640000000000000000000000000000006000830152602082019050919050565b6000612fe1601783613624565b91507f496e73756666696369656e7420666f6e64732073656e740000000000000000006000830152602082019050919050565b6000613021600d83613635565b91507f70726963654567675468726565000000000000000000000000000000000000006000830152600d82019050919050565b6000613061600e83613635565b91507f656767546872656552656d61696e0000000000000000000000000000000000006000830152600e82019050919050565b60006080830160008301516130ac6000860182612bf5565b5060208301516130bf6020860182612bf5565b50604083015184820360408601526130d78282612b39565b915050606083015184820360608601526130f18282612a7d565b9150508091505092915050565b613107816136b5565b82525050565b613116816136b5565b82525050565b61312d613128826136b5565b6137a5565b82525050565b61313c816136bf565b82525050565b61314b816136bf565b82525050565b600061315d8284612c3d565b915081905092915050565b600061317382612c6e565b9150819050919050565b600061318882612d14565b9150819050919050565b600061319d82612d94565b9150819050919050565b60006131b282612dd4565b9150819050919050565b60006131c782612e94565b9150819050919050565b60006131dc82612f14565b9150819050919050565b60006131f182613014565b9150819050919050565b600061320682613054565b9150819050919050565b600061321c828661311c565b60208201915061322c8285612a66565b60148201915061323c828461311c565b602082019150819050949350505050565b60006020820190506132626000830184612a57565b92915050565b600060608201905061327d6000830186612a57565b61328a6020830185612a57565b613297604083018461310d565b949350505050565b60006060820190506132b46000830186612a57565b81810360208301526132c68185612b97565b905081810360408301526132da8184612adb565b9050949350505050565b600060208201905081810360008301526132fe8184612adb565b905092915050565b600060408201905081810360008301526133208185612c04565b905061332f602083018461310d565b9392505050565b6000602082019050818103600083015261334f81612cae565b9050919050565b6000602082019050818103600083015261336f81612d54565b9050919050565b6000602082019050818103600083015261338f81612e14565b9050919050565b600060208201905081810360008301526133af81612e54565b9050919050565b600060208201905081810360008301526133cf81612ed4565b9050919050565b600060208201905081810360008301526133ef81612f54565b9050919050565b6000602082019050818103600083015261340f81612f94565b9050919050565b6000602082019050818103600083015261342f81612fd4565b9050919050565b600060208201905081810360008301526134508184613094565b905092915050565b600060608201905081810360008301526134728186613094565b9050613481602083018561310d565b61348e6040830184612a57565b949350505050565b60006020820190506134ab600083018461310d565b92915050565b60006020820190506134c66000830184613142565b92915050565b6000604051905081810181811067ffffffffffffffff821117156134f3576134f261383e565b5b8060405250919050565b600067ffffffffffffffff8211156135185761351761383e565b5b602082029050602081019050919050565b600067ffffffffffffffff8211156135445761354361383e565b5b602082029050602081019050919050565b600067ffffffffffffffff8211156135705761356f61383e565b5b601f19601f8301169050602081019050919050565b6000819050602082019050919050565b6000819050602082019050919050565b600081519050919050565b600081519050919050565b600081519050919050565b6000602082019050919050565b6000602082019050919050565b600082825260208201905092915050565b600082825260208201905092915050565b600082825260208201905092915050565b600082825260208201905092915050565b600082825260208201905092915050565b600081905092915050565b600061364b826136bf565b9150613656836136bf565b92508260ff0382111561366c5761366b6137e0565b5b828201905092915050565b600061368282613695565b9050919050565b60008115159050919050565b600073ffffffffffffffffffffffffffffffffffffffff82169050919050565b6000819050919050565b600060ff82169050919050565b82818337600083830152505050565b60005b838110156136f95780820151818401526020810190506136de565b83811115613708576000848401525b50505050565b6000613719826136b5565b9150600082141561372d5761372c6137e0565b5b600182039050919050565b6000613743826136b5565b91507fffffffffffffffffffffffffffffffffffffffffffffffffffffffffffffffff821415613776576137756137e0565b5b600182019050919050565b600061378c82613793565b9050919050565b600061379e8261387e565b9050919050565b6000819050919050565b60006137ba826136b5565b91506137c5836136b5565b9250826137d5576137d461380f565b5b828206905092915050565b7f4e487b7100000000000000000000000000000000000000000000000000000000600052601160045260246000fd5b7f4e487b7100000000000000000000000000000000000000000000000000000000600052601260045260246000fd5b7f4e487b7100000000000000000000000000000000000000000000000000000000600052604160045260246000fd5b6000601f19601f8301169050919050565b60008160601b9050919050565b61389481613677565b811461389f57600080fd5b50565b6138ab81613689565b81146138b657600080fd5b50565b6138c2816136b5565b81146138cd57600080fd5b50565b6138d9816136bf565b81146138e457600080fd5b5056fea26469706673582212200f8a150e2f20f61580e6b38e642c6637675021c7eeceed52b5edcda46a1b1e5164736f6c63430008000033",
  "immutableReferences": {},
  "source": "pragma solidity 0.8.0;\r\n\r\nimport '../node_modules/@openzeppelin/contracts/token/ERC721/ERC721.sol';\r\nimport '../node_modules/@openzeppelin/contracts/access/Ownable.sol';\r\n\r\ncontract DelegateContract is Ownable {\r\n\r\n    constructor(address _addressContract) {\r\n        addressContract = _addressContract;\r\n        paramsContract[\"nextId\"] = TokenDelegable(addressContract).getParamsContract(\"nextId\");\r\n        paramsContract[\"priceEggOne\"] = 100000000000000000000;//dev:100000000000000000\r\n        paramsContract[\"priceEggTwo\"] = 20000000000000000000;//dev:20000000000000000\r\n        paramsContract[\"priceEggThree\"] = 10000000000000000000;//dev:10000000000000000\r\n        \r\n        paramsContract[\"eggOneRemain\"] = 1000;\r\n        paramsContract[\"eggTwoRemain\"] = 3000;\r\n        paramsContract[\"eggThreeRemain\"] = 6000;\r\n     }\r\n\r\n    address addressContract;\r\n    mapping( string => uint ) paramsContract;\r\n\r\n    function setAddressContract(address _addressContract) external onlyOwner {\r\n        addressContract = _addressContract;\r\n    }\r\n\r\n    function setParamsContract(string memory keyParams, uint valueParams) external onlyOwner {\r\n        paramsContract[keyParams] = valueParams;\r\n    }\r\n\r\n    function getParamsContract(string memory keyParams) external view returns (uint256){\r\n        return paramsContract[keyParams];\r\n    }\r\n\r\n    function setParamsDelegate(string memory keyParams, uint256 valueParams ) external {\r\n        TokenDelegable contrat = TokenDelegable(addressContract);\r\n        contrat.setParamsContract(keyParams, valueParams);\r\n    }\r\n\r\n    function giveNyxie(uint8 typeMint, address to) public onlyOwner{\r\n        uint8 bonus = 0;\r\n        uint256 price = 0;\r\n        require(typeMint == 0 || typeMint == 1 || typeMint == 2,\"Type not good\");\r\n        if(typeMint == 0){\r\n            bonus = 8;\r\n            price = paramsContract[\"priceEggOne\"];\r\n        }else if(typeMint == 1){\r\n            bonus = 4;\r\n            price = paramsContract[\"priceEggTwo\"];\r\n        }else if(typeMint == 2){\r\n            bonus = 0;\r\n            price = paramsContract[\"priceEggThree\"];\r\n        }\r\n        uint8[] memory randomParts = new uint8[](6);\r\n        uint256[] memory randomParams = new uint256[](10);\r\n        randomParts[0] = random(4);//color\r\n        randomParts[1] = random(4)+bonus;//part1\r\n        randomParts[2] = random(4)+bonus;//part2\r\n        randomParts[3] = random(4)+bonus;//part3\r\n        randomParts[4] = random(4)+bonus;//part4\r\n        randomParts[5] = random(4)+bonus;\r\n        randomParams[0] = block.timestamp;\r\n        randomParams[1] = price;\r\n        randomParams[2] = 0;//idreproduce\r\n        randomParams[3] = 0;//mother\r\n        randomParams[4] = 0;//father\r\n        randomParams[5] = 0;//nbrreproduce\r\n        randomParams[6] = paramsContract[\"nextId\"];//tokenId\r\n        randomParams[7] = typeMint;//type\r\n        paramsContract[\"nextId\"]++;\r\n\r\n        TokenDelegable contrat = TokenDelegable(addressContract);\r\n        contrat.mint(to, randomParts, randomParams);\r\n    }\r\n\r\n    function mintDelegate(uint8 typeMint) public payable{\r\n\r\n        uint8 bonus = 0;\r\n        require(typeMint == 0 || typeMint == 1 || typeMint == 2,\"Type not good\");\r\n        if(typeMint == 0){\r\n            require(msg.value >= paramsContract[\"priceEggOne\"],\"More ETH required\");\r\n            require(paramsContract[\"eggOneRemain\"] > 0,\"No eggs remaining\");\r\n            bonus = 8;\r\n            paramsContract[\"eggOneRemain\"]--;\r\n        }else if(typeMint == 1){\r\n            require(msg.value >= paramsContract[\"priceEggTwo\"],\"More ETH required\");\r\n            require(paramsContract[\"eggTwoRemain\"] > 0,\"No eggs remaining\");\r\n            bonus = 4;\r\n            paramsContract[\"eggTwoRemain\"]--;\r\n        }else if(typeMint == 2){\r\n            require(msg.value >= paramsContract[\"priceEggThree\"],\"More ETH required\");\r\n            require(paramsContract[\"eggThreeRemain\"] > 0,\"No eggs remaining\");\r\n            bonus = 0;\r\n            paramsContract[\"eggThreeRemain\"]--;\r\n        }\r\n        uint8[] memory randomParts = new uint8[](6);\r\n        uint256[] memory randomParams = new uint256[](10);\r\n        randomParts[0] = random(4);//color\r\n        randomParts[1] = random(4)+bonus;//part1\r\n        randomParts[2] = random(4)+bonus;//part2\r\n        randomParts[3] = random(4)+bonus;//part3\r\n        randomParts[4] = random(4)+bonus;//part4\r\n        randomParts[5] = random(4)+bonus;\r\n        randomParams[0] = block.timestamp;\r\n        randomParams[1] = msg.value;\r\n        randomParams[2] = 0;//idreproduce\r\n        randomParams[3] = 0;//mother\r\n        randomParams[4] = 0;//father\r\n        randomParams[5] = 0;//nbrreproduce\r\n        randomParams[6] = paramsContract[\"nextId\"];//tokenId\r\n        randomParams[7] = typeMint;//type\r\n        paramsContract[\"nextId\"]++;\r\n\r\n        TokenDelegable contrat = TokenDelegable(addressContract);\r\n        contrat.mint(msg.sender, randomParts, randomParams);\r\n    }\r\n\r\n    \r\n    function paramsNyxies(uint256 tokenId,bool sellable,bool egg, uint256 tokenIdReproducable) public {\r\n        \r\n        TokenDelegable contrat = TokenDelegable(addressContract);\r\n        TokenDelegable.Nyxies memory nyxiesTemp =  contrat.getTokenDetails(tokenId);\r\n        nyxiesTemp.inSell = sellable;\r\n        if(nyxiesTemp.egg != egg) nyxiesTemp.params256[0] = block.timestamp;\r\n        nyxiesTemp.egg = egg;\r\n        nyxiesTemp.params256[1] = tokenIdReproducable;\r\n\r\n        contrat.updateToken(nyxiesTemp,tokenId,msg.sender);\r\n    }\r\n\r\n    /*function purchaseAndTransfer(address contactAddr, uint256 tokenId,bool purchase) external payable {\r\n        TokenDelegable contrat = TokenDelegable(addressContract);\r\n        TokenDelegable.Nyxies memory nyxies =  contrat.getTokenDetails(tokenId);\r\n        require(msg.value >= nyxies.params256[1], \"Insufficient fonds sent\");\r\n        require(contrat.getOwnerOf(tokenId) != (purchase?msg.sender:contactAddr), \"Already Owned\");\r\n        uint256[] memory resultIndex = contrat.getAllTokensForUser(msg.sender);\r\n        require(resultIndex.length <= 1, \"Already have a nyxies\");\r\n        nyxies.inSell=false;\r\n        contrat.updateToken(nyxies,tokenId,msg.sender);\r\n        contrat.transfer((purchase?contactAddr:msg.sender), (purchase?msg.sender:contactAddr), tokenId);\r\n    }*/\r\n\r\n    function purchase(address contactAddr, uint256 tokenId) external payable {//vendre que des oeufs ou si adulte checker qu'ont a pas d'autre adulte\r\n        TokenDelegable contrat = TokenDelegable(addressContract);\r\n        TokenDelegable.Nyxies memory nyxie = contrat.getTokenDetails(tokenId);\r\n        require(msg.value >= nyxie.params256[1], \"Insufficient fonds sent\");\r\n        require(contrat.getOwnerOf(tokenId) != msg.sender, \"Already Owned\");\r\n        if(nyxie.egg == false){\r\n            uint256[] memory resultIndex = contrat.getAllTokensForUser(msg.sender);\r\n            bool alreadyHaveAdult = false;\r\n            uint256 i;\r\n            for(i = 0; i < resultIndex.length; i++){\r\n                //TokenDelegable.Nyxies memory nyxieOwned = contrat.getTokenDetails(resultIndex[i]);\r\n                if(contrat.getTokenDetails(resultIndex[i]).egg == false) alreadyHaveAdult = true;\r\n            }\r\n            require(alreadyHaveAdult == false, \"Already have a nyxies\");\r\n        }\r\n        nyxie.inSell=false;\r\n        contrat.updateToken(nyxie,tokenId,msg.sender);\r\n        contrat.transfer(contactAddr, msg.sender, tokenId);\r\n    }\r\n\r\n    function getAllTokensForUser(address user) external view returns (uint256[] memory){\r\n        TokenDelegable contrat = TokenDelegable(addressContract);\r\n        return contrat.getAllTokensForUser(user);\r\n    }\r\n\r\n    function getTokenDetails(uint256 tokenId) external view returns (TokenDelegable.Nyxies memory){\r\n        TokenDelegable contrat = TokenDelegable(addressContract);\r\n        return contrat.getTokenDetails(tokenId);\r\n    }\r\n\r\n    /*function reproduce( uint256 tokenIdOne, address senderInvit, uint256 tokenIdTwo) public {\r\n\r\n        TokenDelegable contrat = TokenDelegable(addressContract);\r\n        TokenDelegable.Nyxies memory nyxiesOne =  contrat.getTokenDetails(tokenIdOne);\r\n        TokenDelegable.Nyxies memory nyxiesTwo =  contrat.getTokenDetails(tokenIdTwo);\r\n\r\n        require(nyxiesOne.params256[0] != 0 && nyxiesTwo.params256[0] != 0,\"Nyxies not exist\");\r\n        require((tokenIdOne != nyxiesTwo.params256[3] && tokenIdOne != nyxiesTwo.params256[4] && tokenIdTwo != nyxiesOne.params256[3] && tokenIdOne != nyxiesOne.params256[4] && nyxiesOne.params256[4] != nyxiesTwo.params256[4] && nyxiesOne.params256[4] != nyxiesTwo.params256[3] && nyxiesOne.params256[3] != nyxiesTwo.params256[4] && nyxiesOne.params256[3] != nyxiesTwo.params256[3]) || (nyxiesTwo.params256[3] == 0 && nyxiesTwo.params256[4] == 0 && nyxiesOne.params256[3] == 0 && nyxiesOne.params256[4] == 0) ,\"Parently too close\");\r\n        require(nyxiesTwo.params256[2] == tokenIdOne && contrat.getOwnerOf(tokenIdOne) == msg.sender && contrat.getOwnerOf(tokenIdTwo) == senderInvit && nyxiesTwo.params256[5] < 3 && nyxiesOne.params256[5] < 3 ,\"Too many reproduce time\");\r\n\r\n        \r\n        uint8[] memory randomParts = new uint8[](6);\r\n        uint256[] memory randomParams = new uint256[](10);\r\n        randomParts[0] = random(2)==0?nyxiesOne.params8[0]:nyxiesTwo.params8[0];\r\n        randomParts[1] = random(2)==0?nyxiesOne.params8[1]:nyxiesTwo.params8[1];\r\n        randomParts[2] = random(2)==0?nyxiesOne.params8[2]:nyxiesTwo.params8[2];\r\n        randomParts[3] = random(2)==0?nyxiesOne.params8[3]:nyxiesTwo.params8[3];\r\n        randomParts[4] = random(2)==0?nyxiesOne.params8[4]:nyxiesTwo.params8[4];\r\n        randomParts[5] = random(2)==0?nyxiesOne.params8[5]:nyxiesTwo.params8[5];\r\n        randomParams[0] = block.timestamp;\r\n        randomParams[1] = (nyxiesOne.params256[1]+nyxiesTwo.params256[1])/2;\r\n        randomParams[2] = 0;//idreproduce\r\n        randomParams[3] = tokenIdOne;//mother\r\n        randomParams[4] = tokenIdTwo;//father\r\n        randomParams[5] = 0;//nbrreproduce\r\n        randomParams[6] = paramsContract[\"nextId\"];//tokenId\r\n        randomParams[7] = 3;//type\r\n\r\n        \r\n        contrat.mint(msg.sender, randomParts, randomParams);\r\n        paramsContract[\"nextId\"]++;\r\n        randomParts[0] = random(2)==0?nyxiesOne.params8[0]:nyxiesTwo.params8[0];\r\n        randomParts[1] = random(2)==0?nyxiesOne.params8[1]:nyxiesTwo.params8[1];\r\n        randomParts[2] = random(2)==0?nyxiesOne.params8[2]:nyxiesTwo.params8[2];\r\n        randomParts[3] = random(2)==0?nyxiesOne.params8[3]:nyxiesTwo.params8[3];\r\n        randomParts[4] = random(2)==0?nyxiesOne.params8[4]:nyxiesTwo.params8[4];\r\n        randomParts[5] = random(2)==0?nyxiesOne.params8[5]:nyxiesTwo.params8[5];\r\n        randomParams[6] = paramsContract[\"nextId\"];//tokenId\r\n        contrat.mint(senderInvit, randomParts, randomParams);\r\n        paramsContract[\"nextId\"]++;\r\n        \r\n        nyxiesOne.params256[5]++;\r\n        nyxiesTwo.params256[5]++;\r\n        nyxiesTwo.params256[1] = 0;\r\n        \r\n        contrat.updateToken(nyxiesOne,tokenIdOne,msg.sender);\r\n        contrat.updateToken(nyxiesTwo,tokenIdTwo,senderInvit);\r\n    }*/\r\n\r\n    function random(uint8 maxNumber) public returns (uint8) {\r\n        uint256 randomnumber = uint256(keccak256(abi.encodePacked(block.timestamp, msg.sender, paramsContract[\"nonce\"]))) % maxNumber;\r\n        randomnumber = randomnumber ;\r\n        paramsContract[\"nonce\"]++;\r\n        return uint8(randomnumber);\r\n    }\r\n\r\n    /*FUNDS*/\r\n\r\n    function withdraw() public onlyOwner {\r\n        payable(msg.sender).transfer(address(this).balance);\r\n    }\r\n\r\n    function deposit(uint256 amount) payable public onlyOwner {\r\n        require(msg.value == amount);\r\n    }\r\n\r\n    function getBalance() public view returns (uint256)  {\r\n        return address(this).balance;\r\n    }\r\n\r\n}\r\n\r\n\r\n\r\n\r\n\r\n\r\n\r\n\r\n\r\n\r\ncontract TokenDelegable is ERC721, Ownable{\r\n    struct  Nyxies {\r\n        bool inSell;\r\n        bool egg;\r\n        uint8[] params8;//parts \r\n        uint256[] params256;//params\r\n    }\r\n\r\n    address adressDelegateContract;\r\n    mapping( string => uint ) paramsContract;\r\n    mapping( uint256 => Nyxies ) private _tokenDetails;\r\n\r\n    constructor(string memory name, string memory symbol) ERC721(name, symbol){\r\n        paramsContract[\"nextId\"] = 0;\r\n        paramsContract[\"nbrNyxies\"] = 0;\r\n    }\r\n\r\n    modifier byDelegate() {\r\n        require(msg.sender == adressDelegateContract,\"Not good delegate contract\");\r\n        _;\r\n    }\r\n\r\n    function mint(address sender, uint8[] memory params8, uint256[] memory params256) external payable {\r\n        _tokenDetails[paramsContract[\"nextId\"]] = Nyxies(false,true,params8,params256);\r\n        _safeMint(sender, paramsContract[\"nextId\"]);\r\n        paramsContract[\"nextId\"]++;\r\n        paramsContract[\"nbrNyxies\"]++;\r\n    }\r\n    \r\n    function burn(uint256 tokenId) public byDelegate {\r\n        _burn(tokenId);\r\n        paramsContract[\"nbrNyxies\"]--;\r\n    }\r\n\r\n    function transfer(address from, address to ,uint256 tokenId) external byDelegate {\r\n        _safeTransfer(from, to, tokenId, \"\");\r\n    }\r\n\r\n    function getTokenDetails(uint256 tokenId) external view returns (Nyxies memory){\r\n        return _tokenDetails[tokenId];\r\n    }\r\n\r\n    function getAllTokensForUser(address user) external view returns (uint256[] memory){\r\n        uint256 tokenCount = balanceOf(user);\r\n        if(tokenCount == 0){\r\n            return new uint256[](0);\r\n        }\r\n        else{\r\n            uint[] memory result = new uint256[](tokenCount);\r\n            uint256 totalNyxiess = paramsContract[\"nextId\"];\r\n            uint256 resultIndex = 0;\r\n            uint256 i;\r\n            for(i = 0; i < totalNyxiess; i++){\r\n                if(ownerOf(i) == user){\r\n                    result[resultIndex] = i;\r\n                    resultIndex++;\r\n                }\r\n            }\r\n            return result;\r\n        }\r\n    }\r\n\r\n    function getOwnerOf(uint256 tokenId) external view returns (address) {\r\n        return ownerOf(tokenId);\r\n    }\r\n\r\n    function getBalanceOf(address user) external view returns (uint) {\r\n        return balanceOf(user);\r\n    }\r\n\r\n    function updateToken(Nyxies memory nyxiesTemp,uint256 tokenId,address owner) external byDelegate {\r\n        require(ownerOf(tokenId) == owner,\"Not Your nyxies\");\r\n        _tokenDetails[tokenId] = nyxiesTemp;\r\n    }\r\n\r\n    function setParamsContract(string memory keyParams, uint valueParams) external onlyOwner {\r\n        paramsContract[keyParams] = valueParams;\r\n    }\r\n\r\n    function getParamsContract(string memory keyParams) external view returns (uint){\r\n        return paramsContract[keyParams];\r\n    }\r\n\r\n    function setAdressDelegateContract(address _adress) external onlyOwner {\r\n        adressDelegateContract = _adress;\r\n    }\r\n\r\n}\r\n",
  "sourcePath": "C:\\laragon\\www\\nftWithFlo\\contracts\\TokenDelegable.sol",
  "compiler": {
    "name": "solc",
    "version": "0.8.0+commit.c7dfd78e.Emscripten.clang"
  },
  "schemaVersion": "3.4.4",
  "updatedAt": "2022-01-24T18:06:14.927Z",
  "networkType": "ethereum",
  "devdoc": {
    "kind": "dev",
    "methods": {
      "owner()": {
        "details": "Returns the address of the current owner."
      },
      "renounceOwnership()": {
        "details": "Leaves the contract without owner. It will not be possible to call `onlyOwner` functions anymore. Can only be called by the current owner. NOTE: Renouncing ownership will leave the contract without an owner, thereby removing any functionality that is only available to the owner."
      },
      "transferOwnership(address)": {
        "details": "Transfers ownership of the contract to a new account (`newOwner`). Can only be called by the current owner."
      }
    },
    "version": 1
  },
  "userdoc": {
    "kind": "user",
    "methods": {},
    "version": 1
  }
}