{
	"contractName": "DelegateContract",
	"abi": [
		{
			"inputs": [
				{
					"internalType": "address",
					"name": "_addressContract",
					"type": "address"
				}
			],
			"stateMutability": "nonpayable",
			"type": "constructor"
		},
		{
			"anonymous": false,
			"inputs": [
				{
					"indexed": true,
					"internalType": "address",
					"name": "previousOwner",
					"type": "address"
				},
				{
					"indexed": true,
					"internalType": "address",
					"name": "newOwner",
					"type": "address"
				}
			],
			"name": "OwnershipTransferred",
			"type": "event"
		},
		{
			"inputs": [],
			"name": "owner",
			"outputs": [
				{
					"internalType": "address",
					"name": "",
					"type": "address"
				}
			],
			"stateMutability": "view",
			"type": "function",
			"constant": true
		},
		{
			"inputs": [],
			"name": "renounceOwnership",
			"outputs": [],
			"stateMutability": "nonpayable",
			"type": "function"
		},
		{
			"inputs": [
				{
					"internalType": "address",
					"name": "newOwner",
					"type": "address"
				}
			],
			"name": "transferOwnership",
			"outputs": [],
			"stateMutability": "nonpayable",
			"type": "function"
		},
		{
			"inputs": [
				{
					"internalType": "address",
					"name": "_addressContract",
					"type": "address"
				}
			],
			"name": "setAddressContract",
			"outputs": [],
			"stateMutability": "nonpayable",
			"type": "function"
		},
		{
			"inputs": [
				{
					"internalType": "string",
					"name": "keyParams",
					"type": "string"
				},
				{
					"internalType": "uint256",
					"name": "valueParams",
					"type": "uint256"
				}
			],
			"name": "setParamsContract",
			"outputs": [],
			"stateMutability": "nonpayable",
			"type": "function"
		},
		{
			"inputs": [
				{
					"internalType": "string",
					"name": "keyParams",
					"type": "string"
				}
			],
			"name": "getParamsContract",
			"outputs": [
				{
					"internalType": "uint256",
					"name": "",
					"type": "uint256"
				}
			],
			"stateMutability": "view",
			"type": "function",
			"constant": true
		},
		{
			"inputs": [
				{
					"internalType": "string",
					"name": "keyParams",
					"type": "string"
				},
				{
					"internalType": "uint256",
					"name": "valueParams",
					"type": "uint256"
				}
			],
			"name": "setParamsDelegate",
			"outputs": [],
			"stateMutability": "nonpayable",
			"type": "function"
		},
		{
			"inputs": [
				{
					"internalType": "uint8",
					"name": "typeMint",
					"type": "uint8"
				},
				{
					"internalType": "address",
					"name": "to",
					"type": "address"
				},
				{
					"internalType": "uint256",
					"name": "number",
					"type": "uint256"
				}
			],
			"name": "giveNyxie",
			"outputs": [],
			"stateMutability": "nonpayable",
			"type": "function"
		},
		{
			"inputs": [
				{
					"internalType": "uint8",
					"name": "typeMint",
					"type": "uint8"
				}
			],
			"name": "mintDelegate",
			"outputs": [],
			"stateMutability": "payable",
			"type": "function",
			"payable": true
		},
		{
			"inputs": [
				{
					"internalType": "uint256",
					"name": "tokenId",
					"type": "uint256"
				},
				{
					"internalType": "bool",
					"name": "sellable",
					"type": "bool"
				},
				{
					"internalType": "bool",
					"name": "egg",
					"type": "bool"
				},
				{
					"internalType": "uint256",
					"name": "tokenIdReproducable",
					"type": "uint256"
				}
			],
			"name": "paramsNyxies",
			"outputs": [],
			"stateMutability": "nonpayable",
			"type": "function"
		},
		{
			"inputs": [
				{
					"internalType": "address",
					"name": "contactAddr",
					"type": "address"
				},
				{
					"internalType": "uint256",
					"name": "tokenId",
					"type": "uint256"
				}
			],
			"name": "purchase",
			"outputs": [],
			"stateMutability": "payable",
			"type": "function",
			"payable": true
		},
		{
			"inputs": [
				{
					"internalType": "address",
					"name": "user",
					"type": "address"
				}
			],
			"name": "getAllTokensForUser",
			"outputs": [
				{
					"internalType": "uint256[]",
					"name": "",
					"type": "uint256[]"
				}
			],
			"stateMutability": "view",
			"type": "function",
			"constant": true
		},
		{
			"inputs": [
				{
					"internalType": "uint256",
					"name": "tokenId",
					"type": "uint256"
				}
			],
			"name": "getTokenDetails",
			"outputs": [
				{
					"components": [
						{
							"internalType": "bool",
							"name": "inSell",
							"type": "bool"
						},
						{
							"internalType": "bool",
							"name": "egg",
							"type": "bool"
						},
						{
							"internalType": "uint8[]",
							"name": "params8",
							"type": "uint8[]"
						},
						{
							"internalType": "uint256[]",
							"name": "params256",
							"type": "uint256[]"
						}
					],
					"internalType": "struct TokenDelegable.Nyxies",
					"name": "",
					"type": "tuple"
				}
			],
			"stateMutability": "view",
			"type": "function",
			"constant": true
		},
		{
			"inputs": [
				{
					"internalType": "uint8",
					"name": "maxNumber",
					"type": "uint8"
				}
			],
			"name": "random",
			"outputs": [
				{
					"internalType": "uint8",
					"name": "",
					"type": "uint8"
				}
			],
			"stateMutability": "nonpayable",
			"type": "function"
		},
		{
			"inputs": [],
			"name": "withdraw",
			"outputs": [],
			"stateMutability": "nonpayable",
			"type": "function"
		},
		{
			"inputs": [
				{
					"internalType": "uint256",
					"name": "amount",
					"type": "uint256"
				}
			],
			"name": "deposit",
			"outputs": [],
			"stateMutability": "payable",
			"type": "function",
			"payable": true
		},
		{
			"inputs": [],
			"name": "getBalance",
			"outputs": [
				{
					"internalType": "uint256",
					"name": "",
					"type": "uint256"
				}
			],
			"stateMutability": "view",
			"type": "function",
			"constant": true
		}
	],
	"bytecode": "0x60806040523480156200001157600080fd5b50604051620040573803806200405783398181016040528101906200003791906200035c565b620000576200004b6200026260201b60201c565b6200026a60201b60201c565b80600160006101000a81548173ffffffffffffffffffffffffffffffffffffffff021916908373ffffffffffffffffffffffffffffffffffffffff160217905550600160009054906101000a900473ffffffffffffffffffffffffffffffffffffffff1673ffffffffffffffffffffffffffffffffffffffff1663f26bf0b76040518163ffffffff1660e01b8152600401620000f39062000665565b60206040518083038186803b1580156200010c57600080fd5b505afa15801562000121573d6000803e3d6000fd5b505050506040513d601f19601f8201168201806040525081019062000147919062000388565b6002604051620001579062000609565b90815260200160405180910390208190555068056bc75e2d631000006002604051620001839062000620565b9081526020016040518091039020819055506801158e460913d000006002604051620001af90620005f2565b908152602001604051809103902081905550678ac7230489e800006002604051620001da9062000637565b9081526020016040518091039020819055506103e86002604051620001ff90620005db565b908152602001604051809103902081905550610bb860026040516200022490620005c4565b908152602001604051809103902081905550611770600260405162000249906200064e565b9081526020016040518091039020819055505062000715565b600033905090565b60008060009054906101000a900473ffffffffffffffffffffffffffffffffffffffff169050816000806101000a81548173ffffffffffffffffffffffffffffffffffffffff021916908373ffffffffffffffffffffffffffffffffffffffff1602179055508173ffffffffffffffffffffffffffffffffffffffff168173ffffffffffffffffffffffffffffffffffffffff167f8be0079c531659141344cd1fd0a4f28419497f9722a3daafe3b4186f6b6457e060405160405180910390a35050565b6000815190506200033f81620006e1565b92915050565b6000815190506200035681620006fb565b92915050565b6000602082840312156200036f57600080fd5b60006200037f848285016200032e565b91505092915050565b6000602082840312156200039b57600080fd5b6000620003ab8482850162000345565b91505092915050565b6000620003c3600c8362000698565b91507f65676754776f52656d61696e00000000000000000000000000000000000000006000830152600c82019050919050565b600062000405600c8362000698565b91507f6567674f6e6552656d61696e00000000000000000000000000000000000000006000830152600c82019050919050565b600062000447600b8362000698565b91507f707269636545676754776f0000000000000000000000000000000000000000006000830152600b82019050919050565b60006200048960068362000687565b91507f6e657874496400000000000000000000000000000000000000000000000000006000830152602082019050919050565b6000620004cb60068362000698565b91507f6e657874496400000000000000000000000000000000000000000000000000006000830152600682019050919050565b60006200050d600b8362000698565b91507f70726963654567674f6e650000000000000000000000000000000000000000006000830152600b82019050919050565b60006200054f600d8362000698565b91507f70726963654567675468726565000000000000000000000000000000000000006000830152600d82019050919050565b600062000591600e8362000698565b91507f656767546872656552656d61696e0000000000000000000000000000000000006000830152600e82019050919050565b6000620005d182620003b4565b9150819050919050565b6000620005e882620003f6565b9150819050919050565b6000620005ff8262000438565b9150819050919050565b60006200061682620004bc565b9150819050919050565b60006200062d82620004fe565b9150819050919050565b6000620006448262000540565b9150819050919050565b60006200065b8262000582565b9150819050919050565b6000602082019050818103600083015262000680816200047a565b9050919050565b600082825260208201905092915050565b600081905092915050565b6000620006b082620006b7565b9050919050565b600073ffffffffffffffffffffffffffffffffffffffff82169050919050565b6000819050919050565b620006ec81620006a3565b8114620006f857600080fd5b50565b6200070681620006d7565b81146200071257600080fd5b50565b61393280620007256000396000f3fe6080604052600436106100fe5760003560e01c80638de9322211610095578063c1e0372811610064578063c1e03728146102bc578063d6b730d2146102f9578063e0e0e2d314610322578063f26bf0b71461035f578063f2fde38b1461039c576100fe565b80638de932221461023f578063a5042fec1461025b578063b558072314610284578063b6b55f25146102a0576100fe565b806369cb44f7116100d157806369cb44f714610197578063715018a6146101c057806382de8fe9146101d75780638da5cb5b14610214576100fe565b806312065fe0146101035780633a2ef8fc1461012e5780633cb11944146101575780633ccfd60b14610180575b600080fd5b34801561010f57600080fd5b506101186103c5565b60405161012591906134ab565b60405180910390f35b34801561013a57600080fd5b5061015560048036038101906101509190612895565b6103cd565b005b34801561016357600080fd5b5061017e60048036038101906101799190612895565b610466565b005b34801561018c57600080fd5b50610195610509565b005b3480156101a357600080fd5b506101be60048036038101906101b99190612953565b6105ce565b005b3480156101cc57600080fd5b506101d56107c4565b005b3480156101e357600080fd5b506101fe60048036038101906101f99190612785565b61084c565b60405161020b91906132f9565b60405180910390f35b34801561022057600080fd5b5061022961090b565b6040516102369190613254565b60405180910390f35b610259600480360381019061025491906127d7565b610934565b005b34801561026757600080fd5b50610282600480360381019061027d91906129df565b610e52565b005b61029e600480360381019061029991906129b6565b611618565b005b6102ba60048036038101906102b5919061292a565b611fe5565b005b3480156102c857600080fd5b506102e360048036038101906102de919061292a565b612070565b6040516102f0919061344b565b60405180910390f35b34801561030557600080fd5b50610320600480360381019061031b9190612785565b612135565b005b34801561032e57600080fd5b50610349600480360381019061034491906129b6565b6121f5565b60405161035691906134c6565b60405180910390f35b34801561036b57600080fd5b5061038660048036038101906103819190612854565b61228d565b60405161039391906134ab565b60405180910390f35b3480156103a857600080fd5b506103c360048036038101906103be9190612785565b6122b5565b005b600047905090565b6000600160009054906101000a900473ffffffffffffffffffffffffffffffffffffffff1690508073ffffffffffffffffffffffffffffffffffffffff16633cb1194484846040518363ffffffff1660e01b815260040161042f92919061331b565b600060405180830381600087803b15801561044957600080fd5b505af115801561045d573d6000803e3d6000fd5b50505050505050565b61046e6123ad565b73ffffffffffffffffffffffffffffffffffffffff1661048c61090b565b73ffffffffffffffffffffffffffffffffffffffff16146104e2576040517f08c379a00000000000000000000000000000000000000000000000000000000081526004016104d9906133eb565b60405180910390fd5b806002836040516104f39190613158565b9081526020016040518091039020819055505050565b6105116123ad565b73ffffffffffffffffffffffffffffffffffffffff1661052f61090b565b73ffffffffffffffffffffffffffffffffffffffff1614610585576040517f08c379a000000000000000000000000000000000000000000000000000000000815260040161057c906133eb565b60405180910390fd5b3373ffffffffffffffffffffffffffffffffffffffff166108fc479081150290604051600060405180830381858888f193505050501580156105cb573d6000803e3d6000fd5b50565b6000600160009054906101000a900473ffffffffffffffffffffffffffffffffffffffff16905060008173ffffffffffffffffffffffffffffffffffffffff1663c1e03728876040518263ffffffff1660e01b815260040161063091906134ab565b60006040518083038186803b15801561064857600080fd5b505afa15801561065c573d6000803e3d6000fd5b505050506040513d6000823e3d601f19601f8201168201806040525081019061068591906128e9565b90508481600001901515908115158152505083151581602001511515146106f2574281606001516000815181106106e5577f4e487b7100000000000000000000000000000000000000000000000000000000600052603260045260246000fd5b6020026020010181815250505b83816020019015159081151581525050828160600151600181518110610741577f4e487b7100000000000000000000000000000000000000000000000000000000600052603260045260246000fd5b6020026020010181815250508173ffffffffffffffffffffffffffffffffffffffff16635105d1718288336040518463ffffffff1660e01b815260040161078a9392919061346d565b600060405180830381600087803b1580156107a457600080fd5b505af11580156107b8573d6000803e3d6000fd5b50505050505050505050565b6107cc6123ad565b73ffffffffffffffffffffffffffffffffffffffff166107ea61090b565b73ffffffffffffffffffffffffffffffffffffffff1614610840576040517f08c379a0000000000000000000000000000000000000000000000000000000008152600401610837906133eb565b60405180910390fd5b61084a60006123b5565b565b60606000600160009054906101000a900473ffffffffffffffffffffffffffffffffffffffff1690508073ffffffffffffffffffffffffffffffffffffffff166382de8fe9846040518263ffffffff1660e01b81526004016108ae9190613254565b60006040518083038186803b1580156108c657600080fd5b505afa1580156108da573d6000803e3d6000fd5b505050506040513d6000823e3d601f19601f820116820180604052508101906109039190612813565b915050919050565b60008060009054906101000a900473ffffffffffffffffffffffffffffffffffffffff16905090565b6000600160009054906101000a900473ffffffffffffffffffffffffffffffffffffffff16905060008173ffffffffffffffffffffffffffffffffffffffff1663c1e03728846040518263ffffffff1660e01b815260040161099691906134ab565b60006040518083038186803b1580156109ae57600080fd5b505afa1580156109c2573d6000803e3d6000fd5b505050506040513d6000823e3d601f19601f820116820180604052508101906109eb91906128e9565b90508060600151600181518110610a2b577f4e487b7100000000000000000000000000000000000000000000000000000000600052603260045260246000fd5b6020026020010151341015610a75576040517f08c379a0000000000000000000000000000000000000000000000000000000008152600401610a6c9061342b565b60405180910390fd5b3373ffffffffffffffffffffffffffffffffffffffff168273ffffffffffffffffffffffffffffffffffffffff166383638710856040518263ffffffff1660e01b8152600401610ac591906134ab565b60206040518083038186803b158015610add57600080fd5b505afa158015610af1573d6000803e3d6000fd5b505050506040513d601f19601f82011682018060405250810190610b1591906127ae565b73ffffffffffffffffffffffffffffffffffffffff161415610b6c576040517f08c379a0000000000000000000000000000000000000000000000000000000008152600401610b63906133cb565b60405180910390fd5b60001515816020015115151415610d5d5760008273ffffffffffffffffffffffffffffffffffffffff166382de8fe9336040518263ffffffff1660e01b8152600401610bb89190613254565b60006040518083038186803b158015610bd057600080fd5b505afa158015610be4573d6000803e3d6000fd5b505050506040513d6000823e3d601f19601f82011682018060405250810190610c0d9190612813565b90506000805b8251811015610d1257600015158573ffffffffffffffffffffffffffffffffffffffff1663c1e03728858481518110610c75577f4e487b7100000000000000000000000000000000000000000000000000000000600052603260045260246000fd5b60200260200101516040518263ffffffff1660e01b8152600401610c9991906134ab565b60006040518083038186803b158015610cb157600080fd5b505afa158015610cc5573d6000803e3d6000fd5b505050506040513d6000823e3d601f19601f82011682018060405250810190610cee91906128e9565b6020015115151415610cff57600191505b8080610d0a9061374d565b915050610c13565b6000151582151514610d59576040517f08c379a0000000000000000000000000000000000000000000000000000000008152600401610d509061338b565b60405180910390fd5b5050505b60008160000190151590811515815250508173ffffffffffffffffffffffffffffffffffffffff16635105d1718285336040518463ffffffff1660e01b8152600401610dab9392919061346d565b600060405180830381600087803b158015610dc557600080fd5b505af1158015610dd9573d6000803e3d6000fd5b505050508173ffffffffffffffffffffffffffffffffffffffff1663beabacc88533866040518463ffffffff1660e01b8152600401610e1a9392919061326f565b600060405180830381600087803b158015610e3457600080fd5b505af1158015610e48573d6000803e3d6000fd5b5050505050505050565b610e5a6123ad565b73ffffffffffffffffffffffffffffffffffffffff16610e7861090b565b73ffffffffffffffffffffffffffffffffffffffff1614610ece576040517f08c379a0000000000000000000000000000000000000000000000000000000008152600401610ec5906133eb565b60405180910390fd5b60008060008560ff161480610ee6575060018560ff16145b80610ef4575060028560ff16145b610f33576040517f08c379a0000000000000000000000000000000000000000000000000000000008152600401610f2a906133ab565b60405180910390fd5b60008560ff161415610f6757600891506002604051610f51906131d8565b9081526020016040518091039020549050610fcd565b60018560ff161415610f9b57600491506002604051610f8590613199565b9081526020016040518091039020549050610fcc565b60028560ff161415610fcb57600091506002604051610fb9906131ed565b90815260200160405180910390205490505b5b5b6000600667ffffffffffffffff811115611010577f4e487b7100000000000000000000000000000000000000000000000000000000600052604160045260246000fd5b60405190808252806020026020018201604052801561103e5781602001602082028036833780820191505090505b5090506000600a67ffffffffffffffff811115611084577f4e487b7100000000000000000000000000000000000000000000000000000000600052604160045260246000fd5b6040519080825280602002602001820160405280156110b25781602001602082028036833780820191505090505b5090506110bf60046121f5565b826000815181106110f9577f4e487b7100000000000000000000000000000000000000000000000000000000600052603260045260246000fd5b602002602001019060ff16908160ff16815250508361111860046121f5565b6111229190613655565b8260018151811061115c577f4e487b7100000000000000000000000000000000000000000000000000000000600052603260045260246000fd5b602002602001019060ff16908160ff16815250508361117b60046121f5565b6111859190613655565b826002815181106111bf577f4e487b7100000000000000000000000000000000000000000000000000000000600052603260045260246000fd5b602002602001019060ff16908160ff1681525050836111de60046121f5565b6111e89190613655565b82600381518110611222577f4e487b7100000000000000000000000000000000000000000000000000000000600052603260045260246000fd5b602002602001019060ff16908160ff16815250508361124160046121f5565b61124b9190613655565b82600481518110611285577f4e487b7100000000000000000000000000000000000000000000000000000000600052603260045260246000fd5b602002602001019060ff16908160ff16815250506000826005815181106112d5577f4e487b7100000000000000000000000000000000000000000000000000000000600052603260045260246000fd5b602002602001019060ff16908160ff16815250504281600081518110611324577f4e487b7100000000000000000000000000000000000000000000000000000000600052603260045260246000fd5b602002602001018181525050828160018151811061136b577f4e487b7100000000000000000000000000000000000000000000000000000000600052603260045260246000fd5b6020026020010181815250506000816002815181106113b3577f4e487b7100000000000000000000000000000000000000000000000000000000600052603260045260246000fd5b6020026020010181815250506000816003815181106113fb577f4e487b7100000000000000000000000000000000000000000000000000000000600052603260045260246000fd5b602002602001018181525050600081600481518110611443577f4e487b7100000000000000000000000000000000000000000000000000000000600052603260045260246000fd5b60200260200101818152505060008160058151811061148b577f4e487b7100000000000000000000000000000000000000000000000000000000600052603260045260246000fd5b60200260200101818152505060026040516114a5906131ae565b908152602001604051809103902054816006815181106114ee577f4e487b7100000000000000000000000000000000000000000000000000000000600052603260045260246000fd5b6020026020010181815250508660ff1681600781518110611538577f4e487b7100000000000000000000000000000000000000000000000000000000600052603260045260246000fd5b6020026020010181815250506002604051611552906131ae565b908152602001604051809103902060008154809291906115719061374d565b91905055506000600160009054906101000a900473ffffffffffffffffffffffffffffffffffffffff1690508073ffffffffffffffffffffffffffffffffffffffff1663ef5634c58885858a6040518563ffffffff1660e01b81526004016115dc94939291906132a6565b600060405180830381600087803b1580156115f657600080fd5b505af115801561160a573d6000803e3d6000fd5b505050505050505050505050565b6000808260ff16148061162e575060018260ff16145b8061163c575060028260ff16145b61167b576040517f08c379a0000000000000000000000000000000000000000000000000000000008152600401611672906133ab565b60405180910390fd5b60008260ff161415611780576002604051611695906131d8565b9081526020016040518091039020543410156116e6576040517f08c379a00000000000000000000000000000000000000000000000000000000081526004016116dd9061340b565b60405180910390fd5b600060026040516116f690613184565b90815260200160405180910390205411611745576040517f08c379a000000000000000000000000000000000000000000000000000000000815260040161173c9061336b565b60405180910390fd5b60089050600260405161175790613184565b9081526020016040518091039020600081548092919061177690613723565b9190505550611988565b60018260ff16141561188557600260405161179a90613199565b9081526020016040518091039020543410156117eb576040517f08c379a00000000000000000000000000000000000000000000000000000000081526004016117e29061340b565b60405180910390fd5b600060026040516117fb9061316f565b9081526020016040518091039020541161184a576040517f08c379a00000000000000000000000000000000000000000000000000000000081526004016118419061336b565b60405180910390fd5b60049050600260405161185c9061316f565b9081526020016040518091039020600081548092919061187b90613723565b9190505550611987565b60028260ff16141561198657600260405161189f906131ed565b9081526020016040518091039020543410156118f0576040517f08c379a00000000000000000000000000000000000000000000000000000000081526004016118e79061340b565b60405180910390fd5b6000600260405161190090613202565b9081526020016040518091039020541161194f576040517f08c379a00000000000000000000000000000000000000000000000000000000081526004016119469061336b565b60405180910390fd5b60009050600260405161196190613202565b9081526020016040518091039020600081548092919061198090613723565b91905055505b5b5b6000600667ffffffffffffffff8111156119cb577f4e487b7100000000000000000000000000000000000000000000000000000000600052604160045260246000fd5b6040519080825280602002602001820160405280156119f95781602001602082028036833780820191505090505b5090506000600a67ffffffffffffffff811115611a3f577f4e487b7100000000000000000000000000000000000000000000000000000000600052604160045260246000fd5b604051908082528060200260200182016040528015611a6d5781602001602082028036833780820191505090505b509050611a7a60046121f5565b82600081518110611ab4577f4e487b7100000000000000000000000000000000000000000000000000000000600052603260045260246000fd5b602002602001019060ff16908160ff168152505082611ad360046121f5565b611add9190613655565b82600181518110611b17577f4e487b7100000000000000000000000000000000000000000000000000000000600052603260045260246000fd5b602002602001019060ff16908160ff168152505082611b3660046121f5565b611b409190613655565b82600281518110611b7a577f4e487b7100000000000000000000000000000000000000000000000000000000600052603260045260246000fd5b602002602001019060ff16908160ff168152505082611b9960046121f5565b611ba39190613655565b82600381518110611bdd577f4e487b7100000000000000000000000000000000000000000000000000000000600052603260045260246000fd5b602002602001019060ff16908160ff168152505082611bfc60046121f5565b611c069190613655565b82600481518110611c40577f4e487b7100000000000000000000000000000000000000000000000000000000600052603260045260246000fd5b602002602001019060ff16908160ff1681525050600082600581518110611c90577f4e487b7100000000000000000000000000000000000000000000000000000000600052603260045260246000fd5b602002602001019060ff16908160ff16815250504281600081518110611cdf577f4e487b7100000000000000000000000000000000000000000000000000000000600052603260045260246000fd5b6020026020010181815250503481600181518110611d26577f4e487b7100000000000000000000000000000000000000000000000000000000600052603260045260246000fd5b602002602001018181525050600081600281518110611d6e577f4e487b7100000000000000000000000000000000000000000000000000000000600052603260045260246000fd5b602002602001018181525050600081600381518110611db6577f4e487b7100000000000000000000000000000000000000000000000000000000600052603260045260246000fd5b602002602001018181525050600081600481518110611dfe577f4e487b7100000000000000000000000000000000000000000000000000000000600052603260045260246000fd5b602002602001018181525050600081600581518110611e46577f4e487b7100000000000000000000000000000000000000000000000000000000600052603260045260246000fd5b6020026020010181815250506002604051611e60906131ae565b90815260200160405180910390205481600681518110611ea9577f4e487b7100000000000000000000000000000000000000000000000000000000600052603260045260246000fd5b6020026020010181815250508360ff1681600781518110611ef3577f4e487b7100000000000000000000000000000000000000000000000000000000600052603260045260246000fd5b6020026020010181815250506002604051611f0d906131ae565b90815260200160405180910390206000815480929190611f2c9061374d565b91905055506000600185611f409190613655565b60ff1690506000600160009054906101000a900473ffffffffffffffffffffffffffffffffffffffff1690508073ffffffffffffffffffffffffffffffffffffffff1663ef5634c5338686866040518563ffffffff1660e01b8152600401611fab94939291906132a6565b600060405180830381600087803b158015611fc557600080fd5b505af1158015611fd9573d6000803e3d6000fd5b50505050505050505050565b611fed6123ad565b73ffffffffffffffffffffffffffffffffffffffff1661200b61090b565b73ffffffffffffffffffffffffffffffffffffffff1614612061576040517f08c379a0000000000000000000000000000000000000000000000000000000008152600401612058906133eb565b60405180910390fd5b80341461206d57600080fd5b50565b612078612479565b6000600160009054906101000a900473ffffffffffffffffffffffffffffffffffffffff1690508073ffffffffffffffffffffffffffffffffffffffff1663c1e03728846040518263ffffffff1660e01b81526004016120d891906134ab565b60006040518083038186803b1580156120f057600080fd5b505afa158015612104573d6000803e3d6000fd5b505050506040513d6000823e3d601f19601f8201168201806040525081019061212d91906128e9565b915050919050565b61213d6123ad565b73ffffffffffffffffffffffffffffffffffffffff1661215b61090b565b73ffffffffffffffffffffffffffffffffffffffff16146121b1576040517f08c379a00000000000000000000000000000000000000000000000000000000081526004016121a8906133eb565b60405180910390fd5b80600160006101000a81548173ffffffffffffffffffffffffffffffffffffffff021916908373ffffffffffffffffffffffffffffffffffffffff16021790555050565b6000808260ff164233600260405161220c906131c3565b90815260200160405180910390205460405160200161222d93929190613217565b6040516020818303038152906040528051906020012060001c61225091906137c4565b90506002604051612260906131c3565b9081526020016040518091039020600081548092919061227f9061374d565b919050555080915050919050565b600060028260405161229f9190613158565b9081526020016040518091039020549050919050565b6122bd6123ad565b73ffffffffffffffffffffffffffffffffffffffff166122db61090b565b73ffffffffffffffffffffffffffffffffffffffff1614612331576040517f08c379a0000000000000000000000000000000000000000000000000000000008152600401612328906133eb565b60405180910390fd5b600073ffffffffffffffffffffffffffffffffffffffff168173ffffffffffffffffffffffffffffffffffffffff1614156123a1576040517f08c379a00000000000000000000000000000000000000000000000000000000081526004016123989061334b565b60405180910390fd5b6123aa816123b5565b50565b600033905090565b60008060009054906101000a900473ffffffffffffffffffffffffffffffffffffffff169050816000806101000a81548173ffffffffffffffffffffffffffffffffffffffff021916908373ffffffffffffffffffffffffffffffffffffffff1602179055508173ffffffffffffffffffffffffffffffffffffffff168173ffffffffffffffffffffffffffffffffffffffff167f8be0079c531659141344cd1fd0a4f28419497f9722a3daafe3b4186f6b6457e060405160405180910390a35050565b604051806080016040528060001515815260200160001515815260200160608152602001606081525090565b60006124b86124b384613512565b6134e1565b905080838252602082019050828560208602820111156124d757600080fd5b60005b8581101561250757816124ed8882612746565b8452602084019350602083019250506001810190506124da565b5050509392505050565b600061252461251f8461353e565b6134e1565b9050808382526020820190508285602086028201111561254357600080fd5b60005b8581101561257357816125598882612770565b845260208401935060208301925050600181019050612546565b5050509392505050565b600061259061258b8461356a565b6134e1565b9050828152602081018484840111156125a857600080fd5b6125b38482856136e1565b509392505050565b6000813590506125ca816138a0565b92915050565b6000815190506125df816138a0565b92915050565b600082601f8301126125f657600080fd5b81516126068482602086016124a5565b91505092915050565b600082601f83011261262057600080fd5b8151612630848260208601612511565b91505092915050565b600081359050612648816138b7565b92915050565b60008151905061265d816138b7565b92915050565b600082601f83011261267457600080fd5b813561268484826020860161257d565b91505092915050565b60006080828403121561269f57600080fd5b6126a960806134e1565b905060006126b98482850161264e565b60008301525060206126cd8482850161264e565b602083015250604082015167ffffffffffffffff8111156126ed57600080fd5b6126f98482850161260f565b604083015250606082015167ffffffffffffffff81111561271957600080fd5b612725848285016125e5565b60608301525092915050565b600081359050612740816138ce565b92915050565b600081519050612755816138ce565b92915050565b60008135905061276a816138e5565b92915050565b60008151905061277f816138e5565b92915050565b60006020828403121561279757600080fd5b60006127a5848285016125bb565b91505092915050565b6000602082840312156127c057600080fd5b60006127ce848285016125d0565b91505092915050565b600080604083850312156127ea57600080fd5b60006127f8858286016125bb565b925050602061280985828601612731565b9150509250929050565b60006020828403121561282557600080fd5b600082015167ffffffffffffffff81111561283f57600080fd5b61284b848285016125e5565b91505092915050565b60006020828403121561286657600080fd5b600082013567ffffffffffffffff81111561288057600080fd5b61288c84828501612663565b91505092915050565b600080604083850312156128a857600080fd5b600083013567ffffffffffffffff8111156128c257600080fd5b6128ce85828601612663565b92505060206128df85828601612731565b9150509250929050565b6000602082840312156128fb57600080fd5b600082015167ffffffffffffffff81111561291557600080fd5b6129218482850161268d565b91505092915050565b60006020828403121561293c57600080fd5b600061294a84828501612731565b91505092915050565b6000806000806080858703121561296957600080fd5b600061297787828801612731565b945050602061298887828801612639565b935050604061299987828801612639565b92505060606129aa87828801612731565b91505092959194509250565b6000602082840312156129c857600080fd5b60006129d68482850161275b565b91505092915050565b6000806000606084860312156129f457600080fd5b6000612a028682870161275b565b9350506020612a13868287016125bb565b9250506040612a2486828701612731565b9150509250925092565b6000612a3a8383613105565b60208301905092915050565b6000612a52838361313a565b60208301905092915050565b612a678161368c565b82525050565b612a7e612a798261368c565b613796565b82525050565b6000612a8f826135ba565b612a9981856135f5565b9350612aa48361359a565b8060005b83811015612ad5578151612abc8882612a2e565b9750612ac7836135db565b925050600181019050612aa8565b5085935050505092915050565b6000612aed826135ba565b612af78185613606565b9350612b028361359a565b8060005b83811015612b33578151612b1a8882612a2e565b9750612b25836135db565b925050600181019050612b06565b5085935050505092915050565b6000612b4b826135c5565b612b558185613617565b9350612b60836135aa565b8060005b83811015612b91578151612b788882612a46565b9750612b83836135e8565b925050600181019050612b64565b5085935050505092915050565b6000612ba9826135c5565b612bb38185613628565b9350612bbe836135aa565b8060005b83811015612bef578151612bd68882612a46565b9750612be1836135e8565b925050600181019050612bc2565b5085935050505092915050565b612c058161369e565b82525050565b6000612c16826135d0565b612c208185613639565b9350612c308185602086016136f0565b612c3981613882565b840191505092915050565b6000612c4f826135d0565b612c59818561364a565b9350612c698185602086016136f0565b80840191505092915050565b6000612c82600c8361364a565b91507f65676754776f52656d61696e00000000000000000000000000000000000000006000830152600c82019050919050565b6000612cc2602683613639565b91507f4f776e61626c653a206e6577206f776e657220697320746865207a65726f206160008301527f64647265737300000000000000000000000000000000000000000000000000006020830152604082019050919050565b6000612d28600c8361364a565b91507f6567674f6e6552656d61696e00000000000000000000000000000000000000006000830152600c82019050919050565b6000612d68601183613639565b91507f4e6f20656767732072656d61696e696e670000000000000000000000000000006000830152602082019050919050565b6000612da8600b8361364a565b91507f707269636545676754776f0000000000000000000000000000000000000000006000830152600b82019050919050565b6000612de860068361364a565b91507f6e657874496400000000000000000000000000000000000000000000000000006000830152600682019050919050565b6000612e28601583613639565b91507f416c726561647920686176652061206e797869657300000000000000000000006000830152602082019050919050565b6000612e68600d83613639565b91507f54797065206e6f7420676f6f64000000000000000000000000000000000000006000830152602082019050919050565b6000612ea860058361364a565b91507f6e6f6e63650000000000000000000000000000000000000000000000000000006000830152600582019050919050565b6000612ee8600d83613639565b91507f416c7265616479204f776e6564000000000000000000000000000000000000006000830152602082019050919050565b6000612f28600b8361364a565b91507f70726963654567674f6e650000000000000000000000000000000000000000006000830152600b82019050919050565b6000612f68602083613639565b91507f4f776e61626c653a2063616c6c6572206973206e6f7420746865206f776e65726000830152602082019050919050565b6000612fa8601183613639565b91507f4d6f7265204554482072657175697265640000000000000000000000000000006000830152602082019050919050565b6000612fe8601783613639565b91507f496e73756666696369656e7420666f6e64732073656e740000000000000000006000830152602082019050919050565b6000613028600d8361364a565b91507f70726963654567675468726565000000000000000000000000000000000000006000830152600d82019050919050565b6000613068600e8361364a565b91507f656767546872656552656d61696e0000000000000000000000000000000000006000830152600e82019050919050565b60006080830160008301516130b36000860182612bfc565b5060208301516130c66020860182612bfc565b50604083015184820360408601526130de8282612b40565b915050606083015184820360608601526130f88282612a84565b9150508091505092915050565b61310e816136ca565b82525050565b61311d816136ca565b82525050565b61313461312f826136ca565b6137ba565b82525050565b613143816136d4565b82525050565b613152816136d4565b82525050565b60006131648284612c44565b915081905092915050565b600061317a82612c75565b9150819050919050565b600061318f82612d1b565b9150819050919050565b60006131a482612d9b565b9150819050919050565b60006131b982612ddb565b9150819050919050565b60006131ce82612e9b565b9150819050919050565b60006131e382612f1b565b9150819050919050565b60006131f88261301b565b9150819050919050565b600061320d8261305b565b9150819050919050565b60006132238286613123565b6020820191506132338285612a6d565b6014820191506132438284613123565b602082019150819050949350505050565b60006020820190506132696000830184612a5e565b92915050565b60006060820190506132846000830186612a5e565b6132916020830185612a5e565b61329e6040830184613114565b949350505050565b60006080820190506132bb6000830187612a5e565b81810360208301526132cd8186612b9e565b905081810360408301526132e18185612ae2565b90506132f06060830184613114565b95945050505050565b600060208201905081810360008301526133138184612ae2565b905092915050565b600060408201905081810360008301526133358185612c0b565b90506133446020830184613114565b9392505050565b6000602082019050818103600083015261336481612cb5565b9050919050565b6000602082019050818103600083015261338481612d5b565b9050919050565b600060208201905081810360008301526133a481612e1b565b9050919050565b600060208201905081810360008301526133c481612e5b565b9050919050565b600060208201905081810360008301526133e481612edb565b9050919050565b6000602082019050818103600083015261340481612f5b565b9050919050565b6000602082019050818103600083015261342481612f9b565b9050919050565b6000602082019050818103600083015261344481612fdb565b9050919050565b60006020820190508181036000830152613465818461309b565b905092915050565b60006060820190508181036000830152613487818661309b565b90506134966020830185613114565b6134a36040830184612a5e565b949350505050565b60006020820190506134c06000830184613114565b92915050565b60006020820190506134db6000830184613149565b92915050565b6000604051905081810181811067ffffffffffffffff8211171561350857613507613853565b5b8060405250919050565b600067ffffffffffffffff82111561352d5761352c613853565b5b602082029050602081019050919050565b600067ffffffffffffffff82111561355957613558613853565b5b602082029050602081019050919050565b600067ffffffffffffffff82111561358557613584613853565b5b601f19601f8301169050602081019050919050565b6000819050602082019050919050565b6000819050602082019050919050565b600081519050919050565b600081519050919050565b600081519050919050565b6000602082019050919050565b6000602082019050919050565b600082825260208201905092915050565b600082825260208201905092915050565b600082825260208201905092915050565b600082825260208201905092915050565b600082825260208201905092915050565b600081905092915050565b6000613660826136d4565b915061366b836136d4565b92508260ff03821115613681576136806137f5565b5b828201905092915050565b6000613697826136aa565b9050919050565b60008115159050919050565b600073ffffffffffffffffffffffffffffffffffffffff82169050919050565b6000819050919050565b600060ff82169050919050565b82818337600083830152505050565b60005b8381101561370e5780820151818401526020810190506136f3565b8381111561371d576000848401525b50505050565b600061372e826136ca565b91506000821415613742576137416137f5565b5b600182039050919050565b6000613758826136ca565b91507fffffffffffffffffffffffffffffffffffffffffffffffffffffffffffffffff82141561378b5761378a6137f5565b5b600182019050919050565b60006137a1826137a8565b9050919050565b60006137b382613893565b9050919050565b6000819050919050565b60006137cf826136ca565b91506137da836136ca565b9250826137ea576137e9613824565b5b828206905092915050565b7f4e487b7100000000000000000000000000000000000000000000000000000000600052601160045260246000fd5b7f4e487b7100000000000000000000000000000000000000000000000000000000600052601260045260246000fd5b7f4e487b7100000000000000000000000000000000000000000000000000000000600052604160045260246000fd5b6000601f19601f8301169050919050565b60008160601b9050919050565b6138a98161368c565b81146138b457600080fd5b50565b6138c08161369e565b81146138cb57600080fd5b50565b6138d7816136ca565b81146138e257600080fd5b50565b6138ee816136d4565b81146138f957600080fd5b5056fea2646970667358221220d38dc00ef3326518fe5944eb639461863fe461e786a3dcbbc453de1c29ba76eb64736f6c63430008000033",
	"immutableReferences": {},
	"source": "pragma solidity 0.8.0;\r\n\r\nimport '@openzeppelin/contracts/token/ERC721/extensions/ERC721Enumerable.sol';\r\nimport '@openzeppelin/contracts/access/Ownable.sol';\r\n\r\ncontract DelegateContract is Ownable {\r\n\r\n    constructor(address _addressContract) {\r\n        addressContract = _addressContract;\r\n        paramsContract[\"nextId\"] = TokenDelegable(addressContract).getParamsContract(\"nextId\");\r\n        paramsContract[\"priceEggOne\"] = 100000000000000000000;//dev:100000000000000000\r\n        paramsContract[\"priceEggTwo\"] = 20000000000000000000;//dev:20000000000000000\r\n        paramsContract[\"priceEggThree\"] = 10000000000000000000;//dev:10000000000000000\r\n        \r\n        paramsContract[\"eggOneRemain\"] = 1000;\r\n        paramsContract[\"eggTwoRemain\"] = 3000;\r\n        paramsContract[\"eggThreeRemain\"] = 6000;\r\n     }\r\n\r\n    address addressContract;\r\n    mapping( string => uint ) paramsContract;\r\n\r\n    function setAddressContract(address _addressContract) external onlyOwner {\r\n        addressContract = _addressContract;\r\n    }\r\n\r\n    function setParamsContract(string memory keyParams, uint valueParams) external onlyOwner {\r\n        paramsContract[keyParams] = valueParams;\r\n    }\r\n\r\n    function getParamsContract(string memory keyParams) external view returns (uint256){\r\n        return paramsContract[keyParams];\r\n    }\r\n\r\n    function setParamsDelegate(string memory keyParams, uint256 valueParams ) external {\r\n        TokenDelegable contrat = TokenDelegable(addressContract);\r\n        contrat.setParamsContract(keyParams, valueParams);\r\n    }\r\n\r\n    function giveNyxie(uint8 typeMint, address to, uint256 number) public onlyOwner{\r\n        uint8 bonus = 0;\r\n        uint256 price = 0;\r\n        require(typeMint == 0 || typeMint == 1 || typeMint == 2,\"Type not good\");\r\n        if(typeMint == 0){\r\n            bonus = 8;\r\n            price = paramsContract[\"priceEggOne\"];\r\n        }else if(typeMint == 1){\r\n            bonus = 4;\r\n            price = paramsContract[\"priceEggTwo\"];\r\n        }else if(typeMint == 2){\r\n            bonus = 0;\r\n            price = paramsContract[\"priceEggThree\"];\r\n        }\r\n        uint8[] memory randomParts = new uint8[](6);\r\n        uint256[] memory randomParams = new uint256[](10);\r\n        randomParts[0] = random(4);//color\r\n        randomParts[1] = random(4)+bonus;//part1\r\n        randomParts[2] = random(4)+bonus;//part2\r\n        randomParts[3] = random(4)+bonus;//part3\r\n        randomParts[4] = random(4)+bonus;//part4\r\n        randomParts[5] = 0;\r\n        randomParams[0] = block.timestamp;\r\n        randomParams[1] = price;\r\n        randomParams[2] = 0;//idreproduce\r\n        randomParams[3] = 0;//mother\r\n        randomParams[4] = 0;//father\r\n        randomParams[5] = 0;//nbrreproduce\r\n        randomParams[6] = paramsContract[\"nextId\"];//tokenId\r\n        randomParams[7] = typeMint;//type\r\n        paramsContract[\"nextId\"]++;\r\n\r\n        TokenDelegable contrat = TokenDelegable(addressContract);\r\n        contrat.mint(to, randomParts, randomParams,number);\r\n    }\r\n\r\n    function mintDelegate(uint8 typeMint) public payable{\r\n\r\n        uint8 bonus = 0;\r\n        require(typeMint == 0 || typeMint == 1 || typeMint == 2,\"Type not good\");\r\n        if(typeMint == 0){\r\n            require(msg.value >= paramsContract[\"priceEggOne\"],\"More ETH required\");\r\n            require(paramsContract[\"eggOneRemain\"] > 0,\"No eggs remaining\");\r\n            bonus = 8;\r\n            paramsContract[\"eggOneRemain\"]--;\r\n        }else if(typeMint == 1){\r\n            require(msg.value >= paramsContract[\"priceEggTwo\"],\"More ETH required\");\r\n            require(paramsContract[\"eggTwoRemain\"] > 0,\"No eggs remaining\");\r\n            bonus = 4;\r\n            paramsContract[\"eggTwoRemain\"]--;\r\n        }else if(typeMint == 2){\r\n            require(msg.value >= paramsContract[\"priceEggThree\"],\"More ETH required\");\r\n            require(paramsContract[\"eggThreeRemain\"] > 0,\"No eggs remaining\");\r\n            bonus = 0;\r\n            paramsContract[\"eggThreeRemain\"]--;\r\n        }\r\n        uint8[] memory randomParts = new uint8[](6);\r\n        uint256[] memory randomParams = new uint256[](10);\r\n        randomParts[0] = random(4);//color\r\n        randomParts[1] = random(4)+bonus;//part1\r\n        randomParts[2] = random(4)+bonus;//part2\r\n        randomParts[3] = random(4)+bonus;//part3\r\n        randomParts[4] = random(4)+bonus;//part4\r\n        randomParts[5] = 0;\r\n        randomParams[0] = block.timestamp;\r\n        randomParams[1] = msg.value;\r\n        randomParams[2] = 0;//idreproduce\r\n        randomParams[3] = 0;//mother\r\n        randomParams[4] = 0;//father\r\n        randomParams[5] = 0;//nbrreproduce\r\n        randomParams[6] = paramsContract[\"nextId\"];//tokenId\r\n        randomParams[7] = typeMint;//type\r\n        paramsContract[\"nextId\"]++;\r\n        uint256 number = uint256(typeMint+1);\r\n        TokenDelegable contrat = TokenDelegable(addressContract);\r\n        contrat.mint(msg.sender, randomParts, randomParams,number);\r\n    }\r\n\r\n    \r\n    function paramsNyxies(uint256 tokenId,bool sellable,bool egg, uint256 tokenIdReproducable) public {\r\n        \r\n        TokenDelegable contrat = TokenDelegable(addressContract);\r\n        TokenDelegable.Nyxies memory nyxiesTemp =  contrat.getTokenDetails(tokenId);\r\n        nyxiesTemp.inSell = sellable;\r\n        if(nyxiesTemp.egg != egg) nyxiesTemp.params256[0] = block.timestamp;\r\n        nyxiesTemp.egg = egg;\r\n        nyxiesTemp.params256[1] = tokenIdReproducable;\r\n\r\n        contrat.updateToken(nyxiesTemp,tokenId,msg.sender);\r\n    }\r\n\r\n    /*function purchaseAndTransfer(address contactAddr, uint256 tokenId,bool purchase) external payable {\r\n        TokenDelegable contrat = TokenDelegable(addressContract);\r\n        TokenDelegable.Nyxies memory nyxies =  contrat.getTokenDetails(tokenId);\r\n        require(msg.value >= nyxies.params256[1], \"Insufficient fonds sent\");\r\n        require(contrat.getOwnerOf(tokenId) != (purchase?msg.sender:contactAddr), \"Already Owned\");\r\n        uint256[] memory resultIndex = contrat.getAllTokensForUser(msg.sender);\r\n        require(resultIndex.length <= 1, \"Already have a nyxies\");\r\n        nyxies.inSell=false;\r\n        contrat.updateToken(nyxies,tokenId,msg.sender);\r\n        contrat.transfer((purchase?contactAddr:msg.sender), (purchase?msg.sender:contactAddr), tokenId);\r\n    }*/\r\n\r\n    function purchase(address contactAddr, uint256 tokenId) external payable {//vendre que des oeufs ou si adulte checker qu'ont a pas d'autre adulte\r\n        TokenDelegable contrat = TokenDelegable(addressContract);\r\n        TokenDelegable.Nyxies memory nyxie = contrat.getTokenDetails(tokenId);\r\n        require(msg.value >= nyxie.params256[1], \"Insufficient fonds sent\");\r\n        require(contrat.getOwnerOf(tokenId) != msg.sender, \"Already Owned\");\r\n        if(nyxie.egg == false){\r\n            uint256[] memory resultIndex = contrat.getAllTokensForUser(msg.sender);\r\n            bool alreadyHaveAdult = false;\r\n            uint256 i;\r\n            for(i = 0; i < resultIndex.length; i++){\r\n                //TokenDelegable.Nyxies memory nyxieOwned = contrat.getTokenDetails(resultIndex[i]);\r\n                if(contrat.getTokenDetails(resultIndex[i]).egg == false) alreadyHaveAdult = true;\r\n            }\r\n            require(alreadyHaveAdult == false, \"Already have a nyxies\");\r\n        }\r\n        nyxie.inSell=false;\r\n        contrat.updateToken(nyxie,tokenId,msg.sender);\r\n        contrat.transfer(contactAddr, msg.sender, tokenId);\r\n    }\r\n\r\n    function getAllTokensForUser(address user) external view returns (uint256[] memory){\r\n        TokenDelegable contrat = TokenDelegable(addressContract);\r\n        return contrat.getAllTokensForUser(user);\r\n    }\r\n\r\n    function getTokenDetails(uint256 tokenId) external view returns (TokenDelegable.Nyxies memory){\r\n        TokenDelegable contrat = TokenDelegable(addressContract);\r\n        return contrat.getTokenDetails(tokenId);\r\n    }\r\n\r\n    /*function reproduce( uint256 tokenIdOne, address senderInvit, uint256 tokenIdTwo) public {\r\n\r\n        TokenDelegable contrat = TokenDelegable(addressContract);\r\n        TokenDelegable.Nyxies memory nyxiesOne =  contrat.getTokenDetails(tokenIdOne);\r\n        TokenDelegable.Nyxies memory nyxiesTwo =  contrat.getTokenDetails(tokenIdTwo);\r\n\r\n        require(nyxiesOne.params256[0] != 0 && nyxiesTwo.params256[0] != 0,\"Nyxies not exist\");\r\n        require((tokenIdOne != nyxiesTwo.params256[3] && tokenIdOne != nyxiesTwo.params256[4] && tokenIdTwo != nyxiesOne.params256[3] && tokenIdOne != nyxiesOne.params256[4] && nyxiesOne.params256[4] != nyxiesTwo.params256[4] && nyxiesOne.params256[4] != nyxiesTwo.params256[3] && nyxiesOne.params256[3] != nyxiesTwo.params256[4] && nyxiesOne.params256[3] != nyxiesTwo.params256[3]) || (nyxiesTwo.params256[3] == 0 && nyxiesTwo.params256[4] == 0 && nyxiesOne.params256[3] == 0 && nyxiesOne.params256[4] == 0) ,\"Parently too close\");\r\n        require(nyxiesTwo.params256[2] == tokenIdOne && contrat.getOwnerOf(tokenIdOne) == msg.sender && contrat.getOwnerOf(tokenIdTwo) == senderInvit && nyxiesTwo.params256[5] < 3 && nyxiesOne.params256[5] < 3 ,\"Too many reproduce time\");\r\n\r\n        \r\n        uint8[] memory randomParts = new uint8[](6);\r\n        uint256[] memory randomParams = new uint256[](10);\r\n        randomParts[0] = random(2)==0?nyxiesOne.params8[0]:nyxiesTwo.params8[0];\r\n        randomParts[1] = random(2)==0?nyxiesOne.params8[1]:nyxiesTwo.params8[1];\r\n        randomParts[2] = random(2)==0?nyxiesOne.params8[2]:nyxiesTwo.params8[2];\r\n        randomParts[3] = random(2)==0?nyxiesOne.params8[3]:nyxiesTwo.params8[3];\r\n        randomParts[4] = random(2)==0?nyxiesOne.params8[4]:nyxiesTwo.params8[4];\r\n        randomParts[5] = random(2)==0?nyxiesOne.params8[5]:nyxiesTwo.params8[5];\r\n        randomParams[0] = block.timestamp;\r\n        randomParams[1] = (nyxiesOne.params256[1]+nyxiesTwo.params256[1])/2;\r\n        randomParams[2] = 0;//idreproduce\r\n        randomParams[3] = tokenIdOne;//mother\r\n        randomParams[4] = tokenIdTwo;//father\r\n        randomParams[5] = 0;//nbrreproduce\r\n        randomParams[6] = paramsContract[\"nextId\"];//tokenId\r\n        randomParams[7] = 3;//type\r\n\r\n        \r\n        contrat.mint(msg.sender, randomParts, randomParams);\r\n        paramsContract[\"nextId\"]++;\r\n        randomParts[0] = random(2)==0?nyxiesOne.params8[0]:nyxiesTwo.params8[0];\r\n        randomParts[1] = random(2)==0?nyxiesOne.params8[1]:nyxiesTwo.params8[1];\r\n        randomParts[2] = random(2)==0?nyxiesOne.params8[2]:nyxiesTwo.params8[2];\r\n        randomParts[3] = random(2)==0?nyxiesOne.params8[3]:nyxiesTwo.params8[3];\r\n        randomParts[4] = random(2)==0?nyxiesOne.params8[4]:nyxiesTwo.params8[4];\r\n        randomParts[5] = random(2)==0?nyxiesOne.params8[5]:nyxiesTwo.params8[5];\r\n        randomParams[6] = paramsContract[\"nextId\"];//tokenId\r\n        contrat.mint(senderInvit, randomParts, randomParams);\r\n        paramsContract[\"nextId\"]++;\r\n        \r\n        nyxiesOne.params256[5]++;\r\n        nyxiesTwo.params256[5]++;\r\n        nyxiesTwo.params256[1] = 0;\r\n        \r\n        contrat.updateToken(nyxiesOne,tokenIdOne,msg.sender);\r\n        contrat.updateToken(nyxiesTwo,tokenIdTwo,senderInvit);\r\n    }*/\r\n\r\n    function random(uint8 maxNumber) public returns (uint8) {\r\n        uint256 randomnumber = uint256(keccak256(abi.encodePacked(block.timestamp, msg.sender, paramsContract[\"nonce\"]))) % maxNumber;\r\n        randomnumber = randomnumber ;\r\n        paramsContract[\"nonce\"]++;\r\n        return uint8(randomnumber);\r\n    }\r\n\r\n    /*FUNDS*/\r\n\r\n    function withdraw() public onlyOwner {\r\n        payable(msg.sender).transfer(address(this).balance);\r\n    }\r\n\r\n    function deposit(uint256 amount) payable public onlyOwner {\r\n        require(msg.value == amount);\r\n    }\r\n\r\n    function getBalance() public view returns (uint256)  {\r\n        return address(this).balance;\r\n    }\r\n\r\n}\r\n\r\n\r\n\r\n\r\n\r\n\r\n\r\n\r\n\r\n\r\ncontract TokenDelegable is ERC721Enumerable, Ownable{\r\n    using Strings for uint256;\r\n    \r\n    struct  Nyxies {\r\n        bool inSell;\r\n        bool egg;\r\n        uint8[] params8;//parts \r\n        uint256[] params256;//params\r\n    }\r\n\r\n    address adressDelegateContract;\r\n    mapping( string => uint ) paramsContract;\r\n    mapping( uint256 => Nyxies ) private _tokenDetails;\r\n    string public baseURI;\r\n    string public baseExtension = \".json\";\r\n    bool public paused = false;\r\n\r\n    constructor(string memory name, string memory symbol, string memory _initBaseURI) ERC721(name, symbol){\r\n        //paramsContract[\"nextId\"] = 0;\r\n        paramsContract[\"nbrNyxies\"] = 0;\r\n        paramsContract[\"maxMintAmount\"] = 20;\r\n        paramsContract[\"maxSupply\"] = 100000;\r\n        setBaseURI(_initBaseURI);\r\n    }\r\n\r\n    function _baseURI() internal view virtual override returns (string memory) {\r\n        return baseURI;\r\n    }\r\n\r\n     function setBaseURI(string memory _newBaseURI) public onlyOwner {\r\n        baseURI = _newBaseURI;\r\n    }\r\n\r\n    function tokenURI(uint256 tokenId) public view virtual override returns (string memory) {\r\n        require( _exists(tokenId), \"ERC721Metadata: URI query for nonexistent token\" );\r\n        string memory currentBaseURI = _baseURI();\r\n        return bytes(currentBaseURI).length > 0 ? string(abi.encodePacked(currentBaseURI, tokenId.toString(), baseExtension)) : \"\";\r\n    }\r\n\r\n    modifier byDelegate() {\r\n        require(msg.sender == adressDelegateContract,\"Not good delegate contract\");\r\n        _;\r\n    }\r\n\r\n    function pause(bool _state) public onlyOwner {\r\n        paused = _state;\r\n    }\r\n\r\n    function mint(address sender, uint8[] memory params8, uint256[] memory params256, uint256 _mintAmount) external payable {\r\n        require(!paused);\r\n        require(_mintAmount > 0);\r\n        require(_mintAmount <= paramsContract[\"maxMintAmount\"]);\r\n        uint256 supply = totalSupply();\r\n        require(supply + _mintAmount <= paramsContract[\"maxSupply\"]);\r\n        for (uint256 i = 1; i <= _mintAmount; i++) {\r\n            _tokenDetails[supply + i] = Nyxies(false,true,params8,params256);\r\n            _safeMint(sender, supply + i);\r\n        }\r\n    }\r\n    \r\n    function burn(uint256 tokenId) public byDelegate {\r\n        _burn(tokenId);\r\n        paramsContract[\"nbrNyxies\"]--;\r\n    }\r\n\r\n    function transfer(address from, address to ,uint256 tokenId) external byDelegate {\r\n        _safeTransfer(from, to, tokenId, \"\");\r\n    }\r\n\r\n    function getTokenDetails(uint256 tokenId) external view returns (Nyxies memory){\r\n        return _tokenDetails[tokenId];\r\n    }\r\n\r\n    function getAllTokensForUser(address user) external view returns (uint256[] memory){\r\n        uint256 supply = totalSupply();\r\n        uint256 tokenCount = balanceOf(user);\r\n        if(tokenCount == 0){\r\n            return new uint256[](0);\r\n        }\r\n        else{\r\n            uint[] memory result = new uint256[](tokenCount);\r\n            uint256 totalNyxiess =supply;\r\n            uint256 resultIndex = 0;\r\n            uint256 i;\r\n            for(i = 0; i < totalNyxiess; i++){\r\n                if(ownerOf(i) == user){\r\n                    result[resultIndex] = i;\r\n                    resultIndex++;\r\n                }\r\n            }\r\n            return result;\r\n        }\r\n    }\r\n\r\n    function getOwnerOf(uint256 tokenId) external view returns (address) {\r\n        return ownerOf(tokenId);\r\n    }\r\n\r\n    function getBalanceOf(address user) external view returns (uint) {\r\n        return balanceOf(user);\r\n    }\r\n\r\n    function updateToken(Nyxies memory nyxiesTemp,uint256 tokenId,address owner) external byDelegate {\r\n        require(ownerOf(tokenId) == owner,\"Not Your nyxies\");\r\n        _tokenDetails[tokenId] = nyxiesTemp;\r\n    }\r\n\r\n    function setParamsContract(string memory keyParams, uint valueParams) external onlyOwner {\r\n        paramsContract[keyParams] = valueParams;\r\n    }\r\n\r\n    function getParamsContract(string memory keyParams) external view returns (uint){\r\n        return paramsContract[keyParams];\r\n    }\r\n\r\n    function setAdressDelegateContract(address _adress) external onlyOwner {\r\n        adressDelegateContract = _adress;\r\n    }\r\n\r\n}\r\n",
	"sourcePath": "C:\\laragon\\www\\nftWithFlo\\contracts\\TokenDelegable.sol",
	"compiler": {
		"name": "solc",
		"version": "0.8.0+commit.c7dfd78e.Emscripten.clang"
	},
	"schemaVersion": "3.4.4",
	"updatedAt": "2022-01-26T21:52:40.391Z",
	"networkType": "ethereum",
	"devdoc": {
		"kind": "dev",
		"methods": {
			"owner()": {
				"details": "Returns the address of the current owner."
			},
			"renounceOwnership()": {
				"details": "Leaves the contract without owner. It will not be possible to call `onlyOwner` functions anymore. Can only be called by the current owner. NOTE: Renouncing ownership will leave the contract without an owner, thereby removing any functionality that is only available to the owner."
			},
			"transferOwnership(address)": {
				"details": "Transfers ownership of the contract to a new account (`newOwner`). Can only be called by the current owner."
			}
		},
		"version": 1
	},
	"userdoc": {
		"kind": "user",
		"methods": {},
		"version": 1
	}
}