{
  "contractName": "TokenDelegable",
  "abi": [
    {
      "inputs": [
        {
          "internalType": "string",
          "name": "name",
          "type": "string"
        },
        {
          "internalType": "string",
          "name": "symbol",
          "type": "string"
        },
        {
          "internalType": "string",
          "name": "_initBaseURI",
          "type": "string"
        }
      ],
      "stateMutability": "nonpayable",
      "type": "constructor"
    },
    {
      "anonymous": false,
      "inputs": [
        {
          "indexed": true,
          "internalType": "address",
          "name": "owner",
          "type": "address"
        },
        {
          "indexed": true,
          "internalType": "address",
          "name": "approved",
          "type": "address"
        },
        {
          "indexed": true,
          "internalType": "uint256",
          "name": "tokenId",
          "type": "uint256"
        }
      ],
      "name": "Approval",
      "type": "event"
    },
    {
      "anonymous": false,
      "inputs": [
        {
          "indexed": true,
          "internalType": "address",
          "name": "owner",
          "type": "address"
        },
        {
          "indexed": true,
          "internalType": "address",
          "name": "operator",
          "type": "address"
        },
        {
          "indexed": false,
          "internalType": "bool",
          "name": "approved",
          "type": "bool"
        }
      ],
      "name": "ApprovalForAll",
      "type": "event"
    },
    {
      "anonymous": false,
      "inputs": [
        {
          "indexed": true,
          "internalType": "address",
          "name": "previousOwner",
          "type": "address"
        },
        {
          "indexed": true,
          "internalType": "address",
          "name": "newOwner",
          "type": "address"
        }
      ],
      "name": "OwnershipTransferred",
      "type": "event"
    },
    {
      "anonymous": false,
      "inputs": [
        {
          "indexed": true,
          "internalType": "address",
          "name": "from",
          "type": "address"
        },
        {
          "indexed": true,
          "internalType": "address",
          "name": "to",
          "type": "address"
        },
        {
          "indexed": true,
          "internalType": "uint256",
          "name": "tokenId",
          "type": "uint256"
        }
      ],
      "name": "Transfer",
      "type": "event"
    },
    {
      "inputs": [
        {
          "internalType": "address",
          "name": "to",
          "type": "address"
        },
        {
          "internalType": "uint256",
          "name": "tokenId",
          "type": "uint256"
        }
      ],
      "name": "approve",
      "outputs": [],
      "stateMutability": "nonpayable",
      "type": "function"
    },
    {
      "inputs": [
        {
          "internalType": "address",
          "name": "owner",
          "type": "address"
        }
      ],
      "name": "balanceOf",
      "outputs": [
        {
          "internalType": "uint256",
          "name": "",
          "type": "uint256"
        }
      ],
      "stateMutability": "view",
      "type": "function",
      "constant": true
    },
    {
      "inputs": [],
      "name": "baseExtension",
      "outputs": [
        {
          "internalType": "string",
          "name": "",
          "type": "string"
        }
      ],
      "stateMutability": "view",
      "type": "function",
      "constant": true
    },
    {
      "inputs": [],
      "name": "baseURI",
      "outputs": [
        {
          "internalType": "string",
          "name": "",
          "type": "string"
        }
      ],
      "stateMutability": "view",
      "type": "function",
      "constant": true
    },
    {
      "inputs": [
        {
          "internalType": "uint256",
          "name": "tokenId",
          "type": "uint256"
        }
      ],
      "name": "getApproved",
      "outputs": [
        {
          "internalType": "address",
          "name": "",
          "type": "address"
        }
      ],
      "stateMutability": "view",
      "type": "function",
      "constant": true
    },
    {
      "inputs": [
        {
          "internalType": "address",
          "name": "owner",
          "type": "address"
        },
        {
          "internalType": "address",
          "name": "operator",
          "type": "address"
        }
      ],
      "name": "isApprovedForAll",
      "outputs": [
        {
          "internalType": "bool",
          "name": "",
          "type": "bool"
        }
      ],
      "stateMutability": "view",
      "type": "function",
      "constant": true
    },
    {
      "inputs": [],
      "name": "name",
      "outputs": [
        {
          "internalType": "string",
          "name": "",
          "type": "string"
        }
      ],
      "stateMutability": "view",
      "type": "function",
      "constant": true
    },
    {
      "inputs": [],
      "name": "owner",
      "outputs": [
        {
          "internalType": "address",
          "name": "",
          "type": "address"
        }
      ],
      "stateMutability": "view",
      "type": "function",
      "constant": true
    },
    {
      "inputs": [
        {
          "internalType": "uint256",
          "name": "tokenId",
          "type": "uint256"
        }
      ],
      "name": "ownerOf",
      "outputs": [
        {
          "internalType": "address",
          "name": "",
          "type": "address"
        }
      ],
      "stateMutability": "view",
      "type": "function",
      "constant": true
    },
    {
      "inputs": [],
      "name": "paused",
      "outputs": [
        {
          "internalType": "bool",
          "name": "",
          "type": "bool"
        }
      ],
      "stateMutability": "view",
      "type": "function",
      "constant": true
    },
    {
      "inputs": [],
      "name": "renounceOwnership",
      "outputs": [],
      "stateMutability": "nonpayable",
      "type": "function"
    },
    {
      "inputs": [
        {
          "internalType": "address",
          "name": "from",
          "type": "address"
        },
        {
          "internalType": "address",
          "name": "to",
          "type": "address"
        },
        {
          "internalType": "uint256",
          "name": "tokenId",
          "type": "uint256"
        }
      ],
      "name": "safeTransferFrom",
      "outputs": [],
      "stateMutability": "nonpayable",
      "type": "function"
    },
    {
      "inputs": [
        {
          "internalType": "address",
          "name": "from",
          "type": "address"
        },
        {
          "internalType": "address",
          "name": "to",
          "type": "address"
        },
        {
          "internalType": "uint256",
          "name": "tokenId",
          "type": "uint256"
        },
        {
          "internalType": "bytes",
          "name": "_data",
          "type": "bytes"
        }
      ],
      "name": "safeTransferFrom",
      "outputs": [],
      "stateMutability": "nonpayable",
      "type": "function"
    },
    {
      "inputs": [
        {
          "internalType": "address",
          "name": "operator",
          "type": "address"
        },
        {
          "internalType": "bool",
          "name": "approved",
          "type": "bool"
        }
      ],
      "name": "setApprovalForAll",
      "outputs": [],
      "stateMutability": "nonpayable",
      "type": "function"
    },
    {
      "inputs": [
        {
          "internalType": "bytes4",
          "name": "interfaceId",
          "type": "bytes4"
        }
      ],
      "name": "supportsInterface",
      "outputs": [
        {
          "internalType": "bool",
          "name": "",
          "type": "bool"
        }
      ],
      "stateMutability": "view",
      "type": "function",
      "constant": true
    },
    {
      "inputs": [],
      "name": "symbol",
      "outputs": [
        {
          "internalType": "string",
          "name": "",
          "type": "string"
        }
      ],
      "stateMutability": "view",
      "type": "function",
      "constant": true
    },
    {
      "inputs": [
        {
          "internalType": "uint256",
          "name": "index",
          "type": "uint256"
        }
      ],
      "name": "tokenByIndex",
      "outputs": [
        {
          "internalType": "uint256",
          "name": "",
          "type": "uint256"
        }
      ],
      "stateMutability": "view",
      "type": "function",
      "constant": true
    },
    {
      "inputs": [
        {
          "internalType": "address",
          "name": "owner",
          "type": "address"
        },
        {
          "internalType": "uint256",
          "name": "index",
          "type": "uint256"
        }
      ],
      "name": "tokenOfOwnerByIndex",
      "outputs": [
        {
          "internalType": "uint256",
          "name": "",
          "type": "uint256"
        }
      ],
      "stateMutability": "view",
      "type": "function",
      "constant": true
    },
    {
      "inputs": [],
      "name": "totalSupply",
      "outputs": [
        {
          "internalType": "uint256",
          "name": "",
          "type": "uint256"
        }
      ],
      "stateMutability": "view",
      "type": "function",
      "constant": true
    },
    {
      "inputs": [
        {
          "internalType": "address",
          "name": "from",
          "type": "address"
        },
        {
          "internalType": "address",
          "name": "to",
          "type": "address"
        },
        {
          "internalType": "uint256",
          "name": "tokenId",
          "type": "uint256"
        }
      ],
      "name": "transferFrom",
      "outputs": [],
      "stateMutability": "nonpayable",
      "type": "function"
    },
    {
      "inputs": [
        {
          "internalType": "address",
          "name": "newOwner",
          "type": "address"
        }
      ],
      "name": "transferOwnership",
      "outputs": [],
      "stateMutability": "nonpayable",
      "type": "function"
    },
    {
      "inputs": [
        {
          "internalType": "string",
          "name": "_newBaseURI",
          "type": "string"
        }
      ],
      "name": "setBaseURI",
      "outputs": [],
      "stateMutability": "nonpayable",
      "type": "function"
    },
    {
      "inputs": [
        {
          "internalType": "uint256",
          "name": "tokenId",
          "type": "uint256"
        }
      ],
      "name": "tokenURI",
      "outputs": [
        {
          "internalType": "string",
          "name": "",
          "type": "string"
        }
      ],
      "stateMutability": "view",
      "type": "function",
      "constant": true
    },
    {
      "inputs": [
        {
          "internalType": "bool",
          "name": "_state",
          "type": "bool"
        }
      ],
      "name": "pause",
      "outputs": [],
      "stateMutability": "nonpayable",
      "type": "function"
    },
    {
      "inputs": [
        {
          "internalType": "address",
          "name": "sender",
          "type": "address"
        },
        {
          "internalType": "bool[]",
          "name": "booleans",
          "type": "bool[]"
        },
        {
          "internalType": "uint8[]",
          "name": "params8",
          "type": "uint8[]"
        },
        {
          "internalType": "uint256[]",
          "name": "params256",
          "type": "uint256[]"
        }
      ],
      "name": "mint",
      "outputs": [],
      "stateMutability": "payable",
      "type": "function",
      "payable": true
    },
    {
      "inputs": [
        {
          "internalType": "uint256",
          "name": "tokenId",
          "type": "uint256"
        }
      ],
      "name": "burn",
      "outputs": [],
      "stateMutability": "nonpayable",
      "type": "function"
    },
    {
      "inputs": [
        {
          "internalType": "address",
          "name": "from",
          "type": "address"
        },
        {
          "internalType": "address",
          "name": "to",
          "type": "address"
        },
        {
          "internalType": "uint256",
          "name": "tokenId",
          "type": "uint256"
        }
      ],
      "name": "transfer",
      "outputs": [],
      "stateMutability": "nonpayable",
      "type": "function"
    },
    {
      "inputs": [
        {
          "internalType": "address",
          "name": "user",
          "type": "address"
        }
      ],
      "name": "getAllTokensForUser",
      "outputs": [
        {
          "internalType": "uint256[]",
          "name": "",
          "type": "uint256[]"
        }
      ],
      "stateMutability": "view",
      "type": "function",
      "constant": true
    },
    {
      "inputs": [
        {
          "internalType": "uint256",
          "name": "tokenId",
          "type": "uint256"
        }
      ],
      "name": "getOwnerOf",
      "outputs": [
        {
          "internalType": "address",
          "name": "",
          "type": "address"
        }
      ],
      "stateMutability": "view",
      "type": "function",
      "constant": true
    },
    {
      "inputs": [
        {
          "internalType": "address",
          "name": "user",
          "type": "address"
        }
      ],
      "name": "getBalanceOf",
      "outputs": [
        {
          "internalType": "uint256",
          "name": "",
          "type": "uint256"
        }
      ],
      "stateMutability": "view",
      "type": "function",
      "constant": true
    },
    {
      "inputs": [
        {
          "components": [
            {
              "internalType": "bool[]",
              "name": "booleans",
              "type": "bool[]"
            },
            {
              "internalType": "uint8[]",
              "name": "params8",
              "type": "uint8[]"
            },
            {
              "internalType": "uint256[]",
              "name": "params256",
              "type": "uint256[]"
            }
          ],
          "internalType": "struct TokenDelegable.Token",
          "name": "tokenTemp",
          "type": "tuple"
        },
        {
          "internalType": "uint256",
          "name": "tokenId",
          "type": "uint256"
        },
        {
          "internalType": "address",
          "name": "owner",
          "type": "address"
        }
      ],
      "name": "updateToken",
      "outputs": [],
      "stateMutability": "nonpayable",
      "type": "function"
    },
    {
      "inputs": [
        {
          "internalType": "uint256",
          "name": "tokenId",
          "type": "uint256"
        }
      ],
      "name": "getTokenDetails",
      "outputs": [
        {
          "components": [
            {
              "internalType": "bool[]",
              "name": "booleans",
              "type": "bool[]"
            },
            {
              "internalType": "uint8[]",
              "name": "params8",
              "type": "uint8[]"
            },
            {
              "internalType": "uint256[]",
              "name": "params256",
              "type": "uint256[]"
            }
          ],
          "internalType": "struct TokenDelegable.Token",
          "name": "",
          "type": "tuple"
        }
      ],
      "stateMutability": "view",
      "type": "function",
      "constant": true
    },
    {
      "inputs": [
        {
          "internalType": "string",
          "name": "keyParams",
          "type": "string"
        },
        {
          "internalType": "uint256",
          "name": "valueParams",
          "type": "uint256"
        }
      ],
      "name": "setParamsContract",
      "outputs": [],
      "stateMutability": "nonpayable",
      "type": "function"
    },
    {
      "inputs": [
        {
          "internalType": "string",
          "name": "keyParams",
          "type": "string"
        }
      ],
      "name": "getParamsContract",
      "outputs": [
        {
          "internalType": "uint256",
          "name": "",
          "type": "uint256"
        }
      ],
      "stateMutability": "view",
      "type": "function",
      "constant": true
    },
    {
      "inputs": [
        {
          "internalType": "address",
          "name": "_adress",
          "type": "address"
        }
      ],
      "name": "setAdressDelegateContract",
      "outputs": [],
      "stateMutability": "nonpayable",
      "type": "function"
    },
    {
      "inputs": [],
      "name": "withdraw",
      "outputs": [],
      "stateMutability": "nonpayable",
      "type": "function"
    },
    {
      "inputs": [
        {
          "internalType": "uint256",
          "name": "amount",
          "type": "uint256"
        }
      ],
      "name": "deposit",
      "outputs": [],
      "stateMutability": "payable",
      "type": "function",
      "payable": true
    },
    {
      "inputs": [],
      "name": "getBalance",
      "outputs": [
        {
          "internalType": "uint256",
          "name": "",
          "type": "uint256"
        }
      ],
      "stateMutability": "view",
      "type": "function",
      "constant": true
    }
  ],
  "bytecode": "0x60806040526040518060400160405280600581526020017f2e6a736f6e000000000000000000000000000000000000000000000000000000815250600f908051906020019062000051929190620002fb565b506000601060006101000a81548160ff0219169083151502179055503480156200007a57600080fd5b5060405162005c9138038062005c918339818101604052810190620000a091906200041d565b82828160009080519060200190620000ba929190620002fb565b508060019080519060200190620000d3929190620002fb565b505050620000f6620000ea6200015860201b60201c565b6200016060201b60201c565b6000600c604051620001089062000584565b9081526020016040518091039020819055506000600c6040516200012c906200059b565b9081526020016040518091039020819055506200014f816200022660201b60201c565b50505062000721565b600033905090565b6000600a60009054906101000a900473ffffffffffffffffffffffffffffffffffffffff16905081600a60006101000a81548173ffffffffffffffffffffffffffffffffffffffff021916908373ffffffffffffffffffffffffffffffffffffffff1602179055508173ffffffffffffffffffffffffffffffffffffffff168173ffffffffffffffffffffffffffffffffffffffff167f8be0079c531659141344cd1fd0a4f28419497f9722a3daafe3b4186f6b6457e060405160405180910390a35050565b620002366200015860201b60201c565b73ffffffffffffffffffffffffffffffffffffffff166200025c620002d160201b60201c565b73ffffffffffffffffffffffffffffffffffffffff1614620002b5576040517f08c379a0000000000000000000000000000000000000000000000000000000008152600401620002ac90620005b2565b60405180910390fd5b80600e9080519060200190620002cd929190620002fb565b5050565b6000600a60009054906101000a900473ffffffffffffffffffffffffffffffffffffffff16905090565b82805462000309906200068d565b90600052602060002090601f0160209004810192826200032d576000855562000379565b82601f106200034857805160ff191683800117855562000379565b8280016001018555821562000379579182015b82811115620003785782518255916020019190600101906200035b565b5b5090506200038891906200038c565b5090565b5b80821115620003a75760008160009055506001016200038d565b5090565b6000620003c2620003bc8462000608565b620005d4565b905082815260208101848484011115620003db57600080fd5b620003e884828562000657565b509392505050565b600082601f8301126200040257600080fd5b815162000414848260208601620003ab565b91505092915050565b6000806000606084860312156200043357600080fd5b600084015167ffffffffffffffff8111156200044e57600080fd5b6200045c86828701620003f0565b935050602084015167ffffffffffffffff8111156200047a57600080fd5b6200048886828701620003f0565b925050604084015167ffffffffffffffff811115620004a657600080fd5b620004b486828701620003f0565b9150509250925092565b6000620004cd6006836200064c565b91507f6e657874496400000000000000000000000000000000000000000000000000006000830152600682019050919050565b60006200050f600b836200064c565b91507f746f74616c537570706c790000000000000000000000000000000000000000006000830152600b82019050919050565b6000620005516020836200063b565b91507f4f776e61626c653a2063616c6c6572206973206e6f7420746865206f776e65726000830152602082019050919050565b60006200059182620004be565b9150819050919050565b6000620005a88262000500565b9150819050919050565b60006020820190508181036000830152620005cd8162000542565b9050919050565b6000604051905081810181811067ffffffffffffffff82111715620005fe57620005fd620006f2565b5b8060405250919050565b600067ffffffffffffffff821115620006265762000625620006f2565b5b601f19601f8301169050602081019050919050565b600082825260208201905092915050565b600081905092915050565b60005b83811015620006775780820151818401526020810190506200065a565b8381111562000687576000848401525b50505050565b60006002820490506001821680620006a657607f821691505b60208210811415620006bd57620006bc620006c3565b5b50919050565b7f4e487b7100000000000000000000000000000000000000000000000000000000600052602260045260246000fd5b7f4e487b7100000000000000000000000000000000000000000000000000000000600052604160045260246000fd5b61556080620007316000396000f3fe6080604052600436106102255760003560e01c806370a0823111610123578063b88d4fde116100ab578063d57b3a3c1161006f578063d57b3a3c1461082e578063e1e5151d1461084a578063e985e9c514610873578063f26bf0b7146108b0578063f2fde38b146108ed57610225565b8063b88d4fde14610737578063beabacc814610760578063c1e0372814610789578063c6682862146107c6578063c87b56dd146107f157610225565b80638da5cb5b116100f25780638da5cb5b1461065f57806395d89b411461068a5780639b96eece146106b5578063a22cb465146106f2578063b6b55f251461071b57610225565b806370a0823114610591578063715018a6146105ce57806382de8fe9146105e5578063836387101461062257610225565b80633cb11944116101b15780634f6ccce7116101755780634f6ccce71461049857806355f804b3146104d55780635c975abb146104fe5780636352211e146105295780636c0360eb1461056657610225565b80633cb11944146103dd5780633ccfd60b1461040657806342842e0e1461041d57806342966c6814610446578063489720341461046f57610225565b8063095ea7b3116101f8578063095ea7b3146102f857806312065fe01461032157806318160ddd1461034c57806323b872dd146103775780632f745c59146103a057610225565b806301ffc9a71461022a57806302329a291461026757806306fdde0314610290578063081812fc146102bb575b600080fd5b34801561023657600080fd5b50610251600480360381019061024c9190613ed3565b610916565b60405161025e9190614c73565b60405180910390f35b34801561027357600080fd5b5061028e60048036038101906102899190613eaa565b610990565b005b34801561029c57600080fd5b506102a5610a29565b6040516102b29190614c8e565b60405180910390f35b3480156102c757600080fd5b506102e260048036038101906102dd9190614021565b610abb565b6040516102ef9190614bea565b60405180910390f35b34801561030457600080fd5b5061031f600480360381019061031a9190613e6e565b610b40565b005b34801561032d57600080fd5b50610336610c58565b6040516103439190614f52565b60405180910390f35b34801561035857600080fd5b50610361610c60565b60405161036e9190614f52565b60405180910390f35b34801561038357600080fd5b5061039e60048036038101906103999190613cbd565b610c6d565b005b3480156103ac57600080fd5b506103c760048036038101906103c29190613e6e565b610ccd565b6040516103d49190614f52565b60405180910390f35b3480156103e957600080fd5b5061040460048036038101906103ff9190613f66565b610d72565b005b34801561041257600080fd5b5061041b610e15565b005b34801561042957600080fd5b50610444600480360381019061043f9190613cbd565b610eda565b005b34801561045257600080fd5b5061046d60048036038101906104689190614021565b610efa565b005b34801561047b57600080fd5b5061049660048036038101906104919190613c58565b61103a565b005b3480156104a457600080fd5b506104bf60048036038101906104ba9190614021565b6110fa565b6040516104cc9190614f52565b60405180910390f35b3480156104e157600080fd5b506104fc60048036038101906104f79190613f25565b611191565b005b34801561050a57600080fd5b50610513611227565b6040516105209190614c73565b60405180910390f35b34801561053557600080fd5b50610550600480360381019061054b9190614021565b61123a565b60405161055d9190614bea565b60405180910390f35b34801561057257600080fd5b5061057b6112ec565b6040516105889190614c8e565b60405180910390f35b34801561059d57600080fd5b506105b860048036038101906105b39190613c58565b61137a565b6040516105c59190614f52565b60405180910390f35b3480156105da57600080fd5b506105e3611432565b005b3480156105f157600080fd5b5061060c60048036038101906106079190613c58565b6114ba565b6040516106199190614c51565b60405180910390f35b34801561062e57600080fd5b5061064960048036038101906106449190614021565b61169c565b6040516106569190614bea565b60405180910390f35b34801561066b57600080fd5b506106746116ae565b6040516106819190614bea565b60405180910390f35b34801561069657600080fd5b5061069f6116d8565b6040516106ac9190614c8e565b60405180910390f35b3480156106c157600080fd5b506106dc60048036038101906106d79190613c58565b61176a565b6040516106e99190614f52565b60405180910390f35b3480156106fe57600080fd5b5061071960048036038101906107149190613e32565b61177c565b005b61073560048036038101906107309190614021565b611792565b005b34801561074357600080fd5b5061075e60048036038101906107599190613d0c565b61181d565b005b34801561076c57600080fd5b5061078760048036038101906107829190613cbd565b61187f565b005b34801561079557600080fd5b506107b060048036038101906107ab9190614021565b6119a1565b6040516107bd9190614f30565b60405180910390f35b3480156107d257600080fd5b506107db611b21565b6040516107e89190614c8e565b60405180910390f35b3480156107fd57600080fd5b5061081860048036038101906108139190614021565b611baf565b6040516108259190614c8e565b60405180910390f35b61084860048036038101906108439190613d87565b611c59565b005b34801561085657600080fd5b50610871600480360381019061086c9190613fba565b611e8f565b005b34801561087f57600080fd5b5061089a60048036038101906108959190613c81565b61207a565b6040516108a79190614c73565b60405180910390f35b3480156108bc57600080fd5b506108d760048036038101906108d29190613f25565b61210e565b6040516108e49190614f52565b60405180910390f35b3480156108f957600080fd5b50610914600480360381019061090f9190613c58565b612136565b005b60007f780e9d63000000000000000000000000000000000000000000000000000000007bffffffffffffffffffffffffffffffffffffffffffffffffffffffff1916827bffffffffffffffffffffffffffffffffffffffffffffffffffffffff1916148061098957506109888261222e565b5b9050919050565b610998612310565b73ffffffffffffffffffffffffffffffffffffffff166109b66116ae565b73ffffffffffffffffffffffffffffffffffffffff1614610a0c576040517f08c379a0000000000000000000000000000000000000000000000000000000008152600401610a0390614e50565b60405180910390fd5b80601060006101000a81548160ff02191690831515021790555050565b606060008054610a389061533e565b80601f0160208091040260200160405190810160405280929190818152602001828054610a649061533e565b8015610ab15780601f10610a8657610100808354040283529160200191610ab1565b820191906000526020600020905b815481529060010190602001808311610a9457829003601f168201915b5050505050905090565b6000610ac682612318565b610b05576040517f08c379a0000000000000000000000000000000000000000000000000000000008152600401610afc90614e30565b60405180910390fd5b6004600083815260200190815260200160002060009054906101000a900473ffffffffffffffffffffffffffffffffffffffff169050919050565b6000610b4b8261123a565b90508073ffffffffffffffffffffffffffffffffffffffff168373ffffffffffffffffffffffffffffffffffffffff161415610bbc576040517f08c379a0000000000000000000000000000000000000000000000000000000008152600401610bb390614eb0565b60405180910390fd5b8073ffffffffffffffffffffffffffffffffffffffff16610bdb612310565b73ffffffffffffffffffffffffffffffffffffffff161480610c0a5750610c0981610c04612310565b61207a565b5b610c49576040517f08c379a0000000000000000000000000000000000000000000000000000000008152600401610c4090614db0565b60405180910390fd5b610c538383612384565b505050565b600047905090565b6000600880549050905090565b610c7e610c78612310565b8261243d565b610cbd576040517f08c379a0000000000000000000000000000000000000000000000000000000008152600401610cb490614ed0565b60405180910390fd5b610cc883838361251b565b505050565b6000610cd88361137a565b8210610d19576040517f08c379a0000000000000000000000000000000000000000000000000000000008152600401610d1090614cb0565b60405180910390fd5b600660008473ffffffffffffffffffffffffffffffffffffffff1673ffffffffffffffffffffffffffffffffffffffff168152602001908152602001600020600083815260200190815260200160002054905092915050565b610d7a612310565b73ffffffffffffffffffffffffffffffffffffffff16610d986116ae565b73ffffffffffffffffffffffffffffffffffffffff1614610dee576040517f08c379a0000000000000000000000000000000000000000000000000000000008152600401610de590614e50565b60405180910390fd5b80600c83604051610dff9190614b78565b9081526020016040518091039020819055505050565b610e1d612310565b73ffffffffffffffffffffffffffffffffffffffff16610e3b6116ae565b73ffffffffffffffffffffffffffffffffffffffff1614610e91576040517f08c379a0000000000000000000000000000000000000000000000000000000008152600401610e8890614e50565b60405180910390fd5b3373ffffffffffffffffffffffffffffffffffffffff166108fc479081150290604051600060405180830381858888f19350505050158015610ed7573d6000803e3d6000fd5b50565b610ef58383836040518060200160405280600081525061181d565b505050565b600b60009054906101000a900473ffffffffffffffffffffffffffffffffffffffff1673ffffffffffffffffffffffffffffffffffffffff163373ffffffffffffffffffffffffffffffffffffffff161480610fa45750600073ffffffffffffffffffffffffffffffffffffffff16600b60009054906101000a900473ffffffffffffffffffffffffffffffffffffffff1673ffffffffffffffffffffffffffffffffffffffff16145b8015610fbd5750601060009054906101000a900460ff16155b610ffc576040517f08c379a0000000000000000000000000000000000000000000000000000000008152600401610ff390614d30565b60405180910390fd5b61100581612777565b600c60405161101390614bd5565b9081526020016040518091039020600081548092919061103290615314565b919050555050565b611042612310565b73ffffffffffffffffffffffffffffffffffffffff166110606116ae565b73ffffffffffffffffffffffffffffffffffffffff16146110b6576040517f08c379a00000000000000000000000000000000000000000000000000000000081526004016110ad90614e50565b60405180910390fd5b80600b60006101000a81548173ffffffffffffffffffffffffffffffffffffffff021916908373ffffffffffffffffffffffffffffffffffffffff16021790555050565b6000611104610c60565b8210611145576040517f08c379a000000000000000000000000000000000000000000000000000000000815260040161113c90614f10565b60405180910390fd5b6008828154811061117f577f4e487b7100000000000000000000000000000000000000000000000000000000600052603260045260246000fd5b90600052602060002001549050919050565b611199612310565b73ffffffffffffffffffffffffffffffffffffffff166111b76116ae565b73ffffffffffffffffffffffffffffffffffffffff161461120d576040517f08c379a000000000000000000000000000000000000000000000000000000000815260040161120490614e50565b60405180910390fd5b80600e9080519060200190611223929190613642565b5050565b601060009054906101000a900460ff1681565b6000806002600084815260200190815260200160002060009054906101000a900473ffffffffffffffffffffffffffffffffffffffff169050600073ffffffffffffffffffffffffffffffffffffffff168173ffffffffffffffffffffffffffffffffffffffff1614156112e3576040517f08c379a00000000000000000000000000000000000000000000000000000000081526004016112da90614df0565b60405180910390fd5b80915050919050565b600e80546112f99061533e565b80601f01602080910402602001604051908101604052809291908181526020018280546113259061533e565b80156113725780601f1061134757610100808354040283529160200191611372565b820191906000526020600020905b81548152906001019060200180831161135557829003601f168201915b505050505081565b60008073ffffffffffffffffffffffffffffffffffffffff168273ffffffffffffffffffffffffffffffffffffffff1614156113eb576040517f08c379a00000000000000000000000000000000000000000000000000000000081526004016113e290614dd0565b60405180910390fd5b600360008373ffffffffffffffffffffffffffffffffffffffff1673ffffffffffffffffffffffffffffffffffffffff168152602001908152602001600020549050919050565b61143a612310565b73ffffffffffffffffffffffffffffffffffffffff166114586116ae565b73ffffffffffffffffffffffffffffffffffffffff16146114ae576040517f08c379a00000000000000000000000000000000000000000000000000000000081526004016114a590614e50565b60405180910390fd5b6114b86000612888565b565b606060006114c78361137a565b9050600081141561154a57600067ffffffffffffffff811115611513577f4e487b7100000000000000000000000000000000000000000000000000000000600052604160045260246000fd5b6040519080825280602002602001820160405280156115415781602001602082028036833780820191505090505b50915050611697565b60008167ffffffffffffffff81111561158c577f4e487b7100000000000000000000000000000000000000000000000000000000600052604160045260246000fd5b6040519080825280602002602001820160405280156115ba5781602001602082028036833780820191505090505b5090506000600c6040516115cd90614bc0565b90815260200160405180910390205490506000805b8281101561168e578673ffffffffffffffffffffffffffffffffffffffff1661160a8261123a565b73ffffffffffffffffffffffffffffffffffffffff16141561167b5780848381518110611660577f4e487b7100000000000000000000000000000000000000000000000000000000600052603260045260246000fd5b602002602001018181525050818061167790615370565b9250505b808061168690615370565b9150506115e2565b83955050505050505b919050565b60006116a78261123a565b9050919050565b6000600a60009054906101000a900473ffffffffffffffffffffffffffffffffffffffff16905090565b6060600180546116e79061533e565b80601f01602080910402602001604051908101604052809291908181526020018280546117139061533e565b80156117605780601f1061173557610100808354040283529160200191611760565b820191906000526020600020905b81548152906001019060200180831161174357829003601f168201915b5050505050905090565b60006117758261137a565b9050919050565b61178e611787612310565b838361294e565b5050565b61179a612310565b73ffffffffffffffffffffffffffffffffffffffff166117b86116ae565b73ffffffffffffffffffffffffffffffffffffffff161461180e576040517f08c379a000000000000000000000000000000000000000000000000000000000815260040161180590614e50565b60405180910390fd5b80341461181a57600080fd5b50565b61182e611828612310565b8361243d565b61186d576040517f08c379a000000000000000000000000000000000000000000000000000000000815260040161186490614ed0565b60405180910390fd5b61187984848484612abb565b50505050565b600b60009054906101000a900473ffffffffffffffffffffffffffffffffffffffff1673ffffffffffffffffffffffffffffffffffffffff163373ffffffffffffffffffffffffffffffffffffffff1614806119295750600073ffffffffffffffffffffffffffffffffffffffff16600b60009054906101000a900473ffffffffffffffffffffffffffffffffffffffff1673ffffffffffffffffffffffffffffffffffffffff16145b80156119425750601060009054906101000a900460ff16155b611981576040517f08c379a000000000000000000000000000000000000000000000000000000000815260040161197890614d30565b60405180910390fd5b61199c83838360405180602001604052806000815250612abb565b505050565b6119a96136c8565b600d600083815260200190815260200160002060405180606001604052908160008201805480602002602001604051908101604052809291908181526020018280548015611a3b57602002820191906000526020600020906000905b82829054906101000a900460ff16151581526020019060010190602082600001049283019260010382029150808411611a055790505b5050505050815260200160018201805480602002602001604051908101604052809291908181526020018280548015611ab957602002820191906000526020600020906000905b82829054906101000a900460ff1660ff1681526020019060010190602082600001049283019260010382029150808411611a825790505b5050505050815260200160028201805480602002602001604051908101604052809291908181526020018280548015611b1157602002820191906000526020600020905b815481526020019060010190808311611afd575b5050505050815250509050919050565b600f8054611b2e9061533e565b80601f0160208091040260200160405190810160405280929190818152602001828054611b5a9061533e565b8015611ba75780601f10611b7c57610100808354040283529160200191611ba7565b820191906000526020600020905b815481529060010190602001808311611b8a57829003601f168201915b505050505081565b6060611bba82612318565b611bf9576040517f08c379a0000000000000000000000000000000000000000000000000000000008152600401611bf090614e90565b60405180910390fd5b6000611c03612b17565b90506000815111611c235760405180602001604052806000815250611c51565b80611c2d84612ba9565b600f604051602001611c4193929190614b8f565b6040516020818303038152906040525b915050919050565b600b60009054906101000a900473ffffffffffffffffffffffffffffffffffffffff1673ffffffffffffffffffffffffffffffffffffffff163373ffffffffffffffffffffffffffffffffffffffff161480611d035750600073ffffffffffffffffffffffffffffffffffffffff16600b60009054906101000a900473ffffffffffffffffffffffffffffffffffffffff1673ffffffffffffffffffffffffffffffffffffffff16145b8015611d1c5750601060009054906101000a900460ff16155b611d5b576040517f08c379a0000000000000000000000000000000000000000000000000000000008152600401611d5290614d30565b60405180910390fd5b604051806060016040528084815260200183815260200182815250600d6000600c604051611d8890614bc0565b90815260200160405180910390205481526020019081526020016000206000820151816000019080519060200190611dc19291906136e9565b506020820151816001019080519060200190611dde92919061378f565b506040820151816002019080519060200190611dfb929190613836565b50905050611e2584600c604051611e1190614bc0565b908152602001604051809103902054612d56565b600c604051611e3390614bc0565b90815260200160405180910390206000815480929190611e5290615370565b9190505550600c604051611e6590614bd5565b90815260200160405180910390206000815480929190611e8490615370565b919050555050505050565b600b60009054906101000a900473ffffffffffffffffffffffffffffffffffffffff1673ffffffffffffffffffffffffffffffffffffffff163373ffffffffffffffffffffffffffffffffffffffff161480611f395750600073ffffffffffffffffffffffffffffffffffffffff16600b60009054906101000a900473ffffffffffffffffffffffffffffffffffffffff1673ffffffffffffffffffffffffffffffffffffffff16145b8015611f525750601060009054906101000a900460ff16155b611f91576040517f08c379a0000000000000000000000000000000000000000000000000000000008152600401611f8890614d30565b60405180910390fd5b8073ffffffffffffffffffffffffffffffffffffffff16611fb18361123a565b73ffffffffffffffffffffffffffffffffffffffff1614612007576040517f08c379a0000000000000000000000000000000000000000000000000000000008152600401611ffe90614ef0565b60405180910390fd5b82600d600084815260200190815260200160002060008201518160000190805190602001906120379291906136e9565b50602082015181600101908051906020019061205492919061378f565b506040820151816002019080519060200190612071929190613836565b50905050505050565b6000600560008473ffffffffffffffffffffffffffffffffffffffff1673ffffffffffffffffffffffffffffffffffffffff16815260200190815260200160002060008373ffffffffffffffffffffffffffffffffffffffff1673ffffffffffffffffffffffffffffffffffffffff16815260200190815260200160002060009054906101000a900460ff16905092915050565b6000600c826040516121209190614b78565b9081526020016040518091039020549050919050565b61213e612310565b73ffffffffffffffffffffffffffffffffffffffff1661215c6116ae565b73ffffffffffffffffffffffffffffffffffffffff16146121b2576040517f08c379a00000000000000000000000000000000000000000000000000000000081526004016121a990614e50565b60405180910390fd5b600073ffffffffffffffffffffffffffffffffffffffff168173ffffffffffffffffffffffffffffffffffffffff161415612222576040517f08c379a000000000000000000000000000000000000000000000000000000000815260040161221990614cf0565b60405180910390fd5b61222b81612888565b50565b60007f80ac58cd000000000000000000000000000000000000000000000000000000007bffffffffffffffffffffffffffffffffffffffffffffffffffffffff1916827bffffffffffffffffffffffffffffffffffffffffffffffffffffffff191614806122f957507f5b5e139f000000000000000000000000000000000000000000000000000000007bffffffffffffffffffffffffffffffffffffffffffffffffffffffff1916827bffffffffffffffffffffffffffffffffffffffffffffffffffffffff1916145b80612309575061230882612d74565b5b9050919050565b600033905090565b60008073ffffffffffffffffffffffffffffffffffffffff166002600084815260200190815260200160002060009054906101000a900473ffffffffffffffffffffffffffffffffffffffff1673ffffffffffffffffffffffffffffffffffffffff1614159050919050565b816004600083815260200190815260200160002060006101000a81548173ffffffffffffffffffffffffffffffffffffffff021916908373ffffffffffffffffffffffffffffffffffffffff160217905550808273ffffffffffffffffffffffffffffffffffffffff166123f78361123a565b73ffffffffffffffffffffffffffffffffffffffff167f8c5be1e5ebec7d5bd14f71427d1e84f3dd0314c0f7b2291e5b200ac8c7c3b92560405160405180910390a45050565b600061244882612318565b612487576040517f08c379a000000000000000000000000000000000000000000000000000000000815260040161247e90614d90565b60405180910390fd5b60006124928361123a565b90508073ffffffffffffffffffffffffffffffffffffffff168473ffffffffffffffffffffffffffffffffffffffff16148061250157508373ffffffffffffffffffffffffffffffffffffffff166124e984610abb565b73ffffffffffffffffffffffffffffffffffffffff16145b806125125750612511818561207a565b5b91505092915050565b8273ffffffffffffffffffffffffffffffffffffffff1661253b8261123a565b73ffffffffffffffffffffffffffffffffffffffff1614612591576040517f08c379a000000000000000000000000000000000000000000000000000000000815260040161258890614e70565b60405180910390fd5b600073ffffffffffffffffffffffffffffffffffffffff168273ffffffffffffffffffffffffffffffffffffffff161415612601576040517f08c379a00000000000000000000000000000000000000000000000000000000081526004016125f890614d50565b60405180910390fd5b61260c838383612dde565b612617600082612384565b6001600360008573ffffffffffffffffffffffffffffffffffffffff1673ffffffffffffffffffffffffffffffffffffffff1681526020019081526020016000206000828254612667919061521d565b925050819055506001600360008473ffffffffffffffffffffffffffffffffffffffff1673ffffffffffffffffffffffffffffffffffffffff16815260200190815260200160002060008282546126be9190615196565b92505081905550816002600083815260200190815260200160002060006101000a81548173ffffffffffffffffffffffffffffffffffffffff021916908373ffffffffffffffffffffffffffffffffffffffff160217905550808273ffffffffffffffffffffffffffffffffffffffff168473ffffffffffffffffffffffffffffffffffffffff167fddf252ad1be2c89b69c2b068fc378daa952ba7f163c4a11628f55a4df523b3ef60405160405180910390a4505050565b60006127828261123a565b905061279081600084612dde565b61279b600083612384565b6001600360008373ffffffffffffffffffffffffffffffffffffffff1673ffffffffffffffffffffffffffffffffffffffff16815260200190815260200160002060008282546127eb919061521d565b925050819055506002600083815260200190815260200160002060006101000a81549073ffffffffffffffffffffffffffffffffffffffff021916905581600073ffffffffffffffffffffffffffffffffffffffff168273ffffffffffffffffffffffffffffffffffffffff167fddf252ad1be2c89b69c2b068fc378daa952ba7f163c4a11628f55a4df523b3ef60405160405180910390a45050565b6000600a60009054906101000a900473ffffffffffffffffffffffffffffffffffffffff16905081600a60006101000a81548173ffffffffffffffffffffffffffffffffffffffff021916908373ffffffffffffffffffffffffffffffffffffffff1602179055508173ffffffffffffffffffffffffffffffffffffffff168173ffffffffffffffffffffffffffffffffffffffff167f8be0079c531659141344cd1fd0a4f28419497f9722a3daafe3b4186f6b6457e060405160405180910390a35050565b8173ffffffffffffffffffffffffffffffffffffffff168373ffffffffffffffffffffffffffffffffffffffff1614156129bd576040517f08c379a00000000000000000000000000000000000000000000000000000000081526004016129b490614d70565b60405180910390fd5b80600560008573ffffffffffffffffffffffffffffffffffffffff1673ffffffffffffffffffffffffffffffffffffffff16815260200190815260200160002060008473ffffffffffffffffffffffffffffffffffffffff1673ffffffffffffffffffffffffffffffffffffffff16815260200190815260200160002060006101000a81548160ff0219169083151502179055508173ffffffffffffffffffffffffffffffffffffffff168373ffffffffffffffffffffffffffffffffffffffff167f17307eab39ab6107e8899845ad3d59bd9653f200f220920489ca2b5937696c3183604051612aae9190614c73565b60405180910390a3505050565b612ac684848461251b565b612ad284848484612ef2565b612b11576040517f08c379a0000000000000000000000000000000000000000000000000000000008152600401612b0890614cd0565b60405180910390fd5b50505050565b6060600e8054612b269061533e565b80601f0160208091040260200160405190810160405280929190818152602001828054612b529061533e565b8015612b9f5780601f10612b7457610100808354040283529160200191612b9f565b820191906000526020600020905b815481529060010190602001808311612b8257829003601f168201915b5050505050905090565b60606000821415612bf1576040518060400160405280600181526020017f30000000000000000000000000000000000000000000000000000000000000008152509050612d51565b600082905060005b60008214612c23578080612c0c90615370565b915050600a82612c1c91906151ec565b9150612bf9565b60008167ffffffffffffffff811115612c65577f4e487b7100000000000000000000000000000000000000000000000000000000600052604160045260246000fd5b6040519080825280601f01601f191660200182016040528015612c975781602001600182028036833780820191505090505b5090505b60008514612d4a57600182612cb0919061521d565b9150600a85612cbf91906153b9565b6030612ccb9190615196565b60f81b818381518110612d07577f4e487b7100000000000000000000000000000000000000000000000000000000600052603260045260246000fd5b60200101907effffffffffffffffffffffffffffffffffffffffffffffffffffffffffffff1916908160001a905350600a85612d4391906151ec565b9450612c9b565b8093505050505b919050565b612d70828260405180602001604052806000815250613089565b5050565b60007f01ffc9a7000000000000000000000000000000000000000000000000000000007bffffffffffffffffffffffffffffffffffffffffffffffffffffffff1916827bffffffffffffffffffffffffffffffffffffffffffffffffffffffff1916149050919050565b612de98383836130e4565b600073ffffffffffffffffffffffffffffffffffffffff168373ffffffffffffffffffffffffffffffffffffffff161415612e2c57612e27816130e9565b612e6b565b8173ffffffffffffffffffffffffffffffffffffffff168373ffffffffffffffffffffffffffffffffffffffff1614612e6a57612e698382613132565b5b5b600073ffffffffffffffffffffffffffffffffffffffff168273ffffffffffffffffffffffffffffffffffffffff161415612eae57612ea98161329f565b612eed565b8273ffffffffffffffffffffffffffffffffffffffff168273ffffffffffffffffffffffffffffffffffffffff1614612eec57612eeb82826133e2565b5b5b505050565b6000612f138473ffffffffffffffffffffffffffffffffffffffff16613461565b1561307c578373ffffffffffffffffffffffffffffffffffffffff1663150b7a02612f3c612310565b8786866040518563ffffffff1660e01b8152600401612f5e9493929190614c05565b602060405180830381600087803b158015612f7857600080fd5b505af1925050508015612fa957506040513d601f19601f82011682018060405250810190612fa69190613efc565b60015b61302c573d8060008114612fd9576040519150601f19603f3d011682016040523d82523d6000602084013e612fde565b606091505b50600081511415613024576040517f08c379a000000000000000000000000000000000000000000000000000000000815260040161301b90614cd0565b60405180910390fd5b805181602001fd5b63150b7a0260e01b7bffffffffffffffffffffffffffffffffffffffffffffffffffffffff1916817bffffffffffffffffffffffffffffffffffffffffffffffffffffffff191614915050613081565b600190505b949350505050565b6130938383613474565b6130a06000848484612ef2565b6130df576040517f08c379a00000000000000000000000000000000000000000000000000000000081526004016130d690614cd0565b60405180910390fd5b505050565b505050565b6008805490506009600083815260200190815260200160002081905550600881908060018154018082558091505060019003906000526020600020016000909190919091505550565b6000600161313f8461137a565b613149919061521d565b905060006007600084815260200190815260200160002054905081811461322e576000600660008673ffffffffffffffffffffffffffffffffffffffff1673ffffffffffffffffffffffffffffffffffffffff168152602001908152602001600020600084815260200190815260200160002054905080600660008773ffffffffffffffffffffffffffffffffffffffff1673ffffffffffffffffffffffffffffffffffffffff168152602001908152602001600020600084815260200190815260200160002081905550816007600083815260200190815260200160002081905550505b6007600084815260200190815260200160002060009055600660008573ffffffffffffffffffffffffffffffffffffffff1673ffffffffffffffffffffffffffffffffffffffff16815260200190815260200160002060008381526020019081526020016000206000905550505050565b600060016008805490506132b3919061521d565b9050600060096000848152602001908152602001600020549050600060088381548110613309577f4e487b7100000000000000000000000000000000000000000000000000000000600052603260045260246000fd5b906000526020600020015490508060088381548110613351577f4e487b7100000000000000000000000000000000000000000000000000000000600052603260045260246000fd5b9060005260206000200181905550816009600083815260200190815260200160002081905550600960008581526020019081526020016000206000905560088054806133c6577f4e487b7100000000000000000000000000000000000000000000000000000000600052603160045260246000fd5b6001900381819060005260206000200160009055905550505050565b60006133ed8361137a565b905081600660008573ffffffffffffffffffffffffffffffffffffffff1673ffffffffffffffffffffffffffffffffffffffff168152602001908152602001600020600083815260200190815260200160002081905550806007600084815260200190815260200160002081905550505050565b600080823b905060008111915050919050565b600073ffffffffffffffffffffffffffffffffffffffff168273ffffffffffffffffffffffffffffffffffffffff1614156134e4576040517f08c379a00000000000000000000000000000000000000000000000000000000081526004016134db90614e10565b60405180910390fd5b6134ed81612318565b1561352d576040517f08c379a000000000000000000000000000000000000000000000000000000000815260040161352490614d10565b60405180910390fd5b61353960008383612dde565b6001600360008473ffffffffffffffffffffffffffffffffffffffff1673ffffffffffffffffffffffffffffffffffffffff16815260200190815260200160002060008282546135899190615196565b92505081905550816002600083815260200190815260200160002060006101000a81548173ffffffffffffffffffffffffffffffffffffffff021916908373ffffffffffffffffffffffffffffffffffffffff160217905550808273ffffffffffffffffffffffffffffffffffffffff16600073ffffffffffffffffffffffffffffffffffffffff167fddf252ad1be2c89b69c2b068fc378daa952ba7f163c4a11628f55a4df523b3ef60405160405180910390a45050565b82805461364e9061533e565b90600052602060002090601f01602090048101928261367057600085556136b7565b82601f1061368957805160ff19168380011785556136b7565b828001600101855582156136b7579182015b828111156136b657825182559160200191906001019061369b565b5b5090506136c49190613883565b5090565b60405180606001604052806060815260200160608152602001606081525090565b82805482825590600052602060002090601f0160209004810192821561377e5791602002820160005b8382111561374f57835183826101000a81548160ff0219169083151502179055509260200192600101602081600001049283019260010302613712565b801561377c5782816101000a81549060ff021916905560010160208160000104928301926001030261374f565b505b50905061378b9190613883565b5090565b82805482825590600052602060002090601f016020900481019282156138255791602002820160005b838211156137f657835183826101000a81548160ff021916908360ff16021790555092602001926001016020816000010492830192600103026137b8565b80156138235782816101000a81549060ff02191690556001016020816000010492830192600103026137f6565b505b5090506138329190613883565b5090565b828054828255906000526020600020908101928215613872579160200282015b82811115613871578251825591602001919060010190613856565b5b50905061387f9190613883565b5090565b5b8082111561389c576000816000905550600101613884565b5090565b60006138b36138ae84614f9e565b614f6d565b905080838252602082019050828560208602820111156138d257600080fd5b60005b8581101561390257816138e88882613af3565b8452602084019350602083019250506001810190506138d5565b5050509392505050565b600061391f61391a84614fca565b614f6d565b9050808382526020820190508285602086028201111561393e57600080fd5b60005b8581101561396e57816139548882613c2e565b845260208401935060208301925050600181019050613941565b5050509392505050565b600061398b61398684614ff6565b614f6d565b905080838252602082019050828560208602820111156139aa57600080fd5b60005b858110156139da57816139c08882613c43565b8452602084019350602083019250506001810190506139ad565b5050509392505050565b60006139f76139f284615022565b614f6d565b905082815260208101848484011115613a0f57600080fd5b613a1a8482856152d2565b509392505050565b6000613a35613a3084615052565b614f6d565b905082815260208101848484011115613a4d57600080fd5b613a588482856152d2565b509392505050565b600081359050613a6f816154b7565b92915050565b600082601f830112613a8657600080fd5b8135613a968482602086016138a0565b91505092915050565b600082601f830112613ab057600080fd5b8135613ac084826020860161390c565b91505092915050565b600082601f830112613ada57600080fd5b8135613aea848260208601613978565b91505092915050565b600081359050613b02816154ce565b92915050565b600081359050613b17816154e5565b92915050565b600081519050613b2c816154e5565b92915050565b600082601f830112613b4357600080fd5b8135613b538482602086016139e4565b91505092915050565b600082601f830112613b6d57600080fd5b8135613b7d848260208601613a22565b91505092915050565b600060608284031215613b9857600080fd5b613ba26060614f6d565b9050600082013567ffffffffffffffff811115613bbe57600080fd5b613bca84828501613a75565b600083015250602082013567ffffffffffffffff811115613bea57600080fd5b613bf684828501613ac9565b602083015250604082013567ffffffffffffffff811115613c1657600080fd5b613c2284828501613a9f565b60408301525092915050565b600081359050613c3d816154fc565b92915050565b600081359050613c5281615513565b92915050565b600060208284031215613c6a57600080fd5b6000613c7884828501613a60565b91505092915050565b60008060408385031215613c9457600080fd5b6000613ca285828601613a60565b9250506020613cb385828601613a60565b9150509250929050565b600080600060608486031215613cd257600080fd5b6000613ce086828701613a60565b9350506020613cf186828701613a60565b9250506040613d0286828701613c2e565b9150509250925092565b60008060008060808587031215613d2257600080fd5b6000613d3087828801613a60565b9450506020613d4187828801613a60565b9350506040613d5287828801613c2e565b925050606085013567ffffffffffffffff811115613d6f57600080fd5b613d7b87828801613b32565b91505092959194509250565b60008060008060808587031215613d9d57600080fd5b6000613dab87828801613a60565b945050602085013567ffffffffffffffff811115613dc857600080fd5b613dd487828801613a75565b935050604085013567ffffffffffffffff811115613df157600080fd5b613dfd87828801613ac9565b925050606085013567ffffffffffffffff811115613e1a57600080fd5b613e2687828801613a9f565b91505092959194509250565b60008060408385031215613e4557600080fd5b6000613e5385828601613a60565b9250506020613e6485828601613af3565b9150509250929050565b60008060408385031215613e8157600080fd5b6000613e8f85828601613a60565b9250506020613ea085828601613c2e565b9150509250929050565b600060208284031215613ebc57600080fd5b6000613eca84828501613af3565b91505092915050565b600060208284031215613ee557600080fd5b6000613ef384828501613b08565b91505092915050565b600060208284031215613f0e57600080fd5b6000613f1c84828501613b1d565b91505092915050565b600060208284031215613f3757600080fd5b600082013567ffffffffffffffff811115613f5157600080fd5b613f5d84828501613b5c565b91505092915050565b60008060408385031215613f7957600080fd5b600083013567ffffffffffffffff811115613f9357600080fd5b613f9f85828601613b5c565b9250506020613fb085828601613c2e565b9150509250929050565b600080600060608486031215613fcf57600080fd5b600084013567ffffffffffffffff811115613fe957600080fd5b613ff586828701613b86565b935050602061400686828701613c2e565b925050604061401786828701613a60565b9150509250925092565b60006020828403121561403357600080fd5b600061404184828501613c2e565b91505092915050565b60006140568383614219565b60208301905092915050565b600061406e8383614b4b565b60208301905092915050565b60006140868383614b69565b60208301905092915050565b61409b81615251565b82525050565b60006140ac826150c7565b6140b68185615125565b93506140c183615082565b8060005b838110156140f25781516140d9888261404a565b97506140e4836150fe565b9250506001810190506140c5565b5085935050505092915050565b600061410a826150d2565b6141148185615136565b935061411f83615092565b8060005b838110156141505781516141378882614062565b97506141428361510b565b925050600181019050614123565b5085935050505092915050565b6000614168826150d2565b6141728185615147565b935061417d83615092565b8060005b838110156141ae5781516141958882614062565b97506141a08361510b565b925050600181019050614181565b5085935050505092915050565b60006141c6826150dd565b6141d08185615158565b93506141db836150a2565b8060005b8381101561420c5781516141f3888261407a565b97506141fe83615118565b9250506001810190506141df565b5085935050505092915050565b61422281615263565b82525050565b61423181615263565b82525050565b6000614242826150e8565b61424c8185615169565b935061425c8185602086016152e1565b614265816154a6565b840191505092915050565b600061427b826150f3565b614285818561517a565b93506142958185602086016152e1565b61429e816154a6565b840191505092915050565b60006142b4826150f3565b6142be818561518b565b93506142ce8185602086016152e1565b80840191505092915050565b600081546142e78161533e565b6142f1818661518b565b9450600182166000811461430c576001811461431d57614350565b60ff19831686528186019350614350565b614326856150b2565b60005b8381101561434857815481890152600182019150602081019050614329565b838801955050505b50505092915050565b6000614366602b8361517a565b91507f455243373231456e756d657261626c653a206f776e657220696e646578206f7560008301527f74206f6620626f756e64730000000000000000000000000000000000000000006020830152604082019050919050565b60006143cc60328361517a565b91507f4552433732313a207472616e7366657220746f206e6f6e20455243373231526560008301527f63656976657220696d706c656d656e74657200000000000000000000000000006020830152604082019050919050565b600061443260268361517a565b91507f4f776e61626c653a206e6577206f776e657220697320746865207a65726f206160008301527f64647265737300000000000000000000000000000000000000000000000000006020830152604082019050919050565b6000614498601c8361517a565b91507f4552433732313a20746f6b656e20616c7265616479206d696e746564000000006000830152602082019050919050565b60006144d8601a8361517a565b91507f4e6f7420676f6f642064656c656761746520636f6e74726163740000000000006000830152602082019050919050565b600061451860248361517a565b91507f4552433732313a207472616e7366657220746f20746865207a65726f2061646460008301527f72657373000000000000000000000000000000000000000000000000000000006020830152604082019050919050565b600061457e60198361517a565b91507f4552433732313a20617070726f766520746f2063616c6c6572000000000000006000830152602082019050919050565b60006145be60068361518b565b91507f6e657874496400000000000000000000000000000000000000000000000000006000830152600682019050919050565b60006145fe602c8361517a565b91507f4552433732313a206f70657261746f7220717565727920666f72206e6f6e657860008301527f697374656e7420746f6b656e00000000000000000000000000000000000000006020830152604082019050919050565b600061466460388361517a565b91507f4552433732313a20617070726f76652063616c6c6572206973206e6f74206f7760008301527f6e6572206e6f7220617070726f76656420666f7220616c6c00000000000000006020830152604082019050919050565b60006146ca602a8361517a565b91507f4552433732313a2062616c616e636520717565727920666f7220746865207a6560008301527f726f2061646472657373000000000000000000000000000000000000000000006020830152604082019050919050565b600061473060298361517a565b91507f4552433732313a206f776e657220717565727920666f72206e6f6e657869737460008301527f656e7420746f6b656e00000000000000000000000000000000000000000000006020830152604082019050919050565b6000614796600b8361518b565b91507f746f74616c537570706c790000000000000000000000000000000000000000006000830152600b82019050919050565b60006147d660208361517a565b91507f4552433732313a206d696e7420746f20746865207a65726f20616464726573736000830152602082019050919050565b6000614816602c8361517a565b91507f4552433732313a20617070726f76656420717565727920666f72206e6f6e657860008301527f697374656e7420746f6b656e00000000000000000000000000000000000000006020830152604082019050919050565b600061487c60208361517a565b91507f4f776e61626c653a2063616c6c6572206973206e6f7420746865206f776e65726000830152602082019050919050565b60006148bc60298361517a565b91507f4552433732313a207472616e73666572206f6620746f6b656e2074686174206960008301527f73206e6f74206f776e00000000000000000000000000000000000000000000006020830152604082019050919050565b6000614922602f8361517a565b91507f4552433732314d657461646174613a2055524920717565727920666f72206e6f60008301527f6e6578697374656e7420746f6b656e00000000000000000000000000000000006020830152604082019050919050565b600061498860218361517a565b91507f4552433732313a20617070726f76616c20746f2063757272656e74206f776e6560008301527f72000000000000000000000000000000000000000000000000000000000000006020830152604082019050919050565b60006149ee60318361517a565b91507f4552433732313a207472616e736665722063616c6c6572206973206e6f74206f60008301527f776e6572206e6f7220617070726f7665640000000000000000000000000000006020830152604082019050919050565b6000614a54600e8361517a565b91507f4e6f7420596f757220746f6b656e0000000000000000000000000000000000006000830152602082019050919050565b6000614a94602c8361517a565b91507f455243373231456e756d657261626c653a20676c6f62616c20696e646578206f60008301527f7574206f6620626f756e647300000000000000000000000000000000000000006020830152604082019050919050565b60006060830160008301518482036000860152614b0a82826140a1565b91505060208301518482036020860152614b2482826141bb565b91505060408301518482036040860152614b3e82826140ff565b9150508091505092915050565b614b54816152bb565b82525050565b614b63816152bb565b82525050565b614b72816152c5565b82525050565b6000614b8482846142a9565b915081905092915050565b6000614b9b82866142a9565b9150614ba782856142a9565b9150614bb382846142da565b9150819050949350505050565b6000614bcb826145b1565b9150819050919050565b6000614be082614789565b9150819050919050565b6000602082019050614bff6000830184614092565b92915050565b6000608082019050614c1a6000830187614092565b614c276020830186614092565b614c346040830185614b5a565b8181036060830152614c468184614237565b905095945050505050565b60006020820190508181036000830152614c6b818461415d565b905092915050565b6000602082019050614c886000830184614228565b92915050565b60006020820190508181036000830152614ca88184614270565b905092915050565b60006020820190508181036000830152614cc981614359565b9050919050565b60006020820190508181036000830152614ce9816143bf565b9050919050565b60006020820190508181036000830152614d0981614425565b9050919050565b60006020820190508181036000830152614d298161448b565b9050919050565b60006020820190508181036000830152614d49816144cb565b9050919050565b60006020820190508181036000830152614d698161450b565b9050919050565b60006020820190508181036000830152614d8981614571565b9050919050565b60006020820190508181036000830152614da9816145f1565b9050919050565b60006020820190508181036000830152614dc981614657565b9050919050565b60006020820190508181036000830152614de9816146bd565b9050919050565b60006020820190508181036000830152614e0981614723565b9050919050565b60006020820190508181036000830152614e29816147c9565b9050919050565b60006020820190508181036000830152614e4981614809565b9050919050565b60006020820190508181036000830152614e698161486f565b9050919050565b60006020820190508181036000830152614e89816148af565b9050919050565b60006020820190508181036000830152614ea981614915565b9050919050565b60006020820190508181036000830152614ec98161497b565b9050919050565b60006020820190508181036000830152614ee9816149e1565b9050919050565b60006020820190508181036000830152614f0981614a47565b9050919050565b60006020820190508181036000830152614f2981614a87565b9050919050565b60006020820190508181036000830152614f4a8184614aed565b905092915050565b6000602082019050614f676000830184614b5a565b92915050565b6000604051905081810181811067ffffffffffffffff82111715614f9457614f93615477565b5b8060405250919050565b600067ffffffffffffffff821115614fb957614fb8615477565b5b602082029050602081019050919050565b600067ffffffffffffffff821115614fe557614fe4615477565b5b602082029050602081019050919050565b600067ffffffffffffffff82111561501157615010615477565b5b602082029050602081019050919050565b600067ffffffffffffffff82111561503d5761503c615477565b5b601f19601f8301169050602081019050919050565b600067ffffffffffffffff82111561506d5761506c615477565b5b601f19601f8301169050602081019050919050565b6000819050602082019050919050565b6000819050602082019050919050565b6000819050602082019050919050565b60008190508160005260206000209050919050565b600081519050919050565b600081519050919050565b600081519050919050565b600081519050919050565b600081519050919050565b6000602082019050919050565b6000602082019050919050565b6000602082019050919050565b600082825260208201905092915050565b600082825260208201905092915050565b600082825260208201905092915050565b600082825260208201905092915050565b600082825260208201905092915050565b600082825260208201905092915050565b600081905092915050565b60006151a1826152bb565b91506151ac836152bb565b9250827fffffffffffffffffffffffffffffffffffffffffffffffffffffffffffffffff038211156151e1576151e06153ea565b5b828201905092915050565b60006151f7826152bb565b9150615202836152bb565b92508261521257615211615419565b5b828204905092915050565b6000615228826152bb565b9150615233836152bb565b925082821015615246576152456153ea565b5b828203905092915050565b600061525c8261529b565b9050919050565b60008115159050919050565b60007fffffffff0000000000000000000000000000000000000000000000000000000082169050919050565b600073ffffffffffffffffffffffffffffffffffffffff82169050919050565b6000819050919050565b600060ff82169050919050565b82818337600083830152505050565b60005b838110156152ff5780820151818401526020810190506152e4565b8381111561530e576000848401525b50505050565b600061531f826152bb565b91506000821415615333576153326153ea565b5b600182039050919050565b6000600282049050600182168061535657607f821691505b6020821081141561536a57615369615448565b5b50919050565b600061537b826152bb565b91507fffffffffffffffffffffffffffffffffffffffffffffffffffffffffffffffff8214156153ae576153ad6153ea565b5b600182019050919050565b60006153c4826152bb565b91506153cf836152bb565b9250826153df576153de615419565b5b828206905092915050565b7f4e487b7100000000000000000000000000000000000000000000000000000000600052601160045260246000fd5b7f4e487b7100000000000000000000000000000000000000000000000000000000600052601260045260246000fd5b7f4e487b7100000000000000000000000000000000000000000000000000000000600052602260045260246000fd5b7f4e487b7100000000000000000000000000000000000000000000000000000000600052604160045260246000fd5b6000601f19601f8301169050919050565b6154c081615251565b81146154cb57600080fd5b50565b6154d781615263565b81146154e257600080fd5b50565b6154ee8161526f565b81146154f957600080fd5b50565b615505816152bb565b811461551057600080fd5b50565b61551c816152c5565b811461552757600080fd5b5056fea2646970667358221220bd4fb30814a86694db1323e9834dd1d63a33d36a9ffaf59b48003ba7379850e164736f6c63430008000033",
  "immutableReferences": {},
  "source": "pragma solidity 0.8.0;\r\n\r\nimport '@openzeppelin/contracts/token/ERC721/extensions/ERC721Enumerable.sol';\r\nimport '@openzeppelin/contracts/access/Ownable.sol';\r\nimport '@openzeppelin/contracts/token/ERC20/ERC20.sol';\r\n\r\n\r\n\r\n/**\r\nPremier token d'inventaire, disons la money\r\n */\r\ncontract Items is ERC20, Ownable {\r\n    \r\n    address adressDelegateContract;\r\n    uint256 rarity;//0 a 99 999, plus il est bas, moin on a de chance de l'obtenir\r\n    uint256 pricebase;\r\n    constructor(uint256 _supply,string memory name, string memory symbol) ERC20(name,symbol){\r\n\r\n    }\r\n\r\n    /**\r\n    Foncton trs importante que l'ont rajoute sur presque toutes les autres fonctions pour vrifier que l'appel des fonctions ce fais bien depuis le contrat de dlgation pour plus de scuriter\r\n    */\r\n    modifier byDelegate() {\r\n        require((msg.sender == adressDelegateContract || adressDelegateContract == address(0)),\"Not good delegate contract\");\r\n        _;\r\n    }\r\n    /** \r\n    modifier l'addresse du contrat de dlgation pour permettre aux dit contrat d'intragir avec celui ci\r\n     */\r\n    function setAdressDelegateContract(address _adress) external onlyOwner {\r\n        adressDelegateContract = _adress;\r\n    }\r\n\r\n    function mint(uint256 number, address to) external byDelegate {\r\n        _mint(to,number);\r\n    }\r\n\r\n    function burn(uint8 number, address to) external byDelegate {\r\n        _burn(to,number);\r\n    }\r\n\r\n    function setPrice(uint256 price) external onlyOwner{\r\n        pricebase = price;\r\n    }\r\n\r\n    function getPrice() public view returns (uint256){\r\n        return pricebase;\r\n    }\r\n\r\n    function setRarity(uint256 rare) external onlyOwner{\r\n        rarity = rare;\r\n    }\r\n\r\n    function getRarity() public view returns (uint256){\r\n        return rarity;\r\n    }\r\n\r\n    function getBalance(address owner) public view returns (uint){\r\n        return balanceOf(owner);\r\n    }\r\n\r\n    function getBalanceContract() public view returns (uint256)  {\r\n        return address(this).balance;\r\n    }\r\n\r\n\r\n}\r\n\r\ncontract DelegateContract is Ownable {\r\n\r\n    constructor(address _addressContract, address _addressQuestContract, address _addressClassContract) {\r\n        addressContract = _addressContract;\r\n        addressQuestContract = _addressQuestContract;\r\n        addressClassContract = _addressClassContract;\r\n        TokenDelegable contrat = TokenDelegable(addressContract);\r\n        paramsContract[\"nextId\"] = contrat.getParamsContract(\"nextId\");\r\n        paramsContract[\"price\"] = 100000000000000000;//dev:100000000000000000000 == 100 eth\r\n        paramsContract[\"totalPnt\"] = 5;\r\n        paramsContract[\"tokenLimit\"] = 10000;\r\n        paramsContract[\"nonce\"] = 0;\r\n    }\r\n\r\n    address addressContract;\r\n    address addressQuestContract;\r\n    address addressClassContract;\r\n    mapping( string => uint ) paramsContract;\r\n    mapping( uint => address ) items;\r\n    uint8 countItems;\r\n\r\n    /**\r\n    Mttre a jour l'addresse de destination du contrat officiel pour que le contrat de dlgation puisse y accder\r\n     */\r\n    function setAddressContract(address _addressContract) external onlyOwner {\r\n        addressContract = _addressContract;\r\n    }\r\n\r\n    /**\r\n    Mttre  jour un paramtre du contrat de dlgation\r\n    */\r\n    function setParamsContract(string memory keyParams, uint valueParams) external onlyOwner {\r\n        paramsContract[keyParams] = valueParams;\r\n    }\r\n\r\n    /**\r\n    rcuprer une valeur du tableau de paramtre du contrat de dlgation\r\n    */\r\n    function getParamsContract(string memory keyParams) external view returns (uint256){\r\n        return paramsContract[keyParams];\r\n    }\r\n\r\n    /**\r\n    appel vers le contrat officiel du jeton\r\n    Mttre a jour un paramtre du contrat officiel depuis le contrat de dlgation\r\n     */\r\n    function setParamsDelegate(string memory keyParams, uint256 valueParams ) internal {\r\n        TokenDelegable contrat = TokenDelegable(addressContract);\r\n        contrat.setParamsContract(keyParams, valueParams);\r\n    }\r\n\r\n    function setAddressItem(address item, uint idItem) external {\r\n        items[idItem] = item;\r\n        countItems++;\r\n    }\r\n\r\n    function getAddressItems() external view returns (address[] memory){\r\n        address[] memory result = new address[](countItems);\r\n        uint256 resultIndex = 0;\r\n        uint256 i;\r\n        for(i = 0; i < countItems; i++){\r\n            result[resultIndex] = items[i];\r\n            resultIndex++;\r\n        }\r\n        return result;\r\n    }\r\n\r\n    function getBalanceOfItem(uint idItem) external view returns (uint) {\r\n        Items itemContrat = Items(items[idItem]);\r\n        return itemContrat.getBalance(msg.sender);\r\n    }\r\n\r\n    /**\r\n    appel vers le contrat officiel du jeton\r\n    Offrir un ou plusieurs token a un utilisateur\r\n     */\r\n    function giveToken(address to, uint8 generation) external onlyOwner{\r\n        require(paramsContract[\"tokenLimit\"] > 0,\"No remaining\");\r\n        bool[] memory booleans = new bool[](20);\r\n        uint8[] memory randomParts = randomParams8(0,0);\r\n        uint256[] memory randomParams = randomParams256(paramsContract[\"price\"],generation);\r\n        paramsContract[\"nextId\"]++;\r\n\r\n        TokenDelegable contrat = TokenDelegable(addressContract);\r\n        contrat.mint(to, booleans, randomParts, randomParams);\r\n    }\r\n\r\n    /**\r\n    appel vers le contrat officiel du jeton\r\n    Modifier les paramtre d'un token et l'envoy au contrat de token pour le mttre a jour\r\n     */\r\n    function mintDelegate(uint8 generation,uint8 peuple,uint8 race) external payable{\r\n        require(msg.value >= paramsContract[\"price\"],\"More ETH required\");\r\n        require(paramsContract[\"tokenLimit\"] > 0,\"No remaining\");\r\n        bool[] memory booleans = new bool[](20);\r\n        uint8[] memory randomParts = randomParams8(peuple,race);\r\n        uint256[] memory randomParams = randomParams256(msg.value,generation);\r\n        paramsContract[\"nextId\"]++;\r\n\r\n        TokenDelegable contrat = TokenDelegable(addressContract);\r\n        contrat.mint(msg.sender,booleans, randomParts, randomParams);\r\n    }\r\n\r\n    /**\r\n    une autre ide pour calculer les stats de dpart, ma prfr\r\n     */\r\n    function randomParams8(uint8 peuple, uint8 class) internal virtual returns (uint8[] memory) {\r\n        uint256 totalPnt = paramsContract[\"totalPnt\"];\r\n        if(paramsContract[\"nextId\"]<paramsContract[\"maxFirstGen\"]){totalPnt += 3;}else\r\n        if(paramsContract[\"nextId\"]<paramsContract[\"maxSecondGen\"]){totalPnt += 2;}else\r\n        if(paramsContract[\"nextId\"]<paramsContract[\"maxthirdGen\"]){totalPnt += 1;}\r\n\r\n        uint8[] memory randomParts = new uint8[](20);\r\n        \r\n        ClassesContract classContrat = ClassesContract(addressClassContract);\r\n        //ClassesContract.Classes memory classTemp =  classContrat.getClassStatsDetails(class);\r\n        uint8[] memory stats = classContrat.getClassStatsDetails(class);\r\n        /*stats[0] = classTemp.stats[0];//Dex\r\n        stats[1] = classTemp.stats[1];//Str\r\n        stats[2] = classTemp.stats[2];\r\n        stats[3] = classTemp.stats[3];\r\n        stats[4] = classTemp.stats[4];\r\n        stats[5] = classTemp.stats[5];*/\r\n\r\n        uint8 i;\r\n\r\n        while(totalPnt>0){\r\n            if(random(5)>3){\r\n                stats[i]++;\r\n                totalPnt--;\r\n            }\r\n            if(i<stats.length){i++;}else{i=0;}\r\n        }\r\n\r\n        randomParts[0] = stats[0];//Dex\r\n        randomParts[1] = stats[1];//Str\r\n        randomParts[2] = stats[2];\r\n        randomParts[3] = stats[3];\r\n        randomParts[4] = stats[4];\r\n        randomParts[5] = stats[5];\r\n        randomParts[6] = 0;//exp\r\n        randomParts[7] = 1;//level\r\n        randomParts[8] = peuple;//peuple\r\n        randomParts[9] = class;//class\r\n\r\n        return randomParts;\r\n    }\r\n\r\n\r\n    function randomParams256(uint256 price, uint8 generation) internal virtual returns (uint256[] memory) {\r\n        uint256[] memory randomParams = new uint256[](10);\r\n        randomParams[0] = block.timestamp;//date de cration\r\n        randomParams[1] = price;//prix d'achat\r\n        randomParams[2] = block.timestamp-3600;//date de la drnire action (il y a une heure) permettant de participer a des missions\r\n        randomParams[3] = 0;//Mission choisis (si 0 aucune current mission)\r\n        randomParams[4] = 0;//seconds pour finir la mission\r\n        randomParams[5] = 0;//difficult de la qute (dtermine l'exp gagn, et les objets % gagn)\r\n        randomParams[6] = paramsContract[\"nextId\"];//tokenId\r\n        randomParams[7] = generation;//type\r\n        return randomParams;\r\n    }\r\n\r\n    function startQuest(uint256 tokenId, uint256 questId) public {\r\n        TokenDelegable contrat = TokenDelegable(addressContract);\r\n        require(contrat.getOwnerOf(tokenId) == msg.sender, \"Not your token\");\r\n\r\n        QuestContract questContrat = QuestContract(addressQuestContract);\r\n        QuestContract.Quest memory questTemp =  questContrat.getQuestDetails(questId);\r\n        require(questTemp.valid == true,\"Quest not exist\");\r\n        TokenDelegable.Token memory tokenTemp =  contrat.getTokenDetails(tokenId);\r\n        require(block.timestamp > tokenTemp.params256[2]+3600, \"Not energy enough\");\r\n        require(tokenTemp.params256[3] == 0, \"Quest not finished\");\r\n        tokenTemp.params256[3] = questId;\r\n        contrat.updateToken(tokenTemp,tokenId,msg.sender);\r\n    }\r\n\r\n    /**\r\n    Validation de la qute a la fin du comteur time d'une quest\r\n     */\r\n    function completeQuest(uint256 tokenId) public {\r\n        TokenDelegable contrat = TokenDelegable(addressContract);\r\n        require(contrat.getOwnerOf(tokenId) == msg.sender, \"Not your token\");\r\n        TokenDelegable.Token memory tokenTemp =  contrat.getTokenDetails(tokenId);\r\n        \r\n        QuestContract questContrat = QuestContract(addressQuestContract);\r\n        QuestContract.Quest memory questTemp = questContrat.getQuestDetails(tokenTemp.params256[3]);\r\n        require(block.timestamp-tokenTemp.params256[2] < (questTemp.time), \"Quest not finished\");\r\n        //require(block.timestamp > tokenTemp.params256[2]+(questTemp.time), \"Quest not finished\");//a fonctionnais mais celle du dessus est surement plus propre\r\n        uint8 malus = 0;\r\n        for (uint8 index = 0; index < questTemp.stats.length; index++) {\r\n            if(questTemp.stats[index] > tokenTemp.params8[index]){\r\n                malus += questTemp.stats[index]-tokenTemp.params8[index];\r\n            }\r\n        }\r\n        if(random(100-malus)>questTemp.percentDifficulty){\r\n            tokenTemp.params8[6] += questTemp.exp;\r\n\r\n            for (uint index = 0; index < countItems; index++) {\r\n                Items itemtemp = Items(items[index]);\r\n                if(random256(100000)>itemtemp.getRarity()){\r\n                    itemtemp.mint(1,msg.sender);\r\n                }\r\n            }\r\n        }\r\n        tokenTemp.params256[2] = block.timestamp;\r\n        tokenTemp.params256[3] = 0;\r\n        tokenTemp.params256[4] = 0;\r\n\r\n        contrat.updateToken(tokenTemp,tokenId,msg.sender);\r\n    }\r\n\r\n    function getQuest(uint8 questId) external view returns (QuestContract.Quest memory){\r\n        QuestContract contrat = QuestContract(addressQuestContract);\r\n        QuestContract.Quest memory questTemp =  contrat.getQuestDetails(questId);\r\n        return questTemp;\r\n    }\r\n\r\n    /**\r\n    Quand l'exp est a fond, luser peut rajouter un point ou il veux\r\n    Rflchir a la logique d'exp max, pour l'instant (100+(?**level))\r\n    Est ce qu'ont rajouterai pas de faon random des points autres part\r\n    */\r\n    function levelUp(uint8 statToLvlUp, uint256 tokenId) public{\r\n        TokenDelegable contrat = TokenDelegable(addressContract);\r\n        require(contrat.getOwnerOf(tokenId) == msg.sender, \"Not your token\");\r\n        TokenDelegable.Token memory tokenTemp =  contrat.getTokenDetails(tokenId);\r\n        require(tokenTemp.params8[6]>(100+(paramsContract[\"expForLevelUp\"]**tokenTemp.params8[7])),\"experience not enought\");\r\n        tokenTemp.params8[statToLvlUp] ++;\r\n        tokenTemp.params8[6] = 0;\r\n        tokenTemp.params8[7]++;\r\n\r\n        contrat.updateToken(tokenTemp,tokenId,msg.sender);\r\n    }\r\n\r\n\r\n    /**\r\n    a finaliser\r\n     */\r\n    /*function calculPriceSupply() public{\r\n        TokenDelegable contrat = TokenDelegable(addressContract);\r\n        uint totalSupply = contrat.getParamsContract(\"totalSupply\");\r\n        //priceInUsd = (item.price/(10**18)) * (latestPrice/10**8)\r\n    }*/\r\n\r\n    \r\n    /**\r\n    appel vers le contrat officiel du jeton\r\n    Modifier les paramtre d'un token et l'envoy au contrat de token pour le mttre a jour\r\n     */\r\n    /*function paramsToken(uint256 tokenId,bool[] memory booleans, uint8[] memory params8, uint256[] memory params256) external {\r\n        \r\n        TokenDelegable contrat = TokenDelegable(addressContract);\r\n        TokenDelegable.Token memory tokenTemp =  contrat.getTokenDetails(tokenId);\r\n        //if(tokenTemp.params256[2] != params256[2]) tokenTemp.params256[0] = block.timestamp;//mettre a jour la date de cration si besoin\r\n        for (uint8 index = 0; index < booleans.length; index++) {\r\n            tokenTemp.booleans[index] = booleans[index];\r\n        }\r\n        for (uint8 index = 0; index < params8.length; index++) {\r\n            tokenTemp.params8[index] = params8[index];\r\n        }\r\n        for (uint8 index = 0; index < params256.length; index++) {\r\n            tokenTemp.params256[index] = params256[index];\r\n        }\r\n        contrat.updateToken(tokenTemp,tokenId,msg.sender);\r\n    }*/\r\n\r\n    \r\n    /**\r\n    appel vers le contrat officiel du jeton\r\n    transfert d'un token d'un propritaire a un autre adresse\r\n     */\r\n    function transfer(address contactAddr, uint256 tokenId) external payable {\r\n        TokenDelegable contrat = TokenDelegable(addressContract);\r\n        require(contrat.getOwnerOf(tokenId) != msg.sender, \"Not your token\");\r\n        contrat.transfer(contactAddr, msg.sender, tokenId);\r\n    }\r\n\r\n    \r\n    /**\r\n    appel vers le contrat officiel du jeton\r\n    Achat d'un token par un utilisateur\r\n     */\r\n    function purchase(address contactAddr, uint256 tokenId) external payable {//vendre que des oeufs\r\n        TokenDelegable contrat = TokenDelegable(addressContract);\r\n        TokenDelegable.Token memory token = contrat.getTokenDetails(tokenId);\r\n        require(msg.value >= token.params256[1], \"Insufficient fonds sent\");\r\n        require(contrat.getOwnerOf(tokenId) != msg.sender, \"Already Owned\");\r\n        //contrat.updateToken(token,tokenId,msg.sender);\r\n        contrat.transfer(contactAddr, msg.sender, tokenId);\r\n    }\r\n\r\n    \r\n    /**\r\n    appel vers le contrat officiel du jeton\r\n    rcuprer un tableau d'id des tokens d'un utilisateur\r\n     */\r\n    function getAllTokensForUser(address user) external view returns (uint256[] memory){\r\n        TokenDelegable contrat = TokenDelegable(addressContract);\r\n        return contrat.getAllTokensForUser(user);\r\n    }\r\n    \r\n    /**\r\n    appel vers le contrat officiel du jeton\r\n    rcuprer les data d'un token avec son id\r\n     */\r\n    function getTokenDetails(uint256 tokenId) external view returns (TokenDelegable.Token memory){\r\n        TokenDelegable contrat = TokenDelegable(addressContract);\r\n        return contrat.getTokenDetails(tokenId);\r\n    }\r\n\r\n    function random(uint8 maxNumber) internal returns (uint8) {\r\n        uint256 randomnumber = uint256(keccak256(abi.encodePacked(block.timestamp, msg.sender, paramsContract[\"nonce\"]))) % maxNumber;\r\n        paramsContract[\"nonce\"]++;\r\n        return uint8(randomnumber);\r\n    }\r\n\r\n    function random256(uint256 maxNumber) internal returns (uint256) {\r\n        uint256 randomnumber = uint256(keccak256(abi.encodePacked(block.timestamp, msg.sender, paramsContract[\"nonce\"]))) % maxNumber;\r\n        paramsContract[\"nonce\"]++;\r\n        return randomnumber;\r\n    }\r\n\r\n    /*FUNDS OF CONTRACT*/\r\n\r\n    function withdraw() public onlyOwner {\r\n        payable(msg.sender).transfer(address(this).balance);\r\n    }\r\n\r\n    function deposit(uint256 amount) payable public onlyOwner {\r\n        require(msg.value == amount);\r\n    }\r\n\r\n    function getBalance() public view returns (uint256)  {\r\n        return address(this).balance;\r\n    }\r\n\r\n}\r\n\r\n\r\ncontract QuestContract is Ownable {\r\n    /**\r\n    Pour les quetes pas d'obligation de stat\r\n    On dfini le taux de russite de 0 a 100 %\r\n    Quetes avec recommandation de stats (exemple 20 de force) si en dessous de 20 on retire le manque aux % de chance de reussite de 0 a 100 %\r\n    Si plus aucune diffrence de russite\r\n    */\r\n    struct Quest {\r\n        uint8 exp;\r\n        uint8 percentDifficulty;//0 a 100\r\n        uint8[] stats;//required\r\n        uint256 id;\r\n        uint256 time;\r\n        bool valid;\r\n    }\r\n\r\n    mapping( uint256 => Quest ) private _questDetails;\r\n\r\n    uint8 questCount;\r\n\r\n    \r\n    /* QUEST */\r\n    function setQuest(uint256 id, uint256 time, uint8 exp, uint8 percentDifficulty, uint8[] memory stats) public onlyOwner {\r\n        if(_questDetails[id].valid==false)questCount++;\r\n        _questDetails[id] = Quest(exp,percentDifficulty,stats,id,time,true);\r\n    }\r\n\r\n    function removeQuest(uint256 id) public onlyOwner {\r\n        if(_questDetails[id].valid==true)questCount--;\r\n        _questDetails[id].valid = false;\r\n    }\r\n\r\n    function getQuestDetails(uint256 questId) external view returns (Quest memory){\r\n        //require(_questDetails[questId],\"Quest not exist\");\r\n        return _questDetails[questId];\r\n    }\r\n\r\n    /**\r\n    Rcuprer dans un tableau tout les id token d'un utilisateur\r\n    */\r\n    function getAllQuests() external view returns (uint256[] memory){\r\n        uint[] memory result = new uint256[](questCount);\r\n        uint256 resultIndex = 0;\r\n        uint256 i;\r\n        for(i = 0; i < questCount; i++){\r\n            result[resultIndex] = _questDetails[i].id;\r\n            resultIndex++;\r\n        }\r\n        return result;\r\n    }\r\n}\r\n\r\ncontract ClassesContract is Ownable {\r\n    \r\n    struct Classes {\r\n        uint8[] stats;//required\r\n        uint256 id;\r\n        bool valid;\r\n    }\r\n\r\n    mapping( uint8 => Classes ) private _classDetails;\r\n    \r\n    uint8 classCount;\r\n\r\n    /*CLASSE*/\r\n    function setClass(uint8 id, uint8[] memory stats) public onlyOwner {\r\n        if(_classDetails[id].valid==false)classCount++;\r\n        _classDetails[id] = Classes(stats,id,true);\r\n    }\r\n\r\n    function removeClass(uint8 id) public onlyOwner {\r\n        if(_classDetails[id].valid==true)classCount--;\r\n        _classDetails[id].valid = false;\r\n    }\r\n\r\n    function getClassStatsDetails(uint8 classId) external view returns (uint8[] memory){\r\n        return _classDetails[classId].stats;\r\n    }\r\n\r\n    /**\r\n    Rcuprer dans un tableau tout les id token d'un utilisateur\r\n    */\r\n    function getAllClass() external view returns (uint256[] memory){\r\n        uint[] memory result = new uint256[](classCount);\r\n        uint256 resultIndex = 0;\r\n        for(uint8 i = 0; i < classCount; i++){\r\n            result[resultIndex] = _classDetails[i].id;\r\n            resultIndex++;\r\n        }\r\n        return result;\r\n    }\r\n\r\n}\r\n\r\n\r\ncontract TokenDelegable is ERC721Enumerable, Ownable {\r\n    using Strings for uint256;\r\n    \r\n    struct Token {\r\n        bool[] booleans;\r\n        uint8[] params8;//parts \r\n        uint256[] params256;//params\r\n    }\r\n\r\n\r\n    address adressDelegateContract;\r\n    mapping( string => uint ) paramsContract;\r\n    mapping( uint256 => Token ) private _tokenDetails;\r\n    \r\n    string public baseURI;\r\n    string public baseExtension = \".json\";\r\n    bool public paused = false;\r\n\r\n    constructor(string memory name, string memory symbol, string memory _initBaseURI) ERC721(name, symbol){\r\n        paramsContract[\"nextId\"] = 0;\r\n        paramsContract[\"totalSupply\"] = 0;\r\n        setBaseURI(_initBaseURI);\r\n    }\r\n\r\n    function random(uint8 maxNumber) internal returns (uint8) {\r\n        uint256 randomnumber = uint256(keccak256(abi.encodePacked(block.timestamp, msg.sender, paramsContract[\"nonce\"]))) % maxNumber;\r\n        paramsContract[\"nonce\"]++;\r\n        return uint8(randomnumber);\r\n    }\r\n\r\n    function _baseURI() internal view virtual override returns (string memory) {\r\n        return baseURI;\r\n    }\r\n\r\n    function setBaseURI(string memory _newBaseURI) public onlyOwner {\r\n        baseURI = _newBaseURI;\r\n    }\r\n\r\n    function tokenURI(uint256 tokenId) public view virtual override returns (string memory) {\r\n        require( _exists(tokenId), \"ERC721Metadata: URI query for nonexistent token\" );\r\n        string memory currentBaseURI = _baseURI();\r\n        return bytes(currentBaseURI).length > 0 ? string(abi.encodePacked(currentBaseURI, tokenId.toString(), baseExtension)) : \"\";\r\n    }\r\n\r\n    /**\r\n    Foncton trs importante que l'ont rajoute sur presque toutes les autres fonctions pour vrifier que l'appel des fonctions ce fais bien depuis le contrat de dlgation pour plus de scuriter\r\n    */\r\n    modifier byDelegate() {\r\n        require((msg.sender == adressDelegateContract || adressDelegateContract == address(0))&& !paused,\"Not good delegate contract\");\r\n        _;\r\n    }\r\n\r\n    /**\r\n    Mttre en pause le contrat en cas de problme\r\n     */\r\n    function pause(bool _state) external onlyOwner {\r\n        paused = _state;\r\n    }\r\n\r\n    /**\r\n    Fonction de mint, on envoi un tableau de uint8 et un tableau de uint256 qui seront les params de notre token\r\n    On enregistre la struct dans un mapping avec la key id\r\n    Puis on mint avec la mme key id\r\n    */\r\n    function mint(address sender, bool[] memory booleans, uint8[] memory params8, uint256[] memory params256) external payable byDelegate {\r\n        _tokenDetails[paramsContract[\"nextId\"]] = Token(booleans,params8,params256);\r\n        _safeMint(sender, paramsContract[\"nextId\"]);\r\n        paramsContract[\"nextId\"]++;\r\n        paramsContract[\"totalSupply\"]++;\r\n    }\r\n    \r\n    /**\r\n    Burn un token avec son id et diminu le total supply\r\n    */\r\n    function burn(uint256 tokenId) external byDelegate {\r\n        _burn(tokenId);\r\n        paramsContract[\"totalSupply\"]--;\r\n    }\r\n\r\n    /*\r\n    Transfr un token d'une adresse  une autre en utilsant l'id token\r\n    */\r\n    function transfer(address from, address to ,uint256 tokenId) external byDelegate {\r\n        _safeTransfer(from, to, tokenId, \"\");\r\n    }\r\n    \r\n    /**\r\n    Rcuprer dans un tableau tout les id token d'un utilisateur\r\n    */\r\n    function getAllTokensForUser(address user) external view returns (uint256[] memory){\r\n        uint256 tokenCount = balanceOf(user);\r\n        if(tokenCount == 0){\r\n            return new uint256[](0);\r\n        }\r\n        else{\r\n            uint[] memory result = new uint256[](tokenCount);\r\n            uint256 totalTokens = paramsContract[\"nextId\"];\r\n            uint256 resultIndex = 0;\r\n            uint256 i;\r\n            for(i = 0; i < totalTokens; i++){\r\n                if(ownerOf(i) == user){\r\n                    result[resultIndex] = i;\r\n                    resultIndex++;\r\n                }\r\n            }\r\n            return result;\r\n        }\r\n    }\r\n\r\n    /**\r\n    Rcuprer l'adresse du possesseur du token en utilisant la key id du token\r\n    */\r\n    function getOwnerOf(uint256 tokenId) external view returns (address) {\r\n        return ownerOf(tokenId);\r\n    }\r\n\r\n    /**\r\n    Rcuprer le nombre de token possd par un joueur\r\n     */\r\n    function getBalanceOf(address user) external view returns (uint) {\r\n        return balanceOf(user);\r\n    }\r\n\r\n    /**\r\n    Mttre a jour le Token (hero) en utilisant l'id en cl et en envoyant directement l'objet de la mise a jour du token\r\n     */\r\n    function updateToken(Token memory tokenTemp,uint256 tokenId,address owner) external byDelegate {\r\n        require(ownerOf(tokenId) == owner,\"Not Your token\");\r\n        _tokenDetails[tokenId] = tokenTemp;\r\n    }\r\n    \r\n    /**\r\n    Rcuprer les datas d'un token en utilisant son id\r\n     */\r\n    function getTokenDetails(uint256 tokenId) external view returns (Token memory){\r\n        return _tokenDetails[tokenId];\r\n    }\r\n\r\n    /**\r\n    Mttre a jour une des datas du cotnrat en utilisant la key\r\n     */\r\n    function setParamsContract(string memory keyParams, uint valueParams) external onlyOwner {\r\n        paramsContract[keyParams] = valueParams;\r\n    }\r\n\r\n    /**\r\n    Rcuperer une des datas du contrat en utilisant la key\r\n     */\r\n    function getParamsContract(string memory keyParams) external view returns (uint){\r\n        return paramsContract[keyParams];\r\n    }\r\n\r\n    /** \r\n    modifier l'addresse du contrat de dlgation pour permettre aux dit contrat d'intragir avec celui ci\r\n     */\r\n    function setAdressDelegateContract(address _adress) external onlyOwner {\r\n        adressDelegateContract = _adress;\r\n    }\r\n\r\n    /*FUNDS OF CONTRACT*/\r\n\r\n    function withdraw() public onlyOwner {\r\n        payable(msg.sender).transfer(address(this).balance);\r\n    }\r\n\r\n    function deposit(uint256 amount) payable public onlyOwner {\r\n        require(msg.value == amount);\r\n    }\r\n\r\n    function getBalance() public view returns (uint256)  {\r\n        return address(this).balance;\r\n    }\r\n\r\n}\r\n\r\n\r\n/*Tout faire passer par le contrat pour permettre :\r\n-plus de scurit, quasi incraquable\r\n-aucun moyen que le serveur tombe a un moment et que les joueurs soit en panique\r\n-tracabilit et transparance maximum, ont peut voir quels actions ont tait effectu par qui et a quel moment\r\n\r\nL'avantage de faire de chaque items un jeton ERC20 :\r\n-Transmition facile d'un user  un autre, ou d'un contrat  un autre\r\n-Impossible de craquer le jeu et ce donner des millions d'item, en gros triche impossible\r\n-Vente des jetons facile\r\n-Petit icone sur meta mask pour son jeton a rajoute toujours une sorte d'attachement au jeton*/",
  "sourcePath": "C:\\laragon\\www\\MYS\\contracts\\TokenDelegable.sol",
  "compiler": {
    "name": "solc",
    "version": "0.8.0+commit.c7dfd78e.Emscripten.clang"
  },
  "schemaVersion": "3.4.4",
  "updatedAt": "2022-02-19T22:23:04.788Z",
  "networkType": "ethereum",
  "devdoc": {
    "kind": "dev",
    "methods": {
      "approve(address,uint256)": {
        "details": "See {IERC721-approve}."
      },
      "balanceOf(address)": {
        "details": "See {IERC721-balanceOf}."
      },
      "getApproved(uint256)": {
        "details": "See {IERC721-getApproved}."
      },
      "isApprovedForAll(address,address)": {
        "details": "See {IERC721-isApprovedForAll}."
      },
      "name()": {
        "details": "See {IERC721Metadata-name}."
      },
      "owner()": {
        "details": "Returns the address of the current owner."
      },
      "ownerOf(uint256)": {
        "details": "See {IERC721-ownerOf}."
      },
      "renounceOwnership()": {
        "details": "Leaves the contract without owner. It will not be possible to call `onlyOwner` functions anymore. Can only be called by the current owner. NOTE: Renouncing ownership will leave the contract without an owner, thereby removing any functionality that is only available to the owner."
      },
      "safeTransferFrom(address,address,uint256)": {
        "details": "See {IERC721-safeTransferFrom}."
      },
      "safeTransferFrom(address,address,uint256,bytes)": {
        "details": "See {IERC721-safeTransferFrom}."
      },
      "setApprovalForAll(address,bool)": {
        "details": "See {IERC721-setApprovalForAll}."
      },
      "supportsInterface(bytes4)": {
        "details": "See {IERC165-supportsInterface}."
      },
      "symbol()": {
        "details": "See {IERC721Metadata-symbol}."
      },
      "tokenByIndex(uint256)": {
        "details": "See {IERC721Enumerable-tokenByIndex}."
      },
      "tokenOfOwnerByIndex(address,uint256)": {
        "details": "See {IERC721Enumerable-tokenOfOwnerByIndex}."
      },
      "tokenURI(uint256)": {
        "details": "See {IERC721Metadata-tokenURI}."
      },
      "totalSupply()": {
        "details": "See {IERC721Enumerable-totalSupply}."
      },
      "transferFrom(address,address,uint256)": {
        "details": "See {IERC721-transferFrom}."
      },
      "transferOwnership(address)": {
        "details": "Transfers ownership of the contract to a new account (`newOwner`). Can only be called by the current owner."
      }
    },
    "version": 1
  },
  "userdoc": {
    "kind": "user",
    "methods": {
      "burn(uint256)": {
        "notice": "Burn un token avec son id et diminu le total supply"
      },
      "getAllTokensForUser(address)": {
        "notice": "Rcuprer dans un tableau tout les id token d'un utilisateur"
      },
      "getBalanceOf(address)": {
        "notice": "Rcuprer le nombre de token possd par un joueur"
      },
      "getOwnerOf(uint256)": {
        "notice": "Rcuprer l'adresse du possesseur du token en utilisant la key id du token"
      },
      "getParamsContract(string)": {
        "notice": "Rcuperer une des datas du contrat en utilisant la key"
      },
      "getTokenDetails(uint256)": {
        "notice": "Rcuprer les datas d'un token en utilisant son id"
      },
      "mint(address,bool[],uint8[],uint256[])": {
        "notice": "Fonction de mint, on envoi un tableau de uint8 et un tableau de uint256 qui seront les params de notre token On enregistre la struct dans un mapping avec la key id Puis on mint avec la mme key id"
      },
      "pause(bool)": {
        "notice": "Mttre en pause le contrat en cas de problme"
      },
      "setAdressDelegateContract(address)": {
        "notice": "modifier l'addresse du contrat de dlgation pour permettre aux dit contrat d'intragir avec celui ci"
      },
      "setParamsContract(string,uint256)": {
        "notice": "Mttre a jour une des datas du cotnrat en utilisant la key"
      },
      "updateToken((bool[],uint8[],uint256[]),uint256,address)": {
        "notice": "Mttre a jour le Token (hero) en utilisant l'id en cl et en envoyant directement l'objet de la mise a jour du token"
      }
    },
    "version": 1
  }
}