{
  "contractName": "Class",
  "abi": [
    {
      "inputs": [
        {
          "internalType": "uint8",
          "name": "id",
          "type": "uint8"
        }
      ],
      "name": "ClassIsNotValid",
      "type": "error"
    },
    {
      "anonymous": false,
      "inputs": [
        {
          "indexed": true,
          "internalType": "address",
          "name": "previousOwner",
          "type": "address"
        },
        {
          "indexed": true,
          "internalType": "address",
          "name": "newOwner",
          "type": "address"
        }
      ],
      "name": "OwnershipTransferred",
      "type": "event"
    },
    {
      "inputs": [],
      "name": "owner",
      "outputs": [
        {
          "internalType": "address",
          "name": "",
          "type": "address"
        }
      ],
      "stateMutability": "view",
      "type": "function"
    },
    {
      "inputs": [],
      "name": "renounceOwnership",
      "outputs": [],
      "stateMutability": "nonpayable",
      "type": "function"
    },
    {
      "inputs": [
        {
          "internalType": "address",
          "name": "newOwner",
          "type": "address"
        }
      ],
      "name": "transferOwnership",
      "outputs": [],
      "stateMutability": "nonpayable",
      "type": "function"
    },
    {
      "inputs": [
        {
          "internalType": "uint8",
          "name": "id",
          "type": "uint8"
        },
        {
          "internalType": "uint8",
          "name": "rarity",
          "type": "uint8"
        },
        {
          "internalType": "uint8[]",
          "name": "stats",
          "type": "uint8[]"
        },
        {
          "internalType": "string",
          "name": "name",
          "type": "string"
        }
      ],
      "name": "setClass",
      "outputs": [],
      "stateMutability": "nonpayable",
      "type": "function"
    },
    {
      "inputs": [
        {
          "internalType": "uint8",
          "name": "id",
          "type": "uint8"
        }
      ],
      "name": "removeClass",
      "outputs": [],
      "stateMutability": "nonpayable",
      "type": "function"
    },
    {
      "inputs": [
        {
          "internalType": "uint8",
          "name": "id",
          "type": "uint8"
        }
      ],
      "name": "getClassStatsDetails",
      "outputs": [
        {
          "internalType": "uint8[]",
          "name": "",
          "type": "uint8[]"
        }
      ],
      "stateMutability": "view",
      "type": "function"
    },
    {
      "inputs": [
        {
          "internalType": "uint8",
          "name": "id",
          "type": "uint8"
        }
      ],
      "name": "getClassDetails",
      "outputs": [
        {
          "components": [
            {
              "internalType": "uint8",
              "name": "rarity",
              "type": "uint8"
            },
            {
              "internalType": "uint8",
              "name": "id",
              "type": "uint8"
            },
            {
              "internalType": "uint8[]",
              "name": "stats",
              "type": "uint8[]"
            },
            {
              "internalType": "bool",
              "name": "valid",
              "type": "bool"
            },
            {
              "internalType": "string",
              "name": "name",
              "type": "string"
            }
          ],
          "internalType": "struct ClassLib.Classes",
          "name": "",
          "type": "tuple"
        }
      ],
      "stateMutability": "view",
      "type": "function"
    },
    {
      "inputs": [],
      "name": "getClassCount",
      "outputs": [
        {
          "internalType": "uint8",
          "name": "",
          "type": "uint8"
        }
      ],
      "stateMutability": "view",
      "type": "function"
    },
    {
      "inputs": [],
      "name": "getAllClass",
      "outputs": [
        {
          "components": [
            {
              "internalType": "uint8",
              "name": "rarity",
              "type": "uint8"
            },
            {
              "internalType": "uint8",
              "name": "id",
              "type": "uint8"
            },
            {
              "internalType": "uint8[]",
              "name": "stats",
              "type": "uint8[]"
            },
            {
              "internalType": "bool",
              "name": "valid",
              "type": "bool"
            },
            {
              "internalType": "string",
              "name": "name",
              "type": "string"
            }
          ],
          "internalType": "struct ClassLib.Classes[]",
          "name": "",
          "type": "tuple[]"
        }
      ],
      "stateMutability": "view",
      "type": "function"
    }
  ],
  "bytecode": "0x608060405234801561001057600080fd5b5061001a3361001f565b61006f565b600080546001600160a01b038381166001600160a01b0319831681178455604051919092169283917f8be0079c531659141344cd1fd0a4f28419497f9722a3daafe3b4186f6b6457e09190a35050565b610de38061007e6000396000f3fe608060405234801561001057600080fd5b50600436106100935760003560e01c80638da5cb5b116100665780638da5cb5b146100f157806396f570c31461010c578063a6d871ef1461011f578063f2fde38b1461013f578063ff8955481461015257600080fd5b80630b01ca3b14610098578063323eae49146100b25780636db40d14146100d2578063715018a6146100e7575b600080fd5b60025460405160ff90911681526020015b60405180910390f35b6100c56100c0366004610a01565b610165565b6040516100a99190610b09565b6100da6102dc565b6040516100a99190610b1c565b6100ef6104f9565b005b6000546040516001600160a01b0390911681526020016100a9565b6100ef61011a366004610bc7565b61050d565b61013261012d366004610a01565b61067e565b6040516100a99190610c89565b6100ef61014d366004610cd0565b610705565b6100ef610160366004610a01565b610783565b6040805160a081018252600080825260208201819052606092820183905282820152608081019190915260ff808316600090815260016020818152604092839020835160a081018552815480871682526101009004909516858301529182018054845181840281018401865281815293948601939283018282801561022757602002820191906000526020600020906000905b825461010083900a900460ff168152602060019283018181049485019490930390920291018084116101f85790505b5050509183525050600282015460ff161515602082015260038201805460409092019161025390610cf9565b80601f016020809104026020016040519081016040528092919081815260200182805461027f90610cf9565b80156102cc5780601f106102a1576101008083540402835291602001916102cc565b820191906000526020600020905b8154815290600101906020018083116102af57829003601f168201915b5050505050815250509050919050565b60025460609060009060ff1667ffffffffffffffff81111561030057610300610d2e565b60405190808252806020026020018201604052801561035b57816020015b6040805160a081018252600080825260208201819052606092820183905282820152608081019190915281526020019060019003908161031e5790505b50905060005b60025460ff90811690821610156104f35760ff808216600090815260016020818152604092839020835160a08101855281548087168252610100900490951685830152918201805484518184028101840186528181529395948694908601939092919083018282801561041157602002820191906000526020600020906000905b825461010083900a900460ff168152602060019283018181049485019490930390920291018084116103e25790505b5050509183525050600282015460ff161515602082015260038201805460409092019161043d90610cf9565b80601f016020809104026020016040519081016040528092919081815260200182805461046990610cf9565b80156104b65780601f1061048b576101008083540402835291602001916104b6565b820191906000526020600020905b81548152906001019060200180831161049957829003601f168201915b505050505081525050838360ff16815181106104d4576104d4610d44565b60200260200101819052505080806104eb90610d70565b915050610361565b50919050565b610501610812565b61050b600061086c565b565b610515610812565b60ff8087166000908152600160205260409020600201541661055e576002805460ff1690600061054483610d70565b91906101000a81548160ff021916908360ff160217905550505b6040518060a001604052808660ff1681526020018760ff168152602001858580806020026020016040519081016040528093929190818152602001838360200280828437600092019190915250505090825250600160208083019190915260408051601f86018390048302810183018252858152920191908590859081908401838280828437600092018290525093909452505060ff808a16825260016020818152604093849020865181548884015186166101000261ffff19909116919095161793909317835592850151805192945061063f93918501929101906108bc565b50606082015160028201805460ff191691151591909117905560808201518051610673916003840191602090910190610962565b505050505050505050565b60ff81166000908152600160208181526040928390209091018054835181840281018401909452808452606093928301828280156106f957602002820191906000526020600020906000905b825461010083900a900460ff168152602060019283018181049485019490930390920291018084116106ca5790505b50505050509050919050565b61070d610812565b6001600160a01b0381166107775760405162461bcd60e51b815260206004820152602660248201527f4f776e61626c653a206e6577206f776e657220697320746865207a65726f206160448201526564647265737360d01b60648201526084015b60405180910390fd5b6107808161086c565b50565b61078b610812565b60ff808216600090815260016020526040902060020154166107c557604051630a4890e760e41b815260ff8216600482015260240161076e565b6002805460ff169060006107d883610d90565b82546101009290920a60ff818102199093169183160217909155919091166000908152600160205260409020600201805460ff1916905550565b6000546001600160a01b0316331461050b5760405162461bcd60e51b815260206004820181905260248201527f4f776e61626c653a2063616c6c6572206973206e6f7420746865206f776e6572604482015260640161076e565b600080546001600160a01b038381166001600160a01b0319831681178455604051919092169283917f8be0079c531659141344cd1fd0a4f28419497f9722a3daafe3b4186f6b6457e09190a35050565b82805482825590600052602060002090601f016020900481019282156109525791602002820160005b8382111561092357835183826101000a81548160ff021916908360ff16021790555092602001926001016020816000010492830192600103026108e5565b80156109505782816101000a81549060ff0219169055600101602081600001049283019260010302610923565b505b5061095e9291506109d6565b5090565b82805461096e90610cf9565b90600052602060002090601f0160209004810192826109905760008555610952565b82601f106109a957805160ff1916838001178555610952565b82800160010185558215610952579182015b828111156109525782518255916020019190600101906109bb565b5b8082111561095e57600081556001016109d7565b803560ff811681146109fc57600080fd5b919050565b600060208284031215610a1357600080fd5b610a1c826109eb565b9392505050565b6000815180845260005b81811015610a4957602081850181015186830182015201610a2d565b81811115610a5b576000602083870101525b50601f01601f19169290920160200192915050565b600060a0830160ff808451168552602081818601511681870152604085015160a0604088015283815180865260c0890191508383019550600092505b80831015610ace57855185168252948301946001929092019190830190610aac565b5060608701519450610ae4606089018615159052565b608087015194508781036080890152610afd8186610a23565b98975050505050505050565b602081526000610a1c6020830184610a70565b6000602080830181845280855180835260408601915060408160051b870101925083870160005b82811015610b7157603f19888603018452610b5f858351610a70565b94509285019290850190600101610b43565b5092979650505050505050565b60008083601f840112610b9057600080fd5b50813567ffffffffffffffff811115610ba857600080fd5b602083019150836020828501011115610bc057600080fd5b9250929050565b60008060008060008060808789031215610be057600080fd5b610be9876109eb565b9550610bf7602088016109eb565b9450604087013567ffffffffffffffff80821115610c1457600080fd5b818901915089601f830112610c2857600080fd5b813581811115610c3757600080fd5b8a60208260051b8501011115610c4c57600080fd5b602083019650809550506060890135915080821115610c6a57600080fd5b50610c7789828a01610b7e565b979a9699509497509295939492505050565b6020808252825182820181905260009190848201906040850190845b81811015610cc457835160ff1683529284019291840191600101610ca5565b50909695505050505050565b600060208284031215610ce257600080fd5b81356001600160a01b0381168114610a1c57600080fd5b600181811c90821680610d0d57607f821691505b602082108114156104f357634e487b7160e01b600052602260045260246000fd5b634e487b7160e01b600052604160045260246000fd5b634e487b7160e01b600052603260045260246000fd5b634e487b7160e01b600052601160045260246000fd5b600060ff821660ff811415610d8757610d87610d5a565b60010192915050565b600060ff821680610da357610da3610d5a565b600019019291505056fea264697066735822122009bd13822b92b0a2f9099a53cd746f4e3e2cf7d7195a5be2a847e4c0db96dea364736f6c634300080b0033",
  "immutableReferences": {},
  "source": "// SPDX-License-Identifier: MIT\n// Classes contract\npragma solidity ^0.8.0;\n\nimport \"@openzeppelin/contracts/access/Ownable.sol\";\nimport \"../library/LClass.sol\";\n\ncontract Class is Ownable {\n  error ClassIsNotValid(uint8 id);\n\n  mapping(uint8 => ClassLib.Classes) private classes;\n\n  uint8 classCount;\n\n  ///@dev direct call (not by proxy contract)\n  ///@notice upsert class for hero\n  ///@param id key of class you want to set\n  ///@param rarity rarity percent 0-1000 to get this class in mint hero\n  ///@param stats array of uint8 statistique for start in mint hero\n  ///@param name string name of class\n  function setClass(\n    uint8 id,\n    uint8 rarity,\n    uint8[] calldata stats,\n    string calldata name\n  ) external onlyOwner {\n    if (classes[id].valid == false) classCount++;\n    classes[id] = ClassLib.Classes(rarity, id, stats, true, name);\n  }\n\n  ///@dev direct call (not by proxy contract)\n  ///@notice remove class validity\n  ///@param id key of class you want delete\n  function removeClass(uint8 id) external onlyOwner {\n    if (classes[id].valid == false) revert ClassIsNotValid({ id: id });\n    classCount--;\n    classes[id].valid = false;\n  }\n\n  ///@notice return stats parameter of class by id\n  ///@param id key of class you want to get\n  ///@return stats parameter stats of structure class\n  function getClassStatsDetails(uint8 id) external view returns (uint8[] memory) {\n    return classes[id].stats;\n  }\n\n  ///@notice return class structure by id\n  ///@param id key of class you want to get\n  ///@return class structure class\n  function getClassDetails(uint8 id) external view returns (ClassLib.Classes memory) {\n    return classes[id];\n  }\n\n  ///@notice return class count number\n  ///@return classCount\n  function getClassCount() external view returns (uint8) {\n    return classCount;\n  }\n\n  ///@notice return all classes\n  ///@return classes array of structure class\n  function getAllClass() external view returns (ClassLib.Classes[] memory) {\n    ClassLib.Classes[] memory result = new ClassLib.Classes[](classCount);\n    for (uint8 i = 0; i < classCount; i++) {\n      ClassLib.Classes storage classe = classes[i];\n      result[i] = classe;\n    }\n    return result;\n  }\n}\n",
  "sourcePath": "/home/solid-solution/Bureau/HOMEWORK/MYOS/contracts/immutable/Class.sol",
  "compiler": {
    "name": "solc",
    "version": "0.8.11+commit.d7f03943.Emscripten.clang"
  },
  "schemaVersion": "3.4.10",
  "updatedAt": "2022-11-18T14:29:30.426Z",
  "devdoc": {
    "kind": "dev",
    "methods": {
      "getAllClass()": {
        "returns": {
          "_0": "classes array of structure class"
        }
      },
      "getClassCount()": {
        "returns": {
          "_0": "classCount"
        }
      },
      "getClassDetails(uint8)": {
        "params": {
          "id": "key of class you want to get"
        },
        "returns": {
          "_0": "class structure class"
        }
      },
      "getClassStatsDetails(uint8)": {
        "params": {
          "id": "key of class you want to get"
        },
        "returns": {
          "_0": "stats parameter stats of structure class"
        }
      },
      "owner()": {
        "details": "Returns the address of the current owner."
      },
      "removeClass(uint8)": {
        "details": "direct call (not by proxy contract)",
        "params": {
          "id": "key of class you want delete"
        }
      },
      "renounceOwnership()": {
        "details": "Leaves the contract without owner. It will not be possible to call `onlyOwner` functions anymore. Can only be called by the current owner. NOTE: Renouncing ownership will leave the contract without an owner, thereby removing any functionality that is only available to the owner."
      },
      "setClass(uint8,uint8,uint8[],string)": {
        "details": "direct call (not by proxy contract)",
        "params": {
          "id": "key of class you want to set",
          "name": "string name of class",
          "rarity": "rarity percent 0-1000 to get this class in mint hero",
          "stats": "array of uint8 statistique for start in mint hero"
        }
      },
      "transferOwnership(address)": {
        "details": "Transfers ownership of the contract to a new account (`newOwner`). Can only be called by the current owner."
      }
    },
    "version": 1
  },
  "userdoc": {
    "kind": "user",
    "methods": {
      "getAllClass()": {
        "notice": "return all classes"
      },
      "getClassCount()": {
        "notice": "return class count number"
      },
      "getClassDetails(uint8)": {
        "notice": "return class structure by id"
      },
      "getClassStatsDetails(uint8)": {
        "notice": "return stats parameter of class by id"
      },
      "removeClass(uint8)": {
        "notice": "remove class validity"
      },
      "setClass(uint8,uint8,uint8[],string)": {
        "notice": "upsert class for hero"
      }
    },
    "version": 1
  }
}