{
  "contractName": "Class",
  "abi": [
    {
      "anonymous": false,
      "inputs": [
        {
          "indexed": true,
          "internalType": "address",
          "name": "previousOwner",
          "type": "address"
        },
        {
          "indexed": true,
          "internalType": "address",
          "name": "newOwner",
          "type": "address"
        }
      ],
      "name": "OwnershipTransferred",
      "type": "event"
    },
    {
      "inputs": [],
      "name": "owner",
      "outputs": [
        {
          "internalType": "address",
          "name": "",
          "type": "address"
        }
      ],
      "stateMutability": "view",
      "type": "function"
    },
    {
      "inputs": [],
      "name": "renounceOwnership",
      "outputs": [],
      "stateMutability": "nonpayable",
      "type": "function"
    },
    {
      "inputs": [
        {
          "internalType": "address",
          "name": "newOwner",
          "type": "address"
        }
      ],
      "name": "transferOwnership",
      "outputs": [],
      "stateMutability": "nonpayable",
      "type": "function"
    },
    {
      "inputs": [
        {
          "internalType": "uint8",
          "name": "_id",
          "type": "uint8"
        },
        {
          "internalType": "uint8",
          "name": "rarity",
          "type": "uint8"
        },
        {
          "internalType": "uint8[]",
          "name": "stats",
          "type": "uint8[]"
        },
        {
          "internalType": "string",
          "name": "name",
          "type": "string"
        }
      ],
      "name": "setClass",
      "outputs": [],
      "stateMutability": "nonpayable",
      "type": "function"
    },
    {
      "inputs": [
        {
          "internalType": "uint8",
          "name": "_id",
          "type": "uint8"
        }
      ],
      "name": "removeClass",
      "outputs": [],
      "stateMutability": "nonpayable",
      "type": "function"
    },
    {
      "inputs": [
        {
          "internalType": "uint8",
          "name": "classId",
          "type": "uint8"
        }
      ],
      "name": "getClassStatsDetails",
      "outputs": [
        {
          "internalType": "uint8[]",
          "name": "",
          "type": "uint8[]"
        }
      ],
      "stateMutability": "view",
      "type": "function"
    },
    {
      "inputs": [
        {
          "internalType": "uint8",
          "name": "classId",
          "type": "uint8"
        }
      ],
      "name": "getClassDetails",
      "outputs": [
        {
          "components": [
            {
              "internalType": "uint8",
              "name": "rarity",
              "type": "uint8"
            },
            {
              "internalType": "uint8[]",
              "name": "stats",
              "type": "uint8[]"
            },
            {
              "internalType": "uint8",
              "name": "id",
              "type": "uint8"
            },
            {
              "internalType": "bool",
              "name": "valid",
              "type": "bool"
            },
            {
              "internalType": "string",
              "name": "name",
              "type": "string"
            }
          ],
          "internalType": "struct Class.Classes",
          "name": "",
          "type": "tuple"
        }
      ],
      "stateMutability": "view",
      "type": "function"
    },
    {
      "inputs": [],
      "name": "getClassCount",
      "outputs": [
        {
          "internalType": "uint8",
          "name": "",
          "type": "uint8"
        }
      ],
      "stateMutability": "view",
      "type": "function"
    },
    {
      "inputs": [],
      "name": "getAllClass",
      "outputs": [
        {
          "components": [
            {
              "internalType": "uint8",
              "name": "rarity",
              "type": "uint8"
            },
            {
              "internalType": "uint8[]",
              "name": "stats",
              "type": "uint8[]"
            },
            {
              "internalType": "uint8",
              "name": "id",
              "type": "uint8"
            },
            {
              "internalType": "bool",
              "name": "valid",
              "type": "bool"
            },
            {
              "internalType": "string",
              "name": "name",
              "type": "string"
            }
          ],
          "internalType": "struct Class.Classes[]",
          "name": "",
          "type": "tuple[]"
        }
      ],
      "stateMutability": "view",
      "type": "function"
    }
  ],
  "bytecode": "0x608060405234801561001057600080fd5b5061002d61002261003260201b60201c565b61003a60201b60201c565b6100fe565b600033905090565b60008060009054906101000a900473ffffffffffffffffffffffffffffffffffffffff169050816000806101000a81548173ffffffffffffffffffffffffffffffffffffffff021916908373ffffffffffffffffffffffffffffffffffffffff1602179055508173ffffffffffffffffffffffffffffffffffffffff168173ffffffffffffffffffffffffffffffffffffffff167f8be0079c531659141344cd1fd0a4f28419497f9722a3daafe3b4186f6b6457e060405160405180910390a35050565b61173b8061010d6000396000f3fe608060405234801561001057600080fd5b50600436106100935760003560e01c80638da5cb5b116100665780638da5cb5b1461010e57806396f570c31461012c578063a6d871ef14610148578063f2fde38b14610178578063ff8955481461019457610093565b80630b01ca3b14610098578063323eae49146100b65780636db40d14146100e6578063715018a614610104575b600080fd5b6100a06101b0565b6040516100ad91906113ce565b60405180910390f35b6100d060048036038101906100cb9190610edf565b6101c7565b6040516100dd91906113ac565b60405180910390f35b6100ee61035f565b6040516100fb9190611328565b60405180910390f35b61010c610602565b005b61011661068a565b604051610123919061130d565b60405180910390f35b61014660048036038101906101419190610f08565b6106b3565b005b610162600480360381019061015d9190610edf565b61088c565b60405161016f919061134a565b60405180910390f35b610192600480360381019061018d9190610eb6565b610926565b005b6101ae60048036038101906101a99190610edf565b610a1e565b005b6000600260009054906101000a900460ff16905090565b6101cf610c0d565b600160008360ff1660ff1681526020019081526020016000206040518060a00160405290816000820160009054906101000a900460ff1660ff1660ff1681526020016001820180548060200260200160405190810160405280929190818152602001828054801561028557602002820191906000526020600020906000905b82829054906101000a900460ff1660ff168152602001906001019060208260000104928301926001038202915080841161024e5790505b505050505081526020016002820160009054906101000a900460ff1660ff1660ff1681526020016002820160019054906101000a900460ff161515151581526020016003820180546102d6906115dd565b80601f0160208091040260200160405190810160405280929190818152602001828054610302906115dd565b801561034f5780601f106103245761010080835404028352916020019161034f565b820191906000526020600020905b81548152906001019060200180831161033257829003601f168201915b5050505050815250509050919050565b60606000600260009054906101000a900460ff1660ff1667ffffffffffffffff8111156103b5577f4e487b7100000000000000000000000000000000000000000000000000000000600052604160045260246000fd5b6040519080825280602002602001820160405280156103ee57816020015b6103db610c0d565b8152602001906001900390816103d35790505b50905060005b600260009054906101000a900460ff1660ff168160ff1610156105fa576000600160008360ff1660ff1681526020019081526020016000209050806040518060a00160405290816000820160009054906101000a900460ff1660ff1660ff168152602001600182018054806020026020016040519081016040528092919081815260200182805480156104cc57602002820191906000526020600020906000905b82829054906101000a900460ff1660ff16815260200190600101906020826000010492830192600103820291508084116104955790505b505050505081526020016002820160009054906101000a900460ff1660ff1660ff1681526020016002820160019054906101000a900460ff1615151515815260200160038201805461051d906115dd565b80601f0160208091040260200160405190810160405280929190818152602001828054610549906115dd565b80156105965780601f1061056b57610100808354040283529160200191610596565b820191906000526020600020905b81548152906001019060200180831161057957829003601f168201915b505050505081525050838360ff16815181106105db577f4e487b7100000000000000000000000000000000000000000000000000000000600052603260045260246000fd5b60200260200101819052505080806105f29061160f565b9150506103f4565b508091505090565b61060a610b41565b73ffffffffffffffffffffffffffffffffffffffff1661062861068a565b73ffffffffffffffffffffffffffffffffffffffff161461067e576040517f08c379a00000000000000000000000000000000000000000000000000000000081526004016106759061138c565b60405180910390fd5b6106886000610b49565b565b60008060009054906101000a900473ffffffffffffffffffffffffffffffffffffffff16905090565b6106bb610b41565b73ffffffffffffffffffffffffffffffffffffffff166106d961068a565b73ffffffffffffffffffffffffffffffffffffffff161461072f576040517f08c379a00000000000000000000000000000000000000000000000000000000081526004016107269061138c565b60405180910390fd5b60001515600160008660ff1660ff16815260200190815260200160002060020160019054906101000a900460ff161515141561079e576002600081819054906101000a900460ff16809291906107849061160f565b91906101000a81548160ff021916908360ff160217905550505b6040518060a001604052808460ff1681526020018381526020018560ff16815260200160011515815260200182815250600160008660ff1660ff16815260200190815260200160002060008201518160000160006101000a81548160ff021916908360ff1602179055506020820151816001019080519060200190610824929190610c44565b5060408201518160020160006101000a81548160ff021916908360ff16021790555060608201518160020160016101000a81548160ff0219169083151502179055506080820151816003019080519060200190610882929190610ceb565b5090505050505050565b6060600160008360ff1660ff16815260200190815260200160002060010180548060200260200160405190810160405280929190818152602001828054801561091a57602002820191906000526020600020906000905b82829054906101000a900460ff1660ff16815260200190600101906020826000010492830192600103820291508084116108e35790505b50505050509050919050565b61092e610b41565b73ffffffffffffffffffffffffffffffffffffffff1661094c61068a565b73ffffffffffffffffffffffffffffffffffffffff16146109a2576040517f08c379a00000000000000000000000000000000000000000000000000000000081526004016109999061138c565b60405180910390fd5b600073ffffffffffffffffffffffffffffffffffffffff168173ffffffffffffffffffffffffffffffffffffffff161415610a12576040517f08c379a0000000000000000000000000000000000000000000000000000000008152600401610a099061136c565b60405180910390fd5b610a1b81610b49565b50565b610a26610b41565b73ffffffffffffffffffffffffffffffffffffffff16610a4461068a565b73ffffffffffffffffffffffffffffffffffffffff1614610a9a576040517f08c379a0000000000000000000000000000000000000000000000000000000008152600401610a919061138c565b60405180910390fd5b60011515600160008360ff1660ff16815260200190815260200160002060020160019054906101000a900460ff1615151415610b09576002600081819054906101000a900460ff1680929190610aef906115b3565b91906101000a81548160ff021916908360ff160217905550505b6000600160008360ff1660ff16815260200190815260200160002060020160016101000a81548160ff02191690831515021790555050565b600033905090565b60008060009054906101000a900473ffffffffffffffffffffffffffffffffffffffff169050816000806101000a81548173ffffffffffffffffffffffffffffffffffffffff021916908373ffffffffffffffffffffffffffffffffffffffff1602179055508173ffffffffffffffffffffffffffffffffffffffff168173ffffffffffffffffffffffffffffffffffffffff167f8be0079c531659141344cd1fd0a4f28419497f9722a3daafe3b4186f6b6457e060405160405180910390a35050565b6040518060a00160405280600060ff16815260200160608152602001600060ff168152602001600015158152602001606081525090565b82805482825590600052602060002090601f01602090048101928215610cda5791602002820160005b83821115610cab57835183826101000a81548160ff021916908360ff1602179055509260200192600101602081600001049283019260010302610c6d565b8015610cd85782816101000a81549060ff0219169055600101602081600001049283019260010302610cab565b505b509050610ce79190610d71565b5090565b828054610cf7906115dd565b90600052602060002090601f016020900481019282610d195760008555610d60565b82601f10610d3257805160ff1916838001178555610d60565b82800160010185558215610d60579182015b82811115610d5f578251825591602001919060010190610d44565b5b509050610d6d9190610d71565b5090565b5b80821115610d8a576000816000905550600101610d72565b5090565b6000610da1610d9c8461141a565b6113e9565b90508083825260208201905082856020860282011115610dc057600080fd5b60005b85811015610df05781610dd68882610ea1565b845260208401935060208301925050600181019050610dc3565b5050509392505050565b6000610e0d610e0884611446565b6113e9565b905082815260208101848484011115610e2557600080fd5b610e30848285611571565b509392505050565b600081359050610e47816116d7565b92915050565b600082601f830112610e5e57600080fd5b8135610e6e848260208601610d8e565b91505092915050565b600082601f830112610e8857600080fd5b8135610e98848260208601610dfa565b91505092915050565b600081359050610eb0816116ee565b92915050565b600060208284031215610ec857600080fd5b6000610ed684828501610e38565b91505092915050565b600060208284031215610ef157600080fd5b6000610eff84828501610ea1565b91505092915050565b60008060008060808587031215610f1e57600080fd5b6000610f2c87828801610ea1565b9450506020610f3d87828801610ea1565b935050604085013567ffffffffffffffff811115610f5a57600080fd5b610f6687828801610e4d565b925050606085013567ffffffffffffffff811115610f8357600080fd5b610f8f87828801610e77565b91505092959194509250565b6000610fa783836111f5565b905092915050565b6000610fbb83836112ef565b60208301905092915050565b610fd081611526565b82525050565b6000610fe182611496565b610feb81856114d1565b935083602082028501610ffd85611476565b8060005b85811015611039578484038952815161101a8582610f9b565b9450611025836114b7565b925060208a01995050600181019050611001565b50829750879550505050505092915050565b6000611056826114a1565b61106081856114e2565b935061106b83611486565b8060005b8381101561109c5781516110838882610faf565b975061108e836114c4565b92505060018101905061106f565b5085935050505092915050565b60006110b4826114a1565b6110be81856114f3565b93506110c983611486565b8060005b838110156110fa5781516110e18882610faf565b97506110ec836114c4565b9250506001810190506110cd565b5085935050505092915050565b61111081611538565b82525050565b6000611121826114ac565b61112b8185611504565b935061113b818560208601611580565b611144816116c6565b840191505092915050565b600061115c602683611515565b91507f4f776e61626c653a206e6577206f776e657220697320746865207a65726f206160008301527f64647265737300000000000000000000000000000000000000000000000000006020830152604082019050919050565b60006111c2602083611515565b91507f4f776e61626c653a2063616c6c6572206973206e6f7420746865206f776e65726000830152602082019050919050565b600060a08301600083015161120d60008601826112ef565b5060208301518482036020860152611225828261104b565b915050604083015161123a60408601826112ef565b50606083015161124d6060860182611107565b50608083015184820360808601526112658282611116565b9150508091505092915050565b600060a08301600083015161128a60008601826112ef565b50602083015184820360208601526112a2828261104b565b91505060408301516112b760408601826112ef565b5060608301516112ca6060860182611107565b50608083015184820360808601526112e28282611116565b9150508091505092915050565b6112f881611564565b82525050565b61130781611564565b82525050565b60006020820190506113226000830184610fc7565b92915050565b600060208201905081810360008301526113428184610fd6565b905092915050565b6000602082019050818103600083015261136481846110a9565b905092915050565b600060208201905081810360008301526113858161114f565b9050919050565b600060208201905081810360008301526113a5816111b5565b9050919050565b600060208201905081810360008301526113c68184611272565b905092915050565b60006020820190506113e360008301846112fe565b92915050565b6000604051905081810181811067ffffffffffffffff821117156114105761140f611697565b5b8060405250919050565b600067ffffffffffffffff82111561143557611434611697565b5b602082029050602081019050919050565b600067ffffffffffffffff82111561146157611460611697565b5b601f19601f8301169050602081019050919050565b6000819050602082019050919050565b6000819050602082019050919050565b600081519050919050565b600081519050919050565b600081519050919050565b6000602082019050919050565b6000602082019050919050565b600082825260208201905092915050565b600082825260208201905092915050565b600082825260208201905092915050565b600082825260208201905092915050565b600082825260208201905092915050565b600061153182611544565b9050919050565b60008115159050919050565b600073ffffffffffffffffffffffffffffffffffffffff82169050919050565b600060ff82169050919050565b82818337600083830152505050565b60005b8381101561159e578082015181840152602081019050611583565b838111156115ad576000848401525b50505050565b60006115be82611564565b915060008214156115d2576115d1611639565b5b600182039050919050565b600060028204905060018216806115f557607f821691505b6020821081141561160957611608611668565b5b50919050565b600061161a82611564565b915060ff82141561162e5761162d611639565b5b600182019050919050565b7f4e487b7100000000000000000000000000000000000000000000000000000000600052601160045260246000fd5b7f4e487b7100000000000000000000000000000000000000000000000000000000600052602260045260246000fd5b7f4e487b7100000000000000000000000000000000000000000000000000000000600052604160045260246000fd5b6000601f19601f8301169050919050565b6116e081611526565b81146116eb57600080fd5b50565b6116f781611564565b811461170257600080fd5b5056fea26469706673582212207b3e41cf0bac22e8b26144a299fdef34f13549493144122ea32b729b1369b4b564736f6c63430008000033",
  "immutableReferences": {},
  "source": "// SPDX-License-Identifier: MIT\n// Classes contract\npragma solidity ^0.8.0;\n\nimport \"@openzeppelin/contracts/access/Ownable.sol\";\n\ncontract Class is Ownable {\n    struct Classes {\n        uint8 rarity; //0 a 100 % et en mttre une a 100 % qui soit la classique si ont a pas eu la chance de tomber sur une autre\n        uint8[] stats; //required\n        uint8 id;\n        bool valid;\n        string name;\n    }\n\n    mapping(uint8 => Classes) private _classDetails;\n\n    uint8 classCount;\n\n    /*CLASSE*/\n    function setClass(\n        uint8 _id,\n        uint8 rarity,\n        uint8[] memory stats,\n        string memory name\n    ) public onlyOwner {\n        if (_classDetails[_id].valid == false) classCount++;\n        _classDetails[_id] = Classes(rarity, stats, _id, true, name);\n    }\n\n    function removeClass(uint8 _id) public onlyOwner {\n        if (_classDetails[_id].valid == true) classCount--;\n        _classDetails[_id].valid = false;\n    }\n\n    function getClassStatsDetails(uint8 classId)\n        external\n        view\n        returns (uint8[] memory)\n    {\n        return _classDetails[classId].stats;\n    }\n\n    function getClassDetails(uint8 classId)\n        external\n        view\n        returns (Classes memory)\n    {\n        return _classDetails[classId];\n    }\n\n    function getClassCount() external view returns (uint8) {\n        return classCount;\n    }\n\n    /**\n    Rcuprer dans un tableau tout les id token d'un utilisateur\n    */\n    function getAllClass() external view returns (Classes[] memory) {\n        Classes[] memory result = new Classes[](classCount);\n        for (uint8 i = 0; i < classCount; i++) {\n            Classes storage classe = _classDetails[i];\n            result[i] = classe;\n        }\n        return result;\n    }\n    /*function getAllClass() external view returns (uint256[] memory){\n        uint[] memory result = new uint256[](classCount);\n        uint256 resultIndex = 0;\n        for(uint8 i = 0; i < classCount; i++){\n            result[resultIndex] = _classDetails[i].id;\n            resultIndex++;\n        }\n        return result;\n    }*/\n}\n",
  "sourcePath": "/home/kevin/Bureau/homework/MYOS/contracts/Class.sol",
  "compiler": {
    "name": "solc",
    "version": "0.8.0+commit.c7dfd78e.Emscripten.clang"
  },
  "schemaVersion": "3.4.7",
  "updatedAt": "2022-08-04T08:17:24.526Z",
  "devdoc": {
    "kind": "dev",
    "methods": {
      "owner()": {
        "details": "Returns the address of the current owner."
      },
      "renounceOwnership()": {
        "details": "Leaves the contract without owner. It will not be possible to call `onlyOwner` functions anymore. Can only be called by the current owner. NOTE: Renouncing ownership will leave the contract without an owner, thereby removing any functionality that is only available to the owner."
      },
      "transferOwnership(address)": {
        "details": "Transfers ownership of the contract to a new account (`newOwner`). Can only be called by the current owner."
      }
    },
    "version": 1
  },
  "userdoc": {
    "kind": "user",
    "methods": {
      "getAllClass()": {
        "notice": "Rcuprer dans un tableau tout les id token d'un utilisateur"
      }
    },
    "version": 1
  }
}