{
  "contractName": "DelegateContract",
  "abi": [
    {
      "inputs": [
        {
          "internalType": "address",
          "name": "_addressHero",
          "type": "address"
        },
        {
          "internalType": "address",
          "name": "_addressQuest",
          "type": "address"
        },
        {
          "internalType": "address",
          "name": "_addressClass",
          "type": "address"
        },
        {
          "internalType": "address",
          "name": "_addressItem",
          "type": "address"
        }
      ],
      "stateMutability": "nonpayable",
      "type": "constructor"
    },
    {
      "anonymous": false,
      "inputs": [
        {
          "indexed": true,
          "internalType": "address",
          "name": "previousOwner",
          "type": "address"
        },
        {
          "indexed": true,
          "internalType": "address",
          "name": "newOwner",
          "type": "address"
        }
      ],
      "name": "OwnershipTransferred",
      "type": "event"
    },
    {
      "inputs": [],
      "name": "owner",
      "outputs": [
        {
          "internalType": "address",
          "name": "",
          "type": "address"
        }
      ],
      "stateMutability": "view",
      "type": "function"
    },
    {
      "inputs": [
        {
          "internalType": "string",
          "name": "",
          "type": "string"
        }
      ],
      "name": "paramsContract",
      "outputs": [
        {
          "internalType": "uint256",
          "name": "",
          "type": "uint256"
        }
      ],
      "stateMutability": "view",
      "type": "function"
    },
    {
      "inputs": [],
      "name": "renounceOwnership",
      "outputs": [],
      "stateMutability": "nonpayable",
      "type": "function"
    },
    {
      "inputs": [
        {
          "internalType": "address",
          "name": "newOwner",
          "type": "address"
        }
      ],
      "name": "transferOwnership",
      "outputs": [],
      "stateMutability": "nonpayable",
      "type": "function"
    },
    {
      "inputs": [
        {
          "internalType": "address",
          "name": "_by",
          "type": "address"
        },
        {
          "internalType": "string",
          "name": "name",
          "type": "string"
        },
        {
          "internalType": "string",
          "name": "symbol",
          "type": "string"
        }
      ],
      "name": "createGuild",
      "outputs": [],
      "stateMutability": "nonpayable",
      "type": "function"
    },
    {
      "inputs": [
        {
          "internalType": "address",
          "name": "_by",
          "type": "address"
        }
      ],
      "name": "deleteGuild",
      "outputs": [],
      "stateMutability": "nonpayable",
      "type": "function"
    },
    {
      "inputs": [
        {
          "internalType": "address",
          "name": "_by",
          "type": "address"
        }
      ],
      "name": "getOneGuildAddress",
      "outputs": [
        {
          "internalType": "address",
          "name": "",
          "type": "address"
        }
      ],
      "stateMutability": "view",
      "type": "function"
    },
    {
      "inputs": [],
      "name": "getAddressesGuilds",
      "outputs": [
        {
          "internalType": "address[]",
          "name": "",
          "type": "address[]"
        }
      ],
      "stateMutability": "view",
      "type": "function"
    },
    {
      "inputs": [
        {
          "internalType": "address",
          "name": "_addressHero",
          "type": "address"
        }
      ],
      "name": "setaddressHero",
      "outputs": [],
      "stateMutability": "nonpayable",
      "type": "function"
    },
    {
      "inputs": [
        {
          "internalType": "string",
          "name": "key",
          "type": "string"
        },
        {
          "internalType": "uint256",
          "name": "value",
          "type": "uint256"
        }
      ],
      "name": "setParamsContract",
      "outputs": [],
      "stateMutability": "nonpayable",
      "type": "function"
    },
    {
      "inputs": [
        {
          "internalType": "string",
          "name": "key",
          "type": "string"
        }
      ],
      "name": "getParamsContract",
      "outputs": [
        {
          "internalType": "uint256",
          "name": "",
          "type": "uint256"
        }
      ],
      "stateMutability": "view",
      "type": "function"
    },
    {
      "inputs": [
        {
          "internalType": "uint256",
          "name": "value",
          "type": "uint256"
        },
        {
          "internalType": "address",
          "name": "anotherToken",
          "type": "address"
        }
      ],
      "name": "convertToAnotherToken",
      "outputs": [],
      "stateMutability": "nonpayable",
      "type": "function"
    },
    {
      "inputs": [
        {
          "internalType": "uint256",
          "name": "quantity",
          "type": "uint256"
        },
        {
          "internalType": "address",
          "name": "receiver",
          "type": "address"
        },
        {
          "internalType": "uint256",
          "name": "tokenId",
          "type": "uint256"
        }
      ],
      "name": "buyItem",
      "outputs": [],
      "stateMutability": "payable",
      "type": "function"
    },
    {
      "inputs": [
        {
          "internalType": "uint256",
          "name": "quantity",
          "type": "uint256"
        },
        {
          "internalType": "uint256",
          "name": "tokenId",
          "type": "uint256"
        }
      ],
      "name": "sellItem",
      "outputs": [],
      "stateMutability": "nonpayable",
      "type": "function"
    },
    {
      "inputs": [
        {
          "internalType": "uint8",
          "name": "generation",
          "type": "uint8"
        },
        {
          "internalType": "uint8",
          "name": "peuple",
          "type": "uint8"
        },
        {
          "internalType": "string",
          "name": "_tokenUri",
          "type": "string"
        }
      ],
      "name": "mintHero",
      "outputs": [],
      "stateMutability": "payable",
      "type": "function"
    },
    {
      "inputs": [
        {
          "internalType": "uint256",
          "name": "tokenId",
          "type": "uint256"
        },
        {
          "internalType": "uint256",
          "name": "questId",
          "type": "uint256"
        }
      ],
      "name": "startQuest",
      "outputs": [],
      "stateMutability": "nonpayable",
      "type": "function"
    },
    {
      "inputs": [
        {
          "internalType": "uint256",
          "name": "tokenId",
          "type": "uint256"
        }
      ],
      "name": "completeQuest",
      "outputs": [],
      "stateMutability": "nonpayable",
      "type": "function"
    },
    {
      "inputs": [
        {
          "internalType": "uint8",
          "name": "statToLvlUp",
          "type": "uint8"
        },
        {
          "internalType": "uint256",
          "name": "tokenId",
          "type": "uint256"
        }
      ],
      "name": "levelUp",
      "outputs": [],
      "stateMutability": "nonpayable",
      "type": "function"
    },
    {
      "inputs": [],
      "name": "withdraw",
      "outputs": [],
      "stateMutability": "nonpayable",
      "type": "function"
    }
  ],
  "bytecode": "0x60806040523480156200001157600080fd5b5060405162005d5b38038062005d5b83398101604081905262000034916200025e565b6200003f33620001f1565b600180546001600160a01b038087166001600160a01b031992831681179093556002805487831690841617905560038054868316908416179055600480549185169190921617815560405163f26bf0b760e01b815263f26bf0b791620000c091016020808252600690820152651b995e1d125960d21b604082015260600190565b602060405180830381865afa158015620000de573d6000803e3d6000fd5b505050506040513d601f19601f82011682018060405250810190620001049190620002bb565b60408051651b995e1d125960d21b815260056006820181905282519182900360260182209390935564707269636560d81b81528083018390528151908190036025908101822067016345785d8a00009055671d1bdd185b141b9d60c21b8252600882018490528251918290036028018220849055691d1bdad95b931a5b5a5d60b21b8252600a8201849052825191829003602a0182206127109055646e6f6e636560d81b8252818401849052825191829003018120600090556c0657870466f724c6576656c557609c1b8152600d8101929092525190819003602d0190206064905550620002d592505050565b600080546001600160a01b038381166001600160a01b0319831681178455604051919092169283917f8be0079c531659141344cd1fd0a4f28419497f9722a3daafe3b4186f6b6457e09190a35050565b80516001600160a01b03811681146200025957600080fd5b919050565b600080600080608085870312156200027557600080fd5b620002808562000241565b9350620002906020860162000241565b9250620002a06040860162000241565b9150620002b06060860162000241565b905092959194509250565b600060208284031215620002ce57600080fd5b5051919050565b615a7680620002e56000396000f3fe6080604052600436106200012b5760003560e01c80635f9d45d811620000ad578063c3c33b40116200006c578063c3c33b40146200034e578063e9da3a651462000373578063f26bf0b71462000398578063f2fde38b14620003bd578063fa84413a14620003e257600080fd5b80635f9d45d8146200027b578063715018a614620002c65780638da5cb5b14620002de578063ac56c43d1462000312578063b77f02e8146200032957600080fd5b806342c3e35811620000fa57806342c3e35814620001b957806348c6309d14620001de5780634ae243c1146200020e578063528be0a91462000231578063586e2ee4146200025657600080fd5b80630b275db414620001305780632d92356114620001575780633cb11944146200017c5780633ccfd60b14620001a1575b600080fd5b3480156200013d57600080fd5b50620001556200014f366004620022d8565b620003f9565b005b3480156200016457600080fd5b50620001556200017636600462002307565b62000743565b3480156200018957600080fd5b50620001556200019b3660046200246e565b620009bb565b348015620001ae57600080fd5b5062000155620009ec565b348015620001c657600080fd5b5062000155620001d8366004620024cc565b62000a26565b348015620001eb57600080fd5b50620001f662000c70565b604051620002059190620024f3565b60405180910390f35b3480156200021b57600080fd5b50620001556200022d36600462002542565b5050565b3480156200023e57600080fd5b50620001556200025036600462002575565b62000d6a565b3480156200026357600080fd5b5062000155620002753660046200258f565b6200136d565b3480156200028857600080fd5b50620002b76200029a3660046200260d565b805160208183018101805160058252928201919093012091525481565b60405190815260200162000205565b348015620002d357600080fd5b5062000155620014a1565b348015620002eb57600080fd5b506000546001600160a01b03165b6040516001600160a01b03909116815260200162000205565b62000155620003233660046200264d565b620014b9565b3480156200033657600080fd5b50620002f962000348366004620024cc565b620015fb565b3480156200035b57600080fd5b50620001556200036d36600462002307565b62001677565b3480156200038057600080fd5b506200015562000392366004620024cc565b6200195c565b348015620003a557600080fd5b50620002b7620003b73660046200260d565b62001988565b348015620003ca57600080fd5b5062000155620003dc366004620024cc565b620019b2565b62000155620003f336600462002688565b62001a2e565b6001546001600160a01b0316336040516331a9108f60e11b8152600481018490526001600160a01b0391821691831690636352211e90602401602060405180830381865afa15801562000450573d6000803e3d6000fd5b505050506040513d601f19601f82011682018060405250810190620004769190620026e7565b6001600160a01b031614620004a85760405162461bcd60e51b81526004016200049f9062002707565b60405180910390fd5b60405163183c06e560e31b8152600481018390526000906001600160a01b0383169063c1e0372890602401600060405180830381865afa158015620004f1573d6000803e3d6000fd5b505050506040513d6000823e601f3d908101601f191682016040526200051b9190810190620027df565b90508060200151600981518110620005375762000537620028d7565b6020026020010151600560405162000562906c0657870466f724c6576656c557609c1b8152600d0190565b9081526020016040518091039020546200057d919062002a00565b6200058a90606462002a0e565b8160200151600881518110620005a457620005a4620028d7565b602002602001015111620005f45760405162461bcd60e51b8152602060048201526016602482015275195e1c195c9a595b98d9481b9bdd08195b9bdd59da1d60521b60448201526064016200049f565b60058460ff161115620006405760405162461bcd60e51b815260206004820152601360248201527274686973206973206e6f74206120737461747360681b60448201526064016200049f565b8051805160ff86169081106200065a576200065a620028d7565b602002602001018051809190620006719062002a29565b60ff1660ff168152505060008160200151600881518110620006975762000697620028d7565b6020026020010181815250508060200151600981518110620006bd57620006bd620028d7565b602002602001018051809190620006d49062002a4c565b9052506040516338bd885760e21b81526001600160a01b0383169063e2f6215c90620007099084908790339060040162002adc565b600060405180830381600087803b1580156200072457600080fd5b505af115801562000739573d6000803e3d6000fd5b5050505050505050565b60048054604051630398026560e51b81529182018390526001600160a01b03169060009082906373004ca090602401600060405180830381865afa15801562000790573d6000803e3d6000fd5b505050506040513d6000823e601f3d908101601f19168201604052620007ba919081019062002bcb565b60405163f77ee79d60e01b81526004810185905290915084906001600160a01b0384169063f77ee79d90602401602060405180830381865afa15801562000805573d6000803e3d6000fd5b505050506040513d601f19601f820116820180604052508101906200082b919062002c7d565b1015620008705760405162461bcd60e51b815260206004820152601260248201527127379036b7b932903a3434b9903a37b5b2b760711b60448201526064016200049f565b836001600160a01b03831662fdd58e336040516001600160e01b031960e084901b1681526001600160a01b03909116600482015260248101879052604401602060405180830381865afa158015620008cc573d6000803e3d6000fd5b505050506040513d601f19601f82011682018060405250810190620008f2919062002c7d565b1015620009375760405162461bcd60e51b815260206004820152601260248201527127379036b7b932903a3434b9903a37b5b2b760711b60448201526064016200049f565b336001600160a01b03166108fc85836040015162000956919062002c97565b6040518115909202916000818181858888f193505050501580156200097f573d6000803e3d6000fd5b50604051637a94c56560e11b815233600482015260248101849052604481018590526001600160a01b0383169063f5298aca9060640162000709565b620009c562001b9a565b80600583604051620009d8919062002cb9565b908152604051908190036020019020555050565b620009f662001b9a565b60405133904780156108fc02916000818181858888f1935050505015801562000a23573d6000803e3d6000fd5b50565b6001600160a01b038181166000908152600660205260409020541662000a815760405162461bcd60e51b815260206004820152600f60248201526e11dd5a5b19081b9bdd08195e1a5cdd608a1b60448201526064016200049f565b6001600160a01b0381811660009081526006602052604090205416632f54bf6e336040516001600160e01b031960e084901b1681526001600160a01b039091166004820152602401602060405180830381865afa15801562000ae7573d6000803e3d6000fd5b505050506040513d601f19601f8201168201806040525081019062000b0d919062002cd7565b62000b4f5760405162461bcd60e51b8152602060048201526011602482015270125cc81b9bdd081e5bdd5c8819dd5a5b19607a1b60448201526064016200049f565b6001600160a01b038082166000908152600660205260408082205481516341c0e1b560e01b815291519316926341c0e1b59260048084019391929182900301818387803b15801562000ba057600080fd5b505af115801562000bb5573d6000803e3d6000fd5b5050506001600160a01b038083166000908152600660209081526040808320548151635d1ca63160e01b815291519395506007948694911692635d1ca63192600480820193918290030181865afa15801562000c15573d6000803e3d6000fd5b505050506040513d601f19601f8201168201806040525081019062000c3b919062002c7d565b815260200190815260200160002060006101000a8154816001600160a01b0302191690836001600160a01b0316021790555050565b60085460609060009060ff166001600160401b0381111562000c965762000c966200232a565b60405190808252806020026020018201604052801562000cc0578160200160208202803683370190505b5090506000805b60085460ff1681101562000d62576000818152600760205260409020546001600160a01b03161562000d4d5760008181526007602052604090205483516001600160a01b039091169084908490811062000d255762000d25620028d7565b6001600160a01b03909216602092830291909101909101528162000d498162002a4c565b9250505b8062000d598162002a4c565b91505062000cc7565b509092915050565b6001546001600160a01b0316336040516331a9108f60e11b8152600481018490526001600160a01b0391821691831690636352211e90602401602060405180830381865afa15801562000dc1573d6000803e3d6000fd5b505050506040513d601f19601f8201168201806040525081019062000de79190620026e7565b6001600160a01b03161462000e105760405162461bcd60e51b81526004016200049f9062002707565b60405163183c06e560e31b8152600481018390526000906001600160a01b0383169063c1e0372890602401600060405180830381865afa15801562000e59573d6000803e3d6000fd5b505050506040513d6000823e601f3d908101601f1916820160405262000e839190810190620027df565b600254602082015180519293506001600160a01b0390911691600091839163b0f929b09190600390811062000ebc5762000ebc620028d7565b60200260200101516040518263ffffffff1660e01b815260040162000ee391815260200190565b600060405180830381865afa15801562000f01573d6000803e3d6000fd5b505050506040513d6000823e601f3d908101601f1916820160405262000f2b919081019062002d08565b90508060a00151836020015160028151811062000f4c5762000f4c620028d7565b60200260200101514262000f61919062002df0565b1162000fa55760405162461bcd60e51b8152602060048201526012602482015271145d595cdd081b9bdd08199a5b9a5cda195960721b60448201526064016200049f565b6000805b8260400151518160ff16101562001083578451805160ff831690811062000fd45762000fd4620028d7565b602002602001015160ff1683604001518260ff168151811062000ffb5762000ffb620028d7565b602002602001015160ff1611156200106e578451805160ff8316908110620010275762001027620028d7565b602002602001015183604001518260ff16815181106200104b576200104b620028d7565b60200260200101516200105f919062002e0a565b6200106b908362002e30565b91505b806200107a8162002a29565b91505062000fa9565b5060006200109d6200109783606462002e0a565b62001bf6565b60ff169050808560200151600781518110620010bd57620010bd620028d7565b602002602001018181525050826020015160ff16811115620012875760018560200151600681518110620010f557620010f5620028d7565b602002602001018181525050836001600160a01b0316636827822e6040518163ffffffff1660e01b8152600401602060405180830381865afa15801562001140573d6000803e3d6000fd5b505050506040513d601f19601f8201168201806040525081019062001166919062002e58565b8351620011779160ff169062002e78565b61ffff168560200151600881518110620011955762001195620028d7565b60200260200101818151620011ab919062002a0e565b9052506004546001600160a01b031660005b8460600151518110156200127f576001600160a01b03821663156e29f63387606001518481518110620011f457620011f4620028d7565b60209081029190910101516040516001600160e01b031960e085901b1681526001600160a01b03909216600483015260ff16602482015260016044820152606401600060405180830381600087803b1580156200125057600080fd5b505af115801562001265573d6000803e3d6000fd5b505050508080620012769062002a4c565b915050620011bd565b5050620012b0565b60008560200151600681518110620012a357620012a3620028d7565b6020026020010181815250505b428560200151600281518110620012cb57620012cb620028d7565b60200260200101818152505060008560200151600481518110620012f357620012f3620028d7565b60209081029190910101526040516338bd885760e21b81526001600160a01b0387169063e2f6215c90620013309088908b90339060040162002adc565b600060405180830381600087803b1580156200134b57600080fd5b505af115801562001360573d6000803e3d6000fd5b5050505050505050505050565b6001600160a01b038381166000908152600660205260409020541615620013d05760405162461bcd60e51b8152602060048201526016602482015275165bdd48185b1c9958591e481a185d994819dd5a5b1960521b60448201526064016200049f565b8181336000546001600160a01b031660085460405160ff90911690620013f690620022ba565b6200140695949392919062002ed3565b604051809103906000f08015801562001423573d6000803e3d6000fd5b506001600160a01b0380851660008181526006602090815260408083208054969095166001600160a01b0319968716179094556008805460ff90811684526007909252938220805490951690921790935581541691620014838362002a29565b91906101000a81548160ff021916908360ff16021790555050505050565b620014ab62001b9a565b620014b7600062001c0c565b565b60048054604051630398026560e51b81529182018390526001600160a01b03169060009082906373004ca090602401600060405180830381865afa15801562001506573d6000803e3d6000fd5b505050506040513d6000823e601f3d908101601f1916820160405262001530919081019062002bcb565b905084816040015162001544919062002c97565b341015620015895760405162461bcd60e51b8152602060048201526011602482015270135bdc9948115512081c995c5d5a5c9959607a1b60448201526064016200049f565b604051630ab714fb60e11b81526001600160a01b038581166004830152602482018590526044820187905283169063156e29f690606401600060405180830381600087803b158015620015db57600080fd5b505af1158015620015f0573d6000803e3d6000fd5b505050505050505050565b6001600160a01b03818116600090815260066020526040812054909116620016585760405162461bcd60e51b815260206004820152600f60248201526e11dd5a5b19081b9bdd08195e1a5cdd608a1b60448201526064016200049f565b506001600160a01b039081166000908152600660205260409020541690565b6001546001600160a01b0316336040516331a9108f60e11b8152600481018590526001600160a01b0391821691831690636352211e90602401602060405180830381865afa158015620016ce573d6000803e3d6000fd5b505050506040513d601f19601f82011682018060405250810190620016f49190620026e7565b6001600160a01b0316146200171d5760405162461bcd60e51b81526004016200049f9062002707565b600254604051630b0f929b60e41b8152600481018490526001600160a01b0390911690600090829063b0f929b090602401600060405180830381865afa1580156200176c573d6000803e3d6000fd5b505050506040513d6000823e601f3d908101601f1916820160405262001796919081019062002d08565b60405163183c06e560e31b8152600481018790529091506000906001600160a01b0385169063c1e0372890602401600060405180830381865afa158015620017e2573d6000803e3d6000fd5b505050506040513d6000823e601f3d908101601f191682016040526200180c9190810190620027df565b90508060200151600481518110620018285762001828620028d7565b6020026020010151600014620018765760405162461bcd60e51b8152602060048201526012602482015271145d595cdd081b9bdd08199a5b9a5cda195960721b60448201526064016200049f565b428160200151600281518110620018915762001891620028d7565b602002602001018181525050848160200151600381518110620018b857620018b8620028d7565b6020026020010181815250508160a001518160200151600481518110620018e357620018e3620028d7565b60209081029190910101526040516338bd885760e21b81526001600160a01b0385169063e2f6215c90620019209084908a90339060040162002adc565b600060405180830381600087803b1580156200193b57600080fd5b505af115801562001950573d6000803e3d6000fd5b50505050505050505050565b6200196662001b9a565b600180546001600160a01b0319166001600160a01b0392909216919091179055565b60006005826040516200199c919062002cb9565b9081526020016040518091039020549050919050565b620019bc62001b9a565b6001600160a01b03811662001a235760405162461bcd60e51b815260206004820152602660248201527f4f776e61626c653a206e6577206f776e657220697320746865207a65726f206160448201526564647265737360d01b60648201526084016200049f565b62000a238162001c0c565b60405164707269636560d81b8152600590810190815260200160405180910390205434101562001a955760405162461bcd60e51b8152602060048201526011602482015270135bdc9948115512081c995c5d5a5c9959607a1b60448201526064016200049f565b6000600560405162001ab790691d1bdad95b931a5b5a5d60b21b8152600a0190565b9081526020016040518091039020541162001b045760405162461bcd60e51b815260206004820152600c60248201526b4e6f2072656d61696e696e6760a01b60448201526064016200049f565b600062001b118362001c5c565b9050600062001b213486620020d3565b9050600560405162001b3f90651b995e1d125960d21b815260060190565b908152604051908190036020019020805490600062001b5e8362002a4c565b90915550506001546001600160a01b031680639005ba95338585886040518563ffffffff1660e01b815260040162001920949392919062002f29565b6000546001600160a01b03163314620014b75760405162461bcd60e51b815260206004820181905260248201527f4f776e61626c653a2063616c6c6572206973206e6f7420746865206f776e657260448201526064016200049f565b600062001c068260ff16620021fa565b92915050565b600080546001600160a01b038381166001600160a01b0319831681178455604051919092169283917f8be0079c531659141344cd1fd0a4f28419497f9722a3daafe3b4186f6b6457e09190a35050565b6040805160148082526102a08201909252606091600091906020820161028080368337019050506003546040805160a08101825260008082526020820181905260609282018390528282015260808101919091529192506001600160a01b03169060405163323eae4960e01b8152600060048201526001600160a01b0383169063323eae4990602401600060405180830381865afa15801562001d03573d6000803e3d6000fd5b505050506040513d6000823e601f3d908101601f1916820160405262001d2d919081019062002f84565b905060005b826001600160a01b0316630b01ca3b6040518163ffffffff1660e01b8152600401602060405180830381865afa15801562001d71573d6000803e3d6000fd5b505050506040513d601f19601f8201168201806040525081019062001d97919062002e58565b60ff168160ff16101562001ebb5760405163323eae4960e01b815260ff821660048201526001600160a01b0384169063323eae4990602401600060405180830381865afa15801562001ded573d6000803e3d6000fd5b505050506040513d6000823e601f3d908101601f1916820160405262001e17919081019062002f84565b5160ff1662001e27606462001bf6565b60ff16101562001ea65760405163323eae4960e01b815260ff821660048201526001600160a01b0384169063323eae4990602401600060405180830381865afa15801562001e79573d6000803e3d6000fd5b505050506040513d6000823e601f3d908101601f1916820160405262001ea3919081019062002f84565b91505b8062001eb28162002a29565b91505062001d32565b5060408101518051819060009062001ed75762001ed7620028d7565b60200260200101518460008151811062001ef55762001ef5620028d7565b602002602001019060ff16908160ff16815250508060018151811062001f1f5762001f1f620028d7565b60200260200101518460018151811062001f3d5762001f3d620028d7565b602002602001019060ff16908160ff16815250508060028151811062001f675762001f67620028d7565b60200260200101518460028151811062001f855762001f85620028d7565b602002602001019060ff16908160ff16815250508060038151811062001faf5762001faf620028d7565b60200260200101518460038151811062001fcd5762001fcd620028d7565b602002602001019060ff16908160ff16815250508060048151811062001ff75762001ff7620028d7565b602002602001015184600481518110620020155762002015620028d7565b602002602001019060ff16908160ff1681525050806005815181106200203f576200203f620028d7565b6020026020010151846005815181106200205d576200205d620028d7565b602002602001019060ff16908160ff16815250508584600881518110620020885762002088620028d7565b602002602001019060ff16908160ff1681525050816020015184600981518110620020b757620020b7620028d7565b60ff909216602092830291909101909101525091949350505050565b6040805160148082526102a082019092526060916000919060208201610280803683370190505090504281600081518110620021135762002113620028d7565b6020026020010181815250508381600181518110620021365762002136620028d7565b6020026020010181815250504281600281518110620021595762002159620028d7565b6020908102919091010152604051651b995e1d125960d21b8152600590600601908152602001604051809103902054816006815181106200219e576200219e620028d7565b6020026020010181815250508260ff1681600781518110620021c457620021c4620028d7565b602002602001018181525050600181600981518110620021e857620021e8620028d7565b60209081029190910101529392505050565b60408051646e6f6e636560d81b81526005808201528151908190036025018120544260208301526bffffffffffffffffffffffff193360601b16928201929092526054810191909152600090819083906074016040516020818303038152906040528051906020012060001c6200227291906200305c565b905060056040516200228f90646e6f6e636560d81b815260050190565b9081526040519081900360200190208054906000620022ae8362002a4c565b90915550909392505050565b6129c1806200308083390190565b60ff8116811462000a2357600080fd5b60008060408385031215620022ec57600080fd5b8235620022f981620022c8565b946020939093013593505050565b600080604083850312156200231b57600080fd5b50508035926020909101359150565b634e487b7160e01b600052604160045260246000fd5b604080519081016001600160401b03811182821017156200236557620023656200232a565b60405290565b60405160e081016001600160401b03811182821017156200236557620023656200232a565b60405160a081016001600160401b03811182821017156200236557620023656200232a565b604051601f8201601f191681016001600160401b0381118282101715620023e057620023e06200232a565b604052919050565b60006001600160401b038211156200240457620024046200232a565b50601f01601f191660200190565b600082601f8301126200242457600080fd5b81356200243b6200243582620023e8565b620023b5565b8181528460208386010111156200245157600080fd5b816020850160208301376000918101602001919091529392505050565b600080604083850312156200248257600080fd5b82356001600160401b038111156200249957600080fd5b620024a78582860162002412565b95602094909401359450505050565b6001600160a01b038116811462000a2357600080fd5b600060208284031215620024df57600080fd5b8135620024ec81620024b6565b9392505050565b6020808252825182820181905260009190848201906040850190845b81811015620025365783516001600160a01b0316835292840192918401916001016200250f565b50909695505050505050565b600080604083850312156200255657600080fd5b8235915060208301356200256a81620024b6565b809150509250929050565b6000602082840312156200258857600080fd5b5035919050565b600080600060608486031215620025a557600080fd5b8335620025b281620024b6565b925060208401356001600160401b0380821115620025cf57600080fd5b620025dd8783880162002412565b93506040860135915080821115620025f457600080fd5b50620026038682870162002412565b9150509250925092565b6000602082840312156200262057600080fd5b81356001600160401b038111156200263757600080fd5b620026458482850162002412565b949350505050565b6000806000606084860312156200266357600080fd5b8335925060208401356200267781620024b6565b929592945050506040919091013590565b6000806000606084860312156200269e57600080fd5b8335620026ab81620022c8565b92506020840135620026bd81620022c8565b915060408401356001600160401b03811115620026d957600080fd5b620026038682870162002412565b600060208284031215620026fa57600080fd5b8151620024ec81620024b6565b6020808252600e908201526d2737ba103cb7bab9103a37b5b2b760911b604082015260600190565b60006001600160401b038211156200274b576200274b6200232a565b5060051b60200190565b80516200276281620022c8565b919050565b600082601f8301126200277957600080fd5b815160206200278c62002435836200272f565b82815260059290921b84018101918181019086841115620027ac57600080fd5b8286015b84811015620027d4578051620027c681620022c8565b8352918301918301620027b0565b509695505050505050565b60006020808385031215620027f357600080fd5b82516001600160401b03808211156200280b57600080fd5b90840190604082870312156200282057600080fd5b6200282a62002340565b8251828111156200283a57600080fd5b620028488882860162002767565b82525083830151828111156200285d57600080fd5b80840193505086601f8401126200287357600080fd5b825191506200288662002435836200272f565b82815260059290921b83018401918481019088841115620028a657600080fd5b938501935b83851015620028c657845182529385019390850190620028ab565b948201949094529695505050505050565b634e487b7160e01b600052603260045260246000fd5b634e487b7160e01b600052601160045260246000fd5b600181815b8085111562002944578160001904821115620029285762002928620028ed565b808516156200293657918102915b93841c939080029062002908565b509250929050565b6000826200295d5750600162001c06565b816200296c5750600062001c06565b81600181146200298557600281146200299057620029b0565b600191505062001c06565b60ff841115620029a457620029a4620028ed565b50506001821b62001c06565b5060208310610133831016604e8410600b8410161715620029d5575081810a62001c06565b620029e1838362002903565b8060001904821115620029f857620029f8620028ed565b029392505050565b6000620024ec83836200294c565b6000821982111562002a245762002a24620028ed565b500190565b600060ff821660ff81141562002a435762002a43620028ed565b60010192915050565b600060001982141562002a635762002a63620028ed565b5060010190565b600081518084526020808501945080840160005b8381101562002a9f57815160ff168752958201959082019060010162002a7e565b509495945050505050565b600081518084526020808501945080840160005b8381101562002a9f5781518752958201959082019060010162002abe565b60608152600084516040606084015262002afa60a084018262002a6a565b90506020860151605f1984830301608085015262002b19828262002aaa565b60208501969096525050506001600160a01b0391909116604090910152919050565b60005b8381101562002b5857818101518382015260200162002b3e565b8381111562002b68576000848401525b50505050565b600082601f83011262002b8057600080fd5b815162002b916200243582620023e8565b81815284602083860101111562002ba757600080fd5b6200264582602083016020870162002b3b565b805180151581146200276257600080fd5b60006020828403121562002bde57600080fd5b81516001600160401b038082111562002bf657600080fd5b908301906080828603121562002c0b57600080fd5b60405160808101818110838211171562002c295762002c296200232a565b60405282518281111562002c3c57600080fd5b62002c4a8782860162002b6e565b825250602083015160208201526040830151604082015262002c6f6060840162002bba565b606082015295945050505050565b60006020828403121562002c9057600080fd5b5051919050565b600081600019048311821515161562002cb45762002cb4620028ed565b500290565b6000825162002ccd81846020870162002b3b565b9190910192915050565b60006020828403121562002cea57600080fd5b620024ec8262002bba565b805161ffff811681146200276257600080fd5b60006020828403121562002d1b57600080fd5b81516001600160401b038082111562002d3357600080fd5b9083019060e0828603121562002d4857600080fd5b62002d526200236b565b62002d5d8362002cf5565b815262002d6d6020840162002755565b602082015260408301518281111562002d8557600080fd5b62002d938782860162002767565b60408301525060608301518281111562002dac57600080fd5b62002dba8782860162002767565b6060830152506080830151608082015260a083015160a082015262002de260c0840162002bba565b60c082015295945050505050565b60008282101562002e055762002e05620028ed565b500390565b600060ff821660ff84168082101562002e275762002e27620028ed565b90039392505050565b600060ff821660ff84168060ff0382111562002e505762002e50620028ed565b019392505050565b60006020828403121562002e6b57600080fd5b8151620024ec81620022c8565b600061ffff8083168185168183048111821515161562002e9c5762002e9c620028ed565b02949350505050565b6000815180845262002ebf81602086016020860162002b3b565b601f01601f19169290920160200192915050565b60a08152600062002ee860a083018862002ea5565b828103602084015262002efc818862002ea5565b6001600160a01b0396871660408501529490951660608301525060ff919091166080909101529392505050565b6001600160a01b038516815260806020820181905260009062002f4f9083018662002a6a565b828103604084015262002f63818662002aaa565b9050828103606084015262002f79818562002ea5565b979650505050505050565b60006020828403121562002f9757600080fd5b81516001600160401b038082111562002faf57600080fd5b9083019060a0828603121562002fc457600080fd5b62002fce62002390565b825162002fdb81620022c8565b8152602083015162002fed81620022c8565b60208201526040830151828111156200300557600080fd5b620030138782860162002767565b604083015250620030276060840162002bba565b60608201526080830151828111156200303f57600080fd5b6200304d8782860162002b6e565b60808301525095945050505050565b6000826200307a57634e487b7160e01b600052601260045260246000fd5b50069056fe60806040523480156200001157600080fd5b50604051620029c1380380620029c183398101604081905262000034916200022e565b8451859085906200004d906003906020850190620000a2565b50805162000063906004906020840190620000a2565b5050600c80546001600160a01b039586166001600160a01b031991821617909155600d80549490951693169290921790925550600855506200030b9050565b828054620000b090620002ce565b90600052602060002090601f016020900481019282620000d457600085556200011f565b82601f10620000ef57805160ff19168380011785556200011f565b828001600101855582156200011f579182015b828111156200011f57825182559160200191906001019062000102565b506200012d92915062000131565b5090565b5b808211156200012d576000815560010162000132565b634e487b7160e01b600052604160045260246000fd5b600082601f8301126200017057600080fd5b81516001600160401b03808211156200018d576200018d62000148565b604051601f8301601f19908116603f01168101908282118183101715620001b857620001b862000148565b81604052838152602092508683858801011115620001d557600080fd5b600091505b83821015620001f95785820183015181830184015290820190620001da565b838211156200020b5760008385830101525b9695505050505050565b6001600160a01b03811681146200022b57600080fd5b50565b600080600080600060a086880312156200024757600080fd5b85516001600160401b03808211156200025f57600080fd5b6200026d89838a016200015e565b965060208801519150808211156200028457600080fd5b5062000293888289016200015e565b9450506040860151620002a68162000215565b6060870151909350620002b98162000215565b80925050608086015190509295509295909350565b600181811c90821680620002e357607f821691505b602082108114156200030557634e487b7160e01b600052602260045260246000fd5b50919050565b6126a6806200031b6000396000f3fe6080604052600436106101b75760003560e01c806372a2377f116100ec578063c7f067441161008a578063cd9f092111610064578063cd9f0921146104f6578063dd62ed3e146104fe578063f798e5251461051e578063fd0232b21461053e57600080fd5b8063c7f0674414610489578063ca6d56dc146104a9578063ccf25b4d146104c957600080fd5b806399103d1f116100c657806399103d1f14610409578063a457c2d714610429578063a9059cbb14610449578063aa887bb61461046957600080fd5b806372a2377f146103b25780637c0f6b35146103d257806395d89b41146103f457600080fd5b8063405664881161015957806355f6e5071161013357806355f6e5071461031a5780635d1ca631146103475780636586737a1461035c57806370a082311461037c57600080fd5b806340566488146102c157806341c0e1b5146102e357806344a96ce0146102fa57600080fd5b806323b872dd1161019557806323b872dd146102365780632f54bf6e14610256578063313ce5671461028557806339509351146102a157600080fd5b806306fdde03146101bc578063095ea7b3146101e757806318160ddd14610217575b600080fd5b3480156101c857600080fd5b506101d161056b565b6040516101de9190611fdd565b60405180910390f35b3480156101f357600080fd5b50610207610202366004612013565b6105fd565b60405190151581526020016101de565b34801561022357600080fd5b506002545b6040519081526020016101de565b34801561024257600080fd5b5061020761025136600461203d565b610617565b34801561026257600080fd5b50610207610271366004612079565b600c546001600160a01b0391821691161490565b34801561029157600080fd5b50604051601281526020016101de565b3480156102ad57600080fd5b506102076102bc366004612013565b61063b565b3480156102cd57600080fd5b506102d661065d565b6040516101de91906120cf565b3480156102ef57600080fd5b506102f8610855565b005b34801561030657600080fd5b506102f8610315366004612141565b6108bd565b34801561032657600080fd5b5061033a610335366004612079565b61092d565b6040516101de91906121a8565b34801561035357600080fd5b50600854610228565b34801561036857600080fd5b506102f8610377366004612259565b6109f7565b34801561038857600080fd5b50610228610397366004612079565b6001600160a01b031660009081526020819052604090205490565b3480156103be57600080fd5b506102f86103cd36600461228e565b610a92565b3480156103de57600080fd5b506103e7610beb565b6040516101de91906122a7565b34801561040057600080fd5b506101d1610d4c565b34801561041557600080fd5b506102f8610424366004612306565b610d5b565b34801561043557600080fd5b50610207610444366004612013565b610f92565b34801561045557600080fd5b50610207610464366004612013565b61100d565b34801561047557600080fd5b506102f8610484366004612079565b61101b565b34801561049557600080fd5b506102f86104a436600461228e565b611284565b3480156104b557600080fd5b506102f86104c4366004612079565b611391565b3480156104d557600080fd5b506104e96104e43660046123db565b6115de565b6040516101de91906123f6565b6102f861176b565b34801561050a57600080fd5b50610228610519366004612494565b61180e565b34801561052a57600080fd5b506102f86105393660046124c7565b611839565b34801561054a57600080fd5b5061055e61055936600461228e565b611a87565b6040516101de91906124f1565b60606003805461057a90612504565b80601f01602080910402602001604051908101604052809291908181526020018280546105a690612504565b80156105f35780601f106105c8576101008083540402835291602001916105f3565b820191906000526020600020905b8154815290600101906020018083116105d657829003601f168201915b5050505050905090565b60003361060b818585611b56565b60019150505b92915050565b600033610625858285611c7a565b610630858585611cf4565b506001949350505050565b60003361060b81858561064e838361180e565b610658919061254f565b611b56565b6060600b54600014156106b55760408051600080825260208201909252906106af565b604080516060808201835260008083526020830152918101919091528152602001906001900390816106805790505b50905090565b6000600b5467ffffffffffffffff8111156106d2576106d26121b6565b60405190808252806020026020018201604052801561071f57816020015b604080516060808201835260008083526020830152918101919091528152602001906001900390816106f05790505b50905060005b600b5481101561084f5760008181526007602052604090205460ff1615156001141561083d576000818152600760209081526040918290208251606081018452815460ff81161515825261010090046001600160a01b03169281019290925260018101805491938492908401919061079c90612504565b80601f01602080910402602001604051908101604052809291908181526020018280546107c890612504565b80156108155780601f106107ea57610100808354040283529160200191610815565b820191906000526020600020905b8154815290600101906020018083116107f857829003601f168201915b50505050508152505083838151811061083057610830612567565b6020026020010181905250505b806108478161257d565b915050610725565b50919050565b600c546001600160a01b0316336001600160a01b0316148061088a5750600d546001600160a01b0316336001600160a01b0316145b6108af5760405162461bcd60e51b81526004016108a690612598565b60405180910390fd5b600c546001600160a01b0316ff5b600c546001600160a01b0316336001600160a01b031614806108f25750600d546001600160a01b0316336001600160a01b0316145b61090e5760405162461bcd60e51b81526004016108a690612598565b6000908152600660205260409020805460ff1916911515919091179055565b610935611ec2565b61093d611ec2565b60005b600a548110156109f0576000818152600660205260409020600401546001600160a01b03858116911614156109de57600081815260066020908152604091829020825160c081018452815460ff8082161515835261010090910416928101929092526001810154928201929092526002820154606082015260038201546001600160a01b03908116608083015260049092015490911660a082015291505b806109e88161257d565b915050610940565b5092915050565b604080516060810182526001808252336020808401918252838501868152600b54600090815260078352959095208451815493516001600160a81b0319909416901515610100600160a81b031916176101006001600160a01b03909416939093029290921782559351805193949193610a77938501929190910190611ef7565b5050600b805491506000610a8a8361257d565b919050555050565b60008181526007602052604090205460ff161515600114610af55760405162461bcd60e51b815260206004820181905260248201527f5468697320696e7669746174696f6e206973206e6f206d6f72652076616c696460448201526064016108a6565b6000805b600a54811015610b3b576000818152600660205260409020600401546001600160a01b0316331415610b29578091505b80610b338161257d565b915050610af9565b506000828152600760205260409020546001600160a01b0361010090910416331480610bb6575060008181526006602052604090205460ff1615156001148015610bb6575060008181526006602090815260408083205460ff6101009091048116845260059092529091205464010000000090041615156001145b610bd25760405162461bcd60e51b81526004016108a6906125c0565b506000908152600760205260409020805460ff19169055565b6060600a5460001415610c2e5760408051600080825260208201909252906106af565b610c16611ec2565b815260200190600190039081610c0e57905050905090565b6000600a5467ffffffffffffffff811115610c4b57610c4b6121b6565b604051908082528060200260200182016040528015610c8457816020015b610c71611ec2565b815260200190600190039081610c695790505b50905060005b600a5481101561084f5760008181526006602052604090205460ff16151560011415610d3a57600081815260066020908152604091829020825160c081018452815460ff8082161515835261010090910416928101929092526001810154928201929092526002820154606082015260038201546001600160a01b03908116608083015260048301541660a08201528351849084908110610d2d57610d2d612567565b6020026020010181905250505b80610d448161257d565b915050610c8a565b60606004805461057a90612504565b600c546001600160a01b0316336001600160a01b03161480610d905750600d546001600160a01b0316336001600160a01b0316145b610dac5760405162461bcd60e51b81526004016108a690612598565b60008a60ff16118015610dc25750600a8a60ff16105b610dfd5760405162461bcd60e51b815260206004820152600c60248201526b06260408ee4c2c8ca409ac2f60a31b60448201526064016108a6565b6040518061012001604052808a15158152602001891515815260200188151581526020018715158152602001861515815260200185151581526020018415158152602001831515815260200182815250600560008c60ff1660ff16815260200190815260200160002060008201518160000160006101000a81548160ff02191690831515021790555060208201518160000160016101000a81548160ff02191690831515021790555060408201518160000160026101000a81548160ff02191690831515021790555060608201518160000160036101000a81548160ff02191690831515021790555060808201518160000160046101000a81548160ff02191690831515021790555060a08201518160000160056101000a81548160ff02191690831515021790555060c08201518160000160066101000a81548160ff02191690831515021790555060e08201518160000160076101000a81548160ff021916908315150217905550610100820151816001019080519060200190610f83929190611ef7565b50505050505050505050505050565b60003381610fa0828661180e565b9050838110156110005760405162461bcd60e51b815260206004820152602560248201527f45524332303a2064656372656173656420616c6c6f77616e63652062656c6f77604482015264207a65726f60d81b60648201526084016108a6565b6106308286868403611b56565b60003361060b818585611cf4565b60008060005b600a5481101561108c576000818152600660205260409020600401546001600160a01b0316331415611051578092505b6000818152600660205260409020600401546001600160a01b038581169116141561107a578091505b806110848161257d565b915050611021565b5060008281526006602090815260408083205460ff610100909104811684526005909252909120546401000000009004161515600114806110e05750600c546001600160a01b0316336001600160a01b0316145b806110fe5750600d546001600160a01b0316336001600160a01b0316145b61111a5760405162461bcd60e51b81526004016108a690612602565b6000818152600660205260408082205484835291205460ff6101009283900481169290910416118061115f5750600c546001600160a01b0316336001600160a01b0316145b8061117d5750600d546001600160a01b0316336001600160a01b0316145b6111c95760405162461bcd60e51b815260206004820152601c60248201527f596f75722072616e6b206973206e6f74206869676820656e6f7567680000000060448201526064016108a6565b60008181526006602052604090205460ff16151560011480156111ff575060008281526006602052604090205460ff1615156001145b61121b5760405162461bcd60e51b81526004016108a690612648565b600081815260066020526040808220600481015460029091015491516001600160a01b039091169282156108fc02929190818181858888f19350505050158015611269573d6000803e3d6000fd5b506000908152600660205260409020805460ff191690555050565b6000805b600a548110156112ca576000818152600660205260409020600401546001600160a01b03163314156112b8578091505b806112c28161257d565b915050611288565b5060008181526006602052604090205460ff1615156001146112fe5760405162461bcd60e51b81526004016108a690612648565b60008181526006602052604090206002015482111561135f5760405162461bcd60e51b815260206004820152601a60248201527f4e6f7420656e6f7567746820657468657220696e20636865737400000000000060448201526064016108a6565b604051339083156108fc029084906000818181858888f1935050505015801561138c573d6000803e3d6000fd5b505050565b60008060005b600a548110156113d9576000818152600660205260409020600401546001600160a01b03163314156113c7578092505b806113d18161257d565b915050611397565b5060005b600b54811015611424576000818152600760205260409020546001600160a01b03858116610100909204161415611412578091505b8061141c8161257d565b9150506113dd565b5060008181526006602052604090205460ff1615156001146114795760405162461bcd60e51b815260206004820152600e60248201526d155cd95c881b9bdd081d985b1a5960921b60448201526064016108a6565b60008281526006602052604090205460ff16151560011480156114cc575060008281526006602090815260408083205460ff61010090910481168452600590925290912054630100000090041615156001145b6114e85760405162461bcd60e51b81526004016108a6906125c0565b6040518060c00160405280600015158152602001600060ff1681526020014281526020016000815260200161151a3390565b6001600160a01b039081168252858116602092830152600980546000908152600684526040808220865181549688015160ff166101000261ff00199115159190911661ffff19909716969096179590951785558581015160018601556060860151600286015560808601516003860180549186166001600160a01b031992831617905560a09096015160049095018054959094169490951693909317909155838252918120805460ff19169055815491906115d48361257d565b9190505550505050565b604080516101208101825260008082526020820181905291810182905260608082018390526080820183905260a0820183905260c0820183905260e082019290925261010081019190915260ff808316600090815260056020908152604091829020825161012081018452815480861615158252610100808204871615159483019490945262010000810486161515948201949094526301000000840485161515606082015264010000000084048516151560808201526501000000000084048516151560a0820152660100000000000084048516151560c0820152600160381b909304909316151560e0830152600183018054929392918401916116e290612504565b80601f016020809104026020016040519081016040528092919081815260200182805461170e90612504565b801561175b5780601f106117305761010080835404028352916020019161175b565b820191906000526020600020905b81548152906001019060200180831161173e57829003601f168201915b5050505050815250509050919050565b6000805b600a548110156117b1576000818152600660205260409020600401546001600160a01b031633141561179f578091505b806117a98161257d565b91505061176f565b5060008181526006602052604090205460ff1615156001146117e55760405162461bcd60e51b81526004016108a690612648565b6000818152600660205260408120600201805434929061180690849061254f565b909155505050565b6001600160a01b03918216600090815260016020908152604080832093909416825291909152205490565b60008060005b600a548110156118aa576000818152600660205260409020600401546001600160a01b031633141561186f578092505b6000818152600660205260409020600401546001600160a01b0386811691161415611898578091505b806118a28161257d565b91505061183f565b5060008281526006602090815260408083205460ff61010090910481168452600590925290912054600160381b9004161515600114806118fd5750600c546001600160a01b0316336001600160a01b0316145b8061191b5750600d546001600160a01b0316336001600160a01b0316145b6119375760405162461bcd60e51b81526004016108a690612602565b60008281526006602052604090205460ff808516610100909204161080159061198357506000818152600660205260408082205484835291205460ff6101009283900481169290910416115b806119a15750600c546001600160a01b0316336001600160a01b0316145b806119bf5750600d546001600160a01b0316336001600160a01b0316145b611a0b5760405162461bcd60e51b815260206004820152601c60248201527f596f75722072616e6b206973206e6f74206869676820656e6f7567680000000060448201526064016108a6565b60008181526006602052604090205460ff1615156001148015611a41575060008281526006602052604090205460ff1615156001145b611a5d5760405162461bcd60e51b81526004016108a690612648565b506000908152600660205260409020805460ff9092166101000261ff001990921691909117905550565b6040805160608082018352600080835260208301529181019190915260008281526007602052604090205460ff161515600114611b065760405162461bcd60e51b815260206004820181905260248201527f5468697320696e7669746174696f6e206973206e6f206d6f72652076616c696460448201526064016108a6565b6000828152600760209081526040918290208251606081018452815460ff81161515825261010090046001600160a01b03169281019290925260018101805492939192918401916116e290612504565b6001600160a01b038316611bb85760405162461bcd60e51b8152602060048201526024808201527f45524332303a20617070726f76652066726f6d20746865207a65726f206164646044820152637265737360e01b60648201526084016108a6565b6001600160a01b038216611c195760405162461bcd60e51b815260206004820152602260248201527f45524332303a20617070726f766520746f20746865207a65726f206164647265604482015261737360f01b60648201526084016108a6565b6001600160a01b0383811660008181526001602090815260408083209487168084529482529182902085905590518481527f8c5be1e5ebec7d5bd14f71427d1e84f3dd0314c0f7b2291e5b200ac8c7c3b925910160405180910390a3505050565b6000611c86848461180e565b90506000198114611cee5781811015611ce15760405162461bcd60e51b815260206004820152601d60248201527f45524332303a20696e73756666696369656e7420616c6c6f77616e636500000060448201526064016108a6565b611cee8484848403611b56565b50505050565b6001600160a01b038316611d585760405162461bcd60e51b815260206004820152602560248201527f45524332303a207472616e736665722066726f6d20746865207a65726f206164604482015264647265737360d81b60648201526084016108a6565b6001600160a01b038216611dba5760405162461bcd60e51b815260206004820152602360248201527f45524332303a207472616e7366657220746f20746865207a65726f206164647260448201526265737360e81b60648201526084016108a6565b6001600160a01b03831660009081526020819052604090205481811015611e325760405162461bcd60e51b815260206004820152602660248201527f45524332303a207472616e7366657220616d6f756e7420657863656564732062604482015265616c616e636560d01b60648201526084016108a6565b6001600160a01b03808516600090815260208190526040808220858503905591851681529081208054849290611e6990849061254f565b92505081905550826001600160a01b0316846001600160a01b03167fddf252ad1be2c89b69c2b068fc378daa952ba7f163c4a11628f55a4df523b3ef84604051611eb591815260200190565b60405180910390a3611cee565b6040805160c081018252600080825260208201819052918101829052606081018290526080810182905260a081019190915290565b828054611f0390612504565b90600052602060002090601f016020900481019282611f255760008555611f6b565b82601f10611f3e57805160ff1916838001178555611f6b565b82800160010185558215611f6b579182015b82811115611f6b578251825591602001919060010190611f50565b50611f77929150611f7b565b5090565b5b80821115611f775760008155600101611f7c565b6000815180845260005b81811015611fb657602081850181015186830182015201611f9a565b81811115611fc8576000602083870101525b50601f01601f19169290920160200192915050565b602081526000611ff06020830184611f90565b9392505050565b80356001600160a01b038116811461200e57600080fd5b919050565b6000806040838503121561202657600080fd5b61202f83611ff7565b946020939093013593505050565b60008060006060848603121561205257600080fd5b61205b84611ff7565b925061206960208501611ff7565b9150604084013590509250925092565b60006020828403121561208b57600080fd5b611ff082611ff7565b80511515825260018060a01b03602082015116602083015260006040820151606060408501526120c76060850182611f90565b949350505050565b6000602080830181845280855180835260408601915060408160051b870101925083870160005b8281101561212457603f19888603018452612112858351612094565b945092850192908501906001016120f6565b5092979650505050505050565b8035801515811461200e57600080fd5b6000806040838503121561215457600080fd5b61202f83612131565b80511515825260208082015160ff169083015260408082015190830152606080820151908301526080808201516001600160a01b039081169184019190915260a09182015116910152565b60c08101610611828461215d565b634e487b7160e01b600052604160045260246000fd5b600082601f8301126121dd57600080fd5b813567ffffffffffffffff808211156121f8576121f86121b6565b604051601f8301601f19908116603f01168101908282118183101715612220576122206121b6565b8160405283815286602085880101111561223957600080fd5b836020870160208301376000602085830101528094505050505092915050565b60006020828403121561226b57600080fd5b813567ffffffffffffffff81111561228257600080fd5b6120c7848285016121cc565b6000602082840312156122a057600080fd5b5035919050565b6020808252825182820181905260009190848201906040850190845b818110156122e9576122d683855161215d565b9284019260c092909201916001016122c3565b50909695505050505050565b803560ff8116811461200e57600080fd5b6000806000806000806000806000806101408b8d03121561232657600080fd5b61232f8b6122f5565b995061233d60208c01612131565b985061234b60408c01612131565b975061235960608c01612131565b965061236760808c01612131565b955061237560a08c01612131565b945061238360c08c01612131565b935061239160e08c01612131565b92506123a06101008c01612131565b91506101208b013567ffffffffffffffff8111156123bd57600080fd5b6123c98d828e016121cc565b9150509295989b9194979a5092959850565b6000602082840312156123ed57600080fd5b611ff0826122f5565b6020815261240960208201835115159052565b6000602083015161241e604084018215159052565b5060408301518015156060840152506060830151801515608084015250608083015180151560a08401525060a083015180151560c08401525060c083015180151560e08401525060e083015161010061247a8185018315159052565b8401516101208481015290506120c7610140840182611f90565b600080604083850312156124a757600080fd5b6124b083611ff7565b91506124be60208401611ff7565b90509250929050565b600080604083850312156124da57600080fd5b6124e383611ff7565b91506124be602084016122f5565b602081526000611ff06020830184612094565b600181811c9082168061251857607f821691505b6020821081141561084f57634e487b7160e01b600052602260045260246000fd5b634e487b7160e01b600052601160045260246000fd5b6000821982111561256257612562612539565b500190565b634e487b7160e01b600052603260045260246000fd5b600060001982141561259157612591612539565b5060010190565b6020808252600e908201526d139bdd081e5bdd5c8819dd5a5b1960921b604082015260600190565b60208082526022908201527f596f757220617265206e6f7420617574686f72697a656420746f20646f207468604082015261697360f01b606082015260800190565b60208082526026908201527f596f75722072616e6b20646f6573206e6f7420617574686f72697a6520757067604082015265726164696e6760d01b606082015260800190565b6020808252600e908201526d2737ba103b30b634b2103ab9b2b960911b60408201526060019056fea264697066735822122047e9e1eca396281429147ecaea0b3bcbe646fce5f4ed38546cf85ebfd8f4be6664736f6c634300080b0033a2646970667358221220489b39e80fe059c59ae47f38c7c3952f1a5e6b604593b9b16dcf09797b19d64f64736f6c634300080b0033",
  "immutableReferences": {},
  "source": "// SPDX-License-Identifier: MIT\r\n// Delegation contract\r\npragma solidity ^0.8.0;\r\n\r\nimport \"@openzeppelin/contracts/access/Ownable.sol\";\r\nimport \"./Items.sol\";\r\nimport \"./Guild.sol\";\r\nimport \"./Class.sol\";\r\nimport \"./Quest.sol\";\r\nimport \"./Hero.sol\";\r\n\r\nimport \"./library/LClass.sol\";\r\n\r\nimport \"./interfaces/IDelegateContract.sol\";\r\n\r\n//enum Numbers {strong,endurance,concentration,agility,charisma,stealth,exp,level,peuple,classe}\r\n\r\ncontract DelegateContract is Ownable, IDelegateContract {\r\n  constructor(\r\n    address _addressHero,\r\n    address _addressQuest,\r\n    address _addressClass,\r\n    address _addressItem\r\n  ) {\r\n    addressHero = _addressHero;\r\n    addressQuest = _addressQuest;\r\n    addressClass = _addressClass;\r\n    addressItem = _addressItem;\r\n    paramsContract[\"nextId\"] = Hero(addressHero).getParamsContract(\"nextId\");\r\n    paramsContract[\"price\"] = 100000000000000000; //dev:100000000000000000000 == 100 eth\r\n    paramsContract[\"totalPnt\"] = 5;\r\n    paramsContract[\"tokenLimit\"] = 10000;\r\n    paramsContract[\"nonce\"] = 0;\r\n    paramsContract[\"expForLevelUp\"] = 100;\r\n  }\r\n\r\n  address private addressHero;\r\n  address private addressQuest;\r\n  address private addressClass;\r\n  address private addressItem;\r\n  mapping(string => uint256) public paramsContract;\r\n  mapping(address => Guild) private guilds; //address = creator\r\n  mapping(uint256 => address) private addressGuilds; //address = creator\r\n  uint8 private countGuilds;\r\n\r\n  ///@notice Create a guild by also deleting its contract\r\n  ///@param _by user for found addresses of your contract by creator mapping\r\n  ///@param name name of your created contract\r\n  ///@param symbol name of your created contract\r\n  function createGuild(address _by, string memory name, string memory symbol) external {\r\n    require(address(guilds[_by]) == address(0), \"You already have guild\");\r\n    guilds[_by] = new Guild(name, symbol, payable(_msgSender()), owner(), countGuilds);\r\n    addressGuilds[countGuilds] = _by;\r\n    countGuilds++;\r\n  }\r\n\r\n  ///@notice Deleted a guild by also deleting its contract\r\n  ///@dev ATTENTION, the totality of the ether contained above atters to the creator of the contract\r\n  ///@param _by user for found addresses of your contract by creator mapping\r\n  function deleteGuild(address _by) external {\r\n    require(address(guilds[_by]) != address(0), \"Guild not exist\");\r\n    require(guilds[_by].isOwner(_msgSender()), \"Is not your guild\");\r\n    guilds[_by].kill();\r\n    addressGuilds[guilds[_by].getId()] = address(0);\r\n  }\r\n\r\n  ///@notice return one guild by address creator\r\n  ///@param _by user for found addresses of your contract by creator mapping\r\n  ///@return addressContract address of the contract guild\r\n  function getOneGuildAddress(address _by) external view returns (address) {\r\n    require(address(guilds[_by]) != address(0), \"Guild not exist\");\r\n    return address(guilds[_by]);\r\n  }\r\n\r\n  ///@notice return all guilds addresses\r\n  ///@return return an array of address for all guilds created\r\n  function getAddressesGuilds() external view returns (address[] memory) {\r\n    address[] memory result = new address[](countGuilds);\r\n    uint256 resultIndex = 0;\r\n    uint256 i;\r\n    for (i = 0; i < countGuilds; i++) {\r\n      if (addressGuilds[i] != address(0)) {\r\n        result[resultIndex] = addressGuilds[i];\r\n        resultIndex++;\r\n      }\r\n    }\r\n    return result;\r\n  }\r\n\r\n  ///@notice Update the destination address of the official contract hero so that the delegation contract can access it\r\n  ///@param _addressHero address of contract hero\r\n  function setaddressHero(address _addressHero) external onlyOwner {\r\n    addressHero = _addressHero;\r\n  }\r\n\r\n  ///@notice Update a parameter of contract\r\n  ///@param key key index of params contract you want set\r\n  ///@param value value of params contract you want set\r\n  function setParamsContract(string memory key, uint256 value) external onlyOwner {\r\n    paramsContract[key] = value;\r\n  }\r\n\r\n  ///@notice Return a parameter of contract by key index\r\n  ///@param key key index of param your want to return\r\n  ///@return param value of parameter contract\r\n  function getParamsContract(string memory key) external view returns (uint256) {\r\n    return paramsContract[key];\r\n  }\r\n\r\n  ///@notice Update a parameter of hero contract\r\n  ///@param key key index of params contract you want set\r\n  ///@param value value of params contract you want set\r\n  function setParamsHeroContract(string memory key, uint256 value) internal {\r\n    Hero contrat = Hero(addressHero);\r\n    contrat.setParamsContract(key, value);\r\n  }\r\n\r\n  ///@notice convert of a resource for another token\r\n  function convertToAnotherToken(uint256 value, address anotherToken) external {\r\n    /*require(supplies[tokenId]>value+1,\"No more this token\");\r\n        require(balanceOf(_msgSender())>=value,\"No more this token\");\r\n        _burn(_msgSender(),value);\r\n        currentprice = setCurrentPrice();*/\r\n  }\r\n\r\n  ///@notice purchase of a resource for eth/MATIC\r\n  ///@param quantity count of item you want purchase\r\n  ///@param receiver receiver address of token\r\n  ///@param tokenId id of item\r\n  function buyItem(uint256 quantity, address receiver, uint256 tokenId) external payable {\r\n    Items itemContrat = Items(addressItem);\r\n    Items.Item memory item = itemContrat.getItemDetails(tokenId);\r\n    require(msg.value >= item.price * quantity, \"More ETH required\");\r\n    itemContrat.mint(receiver, tokenId, quantity);\r\n    //setCurrentPrice();\r\n  }\r\n\r\n  ///@notice sell of a resource for eth/MATIC\r\n  ///@param quantity count of item you want purchase\r\n  ///@param tokenId id of item\r\n  function sellItem(uint256 quantity, uint256 tokenId) external {\r\n    Items itemContrat = Items(addressItem);\r\n    Items.Item memory item = itemContrat.getItemDetails(tokenId);\r\n    require(itemContrat.getSupply(tokenId) >= quantity, \"No more this token\");\r\n    require(\r\n      itemContrat.balanceOf(_msgSender(), tokenId) >= quantity,\r\n      \"No more this token\"\r\n    );\r\n    payable(_msgSender()).transfer(item.price * quantity);\r\n    itemContrat.burn(_msgSender(), tokenId, quantity);\r\n    //setCurrentPrice();\r\n  }\r\n\r\n  /**\r\n    appel vers le contrat officiel du jeton\r\n    Offrir un ou plusieurs token a un utilisateur\r\n     */\r\n  // function giveHero(\r\n  //   address to,\r\n  //   uint8 generation,\r\n  //   string memory _tokenUri\r\n  // ) external onlyOwner {\r\n  //   require(paramsContract[\"tokenLimit\"] > 0, \"No remaining\");\r\n  //   bool[] memory booleans = new bool[](20);\r\n  //   uint8[] memory randomParts = randomStats(0);\r\n  //   uint256[] memory randomParams = randomParams(paramsContract[\"price\"], generation);\r\n  //   paramsContract[\"nextId\"]++;\r\n\r\n  //   Hero contrat = Hero(addressHero);\r\n  //   contrat.mint(to, booleans, randomParts, randomParams, _tokenUri);\r\n  // }\r\n\r\n  ///@notice mint a hero for a value price and generate stats and parameterr\r\n  ///@param generation generation of creation hero\r\n  ///@param peuple peuple with class and stat linked\r\n  ///@param _tokenUri uri of metadata token hero\r\n  function mintHero(\r\n    uint8 generation,\r\n    uint8 peuple,\r\n    string memory _tokenUri\r\n  ) external payable {\r\n    require(msg.value >= paramsContract[\"price\"], \"More ETH required\");\r\n    require(paramsContract[\"tokenLimit\"] > 0, \"No remaining\");\r\n    uint8[] memory randomParts = randomStats(peuple);\r\n    uint256[] memory randomParams = randomParameters(msg.value, generation);\r\n    paramsContract[\"nextId\"]++;\r\n\r\n    Hero contrat = Hero(addressHero);\r\n    contrat.mint(_msgSender(), randomParts, randomParams, _tokenUri);\r\n  }\r\n\r\n  ///@notice generate stats for your hero in uint8\r\n  ///@param peuple peuple of hero generated\r\n  ///@return randomParts array of stats uint8 for hero\r\n  function randomStats(uint8 peuple) internal virtual returns (uint8[] memory) {\r\n    /*uint256 totalPnt = paramsContract[\"totalPnt\"];\r\n        if(paramsContract[\"nextId\"]<paramsContract[\"maxFirstGen\"]){totalPnt += 3;}else\r\n        if(paramsContract[\"nextId\"]<paramsContract[\"maxSecondGen\"]){totalPnt += 2;}else\r\n        if(paramsContract[\"nextId\"]<paramsContract[\"maxthirdGen\"]){totalPnt += 1;}*/\r\n\r\n    uint8[] memory randomParts = new uint8[](20);\r\n\r\n    Class classContrat = Class(addressClass);\r\n    ClassLib.Classes memory tempClass;\r\n    tempClass = classContrat.getClassDetails(0);\r\n    for (uint8 index = 0; index < classContrat.getClassCount(); index++) {\r\n      if (random(100) < classContrat.getClassDetails(index).rarity)\r\n        tempClass = classContrat.getClassDetails(index);\r\n    }\r\n    uint8[] memory stats = tempClass.stats;\r\n\r\n    randomParts[0] = stats[0]; //strong\r\n    randomParts[1] = stats[1]; //endurance\r\n    randomParts[2] = stats[2]; //concentration\r\n    randomParts[3] = stats[3]; //agility\r\n    randomParts[4] = stats[4]; //charisma\r\n    randomParts[5] = stats[5]; //stealth\r\n\r\n    randomParts[8] = peuple; //peuple\r\n    randomParts[9] = tempClass.id; //class\r\n\r\n    return randomParts;\r\n  }\r\n\r\n  ///@notice generate parameter for your hero in uint256\r\n  ///@param price price of buying hero\r\n  ///@param generation generation fo hero\r\n  ///@return randomParams array of parameters uint256 for hero\r\n  function randomParameters(\r\n    uint256 price,\r\n    uint8 generation\r\n  ) internal virtual returns (uint256[] memory) {\r\n    uint256[] memory randomParams = new uint256[](20);\r\n    randomParams[0] = block.timestamp; //date de cration\r\n    randomParams[1] = price; //prix d'achat\r\n    randomParams[2] = block.timestamp; //date de la drnire action (il y a une heure) permettant de participer a des missions\r\n    //randomParams[3] = 0;//Mission choisis (si 0 aucune current mission)\r\n    //randomParams[4] = 0;//seconds pour finir la mission\r\n    //randomParams[5] = 0;//difficult de la qute (dtermine l'exp gagn, et les objets % gagn)\r\n    //randomParams[6] = 0;//last quest succeded\r\n    randomParams[6] = paramsContract[\"nextId\"]; //tokenId\r\n    randomParams[7] = generation; //type\r\n    //randomParams[8] = 0;//exp\r\n    randomParams[9] = 1; //level\r\n    return randomParams;\r\n  }\r\n\r\n  ///@notice start a quest by id for one hero token\r\n  ///@param tokenId id of token you want to launch in quest\r\n  ///@param questId id of quest you want to start\r\n  function startQuest(uint256 tokenId, uint256 questId) external {\r\n    Hero contrat = Hero(addressHero);\r\n    require(contrat.ownerOf(tokenId) == _msgSender(), \"Not your token\");\r\n    Quest questContrat = Quest(addressQuest);\r\n    Quest.QuestStruct memory questTemp = questContrat.getQuestDetails(questId);\r\n    Hero.Token memory tokenTemp = contrat.getTokenDetails(tokenId);\r\n    require(tokenTemp.params256[4] == 0, \"Quest not finished\");\r\n    tokenTemp.params256[2] = block.timestamp;\r\n    tokenTemp.params256[3] = questId;\r\n    tokenTemp.params256[4] = questTemp.time;\r\n    contrat.updateToken(tokenTemp, tokenId, _msgSender());\r\n  }\r\n\r\n  ///@notice Validation of the quest at the end of a quest\r\n  ///@param tokenId id of token you want to complete quest\r\n  function completeQuest(uint256 tokenId) external {\r\n    Hero contrat = Hero(addressHero);\r\n    require(contrat.ownerOf(tokenId) == _msgSender(), \"Not your token\");\r\n    Hero.Token memory tokenTemp = contrat.getTokenDetails(tokenId);\r\n\r\n    Quest questContrat = Quest(addressQuest);\r\n    Quest.QuestStruct memory questTemp = questContrat.getQuestDetails(\r\n      tokenTemp.params256[3]\r\n    );\r\n    require(\r\n      block.timestamp - tokenTemp.params256[2] > (questTemp.time),\r\n      \"Quest not finished\"\r\n    );\r\n    uint8 malus = 0;\r\n    for (uint8 index = 0; index < questTemp.stats.length; index++) {\r\n      if (questTemp.stats[index] > tokenTemp.params8[index]) {\r\n        malus += questTemp.stats[index] - tokenTemp.params8[index];\r\n      }\r\n    }\r\n    ///SUCCESS QUEST\r\n    uint256 percentSuccess = random(100 - malus);\r\n    tokenTemp.params256[7] = percentSuccess;\r\n    if (percentSuccess > questTemp.percentDifficulty) {\r\n      tokenTemp.params256[6] = 1;\r\n      tokenTemp.params256[8] += (questTemp.exp * questContrat.getMultiplicateurExp());\r\n\r\n      Items itemContrat = Items(addressItem);\r\n\r\n      for (uint256 index = 0; index < questTemp.items.length; index++) {\r\n        itemContrat.mint(_msgSender(), questTemp.items[index], 1);\r\n      }\r\n      /*for (uint256 index = 0; index < countItems; index++) {\r\n        Items itemtemp = Items(items[index]);\r\n        if (random256(100000) > itemtemp.getRarity()) {\r\n          itemtemp.mint(1, _msgSender());\r\n        }\r\n      }*/\r\n    } else {\r\n      tokenTemp.params256[6] = 0;\r\n    }\r\n    //recuperer les imtes dans la quest !IMPORTANT\r\n    tokenTemp.params256[2] = block.timestamp;\r\n    tokenTemp.params256[4] = 0;\r\n\r\n    contrat.updateToken(tokenTemp, tokenId, _msgSender());\r\n  }\r\n\r\n  ///@notice level up hero and increment one stat\r\n  ///@param statToLvlUp id of stat you wan increment\r\n  ///@param tokenId id of token you want level up\r\n  function levelUp(uint8 statToLvlUp, uint256 tokenId) external {\r\n    Hero contrat = Hero(addressHero);\r\n    require(contrat.ownerOf(tokenId) == _msgSender(), \"Not your token\");\r\n    Hero.Token memory tokenTemp = contrat.getTokenDetails(tokenId);\r\n    require(\r\n      tokenTemp.params256[8] >\r\n        (100 + (paramsContract[\"expForLevelUp\"] ** tokenTemp.params256[9])),\r\n      \"experience not enought\"\r\n    );\r\n    require(statToLvlUp >= 0 && statToLvlUp <= 5, \"this is not a stats\");\r\n    tokenTemp.params8[statToLvlUp]++;\r\n    tokenTemp.params256[8] = 0;\r\n    tokenTemp.params256[9]++;\r\n\r\n    contrat.updateToken(tokenTemp, tokenId, _msgSender());\r\n  }\r\n\r\n  /**\r\n    a finaliser\r\n     */\r\n  /*function calculPriceSupply() public{\r\n        Hero contrat = Hero(addressHero);\r\n        uint totalSupply = contrat.getParamsContract(\"totalSupply\");\r\n        //priceInUsd = (item.price/(10**18)) * (latestPrice/10**8)\r\n    }*/\r\n\r\n  /**\r\n    appel vers le contrat officiel du jeton\r\n    Achat d'un token par un utilisateur\r\n     */\r\n  /*function purchase(address contactAddr, uint256 tokenId) external payable {\r\n        Hero contrat = Hero(addressHero);\r\n        Hero.Token memory token = contrat.getTokenDetails(tokenId);\r\n        require(msg.value >= token.params256[1], \"Insufficient fonds sent\");\r\n        require(contrat.getOwnerOf(tokenId) != _msgSender(), \"Already Owned\");\r\n        //contrat.updateToken(token,tokenId,_msgSender());\r\n        contrat.transfer(contactAddr, _msgSender(), tokenId);\r\n    }*/\r\n\r\n  /****************************************\r\n    UTILS\r\n     ****************************************/\r\n\r\n  ///@notice return random number\r\n  ///@param maxNumber max number random to return\r\n  ///@return randomNumber random uint256 returned\r\n  function random(uint8 maxNumber) internal returns (uint8) {\r\n    return uint8(random256(uint8(maxNumber)));\r\n  }\r\n\r\n  ///@notice return random number\r\n  ///@param maxNumber max number random to return\r\n  ///@return randomNumber random uint256 returned\r\n  function random256(uint256 maxNumber) internal returns (uint256) {\r\n    uint256 randomNumber = uint256(\r\n      keccak256(abi.encodePacked(block.timestamp, _msgSender(), paramsContract[\"nonce\"]))\r\n    ) % maxNumber;\r\n    paramsContract[\"nonce\"]++;\r\n    return randomNumber;\r\n  }\r\n\r\n  /*FUNDS OF CONTRACT*/\r\n\r\n  function withdraw() external onlyOwner {\r\n    payable(_msgSender()).transfer(address(this).balance);\r\n  }\r\n}\r\n",
  "sourcePath": "C:\\Users\\Kevin\\Desktop\\WorkHome\\--Solidity--MYOS\\contracts\\DelegateContract.sol",
  "compiler": {
    "name": "solc",
    "version": "0.8.11+commit.d7f03943.Emscripten.clang"
  },
  "schemaVersion": "3.4.6",
  "updatedAt": "2022-11-05T21:04:56.722Z",
  "devdoc": {
    "kind": "dev",
    "methods": {
      "buyItem(uint256,address,uint256)": {
        "params": {
          "quantity": "count of item you want purchase",
          "receiver": "receiver address of token",
          "tokenId": "id of item"
        }
      },
      "completeQuest(uint256)": {
        "params": {
          "tokenId": "id of token you want to complete quest"
        }
      },
      "createGuild(address,string,string)": {
        "params": {
          "_by": "user for found addresses of your contract by creator mapping",
          "name": "name of your created contract",
          "symbol": "name of your created contract"
        }
      },
      "deleteGuild(address)": {
        "details": "ATTENTION, the totality of the ether contained above atters to the creator of the contract",
        "params": {
          "_by": "user for found addresses of your contract by creator mapping"
        }
      },
      "getAddressesGuilds()": {
        "returns": {
          "_0": "return an array of address for all guilds created"
        }
      },
      "getOneGuildAddress(address)": {
        "params": {
          "_by": "user for found addresses of your contract by creator mapping"
        },
        "returns": {
          "_0": "addressContract address of the contract guild"
        }
      },
      "getParamsContract(string)": {
        "params": {
          "key": "key index of param your want to return"
        },
        "returns": {
          "_0": "param value of parameter contract"
        }
      },
      "levelUp(uint8,uint256)": {
        "params": {
          "statToLvlUp": "id of stat you wan increment",
          "tokenId": "id of token you want level up"
        }
      },
      "mintHero(uint8,uint8,string)": {
        "params": {
          "_tokenUri": "uri of metadata token hero",
          "generation": "generation of creation hero",
          "peuple": "peuple with class and stat linked"
        }
      },
      "owner()": {
        "details": "Returns the address of the current owner."
      },
      "renounceOwnership()": {
        "details": "Leaves the contract without owner. It will not be possible to call `onlyOwner` functions anymore. Can only be called by the current owner. NOTE: Renouncing ownership will leave the contract without an owner, thereby removing any functionality that is only available to the owner."
      },
      "sellItem(uint256,uint256)": {
        "params": {
          "quantity": "count of item you want purchase",
          "tokenId": "id of item"
        }
      },
      "setParamsContract(string,uint256)": {
        "params": {
          "key": "key index of params contract you want set",
          "value": "value of params contract you want set"
        }
      },
      "setaddressHero(address)": {
        "params": {
          "_addressHero": "address of contract hero"
        }
      },
      "startQuest(uint256,uint256)": {
        "params": {
          "questId": "id of quest you want to start",
          "tokenId": "id of token you want to launch in quest"
        }
      },
      "transferOwnership(address)": {
        "details": "Transfers ownership of the contract to a new account (`newOwner`). Can only be called by the current owner."
      }
    },
    "version": 1
  },
  "userdoc": {
    "kind": "user",
    "methods": {
      "buyItem(uint256,address,uint256)": {
        "notice": "purchase of a resource for eth/MATIC"
      },
      "completeQuest(uint256)": {
        "notice": "Validation of the quest at the end of a quest"
      },
      "convertToAnotherToken(uint256,address)": {
        "notice": "convert of a resource for another token"
      },
      "createGuild(address,string,string)": {
        "notice": "Create a guild by also deleting its contract"
      },
      "deleteGuild(address)": {
        "notice": "Deleted a guild by also deleting its contract"
      },
      "getAddressesGuilds()": {
        "notice": "return all guilds addresses"
      },
      "getOneGuildAddress(address)": {
        "notice": "return one guild by address creator"
      },
      "getParamsContract(string)": {
        "notice": "Return a parameter of contract by key index"
      },
      "levelUp(uint8,uint256)": {
        "notice": "level up hero and increment one stat"
      },
      "mintHero(uint8,uint8,string)": {
        "notice": "mint a hero for a value price and generate stats and parameterr"
      },
      "sellItem(uint256,uint256)": {
        "notice": "sell of a resource for eth/MATIC"
      },
      "setParamsContract(string,uint256)": {
        "notice": "Update a parameter of contract"
      },
      "setaddressHero(address)": {
        "notice": "Update the destination address of the official contract hero so that the delegation contract can access it"
      },
      "startQuest(uint256,uint256)": {
        "notice": "start a quest by id for one hero token"
      }
    },
    "version": 1
  }
}