{
  "contractName": "DelegateContract",
  "abi": [
    {
      "inputs": [
        {
          "internalType": "address",
          "name": "_addressHero",
          "type": "address"
        },
        {
          "internalType": "address",
          "name": "_addressQuest",
          "type": "address"
        },
        {
          "internalType": "address",
          "name": "_addressClass",
          "type": "address"
        }
      ],
      "stateMutability": "nonpayable",
      "type": "constructor"
    },
    {
      "anonymous": false,
      "inputs": [
        {
          "indexed": true,
          "internalType": "address",
          "name": "previousOwner",
          "type": "address"
        },
        {
          "indexed": true,
          "internalType": "address",
          "name": "newOwner",
          "type": "address"
        }
      ],
      "name": "OwnershipTransferred",
      "type": "event"
    },
    {
      "inputs": [],
      "name": "owner",
      "outputs": [
        {
          "internalType": "address",
          "name": "",
          "type": "address"
        }
      ],
      "stateMutability": "view",
      "type": "function"
    },
    {
      "inputs": [
        {
          "internalType": "string",
          "name": "",
          "type": "string"
        }
      ],
      "name": "paramsContract",
      "outputs": [
        {
          "internalType": "uint256",
          "name": "",
          "type": "uint256"
        }
      ],
      "stateMutability": "view",
      "type": "function"
    },
    {
      "inputs": [],
      "name": "renounceOwnership",
      "outputs": [],
      "stateMutability": "nonpayable",
      "type": "function"
    },
    {
      "inputs": [
        {
          "internalType": "address",
          "name": "newOwner",
          "type": "address"
        }
      ],
      "name": "transferOwnership",
      "outputs": [],
      "stateMutability": "nonpayable",
      "type": "function"
    },
    {
      "inputs": [
        {
          "internalType": "address",
          "name": "_by",
          "type": "address"
        },
        {
          "internalType": "string",
          "name": "name",
          "type": "string"
        },
        {
          "internalType": "string",
          "name": "symbol",
          "type": "string"
        }
      ],
      "name": "createGuild",
      "outputs": [],
      "stateMutability": "nonpayable",
      "type": "function"
    },
    {
      "inputs": [
        {
          "internalType": "address",
          "name": "_by",
          "type": "address"
        }
      ],
      "name": "deleteGuild",
      "outputs": [],
      "stateMutability": "nonpayable",
      "type": "function"
    },
    {
      "inputs": [
        {
          "internalType": "address",
          "name": "_by",
          "type": "address"
        }
      ],
      "name": "getOneGuildAddress",
      "outputs": [
        {
          "internalType": "address",
          "name": "",
          "type": "address"
        }
      ],
      "stateMutability": "view",
      "type": "function"
    },
    {
      "inputs": [],
      "name": "getAddressesGuilds",
      "outputs": [
        {
          "internalType": "address[]",
          "name": "",
          "type": "address[]"
        }
      ],
      "stateMutability": "view",
      "type": "function"
    },
    {
      "inputs": [
        {
          "internalType": "address",
          "name": "_addressHero",
          "type": "address"
        }
      ],
      "name": "setaddressHero",
      "outputs": [],
      "stateMutability": "nonpayable",
      "type": "function"
    },
    {
      "inputs": [
        {
          "internalType": "string",
          "name": "key",
          "type": "string"
        },
        {
          "internalType": "uint256",
          "name": "value",
          "type": "uint256"
        }
      ],
      "name": "setParamsContract",
      "outputs": [],
      "stateMutability": "nonpayable",
      "type": "function"
    },
    {
      "inputs": [
        {
          "internalType": "string",
          "name": "key",
          "type": "string"
        }
      ],
      "name": "getParamsContract",
      "outputs": [
        {
          "internalType": "uint256",
          "name": "",
          "type": "uint256"
        }
      ],
      "stateMutability": "view",
      "type": "function"
    },
    {
      "inputs": [
        {
          "internalType": "address",
          "name": "item",
          "type": "address"
        },
        {
          "internalType": "uint256",
          "name": "idItem",
          "type": "uint256"
        }
      ],
      "name": "setAddressItem",
      "outputs": [],
      "stateMutability": "nonpayable",
      "type": "function"
    },
    {
      "inputs": [],
      "name": "getAddressesItems",
      "outputs": [
        {
          "internalType": "address[]",
          "name": "",
          "type": "address[]"
        }
      ],
      "stateMutability": "view",
      "type": "function"
    },
    {
      "inputs": [
        {
          "internalType": "uint256",
          "name": "idItem",
          "type": "uint256"
        }
      ],
      "name": "getAddressItem",
      "outputs": [
        {
          "internalType": "address",
          "name": "",
          "type": "address"
        }
      ],
      "stateMutability": "view",
      "type": "function"
    },
    {
      "inputs": [
        {
          "internalType": "address",
          "name": "addressItem",
          "type": "address"
        }
      ],
      "name": "getItemDetails",
      "outputs": [
        {
          "components": [
            {
              "internalType": "string",
              "name": "name",
              "type": "string"
            },
            {
              "internalType": "uint256",
              "name": "rarity",
              "type": "uint256"
            },
            {
              "internalType": "uint256",
              "name": "currentPrice",
              "type": "uint256"
            },
            {
              "internalType": "uint256",
              "name": "myBalance",
              "type": "uint256"
            },
            {
              "internalType": "uint256",
              "name": "allBalance",
              "type": "uint256"
            }
          ],
          "internalType": "struct Items.Item",
          "name": "",
          "type": "tuple"
        }
      ],
      "stateMutability": "view",
      "type": "function"
    },
    {
      "inputs": [
        {
          "internalType": "uint256",
          "name": "idItem",
          "type": "uint256"
        }
      ],
      "name": "getBalanceOfItem",
      "outputs": [
        {
          "internalType": "uint256",
          "name": "",
          "type": "uint256"
        }
      ],
      "stateMutability": "view",
      "type": "function"
    },
    {
      "inputs": [
        {
          "internalType": "address payable",
          "name": "addressItem",
          "type": "address"
        },
        {
          "internalType": "uint256",
          "name": "quantity",
          "type": "uint256"
        }
      ],
      "name": "buyItem",
      "outputs": [],
      "stateMutability": "payable",
      "type": "function"
    },
    {
      "inputs": [
        {
          "internalType": "address",
          "name": "addressItem",
          "type": "address"
        },
        {
          "internalType": "uint256",
          "name": "quantity",
          "type": "uint256"
        }
      ],
      "name": "sellItem",
      "outputs": [],
      "stateMutability": "nonpayable",
      "type": "function"
    },
    {
      "inputs": [
        {
          "internalType": "address",
          "name": "addressItem",
          "type": "address"
        }
      ],
      "name": "depositItem",
      "outputs": [],
      "stateMutability": "payable",
      "type": "function"
    },
    {
      "inputs": [
        {
          "internalType": "address",
          "name": "addressItem",
          "type": "address"
        }
      ],
      "name": "getCurrentPrice",
      "outputs": [
        {
          "internalType": "uint256",
          "name": "",
          "type": "uint256"
        }
      ],
      "stateMutability": "view",
      "type": "function"
    },
    {
      "inputs": [
        {
          "internalType": "uint8",
          "name": "generation",
          "type": "uint8"
        },
        {
          "internalType": "uint8",
          "name": "peuple",
          "type": "uint8"
        },
        {
          "internalType": "string",
          "name": "_tokenUri",
          "type": "string"
        }
      ],
      "name": "mintDelegate",
      "outputs": [],
      "stateMutability": "payable",
      "type": "function"
    },
    {
      "inputs": [
        {
          "internalType": "uint256",
          "name": "tokenId",
          "type": "uint256"
        },
        {
          "internalType": "uint256",
          "name": "questId",
          "type": "uint256"
        }
      ],
      "name": "startQuest",
      "outputs": [],
      "stateMutability": "nonpayable",
      "type": "function"
    },
    {
      "inputs": [
        {
          "internalType": "uint256",
          "name": "tokenId",
          "type": "uint256"
        }
      ],
      "name": "completeQuest",
      "outputs": [],
      "stateMutability": "nonpayable",
      "type": "function"
    },
    {
      "inputs": [
        {
          "internalType": "uint8",
          "name": "statToLvlUp",
          "type": "uint8"
        },
        {
          "internalType": "uint256",
          "name": "tokenId",
          "type": "uint256"
        }
      ],
      "name": "levelUp",
      "outputs": [],
      "stateMutability": "nonpayable",
      "type": "function"
    },
    {
      "inputs": [],
      "name": "withdraw",
      "outputs": [],
      "stateMutability": "nonpayable",
      "type": "function"
    }
  ],
  "bytecode": "0x60806040523480156200001157600080fd5b5060405162005f5638038062005f5683398101604081905262000034916200024c565b6200003f33620001df565b600180546001600160a01b038581166001600160a01b0319928316811790935560028054868316908416179055600380549185169190921617905560405163f26bf0b760e01b81526020600482015260066024820152651b995e1d125960d21b604482015263f26bf0b790606401602060405180830381865afa158015620000cb573d6000803e3d6000fd5b505050506040513d601f19601f82011682018060405250810190620000f1919062000296565b60408051651b995e1d125960d21b815260046006820181905282519182900360260182209390935564707269636560d81b815260058082018490528251918290036025908101832067016345785d8a00009055671d1bdd185b141b9d60c21b8352600883018590528351928390036028018320829055691d1bdad95b931a5b5a5d60b21b8352600a8301859052835192839003602a0183206127109055646e6f6e636560d81b8352908201849052825191829003018120600090556c0657870466f724c6576656c557609c1b8152600d8101929092525190819003602d0190206064905550620002b0915050565b600080546001600160a01b038381166001600160a01b0319831681178455604051919092169283917f8be0079c531659141344cd1fd0a4f28419497f9722a3daafe3b4186f6b6457e09190a35050565b80516001600160a01b03811681146200024757600080fd5b919050565b6000806000606084860312156200026257600080fd5b6200026d846200022f565b92506200027d602085016200022f565b91506200028d604085016200022f565b90509250925092565b600060208284031215620002a957600080fd5b5051919050565b615c9680620002c06000396000f3fe608060405260043610620001845760003560e01c80637a53d06e11620000e2578063b77f02e81162000095578063e0f0b85a116200006c578063e0f0b85a14620004a7578063e9da3a6514620004cc578063f26bf0b714620004f1578063f2fde38b146200051657600080fd5b8063b77f02e81462000423578063c3c33b401462000448578063dec74312146200046d57600080fd5b80637a53d06e146200035f57806384cc315b14620003765780638da5cb5b146200039b578063994c7cbe14620003cf5780639f37092a14620003f4578063b0add20a146200040b57600080fd5b806348c6309d116200013b57806348c6309d146200024e57806351ec391c146200027e578063528be0a914620002b2578063586e2ee414620002d75780635f9d45d814620002fc578063715018a6146200034757600080fd5b8063096c5e1a14620001895780630b275db414620001b05780631d9e861e14620001d55780633cb1194414620001ec5780633ccfd60b146200021157806342c3e3581462000229575b600080fd5b3480156200019657600080fd5b50620001ae620001a83660046200252f565b6200053b565b005b348015620001bd57600080fd5b50620001ae620001cf3660046200256e565b620005a4565b620001ae620001e63660046200258f565b620008a5565b348015620001f957600080fd5b50620001ae6200020b366004620026f3565b62000981565b3480156200021e57600080fd5b50620001ae620009b2565b3480156200023657600080fd5b50620001ae620002483660046200258f565b620009ec565b3480156200025b57600080fd5b506200026662000c28565b6040516200027591906200273b565b60405180910390f35b3480156200028b57600080fd5b50620002a36200029d3660046200258f565b62000d2c565b604051620002759190620027e7565b348015620002bf57600080fd5b50620001ae620002d136600462002839565b62000ddb565b348015620002e457600080fd5b50620001ae620002f636600462002853565b620013c2565b3480156200030957600080fd5b50620003386200031b366004620028d1565b805160208183018101805160048252928201919093012091525481565b60405190815260200162000275565b3480156200035457600080fd5b50620001ae62001511565b620001ae6200037036600462002909565b62001529565b3480156200038357600080fd5b5062000338620003953660046200258f565b620016fd565b348015620003a857600080fd5b506000546001600160a01b03165b6040516001600160a01b03909116815260200162000275565b348015620003dc57600080fd5b5062000338620003ee36600462002839565b6200176f565b620001ae620004053660046200252f565b620017c6565b3480156200041857600080fd5b5062000266620018b7565b3480156200043057600080fd5b50620003b6620004423660046200258f565b6200198b565b3480156200045557600080fd5b50620001ae6200046736600462002968565b62001a07565b3480156200047a57600080fd5b50620003b66200048c36600462002839565b6000908152600560205260409020546001600160a01b031690565b348015620004b457600080fd5b50620001ae620004c63660046200252f565b62001ca7565b348015620004d957600080fd5b50620001ae620004eb3660046200258f565b62001cfe565b348015620004fe57600080fd5b506200033862000510366004620028d1565b62001d2a565b3480156200052357600080fd5b50620001ae620005353660046200258f565b62001d54565b604051632b65cc2360e21b81526004810182905233602482015282906001600160a01b0382169063ad97308c90604401600060405180830381600087803b1580156200058657600080fd5b505af11580156200059b573d6000803e3d6000fd5b50505050505050565b600154604051630836387160e41b8152600481018390526001600160a01b039091169033908290638363871090602401602060405180830381865afa158015620005f2573d6000803e3d6000fd5b505050506040513d601f19601f820116820180604052508101906200061891906200298b565b6001600160a01b0316146200064a5760405162461bcd60e51b81526004016200064190620029ab565b60405180910390fd5b60405163183c06e560e31b8152600481018390526000906001600160a01b0383169063c1e0372890602401600060405180830381865afa15801562000693573d6000803e3d6000fd5b505050506040513d6000823e601f3d908101601f19168201604052620006bd919081019062002ae9565b90508060200151600781518110620006d957620006d962002c0c565b6020026020010151600460405162000704906c0657870466f724c6576656c557609c1b8152600d0190565b9081526020016040518091039020546200071f919062002d35565b6200072c90606462002d46565b816020015160068151811062000746576200074662002c0c565b602002602001015160ff1611620007995760405162461bcd60e51b8152602060048201526016602482015275195e1c195c9a595b98d9481b9bdd08195b9bdd59da1d60521b604482015260640162000641565b80602001518460ff1681518110620007b557620007b562002c0c565b602002602001018051809190620007cc9062002d61565b60ff1660ff168152505060008160200151600681518110620007f257620007f262002c0c565b60ff909216602092830291909101820152810151805160079081106200081c576200081c62002c0c565b602002602001018051809190620008339062002d61565b60ff1690525060405163e1e5151d60e01b81526001600160a01b0383169063e1e5151d906200086b9084908790339060040162002e2a565b600060405180830381600087803b1580156200088657600080fd5b505af11580156200089b573d6000803e3d6000fd5b5050505050505050565b60408051600481526024810182526020810180516001600160e01b0316630d0e30db60e41b179052905160009182916001600160a01b038516913491620008ed919062002ea9565b60006040518083038185875af1925050503d80600081146200092c576040519150601f19603f3d011682016040523d82523d6000602084013e62000931565b606091505b5091509150816200097c5760405162461bcd60e51b81526020600482015260146024820152732330b4b632b2103a379039b2b7321022ba3432b960611b604482015260640162000641565b505050565b6200098b62001dd0565b806004836040516200099e919062002ea9565b908152604051908190036020019020555050565b620009bc62001dd0565b60405133904780156108fc02916000818181858888f19350505050158015620009e9573d6000803e3d6000fd5b50565b6001600160a01b038181166000908152600660205260409020541662000a475760405162461bcd60e51b815260206004820152600f60248201526e11dd5a5b19081b9bdd08195e1a5cdd608a1b604482015260640162000641565b6001600160a01b03818116600090815260066020526040908190205490516317aa5fb760e11b8152336004820152911690632f54bf6e90602401602060405180830381865afa15801562000a9f573d6000803e3d6000fd5b505050506040513d601f19601f8201168201806040525081019062000ac5919062002ec7565b62000b075760405162461bcd60e51b8152602060048201526011602482015270125cc81b9bdd081e5bdd5c8819dd5a5b19607a1b604482015260640162000641565b6001600160a01b038082166000908152600660205260408082205481516341c0e1b560e01b815291519316926341c0e1b59260048084019391929182900301818387803b15801562000b5857600080fd5b505af115801562000b6d573d6000803e3d6000fd5b5050506001600160a01b038083166000908152600660209081526040808320548151635d1ca63160e01b815291519395506007948694911692635d1ca63192600480820193918290030181865afa15801562000bcd573d6000803e3d6000fd5b505050506040513d601f19601f8201168201806040525081019062000bf3919062002ee5565b815260200190815260200160002060006101000a8154816001600160a01b0302191690836001600160a01b0316021790555050565b600854606090600090610100900460ff166001600160401b0381111562000c535762000c53620025af565b60405190808252806020026020018201604052801562000c7d578160200160208202803683370190505b5090506000805b600854610100900460ff1681101562000d24576000818152600760205260409020546001600160a01b03161562000d0f5760008181526007602052604090205483516001600160a01b039091169084908490811062000ce75762000ce762002c0c565b6001600160a01b03909216602092830291909101909101528162000d0b8162002eff565b9250505b8062000d1b8162002eff565b91505062000c84565b509092915050565b62000d5f6040518060a0016040528060608152602001600081526020016000815260200160008152602001600081525090565b60405163147b0e4760e21b815233600482015282906000906001600160a01b038316906351ec391c90602401600060405180830381865afa15801562000da9573d6000803e3d6000fd5b505050506040513d6000823e601f3d908101601f1916820160405262000dd3919081019062002f69565b949350505050565b600154604051630836387160e41b8152600481018390526001600160a01b039091169033908290638363871090602401602060405180830381865afa15801562000e29573d6000803e3d6000fd5b505050506040513d601f19601f8201168201806040525081019062000e4f91906200298b565b6001600160a01b03161462000e785760405162461bcd60e51b81526004016200064190620029ab565b60405163183c06e560e31b8152600481018390526000906001600160a01b0383169063c1e0372890602401600060405180830381865afa15801562000ec1573d6000803e3d6000fd5b505050506040513d6000823e601f3d908101601f1916820160405262000eeb919081019062002ae9565b600254604082015180519293506001600160a01b0390911691600091839163b0f929b09190600390811062000f245762000f2462002c0c565b60200260200101516040518263ffffffff1660e01b815260040162000f4b91815260200190565b600060405180830381865afa15801562000f69573d6000803e3d6000fd5b505050506040513d6000823e601f3d908101601f1916820160405262000f93919081019062003008565b90508060800151836040015160028151811062000fb45762000fb462002c0c565b60200260200101514262000fc99190620030cd565b116200100d5760405162461bcd60e51b8152602060048201526012602482015271145d595cdd081b9bdd08199a5b9a5cda195960721b604482015260640162000641565b6000805b8260400151518160ff161015620010ef5784602001518160ff16815181106200103e576200103e62002c0c565b602002602001015160ff1683604001518260ff168151811062001065576200106562002c0c565b602002602001015160ff161115620010da5784602001518160ff168151811062001093576200109362002c0c565b602002602001015183604001518260ff1681518110620010b757620010b762002c0c565b6020026020010151620010cb9190620030e7565b620010d790836200310d565b91505b80620010e68162002d61565b91505062001011565b50602082015160ff166200110f62001109836064620030e7565b62001e2c565b60ff161115620012de57826001600160a01b0316636827822e6040518163ffffffff1660e01b8152600401602060405180830381865afa15801562001158573d6000803e3d6000fd5b505050506040513d601f19601f820116820180604052508101906200117e919062003135565b82516200118c919062003155565b8460200151600681518110620011a657620011a662002c0c565b60200260200101818151620011bc91906200310d565b60ff1690525060005b60085460ff16811015620012dc57600081815260056020908152604091829020548251633d9966dd60e11b815292516001600160a01b03909116928392637b32cdba926004808401938290030181865afa15801562001228573d6000803e3d6000fd5b505050506040513d601f19601f820116820180604052508101906200124e919062002ee5565b6200125c620186a062001e42565b1115620012c6576040516394bf804d60e01b8152600160048201523360248201526001600160a01b038216906394bf804d90604401600060405180830381600087803b158015620012ac57600080fd5b505af1158015620012c1573d6000803e3d6000fd5b505050505b5080620012d38162002eff565b915050620011c5565b505b428460400151600281518110620012f957620012f962002c0c565b6020026020010181815250506000846040015160038151811062001321576200132162002c0c565b6020026020010181815250506000846040015160048151811062001349576200134962002c0c565b602090810291909101015260405163e1e5151d60e01b81526001600160a01b0386169063e1e5151d90620013869087908a90339060040162002e2a565b600060405180830381600087803b158015620013a157600080fd5b505af1158015620013b6573d6000803e3d6000fd5b50505050505050505050565b6001600160a01b038381166000908152600660205260409020541615620014255760405162461bcd60e51b8152602060048201526016602482015275165bdd48185b1c9958591e481a185d994819dd5a5b1960521b604482015260640162000641565b8181336200143b6000546001600160a01b031690565b600860019054906101000a900460ff1660405162001459906200250b565b6200146995949392919062003179565b604051809103906000f08015801562001486573d6000803e3d6000fd5b506001600160a01b0380851660008181526006602090815260408083208054969095166001600160a01b0319968716179094556008805460ff6101009182900481168552600790935294909220805490951690921790935582549190910416906001620014f38362002d61565b91906101000a81548160ff021916908360ff16021790555050505050565b6200151b62001dd0565b62001527600062001f15565b565b60405164707269636560d81b8152600490600501908152602001604051809103902054341015620015915760405162461bcd60e51b8152602060048201526011602482015270135bdc9948115512081c995c5d5a5c9959607a1b604482015260640162000641565b60006004604051620015b390691d1bdad95b931a5b5a5d60b21b8152600a0190565b90815260200160405180910390205411620016005760405162461bcd60e51b815260206004820152600c60248201526b4e6f2072656d61696e696e6760a01b604482015260640162000641565b6040805160148082526102a0820190925260009160208201610280803683370190505090506000620016328462001f65565b9050600062001642348762002408565b905060046040516200166090651b995e1d125960d21b815260060190565b90815260405190819003602001902080549060006200167f8362002eff565b909155505060015460405163e6d46f3360e01b81526001600160a01b0390911690819063e6d46f3390620016c09033908890889088908c90600401620031cf565b600060405180830381600087803b158015620016db57600080fd5b505af1158015620016f0573d6000803e3d6000fd5b5050505050505050505050565b600080829050806001600160a01b031663eb91d37e6040518163ffffffff1660e01b8152600401602060405180830381865afa15801562001742573d6000803e3d6000fd5b505050506040513d601f19601f8201168201806040525081019062001768919062002ee5565b9392505050565b6000818152600560205260408082205490516370a0823160e01b81523360048201526001600160a01b039091169081906370a0823190602401602060405180830381865afa15801562001742573d6000803e3d6000fd5b6040516024810182905233604482015260009081906001600160a01b03851690349060640160408051601f198184030181529181526020820180516001600160e01b0316637383d70960e01b1790525162001822919062002ea9565b60006040518083038185875af1925050503d806000811462001861576040519150601f19603f3d011682016040523d82523d6000602084013e62001866565b606091505b509150915081620018b15760405162461bcd60e51b81526020600482015260146024820152732330b4b632b2103a379039b2b7321022ba3432b960611b604482015260640162000641565b50505050565b60085460609060009060ff166001600160401b03811115620018dd57620018dd620025af565b60405190808252806020026020018201604052801562001907578160200160208202803683370190505b5090506000805b60085460ff1681101562000d245760008181526005602052604090205483516001600160a01b03909116908490849081106200194e576200194e62002c0c565b6001600160a01b039092166020928302919091019091015281620019728162002eff565b9250508080620019829062002eff565b9150506200190e565b6001600160a01b03818116600090815260066020526040812054909116620019e85760405162461bcd60e51b815260206004820152600f60248201526e11dd5a5b19081b9bdd08195e1a5cdd608a1b604482015260640162000641565b506001600160a01b039081166000908152600660205260409020541690565b600154604051630836387160e41b8152600481018490526001600160a01b039091169033908290638363871090602401602060405180830381865afa15801562001a55573d6000803e3d6000fd5b505050506040513d601f19601f8201168201806040525081019062001a7b91906200298b565b6001600160a01b03161462001aa45760405162461bcd60e51b81526004016200064190620029ab565b600254604051630b0f929b60e41b8152600481018490526001600160a01b0390911690600090829063b0f929b090602401600060405180830381865afa15801562001af3573d6000803e3d6000fd5b505050506040513d6000823e601f3d908101601f1916820160405262001b1d919081019062003008565b60405163183c06e560e31b8152600481018790529091506000906001600160a01b0385169063c1e0372890602401600060405180830381865afa15801562001b69573d6000803e3d6000fd5b505050506040513d6000823e601f3d908101601f1916820160405262001b93919081019062002ae9565b9050806040015160048151811062001baf5762001baf62002c0c565b602002602001015160001462001bfd5760405162461bcd60e51b8152602060048201526012602482015271145d595cdd081b9bdd08199a5b9a5cda195960721b604482015260640162000641565b42816040015160028151811062001c185762001c1862002c0c565b60200260200101818152505084816040015160038151811062001c3f5762001c3f62002c0c565b6020026020010181815250508160800151816040015160048151811062001c6a5762001c6a62002c0c565b602090810291909101015260405163e1e5151d60e01b81526001600160a01b0385169063e1e5151d90620013869084908a90339060040162002e2a565b600081815260056020526040812080546001600160a01b0319166001600160a01b0385161790556008805460ff169162001ce18362002d61565b91906101000a81548160ff021916908360ff160217905550505050565b62001d0862001dd0565b600180546001600160a01b0319166001600160a01b0392909216919091179055565b600060048260405162001d3e919062002ea9565b9081526020016040518091039020549050919050565b62001d5e62001dd0565b6001600160a01b03811662001dc55760405162461bcd60e51b815260206004820152602660248201527f4f776e61626c653a206e6577206f776e657220697320746865207a65726f206160448201526564647265737360d01b606482015260840162000641565b620009e98162001f15565b6000546001600160a01b03163314620015275760405162461bcd60e51b815260206004820181905260248201527f4f776e61626c653a2063616c6c6572206973206e6f7420746865206f776e6572604482015260640162000641565b600062001e3c8260ff1662001e42565b92915050565b600080824233600460405162001e6390646e6f6e636560d81b815260050190565b90815260200160405180910390205460405160200162001ea89392919092835260609190911b6bffffffffffffffffffffffff19166020830152603482015260540190565b6040516020818303038152906040528051906020012060001c62001ecd919062003241565b9050600460405162001eea90646e6f6e636560d81b815260050190565b908152604051908190036020019020805490600062001f098362002eff565b90915550909392505050565b600080546001600160a01b038381166001600160a01b0319831681178455604051919092169283917f8be0079c531659141344cd1fd0a4f28419497f9722a3daafe3b4186f6b6457e09190a35050565b6040805160148082526102a08201909252606091600091906020820161028080368337019050506003546040805160a08101825260008082526060602083018190529282018190528282015260808101919091529192506001600160a01b03169060405163323eae4960e01b8152600060048201526001600160a01b0383169063323eae4990602401600060405180830381865afa1580156200200c573d6000803e3d6000fd5b505050506040513d6000823e601f3d908101601f1916820160405262002036919081019062003264565b905060005b826001600160a01b0316630b01ca3b6040518163ffffffff1660e01b8152600401602060405180830381865afa1580156200207a573d6000803e3d6000fd5b505050506040513d601f19601f82011682018060405250810190620020a0919062003135565b60ff168160ff161015620021c45760405163323eae4960e01b815260ff821660048201526001600160a01b0384169063323eae4990602401600060405180830381865afa158015620020f6573d6000803e3d6000fd5b505050506040513d6000823e601f3d908101601f1916820160405262002120919081019062003264565b5160ff1662002130606462001e2c565b60ff161015620021af5760405163323eae4960e01b815260ff821660048201526001600160a01b0384169063323eae4990602401600060405180830381865afa15801562002182573d6000803e3d6000fd5b505050506040513d6000823e601f3d908101601f19168201604052620021ac919081019062003264565b91505b80620021bb8162002d61565b9150506200203b565b50602081015180518190600090620021e057620021e062002c0c565b602002602001015184600081518110620021fe57620021fe62002c0c565b602002602001019060ff16908160ff16815250508060018151811062002228576200222862002c0c565b60200260200101518460018151811062002246576200224662002c0c565b602002602001019060ff16908160ff16815250508060028151811062002270576200227062002c0c565b6020026020010151846002815181106200228e576200228e62002c0c565b602002602001019060ff16908160ff168152505080600381518110620022b857620022b862002c0c565b602002602001015184600381518110620022d657620022d662002c0c565b602002602001019060ff16908160ff16815250508060048151811062002300576200230062002c0c565b6020026020010151846004815181106200231e576200231e62002c0c565b602002602001019060ff16908160ff16815250508060058151811062002348576200234862002c0c565b60200260200101518460058151811062002366576200236662002c0c565b602002602001019060ff16908160ff168152505060018460078151811062002392576200239262002c0c565b602002602001019060ff16908160ff16815250508584600881518110620023bd57620023bd62002c0c565b602002602001019060ff16908160ff1681525050816040015184600981518110620023ec57620023ec62002c0c565b60ff909216602092830291909101909101525091949350505050565b60408051600a8082526101608201909252606091600091906020820161014080368337019050509050428160008151811062002448576200244862002c0c565b60200260200101818152505083816001815181106200246b576200246b62002c0c565b60200260200101818152505042816002815181106200248e576200248e62002c0c565b6020908102919091010152604051651b995e1d125960d21b815260049060060190815260200160405180910390205481600681518110620024d357620024d362002c0c565b6020026020010181815250508260ff1681600781518110620024f957620024f962002c0c565b60209081029190910101529392505050565b612924806200333d83390190565b6001600160a01b0381168114620009e957600080fd5b600080604083850312156200254357600080fd5b8235620025508162002519565b946020939093013593505050565b60ff81168114620009e957600080fd5b600080604083850312156200258257600080fd5b823562002550816200255e565b600060208284031215620025a257600080fd5b8135620017688162002519565b634e487b7160e01b600052604160045260246000fd5b604051606081016001600160401b0381118282101715620025ea57620025ea620025af565b60405290565b60405160a081016001600160401b0381118282101715620025ea57620025ea620025af565b60405160c081016001600160401b0381118282101715620025ea57620025ea620025af565b604051601f8201601f191681016001600160401b0381118282101715620026655762002665620025af565b604052919050565b60006001600160401b03821115620026895762002689620025af565b50601f01601f191660200190565b600082601f830112620026a957600080fd5b8135620026c0620026ba826200266d565b6200263a565b818152846020838601011115620026d657600080fd5b816020850160208301376000918101602001919091529392505050565b600080604083850312156200270757600080fd5b82356001600160401b038111156200271e57600080fd5b6200272c8582860162002697565b95602094909401359450505050565b6020808252825182820181905260009190848201906040850190845b818110156200277e5783516001600160a01b03168352928401929184019160010162002757565b50909695505050505050565b60005b83811015620027a75781810151838201526020016200278d565b83811115620018b15750506000910152565b60008151808452620027d38160208601602086016200278a565b601f01601f19169290920160200192915050565b602081526000825160a060208401526200280560c0840182620027b9565b9050602084015160408401526040840151606084015260608401516080840152608084015160a08401528091505092915050565b6000602082840312156200284c57600080fd5b5035919050565b6000806000606084860312156200286957600080fd5b8335620028768162002519565b925060208401356001600160401b03808211156200289357600080fd5b620028a18783880162002697565b93506040860135915080821115620028b857600080fd5b50620028c78682870162002697565b9150509250925092565b600060208284031215620028e457600080fd5b81356001600160401b03811115620028fb57600080fd5b62000dd38482850162002697565b6000806000606084860312156200291f57600080fd5b83356200292c816200255e565b925060208401356200293e816200255e565b915060408401356001600160401b038111156200295a57600080fd5b620028c78682870162002697565b600080604083850312156200297c57600080fd5b50508035926020909101359150565b6000602082840312156200299e57600080fd5b8151620017688162002519565b6020808252600e908201526d2737ba103cb7bab9103a37b5b2b760911b604082015260600190565b60006001600160401b03821115620029ef57620029ef620025af565b5060051b60200190565b8051801515811462002a0a57600080fd5b919050565b600082601f83011262002a2157600080fd5b8151602062002a34620026ba83620029d3565b82815260059290921b8401810191818101908684111562002a5457600080fd5b8286015b8481101562002a7c57805162002a6e816200255e565b835291830191830162002a58565b509695505050505050565b600082601f83011262002a9957600080fd5b8151602062002aac620026ba83620029d3565b82815260059290921b8401810191818101908684111562002acc57600080fd5b8286015b8481101562002a7c578051835291830191830162002ad0565b6000602080838503121562002afd57600080fd5b82516001600160401b038082111562002b1557600080fd5b908401906060828703121562002b2a57600080fd5b62002b34620025c5565b82518281111562002b4457600080fd5b8301601f8101881362002b5657600080fd5b805162002b67620026ba82620029d3565b81815260059190911b8201860190868101908a83111562002b8757600080fd5b928701925b8284101562002bb05762002ba084620029f9565b8252928701929087019062002b8c565b8452505050828401518281111562002bc757600080fd5b62002bd58882860162002a0f565b8583015250604083015193508184111562002bef57600080fd5b62002bfd8785850162002a87565b60408201529695505050505050565b634e487b7160e01b600052603260045260246000fd5b634e487b7160e01b600052601160045260246000fd5b600181815b8085111562002c7957816000190482111562002c5d5762002c5d62002c22565b8085161562002c6b57918102915b93841c939080029062002c3d565b509250929050565b60008262002c925750600162001e3c565b8162002ca15750600062001e3c565b816001811462002cba576002811462002cc55762002ce5565b600191505062001e3c565b60ff84111562002cd95762002cd962002c22565b50506001821b62001e3c565b5060208310610133831016604e8410600b841016171562002d0a575081810a62001e3c565b62002d16838362002c38565b806000190482111562002d2d5762002d2d62002c22565b029392505050565b60006200176860ff84168362002c81565b6000821982111562002d5c5762002d5c62002c22565b500190565b600060ff821660ff81141562002d7b5762002d7b62002c22565b60010192915050565b600081518084526020808501945080840160005b8381101562002db857815115158752958201959082019060010162002d98565b509495945050505050565b600081518084526020808501945080840160005b8381101562002db857815160ff168752958201959082019060010162002dd7565b600081518084526020808501945080840160005b8381101562002db85781518752958201959082019060010162002e0c565b606081526000845160608084015262002e4760c084018262002d84565b90506020860151605f198085840301608086015262002e67838362002dc3565b925060408801519150808584030160a08601525062002e87828262002df8565b60208501969096525050506001600160a01b0391909116604090910152919050565b6000825162002ebd8184602087016200278a565b9190910192915050565b60006020828403121562002eda57600080fd5b6200176882620029f9565b60006020828403121562002ef857600080fd5b5051919050565b600060001982141562002f165762002f1662002c22565b5060010190565b600082601f83011262002f2f57600080fd5b815162002f40620026ba826200266d565b81815284602083860101111562002f5657600080fd5b62000dd38260208301602087016200278a565b60006020828403121562002f7c57600080fd5b81516001600160401b038082111562002f9457600080fd5b9083019060a0828603121562002fa957600080fd5b62002fb3620025f0565b82518281111562002fc357600080fd5b62002fd18782860162002f1d565b8252506020830151602082015260408301516040820152606083015160608201526080830151608082015280935050505092915050565b6000602082840312156200301b57600080fd5b81516001600160401b03808211156200303357600080fd5b9083019060c082860312156200304857600080fd5b6200305262002615565b82516200305f816200255e565b8152602083015162003071816200255e565b60208201526040830151828111156200308957600080fd5b620030978782860162002a0f565b6040830152506060830151606082015260808301516080820152620030bf60a08401620029f9565b60a082015295945050505050565b600082821015620030e257620030e262002c22565b500390565b600060ff821660ff84168082101562003104576200310462002c22565b90039392505050565b600060ff821660ff84168060ff038211156200312d576200312d62002c22565b019392505050565b6000602082840312156200314857600080fd5b815162001768816200255e565b600060ff821660ff84168160ff048111821515161562002d2d5762002d2d62002c22565b60a0815260006200318e60a0830188620027b9565b8281036020840152620031a28188620027b9565b6001600160a01b0396871660408501529490951660608301525060ff919091166080909101529392505050565b6001600160a01b038616815260a060208201819052600090620031f59083018762002d84565b828103604084015262003209818762002dc3565b905082810360608401526200321f818662002df8565b90508281036080840152620032358185620027b9565b98975050505050505050565b6000826200325f57634e487b7160e01b600052601260045260246000fd5b500690565b6000602082840312156200327757600080fd5b81516001600160401b03808211156200328f57600080fd5b9083019060a08286031215620032a457600080fd5b620032ae620025f0565b8251620032bb816200255e565b8152602083015182811115620032d057600080fd5b620032de8782860162002a0f565b6020830152506040830151620032f4816200255e565b60408201526200330760608401620029f9565b60608201526080830151828111156200331f57600080fd5b6200332d8782860162002f1d565b6080830152509594505050505056fe60806040523480156200001157600080fd5b50604051620029243803806200292483398101604081905262000034916200022e565b8451859085906200004d906003906020850190620000a2565b50805162000063906004906020840190620000a2565b5050600c80546001600160a01b039586166001600160a01b031991821617909155600d80549490951693169290921790925550600855506200030b9050565b828054620000b090620002ce565b90600052602060002090601f016020900481019282620000d457600085556200011f565b82601f10620000ef57805160ff19168380011785556200011f565b828001600101855582156200011f579182015b828111156200011f57825182559160200191906001019062000102565b506200012d92915062000131565b5090565b5b808211156200012d576000815560010162000132565b634e487b7160e01b600052604160045260246000fd5b600082601f8301126200017057600080fd5b81516001600160401b03808211156200018d576200018d62000148565b604051601f8301601f19908116603f01168101908282118183101715620001b857620001b862000148565b81604052838152602092508683858801011115620001d557600080fd5b600091505b83821015620001f95785820183015181830184015290820190620001da565b838211156200020b5760008385830101525b9695505050505050565b6001600160a01b03811681146200022b57600080fd5b50565b600080600080600060a086880312156200024757600080fd5b85516001600160401b03808211156200025f57600080fd5b6200026d89838a016200015e565b965060208801519150808211156200028457600080fd5b5062000293888289016200015e565b9450506040860151620002a68162000215565b6060870151909350620002b98162000215565b80925050608086015190509295509295909350565b600181811c90821680620002e357607f821691505b602082108114156200030557634e487b7160e01b600052602260045260246000fd5b50919050565b612609806200031b6000396000f3fe6080604052600436106101b75760003560e01c806372a2377f116100ec578063c7f067441161008a578063cd9f092111610064578063cd9f0921146104f6578063dd62ed3e146104fe578063f798e5251461051e578063fd0232b21461053e57600080fd5b8063c7f0674414610489578063ca6d56dc146104a9578063ccf25b4d146104c957600080fd5b806399103d1f116100c657806399103d1f14610409578063a457c2d714610429578063a9059cbb14610449578063aa887bb61461046957600080fd5b806372a2377f146103b25780637c0f6b35146103d257806395d89b41146103f457600080fd5b8063405664881161015957806355f6e5071161013357806355f6e5071461031a5780635d1ca631146103475780636586737a1461035c57806370a082311461037c57600080fd5b806340566488146102c157806341c0e1b5146102e357806344a96ce0146102fa57600080fd5b806323b872dd1161019557806323b872dd146102365780632f54bf6e14610256578063313ce5671461028557806339509351146102a157600080fd5b806306fdde03146101bc578063095ea7b3146101e757806318160ddd14610217575b600080fd5b3480156101c857600080fd5b506101d161056b565b6040516101de9190611f40565b60405180910390f35b3480156101f357600080fd5b50610207610202366004611f76565b6105fd565b60405190151581526020016101de565b34801561022357600080fd5b506002545b6040519081526020016101de565b34801561024257600080fd5b50610207610251366004611fa0565b610617565b34801561026257600080fd5b50610207610271366004611fdc565b600c546001600160a01b0391821691161490565b34801561029157600080fd5b50604051601281526020016101de565b3480156102ad57600080fd5b506102076102bc366004611f76565b61063b565b3480156102cd57600080fd5b506102d661065d565b6040516101de9190612032565b3480156102ef57600080fd5b506102f8610855565b005b34801561030657600080fd5b506102f86103153660046120a4565b6108ab565b34801561032657600080fd5b5061033a610335366004611fdc565b610909565b6040516101de919061210b565b34801561035357600080fd5b50600854610228565b34801561036857600080fd5b506102f86103773660046121bc565b6109d3565b34801561038857600080fd5b50610228610397366004611fdc565b6001600160a01b031660009081526020819052604090205490565b3480156103be57600080fd5b506102f86103cd3660046121f1565b610a6e565b3480156103de57600080fd5b506103e7610bc6565b6040516101de919061220a565b34801561040057600080fd5b506101d1610d27565b34801561041557600080fd5b506102f8610424366004612269565b610d36565b34801561043557600080fd5b50610207610444366004611f76565b610f5b565b34801561045557600080fd5b50610207610464366004611f76565b610fd6565b34801561047557600080fd5b506102f8610484366004611fdc565b610fe4565b34801561049557600080fd5b506102f86104a43660046121f1565b611229565b3480156104b557600080fd5b506102f86104c4366004611fdc565b611336565b3480156104d557600080fd5b506104e96104e436600461233e565b611565565b6040516101de9190612359565b6102f86116f2565b34801561050a57600080fd5b506102286105193660046123f7565b611795565b34801561052a57600080fd5b506102f861053936600461242a565b6117c0565b34801561054a57600080fd5b5061055e6105593660046121f1565b6119ea565b6040516101de9190612454565b60606003805461057a90612467565b80601f01602080910402602001604051908101604052809291908181526020018280546105a690612467565b80156105f35780601f106105c8576101008083540402835291602001916105f3565b820191906000526020600020905b8154815290600101906020018083116105d657829003601f168201915b5050505050905090565b60003361060b818585611ab9565b60019150505b92915050565b600033610625858285611bdd565b610630858585611c57565b506001949350505050565b60003361060b81858561064e8383611795565b61065891906124b2565b611ab9565b6060600b54600014156106b55760408051600080825260208201909252906106af565b604080516060808201835260008083526020830152918101919091528152602001906001900390816106805790505b50905090565b6000600b5467ffffffffffffffff8111156106d2576106d2612119565b60405190808252806020026020018201604052801561071f57816020015b604080516060808201835260008083526020830152918101919091528152602001906001900390816106f05790505b50905060005b600b5481101561084f5760008181526007602052604090205460ff1615156001141561083d576000818152600760209081526040918290208251606081018452815460ff81161515825261010090046001600160a01b03169281019290925260018101805491938492908401919061079c90612467565b80601f01602080910402602001604051908101604052809291908181526020018280546107c890612467565b80156108155780601f106107ea57610100808354040283529160200191610815565b820191906000526020600020905b8154815290600101906020018083116107f857829003601f168201915b505050505081525050838381518110610830576108306124ca565b6020026020010181905250505b80610847816124e0565b915050610725565b50919050565b600c546001600160a01b03163314806108785750600d546001600160a01b031633145b61089d5760405162461bcd60e51b8152600401610894906124fb565b60405180910390fd5b600c546001600160a01b0316ff5b600c546001600160a01b03163314806108ce5750600d546001600160a01b031633145b6108ea5760405162461bcd60e51b8152600401610894906124fb565b6000908152600660205260409020805460ff1916911515919091179055565b610911611e25565b610919611e25565b60005b600a548110156109cc576000818152600660205260409020600401546001600160a01b03858116911614156109ba57600081815260066020908152604091829020825160c081018452815460ff8082161515835261010090910416928101929092526001810154928201929092526002820154606082015260038201546001600160a01b03908116608083015260049092015490911660a082015291505b806109c4816124e0565b91505061091c565b5092915050565b604080516060810182526001808252336020808401918252838501868152600b54600090815260078352959095208451815493516001600160a81b0319909416901515610100600160a81b031916176101006001600160a01b03909416939093029290921782559351805193949193610a53938501929190910190611e5a565b5050600b805491506000610a66836124e0565b919050555050565b60008181526007602052604090205460ff161515600114610ad15760405162461bcd60e51b815260206004820181905260248201527f5468697320696e7669746174696f6e206973206e6f206d6f72652076616c69646044820152606401610894565b6000805b600a54811015610b17576000818152600660205260409020600401546001600160a01b0316331415610b05578091505b80610b0f816124e0565b915050610ad5565b5060008281526007602052604090205461010090046001600160a01b0316331480610b91575060008181526006602052604090205460ff1615156001148015610b91575060008181526006602090815260408083205460ff6101009091048116845260059092529091205464010000000090041615156001145b610bad5760405162461bcd60e51b815260040161089490612523565b506000908152600760205260409020805460ff19169055565b6060600a5460001415610c095760408051600080825260208201909252906106af565b610bf1611e25565b815260200190600190039081610be957905050905090565b6000600a5467ffffffffffffffff811115610c2657610c26612119565b604051908082528060200260200182016040528015610c5f57816020015b610c4c611e25565b815260200190600190039081610c445790505b50905060005b600a5481101561084f5760008181526006602052604090205460ff16151560011415610d1557600081815260066020908152604091829020825160c081018452815460ff8082161515835261010090910416928101929092526001810154928201929092526002820154606082015260038201546001600160a01b03908116608083015260048301541660a08201528351849084908110610d0857610d086124ca565b6020026020010181905250505b80610d1f816124e0565b915050610c65565b60606004805461057a90612467565b600c546001600160a01b0316331480610d595750600d546001600160a01b031633145b610d755760405162461bcd60e51b8152600401610894906124fb565b60008a60ff16118015610d8b5750600a8a60ff16105b610dc65760405162461bcd60e51b815260206004820152600c60248201526b06260408ee4c2c8ca409ac2f60a31b6044820152606401610894565b6040518061012001604052808a15158152602001891515815260200188151581526020018715158152602001861515815260200185151581526020018415158152602001831515815260200182815250600560008c60ff1660ff16815260200190815260200160002060008201518160000160006101000a81548160ff02191690831515021790555060208201518160000160016101000a81548160ff02191690831515021790555060408201518160000160026101000a81548160ff02191690831515021790555060608201518160000160036101000a81548160ff02191690831515021790555060808201518160000160046101000a81548160ff02191690831515021790555060a08201518160000160056101000a81548160ff02191690831515021790555060c08201518160000160066101000a81548160ff02191690831515021790555060e08201518160000160076101000a81548160ff021916908315150217905550610100820151816001019080519060200190610f4c929190611e5a565b50505050505050505050505050565b60003381610f698286611795565b905083811015610fc95760405162461bcd60e51b815260206004820152602560248201527f45524332303a2064656372656173656420616c6c6f77616e63652062656c6f77604482015264207a65726f60d81b6064820152608401610894565b6106308286868403611ab9565b60003361060b818585611c57565b60008060005b600a54811015611055576000818152600660205260409020600401546001600160a01b031633141561101a578092505b6000818152600660205260409020600401546001600160a01b0385811691161415611043578091505b8061104d816124e0565b915050610fea565b5060008281526006602090815260408083205460ff610100909104811684526005909252909120546401000000009004161515600114806110a05750600c546001600160a01b031633145b806110b55750600d546001600160a01b031633145b6110d15760405162461bcd60e51b815260040161089490612565565b6000818152600660205260408082205484835291205460ff6101009283900481169290910416118061110d5750600c546001600160a01b031633145b806111225750600d546001600160a01b031633145b61116e5760405162461bcd60e51b815260206004820152601c60248201527f596f75722072616e6b206973206e6f74206869676820656e6f756768000000006044820152606401610894565b60008181526006602052604090205460ff16151560011480156111a4575060008281526006602052604090205460ff1615156001145b6111c05760405162461bcd60e51b8152600401610894906125ab565b600081815260066020526040808220600481015460029091015491516001600160a01b039091169282156108fc02929190818181858888f1935050505015801561120e573d6000803e3d6000fd5b506000908152600660205260409020805460ff191690555050565b6000805b600a5481101561126f576000818152600660205260409020600401546001600160a01b031633141561125d578091505b80611267816124e0565b91505061122d565b5060008181526006602052604090205460ff1615156001146112a35760405162461bcd60e51b8152600401610894906125ab565b6000818152600660205260409020600201548211156113045760405162461bcd60e51b815260206004820152601a60248201527f4e6f7420656e6f7567746820657468657220696e2063686573740000000000006044820152606401610894565b604051339083156108fc029084906000818181858888f19350505050158015611331573d6000803e3d6000fd5b505050565b60008060005b600a5481101561137e576000818152600660205260409020600401546001600160a01b031633141561136c578092505b80611376816124e0565b91505061133c565b5060005b600b548110156113c9576000818152600760205260409020546001600160a01b038581166101009092041614156113b7578091505b806113c1816124e0565b915050611382565b5060008181526006602052604090205460ff16151560011461141e5760405162461bcd60e51b815260206004820152600e60248201526d155cd95c881b9bdd081d985b1a5960921b6044820152606401610894565b60008281526006602052604090205460ff1615156001148015611471575060008281526006602090815260408083205460ff61010090910481168452600590925290912054630100000090041615156001145b61148d5760405162461bcd60e51b815260040161089490612523565b6040805160c08101825260008082526020808301828152428486019081526060850184815233608087019081526001600160a01b038b811660a08901908152600980548952600690975289882098518954965161ffff1990971690151561ff0019161761010060ff909716969096029590951788559251600188015590516002870155516003860180546001600160a01b0319908116928416929092179055915160049095018054909216941693909317909255838152918220805460ff1916905580549161155b836124e0565b9190505550505050565b604080516101208101825260008082526020820181905291810182905260608082018390526080820183905260a0820183905260c0820183905260e082019290925261010081019190915260ff808316600090815260056020908152604091829020825161012081018452815480861615158252610100808204871615159483019490945262010000810486161515948201949094526301000000840485161515606082015264010000000084048516151560808201526501000000000084048516151560a0820152660100000000000084048516151560c0820152600160381b909304909316151560e08301526001830180549293929184019161166990612467565b80601f016020809104026020016040519081016040528092919081815260200182805461169590612467565b80156116e25780601f106116b7576101008083540402835291602001916116e2565b820191906000526020600020905b8154815290600101906020018083116116c557829003601f168201915b5050505050815250509050919050565b6000805b600a54811015611738576000818152600660205260409020600401546001600160a01b0316331415611726578091505b80611730816124e0565b9150506116f6565b5060008181526006602052604090205460ff16151560011461176c5760405162461bcd60e51b8152600401610894906125ab565b6000818152600660205260408120600201805434929061178d9084906124b2565b909155505050565b6001600160a01b03918216600090815260016020908152604080832093909416825291909152205490565b60008060005b600a54811015611831576000818152600660205260409020600401546001600160a01b03163314156117f6578092505b6000818152600660205260409020600401546001600160a01b038681169116141561181f578091505b80611829816124e0565b9150506117c6565b5060008281526006602090815260408083205460ff61010090910481168452600590925290912054600160381b90041615156001148061187b5750600c546001600160a01b031633145b806118905750600d546001600160a01b031633145b6118ac5760405162461bcd60e51b815260040161089490612565565b60008281526006602052604090205460ff80851661010090920416108015906118f857506000818152600660205260408082205484835291205460ff6101009283900481169290910416115b8061190d5750600c546001600160a01b031633145b806119225750600d546001600160a01b031633145b61196e5760405162461bcd60e51b815260206004820152601c60248201527f596f75722072616e6b206973206e6f74206869676820656e6f756768000000006044820152606401610894565b60008181526006602052604090205460ff16151560011480156119a4575060008281526006602052604090205460ff1615156001145b6119c05760405162461bcd60e51b8152600401610894906125ab565b506000908152600660205260409020805460ff9092166101000261ff001990921691909117905550565b6040805160608082018352600080835260208301529181019190915260008281526007602052604090205460ff161515600114611a695760405162461bcd60e51b815260206004820181905260248201527f5468697320696e7669746174696f6e206973206e6f206d6f72652076616c69646044820152606401610894565b6000828152600760209081526040918290208251606081018452815460ff81161515825261010090046001600160a01b031692810192909252600181018054929391929184019161166990612467565b6001600160a01b038316611b1b5760405162461bcd60e51b8152602060048201526024808201527f45524332303a20617070726f76652066726f6d20746865207a65726f206164646044820152637265737360e01b6064820152608401610894565b6001600160a01b038216611b7c5760405162461bcd60e51b815260206004820152602260248201527f45524332303a20617070726f766520746f20746865207a65726f206164647265604482015261737360f01b6064820152608401610894565b6001600160a01b0383811660008181526001602090815260408083209487168084529482529182902085905590518481527f8c5be1e5ebec7d5bd14f71427d1e84f3dd0314c0f7b2291e5b200ac8c7c3b925910160405180910390a3505050565b6000611be98484611795565b90506000198114611c515781811015611c445760405162461bcd60e51b815260206004820152601d60248201527f45524332303a20696e73756666696369656e7420616c6c6f77616e63650000006044820152606401610894565b611c518484848403611ab9565b50505050565b6001600160a01b038316611cbb5760405162461bcd60e51b815260206004820152602560248201527f45524332303a207472616e736665722066726f6d20746865207a65726f206164604482015264647265737360d81b6064820152608401610894565b6001600160a01b038216611d1d5760405162461bcd60e51b815260206004820152602360248201527f45524332303a207472616e7366657220746f20746865207a65726f206164647260448201526265737360e81b6064820152608401610894565b6001600160a01b03831660009081526020819052604090205481811015611d955760405162461bcd60e51b815260206004820152602660248201527f45524332303a207472616e7366657220616d6f756e7420657863656564732062604482015265616c616e636560d01b6064820152608401610894565b6001600160a01b03808516600090815260208190526040808220858503905591851681529081208054849290611dcc9084906124b2565b92505081905550826001600160a01b0316846001600160a01b03167fddf252ad1be2c89b69c2b068fc378daa952ba7f163c4a11628f55a4df523b3ef84604051611e1891815260200190565b60405180910390a3611c51565b6040805160c081018252600080825260208201819052918101829052606081018290526080810182905260a081019190915290565b828054611e6690612467565b90600052602060002090601f016020900481019282611e885760008555611ece565b82601f10611ea157805160ff1916838001178555611ece565b82800160010185558215611ece579182015b82811115611ece578251825591602001919060010190611eb3565b50611eda929150611ede565b5090565b5b80821115611eda5760008155600101611edf565b6000815180845260005b81811015611f1957602081850181015186830182015201611efd565b81811115611f2b576000602083870101525b50601f01601f19169290920160200192915050565b602081526000611f536020830184611ef3565b9392505050565b80356001600160a01b0381168114611f7157600080fd5b919050565b60008060408385031215611f8957600080fd5b611f9283611f5a565b946020939093013593505050565b600080600060608486031215611fb557600080fd5b611fbe84611f5a565b9250611fcc60208501611f5a565b9150604084013590509250925092565b600060208284031215611fee57600080fd5b611f5382611f5a565b80511515825260018060a01b036020820151166020830152600060408201516060604085015261202a6060850182611ef3565b949350505050565b6000602080830181845280855180835260408601915060408160051b870101925083870160005b8281101561208757603f19888603018452612075858351611ff7565b94509285019290850190600101612059565b5092979650505050505050565b80358015158114611f7157600080fd5b600080604083850312156120b757600080fd5b611f9283612094565b80511515825260208082015160ff169083015260408082015190830152606080820151908301526080808201516001600160a01b039081169184019190915260a09182015116910152565b60c0810161061182846120c0565b634e487b7160e01b600052604160045260246000fd5b600082601f83011261214057600080fd5b813567ffffffffffffffff8082111561215b5761215b612119565b604051601f8301601f19908116603f0116810190828211818310171561218357612183612119565b8160405283815286602085880101111561219c57600080fd5b836020870160208301376000602085830101528094505050505092915050565b6000602082840312156121ce57600080fd5b813567ffffffffffffffff8111156121e557600080fd5b61202a8482850161212f565b60006020828403121561220357600080fd5b5035919050565b6020808252825182820181905260009190848201906040850190845b8181101561224c576122398385516120c0565b9284019260c09290920191600101612226565b50909695505050505050565b803560ff81168114611f7157600080fd5b6000806000806000806000806000806101408b8d03121561228957600080fd5b6122928b612258565b99506122a060208c01612094565b98506122ae60408c01612094565b97506122bc60608c01612094565b96506122ca60808c01612094565b95506122d860a08c01612094565b94506122e660c08c01612094565b93506122f460e08c01612094565b92506123036101008c01612094565b91506101208b013567ffffffffffffffff81111561232057600080fd5b61232c8d828e0161212f565b9150509295989b9194979a5092959850565b60006020828403121561235057600080fd5b611f5382612258565b6020815261236c60208201835115159052565b60006020830151612381604084018215159052565b5060408301518015156060840152506060830151801515608084015250608083015180151560a08401525060a083015180151560c08401525060c083015180151560e08401525060e08301516101006123dd8185018315159052565b84015161012084810152905061202a610140840182611ef3565b6000806040838503121561240a57600080fd5b61241383611f5a565b915061242160208401611f5a565b90509250929050565b6000806040838503121561243d57600080fd5b61244683611f5a565b915061242160208401612258565b602081526000611f536020830184611ff7565b600181811c9082168061247b57607f821691505b6020821081141561084f57634e487b7160e01b600052602260045260246000fd5b634e487b7160e01b600052601160045260246000fd5b600082198211156124c5576124c561249c565b500190565b634e487b7160e01b600052603260045260246000fd5b60006000198214156124f4576124f461249c565b5060010190565b6020808252600e908201526d139bdd081e5bdd5c8819dd5a5b1960921b604082015260600190565b60208082526022908201527f596f757220617265206e6f7420617574686f72697a656420746f20646f207468604082015261697360f01b606082015260800190565b60208082526026908201527f596f75722072616e6b20646f6573206e6f7420617574686f72697a6520757067604082015265726164696e6760d01b606082015260800190565b6020808252600e908201526d2737ba103b30b634b2103ab9b2b960911b60408201526060019056fea26469706673582212208ccf8bbf68f2ee0112a92f4cf156f76d440aba5ef708886e2725ccd9d1a76f1064736f6c634300080b0033a26469706673582212208b8f2a77b8344a93fa46117fc07c40567c3324278647548d5784140337045a4664736f6c634300080b0033",
  "immutableReferences": {},
  "source": "// SPDX-License-Identifier: MIT\n// Delegation contract\npragma solidity ^0.8.0;\n\nimport \"@openzeppelin/contracts/access/Ownable.sol\";\nimport \"./Items.sol\";\nimport \"./Guild.sol\";\nimport \"./Class.sol\";\nimport \"./Quest.sol\";\nimport \"./Hero.sol\";\n\n//enum Numbers {strong,endurance,concentration,agility,charisma,stealth,exp,level,peuple,classe}\n\ncontract DelegateContract is Ownable {\n  constructor(\n    address _addressHero,\n    address _addressQuest,\n    address _addressClass\n  ) {\n    addressHero = _addressHero;\n    addressQuest = _addressQuest;\n    addressClass = _addressClass;\n    paramsContract[\"nextId\"] = Hero(addressHero).getParamsContract(\"nextId\");\n    paramsContract[\"price\"] = 100000000000000000; //dev:100000000000000000000 == 100 eth\n    paramsContract[\"totalPnt\"] = 5;\n    paramsContract[\"tokenLimit\"] = 10000;\n    paramsContract[\"nonce\"] = 0;\n    paramsContract[\"expForLevelUp\"] = 100;\n  }\n\n  address private addressHero;\n  address private addressQuest;\n  address private addressClass;\n  mapping(string => uint256) public paramsContract;\n  mapping(uint256 => address) private items;\n  mapping(address => Guild) private guilds; //address = creator\n  mapping(uint256 => address) private addressGuilds; //address = creator\n  uint8 private countItems;\n  uint8 private countGuilds;\n\n  ///@notice Create a guild by also deleting its contract\n  ///@param _by user for found addresses of your contract by creator mapping\n  ///@param name name of your created contract\n  ///@param symbol name of your created contract\n  function createGuild(\n    address _by,\n    string memory name,\n    string memory symbol\n  ) external {\n    require(address(guilds[_by]) == address(0), \"You already have guild\");\n    guilds[_by] = new Guild(name, symbol, payable(msg.sender), owner(), countGuilds);\n    addressGuilds[countGuilds] = _by;\n    countGuilds++;\n  }\n\n  ///@notice Deleted a guild by also deleting its contract\n  ///@dev ATTENTION, the totality of the ether contained above atters to the creator of the contract\n  ///@param _by user for found addresses of your contract by creator mapping\n  function deleteGuild(address _by) external {\n    require(address(guilds[_by]) != address(0), \"Guild not exist\");\n    require(guilds[_by].isOwner(msg.sender), \"Is not your guild\");\n    guilds[_by].kill();\n    addressGuilds[guilds[_by].getId()] = address(0);\n  }\n\n  ///@notice return one guild by address creator\n  ///@param _by user for found addresses of your contract by creator mapping\n  ///@return addressContract address of the contract guild\n  function getOneGuildAddress(address _by) external view returns (address) {\n    require(address(guilds[_by]) != address(0), \"Guild not exist\");\n    return address(guilds[_by]);\n  }\n\n  ///@notice return all guilds addresses\n  ///@return return an array of address for all guilds created\n  function getAddressesGuilds() external view returns (address[] memory) {\n    address[] memory result = new address[](countGuilds);\n    uint256 resultIndex = 0;\n    uint256 i;\n    for (i = 0; i < countGuilds; i++) {\n      if (addressGuilds[i] != address(0)) {\n        result[resultIndex] = addressGuilds[i];\n        resultIndex++;\n      }\n    }\n    return result;\n  }\n\n  ///@notice Update the destination address of the official contract hero so that the delegation contract can access it\n  ///@param _addressHero address of contract hero\n  function setaddressHero(address _addressHero) external onlyOwner {\n    addressHero = _addressHero;\n  }\n\n  ///@notice Update a parameter of contract\n  ///@param key key index of params contract you want set\n  ///@param value value of params contract you want set\n  function setParamsContract(string memory key, uint256 value) external onlyOwner {\n    paramsContract[key] = value;\n  }\n\n  ///@notice Return a parameter of contract by key index\n  ///@param key key index of param your want to return\n  ///@return param value of parameter contract\n  function getParamsContract(string memory key) external view returns (uint256) {\n    return paramsContract[key];\n  }\n\n  ///@notice Update a parameter of hero contract\n  ///@param key key index of params contract you want set\n  ///@param value value of params contract you want set\n  function setParamsHeroContract(string memory key, uint256 value) internal {\n    Hero contrat = Hero(addressHero);\n    contrat.setParamsContract(key, value);\n  }\n\n  ///@notice Update the destination address of the official contract items so that the delegation contract can access it\n  ///@param item address of contract item\n  ///@param idItem key index of contract item you want to set\n  function setAddressItem(address item, uint256 idItem) external {\n    items[idItem] = item;\n    countItems++;\n  }\n\n  ///@notice return all items addresses\n  ///@return return an array of address for all guilitemsds created\n  function getAddressesItems() external view returns (address[] memory) {\n    address[] memory result = new address[](countItems);\n    uint256 resultIndex = 0;\n    uint256 i;\n    for (i = 0; i < countItems; i++) {\n      result[resultIndex] = items[i];\n      resultIndex++;\n    }\n    return result;\n  }\n\n  ///@notice return item address by key\n  ///@param idItem key index of item you want to retuen\n  ///@return item adress contract item finded\n  function getAddressItem(uint256 idItem) external view returns (address) {\n    return items[idItem];\n  }\n\n  ///@notice return detail of one item\n  ///@param addressItem address of item contract you want to get\n  ///@return item item structure\n  function getItemDetails(address addressItem) external view returns (Items.Item memory) {\n    Items contratItems = Items(addressItem);\n    Items.Item memory itemTemp = contratItems.getItemDetails(msg.sender);\n    return itemTemp;\n  }\n\n  ///@notice balance of item for sender\n  ///@param idItem key index fo item you want to get\n  ///@return balance balance of sender\n  function getBalanceOfItem(uint256 idItem) external view returns (uint256) {\n    Items itemContrat = Items(items[idItem]);\n    return itemContrat.balanceOf(msg.sender);\n  }\n\n  ///@notice purchase of a resource for eth/MATIC\n  ///@param addressItem address of item contract you want to buy\n  ///@param quantity count of item you want purchase\n  function buyItem(address payable addressItem, uint256 quantity) external payable {\n    (bool sent, bytes memory data) = addressItem.call{ value: msg.value }(\n      abi.encodeWithSignature(\"buyItem(uint256,address)\", quantity, msg.sender)\n    );\n    require(sent, \"Failed to send Ether\");\n  }\n\n  ///@notice sell of a resource for eth/MATIC\n  ///@param addressItem address of item contract you want to sell\n  ///@param quantity count of item you want sell\n  function sellItem(address addressItem, uint256 quantity) external {\n    Items itemContrat = Items(addressItem);\n    itemContrat.sellItem(quantity, msg.sender);\n  }\n\n  ///@notice send eth to item contract\n  ///@param addressItem address of item contract you want to interact\n  function depositItem(address addressItem) external payable {\n    (bool sent, bytes memory data) = addressItem.call{ value: msg.value }(\n      abi.encodeWithSignature(\"deposit()\")\n    );\n    require(sent, \"Failed to send Ether\");\n  }\n\n  ///@notice return price of one contract\n  ///@param addressItem address of item contract you want to interact\n  ///@return price price of item\n  function getCurrentPrice(address addressItem) external view returns (uint256) {\n    Items itemContrat = Items(addressItem);\n    return itemContrat.getCurrentPrice();\n  }\n\n  /**\n    appel vers le contrat officiel du jeton\n    Offrir un ou plusieurs token a un utilisateur\n     */\n  // function giveToken(\n  //   address to,\n  //   uint8 generation,\n  //   string memory _tokenUri\n  // ) external onlyOwner {\n  //   require(paramsContract[\"tokenLimit\"] > 0, \"No remaining\");\n  //   bool[] memory booleans = new bool[](20);\n  //   uint8[] memory randomParts = randomParams8(0);\n  //   uint256[] memory randomParams = randomParams256(paramsContract[\"price\"], generation);\n  //   paramsContract[\"nextId\"]++;\n\n  //   Hero contrat = Hero(addressHero);\n  //   contrat.mint(to, booleans, randomParts, randomParams, _tokenUri);\n  // }\n\n  ///@notice mint a hero for a value price and generate stats and parameterr\n  ///@param generation generation of creation hero\n  ///@param peuple peuple with class and stat linked\n  ///@param _tokenUri uri of metadata token hero\n  function mintDelegate(\n    uint8 generation,\n    uint8 peuple,\n    string memory _tokenUri\n  ) external payable {\n    require(msg.value >= paramsContract[\"price\"], \"More ETH required\");\n    require(paramsContract[\"tokenLimit\"] > 0, \"No remaining\");\n    bool[] memory booleans = new bool[](20);\n    uint8[] memory randomParts = randomParams8(peuple);\n    uint256[] memory randomParams = randomParams256(msg.value, generation);\n    paramsContract[\"nextId\"]++;\n\n    Hero contrat = Hero(addressHero);\n    contrat.mint(msg.sender, booleans, randomParts, randomParams, _tokenUri);\n  }\n\n  ///@notice generate stats for your hero in uint8\n  ///@param peuple peuple of hero generated\n  ///@return randomParams array of stats uint8 for hero\n  function randomParams8(uint8 peuple) internal virtual returns (uint8[] memory) {\n    /*uint256 totalPnt = paramsContract[\"totalPnt\"];\n        if(paramsContract[\"nextId\"]<paramsContract[\"maxFirstGen\"]){totalPnt += 3;}else\n        if(paramsContract[\"nextId\"]<paramsContract[\"maxSecondGen\"]){totalPnt += 2;}else\n        if(paramsContract[\"nextId\"]<paramsContract[\"maxthirdGen\"]){totalPnt += 1;}*/\n\n    uint8[] memory randomParts = new uint8[](20);\n\n    Class classContrat = Class(addressClass);\n    Class.Classes memory tempClass;\n    tempClass = classContrat.getClassDetails(0);\n    for (uint8 index = 0; index < classContrat.getClassCount(); index++) {\n      if (random(100) < classContrat.getClassDetails(index).rarity)\n        tempClass = classContrat.getClassDetails(index);\n    }\n    uint8[] memory stats = tempClass.stats;\n\n    randomParts[0] = stats[0]; //strong\n    randomParts[1] = stats[1]; //endurance\n    randomParts[2] = stats[2]; //concentration\n    randomParts[3] = stats[3]; //agility\n    randomParts[4] = stats[4]; //charisma\n    randomParts[5] = stats[5]; //stealth\n    //randomParts[6] = 0;//exp\n    randomParts[7] = 1; //level\n    randomParts[8] = peuple; //peuple\n    randomParts[9] = tempClass.id; //class\n\n    return randomParts;\n  }\n\n  ///@notice generate parameter for your hero in uint256\n  ///@param price price of buying hero\n  ///@param generation generation fo hero\n  ///@return randomParams array of parameters uint256 for hero\n  function randomParams256(uint256 price, uint8 generation)\n    internal\n    virtual\n    returns (uint256[] memory)\n  {\n    uint256[] memory randomParams = new uint256[](10);\n    randomParams[0] = block.timestamp; //date de cration\n    randomParams[1] = price; //prix d'achat\n    randomParams[2] = block.timestamp; //date de la drnire action (il y a une heure) permettant de participer a des missions\n    //randomParams[3] = 0;//Mission choisis (si 0 aucune current mission)\n    //randomParams[4] = 0;//seconds pour finir la mission\n    //randomParams[5] = 0;//difficult de la qute (dtermine l'exp gagn, et les objets % gagn)\n    randomParams[6] = paramsContract[\"nextId\"]; //tokenId\n    randomParams[7] = generation; //type\n    return randomParams;\n  }\n\n  ///@notice start a quest by id for one hero token\n  ///@param tokenId id of token you want to launch in quest\n  ///@param questId id of quest you want to start\n  function startQuest(uint256 tokenId, uint256 questId) external {\n    Hero contrat = Hero(addressHero);\n    require(contrat.getOwnerOf(tokenId) == msg.sender, \"Not your token\");\n    Quest questContrat = Quest(addressQuest);\n    Quest.Quest memory questTemp = questContrat.getQuestDetails(questId);\n    Hero.Token memory tokenTemp = contrat.getTokenDetails(tokenId);\n    require(tokenTemp.params256[4] == 0, \"Quest not finished\");\n    tokenTemp.params256[2] = block.timestamp;\n    tokenTemp.params256[3] = questId;\n    tokenTemp.params256[4] = questTemp.time;\n    contrat.updateToken(tokenTemp, tokenId, msg.sender);\n  }\n\n  ///@notice Validation of the quest at the end of a quest\n  ///@param tokenId id of token you want to complete quest\n  function completeQuest(uint256 tokenId) external {\n    Hero contrat = Hero(addressHero);\n    require(contrat.getOwnerOf(tokenId) == msg.sender, \"Not your token\");\n    Hero.Token memory tokenTemp = contrat.getTokenDetails(tokenId);\n\n    Quest questContrat = Quest(addressQuest);\n    Quest.Quest memory questTemp = questContrat.getQuestDetails(tokenTemp.params256[3]);\n    require(\n      block.timestamp - tokenTemp.params256[2] > (questTemp.time),\n      \"Quest not finished\"\n    );\n    uint8 malus = 0;\n    for (uint8 index = 0; index < questTemp.stats.length; index++) {\n      if (questTemp.stats[index] > tokenTemp.params8[index]) {\n        malus += questTemp.stats[index] - tokenTemp.params8[index];\n      }\n    }\n    if (random(100 - malus) > questTemp.percentDifficulty) {\n      tokenTemp.params8[6] += questTemp.exp * questContrat.getMultiplicateurExp();\n\n      for (uint256 index = 0; index < countItems; index++) {\n        Items itemtemp = Items(items[index]);\n        if (random256(100000) > itemtemp.getRarity()) {\n          itemtemp.mint(1, msg.sender);\n        }\n      }\n    }\n    tokenTemp.params256[2] = block.timestamp;\n    tokenTemp.params256[3] = 0;\n    tokenTemp.params256[4] = 0;\n\n    contrat.updateToken(tokenTemp, tokenId, msg.sender);\n  }\n\n  ///@notice level up hero and increment one stat\n  ///@param statToLvlUp id of stat you wan increment\n  ///@param tokenId id of token you want level up\n  function levelUp(uint8 statToLvlUp, uint256 tokenId) external {\n    Hero contrat = Hero(addressHero);\n    require(contrat.getOwnerOf(tokenId) == msg.sender, \"Not your token\");\n    Hero.Token memory tokenTemp = contrat.getTokenDetails(tokenId);\n    require(\n      tokenTemp.params8[6] >\n        (100 + (paramsContract[\"expForLevelUp\"]**tokenTemp.params8[7])),\n      \"experience not enought\"\n    );\n    tokenTemp.params8[statToLvlUp]++;\n    tokenTemp.params8[6] = 0;\n    tokenTemp.params8[7]++;\n\n    contrat.updateToken(tokenTemp, tokenId, msg.sender);\n  }\n\n  /**\n    a finaliser\n     */\n  /*function calculPriceSupply() public{\n        Hero contrat = Hero(addressHero);\n        uint totalSupply = contrat.getParamsContract(\"totalSupply\");\n        //priceInUsd = (item.price/(10**18)) * (latestPrice/10**8)\n    }*/\n\n  /**\n    appel vers le contrat officiel du jeton\n    Modifier les paramtre d'un token et l'envoy au contrat de token pour le mttre a jour\n     */\n  /*function paramsToken(uint256 tokenId,bool[] memory booleans, uint8[] memory params8, uint256[] memory params256) external {\n        \n        Hero contrat = Hero(addressHero);\n        Hero.Token memory tokenTemp =  contrat.getTokenDetails(tokenId);\n        //if(tokenTemp.params256[2] != params256[2]) tokenTemp.params256[0] = block.timestamp;//mettre a jour la date de cration si besoin\n        for (uint8 index = 0; index < booleans.length; index++) {\n            tokenTemp.booleans[index] = booleans[index];\n        }\n        for (uint8 index = 0; index < params8.length; index++) {\n            tokenTemp.params8[index] = params8[index];\n        }\n        for (uint8 index = 0; index < params256.length; index++) {\n            tokenTemp.params256[index] = params256[index];\n        }\n        contrat.updateToken(tokenTemp,tokenId,msg.sender);\n    }*/\n\n  /**\n    appel vers le contrat officiel du jeton\n    Achat d'un token par un utilisateur\n     */\n  /*function purchase(address contactAddr, uint256 tokenId) external payable {\n        Hero contrat = Hero(addressHero);\n        Hero.Token memory token = contrat.getTokenDetails(tokenId);\n        require(msg.value >= token.params256[1], \"Insufficient fonds sent\");\n        require(contrat.getOwnerOf(tokenId) != msg.sender, \"Already Owned\");\n        //contrat.updateToken(token,tokenId,msg.sender);\n        contrat.transfer(contactAddr, msg.sender, tokenId);\n    }*/\n\n  /****************************************\n    UTILS\n     ****************************************/\n\n  ///@notice return random number\n  ///@param maxNumber max number random to return\n  ///@return randomNumber random uint256 returned\n  function random(uint8 maxNumber) internal returns (uint8) {\n    return uint8(random256(uint8(maxNumber)));\n  }\n\n  ///@notice return random number\n  ///@param maxNumber max number random to return\n  ///@return randomNumber random uint256 returned\n  function random256(uint256 maxNumber) internal returns (uint256) {\n    uint256 randomNumber = uint256(\n      keccak256(abi.encodePacked(block.timestamp, msg.sender, paramsContract[\"nonce\"]))\n    ) % maxNumber;\n    paramsContract[\"nonce\"]++;\n    return randomNumber;\n  }\n\n  /*FUNDS OF CONTRACT*/\n\n  function withdraw() external onlyOwner {\n    payable(msg.sender).transfer(address(this).balance);\n  }\n}\n",
  "sourcePath": "/home/kevin/Bureau/homework/MYOS/contracts/DelegateContract.sol",
  "compiler": {
    "name": "solc",
    "version": "0.8.11+commit.d7f03943.Emscripten.clang"
  },
  "schemaVersion": "3.4.7",
  "updatedAt": "2022-10-31T22:36:34.841Z",
  "devdoc": {
    "kind": "dev",
    "methods": {
      "buyItem(address,uint256)": {
        "params": {
          "addressItem": "address of item contract you want to buy",
          "quantity": "count of item you want purchase"
        }
      },
      "completeQuest(uint256)": {
        "params": {
          "tokenId": "id of token you want to complete quest"
        }
      },
      "createGuild(address,string,string)": {
        "params": {
          "_by": "user for found addresses of your contract by creator mapping",
          "name": "name of your created contract",
          "symbol": "name of your created contract"
        }
      },
      "deleteGuild(address)": {
        "details": "ATTENTION, the totality of the ether contained above atters to the creator of the contract",
        "params": {
          "_by": "user for found addresses of your contract by creator mapping"
        }
      },
      "depositItem(address)": {
        "params": {
          "addressItem": "address of item contract you want to interact"
        }
      },
      "getAddressItem(uint256)": {
        "params": {
          "idItem": "key index of item you want to retuen"
        },
        "returns": {
          "_0": "item adress contract item finded"
        }
      },
      "getAddressesGuilds()": {
        "returns": {
          "_0": "return an array of address for all guilds created"
        }
      },
      "getAddressesItems()": {
        "returns": {
          "_0": "return an array of address for all guilitemsds created"
        }
      },
      "getBalanceOfItem(uint256)": {
        "params": {
          "idItem": "key index fo item you want to get"
        },
        "returns": {
          "_0": "balance balance of sender"
        }
      },
      "getCurrentPrice(address)": {
        "params": {
          "addressItem": "address of item contract you want to interact"
        },
        "returns": {
          "_0": "price price of item"
        }
      },
      "getItemDetails(address)": {
        "params": {
          "addressItem": "address of item contract you want to get"
        },
        "returns": {
          "_0": "item item structure"
        }
      },
      "getOneGuildAddress(address)": {
        "params": {
          "_by": "user for found addresses of your contract by creator mapping"
        },
        "returns": {
          "_0": "addressContract address of the contract guild"
        }
      },
      "getParamsContract(string)": {
        "params": {
          "key": "key index of param your want to return"
        },
        "returns": {
          "_0": "param value of parameter contract"
        }
      },
      "levelUp(uint8,uint256)": {
        "params": {
          "statToLvlUp": "id of stat you wan increment",
          "tokenId": "id of token you want level up"
        }
      },
      "mintDelegate(uint8,uint8,string)": {
        "params": {
          "_tokenUri": "uri of metadata token hero",
          "generation": "generation of creation hero",
          "peuple": "peuple with class and stat linked"
        }
      },
      "owner()": {
        "details": "Returns the address of the current owner."
      },
      "renounceOwnership()": {
        "details": "Leaves the contract without owner. It will not be possible to call `onlyOwner` functions anymore. Can only be called by the current owner. NOTE: Renouncing ownership will leave the contract without an owner, thereby removing any functionality that is only available to the owner."
      },
      "sellItem(address,uint256)": {
        "params": {
          "addressItem": "address of item contract you want to sell",
          "quantity": "count of item you want sell"
        }
      },
      "setAddressItem(address,uint256)": {
        "params": {
          "idItem": "key index of contract item you want to set",
          "item": "address of contract item"
        }
      },
      "setParamsContract(string,uint256)": {
        "params": {
          "key": "key index of params contract you want set",
          "value": "value of params contract you want set"
        }
      },
      "setaddressHero(address)": {
        "params": {
          "_addressHero": "address of contract hero"
        }
      },
      "startQuest(uint256,uint256)": {
        "params": {
          "questId": "id of quest you want to start",
          "tokenId": "id of token you want to launch in quest"
        }
      },
      "transferOwnership(address)": {
        "details": "Transfers ownership of the contract to a new account (`newOwner`). Can only be called by the current owner."
      }
    },
    "version": 1
  },
  "userdoc": {
    "kind": "user",
    "methods": {
      "buyItem(address,uint256)": {
        "notice": "purchase of a resource for eth/MATIC"
      },
      "completeQuest(uint256)": {
        "notice": "Validation of the quest at the end of a quest"
      },
      "createGuild(address,string,string)": {
        "notice": "Create a guild by also deleting its contract"
      },
      "deleteGuild(address)": {
        "notice": "Deleted a guild by also deleting its contract"
      },
      "depositItem(address)": {
        "notice": "send eth to item contract"
      },
      "getAddressItem(uint256)": {
        "notice": "return item address by key"
      },
      "getAddressesGuilds()": {
        "notice": "return all guilds addresses"
      },
      "getAddressesItems()": {
        "notice": "return all items addresses"
      },
      "getBalanceOfItem(uint256)": {
        "notice": "balance of item for sender"
      },
      "getCurrentPrice(address)": {
        "notice": "return price of one contract"
      },
      "getItemDetails(address)": {
        "notice": "return detail of one item"
      },
      "getOneGuildAddress(address)": {
        "notice": "return one guild by address creator"
      },
      "getParamsContract(string)": {
        "notice": "Return a parameter of contract by key index"
      },
      "levelUp(uint8,uint256)": {
        "notice": "level up hero and increment one stat"
      },
      "mintDelegate(uint8,uint8,string)": {
        "notice": "mint a hero for a value price and generate stats and parameterr"
      },
      "sellItem(address,uint256)": {
        "notice": "sell of a resource for eth/MATIC"
      },
      "setAddressItem(address,uint256)": {
        "notice": "Update the destination address of the official contract items so that the delegation contract can access it"
      },
      "setParamsContract(string,uint256)": {
        "notice": "Update a parameter of contract"
      },
      "setaddressHero(address)": {
        "notice": "Update the destination address of the official contract hero so that the delegation contract can access it"
      },
      "startQuest(uint256,uint256)": {
        "notice": "start a quest by id for one hero token"
      }
    },
    "version": 1
  }
}