{
  "contractName": "DelegateContract",
  "abi": [
    {
      "inputs": [
        {
          "internalType": "address",
          "name": "_addressContract",
          "type": "address"
        },
        {
          "internalType": "address",
          "name": "_addressQuest",
          "type": "address"
        },
        {
          "internalType": "address",
          "name": "_addressClassContract",
          "type": "address"
        }
      ],
      "stateMutability": "nonpayable",
      "type": "constructor"
    },
    {
      "anonymous": false,
      "inputs": [
        {
          "indexed": true,
          "internalType": "address",
          "name": "previousOwner",
          "type": "address"
        },
        {
          "indexed": true,
          "internalType": "address",
          "name": "newOwner",
          "type": "address"
        }
      ],
      "name": "OwnershipTransferred",
      "type": "event"
    },
    {
      "inputs": [],
      "name": "owner",
      "outputs": [
        {
          "internalType": "address",
          "name": "",
          "type": "address"
        }
      ],
      "stateMutability": "view",
      "type": "function"
    },
    {
      "inputs": [],
      "name": "renounceOwnership",
      "outputs": [],
      "stateMutability": "nonpayable",
      "type": "function"
    },
    {
      "inputs": [
        {
          "internalType": "address",
          "name": "newOwner",
          "type": "address"
        }
      ],
      "name": "transferOwnership",
      "outputs": [],
      "stateMutability": "nonpayable",
      "type": "function"
    },
    {
      "inputs": [
        {
          "internalType": "address",
          "name": "_by",
          "type": "address"
        },
        {
          "internalType": "string",
          "name": "name",
          "type": "string"
        },
        {
          "internalType": "string",
          "name": "symbol",
          "type": "string"
        }
      ],
      "name": "createGuild",
      "outputs": [],
      "stateMutability": "nonpayable",
      "type": "function"
    },
    {
      "inputs": [
        {
          "internalType": "address",
          "name": "_by",
          "type": "address"
        }
      ],
      "name": "deleteGuild",
      "outputs": [],
      "stateMutability": "nonpayable",
      "type": "function"
    },
    {
      "inputs": [
        {
          "internalType": "address",
          "name": "_by",
          "type": "address"
        }
      ],
      "name": "getOneGuildAddress",
      "outputs": [
        {
          "internalType": "address",
          "name": "",
          "type": "address"
        }
      ],
      "stateMutability": "view",
      "type": "function"
    },
    {
      "inputs": [],
      "name": "getAddressGuilds",
      "outputs": [
        {
          "internalType": "address[]",
          "name": "",
          "type": "address[]"
        }
      ],
      "stateMutability": "view",
      "type": "function"
    },
    {
      "inputs": [
        {
          "internalType": "address",
          "name": "_addressContract",
          "type": "address"
        }
      ],
      "name": "setAddressContract",
      "outputs": [],
      "stateMutability": "nonpayable",
      "type": "function"
    },
    {
      "inputs": [
        {
          "internalType": "string",
          "name": "keyParams",
          "type": "string"
        },
        {
          "internalType": "uint256",
          "name": "valueParams",
          "type": "uint256"
        }
      ],
      "name": "setParamsContract",
      "outputs": [],
      "stateMutability": "nonpayable",
      "type": "function"
    },
    {
      "inputs": [
        {
          "internalType": "string",
          "name": "keyParams",
          "type": "string"
        }
      ],
      "name": "getParamsContract",
      "outputs": [
        {
          "internalType": "uint256",
          "name": "",
          "type": "uint256"
        }
      ],
      "stateMutability": "view",
      "type": "function"
    },
    {
      "inputs": [
        {
          "internalType": "address",
          "name": "item",
          "type": "address"
        },
        {
          "internalType": "uint256",
          "name": "idItem",
          "type": "uint256"
        }
      ],
      "name": "setAddressItem",
      "outputs": [],
      "stateMutability": "nonpayable",
      "type": "function"
    },
    {
      "inputs": [],
      "name": "getAddressItems",
      "outputs": [
        {
          "internalType": "address[]",
          "name": "",
          "type": "address[]"
        }
      ],
      "stateMutability": "view",
      "type": "function"
    },
    {
      "inputs": [
        {
          "internalType": "uint256",
          "name": "idItem",
          "type": "uint256"
        }
      ],
      "name": "getAddressItem",
      "outputs": [
        {
          "internalType": "address",
          "name": "",
          "type": "address"
        }
      ],
      "stateMutability": "view",
      "type": "function"
    },
    {
      "inputs": [
        {
          "internalType": "address",
          "name": "addressItem",
          "type": "address"
        }
      ],
      "name": "getParamsItem",
      "outputs": [
        {
          "components": [
            {
              "internalType": "string",
              "name": "name",
              "type": "string"
            },
            {
              "internalType": "uint256",
              "name": "rarity",
              "type": "uint256"
            },
            {
              "internalType": "uint256",
              "name": "currentPrice",
              "type": "uint256"
            },
            {
              "internalType": "uint256",
              "name": "myBalance",
              "type": "uint256"
            },
            {
              "internalType": "uint256",
              "name": "allBalance",
              "type": "uint256"
            }
          ],
          "internalType": "struct Items.Item",
          "name": "",
          "type": "tuple"
        }
      ],
      "stateMutability": "view",
      "type": "function"
    },
    {
      "inputs": [
        {
          "internalType": "uint256",
          "name": "idItem",
          "type": "uint256"
        }
      ],
      "name": "getBalanceOfItem",
      "outputs": [
        {
          "internalType": "uint256",
          "name": "",
          "type": "uint256"
        }
      ],
      "stateMutability": "view",
      "type": "function"
    },
    {
      "inputs": [
        {
          "internalType": "address payable",
          "name": "addressItem",
          "type": "address"
        },
        {
          "internalType": "uint256",
          "name": "value",
          "type": "uint256"
        }
      ],
      "name": "buyItem",
      "outputs": [],
      "stateMutability": "payable",
      "type": "function"
    },
    {
      "inputs": [
        {
          "internalType": "address",
          "name": "addressItem",
          "type": "address"
        },
        {
          "internalType": "uint256",
          "name": "value",
          "type": "uint256"
        }
      ],
      "name": "sellItem",
      "outputs": [],
      "stateMutability": "nonpayable",
      "type": "function"
    },
    {
      "inputs": [
        {
          "internalType": "address",
          "name": "addressItem",
          "type": "address"
        }
      ],
      "name": "depositItem",
      "outputs": [],
      "stateMutability": "payable",
      "type": "function"
    },
    {
      "inputs": [
        {
          "internalType": "address",
          "name": "addressItem",
          "type": "address"
        }
      ],
      "name": "getCurrentPrice",
      "outputs": [
        {
          "internalType": "uint256",
          "name": "",
          "type": "uint256"
        }
      ],
      "stateMutability": "view",
      "type": "function"
    },
    {
      "inputs": [
        {
          "internalType": "address",
          "name": "to",
          "type": "address"
        },
        {
          "internalType": "uint8",
          "name": "generation",
          "type": "uint8"
        },
        {
          "internalType": "string",
          "name": "_tokenUri",
          "type": "string"
        }
      ],
      "name": "giveToken",
      "outputs": [],
      "stateMutability": "nonpayable",
      "type": "function"
    },
    {
      "inputs": [
        {
          "internalType": "uint8",
          "name": "generation",
          "type": "uint8"
        },
        {
          "internalType": "uint8",
          "name": "peuple",
          "type": "uint8"
        },
        {
          "internalType": "string",
          "name": "_tokenUri",
          "type": "string"
        }
      ],
      "name": "mintDelegate",
      "outputs": [],
      "stateMutability": "payable",
      "type": "function"
    },
    {
      "inputs": [
        {
          "internalType": "uint256",
          "name": "tokenId",
          "type": "uint256"
        },
        {
          "internalType": "uint256",
          "name": "questId",
          "type": "uint256"
        }
      ],
      "name": "startQuest",
      "outputs": [],
      "stateMutability": "nonpayable",
      "type": "function"
    },
    {
      "inputs": [
        {
          "internalType": "uint256",
          "name": "tokenId",
          "type": "uint256"
        }
      ],
      "name": "completeQuest",
      "outputs": [],
      "stateMutability": "nonpayable",
      "type": "function"
    },
    {
      "inputs": [
        {
          "internalType": "uint8",
          "name": "questId",
          "type": "uint8"
        }
      ],
      "name": "getQuest",
      "outputs": [
        {
          "components": [
            {
              "internalType": "uint8",
              "name": "exp",
              "type": "uint8"
            },
            {
              "internalType": "uint8",
              "name": "percentDifficulty",
              "type": "uint8"
            },
            {
              "internalType": "uint8[]",
              "name": "stats",
              "type": "uint8[]"
            },
            {
              "internalType": "uint256",
              "name": "id",
              "type": "uint256"
            },
            {
              "internalType": "uint256",
              "name": "time",
              "type": "uint256"
            },
            {
              "internalType": "bool",
              "name": "valid",
              "type": "bool"
            }
          ],
          "internalType": "struct Quest.Quest",
          "name": "",
          "type": "tuple"
        }
      ],
      "stateMutability": "view",
      "type": "function"
    },
    {
      "inputs": [
        {
          "internalType": "uint8",
          "name": "statToLvlUp",
          "type": "uint8"
        },
        {
          "internalType": "uint256",
          "name": "tokenId",
          "type": "uint256"
        }
      ],
      "name": "levelUp",
      "outputs": [],
      "stateMutability": "nonpayable",
      "type": "function"
    },
    {
      "inputs": [
        {
          "internalType": "address",
          "name": "contactAddr",
          "type": "address"
        },
        {
          "internalType": "uint256",
          "name": "tokenId",
          "type": "uint256"
        }
      ],
      "name": "transfer",
      "outputs": [],
      "stateMutability": "payable",
      "type": "function"
    },
    {
      "inputs": [
        {
          "internalType": "address",
          "name": "user",
          "type": "address"
        }
      ],
      "name": "getAllTokensForUser",
      "outputs": [
        {
          "internalType": "uint256[]",
          "name": "",
          "type": "uint256[]"
        }
      ],
      "stateMutability": "view",
      "type": "function"
    },
    {
      "inputs": [
        {
          "internalType": "uint256",
          "name": "tokenId",
          "type": "uint256"
        }
      ],
      "name": "getTokenDetails",
      "outputs": [
        {
          "components": [
            {
              "internalType": "bool[]",
              "name": "booleans",
              "type": "bool[]"
            },
            {
              "internalType": "uint8[]",
              "name": "params8",
              "type": "uint8[]"
            },
            {
              "internalType": "uint256[]",
              "name": "params256",
              "type": "uint256[]"
            }
          ],
          "internalType": "struct Hero.Token",
          "name": "",
          "type": "tuple"
        }
      ],
      "stateMutability": "view",
      "type": "function"
    },
    {
      "inputs": [
        {
          "internalType": "uint256",
          "name": "price",
          "type": "uint256"
        }
      ],
      "name": "setCurrentPriceMYOS",
      "outputs": [],
      "stateMutability": "nonpayable",
      "type": "function"
    },
    {
      "inputs": [
        {
          "internalType": "uint256",
          "name": "value",
          "type": "uint256"
        },
        {
          "internalType": "address",
          "name": "sender",
          "type": "address"
        }
      ],
      "name": "buyMYOS",
      "outputs": [],
      "stateMutability": "payable",
      "type": "function"
    },
    {
      "inputs": [
        {
          "internalType": "uint256",
          "name": "value",
          "type": "uint256"
        }
      ],
      "name": "sellMYOS",
      "outputs": [],
      "stateMutability": "nonpayable",
      "type": "function"
    },
    {
      "inputs": [
        {
          "internalType": "uint256",
          "name": "value",
          "type": "uint256"
        },
        {
          "internalType": "address",
          "name": "anotherToken",
          "type": "address"
        }
      ],
      "name": "convertMYOSToAnotherToken",
      "outputs": [],
      "stateMutability": "nonpayable",
      "type": "function"
    },
    {
      "inputs": [],
      "name": "getDynamicPriceMYOS",
      "outputs": [
        {
          "internalType": "uint256",
          "name": "",
          "type": "uint256"
        }
      ],
      "stateMutability": "view",
      "type": "function"
    },
    {
      "inputs": [],
      "name": "withdraw",
      "outputs": [],
      "stateMutability": "nonpayable",
      "type": "function"
    },
    {
      "inputs": [],
      "name": "deposit",
      "outputs": [],
      "stateMutability": "payable",
      "type": "function"
    },
    {
      "inputs": [],
      "name": "getBalance",
      "outputs": [
        {
          "internalType": "uint256",
          "name": "",
          "type": "uint256"
        }
      ],
      "stateMutability": "view",
      "type": "function"
    }
  ],
  "bytecode": "0x60806040523480156200001157600080fd5b506040516200c66b3803806200c66b8339818101604052810190620000379190620003af565b620000576200004b620002b560201b60201c565b620002bd60201b60201c565b82600160006101000a81548173ffffffffffffffffffffffffffffffffffffffff021916908373ffffffffffffffffffffffffffffffffffffffff16021790555081600260006101000a81548173ffffffffffffffffffffffffffffffffffffffff021916908373ffffffffffffffffffffffffffffffffffffffff16021790555080600360006101000a81548173ffffffffffffffffffffffffffffffffffffffff021916908373ffffffffffffffffffffffffffffffffffffffff1602179055506000600160009054906101000a900473ffffffffffffffffffffffffffffffffffffffff1690508073ffffffffffffffffffffffffffffffffffffffff1663f26bf0b76040518163ffffffff1660e01b81526004016200017a9062000689565b60206040518083038186803b1580156200019357600080fd5b505afa158015620001a8573d6000803e3d6000fd5b505050506040513d601f19601f82011682018060405250810190620001ce919062000405565b6005604051620001de906200062d565b90815260200160405180910390208190555067016345785d8a00006005604051620002099062000616565b9081526020016040518091039020819055506005806040516200022c90620005ff565b9081526020016040518091039020819055506127106005604051620002519062000672565b90815260200160405180910390208190555060006005604051620002759062000644565b9081526020016040518091039020819055506064600560405162000299906200065b565b9081526020016040518091039020819055505050505062000739565b600033905090565b60008060009054906101000a900473ffffffffffffffffffffffffffffffffffffffff169050816000806101000a81548173ffffffffffffffffffffffffffffffffffffffff021916908373ffffffffffffffffffffffffffffffffffffffff1602179055508173ffffffffffffffffffffffffffffffffffffffff168173ffffffffffffffffffffffffffffffffffffffff167f8be0079c531659141344cd1fd0a4f28419497f9722a3daafe3b4186f6b6457e060405160405180910390a35050565b600081519050620003928162000705565b92915050565b600081519050620003a9816200071f565b92915050565b600080600060608486031215620003c557600080fd5b6000620003d58682870162000381565b9350506020620003e88682870162000381565b9250506040620003fb8682870162000381565b9150509250925092565b6000602082840312156200041857600080fd5b6000620004288482850162000398565b91505092915050565b600062000440600883620006bc565b91507f746f74616c506e740000000000000000000000000000000000000000000000006000830152600882019050919050565b600062000482600583620006bc565b91507f70726963650000000000000000000000000000000000000000000000000000006000830152600582019050919050565b6000620004c4600683620006ab565b91507f6e657874496400000000000000000000000000000000000000000000000000006000830152602082019050919050565b600062000506600683620006bc565b91507f6e657874496400000000000000000000000000000000000000000000000000006000830152600682019050919050565b600062000548600583620006bc565b91507f6e6f6e63650000000000000000000000000000000000000000000000000000006000830152600582019050919050565b60006200058a600d83620006bc565b91507f657870466f724c6576656c5570000000000000000000000000000000000000006000830152600d82019050919050565b6000620005cc600a83620006bc565b91507f746f6b656e4c696d6974000000000000000000000000000000000000000000006000830152600a82019050919050565b60006200060c8262000431565b9150819050919050565b6000620006238262000473565b9150819050919050565b60006200063a82620004f7565b9150819050919050565b6000620006518262000539565b9150819050919050565b600062000668826200057b565b9150819050919050565b60006200067f82620005bd565b9150819050919050565b60006020820190508181036000830152620006a481620004b5565b9050919050565b600082825260208201905092915050565b600081905092915050565b6000620006d482620006db565b9050919050565b600073ffffffffffffffffffffffffffffffffffffffff82169050919050565b6000819050919050565b6200071081620006c7565b81146200071c57600080fd5b50565b6200072a81620006fb565b81146200073657600080fd5b50565b61bf2280620007496000396000f3fe608060405260043610620002425760003560e01c8063994c7cbe1162000133578063c3c33b4011620000af578063e0f0b85a1162000079578063e0f0b85a1462000811578063f26bf0b7146200083f578063f2925a331462000883578063f2fde38b14620008a3578063fa4f8ab814620008d15762000242565b8063c3c33b401462000765578063d0e30db01462000793578063d6b730d2146200079f578063dec7431214620007cd5762000242565b8063ae3c14a311620000fd578063ae3c14a3146200063b578063af538c36146200066b578063afc1f2c014620006af578063b77f02e814620006dd578063c1e0372814620007215762000242565b8063994c7cbe14620005895780639f37092a14620005cd578063a36d3e6b14620005ed578063a9059cbb146200061b5762000242565b80634ea01f5611620001c35780637a53d06e116200018d5780637a53d06e146200048357806382de8fe914620004a357806384cc315b14620004e75780638d8ac43d146200052b5780638da5cb5b14620005595762000242565b80634ea01f5614620003c9578063528be0a9146200040d578063586e2ee4146200043b578063715018a614620004695762000242565b80631408a32c11620002115780631408a32c14620003035780631d9e861e14620003335780633cb1194414620003535780633ccfd60b146200038157806342c3e358146200039b5762000242565b806308d56ad01462000247578063096c5e1a14620002775780630b275db414620002a557806312065fe014620002d3575b600080fd5b3480156200025457600080fd5b506200025f620008ff565b6040516200026e919062006441565b60405180910390f35b3480156200028457600080fd5b50620002a360048036038101906200029d919062005284565b62000ae7565b005b348015620002b257600080fd5b50620002d16004803603810190620002cb91906200568a565b62000b62565b005b348015620002e057600080fd5b50620002eb62000fbd565b604051620002fa919062006769565b60405180910390f35b3480156200031057600080fd5b506200031b62000fc5565b6040516200032a919062006441565b60405180910390f35b6200035160048036038101906200034b919062005163565b62001144565b005b3480156200036057600080fd5b506200037f6004803603810190620003799190620053ea565b62001282565b005b3480156200038e57600080fd5b50620003996200132e565b005b348015620003a857600080fd5b50620003c76004803603810190620003c1919062005163565b620013fb565b005b348015620003d657600080fd5b50620003f56004803603810190620003ef919062005632565b620017f4565b604051620004049190620066dd565b60405180910390f35b3480156200041a57600080fd5b5062000439600480360381019062000433919062005558565b620018c7565b005b3480156200044857600080fd5b50620004676004803603810190620004619190620051fc565b6200219b565b005b3480156200047657600080fd5b5062000481620023e5565b005b620004a160048036038101906200049b9190620056cb565b62002476565b005b348015620004b057600080fd5b50620004cf6004803603810190620004c9919062005163565b620026b0565b604051620004de919062006465565b60405180910390f35b348015620004f457600080fd5b506200051360048036038101906200050d919062005163565b62002775565b60405162000522919062006769565b60405180910390f35b3480156200053857600080fd5b5062000557600480360381019062000551919062005558565b62002805565b005b3480156200056657600080fd5b506200057162002892565b60405162000580919062006341565b60405180910390f35b3480156200059657600080fd5b50620005b56004803603810190620005af919062005558565b620028bb565b604051620005c4919062006769565b60405180910390f35b620005eb6004803603810190620005e59190620051bb565b6200298b565b005b348015620005fa57600080fd5b50620006196004803603810190620006139190620055b0565b62002ad9565b005b62000639600480360381019062000633919062005284565b62002add565b005b3480156200064857600080fd5b506200065362002c7c565b60405162000662919062006769565b60405180910390f35b3480156200067857600080fd5b5062000697600480360381019062000691919062005163565b62002dd7565b604051620006a69190620066b9565b60405180910390f35b348015620006bc57600080fd5b50620006db6004803603810190620006d59190620052c5565b62002e88565b005b348015620006ea57600080fd5b5062000709600480360381019062000703919062005163565b62003100565b60405162000718919062006341565b60405180910390f35b3480156200072e57600080fd5b506200074d600480360381019062000747919062005558565b6200323a565b6040516200075c919062006701565b60405180910390f35b3480156200077257600080fd5b506200079160048036038101906200078b9190620055f1565b62003307565b005b6200079d62003616565b005b348015620007ac57600080fd5b50620007cb6004803603810190620007c5919062005163565b6200369b565b005b348015620007da57600080fd5b50620007f96004803603810190620007f3919062005558565b62003762565b60405162000808919062006341565b60405180910390f35b3480156200081e57600080fd5b506200083d600480360381019062000837919062005284565b6200379f565b005b3480156200084c57600080fd5b506200086b6004803603810190620008659190620053a5565b6200382f565b6040516200087a919062006769565b60405180910390f35b620008a160048036038101906200089b9190620055b0565b62003859565b005b348015620008b057600080fd5b50620008cf6004803603810190620008c9919062005163565b620039c8565b005b348015620008de57600080fd5b50620008fd6004803603810190620008f7919062005558565b62003acc565b005b60606000600960019054906101000a900460ff1660ff1667ffffffffffffffff81111562000956577f4e487b7100000000000000000000000000000000000000000000000000000000600052604160045260246000fd5b604051908082528060200260200182016040528015620009855781602001602082028036833780820191505090505b5090506000805b600960019054906101000a900460ff1660ff1681101562000ade57600073ffffffffffffffffffffffffffffffffffffffff166008600083815260200190815260200160002060009054906101000a900473ffffffffffffffffffffffffffffffffffffffff1673ffffffffffffffffffffffffffffffffffffffff161462000ac8576008600082815260200190815260200160002060009054906101000a900473ffffffffffffffffffffffffffffffffffffffff1683838151811062000a7d577f4e487b7100000000000000000000000000000000000000000000000000000000600052603260045260246000fd5b602002602001019073ffffffffffffffffffffffffffffffffffffffff16908173ffffffffffffffffffffffffffffffffffffffff1681525050818062000ac49062006ea2565b9250505b808062000ad59062006ea2565b9150506200098c565b82935050505090565b60008290508073ffffffffffffffffffffffffffffffffffffffff1663ad97308c83336040518363ffffffff1660e01b815260040162000b2992919062006786565b600060405180830381600087803b15801562000b4457600080fd5b505af115801562000b59573d6000803e3d6000fd5b50505050505050565b6000600160009054906101000a900473ffffffffffffffffffffffffffffffffffffffff1690503373ffffffffffffffffffffffffffffffffffffffff168173ffffffffffffffffffffffffffffffffffffffff166383638710846040518263ffffffff1660e01b815260040162000bdb919062006769565b60206040518083038186803b15801562000bf457600080fd5b505afa15801562000c09573d6000803e3d6000fd5b505050506040513d601f19601f8201168201806040525081019062000c2f91906200518f565b73ffffffffffffffffffffffffffffffffffffffff161462000c88576040517f08c379a000000000000000000000000000000000000000000000000000000000815260040162000c7f90620065ed565b60405180910390fd5b60008173ffffffffffffffffffffffffffffffffffffffff1663c1e03728846040518263ffffffff1660e01b815260040162000cc5919062006769565b60006040518083038186803b15801562000cde57600080fd5b505afa15801562000cf3573d6000803e3d6000fd5b505050506040513d6000823e3d601f19601f8201168201806040525081019062000d1e919062005513565b9050806020015160078151811062000d5f577f4e487b7100000000000000000000000000000000000000000000000000000000600052603260045260246000fd5b6020026020010151600560405162000d7790620062d0565b90815260200160405180910390205462000d92919062006b74565b606462000da0919062006a46565b816020015160068151811062000ddf577f4e487b7100000000000000000000000000000000000000000000000000000000600052603260045260246000fd5b602002602001015160ff161162000e2d576040517f08c379a000000000000000000000000000000000000000000000000000000000815260040162000e2490620065cb565b60405180910390fd5b80602001518460ff168151811062000e6e577f4e487b7100000000000000000000000000000000000000000000000000000000600052603260045260246000fd5b60200260200101805180919062000e859062006ef0565b60ff1660ff16815250506000816020015160068151811062000ed0577f4e487b7100000000000000000000000000000000000000000000000000000000600052603260045260246000fd5b602002602001019060ff16908160ff1681525050806020015160078151811062000f23577f4e487b7100000000000000000000000000000000000000000000000000000000600052603260045260246000fd5b60200260200101805180919062000f3a9062006ef0565b60ff1660ff16815250508173ffffffffffffffffffffffffffffffffffffffff1663e1e5151d8285336040518463ffffffff1660e01b815260040162000f839392919062006725565b600060405180830381600087803b15801562000f9e57600080fd5b505af115801562000fb3573d6000803e3d6000fd5b5050505050505050565b600047905090565b60606000600960009054906101000a900460ff1660ff1667ffffffffffffffff8111156200101c577f4e487b7100000000000000000000000000000000000000000000000000000000600052604160045260246000fd5b6040519080825280602002602001820160405280156200104b5781602001602082028036833780820191505090505b5090506000805b600960009054906101000a900460ff1660ff168110156200113b576006600082815260200190815260200160002060009054906101000a900473ffffffffffffffffffffffffffffffffffffffff16838381518110620010db577f4e487b7100000000000000000000000000000000000000000000000000000000600052603260045260246000fd5b602002602001019073ffffffffffffffffffffffffffffffffffffffff16908173ffffffffffffffffffffffffffffffffffffffff16815250508180620011229062006ea2565b9250508080620011329062006ea2565b91505062001052565b82935050505090565b6000808273ffffffffffffffffffffffffffffffffffffffff16346040516024016040516020818303038152906040527fd0e30db0000000000000000000000000000000000000000000000000000000007bffffffffffffffffffffffffffffffffffffffffffffffffffffffff19166020820180517bffffffffffffffffffffffffffffffffffffffffffffffffffffffff8381831617835250505050604051620011f1919062006259565b60006040518083038185875af1925050503d806000811462001230576040519150601f19603f3d011682016040523d82523d6000602084013e62001235565b606091505b5091509150816200127d576040517f08c379a0000000000000000000000000000000000000000000000000000000008152600401620012749062006565565b60405180910390fd5b505050565b6200128c62003e38565b73ffffffffffffffffffffffffffffffffffffffff16620012ac62002892565b73ffffffffffffffffffffffffffffffffffffffff161462001305576040517f08c379a0000000000000000000000000000000000000000000000000000000008152600401620012fc9062006631565b60405180910390fd5b8060058360405162001318919062006272565b9081526020016040518091039020819055505050565b6200133862003e38565b73ffffffffffffffffffffffffffffffffffffffff166200135862002892565b73ffffffffffffffffffffffffffffffffffffffff1614620013b1576040517f08c379a0000000000000000000000000000000000000000000000000000000008152600401620013a89062006631565b60405180910390fd5b3373ffffffffffffffffffffffffffffffffffffffff166108fc479081150290604051600060405180830381858888f19350505050158015620013f8573d6000803e3d6000fd5b50565b600073ffffffffffffffffffffffffffffffffffffffff16600760008373ffffffffffffffffffffffffffffffffffffffff1673ffffffffffffffffffffffffffffffffffffffff16815260200190815260200160002060009054906101000a900473ffffffffffffffffffffffffffffffffffffffff1673ffffffffffffffffffffffffffffffffffffffff161415620014cd576040517f08c379a0000000000000000000000000000000000000000000000000000000008152600401620014c49062006587565b60405180910390fd5b600760008273ffffffffffffffffffffffffffffffffffffffff1673ffffffffffffffffffffffffffffffffffffffff16815260200190815260200160002060009054906101000a900473ffffffffffffffffffffffffffffffffffffffff1673ffffffffffffffffffffffffffffffffffffffff16632f54bf6e336040518263ffffffff1660e01b815260040162001567919062006341565b60206040518083038186803b1580156200158057600080fd5b505afa15801562001595573d6000803e3d6000fd5b505050506040513d601f19601f82011682018060405250810190620015bb919062005379565b620015fd576040517f08c379a0000000000000000000000000000000000000000000000000000000008152600401620015f49062006697565b60405180910390fd5b600760008273ffffffffffffffffffffffffffffffffffffffff1673ffffffffffffffffffffffffffffffffffffffff16815260200190815260200160002060009054906101000a900473ffffffffffffffffffffffffffffffffffffffff1673ffffffffffffffffffffffffffffffffffffffff166341c0e1b56040518163ffffffff1660e01b8152600401600060405180830381600087803b158015620016a557600080fd5b505af1158015620016ba573d6000803e3d6000fd5b50505050600060086000600760008573ffffffffffffffffffffffffffffffffffffffff1673ffffffffffffffffffffffffffffffffffffffff16815260200190815260200160002060009054906101000a900473ffffffffffffffffffffffffffffffffffffffff1673ffffffffffffffffffffffffffffffffffffffff16635d1ca6316040518163ffffffff1660e01b815260040160206040518083038186803b1580156200176a57600080fd5b505afa1580156200177f573d6000803e3d6000fd5b505050506040513d601f19601f82011682018060405250810190620017a5919062005584565b815260200190815260200160002060006101000a81548173ffffffffffffffffffffffffffffffffffffffff021916908373ffffffffffffffffffffffffffffffffffffffff16021790555050565b620017fe62004a21565b6000600260009054906101000a900473ffffffffffffffffffffffffffffffffffffffff16905060008173ffffffffffffffffffffffffffffffffffffffff1663b0f929b0856040518263ffffffff1660e01b8152600401620018629190620067b3565b60006040518083038186803b1580156200187b57600080fd5b505afa15801562001890573d6000803e3d6000fd5b505050506040513d6000823e3d601f19601f82011682018060405250810190620018bb9190620054ce565b90508092505050919050565b6000600160009054906101000a900473ffffffffffffffffffffffffffffffffffffffff1690503373ffffffffffffffffffffffffffffffffffffffff168173ffffffffffffffffffffffffffffffffffffffff166383638710846040518263ffffffff1660e01b815260040162001940919062006769565b60206040518083038186803b1580156200195957600080fd5b505afa1580156200196e573d6000803e3d6000fd5b505050506040513d601f19601f820116820180604052508101906200199491906200518f565b73ffffffffffffffffffffffffffffffffffffffff1614620019ed576040517f08c379a0000000000000000000000000000000000000000000000000000000008152600401620019e490620065ed565b60405180910390fd5b60008173ffffffffffffffffffffffffffffffffffffffff1663c1e03728846040518263ffffffff1660e01b815260040162001a2a919062006769565b60006040518083038186803b15801562001a4357600080fd5b505afa15801562001a58573d6000803e3d6000fd5b505050506040513d6000823e3d601f19601f8201168201806040525081019062001a83919062005513565b90506000600260009054906101000a900473ffffffffffffffffffffffffffffffffffffffff16905060008173ffffffffffffffffffffffffffffffffffffffff1663b0f929b0846040015160038151811062001b09577f4e487b7100000000000000000000000000000000000000000000000000000000600052603260045260246000fd5b60200260200101516040518263ffffffff1660e01b815260040162001b2f919062006769565b60006040518083038186803b15801562001b4857600080fd5b505afa15801562001b5d573d6000803e3d6000fd5b505050506040513d6000823e3d601f19601f8201168201806040525081019062001b889190620054ce565b90508060800151836040015160028151811062001bce577f4e487b7100000000000000000000000000000000000000000000000000000000600052603260045260246000fd5b60200260200101514262001be3919062006d54565b1162001c26576040517f08c379a000000000000000000000000000000000000000000000000000000000815260040162001c1d90620065a9565b60405180910390fd5b6000805b8260400151518160ff16101562001d9e5784602001518160ff168151811062001c7c577f4e487b7100000000000000000000000000000000000000000000000000000000600052603260045260246000fd5b602002602001015160ff1683604001518260ff168151811062001cc8577f4e487b7100000000000000000000000000000000000000000000000000000000600052603260045260246000fd5b602002602001015160ff16111562001d885784602001518160ff168151811062001d1b577f4e487b7100000000000000000000000000000000000000000000000000000000600052603260045260246000fd5b602002602001015183604001518260ff168151811062001d64577f4e487b7100000000000000000000000000000000000000000000000000000000600052603260045260246000fd5b602002602001015162001d78919062006d8f565b8262001d85919062006aa3565b91505b808062001d959062006ef0565b91505062001c2a565b50816020015160ff1662001dc082606462001dba919062006d8f565b62003e40565b60ff1611156200203a578273ffffffffffffffffffffffffffffffffffffffff16636827822e6040518163ffffffff1660e01b815260040160206040518083038186803b15801562001e1157600080fd5b505afa15801562001e26573d6000803e3d6000fd5b505050506040513d601f19601f8201168201806040525081019062001e4c91906200565e565b826000015162001e5d919062006d12565b846020015160068151811062001e9c577f4e487b7100000000000000000000000000000000000000000000000000000000600052603260045260246000fd5b6020026020010181815162001eb2919062006aa3565b91509060ff16908160ff168152505060005b600960009054906101000a900460ff1660ff16811015620020385760006006600083815260200190815260200160002060009054906101000a900473ffffffffffffffffffffffffffffffffffffffff1690508073ffffffffffffffffffffffffffffffffffffffff16637b32cdba6040518163ffffffff1660e01b815260040160206040518083038186803b15801562001f5e57600080fd5b505afa15801562001f73573d6000803e3d6000fd5b505050506040513d601f19601f8201168201806040525081019062001f99919062005584565b62001fa7620186a062003ee2565b111562002021578073ffffffffffffffffffffffffffffffffffffffff166394bf804d6001336040518363ffffffff1660e01b815260040162001fec92919062006489565b600060405180830381600087803b1580156200200757600080fd5b505af11580156200201c573d6000803e3d6000fd5b505050505b5080806200202f9062006ea2565b91505062001ec4565b505b4284604001516002815181106200207a577f4e487b7100000000000000000000000000000000000000000000000000000000600052603260045260246000fd5b60200260200101818152505060008460400151600381518110620020c7577f4e487b7100000000000000000000000000000000000000000000000000000000600052603260045260246000fd5b6020026020010181815250506000846040015160048151811062002114577f4e487b7100000000000000000000000000000000000000000000000000000000600052603260045260246000fd5b6020026020010181815250508473ffffffffffffffffffffffffffffffffffffffff1663e1e5151d8588336040518463ffffffff1660e01b81526004016200215f9392919062006725565b600060405180830381600087803b1580156200217a57600080fd5b505af11580156200218f573d6000803e3d6000fd5b50505050505050505050565b600073ffffffffffffffffffffffffffffffffffffffff16600760008573ffffffffffffffffffffffffffffffffffffffff1673ffffffffffffffffffffffffffffffffffffffff16815260200190815260200160002060009054906101000a900473ffffffffffffffffffffffffffffffffffffffff1673ffffffffffffffffffffffffffffffffffffffff16146200226c576040517f08c379a0000000000000000000000000000000000000000000000000000000008152600401620022639062006543565b60405180910390fd5b8181336200227962002892565b600960019054906101000a900460ff16604051620022979062004a5f565b620022a7959493929190620064b6565b604051809103906000f080158015620022c4573d6000803e3d6000fd5b50600760008573ffffffffffffffffffffffffffffffffffffffff1673ffffffffffffffffffffffffffffffffffffffff16815260200190815260200160002060006101000a81548173ffffffffffffffffffffffffffffffffffffffff021916908373ffffffffffffffffffffffffffffffffffffffff1602179055508260086000600960019054906101000a900460ff1660ff16815260200190815260200160002060006101000a81548173ffffffffffffffffffffffffffffffffffffffff021916908373ffffffffffffffffffffffffffffffffffffffff1602179055506009600181819054906101000a900460ff1680929190620023c79062006ef0565b91906101000a81548160ff021916908360ff16021790555050505050565b620023ef62003e38565b73ffffffffffffffffffffffffffffffffffffffff166200240f62002892565b73ffffffffffffffffffffffffffffffffffffffff161462002468576040517f08c379a00000000000000000000000000000000000000000000000000000000081526004016200245f9062006631565b60405180910390fd5b62002474600062003f81565b565b600560405162002486906200628b565b908152602001604051809103902054341015620024da576040517f08c379a0000000000000000000000000000000000000000000000000000000008152600401620024d19062006675565b60405180910390fd5b60006005604051620024ec90620062e7565b908152602001604051809103902054116200253e576040517f08c379a000000000000000000000000000000000000000000000000000000000815260040162002535906200660f565b60405180910390fd5b6000601467ffffffffffffffff81111562002582577f4e487b7100000000000000000000000000000000000000000000000000000000600052604160045260246000fd5b604051908082528060200260200182016040528015620025b15781602001602082028036833780820191505090505b5090506000620025c18462004045565b90506000620025d1348762004816565b90506005604051620025e390620062a2565b90815260200160405180910390206000815480929190620026049062006ea2565b91905055506000600160009054906101000a900473ffffffffffffffffffffffffffffffffffffffff1690508073ffffffffffffffffffffffffffffffffffffffff1663e6d46f33338686868a6040518663ffffffff1660e01b8152600401620026739594939291906200639b565b600060405180830381600087803b1580156200268e57600080fd5b505af1158015620026a3573d6000803e3d6000fd5b5050505050505050505050565b60606000600160009054906101000a900473ffffffffffffffffffffffffffffffffffffffff1690508073ffffffffffffffffffffffffffffffffffffffff166382de8fe9846040518263ffffffff1660e01b815260040162002714919062006341565b60006040518083038186803b1580156200272d57600080fd5b505afa15801562002742573d6000803e3d6000fd5b505050506040513d6000823e3d601f19601f820116820180604052508101906200276d919062005334565b915050919050565b6000808290508073ffffffffffffffffffffffffffffffffffffffff1663eb91d37e6040518163ffffffff1660e01b815260040160206040518083038186803b158015620027c257600080fd5b505afa158015620027d7573d6000803e3d6000fd5b505050506040513d601f19601f82011682018060405250810190620027fd919062005584565b915050919050565b6200280f62003e38565b73ffffffffffffffffffffffffffffffffffffffff166200282f62002892565b73ffffffffffffffffffffffffffffffffffffffff161462002888576040517f08c379a00000000000000000000000000000000000000000000000000000000081526004016200287f9062006631565b60405180910390fd5b80600a8190555050565b60008060009054906101000a900473ffffffffffffffffffffffffffffffffffffffff16905090565b6000806006600084815260200190815260200160002060009054906101000a900473ffffffffffffffffffffffffffffffffffffffff1690508073ffffffffffffffffffffffffffffffffffffffff16639b96eece336040518263ffffffff1660e01b81526004016200292f919062006341565b60206040518083038186803b1580156200294857600080fd5b505afa1580156200295d573d6000803e3d6000fd5b505050506040513d601f19601f8201168201806040525081019062002983919062005584565b915050919050565b6000808373ffffffffffffffffffffffffffffffffffffffff16348433604051602401620029bb92919062006786565b6040516020818303038152906040527f7383d709000000000000000000000000000000000000000000000000000000007bffffffffffffffffffffffffffffffffffffffffffffffffffffffff19166020820180517bffffffffffffffffffffffffffffffffffffffffffffffffffffffff838183161783525050505060405162002a47919062006259565b60006040518083038185875af1925050503d806000811462002a86576040519150601f19603f3d011682016040523d82523d6000602084013e62002a8b565b606091505b50915091508162002ad3576040517f08c379a000000000000000000000000000000000000000000000000000000000815260040162002aca9062006565565b60405180910390fd5b50505050565b5050565b6000600160009054906101000a900473ffffffffffffffffffffffffffffffffffffffff1690503373ffffffffffffffffffffffffffffffffffffffff168173ffffffffffffffffffffffffffffffffffffffff166383638710846040518263ffffffff1660e01b815260040162002b56919062006769565b60206040518083038186803b15801562002b6f57600080fd5b505afa15801562002b84573d6000803e3d6000fd5b505050506040513d601f19601f8201168201806040525081019062002baa91906200518f565b73ffffffffffffffffffffffffffffffffffffffff16141562002c04576040517f08c379a000000000000000000000000000000000000000000000000000000000815260040162002bfb90620065ed565b60405180910390fd5b8073ffffffffffffffffffffffffffffffffffffffff1663beabacc88433856040518463ffffffff1660e01b815260040162002c43939291906200635e565b600060405180830381600087803b15801562002c5e57600080fd5b505af115801562002c73573d6000803e3d6000fd5b50505050505050565b6000600460009054906101000a900473ffffffffffffffffffffffffffffffffffffffff1673ffffffffffffffffffffffffffffffffffffffff166318160ddd6040518163ffffffff1660e01b815260040160206040518083038186803b15801562002ce757600080fd5b505afa15801562002cfc573d6000803e3d6000fd5b505050506040513d601f19601f8201168201806040525081019062002d22919062005584565b600460009054906101000a900473ffffffffffffffffffffffffffffffffffffffff1673ffffffffffffffffffffffffffffffffffffffff166366bd78fd6040518163ffffffff1660e01b815260040160206040518083038186803b15801562002d8b57600080fd5b505afa15801562002da0573d6000803e3d6000fd5b505050506040513d601f19601f8201168201806040525081019062002dc6919062005584565b62002dd2919062006ae1565b905090565b62002de162004a6d565b600082905060008173ffffffffffffffffffffffffffffffffffffffff166351ec391c336040518263ffffffff1660e01b815260040162002e23919062006341565b60006040518083038186803b15801562002e3c57600080fd5b505afa15801562002e51573d6000803e3d6000fd5b505050506040513d6000823e3d601f19601f8201168201806040525081019062002e7c919062005489565b90508092505050919050565b62002e9262003e38565b73ffffffffffffffffffffffffffffffffffffffff1662002eb262002892565b73ffffffffffffffffffffffffffffffffffffffff161462002f0b576040517f08c379a000000000000000000000000000000000000000000000000000000000815260040162002f029062006631565b60405180910390fd5b6000600560405162002f1d90620062e7565b9081526020016040518091039020541162002f6f576040517f08c379a000000000000000000000000000000000000000000000000000000000815260040162002f66906200660f565b60405180910390fd5b6000601467ffffffffffffffff81111562002fb3577f4e487b7100000000000000000000000000000000000000000000000000000000600052604160045260246000fd5b60405190808252806020026020018201604052801562002fe25781602001602082028036833780820191505090505b509050600062002ff3600062004045565b905060006200302160056040516200300b906200628b565b9081526020016040518091039020548662004816565b905060056040516200303390620062a2565b90815260200160405180910390206000815480929190620030549062006ea2565b91905055506000600160009054906101000a900473ffffffffffffffffffffffffffffffffffffffff1690508073ffffffffffffffffffffffffffffffffffffffff1663e6d46f33888686868a6040518663ffffffff1660e01b8152600401620030c39594939291906200639b565b600060405180830381600087803b158015620030de57600080fd5b505af1158015620030f3573d6000803e3d6000fd5b5050505050505050505050565b60008073ffffffffffffffffffffffffffffffffffffffff16600760008473ffffffffffffffffffffffffffffffffffffffff1673ffffffffffffffffffffffffffffffffffffffff16815260200190815260200160002060009054906101000a900473ffffffffffffffffffffffffffffffffffffffff1673ffffffffffffffffffffffffffffffffffffffff161415620031d3576040517f08c379a0000000000000000000000000000000000000000000000000000000008152600401620031ca9062006587565b60405180910390fd5b600760008373ffffffffffffffffffffffffffffffffffffffff1673ffffffffffffffffffffffffffffffffffffffff16815260200190815260200160002060009054906101000a900473ffffffffffffffffffffffffffffffffffffffff169050919050565b6200324462004a9c565b6000600160009054906101000a900473ffffffffffffffffffffffffffffffffffffffff1690508073ffffffffffffffffffffffffffffffffffffffff1663c1e03728846040518263ffffffff1660e01b8152600401620032a6919062006769565b60006040518083038186803b158015620032bf57600080fd5b505afa158015620032d4573d6000803e3d6000fd5b505050506040513d6000823e3d601f19601f82011682018060405250810190620032ff919062005513565b915050919050565b6000600160009054906101000a900473ffffffffffffffffffffffffffffffffffffffff1690503373ffffffffffffffffffffffffffffffffffffffff168173ffffffffffffffffffffffffffffffffffffffff166383638710856040518263ffffffff1660e01b815260040162003380919062006769565b60206040518083038186803b1580156200339957600080fd5b505afa158015620033ae573d6000803e3d6000fd5b505050506040513d601f19601f82011682018060405250810190620033d491906200518f565b73ffffffffffffffffffffffffffffffffffffffff16146200342d576040517f08c379a00000000000000000000000000000000000000000000000000000000081526004016200342490620065ed565b60405180910390fd5b60008173ffffffffffffffffffffffffffffffffffffffff1663c1e03728856040518263ffffffff1660e01b81526004016200346a919062006769565b60006040518083038186803b1580156200348357600080fd5b505afa15801562003498573d6000803e3d6000fd5b505050506040513d6000823e3d601f19601f82011682018060405250810190620034c3919062005513565b90506000816040015160038151811062003506577f4e487b7100000000000000000000000000000000000000000000000000000000600052603260045260246000fd5b60200260200101511462003551576040517f08c379a00000000000000000000000000000000000000000000000000000000081526004016200354890620065a9565b60405180910390fd5b82816040015160038151811062003591577f4e487b7100000000000000000000000000000000000000000000000000000000600052603260045260246000fd5b6020026020010181815250508173ffffffffffffffffffffffffffffffffffffffff1663e1e5151d8286336040518463ffffffff1660e01b8152600401620035dc9392919062006725565b600060405180830381600087803b158015620035f757600080fd5b505af11580156200360c573d6000803e3d6000fd5b5050505050505050565b6200362062003e38565b73ffffffffffffffffffffffffffffffffffffffff166200364062002892565b73ffffffffffffffffffffffffffffffffffffffff161462003699576040517f08c379a0000000000000000000000000000000000000000000000000000000008152600401620036909062006631565b60405180910390fd5b565b620036a562003e38565b73ffffffffffffffffffffffffffffffffffffffff16620036c562002892565b73ffffffffffffffffffffffffffffffffffffffff16146200371e576040517f08c379a0000000000000000000000000000000000000000000000000000000008152600401620037159062006631565b60405180910390fd5b80600160006101000a81548173ffffffffffffffffffffffffffffffffffffffff021916908373ffffffffffffffffffffffffffffffffffffffff16021790555050565b60006006600083815260200190815260200160002060009054906101000a900473ffffffffffffffffffffffffffffffffffffffff169050919050565b816006600083815260200190815260200160002060006101000a81548173ffffffffffffffffffffffffffffffffffffffff021916908373ffffffffffffffffffffffffffffffffffffffff1602179055506009600081819054906101000a900460ff1680929190620038129062006ef0565b91906101000a81548160ff021916908360ff160217905550505050565b600060058260405162003843919062006272565b9081526020016040518091039020549050919050565b6000600a5414620038ba5781600a5462003874919062006cb1565b341015620038b9576040517f08c379a0000000000000000000000000000000000000000000000000000000008152600401620038b09062006675565b60405180910390fd5b5b6000600a541415620039235781620038d162002c7c565b620038dd919062006cb1565b34101562003922576040517f08c379a0000000000000000000000000000000000000000000000000000000008152600401620039199062006675565b60405180910390fd5b5b600460009054906101000a900473ffffffffffffffffffffffffffffffffffffffff1673ffffffffffffffffffffffffffffffffffffffff166340c10f198260188562003971919062006cb1565b6040518363ffffffff1660e01b81526004016200399092919062006414565b600060405180830381600087803b158015620039ab57600080fd5b505af1158015620039c0573d6000803e3d6000fd5b505050505050565b620039d262003e38565b73ffffffffffffffffffffffffffffffffffffffff16620039f262002892565b73ffffffffffffffffffffffffffffffffffffffff161462003a4b576040517f08c379a000000000000000000000000000000000000000000000000000000000815260040162003a429062006631565b60405180910390fd5b600073ffffffffffffffffffffffffffffffffffffffff168173ffffffffffffffffffffffffffffffffffffffff16141562003abe576040517f08c379a000000000000000000000000000000000000000000000000000000000815260040162003ab59062006521565b60405180910390fd5b62003ac98162003f81565b50565b60018162003adb919062006a46565b600460009054906101000a900473ffffffffffffffffffffffffffffffffffffffff1673ffffffffffffffffffffffffffffffffffffffff166318160ddd6040518163ffffffff1660e01b815260040160206040518083038186803b15801562003b4457600080fd5b505afa15801562003b59573d6000803e3d6000fd5b505050506040513d601f19601f8201168201806040525081019062003b7f919062005584565b1162003bc2576040517f08c379a000000000000000000000000000000000000000000000000000000000815260040162003bb99062006653565b60405180910390fd5b60188162003bd1919062006cb1565b600460009054906101000a900473ffffffffffffffffffffffffffffffffffffffff1673ffffffffffffffffffffffffffffffffffffffff166370a08231336040518263ffffffff1660e01b815260040162003c2e919062006341565b60206040518083038186803b15801562003c4757600080fd5b505afa15801562003c5c573d6000803e3d6000fd5b505050506040513d601f19601f8201168201806040525081019062003c82919062005584565b101562003cc6576040517f08c379a000000000000000000000000000000000000000000000000000000000815260040162003cbd9062006653565b60405180910390fd5b6000600a541462003d29573373ffffffffffffffffffffffffffffffffffffffff166108fc82600a5462003cfb919062006cb1565b9081150290604051600060405180830381858888f1935050505015801562003d27573d6000803e3d6000fd5b505b6000600a54141562003d94573373ffffffffffffffffffffffffffffffffffffffff166108fc8262003d5a62002c7c565b62003d66919062006cb1565b9081150290604051600060405180830381858888f1935050505015801562003d92573d6000803e3d6000fd5b505b600460009054906101000a900473ffffffffffffffffffffffffffffffffffffffff1673ffffffffffffffffffffffffffffffffffffffff16639dc29fac3360188462003de2919062006cb1565b6040518363ffffffff1660e01b815260040162003e0192919062006414565b600060405180830381600087803b15801562003e1c57600080fd5b505af115801562003e31573d6000803e3d6000fd5b5050505050565b600033905090565b6000808260ff164233600560405162003e5990620062b9565b90815260200160405180910390205460405160200162003e7c93929190620062fe565b6040516020818303038152906040528051906020012060001c62003ea1919062006f51565b9050600560405162003eb390620062b9565b9081526020016040518091039020600081548092919062003ed49062006ea2565b919050555080915050919050565b600080824233600560405162003ef890620062b9565b90815260200160405180910390205460405160200162003f1b93929190620062fe565b6040516020818303038152906040528051906020012060001c62003f40919062006f51565b9050600560405162003f5290620062b9565b9081526020016040518091039020600081548092919062003f739062006ea2565b919050555080915050919050565b60008060009054906101000a900473ffffffffffffffffffffffffffffffffffffffff169050816000806101000a81548173ffffffffffffffffffffffffffffffffffffffff021916908373ffffffffffffffffffffffffffffffffffffffff1602179055508173ffffffffffffffffffffffffffffffffffffffff168173ffffffffffffffffffffffffffffffffffffffff167f8be0079c531659141344cd1fd0a4f28419497f9722a3daafe3b4186f6b6457e060405160405180910390a35050565b60606000601467ffffffffffffffff8111156200408b577f4e487b7100000000000000000000000000000000000000000000000000000000600052604160045260246000fd5b604051908082528060200260200182016040528015620040ba5781602001602082028036833780820191505090505b5090506000600360009054906101000a900473ffffffffffffffffffffffffffffffffffffffff169050620040ee62004abd565b6064816000019060ff16908160ff168152505060005b8273ffffffffffffffffffffffffffffffffffffffff16630b01ca3b6040518163ffffffff1660e01b815260040160206040518083038186803b1580156200414b57600080fd5b505afa15801562004160573d6000803e3d6000fd5b505050506040513d601f19601f820116820180604052508101906200418691906200565e565b60ff168160ff1610156200439f578273ffffffffffffffffffffffffffffffffffffffff1663323eae49826040518263ffffffff1660e01b8152600401620041cf9190620067d0565b60006040518083038186803b158015620041e857600080fd5b505afa158015620041fd573d6000803e3d6000fd5b505050506040513d6000823e3d601f19601f8201168201806040525081019062004228919062005444565b6000015160ff166200423b606462003e40565b60ff16108015620042ec57508273ffffffffffffffffffffffffffffffffffffffff1663323eae49826040518263ffffffff1660e01b8152600401620042829190620067d0565b60006040518083038186803b1580156200429b57600080fd5b505afa158015620042b0573d6000803e3d6000fd5b505050506040513d6000823e3d601f19601f82011682018060405250810190620042db919062005444565b6000015160ff16826000015160ff16115b1562004389578273ffffffffffffffffffffffffffffffffffffffff1663323eae49826040518263ffffffff1660e01b81526004016200432d9190620067d0565b60006040518083038186803b1580156200434657600080fd5b505afa1580156200435b573d6000803e3d6000fd5b505050506040513d6000823e3d601f19601f8201168201806040525081019062004386919062005444565b91505b8080620043969062006ef0565b91505062004104565b5060008160200151905080600081518110620043e4577f4e487b7100000000000000000000000000000000000000000000000000000000600052603260045260246000fd5b60200260200101518460008151811062004427577f4e487b7100000000000000000000000000000000000000000000000000000000600052603260045260246000fd5b602002602001019060ff16908160ff16815250508060018151811062004476577f4e487b7100000000000000000000000000000000000000000000000000000000600052603260045260246000fd5b602002602001015184600181518110620044b9577f4e487b7100000000000000000000000000000000000000000000000000000000600052603260045260246000fd5b602002602001019060ff16908160ff16815250508060028151811062004508577f4e487b7100000000000000000000000000000000000000000000000000000000600052603260045260246000fd5b6020026020010151846002815181106200454b577f4e487b7100000000000000000000000000000000000000000000000000000000600052603260045260246000fd5b602002602001019060ff16908160ff1681525050806003815181106200459a577f4e487b7100000000000000000000000000000000000000000000000000000000600052603260045260246000fd5b602002602001015184600381518110620045dd577f4e487b7100000000000000000000000000000000000000000000000000000000600052603260045260246000fd5b602002602001019060ff16908160ff1681525050806004815181106200462c577f4e487b7100000000000000000000000000000000000000000000000000000000600052603260045260246000fd5b6020026020010151846004815181106200466f577f4e487b7100000000000000000000000000000000000000000000000000000000600052603260045260246000fd5b602002602001019060ff16908160ff168152505080600581518110620046be577f4e487b7100000000000000000000000000000000000000000000000000000000600052603260045260246000fd5b60200260200101518460058151811062004701577f4e487b7100000000000000000000000000000000000000000000000000000000600052603260045260246000fd5b602002602001019060ff16908160ff168152505060018460078151811062004752577f4e487b7100000000000000000000000000000000000000000000000000000000600052603260045260246000fd5b602002602001019060ff16908160ff16815250508584600881518110620047a2577f4e487b7100000000000000000000000000000000000000000000000000000000600052603260045260246000fd5b602002602001019060ff16908160ff1681525050816040015184600981518110620047f6577f4e487b7100000000000000000000000000000000000000000000000000000000600052603260045260246000fd5b602002602001019060ff16908160ff168152505083945050505050919050565b60606000600a67ffffffffffffffff8111156200485c577f4e487b7100000000000000000000000000000000000000000000000000000000600052604160045260246000fd5b6040519080825280602002602001820160405280156200488b5781602001602082028036833780820191505090505b5090504281600081518110620048ca577f4e487b7100000000000000000000000000000000000000000000000000000000600052603260045260246000fd5b602002602001018181525050838160018151811062004912577f4e487b7100000000000000000000000000000000000000000000000000000000600052603260045260246000fd5b60200260200101818152505042816002815181106200495a577f4e487b7100000000000000000000000000000000000000000000000000000000600052603260045260246000fd5b60200260200101818152505060056040516200497690620062a2565b90815260200160405180910390205481600681518110620049c0577f4e487b7100000000000000000000000000000000000000000000000000000000600052603260045260246000fd5b6020026020010181815250508260ff168160078151811062004a0b577f4e487b7100000000000000000000000000000000000000000000000000000000600052603260045260246000fd5b6020026020010181815250508091505092915050565b6040518060c00160405280600060ff168152602001600060ff1681526020016060815260200160008152602001600081526020016000151581525090565b614e2980620070c483390190565b6040518060a0016040528060608152602001600081526020016000815260200160008152602001600081525090565b60405180606001604052806060815260200160608152602001606081525090565b6040518060a00160405280600060ff16815260200160608152602001600060ff168152602001600015158152602001606081525090565b600062004b0b62004b058462006821565b620067ed565b9050808382526020820190508285602086028201111562004b2b57600080fd5b60005b8581101562004b5f578162004b44888262004da9565b84526020840193506020830192505060018101905062004b2e565b5050509392505050565b600062004b8062004b7a8462006850565b620067ed565b9050808382526020820190508285602086028201111562004ba057600080fd5b60005b8581101562004bd4578162004bb988826200511e565b84526020840193506020830192505060018101905062004ba3565b5050509392505050565b600062004bf562004bef846200687f565b620067ed565b9050808382526020820190508285602086028201111562004c1557600080fd5b60005b8581101562004c49578162004c2e88826200514c565b84526020840193506020830192505060018101905062004c18565b5050509392505050565b600062004c6a62004c6484620068ae565b620067ed565b90508281526020810184848401111562004c8357600080fd5b62004c9084828562006e5d565b509392505050565b600062004caf62004ca984620068ae565b620067ed565b90508281526020810184848401111562004cc857600080fd5b62004cd584828562006e6c565b509392505050565b60008135905062004cee8162007041565b92915050565b60008151905062004d058162007041565b92915050565b60008135905062004d1c816200705b565b92915050565b600082601f83011262004d3457600080fd5b815162004d4684826020860162004af4565b91505092915050565b600082601f83011262004d6157600080fd5b815162004d7384826020860162004b69565b91505092915050565b600082601f83011262004d8e57600080fd5b815162004da084826020860162004bde565b91505092915050565b60008151905062004dba8162007075565b92915050565b600082601f83011262004dd257600080fd5b813562004de484826020860162004c53565b91505092915050565b600082601f83011262004dff57600080fd5b815162004e1184826020860162004c98565b91505092915050565b600060a0828403121562004e2d57600080fd5b62004e3960a0620067ed565b9050600062004e4b848285016200514c565b600083015250602082015167ffffffffffffffff81111562004e6c57600080fd5b62004e7a8482850162004d7c565b602083015250604062004e90848285016200514c565b604083015250606062004ea68482850162004da9565b606083015250608082015167ffffffffffffffff81111562004ec757600080fd5b62004ed58482850162004ded565b60808301525092915050565b600060a0828403121562004ef457600080fd5b62004f0060a0620067ed565b9050600082015167ffffffffffffffff81111562004f1d57600080fd5b62004f2b8482850162004ded565b600083015250602062004f41848285016200511e565b602083015250604062004f57848285016200511e565b604083015250606062004f6d848285016200511e565b606083015250608062004f83848285016200511e565b60808301525092915050565b600060c0828403121562004fa257600080fd5b62004fae60c0620067ed565b9050600062004fc0848285016200514c565b600083015250602062004fd6848285016200514c565b602083015250604082015167ffffffffffffffff81111562004ff757600080fd5b620050058482850162004d7c565b60408301525060606200501b848285016200511e565b606083015250608062005031848285016200511e565b60808301525060a0620050478482850162004da9565b60a08301525092915050565b6000606082840312156200506657600080fd5b620050726060620067ed565b9050600082015167ffffffffffffffff8111156200508f57600080fd5b6200509d8482850162004d22565b600083015250602082015167ffffffffffffffff811115620050be57600080fd5b620050cc8482850162004d7c565b602083015250604082015167ffffffffffffffff811115620050ed57600080fd5b620050fb8482850162004d4f565b60408301525092915050565b60008135905062005118816200708f565b92915050565b6000815190506200512f816200708f565b92915050565b6000813590506200514681620070a9565b92915050565b6000815190506200515d81620070a9565b92915050565b6000602082840312156200517657600080fd5b6000620051868482850162004cdd565b91505092915050565b600060208284031215620051a257600080fd5b6000620051b28482850162004cf4565b91505092915050565b60008060408385031215620051cf57600080fd5b6000620051df8582860162004d0b565b9250506020620051f28582860162005107565b9150509250929050565b6000806000606084860312156200521257600080fd5b6000620052228682870162004cdd565b935050602084013567ffffffffffffffff8111156200524057600080fd5b6200524e8682870162004dc0565b925050604084013567ffffffffffffffff8111156200526c57600080fd5b6200527a8682870162004dc0565b9150509250925092565b600080604083850312156200529857600080fd5b6000620052a88582860162004cdd565b9250506020620052bb8582860162005107565b9150509250929050565b600080600060608486031215620052db57600080fd5b6000620052eb8682870162004cdd565b9350506020620052fe8682870162005135565b925050604084013567ffffffffffffffff8111156200531c57600080fd5b6200532a8682870162004dc0565b9150509250925092565b6000602082840312156200534757600080fd5b600082015167ffffffffffffffff8111156200536257600080fd5b620053708482850162004d4f565b91505092915050565b6000602082840312156200538c57600080fd5b60006200539c8482850162004da9565b91505092915050565b600060208284031215620053b857600080fd5b600082013567ffffffffffffffff811115620053d357600080fd5b620053e18482850162004dc0565b91505092915050565b60008060408385031215620053fe57600080fd5b600083013567ffffffffffffffff8111156200541957600080fd5b620054278582860162004dc0565b92505060206200543a8582860162005107565b9150509250929050565b6000602082840312156200545757600080fd5b600082015167ffffffffffffffff8111156200547257600080fd5b620054808482850162004e1a565b91505092915050565b6000602082840312156200549c57600080fd5b600082015167ffffffffffffffff811115620054b757600080fd5b620054c58482850162004ee1565b91505092915050565b600060208284031215620054e157600080fd5b600082015167ffffffffffffffff811115620054fc57600080fd5b6200550a8482850162004f8f565b91505092915050565b6000602082840312156200552657600080fd5b600082015167ffffffffffffffff8111156200554157600080fd5b6200554f8482850162005053565b91505092915050565b6000602082840312156200556b57600080fd5b60006200557b8482850162005107565b91505092915050565b6000602082840312156200559757600080fd5b6000620055a7848285016200511e565b91505092915050565b60008060408385031215620055c457600080fd5b6000620055d48582860162005107565b9250506020620055e78582860162004cdd565b9150509250929050565b600080604083850312156200560557600080fd5b6000620056158582860162005107565b9250506020620056288582860162005107565b9150509250929050565b6000602082840312156200564557600080fd5b6000620056558482850162005135565b91505092915050565b6000602082840312156200567157600080fd5b600062005681848285016200514c565b91505092915050565b600080604083850312156200569e57600080fd5b6000620056ae8582860162005135565b9250506020620056c18582860162005107565b9150509250929050565b600080600060608486031215620056e157600080fd5b6000620056f18682870162005135565b9350506020620057048682870162005135565b925050604084013567ffffffffffffffff8111156200572257600080fd5b620057308682870162004dc0565b9150509250925092565b6000620057488383620057b3565b60208301905092915050565b600062005762838362005ad6565b60208301905092915050565b60006200577c8383620061e9565b60208301905092915050565b600062005796838362006237565b60208301905092915050565b620057ad8162006dde565b82525050565b620057be8162006dca565b82525050565b620057cf8162006dca565b82525050565b620057ea620057e48262006dca565b62006f1f565b82525050565b6000620057fd8262006921565b62005809818562006997565b93506200581683620068e1565b8060005b838110156200584d5781516200583188826200573a565b97506200583e8362006963565b9250506001810190506200581a565b5085935050505092915050565b600062005867826200692c565b620058738185620069a8565b93506200588083620068f1565b8060005b83811015620058b75781516200589b888262005754565b9750620058a88362006970565b92505060018101905062005884565b5085935050505092915050565b6000620058d1826200692c565b620058dd8185620069b9565b9350620058ea83620068f1565b8060005b838110156200592157815162005905888262005754565b9750620059128362006970565b925050600181019050620058ee565b5085935050505092915050565b60006200593b8262006937565b620059478185620069ca565b9350620059548362006901565b8060005b838110156200598b5781516200596f88826200576e565b97506200597c836200697d565b92505060018101905062005958565b5085935050505092915050565b6000620059a58262006937565b620059b18185620069db565b9350620059be8362006901565b8060005b83811015620059f5578151620059d988826200576e565b9750620059e6836200697d565b925050600181019050620059c2565b5085935050505092915050565b600062005a0f8262006942565b62005a1b8185620069ec565b935062005a288362006911565b8060005b8381101562005a5f57815162005a43888262005788565b975062005a50836200698a565b92505060018101905062005a2c565b5085935050505092915050565b600062005a798262006942565b62005a858185620069fd565b935062005a928362006911565b8060005b8381101562005ac957815162005aad888262005788565b975062005aba836200698a565b92505060018101905062005a96565b5085935050505092915050565b62005ae18162006df2565b82525050565b600062005af4826200694d565b62005b00818562006a0e565b935062005b1281856020860162006e6c565b80840191505092915050565b62005b298162006e35565b82525050565b600062005b3c8262006958565b62005b48818562006a19565b935062005b5a81856020860162006e6c565b62005b658162007016565b840191505092915050565b600062005b7d8262006958565b62005b89818562006a2a565b935062005b9b81856020860162006e6c565b62005ba68162007016565b840191505092915050565b600062005bbe8262006958565b62005bca818562006a3b565b935062005bdc81856020860162006e6c565b80840191505092915050565b600062005bf760268362006a2a565b91507f4f776e61626c653a206e6577206f776e657220697320746865207a65726f206160008301527f64647265737300000000000000000000000000000000000000000000000000006020830152604082019050919050565b600062005c5f60058362006a3b565b91507f70726963650000000000000000000000000000000000000000000000000000006000830152600582019050919050565b600062005ca160168362006a2a565b91507f596f7520616c72656164792068617665206775696c64000000000000000000006000830152602082019050919050565b600062005ce360148362006a2a565b91507f4661696c656420746f2073656e642045746865720000000000000000000000006000830152602082019050919050565b600062005d2560068362006a3b565b91507f6e657874496400000000000000000000000000000000000000000000000000006000830152600682019050919050565b600062005d67600f8362006a2a565b91507f4775696c64206e6f7420657869737400000000000000000000000000000000006000830152602082019050919050565b600062005da960128362006a2a565b91507f5175657374206e6f742066696e697368656400000000000000000000000000006000830152602082019050919050565b600062005deb60058362006a3b565b91507f6e6f6e63650000000000000000000000000000000000000000000000000000006000830152600582019050919050565b600062005e2d60168362006a2a565b91507f657870657269656e6365206e6f7420656e6f75676874000000000000000000006000830152602082019050919050565b600062005e6f600e8362006a2a565b91507f4e6f7420796f757220746f6b656e0000000000000000000000000000000000006000830152602082019050919050565b600062005eb1600c8362006a2a565b91507f4e6f2072656d61696e696e6700000000000000000000000000000000000000006000830152602082019050919050565b600062005ef360208362006a2a565b91507f4f776e61626c653a2063616c6c6572206973206e6f7420746865206f776e65726000830152602082019050919050565b600062005f3560128362006a2a565b91507f4e6f206d6f7265207468697320746f6b656e00000000000000000000000000006000830152602082019050919050565b600062005f77600d8362006a3b565b91507f657870466f724c6576656c5570000000000000000000000000000000000000006000830152600d82019050919050565b600062005fb9600a8362006a3b565b91507f746f6b656e4c696d6974000000000000000000000000000000000000000000006000830152600a82019050919050565b600062005ffb60118362006a2a565b91507f4d6f7265204554482072657175697265640000000000000000000000000000006000830152602082019050919050565b60006200603d60118362006a2a565b91507f4973206e6f7420796f7572206775696c640000000000000000000000000000006000830152602082019050919050565b600060a08301600083015184820360008601526200608f828262005b2f565b9150506020830151620060a66020860182620061e9565b506040830151620060bb6040860182620061e9565b506060830151620060d06060860182620061e9565b506080830151620060e56080860182620061e9565b508091505092915050565b600060c0830160008301516200610a600086018262006237565b5060208301516200611f602086018262006237565b506040830151848203604086015262006139828262005a02565b9150506060830151620061506060860182620061e9565b506080830151620061656080860182620061e9565b5060a08301516200617a60a086018262005ad6565b508091505092915050565b60006060830160008301518482036000860152620061a482826200585a565b91505060208301518482036020860152620061c0828262005a02565b91505060408301518482036040860152620061dc82826200592e565b9150508091505092915050565b620061f48162006e1e565b82525050565b620062058162006e1e565b82525050565b620062206200621a8262006e1e565b62006f47565b82525050565b620062318162006e49565b82525050565b620062428162006e28565b82525050565b620062538162006e28565b82525050565b600062006267828462005ae7565b915081905092915050565b600062006280828462005bb1565b915081905092915050565b6000620062988262005c50565b9150819050919050565b6000620062af8262005d16565b9150819050919050565b6000620062c68262005ddc565b9150819050919050565b6000620062dd8262005f68565b9150819050919050565b6000620062f48262005faa565b9150819050919050565b60006200630c82866200620b565b6020820191506200631e8285620057d5565b6014820191506200633082846200620b565b602082019150819050949350505050565b6000602082019050620063586000830184620057c4565b92915050565b6000606082019050620063756000830186620057c4565b620063846020830185620057c4565b620063936040830184620061fa565b949350505050565b600060a082019050620063b26000830188620057c4565b8181036020830152620063c68187620058c4565b90508181036040830152620063dc818662005a6c565b90508181036060830152620063f2818562005998565b9050818103608083015262006408818462005b70565b90509695505050505050565b60006040820190506200642b6000830185620057c4565b6200643a6020830184620061fa565b9392505050565b600060208201905081810360008301526200645d8184620057f0565b905092915050565b6000602082019050818103600083015262006481818462005998565b905092915050565b6000604082019050620064a0600083018562005b1e565b620064af6020830184620057c4565b9392505050565b600060a0820190508181036000830152620064d2818862005b70565b90508181036020830152620064e8818762005b70565b9050620064f96040830186620057a2565b620065086060830185620057c4565b62006517608083018462006226565b9695505050505050565b600060208201905081810360008301526200653c8162005be8565b9050919050565b600060208201905081810360008301526200655e8162005c92565b9050919050565b60006020820190508181036000830152620065808162005cd4565b9050919050565b60006020820190508181036000830152620065a28162005d58565b9050919050565b60006020820190508181036000830152620065c48162005d9a565b9050919050565b60006020820190508181036000830152620065e68162005e1e565b9050919050565b60006020820190508181036000830152620066088162005e60565b9050919050565b600060208201905081810360008301526200662a8162005ea2565b9050919050565b600060208201905081810360008301526200664c8162005ee4565b9050919050565b600060208201905081810360008301526200666e8162005f26565b9050919050565b60006020820190508181036000830152620066908162005fec565b9050919050565b60006020820190508181036000830152620066b2816200602e565b9050919050565b60006020820190508181036000830152620066d5818462006070565b905092915050565b60006020820190508181036000830152620066f98184620060f0565b905092915050565b600060208201905081810360008301526200671d818462006185565b905092915050565b6000606082019050818103600083015262006741818662006185565b9050620067526020830185620061fa565b620067616040830184620057c4565b949350505050565b6000602082019050620067806000830184620061fa565b92915050565b60006040820190506200679d6000830185620061fa565b620067ac6020830184620057c4565b9392505050565b6000602082019050620067ca600083018462006226565b92915050565b6000602082019050620067e7600083018462006248565b92915050565b6000604051905081810181811067ffffffffffffffff8211171562006817576200681662006fe7565b5b8060405250919050565b600067ffffffffffffffff8211156200683f576200683e62006fe7565b5b602082029050602081019050919050565b600067ffffffffffffffff8211156200686e576200686d62006fe7565b5b602082029050602081019050919050565b600067ffffffffffffffff8211156200689d576200689c62006fe7565b5b602082029050602081019050919050565b600067ffffffffffffffff821115620068cc57620068cb62006fe7565b5b601f19601f8301169050602081019050919050565b6000819050602082019050919050565b6000819050602082019050919050565b6000819050602082019050919050565b6000819050602082019050919050565b600081519050919050565b600081519050919050565b600081519050919050565b600081519050919050565b600081519050919050565b600081519050919050565b6000602082019050919050565b6000602082019050919050565b6000602082019050919050565b6000602082019050919050565b600082825260208201905092915050565b600082825260208201905092915050565b600082825260208201905092915050565b600082825260208201905092915050565b600082825260208201905092915050565b600082825260208201905092915050565b600082825260208201905092915050565b600081905092915050565b600082825260208201905092915050565b600082825260208201905092915050565b600081905092915050565b600062006a538262006e1e565b915062006a608362006e1e565b9250827fffffffffffffffffffffffffffffffffffffffffffffffffffffffffffffffff0382111562006a985762006a9762006f89565b5b828201905092915050565b600062006ab08262006e28565b915062006abd8362006e28565b92508260ff0382111562006ad65762006ad562006f89565b5b828201905092915050565b600062006aee8262006e1e565b915062006afb8362006e1e565b92508262006b0e5762006b0d62006fb8565b5b828204905092915050565b6000808291508390505b600185111562006b6b5780860481111562006b435762006b4262006f89565b5b600185161562006b535780820291505b808102905062006b638562007034565b945062006b23565b94509492505050565b600062006b818262006e1e565b915062006b8e8362006e28565b925062006bbd7fffffffffffffffffffffffffffffffffffffffffffffffffffffffffffffffff848462006bc5565b905092915050565b60008262006bd7576001905062006caa565b8162006be7576000905062006caa565b816001811462006c00576002811462006c0b5762006c41565b600191505062006caa565b60ff84111562006c205762006c1f62006f89565b5b8360020a91508482111562006c3a5762006c3962006f89565b5b5062006caa565b5060208310610133831016604e8410600b841016171562006c7b5782820a90508381111562006c755762006c7462006f89565b5b62006caa565b62006c8a848484600162006b19565b9250905081840481111562006ca45762006ca362006f89565b5b81810290505b9392505050565b600062006cbe8262006e1e565b915062006ccb8362006e1e565b9250817fffffffffffffffffffffffffffffffffffffffffffffffffffffffffffffffff048311821515161562006d075762006d0662006f89565b5b828202905092915050565b600062006d1f8262006e28565b915062006d2c8362006e28565b92508160ff048311821515161562006d495762006d4862006f89565b5b828202905092915050565b600062006d618262006e1e565b915062006d6e8362006e1e565b92508282101562006d845762006d8362006f89565b5b828203905092915050565b600062006d9c8262006e28565b915062006da98362006e28565b92508282101562006dbf5762006dbe62006f89565b5b828203905092915050565b600062006dd78262006dfe565b9050919050565b600062006deb8262006dfe565b9050919050565b60008115159050919050565b600073ffffffffffffffffffffffffffffffffffffffff82169050919050565b6000819050919050565b600060ff82169050919050565b600062006e428262006e1e565b9050919050565b600062006e568262006e28565b9050919050565b82818337600083830152505050565b60005b8381101562006e8c57808201518184015260208101905062006e6f565b8381111562006e9c576000848401525b50505050565b600062006eaf8262006e1e565b91507fffffffffffffffffffffffffffffffffffffffffffffffffffffffffffffffff82141562006ee55762006ee462006f89565b5b600182019050919050565b600062006efd8262006e28565b915060ff82141562006f145762006f1362006f89565b5b600182019050919050565b600062006f2c8262006f33565b9050919050565b600062006f408262007027565b9050919050565b6000819050919050565b600062006f5e8262006e1e565b915062006f6b8362006e1e565b92508262006f7e5762006f7d62006fb8565b5b828206905092915050565b7f4e487b7100000000000000000000000000000000000000000000000000000000600052601160045260246000fd5b7f4e487b7100000000000000000000000000000000000000000000000000000000600052601260045260246000fd5b7f4e487b7100000000000000000000000000000000000000000000000000000000600052604160045260246000fd5b6000601f19601f8301169050919050565b60008160601b9050919050565b60008160011c9050919050565b6200704c8162006dca565b81146200705857600080fd5b50565b620070668162006dde565b81146200707257600080fd5b50565b620070808162006df2565b81146200708c57600080fd5b50565b6200709a8162006e1e565b8114620070a657600080fd5b50565b620070b48162006e28565b8114620070c057600080fd5b5056fe60806040523480156200001157600080fd5b5060405162004e2938038062004e29833981810160405281019062000037919062000268565b848481600390805190602001906200005192919062000101565b5080600490805190602001906200006a92919062000101565b50505082600c60006101000a81548173ffffffffffffffffffffffffffffffffffffffff021916908373ffffffffffffffffffffffffffffffffffffffff16021790555081600d60006101000a81548173ffffffffffffffffffffffffffffffffffffffff021916908373ffffffffffffffffffffffffffffffffffffffff160217905550806008819055505050505050620004ed565b8280546200010f906200040b565b90600052602060002090601f0160209004810192826200013357600085556200017f565b82601f106200014e57805160ff19168380011785556200017f565b828001600101855582156200017f579182015b828111156200017e57825182559160200191906001019062000161565b5b5090506200018e919062000192565b5090565b5b80821115620001ad57600081600090555060010162000193565b5090565b6000620001c8620001c28462000350565b6200031c565b905082815260208101848484011115620001e157600080fd5b620001ee848285620003d5565b509392505050565b60008151905062000207816200049f565b92915050565b6000815190506200021e81620004b9565b92915050565b600082601f8301126200023657600080fd5b815162000248848260208601620001b1565b91505092915050565b6000815190506200026281620004d3565b92915050565b600080600080600060a086880312156200028157600080fd5b600086015167ffffffffffffffff8111156200029c57600080fd5b620002aa8882890162000224565b955050602086015167ffffffffffffffff811115620002c857600080fd5b620002d68882890162000224565b9450506040620002e9888289016200020d565b9350506060620002fc88828901620001f6565b92505060806200030f8882890162000251565b9150509295509295909350565b6000604051905081810181811067ffffffffffffffff8211171562000346576200034562000470565b5b8060405250919050565b600067ffffffffffffffff8211156200036e576200036d62000470565b5b601f19601f8301169050602081019050919050565b60006200039082620003ab565b9050919050565b6000620003a482620003ab565b9050919050565b600073ffffffffffffffffffffffffffffffffffffffff82169050919050565b6000819050919050565b60005b83811015620003f5578082015181840152602081019050620003d8565b8381111562000405576000848401525b50505050565b600060028204905060018216806200042457607f821691505b602082108114156200043b576200043a62000441565b5b50919050565b7f4e487b7100000000000000000000000000000000000000000000000000000000600052602260045260246000fd5b7f4e487b7100000000000000000000000000000000000000000000000000000000600052604160045260246000fd5b620004aa8162000383565b8114620004b657600080fd5b50565b620004c48162000397565b8114620004d057600080fd5b50565b620004de81620003cb565b8114620004ea57600080fd5b50565b61492c80620004fd6000396000f3fe6080604052600436106101b75760003560e01c806372a2377f116100ec578063c7f067441161008a578063cd9f092111610064578063cd9f092114610644578063dd62ed3e1461064e578063f798e5251461068b578063fd0232b2146106b4576101b7565b8063c7f06744146105b5578063ca6d56dc146105de578063ccf25b4d14610607576101b7565b806399103d1f116100c657806399103d1f146104e9578063a457c2d714610512578063a9059cbb1461054f578063aa887bb61461058c576101b7565b806372a2377f1461046a5780637c0f6b351461049357806395d89b41146104be576101b7565b8063405664881161015957806355f6e5071161013357806355f6e5071461039c5780635d1ca631146103d95780636586737a1461040457806370a082311461042d576101b7565b8063405664881461033157806341c0e1b51461035c57806344a96ce014610373576101b7565b806323b872dd1161019557806323b872dd1461024f5780632f54bf6e1461028c578063313ce567146102c957806339509351146102f4576101b7565b806306fdde03146101bc578063095ea7b3146101e757806318160ddd14610224575b600080fd5b3480156101c857600080fd5b506101d16106f1565b6040516101de91906142dd565b60405180910390f35b3480156101f357600080fd5b5061020e600480360381019061020991906136b9565b610783565b60405161021b91906142c2565b60405180910390f35b34801561023057600080fd5b506102396107a1565b604051610246919061455e565b60405180910390f35b34801561025b57600080fd5b506102766004803603810190610271919061366a565b6107ab565b60405161028391906142c2565b60405180910390f35b34801561029857600080fd5b506102b360048036038101906102ae9190613605565b6108a3565b6040516102c091906142c2565b60405180910390f35b3480156102d557600080fd5b506102de6108fd565b6040516102eb9190614579565b60405180910390f35b34801561030057600080fd5b5061031b600480360381019061031691906136b9565b610906565b60405161032891906142c2565b60405180910390f35b34801561033d57600080fd5b506103466109b2565b604051610353919061427e565b60405180910390f35b34801561036857600080fd5b50610371610c86565b005b34801561037f57600080fd5b5061039a60048036038101906103959190613731565b610da9565b005b3480156103a857600080fd5b506103c360048036038101906103be9190613605565b610ec3565b6040516103d09190614543565b60405180910390f35b3480156103e557600080fd5b506103ee611080565b6040516103fb919061455e565b60405180910390f35b34801561041057600080fd5b5061042b6004803603810190610426919061376d565b61108a565b005b34801561043957600080fd5b50610454600480360381019061044f9190613605565b611175565b604051610461919061455e565b60405180910390f35b34801561047657600080fd5b50610491600480360381019061048c91906137ae565b6111bd565b005b34801561049f57600080fd5b506104a8611420565b6040516104b591906142a0565b60405180910390f35b3480156104ca57600080fd5b506104d36116e9565b6040516104e091906142dd565b60405180910390f35b3480156104f557600080fd5b50610510600480360381019061050b9190613800565b61177b565b005b34801561051e57600080fd5b50610539600480360381019061053491906136b9565b611a4e565b60405161054691906142c2565b60405180910390f35b34801561055b57600080fd5b50610576600480360381019061057191906136b9565b611b39565b60405161058391906142c2565b60405180910390f35b34801561059857600080fd5b506105b360048036038101906105ae9190613605565b611b57565b005b3480156105c157600080fd5b506105dc60048036038101906105d791906137ae565b61203c565b005b3480156105ea57600080fd5b5061060560048036038101906106009190613605565b6121de565b005b34801561061357600080fd5b5061062e600480360381019061062991906137d7565b6125d7565b60405161063b91906144ff565b60405180910390f35b61064c612775565b005b34801561065a57600080fd5b506106756004803603810190610670919061362e565b6128a3565b604051610682919061455e565b60405180910390f35b34801561069757600080fd5b506106b260048036038101906106ad91906136f5565b61292a565b005b3480156106c057600080fd5b506106db60048036038101906106d691906137ae565b612db2565b6040516106e89190614521565b60405180910390f35b60606003805461070090614781565b80601f016020809104026020016040519081016040528092919081815260200182805461072c90614781565b80156107795780601f1061074e57610100808354040283529160200191610779565b820191906000526020600020905b81548152906001019060200180831161075c57829003601f168201915b5050505050905090565b6000610797610790612f4c565b8484612f54565b6001905092915050565b6000600254905090565b60006107b884848461311f565b6000600160008673ffffffffffffffffffffffffffffffffffffffff1673ffffffffffffffffffffffffffffffffffffffff1681526020019081526020016000206000610803612f4c565b73ffffffffffffffffffffffffffffffffffffffff1673ffffffffffffffffffffffffffffffffffffffff16815260200190815260200160002054905082811015610883576040517f08c379a000000000000000000000000000000000000000000000000000000000815260040161087a9061441f565b60405180910390fd5b6108978561088f612f4c565b858403612f54565b60019150509392505050565b6000600c60009054906101000a900473ffffffffffffffffffffffffffffffffffffffff1673ffffffffffffffffffffffffffffffffffffffff168273ffffffffffffffffffffffffffffffffffffffff16149050919050565b60006012905090565b60006109a8610913612f4c565b848460016000610921612f4c565b73ffffffffffffffffffffffffffffffffffffffff1673ffffffffffffffffffffffffffffffffffffffff16815260200190815260200160002060008873ffffffffffffffffffffffffffffffffffffffff1673ffffffffffffffffffffffffffffffffffffffff168152602001908152602001600020546109a39190614694565b612f54565b6001905092915050565b60606000600b541415610a4157600067ffffffffffffffff811115610a00577f4e487b7100000000000000000000000000000000000000000000000000000000600052604160045260246000fd5b604051908082528060200260200182016040528015610a3957816020015b610a266133aa565b815260200190600190039081610a1e5790505b509050610c83565b6000600b5467ffffffffffffffff811115610a85577f4e487b7100000000000000000000000000000000000000000000000000000000600052604160045260246000fd5b604051908082528060200260200182016040528015610abe57816020015b610aab6133aa565b815260200190600190039081610aa35790505b50905060005b600b54811015610c7d57600115156007600083815260200190815260200160002060000160009054906101000a900460ff1615151415610c6a576000600760008381526020019081526020016000209050806040518060600160405290816000820160009054906101000a900460ff161515151581526020016000820160019054906101000a900473ffffffffffffffffffffffffffffffffffffffff1673ffffffffffffffffffffffffffffffffffffffff1673ffffffffffffffffffffffffffffffffffffffff168152602001600182018054610ba290614781565b80601f0160208091040260200160405190810160405280929190818152602001828054610bce90614781565b8015610c1b5780601f10610bf057610100808354040283529160200191610c1b565b820191906000526020600020905b815481529060010190602001808311610bfe57829003601f168201915b505050505081525050838381518110610c5d577f4e487b7100000000000000000000000000000000000000000000000000000000600052603260045260246000fd5b6020026020010181905250505b8080610c75906147b3565b915050610ac4565b50809150505b90565b600c60009054906101000a900473ffffffffffffffffffffffffffffffffffffffff1673ffffffffffffffffffffffffffffffffffffffff163373ffffffffffffffffffffffffffffffffffffffff161480610d2f5750600d60009054906101000a900473ffffffffffffffffffffffffffffffffffffffff1673ffffffffffffffffffffffffffffffffffffffff163373ffffffffffffffffffffffffffffffffffffffff16145b610d6e576040517f08c379a0000000000000000000000000000000000000000000000000000000008152600401610d65906144bf565b60405180910390fd5b600c60009054906101000a900473ffffffffffffffffffffffffffffffffffffffff1673ffffffffffffffffffffffffffffffffffffffff16ff5b600c60009054906101000a900473ffffffffffffffffffffffffffffffffffffffff1673ffffffffffffffffffffffffffffffffffffffff163373ffffffffffffffffffffffffffffffffffffffff161480610e525750600d60009054906101000a900473ffffffffffffffffffffffffffffffffffffffff1673ffffffffffffffffffffffffffffffffffffffff163373ffffffffffffffffffffffffffffffffffffffff16145b610e91576040517f08c379a0000000000000000000000000000000000000000000000000000000008152600401610e88906144bf565b60405180910390fd5b816006600083815260200190815260200160002060000160006101000a81548160ff0219169083151502179055505050565b610ecb6133e3565b610ed36133e3565b60005b600a54811015611076578373ffffffffffffffffffffffffffffffffffffffff166006600083815260200190815260200160002060040160009054906101000a900473ffffffffffffffffffffffffffffffffffffffff1673ffffffffffffffffffffffffffffffffffffffff16141561106357600660008281526020019081526020016000206040518060c00160405290816000820160009054906101000a900460ff161515151581526020016000820160019054906101000a900460ff1660ff1660ff16815260200160018201548152602001600282015481526020016003820160009054906101000a900473ffffffffffffffffffffffffffffffffffffffff1673ffffffffffffffffffffffffffffffffffffffff1673ffffffffffffffffffffffffffffffffffffffff1681526020016004820160009054906101000a900473ffffffffffffffffffffffffffffffffffffffff1673ffffffffffffffffffffffffffffffffffffffff1673ffffffffffffffffffffffffffffffffffffffff168152505091505b808061106e906147b3565b915050610ed6565b5080915050919050565b6000600854905090565b60405180606001604052806001151581526020013373ffffffffffffffffffffffffffffffffffffffff1681526020018281525060076000600b54815260200190815260200160002060008201518160000160006101000a81548160ff02191690831515021790555060208201518160000160016101000a81548173ffffffffffffffffffffffffffffffffffffffff021916908373ffffffffffffffffffffffffffffffffffffffff160217905550604082015181600101908051906020019061115692919061344a565b50905050600b600081548092919061116d906147b3565b919050555050565b60008060008373ffffffffffffffffffffffffffffffffffffffff1673ffffffffffffffffffffffffffffffffffffffff168152602001908152602001600020549050919050565b600115156007600083815260200190815260200160002060000160009054906101000a900460ff16151514611227576040517f08c379a000000000000000000000000000000000000000000000000000000000815260040161121e9061433f565b60405180910390fd5b600080600090505b600a548110156112ba573373ffffffffffffffffffffffffffffffffffffffff166006600083815260200190815260200160002060040160009054906101000a900473ffffffffffffffffffffffffffffffffffffffff1673ffffffffffffffffffffffffffffffffffffffff1614156112a7578091505b80806112b2906147b3565b91505061122f565b503373ffffffffffffffffffffffffffffffffffffffff166007600084815260200190815260200160002060000160019054906101000a900473ffffffffffffffffffffffffffffffffffffffff1673ffffffffffffffffffffffffffffffffffffffff1614806113ae5750600115156006600083815260200190815260200160002060000160009054906101000a900460ff1615151480156113ad575060011515600560006006600085815260200190815260200160002060000160019054906101000a900460ff1660ff1660ff16815260200190815260200160002060000160049054906101000a900460ff161515145b5b6113ed576040517f08c379a00000000000000000000000000000000000000000000000000000000081526004016113e49061435f565b60405180910390fd5b60006007600084815260200190815260200160002060000160006101000a81548160ff0219169083151502179055505050565b60606000600a5414156114af57600067ffffffffffffffff81111561146e577f4e487b7100000000000000000000000000000000000000000000000000000000600052604160045260246000fd5b6040519080825280602002602001820160405280156114a757816020015b6114946133e3565b81526020019060019003908161148c5790505b5090506116e6565b6000600a5467ffffffffffffffff8111156114f3577f4e487b7100000000000000000000000000000000000000000000000000000000600052604160045260246000fd5b60405190808252806020026020018201604052801561152c57816020015b6115196133e3565b8152602001906001900390816115115790505b50905060005b600a548110156116e057600115156006600083815260200190815260200160002060000160009054906101000a900460ff16151514156116cd576000600660008381526020019081526020016000209050806040518060c00160405290816000820160009054906101000a900460ff161515151581526020016000820160019054906101000a900460ff1660ff1660ff16815260200160018201548152602001600282015481526020016003820160009054906101000a900473ffffffffffffffffffffffffffffffffffffffff1673ffffffffffffffffffffffffffffffffffffffff1673ffffffffffffffffffffffffffffffffffffffff1681526020016004820160009054906101000a900473ffffffffffffffffffffffffffffffffffffffff1673ffffffffffffffffffffffffffffffffffffffff1673ffffffffffffffffffffffffffffffffffffffff16815250508383815181106116c0577f4e487b7100000000000000000000000000000000000000000000000000000000600052603260045260246000fd5b6020026020010181905250505b80806116d8906147b3565b915050611532565b50809150505b90565b6060600480546116f890614781565b80601f016020809104026020016040519081016040528092919081815260200182805461172490614781565b80156117715780601f1061174657610100808354040283529160200191611771565b820191906000526020600020905b81548152906001019060200180831161175457829003601f168201915b5050505050905090565b600c60009054906101000a900473ffffffffffffffffffffffffffffffffffffffff1673ffffffffffffffffffffffffffffffffffffffff163373ffffffffffffffffffffffffffffffffffffffff1614806118245750600d60009054906101000a900473ffffffffffffffffffffffffffffffffffffffff1673ffffffffffffffffffffffffffffffffffffffff163373ffffffffffffffffffffffffffffffffffffffff16145b611863576040517f08c379a000000000000000000000000000000000000000000000000000000000815260040161185a906144bf565b60405180910390fd5b60008a60ff161180156118795750600a8a60ff16105b6118b8576040517f08c379a00000000000000000000000000000000000000000000000000000000081526004016118af9061445f565b60405180910390fd5b6040518061012001604052808a15158152602001891515815260200188151581526020018715158152602001861515815260200185151581526020018415158152602001831515815260200182815250600560008c60ff1660ff16815260200190815260200160002060008201518160000160006101000a81548160ff02191690831515021790555060208201518160000160016101000a81548160ff02191690831515021790555060408201518160000160026101000a81548160ff02191690831515021790555060608201518160000160036101000a81548160ff02191690831515021790555060808201518160000160046101000a81548160ff02191690831515021790555060a08201518160000160056101000a81548160ff02191690831515021790555060c08201518160000160066101000a81548160ff02191690831515021790555060e08201518160000160076101000a81548160ff021916908315150217905550610100820151816001019080519060200190611a3e92919061344a565b5090505050505050505050505050565b60008060016000611a5d612f4c565b73ffffffffffffffffffffffffffffffffffffffff1673ffffffffffffffffffffffffffffffffffffffff16815260200190815260200160002060008573ffffffffffffffffffffffffffffffffffffffff1673ffffffffffffffffffffffffffffffffffffffff16815260200190815260200160002054905082811015611b1a576040517f08c379a0000000000000000000000000000000000000000000000000000000008152600401611b11906144df565b60405180910390fd5b611b2e611b25612f4c565b85858403612f54565b600191505092915050565b6000611b4d611b46612f4c565b848461311f565b6001905092915050565b60008060005b600a54811015611c56573373ffffffffffffffffffffffffffffffffffffffff166006600083815260200190815260200160002060040160009054906101000a900473ffffffffffffffffffffffffffffffffffffffff1673ffffffffffffffffffffffffffffffffffffffff161415611bd5578092505b8373ffffffffffffffffffffffffffffffffffffffff166006600083815260200190815260200160002060040160009054906101000a900473ffffffffffffffffffffffffffffffffffffffff1673ffffffffffffffffffffffffffffffffffffffff161415611c43578091505b8080611c4e906147b3565b915050611b5d565b5060011515600560006006600086815260200190815260200160002060000160019054906101000a900460ff1660ff1660ff16815260200190815260200160002060000160049054906101000a900460ff1615151480611d035750600c60009054906101000a900473ffffffffffffffffffffffffffffffffffffffff1673ffffffffffffffffffffffffffffffffffffffff163373ffffffffffffffffffffffffffffffffffffffff16145b80611d5b5750600d60009054906101000a900473ffffffffffffffffffffffffffffffffffffffff1673ffffffffffffffffffffffffffffffffffffffff163373ffffffffffffffffffffffffffffffffffffffff16145b611d9a576040517f08c379a0000000000000000000000000000000000000000000000000000000008152600401611d91906143ff565b60405180910390fd5b6006600082815260200190815260200160002060000160019054906101000a900460ff1660ff166006600084815260200190815260200160002060000160019054906101000a900460ff1660ff161180611e415750600c60009054906101000a900473ffffffffffffffffffffffffffffffffffffffff1673ffffffffffffffffffffffffffffffffffffffff163373ffffffffffffffffffffffffffffffffffffffff16145b80611e995750600d60009054906101000a900473ffffffffffffffffffffffffffffffffffffffff1673ffffffffffffffffffffffffffffffffffffffff163373ffffffffffffffffffffffffffffffffffffffff16145b611ed8576040517f08c379a0000000000000000000000000000000000000000000000000000000008152600401611ecf906143df565b60405180910390fd5b600115156006600083815260200190815260200160002060000160009054906101000a900460ff161515148015611f365750600115156006600084815260200190815260200160002060000160009054906101000a900460ff161515145b611f75576040517f08c379a0000000000000000000000000000000000000000000000000000000008152600401611f6c9061443f565b60405180910390fd5b6006600082815260200190815260200160002060040160009054906101000a900473ffffffffffffffffffffffffffffffffffffffff1673ffffffffffffffffffffffffffffffffffffffff166108fc60066000848152602001908152602001600020600201549081150290604051600060405180830381858888f19350505050158015612007573d6000803e3d6000fd5b5060006006600083815260200190815260200160002060000160006101000a81548160ff021916908315150217905550505050565b600080600090505b600a548110156120cf573373ffffffffffffffffffffffffffffffffffffffff166006600083815260200190815260200160002060040160009054906101000a900473ffffffffffffffffffffffffffffffffffffffff1673ffffffffffffffffffffffffffffffffffffffff1614156120bc578091505b80806120c7906147b3565b915050612044565b50600115156006600083815260200190815260200160002060000160009054906101000a900460ff1615151461213a576040517f08c379a00000000000000000000000000000000000000000000000000000000081526004016121319061443f565b60405180910390fd5b8160066000838152602001908152602001600020600201541015612193576040517f08c379a000000000000000000000000000000000000000000000000000000000815260040161218a9061439f565b60405180910390fd5b3373ffffffffffffffffffffffffffffffffffffffff166108fc839081150290604051600060405180830381858888f193505050501580156121d9573d6000803e3d6000fd5b505050565b60008060005b600a5481101561226f573373ffffffffffffffffffffffffffffffffffffffff166006600083815260200190815260200160002060040160009054906101000a900473ffffffffffffffffffffffffffffffffffffffff1673ffffffffffffffffffffffffffffffffffffffff16141561225c578092505b8080612267906147b3565b9150506121e4565b5060005b600b548110156122fe578373ffffffffffffffffffffffffffffffffffffffff166007600083815260200190815260200160002060000160019054906101000a900473ffffffffffffffffffffffffffffffffffffffff1673ffffffffffffffffffffffffffffffffffffffff1614156122eb578091505b80806122f6906147b3565b915050612273565b50600115156006600083815260200190815260200160002060000160009054906101000a900460ff16151514612369576040517f08c379a00000000000000000000000000000000000000000000000000000000081526004016123609061431f565b60405180910390fd5b600115156006600084815260200190815260200160002060000160009054906101000a900460ff1615151480156123f0575060011515600560006006600086815260200190815260200160002060000160019054906101000a900460ff1660ff1660ff16815260200190815260200160002060000160039054906101000a900460ff161515145b61242f576040517f08c379a00000000000000000000000000000000000000000000000000000000081526004016124269061435f565b60405180910390fd5b6040518060c00160405280600015158152602001600060ff168152602001428152602001600081526020013373ffffffffffffffffffffffffffffffffffffffff1681526020018473ffffffffffffffffffffffffffffffffffffffff1681525060066000600954815260200190815260200160002060008201518160000160006101000a81548160ff02191690831515021790555060208201518160000160016101000a81548160ff021916908360ff160217905550604082015181600101556060820151816002015560808201518160030160006101000a81548173ffffffffffffffffffffffffffffffffffffffff021916908373ffffffffffffffffffffffffffffffffffffffff16021790555060a08201518160040160006101000a81548173ffffffffffffffffffffffffffffffffffffffff021916908373ffffffffffffffffffffffffffffffffffffffff16021790555090505060006006600083815260200190815260200160002060000160006101000a81548160ff021916908315150217905550600960008154809291906125cd906147b3565b9190505550505050565b6125df6134d0565b600560008360ff1660ff168152602001908152602001600020604051806101200160405290816000820160009054906101000a900460ff161515151581526020016000820160019054906101000a900460ff161515151581526020016000820160029054906101000a900460ff161515151581526020016000820160039054906101000a900460ff161515151581526020016000820160049054906101000a900460ff161515151581526020016000820160059054906101000a900460ff161515151581526020016000820160069054906101000a900460ff161515151581526020016000820160079054906101000a900460ff161515151581526020016001820180546126ec90614781565b80601f016020809104026020016040519081016040528092919081815260200182805461271890614781565b80156127655780601f1061273a57610100808354040283529160200191612765565b820191906000526020600020905b81548152906001019060200180831161274857829003601f168201915b5050505050815250509050919050565b600080600090505b600a54811015612808573373ffffffffffffffffffffffffffffffffffffffff166006600083815260200190815260200160002060040160009054906101000a900473ffffffffffffffffffffffffffffffffffffffff1673ffffffffffffffffffffffffffffffffffffffff1614156127f5578091505b8080612800906147b3565b91505061277d565b50600115156006600083815260200190815260200160002060000160009054906101000a900460ff16151514612873576040517f08c379a000000000000000000000000000000000000000000000000000000000815260040161286a9061443f565b60405180910390fd5b346006600083815260200190815260200160002060020160008282546128999190614694565b9250508190555050565b6000600160008473ffffffffffffffffffffffffffffffffffffffff1673ffffffffffffffffffffffffffffffffffffffff16815260200190815260200160002060008373ffffffffffffffffffffffffffffffffffffffff1673ffffffffffffffffffffffffffffffffffffffff16815260200190815260200160002054905092915050565b60008060005b600a54811015612a29573373ffffffffffffffffffffffffffffffffffffffff166006600083815260200190815260200160002060040160009054906101000a900473ffffffffffffffffffffffffffffffffffffffff1673ffffffffffffffffffffffffffffffffffffffff1614156129a8578092505b8473ffffffffffffffffffffffffffffffffffffffff166006600083815260200190815260200160002060040160009054906101000a900473ffffffffffffffffffffffffffffffffffffffff1673ffffffffffffffffffffffffffffffffffffffff161415612a16578091505b8080612a21906147b3565b915050612930565b5060011515600560006006600086815260200190815260200160002060000160019054906101000a900460ff1660ff1660ff16815260200190815260200160002060000160079054906101000a900460ff1615151480612ad65750600c60009054906101000a900473ffffffffffffffffffffffffffffffffffffffff1673ffffffffffffffffffffffffffffffffffffffff163373ffffffffffffffffffffffffffffffffffffffff16145b80612b2e5750600d60009054906101000a900473ffffffffffffffffffffffffffffffffffffffff1673ffffffffffffffffffffffffffffffffffffffff163373ffffffffffffffffffffffffffffffffffffffff16145b612b6d576040517f08c379a0000000000000000000000000000000000000000000000000000000008152600401612b64906143ff565b60405180910390fd5b8260ff166006600084815260200190815260200160002060000160019054906101000a900460ff1660ff1610158015612bf157506006600082815260200190815260200160002060000160019054906101000a900460ff1660ff166006600084815260200190815260200160002060000160019054906101000a900460ff1660ff16115b80612c495750600c60009054906101000a900473ffffffffffffffffffffffffffffffffffffffff1673ffffffffffffffffffffffffffffffffffffffff163373ffffffffffffffffffffffffffffffffffffffff16145b80612ca15750600d60009054906101000a900473ffffffffffffffffffffffffffffffffffffffff1673ffffffffffffffffffffffffffffffffffffffff163373ffffffffffffffffffffffffffffffffffffffff16145b612ce0576040517f08c379a0000000000000000000000000000000000000000000000000000000008152600401612cd7906143df565b60405180910390fd5b600115156006600083815260200190815260200160002060000160009054906101000a900460ff161515148015612d3e5750600115156006600084815260200190815260200160002060000160009054906101000a900460ff161515145b612d7d576040517f08c379a0000000000000000000000000000000000000000000000000000000008152600401612d749061443f565b60405180910390fd5b826006600084815260200190815260200160002060000160016101000a81548160ff021916908360ff16021790555050505050565b612dba6133aa565b600115156007600084815260200190815260200160002060000160009054906101000a900460ff16151514612e24576040517f08c379a0000000000000000000000000000000000000000000000000000000008152600401612e1b9061433f565b60405180910390fd5b600760008381526020019081526020016000206040518060600160405290816000820160009054906101000a900460ff161515151581526020016000820160019054906101000a900473ffffffffffffffffffffffffffffffffffffffff1673ffffffffffffffffffffffffffffffffffffffff1673ffffffffffffffffffffffffffffffffffffffff168152602001600182018054612ec390614781565b80601f0160208091040260200160405190810160405280929190818152602001828054612eef90614781565b8015612f3c5780601f10612f1157610100808354040283529160200191612f3c565b820191906000526020600020905b815481529060010190602001808311612f1f57829003601f168201915b5050505050815250509050919050565b600033905090565b600073ffffffffffffffffffffffffffffffffffffffff168373ffffffffffffffffffffffffffffffffffffffff161415612fc4576040517f08c379a0000000000000000000000000000000000000000000000000000000008152600401612fbb9061449f565b60405180910390fd5b600073ffffffffffffffffffffffffffffffffffffffff168273ffffffffffffffffffffffffffffffffffffffff161415613034576040517f08c379a000000000000000000000000000000000000000000000000000000000815260040161302b9061437f565b60405180910390fd5b80600160008573ffffffffffffffffffffffffffffffffffffffff1673ffffffffffffffffffffffffffffffffffffffff16815260200190815260200160002060008473ffffffffffffffffffffffffffffffffffffffff1673ffffffffffffffffffffffffffffffffffffffff168152602001908152602001600020819055508173ffffffffffffffffffffffffffffffffffffffff168373ffffffffffffffffffffffffffffffffffffffff167f8c5be1e5ebec7d5bd14f71427d1e84f3dd0314c0f7b2291e5b200ac8c7c3b92583604051613112919061455e565b60405180910390a3505050565b600073ffffffffffffffffffffffffffffffffffffffff168373ffffffffffffffffffffffffffffffffffffffff16141561318f576040517f08c379a00000000000000000000000000000000000000000000000000000000081526004016131869061447f565b60405180910390fd5b600073ffffffffffffffffffffffffffffffffffffffff168273ffffffffffffffffffffffffffffffffffffffff1614156131ff576040517f08c379a00000000000000000000000000000000000000000000000000000000081526004016131f6906142ff565b60405180910390fd5b61320a8383836133a0565b60008060008573ffffffffffffffffffffffffffffffffffffffff1673ffffffffffffffffffffffffffffffffffffffff16815260200190815260200160002054905081811015613290576040517f08c379a0000000000000000000000000000000000000000000000000000000008152600401613287906143bf565b60405180910390fd5b8181036000808673ffffffffffffffffffffffffffffffffffffffff1673ffffffffffffffffffffffffffffffffffffffff16815260200190815260200160002081905550816000808573ffffffffffffffffffffffffffffffffffffffff1673ffffffffffffffffffffffffffffffffffffffff16815260200190815260200160002060008282546133239190614694565b925050819055508273ffffffffffffffffffffffffffffffffffffffff168473ffffffffffffffffffffffffffffffffffffffff167fddf252ad1be2c89b69c2b068fc378daa952ba7f163c4a11628f55a4df523b3ef84604051613387919061455e565b60405180910390a361339a8484846133a5565b50505050565b505050565b505050565b6040518060600160405280600015158152602001600073ffffffffffffffffffffffffffffffffffffffff168152602001606081525090565b6040518060c00160405280600015158152602001600060ff1681526020016000815260200160008152602001600073ffffffffffffffffffffffffffffffffffffffff168152602001600073ffffffffffffffffffffffffffffffffffffffff1681525090565b82805461345690614781565b90600052602060002090601f01602090048101928261347857600085556134bf565b82601f1061349157805160ff19168380011785556134bf565b828001600101855582156134bf579182015b828111156134be5782518255916020019190600101906134a3565b5b5090506134cc919061352c565b5090565b604051806101200160405280600015158152602001600015158152602001600015158152602001600015158152602001600015158152602001600015158152602001600015158152602001600015158152602001606081525090565b5b8082111561354557600081600090555060010161352d565b5090565b600061355c613557846145c5565b614594565b90508281526020810184848401111561357457600080fd5b61357f84828561473f565b509392505050565b6000813590506135968161489a565b92915050565b6000813590506135ab816148b1565b92915050565b600082601f8301126135c257600080fd5b81356135d2848260208601613549565b91505092915050565b6000813590506135ea816148c8565b92915050565b6000813590506135ff816148df565b92915050565b60006020828403121561361757600080fd5b600061362584828501613587565b91505092915050565b6000806040838503121561364157600080fd5b600061364f85828601613587565b925050602061366085828601613587565b9150509250929050565b60008060006060848603121561367f57600080fd5b600061368d86828701613587565b935050602061369e86828701613587565b92505060406136af868287016135db565b9150509250925092565b600080604083850312156136cc57600080fd5b60006136da85828601613587565b92505060206136eb858286016135db565b9150509250929050565b6000806040838503121561370857600080fd5b600061371685828601613587565b9250506020613727858286016135f0565b9150509250929050565b6000806040838503121561374457600080fd5b60006137528582860161359c565b9250506020613763858286016135db565b9150509250929050565b60006020828403121561377f57600080fd5b600082013567ffffffffffffffff81111561379957600080fd5b6137a5848285016135b1565b91505092915050565b6000602082840312156137c057600080fd5b60006137ce848285016135db565b91505092915050565b6000602082840312156137e957600080fd5b60006137f7848285016135f0565b91505092915050565b6000806000806000806000806000806101408b8d03121561382057600080fd5b600061382e8d828e016135f0565b9a5050602061383f8d828e0161359c565b99505060406138508d828e0161359c565b98505060606138618d828e0161359c565b97505060806138728d828e0161359c565b96505060a06138838d828e0161359c565b95505060c06138948d828e0161359c565b94505060e06138a58d828e0161359c565b9350506101006138b78d828e0161359c565b9250506101208b013567ffffffffffffffff8111156138d557600080fd5b6138e18d828e016135b1565b9150509295989b9194979a5092959850565b60006138ff83836140ac565b905092915050565b6000613913838361414c565b60c08301905092915050565b613928816146ea565b82525050565b600061393982614615565b6139438185614650565b935083602082028501613955856145f5565b8060005b85811015613991578484038952815161397285826138f3565b945061397d83614636565b925060208a01995050600181019050613959565b50829750879550505050505092915050565b60006139ae82614620565b6139b88185614661565b93506139c383614605565b8060005b838110156139f45781516139db8882613907565b97506139e683614643565b9250506001810190506139c7565b5085935050505092915050565b613a0a816146fc565b82525050565b613a19816146fc565b82525050565b6000613a2a8261462b565b613a348185614672565b9350613a4481856020860161474e565b613a4d81614889565b840191505092915050565b6000613a638261462b565b613a6d8185614683565b9350613a7d81856020860161474e565b613a8681614889565b840191505092915050565b6000613a9e602383614683565b91507f45524332303a207472616e7366657220746f20746865207a65726f206164647260008301527f65737300000000000000000000000000000000000000000000000000000000006020830152604082019050919050565b6000613b04600e83614683565b91507f55736572206e6f742076616c69640000000000000000000000000000000000006000830152602082019050919050565b6000613b44602083614683565b91507f5468697320696e7669746174696f6e206973206e6f206d6f72652076616c69646000830152602082019050919050565b6000613b84602283614683565b91507f596f757220617265206e6f7420617574686f72697a656420746f20646f20746860008301527f69730000000000000000000000000000000000000000000000000000000000006020830152604082019050919050565b6000613bea602283614683565b91507f45524332303a20617070726f766520746f20746865207a65726f20616464726560008301527f73730000000000000000000000000000000000000000000000000000000000006020830152604082019050919050565b6000613c50601a83614683565b91507f4e6f7420656e6f7567746820657468657220696e2063686573740000000000006000830152602082019050919050565b6000613c90602683614683565b91507f45524332303a207472616e7366657220616d6f756e742065786365656473206260008301527f616c616e636500000000000000000000000000000000000000000000000000006020830152604082019050919050565b6000613cf6601c83614683565b91507f596f75722072616e6b206973206e6f74206869676820656e6f756768000000006000830152602082019050919050565b6000613d36602683614683565b91507f596f75722072616e6b20646f6573206e6f7420617574686f72697a652075706760008301527f726164696e6700000000000000000000000000000000000000000000000000006020830152604082019050919050565b6000613d9c602883614683565b91507f45524332303a207472616e7366657220616d6f756e742065786365656473206160008301527f6c6c6f77616e63650000000000000000000000000000000000000000000000006020830152604082019050919050565b6000613e02600e83614683565b91507f4e6f742076616c696420757365720000000000000000000000000000000000006000830152602082019050919050565b6000613e42600c83614683565b91507f3130204772616465204d617800000000000000000000000000000000000000006000830152602082019050919050565b6000613e82602583614683565b91507f45524332303a207472616e736665722066726f6d20746865207a65726f20616460008301527f64726573730000000000000000000000000000000000000000000000000000006020830152604082019050919050565b6000613ee8602483614683565b91507f45524332303a20617070726f76652066726f6d20746865207a65726f2061646460008301527f72657373000000000000000000000000000000000000000000000000000000006020830152604082019050919050565b6000613f4e600e83614683565b91507f4e6f7420796f7572206775696c640000000000000000000000000000000000006000830152602082019050919050565b6000613f8e602583614683565b91507f45524332303a2064656372656173656420616c6c6f77616e63652062656c6f7760008301527f207a65726f0000000000000000000000000000000000000000000000000000006020830152604082019050919050565b6000610120830160008301516140006000860182613a01565b5060208301516140136020860182613a01565b5060408301516140266040860182613a01565b5060608301516140396060860182613a01565b50608083015161404c6080860182613a01565b5060a083015161405f60a0860182613a01565b5060c083015161407260c0860182613a01565b5060e083015161408560e0860182613a01565b5061010083015184820361010086015261409f8282613a1f565b9150508091505092915050565b60006060830160008301516140c46000860182613a01565b5060208301516140d7602086018261391f565b50604083015184820360408601526140ef8282613a1f565b9150508091505092915050565b60006060830160008301516141146000860182613a01565b506020830151614127602086018261391f565b506040830151848203604086015261413f8282613a1f565b9150508091505092915050565b60c0820160008201516141626000850182613a01565b5060208201516141756020850182614260565b5060408201516141886040850182614242565b50606082015161419b6060850182614242565b5060808201516141ae608085018261391f565b5060a08201516141c160a085018261391f565b50505050565b60c0820160008201516141dd6000850182613a01565b5060208201516141f06020850182614260565b5060408201516142036040850182614242565b5060608201516142166060850182614242565b506080820151614229608085018261391f565b5060a082015161423c60a085018261391f565b50505050565b61424b81614728565b82525050565b61425a81614728565b82525050565b61426981614732565b82525050565b61427881614732565b82525050565b60006020820190508181036000830152614298818461392e565b905092915050565b600060208201905081810360008301526142ba81846139a3565b905092915050565b60006020820190506142d76000830184613a10565b92915050565b600060208201905081810360008301526142f78184613a58565b905092915050565b6000602082019050818103600083015261431881613a91565b9050919050565b6000602082019050818103600083015261433881613af7565b9050919050565b6000602082019050818103600083015261435881613b37565b9050919050565b6000602082019050818103600083015261437881613b77565b9050919050565b6000602082019050818103600083015261439881613bdd565b9050919050565b600060208201905081810360008301526143b881613c43565b9050919050565b600060208201905081810360008301526143d881613c83565b9050919050565b600060208201905081810360008301526143f881613ce9565b9050919050565b6000602082019050818103600083015261441881613d29565b9050919050565b6000602082019050818103600083015261443881613d8f565b9050919050565b6000602082019050818103600083015261445881613df5565b9050919050565b6000602082019050818103600083015261447881613e35565b9050919050565b6000602082019050818103600083015261449881613e75565b9050919050565b600060208201905081810360008301526144b881613edb565b9050919050565b600060208201905081810360008301526144d881613f41565b9050919050565b600060208201905081810360008301526144f881613f81565b9050919050565b600060208201905081810360008301526145198184613fe7565b905092915050565b6000602082019050818103600083015261453b81846140fc565b905092915050565b600060c08201905061455860008301846141c7565b92915050565b60006020820190506145736000830184614251565b92915050565b600060208201905061458e600083018461426f565b92915050565b6000604051905081810181811067ffffffffffffffff821117156145bb576145ba61485a565b5b8060405250919050565b600067ffffffffffffffff8211156145e0576145df61485a565b5b601f19601f8301169050602081019050919050565b6000819050602082019050919050565b6000819050602082019050919050565b600081519050919050565b600081519050919050565b600081519050919050565b6000602082019050919050565b6000602082019050919050565b600082825260208201905092915050565b600082825260208201905092915050565b600082825260208201905092915050565b600082825260208201905092915050565b600061469f82614728565b91506146aa83614728565b9250827fffffffffffffffffffffffffffffffffffffffffffffffffffffffffffffffff038211156146df576146de6147fc565b5b828201905092915050565b60006146f582614708565b9050919050565b60008115159050919050565b600073ffffffffffffffffffffffffffffffffffffffff82169050919050565b6000819050919050565b600060ff82169050919050565b82818337600083830152505050565b60005b8381101561476c578082015181840152602081019050614751565b8381111561477b576000848401525b50505050565b6000600282049050600182168061479957607f821691505b602082108114156147ad576147ac61482b565b5b50919050565b60006147be82614728565b91507fffffffffffffffffffffffffffffffffffffffffffffffffffffffffffffffff8214156147f1576147f06147fc565b5b600182019050919050565b7f4e487b7100000000000000000000000000000000000000000000000000000000600052601160045260246000fd5b7f4e487b7100000000000000000000000000000000000000000000000000000000600052602260045260246000fd5b7f4e487b7100000000000000000000000000000000000000000000000000000000600052604160045260246000fd5b6000601f19601f8301169050919050565b6148a3816146ea565b81146148ae57600080fd5b50565b6148ba816146fc565b81146148c557600080fd5b50565b6148d181614728565b81146148dc57600080fd5b50565b6148e881614732565b81146148f357600080fd5b5056fea2646970667358221220dc5c1f6c14dd3401c89369efca8de26626c9845c08e1bdd4aefa021a5404d49664736f6c63430008000033a26469706673582212204d02379b05d608a0a6a974fd9594a03f1031331bb395bbdf71763d140cc8d0d264736f6c63430008000033",
  "immutableReferences": {},
  "source": "// SPDX-License-Identifier: MIT\n// Delegation contract\npragma solidity ^0.8.0;\n\nimport \"@openzeppelin/contracts/access/Ownable.sol\";\nimport \"./Items.sol\";\nimport \"./Guild.sol\";\nimport \"./Class.sol\";\nimport \"./Quest.sol\";\nimport \"./Hero.sol\";\nimport \"./MYOS.sol\";\n\ncontract DelegateContract is Ownable {\n    constructor(\n        address _addressContract,\n        address _addressQuest,\n        address _addressClassContract\n    ) {\n        addressContract = _addressContract;\n        addressQuest = _addressQuest;\n        addressClassContract = _addressClassContract;\n        Hero contrat = Hero(addressContract);\n        paramsContract[\"nextId\"] = contrat.getParamsContract(\"nextId\");\n        paramsContract[\"price\"] = 100000000000000000; //dev:100000000000000000000 == 100 eth\n        paramsContract[\"totalPnt\"] = 5;\n        paramsContract[\"tokenLimit\"] = 10000;\n        paramsContract[\"nonce\"] = 0;\n        paramsContract[\"expForLevelUp\"] = 100;\n    }\n\n    address addressContract;\n    address addressQuest;\n    address addressClassContract;\n    address addressMYOSToken;\n    mapping(string => uint256) paramsContract;\n    mapping(uint256 => address) items;\n    mapping(address => Guild) guilds; //address = creator\n    mapping(uint256 => address) addressGuilds; //address = creator\n    uint8 countItems;\n    uint8 countGuilds;\n    uint256 currentpriceMYOS;\n\n    /**\n    Crer une guild en crant directement un contrat li\n    Puis ajout ce contrat au map guilds\n     */\n    function createGuild(\n        address _by,\n        string memory name,\n        string memory symbol\n    ) external {\n        require(address(guilds[_by]) == address(0), \"You already have guild\");\n        guilds[_by] = new Guild(\n            name,\n            symbol,\n            payable(msg.sender),\n            owner(),\n            countGuilds\n        );\n        addressGuilds[countGuilds] = _by;\n        countGuilds++;\n    }\n\n    /**\n    Supprim une guilde en supprimant galement son contrat\n    ATTENTION, la totalit de l'ether contenu dessus attrit chez le crateur du contrat\n     */\n    function deleteGuild(address _by) external {\n        require(address(guilds[_by]) != address(0), \"Guild not exist\");\n        require(guilds[_by].isOwner(msg.sender), \"Is not your guild\");\n        guilds[_by].kill();\n        addressGuilds[guilds[_by].getId()] = address(0);\n    }\n\n    /**\n    Rcuprer l'addresse d'un contrat de guild avec l'address du crateur\n     */\n    function getOneGuildAddress(address _by) external view returns (address) {\n        require(address(guilds[_by]) != address(0), \"Guild not exist\");\n        return address(guilds[_by]);\n    }\n\n    /**\n    Rcuprer la totalit des addresse de guilds\n     */\n    function getAddressGuilds() external view returns (address[] memory) {\n        address[] memory result = new address[](countGuilds);\n        uint256 resultIndex = 0;\n        uint256 i;\n        for (i = 0; i < countGuilds; i++) {\n            if (addressGuilds[i] != address(0)) {\n                result[resultIndex] = addressGuilds[i];\n                resultIndex++;\n            }\n        }\n        return result;\n    }\n\n    /**\n    Mttre a jour l'addresse de destination du contrat officiel pour que le contrat de dlgation puisse y accder\n     */\n    function setAddressContract(address _addressContract) external onlyOwner {\n        addressContract = _addressContract;\n    }\n\n    /**\n    Mttre  jour un paramtre du contrat de dlgation\n    */\n    function setParamsContract(string memory keyParams, uint256 valueParams)\n        external\n        onlyOwner\n    {\n        paramsContract[keyParams] = valueParams;\n    }\n\n    /**\n    rcuprer une valeur du tableau de paramtre du contrat de dlgation\n    */\n    function getParamsContract(string memory keyParams)\n        external\n        view\n        returns (uint256)\n    {\n        return paramsContract[keyParams];\n    }\n\n    /**\n    appel vers le contrat officiel du jeton\n    Mttre a jour un paramtre du contrat officiel depuis le contrat de dlgation\n     */\n    function setParamsDelegate(string memory keyParams, uint256 valueParams)\n        internal\n    {\n        Hero contrat = Hero(addressContract);\n        contrat.setParamsContract(keyParams, valueParams);\n    }\n\n    function setAddressItem(address item, uint256 idItem) external {\n        items[idItem] = item;\n        countItems++;\n    }\n\n    function getAddressItems() external view returns (address[] memory) {\n        address[] memory result = new address[](countItems);\n        uint256 resultIndex = 0;\n        uint256 i;\n        for (i = 0; i < countItems; i++) {\n            result[resultIndex] = items[i];\n            resultIndex++;\n        }\n        return result;\n    }\n\n    function getAddressItem(uint256 idItem) external view returns (address) {\n        return items[idItem];\n    }\n\n    function getParamsItem(address addressItem)\n        external\n        view\n        returns (Items.Item memory)\n    {\n        Items contratItems = Items(addressItem);\n        Items.Item memory itemTemp = contratItems.getItemDetails(msg.sender);\n        return itemTemp;\n    }\n\n    function getBalanceOfItem(uint256 idItem) external view returns (uint256) {\n        Items itemContrat = Items(items[idItem]);\n        //return itemContrat.balanceOf(msg.sender);\n        return itemContrat.getBalanceOf(msg.sender);\n    }\n\n    /**\n    achat d'une ressource contre de l'eth/MATIC\n     */\n    function buyItem(address payable addressItem, uint256 value)\n        public\n        payable\n    {\n        (bool sent, bytes memory data) = addressItem.call{value: msg.value}(\n            abi.encodeWithSignature(\n                \"buyItem(uint256,address)\",\n                value,\n                msg.sender\n            )\n        );\n        require(sent, \"Failed to send Ether\");\n    }\n\n    /**\n    Vente du jeton contre de l'eth/MATIC\n     */\n    function sellItem(address addressItem, uint256 value) public {\n        Items itemContrat = Items(addressItem);\n        itemContrat.sellItem(value, msg.sender);\n    }\n\n    function depositItem(address addressItem) public payable {\n        (bool sent, bytes memory data) = addressItem.call{value: msg.value}(\n            abi.encodeWithSignature(\"deposit()\")\n        );\n        require(sent, \"Failed to send Ether\");\n    }\n\n    function getCurrentPrice(address addressItem)\n        public\n        view\n        returns (uint256)\n    {\n        Items itemContrat = Items(addressItem);\n        return itemContrat.getCurrentPrice();\n    }\n\n    /**\n    appel vers le contrat officiel du jeton\n    Offrir un ou plusieurs token a un utilisateur\n     */\n    function giveToken(\n        address to,\n        uint8 generation,\n        string memory _tokenUri\n    ) external onlyOwner {\n        require(paramsContract[\"tokenLimit\"] > 0, \"No remaining\");\n        bool[] memory booleans = new bool[](20);\n        uint8[] memory randomParts = randomParams8(0);\n        uint256[] memory randomParams = randomParams256(\n            paramsContract[\"price\"],\n            generation\n        );\n        paramsContract[\"nextId\"]++;\n\n        Hero contrat = Hero(addressContract);\n        contrat.mint(to, booleans, randomParts, randomParams, _tokenUri);\n    }\n\n    /**\n    appel vers le contrat officiel du jeton\n    Modifier les paramtre d'un token et l'envoy au contrat de token pour le mttre a jour\n     */\n    function mintDelegate(\n        uint8 generation,\n        uint8 peuple,\n        string memory _tokenUri\n    ) external payable {\n        require(msg.value >= paramsContract[\"price\"], \"More ETH required\");\n        require(paramsContract[\"tokenLimit\"] > 0, \"No remaining\");\n        bool[] memory booleans = new bool[](20);\n        uint8[] memory randomParts = randomParams8(peuple);\n        uint256[] memory randomParams = randomParams256(msg.value, generation);\n        paramsContract[\"nextId\"]++;\n\n        Hero contrat = Hero(addressContract);\n        contrat.mint(\n            msg.sender,\n            booleans,\n            randomParts,\n            randomParams,\n            _tokenUri\n        );\n    }\n\n    /**\n    une autre ide pour calculer les stats de dpart, ma prfr\n     */\n    function randomParams8(uint8 peuple)\n        internal\n        virtual\n        returns (uint8[] memory)\n    {\n        /*uint256 totalPnt = paramsContract[\"totalPnt\"];\n        if(paramsContract[\"nextId\"]<paramsContract[\"maxFirstGen\"]){totalPnt += 3;}else\n        if(paramsContract[\"nextId\"]<paramsContract[\"maxSecondGen\"]){totalPnt += 2;}else\n        if(paramsContract[\"nextId\"]<paramsContract[\"maxthirdGen\"]){totalPnt += 1;}*/\n\n        uint8[] memory randomParts = new uint8[](20);\n\n        Class classContrat = Class(addressClassContract);\n        Class.Classes memory tempClass;\n        tempClass.rarity = 100;\n        for (uint8 index = 0; index < classContrat.getClassCount(); index++) {\n            if (\n                random(100) < classContrat.getClassDetails(index).rarity &&\n                tempClass.rarity > classContrat.getClassDetails(index).rarity\n            ) tempClass = classContrat.getClassDetails(index);\n        }\n        uint8[] memory stats = tempClass.stats;\n        /*uint8 i;\n\n        while(totalPnt>0){\n            if(random(5)>3){\n                stats[i]++;\n                totalPnt--;\n            }\n            if(i<stats.length){i++;}else{i=0;}\n        }*/\n\n        randomParts[0] = stats[0]; //strong\n        randomParts[1] = stats[1]; //endurance\n        randomParts[2] = stats[2]; //concentration\n        randomParts[3] = stats[3]; //agility\n        randomParts[4] = stats[4]; //charisma\n        randomParts[5] = stats[5]; //stealth\n        //randomParts[6] = 0;//exp\n        randomParts[7] = 1; //level\n        randomParts[8] = peuple; //peuple\n        randomParts[9] = tempClass.id; //class\n\n        return randomParts;\n    }\n\n    function randomParams256(uint256 price, uint8 generation)\n        internal\n        virtual\n        returns (uint256[] memory)\n    {\n        uint256[] memory randomParams = new uint256[](10);\n        randomParams[0] = block.timestamp; //date de cration\n        randomParams[1] = price; //prix d'achat\n        randomParams[2] = block.timestamp; //date de la drnire action (il y a une heure) permettant de participer a des missions\n        //randomParams[3] = 0;//Mission choisis (si 0 aucune current mission)\n        //randomParams[4] = 0;//seconds pour finir la mission\n        //randomParams[5] = 0;//difficult de la qute (dtermine l'exp gagn, et les objets % gagn)\n        randomParams[6] = paramsContract[\"nextId\"]; //tokenId\n        randomParams[7] = generation; //type\n        return randomParams;\n    }\n\n    function startQuest(uint256 tokenId, uint256 questId) public {\n        Hero contrat = Hero(addressContract);\n        require(contrat.getOwnerOf(tokenId) == msg.sender, \"Not your token\");\n        /*Quest questContrat = Quest(addressQuest);\n        Quest.Quest memory questTemp =  questContrat.getQuestDetails(questId);\n        require(questTemp.valid == true,\"Quest not exist\");*/\n        Hero.Token memory tokenTemp = contrat.getTokenDetails(tokenId);\n        require(tokenTemp.params256[3] == 0, \"Quest not finished\");\n        tokenTemp.params256[3] = questId;\n        contrat.updateToken(tokenTemp, tokenId, msg.sender);\n    }\n\n    /**\n    Validation de la qute a la fin du comteur time d'une quest\n     */\n    function completeQuest(uint256 tokenId) public {\n        Hero contrat = Hero(addressContract);\n        require(contrat.getOwnerOf(tokenId) == msg.sender, \"Not your token\");\n        Hero.Token memory tokenTemp = contrat.getTokenDetails(tokenId);\n\n        Quest questContrat = Quest(addressQuest);\n        Quest.Quest memory questTemp = questContrat.getQuestDetails(\n            tokenTemp.params256[3]\n        );\n        require(\n            block.timestamp - tokenTemp.params256[2] > (questTemp.time),\n            \"Quest not finished\"\n        ); //BON CA VA PAS REVISER COMPLEMENT LE TIME ET COTER FRONT AUSSI\n        //require(block.timestamp > tokenTemp.params256[2]+(questTemp.time), \"Quest not finished\");//a fonctionnais mais celle du dessus est surement plus propre\n        uint8 malus = 0;\n        for (uint8 index = 0; index < questTemp.stats.length; index++) {\n            if (questTemp.stats[index] > tokenTemp.params8[index]) {\n                malus += questTemp.stats[index] - tokenTemp.params8[index];\n            }\n        }\n        if (random(100 - malus) > questTemp.percentDifficulty) {\n            tokenTemp.params8[6] +=\n                questTemp.exp *\n                questContrat.getMultiplicateurExp();\n\n            for (uint256 index = 0; index < countItems; index++) {\n                Items itemtemp = Items(items[index]);\n                if (random256(100000) > itemtemp.getRarity()) {\n                    itemtemp.mint(1, msg.sender);\n                }\n            }\n        }\n        tokenTemp.params256[2] = block.timestamp;\n        tokenTemp.params256[3] = 0;\n        tokenTemp.params256[4] = 0;\n\n        contrat.updateToken(tokenTemp, tokenId, msg.sender);\n    }\n\n    function getQuest(uint8 questId)\n        external\n        view\n        returns (Quest.Quest memory)\n    {\n        Quest contrat = Quest(addressQuest);\n        Quest.Quest memory questTemp = contrat.getQuestDetails(questId);\n        return questTemp;\n    }\n\n    /**\n    Quand l'exp est a fond, luser peut rajouter un point ou il veux\n    Rflchir a la logique d'exp max, pour l'instant (100+(?**level))\n    Est ce qu'ont rajouterai pas de faon random des points autres part\n    */\n    function levelUp(uint8 statToLvlUp, uint256 tokenId) public {\n        Hero contrat = Hero(addressContract);\n        require(contrat.getOwnerOf(tokenId) == msg.sender, \"Not your token\");\n        Hero.Token memory tokenTemp = contrat.getTokenDetails(tokenId);\n        require(\n            tokenTemp.params8[6] >\n                (100 + (paramsContract[\"expForLevelUp\"]**tokenTemp.params8[7])),\n            \"experience not enought\"\n        );\n        tokenTemp.params8[statToLvlUp]++;\n        tokenTemp.params8[6] = 0;\n        tokenTemp.params8[7]++;\n\n        contrat.updateToken(tokenTemp, tokenId, msg.sender);\n    }\n\n    /**\n    a finaliser\n     */\n    /*function calculPriceSupply() public{\n        Hero contrat = Hero(addressContract);\n        uint totalSupply = contrat.getParamsContract(\"totalSupply\");\n        //priceInUsd = (item.price/(10**18)) * (latestPrice/10**8)\n    }*/\n\n    /**\n    appel vers le contrat officiel du jeton\n    Modifier les paramtre d'un token et l'envoy au contrat de token pour le mttre a jour\n     */\n    /*function paramsToken(uint256 tokenId,bool[] memory booleans, uint8[] memory params8, uint256[] memory params256) external {\n        \n        Hero contrat = Hero(addressContract);\n        Hero.Token memory tokenTemp =  contrat.getTokenDetails(tokenId);\n        //if(tokenTemp.params256[2] != params256[2]) tokenTemp.params256[0] = block.timestamp;//mettre a jour la date de cration si besoin\n        for (uint8 index = 0; index < booleans.length; index++) {\n            tokenTemp.booleans[index] = booleans[index];\n        }\n        for (uint8 index = 0; index < params8.length; index++) {\n            tokenTemp.params8[index] = params8[index];\n        }\n        for (uint8 index = 0; index < params256.length; index++) {\n            tokenTemp.params256[index] = params256[index];\n        }\n        contrat.updateToken(tokenTemp,tokenId,msg.sender);\n    }*/\n\n    /**\n    appel vers le contrat officiel du jeton\n    transfert d'un token d'un propritaire a un autre adresse\n     */\n    function transfer(address contactAddr, uint256 tokenId) external payable {\n        Hero contrat = Hero(addressContract);\n        require(contrat.getOwnerOf(tokenId) != msg.sender, \"Not your token\");\n        contrat.transfer(contactAddr, msg.sender, tokenId);\n    }\n\n    /**\n    appel vers le contrat officiel du jeton\n    Achat d'un token par un utilisateur\n     */\n    /*function purchase(address contactAddr, uint256 tokenId) external payable {\n        Hero contrat = Hero(addressContract);\n        Hero.Token memory token = contrat.getTokenDetails(tokenId);\n        require(msg.value >= token.params256[1], \"Insufficient fonds sent\");\n        require(contrat.getOwnerOf(tokenId) != msg.sender, \"Already Owned\");\n        //contrat.updateToken(token,tokenId,msg.sender);\n        contrat.transfer(contactAddr, msg.sender, tokenId);\n    }*/\n\n    /**\n    appel vers le contrat officiel du jeton\n    rcuprer un tableau d'id des tokens d'un utilisateur\n     */\n    function getAllTokensForUser(address user)\n        external\n        view\n        returns (uint256[] memory)\n    {\n        Hero contrat = Hero(addressContract);\n        return contrat.getAllTokensForUser(user);\n    }\n\n    /**\n    appel vers le contrat officiel du jeton\n    rcuprer les data d'un token avec son id\n     */\n    function getTokenDetails(uint256 tokenId)\n        external\n        view\n        returns (Hero.Token memory)\n    {\n        Hero contrat = Hero(addressContract);\n        return contrat.getTokenDetails(tokenId);\n    }\n\n    /*MYOS TOKEN*/\n\n    function setCurrentPriceMYOS(uint256 price) external onlyOwner {\n        currentpriceMYOS = price;\n    }\n\n    /**\n    achat d'une ressource contre de l'eth/MATIC\n     */\n    function buyMYOS(uint256 value, address sender) external payable {\n        if (currentpriceMYOS != 0)\n            require(\n                msg.value >= (currentpriceMYOS * value),\n                \"More ETH required\"\n            );\n        if (currentpriceMYOS == 0)\n            require(\n                msg.value >= (getDynamicPriceMYOS() * value),\n                \"More ETH required\"\n            );\n        MYOS(addressMYOSToken).mint(sender, value * (10 ^ 18));\n    }\n\n    /**\n    Vente du jeton MYOS contre du MATIC\n     */\n    function sellMYOS(uint256 value) public {\n        require(MYOS(addressMYOSToken).totalSupply() > value + 1, \"No more this token\");\n        require(MYOS(addressMYOSToken).balanceOf(msg.sender) >= value * (10 ^ 18), \"No more this token\");\n        if (currentpriceMYOS != 0) payable(msg.sender).transfer(currentpriceMYOS * value);\n        if (currentpriceMYOS == 0) payable(msg.sender).transfer(getDynamicPriceMYOS() * value);\n        MYOS(addressMYOSToken).burn(msg.sender, value * (10 ^ 18));\n    }\n\n    /**\n    Converssion du MYOS vers un autre token\n     */\n    function convertMYOSToAnotherToken(uint256 value, address anotherToken)\n        public\n    {\n        /*require(totalSupply()>value+1,\"No more this token\");\n        require(balanceOf(msg.sender)>=value,\"No more this token\");\n        _burn(msg.sender,value);\n        currentprice = getDynamicPriceMYOS();*/\n    }\n\n    function getDynamicPriceMYOS() public view returns (uint256) {\n        return\n            MYOS(addressMYOSToken).getBalanceContract() /\n            MYOS(addressMYOSToken).totalSupply();\n    }\n\n    function random(uint8 maxNumber) internal returns (uint8) {\n        uint256 randomnumber = uint256(\n            keccak256(\n                abi.encodePacked(\n                    block.timestamp,\n                    msg.sender,\n                    paramsContract[\"nonce\"]\n                )\n            )\n        ) % maxNumber;\n        paramsContract[\"nonce\"]++;\n        return uint8(randomnumber);\n    }\n\n    /****************************************\n    UTILS\n     ****************************************/\n\n    function random256(uint256 maxNumber) internal returns (uint256) {\n        uint256 randomnumber = uint256(\n            keccak256(\n                abi.encodePacked(\n                    block.timestamp,\n                    msg.sender,\n                    paramsContract[\"nonce\"]\n                )\n            )\n        ) % maxNumber;\n        paramsContract[\"nonce\"]++;\n        return randomnumber;\n    }\n\n    /*FUNDS OF CONTRACT*/\n\n    function withdraw() public onlyOwner {\n        payable(msg.sender).transfer(address(this).balance);\n    }\n\n    function deposit() public payable onlyOwner {}\n\n    function getBalance() public view returns (uint256) {\n        return address(this).balance;\n    }\n}\n",
  "sourcePath": "/home/kevin/Bureau/homework/MYOS/contracts/DelegateContract.sol",
  "compiler": {
    "name": "solc",
    "version": "0.8.0+commit.c7dfd78e.Emscripten.clang"
  },
  "schemaVersion": "3.4.7",
  "updatedAt": "2022-08-04T08:17:24.539Z",
  "devdoc": {
    "kind": "dev",
    "methods": {
      "owner()": {
        "details": "Returns the address of the current owner."
      },
      "renounceOwnership()": {
        "details": "Leaves the contract without owner. It will not be possible to call `onlyOwner` functions anymore. Can only be called by the current owner. NOTE: Renouncing ownership will leave the contract without an owner, thereby removing any functionality that is only available to the owner."
      },
      "transferOwnership(address)": {
        "details": "Transfers ownership of the contract to a new account (`newOwner`). Can only be called by the current owner."
      }
    },
    "version": 1
  },
  "userdoc": {
    "kind": "user",
    "methods": {
      "buyItem(address,uint256)": {
        "notice": "achat d'une ressource contre de l'eth/MATIC"
      },
      "buyMYOS(uint256,address)": {
        "notice": "achat d'une ressource contre de l'eth/MATIC"
      },
      "completeQuest(uint256)": {
        "notice": "Validation de la qute a la fin du comteur time d'une quest"
      },
      "convertMYOSToAnotherToken(uint256,address)": {
        "notice": "Converssion du MYOS vers un autre token"
      },
      "createGuild(address,string,string)": {
        "notice": "Crer une guild en crant directement un contrat li Puis ajout ce contrat au map guilds"
      },
      "deleteGuild(address)": {
        "notice": "Supprim une guilde en supprimant galement son contrat ATTENTION, la totalit de l'ether contenu dessus attrit chez le crateur du contrat"
      },
      "getAddressGuilds()": {
        "notice": "Rcuprer la totalit des addresse de guilds"
      },
      "getAllTokensForUser(address)": {
        "notice": "appel vers le contrat officiel du jeton rcuprer un tableau d'id des tokens d'un utilisateur"
      },
      "getOneGuildAddress(address)": {
        "notice": "Rcuprer l'addresse d'un contrat de guild avec l'address du crateur"
      },
      "getParamsContract(string)": {
        "notice": "rcuprer une valeur du tableau de paramtre du contrat de dlgation"
      },
      "getTokenDetails(uint256)": {
        "notice": "appel vers le contrat officiel du jeton rcuprer les data d'un token avec son id"
      },
      "giveToken(address,uint8,string)": {
        "notice": "appel vers le contrat officiel du jeton Offrir un ou plusieurs token a un utilisateur"
      },
      "levelUp(uint8,uint256)": {
        "notice": "Quand l'exp est a fond, luser peut rajouter un point ou il veux Rflchir a la logique d'exp max, pour l'instant (100+(?**level)) Est ce qu'ont rajouterai pas de faon random des points autres part"
      },
      "mintDelegate(uint8,uint8,string)": {
        "notice": "appel vers le contrat officiel du jeton Modifier les paramtre d'un token et l'envoy au contrat de token pour le mttre a jour"
      },
      "sellItem(address,uint256)": {
        "notice": "Vente du jeton contre de l'eth/MATIC"
      },
      "sellMYOS(uint256)": {
        "notice": "Vente du jeton MYOS contre du MATIC"
      },
      "setAddressContract(address)": {
        "notice": "Mttre a jour l'addresse de destination du contrat officiel pour que le contrat de dlgation puisse y accder"
      },
      "setParamsContract(string,uint256)": {
        "notice": "Mttre  jour un paramtre du contrat de dlgation"
      },
      "transfer(address,uint256)": {
        "notice": "appel vers le contrat officiel du jeton transfert d'un token d'un propritaire a un autre adresse"
      }
    },
    "version": 1
  }
}