{
  "contractName": "DelegateContract",
  "abi": [
    {
      "inputs": [
        {
          "internalType": "address",
          "name": "_addressHero",
          "type": "address"
        },
        {
          "internalType": "address",
          "name": "_addressQuest",
          "type": "address"
        },
        {
          "internalType": "address",
          "name": "_addressClass",
          "type": "address"
        },
        {
          "internalType": "address",
          "name": "_addressItem",
          "type": "address"
        }
      ],
      "stateMutability": "nonpayable",
      "type": "constructor"
    },
    {
      "inputs": [
        {
          "internalType": "address",
          "name": "from",
          "type": "address"
        },
        {
          "internalType": "address",
          "name": "addressGuild",
          "type": "address"
        }
      ],
      "name": "AlreadyHaveGuild",
      "type": "error"
    },
    {
      "inputs": [
        {
          "internalType": "address",
          "name": "sender",
          "type": "address"
        },
        {
          "internalType": "uint256",
          "name": "questId",
          "type": "uint256"
        },
        {
          "internalType": "uint256",
          "name": "currentQuestId",
          "type": "uint256"
        },
        {
          "internalType": "uint256",
          "name": "tokenId",
          "type": "uint256"
        }
      ],
      "name": "AlreadyInQuest",
      "type": "error"
    },
    {
      "inputs": [
        {
          "internalType": "address",
          "name": "from",
          "type": "address"
        },
        {
          "internalType": "address",
          "name": "addressGuild",
          "type": "address"
        }
      ],
      "name": "GuildNotExist",
      "type": "error"
    },
    {
      "inputs": [
        {
          "internalType": "uint256",
          "name": "balance",
          "type": "uint256"
        },
        {
          "internalType": "address",
          "name": "sender",
          "type": "address"
        },
        {
          "internalType": "uint256",
          "name": "quantity",
          "type": "uint256"
        },
        {
          "internalType": "uint256",
          "name": "tokenId",
          "type": "uint256"
        }
      ],
      "name": "NoMoreBalanceToken",
      "type": "error"
    },
    {
      "inputs": [
        {
          "internalType": "uint256",
          "name": "supply",
          "type": "uint256"
        },
        {
          "internalType": "uint256",
          "name": "quantity",
          "type": "uint256"
        },
        {
          "internalType": "uint256",
          "name": "tokenId",
          "type": "uint256"
        }
      ],
      "name": "NoMoreSupplyToken",
      "type": "error"
    },
    {
      "inputs": [
        {
          "internalType": "uint256",
          "name": "statToLvlUp",
          "type": "uint256"
        },
        {
          "internalType": "uint256",
          "name": "tokenId",
          "type": "uint256"
        }
      ],
      "name": "NotAStat",
      "type": "error"
    },
    {
      "inputs": [
        {
          "internalType": "uint256",
          "name": "price",
          "type": "uint256"
        },
        {
          "internalType": "uint256",
          "name": "weiSended",
          "type": "uint256"
        },
        {
          "internalType": "uint256",
          "name": "tokenId",
          "type": "uint256"
        },
        {
          "internalType": "uint256",
          "name": "quantity",
          "type": "uint256"
        }
      ],
      "name": "NotEnoughEth",
      "type": "error"
    },
    {
      "inputs": [
        {
          "internalType": "uint256",
          "name": "price",
          "type": "uint256"
        },
        {
          "internalType": "uint256",
          "name": "weiSended",
          "type": "uint256"
        }
      ],
      "name": "NotEnoughEthHero",
      "type": "error"
    },
    {
      "inputs": [
        {
          "internalType": "uint256",
          "name": "experienceHero",
          "type": "uint256"
        },
        {
          "internalType": "uint256",
          "name": "experienceNeeded",
          "type": "uint256"
        },
        {
          "internalType": "uint256",
          "name": "tokenId",
          "type": "uint256"
        }
      ],
      "name": "NotEnoughExperience",
      "type": "error"
    },
    {
      "inputs": [
        {
          "internalType": "uint256",
          "name": "tokenLimit",
          "type": "uint256"
        },
        {
          "internalType": "uint256",
          "name": "nextTokenIdToMint",
          "type": "uint256"
        }
      ],
      "name": "NotRemainingHero",
      "type": "error"
    },
    {
      "inputs": [
        {
          "internalType": "address",
          "name": "sender",
          "type": "address"
        },
        {
          "internalType": "address",
          "name": "ownerOfToken",
          "type": "address"
        },
        {
          "internalType": "uint256",
          "name": "tokenId",
          "type": "uint256"
        }
      ],
      "name": "NotYourToken",
      "type": "error"
    },
    {
      "inputs": [
        {
          "internalType": "uint256",
          "name": "blockTimestamp",
          "type": "uint256"
        },
        {
          "internalType": "uint256",
          "name": "heroQuestTime",
          "type": "uint256"
        },
        {
          "internalType": "uint256",
          "name": "currentQuestTime",
          "type": "uint256"
        },
        {
          "internalType": "uint256",
          "name": "tokenId",
          "type": "uint256"
        }
      ],
      "name": "QuestNotFinished",
      "type": "error"
    },
    {
      "inputs": [
        {
          "internalType": "address",
          "name": "to",
          "type": "address"
        },
        {
          "internalType": "uint256",
          "name": "value",
          "type": "uint256"
        }
      ],
      "name": "SellItemSendEth",
      "type": "error"
    },
    {
      "anonymous": false,
      "inputs": [
        {
          "indexed": true,
          "internalType": "address",
          "name": "previousOwner",
          "type": "address"
        },
        {
          "indexed": true,
          "internalType": "address",
          "name": "newOwner",
          "type": "address"
        }
      ],
      "name": "OwnershipTransferred",
      "type": "event"
    },
    {
      "inputs": [],
      "name": "owner",
      "outputs": [
        {
          "internalType": "address",
          "name": "",
          "type": "address"
        }
      ],
      "stateMutability": "view",
      "type": "function"
    },
    {
      "inputs": [
        {
          "internalType": "string",
          "name": "",
          "type": "string"
        }
      ],
      "name": "paramsContract",
      "outputs": [
        {
          "internalType": "uint256",
          "name": "",
          "type": "uint256"
        }
      ],
      "stateMutability": "view",
      "type": "function"
    },
    {
      "inputs": [],
      "name": "renounceOwnership",
      "outputs": [],
      "stateMutability": "nonpayable",
      "type": "function"
    },
    {
      "inputs": [
        {
          "internalType": "address",
          "name": "newOwner",
          "type": "address"
        }
      ],
      "name": "transferOwnership",
      "outputs": [],
      "stateMutability": "nonpayable",
      "type": "function"
    },
    {
      "inputs": [
        {
          "internalType": "address",
          "name": "from",
          "type": "address"
        },
        {
          "internalType": "string",
          "name": "name",
          "type": "string"
        },
        {
          "internalType": "string",
          "name": "symbol",
          "type": "string"
        }
      ],
      "name": "createGuild",
      "outputs": [],
      "stateMutability": "nonpayable",
      "type": "function"
    },
    {
      "inputs": [
        {
          "internalType": "address",
          "name": "from",
          "type": "address"
        }
      ],
      "name": "getOneGuildAddress",
      "outputs": [
        {
          "internalType": "address",
          "name": "",
          "type": "address"
        }
      ],
      "stateMutability": "view",
      "type": "function"
    },
    {
      "inputs": [],
      "name": "getAddressesGuilds",
      "outputs": [
        {
          "internalType": "address[]",
          "name": "",
          "type": "address[]"
        }
      ],
      "stateMutability": "view",
      "type": "function"
    },
    {
      "inputs": [
        {
          "internalType": "string",
          "name": "key",
          "type": "string"
        },
        {
          "internalType": "uint256",
          "name": "value",
          "type": "uint256"
        }
      ],
      "name": "setParamsContract",
      "outputs": [],
      "stateMutability": "nonpayable",
      "type": "function"
    },
    {
      "inputs": [
        {
          "internalType": "string",
          "name": "key",
          "type": "string"
        }
      ],
      "name": "getParamsContract",
      "outputs": [
        {
          "internalType": "uint256",
          "name": "",
          "type": "uint256"
        }
      ],
      "stateMutability": "view",
      "type": "function"
    },
    {
      "inputs": [
        {
          "internalType": "uint256",
          "name": "quantity",
          "type": "uint256"
        },
        {
          "internalType": "address",
          "name": "receiver",
          "type": "address"
        },
        {
          "internalType": "uint256",
          "name": "tokenId",
          "type": "uint256"
        }
      ],
      "name": "buyItem",
      "outputs": [],
      "stateMutability": "payable",
      "type": "function"
    },
    {
      "inputs": [
        {
          "internalType": "uint256",
          "name": "quantity",
          "type": "uint256"
        },
        {
          "internalType": "uint256",
          "name": "tokenId",
          "type": "uint256"
        }
      ],
      "name": "sellItem",
      "outputs": [],
      "stateMutability": "nonpayable",
      "type": "function"
    },
    {
      "inputs": [
        {
          "internalType": "uint8",
          "name": "generation",
          "type": "uint8"
        },
        {
          "internalType": "uint8",
          "name": "peuple",
          "type": "uint8"
        },
        {
          "internalType": "string",
          "name": "_tokenUri",
          "type": "string"
        }
      ],
      "name": "mintHero",
      "outputs": [],
      "stateMutability": "payable",
      "type": "function"
    },
    {
      "inputs": [
        {
          "internalType": "uint256",
          "name": "tokenId",
          "type": "uint256"
        },
        {
          "internalType": "uint256",
          "name": "questId",
          "type": "uint256"
        }
      ],
      "name": "startQuest",
      "outputs": [],
      "stateMutability": "nonpayable",
      "type": "function"
    },
    {
      "inputs": [
        {
          "internalType": "uint256",
          "name": "tokenId",
          "type": "uint256"
        }
      ],
      "name": "completeQuest",
      "outputs": [],
      "stateMutability": "nonpayable",
      "type": "function"
    },
    {
      "inputs": [
        {
          "internalType": "uint8",
          "name": "statToLvlUp",
          "type": "uint8"
        },
        {
          "internalType": "uint256",
          "name": "tokenId",
          "type": "uint256"
        }
      ],
      "name": "levelUp",
      "outputs": [],
      "stateMutability": "nonpayable",
      "type": "function"
    },
    {
      "inputs": [],
      "name": "withdraw",
      "outputs": [],
      "stateMutability": "nonpayable",
      "type": "function"
    }
  ],
  "bytecode": "0x60806040523480156200001157600080fd5b5060405162005bc038038062005bc0833981016040819052620000349162000274565b6200003f3362000207565b600180546001600160a01b038087166001600160a01b031992831681179093556002805487831690841617905560038054868316908416179055600480549185169190921617815560405163f26bf0b760e01b815263f26bf0b791620000cb91016020808252601190820152701b995e1d151bdad95b9259151bd35a5b9d607a1b604082015260600190565b602060405180830381865afa158015620000e9573d6000803e3d6000fd5b505050506040513d601f19601f820116820180604052508101906200010f9190620002d1565b60408051701b995e1d151bdad95b9259151bd35a5b9d607a1b815260056011820181905282519182900360310182209390935564707269636560d81b81528083018390528151908190036025908101822067016345785d8a00009055671d1bdd185b141b9d60c21b8252600882018490528251918290036028018220849055691d1bdad95b931a5b5a5d60b21b8252600a8201849052825191829003602a0182206127109055646e6f6e636560d81b8252818401849052825191829003018120600090556c0657870466f724c6576656c557609c1b8152600d8101929092525190819003602d0190206064905550620002eb92505050565b600080546001600160a01b038381166001600160a01b0319831681178455604051919092169283917f8be0079c531659141344cd1fd0a4f28419497f9722a3daafe3b4186f6b6457e09190a35050565b80516001600160a01b03811681146200026f57600080fd5b919050565b600080600080608085870312156200028b57600080fd5b620002968562000257565b9350620002a66020860162000257565b9250620002b66040860162000257565b9150620002c66060860162000257565b905092959194509250565b600060208284031215620002e457600080fd5b5051919050565b6158c580620002fb6000396000f3fe608060405260043610620001075760003560e01c8063715018a61162000095578063c3c33b401162000060578063c3c33b4014620002e2578063f26bf0b71462000307578063f2fde38b146200032c578063fa84413a146200035157600080fd5b8063715018a6146200025a5780638da5cb5b1462000272578063ac56c43d14620002a6578063b77f02e814620002bd57600080fd5b806348c6309d11620000d657806348c6309d1462000195578063528be0a914620001c5578063586e2ee414620001ea5780635f9d45d8146200020f57600080fd5b80630b275db4146200010c5780632d92356114620001335780633cb1194414620001585780633ccfd60b146200017d575b600080fd5b3480156200011957600080fd5b50620001316200012b366004620023a0565b62000368565b005b3480156200014057600080fd5b506200013162000152366004620023cf565b6200079d565b3480156200016557600080fd5b5062000131620001773660046200243d565b62000b91565b3480156200018a57600080fd5b506200013162000bc5565b348015620001a257600080fd5b50620001ad62000bff565b604051620001bc91906200248c565b60405180910390f35b348015620001d257600080fd5b5062000131620001e4366004620024db565b62000cf9565b348015620001f757600080fd5b5062000131620002093660046200250b565b62001312565b3480156200021c57600080fd5b506200024b6200022e3660046200267e565b805160208183018101805160058252928201919093012091525481565b604051908152602001620001bc565b3480156200026757600080fd5b50620001316200144b565b3480156200027f57600080fd5b506000546001600160a01b03165b6040516001600160a01b039091168152602001620001bc565b62000131620002b736600462002705565b62001463565b348015620002ca57600080fd5b506200028d620002dc36600462002740565b620015ac565b348015620002ef57600080fd5b506200013162000301366004620023cf565b6200162e565b3480156200031457600080fd5b506200024b6200032636600462002767565b6200192e565b3480156200033957600080fd5b50620001316200034b36600462002740565b6200195c565b6200013162000362366004620027ac565b620019d8565b60015481906001600160a01b0316336040516331a9108f60e11b8152600481018490526001600160a01b0391821691831690636352211e90602401602060405180830381865afa158015620003c1573d6000803e3d6000fd5b505050506040513d601f19601f82011682018060405250810190620003e7919062002818565b6001600160a01b0316146200049c57335b6040516331a9108f60e11b8152600481018490526001600160a01b03831690636352211e90602401602060405180830381865afa1580156200043e573d6000803e3d6000fd5b505050506040513d601f19601f8201168201806040525081019062000464919062002818565b6040516365165d8160e11b81526001600160a01b03928316600482015291166024820152604481018390526064015b60405180910390fd5b60015460405163183c06e560e31b8152600481018590526001600160a01b0390911690600090829063c1e0372890602401600060405180830381865afa158015620004eb573d6000803e3d6000fd5b505050506040513d6000823e601f3d908101601f19168201604052620005159190810190620028e8565b90508060200151600981518110620005315762000531620029e0565b602002602001015160056040516200055c906c0657870466f724c6576656c557609c1b8152600d0190565b90815260200160405180910390205462000577919062002b09565b6200058490606462002b17565b81602001516008815181106200059e576200059e620029e0565b60200260200101511162000665578060200151600881518110620005c657620005c6620029e0565b60200260200101518160200151600981518110620005e857620005e8620029e0565b6020026020010151600560405162000613906c0657870466f724c6576656c557609c1b8152600d0190565b9081526020016040518091039020546200062e919062002b09565b6200063b90606462002b17565b60405163c2f02ac960e01b8152600481019290925260248201526044810186905260640162000493565b60058660ff1611156200069857604051632f62314360e11b815260ff871660048201526024810186905260440162000493565b8051805160ff8816908110620006b257620006b2620029e0565b602002602001018051809190620006c99062002b32565b60ff1660ff168152505060008160200151600881518110620006ef57620006ef620029e0565b6020026020010181815250508060200151600981518110620007155762000715620029e0565b6020026020010180518091906200072c9062002b55565b9052506040516338bd885760e21b81526001600160a01b0383169063e2f6215c90620007619084908990339060040162002be5565b600060405180830381600087803b1580156200077c57600080fd5b505af115801562000791573d6000803e3d6000fd5b50505050505050505050565b60048054604051630398026560e51b81529182018390526001600160a01b03169060009082906373004ca090602401600060405180830381865afa158015620007ea573d6000803e3d6000fd5b505050506040513d6000823e601f3d908101601f1916820160405262000814919081019062002ccc565b60405163f77ee79d60e01b81526004810185905290915084906001600160a01b0384169063f77ee79d90602401602060405180830381865afa1580156200085f573d6000803e3d6000fd5b505050506040513d601f19601f8201168201806040525081019062000885919062002d7e565b1015620009245760405163f77ee79d60e01b8152600481018490526001600160a01b0383169063f77ee79d90602401602060405180830381865afa158015620008d2573d6000803e3d6000fd5b505050506040513d601f19601f82011682018060405250810190620008f8919062002d7e565b604051633dd4346360e21b81526004810191909152602481018590526044810184905260640162000493565b836001600160a01b03831662fdd58e336040516001600160e01b031960e084901b1681526001600160a01b03909116600482015260248101879052604401602060405180830381865afa15801562000980573d6000803e3d6000fd5b505050506040513d601f19601f82011682018060405250810190620009a6919062002d7e565b101562000a60576001600160a01b03821662fdd58e336040516001600160e01b031960e084901b1681526001600160a01b03909116600482015260248101869052604401602060405180830381865afa15801562000a08573d6000803e3d6000fd5b505050506040513d601f19601f8201168201806040525081019062000a2e919062002d7e565b60405163700acb1960e11b81526004810191909152336024820152604481018590526064810184905260840162000493565b6001600160a01b03821663f5298aca336040516001600160e01b031960e084901b1681526001600160a01b0390911660048201526024810186905260448101879052606401600060405180830381600087803b15801562000ac057600080fd5b505af115801562000ad5573d6000803e3d6000fd5b50505050600062000ae33390565b6001600160a01b031685836040015162000afe919062002d98565b604051600081818185875af1925050503d806000811462000b3c576040519150601f19603f3d011682016040523d82523d6000602084013e62000b41565b606091505b50909150508062000b8a573385836040015162000b5f919062002d98565b60405163723403cf60e01b81526001600160a01b039092166004830152602482015260440162000493565b5050505050565b62000b9b62001c5d565b806005848460405162000bb092919062002dba565b90815260405190819003602001902055505050565b62000bcf62001c5d565b60405133904780156108fc02916000818181858888f1935050505015801562000bfc573d6000803e3d6000fd5b50565b60085460609060009060ff166001600160401b0381111562000c255762000c2562002596565b60405190808252806020026020018201604052801562000c4f578160200160208202803683370190505b5090506000805b60085460ff1681101562000cf1576000818152600760205260409020546001600160a01b03161562000cdc5760008181526007602052604090205483516001600160a01b039091169084908490811062000cb45762000cb4620029e0565b6001600160a01b03909216602092830291909101909101528162000cd88162002b55565b9250505b8062000ce88162002b55565b91505062000c56565b509092915050565b60015481906001600160a01b0316336040516331a9108f60e11b8152600481018490526001600160a01b0391821691831690636352211e90602401602060405180830381865afa15801562000d52573d6000803e3d6000fd5b505050506040513d601f19601f8201168201806040525081019062000d78919062002818565b6001600160a01b03161462000d8e5733620003f8565b60015460405163183c06e560e31b8152600481018590526001600160a01b0390911690600090829063c1e0372890602401600060405180830381865afa15801562000ddd573d6000803e3d6000fd5b505050506040513d6000823e601f3d908101601f1916820160405262000e079190810190620028e8565b600254602082015180519293506001600160a01b0390911691600091839163b0f929b09190600390811062000e405762000e40620029e0565b60200260200101516040518263ffffffff1660e01b815260040162000e6791815260200190565b600060405180830381865afa15801562000e85573d6000803e3d6000fd5b505050506040513d6000823e601f3d908101601f1916820160405262000eaf919081019062002ddd565b90508060a00151836020015160028151811062000ed05762000ed0620029e0565b60200260200101514262000ee5919062002ec5565b1162000f485742836020015160028151811062000f065762000f06620029e0565b60200260200101518260a001518960405163250ebb6160e21b815260040162000493949392919093845260208401929092526040830152606082015260800190565b6000805b8260400151518160ff16101562001026578451805160ff831690811062000f775762000f77620029e0565b602002602001015160ff1683604001518260ff168151811062000f9e5762000f9e620029e0565b602002602001015160ff16111562001011578451805160ff831690811062000fca5762000fca620029e0565b602002602001015183604001518260ff168151811062000fee5762000fee620029e0565b602002602001015162001002919062002edf565b6200100e908362002f05565b91505b806200101d8162002b32565b91505062000f4c565b506000620010406200103a83606462002edf565b62001cb9565b60ff169050808560200151600781518110620010605762001060620029e0565b602002602001018181525050826020015160ff168111156200122a5760018560200151600681518110620010985762001098620029e0565b602002602001018181525050836001600160a01b0316636827822e6040518163ffffffff1660e01b8152600401602060405180830381865afa158015620010e3573d6000803e3d6000fd5b505050506040513d601f19601f8201168201806040525081019062001109919062002f2d565b83516200111a9160ff169062002f4d565b61ffff168560200151600881518110620011385762001138620029e0565b602002602001018181516200114e919062002b17565b9052506004546001600160a01b031660005b84606001515181101562001222576001600160a01b03821663156e29f63387606001518481518110620011975762001197620029e0565b60209081029190910101516040516001600160e01b031960e085901b1681526001600160a01b03909216600483015260ff16602482015260016044820152606401600060405180830381600087803b158015620011f357600080fd5b505af115801562001208573d6000803e3d6000fd5b505050508080620012199062002b55565b91505062001160565b505062001253565b60008560200151600681518110620012465762001246620029e0565b6020026020010181815250505b4285602001516002815181106200126e576200126e620029e0565b60200260200101818152505060008560200151600481518110620012965762001296620029e0565b60209081029190910101526040516338bd885760e21b81526001600160a01b0387169063e2f6215c90620012d39088908d90339060040162002be5565b600060405180830381600087803b158015620012ee57600080fd5b505af115801562001303573d6000803e3d6000fd5b50505050505050505050505050565b6001600160a01b03858116600090815260066020526040902054161562001374576001600160a01b038581166000818152600660205260409081902054905163ce4571ef60e01b81526004810192909252909116602482015260440162000493565b83838383336000546001600160a01b031660085460405160ff909116906200139c9062002382565b620013ae979695949392919062002fa3565b604051809103906000f080158015620013cb573d6000803e3d6000fd5b506001600160a01b0380871660008181526006602090815260408083208054969095166001600160a01b0319968716179094556008805460ff908116845260079092529382208054909516909217909355815416916200142b8362002b32565b91906101000a81548160ff021916908360ff160217905550505050505050565b6200145562001c5d565b62001461600062001cc9565b565b60048054604051630398026560e51b81529182018390526001600160a01b03169060009082906373004ca090602401600060405180830381865afa158015620014b0573d6000803e3d6000fd5b505050506040513d6000823e601f3d908101601f19168201604052620014da919081019062002ccc565b9050848160400151620014ee919062002d98565b3410156200153a5784816040015162001508919062002d98565b60405163c1a311cf60e01b81526004810191909152346024820152604481018490526064810186905260840162000493565b604051630ab714fb60e11b81526001600160a01b038581166004830152602482018590526044820187905283169063156e29f690606401600060405180830381600087803b1580156200158c57600080fd5b505af1158015620015a1573d6000803e3d6000fd5b505050505050505050565b6001600160a01b038181166000908152600660205260408120549091166200160f576001600160a01b038281166000818152600660205260409081902054905163629818cb60e01b81526004810192909252909116602482015260440162000493565b506001600160a01b039081166000908152600660205260409020541690565b60015482906001600160a01b0316336040516331a9108f60e11b8152600481018490526001600160a01b0391821691831690636352211e90602401602060405180830381865afa15801562001687573d6000803e3d6000fd5b505050506040513d601f19601f82011682018060405250810190620016ad919062002818565b6001600160a01b031614620016c35733620003f8565b600154600254604051630b0f929b60e41b8152600481018690526001600160a01b039283169290911690600090829063b0f929b090602401600060405180830381865afa15801562001719573d6000803e3d6000fd5b505050506040513d6000823e601f3d908101601f1916820160405262001743919081019062002ddd565b60405163183c06e560e31b8152600481018990529091506000906001600160a01b0385169063c1e0372890602401600060405180830381865afa1580156200178f573d6000803e3d6000fd5b505050506040513d6000823e601f3d908101601f19168201604052620017b99190810190620028e8565b90508060200151600481518110620017d557620017d5620029e0565b6020026020010151600014620018465733878260200151600481518110620018015762001801620029e0565b602090810291909101015160405163c9913a8d60e01b81526001600160a01b039093166004840152602483019190915260448201526064810189905260840162000493565b428160200151600281518110620018615762001861620029e0565b602002602001018181525050868160200151600381518110620018885762001888620029e0565b6020026020010181815250508160a001518160200151600481518110620018b357620018b3620029e0565b60209081029190910101526040516338bd885760e21b81526001600160a01b0385169063e2f6215c90620018f09084908c90339060040162002be5565b600060405180830381600087803b1580156200190b57600080fd5b505af115801562001920573d6000803e3d6000fd5b505050505050505050505050565b6000600583836040516200194492919062002dba565b90815260200160405180910390205490505b92915050565b6200196662001c5d565b6001600160a01b038116620019cd5760405162461bcd60e51b815260206004820152602660248201527f4f776e61626c653a206e6577206f776e657220697320746865207a65726f206160448201526564647265737360d01b606482015260840162000493565b62000bfc8162001cc9565b60405164707269636560d81b8152600590810190815260200160405180910390205434101562001a3f5760405162461bcd60e51b8152602060048201526011602482015270135bdc9948115512081c995c5d5a5c9959607a1b604482015260640162000493565b60405164707269636560d81b8152600590810190815260200160405180910390205434101562001aa95760405164707269636560d81b815260059081019081526040519081900360200181205462a184d760e21b8252600482015234602482015260440162000493565b604051701b995e1d151bdad95b9259151bd35a5b9d607a1b815260059060110190815260405190819003602001812054691d1bdad95b931a5b5a5d60b21b825290600590600a019081526020016040518091039020541162001b7d57604051691d1bdad95b931a5b5a5d60b21b8152600590600a0190815260405190819003602001812054701b995e1d151bdad95b9259151bd35a5b9d607a1b82529060059060110190815260405190819003602001812054633a3b705560e11b8252620004939291600401918252602082015260400190565b600062001b8a8462001d19565b9050600062001b9a348762002190565b9050600560405162001bc390701b995e1d151bdad95b9259151bd35a5b9d607a1b815260110190565b908152604051908190036020019020805490600062001be28362002b55565b90915550506001546001600160a01b031680639005ba9533858589896040518663ffffffff1660e01b815260040162001c2095949392919062002ffd565b600060405180830381600087803b15801562001c3b57600080fd5b505af115801562001c50573d6000803e3d6000fd5b5050505050505050505050565b6000546001600160a01b03163314620014615760405162461bcd60e51b815260206004820181905260248201527f4f776e61626c653a2063616c6c6572206973206e6f7420746865206f776e6572604482015260640162000493565b6000620019568260ff16620022c2565b600080546001600160a01b038381166001600160a01b0319831681178455604051919092169283917f8be0079c531659141344cd1fd0a4f28419497f9722a3daafe3b4186f6b6457e09190a35050565b6040805160148082526102a08201909252606091600091906020820161028080368337019050506003546040805160a08101825260008082526020820181905260609282018390528282015260808101919091529192506001600160a01b03169060405163323eae4960e01b8152600060048201526001600160a01b0383169063323eae4990602401600060405180830381865afa15801562001dc0573d6000803e3d6000fd5b505050506040513d6000823e601f3d908101601f1916820160405262001dea91908101906200305a565b905060005b826001600160a01b0316630b01ca3b6040518163ffffffff1660e01b8152600401602060405180830381865afa15801562001e2e573d6000803e3d6000fd5b505050506040513d601f19601f8201168201806040525081019062001e54919062002f2d565b60ff168160ff16101562001f785760405163323eae4960e01b815260ff821660048201526001600160a01b0384169063323eae4990602401600060405180830381865afa15801562001eaa573d6000803e3d6000fd5b505050506040513d6000823e601f3d908101601f1916820160405262001ed491908101906200305a565b5160ff1662001ee4606462001cb9565b60ff16101562001f635760405163323eae4960e01b815260ff821660048201526001600160a01b0384169063323eae4990602401600060405180830381865afa15801562001f36573d6000803e3d6000fd5b505050506040513d6000823e601f3d908101601f1916820160405262001f6091908101906200305a565b91505b8062001f6f8162002b32565b91505062001def565b5060408101518051819060009062001f945762001f94620029e0565b60200260200101518460008151811062001fb25762001fb2620029e0565b602002602001019060ff16908160ff16815250508060018151811062001fdc5762001fdc620029e0565b60200260200101518460018151811062001ffa5762001ffa620029e0565b602002602001019060ff16908160ff168152505080600281518110620020245762002024620029e0565b602002602001015184600281518110620020425762002042620029e0565b602002602001019060ff16908160ff1681525050806003815181106200206c576200206c620029e0565b6020026020010151846003815181106200208a576200208a620029e0565b602002602001019060ff16908160ff168152505080600481518110620020b457620020b4620029e0565b602002602001015184600481518110620020d257620020d2620029e0565b602002602001019060ff16908160ff168152505080600581518110620020fc57620020fc620029e0565b6020026020010151846005815181106200211a576200211a620029e0565b602002602001019060ff16908160ff16815250508584600881518110620021455762002145620029e0565b602002602001019060ff16908160ff1681525050816020015184600981518110620021745762002174620029e0565b60ff909216602092830291909101909101525091949350505050565b6040805160148082526102a082019092526060916000919060208201610280803683370190505090504281600081518110620021d057620021d0620029e0565b6020026020010181815250508381600181518110620021f357620021f3620029e0565b6020026020010181815250504281600281518110620022165762002216620029e0565b6020908102919091010152604051701b995e1d151bdad95b9259151bd35a5b9d607a1b815260059060110190815260200160405180910390205481600681518110620022665762002266620029e0565b6020026020010181815250508260ff16816007815181106200228c576200228c620029e0565b602002602001018181525050600181600981518110620022b057620022b0620029e0565b60209081029190910101529392505050565b60408051646e6f6e636560d81b81526005808201528151908190036025018120544260208301526bffffffffffffffffffffffff193360601b16928201929092526054810191909152600090819083906074016040516020818303038152906040528051906020012060001c6200233a919062003132565b905060056040516200235790646e6f6e636560d81b815260050190565b9081526040519081900360200190208054906000620023768362002b55565b90915550909392505050565b61273a806200315683390190565b60ff8116811462000bfc57600080fd5b60008060408385031215620023b457600080fd5b8235620023c18162002390565b946020939093013593505050565b60008060408385031215620023e357600080fd5b50508035926020909101359150565b60008083601f8401126200240557600080fd5b5081356001600160401b038111156200241d57600080fd5b6020830191508360208285010111156200243657600080fd5b9250929050565b6000806000604084860312156200245357600080fd5b83356001600160401b038111156200246a57600080fd5b6200247886828701620023f2565b909790965060209590950135949350505050565b6020808252825182820181905260009190848201906040850190845b81811015620024cf5783516001600160a01b031683529284019291840191600101620024a8565b50909695505050505050565b600060208284031215620024ee57600080fd5b5035919050565b6001600160a01b038116811462000bfc57600080fd5b6000806000806000606086880312156200252457600080fd5b85356200253181620024f5565b945060208601356001600160401b03808211156200254e57600080fd5b6200255c89838a01620023f2565b909650945060408801359150808211156200257657600080fd5b506200258588828901620023f2565b969995985093965092949392505050565b634e487b7160e01b600052604160045260246000fd5b604080519081016001600160401b0381118282101715620025d157620025d162002596565b60405290565b60405160e081016001600160401b0381118282101715620025d157620025d162002596565b60405160a081016001600160401b0381118282101715620025d157620025d162002596565b604051601f8201601f191681016001600160401b03811182821017156200264c576200264c62002596565b604052919050565b60006001600160401b0382111562002670576200267062002596565b50601f01601f191660200190565b6000602082840312156200269157600080fd5b81356001600160401b03811115620026a857600080fd5b8201601f81018413620026ba57600080fd5b8035620026d1620026cb8262002654565b62002621565b818152856020838501011115620026e757600080fd5b81602084016020830137600091810160200191909152949350505050565b6000806000606084860312156200271b57600080fd5b8335925060208401356200272f81620024f5565b929592945050506040919091013590565b6000602082840312156200275357600080fd5b81356200276081620024f5565b9392505050565b600080602083850312156200277b57600080fd5b82356001600160401b038111156200279257600080fd5b620027a085828601620023f2565b90969095509350505050565b60008060008060608587031215620027c357600080fd5b8435620027d08162002390565b93506020850135620027e28162002390565b925060408501356001600160401b03811115620027fe57600080fd5b6200280c87828801620023f2565b95989497509550505050565b6000602082840312156200282b57600080fd5b81516200276081620024f5565b60006001600160401b0382111562002854576200285462002596565b5060051b60200190565b80516200286b8162002390565b919050565b600082601f8301126200288257600080fd5b8151602062002895620026cb8362002838565b82815260059290921b84018101918181019086841115620028b557600080fd5b8286015b84811015620028dd578051620028cf8162002390565b8352918301918301620028b9565b509695505050505050565b60006020808385031215620028fc57600080fd5b82516001600160401b03808211156200291457600080fd5b90840190604082870312156200292957600080fd5b62002933620025ac565b8251828111156200294357600080fd5b620029518882860162002870565b82525083830151828111156200296657600080fd5b80840193505086601f8401126200297c57600080fd5b825191506200298f620026cb8362002838565b82815260059290921b83018401918481019088841115620029af57600080fd5b938501935b83851015620029cf57845182529385019390850190620029b4565b948201949094529695505050505050565b634e487b7160e01b600052603260045260246000fd5b634e487b7160e01b600052601160045260246000fd5b600181815b8085111562002a4d57816000190482111562002a315762002a31620029f6565b8085161562002a3f57918102915b93841c939080029062002a11565b509250929050565b60008262002a665750600162001956565b8162002a755750600062001956565b816001811462002a8e576002811462002a995762002ab9565b600191505062001956565b60ff84111562002aad5762002aad620029f6565b50506001821b62001956565b5060208310610133831016604e8410600b841016171562002ade575081810a62001956565b62002aea838362002a0c565b806000190482111562002b015762002b01620029f6565b029392505050565b600062002760838362002a55565b6000821982111562002b2d5762002b2d620029f6565b500190565b600060ff821660ff81141562002b4c5762002b4c620029f6565b60010192915050565b600060001982141562002b6c5762002b6c620029f6565b5060010190565b600081518084526020808501945080840160005b8381101562002ba857815160ff168752958201959082019060010162002b87565b509495945050505050565b600081518084526020808501945080840160005b8381101562002ba85781518752958201959082019060010162002bc7565b60608152600084516040606084015262002c0360a084018262002b73565b90506020860151605f1984830301608085015262002c22828262002bb3565b60208501969096525050506001600160a01b0391909116604090910152919050565b600082601f83011262002c5657600080fd5b815162002c67620026cb8262002654565b8181526020858184870101111562002c7e57600080fd5b60005b8381101562002c9e57858101820151838201830152810162002c81565b8381111562002cb05760008285850101525b509095945050505050565b805180151581146200286b57600080fd5b60006020828403121562002cdf57600080fd5b81516001600160401b038082111562002cf757600080fd5b908301906080828603121562002d0c57600080fd5b60405160808101818110838211171562002d2a5762002d2a62002596565b60405282518281111562002d3d57600080fd5b62002d4b8782860162002c44565b825250602083015160208201526040830151604082015262002d706060840162002cbb565b606082015295945050505050565b60006020828403121562002d9157600080fd5b5051919050565b600081600019048311821515161562002db55762002db5620029f6565b500290565b8183823760009101908152919050565b805161ffff811681146200286b57600080fd5b60006020828403121562002df057600080fd5b81516001600160401b038082111562002e0857600080fd5b9083019060e0828603121562002e1d57600080fd5b62002e27620025d7565b62002e328362002dca565b815262002e42602084016200285e565b602082015260408301518281111562002e5a57600080fd5b62002e688782860162002870565b60408301525060608301518281111562002e8157600080fd5b62002e8f8782860162002870565b6060830152506080830151608082015260a083015160a082015262002eb760c0840162002cbb565b60c082015295945050505050565b60008282101562002eda5762002eda620029f6565b500390565b600060ff821660ff84168082101562002efc5762002efc620029f6565b90039392505050565b600060ff821660ff84168060ff0382111562002f255762002f25620029f6565b019392505050565b60006020828403121562002f4057600080fd5b8151620027608162002390565b600061ffff8083168185168183048111821515161562002f715762002f71620029f6565b02949350505050565b81835281816020850137506000828201602090810191909152601f909101601f19169091010190565b60a08152600062002fb960a08301898b62002f7a565b828103602084015262002fce81888a62002f7a565b6001600160a01b0396871660408501529490951660608301525060ff9190911660809091015295945050505050565b6001600160a01b0386168152608060208201819052600090620030239083018762002b73565b828103604084015262003037818762002bb3565b905082810360608401526200304e81858762002f7a565b98975050505050505050565b6000602082840312156200306d57600080fd5b81516001600160401b03808211156200308557600080fd5b9083019060a082860312156200309a57600080fd5b620030a4620025fc565b8251620030b18162002390565b81526020830151620030c38162002390565b6020820152604083015182811115620030db57600080fd5b620030e98782860162002870565b604083015250620030fd6060840162002cbb565b60608201526080830151828111156200311557600080fd5b620031238782860162002c44565b60808301525095945050505050565b6000826200315057634e487b7160e01b600052601260045260246000fd5b50069056fe60806040523480156200001157600080fd5b506040516200273a3803806200273a83398101604081905262000034916200022e565b8451859085906200004d906003906020850190620000a2565b50805162000063906004906020840190620000a2565b5050600c80546001600160a01b039586166001600160a01b031991821617909155600d80549490951693169290921790925550600855506200030b9050565b828054620000b090620002ce565b90600052602060002090601f016020900481019282620000d457600085556200011f565b82601f10620000ef57805160ff19168380011785556200011f565b828001600101855582156200011f579182015b828111156200011f57825182559160200191906001019062000102565b506200012d92915062000131565b5090565b5b808211156200012d576000815560010162000132565b634e487b7160e01b600052604160045260246000fd5b600082601f8301126200017057600080fd5b81516001600160401b03808211156200018d576200018d62000148565b604051601f8301601f19908116603f01168101908282118183101715620001b857620001b862000148565b81604052838152602092508683858801011115620001d557600080fd5b600091505b83821015620001f95785820183015181830184015290820190620001da565b838211156200020b5760008385830101525b9695505050505050565b6001600160a01b03811681146200022b57600080fd5b50565b600080600080600060a086880312156200024757600080fd5b85516001600160401b03808211156200025f57600080fd5b6200026d89838a016200015e565b965060208801519150808211156200028457600080fd5b5062000293888289016200015e565b9450506040860151620002a68162000215565b6060870151909350620002b98162000215565b80925050608086015190509295509295909350565b600181811c90821680620002e357607f821691505b602082108114156200030557634e487b7160e01b600052602260045260246000fd5b50919050565b61241f806200031b6000396000f3fe6080604052600436106101b75760003560e01c806372a2377f116100ec578063ca6d56dc1161008a578063dd62ed3e11610064578063dd62ed3e146104e9578063e0f9895514610509578063f798e52514610529578063fd0232b21461054957600080fd5b8063ca6d56dc14610494578063ccf25b4d146104b4578063cd9f0921146104e157600080fd5b8063a457c2d7116100c6578063a457c2d714610414578063a9059cbb14610434578063aa887bb614610454578063c7f067441461047457600080fd5b806372a2377f146103bd5780637c0f6b35146103dd57806395d89b41146103ff57600080fd5b8063395093511161015957806355f6e5071161013357806355f6e507146103255780635d1ca631146103525780636586737a1461036757806370a082311461038757600080fd5b806339509351146102c357806340566488146102e357806344a96ce01461030557600080fd5b806323b872dd1161019557806323b872dd146102365780632f54bf6e14610256578063313ce567146102855780633597f252146102a157600080fd5b806306fdde03146101bc578063095ea7b3146101e757806318160ddd14610217575b600080fd5b3480156101c857600080fd5b506101d1610576565b6040516101de9190611e83565b60405180910390f35b3480156101f357600080fd5b50610207610202366004611eb2565b610608565b60405190151581526020016101de565b34801561022357600080fd5b506002545b6040519081526020016101de565b34801561024257600080fd5b50610207610251366004611edc565b610622565b34801561026257600080fd5b50610207610271366004611f18565b600c546001600160a01b0391821691161490565b34801561029157600080fd5b50604051601281526020016101de565b3480156102ad57600080fd5b506102c16102bc366004611f8d565b610648565b005b3480156102cf57600080fd5b506102076102de366004611eb2565b610792565b3480156102ef57600080fd5b506102f86107b4565b6040516101de919061201a565b34801561031157600080fd5b506102c161032036600461208c565b6109ac565b34801561033157600080fd5b50610345610340366004611f18565b610a3d565b6040516101de91906120f3565b34801561035e57600080fd5b50600854610228565b34801561037357600080fd5b506102c1610382366004612101565b610b07565b34801561039357600080fd5b506102286103a2366004611f18565b6001600160a01b031660009081526020819052604090205490565b3480156103c957600080fd5b506102c16103d8366004612143565b610be1565b3480156103e957600080fd5b506103f2610d39565b6040516101de919061215c565b34801561040b57600080fd5b506101d1610e9a565b34801561042057600080fd5b5061020761042f366004611eb2565b610ea9565b34801561044057600080fd5b5061020761044f366004611eb2565b610f2f565b34801561046057600080fd5b506102c161046f366004611f18565b610f3d565b34801561048057600080fd5b506102c161048f366004612143565b6111a5565b3480156104a057600080fd5b506102c16104af366004611f18565b6112b2565b3480156104c057600080fd5b506104d46104cf3660046121aa565b6114ff565b6040516101de91906121c5565b6102c16115d3565b3480156104f557600080fd5b506102286105043660046121ea565b611676565b34801561051557600080fd5b5061022861052436600461221d565b6116a1565b34801561053557600080fd5b506102c1610544366004612252565b6116c4565b34801561055557600080fd5b50610569610564366004612143565b611912565b6040516101de919061227c565b6060600380546105859061228f565b80601f01602080910402602001604051908101604052809291908181526020018280546105b19061228f565b80156105fe5780601f106105d3576101008083540402835291602001916105fe565b820191906000526020600020905b8154815290600101906020018083116105e157829003601f168201915b5050505050905090565b6000336106168185856119e1565b60019150505b92915050565b600033610630858285611b05565b61063b858585611b7f565b60019150505b9392505050565b600c546001600160a01b0316336001600160a01b0316148061067d5750600d546001600160a01b0316336001600160a01b0316145b6106bf5760405162461bcd60e51b815260206004820152600e60248201526d139bdd081e5bdd5c8819dd5a5b1960921b60448201526064015b60405180910390fd5b60008360ff161180156106d55750600a8360ff16105b6107105760405162461bcd60e51b815260206004820152600c60248201526b06260408ee4c2c8ca409ac2f60a31b60448201526064016106b6565b604051806040016040528085815260200183838080601f016020809104026020016040519081016040528093929190818152602001838380828437600092018290525093909452505060ff8616815260056020908152604090912083518155838201518051919350610789926001850192910190611d68565b50505050505050565b6000336106168185856107a58383611676565b6107af91906122da565b6119e1565b6060600b546000141561080c576040805160008082526020820190925290610806565b604080516060808201835260008083526020830152918101919091528152602001906001900390816107d75790505b50905090565b6000600b5467ffffffffffffffff811115610829576108296122f2565b60405190808252806020026020018201604052801561087657816020015b604080516060808201835260008083526020830152918101919091528152602001906001900390816108475790505b50905060005b600b548110156109a65760008181526007602052604090205460ff16151560011415610994576000818152600760209081526040918290208251606081018452815460ff81161515825261010090046001600160a01b0316928101929092526001810180549193849290840191906108f39061228f565b80601f016020809104026020016040519081016040528092919081815260200182805461091f9061228f565b801561096c5780601f106109415761010080835404028352916020019161096c565b820191906000526020600020905b81548152906001019060200180831161094f57829003601f168201915b50505050508152505083838151811061098757610987612308565b6020026020010181905250505b8061099e8161231e565b91505061087c565b50919050565b600c546001600160a01b0316336001600160a01b031614806109e15750600d546001600160a01b0316336001600160a01b0316145b610a1e5760405162461bcd60e51b815260206004820152600e60248201526d139bdd081e5bdd5c8819dd5a5b1960921b60448201526064016106b6565b6000908152600660205260409020805460ff1916911515919091179055565b610a45611dec565b610a4d611dec565b60005b600a54811015610b00576000818152600660205260409020600401546001600160a01b0385811691161415610aee57600081815260066020908152604091829020825160c081018452815460ff8082161515835261010090910416928101929092526001810154928201929092526002820154606082015260038201546001600160a01b03908116608083015260049092015490911660a082015291505b80610af88161231e565b915050610a50565b5092915050565b60408051606081019091526001815260208101336001600160a01b0316815260200183838080601f0160208091040260200160405190810160405280939291908181526020018383808284376000920182905250939094525050600b5481526007602090815260409182902084518154868401516001600160a01b031661010002610100600160a81b0319921515929092166001600160a81b031990911617178155918401518051929350610bc59260018501929190910190611d68565b5050600b805491506000610bd88361231e565b91905055505050565b60008181526007602052604090205460ff161515600114610c445760405162461bcd60e51b815260206004820181905260248201527f5468697320696e7669746174696f6e206973206e6f206d6f72652076616c696460448201526064016106b6565b6000805b600a54811015610c8a576000818152600660205260409020600401546001600160a01b0316331415610c78578091505b80610c828161231e565b915050610c48565b506000828152600760205260409020546001600160a01b0361010090910416331480610d04575060008181526006602052604090205460ff1615156001148015610d045750600081815260066020908152604080832054610100900460ff1683526005909152902054610cfe906004611d4d565b15156001145b610d205760405162461bcd60e51b81526004016106b690612339565b506000908152600760205260409020805460ff19169055565b6060600a5460001415610d7c576040805160008082526020820190925290610806565b610d64611dec565b815260200190600190039081610d5c57905050905090565b6000600a5467ffffffffffffffff811115610d9957610d996122f2565b604051908082528060200260200182016040528015610dd257816020015b610dbf611dec565b815260200190600190039081610db75790505b50905060005b600a548110156109a65760008181526006602052604090205460ff16151560011415610e8857600081815260066020908152604091829020825160c081018452815460ff8082161515835261010090910416928101929092526001810154928201929092526002820154606082015260038201546001600160a01b03908116608083015260048301541660a08201528351849084908110610e7b57610e7b612308565b6020026020010181905250505b80610e928161231e565b915050610dd8565b6060600480546105859061228f565b60003381610eb78286611676565b905083811015610f175760405162461bcd60e51b815260206004820152602560248201527f45524332303a2064656372656173656420616c6c6f77616e63652062656c6f77604482015264207a65726f60d81b60648201526084016106b6565b610f2482868684036119e1565b506001949350505050565b600033610616818585611b7f565b60008060005b600a54811015610fae576000818152600660205260409020600401546001600160a01b0316331415610f73578092505b6000818152600660205260409020600401546001600160a01b0385811691161415610f9c578091505b80610fa68161231e565b915050610f43565b50600082815260066020908152604080832054610100900460ff1683526005909152902054610fde906004611d4d565b1515600114806110015750600c546001600160a01b0316336001600160a01b0316145b8061101f5750600d546001600160a01b0316336001600160a01b0316145b61103b5760405162461bcd60e51b81526004016106b69061237b565b6000818152600660205260408082205484835291205460ff610100928390048116929091041611806110805750600c546001600160a01b0316336001600160a01b0316145b8061109e5750600d546001600160a01b0316336001600160a01b0316145b6110ea5760405162461bcd60e51b815260206004820152601c60248201527f596f75722072616e6b206973206e6f74206869676820656e6f7567680000000060448201526064016106b6565b60008181526006602052604090205460ff1615156001148015611120575060008281526006602052604090205460ff1615156001145b61113c5760405162461bcd60e51b81526004016106b6906123c1565b600081815260066020526040808220600481015460029091015491516001600160a01b039091169282156108fc02929190818181858888f1935050505015801561118a573d6000803e3d6000fd5b506000908152600660205260409020805460ff191690555050565b6000805b600a548110156111eb576000818152600660205260409020600401546001600160a01b03163314156111d9578091505b806111e38161231e565b9150506111a9565b5060008181526006602052604090205460ff16151560011461121f5760405162461bcd60e51b81526004016106b6906123c1565b6000818152600660205260409020600201548211156112805760405162461bcd60e51b815260206004820152601a60248201527f4e6f7420656e6f7567746820657468657220696e20636865737400000000000060448201526064016106b6565b604051339083156108fc029084906000818181858888f193505050501580156112ad573d6000803e3d6000fd5b505050565b60008060005b600a548110156112fa576000818152600660205260409020600401546001600160a01b03163314156112e8578092505b806112f28161231e565b9150506112b8565b5060005b600b54811015611345576000818152600760205260409020546001600160a01b03858116610100909204161415611333578091505b8061133d8161231e565b9150506112fe565b5060008181526006602052604090205460ff16151560011461139a5760405162461bcd60e51b815260206004820152600e60248201526d155cd95c881b9bdd081d985b1a5960921b60448201526064016106b6565b60008281526006602052604090205460ff16151560011480156113ed5750600082815260066020908152604080832054610100900460ff16835260059091529020546113e7906003611d4d565b15156001145b6114095760405162461bcd60e51b81526004016106b690612339565b6040518060c00160405280600015158152602001600060ff1681526020014281526020016000815260200161143b3390565b6001600160a01b039081168252858116602092830152600980546000908152600684526040808220865181549688015160ff166101000261ff00199115159190911661ffff19909716969096179590951785558581015160018601556060860151600286015560808601516003860180549186166001600160a01b031992831617905560a09096015160049095018054959094169490951693909317909155838252918120805460ff19169055815491906114f58361231e565b9190505550505050565b60408051808201909152600081526060602082015260ff8216600090815260056020908152604091829020825180840190935280548352600181018054919284019161154a9061228f565b80601f01602080910402602001604051908101604052809291908181526020018280546115769061228f565b80156115c35780601f10611598576101008083540402835291602001916115c3565b820191906000526020600020905b8154815290600101906020018083116115a657829003601f168201915b5050505050815250509050919050565b6000805b600a54811015611619576000818152600660205260409020600401546001600160a01b0316331415611607578091505b806116118161231e565b9150506115d7565b5060008181526006602052604090205460ff16151560011461164d5760405162461bcd60e51b81526004016106b6906123c1565b6000818152600660205260408120600201805434929061166e9084906122da565b909155505050565b6001600160a01b03918216600090815260016020908152604080832093909416825291909152205490565b600081156116b957506001821b929092179182610641565b50506001901b191690565b60008060005b600a54811015611735576000818152600660205260409020600401546001600160a01b03163314156116fa578092505b6000818152600660205260409020600401546001600160a01b0386811691161415611723578091505b8061172d8161231e565b9150506116ca565b50600082815260066020908152604080832054610100900460ff1683526005909152902054611765906007611d4d565b1515600114806117885750600c546001600160a01b0316336001600160a01b0316145b806117a65750600d546001600160a01b0316336001600160a01b0316145b6117c25760405162461bcd60e51b81526004016106b69061237b565b60008281526006602052604090205460ff808516610100909204161080159061180e57506000818152600660205260408082205484835291205460ff6101009283900481169290910416115b8061182c5750600c546001600160a01b0316336001600160a01b0316145b8061184a5750600d546001600160a01b0316336001600160a01b0316145b6118965760405162461bcd60e51b815260206004820152601c60248201527f596f75722072616e6b206973206e6f74206869676820656e6f7567680000000060448201526064016106b6565b60008181526006602052604090205460ff16151560011480156118cc575060008281526006602052604090205460ff1615156001145b6118e85760405162461bcd60e51b81526004016106b6906123c1565b506000908152600660205260409020805460ff9092166101000261ff001990921691909117905550565b6040805160608082018352600080835260208301529181019190915260008281526007602052604090205460ff1615156001146119915760405162461bcd60e51b815260206004820181905260248201527f5468697320696e7669746174696f6e206973206e6f206d6f72652076616c696460448201526064016106b6565b6000828152600760209081526040918290208251606081018452815460ff81161515825261010090046001600160a01b031692810192909252600181018054929391929184019161154a9061228f565b6001600160a01b038316611a435760405162461bcd60e51b8152602060048201526024808201527f45524332303a20617070726f76652066726f6d20746865207a65726f206164646044820152637265737360e01b60648201526084016106b6565b6001600160a01b038216611aa45760405162461bcd60e51b815260206004820152602260248201527f45524332303a20617070726f766520746f20746865207a65726f206164647265604482015261737360f01b60648201526084016106b6565b6001600160a01b0383811660008181526001602090815260408083209487168084529482529182902085905590518481527f8c5be1e5ebec7d5bd14f71427d1e84f3dd0314c0f7b2291e5b200ac8c7c3b925910160405180910390a3505050565b6000611b118484611676565b90506000198114611b795781811015611b6c5760405162461bcd60e51b815260206004820152601d60248201527f45524332303a20696e73756666696369656e7420616c6c6f77616e636500000060448201526064016106b6565b611b7984848484036119e1565b50505050565b6001600160a01b038316611be35760405162461bcd60e51b815260206004820152602560248201527f45524332303a207472616e736665722066726f6d20746865207a65726f206164604482015264647265737360d81b60648201526084016106b6565b6001600160a01b038216611c455760405162461bcd60e51b815260206004820152602360248201527f45524332303a207472616e7366657220746f20746865207a65726f206164647260448201526265737360e81b60648201526084016106b6565b6001600160a01b03831660009081526020819052604090205481811015611cbd5760405162461bcd60e51b815260206004820152602660248201527f45524332303a207472616e7366657220616d6f756e7420657863656564732062604482015265616c616e636560d01b60648201526084016106b6565b6001600160a01b03808516600090815260208190526040808220858503905591851681529081208054849290611cf49084906122da565b92505081905550826001600160a01b0316846001600160a01b03167fddf252ad1be2c89b69c2b068fc378daa952ba7f163c4a11628f55a4df523b3ef84604051611d4091815260200190565b60405180910390a3611b79565b6000600183831c81169081146106165760005b949350505050565b828054611d749061228f565b90600052602060002090601f016020900481019282611d965760008555611ddc565b82601f10611daf57805160ff1916838001178555611ddc565b82800160010185558215611ddc579182015b82811115611ddc578251825591602001919060010190611dc1565b50611de8929150611e21565b5090565b6040805160c081018252600080825260208201819052918101829052606081018290526080810182905260a081019190915290565b5b80821115611de85760008155600101611e22565b6000815180845260005b81811015611e5c57602081850181015186830182015201611e40565b81811115611e6e576000602083870101525b50601f01601f19169290920160200192915050565b6020815260006106416020830184611e36565b80356001600160a01b0381168114611ead57600080fd5b919050565b60008060408385031215611ec557600080fd5b611ece83611e96565b946020939093013593505050565b600080600060608486031215611ef157600080fd5b611efa84611e96565b9250611f0860208501611e96565b9150604084013590509250925092565b600060208284031215611f2a57600080fd5b61064182611e96565b803560ff81168114611ead57600080fd5b60008083601f840112611f5657600080fd5b50813567ffffffffffffffff811115611f6e57600080fd5b602083019150836020828501011115611f8657600080fd5b9250929050565b60008060008060608587031215611fa357600080fd5b84359350611fb360208601611f33565b9250604085013567ffffffffffffffff811115611fcf57600080fd5b611fdb87828801611f44565b95989497509550505050565b80511515825260018060a01b0360208201511660208301526000604082015160606040850152611d606060850182611e36565b6000602080830181845280855180835260408601915060408160051b870101925083870160005b8281101561206f57603f1988860301845261205d858351611fe7565b94509285019290850190600101612041565b5092979650505050505050565b80358015158114611ead57600080fd5b6000806040838503121561209f57600080fd5b611ece8361207c565b80511515825260208082015160ff169083015260408082015190830152606080820151908301526080808201516001600160a01b039081169184019190915260a09182015116910152565b60c0810161061c82846120a8565b6000806020838503121561211457600080fd5b823567ffffffffffffffff81111561212b57600080fd5b61213785828601611f44565b90969095509350505050565b60006020828403121561215557600080fd5b5035919050565b6020808252825182820181905260009190848201906040850190845b8181101561219e5761218b8385516120a8565b9284019260c09290920191600101612178565b50909695505050505050565b6000602082840312156121bc57600080fd5b61064182611f33565b602081528151602082015260006020830151604080840152611d606060840182611e36565b600080604083850312156121fd57600080fd5b61220683611e96565b915061221460208401611e96565b90509250929050565b60008060006060848603121561223257600080fd5b83359250602084013591506122496040850161207c565b90509250925092565b6000806040838503121561226557600080fd5b61226e83611e96565b915061221460208401611f33565b6020815260006106416020830184611fe7565b600181811c908216806122a357607f821691505b602082108114156109a657634e487b7160e01b600052602260045260246000fd5b634e487b7160e01b600052601160045260246000fd5b600082198211156122ed576122ed6122c4565b500190565b634e487b7160e01b600052604160045260246000fd5b634e487b7160e01b600052603260045260246000fd5b6000600019821415612332576123326122c4565b5060010190565b60208082526022908201527f596f757220617265206e6f7420617574686f72697a656420746f20646f207468604082015261697360f01b606082015260800190565b60208082526026908201527f596f75722072616e6b20646f6573206e6f7420617574686f72697a6520757067604082015265726164696e6760d01b606082015260800190565b6020808252600e908201526d2737ba103b30b634b2103ab9b2b960911b60408201526060019056fea264697066735822122021ca55cb392188a731f6780f36767b0b6e018519a9bb4c5fbee1ae3fab4a93fd64736f6c634300080b0033a26469706673582212207d50f6b36119cf79aa37feda3eba6627e55c3909250d9a225bf7887907eb4fd264736f6c634300080b0033",
  "immutableReferences": {},
  "source": "// SPDX-License-Identifier: MIT\r\n// Delegation contract\r\npragma solidity ^0.8.0;\r\n\r\nimport \"@openzeppelin/contracts/access/Ownable.sol\";\r\nimport \"./Items.sol\";\r\nimport \"./Guild.sol\";\r\nimport \"./Class.sol\";\r\nimport \"./Quest.sol\";\r\nimport \"./Hero.sol\";\r\n\r\nimport \"./library/LClass.sol\";\r\nimport \"./library/LHero.sol\";\r\nimport \"./library/LItems.sol\";\r\nimport \"./library/LQuest.sol\";\r\n\r\nimport \"./interfaces/IDelegateContract.sol\";\r\n\r\n//enum Numbers {strong,endurance,concentration,agility,charisma,stealth,exp,level,peuple,classe}\r\n\r\ncontract DelegateContract is Ownable, IDelegateContract {\r\n  error AlreadyHaveGuild(address from, address addressGuild);\r\n  error GuildNotExist(address from, address addressGuild);\r\n  error NotEnoughEth(uint256 price, uint256 weiSended, uint256 tokenId, uint256 quantity);\r\n  error NotEnoughEthHero(uint256 price, uint256 weiSended);\r\n  error NotRemainingHero(uint256 tokenLimit, uint256 nextTokenIdToMint);\r\n  error NotYourToken(address sender, address ownerOfToken, uint256 tokenId);\r\n  error AlreadyInQuest(\r\n    address sender,\r\n    uint256 questId,\r\n    uint256 currentQuestId,\r\n    uint256 tokenId\r\n  );\r\n  error QuestNotFinished(\r\n    uint256 blockTimestamp,\r\n    uint256 heroQuestTime,\r\n    uint256 currentQuestTime,\r\n    uint256 tokenId\r\n  );\r\n  error NotEnoughExperience(\r\n    uint256 experienceHero,\r\n    uint256 experienceNeeded,\r\n    uint256 tokenId\r\n  );\r\n  error NotAStat(uint256 statToLvlUp, uint256 tokenId);\r\n\r\n  error NoMoreSupplyToken(uint256 supply, uint256 quantity, uint256 tokenId);\r\n  error NoMoreBalanceToken(\r\n    uint256 balance,\r\n    address sender,\r\n    uint256 quantity,\r\n    uint256 tokenId\r\n  );\r\n  error SellItemSendEth(address to, uint value);\r\n\r\n  address private addressHero;\r\n  address private addressQuest;\r\n  address private addressClass;\r\n  address private addressItem;\r\n  mapping(string => uint256) public paramsContract;\r\n  mapping(address => Guild) private guilds; //address = creator\r\n  mapping(uint256 => address) private addressGuilds; //address = creator\r\n  uint8 private countGuilds;\r\n\r\n  constructor(\r\n    address _addressHero,\r\n    address _addressQuest,\r\n    address _addressClass,\r\n    address _addressItem\r\n  ) {\r\n    addressHero = _addressHero;\r\n    addressQuest = _addressQuest;\r\n    addressClass = _addressClass;\r\n    addressItem = _addressItem;\r\n    paramsContract[\"nextTokenIdToMint\"] = Hero(addressHero).getParamsContract(\r\n      \"nextTokenIdToMint\"\r\n    );\r\n    paramsContract[\"price\"] = 100000000000000000; //dev:100000000000000000000 == 100 eth\r\n    paramsContract[\"totalPnt\"] = 5;\r\n    paramsContract[\"tokenLimit\"] = 10000;\r\n    paramsContract[\"nonce\"] = 0;\r\n    paramsContract[\"expForLevelUp\"] = 100;\r\n  }\r\n\r\n  modifier notYourToken(uint256 tokenId) {\r\n    Hero contrat = Hero(addressHero);\r\n    if (contrat.ownerOf(tokenId) != _msgSender())\r\n      revert NotYourToken({\r\n        sender: _msgSender(),\r\n        ownerOfToken: contrat.ownerOf(tokenId),\r\n        tokenId: tokenId\r\n      });\r\n    _;\r\n  }\r\n\r\n  ///@notice Create a guild by also deleting its contract\r\n  ///@param from user for found addresses of your contract by creator mapping\r\n  ///@param name name of your created contract\r\n  ///@param symbol name of your created contract\r\n  function createGuild(\r\n    address from,\r\n    string calldata name,\r\n    string calldata symbol\r\n  ) external {\r\n    if (address(guilds[from]) != address(0))\r\n      revert AlreadyHaveGuild({ from: from, addressGuild: address(guilds[from]) });\r\n    guilds[from] = new Guild(name, symbol, payable(_msgSender()), owner(), countGuilds);\r\n    addressGuilds[countGuilds] = from;\r\n    countGuilds++;\r\n  }\r\n\r\n  ///@notice return one guild by address creator\r\n  ///@param from user for found addresses of your contract by creator mapping\r\n  ///@return addressContract address of the contract guild\r\n  function getOneGuildAddress(address from) external view returns (address) {\r\n    if (address(guilds[from]) == address(0))\r\n      revert GuildNotExist({ from: from, addressGuild: address(guilds[from]) });\r\n    return address(guilds[from]);\r\n  }\r\n\r\n  ///@notice return all guilds addresses\r\n  ///@return result an array of address for all guilds created\r\n  function getAddressesGuilds() external view returns (address[] memory) {\r\n    address[] memory result = new address[](countGuilds);\r\n    uint256 resultIndex = 0;\r\n    uint256 i;\r\n    for (i = 0; i < countGuilds; i++) {\r\n      if (addressGuilds[i] != address(0)) {\r\n        result[resultIndex] = addressGuilds[i];\r\n        resultIndex++;\r\n      }\r\n    }\r\n    return result;\r\n  }\r\n\r\n  ///@notice Update a parameter of contract\r\n  ///@param key key index of params contract you want set\r\n  ///@param value value of params contract you want set\r\n  function setParamsContract(string calldata key, uint256 value) external onlyOwner {\r\n    paramsContract[key] = value;\r\n  }\r\n\r\n  ///@notice Return a parameter of contract by key index\r\n  ///@param key key index of param your want to return\r\n  ///@return param value of parameter contract\r\n  function getParamsContract(string calldata key) external view returns (uint256) {\r\n    return paramsContract[key];\r\n  }\r\n\r\n  ///@notice Update a parameter of hero contract\r\n  ///@param key key index of params contract you want set\r\n  ///@param value value of params contract you want set\r\n  function setParamsHeroContract(string calldata key, uint256 value) internal {\r\n    Hero contrat = Hero(addressHero);\r\n    contrat.setParamsContract(key, value);\r\n  }\r\n\r\n  ///@notice purchase of a resource for eth/MATIC\r\n  ///@param quantity count of item you want purchase\r\n  ///@param receiver receiver address of token\r\n  ///@param tokenId id of item\r\n  function buyItem(uint256 quantity, address receiver, uint256 tokenId) external payable {\r\n    Items itemContrat = Items(addressItem);\r\n    ItemsLib.Item memory item = itemContrat.getItemDetails(tokenId);\r\n    if (msg.value < item.price * quantity)\r\n      revert NotEnoughEth({\r\n        price: item.price * quantity,\r\n        weiSended: msg.value,\r\n        tokenId: tokenId,\r\n        quantity: quantity\r\n      });\r\n    itemContrat.mint(receiver, tokenId, quantity);\r\n    //setCurrentPrice();\r\n  }\r\n\r\n  ///@notice sell of a resource for eth/MATIC\r\n  ///@param quantity count of item you want purchase\r\n  ///@param tokenId id of item\r\n  function sellItem(uint256 quantity, uint256 tokenId) external {\r\n    Items itemContrat = Items(addressItem);\r\n    ItemsLib.Item memory item = itemContrat.getItemDetails(tokenId);\r\n    if (itemContrat.getSupply(tokenId) < quantity)\r\n      revert NoMoreSupplyToken({\r\n        supply: itemContrat.getSupply(tokenId),\r\n        quantity: quantity,\r\n        tokenId: tokenId\r\n      });\r\n    if (itemContrat.balanceOf(_msgSender(), tokenId) < quantity)\r\n      revert NoMoreBalanceToken({\r\n        balance: itemContrat.balanceOf(_msgSender(), tokenId),\r\n        sender: _msgSender(),\r\n        quantity: quantity,\r\n        tokenId: tokenId\r\n      });\r\n\r\n    itemContrat.burn(_msgSender(), tokenId, quantity);\r\n    (bool sent, ) = _msgSender().call{ value: item.price * quantity }(\"\");\r\n    if (sent == false) revert SellItemSendEth({ to: _msgSender(), value: item.price * quantity });\r\n    //payable(_msgSender()).transfer(item.price * quantity);\r\n    //setCurrentPrice();\r\n  }\r\n\r\n  ///@notice convert of a resource for another token\r\n  //function convertToAnotherToken(uint256 value, address anotherToken) external {\r\n  //require(supplies[tokenId]>value+1,\"No more this token\");\r\n  //require(balanceOf(_msgSender())>=value,\"No more this token\");\r\n  //burn(_msgSender(),value);\r\n  //currentprice = setCurrentPrice();\r\n  //}\r\n\r\n  ///@notice mint a hero for a value price and generate stats and parameterr\r\n  ///@param generation generation of creation hero\r\n  ///@param peuple peuple with class and stat linked\r\n  ///@param _tokenUri uri of metadata token hero\r\n  function mintHero(\r\n    uint8 generation,\r\n    uint8 peuple,\r\n    string calldata _tokenUri\r\n  ) external payable {\r\n    require(msg.value >= paramsContract[\"price\"], \"More ETH required\");\r\n    if (msg.value < paramsContract[\"price\"])\r\n      revert NotEnoughEthHero({ price: paramsContract[\"price\"], weiSended: msg.value });\r\n    if (paramsContract[\"tokenLimit\"] <= paramsContract[\"nextTokenIdToMint\"])\r\n      revert NotRemainingHero({\r\n        tokenLimit: paramsContract[\"tokenLimit\"],\r\n        nextTokenIdToMint: paramsContract[\"nextTokenIdToMint\"]\r\n      });\r\n    uint8[] memory randomParts = randomStats(peuple);\r\n    uint256[] memory randomParams = randomParameters(msg.value, generation);\r\n    paramsContract[\"nextTokenIdToMint\"]++;\r\n\r\n    Hero contrat = Hero(addressHero);\r\n    contrat.mint(_msgSender(), randomParts, randomParams, _tokenUri);\r\n  }\r\n\r\n  ///@notice generate stats for your hero in uint8\r\n  ///@param peuple peuple of hero generated\r\n  ///@return randomParts array of stats uint8 for hero\r\n  function randomStats(uint8 peuple) internal virtual returns (uint8[] memory) {\r\n    uint8[] memory randomParts = new uint8[](20);\r\n\r\n    Class classContrat = Class(addressClass);\r\n    ClassLib.Classes memory class;\r\n    class = classContrat.getClassDetails(0);\r\n    for (uint8 index = 0; index < classContrat.getClassCount(); index++) {\r\n      if (random(100) < classContrat.getClassDetails(index).rarity)\r\n        class = classContrat.getClassDetails(index);\r\n    }\r\n    uint8[] memory stats = class.stats;\r\n\r\n    randomParts[0] = stats[0]; //strong\r\n    randomParts[1] = stats[1]; //endurance\r\n    randomParts[2] = stats[2]; //concentration\r\n    randomParts[3] = stats[3]; //agility\r\n    randomParts[4] = stats[4]; //charisma\r\n    randomParts[5] = stats[5]; //stealth\r\n\r\n    randomParts[8] = peuple; //peuple\r\n    randomParts[9] = class.id; //class\r\n\r\n    return randomParts;\r\n  }\r\n\r\n  ///@notice generate parameter for your hero in uint256\r\n  ///@param price price of buying hero\r\n  ///@param generation generation fo hero\r\n  ///@return randomParams array of parameters uint256 for hero\r\n  function randomParameters(\r\n    uint256 price,\r\n    uint8 generation\r\n  ) internal virtual returns (uint256[] memory) {\r\n    uint256[] memory randomParams = new uint256[](20);\r\n    randomParams[0] = block.timestamp; //date de cration\r\n    randomParams[1] = price; //prix d'achat\r\n    randomParams[2] = block.timestamp; //date de la drnire action (il y a une heure) permettant de participer a des missions\r\n    //randomParams[3] = 0;//Mission choisis (si 0 aucune current mission)\r\n    //randomParams[4] = 0;//seconds pour finir la mission\r\n    //randomParams[5] = 0;//difficult de la qute (dtermine l'exp gagn, et les objets % gagn)\r\n    //randomParams[6] = 0;//last quest succeded\r\n    randomParams[6] = paramsContract[\"nextTokenIdToMint\"]; //tokenId\r\n    randomParams[7] = generation; //type\r\n    //randomParams[8] = 0;//exp\r\n    randomParams[9] = 1; //level\r\n    return randomParams;\r\n  }\r\n\r\n  ///@notice start a quest by id for one hero token\r\n  ///@param tokenId id of token you want to launch in quest\r\n  ///@param questId id of quest you want to start\r\n  function startQuest(uint256 tokenId, uint256 questId) external notYourToken(tokenId) {\r\n    Hero contrat = Hero(addressHero);\r\n    Quest questContrat = Quest(addressQuest);\r\n    QuestLib.QuestStruct memory questTemp = questContrat.getQuestDetails(questId);\r\n    HeroLib.Token memory tokenTemp = contrat.getTokenDetails(tokenId);\r\n    if (tokenTemp.params256[4] != 0)\r\n      revert AlreadyInQuest({\r\n        sender: _msgSender(),\r\n        questId: questId,\r\n        currentQuestId: tokenTemp.params256[4],\r\n        tokenId: tokenId\r\n      });\r\n    tokenTemp.params256[2] = block.timestamp;\r\n    tokenTemp.params256[3] = questId;\r\n    tokenTemp.params256[4] = questTemp.time;\r\n    contrat.updateToken(tokenTemp, tokenId, _msgSender());\r\n  }\r\n\r\n  ///@notice Validation of the quest at the end of a quest\r\n  ///@param tokenId id of token you want to complete quest\r\n  function completeQuest(uint256 tokenId) external notYourToken(tokenId) {\r\n    Hero contrat = Hero(addressHero);\r\n    HeroLib.Token memory tokenTemp = contrat.getTokenDetails(tokenId);\r\n\r\n    Quest questContrat = Quest(addressQuest);\r\n    QuestLib.QuestStruct memory questTemp = questContrat.getQuestDetails(\r\n      tokenTemp.params256[3]\r\n    );\r\n    if (block.timestamp - tokenTemp.params256[2] <= (questTemp.time))\r\n      revert QuestNotFinished({\r\n        blockTimestamp: block.timestamp,\r\n        heroQuestTime: tokenTemp.params256[2],\r\n        currentQuestTime: questTemp.time,\r\n        tokenId: tokenId\r\n      });\r\n    uint8 malus = 0;\r\n    for (uint8 index = 0; index < questTemp.stats.length; index++) {\r\n      if (questTemp.stats[index] > tokenTemp.params8[index]) {\r\n        malus += questTemp.stats[index] - tokenTemp.params8[index];\r\n      }\r\n    }\r\n    ///SUCCESS QUEST\r\n    uint256 percentSuccess = random(100 - malus);\r\n    tokenTemp.params256[7] = percentSuccess;\r\n    if (percentSuccess > questTemp.percentDifficulty) {\r\n      tokenTemp.params256[6] = 1;\r\n      tokenTemp.params256[8] += (questTemp.exp * questContrat.getMultiplicateurExp());\r\n\r\n      Items itemContrat = Items(addressItem);\r\n\r\n      for (uint256 index = 0; index < questTemp.items.length; index++) {\r\n        itemContrat.mint(_msgSender(), questTemp.items[index], 1);\r\n      }\r\n      //recuperer les items dans la quest !IMPORTANT\r\n      /*for (uint256 index = 0; index < countItems; index++) {\r\n        Items itemtemp = Items(items[index]);\r\n        if (random256(100000) > itemtemp.getRarity()) {\r\n          itemtemp.mint(1, _msgSender());\r\n        }\r\n      }*/\r\n    } else {\r\n      tokenTemp.params256[6] = 0;\r\n    }\r\n    tokenTemp.params256[2] = block.timestamp;\r\n    tokenTemp.params256[4] = 0;\r\n\r\n    contrat.updateToken(tokenTemp, tokenId, _msgSender());\r\n  }\r\n\r\n  ///@notice level up hero and increment one stat\r\n  ///@param statToLvlUp id of stat you wan increment\r\n  ///@param tokenId id of token you want level up\r\n  function levelUp(uint8 statToLvlUp, uint256 tokenId) external notYourToken(tokenId) {\r\n    Hero contrat = Hero(addressHero);\r\n    HeroLib.Token memory tokenTemp = contrat.getTokenDetails(tokenId);\r\n    if (\r\n      tokenTemp.params256[8] <=\r\n      (100 + (paramsContract[\"expForLevelUp\"] ** tokenTemp.params256[9]))\r\n    )\r\n      revert NotEnoughExperience({\r\n        experienceHero: tokenTemp.params256[8],\r\n        experienceNeeded: (100 +\r\n          (paramsContract[\"expForLevelUp\"] ** tokenTemp.params256[9])),\r\n        tokenId: tokenId\r\n      });\r\n    if (statToLvlUp < 0 || statToLvlUp > 5)\r\n      revert NotAStat({ statToLvlUp: statToLvlUp, tokenId: tokenId });\r\n    tokenTemp.params8[statToLvlUp]++;\r\n    tokenTemp.params256[8] = 0;\r\n    tokenTemp.params256[9]++;\r\n\r\n    contrat.updateToken(tokenTemp, tokenId, _msgSender());\r\n  }\r\n\r\n  /****************************************\r\n    UTILS\r\n     ****************************************/\r\n\r\n  ///@notice return random number\r\n  ///@param maxNumber max number random to return\r\n  ///@return randomNumber random uint256 returned\r\n  function random(uint8 maxNumber) internal returns (uint8) {\r\n    return uint8(random256(uint8(maxNumber)));\r\n  }\r\n\r\n  ///@notice return random number\r\n  ///@param maxNumber max number random to return\r\n  ///@return randomNumber random uint256 returned\r\n  function random256(uint256 maxNumber) internal returns (uint256) {\r\n    uint256 randomNumber = uint256(\r\n      keccak256(abi.encodePacked(block.timestamp, _msgSender(), paramsContract[\"nonce\"]))\r\n    ) % maxNumber;\r\n    paramsContract[\"nonce\"]++;\r\n    return randomNumber;\r\n  }\r\n\r\n  /*FUNDS OF CONTRACT*/\r\n\r\n  function withdraw() external onlyOwner {\r\n    payable(_msgSender()).transfer(address(this).balance);\r\n  }\r\n\r\n  /**\r\n    a finaliser\r\n     */\r\n  /*function calculPriceSupply() public{\r\n        Hero contrat = Hero(addressHero);\r\n        uint totalSupply = contrat.getParamsContract(\"totalSupply\");\r\n        //priceInUsd = (item.price/(10**18)) * (latestPrice/10**8)\r\n    }*/\r\n\r\n  /**\r\n    appel vers le contrat officiel du jeton\r\n    Achat d'un token par un utilisateur\r\n     */\r\n  /*function purchase(address contactAddr, uint256 tokenId) external payable {\r\n        Hero contrat = Hero(addressHero);\r\n        HeroLib.Token memory token = contrat.getTokenDetails(tokenId);\r\n        require(msg.value >= token.params256[1], \"Insufficient fonds sent\");\r\n        require(contrat.getOwnerOf(tokenId) != _msgSender(), \"Already Owned\");\r\n        //contrat.updateToken(token,tokenId,_msgSender());\r\n        contrat.transfer(contactAddr, _msgSender(), tokenId);\r\n    }*/\r\n\r\n  ///@notice Deleted a guild by also deleting its contract\r\n  ///@dev ATTENTION, the totality of the ether contained above atters to the creator of the contract\r\n  ///@param from user for found addresses of your contract by creator mapping\r\n  //function deleteGuild(address from) external {\r\n  //  require(address(guilds[from]) != address(0), \"Guild not exist\");\r\n  //  require(guilds[from].isOwner(_msgSender()), \"Is not your guild\");\r\n  //  guilds[from].kill();\r\n  //  addressGuilds[guilds[from].getId()] = address(0);\r\n  //}\r\n\r\n  // function giveHero(\r\n  //   address to,\r\n  //   uint8 generation,\r\n  //   string memory _tokenUri\r\n  // ) external onlyOwner {\r\n  //require(paramsContract[\"tokenLimit\"] > 0, \"No remaining\");\r\n  //bool[] memory booleans = new bool[](20);\r\n  //uint8[] memory randomParts = randomStats(0);\r\n  //uint256[] memory randomParams = randomParams(paramsContract[\"price\"], generation);\r\n  //paramsContract[\"nextTokenIdToMint\"]++;\r\n\r\n  //Hero contrat = Hero(addressHero);\r\n  //contrat.mint(to, booleans, randomParts, randomParams, _tokenUri);\r\n  //}\r\n}\r\n",
  "sourcePath": "C:\\Users\\Kevin\\Desktop\\WorkHome\\--Solidity--MYOS\\contracts\\DelegateContract.sol",
  "compiler": {
    "name": "solc",
    "version": "0.8.11+commit.d7f03943.Emscripten.clang"
  },
  "schemaVersion": "3.4.6",
  "updatedAt": "2022-11-07T00:14:12.676Z",
  "devdoc": {
    "kind": "dev",
    "methods": {
      "buyItem(uint256,address,uint256)": {
        "params": {
          "quantity": "count of item you want purchase",
          "receiver": "receiver address of token",
          "tokenId": "id of item"
        }
      },
      "completeQuest(uint256)": {
        "params": {
          "tokenId": "id of token you want to complete quest"
        }
      },
      "createGuild(address,string,string)": {
        "params": {
          "from": "user for found addresses of your contract by creator mapping",
          "name": "name of your created contract",
          "symbol": "name of your created contract"
        }
      },
      "getAddressesGuilds()": {
        "returns": {
          "_0": "result an array of address for all guilds created"
        }
      },
      "getOneGuildAddress(address)": {
        "params": {
          "from": "user for found addresses of your contract by creator mapping"
        },
        "returns": {
          "_0": "addressContract address of the contract guild"
        }
      },
      "getParamsContract(string)": {
        "params": {
          "key": "key index of param your want to return"
        },
        "returns": {
          "_0": "param value of parameter contract"
        }
      },
      "levelUp(uint8,uint256)": {
        "params": {
          "statToLvlUp": "id of stat you wan increment",
          "tokenId": "id of token you want level up"
        }
      },
      "mintHero(uint8,uint8,string)": {
        "params": {
          "_tokenUri": "uri of metadata token hero",
          "generation": "generation of creation hero",
          "peuple": "peuple with class and stat linked"
        }
      },
      "owner()": {
        "details": "Returns the address of the current owner."
      },
      "renounceOwnership()": {
        "details": "Leaves the contract without owner. It will not be possible to call `onlyOwner` functions anymore. Can only be called by the current owner. NOTE: Renouncing ownership will leave the contract without an owner, thereby removing any functionality that is only available to the owner."
      },
      "sellItem(uint256,uint256)": {
        "params": {
          "quantity": "count of item you want purchase",
          "tokenId": "id of item"
        }
      },
      "setParamsContract(string,uint256)": {
        "params": {
          "key": "key index of params contract you want set",
          "value": "value of params contract you want set"
        }
      },
      "startQuest(uint256,uint256)": {
        "params": {
          "questId": "id of quest you want to start",
          "tokenId": "id of token you want to launch in quest"
        }
      },
      "transferOwnership(address)": {
        "details": "Transfers ownership of the contract to a new account (`newOwner`). Can only be called by the current owner."
      }
    },
    "version": 1
  },
  "userdoc": {
    "kind": "user",
    "methods": {
      "buyItem(uint256,address,uint256)": {
        "notice": "purchase of a resource for eth/MATIC"
      },
      "completeQuest(uint256)": {
        "notice": "Validation of the quest at the end of a quest"
      },
      "createGuild(address,string,string)": {
        "notice": "Create a guild by also deleting its contract"
      },
      "getAddressesGuilds()": {
        "notice": "return all guilds addresses"
      },
      "getOneGuildAddress(address)": {
        "notice": "return one guild by address creator"
      },
      "getParamsContract(string)": {
        "notice": "Return a parameter of contract by key index"
      },
      "levelUp(uint8,uint256)": {
        "notice": "level up hero and increment one stat"
      },
      "mintHero(uint8,uint8,string)": {
        "notice": "mint a hero for a value price and generate stats and parameterr"
      },
      "sellItem(uint256,uint256)": {
        "notice": "sell of a resource for eth/MATIC"
      },
      "setParamsContract(string,uint256)": {
        "notice": "Update a parameter of contract"
      },
      "startQuest(uint256,uint256)": {
        "notice": "start a quest by id for one hero token"
      }
    },
    "version": 1
  }
}