{
  "contractName": "DelegateContractMYOS",
  "abi": [
    {
      "anonymous": false,
      "inputs": [
        {
          "indexed": true,
          "internalType": "address",
          "name": "previousOwner",
          "type": "address"
        },
        {
          "indexed": true,
          "internalType": "address",
          "name": "newOwner",
          "type": "address"
        }
      ],
      "name": "OwnershipTransferred",
      "type": "event"
    },
    {
      "inputs": [],
      "name": "owner",
      "outputs": [
        {
          "internalType": "address",
          "name": "",
          "type": "address"
        }
      ],
      "stateMutability": "view",
      "type": "function"
    },
    {
      "inputs": [],
      "name": "renounceOwnership",
      "outputs": [],
      "stateMutability": "nonpayable",
      "type": "function"
    },
    {
      "inputs": [
        {
          "internalType": "address",
          "name": "newOwner",
          "type": "address"
        }
      ],
      "name": "transferOwnership",
      "outputs": [],
      "stateMutability": "nonpayable",
      "type": "function"
    },
    {
      "inputs": [
        {
          "internalType": "uint256",
          "name": "newPrice",
          "type": "uint256"
        }
      ],
      "name": "setCurrentPriceMYOS",
      "outputs": [],
      "stateMutability": "nonpayable",
      "type": "function"
    },
    {
      "inputs": [
        {
          "internalType": "address",
          "name": "_addressMYOSToken",
          "type": "address"
        }
      ],
      "name": "setAddressMYOSToken",
      "outputs": [],
      "stateMutability": "nonpayable",
      "type": "function"
    },
    {
      "inputs": [
        {
          "internalType": "bytes32",
          "name": "_merkleRoot",
          "type": "bytes32"
        },
        {
          "internalType": "uint256",
          "name": "_merkleEndTime",
          "type": "uint256"
        }
      ],
      "name": "setMerkleTree",
      "outputs": [],
      "stateMutability": "nonpayable",
      "type": "function"
    },
    {
      "inputs": [
        {
          "internalType": "uint256",
          "name": "quantity",
          "type": "uint256"
        },
        {
          "internalType": "address",
          "name": "receiver",
          "type": "address"
        },
        {
          "internalType": "bytes32[]",
          "name": "_proofs",
          "type": "bytes32[]"
        },
        {
          "internalType": "uint256",
          "name": "_proofMaxQuantityPerTransaction",
          "type": "uint256"
        }
      ],
      "name": "buyMYOS",
      "outputs": [],
      "stateMutability": "payable",
      "type": "function"
    },
    {
      "inputs": [
        {
          "internalType": "uint256",
          "name": "quantity",
          "type": "uint256"
        }
      ],
      "name": "sellMYOS",
      "outputs": [],
      "stateMutability": "nonpayable",
      "type": "function"
    },
    {
      "inputs": [
        {
          "internalType": "uint256",
          "name": "quantity",
          "type": "uint256"
        },
        {
          "internalType": "address",
          "name": "anotherToken",
          "type": "address"
        }
      ],
      "name": "convertMYOSToAnotherToken",
      "outputs": [],
      "stateMutability": "nonpayable",
      "type": "function"
    },
    {
      "inputs": [
        {
          "internalType": "address",
          "name": "_claimer",
          "type": "address"
        },
        {
          "internalType": "bytes32[]",
          "name": "_proofs",
          "type": "bytes32[]"
        },
        {
          "internalType": "uint256",
          "name": "_proofMaxQuantityPerTransaction",
          "type": "uint256"
        }
      ],
      "name": "verifyMerkleProof",
      "outputs": [
        {
          "internalType": "bool",
          "name": "validMerkleProof",
          "type": "bool"
        },
        {
          "internalType": "uint256",
          "name": "merkleProofIndex",
          "type": "uint256"
        }
      ],
      "stateMutability": "view",
      "type": "function"
    },
    {
      "inputs": [],
      "name": "getDynamicPriceMYOS",
      "outputs": [
        {
          "internalType": "uint256",
          "name": "",
          "type": "uint256"
        }
      ],
      "stateMutability": "view",
      "type": "function"
    }
  ],
  "bytecode": "0x608060405234801561001057600080fd5b5061001a3361001f565b61006f565b600080546001600160a01b038381166001600160a01b0319831681178455604051919092169283917f8be0079c531659141344cd1fd0a4f28419497f9722a3daafe3b4186f6b6457e09190a35050565b610f5b8061007e6000396000f3fe60806040526004361061009c5760003560e01c8063a36d3e6b11610064578063a36d3e6b1461014f578063adcb719b1461016e578063ae3c14a31461018e578063bbe7f177146101b1578063f2fde38b146101d1578063fa4f8ab8146101f157600080fd5b806353b6aecf146100a15780636e1edceb146100dd578063715018a6146100f25780638d8ac43d146101075780638da5cb5b14610127575b600080fd5b3480156100ad57600080fd5b506100c16100bc366004610c12565b610211565b6040805192151583526020830191909152015b60405180910390f35b6100f06100eb366004610c6c565b6102c6565b005b3480156100fe57600080fd5b506100f06104e0565b34801561011357600080fd5b506100f0610122366004610cce565b6104f4565b34801561013357600080fd5b506000546040516001600160a01b0390911681526020016100d4565b34801561015b57600080fd5b506100f061016a366004610ce7565b5050565b34801561017a57600080fd5b506100f0610189366004610d13565b610501565b34801561019a57600080fd5b506101a3610514565b6040519081526020016100d4565b3480156101bd57600080fd5b506100f06101cc366004610d35565b610608565b3480156101dd57600080fd5b506100f06101ec366004610d35565b610632565b3480156101fd57600080fd5b506100f061020c366004610cce565b6106ab565b600454600090819015801590610228575042600354105b8015610235575060035415155b156102bd576102b7858580806020026020016040519081016040528093929190818152602001838360200280828437600092019190915250506004546040516bffffffffffffffffffffffff1960608d901b16602082015260348101899052909250605401905060405160208183030381529060405280519060200120610a32565b90925090505b94509492505050565b6102d233848484610211565b50506002541561033257846002546102ea9190610d6d565b3410156103325760405162461bcd60e51b8152602060048201526011602482015270135bdc9948115512081c995c5d5a5c9959607a1b60448201526064015b60405180910390fd5b60025461038f5784610342610514565b61034c9190610d6d565b34101561038f5760405162461bcd60e51b8152602060048201526011602482015270135bdc9948115512081c995c5d5a5c9959607a1b6044820152606401610329565b60015460405160009182916001600160a01b039091169034908381818185875af1925050503d80600081146103e0576040519150601f19603f3d011682016040523d82523d6000602084013e6103e5565b606091505b506001546040805163313ce56760e01b815290519395509193506001600160a01b0316916340c10f19918991849163313ce5679160048083019260209291908290030181865afa15801561043d573d6000803e3d6000fd5b505050506040513d601f19601f820116820180604052508101906104619190610d8c565b61046f9060ff16600a610e95565b610479908b610d6d565b6040516001600160e01b031960e085901b1681526001600160a01b0390921660048301526024820152604401600060405180830381600087803b1580156104bf57600080fd5b505af11580156104d3573d6000803e3d6000fd5b5050505050505050505050565b6104e8610b00565b6104f26000610b5a565b565b6104fc610b00565b600255565b610509610b00565b600491909155600355565b600154604080516318160ddd60e01b815290516000926001600160a01b0316916318160ddd9160048083019260209291908290030181865afa15801561055e573d6000803e3d6000fd5b505050506040513d601f19601f820116820180604052508101906105829190610ea1565b600160009054906101000a90046001600160a01b03166001600160a01b03166366bd78fd6040518163ffffffff1660e01b8152600401602060405180830381865afa1580156105d5573d6000803e3d6000fd5b505050506040513d601f19601f820116820180604052508101906105f99190610ea1565b6106039190610eba565b905090565b610610610b00565b600180546001600160a01b0319166001600160a01b0392909216919091179055565b61063a610b00565b6001600160a01b03811661069f5760405162461bcd60e51b815260206004820152602660248201527f4f776e61626c653a206e6577206f776e657220697320746865207a65726f206160448201526564647265737360d01b6064820152608401610329565b6106a881610b5a565b50565b6106b6816001610edc565b600160009054906101000a90046001600160a01b03166001600160a01b03166318160ddd6040518163ffffffff1660e01b8152600401602060405180830381865afa158015610709573d6000803e3d6000fd5b505050506040513d601f19601f8201168201806040525081019061072d9190610ea1565b1161076f5760405162461bcd60e51b815260206004820152601260248201527127379036b7b932903a3434b9903a37b5b2b760711b6044820152606401610329565b600160009054906101000a90046001600160a01b03166001600160a01b031663313ce5676040518163ffffffff1660e01b8152600401602060405180830381865afa1580156107c2573d6000803e3d6000fd5b505050506040513d601f19601f820116820180604052508101906107e69190610d8c565b6107f49060ff16600a610e95565b6107fe9082610d6d565b6001546040516370a0823160e01b81523360048201526001600160a01b03909116906370a0823190602401602060405180830381865afa158015610846573d6000803e3d6000fd5b505050506040513d601f19601f8201168201806040525081019061086a9190610ea1565b10156108ad5760405162461bcd60e51b815260206004820152601260248201527127379036b7b932903a3434b9903a37b5b2b760711b6044820152606401610329565b600254156108fa57336001600160a01b03166108fc826002546108d09190610d6d565b6040518115909202916000818181858888f193505050501580156108f8573d6000803e3d6000fd5b505b60025461094257336108fc8261090e610514565b6109189190610d6d565b6040518115909202916000818181858888f19350505050158015610940573d6000803e3d6000fd5b505b6001546040805163313ce56760e01b815290516001600160a01b0390921691639dc29fac913391849163313ce5679160048083019260209291908290030181865afa158015610995573d6000803e3d6000fd5b505050506040513d601f19601f820116820180604052508101906109b99190610d8c565b6109c79060ff16600a610e95565b6109d19085610d6d565b6040516001600160e01b031960e085901b1681526001600160a01b0390921660048301526024820152604401600060405180830381600087803b158015610a1757600080fd5b505af1158015610a2b573d6000803e3d6000fd5b5050505050565b6000808281805b8751811015610af457610a4d600283610d6d565b91506000888281518110610a6357610a63610ef4565b60200260200101519050808411610aa5576040805160208101869052908101829052606001604051602081830303815290604052805190602001209350610ae1565b6040805160208101839052908101859052606001604051602081830303815290604052805190602001209350600183610ade9190610edc565b92505b5080610aec81610f0a565b915050610a39565b50941495939450505050565b6000546001600160a01b031633146104f25760405162461bcd60e51b815260206004820181905260248201527f4f776e61626c653a2063616c6c6572206973206e6f7420746865206f776e65726044820152606401610329565b600080546001600160a01b038381166001600160a01b0319831681178455604051919092169283917f8be0079c531659141344cd1fd0a4f28419497f9722a3daafe3b4186f6b6457e09190a35050565b80356001600160a01b0381168114610bc157600080fd5b919050565b60008083601f840112610bd857600080fd5b50813567ffffffffffffffff811115610bf057600080fd5b6020830191508360208260051b8501011115610c0b57600080fd5b9250929050565b60008060008060608587031215610c2857600080fd5b610c3185610baa565b9350602085013567ffffffffffffffff811115610c4d57600080fd5b610c5987828801610bc6565b9598909750949560400135949350505050565b600080600080600060808688031215610c8457600080fd5b85359450610c9460208701610baa565b9350604086013567ffffffffffffffff811115610cb057600080fd5b610cbc88828901610bc6565b96999598509660600135949350505050565b600060208284031215610ce057600080fd5b5035919050565b60008060408385031215610cfa57600080fd5b82359150610d0a60208401610baa565b90509250929050565b60008060408385031215610d2657600080fd5b50508035926020909101359150565b600060208284031215610d4757600080fd5b610d5082610baa565b9392505050565b634e487b7160e01b600052601160045260246000fd5b6000816000190483118215151615610d8757610d87610d57565b500290565b600060208284031215610d9e57600080fd5b815160ff81168114610d5057600080fd5b600181815b80851115610dea578160001904821115610dd057610dd0610d57565b80851615610ddd57918102915b93841c9390800290610db4565b509250929050565b600082610e0157506001610e8f565b81610e0e57506000610e8f565b8160018114610e245760028114610e2e57610e4a565b6001915050610e8f565b60ff841115610e3f57610e3f610d57565b50506001821b610e8f565b5060208310610133831016604e8410600b8410161715610e6d575081810a610e8f565b610e778383610daf565b8060001904821115610e8b57610e8b610d57565b0290505b92915050565b6000610d508383610df2565b600060208284031215610eb357600080fd5b5051919050565b600082610ed757634e487b7160e01b600052601260045260246000fd5b500490565b60008219821115610eef57610eef610d57565b500190565b634e487b7160e01b600052603260045260246000fd5b6000600019821415610f1e57610f1e610d57565b506001019056fea2646970667358221220a1885913cfdd9ee4389f993e19be8565eff7686592cce7569108f4b958ff85e064736f6c634300080b0033",
  "immutableReferences": {},
  "source": "// SPDX-License-Identifier: MIT\n// Delegation contract\npragma solidity ^0.8.0;\n\nimport \"@openzeppelin/contracts/access/Ownable.sol\";\nimport \"./MerkleProof.sol\";\nimport \"./MYOS.sol\";\n\ncontract DelegateContractMYOS is Ownable {\n  address addressMYOSToken;\n  uint256 currentpriceMYOS;\n  uint256 merkleEndTime;\n  bytes32 merkleRoot;\n\n  ///@notice Update price of MYOS token for static price, if == 0 change for dynamic price\n  ///@param newPrice value of price in matic wei (matic / 10**18)\n  function setCurrentPriceMYOS(uint256 newPrice) external onlyOwner {\n    currentpriceMYOS = newPrice;\n  }\n\n  function setAddressMYOSToken(address _addressMYOSToken) external onlyOwner {\n    addressMYOSToken = _addressMYOSToken;\n  }\n\n  ///@notice Set the merkle tree to create whitelist for mint\n  ///@param _merkleRoot A bytes 32 represent root of tree for verify all merkle proof\n  ///@param _merkleEndTime Represent a timestamp (in seconds) represents end of whitelist\n  function setMerkleTree(bytes32 _merkleRoot, uint256 _merkleEndTime) external onlyOwner {\n    merkleRoot = _merkleRoot;\n    merkleEndTime = _merkleEndTime;\n  }\n\n  ///@notice Purchase of a resource for eth/MATIC\n  ///@param quantity number of token myos you want purchase\n  ///@param receiver address waller of receiver's token\n  function buyMYOS(\n    uint256 quantity,\n    address receiver,\n    bytes32[] calldata _proofs,\n    uint256 _proofMaxQuantityPerTransaction\n  ) external payable {\n    verifyMerkleProof(msg.sender, _proofs, _proofMaxQuantityPerTransaction);\n    if (currentpriceMYOS != 0)\n      require(msg.value >= (currentpriceMYOS * quantity), \"More ETH required\");\n    if (currentpriceMYOS == 0)\n      require(msg.value >= (getDynamicPriceMYOS() * quantity), \"More ETH required\");\n    (bool sent, bytes memory data) = addressMYOSToken.call{ value: msg.value }(\"\");\n    MYOS(addressMYOSToken).mint(\n      receiver,\n      quantity * (10**uint256(MYOS(addressMYOSToken).decimals()))\n    );\n  }\n\n  ///@notice Sale of MYOS token against MATIC\n  ///@param quantity number of token myos you want sell\n  function sellMYOS(uint256 quantity) public {\n    require(MYOS(addressMYOSToken).totalSupply() > quantity + 1, \"No more this token\");\n    require(\n      MYOS(addressMYOSToken).balanceOf(msg.sender) >=\n        quantity * (10**uint256(MYOS(addressMYOSToken).decimals())),\n      \"No more this token\"\n    );\n    if (currentpriceMYOS != 0) payable(msg.sender).transfer(currentpriceMYOS * quantity);\n    if (currentpriceMYOS == 0)\n      payable(msg.sender).transfer(getDynamicPriceMYOS() * quantity);\n    MYOS(addressMYOSToken).burn(\n      msg.sender,\n      quantity * (10**uint256(MYOS(addressMYOSToken).decimals()))\n    );\n  }\n\n  ///@notice Converting the MYOS to another token\n  ///@param quantity number of token myos you want convert\n  ///@param anotherToken address of token you want to convert\n  function convertMYOSToAnotherToken(uint256 quantity, address anotherToken) public {\n    /*require(totalSupply()>quantity+1,\"No more this token\");\n        require(balanceOf(msg.sender)>=quantity,\"No more this token\");\n        _burn(msg.sender,quantity);\n        currentprice = getDynamicPriceMYOS();*/\n  }\n\n  ///@notice Verify proof of a claimer to mint in a whitelist\n  ///@param _claimer msg.sender address wallet of user he want mint token MYOS\n  ///@param _proofs array of bytes 32 represent proof of merkle with merkle tree\n  ///@param _proofMaxQuantityPerTransaction useless for us but need it, its for add quantity into merkle tree\n  function verifyMerkleProof(\n    address _claimer,\n    bytes32[] calldata _proofs,\n    uint256 _proofMaxQuantityPerTransaction\n  ) public view returns (bool validMerkleProof, uint256 merkleProofIndex) {\n    if (\n      merkleRoot != bytes32(0) && merkleEndTime < block.timestamp && merkleEndTime != 0\n    ) {\n      (validMerkleProof, merkleProofIndex) = MerkleProofLib.verify(\n        _proofs,\n        merkleRoot,\n        keccak256(abi.encodePacked(_claimer, _proofMaxQuantityPerTransaction))\n      );\n    }\n  }\n\n  ///@notice Function to calculate dynamic price\n  function getDynamicPriceMYOS() public view returns (uint256) {\n    return\n      MYOS(addressMYOSToken).getBalanceContract() / MYOS(addressMYOSToken).totalSupply();\n  }\n}\n",
  "sourcePath": "/home/kevin/Bureau/homework/MYOS/contracts/DelegateContractMYOS.sol",
  "compiler": {
    "name": "solc",
    "version": "0.8.11+commit.d7f03943.Emscripten.clang"
  },
  "schemaVersion": "3.4.7",
  "updatedAt": "2022-10-31T19:57:32.388Z",
  "devdoc": {
    "kind": "dev",
    "methods": {
      "buyMYOS(uint256,address,bytes32[],uint256)": {
        "params": {
          "quantity": "number of token myos you want purchase",
          "receiver": "address waller of receiver's token"
        }
      },
      "convertMYOSToAnotherToken(uint256,address)": {
        "params": {
          "anotherToken": "address of token you want to convert",
          "quantity": "number of token myos you want convert"
        }
      },
      "owner()": {
        "details": "Returns the address of the current owner."
      },
      "renounceOwnership()": {
        "details": "Leaves the contract without owner. It will not be possible to call `onlyOwner` functions anymore. Can only be called by the current owner. NOTE: Renouncing ownership will leave the contract without an owner, thereby removing any functionality that is only available to the owner."
      },
      "sellMYOS(uint256)": {
        "params": {
          "quantity": "number of token myos you want sell"
        }
      },
      "setCurrentPriceMYOS(uint256)": {
        "params": {
          "newPrice": "value of price in matic wei (matic / 10**18)"
        }
      },
      "setMerkleTree(bytes32,uint256)": {
        "params": {
          "_merkleEndTime": "Represent a timestamp (in seconds) represents end of whitelist",
          "_merkleRoot": "A bytes 32 represent root of tree for verify all merkle proof"
        }
      },
      "transferOwnership(address)": {
        "details": "Transfers ownership of the contract to a new account (`newOwner`). Can only be called by the current owner."
      },
      "verifyMerkleProof(address,bytes32[],uint256)": {
        "params": {
          "_claimer": "msg.sender address wallet of user he want mint token MYOS",
          "_proofMaxQuantityPerTransaction": "useless for us but need it, its for add quantity into merkle tree",
          "_proofs": "array of bytes 32 represent proof of merkle with merkle tree"
        }
      }
    },
    "version": 1
  },
  "userdoc": {
    "kind": "user",
    "methods": {
      "buyMYOS(uint256,address,bytes32[],uint256)": {
        "notice": "Purchase of a resource for eth/MATIC"
      },
      "convertMYOSToAnotherToken(uint256,address)": {
        "notice": "Converting the MYOS to another token"
      },
      "getDynamicPriceMYOS()": {
        "notice": "Function to calculate dynamic price"
      },
      "sellMYOS(uint256)": {
        "notice": "Sale of MYOS token against MATIC"
      },
      "setCurrentPriceMYOS(uint256)": {
        "notice": "Update price of MYOS token for static price, if == 0 change for dynamic price"
      },
      "setMerkleTree(bytes32,uint256)": {
        "notice": "Set the merkle tree to create whitelist for mint"
      },
      "verifyMerkleProof(address,bytes32[],uint256)": {
        "notice": "Verify proof of a claimer to mint in a whitelist"
      }
    },
    "version": 1
  }
}