{
  "contractName": "DelegateContract",
  "abi": [
    {
      "inputs": [
        {
          "internalType": "address",
          "name": "_addressHero",
          "type": "address"
        },
        {
          "internalType": "address",
          "name": "_addressQuest",
          "type": "address"
        },
        {
          "internalType": "address",
          "name": "_addressClass",
          "type": "address"
        }
      ],
      "stateMutability": "nonpayable",
      "type": "constructor"
    },
    {
      "anonymous": false,
      "inputs": [
        {
          "indexed": true,
          "internalType": "address",
          "name": "previousOwner",
          "type": "address"
        },
        {
          "indexed": true,
          "internalType": "address",
          "name": "newOwner",
          "type": "address"
        }
      ],
      "name": "OwnershipTransferred",
      "type": "event"
    },
    {
      "inputs": [],
      "name": "owner",
      "outputs": [
        {
          "internalType": "address",
          "name": "",
          "type": "address"
        }
      ],
      "stateMutability": "view",
      "type": "function"
    },
    {
      "inputs": [
        {
          "internalType": "string",
          "name": "",
          "type": "string"
        }
      ],
      "name": "paramsContract",
      "outputs": [
        {
          "internalType": "uint256",
          "name": "",
          "type": "uint256"
        }
      ],
      "stateMutability": "view",
      "type": "function"
    },
    {
      "inputs": [],
      "name": "renounceOwnership",
      "outputs": [],
      "stateMutability": "nonpayable",
      "type": "function"
    },
    {
      "inputs": [
        {
          "internalType": "address",
          "name": "newOwner",
          "type": "address"
        }
      ],
      "name": "transferOwnership",
      "outputs": [],
      "stateMutability": "nonpayable",
      "type": "function"
    },
    {
      "inputs": [
        {
          "internalType": "address",
          "name": "_by",
          "type": "address"
        },
        {
          "internalType": "string",
          "name": "name",
          "type": "string"
        },
        {
          "internalType": "string",
          "name": "symbol",
          "type": "string"
        }
      ],
      "name": "createGuild",
      "outputs": [],
      "stateMutability": "nonpayable",
      "type": "function"
    },
    {
      "inputs": [
        {
          "internalType": "address",
          "name": "_by",
          "type": "address"
        }
      ],
      "name": "deleteGuild",
      "outputs": [],
      "stateMutability": "nonpayable",
      "type": "function"
    },
    {
      "inputs": [
        {
          "internalType": "address",
          "name": "_by",
          "type": "address"
        }
      ],
      "name": "getOneGuildAddress",
      "outputs": [
        {
          "internalType": "address",
          "name": "",
          "type": "address"
        }
      ],
      "stateMutability": "view",
      "type": "function"
    },
    {
      "inputs": [],
      "name": "getAddressesGuilds",
      "outputs": [
        {
          "internalType": "address[]",
          "name": "",
          "type": "address[]"
        }
      ],
      "stateMutability": "view",
      "type": "function"
    },
    {
      "inputs": [
        {
          "internalType": "address",
          "name": "_addressHero",
          "type": "address"
        }
      ],
      "name": "setaddressHero",
      "outputs": [],
      "stateMutability": "nonpayable",
      "type": "function"
    },
    {
      "inputs": [
        {
          "internalType": "string",
          "name": "key",
          "type": "string"
        },
        {
          "internalType": "uint256",
          "name": "value",
          "type": "uint256"
        }
      ],
      "name": "setParamsContract",
      "outputs": [],
      "stateMutability": "nonpayable",
      "type": "function"
    },
    {
      "inputs": [
        {
          "internalType": "string",
          "name": "key",
          "type": "string"
        }
      ],
      "name": "getParamsContract",
      "outputs": [
        {
          "internalType": "uint256",
          "name": "",
          "type": "uint256"
        }
      ],
      "stateMutability": "view",
      "type": "function"
    },
    {
      "inputs": [
        {
          "internalType": "address",
          "name": "item",
          "type": "address"
        },
        {
          "internalType": "uint256",
          "name": "idItem",
          "type": "uint256"
        }
      ],
      "name": "setAddressItem",
      "outputs": [],
      "stateMutability": "nonpayable",
      "type": "function"
    },
    {
      "inputs": [],
      "name": "getAddressesItems",
      "outputs": [
        {
          "internalType": "address[]",
          "name": "",
          "type": "address[]"
        }
      ],
      "stateMutability": "view",
      "type": "function"
    },
    {
      "inputs": [
        {
          "internalType": "uint256",
          "name": "idItem",
          "type": "uint256"
        }
      ],
      "name": "getAddressItem",
      "outputs": [
        {
          "internalType": "address",
          "name": "",
          "type": "address"
        }
      ],
      "stateMutability": "view",
      "type": "function"
    },
    {
      "inputs": [
        {
          "internalType": "address",
          "name": "addressItem",
          "type": "address"
        }
      ],
      "name": "getItemDetails",
      "outputs": [
        {
          "components": [
            {
              "internalType": "string",
              "name": "name",
              "type": "string"
            },
            {
              "internalType": "uint256",
              "name": "rarity",
              "type": "uint256"
            },
            {
              "internalType": "uint256",
              "name": "currentPrice",
              "type": "uint256"
            },
            {
              "internalType": "uint256",
              "name": "myBalance",
              "type": "uint256"
            },
            {
              "internalType": "uint256",
              "name": "allBalance",
              "type": "uint256"
            }
          ],
          "internalType": "struct Items.Item",
          "name": "",
          "type": "tuple"
        }
      ],
      "stateMutability": "view",
      "type": "function"
    },
    {
      "inputs": [
        {
          "internalType": "uint256",
          "name": "idItem",
          "type": "uint256"
        }
      ],
      "name": "getBalanceOfItem",
      "outputs": [
        {
          "internalType": "uint256",
          "name": "",
          "type": "uint256"
        }
      ],
      "stateMutability": "view",
      "type": "function"
    },
    {
      "inputs": [
        {
          "internalType": "address payable",
          "name": "addressItem",
          "type": "address"
        },
        {
          "internalType": "uint256",
          "name": "quantity",
          "type": "uint256"
        }
      ],
      "name": "buyItem",
      "outputs": [],
      "stateMutability": "payable",
      "type": "function"
    },
    {
      "inputs": [
        {
          "internalType": "address",
          "name": "addressItem",
          "type": "address"
        },
        {
          "internalType": "uint256",
          "name": "quantity",
          "type": "uint256"
        }
      ],
      "name": "sellItem",
      "outputs": [],
      "stateMutability": "nonpayable",
      "type": "function"
    },
    {
      "inputs": [
        {
          "internalType": "address",
          "name": "addressItem",
          "type": "address"
        }
      ],
      "name": "depositItem",
      "outputs": [],
      "stateMutability": "payable",
      "type": "function"
    },
    {
      "inputs": [
        {
          "internalType": "address",
          "name": "addressItem",
          "type": "address"
        }
      ],
      "name": "getCurrentPrice",
      "outputs": [
        {
          "internalType": "uint256",
          "name": "",
          "type": "uint256"
        }
      ],
      "stateMutability": "view",
      "type": "function"
    },
    {
      "inputs": [
        {
          "internalType": "uint8",
          "name": "generation",
          "type": "uint8"
        },
        {
          "internalType": "uint8",
          "name": "peuple",
          "type": "uint8"
        },
        {
          "internalType": "string",
          "name": "_tokenUri",
          "type": "string"
        }
      ],
      "name": "mintDelegate",
      "outputs": [],
      "stateMutability": "payable",
      "type": "function"
    },
    {
      "inputs": [
        {
          "internalType": "uint256",
          "name": "tokenId",
          "type": "uint256"
        },
        {
          "internalType": "uint256",
          "name": "questId",
          "type": "uint256"
        }
      ],
      "name": "startQuest",
      "outputs": [],
      "stateMutability": "nonpayable",
      "type": "function"
    },
    {
      "inputs": [
        {
          "internalType": "uint256",
          "name": "tokenId",
          "type": "uint256"
        }
      ],
      "name": "completeQuest",
      "outputs": [],
      "stateMutability": "nonpayable",
      "type": "function"
    },
    {
      "inputs": [
        {
          "internalType": "uint8",
          "name": "statToLvlUp",
          "type": "uint8"
        },
        {
          "internalType": "uint256",
          "name": "tokenId",
          "type": "uint256"
        }
      ],
      "name": "levelUp",
      "outputs": [],
      "stateMutability": "nonpayable",
      "type": "function"
    },
    {
      "inputs": [],
      "name": "withdraw",
      "outputs": [],
      "stateMutability": "nonpayable",
      "type": "function"
    }
  ],
  "bytecode": "0x60806040523480156200001157600080fd5b50604051620060593803806200605983398101604081905262000034916200024c565b6200003f33620001df565b600180546001600160a01b038581166001600160a01b0319928316811790935560028054868316908416179055600380549185169190921617905560405163f26bf0b760e01b81526020600482015260066024820152651b995e1d125960d21b604482015263f26bf0b790606401602060405180830381865afa158015620000cb573d6000803e3d6000fd5b505050506040513d601f19601f82011682018060405250810190620000f1919062000296565b60408051651b995e1d125960d21b815260046006820181905282519182900360260182209390935564707269636560d81b815260058082018490528251918290036025908101832067016345785d8a00009055671d1bdd185b141b9d60c21b8352600883018590528351928390036028018320829055691d1bdad95b931a5b5a5d60b21b8352600a8301859052835192839003602a0183206127109055646e6f6e636560d81b8352908201849052825191829003018120600090556c0657870466f724c6576656c557609c1b8152600d8101929092525190819003602d0190206064905550620002b0915050565b600080546001600160a01b038381166001600160a01b0319831681178455604051919092169283917f8be0079c531659141344cd1fd0a4f28419497f9722a3daafe3b4186f6b6457e09190a35050565b80516001600160a01b03811681146200024757600080fd5b919050565b6000806000606084860312156200026257600080fd5b6200026d846200022f565b92506200027d602085016200022f565b91506200028d604085016200022f565b90509250925092565b600060208284031215620002a957600080fd5b5051919050565b615d9980620002c06000396000f3fe608060405260043610620001845760003560e01c80637a53d06e11620000e2578063b77f02e81162000095578063e0f0b85a116200006c578063e0f0b85a14620004a7578063e9da3a6514620004cc578063f26bf0b714620004f1578063f2fde38b146200051657600080fd5b8063b77f02e81462000423578063c3c33b401462000448578063dec74312146200046d57600080fd5b80637a53d06e146200035f57806384cc315b14620003765780638da5cb5b146200039b578063994c7cbe14620003cf5780639f37092a14620003f4578063b0add20a146200040b57600080fd5b806348c6309d116200013b57806348c6309d146200024e57806351ec391c146200027e578063528be0a914620002b2578063586e2ee414620002d75780635f9d45d814620002fc578063715018a6146200034757600080fd5b8063096c5e1a14620001895780630b275db414620001b05780631d9e861e14620001d55780633cb1194414620001ec5780633ccfd60b146200021157806342c3e3581462000229575b600080fd5b3480156200019657600080fd5b50620001ae620001a836600462002565565b6200053b565b005b348015620001bd57600080fd5b50620001ae620001cf366004620025a4565b620005b3565b620001ae620001e6366004620025c5565b620008bd565b348015620001f957600080fd5b50620001ae6200020b36600462002729565b62000999565b3480156200021e57600080fd5b50620001ae620009ca565b3480156200023657600080fd5b50620001ae62000248366004620025c5565b62000a04565b3480156200025b57600080fd5b506200026662000c4e565b60405162000275919062002771565b60405180910390f35b3480156200028b57600080fd5b50620002a36200029d366004620025c5565b62000d52565b6040516200027591906200281d565b348015620002bf57600080fd5b50620001ae620002d13660046200286f565b62000e0f565b348015620002e457600080fd5b50620001ae620002f636600462002889565b62001411565b3480156200030957600080fd5b50620003386200031b36600462002907565b805160208183018101805160048252928201919093012091525481565b60405190815260200162000275565b3480156200035457600080fd5b50620001ae62001559565b620001ae620003703660046200293f565b62001571565b3480156200038357600080fd5b506200033862000395366004620025c5565b62001742565b348015620003a857600080fd5b506000546001600160a01b03165b6040516001600160a01b03909116815260200162000275565b348015620003dc57600080fd5b5062000338620003ee3660046200286f565b620017b4565b620001ae6200040536600462002565565b62001818565b3480156200041857600080fd5b506200026662001910565b3480156200043057600080fd5b50620003b662000442366004620025c5565b620019e4565b3480156200045557600080fd5b50620001ae620004673660046200299e565b62001a60565b3480156200047a57600080fd5b50620003b66200048c3660046200286f565b6000908152600560205260409020546001600160a01b031690565b348015620004b457600080fd5b50620001ae620004c636600462002565565b62001cef565b348015620004d957600080fd5b50620001ae620004eb366004620025c5565b62001d46565b348015620004fe57600080fd5b50620003386200051036600462002907565b62001d72565b3480156200052357600080fd5b50620001ae62000535366004620025c5565b62001d9c565b816001600160a01b03811663ad97308c83336040516001600160e01b031960e085901b16815260048101929092526001600160a01b03166024820152604401600060405180830381600087803b1580156200059557600080fd5b505af1158015620005aa573d6000803e3d6000fd5b50505050505050565b6001546001600160a01b0316336040516331a9108f60e11b8152600481018490526001600160a01b0391821691831690636352211e90602401602060405180830381865afa1580156200060a573d6000803e3d6000fd5b505050506040513d601f19601f82011682018060405250810190620006309190620029c1565b6001600160a01b031614620006625760405162461bcd60e51b81526004016200065990620029e1565b60405180910390fd5b60405163183c06e560e31b8152600481018390526000906001600160a01b0383169063c1e0372890602401600060405180830381865afa158015620006ab573d6000803e3d6000fd5b505050506040513d6000823e601f3d908101601f19168201604052620006d5919081019062002b2c565b90508060200151600781518110620006f157620006f162002c4f565b602002602001015160046040516200071c906c0657870466f724c6576656c557609c1b8152600d0190565b90815260200160405180910390205462000737919062002d78565b6200074490606462002d89565b81602001516006815181106200075e576200075e62002c4f565b602002602001015160ff1611620007b15760405162461bcd60e51b8152602060048201526016602482015275195e1c195c9a595b98d9481b9bdd08195b9bdd59da1d60521b604482015260640162000659565b80602001518460ff1681518110620007cd57620007cd62002c4f565b602002602001018051809190620007e49062002da4565b60ff1660ff1681525050600081602001516006815181106200080a576200080a62002c4f565b60ff9092166020928302919091018201528101518051600790811062000834576200083462002c4f565b6020026020010180518091906200084b9062002da4565b60ff1690525060405163e1e5151d60e01b81526001600160a01b0383169063e1e5151d90620008839084908790339060040162002e6d565b600060405180830381600087803b1580156200089e57600080fd5b505af1158015620008b3573d6000803e3d6000fd5b5050505050505050565b60408051600481526024810182526020810180516001600160e01b0316630d0e30db60e41b179052905160009182916001600160a01b03851691349162000905919062002eec565b60006040518083038185875af1925050503d806000811462000944576040519150601f19603f3d011682016040523d82523d6000602084013e62000949565b606091505b509150915081620009945760405162461bcd60e51b81526020600482015260146024820152732330b4b632b2103a379039b2b7321022ba3432b960611b604482015260640162000659565b505050565b620009a362001e18565b80600483604051620009b6919062002eec565b908152604051908190036020019020555050565b620009d462001e18565b60405133904780156108fc02916000818181858888f1935050505015801562000a01573d6000803e3d6000fd5b50565b6001600160a01b038181166000908152600660205260409020541662000a5f5760405162461bcd60e51b815260206004820152600f60248201526e11dd5a5b19081b9bdd08195e1a5cdd608a1b604482015260640162000659565b6001600160a01b0381811660009081526006602052604090205416632f54bf6e336040516001600160e01b031960e084901b1681526001600160a01b039091166004820152602401602060405180830381865afa15801562000ac5573d6000803e3d6000fd5b505050506040513d601f19601f8201168201806040525081019062000aeb919062002f0a565b62000b2d5760405162461bcd60e51b8152602060048201526011602482015270125cc81b9bdd081e5bdd5c8819dd5a5b19607a1b604482015260640162000659565b6001600160a01b038082166000908152600660205260408082205481516341c0e1b560e01b815291519316926341c0e1b59260048084019391929182900301818387803b15801562000b7e57600080fd5b505af115801562000b93573d6000803e3d6000fd5b5050506001600160a01b038083166000908152600660209081526040808320548151635d1ca63160e01b815291519395506007948694911692635d1ca63192600480820193918290030181865afa15801562000bf3573d6000803e3d6000fd5b505050506040513d601f19601f8201168201806040525081019062000c19919062002f28565b815260200190815260200160002060006101000a8154816001600160a01b0302191690836001600160a01b0316021790555050565b600854606090600090610100900460ff166001600160401b0381111562000c795762000c79620025e5565b60405190808252806020026020018201604052801562000ca3578160200160208202803683370190505b5090506000805b600854610100900460ff1681101562000d4a576000818152600760205260409020546001600160a01b03161562000d355760008181526007602052604090205483516001600160a01b039091169084908490811062000d0d5762000d0d62002c4f565b6001600160a01b03909216602092830291909101909101528162000d318162002f42565b9250505b8062000d418162002f42565b91505062000caa565b509092915050565b62000d856040518060a0016040528060608152602001600081526020016000815260200160008152602001600081525090565b8160006001600160a01b0382166351ec391c336040516001600160e01b031960e084901b1681526001600160a01b039091166004820152602401600060405180830381865afa15801562000ddd573d6000803e3d6000fd5b505050506040513d6000823e601f3d908101601f1916820160405262000e07919081019062002fac565b949350505050565b6001546001600160a01b0316336040516331a9108f60e11b8152600481018490526001600160a01b0391821691831690636352211e90602401602060405180830381865afa15801562000e66573d6000803e3d6000fd5b505050506040513d601f19601f8201168201806040525081019062000e8c9190620029c1565b6001600160a01b03161462000eb55760405162461bcd60e51b81526004016200065990620029e1565b60405163183c06e560e31b8152600481018390526000906001600160a01b0383169063c1e0372890602401600060405180830381865afa15801562000efe573d6000803e3d6000fd5b505050506040513d6000823e601f3d908101601f1916820160405262000f28919081019062002b2c565b600254604082015180519293506001600160a01b0390911691600091839163b0f929b09190600390811062000f615762000f6162002c4f565b60200260200101516040518263ffffffff1660e01b815260040162000f8891815260200190565b600060405180830381865afa15801562000fa6573d6000803e3d6000fd5b505050506040513d6000823e601f3d908101601f1916820160405262000fd091908101906200304b565b90508060a00151836040015160028151811062000ff15762000ff162002c4f565b60200260200101514262001006919062003133565b116200104a5760405162461bcd60e51b8152602060048201526012602482015271145d595cdd081b9bdd08199a5b9a5cda195960721b604482015260640162000659565b6000805b8260400151518160ff1610156200112c5784602001518160ff16815181106200107b576200107b62002c4f565b602002602001015160ff1683604001518260ff1681518110620010a257620010a262002c4f565b602002602001015160ff161115620011175784602001518160ff1681518110620010d057620010d062002c4f565b602002602001015183604001518260ff1681518110620010f457620010f462002c4f565b60200260200101516200110891906200314d565b62001114908362003173565b91505b80620011238162002da4565b9150506200104e565b50602082015160ff166200114c620011468360646200314d565b62001e74565b60ff1611156200132c57826001600160a01b0316636827822e6040518163ffffffff1660e01b8152600401602060405180830381865afa15801562001195573d6000803e3d6000fd5b505050506040513d601f19601f82011682018060405250810190620011bb91906200319b565b8251620011c99190620031bb565b8460200151600681518110620011e357620011e362002c4f565b60200260200101818151620011f9919062003173565b60ff1690525060005b60085460ff168110156200132a57600081815260056020908152604091829020548251633d9966dd60e11b815292516001600160a01b03909116928392637b32cdba926004808401938290030181865afa15801562001265573d6000803e3d6000fd5b505050506040513d601f19601f820116820180604052508101906200128b919062002f28565b62001299620186a062001e8a565b111562001314576001600160a01b0381166394bf804d6001336040516001600160e01b031960e085901b16815260048101929092526001600160a01b03166024820152604401600060405180830381600087803b158015620012fa57600080fd5b505af11580156200130f573d6000803e3d6000fd5b505050505b5080620013218162002f42565b91505062001202565b505b42846040015160028151811062001347576200134762002c4f565b602002602001018181525050600084604001516003815181106200136f576200136f62002c4f565b6020026020010181815250506000846040015160048151811062001397576200139762002c4f565b60209081029190910101526001600160a01b03851663e1e5151d8588335b6040518463ffffffff1660e01b8152600401620013d59392919062002e6d565b600060405180830381600087803b158015620013f057600080fd5b505af115801562001405573d6000803e3d6000fd5b50505050505050505050565b6001600160a01b038381166000908152600660205260409020541615620014745760405162461bcd60e51b8152602060048201526016602482015275165bdd48185b1c9958591e481a185d994819dd5a5b1960521b604482015260640162000659565b8181336000546001600160a01b0316600860019054906101000a900460ff16604051620014a19062002541565b620014b1959493929190620031df565b604051809103906000f080158015620014ce573d6000803e3d6000fd5b506001600160a01b0380851660008181526006602090815260408083208054969095166001600160a01b0319968716179094556008805460ff61010091829004811685526007909352949092208054909516909217909355825491909104169060016200153b8362002da4565b91906101000a81548160ff021916908360ff16021790555050505050565b6200156362001e18565b6200156f600062001f4b565b565b60405164707269636560d81b8152600490600501908152602001604051809103902054341015620015d95760405162461bcd60e51b8152602060048201526011602482015270135bdc9948115512081c995c5d5a5c9959607a1b604482015260640162000659565b60006004604051620015fb90691d1bdad95b931a5b5a5d60b21b8152600a0190565b90815260200160405180910390205411620016485760405162461bcd60e51b815260206004820152600c60248201526b4e6f2072656d61696e696e6760a01b604482015260640162000659565b6040805160148082526102a08201909252600091602082016102808036833701905050905060006200167a8462001f9b565b905060006200168a34876200243e565b90506004604051620016a890651b995e1d125960d21b815260060190565b9081526040519081900360200190208054906000620016c78362002f42565b90915550506001546001600160a01b03168063e6d46f33338686868a6040518663ffffffff1660e01b81526004016200170595949392919062003235565b600060405180830381600087803b1580156200172057600080fd5b505af115801562001735573d6000803e3d6000fd5b5050505050505050505050565b600080829050806001600160a01b031663eb91d37e6040518163ffffffff1660e01b8152600401602060405180830381865afa15801562001787573d6000803e3d6000fd5b505050506040513d601f19601f82011682018060405250810190620017ad919062002f28565b9392505050565b6000818152600560205260408120546001600160a01b0316806370a08231336040516001600160e01b031960e084901b1681526001600160a01b039091166004820152602401602060405180830381865afa15801562001787573d6000803e3d6000fd5b6000806001600160a01b03841634843360405160248101929092526001600160a01b0316604482015260640160408051601f198184030181529181526020820180516001600160e01b0316637383d70960e01b179052516200187b919062002eec565b60006040518083038185875af1925050503d8060008114620018ba576040519150601f19603f3d011682016040523d82523d6000602084013e620018bf565b606091505b5091509150816200190a5760405162461bcd60e51b81526020600482015260146024820152732330b4b632b2103a379039b2b7321022ba3432b960611b604482015260640162000659565b50505050565b60085460609060009060ff166001600160401b03811115620019365762001936620025e5565b60405190808252806020026020018201604052801562001960578160200160208202803683370190505b5090506000805b60085460ff1681101562000d4a5760008181526005602052604090205483516001600160a01b0390911690849084908110620019a757620019a762002c4f565b6001600160a01b039092166020928302919091019091015281620019cb8162002f42565b9250508080620019db9062002f42565b91505062001967565b6001600160a01b0381811660009081526006602052604081205490911662001a415760405162461bcd60e51b815260206004820152600f60248201526e11dd5a5b19081b9bdd08195e1a5cdd608a1b604482015260640162000659565b506001600160a01b039081166000908152600660205260409020541690565b6001546001600160a01b0316336040516331a9108f60e11b8152600481018590526001600160a01b0391821691831690636352211e90602401602060405180830381865afa15801562001ab7573d6000803e3d6000fd5b505050506040513d601f19601f8201168201806040525081019062001add9190620029c1565b6001600160a01b03161462001b065760405162461bcd60e51b81526004016200065990620029e1565b600254604051630b0f929b60e41b8152600481018490526001600160a01b0390911690600090829063b0f929b090602401600060405180830381865afa15801562001b55573d6000803e3d6000fd5b505050506040513d6000823e601f3d908101601f1916820160405262001b7f91908101906200304b565b60405163183c06e560e31b8152600481018790529091506000906001600160a01b0385169063c1e0372890602401600060405180830381865afa15801562001bcb573d6000803e3d6000fd5b505050506040513d6000823e601f3d908101601f1916820160405262001bf5919081019062002b2c565b9050806040015160048151811062001c115762001c1162002c4f565b602002602001015160001462001c5f5760405162461bcd60e51b8152602060048201526012602482015271145d595cdd081b9bdd08199a5b9a5cda195960721b604482015260640162000659565b42816040015160028151811062001c7a5762001c7a62002c4f565b60200260200101818152505084816040015160038151811062001ca15762001ca162002c4f565b6020026020010181815250508160a00151816040015160048151811062001ccc5762001ccc62002c4f565b60209081029190910101526001600160a01b03841663e1e5151d828833620013b5565b600081815260056020526040812080546001600160a01b0319166001600160a01b0385161790556008805460ff169162001d298362002da4565b91906101000a81548160ff021916908360ff160217905550505050565b62001d5062001e18565b600180546001600160a01b0319166001600160a01b0392909216919091179055565b600060048260405162001d86919062002eec565b9081526020016040518091039020549050919050565b62001da662001e18565b6001600160a01b03811662001e0d5760405162461bcd60e51b815260206004820152602660248201527f4f776e61626c653a206e6577206f776e657220697320746865207a65726f206160448201526564647265737360d01b606482015260840162000659565b62000a018162001f4b565b6000546001600160a01b031633146200156f5760405162461bcd60e51b815260206004820181905260248201527f4f776e61626c653a2063616c6c6572206973206e6f7420746865206f776e6572604482015260640162000659565b600062001e848260ff1662001e8a565b92915050565b60408051646e6f6e636560d81b8152600460058201528151908190036025018120544260208301526bffffffffffffffffffffffff193360601b16928201929092526054810191909152600090819083906074016040516020818303038152906040528051906020012060001c62001f039190620032a7565b9050600460405162001f2090646e6f6e636560d81b815260050190565b908152604051908190036020019020805490600062001f3f8362002f42565b90915550909392505050565b600080546001600160a01b038381166001600160a01b0319831681178455604051919092169283917f8be0079c531659141344cd1fd0a4f28419497f9722a3daafe3b4186f6b6457e09190a35050565b6040805160148082526102a08201909252606091600091906020820161028080368337019050506003546040805160a08101825260008082526060602083018190529282018190528282015260808101919091529192506001600160a01b03169060405163323eae4960e01b8152600060048201526001600160a01b0383169063323eae4990602401600060405180830381865afa15801562002042573d6000803e3d6000fd5b505050506040513d6000823e601f3d908101601f191682016040526200206c9190810190620032ca565b905060005b826001600160a01b0316630b01ca3b6040518163ffffffff1660e01b8152600401602060405180830381865afa158015620020b0573d6000803e3d6000fd5b505050506040513d601f19601f82011682018060405250810190620020d691906200319b565b60ff168160ff161015620021fa5760405163323eae4960e01b815260ff821660048201526001600160a01b0384169063323eae4990602401600060405180830381865afa1580156200212c573d6000803e3d6000fd5b505050506040513d6000823e601f3d908101601f19168201604052620021569190810190620032ca565b5160ff1662002166606462001e74565b60ff161015620021e55760405163323eae4960e01b815260ff821660048201526001600160a01b0384169063323eae4990602401600060405180830381865afa158015620021b8573d6000803e3d6000fd5b505050506040513d6000823e601f3d908101601f19168201604052620021e29190810190620032ca565b91505b80620021f18162002da4565b91505062002071565b5060208101518051819060009062002216576200221662002c4f565b60200260200101518460008151811062002234576200223462002c4f565b602002602001019060ff16908160ff1681525050806001815181106200225e576200225e62002c4f565b6020026020010151846001815181106200227c576200227c62002c4f565b602002602001019060ff16908160ff168152505080600281518110620022a657620022a662002c4f565b602002602001015184600281518110620022c457620022c462002c4f565b602002602001019060ff16908160ff168152505080600381518110620022ee57620022ee62002c4f565b6020026020010151846003815181106200230c576200230c62002c4f565b602002602001019060ff16908160ff16815250508060048151811062002336576200233662002c4f565b60200260200101518460048151811062002354576200235462002c4f565b602002602001019060ff16908160ff1681525050806005815181106200237e576200237e62002c4f565b6020026020010151846005815181106200239c576200239c62002c4f565b602002602001019060ff16908160ff1681525050600184600781518110620023c857620023c862002c4f565b602002602001019060ff16908160ff16815250508584600881518110620023f357620023f362002c4f565b602002602001019060ff16908160ff168152505081604001518460098151811062002422576200242262002c4f565b60ff909216602092830291909101909101525091949350505050565b60408051600a808252610160820190925260609160009190602082016101408036833701905050905042816000815181106200247e576200247e62002c4f565b6020026020010181815250508381600181518110620024a157620024a162002c4f565b6020026020010181815250504281600281518110620024c457620024c462002c4f565b6020908102919091010152604051651b995e1d125960d21b81526004906006019081526020016040518091039020548160068151811062002509576200250962002c4f565b6020026020010181815250508260ff16816007815181106200252f576200252f62002c4f565b60209081029190910101529392505050565b6129c180620033a383390190565b6001600160a01b038116811462000a0157600080fd5b600080604083850312156200257957600080fd5b823562002586816200254f565b946020939093013593505050565b60ff8116811462000a0157600080fd5b60008060408385031215620025b857600080fd5b8235620025868162002594565b600060208284031215620025d857600080fd5b8135620017ad816200254f565b634e487b7160e01b600052604160045260246000fd5b604051606081016001600160401b0381118282101715620026205762002620620025e5565b60405290565b60405160a081016001600160401b0381118282101715620026205762002620620025e5565b60405160e081016001600160401b0381118282101715620026205762002620620025e5565b604051601f8201601f191681016001600160401b03811182821017156200269b576200269b620025e5565b604052919050565b60006001600160401b03821115620026bf57620026bf620025e5565b50601f01601f191660200190565b600082601f830112620026df57600080fd5b8135620026f6620026f082620026a3565b62002670565b8181528460208386010111156200270c57600080fd5b816020850160208301376000918101602001919091529392505050565b600080604083850312156200273d57600080fd5b82356001600160401b038111156200275457600080fd5b6200276285828601620026cd565b95602094909401359450505050565b6020808252825182820181905260009190848201906040850190845b81811015620027b45783516001600160a01b0316835292840192918401916001016200278d565b50909695505050505050565b60005b83811015620027dd578181015183820152602001620027c3565b838111156200190a5750506000910152565b6000815180845262002809816020860160208601620027c0565b601f01601f19169290920160200192915050565b602081526000825160a060208401526200283b60c0840182620027ef565b9050602084015160408401526040840151606084015260608401516080840152608084015160a08401528091505092915050565b6000602082840312156200288257600080fd5b5035919050565b6000806000606084860312156200289f57600080fd5b8335620028ac816200254f565b925060208401356001600160401b0380821115620028c957600080fd5b620028d787838801620026cd565b93506040860135915080821115620028ee57600080fd5b50620028fd86828701620026cd565b9150509250925092565b6000602082840312156200291a57600080fd5b81356001600160401b038111156200293157600080fd5b62000e0784828501620026cd565b6000806000606084860312156200295557600080fd5b8335620029628162002594565b92506020840135620029748162002594565b915060408401356001600160401b038111156200299057600080fd5b620028fd86828701620026cd565b60008060408385031215620029b257600080fd5b50508035926020909101359150565b600060208284031215620029d457600080fd5b8151620017ad816200254f565b6020808252600e908201526d2737ba103cb7bab9103a37b5b2b760911b604082015260600190565b60006001600160401b0382111562002a255762002a25620025e5565b5060051b60200190565b8051801515811462002a4057600080fd5b919050565b805162002a408162002594565b600082601f83011262002a6457600080fd5b8151602062002a77620026f08362002a09565b82815260059290921b8401810191818101908684111562002a9757600080fd5b8286015b8481101562002abf57805162002ab18162002594565b835291830191830162002a9b565b509695505050505050565b600082601f83011262002adc57600080fd5b8151602062002aef620026f08362002a09565b82815260059290921b8401810191818101908684111562002b0f57600080fd5b8286015b8481101562002abf578051835291830191830162002b13565b6000602080838503121562002b4057600080fd5b82516001600160401b038082111562002b5857600080fd5b908401906060828703121562002b6d57600080fd5b62002b77620025fb565b82518281111562002b8757600080fd5b8301601f8101881362002b9957600080fd5b805162002baa620026f08262002a09565b81815260059190911b8201860190868101908a83111562002bca57600080fd5b928701925b8284101562002bf35762002be38462002a2f565b8252928701929087019062002bcf565b8452505050828401518281111562002c0a57600080fd5b62002c188882860162002a52565b8583015250604083015193508184111562002c3257600080fd5b62002c408785850162002aca565b60408201529695505050505050565b634e487b7160e01b600052603260045260246000fd5b634e487b7160e01b600052601160045260246000fd5b600181815b8085111562002cbc57816000190482111562002ca05762002ca062002c65565b8085161562002cae57918102915b93841c939080029062002c80565b509250929050565b60008262002cd55750600162001e84565b8162002ce45750600062001e84565b816001811462002cfd576002811462002d085762002d28565b600191505062001e84565b60ff84111562002d1c5762002d1c62002c65565b50506001821b62001e84565b5060208310610133831016604e8410600b841016171562002d4d575081810a62001e84565b62002d59838362002c7b565b806000190482111562002d705762002d7062002c65565b029392505050565b6000620017ad60ff84168362002cc4565b6000821982111562002d9f5762002d9f62002c65565b500190565b600060ff821660ff81141562002dbe5762002dbe62002c65565b60010192915050565b600081518084526020808501945080840160005b8381101562002dfb57815115158752958201959082019060010162002ddb565b509495945050505050565b600081518084526020808501945080840160005b8381101562002dfb57815160ff168752958201959082019060010162002e1a565b600081518084526020808501945080840160005b8381101562002dfb5781518752958201959082019060010162002e4f565b606081526000845160608084015262002e8a60c084018262002dc7565b90506020860151605f198085840301608086015262002eaa838362002e06565b925060408801519150808584030160a08601525062002eca828262002e3b565b60208501969096525050506001600160a01b0391909116604090910152919050565b6000825162002f00818460208701620027c0565b9190910192915050565b60006020828403121562002f1d57600080fd5b620017ad8262002a2f565b60006020828403121562002f3b57600080fd5b5051919050565b600060001982141562002f595762002f5962002c65565b5060010190565b600082601f83011262002f7257600080fd5b815162002f83620026f082620026a3565b81815284602083860101111562002f9957600080fd5b62000e07826020830160208701620027c0565b60006020828403121562002fbf57600080fd5b81516001600160401b038082111562002fd757600080fd5b9083019060a0828603121562002fec57600080fd5b62002ff662002626565b8251828111156200300657600080fd5b620030148782860162002f60565b8252506020830151602082015260408301516040820152606083015160608201526080830151608082015280935050505092915050565b6000602082840312156200305e57600080fd5b81516001600160401b03808211156200307657600080fd5b9083019060e082860312156200308b57600080fd5b620030956200264b565b620030a08362002a45565b8152620030b06020840162002a45565b6020820152604083015182811115620030c857600080fd5b620030d68782860162002a52565b604083015250606083015182811115620030ef57600080fd5b620030fd8782860162002a52565b6060830152506080830151608082015260a083015160a08201526200312560c0840162002a2f565b60c082015295945050505050565b60008282101562003148576200314862002c65565b500390565b600060ff821660ff8416808210156200316a576200316a62002c65565b90039392505050565b600060ff821660ff84168060ff0382111562003193576200319362002c65565b019392505050565b600060208284031215620031ae57600080fd5b8151620017ad8162002594565b600060ff821660ff84168160ff048111821515161562002d705762002d7062002c65565b60a081526000620031f460a0830188620027ef565b8281036020840152620032088188620027ef565b6001600160a01b0396871660408501529490951660608301525060ff919091166080909101529392505050565b6001600160a01b038616815260a0602082018190526000906200325b9083018762002dc7565b82810360408401526200326f818762002e06565b9050828103606084015262003285818662002e3b565b905082810360808401526200329b8185620027ef565b98975050505050505050565b600082620032c557634e487b7160e01b600052601260045260246000fd5b500690565b600060208284031215620032dd57600080fd5b81516001600160401b0380821115620032f557600080fd5b9083019060a082860312156200330a57600080fd5b6200331462002626565b8251620033218162002594565b81526020830151828111156200333657600080fd5b620033448782860162002a52565b60208301525060408301516200335a8162002594565b60408201526200336d6060840162002a2f565b60608201526080830151828111156200338557600080fd5b620033938782860162002f60565b6080830152509594505050505056fe60806040523480156200001157600080fd5b50604051620029c1380380620029c183398101604081905262000034916200022e565b8451859085906200004d906003906020850190620000a2565b50805162000063906004906020840190620000a2565b5050600c80546001600160a01b039586166001600160a01b031991821617909155600d80549490951693169290921790925550600855506200030b9050565b828054620000b090620002ce565b90600052602060002090601f016020900481019282620000d457600085556200011f565b82601f10620000ef57805160ff19168380011785556200011f565b828001600101855582156200011f579182015b828111156200011f57825182559160200191906001019062000102565b506200012d92915062000131565b5090565b5b808211156200012d576000815560010162000132565b634e487b7160e01b600052604160045260246000fd5b600082601f8301126200017057600080fd5b81516001600160401b03808211156200018d576200018d62000148565b604051601f8301601f19908116603f01168101908282118183101715620001b857620001b862000148565b81604052838152602092508683858801011115620001d557600080fd5b600091505b83821015620001f95785820183015181830184015290820190620001da565b838211156200020b5760008385830101525b9695505050505050565b6001600160a01b03811681146200022b57600080fd5b50565b600080600080600060a086880312156200024757600080fd5b85516001600160401b03808211156200025f57600080fd5b6200026d89838a016200015e565b965060208801519150808211156200028457600080fd5b5062000293888289016200015e565b9450506040860151620002a68162000215565b6060870151909350620002b98162000215565b80925050608086015190509295509295909350565b600181811c90821680620002e357607f821691505b602082108114156200030557634e487b7160e01b600052602260045260246000fd5b50919050565b6126a6806200031b6000396000f3fe6080604052600436106101b75760003560e01c806372a2377f116100ec578063c7f067441161008a578063cd9f092111610064578063cd9f0921146104f6578063dd62ed3e146104fe578063f798e5251461051e578063fd0232b21461053e57600080fd5b8063c7f0674414610489578063ca6d56dc146104a9578063ccf25b4d146104c957600080fd5b806399103d1f116100c657806399103d1f14610409578063a457c2d714610429578063a9059cbb14610449578063aa887bb61461046957600080fd5b806372a2377f146103b25780637c0f6b35146103d257806395d89b41146103f457600080fd5b8063405664881161015957806355f6e5071161013357806355f6e5071461031a5780635d1ca631146103475780636586737a1461035c57806370a082311461037c57600080fd5b806340566488146102c157806341c0e1b5146102e357806344a96ce0146102fa57600080fd5b806323b872dd1161019557806323b872dd146102365780632f54bf6e14610256578063313ce5671461028557806339509351146102a157600080fd5b806306fdde03146101bc578063095ea7b3146101e757806318160ddd14610217575b600080fd5b3480156101c857600080fd5b506101d161056b565b6040516101de9190611fdd565b60405180910390f35b3480156101f357600080fd5b50610207610202366004612013565b6105fd565b60405190151581526020016101de565b34801561022357600080fd5b506002545b6040519081526020016101de565b34801561024257600080fd5b5061020761025136600461203d565b610617565b34801561026257600080fd5b50610207610271366004612079565b600c546001600160a01b0391821691161490565b34801561029157600080fd5b50604051601281526020016101de565b3480156102ad57600080fd5b506102076102bc366004612013565b61063b565b3480156102cd57600080fd5b506102d661065d565b6040516101de91906120cf565b3480156102ef57600080fd5b506102f8610855565b005b34801561030657600080fd5b506102f8610315366004612141565b6108bd565b34801561032657600080fd5b5061033a610335366004612079565b61092d565b6040516101de91906121a8565b34801561035357600080fd5b50600854610228565b34801561036857600080fd5b506102f8610377366004612259565b6109f7565b34801561038857600080fd5b50610228610397366004612079565b6001600160a01b031660009081526020819052604090205490565b3480156103be57600080fd5b506102f86103cd36600461228e565b610a92565b3480156103de57600080fd5b506103e7610beb565b6040516101de91906122a7565b34801561040057600080fd5b506101d1610d4c565b34801561041557600080fd5b506102f8610424366004612306565b610d5b565b34801561043557600080fd5b50610207610444366004612013565b610f92565b34801561045557600080fd5b50610207610464366004612013565b61100d565b34801561047557600080fd5b506102f8610484366004612079565b61101b565b34801561049557600080fd5b506102f86104a436600461228e565b611284565b3480156104b557600080fd5b506102f86104c4366004612079565b611391565b3480156104d557600080fd5b506104e96104e43660046123db565b6115de565b6040516101de91906123f6565b6102f861176b565b34801561050a57600080fd5b50610228610519366004612494565b61180e565b34801561052a57600080fd5b506102f86105393660046124c7565b611839565b34801561054a57600080fd5b5061055e61055936600461228e565b611a87565b6040516101de91906124f1565b60606003805461057a90612504565b80601f01602080910402602001604051908101604052809291908181526020018280546105a690612504565b80156105f35780601f106105c8576101008083540402835291602001916105f3565b820191906000526020600020905b8154815290600101906020018083116105d657829003601f168201915b5050505050905090565b60003361060b818585611b56565b60019150505b92915050565b600033610625858285611c7a565b610630858585611cf4565b506001949350505050565b60003361060b81858561064e838361180e565b610658919061254f565b611b56565b6060600b54600014156106b55760408051600080825260208201909252906106af565b604080516060808201835260008083526020830152918101919091528152602001906001900390816106805790505b50905090565b6000600b5467ffffffffffffffff8111156106d2576106d26121b6565b60405190808252806020026020018201604052801561071f57816020015b604080516060808201835260008083526020830152918101919091528152602001906001900390816106f05790505b50905060005b600b5481101561084f5760008181526007602052604090205460ff1615156001141561083d576000818152600760209081526040918290208251606081018452815460ff81161515825261010090046001600160a01b03169281019290925260018101805491938492908401919061079c90612504565b80601f01602080910402602001604051908101604052809291908181526020018280546107c890612504565b80156108155780601f106107ea57610100808354040283529160200191610815565b820191906000526020600020905b8154815290600101906020018083116107f857829003601f168201915b50505050508152505083838151811061083057610830612567565b6020026020010181905250505b806108478161257d565b915050610725565b50919050565b600c546001600160a01b0316336001600160a01b0316148061088a5750600d546001600160a01b0316336001600160a01b0316145b6108af5760405162461bcd60e51b81526004016108a690612598565b60405180910390fd5b600c546001600160a01b0316ff5b600c546001600160a01b0316336001600160a01b031614806108f25750600d546001600160a01b0316336001600160a01b0316145b61090e5760405162461bcd60e51b81526004016108a690612598565b6000908152600660205260409020805460ff1916911515919091179055565b610935611ec2565b61093d611ec2565b60005b600a548110156109f0576000818152600660205260409020600401546001600160a01b03858116911614156109de57600081815260066020908152604091829020825160c081018452815460ff8082161515835261010090910416928101929092526001810154928201929092526002820154606082015260038201546001600160a01b03908116608083015260049092015490911660a082015291505b806109e88161257d565b915050610940565b5092915050565b604080516060810182526001808252336020808401918252838501868152600b54600090815260078352959095208451815493516001600160a81b0319909416901515610100600160a81b031916176101006001600160a01b03909416939093029290921782559351805193949193610a77938501929190910190611ef7565b5050600b805491506000610a8a8361257d565b919050555050565b60008181526007602052604090205460ff161515600114610af55760405162461bcd60e51b815260206004820181905260248201527f5468697320696e7669746174696f6e206973206e6f206d6f72652076616c696460448201526064016108a6565b6000805b600a54811015610b3b576000818152600660205260409020600401546001600160a01b0316331415610b29578091505b80610b338161257d565b915050610af9565b506000828152600760205260409020546001600160a01b0361010090910416331480610bb6575060008181526006602052604090205460ff1615156001148015610bb6575060008181526006602090815260408083205460ff6101009091048116845260059092529091205464010000000090041615156001145b610bd25760405162461bcd60e51b81526004016108a6906125c0565b506000908152600760205260409020805460ff19169055565b6060600a5460001415610c2e5760408051600080825260208201909252906106af565b610c16611ec2565b815260200190600190039081610c0e57905050905090565b6000600a5467ffffffffffffffff811115610c4b57610c4b6121b6565b604051908082528060200260200182016040528015610c8457816020015b610c71611ec2565b815260200190600190039081610c695790505b50905060005b600a5481101561084f5760008181526006602052604090205460ff16151560011415610d3a57600081815260066020908152604091829020825160c081018452815460ff8082161515835261010090910416928101929092526001810154928201929092526002820154606082015260038201546001600160a01b03908116608083015260048301541660a08201528351849084908110610d2d57610d2d612567565b6020026020010181905250505b80610d448161257d565b915050610c8a565b60606004805461057a90612504565b600c546001600160a01b0316336001600160a01b03161480610d905750600d546001600160a01b0316336001600160a01b0316145b610dac5760405162461bcd60e51b81526004016108a690612598565b60008a60ff16118015610dc25750600a8a60ff16105b610dfd5760405162461bcd60e51b815260206004820152600c60248201526b06260408ee4c2c8ca409ac2f60a31b60448201526064016108a6565b6040518061012001604052808a15158152602001891515815260200188151581526020018715158152602001861515815260200185151581526020018415158152602001831515815260200182815250600560008c60ff1660ff16815260200190815260200160002060008201518160000160006101000a81548160ff02191690831515021790555060208201518160000160016101000a81548160ff02191690831515021790555060408201518160000160026101000a81548160ff02191690831515021790555060608201518160000160036101000a81548160ff02191690831515021790555060808201518160000160046101000a81548160ff02191690831515021790555060a08201518160000160056101000a81548160ff02191690831515021790555060c08201518160000160066101000a81548160ff02191690831515021790555060e08201518160000160076101000a81548160ff021916908315150217905550610100820151816001019080519060200190610f83929190611ef7565b50505050505050505050505050565b60003381610fa0828661180e565b9050838110156110005760405162461bcd60e51b815260206004820152602560248201527f45524332303a2064656372656173656420616c6c6f77616e63652062656c6f77604482015264207a65726f60d81b60648201526084016108a6565b6106308286868403611b56565b60003361060b818585611cf4565b60008060005b600a5481101561108c576000818152600660205260409020600401546001600160a01b0316331415611051578092505b6000818152600660205260409020600401546001600160a01b038581169116141561107a578091505b806110848161257d565b915050611021565b5060008281526006602090815260408083205460ff610100909104811684526005909252909120546401000000009004161515600114806110e05750600c546001600160a01b0316336001600160a01b0316145b806110fe5750600d546001600160a01b0316336001600160a01b0316145b61111a5760405162461bcd60e51b81526004016108a690612602565b6000818152600660205260408082205484835291205460ff6101009283900481169290910416118061115f5750600c546001600160a01b0316336001600160a01b0316145b8061117d5750600d546001600160a01b0316336001600160a01b0316145b6111c95760405162461bcd60e51b815260206004820152601c60248201527f596f75722072616e6b206973206e6f74206869676820656e6f7567680000000060448201526064016108a6565b60008181526006602052604090205460ff16151560011480156111ff575060008281526006602052604090205460ff1615156001145b61121b5760405162461bcd60e51b81526004016108a690612648565b600081815260066020526040808220600481015460029091015491516001600160a01b039091169282156108fc02929190818181858888f19350505050158015611269573d6000803e3d6000fd5b506000908152600660205260409020805460ff191690555050565b6000805b600a548110156112ca576000818152600660205260409020600401546001600160a01b03163314156112b8578091505b806112c28161257d565b915050611288565b5060008181526006602052604090205460ff1615156001146112fe5760405162461bcd60e51b81526004016108a690612648565b60008181526006602052604090206002015482111561135f5760405162461bcd60e51b815260206004820152601a60248201527f4e6f7420656e6f7567746820657468657220696e20636865737400000000000060448201526064016108a6565b604051339083156108fc029084906000818181858888f1935050505015801561138c573d6000803e3d6000fd5b505050565b60008060005b600a548110156113d9576000818152600660205260409020600401546001600160a01b03163314156113c7578092505b806113d18161257d565b915050611397565b5060005b600b54811015611424576000818152600760205260409020546001600160a01b03858116610100909204161415611412578091505b8061141c8161257d565b9150506113dd565b5060008181526006602052604090205460ff1615156001146114795760405162461bcd60e51b815260206004820152600e60248201526d155cd95c881b9bdd081d985b1a5960921b60448201526064016108a6565b60008281526006602052604090205460ff16151560011480156114cc575060008281526006602090815260408083205460ff61010090910481168452600590925290912054630100000090041615156001145b6114e85760405162461bcd60e51b81526004016108a6906125c0565b6040518060c00160405280600015158152602001600060ff1681526020014281526020016000815260200161151a3390565b6001600160a01b039081168252858116602092830152600980546000908152600684526040808220865181549688015160ff166101000261ff00199115159190911661ffff19909716969096179590951785558581015160018601556060860151600286015560808601516003860180549186166001600160a01b031992831617905560a09096015160049095018054959094169490951693909317909155838252918120805460ff19169055815491906115d48361257d565b9190505550505050565b604080516101208101825260008082526020820181905291810182905260608082018390526080820183905260a0820183905260c0820183905260e082019290925261010081019190915260ff808316600090815260056020908152604091829020825161012081018452815480861615158252610100808204871615159483019490945262010000810486161515948201949094526301000000840485161515606082015264010000000084048516151560808201526501000000000084048516151560a0820152660100000000000084048516151560c0820152600160381b909304909316151560e0830152600183018054929392918401916116e290612504565b80601f016020809104026020016040519081016040528092919081815260200182805461170e90612504565b801561175b5780601f106117305761010080835404028352916020019161175b565b820191906000526020600020905b81548152906001019060200180831161173e57829003601f168201915b5050505050815250509050919050565b6000805b600a548110156117b1576000818152600660205260409020600401546001600160a01b031633141561179f578091505b806117a98161257d565b91505061176f565b5060008181526006602052604090205460ff1615156001146117e55760405162461bcd60e51b81526004016108a690612648565b6000818152600660205260408120600201805434929061180690849061254f565b909155505050565b6001600160a01b03918216600090815260016020908152604080832093909416825291909152205490565b60008060005b600a548110156118aa576000818152600660205260409020600401546001600160a01b031633141561186f578092505b6000818152600660205260409020600401546001600160a01b0386811691161415611898578091505b806118a28161257d565b91505061183f565b5060008281526006602090815260408083205460ff61010090910481168452600590925290912054600160381b9004161515600114806118fd5750600c546001600160a01b0316336001600160a01b0316145b8061191b5750600d546001600160a01b0316336001600160a01b0316145b6119375760405162461bcd60e51b81526004016108a690612602565b60008281526006602052604090205460ff808516610100909204161080159061198357506000818152600660205260408082205484835291205460ff6101009283900481169290910416115b806119a15750600c546001600160a01b0316336001600160a01b0316145b806119bf5750600d546001600160a01b0316336001600160a01b0316145b611a0b5760405162461bcd60e51b815260206004820152601c60248201527f596f75722072616e6b206973206e6f74206869676820656e6f7567680000000060448201526064016108a6565b60008181526006602052604090205460ff1615156001148015611a41575060008281526006602052604090205460ff1615156001145b611a5d5760405162461bcd60e51b81526004016108a690612648565b506000908152600660205260409020805460ff9092166101000261ff001990921691909117905550565b6040805160608082018352600080835260208301529181019190915260008281526007602052604090205460ff161515600114611b065760405162461bcd60e51b815260206004820181905260248201527f5468697320696e7669746174696f6e206973206e6f206d6f72652076616c696460448201526064016108a6565b6000828152600760209081526040918290208251606081018452815460ff81161515825261010090046001600160a01b03169281019290925260018101805492939192918401916116e290612504565b6001600160a01b038316611bb85760405162461bcd60e51b8152602060048201526024808201527f45524332303a20617070726f76652066726f6d20746865207a65726f206164646044820152637265737360e01b60648201526084016108a6565b6001600160a01b038216611c195760405162461bcd60e51b815260206004820152602260248201527f45524332303a20617070726f766520746f20746865207a65726f206164647265604482015261737360f01b60648201526084016108a6565b6001600160a01b0383811660008181526001602090815260408083209487168084529482529182902085905590518481527f8c5be1e5ebec7d5bd14f71427d1e84f3dd0314c0f7b2291e5b200ac8c7c3b925910160405180910390a3505050565b6000611c86848461180e565b90506000198114611cee5781811015611ce15760405162461bcd60e51b815260206004820152601d60248201527f45524332303a20696e73756666696369656e7420616c6c6f77616e636500000060448201526064016108a6565b611cee8484848403611b56565b50505050565b6001600160a01b038316611d585760405162461bcd60e51b815260206004820152602560248201527f45524332303a207472616e736665722066726f6d20746865207a65726f206164604482015264647265737360d81b60648201526084016108a6565b6001600160a01b038216611dba5760405162461bcd60e51b815260206004820152602360248201527f45524332303a207472616e7366657220746f20746865207a65726f206164647260448201526265737360e81b60648201526084016108a6565b6001600160a01b03831660009081526020819052604090205481811015611e325760405162461bcd60e51b815260206004820152602660248201527f45524332303a207472616e7366657220616d6f756e7420657863656564732062604482015265616c616e636560d01b60648201526084016108a6565b6001600160a01b03808516600090815260208190526040808220858503905591851681529081208054849290611e6990849061254f565b92505081905550826001600160a01b0316846001600160a01b03167fddf252ad1be2c89b69c2b068fc378daa952ba7f163c4a11628f55a4df523b3ef84604051611eb591815260200190565b60405180910390a3611cee565b6040805160c081018252600080825260208201819052918101829052606081018290526080810182905260a081019190915290565b828054611f0390612504565b90600052602060002090601f016020900481019282611f255760008555611f6b565b82601f10611f3e57805160ff1916838001178555611f6b565b82800160010185558215611f6b579182015b82811115611f6b578251825591602001919060010190611f50565b50611f77929150611f7b565b5090565b5b80821115611f775760008155600101611f7c565b6000815180845260005b81811015611fb657602081850181015186830182015201611f9a565b81811115611fc8576000602083870101525b50601f01601f19169290920160200192915050565b602081526000611ff06020830184611f90565b9392505050565b80356001600160a01b038116811461200e57600080fd5b919050565b6000806040838503121561202657600080fd5b61202f83611ff7565b946020939093013593505050565b60008060006060848603121561205257600080fd5b61205b84611ff7565b925061206960208501611ff7565b9150604084013590509250925092565b60006020828403121561208b57600080fd5b611ff082611ff7565b80511515825260018060a01b03602082015116602083015260006040820151606060408501526120c76060850182611f90565b949350505050565b6000602080830181845280855180835260408601915060408160051b870101925083870160005b8281101561212457603f19888603018452612112858351612094565b945092850192908501906001016120f6565b5092979650505050505050565b8035801515811461200e57600080fd5b6000806040838503121561215457600080fd5b61202f83612131565b80511515825260208082015160ff169083015260408082015190830152606080820151908301526080808201516001600160a01b039081169184019190915260a09182015116910152565b60c08101610611828461215d565b634e487b7160e01b600052604160045260246000fd5b600082601f8301126121dd57600080fd5b813567ffffffffffffffff808211156121f8576121f86121b6565b604051601f8301601f19908116603f01168101908282118183101715612220576122206121b6565b8160405283815286602085880101111561223957600080fd5b836020870160208301376000602085830101528094505050505092915050565b60006020828403121561226b57600080fd5b813567ffffffffffffffff81111561228257600080fd5b6120c7848285016121cc565b6000602082840312156122a057600080fd5b5035919050565b6020808252825182820181905260009190848201906040850190845b818110156122e9576122d683855161215d565b9284019260c092909201916001016122c3565b50909695505050505050565b803560ff8116811461200e57600080fd5b6000806000806000806000806000806101408b8d03121561232657600080fd5b61232f8b6122f5565b995061233d60208c01612131565b985061234b60408c01612131565b975061235960608c01612131565b965061236760808c01612131565b955061237560a08c01612131565b945061238360c08c01612131565b935061239160e08c01612131565b92506123a06101008c01612131565b91506101208b013567ffffffffffffffff8111156123bd57600080fd5b6123c98d828e016121cc565b9150509295989b9194979a5092959850565b6000602082840312156123ed57600080fd5b611ff0826122f5565b6020815261240960208201835115159052565b6000602083015161241e604084018215159052565b5060408301518015156060840152506060830151801515608084015250608083015180151560a08401525060a083015180151560c08401525060c083015180151560e08401525060e083015161010061247a8185018315159052565b8401516101208481015290506120c7610140840182611f90565b600080604083850312156124a757600080fd5b6124b083611ff7565b91506124be60208401611ff7565b90509250929050565b600080604083850312156124da57600080fd5b6124e383611ff7565b91506124be602084016122f5565b602081526000611ff06020830184612094565b600181811c9082168061251857607f821691505b6020821081141561084f57634e487b7160e01b600052602260045260246000fd5b634e487b7160e01b600052601160045260246000fd5b6000821982111561256257612562612539565b500190565b634e487b7160e01b600052603260045260246000fd5b600060001982141561259157612591612539565b5060010190565b6020808252600e908201526d139bdd081e5bdd5c8819dd5a5b1960921b604082015260600190565b60208082526022908201527f596f757220617265206e6f7420617574686f72697a656420746f20646f207468604082015261697360f01b606082015260800190565b60208082526026908201527f596f75722072616e6b20646f6573206e6f7420617574686f72697a6520757067604082015265726164696e6760d01b606082015260800190565b6020808252600e908201526d2737ba103b30b634b2103ab9b2b960911b60408201526060019056fea2646970667358221220589622921d5fef621dea2b850d34139a3ec13cbd1e78d8afe37d5040a7e4bd6664736f6c634300080b0033a26469706673582212207db51cc52ea2e7fed9bd0c930b8e2cd234c7b27057296c62df536fd281d61c3a64736f6c634300080b0033",
  "immutableReferences": {},
  "source": "// SPDX-License-Identifier: MIT\n// Delegation contract\npragma solidity ^0.8.0;\n\nimport \"@openzeppelin/contracts/access/Ownable.sol\";\nimport \"./Items.sol\";\nimport \"./Guild.sol\";\nimport \"./Class.sol\";\nimport \"./Quest.sol\";\nimport \"./Hero.sol\";\n\n//enum Numbers {strong,endurance,concentration,agility,charisma,stealth,exp,level,peuple,classe}\n\ncontract DelegateContract is Ownable {\n  constructor(\n    address _addressHero,\n    address _addressQuest,\n    address _addressClass\n  ) {\n    addressHero = _addressHero;\n    addressQuest = _addressQuest;\n    addressClass = _addressClass;\n    paramsContract[\"nextId\"] = Hero(addressHero).getParamsContract(\"nextId\");\n    paramsContract[\"price\"] = 100000000000000000; //dev:100000000000000000000 == 100 eth\n    paramsContract[\"totalPnt\"] = 5;\n    paramsContract[\"tokenLimit\"] = 10000;\n    paramsContract[\"nonce\"] = 0;\n    paramsContract[\"expForLevelUp\"] = 100;\n  }\n\n  address private addressHero;\n  address private addressQuest;\n  address private addressClass;\n  mapping(string => uint256) public paramsContract;\n  mapping(uint256 => address) private items;\n  mapping(address => Guild) private guilds; //address = creator\n  mapping(uint256 => address) private addressGuilds; //address = creator\n  uint8 private countItems;\n  uint8 private countGuilds;\n\n  ///@notice Create a guild by also deleting its contract\n  ///@param _by user for found addresses of your contract by creator mapping\n  ///@param name name of your created contract\n  ///@param symbol name of your created contract\n  function createGuild(\n    address _by,\n    string memory name,\n    string memory symbol\n  ) external {\n    require(address(guilds[_by]) == address(0), \"You already have guild\");\n    guilds[_by] = new Guild(name, symbol, payable(_msgSender()), owner(), countGuilds);\n    addressGuilds[countGuilds] = _by;\n    countGuilds++;\n  }\n\n  ///@notice Deleted a guild by also deleting its contract\n  ///@dev ATTENTION, the totality of the ether contained above atters to the creator of the contract\n  ///@param _by user for found addresses of your contract by creator mapping\n  function deleteGuild(address _by) external {\n    require(address(guilds[_by]) != address(0), \"Guild not exist\");\n    require(guilds[_by].isOwner(_msgSender()), \"Is not your guild\");\n    guilds[_by].kill();\n    addressGuilds[guilds[_by].getId()] = address(0);\n  }\n\n  ///@notice return one guild by address creator\n  ///@param _by user for found addresses of your contract by creator mapping\n  ///@return addressContract address of the contract guild\n  function getOneGuildAddress(address _by) external view returns (address) {\n    require(address(guilds[_by]) != address(0), \"Guild not exist\");\n    return address(guilds[_by]);\n  }\n\n  ///@notice return all guilds addresses\n  ///@return return an array of address for all guilds created\n  function getAddressesGuilds() external view returns (address[] memory) {\n    address[] memory result = new address[](countGuilds);\n    uint256 resultIndex = 0;\n    uint256 i;\n    for (i = 0; i < countGuilds; i++) {\n      if (addressGuilds[i] != address(0)) {\n        result[resultIndex] = addressGuilds[i];\n        resultIndex++;\n      }\n    }\n    return result;\n  }\n\n  ///@notice Update the destination address of the official contract hero so that the delegation contract can access it\n  ///@param _addressHero address of contract hero\n  function setaddressHero(address _addressHero) external onlyOwner {\n    addressHero = _addressHero;\n  }\n\n  ///@notice Update a parameter of contract\n  ///@param key key index of params contract you want set\n  ///@param value value of params contract you want set\n  function setParamsContract(string memory key, uint256 value) external onlyOwner {\n    paramsContract[key] = value;\n  }\n\n  ///@notice Return a parameter of contract by key index\n  ///@param key key index of param your want to return\n  ///@return param value of parameter contract\n  function getParamsContract(string memory key) external view returns (uint256) {\n    return paramsContract[key];\n  }\n\n  ///@notice Update a parameter of hero contract\n  ///@param key key index of params contract you want set\n  ///@param value value of params contract you want set\n  function setParamsHeroContract(string memory key, uint256 value) internal {\n    Hero contrat = Hero(addressHero);\n    contrat.setParamsContract(key, value);\n  }\n\n  ///@notice Update the destination address of the official contract items so that the delegation contract can access it\n  ///@param item address of contract item\n  ///@param idItem key index of contract item you want to set\n  function setAddressItem(address item, uint256 idItem) external {\n    items[idItem] = item;\n    countItems++;\n  }\n\n  ///@notice return all items addresses\n  ///@return return an array of address for all guilitemsds created\n  function getAddressesItems() external view returns (address[] memory) {\n    address[] memory result = new address[](countItems);\n    uint256 resultIndex = 0;\n    uint256 i;\n    for (i = 0; i < countItems; i++) {\n      result[resultIndex] = items[i];\n      resultIndex++;\n    }\n    return result;\n  }\n\n  ///@notice return item address by key\n  ///@param idItem key index of item you want to retuen\n  ///@return item adress contract item finded\n  function getAddressItem(uint256 idItem) external view returns (address) {\n    return items[idItem];\n  }\n\n  ///@notice return detail of one item\n  ///@param addressItem address of item contract you want to get\n  ///@return item item structure\n  function getItemDetails(address addressItem) external view returns (Items.Item memory) {\n    Items contratItems = Items(addressItem);\n    Items.Item memory itemTemp = contratItems.getItemDetails(_msgSender());\n    return itemTemp;\n  }\n\n  ///@notice balance of item for sender\n  ///@param idItem key index fo item you want to get\n  ///@return balance balance of sender\n  function getBalanceOfItem(uint256 idItem) external view returns (uint256) {\n    Items itemContrat = Items(items[idItem]);\n    return itemContrat.balanceOf(_msgSender());\n  }\n\n  ///@notice purchase of a resource for eth/MATIC\n  ///@param addressItem address of item contract you want to buy\n  ///@param quantity count of item you want purchase\n  function buyItem(address payable addressItem, uint256 quantity) external payable {\n    (bool sent, bytes memory data) = addressItem.call{ value: msg.value }(\n      abi.encodeWithSignature(\"buyItem(uint256,address)\", quantity, _msgSender())\n    );\n    require(sent, \"Failed to send Ether\");\n  }\n\n  ///@notice sell of a resource for eth/MATIC\n  ///@param addressItem address of item contract you want to sell\n  ///@param quantity count of item you want sell\n  function sellItem(address addressItem, uint256 quantity) external {\n    Items itemContrat = Items(addressItem);\n    itemContrat.sellItem(quantity, _msgSender());\n  }\n\n  ///@notice send eth to item contract\n  ///@param addressItem address of item contract you want to interact\n  function depositItem(address addressItem) external payable {\n    (bool sent, bytes memory data) = addressItem.call{ value: msg.value }(\n      abi.encodeWithSignature(\"deposit()\")\n    );\n    require(sent, \"Failed to send Ether\");\n  }\n\n  ///@notice return price of one contract\n  ///@param addressItem address of item contract you want to interact\n  ///@return price price of item\n  function getCurrentPrice(address addressItem) external view returns (uint256) {\n    Items itemContrat = Items(addressItem);\n    return itemContrat.getCurrentPrice();\n  }\n\n  /**\n    appel vers le contrat officiel du jeton\n    Offrir un ou plusieurs token a un utilisateur\n     */\n  // function giveToken(\n  //   address to,\n  //   uint8 generation,\n  //   string memory _tokenUri\n  // ) external onlyOwner {\n  //   require(paramsContract[\"tokenLimit\"] > 0, \"No remaining\");\n  //   bool[] memory booleans = new bool[](20);\n  //   uint8[] memory randomParts = randomParams8(0);\n  //   uint256[] memory randomParams = randomParams256(paramsContract[\"price\"], generation);\n  //   paramsContract[\"nextId\"]++;\n\n  //   Hero contrat = Hero(addressHero);\n  //   contrat.mint(to, booleans, randomParts, randomParams, _tokenUri);\n  // }\n\n  ///@notice mint a hero for a value price and generate stats and parameterr\n  ///@param generation generation of creation hero\n  ///@param peuple peuple with class and stat linked\n  ///@param _tokenUri uri of metadata token hero\n  function mintDelegate(\n    uint8 generation,\n    uint8 peuple,\n    string memory _tokenUri\n  ) external payable {\n    require(msg.value >= paramsContract[\"price\"], \"More ETH required\");\n    require(paramsContract[\"tokenLimit\"] > 0, \"No remaining\");\n    bool[] memory booleans = new bool[](20);\n    uint8[] memory randomParts = randomParams8(peuple);\n    uint256[] memory randomParams = randomParams256(msg.value, generation);\n    paramsContract[\"nextId\"]++;\n\n    Hero contrat = Hero(addressHero);\n    contrat.mint(_msgSender(), booleans, randomParts, randomParams, _tokenUri);\n  }\n\n  ///@notice generate stats for your hero in uint8\n  ///@param peuple peuple of hero generated\n  ///@return randomParams array of stats uint8 for hero\n  function randomParams8(uint8 peuple) internal virtual returns (uint8[] memory) {\n    /*uint256 totalPnt = paramsContract[\"totalPnt\"];\n        if(paramsContract[\"nextId\"]<paramsContract[\"maxFirstGen\"]){totalPnt += 3;}else\n        if(paramsContract[\"nextId\"]<paramsContract[\"maxSecondGen\"]){totalPnt += 2;}else\n        if(paramsContract[\"nextId\"]<paramsContract[\"maxthirdGen\"]){totalPnt += 1;}*/\n\n    uint8[] memory randomParts = new uint8[](20);\n\n    Class classContrat = Class(addressClass);\n    Class.Classes memory tempClass;\n    tempClass = classContrat.getClassDetails(0);\n    for (uint8 index = 0; index < classContrat.getClassCount(); index++) {\n      if (random(100) < classContrat.getClassDetails(index).rarity)\n        tempClass = classContrat.getClassDetails(index);\n    }\n    uint8[] memory stats = tempClass.stats;\n\n    randomParts[0] = stats[0]; //strong\n    randomParts[1] = stats[1]; //endurance\n    randomParts[2] = stats[2]; //concentration\n    randomParts[3] = stats[3]; //agility\n    randomParts[4] = stats[4]; //charisma\n    randomParts[5] = stats[5]; //stealth\n    //randomParts[6] = 0;//exp\n    randomParts[7] = 1; //level\n    randomParts[8] = peuple; //peuple\n    randomParts[9] = tempClass.id; //class\n\n    return randomParts;\n  }\n\n  ///@notice generate parameter for your hero in uint256\n  ///@param price price of buying hero\n  ///@param generation generation fo hero\n  ///@return randomParams array of parameters uint256 for hero\n  function randomParams256(uint256 price, uint8 generation)\n    internal\n    virtual\n    returns (uint256[] memory)\n  {\n    uint256[] memory randomParams = new uint256[](10);\n    randomParams[0] = block.timestamp; //date de cration\n    randomParams[1] = price; //prix d'achat\n    randomParams[2] = block.timestamp; //date de la drnire action (il y a une heure) permettant de participer a des missions\n    //randomParams[3] = 0;//Mission choisis (si 0 aucune current mission)\n    //randomParams[4] = 0;//seconds pour finir la mission\n    //randomParams[5] = 0;//difficult de la qute (dtermine l'exp gagn, et les objets % gagn)\n    randomParams[6] = paramsContract[\"nextId\"]; //tokenId\n    randomParams[7] = generation; //type\n    return randomParams;\n  }\n\n  ///@notice start a quest by id for one hero token\n  ///@param tokenId id of token you want to launch in quest\n  ///@param questId id of quest you want to start\n  function startQuest(uint256 tokenId, uint256 questId) external {\n    Hero contrat = Hero(addressHero);\n    require(contrat.ownerOf(tokenId) == _msgSender(), \"Not your token\");\n    Quest questContrat = Quest(addressQuest);\n    Quest.Quest memory questTemp = questContrat.getQuestDetails(questId);\n    Hero.Token memory tokenTemp = contrat.getTokenDetails(tokenId);\n    require(tokenTemp.params256[4] == 0, \"Quest not finished\");\n    tokenTemp.params256[2] = block.timestamp;\n    tokenTemp.params256[3] = questId;\n    tokenTemp.params256[4] = questTemp.time;\n    contrat.updateToken(tokenTemp, tokenId, _msgSender());\n  }\n\n  ///@notice Validation of the quest at the end of a quest\n  ///@param tokenId id of token you want to complete quest\n  function completeQuest(uint256 tokenId) external {\n    Hero contrat = Hero(addressHero);\n    require(contrat.ownerOf(tokenId) == _msgSender(), \"Not your token\");\n    Hero.Token memory tokenTemp = contrat.getTokenDetails(tokenId);\n\n    Quest questContrat = Quest(addressQuest);\n    Quest.Quest memory questTemp = questContrat.getQuestDetails(tokenTemp.params256[3]);\n    require(\n      block.timestamp - tokenTemp.params256[2] > (questTemp.time),\n      \"Quest not finished\"\n    );\n    uint8 malus = 0;\n    for (uint8 index = 0; index < questTemp.stats.length; index++) {\n      if (questTemp.stats[index] > tokenTemp.params8[index]) {\n        malus += questTemp.stats[index] - tokenTemp.params8[index];\n      }\n    }\n    if (random(100 - malus) > questTemp.percentDifficulty) {\n      tokenTemp.params8[6] += questTemp.exp * questContrat.getMultiplicateurExp();\n\n      for (uint256 index = 0; index < countItems; index++) {\n        Items itemtemp = Items(items[index]);\n        if (random256(100000) > itemtemp.getRarity()) {\n          itemtemp.mint(1, _msgSender());\n        }\n      }\n    }\n    //recuperer les imtes dans la quest !IMPORTANT\n    tokenTemp.params256[2] = block.timestamp;\n    tokenTemp.params256[3] = 0;\n    tokenTemp.params256[4] = 0;\n\n    contrat.updateToken(tokenTemp, tokenId, _msgSender());\n  }\n\n  ///@notice level up hero and increment one stat\n  ///@param statToLvlUp id of stat you wan increment\n  ///@param tokenId id of token you want level up\n  function levelUp(uint8 statToLvlUp, uint256 tokenId) external {\n    Hero contrat = Hero(addressHero);\n    require(contrat.ownerOf(tokenId) == _msgSender(), \"Not your token\");\n    Hero.Token memory tokenTemp = contrat.getTokenDetails(tokenId);\n    require(\n      tokenTemp.params8[6] >\n        (100 + (paramsContract[\"expForLevelUp\"]**tokenTemp.params8[7])),\n      \"experience not enought\"\n    );\n    tokenTemp.params8[statToLvlUp]++;\n    tokenTemp.params8[6] = 0;\n    tokenTemp.params8[7]++;\n\n    contrat.updateToken(tokenTemp, tokenId, _msgSender());\n  }\n\n  /**\n    a finaliser\n     */\n  /*function calculPriceSupply() public{\n        Hero contrat = Hero(addressHero);\n        uint totalSupply = contrat.getParamsContract(\"totalSupply\");\n        //priceInUsd = (item.price/(10**18)) * (latestPrice/10**8)\n    }*/\n\n  /**\n    appel vers le contrat officiel du jeton\n    Modifier les paramtre d'un token et l'envoy au contrat de token pour le mttre a jour\n     */\n  /*function paramsToken(uint256 tokenId,bool[] memory booleans, uint8[] memory params8, uint256[] memory params256) external {\n        \n        Hero contrat = Hero(addressHero);\n        Hero.Token memory tokenTemp =  contrat.getTokenDetails(tokenId);\n        //if(tokenTemp.params256[2] != params256[2]) tokenTemp.params256[0] = block.timestamp;//mettre a jour la date de cration si besoin\n        for (uint8 index = 0; index < booleans.length; index++) {\n            tokenTemp.booleans[index] = booleans[index];\n        }\n        for (uint8 index = 0; index < params8.length; index++) {\n            tokenTemp.params8[index] = params8[index];\n        }\n        for (uint8 index = 0; index < params256.length; index++) {\n            tokenTemp.params256[index] = params256[index];\n        }\n        contrat.updateToken(tokenTemp,tokenId,_msgSender());\n    }*/\n\n  /**\n    appel vers le contrat officiel du jeton\n    Achat d'un token par un utilisateur\n     */\n  /*function purchase(address contactAddr, uint256 tokenId) external payable {\n        Hero contrat = Hero(addressHero);\n        Hero.Token memory token = contrat.getTokenDetails(tokenId);\n        require(msg.value >= token.params256[1], \"Insufficient fonds sent\");\n        require(contrat.getOwnerOf(tokenId) != _msgSender(), \"Already Owned\");\n        //contrat.updateToken(token,tokenId,_msgSender());\n        contrat.transfer(contactAddr, _msgSender(), tokenId);\n    }*/\n\n  /****************************************\n    UTILS\n     ****************************************/\n\n  ///@notice return random number\n  ///@param maxNumber max number random to return\n  ///@return randomNumber random uint256 returned\n  function random(uint8 maxNumber) internal returns (uint8) {\n    return uint8(random256(uint8(maxNumber)));\n  }\n\n  ///@notice return random number\n  ///@param maxNumber max number random to return\n  ///@return randomNumber random uint256 returned\n  function random256(uint256 maxNumber) internal returns (uint256) {\n    uint256 randomNumber = uint256(\n      keccak256(abi.encodePacked(block.timestamp, _msgSender(), paramsContract[\"nonce\"]))\n    ) % maxNumber;\n    paramsContract[\"nonce\"]++;\n    return randomNumber;\n  }\n\n  /*FUNDS OF CONTRACT*/\n\n  function withdraw() external onlyOwner {\n    payable(_msgSender()).transfer(address(this).balance);\n  }\n}\n",
  "sourcePath": "/home/kevin/Bureau/homework/MYOS/contracts/DelegateContract.sol",
  "compiler": {
    "name": "solc",
    "version": "0.8.11+commit.d7f03943.Emscripten.clang"
  },
  "schemaVersion": "3.4.7",
  "updatedAt": "2022-10-31T23:33:50.499Z",
  "devdoc": {
    "kind": "dev",
    "methods": {
      "buyItem(address,uint256)": {
        "params": {
          "addressItem": "address of item contract you want to buy",
          "quantity": "count of item you want purchase"
        }
      },
      "completeQuest(uint256)": {
        "params": {
          "tokenId": "id of token you want to complete quest"
        }
      },
      "createGuild(address,string,string)": {
        "params": {
          "_by": "user for found addresses of your contract by creator mapping",
          "name": "name of your created contract",
          "symbol": "name of your created contract"
        }
      },
      "deleteGuild(address)": {
        "details": "ATTENTION, the totality of the ether contained above atters to the creator of the contract",
        "params": {
          "_by": "user for found addresses of your contract by creator mapping"
        }
      },
      "depositItem(address)": {
        "params": {
          "addressItem": "address of item contract you want to interact"
        }
      },
      "getAddressItem(uint256)": {
        "params": {
          "idItem": "key index of item you want to retuen"
        },
        "returns": {
          "_0": "item adress contract item finded"
        }
      },
      "getAddressesGuilds()": {
        "returns": {
          "_0": "return an array of address for all guilds created"
        }
      },
      "getAddressesItems()": {
        "returns": {
          "_0": "return an array of address for all guilitemsds created"
        }
      },
      "getBalanceOfItem(uint256)": {
        "params": {
          "idItem": "key index fo item you want to get"
        },
        "returns": {
          "_0": "balance balance of sender"
        }
      },
      "getCurrentPrice(address)": {
        "params": {
          "addressItem": "address of item contract you want to interact"
        },
        "returns": {
          "_0": "price price of item"
        }
      },
      "getItemDetails(address)": {
        "params": {
          "addressItem": "address of item contract you want to get"
        },
        "returns": {
          "_0": "item item structure"
        }
      },
      "getOneGuildAddress(address)": {
        "params": {
          "_by": "user for found addresses of your contract by creator mapping"
        },
        "returns": {
          "_0": "addressContract address of the contract guild"
        }
      },
      "getParamsContract(string)": {
        "params": {
          "key": "key index of param your want to return"
        },
        "returns": {
          "_0": "param value of parameter contract"
        }
      },
      "levelUp(uint8,uint256)": {
        "params": {
          "statToLvlUp": "id of stat you wan increment",
          "tokenId": "id of token you want level up"
        }
      },
      "mintDelegate(uint8,uint8,string)": {
        "params": {
          "_tokenUri": "uri of metadata token hero",
          "generation": "generation of creation hero",
          "peuple": "peuple with class and stat linked"
        }
      },
      "owner()": {
        "details": "Returns the address of the current owner."
      },
      "renounceOwnership()": {
        "details": "Leaves the contract without owner. It will not be possible to call `onlyOwner` functions anymore. Can only be called by the current owner. NOTE: Renouncing ownership will leave the contract without an owner, thereby removing any functionality that is only available to the owner."
      },
      "sellItem(address,uint256)": {
        "params": {
          "addressItem": "address of item contract you want to sell",
          "quantity": "count of item you want sell"
        }
      },
      "setAddressItem(address,uint256)": {
        "params": {
          "idItem": "key index of contract item you want to set",
          "item": "address of contract item"
        }
      },
      "setParamsContract(string,uint256)": {
        "params": {
          "key": "key index of params contract you want set",
          "value": "value of params contract you want set"
        }
      },
      "setaddressHero(address)": {
        "params": {
          "_addressHero": "address of contract hero"
        }
      },
      "startQuest(uint256,uint256)": {
        "params": {
          "questId": "id of quest you want to start",
          "tokenId": "id of token you want to launch in quest"
        }
      },
      "transferOwnership(address)": {
        "details": "Transfers ownership of the contract to a new account (`newOwner`). Can only be called by the current owner."
      }
    },
    "version": 1
  },
  "userdoc": {
    "kind": "user",
    "methods": {
      "buyItem(address,uint256)": {
        "notice": "purchase of a resource for eth/MATIC"
      },
      "completeQuest(uint256)": {
        "notice": "Validation of the quest at the end of a quest"
      },
      "createGuild(address,string,string)": {
        "notice": "Create a guild by also deleting its contract"
      },
      "deleteGuild(address)": {
        "notice": "Deleted a guild by also deleting its contract"
      },
      "depositItem(address)": {
        "notice": "send eth to item contract"
      },
      "getAddressItem(uint256)": {
        "notice": "return item address by key"
      },
      "getAddressesGuilds()": {
        "notice": "return all guilds addresses"
      },
      "getAddressesItems()": {
        "notice": "return all items addresses"
      },
      "getBalanceOfItem(uint256)": {
        "notice": "balance of item for sender"
      },
      "getCurrentPrice(address)": {
        "notice": "return price of one contract"
      },
      "getItemDetails(address)": {
        "notice": "return detail of one item"
      },
      "getOneGuildAddress(address)": {
        "notice": "return one guild by address creator"
      },
      "getParamsContract(string)": {
        "notice": "Return a parameter of contract by key index"
      },
      "levelUp(uint8,uint256)": {
        "notice": "level up hero and increment one stat"
      },
      "mintDelegate(uint8,uint8,string)": {
        "notice": "mint a hero for a value price and generate stats and parameterr"
      },
      "sellItem(address,uint256)": {
        "notice": "sell of a resource for eth/MATIC"
      },
      "setAddressItem(address,uint256)": {
        "notice": "Update the destination address of the official contract items so that the delegation contract can access it"
      },
      "setParamsContract(string,uint256)": {
        "notice": "Update a parameter of contract"
      },
      "setaddressHero(address)": {
        "notice": "Update the destination address of the official contract hero so that the delegation contract can access it"
      },
      "startQuest(uint256,uint256)": {
        "notice": "start a quest by id for one hero token"
      }
    },
    "version": 1
  }
}