{
  "contractName": "DelegateContractMYOS",
  "abi": [
    {
      "anonymous": false,
      "inputs": [
        {
          "indexed": true,
          "internalType": "address",
          "name": "previousOwner",
          "type": "address"
        },
        {
          "indexed": true,
          "internalType": "address",
          "name": "newOwner",
          "type": "address"
        }
      ],
      "name": "OwnershipTransferred",
      "type": "event"
    },
    {
      "inputs": [],
      "name": "owner",
      "outputs": [
        {
          "internalType": "address",
          "name": "",
          "type": "address"
        }
      ],
      "stateMutability": "view",
      "type": "function"
    },
    {
      "inputs": [],
      "name": "renounceOwnership",
      "outputs": [],
      "stateMutability": "nonpayable",
      "type": "function"
    },
    {
      "inputs": [
        {
          "internalType": "address",
          "name": "newOwner",
          "type": "address"
        }
      ],
      "name": "transferOwnership",
      "outputs": [],
      "stateMutability": "nonpayable",
      "type": "function"
    },
    {
      "inputs": [
        {
          "internalType": "uint256",
          "name": "newPrice",
          "type": "uint256"
        }
      ],
      "name": "setCurrentPriceMYOS",
      "outputs": [],
      "stateMutability": "nonpayable",
      "type": "function"
    },
    {
      "inputs": [
        {
          "internalType": "address",
          "name": "_addressMYOSToken",
          "type": "address"
        }
      ],
      "name": "setAddressMYOSToken",
      "outputs": [],
      "stateMutability": "nonpayable",
      "type": "function"
    },
    {
      "inputs": [
        {
          "internalType": "bytes32",
          "name": "_merkleRoot",
          "type": "bytes32"
        },
        {
          "internalType": "uint256",
          "name": "_merkleEndTime",
          "type": "uint256"
        }
      ],
      "name": "setMerkleTree",
      "outputs": [],
      "stateMutability": "nonpayable",
      "type": "function"
    },
    {
      "inputs": [
        {
          "internalType": "uint256",
          "name": "quantity",
          "type": "uint256"
        },
        {
          "internalType": "address",
          "name": "receiver",
          "type": "address"
        },
        {
          "internalType": "bytes32[]",
          "name": "_proofs",
          "type": "bytes32[]"
        },
        {
          "internalType": "uint256",
          "name": "_proofMaxQuantityPerTransaction",
          "type": "uint256"
        }
      ],
      "name": "buyMYOS",
      "outputs": [],
      "stateMutability": "payable",
      "type": "function"
    },
    {
      "inputs": [
        {
          "internalType": "uint256",
          "name": "quantity",
          "type": "uint256"
        }
      ],
      "name": "sellMYOS",
      "outputs": [],
      "stateMutability": "nonpayable",
      "type": "function"
    },
    {
      "inputs": [
        {
          "internalType": "uint256",
          "name": "quantity",
          "type": "uint256"
        },
        {
          "internalType": "address",
          "name": "anotherToken",
          "type": "address"
        }
      ],
      "name": "convertMYOSToAnotherToken",
      "outputs": [],
      "stateMutability": "nonpayable",
      "type": "function"
    },
    {
      "inputs": [],
      "name": "getDynamicPriceMYOS",
      "outputs": [
        {
          "internalType": "uint256",
          "name": "",
          "type": "uint256"
        }
      ],
      "stateMutability": "view",
      "type": "function"
    }
  ],
  "bytecode": "0x608060405234801561001057600080fd5b5061001a3361001f565b61006f565b600080546001600160a01b038381166001600160a01b0319831681178455604051919092169283917f8be0079c531659141344cd1fd0a4f28419497f9722a3daafe3b4186f6b6457e09190a35050565b610ddd8061007e6000396000f3fe6080604052600436106100915760003560e01c8063adcb719b11610059578063adcb719b1461012c578063ae3c14a31461014c578063bbe7f1771461016f578063f2fde38b1461018f578063fa4f8ab8146101af57600080fd5b80636e1edceb14610096578063715018a6146100ab5780638d8ac43d146100c05780638da5cb5b146100e0578063a36d3e6b1461010d575b600080fd5b6100a96100a4366004610abe565b6101cf565b005b3480156100b757600080fd5b506100a961038c565b3480156100cc57600080fd5b506100a96100db366004610b50565b6103a0565b3480156100ec57600080fd5b506000546040516001600160a01b0390911681526020015b60405180910390f35b34801561011957600080fd5b506100a9610128366004610b69565b5050565b34801561013857600080fd5b506100a9610147366004610b95565b6103ad565b34801561015857600080fd5b506101616103c0565b604051908152602001610104565b34801561017b57600080fd5b506100a961018a366004610bb7565b61043d565b34801561019b57600080fd5b506100a96101aa366004610bb7565b610467565b3480156101bb57600080fd5b506100a96101ca366004610b50565b6104e0565b6101db33848484610875565b50506002541561023b57846002546101f39190610bef565b34101561023b5760405162461bcd60e51b8152602060048201526011602482015270135bdc9948115512081c995c5d5a5c9959607a1b60448201526064015b60405180910390fd5b600254610298578461024b6103c0565b6102559190610bef565b3410156102985760405162461bcd60e51b8152602060048201526011602482015270135bdc9948115512081c995c5d5a5c9959607a1b6044820152606401610232565b6001546040805163313ce56760e01b815290516001600160a01b03909216916340c10f19918791849163313ce5679160048083019260209291908290030181865afa1580156102eb573d6000803e3d6000fd5b505050506040513d601f19601f8201168201806040525081019061030f9190610c0e565b61031d9060ff16600a610d17565b6103279089610bef565b6040516001600160e01b031960e085901b1681526001600160a01b0390921660048301526024820152604401600060405180830381600087803b15801561036d57600080fd5b505af1158015610381573d6000803e3d6000fd5b505050505050505050565b61039461092a565b61039e6000610984565b565b6103a861092a565b600255565b6103b561092a565b600491909155600355565b600154604080516318160ddd60e01b815290516000926001600160a01b0316916318160ddd9160048083019260209291908290030181865afa15801561040a573d6000803e3d6000fd5b505050506040513d601f19601f8201168201806040525081019061042e9190610d23565b6104389047610d3c565b905090565b61044561092a565b600180546001600160a01b0319166001600160a01b0392909216919091179055565b61046f61092a565b6001600160a01b0381166104d45760405162461bcd60e51b815260206004820152602660248201527f4f776e61626c653a206e6577206f776e657220697320746865207a65726f206160448201526564647265737360d01b6064820152608401610232565b6104dd81610984565b50565b6104eb816001610d5e565b600160009054906101000a90046001600160a01b03166001600160a01b03166318160ddd6040518163ffffffff1660e01b8152600401602060405180830381865afa15801561053e573d6000803e3d6000fd5b505050506040513d601f19601f820116820180604052508101906105629190610d23565b116105a45760405162461bcd60e51b815260206004820152601260248201527127379036b7b932903a3434b9903a37b5b2b760711b6044820152606401610232565b600160009054906101000a90046001600160a01b03166001600160a01b031663313ce5676040518163ffffffff1660e01b8152600401602060405180830381865afa1580156105f7573d6000803e3d6000fd5b505050506040513d601f19601f8201168201806040525081019061061b9190610c0e565b6106299060ff16600a610d17565b6106339082610bef565b6001546001600160a01b03166370a08231336040516001600160e01b031960e084901b1681526001600160a01b039091166004820152602401602060405180830381865afa158015610689573d6000803e3d6000fd5b505050506040513d601f19601f820116820180604052508101906106ad9190610d23565b10156106f05760405162461bcd60e51b815260206004820152601260248201527127379036b7b932903a3434b9903a37b5b2b760711b6044820152606401610232565b6002541561073d57336001600160a01b03166108fc826002546107139190610bef565b6040518115909202916000818181858888f1935050505015801561073b573d6000803e3d6000fd5b505b60025461078557336108fc826107516103c0565b61075b9190610bef565b6040518115909202916000818181858888f19350505050158015610783573d6000803e3d6000fd5b505b6001546040805163313ce56760e01b815290516001600160a01b0390921691639dc29fac913391849163313ce5679160048083019260209291908290030181865afa1580156107d8573d6000803e3d6000fd5b505050506040513d601f19601f820116820180604052508101906107fc9190610c0e565b61080a9060ff16600a610d17565b6108149085610bef565b6040516001600160e01b031960e085901b1681526001600160a01b0390921660048301526024820152604401600060405180830381600087803b15801561085a57600080fd5b505af115801561086e573d6000803e3d6000fd5b5050505050565b60045460009081901580159061088c575042600354105b8015610899575060035415155b156109215761091b858580806020026020016040519081016040528093929190818152602001838360200280828437600092019190915250506004546040516bffffffffffffffffffffffff1960608d901b166020820152603481018990529092506054019050604051602081830303815290604052805190602001206109d4565b90925090505b94509492505050565b6000546001600160a01b0316331461039e5760405162461bcd60e51b815260206004820181905260248201527f4f776e61626c653a2063616c6c6572206973206e6f7420746865206f776e65726044820152606401610232565b600080546001600160a01b038381166001600160a01b0319831681178455604051919092169283917f8be0079c531659141344cd1fd0a4f28419497f9722a3daafe3b4186f6b6457e09190a35050565b6000808281805b8751811015610a96576109ef600283610bef565b91506000888281518110610a0557610a05610d76565b60200260200101519050808411610a47576040805160208101869052908101829052606001604051602081830303815290604052805190602001209350610a83565b6040805160208101839052908101859052606001604051602081830303815290604052805190602001209350600183610a809190610d5e565b92505b5080610a8e81610d8c565b9150506109db565b50941495939450505050565b80356001600160a01b0381168114610ab957600080fd5b919050565b600080600080600060808688031215610ad657600080fd5b85359450610ae660208701610aa2565b9350604086013567ffffffffffffffff80821115610b0357600080fd5b818801915088601f830112610b1757600080fd5b813581811115610b2657600080fd5b8960208260051b8501011115610b3b57600080fd5b96999598505060200195606001359392505050565b600060208284031215610b6257600080fd5b5035919050565b60008060408385031215610b7c57600080fd5b82359150610b8c60208401610aa2565b90509250929050565b60008060408385031215610ba857600080fd5b50508035926020909101359150565b600060208284031215610bc957600080fd5b610bd282610aa2565b9392505050565b634e487b7160e01b600052601160045260246000fd5b6000816000190483118215151615610c0957610c09610bd9565b500290565b600060208284031215610c2057600080fd5b815160ff81168114610bd257600080fd5b600181815b80851115610c6c578160001904821115610c5257610c52610bd9565b80851615610c5f57918102915b93841c9390800290610c36565b509250929050565b600082610c8357506001610d11565b81610c9057506000610d11565b8160018114610ca65760028114610cb057610ccc565b6001915050610d11565b60ff841115610cc157610cc1610bd9565b50506001821b610d11565b5060208310610133831016604e8410600b8410161715610cef575081810a610d11565b610cf98383610c31565b8060001904821115610d0d57610d0d610bd9565b0290505b92915050565b6000610bd28383610c74565b600060208284031215610d3557600080fd5b5051919050565b600082610d5957634e487b7160e01b600052601260045260246000fd5b500490565b60008219821115610d7157610d71610bd9565b500190565b634e487b7160e01b600052603260045260246000fd5b6000600019821415610da057610da0610bd9565b506001019056fea2646970667358221220ceb0cf790c010d2e82b0b536bf332d665ac910467af17911ef36660fddcb221364736f6c634300080b0033",
  "immutableReferences": {},
  "source": "// SPDX-License-Identifier: MIT\r\n// Delegation contract\r\npragma solidity ^0.8.0;\r\n\r\nimport \"@openzeppelin/contracts/access/Ownable.sol\";\r\nimport \"./library/MerkleProof.sol\";\r\nimport \"./MYOS.sol\";\r\n\r\nimport \"./interfaces/IDelegateContractMyos.sol\";\r\n\r\ncontract DelegateContractMYOS is Ownable, IDelegateContractMyos {\r\n  address addressMYOSToken;\r\n  uint256 currentpriceMYOS;\r\n  uint256 merkleEndTime;\r\n  bytes32 merkleRoot;\r\n\r\n  ///@notice Update price of MYOS token for static price, if == 0 change for dynamic price\r\n  ///@param newPrice value of price in matic wei (matic / 10**18)\r\n  function setCurrentPriceMYOS(uint256 newPrice) external onlyOwner {\r\n    currentpriceMYOS = newPrice;\r\n  }\r\n\r\n  ///@notice Update the destination address of the official contract MYOS token so that the delegation contract can access it\r\n  ///@param _addressMYOSToken address of contract MYOS\r\n  function setAddressMYOSToken(address _addressMYOSToken) external onlyOwner {\r\n    addressMYOSToken = _addressMYOSToken;\r\n  }\r\n\r\n  ///@notice Set the merkle tree to create whitelist for mint\r\n  ///@param _merkleRoot A bytes 32 represent root of tree for verify all merkle proof\r\n  ///@param _merkleEndTime Represent a timestamp (in seconds) represents end of whitelist\r\n  function setMerkleTree(bytes32 _merkleRoot, uint256 _merkleEndTime) external onlyOwner {\r\n    merkleRoot = _merkleRoot;\r\n    merkleEndTime = _merkleEndTime;\r\n  }\r\n\r\n  ///@notice Purchase of a resource for eth/MATIC\r\n  ///@param quantity number of token myos you want purchase\r\n  ///@param receiver address waller of receiver's token\r\n  function buyMYOS(\r\n    uint256 quantity,\r\n    address receiver,\r\n    bytes32[] calldata _proofs,\r\n    uint256 _proofMaxQuantityPerTransaction\r\n  ) external payable {\r\n    verifyMerkleProof(_msgSender(), _proofs, _proofMaxQuantityPerTransaction);\r\n    if (currentpriceMYOS != 0)\r\n      require(msg.value >= (currentpriceMYOS * quantity), \"More ETH required\");\r\n    if (currentpriceMYOS == 0)\r\n      require(msg.value >= (getDynamicPriceMYOS() * quantity), \"More ETH required\");\r\n    // (bool sent, ) = addressMYOSToken.call{ value: msg.value }(\"\");\r\n    // require(sent == true, \"Send of eth not sent\");\r\n    MYOS(addressMYOSToken).mint(\r\n      receiver,\r\n      quantity * (10 ** uint256(MYOS(addressMYOSToken).decimals()))\r\n    );\r\n  }\r\n\r\n  ///@notice Sale of MYOS token against MATIC\r\n  ///@param quantity number of token myos you want sell\r\n  function sellMYOS(uint256 quantity) external {\r\n    require(MYOS(addressMYOSToken).totalSupply() > quantity + 1, \"No more this token\");\r\n    require(\r\n      MYOS(addressMYOSToken).balanceOf(_msgSender()) >=\r\n        quantity * (10 ** uint256(MYOS(addressMYOSToken).decimals())),\r\n      \"No more this token\"\r\n    );\r\n    if (currentpriceMYOS != 0)\r\n      payable(_msgSender()).transfer(currentpriceMYOS * quantity);\r\n    if (currentpriceMYOS == 0)\r\n      payable(_msgSender()).transfer(getDynamicPriceMYOS() * quantity);\r\n    MYOS(addressMYOSToken).burn(\r\n      _msgSender(),\r\n      quantity * (10 ** uint256(MYOS(addressMYOSToken).decimals()))\r\n    );\r\n  }\r\n\r\n  ///@notice Converting the MYOS to another token\r\n  ///@param quantity number of token myos you want convert\r\n  ///@param anotherToken address of token you want to convert\r\n  function convertMYOSToAnotherToken(uint256 quantity, address anotherToken) external {\r\n    /*require(totalSupply()>quantity+1,\"No more this token\");\r\n        require(balanceOf(_msgSender())>=quantity,\"No more this token\");\r\n        _burn(_msgSender(),quantity);\r\n        currentprice = getDynamicPriceMYOS();*/\r\n  }\r\n\r\n  ///@notice Verify proof of a claimer to mint in a whitelist\r\n  ///@param _claimer _msgSender() address wallet of user he want mint token MYOS\r\n  ///@param _proofs array of bytes 32 represent proof of merkle with merkle tree\r\n  ///@param _proofMaxQuantityPerTransaction useless for us but need it, its for add quantity into merkle tree\r\n  function verifyMerkleProof(\r\n    address _claimer,\r\n    bytes32[] calldata _proofs,\r\n    uint256 _proofMaxQuantityPerTransaction\r\n  ) internal view returns (bool validMerkleProof, uint256 merkleProofIndex) {\r\n    if (\r\n      merkleRoot != bytes32(0) && merkleEndTime < block.timestamp && merkleEndTime != 0\r\n    ) {\r\n      (validMerkleProof, merkleProofIndex) = MerkleProofLib.verify(\r\n        _proofs,\r\n        merkleRoot,\r\n        keccak256(abi.encodePacked(_claimer, _proofMaxQuantityPerTransaction))\r\n      );\r\n    }\r\n  }\r\n\r\n  ///@notice Function to calculate dynamic price\r\n  function getDynamicPriceMYOS() public view returns (uint256) {\r\n    return address(this).balance / MYOS(addressMYOSToken).totalSupply();\r\n  }\r\n}\r\n",
  "sourcePath": "C:\\Users\\Kevin\\Desktop\\WorkHome\\--Solidity--MYOS\\contracts\\DelegateContractMYOS.sol",
  "compiler": {
    "name": "solc",
    "version": "0.8.11+commit.d7f03943.Emscripten.clang"
  },
  "schemaVersion": "3.4.6",
  "updatedAt": "2022-11-05T21:30:30.855Z",
  "devdoc": {
    "kind": "dev",
    "methods": {
      "buyMYOS(uint256,address,bytes32[],uint256)": {
        "params": {
          "quantity": "number of token myos you want purchase",
          "receiver": "address waller of receiver's token"
        }
      },
      "convertMYOSToAnotherToken(uint256,address)": {
        "params": {
          "anotherToken": "address of token you want to convert",
          "quantity": "number of token myos you want convert"
        }
      },
      "owner()": {
        "details": "Returns the address of the current owner."
      },
      "renounceOwnership()": {
        "details": "Leaves the contract without owner. It will not be possible to call `onlyOwner` functions anymore. Can only be called by the current owner. NOTE: Renouncing ownership will leave the contract without an owner, thereby removing any functionality that is only available to the owner."
      },
      "sellMYOS(uint256)": {
        "params": {
          "quantity": "number of token myos you want sell"
        }
      },
      "setAddressMYOSToken(address)": {
        "params": {
          "_addressMYOSToken": "address of contract MYOS"
        }
      },
      "setCurrentPriceMYOS(uint256)": {
        "params": {
          "newPrice": "value of price in matic wei (matic / 10**18)"
        }
      },
      "setMerkleTree(bytes32,uint256)": {
        "params": {
          "_merkleEndTime": "Represent a timestamp (in seconds) represents end of whitelist",
          "_merkleRoot": "A bytes 32 represent root of tree for verify all merkle proof"
        }
      },
      "transferOwnership(address)": {
        "details": "Transfers ownership of the contract to a new account (`newOwner`). Can only be called by the current owner."
      }
    },
    "version": 1
  },
  "userdoc": {
    "kind": "user",
    "methods": {
      "buyMYOS(uint256,address,bytes32[],uint256)": {
        "notice": "Purchase of a resource for eth/MATIC"
      },
      "convertMYOSToAnotherToken(uint256,address)": {
        "notice": "Converting the MYOS to another token"
      },
      "getDynamicPriceMYOS()": {
        "notice": "Function to calculate dynamic price"
      },
      "sellMYOS(uint256)": {
        "notice": "Sale of MYOS token against MATIC"
      },
      "setAddressMYOSToken(address)": {
        "notice": "Update the destination address of the official contract MYOS token so that the delegation contract can access it"
      },
      "setCurrentPriceMYOS(uint256)": {
        "notice": "Update price of MYOS token for static price, if == 0 change for dynamic price"
      },
      "setMerkleTree(bytes32,uint256)": {
        "notice": "Set the merkle tree to create whitelist for mint"
      }
    },
    "version": 1
  }
}