{
  "contractName": "DelegateContractMYOS",
  "abi": [
    {
      "anonymous": false,
      "inputs": [
        {
          "indexed": true,
          "internalType": "address",
          "name": "previousOwner",
          "type": "address"
        },
        {
          "indexed": true,
          "internalType": "address",
          "name": "newOwner",
          "type": "address"
        }
      ],
      "name": "OwnershipTransferred",
      "type": "event"
    },
    {
      "inputs": [],
      "name": "owner",
      "outputs": [
        {
          "internalType": "address",
          "name": "",
          "type": "address"
        }
      ],
      "stateMutability": "view",
      "type": "function"
    },
    {
      "inputs": [],
      "name": "renounceOwnership",
      "outputs": [],
      "stateMutability": "nonpayable",
      "type": "function"
    },
    {
      "inputs": [
        {
          "internalType": "address",
          "name": "newOwner",
          "type": "address"
        }
      ],
      "name": "transferOwnership",
      "outputs": [],
      "stateMutability": "nonpayable",
      "type": "function"
    },
    {
      "inputs": [
        {
          "internalType": "uint256",
          "name": "newPrice",
          "type": "uint256"
        }
      ],
      "name": "setCurrentPriceMYOS",
      "outputs": [],
      "stateMutability": "nonpayable",
      "type": "function"
    },
    {
      "inputs": [
        {
          "internalType": "address",
          "name": "_addressMYOSToken",
          "type": "address"
        }
      ],
      "name": "setAddressMYOSToken",
      "outputs": [],
      "stateMutability": "nonpayable",
      "type": "function"
    },
    {
      "inputs": [
        {
          "internalType": "bytes32",
          "name": "_merkleRoot",
          "type": "bytes32"
        },
        {
          "internalType": "uint256",
          "name": "_merkleEndTime",
          "type": "uint256"
        }
      ],
      "name": "setMerkleTree",
      "outputs": [],
      "stateMutability": "nonpayable",
      "type": "function"
    },
    {
      "inputs": [
        {
          "internalType": "uint256",
          "name": "quantity",
          "type": "uint256"
        },
        {
          "internalType": "address",
          "name": "receiver",
          "type": "address"
        },
        {
          "internalType": "bytes32[]",
          "name": "_proofs",
          "type": "bytes32[]"
        },
        {
          "internalType": "uint256",
          "name": "_proofMaxQuantityPerTransaction",
          "type": "uint256"
        }
      ],
      "name": "buyMYOS",
      "outputs": [],
      "stateMutability": "payable",
      "type": "function"
    },
    {
      "inputs": [
        {
          "internalType": "uint256",
          "name": "quantity",
          "type": "uint256"
        }
      ],
      "name": "sellMYOS",
      "outputs": [],
      "stateMutability": "nonpayable",
      "type": "function"
    },
    {
      "inputs": [
        {
          "internalType": "uint256",
          "name": "quantity",
          "type": "uint256"
        },
        {
          "internalType": "address",
          "name": "anotherToken",
          "type": "address"
        }
      ],
      "name": "convertMYOSToAnotherToken",
      "outputs": [],
      "stateMutability": "nonpayable",
      "type": "function"
    },
    {
      "inputs": [
        {
          "internalType": "address",
          "name": "_claimer",
          "type": "address"
        },
        {
          "internalType": "bytes32[]",
          "name": "_proofs",
          "type": "bytes32[]"
        },
        {
          "internalType": "uint256",
          "name": "_proofMaxQuantityPerTransaction",
          "type": "uint256"
        }
      ],
      "name": "verifyMerkleProof",
      "outputs": [
        {
          "internalType": "bool",
          "name": "validMerkleProof",
          "type": "bool"
        },
        {
          "internalType": "uint256",
          "name": "merkleProofIndex",
          "type": "uint256"
        }
      ],
      "stateMutability": "view",
      "type": "function"
    },
    {
      "inputs": [],
      "name": "getDynamicPriceMYOS",
      "outputs": [
        {
          "internalType": "uint256",
          "name": "",
          "type": "uint256"
        }
      ],
      "stateMutability": "view",
      "type": "function"
    }
  ],
  "bytecode": "0x608060405234801561001057600080fd5b5061002d61002261003260201b60201c565b61003a60201b60201c565b6100fe565b600033905090565b60008060009054906101000a900473ffffffffffffffffffffffffffffffffffffffff169050816000806101000a81548173ffffffffffffffffffffffffffffffffffffffff021916908373ffffffffffffffffffffffffffffffffffffffff1602179055508173ffffffffffffffffffffffffffffffffffffffff168173ffffffffffffffffffffffffffffffffffffffff167f8be0079c531659141344cd1fd0a4f28419497f9722a3daafe3b4186f6b6457e060405160405180910390a35050565b611b3b8061010d6000396000f3fe60806040526004361061009c5760003560e01c8063a36d3e6b11610064578063a36d3e6b14610166578063adcb719b1461018f578063ae3c14a3146101b8578063bbe7f177146101e3578063f2fde38b1461020c578063fa4f8ab8146102355761009c565b806353b6aecf146100a15780636e1edceb146100df578063715018a6146100fb5780638d8ac43d146101125780638da5cb5b1461013b575b600080fd5b3480156100ad57600080fd5b506100c860048036038101906100c391906111dd565b61025e565b6040516100d692919061161f565b60405180910390f35b6100f960048036038101906100f49190611313565b610314565b005b34801561010757600080fd5b506101106105bf565b005b34801561011e57600080fd5b5061013960048036038101906101349190611285565b610647565b005b34801561014757600080fd5b506101506106cd565b60405161015d91906115db565b60405180910390f35b34801561017257600080fd5b5061018d600480360381019061018891906112d7565b6106f6565b005b34801561019b57600080fd5b506101b660048036038101906101b19190611249565b6106fa565b005b3480156101c457600080fd5b506101cd610788565b6040516101da91906116c8565b60405180910390f35b3480156101ef57600080fd5b5061020a600480360381019061020591906111b4565b6108d9565b005b34801561021857600080fd5b50610233600480360381019061022e91906111b4565b610999565b005b34801561024157600080fd5b5061025c60048036038101906102579190611285565b610a91565b005b6000806000801b60045414158015610277575042600354105b80156102865750600060035414155b1561030b57600080610304878780806020026020016040519081016040528093929190818152602001838360200280828437600081840152601f19601f820116905080830192505050505050506004548a886040516020016102e992919061156e565b60405160208183030381529060405280519060200120610f33565b9150915050505b94509492505050565b6103203384848461025e565b505060006002541461037d578460025461033a91906118f7565b34101561037c576040517f08c379a0000000000000000000000000000000000000000000000000000000008152600401610373906116a8565b60405180910390fd5b5b600060025414156103de5784610391610788565b61039b91906118f7565b3410156103dd576040517f08c379a00000000000000000000000000000000000000000000000000000000081526004016103d4906116a8565b60405180910390fd5b5b600080600160009054906101000a900473ffffffffffffffffffffffffffffffffffffffff1673ffffffffffffffffffffffffffffffffffffffff1634604051610427906115c6565b60006040518083038185875af1925050503d8060008114610464576040519150601f19603f3d011682016040523d82523d6000602084013e610469565b606091505b5091509150600160009054906101000a900473ffffffffffffffffffffffffffffffffffffffff1673ffffffffffffffffffffffffffffffffffffffff166340c10f1987600160009054906101000a900473ffffffffffffffffffffffffffffffffffffffff1673ffffffffffffffffffffffffffffffffffffffff1663313ce5676040518163ffffffff1660e01b815260040160206040518083038186803b15801561051557600080fd5b505afa158015610529573d6000803e3d6000fd5b505050506040513d601f19601f8201168201806040525081019061054d9190611393565b60ff16600a61055c91906117d9565b8a61056791906118f7565b6040518363ffffffff1660e01b81526004016105849291906115f6565b600060405180830381600087803b15801561059e57600080fd5b505af11580156105b2573d6000803e3d6000fd5b5050505050505050505050565b6105c7611035565b73ffffffffffffffffffffffffffffffffffffffff166105e56106cd565b73ffffffffffffffffffffffffffffffffffffffff161461063b576040517f08c379a000000000000000000000000000000000000000000000000000000000815260040161063290611668565b60405180910390fd5b610645600061103d565b565b61064f611035565b73ffffffffffffffffffffffffffffffffffffffff1661066d6106cd565b73ffffffffffffffffffffffffffffffffffffffff16146106c3576040517f08c379a00000000000000000000000000000000000000000000000000000000081526004016106ba90611668565b60405180910390fd5b8060028190555050565b60008060009054906101000a900473ffffffffffffffffffffffffffffffffffffffff16905090565b5050565b610702611035565b73ffffffffffffffffffffffffffffffffffffffff166107206106cd565b73ffffffffffffffffffffffffffffffffffffffff1614610776576040517f08c379a000000000000000000000000000000000000000000000000000000000815260040161076d90611668565b60405180910390fd5b81600481905550806003819055505050565b6000600160009054906101000a900473ffffffffffffffffffffffffffffffffffffffff1673ffffffffffffffffffffffffffffffffffffffff166318160ddd6040518163ffffffff1660e01b815260040160206040518083038186803b1580156107f257600080fd5b505afa158015610806573d6000803e3d6000fd5b505050506040513d601f19601f8201168201806040525081019061082a91906112ae565b600160009054906101000a900473ffffffffffffffffffffffffffffffffffffffff1673ffffffffffffffffffffffffffffffffffffffff166366bd78fd6040518163ffffffff1660e01b815260040160206040518083038186803b15801561089257600080fd5b505afa1580156108a6573d6000803e3d6000fd5b505050506040513d601f19601f820116820180604052508101906108ca91906112ae565b6108d49190611755565b905090565b6108e1611035565b73ffffffffffffffffffffffffffffffffffffffff166108ff6106cd565b73ffffffffffffffffffffffffffffffffffffffff1614610955576040517f08c379a000000000000000000000000000000000000000000000000000000000815260040161094c90611668565b60405180910390fd5b80600160006101000a81548173ffffffffffffffffffffffffffffffffffffffff021916908373ffffffffffffffffffffffffffffffffffffffff16021790555050565b6109a1611035565b73ffffffffffffffffffffffffffffffffffffffff166109bf6106cd565b73ffffffffffffffffffffffffffffffffffffffff1614610a15576040517f08c379a0000000000000000000000000000000000000000000000000000000008152600401610a0c90611668565b60405180910390fd5b600073ffffffffffffffffffffffffffffffffffffffff168173ffffffffffffffffffffffffffffffffffffffff161415610a85576040517f08c379a0000000000000000000000000000000000000000000000000000000008152600401610a7c90611648565b60405180910390fd5b610a8e8161103d565b50565b600181610a9e91906116ff565b600160009054906101000a900473ffffffffffffffffffffffffffffffffffffffff1673ffffffffffffffffffffffffffffffffffffffff166318160ddd6040518163ffffffff1660e01b815260040160206040518083038186803b158015610b0657600080fd5b505afa158015610b1a573d6000803e3d6000fd5b505050506040513d601f19601f82011682018060405250810190610b3e91906112ae565b11610b7e576040517f08c379a0000000000000000000000000000000000000000000000000000000008152600401610b7590611688565b60405180910390fd5b600160009054906101000a900473ffffffffffffffffffffffffffffffffffffffff1673ffffffffffffffffffffffffffffffffffffffff1663313ce5676040518163ffffffff1660e01b815260040160206040518083038186803b158015610be657600080fd5b505afa158015610bfa573d6000803e3d6000fd5b505050506040513d601f19601f82011682018060405250810190610c1e9190611393565b60ff16600a610c2d91906117d9565b81610c3891906118f7565b600160009054906101000a900473ffffffffffffffffffffffffffffffffffffffff1673ffffffffffffffffffffffffffffffffffffffff166370a08231336040518263ffffffff1660e01b8152600401610c9391906115db565b60206040518083038186803b158015610cab57600080fd5b505afa158015610cbf573d6000803e3d6000fd5b505050506040513d601f19601f82011682018060405250810190610ce391906112ae565b1015610d24576040517f08c379a0000000000000000000000000000000000000000000000000000000008152600401610d1b90611688565b60405180910390fd5b600060025414610d83573373ffffffffffffffffffffffffffffffffffffffff166108fc82600254610d5691906118f7565b9081150290604051600060405180830381858888f19350505050158015610d81573d6000803e3d6000fd5b505b60006002541415610de8573373ffffffffffffffffffffffffffffffffffffffff166108fc82610db1610788565b610dbb91906118f7565b9081150290604051600060405180830381858888f19350505050158015610de6573d6000803e3d6000fd5b505b600160009054906101000a900473ffffffffffffffffffffffffffffffffffffffff1673ffffffffffffffffffffffffffffffffffffffff16639dc29fac33600160009054906101000a900473ffffffffffffffffffffffffffffffffffffffff1673ffffffffffffffffffffffffffffffffffffffff1663313ce5676040518163ffffffff1660e01b815260040160206040518083038186803b158015610e8f57600080fd5b505afa158015610ea3573d6000803e3d6000fd5b505050506040513d601f19601f82011682018060405250810190610ec79190611393565b60ff16600a610ed691906117d9565b84610ee191906118f7565b6040518363ffffffff1660e01b8152600401610efe9291906115f6565b600060405180830381600087803b158015610f1857600080fd5b505af1158015610f2c573d6000803e3d6000fd5b5050505050565b60008060008390506000805b875181101561102257600282610f5591906118f7565b91506000888281518110610f92577f4e487b7100000000000000000000000000000000000000000000000000000000600052603260045260246000fd5b60200260200101519050808411610fd3578381604051602001610fb692919061159a565b60405160208183030381529060405280519060200120935061100e565b8084604051602001610fe692919061159a565b60405160208183030381529060405280519060200120935060018361100b91906116ff565b92505b50808061101a906119b0565b915050610f3f565b5085821481935093505050935093915050565b600033905090565b60008060009054906101000a900473ffffffffffffffffffffffffffffffffffffffff169050816000806101000a81548173ffffffffffffffffffffffffffffffffffffffff021916908373ffffffffffffffffffffffffffffffffffffffff1602179055508173ffffffffffffffffffffffffffffffffffffffff168173ffffffffffffffffffffffffffffffffffffffff167f8be0079c531659141344cd1fd0a4f28419497f9722a3daafe3b4186f6b6457e060405160405180910390a35050565b60008135905061111081611aa9565b92915050565b60008083601f84011261112857600080fd5b8235905067ffffffffffffffff81111561114157600080fd5b60208301915083602082028301111561115957600080fd5b9250929050565b60008135905061116f81611ac0565b92915050565b60008135905061118481611ad7565b92915050565b60008151905061119981611ad7565b92915050565b6000815190506111ae81611aee565b92915050565b6000602082840312156111c657600080fd5b60006111d484828501611101565b91505092915050565b600080600080606085870312156111f357600080fd5b600061120187828801611101565b945050602085013567ffffffffffffffff81111561121e57600080fd5b61122a87828801611116565b9350935050604061123d87828801611175565b91505092959194509250565b6000806040838503121561125c57600080fd5b600061126a85828601611160565b925050602061127b85828601611175565b9150509250929050565b60006020828403121561129757600080fd5b60006112a584828501611175565b91505092915050565b6000602082840312156112c057600080fd5b60006112ce8482850161118a565b91505092915050565b600080604083850312156112ea57600080fd5b60006112f885828601611175565b925050602061130985828601611101565b9150509250929050565b60008060008060006080868803121561132b57600080fd5b600061133988828901611175565b955050602061134a88828901611101565b945050604086013567ffffffffffffffff81111561136757600080fd5b61137388828901611116565b9350935050606061138688828901611175565b9150509295509295909350565b6000602082840312156113a557600080fd5b60006113b38482850161119f565b91505092915050565b6113c581611951565b82525050565b6113dc6113d782611951565b6119f9565b82525050565b6113eb81611963565b82525050565b6114026113fd8261196f565b611a0b565b82525050565b60006114156026836116ee565b91507f4f776e61626c653a206e6577206f776e657220697320746865207a65726f206160008301527f64647265737300000000000000000000000000000000000000000000000000006020830152604082019050919050565b600061147b6020836116ee565b91507f4f776e61626c653a2063616c6c6572206973206e6f7420746865206f776e65726000830152602082019050919050565b60006114bb6012836116ee565b91507f4e6f206d6f7265207468697320746f6b656e00000000000000000000000000006000830152602082019050919050565b60006114fb6011836116ee565b91507f4d6f7265204554482072657175697265640000000000000000000000000000006000830152602082019050919050565b600061153b6000836116e3565b9150600082019050919050565b61155181611999565b82525050565b61156861156382611999565b611a27565b82525050565b600061157a82856113cb565b60148201915061158a8284611557565b6020820191508190509392505050565b60006115a682856113f1565b6020820191506115b682846113f1565b6020820191508190509392505050565b60006115d18261152e565b9150819050919050565b60006020820190506115f060008301846113bc565b92915050565b600060408201905061160b60008301856113bc565b6116186020830184611548565b9392505050565b600060408201905061163460008301856113e2565b6116416020830184611548565b9392505050565b6000602082019050818103600083015261166181611408565b9050919050565b600060208201905081810360008301526116818161146e565b9050919050565b600060208201905081810360008301526116a1816114ae565b9050919050565b600060208201905081810360008301526116c1816114ee565b9050919050565b60006020820190506116dd6000830184611548565b92915050565b600081905092915050565b600082825260208201905092915050565b600061170a82611999565b915061171583611999565b9250827fffffffffffffffffffffffffffffffffffffffffffffffffffffffffffffffff0382111561174a57611749611a31565b5b828201905092915050565b600061176082611999565b915061176b83611999565b92508261177b5761177a611a60565b5b828204905092915050565b6000808291508390505b60018511156117d0578086048111156117ac576117ab611a31565b5b60018516156117bb5780820291505b80810290506117c985611a9c565b9450611790565b94509492505050565b60006117e482611999565b91506117ef83611999565b925061181c7fffffffffffffffffffffffffffffffffffffffffffffffffffffffffffffffff8484611824565b905092915050565b60008261183457600190506118f0565b8161184257600090506118f0565b8160018114611858576002811461186257611891565b60019150506118f0565b60ff84111561187457611873611a31565b5b8360020a91508482111561188b5761188a611a31565b5b506118f0565b5060208310610133831016604e8410600b84101617156118c65782820a9050838111156118c1576118c0611a31565b5b6118f0565b6118d38484846001611786565b925090508184048111156118ea576118e9611a31565b5b81810290505b9392505050565b600061190282611999565b915061190d83611999565b9250817fffffffffffffffffffffffffffffffffffffffffffffffffffffffffffffffff048311821515161561194657611945611a31565b5b828202905092915050565b600061195c82611979565b9050919050565b60008115159050919050565b6000819050919050565b600073ffffffffffffffffffffffffffffffffffffffff82169050919050565b6000819050919050565b600060ff82169050919050565b60006119bb82611999565b91507fffffffffffffffffffffffffffffffffffffffffffffffffffffffffffffffff8214156119ee576119ed611a31565b5b600182019050919050565b6000611a0482611a15565b9050919050565b6000819050919050565b6000611a2082611a8f565b9050919050565b6000819050919050565b7f4e487b7100000000000000000000000000000000000000000000000000000000600052601160045260246000fd5b7f4e487b7100000000000000000000000000000000000000000000000000000000600052601260045260246000fd5b60008160601b9050919050565b60008160011c9050919050565b611ab281611951565b8114611abd57600080fd5b50565b611ac98161196f565b8114611ad457600080fd5b50565b611ae081611999565b8114611aeb57600080fd5b50565b611af7816119a3565b8114611b0257600080fd5b5056fea264697066735822122038251f56bcd07fb7ac33d3e8493f6adc04118d047ba897a0960c4d2a61474a7864736f6c63430008000033",
  "immutableReferences": {},
  "source": "// SPDX-License-Identifier: MIT\n// Delegation contract\npragma solidity ^0.8.0;\n\nimport \"@openzeppelin/contracts/access/Ownable.sol\";\nimport \"./MerkleProof.sol\";\nimport \"./MYOS.sol\";\n\ncontract DelegateContractMYOS is Ownable {\n    address addressMYOSToken;\n    uint256 currentpriceMYOS;\n    uint256 merkleEndTime;\n    bytes32 merkleRoot;\n\n    ///@notice Update price of MYOS token for static price, if == 0 change for dynamic price\n    ///@param newPrice value of price in matic wei (matic / 10**18)\n    function setCurrentPriceMYOS(uint256 newPrice) external onlyOwner {\n        currentpriceMYOS = newPrice;\n    }\n\n\n    function setAddressMYOSToken(address _addressMYOSToken) external onlyOwner {\n        addressMYOSToken = _addressMYOSToken;\n    }\n\n    ///@notice Set the merkle tree to create whitelist for mint\n    ///@param _merkleRoot A bytes 32 represent root of tree for verify all merkle proof\n    ///@param _merkleEndTime Represent a timestamp (in seconds) represents end of whitelist\n    function setMerkleTree(bytes32 _merkleRoot, uint256 _merkleEndTime)\n        external\n        onlyOwner\n    {\n        merkleRoot = _merkleRoot;\n        merkleEndTime = _merkleEndTime;\n    }\n\n    ///@notice Purchase of a resource for eth/MATIC\n    ///@param quantity number of token myos you want purchase\n    ///@param receiver address waller of receiver's token\n    function buyMYOS(\n        uint256 quantity,\n        address receiver,\n        bytes32[] calldata _proofs,\n        uint256 _proofMaxQuantityPerTransaction\n    ) external payable {\n        verifyMerkleProof(msg.sender, _proofs, _proofMaxQuantityPerTransaction);\n        if (currentpriceMYOS != 0)\n            require(\n                msg.value >= (currentpriceMYOS * quantity),\n                \"More ETH required\"\n            );\n        if (currentpriceMYOS == 0)\n            require(\n                msg.value >= (getDynamicPriceMYOS() * quantity),\n                \"More ETH required\"\n            );\n        (bool sent, bytes memory data) = addressMYOSToken.call{value: msg.value}(\"\");\n        MYOS(addressMYOSToken).mint(receiver, quantity * (10**uint(MYOS(addressMYOSToken).decimals())));\n        \n    }\n\n    ///@notice Sale of MYOS token against MATIC\n    ///@param quantity number of token myos you want sell\n    function sellMYOS(uint256 quantity) public {\n        require(\n            MYOS(addressMYOSToken).totalSupply() > quantity + 1,\n            \"No more this token\"\n        );\n        require(\n            MYOS(addressMYOSToken).balanceOf(msg.sender) >=\n                quantity * (10**uint(MYOS(addressMYOSToken).decimals())),\n            \"No more this token\"\n        );\n        if (currentpriceMYOS != 0)\n            payable(msg.sender).transfer(currentpriceMYOS * quantity);\n        if (currentpriceMYOS == 0)\n            payable(msg.sender).transfer(getDynamicPriceMYOS() * quantity);\n        MYOS(addressMYOSToken).burn(msg.sender, quantity * (10**uint(MYOS(addressMYOSToken).decimals())));\n    }\n\n    ///@notice Converting the MYOS to another token\n    ///@param quantity number of token myos you want convert\n    ///@param anotherToken address of token you want to convert\n    function convertMYOSToAnotherToken(uint256 quantity, address anotherToken)\n        public\n    {\n        /*require(totalSupply()>quantity+1,\"No more this token\");\n        require(balanceOf(msg.sender)>=quantity,\"No more this token\");\n        _burn(msg.sender,quantity);\n        currentprice = getDynamicPriceMYOS();*/\n    }\n\n    ///@notice Verify proof of a claimer to mint in a whitelist\n    ///@param _claimer msg.sender address wallet of user he want mint token MYOS\n    ///@param _proofs array of bytes 32 represent proof of merkle with merkle tree\n    ///@param _proofMaxQuantityPerTransaction useless for us but need it, its for add quantity into merkle tree\n    function verifyMerkleProof(\n        address _claimer,\n        bytes32[] calldata _proofs,\n        uint256 _proofMaxQuantityPerTransaction\n    ) public view returns (bool validMerkleProof, uint256 merkleProofIndex) {\n        if (\n            merkleRoot != bytes32(0) &&\n            merkleEndTime < block.timestamp &&\n            merkleEndTime != 0\n        ) {\n            (bool validMerkleProof, uint256 merkleProofIndex) = MerkleProofLib\n                .verify(\n                    _proofs,\n                    merkleRoot,\n                    keccak256(\n                        abi.encodePacked(\n                            _claimer,\n                            _proofMaxQuantityPerTransaction\n                        )\n                    )\n                );\n        }\n    }\n\n    ///@notice Function to calculate dynamic price\n    function getDynamicPriceMYOS() public view returns (uint256) {\n        return\n            MYOS(addressMYOSToken).getBalanceContract() /\n            MYOS(addressMYOSToken).totalSupply();\n    }\n}\n",
  "sourcePath": "/home/kevin/Bureau/homework/MYOS/contracts/DelegateContractMYOS.sol",
  "compiler": {
    "name": "solc",
    "version": "0.8.0+commit.c7dfd78e.Emscripten.clang"
  },
  "schemaVersion": "3.4.7",
  "updatedAt": "2022-09-22T08:17:05.441Z",
  "devdoc": {
    "kind": "dev",
    "methods": {
      "buyMYOS(uint256,address,bytes32[],uint256)": {
        "params": {
          "quantity": "number of token myos you want purchase",
          "receiver": "address waller of receiver's token"
        }
      },
      "convertMYOSToAnotherToken(uint256,address)": {
        "params": {
          "anotherToken": "address of token you want to convert",
          "quantity": "number of token myos you want convert"
        }
      },
      "owner()": {
        "details": "Returns the address of the current owner."
      },
      "renounceOwnership()": {
        "details": "Leaves the contract without owner. It will not be possible to call `onlyOwner` functions anymore. Can only be called by the current owner. NOTE: Renouncing ownership will leave the contract without an owner, thereby removing any functionality that is only available to the owner."
      },
      "sellMYOS(uint256)": {
        "params": {
          "quantity": "number of token myos you want sell"
        }
      },
      "setCurrentPriceMYOS(uint256)": {
        "params": {
          "newPrice": "value of price in matic wei (matic / 10**18)"
        }
      },
      "setMerkleTree(bytes32,uint256)": {
        "params": {
          "_merkleEndTime": "Represent a timestamp (in seconds) represents end of whitelist",
          "_merkleRoot": "A bytes 32 represent root of tree for verify all merkle proof"
        }
      },
      "transferOwnership(address)": {
        "details": "Transfers ownership of the contract to a new account (`newOwner`). Can only be called by the current owner."
      },
      "verifyMerkleProof(address,bytes32[],uint256)": {
        "params": {
          "_claimer": "msg.sender address wallet of user he want mint token MYOS",
          "_proofMaxQuantityPerTransaction": "useless for us but need it, its for add quantity into merkle tree",
          "_proofs": "array of bytes 32 represent proof of merkle with merkle tree"
        }
      }
    },
    "version": 1
  },
  "userdoc": {
    "kind": "user",
    "methods": {
      "buyMYOS(uint256,address,bytes32[],uint256)": {
        "notice": "Purchase of a resource for eth/MATIC"
      },
      "convertMYOSToAnotherToken(uint256,address)": {
        "notice": "Converting the MYOS to another token"
      },
      "getDynamicPriceMYOS()": {
        "notice": "Function to calculate dynamic price"
      },
      "sellMYOS(uint256)": {
        "notice": "Sale of MYOS token against MATIC"
      },
      "setCurrentPriceMYOS(uint256)": {
        "notice": "Update price of MYOS token for static price, if == 0 change for dynamic price"
      },
      "setMerkleTree(bytes32,uint256)": {
        "notice": "Set the merkle tree to create whitelist for mint"
      },
      "verifyMerkleProof(address,bytes32[],uint256)": {
        "notice": "Verify proof of a claimer to mint in a whitelist"
      }
    },
    "version": 1
  }
}