{
  "contractName": "DelegateContract",
  "abi": [
    {
      "inputs": [
        {
          "internalType": "address",
          "name": "_addressHero",
          "type": "address"
        },
        {
          "internalType": "address",
          "name": "_addressQuest",
          "type": "address"
        },
        {
          "internalType": "address",
          "name": "_addressClass",
          "type": "address"
        }
      ],
      "stateMutability": "nonpayable",
      "type": "constructor"
    },
    {
      "anonymous": false,
      "inputs": [
        {
          "indexed": true,
          "internalType": "address",
          "name": "previousOwner",
          "type": "address"
        },
        {
          "indexed": true,
          "internalType": "address",
          "name": "newOwner",
          "type": "address"
        }
      ],
      "name": "OwnershipTransferred",
      "type": "event"
    },
    {
      "inputs": [],
      "name": "owner",
      "outputs": [
        {
          "internalType": "address",
          "name": "",
          "type": "address"
        }
      ],
      "stateMutability": "view",
      "type": "function"
    },
    {
      "inputs": [],
      "name": "renounceOwnership",
      "outputs": [],
      "stateMutability": "nonpayable",
      "type": "function"
    },
    {
      "inputs": [
        {
          "internalType": "address",
          "name": "newOwner",
          "type": "address"
        }
      ],
      "name": "transferOwnership",
      "outputs": [],
      "stateMutability": "nonpayable",
      "type": "function"
    },
    {
      "inputs": [
        {
          "internalType": "address",
          "name": "_by",
          "type": "address"
        },
        {
          "internalType": "string",
          "name": "name",
          "type": "string"
        },
        {
          "internalType": "string",
          "name": "symbol",
          "type": "string"
        }
      ],
      "name": "createGuild",
      "outputs": [],
      "stateMutability": "nonpayable",
      "type": "function"
    },
    {
      "inputs": [
        {
          "internalType": "address",
          "name": "_by",
          "type": "address"
        }
      ],
      "name": "deleteGuild",
      "outputs": [],
      "stateMutability": "nonpayable",
      "type": "function"
    },
    {
      "inputs": [
        {
          "internalType": "address",
          "name": "_by",
          "type": "address"
        }
      ],
      "name": "getOneGuildAddress",
      "outputs": [
        {
          "internalType": "address",
          "name": "",
          "type": "address"
        }
      ],
      "stateMutability": "view",
      "type": "function"
    },
    {
      "inputs": [],
      "name": "getAddressGuilds",
      "outputs": [
        {
          "internalType": "address[]",
          "name": "",
          "type": "address[]"
        }
      ],
      "stateMutability": "view",
      "type": "function"
    },
    {
      "inputs": [
        {
          "internalType": "address",
          "name": "_addressHero",
          "type": "address"
        }
      ],
      "name": "setaddressHero",
      "outputs": [],
      "stateMutability": "nonpayable",
      "type": "function"
    },
    {
      "inputs": [
        {
          "internalType": "string",
          "name": "keyParams",
          "type": "string"
        },
        {
          "internalType": "uint256",
          "name": "valueParams",
          "type": "uint256"
        }
      ],
      "name": "setParamsContract",
      "outputs": [],
      "stateMutability": "nonpayable",
      "type": "function"
    },
    {
      "inputs": [
        {
          "internalType": "string",
          "name": "keyParams",
          "type": "string"
        }
      ],
      "name": "getParamsContract",
      "outputs": [
        {
          "internalType": "uint256",
          "name": "",
          "type": "uint256"
        }
      ],
      "stateMutability": "view",
      "type": "function"
    },
    {
      "inputs": [
        {
          "internalType": "address",
          "name": "item",
          "type": "address"
        },
        {
          "internalType": "uint256",
          "name": "idItem",
          "type": "uint256"
        }
      ],
      "name": "setAddressItem",
      "outputs": [],
      "stateMutability": "nonpayable",
      "type": "function"
    },
    {
      "inputs": [],
      "name": "getAddressItems",
      "outputs": [
        {
          "internalType": "address[]",
          "name": "",
          "type": "address[]"
        }
      ],
      "stateMutability": "view",
      "type": "function"
    },
    {
      "inputs": [
        {
          "internalType": "uint256",
          "name": "idItem",
          "type": "uint256"
        }
      ],
      "name": "getAddressItem",
      "outputs": [
        {
          "internalType": "address",
          "name": "",
          "type": "address"
        }
      ],
      "stateMutability": "view",
      "type": "function"
    },
    {
      "inputs": [
        {
          "internalType": "address",
          "name": "addressItem",
          "type": "address"
        }
      ],
      "name": "getParamsItem",
      "outputs": [
        {
          "components": [
            {
              "internalType": "string",
              "name": "name",
              "type": "string"
            },
            {
              "internalType": "uint256",
              "name": "rarity",
              "type": "uint256"
            },
            {
              "internalType": "uint256",
              "name": "currentPrice",
              "type": "uint256"
            },
            {
              "internalType": "uint256",
              "name": "myBalance",
              "type": "uint256"
            },
            {
              "internalType": "uint256",
              "name": "allBalance",
              "type": "uint256"
            }
          ],
          "internalType": "struct Items.Item",
          "name": "",
          "type": "tuple"
        }
      ],
      "stateMutability": "view",
      "type": "function"
    },
    {
      "inputs": [
        {
          "internalType": "uint256",
          "name": "idItem",
          "type": "uint256"
        }
      ],
      "name": "getBalanceOfItem",
      "outputs": [
        {
          "internalType": "uint256",
          "name": "",
          "type": "uint256"
        }
      ],
      "stateMutability": "view",
      "type": "function"
    },
    {
      "inputs": [
        {
          "internalType": "address payable",
          "name": "addressItem",
          "type": "address"
        },
        {
          "internalType": "uint256",
          "name": "value",
          "type": "uint256"
        }
      ],
      "name": "buyItem",
      "outputs": [],
      "stateMutability": "payable",
      "type": "function"
    },
    {
      "inputs": [
        {
          "internalType": "address",
          "name": "addressItem",
          "type": "address"
        },
        {
          "internalType": "uint256",
          "name": "value",
          "type": "uint256"
        }
      ],
      "name": "sellItem",
      "outputs": [],
      "stateMutability": "nonpayable",
      "type": "function"
    },
    {
      "inputs": [
        {
          "internalType": "address",
          "name": "addressItem",
          "type": "address"
        }
      ],
      "name": "depositItem",
      "outputs": [],
      "stateMutability": "payable",
      "type": "function"
    },
    {
      "inputs": [
        {
          "internalType": "address",
          "name": "addressItem",
          "type": "address"
        }
      ],
      "name": "getCurrentPrice",
      "outputs": [
        {
          "internalType": "uint256",
          "name": "",
          "type": "uint256"
        }
      ],
      "stateMutability": "view",
      "type": "function"
    },
    {
      "inputs": [
        {
          "internalType": "uint8",
          "name": "generation",
          "type": "uint8"
        },
        {
          "internalType": "uint8",
          "name": "peuple",
          "type": "uint8"
        },
        {
          "internalType": "string",
          "name": "_tokenUri",
          "type": "string"
        }
      ],
      "name": "mintDelegate",
      "outputs": [],
      "stateMutability": "payable",
      "type": "function"
    },
    {
      "inputs": [
        {
          "internalType": "uint256",
          "name": "tokenId",
          "type": "uint256"
        },
        {
          "internalType": "uint256",
          "name": "questId",
          "type": "uint256"
        }
      ],
      "name": "startQuest",
      "outputs": [],
      "stateMutability": "nonpayable",
      "type": "function"
    },
    {
      "inputs": [
        {
          "internalType": "uint256",
          "name": "tokenId",
          "type": "uint256"
        }
      ],
      "name": "completeQuest",
      "outputs": [],
      "stateMutability": "nonpayable",
      "type": "function"
    },
    {
      "inputs": [
        {
          "internalType": "uint8",
          "name": "questId",
          "type": "uint8"
        }
      ],
      "name": "getQuest",
      "outputs": [
        {
          "components": [
            {
              "internalType": "uint8",
              "name": "exp",
              "type": "uint8"
            },
            {
              "internalType": "uint8",
              "name": "percentDifficulty",
              "type": "uint8"
            },
            {
              "internalType": "uint8[]",
              "name": "stats",
              "type": "uint8[]"
            },
            {
              "internalType": "uint256",
              "name": "id",
              "type": "uint256"
            },
            {
              "internalType": "uint256",
              "name": "time",
              "type": "uint256"
            },
            {
              "internalType": "bool",
              "name": "valid",
              "type": "bool"
            }
          ],
          "internalType": "struct Quest.Quest",
          "name": "",
          "type": "tuple"
        }
      ],
      "stateMutability": "view",
      "type": "function"
    },
    {
      "inputs": [
        {
          "internalType": "uint8",
          "name": "statToLvlUp",
          "type": "uint8"
        },
        {
          "internalType": "uint256",
          "name": "tokenId",
          "type": "uint256"
        }
      ],
      "name": "levelUp",
      "outputs": [],
      "stateMutability": "nonpayable",
      "type": "function"
    },
    {
      "inputs": [
        {
          "internalType": "address",
          "name": "user",
          "type": "address"
        }
      ],
      "name": "getAllTokensForUser",
      "outputs": [
        {
          "internalType": "uint256[]",
          "name": "",
          "type": "uint256[]"
        }
      ],
      "stateMutability": "view",
      "type": "function"
    },
    {
      "inputs": [
        {
          "internalType": "uint256",
          "name": "tokenId",
          "type": "uint256"
        }
      ],
      "name": "getTokenDetails",
      "outputs": [
        {
          "components": [
            {
              "internalType": "bool[]",
              "name": "booleans",
              "type": "bool[]"
            },
            {
              "internalType": "uint8[]",
              "name": "params8",
              "type": "uint8[]"
            },
            {
              "internalType": "uint256[]",
              "name": "params256",
              "type": "uint256[]"
            }
          ],
          "internalType": "struct Hero.Token",
          "name": "",
          "type": "tuple"
        }
      ],
      "stateMutability": "view",
      "type": "function"
    },
    {
      "inputs": [],
      "name": "withdraw",
      "outputs": [],
      "stateMutability": "nonpayable",
      "type": "function"
    },
    {
      "inputs": [],
      "name": "getBalance",
      "outputs": [
        {
          "internalType": "uint256",
          "name": "",
          "type": "uint256"
        }
      ],
      "stateMutability": "view",
      "type": "function"
    }
  ],
  "bytecode": "0x60806040523480156200001157600080fd5b50604051620060ab380380620060ab8339810160408190526200003491620000b5565b6200003f3362000048565b505050620000ff565b600080546001600160a01b038381166001600160a01b0319831681178455604051919092169283917f8be0079c531659141344cd1fd0a4f28419497f9722a3daafe3b4186f6b6457e09190a35050565b80516001600160a01b0381168114620000b057600080fd5b919050565b600080600060608486031215620000cb57600080fd5b620000d68462000098565b9250620000e66020850162000098565b9150620000f66040850162000098565b90509250925092565b615f9c806200010f6000396000f3fe608060405260043610620001db5760003560e01c806382de8fe911620000ff578063c1e037281162000095578063e0f0b85a116200006c578063e0f0b85a146200056e578063e9da3a651462000593578063f26bf0b714620005b8578063f2fde38b14620005dd57600080fd5b8063c1e0372814620004db578063c3c33b40146200050f578063dec74312146200053457600080fd5b8063994c7cbe11620000d6578063994c7cbe14620004465780639f37092a146200046b578063af538c361462000482578063b77f02e814620004b657600080fd5b806382de8fe914620003b957806384cc315b14620003ed5780638da5cb5b146200041257600080fd5b80633ccfd60b1162000175578063528be0a9116200014c578063528be0a91462000340578063586e2ee41462000365578063715018a6146200038a5780637a53d06e14620003a257600080fd5b80633ccfd60b14620002cf57806342c3e35814620002e75780634ea01f56146200030c57600080fd5b806312065fe011620001b657806312065fe0146200025c5780631408a32c146200027b5780631d9e861e14620002935780633cb1194414620002aa57600080fd5b806308d56ad014620001e0578063096c5e1a14620002105780630b275db41462000237575b600080fd5b348015620001ed57600080fd5b50620001f862000602565b60405162000207919062002705565b60405180910390f35b3480156200021d57600080fd5b50620002356200022f3660046200276a565b62000706565b005b3480156200024457600080fd5b506200023562000256366004620027a9565b6200076f565b3480156200026957600080fd5b50475b60405190815260200162000207565b3480156200028857600080fd5b50620001f862000a70565b62000235620002a4366004620027ca565b62000b44565b348015620002b757600080fd5b5062000235620002c93660046200292e565b62000c20565b348015620002dc57600080fd5b506200023562000c51565b348015620002f457600080fd5b506200023562000306366004620027ca565b62000c8b565b3480156200031957600080fd5b50620003316200032b36600462002976565b62000ec7565b604051620002079190620029d6565b3480156200034d57600080fd5b50620002356200035f36600462002a3a565b62000f8c565b3480156200037257600080fd5b50620002356200038436600462002a54565b62001573565b3480156200039757600080fd5b5062000235620016c2565b62000235620003b336600462002ad2565b620016da565b348015620003c657600080fd5b50620003de620003d8366004620027ca565b620018ad565b60405162000207919062002b63565b348015620003fa57600080fd5b506200026c6200040c366004620027ca565b6200192c565b3480156200041f57600080fd5b506000546001600160a01b03165b6040516001600160a01b03909116815260200162000207565b3480156200045357600080fd5b506200026c6200046536600462002a3a565b62001997565b620002356200047c3660046200276a565b620019ee565b3480156200048f57600080fd5b50620004a7620004a1366004620027ca565b62001adf565b60405162000207919062002bd5565b348015620004c357600080fd5b506200042d620004d5366004620027ca565b62001b86565b348015620004e857600080fd5b5062000500620004fa36600462002a3a565b62001c02565b60405162000207919062002cb2565b3480156200051c57600080fd5b50620002356200052e36600462002cc7565b62001c9d565b3480156200054157600080fd5b506200042d6200055336600462002a3a565b6000908152600660205260409020546001600160a01b031690565b3480156200057b57600080fd5b50620002356200058d3660046200276a565b62001e6f565b348015620005a057600080fd5b5062000235620005b2366004620027ca565b62001ec6565b348015620005c557600080fd5b506200026c620005d736600462002cea565b62001ef2565b348015620005ea57600080fd5b5062000235620005fc366004620027ca565b62001f1c565b600954606090600090610100900460ff166001600160401b038111156200062d576200062d620027ea565b60405190808252806020026020018201604052801562000657578160200160208202803683370190505b5090506000805b600954610100900460ff16811015620006fe576000818152600860205260409020546001600160a01b031615620006e95760008181526008602052604090205483516001600160a01b0390911690849084908110620006c157620006c162002d22565b6001600160a01b039092166020928302919091019091015281620006e58162002d4e565b9250505b80620006f58162002d4e565b9150506200065e565b509092915050565b604051632b65cc2360e21b81526004810182905233602482015282906001600160a01b0382169063ad97308c90604401600060405180830381600087803b1580156200075157600080fd5b505af115801562000766573d6000803e3d6000fd5b50505050505050565b600154604051630836387160e41b8152600481018390526001600160a01b039091169033908290638363871090602401602060405180830381865afa158015620007bd573d6000803e3d6000fd5b505050506040513d601f19601f82011682018060405250810190620007e3919062002d6c565b6001600160a01b031614620008155760405162461bcd60e51b81526004016200080c9062002d8c565b60405180910390fd5b60405163183c06e560e31b8152600481018390526000906001600160a01b0383169063c1e0372890602401600060405180830381865afa1580156200085e573d6000803e3d6000fd5b505050506040513d6000823e601f3d908101601f1916820160405262000888919081019062002eca565b90508060200151600781518110620008a457620008a462002d22565b60200260200101516005604051620008cf906c0657870466f724c6576656c557609c1b8152600d0190565b908152602001604051809103902054620008ea9190620030ea565b620008f7906064620030fb565b816020015160068151811062000911576200091162002d22565b602002602001015160ff1611620009645760405162461bcd60e51b8152602060048201526016602482015275195e1c195c9a595b98d9481b9bdd08195b9bdd59da1d60521b60448201526064016200080c565b80602001518460ff168151811062000980576200098062002d22565b602002602001018051809190620009979062003116565b60ff1660ff168152505060008160200151600681518110620009bd57620009bd62002d22565b60ff90921660209283029190910182015281015180516007908110620009e757620009e762002d22565b602002602001018051809190620009fe9062003116565b60ff1690525060405163e1e5151d60e01b81526001600160a01b0383169063e1e5151d9062000a369084908790339060040162003139565b600060405180830381600087803b15801562000a5157600080fd5b505af115801562000a66573d6000803e3d6000fd5b5050505050505050565b60095460609060009060ff166001600160401b0381111562000a965762000a96620027ea565b60405190808252806020026020018201604052801562000ac0578160200160208202803683370190505b5090506000805b60095460ff16811015620006fe5760008181526006602052604090205483516001600160a01b039091169084908490811062000b075762000b0762002d22565b6001600160a01b03909216602092830291909101909101528162000b2b8162002d4e565b925050808062000b3b9062002d4e565b91505062000ac7565b60408051600481526024810182526020810180516001600160e01b0316630d0e30db60e41b179052905160009182916001600160a01b03851691349162000b8c91906200316e565b60006040518083038185875af1925050503d806000811462000bcb576040519150601f19603f3d011682016040523d82523d6000602084013e62000bd0565b606091505b50915091508162000c1b5760405162461bcd60e51b81526020600482015260146024820152732330b4b632b2103a379039b2b7321022ba3432b960611b60448201526064016200080c565b505050565b62000c2a62001f98565b8060058360405162000c3d91906200316e565b908152604051908190036020019020555050565b62000c5b62001f98565b60405133904780156108fc02916000818181858888f1935050505015801562000c88573d6000803e3d6000fd5b50565b6001600160a01b038181166000908152600760205260409020541662000ce65760405162461bcd60e51b815260206004820152600f60248201526e11dd5a5b19081b9bdd08195e1a5cdd608a1b60448201526064016200080c565b6001600160a01b03818116600090815260076020526040908190205490516317aa5fb760e11b8152336004820152911690632f54bf6e90602401602060405180830381865afa15801562000d3e573d6000803e3d6000fd5b505050506040513d601f19601f8201168201806040525081019062000d6491906200318c565b62000da65760405162461bcd60e51b8152602060048201526011602482015270125cc81b9bdd081e5bdd5c8819dd5a5b19607a1b60448201526064016200080c565b6001600160a01b038082166000908152600760205260408082205481516341c0e1b560e01b815291519316926341c0e1b59260048084019391929182900301818387803b15801562000df757600080fd5b505af115801562000e0c573d6000803e3d6000fd5b5050506001600160a01b038083166000908152600760209081526040808320548151635d1ca63160e01b815291519395506008948694911692635d1ca63192600480820193918290030181865afa15801562000e6c573d6000803e3d6000fd5b505050506040513d601f19601f8201168201806040525081019062000e929190620031aa565b815260200190815260200160002060006101000a8154816001600160a01b0302191690836001600160a01b0316021790555050565b62000f096040518060c00160405280600060ff168152602001600060ff1681526020016060815260200160008152602001600081526020016000151581525090565b600254604051630b0f929b60e41b815260ff841660048201526001600160a01b0390911690600090829063b0f929b090602401600060405180830381865afa15801562000f5a573d6000803e3d6000fd5b505050506040513d6000823e601f3d908101601f1916820160405262000f849190810190620031c4565b949350505050565b600154604051630836387160e41b8152600481018390526001600160a01b039091169033908290638363871090602401602060405180830381865afa15801562000fda573d6000803e3d6000fd5b505050506040513d601f19601f8201168201806040525081019062001000919062002d6c565b6001600160a01b031614620010295760405162461bcd60e51b81526004016200080c9062002d8c565b60405163183c06e560e31b8152600481018390526000906001600160a01b0383169063c1e0372890602401600060405180830381865afa15801562001072573d6000803e3d6000fd5b505050506040513d6000823e601f3d908101601f191682016040526200109c919081019062002eca565b600254604082015180519293506001600160a01b0390911691600091839163b0f929b091906003908110620010d557620010d562002d22565b60200260200101516040518263ffffffff1660e01b8152600401620010fc91815260200190565b600060405180830381865afa1580156200111a573d6000803e3d6000fd5b505050506040513d6000823e601f3d908101601f19168201604052620011449190810190620031c4565b90508060800151836040015160028151811062001165576200116562002d22565b6020026020010151426200117a919062003289565b11620011be5760405162461bcd60e51b8152602060048201526012602482015271145d595cdd081b9bdd08199a5b9a5cda195960721b60448201526064016200080c565b6000805b8260400151518160ff161015620012a05784602001518160ff1681518110620011ef57620011ef62002d22565b602002602001015160ff1683604001518260ff168151811062001216576200121662002d22565b602002602001015160ff1611156200128b5784602001518160ff168151811062001244576200124462002d22565b602002602001015183604001518260ff168151811062001268576200126862002d22565b60200260200101516200127c9190620032a3565b620012889083620032c9565b91505b80620012978162003116565b915050620011c2565b50602082015160ff16620012c0620012ba836064620032a3565b62001ff4565b60ff1611156200148f57826001600160a01b0316636827822e6040518163ffffffff1660e01b8152600401602060405180830381865afa15801562001309573d6000803e3d6000fd5b505050506040513d601f19601f820116820180604052508101906200132f9190620032f1565b82516200133d919062003311565b846020015160068151811062001357576200135762002d22565b602002602001018181516200136d9190620032c9565b60ff1690525060005b60095460ff168110156200148d57600081815260066020908152604091829020548251633d9966dd60e11b815292516001600160a01b03909116928392637b32cdba926004808401938290030181865afa158015620013d9573d6000803e3d6000fd5b505050506040513d601f19601f82011682018060405250810190620013ff9190620031aa565b6200140d620186a0620020ca565b111562001477576040516394bf804d60e01b8152600160048201523360248201526001600160a01b038216906394bf804d90604401600060405180830381600087803b1580156200145d57600080fd5b505af115801562001472573d6000803e3d6000fd5b505050505b5080620014848162002d4e565b91505062001376565b505b428460400151600281518110620014aa57620014aa62002d22565b60200260200101818152505060008460400151600381518110620014d257620014d262002d22565b60200260200101818152505060008460400151600481518110620014fa57620014fa62002d22565b602090810291909101015260405163e1e5151d60e01b81526001600160a01b0386169063e1e5151d90620015379087908a90339060040162003139565b600060405180830381600087803b1580156200155257600080fd5b505af115801562001567573d6000803e3d6000fd5b50505050505050505050565b6001600160a01b038381166000908152600760205260409020541615620015d65760405162461bcd60e51b8152602060048201526016602482015275165bdd48185b1c9958591e481a185d994819dd5a5b1960521b60448201526064016200080c565b818133620015ec6000546001600160a01b031690565b600960019054906101000a900460ff166040516200160a90620026f7565b6200161a95949392919062003335565b604051809103906000f08015801562001637573d6000803e3d6000fd5b506001600160a01b0380851660008181526007602090815260408083208054969095166001600160a01b0319968716179094556009805460ff6101009182900481168552600890935294909220805490951690921790935582549190910416906001620016a48362003116565b91906101000a81548160ff021916908360ff16021790555050505050565b620016cc62001f98565b620016d86000620020eb565b565b60405164707269636560d81b81526005908101908152602001604051809103902054341015620017415760405162461bcd60e51b8152602060048201526011602482015270135bdc9948115512081c995c5d5a5c9959607a1b60448201526064016200080c565b600060056040516200176390691d1bdad95b931a5b5a5d60b21b8152600a0190565b90815260200160405180910390205411620017b05760405162461bcd60e51b815260206004820152600c60248201526b4e6f2072656d61696e696e6760a01b60448201526064016200080c565b6040805160148082526102a0820190925260009160208201610280803683370190505090506000620017e2846200213b565b90506000620017f23487620025f2565b905060056040516200181090651b995e1d125960d21b815260060190565b90815260405190819003602001902080549060006200182f8362002d4e565b909155505060015460405163e6d46f3360e01b81526001600160a01b0390911690819063e6d46f3390620018709033908890889088908c906004016200338b565b600060405180830381600087803b1580156200188b57600080fd5b505af1158015620018a0573d6000803e3d6000fd5b5050505050505050505050565b6001546040516382de8fe960e01b81526001600160a01b038381166004830152606092169081906382de8fe990602401600060405180830381865afa158015620018fb573d6000803e3d6000fd5b505050506040513d6000823e601f3d908101601f1916820160405262001925919081019062003424565b9392505050565b600080829050806001600160a01b031663eb91d37e6040518163ffffffff1660e01b8152600401602060405180830381865afa15801562001971573d6000803e3d6000fd5b505050506040513d601f19601f82011682018060405250810190620019259190620031aa565b6000818152600660205260408082205490516370a0823160e01b81523360048201526001600160a01b039091169081906370a0823190602401602060405180830381865afa15801562001971573d6000803e3d6000fd5b6040516024810182905233604482015260009081906001600160a01b03851690349060640160408051601f198184030181529181526020820180516001600160e01b0316637383d70960e01b1790525162001a4a91906200316e565b60006040518083038185875af1925050503d806000811462001a89576040519150601f19603f3d011682016040523d82523d6000602084013e62001a8e565b606091505b50915091508162001ad95760405162461bcd60e51b81526020600482015260146024820152732330b4b632b2103a379039b2b7321022ba3432b960611b60448201526064016200080c565b50505050565b62001b126040518060a0016040528060608152602001600081526020016000815260200160008152602001600081525090565b60405163147b0e4760e21b815233600482015282906000906001600160a01b038316906351ec391c90602401600060405180830381865afa15801562001b5c573d6000803e3d6000fd5b505050506040513d6000823e601f3d908101601f1916820160405262000f849190810190620034a8565b6001600160a01b0381811660009081526007602052604081205490911662001be35760405162461bcd60e51b815260206004820152600f60248201526e11dd5a5b19081b9bdd08195e1a5cdd608a1b60448201526064016200080c565b506001600160a01b039081166000908152600760205260409020541690565b62001c2760405180606001604052806060815260200160608152602001606081525090565b60015460405163183c06e560e31b8152600481018490526001600160a01b0390911690819063c1e0372890602401600060405180830381865afa15801562001c73573d6000803e3d6000fd5b505050506040513d6000823e601f3d908101601f1916820160405262001925919081019062002eca565b600154604051630836387160e41b8152600481018490526001600160a01b039091169033908290638363871090602401602060405180830381865afa15801562001ceb573d6000803e3d6000fd5b505050506040513d601f19601f8201168201806040525081019062001d11919062002d6c565b6001600160a01b03161462001d3a5760405162461bcd60e51b81526004016200080c9062002d8c565b60405163183c06e560e31b8152600481018490526000906001600160a01b0383169063c1e0372890602401600060405180830381865afa15801562001d83573d6000803e3d6000fd5b505050506040513d6000823e601f3d908101601f1916820160405262001dad919081019062002eca565b9050806040015160038151811062001dc95762001dc962002d22565b602002602001015160001462001e175760405162461bcd60e51b8152602060048201526012602482015271145d595cdd081b9bdd08199a5b9a5cda195960721b60448201526064016200080c565b82816040015160038151811062001e325762001e3262002d22565b602090810291909101015260405163e1e5151d60e01b81526001600160a01b0383169063e1e5151d9062000a369084908890339060040162003139565b600081815260066020526040812080546001600160a01b0319166001600160a01b0385161790556009805460ff169162001ea98362003116565b91906101000a81548160ff021916908360ff160217905550505050565b62001ed062001f98565b600180546001600160a01b0319166001600160a01b0392909216919091179055565b600060058260405162001f0691906200316e565b9081526020016040518091039020549050919050565b62001f2662001f98565b6001600160a01b03811662001f8d5760405162461bcd60e51b815260206004820152602660248201527f4f776e61626c653a206e6577206f776e657220697320746865207a65726f206160448201526564647265737360d01b60648201526084016200080c565b62000c8881620020eb565b6000546001600160a01b03163314620016d85760405162461bcd60e51b815260206004820181905260248201527f4f776e61626c653a2063616c6c6572206973206e6f7420746865206f776e657260448201526064016200080c565b6000808260ff16423360056040516200201890646e6f6e636560d81b815260050190565b9081526020016040518091039020546040516020016200205d9392919092835260609190911b6bffffffffffffffffffffffff19166020830152603482015260540190565b6040516020818303038152906040528051906020012060001c62002082919062003547565b905060056040516200209f90646e6f6e636560d81b815260050190565b9081526040519081900360200190208054906000620020be8362002d4e565b90915550909392505050565b60008082423360056040516200201890646e6f6e636560d81b815260050190565b600080546001600160a01b038381166001600160a01b0319831681178455604051919092169283917f8be0079c531659141344cd1fd0a4f28419497f9722a3daafe3b4186f6b6457e09190a35050565b6040805160148082526102a0820190925260609160009190602082016102808036833750506003546040805160a08101825260606020820181905260009282018390528082018390526080820152606481529394506001600160a01b039091169291505b826001600160a01b0316630b01ca3b6040518163ffffffff1660e01b8152600401602060405180830381865afa158015620021de573d6000803e3d6000fd5b505050506040513d601f19601f82011682018060405250810190620022049190620032f1565b60ff168160ff161015620023ae5760405163323eae4960e01b815260ff821660048201526001600160a01b0384169063323eae4990602401600060405180830381865afa1580156200225a573d6000803e3d6000fd5b505050506040513d6000823e601f3d908101601f191682016040526200228491908101906200356a565b5160ff1662002294606462001ff4565b60ff161080156200231e575060405163323eae4960e01b815260ff821660048201526001600160a01b0384169063323eae4990602401600060405180830381865afa158015620022e8573d6000803e3d6000fd5b505050506040513d6000823e601f3d908101601f191682016040526200231291908101906200356a565b51825160ff9182169116115b15620023995760405163323eae4960e01b815260ff821660048201526001600160a01b0384169063323eae4990602401600060405180830381865afa1580156200236c573d6000803e3d6000fd5b505050506040513d6000823e601f3d908101601f191682016040526200239691908101906200356a565b91505b80620023a58162003116565b9150506200219f565b50602081015180518190600090620023ca57620023ca62002d22565b602002602001015184600081518110620023e857620023e862002d22565b602002602001019060ff16908160ff16815250508060018151811062002412576200241262002d22565b60200260200101518460018151811062002430576200243062002d22565b602002602001019060ff16908160ff1681525050806002815181106200245a576200245a62002d22565b60200260200101518460028151811062002478576200247862002d22565b602002602001019060ff16908160ff168152505080600381518110620024a257620024a262002d22565b602002602001015184600381518110620024c057620024c062002d22565b602002602001019060ff16908160ff168152505080600481518110620024ea57620024ea62002d22565b60200260200101518460048151811062002508576200250862002d22565b602002602001019060ff16908160ff16815250508060058151811062002532576200253262002d22565b60200260200101518460058151811062002550576200255062002d22565b602002602001019060ff16908160ff16815250506001846007815181106200257c576200257c62002d22565b602002602001019060ff16908160ff16815250508584600881518110620025a757620025a762002d22565b602002602001019060ff16908160ff1681525050816040015184600981518110620025d657620025d662002d22565b60ff909216602092830291909101909101525091949350505050565b60408051600a8082526101608201909252606091600091906020820161014080368337019050509050428160008151811062002632576200263262002d22565b602002602001018181525050838160018151811062002655576200265562002d22565b602002602001018181525050428160028151811062002678576200267862002d22565b6020908102919091010152604051651b995e1d125960d21b815260059060060190815260200160405180910390205481600681518110620026bd57620026bd62002d22565b6020026020010181815250508260ff1681600781518110620026e357620026e362002d22565b602090810291909101015290505b92915050565b612924806200364383390190565b6020808252825182820181905260009190848201906040850190845b81811015620027485783516001600160a01b03168352928401929184019160010162002721565b50909695505050505050565b6001600160a01b038116811462000c8857600080fd5b600080604083850312156200277e57600080fd5b82356200278b8162002754565b946020939093013593505050565b60ff8116811462000c8857600080fd5b60008060408385031215620027bd57600080fd5b82356200278b8162002799565b600060208284031215620027dd57600080fd5b8135620019258162002754565b634e487b7160e01b600052604160045260246000fd5b604051606081016001600160401b0381118282101715620028255762002825620027ea565b60405290565b60405160c081016001600160401b0381118282101715620028255762002825620027ea565b60405160a081016001600160401b0381118282101715620028255762002825620027ea565b604051601f8201601f191681016001600160401b0381118282101715620028a057620028a0620027ea565b604052919050565b60006001600160401b03821115620028c457620028c4620027ea565b50601f01601f191660200190565b600082601f830112620028e457600080fd5b8135620028fb620028f582620028a8565b62002875565b8181528460208386010111156200291157600080fd5b816020850160208301376000918101602001919091529392505050565b600080604083850312156200294257600080fd5b82356001600160401b038111156200295957600080fd5b6200296785828601620028d2565b95602094909401359450505050565b6000602082840312156200298957600080fd5b8135620019258162002799565b600081518084526020808501945080840160005b83811015620029cb57815160ff1687529582019590820190600101620029aa565b509495945050505050565b6020815260ff825116602082015260ff60208301511660408201526000604083015160c0606084015262002a0e60e084018262002996565b905060608401516080840152608084015160a084015260a0840151151560c08401528091505092915050565b60006020828403121562002a4d57600080fd5b5035919050565b60008060006060848603121562002a6a57600080fd5b833562002a778162002754565b925060208401356001600160401b038082111562002a9457600080fd5b62002aa287838801620028d2565b9350604086013591508082111562002ab957600080fd5b5062002ac886828701620028d2565b9150509250925092565b60008060006060848603121562002ae857600080fd5b833562002af58162002799565b9250602084013562002b078162002799565b915060408401356001600160401b0381111562002b2357600080fd5b62002ac886828701620028d2565b600081518084526020808501945080840160005b83811015620029cb5781518752958201959082019060010162002b45565b60208152600062001925602083018462002b31565b60005b8381101562002b9557818101518382015260200162002b7b565b8381111562001ad95750506000910152565b6000815180845262002bc181602086016020860162002b78565b601f01601f19169290920160200192915050565b602081526000825160a0602084015262002bf360c084018262002ba7565b9050602084015160408401526040840151606084015260608401516080840152608084015160a08401528091505092915050565b600081518084526020808501945080840160005b83811015620029cb57815115158752958201959082019060010162002c3b565b600081516060845262002c72606085018262002c27565b90506020830151848203602086015262002c8d828262002996565b9150506040830151848203604086015262002ca9828262002b31565b95945050505050565b60208152600062001925602083018462002c5b565b6000806040838503121562002cdb57600080fd5b50508035926020909101359150565b60006020828403121562002cfd57600080fd5b81356001600160401b0381111562002d1457600080fd5b62000f8484828501620028d2565b634e487b7160e01b600052603260045260246000fd5b634e487b7160e01b600052601160045260246000fd5b600060001982141562002d655762002d6562002d38565b5060010190565b60006020828403121562002d7f57600080fd5b8151620019258162002754565b6020808252600e908201526d2737ba103cb7bab9103a37b5b2b760911b604082015260600190565b60006001600160401b0382111562002dd05762002dd0620027ea565b5060051b60200190565b8051801515811462002deb57600080fd5b919050565b600082601f83011262002e0257600080fd5b8151602062002e15620028f58362002db4565b82815260059290921b8401810191818101908684111562002e3557600080fd5b8286015b8481101562002e5d57805162002e4f8162002799565b835291830191830162002e39565b509695505050505050565b600082601f83011262002e7a57600080fd5b8151602062002e8d620028f58362002db4565b82815260059290921b8401810191818101908684111562002ead57600080fd5b8286015b8481101562002e5d578051835291830191830162002eb1565b6000602080838503121562002ede57600080fd5b82516001600160401b038082111562002ef657600080fd5b908401906060828703121562002f0b57600080fd5b62002f1562002800565b82518281111562002f2557600080fd5b8301601f8101881362002f3757600080fd5b805162002f48620028f58262002db4565b81815260059190911b8201860190868101908a83111562002f6857600080fd5b928701925b8284101562002f915762002f818462002dda565b8252928701929087019062002f6d565b8452505050828401518281111562002fa857600080fd5b62002fb68882860162002df0565b8583015250604083015193508184111562002fd057600080fd5b62002fde8785850162002e68565b60408201529695505050505050565b600181815b808511156200302e57816000190482111562003012576200301262002d38565b808516156200302057918102915b93841c939080029062002ff2565b509250929050565b6000826200304757506001620026f1565b816200305657506000620026f1565b81600181146200306f57600281146200307a576200309a565b6001915050620026f1565b60ff8411156200308e576200308e62002d38565b50506001821b620026f1565b5060208310610133831016604e8410600b8410161715620030bf575081810a620026f1565b620030cb838362002fed565b8060001904821115620030e257620030e262002d38565b029392505050565b60006200192560ff84168362003036565b6000821982111562003111576200311162002d38565b500190565b600060ff821660ff81141562003130576200313062002d38565b60010192915050565b6060815260006200314e606083018662002c5b565b6020830194909452506001600160a01b0391909116604090910152919050565b600082516200318281846020870162002b78565b9190910192915050565b6000602082840312156200319f57600080fd5b620019258262002dda565b600060208284031215620031bd57600080fd5b5051919050565b600060208284031215620031d757600080fd5b81516001600160401b0380821115620031ef57600080fd5b9083019060c082860312156200320457600080fd5b6200320e6200282b565b82516200321b8162002799565b815260208301516200322d8162002799565b60208201526040830151828111156200324557600080fd5b620032538782860162002df0565b60408301525060608301516060820152608083015160808201526200327b60a0840162002dda565b60a082015295945050505050565b6000828210156200329e576200329e62002d38565b500390565b600060ff821660ff841680821015620032c057620032c062002d38565b90039392505050565b600060ff821660ff84168060ff03821115620032e957620032e962002d38565b019392505050565b6000602082840312156200330457600080fd5b8151620019258162002799565b600060ff821660ff84168160ff0481118215151615620030e257620030e262002d38565b60a0815260006200334a60a083018862002ba7565b82810360208401526200335e818862002ba7565b6001600160a01b0396871660408501529490951660608301525060ff919091166080909101529392505050565b6001600160a01b038616815260a06020808301829052600091620033b29084018862002c27565b838103604085015286518082528288019183019060005b81811015620033ea57835160ff1683529284019291840191600101620033c9565b5050848103606086015262003400818862002b31565b92505050828103608084015262003418818562002ba7565b98975050505050505050565b6000602082840312156200343757600080fd5b81516001600160401b038111156200344e57600080fd5b62000f848482850162002e68565b600082601f8301126200346e57600080fd5b81516200347f620028f582620028a8565b8181528460208386010111156200349557600080fd5b62000f8482602083016020870162002b78565b600060208284031215620034bb57600080fd5b81516001600160401b0380821115620034d357600080fd5b9083019060a08286031215620034e857600080fd5b620034f262002850565b8251828111156200350257600080fd5b62003510878286016200345c565b8252506020830151602082015260408301516040820152606083015160608201526080830151608082015280935050505092915050565b6000826200356557634e487b7160e01b600052601260045260246000fd5b500690565b6000602082840312156200357d57600080fd5b81516001600160401b03808211156200359557600080fd5b9083019060a08286031215620035aa57600080fd5b620035b462002850565b8251620035c18162002799565b8152602083015182811115620035d657600080fd5b620035e48782860162002df0565b6020830152506040830151620035fa8162002799565b60408201526200360d6060840162002dda565b60608201526080830151828111156200362557600080fd5b62003633878286016200345c565b6080830152509594505050505056fe60806040523480156200001157600080fd5b50604051620029243803806200292483398101604081905262000034916200022e565b8451859085906200004d906003906020850190620000a2565b50805162000063906004906020840190620000a2565b5050600c80546001600160a01b039586166001600160a01b031991821617909155600d80549490951693169290921790925550600855506200030b9050565b828054620000b090620002ce565b90600052602060002090601f016020900481019282620000d457600085556200011f565b82601f10620000ef57805160ff19168380011785556200011f565b828001600101855582156200011f579182015b828111156200011f57825182559160200191906001019062000102565b506200012d92915062000131565b5090565b5b808211156200012d576000815560010162000132565b634e487b7160e01b600052604160045260246000fd5b600082601f8301126200017057600080fd5b81516001600160401b03808211156200018d576200018d62000148565b604051601f8301601f19908116603f01168101908282118183101715620001b857620001b862000148565b81604052838152602092508683858801011115620001d557600080fd5b600091505b83821015620001f95785820183015181830184015290820190620001da565b838211156200020b5760008385830101525b9695505050505050565b6001600160a01b03811681146200022b57600080fd5b50565b600080600080600060a086880312156200024757600080fd5b85516001600160401b03808211156200025f57600080fd5b6200026d89838a016200015e565b965060208801519150808211156200028457600080fd5b5062000293888289016200015e565b9450506040860151620002a68162000215565b6060870151909350620002b98162000215565b80925050608086015190509295509295909350565b600181811c90821680620002e357607f821691505b602082108114156200030557634e487b7160e01b600052602260045260246000fd5b50919050565b612609806200031b6000396000f3fe6080604052600436106101b75760003560e01c806372a2377f116100ec578063c7f067441161008a578063cd9f092111610064578063cd9f0921146104f6578063dd62ed3e146104fe578063f798e5251461051e578063fd0232b21461053e57600080fd5b8063c7f0674414610489578063ca6d56dc146104a9578063ccf25b4d146104c957600080fd5b806399103d1f116100c657806399103d1f14610409578063a457c2d714610429578063a9059cbb14610449578063aa887bb61461046957600080fd5b806372a2377f146103b25780637c0f6b35146103d257806395d89b41146103f457600080fd5b8063405664881161015957806355f6e5071161013357806355f6e5071461031a5780635d1ca631146103475780636586737a1461035c57806370a082311461037c57600080fd5b806340566488146102c157806341c0e1b5146102e357806344a96ce0146102fa57600080fd5b806323b872dd1161019557806323b872dd146102365780632f54bf6e14610256578063313ce5671461028557806339509351146102a157600080fd5b806306fdde03146101bc578063095ea7b3146101e757806318160ddd14610217575b600080fd5b3480156101c857600080fd5b506101d161056b565b6040516101de9190611f40565b60405180910390f35b3480156101f357600080fd5b50610207610202366004611f76565b6105fd565b60405190151581526020016101de565b34801561022357600080fd5b506002545b6040519081526020016101de565b34801561024257600080fd5b50610207610251366004611fa0565b610617565b34801561026257600080fd5b50610207610271366004611fdc565b600c546001600160a01b0391821691161490565b34801561029157600080fd5b50604051601281526020016101de565b3480156102ad57600080fd5b506102076102bc366004611f76565b61063b565b3480156102cd57600080fd5b506102d661065d565b6040516101de9190612032565b3480156102ef57600080fd5b506102f8610855565b005b34801561030657600080fd5b506102f86103153660046120a4565b6108ab565b34801561032657600080fd5b5061033a610335366004611fdc565b610909565b6040516101de919061210b565b34801561035357600080fd5b50600854610228565b34801561036857600080fd5b506102f86103773660046121bc565b6109d3565b34801561038857600080fd5b50610228610397366004611fdc565b6001600160a01b031660009081526020819052604090205490565b3480156103be57600080fd5b506102f86103cd3660046121f1565b610a6e565b3480156103de57600080fd5b506103e7610bc6565b6040516101de919061220a565b34801561040057600080fd5b506101d1610d27565b34801561041557600080fd5b506102f8610424366004612269565b610d36565b34801561043557600080fd5b50610207610444366004611f76565b610f5b565b34801561045557600080fd5b50610207610464366004611f76565b610fd6565b34801561047557600080fd5b506102f8610484366004611fdc565b610fe4565b34801561049557600080fd5b506102f86104a43660046121f1565b611229565b3480156104b557600080fd5b506102f86104c4366004611fdc565b611336565b3480156104d557600080fd5b506104e96104e436600461233e565b611565565b6040516101de9190612359565b6102f86116f2565b34801561050a57600080fd5b506102286105193660046123f7565b611795565b34801561052a57600080fd5b506102f861053936600461242a565b6117c0565b34801561054a57600080fd5b5061055e6105593660046121f1565b6119ea565b6040516101de9190612454565b60606003805461057a90612467565b80601f01602080910402602001604051908101604052809291908181526020018280546105a690612467565b80156105f35780601f106105c8576101008083540402835291602001916105f3565b820191906000526020600020905b8154815290600101906020018083116105d657829003601f168201915b5050505050905090565b60003361060b818585611ab9565b60019150505b92915050565b600033610625858285611bdd565b610630858585611c57565b506001949350505050565b60003361060b81858561064e8383611795565b61065891906124b2565b611ab9565b6060600b54600014156106b55760408051600080825260208201909252906106af565b604080516060808201835260008083526020830152918101919091528152602001906001900390816106805790505b50905090565b6000600b5467ffffffffffffffff8111156106d2576106d2612119565b60405190808252806020026020018201604052801561071f57816020015b604080516060808201835260008083526020830152918101919091528152602001906001900390816106f05790505b50905060005b600b5481101561084f5760008181526007602052604090205460ff1615156001141561083d576000818152600760209081526040918290208251606081018452815460ff81161515825261010090046001600160a01b03169281019290925260018101805491938492908401919061079c90612467565b80601f01602080910402602001604051908101604052809291908181526020018280546107c890612467565b80156108155780601f106107ea57610100808354040283529160200191610815565b820191906000526020600020905b8154815290600101906020018083116107f857829003601f168201915b505050505081525050838381518110610830576108306124ca565b6020026020010181905250505b80610847816124e0565b915050610725565b50919050565b600c546001600160a01b03163314806108785750600d546001600160a01b031633145b61089d5760405162461bcd60e51b8152600401610894906124fb565b60405180910390fd5b600c546001600160a01b0316ff5b600c546001600160a01b03163314806108ce5750600d546001600160a01b031633145b6108ea5760405162461bcd60e51b8152600401610894906124fb565b6000908152600660205260409020805460ff1916911515919091179055565b610911611e25565b610919611e25565b60005b600a548110156109cc576000818152600660205260409020600401546001600160a01b03858116911614156109ba57600081815260066020908152604091829020825160c081018452815460ff8082161515835261010090910416928101929092526001810154928201929092526002820154606082015260038201546001600160a01b03908116608083015260049092015490911660a082015291505b806109c4816124e0565b91505061091c565b5092915050565b604080516060810182526001808252336020808401918252838501868152600b54600090815260078352959095208451815493516001600160a81b0319909416901515610100600160a81b031916176101006001600160a01b03909416939093029290921782559351805193949193610a53938501929190910190611e5a565b5050600b805491506000610a66836124e0565b919050555050565b60008181526007602052604090205460ff161515600114610ad15760405162461bcd60e51b815260206004820181905260248201527f5468697320696e7669746174696f6e206973206e6f206d6f72652076616c69646044820152606401610894565b6000805b600a54811015610b17576000818152600660205260409020600401546001600160a01b0316331415610b05578091505b80610b0f816124e0565b915050610ad5565b5060008281526007602052604090205461010090046001600160a01b0316331480610b91575060008181526006602052604090205460ff1615156001148015610b91575060008181526006602090815260408083205460ff6101009091048116845260059092529091205464010000000090041615156001145b610bad5760405162461bcd60e51b815260040161089490612523565b506000908152600760205260409020805460ff19169055565b6060600a5460001415610c095760408051600080825260208201909252906106af565b610bf1611e25565b815260200190600190039081610be957905050905090565b6000600a5467ffffffffffffffff811115610c2657610c26612119565b604051908082528060200260200182016040528015610c5f57816020015b610c4c611e25565b815260200190600190039081610c445790505b50905060005b600a5481101561084f5760008181526006602052604090205460ff16151560011415610d1557600081815260066020908152604091829020825160c081018452815460ff8082161515835261010090910416928101929092526001810154928201929092526002820154606082015260038201546001600160a01b03908116608083015260048301541660a08201528351849084908110610d0857610d086124ca565b6020026020010181905250505b80610d1f816124e0565b915050610c65565b60606004805461057a90612467565b600c546001600160a01b0316331480610d595750600d546001600160a01b031633145b610d755760405162461bcd60e51b8152600401610894906124fb565b60008a60ff16118015610d8b5750600a8a60ff16105b610dc65760405162461bcd60e51b815260206004820152600c60248201526b06260408ee4c2c8ca409ac2f60a31b6044820152606401610894565b6040518061012001604052808a15158152602001891515815260200188151581526020018715158152602001861515815260200185151581526020018415158152602001831515815260200182815250600560008c60ff1660ff16815260200190815260200160002060008201518160000160006101000a81548160ff02191690831515021790555060208201518160000160016101000a81548160ff02191690831515021790555060408201518160000160026101000a81548160ff02191690831515021790555060608201518160000160036101000a81548160ff02191690831515021790555060808201518160000160046101000a81548160ff02191690831515021790555060a08201518160000160056101000a81548160ff02191690831515021790555060c08201518160000160066101000a81548160ff02191690831515021790555060e08201518160000160076101000a81548160ff021916908315150217905550610100820151816001019080519060200190610f4c929190611e5a565b50505050505050505050505050565b60003381610f698286611795565b905083811015610fc95760405162461bcd60e51b815260206004820152602560248201527f45524332303a2064656372656173656420616c6c6f77616e63652062656c6f77604482015264207a65726f60d81b6064820152608401610894565b6106308286868403611ab9565b60003361060b818585611c57565b60008060005b600a54811015611055576000818152600660205260409020600401546001600160a01b031633141561101a578092505b6000818152600660205260409020600401546001600160a01b0385811691161415611043578091505b8061104d816124e0565b915050610fea565b5060008281526006602090815260408083205460ff610100909104811684526005909252909120546401000000009004161515600114806110a05750600c546001600160a01b031633145b806110b55750600d546001600160a01b031633145b6110d15760405162461bcd60e51b815260040161089490612565565b6000818152600660205260408082205484835291205460ff6101009283900481169290910416118061110d5750600c546001600160a01b031633145b806111225750600d546001600160a01b031633145b61116e5760405162461bcd60e51b815260206004820152601c60248201527f596f75722072616e6b206973206e6f74206869676820656e6f756768000000006044820152606401610894565b60008181526006602052604090205460ff16151560011480156111a4575060008281526006602052604090205460ff1615156001145b6111c05760405162461bcd60e51b8152600401610894906125ab565b600081815260066020526040808220600481015460029091015491516001600160a01b039091169282156108fc02929190818181858888f1935050505015801561120e573d6000803e3d6000fd5b506000908152600660205260409020805460ff191690555050565b6000805b600a5481101561126f576000818152600660205260409020600401546001600160a01b031633141561125d578091505b80611267816124e0565b91505061122d565b5060008181526006602052604090205460ff1615156001146112a35760405162461bcd60e51b8152600401610894906125ab565b6000818152600660205260409020600201548211156113045760405162461bcd60e51b815260206004820152601a60248201527f4e6f7420656e6f7567746820657468657220696e2063686573740000000000006044820152606401610894565b604051339083156108fc029084906000818181858888f19350505050158015611331573d6000803e3d6000fd5b505050565b60008060005b600a5481101561137e576000818152600660205260409020600401546001600160a01b031633141561136c578092505b80611376816124e0565b91505061133c565b5060005b600b548110156113c9576000818152600760205260409020546001600160a01b038581166101009092041614156113b7578091505b806113c1816124e0565b915050611382565b5060008181526006602052604090205460ff16151560011461141e5760405162461bcd60e51b815260206004820152600e60248201526d155cd95c881b9bdd081d985b1a5960921b6044820152606401610894565b60008281526006602052604090205460ff1615156001148015611471575060008281526006602090815260408083205460ff61010090910481168452600590925290912054630100000090041615156001145b61148d5760405162461bcd60e51b815260040161089490612523565b6040805160c08101825260008082526020808301828152428486019081526060850184815233608087019081526001600160a01b038b811660a08901908152600980548952600690975289882098518954965161ffff1990971690151561ff0019161761010060ff909716969096029590951788559251600188015590516002870155516003860180546001600160a01b0319908116928416929092179055915160049095018054909216941693909317909255838152918220805460ff1916905580549161155b836124e0565b9190505550505050565b604080516101208101825260008082526020820181905291810182905260608082018390526080820183905260a0820183905260c0820183905260e082019290925261010081019190915260ff808316600090815260056020908152604091829020825161012081018452815480861615158252610100808204871615159483019490945262010000810486161515948201949094526301000000840485161515606082015264010000000084048516151560808201526501000000000084048516151560a0820152660100000000000084048516151560c0820152600160381b909304909316151560e08301526001830180549293929184019161166990612467565b80601f016020809104026020016040519081016040528092919081815260200182805461169590612467565b80156116e25780601f106116b7576101008083540402835291602001916116e2565b820191906000526020600020905b8154815290600101906020018083116116c557829003601f168201915b5050505050815250509050919050565b6000805b600a54811015611738576000818152600660205260409020600401546001600160a01b0316331415611726578091505b80611730816124e0565b9150506116f6565b5060008181526006602052604090205460ff16151560011461176c5760405162461bcd60e51b8152600401610894906125ab565b6000818152600660205260408120600201805434929061178d9084906124b2565b909155505050565b6001600160a01b03918216600090815260016020908152604080832093909416825291909152205490565b60008060005b600a54811015611831576000818152600660205260409020600401546001600160a01b03163314156117f6578092505b6000818152600660205260409020600401546001600160a01b038681169116141561181f578091505b80611829816124e0565b9150506117c6565b5060008281526006602090815260408083205460ff61010090910481168452600590925290912054600160381b90041615156001148061187b5750600c546001600160a01b031633145b806118905750600d546001600160a01b031633145b6118ac5760405162461bcd60e51b815260040161089490612565565b60008281526006602052604090205460ff80851661010090920416108015906118f857506000818152600660205260408082205484835291205460ff6101009283900481169290910416115b8061190d5750600c546001600160a01b031633145b806119225750600d546001600160a01b031633145b61196e5760405162461bcd60e51b815260206004820152601c60248201527f596f75722072616e6b206973206e6f74206869676820656e6f756768000000006044820152606401610894565b60008181526006602052604090205460ff16151560011480156119a4575060008281526006602052604090205460ff1615156001145b6119c05760405162461bcd60e51b8152600401610894906125ab565b506000908152600660205260409020805460ff9092166101000261ff001990921691909117905550565b6040805160608082018352600080835260208301529181019190915260008281526007602052604090205460ff161515600114611a695760405162461bcd60e51b815260206004820181905260248201527f5468697320696e7669746174696f6e206973206e6f206d6f72652076616c69646044820152606401610894565b6000828152600760209081526040918290208251606081018452815460ff81161515825261010090046001600160a01b031692810192909252600181018054929391929184019161166990612467565b6001600160a01b038316611b1b5760405162461bcd60e51b8152602060048201526024808201527f45524332303a20617070726f76652066726f6d20746865207a65726f206164646044820152637265737360e01b6064820152608401610894565b6001600160a01b038216611b7c5760405162461bcd60e51b815260206004820152602260248201527f45524332303a20617070726f766520746f20746865207a65726f206164647265604482015261737360f01b6064820152608401610894565b6001600160a01b0383811660008181526001602090815260408083209487168084529482529182902085905590518481527f8c5be1e5ebec7d5bd14f71427d1e84f3dd0314c0f7b2291e5b200ac8c7c3b925910160405180910390a3505050565b6000611be98484611795565b90506000198114611c515781811015611c445760405162461bcd60e51b815260206004820152601d60248201527f45524332303a20696e73756666696369656e7420616c6c6f77616e63650000006044820152606401610894565b611c518484848403611ab9565b50505050565b6001600160a01b038316611cbb5760405162461bcd60e51b815260206004820152602560248201527f45524332303a207472616e736665722066726f6d20746865207a65726f206164604482015264647265737360d81b6064820152608401610894565b6001600160a01b038216611d1d5760405162461bcd60e51b815260206004820152602360248201527f45524332303a207472616e7366657220746f20746865207a65726f206164647260448201526265737360e81b6064820152608401610894565b6001600160a01b03831660009081526020819052604090205481811015611d955760405162461bcd60e51b815260206004820152602660248201527f45524332303a207472616e7366657220616d6f756e7420657863656564732062604482015265616c616e636560d01b6064820152608401610894565b6001600160a01b03808516600090815260208190526040808220858503905591851681529081208054849290611dcc9084906124b2565b92505081905550826001600160a01b0316846001600160a01b03167fddf252ad1be2c89b69c2b068fc378daa952ba7f163c4a11628f55a4df523b3ef84604051611e1891815260200190565b60405180910390a3611c51565b6040805160c081018252600080825260208201819052918101829052606081018290526080810182905260a081019190915290565b828054611e6690612467565b90600052602060002090601f016020900481019282611e885760008555611ece565b82601f10611ea157805160ff1916838001178555611ece565b82800160010185558215611ece579182015b82811115611ece578251825591602001919060010190611eb3565b50611eda929150611ede565b5090565b5b80821115611eda5760008155600101611edf565b6000815180845260005b81811015611f1957602081850181015186830182015201611efd565b81811115611f2b576000602083870101525b50601f01601f19169290920160200192915050565b602081526000611f536020830184611ef3565b9392505050565b80356001600160a01b0381168114611f7157600080fd5b919050565b60008060408385031215611f8957600080fd5b611f9283611f5a565b946020939093013593505050565b600080600060608486031215611fb557600080fd5b611fbe84611f5a565b9250611fcc60208501611f5a565b9150604084013590509250925092565b600060208284031215611fee57600080fd5b611f5382611f5a565b80511515825260018060a01b036020820151166020830152600060408201516060604085015261202a6060850182611ef3565b949350505050565b6000602080830181845280855180835260408601915060408160051b870101925083870160005b8281101561208757603f19888603018452612075858351611ff7565b94509285019290850190600101612059565b5092979650505050505050565b80358015158114611f7157600080fd5b600080604083850312156120b757600080fd5b611f9283612094565b80511515825260208082015160ff169083015260408082015190830152606080820151908301526080808201516001600160a01b039081169184019190915260a09182015116910152565b60c0810161061182846120c0565b634e487b7160e01b600052604160045260246000fd5b600082601f83011261214057600080fd5b813567ffffffffffffffff8082111561215b5761215b612119565b604051601f8301601f19908116603f0116810190828211818310171561218357612183612119565b8160405283815286602085880101111561219c57600080fd5b836020870160208301376000602085830101528094505050505092915050565b6000602082840312156121ce57600080fd5b813567ffffffffffffffff8111156121e557600080fd5b61202a8482850161212f565b60006020828403121561220357600080fd5b5035919050565b6020808252825182820181905260009190848201906040850190845b8181101561224c576122398385516120c0565b9284019260c09290920191600101612226565b50909695505050505050565b803560ff81168114611f7157600080fd5b6000806000806000806000806000806101408b8d03121561228957600080fd5b6122928b612258565b99506122a060208c01612094565b98506122ae60408c01612094565b97506122bc60608c01612094565b96506122ca60808c01612094565b95506122d860a08c01612094565b94506122e660c08c01612094565b93506122f460e08c01612094565b92506123036101008c01612094565b91506101208b013567ffffffffffffffff81111561232057600080fd5b61232c8d828e0161212f565b9150509295989b9194979a5092959850565b60006020828403121561235057600080fd5b611f5382612258565b6020815261236c60208201835115159052565b60006020830151612381604084018215159052565b5060408301518015156060840152506060830151801515608084015250608083015180151560a08401525060a083015180151560c08401525060c083015180151560e08401525060e08301516101006123dd8185018315159052565b84015161012084810152905061202a610140840182611ef3565b6000806040838503121561240a57600080fd5b61241383611f5a565b915061242160208401611f5a565b90509250929050565b6000806040838503121561243d57600080fd5b61244683611f5a565b915061242160208401612258565b602081526000611f536020830184611ff7565b600181811c9082168061247b57607f821691505b6020821081141561084f57634e487b7160e01b600052602260045260246000fd5b634e487b7160e01b600052601160045260246000fd5b600082198211156124c5576124c561249c565b500190565b634e487b7160e01b600052603260045260246000fd5b60006000198214156124f4576124f461249c565b5060010190565b6020808252600e908201526d139bdd081e5bdd5c8819dd5a5b1960921b604082015260600190565b60208082526022908201527f596f757220617265206e6f7420617574686f72697a656420746f20646f207468604082015261697360f01b606082015260800190565b60208082526026908201527f596f75722072616e6b20646f6573206e6f7420617574686f72697a6520757067604082015265726164696e6760d01b606082015260800190565b6020808252600e908201526d2737ba103b30b634b2103ab9b2b960911b60408201526060019056fea26469706673582212208ccf8bbf68f2ee0112a92f4cf156f76d440aba5ef708886e2725ccd9d1a76f1064736f6c634300080b0033a2646970667358221220e156064409e40db9fc26c95a102c98c22d8d759985d4f1dccc4754f9f1486eb164736f6c634300080b0033",
  "immutableReferences": {},
  "source": "// SPDX-License-Identifier: MIT\n// Delegation contract\npragma solidity ^0.8.0;\n\nimport \"@openzeppelin/contracts/access/Ownable.sol\";\nimport \"./Items.sol\";\nimport \"./Guild.sol\";\nimport \"./Class.sol\";\nimport \"./Quest.sol\";\nimport \"./Hero.sol\";\n\ncontract DelegateContract is Ownable {\n  constructor(\n    address _addressHero,\n    address _addressQuest,\n    address _addressClass\n  ) {\n    /*addressHero = _addressHero;\n    addressQuest = _addressQuest;\n    addressClass = _addressClass;\n    Hero contrat = Hero(addressHero);\n    paramsContract[\"nextId\"] = contrat.getParamsContract(\"nextId\");\n    paramsContract[\"price\"] = 100000000000000000; //dev:100000000000000000000 == 100 eth\n    paramsContract[\"totalPnt\"] = 5;\n    paramsContract[\"tokenLimit\"] = 10000;\n    paramsContract[\"nonce\"] = 0;\n    paramsContract[\"expForLevelUp\"] = 100;*/\n  }\n\n  address addressHero;\n  address addressQuest;\n  address addressClass;\n  address addressMYOSToken;\n  mapping(string => uint256) paramsContract;\n  mapping(uint256 => address) items;\n  mapping(address => Guild) guilds; //address = creator\n  mapping(uint256 => address) addressGuilds; //address = creator\n  uint8 countItems;\n  uint8 countGuilds;\n\n  /**\n    Crer une guild en crant directement un contrat li\n    Puis ajout ce contrat au map guilds\n     */\n  function createGuild(\n    address _by,\n    string memory name,\n    string memory symbol\n  ) external {\n    require(address(guilds[_by]) == address(0), \"You already have guild\");\n    guilds[_by] = new Guild(name, symbol, payable(msg.sender), owner(), countGuilds);\n    addressGuilds[countGuilds] = _by;\n    countGuilds++;\n  }\n\n  /**\n    Supprim une guilde en supprimant galement son contrat\n    ATTENTION, la totalit de l'ether contenu dessus attrit chez le crateur du contrat\n     */\n  function deleteGuild(address _by) external {\n    require(address(guilds[_by]) != address(0), \"Guild not exist\");\n    require(guilds[_by].isOwner(msg.sender), \"Is not your guild\");\n    guilds[_by].kill();\n    addressGuilds[guilds[_by].getId()] = address(0);\n  }\n\n  /**\n    Rcuprer l'addresse d'un contrat de guild avec l'address du crateur\n     */\n  function getOneGuildAddress(address _by) external view returns (address) {\n    require(address(guilds[_by]) != address(0), \"Guild not exist\");\n    return address(guilds[_by]);\n  }\n\n  /**\n    Rcuprer la totalit des addresse de guilds\n     */\n  function getAddressGuilds() external view returns (address[] memory) {\n    address[] memory result = new address[](countGuilds);\n    uint256 resultIndex = 0;\n    uint256 i;\n    for (i = 0; i < countGuilds; i++) {\n      if (addressGuilds[i] != address(0)) {\n        result[resultIndex] = addressGuilds[i];\n        resultIndex++;\n      }\n    }\n    return result;\n  }\n\n  /**\n    Mttre a jour l'addresse de destination du contrat officiel pour que le contrat de dlgation puisse y accder\n     */\n  function setaddressHero(address _addressHero) external onlyOwner {\n    addressHero = _addressHero;\n  }\n\n  /**\n    Mttre  jour un paramtre du contrat de dlgation\n    */\n  function setParamsContract(string memory keyParams, uint256 valueParams)\n    external\n    onlyOwner\n  {\n    paramsContract[keyParams] = valueParams;\n  }\n\n  /**\n    rcuprer une valeur du tableau de paramtre du contrat de dlgation\n    */\n  function getParamsContract(string memory keyParams) external view returns (uint256) {\n    return paramsContract[keyParams];\n  }\n\n  /**\n    appel vers le contrat officiel du jeton\n    Mttre a jour un paramtre du contrat officiel depuis le contrat de dlgation\n     */\n  function setParamsDelegate(string memory keyParams, uint256 valueParams) internal {\n    Hero contrat = Hero(addressHero);\n    contrat.setParamsContract(keyParams, valueParams);\n  }\n\n  function setAddressItem(address item, uint256 idItem) external {\n    items[idItem] = item;\n    countItems++;\n  }\n\n  function getAddressItems() external view returns (address[] memory) {\n    address[] memory result = new address[](countItems);\n    uint256 resultIndex = 0;\n    uint256 i;\n    for (i = 0; i < countItems; i++) {\n      result[resultIndex] = items[i];\n      resultIndex++;\n    }\n    return result;\n  }\n\n  function getAddressItem(uint256 idItem) external view returns (address) {\n    return items[idItem];\n  }\n\n  function getParamsItem(address addressItem) external view returns (Items.Item memory) {\n    Items contratItems = Items(addressItem);\n    Items.Item memory itemTemp = contratItems.getItemDetails(msg.sender);\n    return itemTemp;\n  }\n\n  function getBalanceOfItem(uint256 idItem) external view returns (uint256) {\n    Items itemContrat = Items(items[idItem]);\n    //return itemContrat.balanceOf(msg.sender);\n    return itemContrat.balanceOf(msg.sender);\n  }\n\n  /**\n    achat d'une ressource contre de l'eth/MATIC\n     */\n  function buyItem(address payable addressItem, uint256 value) public payable {\n    (bool sent, bytes memory data) = addressItem.call{ value: msg.value }(\n      abi.encodeWithSignature(\"buyItem(uint256,address)\", value, msg.sender)\n    );\n    require(sent, \"Failed to send Ether\");\n  }\n\n  /**\n    Vente du jeton contre de l'eth/MATIC\n     */\n  function sellItem(address addressItem, uint256 value) public {\n    Items itemContrat = Items(addressItem);\n    itemContrat.sellItem(value, msg.sender);\n  }\n\n  function depositItem(address addressItem) public payable {\n    (bool sent, bytes memory data) = addressItem.call{ value: msg.value }(\n      abi.encodeWithSignature(\"deposit()\")\n    );\n    require(sent, \"Failed to send Ether\");\n  }\n\n  function getCurrentPrice(address addressItem) public view returns (uint256) {\n    Items itemContrat = Items(addressItem);\n    return itemContrat.getCurrentPrice();\n  }\n\n  /**\n    appel vers le contrat officiel du jeton\n    Offrir un ou plusieurs token a un utilisateur\n     */\n  // function giveToken(\n  //   address to,\n  //   uint8 generation,\n  //   string memory _tokenUri\n  // ) external onlyOwner {\n  //   require(paramsContract[\"tokenLimit\"] > 0, \"No remaining\");\n  //   bool[] memory booleans = new bool[](20);\n  //   uint8[] memory randomParts = randomParams8(0);\n  //   uint256[] memory randomParams = randomParams256(paramsContract[\"price\"], generation);\n  //   paramsContract[\"nextId\"]++;\n\n  //   Hero contrat = Hero(addressHero);\n  //   contrat.mint(to, booleans, randomParts, randomParams, _tokenUri);\n  // }\n\n  /**\n    appel vers le contrat officiel du jeton\n    Modifier les paramtre d'un token et l'envoy au contrat de token pour le mttre a jour\n     */\n  function mintDelegate(\n    uint8 generation,\n    uint8 peuple,\n    string memory _tokenUri\n  ) external payable {\n    require(msg.value >= paramsContract[\"price\"], \"More ETH required\");\n    require(paramsContract[\"tokenLimit\"] > 0, \"No remaining\");\n    bool[] memory booleans = new bool[](20);\n    uint8[] memory randomParts = randomParams8(peuple);\n    uint256[] memory randomParams = randomParams256(msg.value, generation);\n    paramsContract[\"nextId\"]++;\n\n    Hero contrat = Hero(addressHero);\n    contrat.mint(msg.sender, booleans, randomParts, randomParams, _tokenUri);\n  }\n\n  /**\n    une autre ide pour calculer les stats de dpart, ma prfr\n     */\n  function randomParams8(uint8 peuple) internal virtual returns (uint8[] memory) {\n    /*uint256 totalPnt = paramsContract[\"totalPnt\"];\n        if(paramsContract[\"nextId\"]<paramsContract[\"maxFirstGen\"]){totalPnt += 3;}else\n        if(paramsContract[\"nextId\"]<paramsContract[\"maxSecondGen\"]){totalPnt += 2;}else\n        if(paramsContract[\"nextId\"]<paramsContract[\"maxthirdGen\"]){totalPnt += 1;}*/\n\n    uint8[] memory randomParts = new uint8[](20);\n\n    Class classContrat = Class(addressClass);\n    Class.Classes memory tempClass;\n    tempClass.rarity = 100;\n    for (uint8 index = 0; index < classContrat.getClassCount(); index++) {\n      if (\n        random(100) < classContrat.getClassDetails(index).rarity &&\n        tempClass.rarity > classContrat.getClassDetails(index).rarity\n      ) tempClass = classContrat.getClassDetails(index);\n    }\n    uint8[] memory stats = tempClass.stats;\n    /*uint8 i;\n\n        while(totalPnt>0){\n            if(random(5)>3){\n                stats[i]++;\n                totalPnt--;\n            }\n            if(i<stats.length){i++;}else{i=0;}\n        }*/\n\n    randomParts[0] = stats[0]; //strong\n    randomParts[1] = stats[1]; //endurance\n    randomParts[2] = stats[2]; //concentration\n    randomParts[3] = stats[3]; //agility\n    randomParts[4] = stats[4]; //charisma\n    randomParts[5] = stats[5]; //stealth\n    //randomParts[6] = 0;//exp\n    randomParts[7] = 1; //level\n    randomParts[8] = peuple; //peuple\n    randomParts[9] = tempClass.id; //class\n\n    return randomParts;\n  }\n\n  function randomParams256(uint256 price, uint8 generation)\n    internal\n    virtual\n    returns (uint256[] memory)\n  {\n    uint256[] memory randomParams = new uint256[](10);\n    randomParams[0] = block.timestamp; //date de cration\n    randomParams[1] = price; //prix d'achat\n    randomParams[2] = block.timestamp; //date de la drnire action (il y a une heure) permettant de participer a des missions\n    //randomParams[3] = 0;//Mission choisis (si 0 aucune current mission)\n    //randomParams[4] = 0;//seconds pour finir la mission\n    //randomParams[5] = 0;//difficult de la qute (dtermine l'exp gagn, et les objets % gagn)\n    randomParams[6] = paramsContract[\"nextId\"]; //tokenId\n    randomParams[7] = generation; //type\n    return randomParams;\n  }\n\n  function startQuest(uint256 tokenId, uint256 questId) public {\n    Hero contrat = Hero(addressHero);\n    require(contrat.getOwnerOf(tokenId) == msg.sender, \"Not your token\");\n    /*Quest questContrat = Quest(addressQuest);\n        Quest.Quest memory questTemp =  questContrat.getQuestDetails(questId);\n        require(questTemp.valid == true,\"Quest not exist\");*/\n    Hero.Token memory tokenTemp = contrat.getTokenDetails(tokenId);\n    require(tokenTemp.params256[3] == 0, \"Quest not finished\");\n    tokenTemp.params256[3] = questId;\n    contrat.updateToken(tokenTemp, tokenId, msg.sender);\n  }\n\n  /**\n    Validation de la qute a la fin du comteur time d'une quest\n     */\n  function completeQuest(uint256 tokenId) public {\n    Hero contrat = Hero(addressHero);\n    require(contrat.getOwnerOf(tokenId) == msg.sender, \"Not your token\");\n    Hero.Token memory tokenTemp = contrat.getTokenDetails(tokenId);\n\n    Quest questContrat = Quest(addressQuest);\n    Quest.Quest memory questTemp = questContrat.getQuestDetails(tokenTemp.params256[3]);\n    require(\n      block.timestamp - tokenTemp.params256[2] > (questTemp.time),\n      \"Quest not finished\"\n    ); //BON CA VA PAS REVISER COMPLEMENT LE TIME ET COTER FRONT AUSSI\n    //require(block.timestamp > tokenTemp.params256[2]+(questTemp.time), \"Quest not finished\");//a fonctionnais mais celle du dessus est surement plus propre\n    uint8 malus = 0;\n    for (uint8 index = 0; index < questTemp.stats.length; index++) {\n      if (questTemp.stats[index] > tokenTemp.params8[index]) {\n        malus += questTemp.stats[index] - tokenTemp.params8[index];\n      }\n    }\n    if (random(100 - malus) > questTemp.percentDifficulty) {\n      tokenTemp.params8[6] += questTemp.exp * questContrat.getMultiplicateurExp();\n\n      for (uint256 index = 0; index < countItems; index++) {\n        Items itemtemp = Items(items[index]);\n        if (random256(100000) > itemtemp.getRarity()) {\n          itemtemp.mint(1, msg.sender);\n        }\n      }\n    }\n    tokenTemp.params256[2] = block.timestamp;\n    tokenTemp.params256[3] = 0;\n    tokenTemp.params256[4] = 0;\n\n    contrat.updateToken(tokenTemp, tokenId, msg.sender);\n  }\n\n  function getQuest(uint8 questId) external view returns (Quest.Quest memory) {\n    Quest contrat = Quest(addressQuest);\n    Quest.Quest memory questTemp = contrat.getQuestDetails(questId);\n    return questTemp;\n  }\n\n  /**\n    Quand l'exp est a fond, luser peut rajouter un point ou il veux\n    Rflchir a la logique d'exp max, pour l'instant (100+(?**level))\n    Est ce qu'ont rajouterai pas de faon random des points autres part\n    */\n  function levelUp(uint8 statToLvlUp, uint256 tokenId) public {\n    Hero contrat = Hero(addressHero);\n    require(contrat.getOwnerOf(tokenId) == msg.sender, \"Not your token\");\n    Hero.Token memory tokenTemp = contrat.getTokenDetails(tokenId);\n    require(\n      tokenTemp.params8[6] >\n        (100 + (paramsContract[\"expForLevelUp\"]**tokenTemp.params8[7])),\n      \"experience not enought\"\n    );\n    tokenTemp.params8[statToLvlUp]++;\n    tokenTemp.params8[6] = 0;\n    tokenTemp.params8[7]++;\n\n    contrat.updateToken(tokenTemp, tokenId, msg.sender);\n  }\n\n  /**\n    a finaliser\n     */\n  /*function calculPriceSupply() public{\n        Hero contrat = Hero(addressHero);\n        uint totalSupply = contrat.getParamsContract(\"totalSupply\");\n        //priceInUsd = (item.price/(10**18)) * (latestPrice/10**8)\n    }*/\n\n  /**\n    appel vers le contrat officiel du jeton\n    Modifier les paramtre d'un token et l'envoy au contrat de token pour le mttre a jour\n     */\n  /*function paramsToken(uint256 tokenId,bool[] memory booleans, uint8[] memory params8, uint256[] memory params256) external {\n        \n        Hero contrat = Hero(addressHero);\n        Hero.Token memory tokenTemp =  contrat.getTokenDetails(tokenId);\n        //if(tokenTemp.params256[2] != params256[2]) tokenTemp.params256[0] = block.timestamp;//mettre a jour la date de cration si besoin\n        for (uint8 index = 0; index < booleans.length; index++) {\n            tokenTemp.booleans[index] = booleans[index];\n        }\n        for (uint8 index = 0; index < params8.length; index++) {\n            tokenTemp.params8[index] = params8[index];\n        }\n        for (uint8 index = 0; index < params256.length; index++) {\n            tokenTemp.params256[index] = params256[index];\n        }\n        contrat.updateToken(tokenTemp,tokenId,msg.sender);\n    }*/\n\n  /**\n    appel vers le contrat officiel du jeton\n    Achat d'un token par un utilisateur\n     */\n  /*function purchase(address contactAddr, uint256 tokenId) external payable {\n        Hero contrat = Hero(addressHero);\n        Hero.Token memory token = contrat.getTokenDetails(tokenId);\n        require(msg.value >= token.params256[1], \"Insufficient fonds sent\");\n        require(contrat.getOwnerOf(tokenId) != msg.sender, \"Already Owned\");\n        //contrat.updateToken(token,tokenId,msg.sender);\n        contrat.transfer(contactAddr, msg.sender, tokenId);\n    }*/\n\n  /**\n    appel vers le contrat officiel du jeton\n    rcuprer un tableau d'id des tokens d'un utilisateur\n     */\n  function getAllTokensForUser(address user) external view returns (uint256[] memory) {\n    Hero contrat = Hero(addressHero);\n    return contrat.getAllTokensForUser(user);\n  }\n\n  /**\n    appel vers le contrat officiel du jeton\n    rcuprer les data d'un token avec son id\n     */\n  function getTokenDetails(uint256 tokenId) external view returns (Hero.Token memory) {\n    Hero contrat = Hero(addressHero);\n    return contrat.getTokenDetails(tokenId);\n  }\n\n  function random(uint8 maxNumber) internal returns (uint8) {\n    uint256 randomnumber = uint256(\n      keccak256(abi.encodePacked(block.timestamp, msg.sender, paramsContract[\"nonce\"]))\n    ) % maxNumber;\n    paramsContract[\"nonce\"]++;\n    return uint8(randomnumber);\n  }\n\n  /****************************************\n    UTILS\n     ****************************************/\n\n  function random256(uint256 maxNumber) internal returns (uint256) {\n    uint256 randomnumber = uint256(\n      keccak256(abi.encodePacked(block.timestamp, msg.sender, paramsContract[\"nonce\"]))\n    ) % maxNumber;\n    paramsContract[\"nonce\"]++;\n    return randomnumber;\n  }\n\n  /*FUNDS OF CONTRACT*/\n\n  function withdraw() public onlyOwner {\n    payable(msg.sender).transfer(address(this).balance);\n  }\n\n  function getBalance() public view returns (uint256) {\n    return address(this).balance;\n  }\n}\n",
  "sourcePath": "/home/kevin/Bureau/homework/MYOS/contracts/DelegateContract.sol",
  "compiler": {
    "name": "solc",
    "version": "0.8.11+commit.d7f03943.Emscripten.clang"
  },
  "schemaVersion": "3.4.7",
  "updatedAt": "2022-10-31T19:57:32.376Z",
  "devdoc": {
    "kind": "dev",
    "methods": {
      "owner()": {
        "details": "Returns the address of the current owner."
      },
      "renounceOwnership()": {
        "details": "Leaves the contract without owner. It will not be possible to call `onlyOwner` functions anymore. Can only be called by the current owner. NOTE: Renouncing ownership will leave the contract without an owner, thereby removing any functionality that is only available to the owner."
      },
      "transferOwnership(address)": {
        "details": "Transfers ownership of the contract to a new account (`newOwner`). Can only be called by the current owner."
      }
    },
    "version": 1
  },
  "userdoc": {
    "kind": "user",
    "methods": {
      "buyItem(address,uint256)": {
        "notice": "achat d'une ressource contre de l'eth/MATIC"
      },
      "completeQuest(uint256)": {
        "notice": "Validation de la qute a la fin du comteur time d'une quest"
      },
      "createGuild(address,string,string)": {
        "notice": "Crer une guild en crant directement un contrat li Puis ajout ce contrat au map guilds"
      },
      "deleteGuild(address)": {
        "notice": "Supprim une guilde en supprimant galement son contrat ATTENTION, la totalit de l'ether contenu dessus attrit chez le crateur du contrat"
      },
      "getAddressGuilds()": {
        "notice": "Rcuprer la totalit des addresse de guilds"
      },
      "getAllTokensForUser(address)": {
        "notice": "appel vers le contrat officiel du jeton rcuprer un tableau d'id des tokens d'un utilisateur"
      },
      "getOneGuildAddress(address)": {
        "notice": "Rcuprer l'addresse d'un contrat de guild avec l'address du crateur"
      },
      "getParamsContract(string)": {
        "notice": "rcuprer une valeur du tableau de paramtre du contrat de dlgation"
      },
      "getTokenDetails(uint256)": {
        "notice": "appel vers le contrat officiel du jeton rcuprer les data d'un token avec son id"
      },
      "levelUp(uint8,uint256)": {
        "notice": "Quand l'exp est a fond, luser peut rajouter un point ou il veux Rflchir a la logique d'exp max, pour l'instant (100+(?**level)) Est ce qu'ont rajouterai pas de faon random des points autres part"
      },
      "mintDelegate(uint8,uint8,string)": {
        "notice": "appel vers le contrat officiel du jeton Modifier les paramtre d'un token et l'envoy au contrat de token pour le mttre a jour"
      },
      "sellItem(address,uint256)": {
        "notice": "Vente du jeton contre de l'eth/MATIC"
      },
      "setParamsContract(string,uint256)": {
        "notice": "Mttre  jour un paramtre du contrat de dlgation"
      },
      "setaddressHero(address)": {
        "notice": "Mttre a jour l'addresse de destination du contrat officiel pour que le contrat de dlgation puisse y accder"
      }
    },
    "version": 1
  }
}