{
  "contractName": "DelegateContract",
  "abi": [
    {
      "inputs": [
        {
          "internalType": "address",
          "name": "_addressHero",
          "type": "address"
        },
        {
          "internalType": "address",
          "name": "_addressQuest",
          "type": "address"
        },
        {
          "internalType": "address",
          "name": "_addressClass",
          "type": "address"
        },
        {
          "internalType": "address",
          "name": "_addressItem",
          "type": "address"
        }
      ],
      "stateMutability": "nonpayable",
      "type": "constructor"
    },
    {
      "anonymous": false,
      "inputs": [
        {
          "indexed": true,
          "internalType": "address",
          "name": "previousOwner",
          "type": "address"
        },
        {
          "indexed": true,
          "internalType": "address",
          "name": "newOwner",
          "type": "address"
        }
      ],
      "name": "OwnershipTransferred",
      "type": "event"
    },
    {
      "inputs": [],
      "name": "owner",
      "outputs": [
        {
          "internalType": "address",
          "name": "",
          "type": "address"
        }
      ],
      "stateMutability": "view",
      "type": "function"
    },
    {
      "inputs": [
        {
          "internalType": "string",
          "name": "",
          "type": "string"
        }
      ],
      "name": "paramsContract",
      "outputs": [
        {
          "internalType": "uint256",
          "name": "",
          "type": "uint256"
        }
      ],
      "stateMutability": "view",
      "type": "function"
    },
    {
      "inputs": [],
      "name": "renounceOwnership",
      "outputs": [],
      "stateMutability": "nonpayable",
      "type": "function"
    },
    {
      "inputs": [
        {
          "internalType": "address",
          "name": "newOwner",
          "type": "address"
        }
      ],
      "name": "transferOwnership",
      "outputs": [],
      "stateMutability": "nonpayable",
      "type": "function"
    },
    {
      "inputs": [
        {
          "internalType": "address",
          "name": "_by",
          "type": "address"
        },
        {
          "internalType": "string",
          "name": "name",
          "type": "string"
        },
        {
          "internalType": "string",
          "name": "symbol",
          "type": "string"
        }
      ],
      "name": "createGuild",
      "outputs": [],
      "stateMutability": "nonpayable",
      "type": "function"
    },
    {
      "inputs": [
        {
          "internalType": "address",
          "name": "_by",
          "type": "address"
        }
      ],
      "name": "deleteGuild",
      "outputs": [],
      "stateMutability": "nonpayable",
      "type": "function"
    },
    {
      "inputs": [
        {
          "internalType": "address",
          "name": "_by",
          "type": "address"
        }
      ],
      "name": "getOneGuildAddress",
      "outputs": [
        {
          "internalType": "address",
          "name": "",
          "type": "address"
        }
      ],
      "stateMutability": "view",
      "type": "function"
    },
    {
      "inputs": [],
      "name": "getAddressesGuilds",
      "outputs": [
        {
          "internalType": "address[]",
          "name": "",
          "type": "address[]"
        }
      ],
      "stateMutability": "view",
      "type": "function"
    },
    {
      "inputs": [
        {
          "internalType": "address",
          "name": "_addressHero",
          "type": "address"
        }
      ],
      "name": "setaddressHero",
      "outputs": [],
      "stateMutability": "nonpayable",
      "type": "function"
    },
    {
      "inputs": [
        {
          "internalType": "string",
          "name": "key",
          "type": "string"
        },
        {
          "internalType": "uint256",
          "name": "value",
          "type": "uint256"
        }
      ],
      "name": "setParamsContract",
      "outputs": [],
      "stateMutability": "nonpayable",
      "type": "function"
    },
    {
      "inputs": [
        {
          "internalType": "string",
          "name": "key",
          "type": "string"
        }
      ],
      "name": "getParamsContract",
      "outputs": [
        {
          "internalType": "uint256",
          "name": "",
          "type": "uint256"
        }
      ],
      "stateMutability": "view",
      "type": "function"
    },
    {
      "inputs": [
        {
          "internalType": "uint256",
          "name": "idItem",
          "type": "uint256"
        }
      ],
      "name": "getAddressItem",
      "outputs": [
        {
          "internalType": "address",
          "name": "",
          "type": "address"
        }
      ],
      "stateMutability": "view",
      "type": "function"
    },
    {
      "inputs": [
        {
          "internalType": "uint256",
          "name": "value",
          "type": "uint256"
        },
        {
          "internalType": "address",
          "name": "anotherToken",
          "type": "address"
        }
      ],
      "name": "convertToAnotherToken",
      "outputs": [],
      "stateMutability": "nonpayable",
      "type": "function"
    },
    {
      "inputs": [
        {
          "internalType": "uint256",
          "name": "quantity",
          "type": "uint256"
        },
        {
          "internalType": "address",
          "name": "receiver",
          "type": "address"
        },
        {
          "internalType": "uint256",
          "name": "tokenId",
          "type": "uint256"
        }
      ],
      "name": "buyItem",
      "outputs": [],
      "stateMutability": "payable",
      "type": "function"
    },
    {
      "inputs": [
        {
          "internalType": "uint256",
          "name": "quantity",
          "type": "uint256"
        },
        {
          "internalType": "address",
          "name": "receiver",
          "type": "address"
        },
        {
          "internalType": "uint256",
          "name": "tokenId",
          "type": "uint256"
        }
      ],
      "name": "sellItem",
      "outputs": [],
      "stateMutability": "nonpayable",
      "type": "function"
    },
    {
      "inputs": [
        {
          "internalType": "uint8",
          "name": "generation",
          "type": "uint8"
        },
        {
          "internalType": "uint8",
          "name": "peuple",
          "type": "uint8"
        },
        {
          "internalType": "string",
          "name": "_tokenUri",
          "type": "string"
        }
      ],
      "name": "mintHero",
      "outputs": [],
      "stateMutability": "payable",
      "type": "function"
    },
    {
      "inputs": [
        {
          "internalType": "uint256",
          "name": "tokenId",
          "type": "uint256"
        },
        {
          "internalType": "uint256",
          "name": "questId",
          "type": "uint256"
        }
      ],
      "name": "startQuest",
      "outputs": [],
      "stateMutability": "nonpayable",
      "type": "function"
    },
    {
      "inputs": [
        {
          "internalType": "uint256",
          "name": "tokenId",
          "type": "uint256"
        }
      ],
      "name": "completeQuest",
      "outputs": [],
      "stateMutability": "nonpayable",
      "type": "function"
    },
    {
      "inputs": [
        {
          "internalType": "uint8",
          "name": "statToLvlUp",
          "type": "uint8"
        },
        {
          "internalType": "uint256",
          "name": "tokenId",
          "type": "uint256"
        }
      ],
      "name": "levelUp",
      "outputs": [],
      "stateMutability": "nonpayable",
      "type": "function"
    },
    {
      "inputs": [],
      "name": "withdraw",
      "outputs": [],
      "stateMutability": "nonpayable",
      "type": "function"
    }
  ],
  "bytecode": "0x60806040523480156200001157600080fd5b5060405162005bb538038062005bb583398101604081905262000034916200025e565b6200003f33620001f1565b600180546001600160a01b038087166001600160a01b031992831681179093556002805487831690841617905560038054868316908416179055600480549185169190921617815560405163f26bf0b760e01b815263f26bf0b791620000c091016020808252600690820152651b995e1d125960d21b604082015260600190565b602060405180830381865afa158015620000de573d6000803e3d6000fd5b505050506040513d601f19601f82011682018060405250810190620001049190620002bb565b60408051651b995e1d125960d21b815260056006820181905282519182900360260182209390935564707269636560d81b81528083018390528151908190036025908101822067016345785d8a00009055671d1bdd185b141b9d60c21b8252600882018490528251918290036028018220849055691d1bdad95b931a5b5a5d60b21b8252600a8201849052825191829003602a0182206127109055646e6f6e636560d81b8252818401849052825191829003018120600090556c0657870466f724c6576656c557609c1b8152600d8101929092525190819003602d0190206064905550620002d592505050565b600080546001600160a01b038381166001600160a01b0319831681178455604051919092169283917f8be0079c531659141344cd1fd0a4f28419497f9722a3daafe3b4186f6b6457e09190a35050565b80516001600160a01b03811681146200025957600080fd5b919050565b600080600080608085870312156200027557600080fd5b620002808562000241565b9350620002906020860162000241565b9250620002a06040860162000241565b9150620002b06060860162000241565b905092959194509250565b600060208284031215620002ce57600080fd5b5051919050565b6158d080620002e56000396000f3fe608060405260043610620001375760003560e01c8063715018a611620000ad578063dec74312116200006c578063dec74312146200037f578063e9da3a6514620003b9578063f26bf0b714620003de578063f2fde38b1462000403578063fa84413a146200042857600080fd5b8063715018a614620002d25780638da5cb5b14620002ea578063ac56c43d146200031e578063b77f02e81462000335578063c3c33b40146200035a57600080fd5b80634ae243c111620000fa5780634ae243c114620001f5578063528be0a91462000218578063586e2ee4146200023d5780635f9d45d814620002625780636014cf6814620002ad57600080fd5b80630b275db4146200013c5780633cb1194414620001635780633ccfd60b146200018857806342c3e35814620001a057806348c6309d14620001c5575b600080fd5b3480156200014957600080fd5b50620001616200015b3660046200214b565b6200043f565b005b3480156200017057600080fd5b506200016162000182366004620022be565b62000741565b3480156200019557600080fd5b506200016162000772565b348015620001ad57600080fd5b5062000161620001bf3660046200231c565b620007ac565b348015620001d257600080fd5b50620001dd620009f6565b604051620001ec919062002343565b60405180910390f35b3480156200020257600080fd5b50620001616200021436600462002392565b5050565b3480156200022557600080fd5b506200016162000237366004620023c5565b62000af0565b3480156200024a57600080fd5b50620001616200025c366004620023df565b62000fc0565b3480156200026f57600080fd5b506200029e620002813660046200245d565b805160208183018101805160058252928201919093012091525481565b604051908152602001620001ec565b348015620002ba57600080fd5b5062000161620002cc3660046200249d565b620010f4565b348015620002df57600080fd5b506200016162001397565b348015620002f757600080fd5b506000546001600160a01b03165b6040516001600160a01b039091168152602001620001ec565b620001616200032f3660046200249d565b620013af565b3480156200034257600080fd5b5062000305620003543660046200231c565b620014bc565b3480156200036757600080fd5b506200016162000379366004620024d8565b62001538565b3480156200038c57600080fd5b50620003056200039e366004620023c5565b6000908152600660205260409020546001600160a01b031690565b348015620003c657600080fd5b5062000161620003d83660046200231c565b620017c7565b348015620003eb57600080fd5b506200029e620003fd3660046200245d565b620017f3565b3480156200041057600080fd5b5062000161620004223660046200231c565b6200181d565b6200016162000439366004620024fb565b62001899565b6001546001600160a01b0316336040516331a9108f60e11b8152600481018490526001600160a01b0391821691831690636352211e90602401602060405180830381865afa15801562000496573d6000803e3d6000fd5b505050506040513d601f19601f82011682018060405250810190620004bc91906200255a565b6001600160a01b031614620004ee5760405162461bcd60e51b8152600401620004e5906200257a565b60405180910390fd5b60405163183c06e560e31b8152600481018390526000906001600160a01b0383169063c1e0372890602401600060405180830381865afa15801562000537573d6000803e3d6000fd5b505050506040513d6000823e601f3d908101601f1916820160405262000561919081019062002652565b905080600001516007815181106200057d576200057d6200274a565b60200260200101516005604051620005a8906c0657870466f724c6576656c557609c1b8152600d0190565b908152602001604051809103902054620005c3919062002873565b620005d090606462002884565b815180516006908110620005e857620005e86200274a565b602002602001015160ff16116200063b5760405162461bcd60e51b8152602060048201526016602482015275195e1c195c9a595b98d9481b9bdd08195b9bdd59da1d60521b6044820152606401620004e5565b8051805160ff86169081106200065557620006556200274a565b6020026020010180518091906200066c906200289f565b60ff16905250805180516000919060069081106200068e576200068e6200274a565b60ff90921660209283029190910190910152805180516007908110620006b857620006b86200274a565b602002602001018051809190620006cf906200289f565b60ff169052506040516338bd885760e21b81526001600160a01b0383169063e2f6215c90620007079084908790339060040162002934565b600060405180830381600087803b1580156200072257600080fd5b505af115801562000737573d6000803e3d6000fd5b5050505050505050565b6200074b62001a05565b806005836040516200075e9190620029c6565b908152604051908190036020019020555050565b6200077c62001a05565b60405133904780156108fc02916000818181858888f19350505050158015620007a9573d6000803e3d6000fd5b50565b6001600160a01b0381811660009081526007602052604090205416620008075760405162461bcd60e51b815260206004820152600f60248201526e11dd5a5b19081b9bdd08195e1a5cdd608a1b6044820152606401620004e5565b6001600160a01b0381811660009081526007602052604090205416632f54bf6e336040516001600160e01b031960e084901b1681526001600160a01b039091166004820152602401602060405180830381865afa1580156200086d573d6000803e3d6000fd5b505050506040513d601f19601f82011682018060405250810190620008939190620029f5565b620008d55760405162461bcd60e51b8152602060048201526011602482015270125cc81b9bdd081e5bdd5c8819dd5a5b19607a1b6044820152606401620004e5565b6001600160a01b038082166000908152600760205260408082205481516341c0e1b560e01b815291519316926341c0e1b59260048084019391929182900301818387803b1580156200092657600080fd5b505af11580156200093b573d6000803e3d6000fd5b5050506001600160a01b038083166000908152600760209081526040808320548151635d1ca63160e01b815291519395506008948694911692635d1ca63192600480820193918290030181865afa1580156200099b573d6000803e3d6000fd5b505050506040513d601f19601f82011682018060405250810190620009c1919062002a13565b815260200190815260200160002060006101000a8154816001600160a01b0302191690836001600160a01b0316021790555050565b60095460609060009060ff166001600160401b0381111562000a1c5762000a1c6200217a565b60405190808252806020026020018201604052801562000a46578160200160208202803683370190505b5090506000805b60095460ff1681101562000ae8576000818152600860205260409020546001600160a01b03161562000ad35760008181526008602052604090205483516001600160a01b039091169084908490811062000aab5762000aab6200274a565b6001600160a01b03909216602092830291909101909101528162000acf8162002a2d565b9250505b8062000adf8162002a2d565b91505062000a4d565b509092915050565b6001546001600160a01b0316336040516331a9108f60e11b8152600481018490526001600160a01b0391821691831690636352211e90602401602060405180830381865afa15801562000b47573d6000803e3d6000fd5b505050506040513d601f19601f8201168201806040525081019062000b6d91906200255a565b6001600160a01b03161462000b965760405162461bcd60e51b8152600401620004e5906200257a565b60405163183c06e560e31b8152600481018390526000906001600160a01b0383169063c1e0372890602401600060405180830381865afa15801562000bdf573d6000803e3d6000fd5b505050506040513d6000823e601f3d908101601f1916820160405262000c09919081019062002652565b600254602082015180519293506001600160a01b0390911691600091839163b0f929b09190600390811062000c425762000c426200274a565b60200260200101516040518263ffffffff1660e01b815260040162000c6991815260200190565b600060405180830381865afa15801562000c87573d6000803e3d6000fd5b505050506040513d6000823e601f3d908101601f1916820160405262000cb1919081019062002a4b565b90508060a00151836020015160028151811062000cd25762000cd26200274a565b60200260200101514262000ce7919062002b33565b1162000d2b5760405162461bcd60e51b8152602060048201526012602482015271145d595cdd081b9bdd08199a5b9a5cda195960721b6044820152606401620004e5565b6000805b8260400151518160ff16101562000e09578451805160ff831690811062000d5a5762000d5a6200274a565b602002602001015160ff1683604001518260ff168151811062000d815762000d816200274a565b602002602001015160ff16111562000df4578451805160ff831690811062000dad5762000dad6200274a565b602002602001015183604001518260ff168151811062000dd15762000dd16200274a565b602002602001015162000de5919062002b4d565b62000df1908362002b73565b91505b8062000e00816200289f565b91505062000d2f565b50602082015160ff1662000e2962000e2383606462002b4d565b62001a61565b60ff16111562000edb57826001600160a01b0316636827822e6040518163ffffffff1660e01b8152600401602060405180830381865afa15801562000e72573d6000803e3d6000fd5b505050506040513d601f19601f8201168201806040525081019062000e98919062002b9b565b825162000ea6919062002bbb565b84518051600690811062000ebe5762000ebe6200274a565b6020026020010181815162000ed4919062002b73565b60ff169052505b42846020015160028151811062000ef65762000ef66200274a565b6020026020010181815250506000846020015160038151811062000f1e5762000f1e6200274a565b6020026020010181815250506000846020015160048151811062000f465762000f466200274a565b60209081029190910101526001600160a01b03851663e2f6215c8588335b6040518463ffffffff1660e01b815260040162000f849392919062002934565b600060405180830381600087803b15801562000f9f57600080fd5b505af115801562000fb4573d6000803e3d6000fd5b50505050505050505050565b6001600160a01b038381166000908152600760205260409020541615620010235760405162461bcd60e51b8152602060048201526016602482015275165bdd48185b1c9958591e481a185d994819dd5a5b1960521b6044820152606401620004e5565b8181336000546001600160a01b031660095460405160ff9091169062001049906200212d565b6200105995949392919062002c0d565b604051809103906000f08015801562001076573d6000803e3d6000fd5b506001600160a01b0380851660008181526007602090815260408083208054969095166001600160a01b0319968716179094556009805460ff90811684526008909252938220805490951690921790935581541691620010d6836200289f565b91906101000a81548160ff021916908360ff16021790555050505050565b60048054604051630398026560e51b81529182018390526001600160a01b03169060009082906373004ca090602401600060405180830381865afa15801562001141573d6000803e3d6000fd5b505050506040513d6000823e601f3d908101601f191682016040526200116b919081019062002caf565b60405163f77ee79d60e01b81526004810185905290915085906001600160a01b0384169063f77ee79d90602401602060405180830381865afa158015620011b6573d6000803e3d6000fd5b505050506040513d601f19601f82011682018060405250810190620011dc919062002a13565b1015620012215760405162461bcd60e51b815260206004820152601260248201527127379036b7b932903a3434b9903a37b5b2b760711b6044820152606401620004e5565b604051627eeac760e11b81526001600160a01b0385811660048301526024820185905286919084169062fdd58e90604401602060405180830381865afa15801562001270573d6000803e3d6000fd5b505050506040513d601f19601f8201168201806040525081019062001296919062002a13565b1015620012db5760405162461bcd60e51b815260206004820152601260248201527127379036b7b932903a3434b9903a37b5b2b760711b6044820152606401620004e5565b836001600160a01b03166108fc868360400151620012fa919062002d61565b6040518115909202916000818181858888f1935050505015801562001323573d6000803e3d6000fd5b50604051637a94c56560e11b81526001600160a01b038581166004830152602482018590526044820187905283169063f5298aca906064015b600060405180830381600087803b1580156200137757600080fd5b505af11580156200138c573d6000803e3d6000fd5b505050505050505050565b620013a162001a05565b620013ad600062001a77565b565b60048054604051630398026560e51b81529182018390526001600160a01b03169060009082906373004ca090602401600060405180830381865afa158015620013fc573d6000803e3d6000fd5b505050506040513d6000823e601f3d908101601f1916820160405262001426919081019062002caf565b90508481604001516200143a919062002d61565b3410156200147f5760405162461bcd60e51b8152602060048201526011602482015270135bdc9948115512081c995c5d5a5c9959607a1b6044820152606401620004e5565b604051630ab714fb60e11b81526001600160a01b038581166004830152602482018590526044820187905283169063156e29f6906064016200135c565b6001600160a01b03818116600090815260076020526040812054909116620015195760405162461bcd60e51b815260206004820152600f60248201526e11dd5a5b19081b9bdd08195e1a5cdd608a1b6044820152606401620004e5565b506001600160a01b039081166000908152600760205260409020541690565b6001546001600160a01b0316336040516331a9108f60e11b8152600481018590526001600160a01b0391821691831690636352211e90602401602060405180830381865afa1580156200158f573d6000803e3d6000fd5b505050506040513d601f19601f82011682018060405250810190620015b591906200255a565b6001600160a01b031614620015de5760405162461bcd60e51b8152600401620004e5906200257a565b600254604051630b0f929b60e41b8152600481018490526001600160a01b0390911690600090829063b0f929b090602401600060405180830381865afa1580156200162d573d6000803e3d6000fd5b505050506040513d6000823e601f3d908101601f1916820160405262001657919081019062002a4b565b60405163183c06e560e31b8152600481018790529091506000906001600160a01b0385169063c1e0372890602401600060405180830381865afa158015620016a3573d6000803e3d6000fd5b505050506040513d6000823e601f3d908101601f19168201604052620016cd919081019062002652565b90508060200151600481518110620016e957620016e96200274a565b6020026020010151600014620017375760405162461bcd60e51b8152602060048201526012602482015271145d595cdd081b9bdd08199a5b9a5cda195960721b6044820152606401620004e5565b4281602001516002815181106200175257620017526200274a565b6020026020010181815250508481602001516003815181106200177957620017796200274a565b6020026020010181815250508160a001518160200151600481518110620017a457620017a46200274a565b60209081029190910101526001600160a01b03841663e2f6215c82883362000f64565b620017d162001a05565b600180546001600160a01b0319166001600160a01b0392909216919091179055565b6000600582604051620018079190620029c6565b9081526020016040518091039020549050919050565b6200182762001a05565b6001600160a01b0381166200188e5760405162461bcd60e51b815260206004820152602660248201527f4f776e61626c653a206e6577206f776e657220697320746865207a65726f206160448201526564647265737360d01b6064820152608401620004e5565b620007a98162001a77565b60405164707269636560d81b81526005908101908152602001604051809103902054341015620019005760405162461bcd60e51b8152602060048201526011602482015270135bdc9948115512081c995c5d5a5c9959607a1b6044820152606401620004e5565b600060056040516200192290691d1bdad95b931a5b5a5d60b21b8152600a0190565b908152602001604051809103902054116200196f5760405162461bcd60e51b815260206004820152600c60248201526b4e6f2072656d61696e696e6760a01b6044820152606401620004e5565b60006200197c8362001ac7565b905060006200198c348662001f6a565b90506005604051620019aa90651b995e1d125960d21b815260060190565b9081526040519081900360200190208054906000620019c98362002a2d565b90915550506001546001600160a01b031680639005ba95338585886040518563ffffffff1660e01b815260040162000f84949392919062002d83565b6000546001600160a01b03163314620013ad5760405162461bcd60e51b815260206004820181905260248201527f4f776e61626c653a2063616c6c6572206973206e6f7420746865206f776e65726044820152606401620004e5565b600062001a718260ff166200206d565b92915050565b600080546001600160a01b038381166001600160a01b0319831681178455604051919092169283917f8be0079c531659141344cd1fd0a4f28419497f9722a3daafe3b4186f6b6457e09190a35050565b6040805160148082526102a08201909252606091600091906020820161028080368337019050506003546040805160a08101825260008082526060602083018190529282018190528282015260808101919091529192506001600160a01b03169060405163323eae4960e01b8152600060048201526001600160a01b0383169063323eae4990602401600060405180830381865afa15801562001b6e573d6000803e3d6000fd5b505050506040513d6000823e601f3d908101601f1916820160405262001b98919081019062002dde565b905060005b826001600160a01b0316630b01ca3b6040518163ffffffff1660e01b8152600401602060405180830381865afa15801562001bdc573d6000803e3d6000fd5b505050506040513d601f19601f8201168201806040525081019062001c02919062002b9b565b60ff168160ff16101562001d265760405163323eae4960e01b815260ff821660048201526001600160a01b0384169063323eae4990602401600060405180830381865afa15801562001c58573d6000803e3d6000fd5b505050506040513d6000823e601f3d908101601f1916820160405262001c82919081019062002dde565b5160ff1662001c92606462001a61565b60ff16101562001d115760405163323eae4960e01b815260ff821660048201526001600160a01b0384169063323eae4990602401600060405180830381865afa15801562001ce4573d6000803e3d6000fd5b505050506040513d6000823e601f3d908101601f1916820160405262001d0e919081019062002dde565b91505b8062001d1d816200289f565b91505062001b9d565b5060208101518051819060009062001d425762001d426200274a565b60200260200101518460008151811062001d605762001d606200274a565b602002602001019060ff16908160ff16815250508060018151811062001d8a5762001d8a6200274a565b60200260200101518460018151811062001da85762001da86200274a565b602002602001019060ff16908160ff16815250508060028151811062001dd25762001dd26200274a565b60200260200101518460028151811062001df05762001df06200274a565b602002602001019060ff16908160ff16815250508060038151811062001e1a5762001e1a6200274a565b60200260200101518460038151811062001e385762001e386200274a565b602002602001019060ff16908160ff16815250508060048151811062001e625762001e626200274a565b60200260200101518460048151811062001e805762001e806200274a565b602002602001019060ff16908160ff16815250508060058151811062001eaa5762001eaa6200274a565b60200260200101518460058151811062001ec85762001ec86200274a565b602002602001019060ff16908160ff168152505060018460078151811062001ef45762001ef46200274a565b602002602001019060ff16908160ff1681525050858460088151811062001f1f5762001f1f6200274a565b602002602001019060ff16908160ff168152505081604001518460098151811062001f4e5762001f4e6200274a565b60ff909216602092830291909101909101525091949350505050565b60408051600a8082526101608201909252606091600091906020820161014080368337019050509050428160008151811062001faa5762001faa6200274a565b602002602001018181525050838160018151811062001fcd5762001fcd6200274a565b602002602001018181525050428160028151811062001ff05762001ff06200274a565b6020908102919091010152604051651b995e1d125960d21b8152600590600601908152602001604051809103902054816006815181106200203557620020356200274a565b6020026020010181815250508260ff16816007815181106200205b576200205b6200274a565b60209081029190910101529392505050565b60408051646e6f6e636560d81b81526005808201528151908190036025018120544260208301526bffffffffffffffffffffffff193360601b16928201929092526054810191909152600090819083906074016040516020818303038152906040528051906020012060001c620020e5919062002eb6565b905060056040516200210290646e6f6e636560d81b815260050190565b9081526040519081900360200190208054906000620021218362002a2d565b90915550909392505050565b6129c18062002eda83390190565b60ff81168114620007a957600080fd5b600080604083850312156200215f57600080fd5b82356200216c816200213b565b946020939093013593505050565b634e487b7160e01b600052604160045260246000fd5b604080519081016001600160401b0381118282101715620021b557620021b56200217a565b60405290565b60405160e081016001600160401b0381118282101715620021b557620021b56200217a565b60405160a081016001600160401b0381118282101715620021b557620021b56200217a565b604051601f8201601f191681016001600160401b03811182821017156200223057620022306200217a565b604052919050565b60006001600160401b038211156200225457620022546200217a565b50601f01601f191660200190565b600082601f8301126200227457600080fd5b81356200228b620022858262002238565b62002205565b818152846020838601011115620022a157600080fd5b816020850160208301376000918101602001919091529392505050565b60008060408385031215620022d257600080fd5b82356001600160401b03811115620022e957600080fd5b620022f78582860162002262565b95602094909401359450505050565b6001600160a01b0381168114620007a957600080fd5b6000602082840312156200232f57600080fd5b81356200233c8162002306565b9392505050565b6020808252825182820181905260009190848201906040850190845b81811015620023865783516001600160a01b0316835292840192918401916001016200235f565b50909695505050505050565b60008060408385031215620023a657600080fd5b823591506020830135620023ba8162002306565b809150509250929050565b600060208284031215620023d857600080fd5b5035919050565b600080600060608486031215620023f557600080fd5b8335620024028162002306565b925060208401356001600160401b03808211156200241f57600080fd5b6200242d8783880162002262565b935060408601359150808211156200244457600080fd5b50620024538682870162002262565b9150509250925092565b6000602082840312156200247057600080fd5b81356001600160401b038111156200248757600080fd5b620024958482850162002262565b949350505050565b600080600060608486031215620024b357600080fd5b833592506020840135620024c78162002306565b929592945050506040919091013590565b60008060408385031215620024ec57600080fd5b50508035926020909101359150565b6000806000606084860312156200251157600080fd5b83356200251e816200213b565b9250602084013562002530816200213b565b915060408401356001600160401b038111156200254c57600080fd5b620024538682870162002262565b6000602082840312156200256d57600080fd5b81516200233c8162002306565b6020808252600e908201526d2737ba103cb7bab9103a37b5b2b760911b604082015260600190565b60006001600160401b03821115620025be57620025be6200217a565b5060051b60200190565b8051620025d5816200213b565b919050565b600082601f830112620025ec57600080fd5b81516020620025ff6200228583620025a2565b82815260059290921b840181019181810190868411156200261f57600080fd5b8286015b848110156200264757805162002639816200213b565b835291830191830162002623565b509695505050505050565b600060208083850312156200266657600080fd5b82516001600160401b03808211156200267e57600080fd5b90840190604082870312156200269357600080fd5b6200269d62002190565b825182811115620026ad57600080fd5b620026bb88828601620025da565b8252508383015182811115620026d057600080fd5b80840193505086601f840112620026e657600080fd5b82519150620026f96200228583620025a2565b82815260059290921b830184019184810190888411156200271957600080fd5b938501935b8385101562002739578451825293850193908501906200271e565b948201949094529695505050505050565b634e487b7160e01b600052603260045260246000fd5b634e487b7160e01b600052601160045260246000fd5b600181815b80851115620027b75781600019048211156200279b576200279b62002760565b80851615620027a957918102915b93841c93908002906200277b565b509250929050565b600082620027d05750600162001a71565b81620027df5750600062001a71565b8160018114620027f85760028114620028035762002823565b600191505062001a71565b60ff84111562002817576200281762002760565b50506001821b62001a71565b5060208310610133831016604e8410600b841016171562002848575081810a62001a71565b62002854838362002776565b80600019048211156200286b576200286b62002760565b029392505050565b60006200233c60ff841683620027bf565b600082198211156200289a576200289a62002760565b500190565b600060ff821660ff811415620028b957620028b962002760565b60010192915050565b600081518084526020808501945080840160005b83811015620028f757815160ff1687529582019590820190600101620028d6565b509495945050505050565b600081518084526020808501945080840160005b83811015620028f75781518752958201959082019060010162002916565b6060815260008451604060608401526200295260a0840182620028c2565b90506020860151605f1984830301608085015262002971828262002902565b60208501969096525050506001600160a01b0391909116604090910152919050565b60005b83811015620029b057818101518382015260200162002996565b83811115620029c0576000848401525b50505050565b60008251620029da81846020870162002993565b9190910192915050565b80518015158114620025d557600080fd5b60006020828403121562002a0857600080fd5b6200233c82620029e4565b60006020828403121562002a2657600080fd5b5051919050565b600060001982141562002a445762002a4462002760565b5060010190565b60006020828403121562002a5e57600080fd5b81516001600160401b038082111562002a7657600080fd5b9083019060e0828603121562002a8b57600080fd5b62002a95620021bb565b62002aa083620025c8565b815262002ab060208401620025c8565b602082015260408301518281111562002ac857600080fd5b62002ad687828601620025da565b60408301525060608301518281111562002aef57600080fd5b62002afd87828601620025da565b6060830152506080830151608082015260a083015160a082015262002b2560c08401620029e4565b60c082015295945050505050565b60008282101562002b485762002b4862002760565b500390565b600060ff821660ff84168082101562002b6a5762002b6a62002760565b90039392505050565b600060ff821660ff84168060ff0382111562002b935762002b9362002760565b019392505050565b60006020828403121562002bae57600080fd5b81516200233c816200213b565b600060ff821660ff84168160ff04811182151516156200286b576200286b62002760565b6000815180845262002bf981602086016020860162002993565b601f01601f19169290920160200192915050565b60a08152600062002c2260a083018862002bdf565b828103602084015262002c36818862002bdf565b6001600160a01b0396871660408501529490951660608301525060ff919091166080909101529392505050565b600082601f83011262002c7557600080fd5b815162002c86620022858262002238565b81815284602083860101111562002c9c57600080fd5b6200249582602083016020870162002993565b60006020828403121562002cc257600080fd5b81516001600160401b038082111562002cda57600080fd5b908301906080828603121562002cef57600080fd5b60405160808101818110838211171562002d0d5762002d0d6200217a565b60405282518281111562002d2057600080fd5b62002d2e8782860162002c63565b825250602083015160208201526040830151604082015262002d5360608401620029e4565b606082015295945050505050565b600081600019048311821515161562002d7e5762002d7e62002760565b500290565b6001600160a01b038516815260806020820181905260009062002da990830186620028c2565b828103604084015262002dbd818662002902565b9050828103606084015262002dd3818562002bdf565b979650505050505050565b60006020828403121562002df157600080fd5b81516001600160401b038082111562002e0957600080fd5b9083019060a0828603121562002e1e57600080fd5b62002e28620021e0565b825162002e35816200213b565b815260208301518281111562002e4a57600080fd5b62002e5887828601620025da565b602083015250604083015162002e6e816200213b565b604082015262002e8160608401620029e4565b606082015260808301518281111562002e9957600080fd5b62002ea78782860162002c63565b60808301525095945050505050565b60008262002ed457634e487b7160e01b600052601260045260246000fd5b50069056fe60806040523480156200001157600080fd5b50604051620029c1380380620029c183398101604081905262000034916200022e565b8451859085906200004d906003906020850190620000a2565b50805162000063906004906020840190620000a2565b5050600c80546001600160a01b039586166001600160a01b031991821617909155600d80549490951693169290921790925550600855506200030b9050565b828054620000b090620002ce565b90600052602060002090601f016020900481019282620000d457600085556200011f565b82601f10620000ef57805160ff19168380011785556200011f565b828001600101855582156200011f579182015b828111156200011f57825182559160200191906001019062000102565b506200012d92915062000131565b5090565b5b808211156200012d576000815560010162000132565b634e487b7160e01b600052604160045260246000fd5b600082601f8301126200017057600080fd5b81516001600160401b03808211156200018d576200018d62000148565b604051601f8301601f19908116603f01168101908282118183101715620001b857620001b862000148565b81604052838152602092508683858801011115620001d557600080fd5b600091505b83821015620001f95785820183015181830184015290820190620001da565b838211156200020b5760008385830101525b9695505050505050565b6001600160a01b03811681146200022b57600080fd5b50565b600080600080600060a086880312156200024757600080fd5b85516001600160401b03808211156200025f57600080fd5b6200026d89838a016200015e565b965060208801519150808211156200028457600080fd5b5062000293888289016200015e565b9450506040860151620002a68162000215565b6060870151909350620002b98162000215565b80925050608086015190509295509295909350565b600181811c90821680620002e357607f821691505b602082108114156200030557634e487b7160e01b600052602260045260246000fd5b50919050565b6126a6806200031b6000396000f3fe6080604052600436106101b75760003560e01c806372a2377f116100ec578063c7f067441161008a578063cd9f092111610064578063cd9f0921146104f6578063dd62ed3e146104fe578063f798e5251461051e578063fd0232b21461053e57600080fd5b8063c7f0674414610489578063ca6d56dc146104a9578063ccf25b4d146104c957600080fd5b806399103d1f116100c657806399103d1f14610409578063a457c2d714610429578063a9059cbb14610449578063aa887bb61461046957600080fd5b806372a2377f146103b25780637c0f6b35146103d257806395d89b41146103f457600080fd5b8063405664881161015957806355f6e5071161013357806355f6e5071461031a5780635d1ca631146103475780636586737a1461035c57806370a082311461037c57600080fd5b806340566488146102c157806341c0e1b5146102e357806344a96ce0146102fa57600080fd5b806323b872dd1161019557806323b872dd146102365780632f54bf6e14610256578063313ce5671461028557806339509351146102a157600080fd5b806306fdde03146101bc578063095ea7b3146101e757806318160ddd14610217575b600080fd5b3480156101c857600080fd5b506101d161056b565b6040516101de9190611fdd565b60405180910390f35b3480156101f357600080fd5b50610207610202366004612013565b6105fd565b60405190151581526020016101de565b34801561022357600080fd5b506002545b6040519081526020016101de565b34801561024257600080fd5b5061020761025136600461203d565b610617565b34801561026257600080fd5b50610207610271366004612079565b600c546001600160a01b0391821691161490565b34801561029157600080fd5b50604051601281526020016101de565b3480156102ad57600080fd5b506102076102bc366004612013565b61063b565b3480156102cd57600080fd5b506102d661065d565b6040516101de91906120cf565b3480156102ef57600080fd5b506102f8610855565b005b34801561030657600080fd5b506102f8610315366004612141565b6108bd565b34801561032657600080fd5b5061033a610335366004612079565b61092d565b6040516101de91906121a8565b34801561035357600080fd5b50600854610228565b34801561036857600080fd5b506102f8610377366004612259565b6109f7565b34801561038857600080fd5b50610228610397366004612079565b6001600160a01b031660009081526020819052604090205490565b3480156103be57600080fd5b506102f86103cd36600461228e565b610a92565b3480156103de57600080fd5b506103e7610beb565b6040516101de91906122a7565b34801561040057600080fd5b506101d1610d4c565b34801561041557600080fd5b506102f8610424366004612306565b610d5b565b34801561043557600080fd5b50610207610444366004612013565b610f92565b34801561045557600080fd5b50610207610464366004612013565b61100d565b34801561047557600080fd5b506102f8610484366004612079565b61101b565b34801561049557600080fd5b506102f86104a436600461228e565b611284565b3480156104b557600080fd5b506102f86104c4366004612079565b611391565b3480156104d557600080fd5b506104e96104e43660046123db565b6115de565b6040516101de91906123f6565b6102f861176b565b34801561050a57600080fd5b50610228610519366004612494565b61180e565b34801561052a57600080fd5b506102f86105393660046124c7565b611839565b34801561054a57600080fd5b5061055e61055936600461228e565b611a87565b6040516101de91906124f1565b60606003805461057a90612504565b80601f01602080910402602001604051908101604052809291908181526020018280546105a690612504565b80156105f35780601f106105c8576101008083540402835291602001916105f3565b820191906000526020600020905b8154815290600101906020018083116105d657829003601f168201915b5050505050905090565b60003361060b818585611b56565b60019150505b92915050565b600033610625858285611c7a565b610630858585611cf4565b506001949350505050565b60003361060b81858561064e838361180e565b610658919061254f565b611b56565b6060600b54600014156106b55760408051600080825260208201909252906106af565b604080516060808201835260008083526020830152918101919091528152602001906001900390816106805790505b50905090565b6000600b5467ffffffffffffffff8111156106d2576106d26121b6565b60405190808252806020026020018201604052801561071f57816020015b604080516060808201835260008083526020830152918101919091528152602001906001900390816106f05790505b50905060005b600b5481101561084f5760008181526007602052604090205460ff1615156001141561083d576000818152600760209081526040918290208251606081018452815460ff81161515825261010090046001600160a01b03169281019290925260018101805491938492908401919061079c90612504565b80601f01602080910402602001604051908101604052809291908181526020018280546107c890612504565b80156108155780601f106107ea57610100808354040283529160200191610815565b820191906000526020600020905b8154815290600101906020018083116107f857829003601f168201915b50505050508152505083838151811061083057610830612567565b6020026020010181905250505b806108478161257d565b915050610725565b50919050565b600c546001600160a01b0316336001600160a01b0316148061088a5750600d546001600160a01b0316336001600160a01b0316145b6108af5760405162461bcd60e51b81526004016108a690612598565b60405180910390fd5b600c546001600160a01b0316ff5b600c546001600160a01b0316336001600160a01b031614806108f25750600d546001600160a01b0316336001600160a01b0316145b61090e5760405162461bcd60e51b81526004016108a690612598565b6000908152600660205260409020805460ff1916911515919091179055565b610935611ec2565b61093d611ec2565b60005b600a548110156109f0576000818152600660205260409020600401546001600160a01b03858116911614156109de57600081815260066020908152604091829020825160c081018452815460ff8082161515835261010090910416928101929092526001810154928201929092526002820154606082015260038201546001600160a01b03908116608083015260049092015490911660a082015291505b806109e88161257d565b915050610940565b5092915050565b604080516060810182526001808252336020808401918252838501868152600b54600090815260078352959095208451815493516001600160a81b0319909416901515610100600160a81b031916176101006001600160a01b03909416939093029290921782559351805193949193610a77938501929190910190611ef7565b5050600b805491506000610a8a8361257d565b919050555050565b60008181526007602052604090205460ff161515600114610af55760405162461bcd60e51b815260206004820181905260248201527f5468697320696e7669746174696f6e206973206e6f206d6f72652076616c696460448201526064016108a6565b6000805b600a54811015610b3b576000818152600660205260409020600401546001600160a01b0316331415610b29578091505b80610b338161257d565b915050610af9565b506000828152600760205260409020546001600160a01b0361010090910416331480610bb6575060008181526006602052604090205460ff1615156001148015610bb6575060008181526006602090815260408083205460ff6101009091048116845260059092529091205464010000000090041615156001145b610bd25760405162461bcd60e51b81526004016108a6906125c0565b506000908152600760205260409020805460ff19169055565b6060600a5460001415610c2e5760408051600080825260208201909252906106af565b610c16611ec2565b815260200190600190039081610c0e57905050905090565b6000600a5467ffffffffffffffff811115610c4b57610c4b6121b6565b604051908082528060200260200182016040528015610c8457816020015b610c71611ec2565b815260200190600190039081610c695790505b50905060005b600a5481101561084f5760008181526006602052604090205460ff16151560011415610d3a57600081815260066020908152604091829020825160c081018452815460ff8082161515835261010090910416928101929092526001810154928201929092526002820154606082015260038201546001600160a01b03908116608083015260048301541660a08201528351849084908110610d2d57610d2d612567565b6020026020010181905250505b80610d448161257d565b915050610c8a565b60606004805461057a90612504565b600c546001600160a01b0316336001600160a01b03161480610d905750600d546001600160a01b0316336001600160a01b0316145b610dac5760405162461bcd60e51b81526004016108a690612598565b60008a60ff16118015610dc25750600a8a60ff16105b610dfd5760405162461bcd60e51b815260206004820152600c60248201526b06260408ee4c2c8ca409ac2f60a31b60448201526064016108a6565b6040518061012001604052808a15158152602001891515815260200188151581526020018715158152602001861515815260200185151581526020018415158152602001831515815260200182815250600560008c60ff1660ff16815260200190815260200160002060008201518160000160006101000a81548160ff02191690831515021790555060208201518160000160016101000a81548160ff02191690831515021790555060408201518160000160026101000a81548160ff02191690831515021790555060608201518160000160036101000a81548160ff02191690831515021790555060808201518160000160046101000a81548160ff02191690831515021790555060a08201518160000160056101000a81548160ff02191690831515021790555060c08201518160000160066101000a81548160ff02191690831515021790555060e08201518160000160076101000a81548160ff021916908315150217905550610100820151816001019080519060200190610f83929190611ef7565b50505050505050505050505050565b60003381610fa0828661180e565b9050838110156110005760405162461bcd60e51b815260206004820152602560248201527f45524332303a2064656372656173656420616c6c6f77616e63652062656c6f77604482015264207a65726f60d81b60648201526084016108a6565b6106308286868403611b56565b60003361060b818585611cf4565b60008060005b600a5481101561108c576000818152600660205260409020600401546001600160a01b0316331415611051578092505b6000818152600660205260409020600401546001600160a01b038581169116141561107a578091505b806110848161257d565b915050611021565b5060008281526006602090815260408083205460ff610100909104811684526005909252909120546401000000009004161515600114806110e05750600c546001600160a01b0316336001600160a01b0316145b806110fe5750600d546001600160a01b0316336001600160a01b0316145b61111a5760405162461bcd60e51b81526004016108a690612602565b6000818152600660205260408082205484835291205460ff6101009283900481169290910416118061115f5750600c546001600160a01b0316336001600160a01b0316145b8061117d5750600d546001600160a01b0316336001600160a01b0316145b6111c95760405162461bcd60e51b815260206004820152601c60248201527f596f75722072616e6b206973206e6f74206869676820656e6f7567680000000060448201526064016108a6565b60008181526006602052604090205460ff16151560011480156111ff575060008281526006602052604090205460ff1615156001145b61121b5760405162461bcd60e51b81526004016108a690612648565b600081815260066020526040808220600481015460029091015491516001600160a01b039091169282156108fc02929190818181858888f19350505050158015611269573d6000803e3d6000fd5b506000908152600660205260409020805460ff191690555050565b6000805b600a548110156112ca576000818152600660205260409020600401546001600160a01b03163314156112b8578091505b806112c28161257d565b915050611288565b5060008181526006602052604090205460ff1615156001146112fe5760405162461bcd60e51b81526004016108a690612648565b60008181526006602052604090206002015482111561135f5760405162461bcd60e51b815260206004820152601a60248201527f4e6f7420656e6f7567746820657468657220696e20636865737400000000000060448201526064016108a6565b604051339083156108fc029084906000818181858888f1935050505015801561138c573d6000803e3d6000fd5b505050565b60008060005b600a548110156113d9576000818152600660205260409020600401546001600160a01b03163314156113c7578092505b806113d18161257d565b915050611397565b5060005b600b54811015611424576000818152600760205260409020546001600160a01b03858116610100909204161415611412578091505b8061141c8161257d565b9150506113dd565b5060008181526006602052604090205460ff1615156001146114795760405162461bcd60e51b815260206004820152600e60248201526d155cd95c881b9bdd081d985b1a5960921b60448201526064016108a6565b60008281526006602052604090205460ff16151560011480156114cc575060008281526006602090815260408083205460ff61010090910481168452600590925290912054630100000090041615156001145b6114e85760405162461bcd60e51b81526004016108a6906125c0565b6040518060c00160405280600015158152602001600060ff1681526020014281526020016000815260200161151a3390565b6001600160a01b039081168252858116602092830152600980546000908152600684526040808220865181549688015160ff166101000261ff00199115159190911661ffff19909716969096179590951785558581015160018601556060860151600286015560808601516003860180549186166001600160a01b031992831617905560a09096015160049095018054959094169490951693909317909155838252918120805460ff19169055815491906115d48361257d565b9190505550505050565b604080516101208101825260008082526020820181905291810182905260608082018390526080820183905260a0820183905260c0820183905260e082019290925261010081019190915260ff808316600090815260056020908152604091829020825161012081018452815480861615158252610100808204871615159483019490945262010000810486161515948201949094526301000000840485161515606082015264010000000084048516151560808201526501000000000084048516151560a0820152660100000000000084048516151560c0820152600160381b909304909316151560e0830152600183018054929392918401916116e290612504565b80601f016020809104026020016040519081016040528092919081815260200182805461170e90612504565b801561175b5780601f106117305761010080835404028352916020019161175b565b820191906000526020600020905b81548152906001019060200180831161173e57829003601f168201915b5050505050815250509050919050565b6000805b600a548110156117b1576000818152600660205260409020600401546001600160a01b031633141561179f578091505b806117a98161257d565b91505061176f565b5060008181526006602052604090205460ff1615156001146117e55760405162461bcd60e51b81526004016108a690612648565b6000818152600660205260408120600201805434929061180690849061254f565b909155505050565b6001600160a01b03918216600090815260016020908152604080832093909416825291909152205490565b60008060005b600a548110156118aa576000818152600660205260409020600401546001600160a01b031633141561186f578092505b6000818152600660205260409020600401546001600160a01b0386811691161415611898578091505b806118a28161257d565b91505061183f565b5060008281526006602090815260408083205460ff61010090910481168452600590925290912054600160381b9004161515600114806118fd5750600c546001600160a01b0316336001600160a01b0316145b8061191b5750600d546001600160a01b0316336001600160a01b0316145b6119375760405162461bcd60e51b81526004016108a690612602565b60008281526006602052604090205460ff808516610100909204161080159061198357506000818152600660205260408082205484835291205460ff6101009283900481169290910416115b806119a15750600c546001600160a01b0316336001600160a01b0316145b806119bf5750600d546001600160a01b0316336001600160a01b0316145b611a0b5760405162461bcd60e51b815260206004820152601c60248201527f596f75722072616e6b206973206e6f74206869676820656e6f7567680000000060448201526064016108a6565b60008181526006602052604090205460ff1615156001148015611a41575060008281526006602052604090205460ff1615156001145b611a5d5760405162461bcd60e51b81526004016108a690612648565b506000908152600660205260409020805460ff9092166101000261ff001990921691909117905550565b6040805160608082018352600080835260208301529181019190915260008281526007602052604090205460ff161515600114611b065760405162461bcd60e51b815260206004820181905260248201527f5468697320696e7669746174696f6e206973206e6f206d6f72652076616c696460448201526064016108a6565b6000828152600760209081526040918290208251606081018452815460ff81161515825261010090046001600160a01b03169281019290925260018101805492939192918401916116e290612504565b6001600160a01b038316611bb85760405162461bcd60e51b8152602060048201526024808201527f45524332303a20617070726f76652066726f6d20746865207a65726f206164646044820152637265737360e01b60648201526084016108a6565b6001600160a01b038216611c195760405162461bcd60e51b815260206004820152602260248201527f45524332303a20617070726f766520746f20746865207a65726f206164647265604482015261737360f01b60648201526084016108a6565b6001600160a01b0383811660008181526001602090815260408083209487168084529482529182902085905590518481527f8c5be1e5ebec7d5bd14f71427d1e84f3dd0314c0f7b2291e5b200ac8c7c3b925910160405180910390a3505050565b6000611c86848461180e565b90506000198114611cee5781811015611ce15760405162461bcd60e51b815260206004820152601d60248201527f45524332303a20696e73756666696369656e7420616c6c6f77616e636500000060448201526064016108a6565b611cee8484848403611b56565b50505050565b6001600160a01b038316611d585760405162461bcd60e51b815260206004820152602560248201527f45524332303a207472616e736665722066726f6d20746865207a65726f206164604482015264647265737360d81b60648201526084016108a6565b6001600160a01b038216611dba5760405162461bcd60e51b815260206004820152602360248201527f45524332303a207472616e7366657220746f20746865207a65726f206164647260448201526265737360e81b60648201526084016108a6565b6001600160a01b03831660009081526020819052604090205481811015611e325760405162461bcd60e51b815260206004820152602660248201527f45524332303a207472616e7366657220616d6f756e7420657863656564732062604482015265616c616e636560d01b60648201526084016108a6565b6001600160a01b03808516600090815260208190526040808220858503905591851681529081208054849290611e6990849061254f565b92505081905550826001600160a01b0316846001600160a01b03167fddf252ad1be2c89b69c2b068fc378daa952ba7f163c4a11628f55a4df523b3ef84604051611eb591815260200190565b60405180910390a3611cee565b6040805160c081018252600080825260208201819052918101829052606081018290526080810182905260a081019190915290565b828054611f0390612504565b90600052602060002090601f016020900481019282611f255760008555611f6b565b82601f10611f3e57805160ff1916838001178555611f6b565b82800160010185558215611f6b579182015b82811115611f6b578251825591602001919060010190611f50565b50611f77929150611f7b565b5090565b5b80821115611f775760008155600101611f7c565b6000815180845260005b81811015611fb657602081850181015186830182015201611f9a565b81811115611fc8576000602083870101525b50601f01601f19169290920160200192915050565b602081526000611ff06020830184611f90565b9392505050565b80356001600160a01b038116811461200e57600080fd5b919050565b6000806040838503121561202657600080fd5b61202f83611ff7565b946020939093013593505050565b60008060006060848603121561205257600080fd5b61205b84611ff7565b925061206960208501611ff7565b9150604084013590509250925092565b60006020828403121561208b57600080fd5b611ff082611ff7565b80511515825260018060a01b03602082015116602083015260006040820151606060408501526120c76060850182611f90565b949350505050565b6000602080830181845280855180835260408601915060408160051b870101925083870160005b8281101561212457603f19888603018452612112858351612094565b945092850192908501906001016120f6565b5092979650505050505050565b8035801515811461200e57600080fd5b6000806040838503121561215457600080fd5b61202f83612131565b80511515825260208082015160ff169083015260408082015190830152606080820151908301526080808201516001600160a01b039081169184019190915260a09182015116910152565b60c08101610611828461215d565b634e487b7160e01b600052604160045260246000fd5b600082601f8301126121dd57600080fd5b813567ffffffffffffffff808211156121f8576121f86121b6565b604051601f8301601f19908116603f01168101908282118183101715612220576122206121b6565b8160405283815286602085880101111561223957600080fd5b836020870160208301376000602085830101528094505050505092915050565b60006020828403121561226b57600080fd5b813567ffffffffffffffff81111561228257600080fd5b6120c7848285016121cc565b6000602082840312156122a057600080fd5b5035919050565b6020808252825182820181905260009190848201906040850190845b818110156122e9576122d683855161215d565b9284019260c092909201916001016122c3565b50909695505050505050565b803560ff8116811461200e57600080fd5b6000806000806000806000806000806101408b8d03121561232657600080fd5b61232f8b6122f5565b995061233d60208c01612131565b985061234b60408c01612131565b975061235960608c01612131565b965061236760808c01612131565b955061237560a08c01612131565b945061238360c08c01612131565b935061239160e08c01612131565b92506123a06101008c01612131565b91506101208b013567ffffffffffffffff8111156123bd57600080fd5b6123c98d828e016121cc565b9150509295989b9194979a5092959850565b6000602082840312156123ed57600080fd5b611ff0826122f5565b6020815261240960208201835115159052565b6000602083015161241e604084018215159052565b5060408301518015156060840152506060830151801515608084015250608083015180151560a08401525060a083015180151560c08401525060c083015180151560e08401525060e083015161010061247a8185018315159052565b8401516101208481015290506120c7610140840182611f90565b600080604083850312156124a757600080fd5b6124b083611ff7565b91506124be60208401611ff7565b90509250929050565b600080604083850312156124da57600080fd5b6124e383611ff7565b91506124be602084016122f5565b602081526000611ff06020830184612094565b600181811c9082168061251857607f821691505b6020821081141561084f57634e487b7160e01b600052602260045260246000fd5b634e487b7160e01b600052601160045260246000fd5b6000821982111561256257612562612539565b500190565b634e487b7160e01b600052603260045260246000fd5b600060001982141561259157612591612539565b5060010190565b6020808252600e908201526d139bdd081e5bdd5c8819dd5a5b1960921b604082015260600190565b60208082526022908201527f596f757220617265206e6f7420617574686f72697a656420746f20646f207468604082015261697360f01b606082015260800190565b60208082526026908201527f596f75722072616e6b20646f6573206e6f7420617574686f72697a6520757067604082015265726164696e6760d01b606082015260800190565b6020808252600e908201526d2737ba103b30b634b2103ab9b2b960911b60408201526060019056fea2646970667358221220589622921d5fef621dea2b850d34139a3ec13cbd1e78d8afe37d5040a7e4bd6664736f6c634300080b0033a2646970667358221220abd617a2f9d8685c3a53b44a61c21ba32e06f6ba0d2f8034b6930ee3d3163a0064736f6c634300080b0033",
  "immutableReferences": {},
  "source": "// SPDX-License-Identifier: MIT\n// Delegation contract\npragma solidity ^0.8.0;\n\nimport \"@openzeppelin/contracts/access/Ownable.sol\";\nimport \"./Items.sol\";\nimport \"./Guild.sol\";\nimport \"./Class.sol\";\nimport \"./Quest.sol\";\nimport \"./Hero.sol\";\n\n//enum Numbers {strong,endurance,concentration,agility,charisma,stealth,exp,level,peuple,classe}\n\ncontract DelegateContract is Ownable {\n  constructor(\n    address _addressHero,\n    address _addressQuest,\n    address _addressClass,\n    address _addressItem\n  ) {\n    addressHero = _addressHero;\n    addressQuest = _addressQuest;\n    addressClass = _addressClass;\n    addressItem = _addressItem;\n    paramsContract[\"nextId\"] = Hero(addressHero).getParamsContract(\"nextId\");\n    paramsContract[\"price\"] = 100000000000000000; //dev:100000000000000000000 == 100 eth\n    paramsContract[\"totalPnt\"] = 5;\n    paramsContract[\"tokenLimit\"] = 10000;\n    paramsContract[\"nonce\"] = 0;\n    paramsContract[\"expForLevelUp\"] = 100;\n  }\n\n  address private addressHero;\n  address private addressQuest;\n  address private addressClass;\n  address private addressItem;\n  mapping(string => uint256) public paramsContract;\n  mapping(uint256 => address) private items;\n  mapping(address => Guild) private guilds; //address = creator\n  mapping(uint256 => address) private addressGuilds; //address = creator\n  uint8 private countGuilds;\n\n  ///@notice Create a guild by also deleting its contract\n  ///@param _by user for found addresses of your contract by creator mapping\n  ///@param name name of your created contract\n  ///@param symbol name of your created contract\n  function createGuild(\n    address _by,\n    string memory name,\n    string memory symbol\n  ) external {\n    require(address(guilds[_by]) == address(0), \"You already have guild\");\n    guilds[_by] = new Guild(name, symbol, payable(_msgSender()), owner(), countGuilds);\n    addressGuilds[countGuilds] = _by;\n    countGuilds++;\n  }\n\n  ///@notice Deleted a guild by also deleting its contract\n  ///@dev ATTENTION, the totality of the ether contained above atters to the creator of the contract\n  ///@param _by user for found addresses of your contract by creator mapping\n  function deleteGuild(address _by) external {\n    require(address(guilds[_by]) != address(0), \"Guild not exist\");\n    require(guilds[_by].isOwner(_msgSender()), \"Is not your guild\");\n    guilds[_by].kill();\n    addressGuilds[guilds[_by].getId()] = address(0);\n  }\n\n  ///@notice return one guild by address creator\n  ///@param _by user for found addresses of your contract by creator mapping\n  ///@return addressContract address of the contract guild\n  function getOneGuildAddress(address _by) external view returns (address) {\n    require(address(guilds[_by]) != address(0), \"Guild not exist\");\n    return address(guilds[_by]);\n  }\n\n  ///@notice return all guilds addresses\n  ///@return return an array of address for all guilds created\n  function getAddressesGuilds() external view returns (address[] memory) {\n    address[] memory result = new address[](countGuilds);\n    uint256 resultIndex = 0;\n    uint256 i;\n    for (i = 0; i < countGuilds; i++) {\n      if (addressGuilds[i] != address(0)) {\n        result[resultIndex] = addressGuilds[i];\n        resultIndex++;\n      }\n    }\n    return result;\n  }\n\n  ///@notice Update the destination address of the official contract hero so that the delegation contract can access it\n  ///@param _addressHero address of contract hero\n  function setaddressHero(address _addressHero) external onlyOwner {\n    addressHero = _addressHero;\n  }\n\n  ///@notice Update a parameter of contract\n  ///@param key key index of params contract you want set\n  ///@param value value of params contract you want set\n  function setParamsContract(string memory key, uint256 value) external onlyOwner {\n    paramsContract[key] = value;\n  }\n\n  ///@notice Return a parameter of contract by key index\n  ///@param key key index of param your want to return\n  ///@return param value of parameter contract\n  function getParamsContract(string memory key) external view returns (uint256) {\n    return paramsContract[key];\n  }\n\n  ///@notice Update a parameter of hero contract\n  ///@param key key index of params contract you want set\n  ///@param value value of params contract you want set\n  function setParamsHeroContract(string memory key, uint256 value) internal {\n    Hero contrat = Hero(addressHero);\n    contrat.setParamsContract(key, value);\n  }\n\n  ///@notice return item address by key\n  ///@param idItem key index of item you want to retuen\n  ///@return item adress contract item finded\n  function getAddressItem(uint256 idItem) external view returns (address) {\n    return items[idItem];\n  }\n\n  ///@notice convert of a resource for another token\n  function convertToAnotherToken(uint256 value, address anotherToken) external {\n    /*require(supplies[tokenId]>value+1,\"No more this token\");\n        require(balanceOf(_msgSender())>=value,\"No more this token\");\n        _burn(_msgSender(),value);\n        currentprice = setCurrentPrice();*/\n  }\n\n  ///@notice purchase of a resource for eth/MATIC\n  ///@param quantity count of item you want purchase\n  ///@param receiver receiver address of token\n  ///@param tokenId id of item\n  function buyItem(\n    uint256 quantity,\n    address receiver,\n    uint256 tokenId\n  ) external payable {\n    Items itemContrat = Items(addressItem);\n    Items.Item memory item = itemContrat.getItemDetails(tokenId);\n    require(msg.value >= item.price * quantity, \"More ETH required\");\n    itemContrat.mint(receiver, tokenId, quantity);\n    //setCurrentPrice();\n  }\n\n  ///@notice sell of a resource for eth/MATIC\n  ///@param quantity count of item you want purchase\n  ///@param receiver receiver address of token\n  ///@param tokenId id of item\n  function sellItem(\n    uint256 quantity,\n    address receiver,\n    uint256 tokenId\n  ) external {\n    Items itemContrat = Items(addressItem);\n    Items.Item memory item = itemContrat.getItemDetails(tokenId);\n    require(itemContrat.getSupply(tokenId) >= quantity, \"No more this token\");\n    require(itemContrat.balanceOf(receiver, tokenId) >= quantity, \"No more this token\");\n    payable(receiver).transfer(item.price * quantity);\n    itemContrat.burn(receiver, tokenId, quantity);\n    //setCurrentPrice();\n  }\n\n  /**\n    appel vers le contrat officiel du jeton\n    Offrir un ou plusieurs token a un utilisateur\n     */\n  // function giveToken(\n  //   address to,\n  //   uint8 generation,\n  //   string memory _tokenUri\n  // ) external onlyOwner {\n  //   require(paramsContract[\"tokenLimit\"] > 0, \"No remaining\");\n  //   bool[] memory booleans = new bool[](20);\n  //   uint8[] memory randomParts = randomStats(0);\n  //   uint256[] memory randomParams = randomParams(paramsContract[\"price\"], generation);\n  //   paramsContract[\"nextId\"]++;\n\n  //   Hero contrat = Hero(addressHero);\n  //   contrat.mint(to, booleans, randomParts, randomParams, _tokenUri);\n  // }\n\n  ///@notice mint a hero for a value price and generate stats and parameterr\n  ///@param generation generation of creation hero\n  ///@param peuple peuple with class and stat linked\n  ///@param _tokenUri uri of metadata token hero\n  function mintHero(\n    uint8 generation,\n    uint8 peuple,\n    string memory _tokenUri\n  ) external payable {\n    require(msg.value >= paramsContract[\"price\"], \"More ETH required\");\n    require(paramsContract[\"tokenLimit\"] > 0, \"No remaining\");\n    uint8[] memory randomParts = randomStats(peuple);\n    uint256[] memory randomParams = randomParams(msg.value, generation);\n    paramsContract[\"nextId\"]++;\n\n    Hero contrat = Hero(addressHero);\n    contrat.mint(_msgSender(),randomParts, randomParams, _tokenUri);\n  }\n\n  ///@notice generate stats for your hero in uint8\n  ///@param peuple peuple of hero generated\n  ///@return randomParams array of stats uint8 for hero\n  function randomStats(uint8 peuple) internal virtual returns (uint8[] memory) {\n    /*uint256 totalPnt = paramsContract[\"totalPnt\"];\n        if(paramsContract[\"nextId\"]<paramsContract[\"maxFirstGen\"]){totalPnt += 3;}else\n        if(paramsContract[\"nextId\"]<paramsContract[\"maxSecondGen\"]){totalPnt += 2;}else\n        if(paramsContract[\"nextId\"]<paramsContract[\"maxthirdGen\"]){totalPnt += 1;}*/\n\n    uint8[] memory randomParts = new uint8[](20);\n\n    Class classContrat = Class(addressClass);\n    Class.Classes memory tempClass;\n    tempClass = classContrat.getClassDetails(0);\n    for (uint8 index = 0; index < classContrat.getClassCount(); index++) {\n      if (random(100) < classContrat.getClassDetails(index).rarity)\n        tempClass = classContrat.getClassDetails(index);\n    }\n    uint8[] memory stats = tempClass.stats;\n\n    randomParts[0] = stats[0]; //strong\n    randomParts[1] = stats[1]; //endurance\n    randomParts[2] = stats[2]; //concentration\n    randomParts[3] = stats[3]; //agility\n    randomParts[4] = stats[4]; //charisma\n    randomParts[5] = stats[5]; //stealth\n    //randomParts[6] = 0;//exp\n    randomParts[7] = 1; //level\n    randomParts[8] = peuple; //peuple\n    randomParts[9] = tempClass.id; //class\n\n    return randomParts;\n  }\n\n  ///@notice generate parameter for your hero in uint256\n  ///@param price price of buying hero\n  ///@param generation generation fo hero\n  ///@return randomParams array of parameters uint256 for hero\n  function randomParams(uint256 price, uint8 generation)\n    internal\n    virtual\n    returns (uint256[] memory)\n  {\n    uint256[] memory randomParams = new uint256[](10);\n    randomParams[0] = block.timestamp; //date de cration\n    randomParams[1] = price; //prix d'achat\n    randomParams[2] = block.timestamp; //date de la drnire action (il y a une heure) permettant de participer a des missions\n    //randomParams[3] = 0;//Mission choisis (si 0 aucune current mission)\n    //randomParams[4] = 0;//seconds pour finir la mission\n    //randomParams[5] = 0;//difficult de la qute (dtermine l'exp gagn, et les objets % gagn)\n    randomParams[6] = paramsContract[\"nextId\"]; //tokenId\n    randomParams[7] = generation; //type\n    return randomParams;\n  }\n\n  ///@notice start a quest by id for one hero token\n  ///@param tokenId id of token you want to launch in quest\n  ///@param questId id of quest you want to start\n  function startQuest(uint256 tokenId, uint256 questId) external {\n    Hero contrat = Hero(addressHero);\n    require(contrat.ownerOf(tokenId) == _msgSender(), \"Not your token\");\n    Quest questContrat = Quest(addressQuest);\n    Quest.QuestStruct memory questTemp = questContrat.getQuestDetails(questId);\n    Hero.Token memory tokenTemp = contrat.getTokenDetails(tokenId);\n    require(tokenTemp.params256[4] == 0, \"Quest not finished\");\n    tokenTemp.params256[2] = block.timestamp;\n    tokenTemp.params256[3] = questId;\n    tokenTemp.params256[4] = questTemp.time;\n    contrat.updateToken(tokenTemp, tokenId, _msgSender());\n  }\n\n  ///@notice Validation of the quest at the end of a quest\n  ///@param tokenId id of token you want to complete quest\n  function completeQuest(uint256 tokenId) external {\n    Hero contrat = Hero(addressHero);\n    require(contrat.ownerOf(tokenId) == _msgSender(), \"Not your token\");\n    Hero.Token memory tokenTemp = contrat.getTokenDetails(tokenId);\n\n    Quest questContrat = Quest(addressQuest);\n    Quest.QuestStruct memory questTemp = questContrat.getQuestDetails(\n      tokenTemp.params256[3]\n    );\n    require(\n      block.timestamp - tokenTemp.params256[2] > (questTemp.time),\n      \"Quest not finished\"\n    );\n    uint8 malus = 0;\n    for (uint8 index = 0; index < questTemp.stats.length; index++) {\n      if (questTemp.stats[index] > tokenTemp.params8[index]) {\n        malus += questTemp.stats[index] - tokenTemp.params8[index];\n      }\n    }\n    if (random(100 - malus) > questTemp.percentDifficulty) {\n      tokenTemp.params8[6] += questTemp.exp * questContrat.getMultiplicateurExp();\n\n      /*for (uint256 index = 0; index < countItems; index++) {\n        Items itemtemp = Items(items[index]);\n        if (random256(100000) > itemtemp.getRarity()) {\n          itemtemp.mint(1, _msgSender());\n        }\n      }*/\n    }\n    //recuperer les imtes dans la quest !IMPORTANT\n    tokenTemp.params256[2] = block.timestamp;\n    tokenTemp.params256[3] = 0;\n    tokenTemp.params256[4] = 0;\n\n    contrat.updateToken(tokenTemp, tokenId, _msgSender());\n  }\n\n  ///@notice level up hero and increment one stat\n  ///@param statToLvlUp id of stat you wan increment\n  ///@param tokenId id of token you want level up\n  function levelUp(uint8 statToLvlUp, uint256 tokenId) external {\n    Hero contrat = Hero(addressHero);\n    require(contrat.ownerOf(tokenId) == _msgSender(), \"Not your token\");\n    Hero.Token memory tokenTemp = contrat.getTokenDetails(tokenId);\n    require(\n      tokenTemp.params8[6] >\n        (100 + (paramsContract[\"expForLevelUp\"]**tokenTemp.params8[7])),\n      \"experience not enought\"\n    );\n    tokenTemp.params8[statToLvlUp]++;\n    tokenTemp.params8[6] = 0;\n    tokenTemp.params8[7]++;\n\n    contrat.updateToken(tokenTemp, tokenId, _msgSender());\n  }\n\n  /**\n    a finaliser\n     */\n  /*function calculPriceSupply() public{\n        Hero contrat = Hero(addressHero);\n        uint totalSupply = contrat.getParamsContract(\"totalSupply\");\n        //priceInUsd = (item.price/(10**18)) * (latestPrice/10**8)\n    }*/\n\n  /**\n    appel vers le contrat officiel du jeton\n    Modifier les paramtre d'un token et l'envoy au contrat de token pour le mttre a jour\n     */\n  /*function paramsToken(uint256 tokenId,bool[] memory booleans, uint8[] memory params8, uint256[] memory params256) external {\n        \n        Hero contrat = Hero(addressHero);\n        Hero.Token memory tokenTemp =  contrat.getTokenDetails(tokenId);\n        //if(tokenTemp.params256[2] != params256[2]) tokenTemp.params256[0] = block.timestamp;//mettre a jour la date de cration si besoin\n        for (uint8 index = 0; index < booleans.length; index++) {\n            tokenTemp.booleans[index] = booleans[index];\n        }\n        for (uint8 index = 0; index < params8.length; index++) {\n            tokenTemp.params8[index] = params8[index];\n        }\n        for (uint8 index = 0; index < params256.length; index++) {\n            tokenTemp.params256[index] = params256[index];\n        }\n        contrat.updateToken(tokenTemp,tokenId,_msgSender());\n    }*/\n\n  /**\n    appel vers le contrat officiel du jeton\n    Achat d'un token par un utilisateur\n     */\n  /*function purchase(address contactAddr, uint256 tokenId) external payable {\n        Hero contrat = Hero(addressHero);\n        Hero.Token memory token = contrat.getTokenDetails(tokenId);\n        require(msg.value >= token.params256[1], \"Insufficient fonds sent\");\n        require(contrat.getOwnerOf(tokenId) != _msgSender(), \"Already Owned\");\n        //contrat.updateToken(token,tokenId,_msgSender());\n        contrat.transfer(contactAddr, _msgSender(), tokenId);\n    }*/\n\n  /****************************************\n    UTILS\n     ****************************************/\n\n  ///@notice return random number\n  ///@param maxNumber max number random to return\n  ///@return randomNumber random uint256 returned\n  function random(uint8 maxNumber) internal returns (uint8) {\n    return uint8(random256(uint8(maxNumber)));\n  }\n\n  ///@notice return random number\n  ///@param maxNumber max number random to return\n  ///@return randomNumber random uint256 returned\n  function random256(uint256 maxNumber) internal returns (uint256) {\n    uint256 randomNumber = uint256(\n      keccak256(abi.encodePacked(block.timestamp, _msgSender(), paramsContract[\"nonce\"]))\n    ) % maxNumber;\n    paramsContract[\"nonce\"]++;\n    return randomNumber;\n  }\n\n  /*FUNDS OF CONTRACT*/\n\n  function withdraw() external onlyOwner {\n    payable(_msgSender()).transfer(address(this).balance);\n  }\n}\n",
  "sourcePath": "/home/kevin/Bureau/homework/MYOS/contracts/DelegateContract.sol",
  "compiler": {
    "name": "solc",
    "version": "0.8.11+commit.d7f03943.Emscripten.clang"
  },
  "schemaVersion": "3.4.7",
  "updatedAt": "2022-11-01T15:05:39.587Z",
  "devdoc": {
    "kind": "dev",
    "methods": {
      "buyItem(uint256,address,uint256)": {
        "params": {
          "quantity": "count of item you want purchase",
          "receiver": "receiver address of token",
          "tokenId": "id of item"
        }
      },
      "completeQuest(uint256)": {
        "params": {
          "tokenId": "id of token you want to complete quest"
        }
      },
      "createGuild(address,string,string)": {
        "params": {
          "_by": "user for found addresses of your contract by creator mapping",
          "name": "name of your created contract",
          "symbol": "name of your created contract"
        }
      },
      "deleteGuild(address)": {
        "details": "ATTENTION, the totality of the ether contained above atters to the creator of the contract",
        "params": {
          "_by": "user for found addresses of your contract by creator mapping"
        }
      },
      "getAddressItem(uint256)": {
        "params": {
          "idItem": "key index of item you want to retuen"
        },
        "returns": {
          "_0": "item adress contract item finded"
        }
      },
      "getAddressesGuilds()": {
        "returns": {
          "_0": "return an array of address for all guilds created"
        }
      },
      "getOneGuildAddress(address)": {
        "params": {
          "_by": "user for found addresses of your contract by creator mapping"
        },
        "returns": {
          "_0": "addressContract address of the contract guild"
        }
      },
      "getParamsContract(string)": {
        "params": {
          "key": "key index of param your want to return"
        },
        "returns": {
          "_0": "param value of parameter contract"
        }
      },
      "levelUp(uint8,uint256)": {
        "params": {
          "statToLvlUp": "id of stat you wan increment",
          "tokenId": "id of token you want level up"
        }
      },
      "mintHero(uint8,uint8,string)": {
        "params": {
          "_tokenUri": "uri of metadata token hero",
          "generation": "generation of creation hero",
          "peuple": "peuple with class and stat linked"
        }
      },
      "owner()": {
        "details": "Returns the address of the current owner."
      },
      "renounceOwnership()": {
        "details": "Leaves the contract without owner. It will not be possible to call `onlyOwner` functions anymore. Can only be called by the current owner. NOTE: Renouncing ownership will leave the contract without an owner, thereby removing any functionality that is only available to the owner."
      },
      "sellItem(uint256,address,uint256)": {
        "params": {
          "quantity": "count of item you want purchase",
          "receiver": "receiver address of token",
          "tokenId": "id of item"
        }
      },
      "setParamsContract(string,uint256)": {
        "params": {
          "key": "key index of params contract you want set",
          "value": "value of params contract you want set"
        }
      },
      "setaddressHero(address)": {
        "params": {
          "_addressHero": "address of contract hero"
        }
      },
      "startQuest(uint256,uint256)": {
        "params": {
          "questId": "id of quest you want to start",
          "tokenId": "id of token you want to launch in quest"
        }
      },
      "transferOwnership(address)": {
        "details": "Transfers ownership of the contract to a new account (`newOwner`). Can only be called by the current owner."
      }
    },
    "version": 1
  },
  "userdoc": {
    "kind": "user",
    "methods": {
      "buyItem(uint256,address,uint256)": {
        "notice": "purchase of a resource for eth/MATIC"
      },
      "completeQuest(uint256)": {
        "notice": "Validation of the quest at the end of a quest"
      },
      "convertToAnotherToken(uint256,address)": {
        "notice": "convert of a resource for another token"
      },
      "createGuild(address,string,string)": {
        "notice": "Create a guild by also deleting its contract"
      },
      "deleteGuild(address)": {
        "notice": "Deleted a guild by also deleting its contract"
      },
      "getAddressItem(uint256)": {
        "notice": "return item address by key"
      },
      "getAddressesGuilds()": {
        "notice": "return all guilds addresses"
      },
      "getOneGuildAddress(address)": {
        "notice": "return one guild by address creator"
      },
      "getParamsContract(string)": {
        "notice": "Return a parameter of contract by key index"
      },
      "levelUp(uint8,uint256)": {
        "notice": "level up hero and increment one stat"
      },
      "mintHero(uint8,uint8,string)": {
        "notice": "mint a hero for a value price and generate stats and parameterr"
      },
      "sellItem(uint256,address,uint256)": {
        "notice": "sell of a resource for eth/MATIC"
      },
      "setParamsContract(string,uint256)": {
        "notice": "Update a parameter of contract"
      },
      "setaddressHero(address)": {
        "notice": "Update the destination address of the official contract hero so that the delegation contract can access it"
      },
      "startQuest(uint256,uint256)": {
        "notice": "start a quest by id for one hero token"
      }
    },
    "version": 1
  }
}