{
  "contractName": "DelegateContractMYOS",
  "abi": [
    {
      "anonymous": false,
      "inputs": [
        {
          "indexed": true,
          "internalType": "address",
          "name": "previousOwner",
          "type": "address"
        },
        {
          "indexed": true,
          "internalType": "address",
          "name": "newOwner",
          "type": "address"
        }
      ],
      "name": "OwnershipTransferred",
      "type": "event"
    },
    {
      "inputs": [],
      "name": "owner",
      "outputs": [
        {
          "internalType": "address",
          "name": "",
          "type": "address"
        }
      ],
      "stateMutability": "view",
      "type": "function"
    },
    {
      "inputs": [],
      "name": "renounceOwnership",
      "outputs": [],
      "stateMutability": "nonpayable",
      "type": "function"
    },
    {
      "inputs": [
        {
          "internalType": "address",
          "name": "newOwner",
          "type": "address"
        }
      ],
      "name": "transferOwnership",
      "outputs": [],
      "stateMutability": "nonpayable",
      "type": "function"
    },
    {
      "inputs": [
        {
          "internalType": "uint256",
          "name": "newPrice",
          "type": "uint256"
        }
      ],
      "name": "setCurrentPriceMYOS",
      "outputs": [],
      "stateMutability": "nonpayable",
      "type": "function"
    },
    {
      "inputs": [
        {
          "internalType": "address",
          "name": "_addressMYOSToken",
          "type": "address"
        }
      ],
      "name": "setAddressMYOSToken",
      "outputs": [],
      "stateMutability": "nonpayable",
      "type": "function"
    },
    {
      "inputs": [
        {
          "internalType": "bytes32",
          "name": "_merkleRoot",
          "type": "bytes32"
        },
        {
          "internalType": "uint256",
          "name": "_merkleEndTime",
          "type": "uint256"
        }
      ],
      "name": "setMerkleTree",
      "outputs": [],
      "stateMutability": "nonpayable",
      "type": "function"
    },
    {
      "inputs": [
        {
          "internalType": "uint256",
          "name": "quantity",
          "type": "uint256"
        },
        {
          "internalType": "address",
          "name": "receiver",
          "type": "address"
        },
        {
          "internalType": "bytes32[]",
          "name": "_proofs",
          "type": "bytes32[]"
        },
        {
          "internalType": "uint256",
          "name": "_proofMaxQuantityPerTransaction",
          "type": "uint256"
        }
      ],
      "name": "buyMYOS",
      "outputs": [],
      "stateMutability": "payable",
      "type": "function"
    },
    {
      "inputs": [
        {
          "internalType": "uint256",
          "name": "quantity",
          "type": "uint256"
        }
      ],
      "name": "sellMYOS",
      "outputs": [],
      "stateMutability": "nonpayable",
      "type": "function"
    },
    {
      "inputs": [
        {
          "internalType": "uint256",
          "name": "quantity",
          "type": "uint256"
        },
        {
          "internalType": "address",
          "name": "anotherToken",
          "type": "address"
        }
      ],
      "name": "convertMYOSToAnotherToken",
      "outputs": [],
      "stateMutability": "nonpayable",
      "type": "function"
    },
    {
      "inputs": [],
      "name": "getDynamicPriceMYOS",
      "outputs": [
        {
          "internalType": "uint256",
          "name": "",
          "type": "uint256"
        }
      ],
      "stateMutability": "view",
      "type": "function"
    }
  ],
  "bytecode": "0x608060405234801561001057600080fd5b5061001a3361001f565b61006f565b600080546001600160a01b038381166001600160a01b0319831681178455604051919092169283917f8be0079c531659141344cd1fd0a4f28419497f9722a3daafe3b4186f6b6457e09190a35050565b610e478061007e6000396000f3fe6080604052600436106100915760003560e01c8063adcb719b11610059578063adcb719b1461012c578063ae3c14a31461014c578063bbe7f1771461016f578063f2fde38b1461018f578063fa4f8ab8146101af57600080fd5b80636e1edceb14610096578063715018a6146100ab5780638d8ac43d146100c05780638da5cb5b146100e0578063a36d3e6b1461010d575b600080fd5b6100a96100a4366004610b28565b6101cf565b005b3480156100b757600080fd5b506100a96103e9565b3480156100cc57600080fd5b506100a96100db366004610bba565b6103fd565b3480156100ec57600080fd5b506000546040516001600160a01b0390911681526020015b60405180910390f35b34801561011957600080fd5b506100a9610128366004610bd3565b5050565b34801561013857600080fd5b506100a9610147366004610bff565b61040a565b34801561015857600080fd5b5061016161041d565b604051908152602001610104565b34801561017b57600080fd5b506100a961018a366004610c21565b6104a7565b34801561019b57600080fd5b506100a96101aa366004610c21565b6104d1565b3480156101bb57600080fd5b506100a96101ca366004610bba565b61054a565b6101db338484846108df565b50506002541561023b57846002546101f39190610c59565b34101561023b5760405162461bcd60e51b8152602060048201526011602482015270135bdc9948115512081c995c5d5a5c9959607a1b60448201526064015b60405180910390fd5b600254610298578461024b61041d565b6102559190610c59565b3410156102985760405162461bcd60e51b8152602060048201526011602482015270135bdc9948115512081c995c5d5a5c9959607a1b6044820152606401610232565b60015460405160009182916001600160a01b039091169034908381818185875af1925050503d80600081146102e9576040519150601f19603f3d011682016040523d82523d6000602084013e6102ee565b606091505b506001546040805163313ce56760e01b815290519395509193506001600160a01b0316916340c10f19918991849163313ce5679160048083019260209291908290030181865afa158015610346573d6000803e3d6000fd5b505050506040513d601f19601f8201168201806040525081019061036a9190610c78565b6103789060ff16600a610d81565b610382908b610c59565b6040516001600160e01b031960e085901b1681526001600160a01b0390921660048301526024820152604401600060405180830381600087803b1580156103c857600080fd5b505af11580156103dc573d6000803e3d6000fd5b5050505050505050505050565b6103f1610994565b6103fb60006109ee565b565b610405610994565b600255565b610412610994565b600491909155600355565b600154604080516318160ddd60e01b815290516000926001600160a01b0316916318160ddd9160048083019260209291908290030181865afa158015610467573d6000803e3d6000fd5b505050506040513d601f19601f8201168201806040525081019061048b9190610d8d565b6001546104a291906001600160a01b031631610da6565b905090565b6104af610994565b600180546001600160a01b0319166001600160a01b0392909216919091179055565b6104d9610994565b6001600160a01b03811661053e5760405162461bcd60e51b815260206004820152602660248201527f4f776e61626c653a206e6577206f776e657220697320746865207a65726f206160448201526564647265737360d01b6064820152608401610232565b610547816109ee565b50565b610555816001610dc8565b600160009054906101000a90046001600160a01b03166001600160a01b03166318160ddd6040518163ffffffff1660e01b8152600401602060405180830381865afa1580156105a8573d6000803e3d6000fd5b505050506040513d601f19601f820116820180604052508101906105cc9190610d8d565b1161060e5760405162461bcd60e51b815260206004820152601260248201527127379036b7b932903a3434b9903a37b5b2b760711b6044820152606401610232565b600160009054906101000a90046001600160a01b03166001600160a01b031663313ce5676040518163ffffffff1660e01b8152600401602060405180830381865afa158015610661573d6000803e3d6000fd5b505050506040513d601f19601f820116820180604052508101906106859190610c78565b6106939060ff16600a610d81565b61069d9082610c59565b6001546001600160a01b03166370a08231336040516001600160e01b031960e084901b1681526001600160a01b039091166004820152602401602060405180830381865afa1580156106f3573d6000803e3d6000fd5b505050506040513d601f19601f820116820180604052508101906107179190610d8d565b101561075a5760405162461bcd60e51b815260206004820152601260248201527127379036b7b932903a3434b9903a37b5b2b760711b6044820152606401610232565b600254156107a757336001600160a01b03166108fc8260025461077d9190610c59565b6040518115909202916000818181858888f193505050501580156107a5573d6000803e3d6000fd5b505b6002546107ef57336108fc826107bb61041d565b6107c59190610c59565b6040518115909202916000818181858888f193505050501580156107ed573d6000803e3d6000fd5b505b6001546040805163313ce56760e01b815290516001600160a01b0390921691639dc29fac913391849163313ce5679160048083019260209291908290030181865afa158015610842573d6000803e3d6000fd5b505050506040513d601f19601f820116820180604052508101906108669190610c78565b6108749060ff16600a610d81565b61087e9085610c59565b6040516001600160e01b031960e085901b1681526001600160a01b0390921660048301526024820152604401600060405180830381600087803b1580156108c457600080fd5b505af11580156108d8573d6000803e3d6000fd5b5050505050565b6004546000908190158015906108f6575042600354105b8015610903575060035415155b1561098b57610985858580806020026020016040519081016040528093929190818152602001838360200280828437600092019190915250506004546040516bffffffffffffffffffffffff1960608d901b16602082015260348101899052909250605401905060405160208183030381529060405280519060200120610a3e565b90925090505b94509492505050565b6000546001600160a01b031633146103fb5760405162461bcd60e51b815260206004820181905260248201527f4f776e61626c653a2063616c6c6572206973206e6f7420746865206f776e65726044820152606401610232565b600080546001600160a01b038381166001600160a01b0319831681178455604051919092169283917f8be0079c531659141344cd1fd0a4f28419497f9722a3daafe3b4186f6b6457e09190a35050565b6000808281805b8751811015610b0057610a59600283610c59565b91506000888281518110610a6f57610a6f610de0565b60200260200101519050808411610ab1576040805160208101869052908101829052606001604051602081830303815290604052805190602001209350610aed565b6040805160208101839052908101859052606001604051602081830303815290604052805190602001209350600183610aea9190610dc8565b92505b5080610af881610df6565b915050610a45565b50941495939450505050565b80356001600160a01b0381168114610b2357600080fd5b919050565b600080600080600060808688031215610b4057600080fd5b85359450610b5060208701610b0c565b9350604086013567ffffffffffffffff80821115610b6d57600080fd5b818801915088601f830112610b8157600080fd5b813581811115610b9057600080fd5b8960208260051b8501011115610ba557600080fd5b96999598505060200195606001359392505050565b600060208284031215610bcc57600080fd5b5035919050565b60008060408385031215610be657600080fd5b82359150610bf660208401610b0c565b90509250929050565b60008060408385031215610c1257600080fd5b50508035926020909101359150565b600060208284031215610c3357600080fd5b610c3c82610b0c565b9392505050565b634e487b7160e01b600052601160045260246000fd5b6000816000190483118215151615610c7357610c73610c43565b500290565b600060208284031215610c8a57600080fd5b815160ff81168114610c3c57600080fd5b600181815b80851115610cd6578160001904821115610cbc57610cbc610c43565b80851615610cc957918102915b93841c9390800290610ca0565b509250929050565b600082610ced57506001610d7b565b81610cfa57506000610d7b565b8160018114610d105760028114610d1a57610d36565b6001915050610d7b565b60ff841115610d2b57610d2b610c43565b50506001821b610d7b565b5060208310610133831016604e8410600b8410161715610d59575081810a610d7b565b610d638383610c9b565b8060001904821115610d7757610d77610c43565b0290505b92915050565b6000610c3c8383610cde565b600060208284031215610d9f57600080fd5b5051919050565b600082610dc357634e487b7160e01b600052601260045260246000fd5b500490565b60008219821115610ddb57610ddb610c43565b500190565b634e487b7160e01b600052603260045260246000fd5b6000600019821415610e0a57610e0a610c43565b506001019056fea26469706673582212202ae9d0877ab78bcef96909c289c8cd892ec8ff19f88fc67012729c15ca36178a64736f6c634300080b0033",
  "immutableReferences": {},
  "source": "// SPDX-License-Identifier: MIT\n// Delegation contract\npragma solidity ^0.8.0;\n\nimport \"@openzeppelin/contracts/access/Ownable.sol\";\nimport \"./MerkleProof.sol\";\nimport \"./MYOS.sol\";\n\ncontract DelegateContractMYOS is Ownable {\n  address addressMYOSToken;\n  uint256 currentpriceMYOS;\n  uint256 merkleEndTime;\n  bytes32 merkleRoot;\n\n  ///@notice Update price of MYOS token for static price, if == 0 change for dynamic price\n  ///@param newPrice value of price in matic wei (matic / 10**18)\n  function setCurrentPriceMYOS(uint256 newPrice) external onlyOwner {\n    currentpriceMYOS = newPrice;\n  }\n\n  function setAddressMYOSToken(address _addressMYOSToken) external onlyOwner {\n    addressMYOSToken = _addressMYOSToken;\n  }\n\n  ///@notice Set the merkle tree to create whitelist for mint\n  ///@param _merkleRoot A bytes 32 represent root of tree for verify all merkle proof\n  ///@param _merkleEndTime Represent a timestamp (in seconds) represents end of whitelist\n  function setMerkleTree(bytes32 _merkleRoot, uint256 _merkleEndTime) external onlyOwner {\n    merkleRoot = _merkleRoot;\n    merkleEndTime = _merkleEndTime;\n  }\n\n  ///@notice Purchase of a resource for eth/MATIC\n  ///@param quantity number of token myos you want purchase\n  ///@param receiver address waller of receiver's token\n  function buyMYOS(\n    uint256 quantity,\n    address receiver,\n    bytes32[] calldata _proofs,\n    uint256 _proofMaxQuantityPerTransaction\n  ) external payable {\n    verifyMerkleProof(_msgSender(), _proofs, _proofMaxQuantityPerTransaction);\n    if (currentpriceMYOS != 0)\n      require(msg.value >= (currentpriceMYOS * quantity), \"More ETH required\");\n    if (currentpriceMYOS == 0)\n      require(msg.value >= (getDynamicPriceMYOS() * quantity), \"More ETH required\");\n    (bool sent, bytes memory data) = addressMYOSToken.call{ value: msg.value }(\"\");\n    MYOS(addressMYOSToken).mint(\n      receiver,\n      quantity * (10**uint256(MYOS(addressMYOSToken).decimals()))\n    );\n  }\n\n  ///@notice Sale of MYOS token against MATIC\n  ///@param quantity number of token myos you want sell\n  function sellMYOS(uint256 quantity) external {\n    require(MYOS(addressMYOSToken).totalSupply() > quantity + 1, \"No more this token\");\n    require(\n      MYOS(addressMYOSToken).balanceOf(_msgSender()) >=\n        quantity * (10**uint256(MYOS(addressMYOSToken).decimals())),\n      \"No more this token\"\n    );\n    if (currentpriceMYOS != 0) payable(_msgSender()).transfer(currentpriceMYOS * quantity);\n    if (currentpriceMYOS == 0)\n      payable(_msgSender()).transfer(getDynamicPriceMYOS() * quantity);\n    MYOS(addressMYOSToken).burn(\n      _msgSender(),\n      quantity * (10**uint256(MYOS(addressMYOSToken).decimals()))\n    );\n  }\n\n  ///@notice Converting the MYOS to another token\n  ///@param quantity number of token myos you want convert\n  ///@param anotherToken address of token you want to convert\n  function convertMYOSToAnotherToken(uint256 quantity, address anotherToken) external {\n    /*require(totalSupply()>quantity+1,\"No more this token\");\n        require(balanceOf(_msgSender())>=quantity,\"No more this token\");\n        _burn(_msgSender(),quantity);\n        currentprice = getDynamicPriceMYOS();*/\n  }\n\n  ///@notice Verify proof of a claimer to mint in a whitelist\n  ///@param _claimer _msgSender() address wallet of user he want mint token MYOS\n  ///@param _proofs array of bytes 32 represent proof of merkle with merkle tree\n  ///@param _proofMaxQuantityPerTransaction useless for us but need it, its for add quantity into merkle tree\n  function verifyMerkleProof(\n    address _claimer,\n    bytes32[] calldata _proofs,\n    uint256 _proofMaxQuantityPerTransaction\n  ) internal view returns (bool validMerkleProof, uint256 merkleProofIndex) {\n    if (\n      merkleRoot != bytes32(0) && merkleEndTime < block.timestamp && merkleEndTime != 0\n    ) {\n      (validMerkleProof, merkleProofIndex) = MerkleProofLib.verify(\n        _proofs,\n        merkleRoot,\n        keccak256(abi.encodePacked(_claimer, _proofMaxQuantityPerTransaction))\n      );\n    }\n  }\n\n  ///@notice Function to calculate dynamic price\n  function getDynamicPriceMYOS() public view returns (uint256) {\n    return\n      address(addressMYOSToken).balance / MYOS(addressMYOSToken).totalSupply();\n  }\n}\n",
  "sourcePath": "/home/kevin/Bureau/homework/MYOS/contracts/DelegateContractMYOS.sol",
  "compiler": {
    "name": "solc",
    "version": "0.8.11+commit.d7f03943.Emscripten.clang"
  },
  "schemaVersion": "3.4.7",
  "updatedAt": "2022-11-01T14:46:42.987Z",
  "devdoc": {
    "kind": "dev",
    "methods": {
      "buyMYOS(uint256,address,bytes32[],uint256)": {
        "params": {
          "quantity": "number of token myos you want purchase",
          "receiver": "address waller of receiver's token"
        }
      },
      "convertMYOSToAnotherToken(uint256,address)": {
        "params": {
          "anotherToken": "address of token you want to convert",
          "quantity": "number of token myos you want convert"
        }
      },
      "owner()": {
        "details": "Returns the address of the current owner."
      },
      "renounceOwnership()": {
        "details": "Leaves the contract without owner. It will not be possible to call `onlyOwner` functions anymore. Can only be called by the current owner. NOTE: Renouncing ownership will leave the contract without an owner, thereby removing any functionality that is only available to the owner."
      },
      "sellMYOS(uint256)": {
        "params": {
          "quantity": "number of token myos you want sell"
        }
      },
      "setCurrentPriceMYOS(uint256)": {
        "params": {
          "newPrice": "value of price in matic wei (matic / 10**18)"
        }
      },
      "setMerkleTree(bytes32,uint256)": {
        "params": {
          "_merkleEndTime": "Represent a timestamp (in seconds) represents end of whitelist",
          "_merkleRoot": "A bytes 32 represent root of tree for verify all merkle proof"
        }
      },
      "transferOwnership(address)": {
        "details": "Transfers ownership of the contract to a new account (`newOwner`). Can only be called by the current owner."
      }
    },
    "version": 1
  },
  "userdoc": {
    "kind": "user",
    "methods": {
      "buyMYOS(uint256,address,bytes32[],uint256)": {
        "notice": "Purchase of a resource for eth/MATIC"
      },
      "convertMYOSToAnotherToken(uint256,address)": {
        "notice": "Converting the MYOS to another token"
      },
      "getDynamicPriceMYOS()": {
        "notice": "Function to calculate dynamic price"
      },
      "sellMYOS(uint256)": {
        "notice": "Sale of MYOS token against MATIC"
      },
      "setCurrentPriceMYOS(uint256)": {
        "notice": "Update price of MYOS token for static price, if == 0 change for dynamic price"
      },
      "setMerkleTree(bytes32,uint256)": {
        "notice": "Set the merkle tree to create whitelist for mint"
      }
    },
    "version": 1
  }
}