{
  "contractName": "DelegateContract",
  "abi": [
    {
      "inputs": [
        {
          "internalType": "address",
          "name": "_addressHero",
          "type": "address"
        },
        {
          "internalType": "address",
          "name": "_addressQuest",
          "type": "address"
        },
        {
          "internalType": "address",
          "name": "_addressClass",
          "type": "address"
        },
        {
          "internalType": "address",
          "name": "_addressItem",
          "type": "address"
        }
      ],
      "stateMutability": "nonpayable",
      "type": "constructor"
    },
    {
      "inputs": [
        {
          "internalType": "address",
          "name": "from",
          "type": "address"
        },
        {
          "internalType": "address",
          "name": "addressGuild",
          "type": "address"
        }
      ],
      "name": "AlreadyHaveGuild",
      "type": "error"
    },
    {
      "inputs": [
        {
          "internalType": "address",
          "name": "sender",
          "type": "address"
        },
        {
          "internalType": "uint256",
          "name": "questId",
          "type": "uint256"
        },
        {
          "internalType": "uint256",
          "name": "currentQuestId",
          "type": "uint256"
        },
        {
          "internalType": "uint256",
          "name": "tokenId",
          "type": "uint256"
        }
      ],
      "name": "AlreadyInQuest",
      "type": "error"
    },
    {
      "inputs": [
        {
          "internalType": "address",
          "name": "from",
          "type": "address"
        },
        {
          "internalType": "address",
          "name": "addressGuild",
          "type": "address"
        }
      ],
      "name": "GuildNotExist",
      "type": "error"
    },
    {
      "inputs": [
        {
          "internalType": "uint256",
          "name": "statToLvlUp",
          "type": "uint256"
        },
        {
          "internalType": "uint256",
          "name": "tokenId",
          "type": "uint256"
        }
      ],
      "name": "NotAStat",
      "type": "error"
    },
    {
      "inputs": [
        {
          "internalType": "uint256",
          "name": "price",
          "type": "uint256"
        },
        {
          "internalType": "uint256",
          "name": "weiSended",
          "type": "uint256"
        },
        {
          "internalType": "uint256",
          "name": "tokenId",
          "type": "uint256"
        },
        {
          "internalType": "uint256",
          "name": "quantity",
          "type": "uint256"
        }
      ],
      "name": "NotEnoughEth",
      "type": "error"
    },
    {
      "inputs": [
        {
          "internalType": "uint256",
          "name": "price",
          "type": "uint256"
        },
        {
          "internalType": "uint256",
          "name": "weiSended",
          "type": "uint256"
        }
      ],
      "name": "NotEnoughEthHero",
      "type": "error"
    },
    {
      "inputs": [
        {
          "internalType": "uint256",
          "name": "experienceHero",
          "type": "uint256"
        },
        {
          "internalType": "uint256",
          "name": "experienceNeeded",
          "type": "uint256"
        },
        {
          "internalType": "uint256",
          "name": "tokenId",
          "type": "uint256"
        }
      ],
      "name": "NotEnoughExperience",
      "type": "error"
    },
    {
      "inputs": [
        {
          "internalType": "uint256",
          "name": "tokenLimit",
          "type": "uint256"
        },
        {
          "internalType": "uint256",
          "name": "nextTokenIdToMint",
          "type": "uint256"
        }
      ],
      "name": "NotRemainingHero",
      "type": "error"
    },
    {
      "inputs": [
        {
          "internalType": "address",
          "name": "sender",
          "type": "address"
        },
        {
          "internalType": "address",
          "name": "ownerOfToken",
          "type": "address"
        },
        {
          "internalType": "uint256",
          "name": "tokenId",
          "type": "uint256"
        }
      ],
      "name": "NotYourToken",
      "type": "error"
    },
    {
      "inputs": [
        {
          "internalType": "uint256",
          "name": "blockTimestamp",
          "type": "uint256"
        },
        {
          "internalType": "uint256",
          "name": "heroQuestTime",
          "type": "uint256"
        },
        {
          "internalType": "uint256",
          "name": "currentQuestTime",
          "type": "uint256"
        },
        {
          "internalType": "uint256",
          "name": "tokenId",
          "type": "uint256"
        }
      ],
      "name": "QuestNotFinished",
      "type": "error"
    },
    {
      "anonymous": false,
      "inputs": [
        {
          "indexed": true,
          "internalType": "address",
          "name": "previousOwner",
          "type": "address"
        },
        {
          "indexed": true,
          "internalType": "address",
          "name": "newOwner",
          "type": "address"
        }
      ],
      "name": "OwnershipTransferred",
      "type": "event"
    },
    {
      "inputs": [],
      "name": "owner",
      "outputs": [
        {
          "internalType": "address",
          "name": "",
          "type": "address"
        }
      ],
      "stateMutability": "view",
      "type": "function"
    },
    {
      "inputs": [
        {
          "internalType": "string",
          "name": "",
          "type": "string"
        }
      ],
      "name": "paramsContract",
      "outputs": [
        {
          "internalType": "uint256",
          "name": "",
          "type": "uint256"
        }
      ],
      "stateMutability": "view",
      "type": "function"
    },
    {
      "inputs": [],
      "name": "renounceOwnership",
      "outputs": [],
      "stateMutability": "nonpayable",
      "type": "function"
    },
    {
      "inputs": [
        {
          "internalType": "address",
          "name": "newOwner",
          "type": "address"
        }
      ],
      "name": "transferOwnership",
      "outputs": [],
      "stateMutability": "nonpayable",
      "type": "function"
    },
    {
      "inputs": [
        {
          "internalType": "address",
          "name": "from",
          "type": "address"
        },
        {
          "internalType": "string",
          "name": "name",
          "type": "string"
        },
        {
          "internalType": "string",
          "name": "symbol",
          "type": "string"
        }
      ],
      "name": "createGuild",
      "outputs": [],
      "stateMutability": "nonpayable",
      "type": "function"
    },
    {
      "inputs": [
        {
          "internalType": "address",
          "name": "from",
          "type": "address"
        }
      ],
      "name": "getOneGuildAddress",
      "outputs": [
        {
          "internalType": "address",
          "name": "",
          "type": "address"
        }
      ],
      "stateMutability": "view",
      "type": "function"
    },
    {
      "inputs": [],
      "name": "getAddressesGuilds",
      "outputs": [
        {
          "internalType": "address[]",
          "name": "",
          "type": "address[]"
        }
      ],
      "stateMutability": "view",
      "type": "function"
    },
    {
      "inputs": [
        {
          "internalType": "string",
          "name": "key",
          "type": "string"
        },
        {
          "internalType": "uint256",
          "name": "value",
          "type": "uint256"
        }
      ],
      "name": "setParamsContract",
      "outputs": [],
      "stateMutability": "nonpayable",
      "type": "function"
    },
    {
      "inputs": [
        {
          "internalType": "string",
          "name": "key",
          "type": "string"
        }
      ],
      "name": "getParamsContract",
      "outputs": [
        {
          "internalType": "uint256",
          "name": "",
          "type": "uint256"
        }
      ],
      "stateMutability": "view",
      "type": "function"
    },
    {
      "inputs": [
        {
          "internalType": "uint256",
          "name": "quantity",
          "type": "uint256"
        },
        {
          "internalType": "address",
          "name": "receiver",
          "type": "address"
        },
        {
          "internalType": "uint256",
          "name": "tokenId",
          "type": "uint256"
        }
      ],
      "name": "buyItem",
      "outputs": [],
      "stateMutability": "payable",
      "type": "function"
    },
    {
      "inputs": [
        {
          "internalType": "uint256",
          "name": "quantity",
          "type": "uint256"
        },
        {
          "internalType": "uint256",
          "name": "tokenId",
          "type": "uint256"
        }
      ],
      "name": "sellItem",
      "outputs": [],
      "stateMutability": "nonpayable",
      "type": "function"
    },
    {
      "inputs": [
        {
          "internalType": "uint8",
          "name": "generation",
          "type": "uint8"
        },
        {
          "internalType": "uint8",
          "name": "peuple",
          "type": "uint8"
        },
        {
          "internalType": "string",
          "name": "_tokenUri",
          "type": "string"
        }
      ],
      "name": "mintHero",
      "outputs": [],
      "stateMutability": "payable",
      "type": "function"
    },
    {
      "inputs": [
        {
          "internalType": "uint256",
          "name": "tokenId",
          "type": "uint256"
        },
        {
          "internalType": "uint256",
          "name": "questId",
          "type": "uint256"
        }
      ],
      "name": "startQuest",
      "outputs": [],
      "stateMutability": "nonpayable",
      "type": "function"
    },
    {
      "inputs": [
        {
          "internalType": "uint256",
          "name": "tokenId",
          "type": "uint256"
        }
      ],
      "name": "completeQuest",
      "outputs": [],
      "stateMutability": "nonpayable",
      "type": "function"
    },
    {
      "inputs": [
        {
          "internalType": "uint8",
          "name": "statToLvlUp",
          "type": "uint8"
        },
        {
          "internalType": "uint256",
          "name": "tokenId",
          "type": "uint256"
        }
      ],
      "name": "levelUp",
      "outputs": [],
      "stateMutability": "nonpayable",
      "type": "function"
    },
    {
      "inputs": [],
      "name": "withdraw",
      "outputs": [],
      "stateMutability": "nonpayable",
      "type": "function"
    }
  ],
  "bytecode": "0x60806040523480156200001157600080fd5b5060405162005a4338038062005a43833981016040819052620000349162000274565b6200003f3362000207565b600180546001600160a01b038087166001600160a01b031992831681179093556002805487831690841617905560038054868316908416179055600480549185169190921617815560405163f26bf0b760e01b815263f26bf0b791620000cb91016020808252601190820152701b995e1d151bdad95b9259151bd35a5b9d607a1b604082015260600190565b602060405180830381865afa158015620000e9573d6000803e3d6000fd5b505050506040513d601f19601f820116820180604052508101906200010f9190620002d1565b60408051701b995e1d151bdad95b9259151bd35a5b9d607a1b815260056011820181905282519182900360310182209390935564707269636560d81b81528083018390528151908190036025908101822067016345785d8a00009055671d1bdd185b141b9d60c21b8252600882018490528251918290036028018220849055691d1bdad95b931a5b5a5d60b21b8252600a8201849052825191829003602a0182206127109055646e6f6e636560d81b8252818401849052825191829003018120600090556c0657870466f724c6576656c557609c1b8152600d8101929092525190819003602d0190206064905550620002eb92505050565b600080546001600160a01b038381166001600160a01b0319831681178455604051919092169283917f8be0079c531659141344cd1fd0a4f28419497f9722a3daafe3b4186f6b6457e09190a35050565b80516001600160a01b03811681146200026f57600080fd5b919050565b600080600080608085870312156200028b57600080fd5b620002968562000257565b9350620002a66020860162000257565b9250620002b66040860162000257565b9150620002c66060860162000257565b905092959194509250565b600060208284031215620002e457600080fd5b5051919050565b61574880620002fb6000396000f3fe608060405260043610620001075760003560e01c8063715018a61162000095578063c3c33b401162000060578063c3c33b4014620002e2578063f26bf0b71462000307578063f2fde38b146200032c578063fa84413a146200035157600080fd5b8063715018a6146200025a5780638da5cb5b1462000272578063ac56c43d14620002a6578063b77f02e814620002bd57600080fd5b806348c6309d11620000d657806348c6309d1462000195578063528be0a914620001c5578063586e2ee414620001ea5780635f9d45d8146200020f57600080fd5b80630b275db4146200010c5780632d92356114620001335780633cb1194414620001585780633ccfd60b146200017d575b600080fd5b3480156200011957600080fd5b50620001316200012b36600462002268565b62000368565b005b3480156200014057600080fd5b50620001316200015236600462002297565b6200079d565b3480156200016557600080fd5b50620001316200017736600462002305565b62000a59565b3480156200018a57600080fd5b506200013162000a8d565b348015620001a257600080fd5b50620001ad62000ac7565b604051620001bc919062002354565b60405180910390f35b348015620001d257600080fd5b5062000131620001e4366004620023a3565b62000bc1565b348015620001f757600080fd5b506200013162000209366004620023d3565b620011da565b3480156200021c57600080fd5b506200024b6200022e36600462002546565b805160208183018101805160058252928201919093012091525481565b604051908152602001620001bc565b3480156200026757600080fd5b506200013162001313565b3480156200027f57600080fd5b506000546001600160a01b03165b6040516001600160a01b039091168152602001620001bc565b62000131620002b7366004620025cd565b6200132b565b348015620002ca57600080fd5b506200028d620002dc36600462002608565b62001474565b348015620002ef57600080fd5b50620001316200030136600462002297565b620014f6565b3480156200031457600080fd5b506200024b620003263660046200262f565b620017f6565b3480156200033957600080fd5b50620001316200034b36600462002608565b62001824565b620001316200036236600462002674565b620018a0565b60015481906001600160a01b0316336040516331a9108f60e11b8152600481018490526001600160a01b0391821691831690636352211e90602401602060405180830381865afa158015620003c1573d6000803e3d6000fd5b505050506040513d601f19601f82011682018060405250810190620003e79190620026e0565b6001600160a01b0316146200049c57335b6040516331a9108f60e11b8152600481018490526001600160a01b03831690636352211e90602401602060405180830381865afa1580156200043e573d6000803e3d6000fd5b505050506040513d601f19601f82011682018060405250810190620004649190620026e0565b6040516365165d8160e11b81526001600160a01b03928316600482015291166024820152604481018390526064015b60405180910390fd5b60015460405163183c06e560e31b8152600481018590526001600160a01b0390911690600090829063c1e0372890602401600060405180830381865afa158015620004eb573d6000803e3d6000fd5b505050506040513d6000823e601f3d908101601f19168201604052620005159190810190620027b0565b90508060200151600981518110620005315762000531620028a8565b602002602001015160056040516200055c906c0657870466f724c6576656c557609c1b8152600d0190565b908152602001604051809103902054620005779190620029d1565b62000584906064620029df565b81602001516008815181106200059e576200059e620028a8565b60200260200101511162000665578060200151600881518110620005c657620005c6620028a8565b60200260200101518160200151600981518110620005e857620005e8620028a8565b6020026020010151600560405162000613906c0657870466f724c6576656c557609c1b8152600d0190565b9081526020016040518091039020546200062e9190620029d1565b6200063b906064620029df565b60405163c2f02ac960e01b8152600481019290925260248201526044810186905260640162000493565b60058660ff1611156200069857604051632f62314360e11b815260ff871660048201526024810186905260440162000493565b8051805160ff8816908110620006b257620006b2620028a8565b602002602001018051809190620006c990620029fa565b60ff1660ff168152505060008160200151600881518110620006ef57620006ef620028a8565b6020026020010181815250508060200151600981518110620007155762000715620028a8565b6020026020010180518091906200072c9062002a1d565b9052506040516338bd885760e21b81526001600160a01b0383169063e2f6215c90620007619084908990339060040162002aad565b600060405180830381600087803b1580156200077c57600080fd5b505af115801562000791573d6000803e3d6000fd5b50505050505050505050565b60048054604051630398026560e51b81529182018390526001600160a01b03169060009082906373004ca090602401600060405180830381865afa158015620007ea573d6000803e3d6000fd5b505050506040513d6000823e601f3d908101601f1916820160405262000814919081019062002b94565b60405163f77ee79d60e01b81526004810185905290915084906001600160a01b0384169063f77ee79d90602401602060405180830381865afa1580156200085f573d6000803e3d6000fd5b505050506040513d601f19601f8201168201806040525081019062000885919062002c46565b1015620008ca5760405162461bcd60e51b815260206004820152601260248201527127379036b7b932903a3434b9903a37b5b2b760711b604482015260640162000493565b836001600160a01b03831662fdd58e336040516001600160e01b031960e084901b1681526001600160a01b03909116600482015260248101879052604401602060405180830381865afa15801562000926573d6000803e3d6000fd5b505050506040513d601f19601f820116820180604052508101906200094c919062002c46565b1015620009915760405162461bcd60e51b815260206004820152601260248201527127379036b7b932903a3434b9903a37b5b2b760711b604482015260640162000493565b336001600160a01b03166108fc858360400151620009b0919062002c60565b6040518115909202916000818181858888f19350505050158015620009d9573d6000803e3d6000fd5b506001600160a01b03821663f5298aca336040516001600160e01b031960e084901b1681526001600160a01b0390911660048201526024810186905260448101879052606401600060405180830381600087803b15801562000a3a57600080fd5b505af115801562000a4f573d6000803e3d6000fd5b5050505050505050565b62000a6362001b25565b806005848460405162000a7892919062002c82565b90815260405190819003602001902055505050565b62000a9762001b25565b60405133904780156108fc02916000818181858888f1935050505015801562000ac4573d6000803e3d6000fd5b50565b60085460609060009060ff166001600160401b0381111562000aed5762000aed6200245e565b60405190808252806020026020018201604052801562000b17578160200160208202803683370190505b5090506000805b60085460ff1681101562000bb9576000818152600760205260409020546001600160a01b03161562000ba45760008181526007602052604090205483516001600160a01b039091169084908490811062000b7c5762000b7c620028a8565b6001600160a01b03909216602092830291909101909101528162000ba08162002a1d565b9250505b8062000bb08162002a1d565b91505062000b1e565b509092915050565b60015481906001600160a01b0316336040516331a9108f60e11b8152600481018490526001600160a01b0391821691831690636352211e90602401602060405180830381865afa15801562000c1a573d6000803e3d6000fd5b505050506040513d601f19601f8201168201806040525081019062000c409190620026e0565b6001600160a01b03161462000c565733620003f8565b60015460405163183c06e560e31b8152600481018590526001600160a01b0390911690600090829063c1e0372890602401600060405180830381865afa15801562000ca5573d6000803e3d6000fd5b505050506040513d6000823e601f3d908101601f1916820160405262000ccf9190810190620027b0565b600254602082015180519293506001600160a01b0390911691600091839163b0f929b09190600390811062000d085762000d08620028a8565b60200260200101516040518263ffffffff1660e01b815260040162000d2f91815260200190565b600060405180830381865afa15801562000d4d573d6000803e3d6000fd5b505050506040513d6000823e601f3d908101601f1916820160405262000d77919081019062002ca5565b90508060a00151836020015160028151811062000d985762000d98620028a8565b60200260200101514262000dad919062002d8d565b1162000e105742836020015160028151811062000dce5762000dce620028a8565b60200260200101518260a001518960405163250ebb6160e21b815260040162000493949392919093845260208401929092526040830152606082015260800190565b6000805b8260400151518160ff16101562000eee578451805160ff831690811062000e3f5762000e3f620028a8565b602002602001015160ff1683604001518260ff168151811062000e665762000e66620028a8565b602002602001015160ff16111562000ed9578451805160ff831690811062000e925762000e92620028a8565b602002602001015183604001518260ff168151811062000eb65762000eb6620028a8565b602002602001015162000eca919062002da7565b62000ed6908362002dcd565b91505b8062000ee581620029fa565b91505062000e14565b50600062000f0862000f0283606462002da7565b62001b81565b60ff16905080856020015160078151811062000f285762000f28620028a8565b602002602001018181525050826020015160ff16811115620010f2576001856020015160068151811062000f605762000f60620028a8565b602002602001018181525050836001600160a01b0316636827822e6040518163ffffffff1660e01b8152600401602060405180830381865afa15801562000fab573d6000803e3d6000fd5b505050506040513d601f19601f8201168201806040525081019062000fd1919062002df5565b835162000fe29160ff169062002e15565b61ffff168560200151600881518110620010005762001000620028a8565b60200260200101818151620010169190620029df565b9052506004546001600160a01b031660005b846060015151811015620010ea576001600160a01b03821663156e29f633876060015184815181106200105f576200105f620028a8565b60209081029190910101516040516001600160e01b031960e085901b1681526001600160a01b03909216600483015260ff16602482015260016044820152606401600060405180830381600087803b158015620010bb57600080fd5b505af1158015620010d0573d6000803e3d6000fd5b505050508080620010e19062002a1d565b91505062001028565b50506200111b565b600085602001516006815181106200110e576200110e620028a8565b6020026020010181815250505b428560200151600281518110620011365762001136620028a8565b602002602001018181525050600085602001516004815181106200115e576200115e620028a8565b60209081029190910101526040516338bd885760e21b81526001600160a01b0387169063e2f6215c906200119b9088908d90339060040162002aad565b600060405180830381600087803b158015620011b657600080fd5b505af1158015620011cb573d6000803e3d6000fd5b50505050505050505050505050565b6001600160a01b0385811660009081526006602052604090205416156200123c576001600160a01b038581166000818152600660205260409081902054905163ce4571ef60e01b81526004810192909252909116602482015260440162000493565b83838383336000546001600160a01b031660085460405160ff9091169062001264906200224a565b62001276979695949392919062002e6b565b604051809103906000f08015801562001293573d6000803e3d6000fd5b506001600160a01b0380871660008181526006602090815260408083208054969095166001600160a01b0319968716179094556008805460ff90811684526007909252938220805490951690921790935581541691620012f383620029fa565b91906101000a81548160ff021916908360ff160217905550505050505050565b6200131d62001b25565b62001329600062001b91565b565b60048054604051630398026560e51b81529182018390526001600160a01b03169060009082906373004ca090602401600060405180830381865afa15801562001378573d6000803e3d6000fd5b505050506040513d6000823e601f3d908101601f19168201604052620013a2919081019062002b94565b9050848160400151620013b6919062002c60565b3410156200140257848160400151620013d0919062002c60565b60405163c1a311cf60e01b81526004810191909152346024820152604481018490526064810186905260840162000493565b604051630ab714fb60e11b81526001600160a01b038581166004830152602482018590526044820187905283169063156e29f690606401600060405180830381600087803b1580156200145457600080fd5b505af115801562001469573d6000803e3d6000fd5b505050505050505050565b6001600160a01b03818116600090815260066020526040812054909116620014d7576001600160a01b038281166000818152600660205260409081902054905163629818cb60e01b81526004810192909252909116602482015260440162000493565b506001600160a01b039081166000908152600660205260409020541690565b60015482906001600160a01b0316336040516331a9108f60e11b8152600481018490526001600160a01b0391821691831690636352211e90602401602060405180830381865afa1580156200154f573d6000803e3d6000fd5b505050506040513d601f19601f82011682018060405250810190620015759190620026e0565b6001600160a01b0316146200158b5733620003f8565b600154600254604051630b0f929b60e41b8152600481018690526001600160a01b039283169290911690600090829063b0f929b090602401600060405180830381865afa158015620015e1573d6000803e3d6000fd5b505050506040513d6000823e601f3d908101601f191682016040526200160b919081019062002ca5565b60405163183c06e560e31b8152600481018990529091506000906001600160a01b0385169063c1e0372890602401600060405180830381865afa15801562001657573d6000803e3d6000fd5b505050506040513d6000823e601f3d908101601f19168201604052620016819190810190620027b0565b905080602001516004815181106200169d576200169d620028a8565b60200260200101516000146200170e5733878260200151600481518110620016c957620016c9620028a8565b602090810291909101015160405163c9913a8d60e01b81526001600160a01b039093166004840152602483019190915260448201526064810189905260840162000493565b428160200151600281518110620017295762001729620028a8565b602002602001018181525050868160200151600381518110620017505762001750620028a8565b6020026020010181815250508160a0015181602001516004815181106200177b576200177b620028a8565b60209081029190910101526040516338bd885760e21b81526001600160a01b0385169063e2f6215c90620017b89084908c90339060040162002aad565b600060405180830381600087803b158015620017d357600080fd5b505af1158015620017e8573d6000803e3d6000fd5b505050505050505050505050565b6000600583836040516200180c92919062002c82565b90815260200160405180910390205490505b92915050565b6200182e62001b25565b6001600160a01b038116620018955760405162461bcd60e51b815260206004820152602660248201527f4f776e61626c653a206e6577206f776e657220697320746865207a65726f206160448201526564647265737360d01b606482015260840162000493565b62000ac48162001b91565b60405164707269636560d81b81526005908101908152602001604051809103902054341015620019075760405162461bcd60e51b8152602060048201526011602482015270135bdc9948115512081c995c5d5a5c9959607a1b604482015260640162000493565b60405164707269636560d81b81526005908101908152602001604051809103902054341015620019715760405164707269636560d81b815260059081019081526040519081900360200181205462a184d760e21b8252600482015234602482015260440162000493565b604051701b995e1d151bdad95b9259151bd35a5b9d607a1b815260059060110190815260405190819003602001812054691d1bdad95b931a5b5a5d60b21b825290600590600a019081526020016040518091039020541162001a4557604051691d1bdad95b931a5b5a5d60b21b8152600590600a0190815260405190819003602001812054701b995e1d151bdad95b9259151bd35a5b9d607a1b82529060059060110190815260405190819003602001812054633a3b705560e11b8252620004939291600401918252602082015260400190565b600062001a528462001be1565b9050600062001a62348762002058565b9050600560405162001a8b90701b995e1d151bdad95b9259151bd35a5b9d607a1b815260110190565b908152604051908190036020019020805490600062001aaa8362002a1d565b90915550506001546001600160a01b031680639005ba9533858589896040518663ffffffff1660e01b815260040162001ae895949392919062002ec5565b600060405180830381600087803b15801562001b0357600080fd5b505af115801562001b18573d6000803e3d6000fd5b5050505050505050505050565b6000546001600160a01b03163314620013295760405162461bcd60e51b815260206004820181905260248201527f4f776e61626c653a2063616c6c6572206973206e6f7420746865206f776e6572604482015260640162000493565b60006200181e8260ff166200218a565b600080546001600160a01b038381166001600160a01b0319831681178455604051919092169283917f8be0079c531659141344cd1fd0a4f28419497f9722a3daafe3b4186f6b6457e09190a35050565b6040805160148082526102a08201909252606091600091906020820161028080368337019050506003546040805160a08101825260008082526020820181905260609282018390528282015260808101919091529192506001600160a01b03169060405163323eae4960e01b8152600060048201526001600160a01b0383169063323eae4990602401600060405180830381865afa15801562001c88573d6000803e3d6000fd5b505050506040513d6000823e601f3d908101601f1916820160405262001cb2919081019062002f22565b905060005b826001600160a01b0316630b01ca3b6040518163ffffffff1660e01b8152600401602060405180830381865afa15801562001cf6573d6000803e3d6000fd5b505050506040513d601f19601f8201168201806040525081019062001d1c919062002df5565b60ff168160ff16101562001e405760405163323eae4960e01b815260ff821660048201526001600160a01b0384169063323eae4990602401600060405180830381865afa15801562001d72573d6000803e3d6000fd5b505050506040513d6000823e601f3d908101601f1916820160405262001d9c919081019062002f22565b5160ff1662001dac606462001b81565b60ff16101562001e2b5760405163323eae4960e01b815260ff821660048201526001600160a01b0384169063323eae4990602401600060405180830381865afa15801562001dfe573d6000803e3d6000fd5b505050506040513d6000823e601f3d908101601f1916820160405262001e28919081019062002f22565b91505b8062001e3781620029fa565b91505062001cb7565b5060408101518051819060009062001e5c5762001e5c620028a8565b60200260200101518460008151811062001e7a5762001e7a620028a8565b602002602001019060ff16908160ff16815250508060018151811062001ea45762001ea4620028a8565b60200260200101518460018151811062001ec25762001ec2620028a8565b602002602001019060ff16908160ff16815250508060028151811062001eec5762001eec620028a8565b60200260200101518460028151811062001f0a5762001f0a620028a8565b602002602001019060ff16908160ff16815250508060038151811062001f345762001f34620028a8565b60200260200101518460038151811062001f525762001f52620028a8565b602002602001019060ff16908160ff16815250508060048151811062001f7c5762001f7c620028a8565b60200260200101518460048151811062001f9a5762001f9a620028a8565b602002602001019060ff16908160ff16815250508060058151811062001fc45762001fc4620028a8565b60200260200101518460058151811062001fe25762001fe2620028a8565b602002602001019060ff16908160ff168152505085846008815181106200200d576200200d620028a8565b602002602001019060ff16908160ff16815250508160200151846009815181106200203c576200203c620028a8565b60ff909216602092830291909101909101525091949350505050565b6040805160148082526102a082019092526060916000919060208201610280803683370190505090504281600081518110620020985762002098620028a8565b6020026020010181815250508381600181518110620020bb57620020bb620028a8565b6020026020010181815250504281600281518110620020de57620020de620028a8565b6020908102919091010152604051701b995e1d151bdad95b9259151bd35a5b9d607a1b8152600590601101908152602001604051809103902054816006815181106200212e576200212e620028a8565b6020026020010181815250508260ff1681600781518110620021545762002154620028a8565b602002602001018181525050600181600981518110620021785762002178620028a8565b60209081029190910101529392505050565b60408051646e6f6e636560d81b81526005808201528151908190036025018120544260208301526bffffffffffffffffffffffff193360601b16928201929092526054810191909152600090819083906074016040516020818303038152906040528051906020012060001c62002202919062002ffa565b905060056040516200221f90646e6f6e636560d81b815260050190565b90815260405190819003602001902080549060006200223e8362002a1d565b90915550909392505050565b6126f5806200301e83390190565b60ff8116811462000ac457600080fd5b600080604083850312156200227c57600080fd5b8235620022898162002258565b946020939093013593505050565b60008060408385031215620022ab57600080fd5b50508035926020909101359150565b60008083601f840112620022cd57600080fd5b5081356001600160401b03811115620022e557600080fd5b602083019150836020828501011115620022fe57600080fd5b9250929050565b6000806000604084860312156200231b57600080fd5b83356001600160401b038111156200233257600080fd5b6200234086828701620022ba565b909790965060209590950135949350505050565b6020808252825182820181905260009190848201906040850190845b81811015620023975783516001600160a01b03168352928401929184019160010162002370565b50909695505050505050565b600060208284031215620023b657600080fd5b5035919050565b6001600160a01b038116811462000ac457600080fd5b600080600080600060608688031215620023ec57600080fd5b8535620023f981620023bd565b945060208601356001600160401b03808211156200241657600080fd5b6200242489838a01620022ba565b909650945060408801359150808211156200243e57600080fd5b506200244d88828901620022ba565b969995985093965092949392505050565b634e487b7160e01b600052604160045260246000fd5b604080519081016001600160401b03811182821017156200249957620024996200245e565b60405290565b60405160e081016001600160401b03811182821017156200249957620024996200245e565b60405160a081016001600160401b03811182821017156200249957620024996200245e565b604051601f8201601f191681016001600160401b03811182821017156200251457620025146200245e565b604052919050565b60006001600160401b038211156200253857620025386200245e565b50601f01601f191660200190565b6000602082840312156200255957600080fd5b81356001600160401b038111156200257057600080fd5b8201601f810184136200258257600080fd5b80356200259962002593826200251c565b620024e9565b818152856020838501011115620025af57600080fd5b81602084016020830137600091810160200191909152949350505050565b600080600060608486031215620025e357600080fd5b833592506020840135620025f781620023bd565b929592945050506040919091013590565b6000602082840312156200261b57600080fd5b81356200262881620023bd565b9392505050565b600080602083850312156200264357600080fd5b82356001600160401b038111156200265a57600080fd5b6200266885828601620022ba565b90969095509350505050565b600080600080606085870312156200268b57600080fd5b8435620026988162002258565b93506020850135620026aa8162002258565b925060408501356001600160401b03811115620026c657600080fd5b620026d487828801620022ba565b95989497509550505050565b600060208284031215620026f357600080fd5b81516200262881620023bd565b60006001600160401b038211156200271c576200271c6200245e565b5060051b60200190565b8051620027338162002258565b919050565b600082601f8301126200274a57600080fd5b815160206200275d620025938362002700565b82815260059290921b840181019181810190868411156200277d57600080fd5b8286015b84811015620027a5578051620027978162002258565b835291830191830162002781565b509695505050505050565b60006020808385031215620027c457600080fd5b82516001600160401b0380821115620027dc57600080fd5b9084019060408287031215620027f157600080fd5b620027fb62002474565b8251828111156200280b57600080fd5b620028198882860162002738565b82525083830151828111156200282e57600080fd5b80840193505086601f8401126200284457600080fd5b8251915062002857620025938362002700565b82815260059290921b830184019184810190888411156200287757600080fd5b938501935b8385101562002897578451825293850193908501906200287c565b948201949094529695505050505050565b634e487b7160e01b600052603260045260246000fd5b634e487b7160e01b600052601160045260246000fd5b600181815b8085111562002915578160001904821115620028f957620028f9620028be565b808516156200290757918102915b93841c9390800290620028d9565b509250929050565b6000826200292e575060016200181e565b816200293d575060006200181e565b8160018114620029565760028114620029615762002981565b60019150506200181e565b60ff841115620029755762002975620028be565b50506001821b6200181e565b5060208310610133831016604e8410600b8410161715620029a6575081810a6200181e565b620029b28383620028d4565b8060001904821115620029c957620029c9620028be565b029392505050565b60006200262883836200291d565b60008219821115620029f557620029f5620028be565b500190565b600060ff821660ff81141562002a145762002a14620028be565b60010192915050565b600060001982141562002a345762002a34620028be565b5060010190565b600081518084526020808501945080840160005b8381101562002a7057815160ff168752958201959082019060010162002a4f565b509495945050505050565b600081518084526020808501945080840160005b8381101562002a705781518752958201959082019060010162002a8f565b60608152600084516040606084015262002acb60a084018262002a3b565b90506020860151605f1984830301608085015262002aea828262002a7b565b60208501969096525050506001600160a01b0391909116604090910152919050565b600082601f83011262002b1e57600080fd5b815162002b2f62002593826200251c565b8181526020858184870101111562002b4657600080fd5b60005b8381101562002b6657858101820151838201830152810162002b49565b8381111562002b785760008285850101525b509095945050505050565b805180151581146200273357600080fd5b60006020828403121562002ba757600080fd5b81516001600160401b038082111562002bbf57600080fd5b908301906080828603121562002bd457600080fd5b60405160808101818110838211171562002bf25762002bf26200245e565b60405282518281111562002c0557600080fd5b62002c138782860162002b0c565b825250602083015160208201526040830151604082015262002c386060840162002b83565b606082015295945050505050565b60006020828403121562002c5957600080fd5b5051919050565b600081600019048311821515161562002c7d5762002c7d620028be565b500290565b8183823760009101908152919050565b805161ffff811681146200273357600080fd5b60006020828403121562002cb857600080fd5b81516001600160401b038082111562002cd057600080fd5b9083019060e0828603121562002ce557600080fd5b62002cef6200249f565b62002cfa8362002c92565b815262002d0a6020840162002726565b602082015260408301518281111562002d2257600080fd5b62002d308782860162002738565b60408301525060608301518281111562002d4957600080fd5b62002d578782860162002738565b6060830152506080830151608082015260a083015160a082015262002d7f60c0840162002b83565b60c082015295945050505050565b60008282101562002da25762002da2620028be565b500390565b600060ff821660ff84168082101562002dc45762002dc4620028be565b90039392505050565b600060ff821660ff84168060ff0382111562002ded5762002ded620028be565b019392505050565b60006020828403121562002e0857600080fd5b8151620026288162002258565b600061ffff8083168185168183048111821515161562002e395762002e39620028be565b02949350505050565b81835281816020850137506000828201602090810191909152601f909101601f19169091010190565b60a08152600062002e8160a08301898b62002e42565b828103602084015262002e9681888a62002e42565b6001600160a01b0396871660408501529490951660608301525060ff9190911660809091015295945050505050565b6001600160a01b038616815260806020820181905260009062002eeb9083018762002a3b565b828103604084015262002eff818762002a7b565b9050828103606084015262002f1681858762002e42565b98975050505050505050565b60006020828403121562002f3557600080fd5b81516001600160401b038082111562002f4d57600080fd5b9083019060a0828603121562002f6257600080fd5b62002f6c620024c4565b825162002f798162002258565b8152602083015162002f8b8162002258565b602082015260408301518281111562002fa357600080fd5b62002fb18782860162002738565b60408301525062002fc56060840162002b83565b606082015260808301518281111562002fdd57600080fd5b62002feb8782860162002b0c565b60808301525095945050505050565b6000826200301857634e487b7160e01b600052601260045260246000fd5b50069056fe60806040523480156200001157600080fd5b50604051620026f5380380620026f583398101604081905262000034916200022e565b8451859085906200004d906003906020850190620000a2565b50805162000063906004906020840190620000a2565b5050600c80546001600160a01b039586166001600160a01b031991821617909155600d80549490951693169290921790925550600855506200030b9050565b828054620000b090620002ce565b90600052602060002090601f016020900481019282620000d457600085556200011f565b82601f10620000ef57805160ff19168380011785556200011f565b828001600101855582156200011f579182015b828111156200011f57825182559160200191906001019062000102565b506200012d92915062000131565b5090565b5b808211156200012d576000815560010162000132565b634e487b7160e01b600052604160045260246000fd5b600082601f8301126200017057600080fd5b81516001600160401b03808211156200018d576200018d62000148565b604051601f8301601f19908116603f01168101908282118183101715620001b857620001b862000148565b81604052838152602092508683858801011115620001d557600080fd5b600091505b83821015620001f95785820183015181830184015290820190620001da565b838211156200020b5760008385830101525b9695505050505050565b6001600160a01b03811681146200022b57600080fd5b50565b600080600080600060a086880312156200024757600080fd5b85516001600160401b03808211156200025f57600080fd5b6200026d89838a016200015e565b965060208801519150808211156200028457600080fd5b5062000293888289016200015e565b9450506040860151620002a68162000215565b6060870151909350620002b98162000215565b80925050608086015190509295509295909350565b600181811c90821680620002e357607f821691505b602082108114156200030557634e487b7160e01b600052602260045260246000fd5b50919050565b6123da806200031b6000396000f3fe6080604052600436106101b75760003560e01c806372a2377f116100ec578063ca6d56dc1161008a578063dd62ed3e11610064578063dd62ed3e146104e9578063e0f9895514610509578063f798e52514610529578063fd0232b21461054957600080fd5b8063ca6d56dc14610494578063ccf25b4d146104b4578063cd9f0921146104e157600080fd5b8063a457c2d7116100c6578063a457c2d714610414578063a9059cbb14610434578063aa887bb614610454578063c7f067441461047457600080fd5b806372a2377f146103bd5780637c0f6b35146103dd57806395d89b41146103ff57600080fd5b8063395093511161015957806355f6e5071161013357806355f6e507146103255780635d1ca631146103525780636586737a1461036757806370a082311461038757600080fd5b806339509351146102c357806340566488146102e357806344a96ce01461030557600080fd5b806323b872dd1161019557806323b872dd146102365780632f54bf6e14610256578063313ce567146102855780633597f252146102a157600080fd5b806306fdde03146101bc578063095ea7b3146101e757806318160ddd14610217575b600080fd5b3480156101c857600080fd5b506101d1610576565b6040516101de9190611e0a565b60405180910390f35b3480156101f357600080fd5b50610207610202366004611e39565b610608565b60405190151581526020016101de565b34801561022357600080fd5b506002545b6040519081526020016101de565b34801561024257600080fd5b50610207610251366004611e63565b610622565b34801561026257600080fd5b50610207610271366004611e9f565b600c546001600160a01b0391821691161490565b34801561029157600080fd5b50604051601281526020016101de565b3480156102ad57600080fd5b506102c16102bc366004611f6e565b610648565b005b3480156102cf57600080fd5b506102076102de366004611e39565b610758565b3480156102ef57600080fd5b506102f861077a565b6040516101de9190611ff8565b34801561031157600080fd5b506102c161032036600461206a565b610972565b34801561033157600080fd5b50610345610340366004611e9f565b610a03565b6040516101de91906120d1565b34801561035e57600080fd5b50600854610228565b34801561037357600080fd5b506102c16103823660046120df565b610acd565b34801561039357600080fd5b506102286103a2366004611e9f565b6001600160a01b031660009081526020819052604090205490565b3480156103c957600080fd5b506102c16103d8366004612114565b610b68565b3480156103e957600080fd5b506103f2610cc0565b6040516101de919061212d565b34801561040b57600080fd5b506101d1610e21565b34801561042057600080fd5b5061020761042f366004611e39565b610e30565b34801561044057600080fd5b5061020761044f366004611e39565b610eb6565b34801561046057600080fd5b506102c161046f366004611e9f565b610ec4565b34801561048057600080fd5b506102c161048f366004612114565b61112c565b3480156104a057600080fd5b506102c16104af366004611e9f565b611239565b3480156104c057600080fd5b506104d46104cf36600461217b565b611486565b6040516101de9190612196565b6102c161155a565b3480156104f557600080fd5b506102286105043660046121bb565b6115fd565b34801561051557600080fd5b506102286105243660046121ee565b611628565b34801561053557600080fd5b506102c1610544366004612223565b61164b565b34801561055557600080fd5b50610569610564366004612114565b611899565b6040516101de919061224d565b60606003805461058590612260565b80601f01602080910402602001604051908101604052809291908181526020018280546105b190612260565b80156105fe5780601f106105d3576101008083540402835291602001916105fe565b820191906000526020600020905b8154815290600101906020018083116105e157829003601f168201915b5050505050905090565b600033610616818585611968565b60019150505b92915050565b600033610630858285611a8c565b61063b858585611b06565b60019150505b9392505050565b600c546001600160a01b0316336001600160a01b0316148061067d5750600d546001600160a01b0316336001600160a01b0316145b6106bf5760405162461bcd60e51b815260206004820152600e60248201526d139bdd081e5bdd5c8819dd5a5b1960921b60448201526064015b60405180910390fd5b60008260ff161180156106d55750600a8260ff16105b6107105760405162461bcd60e51b815260206004820152600c60248201526b06260408ee4c2c8ca409ac2f60a31b60448201526064016106b6565b604080518082018252848152602080820184815260ff86166000908152600583529390932082518155925180519293926107509260018501920190611cef565b505050505050565b60003361061681858561076b83836115fd565b61077591906122ab565b611968565b6060600b54600014156107d25760408051600080825260208201909252906107cc565b6040805160608082018352600080835260208301529181019190915281526020019060019003908161079d5790505b50905090565b6000600b5467ffffffffffffffff8111156107ef576107ef611ecb565b60405190808252806020026020018201604052801561083c57816020015b6040805160608082018352600080835260208301529181019190915281526020019060019003908161080d5790505b50905060005b600b5481101561096c5760008181526007602052604090205460ff1615156001141561095a576000818152600760209081526040918290208251606081018452815460ff81161515825261010090046001600160a01b0316928101929092526001810180549193849290840191906108b990612260565b80601f01602080910402602001604051908101604052809291908181526020018280546108e590612260565b80156109325780601f1061090757610100808354040283529160200191610932565b820191906000526020600020905b81548152906001019060200180831161091557829003601f168201915b50505050508152505083838151811061094d5761094d6122c3565b6020026020010181905250505b80610964816122d9565b915050610842565b50919050565b600c546001600160a01b0316336001600160a01b031614806109a75750600d546001600160a01b0316336001600160a01b0316145b6109e45760405162461bcd60e51b815260206004820152600e60248201526d139bdd081e5bdd5c8819dd5a5b1960921b60448201526064016106b6565b6000908152600660205260409020805460ff1916911515919091179055565b610a0b611d73565b610a13611d73565b60005b600a54811015610ac6576000818152600660205260409020600401546001600160a01b0385811691161415610ab457600081815260066020908152604091829020825160c081018452815460ff8082161515835261010090910416928101929092526001810154928201929092526002820154606082015260038201546001600160a01b03908116608083015260049092015490911660a082015291505b80610abe816122d9565b915050610a16565b5092915050565b604080516060810182526001808252336020808401918252838501868152600b54600090815260078352959095208451815493516001600160a81b0319909416901515610100600160a81b031916176101006001600160a01b03909416939093029290921782559351805193949193610b4d938501929190910190611cef565b5050600b805491506000610b60836122d9565b919050555050565b60008181526007602052604090205460ff161515600114610bcb5760405162461bcd60e51b815260206004820181905260248201527f5468697320696e7669746174696f6e206973206e6f206d6f72652076616c696460448201526064016106b6565b6000805b600a54811015610c11576000818152600660205260409020600401546001600160a01b0316331415610bff578091505b80610c09816122d9565b915050610bcf565b506000828152600760205260409020546001600160a01b0361010090910416331480610c8b575060008181526006602052604090205460ff1615156001148015610c8b5750600081815260066020908152604080832054610100900460ff1683526005909152902054610c85906004611cd4565b15156001145b610ca75760405162461bcd60e51b81526004016106b6906122f4565b506000908152600760205260409020805460ff19169055565b6060600a5460001415610d035760408051600080825260208201909252906107cc565b610ceb611d73565b815260200190600190039081610ce357905050905090565b6000600a5467ffffffffffffffff811115610d2057610d20611ecb565b604051908082528060200260200182016040528015610d5957816020015b610d46611d73565b815260200190600190039081610d3e5790505b50905060005b600a5481101561096c5760008181526006602052604090205460ff16151560011415610e0f57600081815260066020908152604091829020825160c081018452815460ff8082161515835261010090910416928101929092526001810154928201929092526002820154606082015260038201546001600160a01b03908116608083015260048301541660a08201528351849084908110610e0257610e026122c3565b6020026020010181905250505b80610e19816122d9565b915050610d5f565b60606004805461058590612260565b60003381610e3e82866115fd565b905083811015610e9e5760405162461bcd60e51b815260206004820152602560248201527f45524332303a2064656372656173656420616c6c6f77616e63652062656c6f77604482015264207a65726f60d81b60648201526084016106b6565b610eab8286868403611968565b506001949350505050565b600033610616818585611b06565b60008060005b600a54811015610f35576000818152600660205260409020600401546001600160a01b0316331415610efa578092505b6000818152600660205260409020600401546001600160a01b0385811691161415610f23578091505b80610f2d816122d9565b915050610eca565b50600082815260066020908152604080832054610100900460ff1683526005909152902054610f65906004611cd4565b151560011480610f885750600c546001600160a01b0316336001600160a01b0316145b80610fa65750600d546001600160a01b0316336001600160a01b0316145b610fc25760405162461bcd60e51b81526004016106b690612336565b6000818152600660205260408082205484835291205460ff610100928390048116929091041611806110075750600c546001600160a01b0316336001600160a01b0316145b806110255750600d546001600160a01b0316336001600160a01b0316145b6110715760405162461bcd60e51b815260206004820152601c60248201527f596f75722072616e6b206973206e6f74206869676820656e6f7567680000000060448201526064016106b6565b60008181526006602052604090205460ff16151560011480156110a7575060008281526006602052604090205460ff1615156001145b6110c35760405162461bcd60e51b81526004016106b69061237c565b600081815260066020526040808220600481015460029091015491516001600160a01b039091169282156108fc02929190818181858888f19350505050158015611111573d6000803e3d6000fd5b506000908152600660205260409020805460ff191690555050565b6000805b600a54811015611172576000818152600660205260409020600401546001600160a01b0316331415611160578091505b8061116a816122d9565b915050611130565b5060008181526006602052604090205460ff1615156001146111a65760405162461bcd60e51b81526004016106b69061237c565b6000818152600660205260409020600201548211156112075760405162461bcd60e51b815260206004820152601a60248201527f4e6f7420656e6f7567746820657468657220696e20636865737400000000000060448201526064016106b6565b604051339083156108fc029084906000818181858888f19350505050158015611234573d6000803e3d6000fd5b505050565b60008060005b600a54811015611281576000818152600660205260409020600401546001600160a01b031633141561126f578092505b80611279816122d9565b91505061123f565b5060005b600b548110156112cc576000818152600760205260409020546001600160a01b038581166101009092041614156112ba578091505b806112c4816122d9565b915050611285565b5060008181526006602052604090205460ff1615156001146113215760405162461bcd60e51b815260206004820152600e60248201526d155cd95c881b9bdd081d985b1a5960921b60448201526064016106b6565b60008281526006602052604090205460ff16151560011480156113745750600082815260066020908152604080832054610100900460ff168352600590915290205461136e906003611cd4565b15156001145b6113905760405162461bcd60e51b81526004016106b6906122f4565b6040518060c00160405280600015158152602001600060ff168152602001428152602001600081526020016113c23390565b6001600160a01b039081168252858116602092830152600980546000908152600684526040808220865181549688015160ff166101000261ff00199115159190911661ffff19909716969096179590951785558581015160018601556060860151600286015560808601516003860180549186166001600160a01b031992831617905560a09096015160049095018054959094169490951693909317909155838252918120805460ff191690558154919061147c836122d9565b9190505550505050565b60408051808201909152600081526060602082015260ff821660009081526005602090815260409182902082518084019093528054835260018101805491928401916114d190612260565b80601f01602080910402602001604051908101604052809291908181526020018280546114fd90612260565b801561154a5780601f1061151f5761010080835404028352916020019161154a565b820191906000526020600020905b81548152906001019060200180831161152d57829003601f168201915b5050505050815250509050919050565b6000805b600a548110156115a0576000818152600660205260409020600401546001600160a01b031633141561158e578091505b80611598816122d9565b91505061155e565b5060008181526006602052604090205460ff1615156001146115d45760405162461bcd60e51b81526004016106b69061237c565b600081815260066020526040812060020180543492906115f59084906122ab565b909155505050565b6001600160a01b03918216600090815260016020908152604080832093909416825291909152205490565b6000811561164057506001821b929092179182610641565b50506001901b191690565b60008060005b600a548110156116bc576000818152600660205260409020600401546001600160a01b0316331415611681578092505b6000818152600660205260409020600401546001600160a01b03868116911614156116aa578091505b806116b4816122d9565b915050611651565b50600082815260066020908152604080832054610100900460ff16835260059091529020546116ec906007611cd4565b15156001148061170f5750600c546001600160a01b0316336001600160a01b0316145b8061172d5750600d546001600160a01b0316336001600160a01b0316145b6117495760405162461bcd60e51b81526004016106b690612336565b60008281526006602052604090205460ff808516610100909204161080159061179557506000818152600660205260408082205484835291205460ff6101009283900481169290910416115b806117b35750600c546001600160a01b0316336001600160a01b0316145b806117d15750600d546001600160a01b0316336001600160a01b0316145b61181d5760405162461bcd60e51b815260206004820152601c60248201527f596f75722072616e6b206973206e6f74206869676820656e6f7567680000000060448201526064016106b6565b60008181526006602052604090205460ff1615156001148015611853575060008281526006602052604090205460ff1615156001145b61186f5760405162461bcd60e51b81526004016106b69061237c565b506000908152600660205260409020805460ff9092166101000261ff001990921691909117905550565b6040805160608082018352600080835260208301529181019190915260008281526007602052604090205460ff1615156001146119185760405162461bcd60e51b815260206004820181905260248201527f5468697320696e7669746174696f6e206973206e6f206d6f72652076616c696460448201526064016106b6565b6000828152600760209081526040918290208251606081018452815460ff81161515825261010090046001600160a01b03169281019290925260018101805492939192918401916114d190612260565b6001600160a01b0383166119ca5760405162461bcd60e51b8152602060048201526024808201527f45524332303a20617070726f76652066726f6d20746865207a65726f206164646044820152637265737360e01b60648201526084016106b6565b6001600160a01b038216611a2b5760405162461bcd60e51b815260206004820152602260248201527f45524332303a20617070726f766520746f20746865207a65726f206164647265604482015261737360f01b60648201526084016106b6565b6001600160a01b0383811660008181526001602090815260408083209487168084529482529182902085905590518481527f8c5be1e5ebec7d5bd14f71427d1e84f3dd0314c0f7b2291e5b200ac8c7c3b925910160405180910390a3505050565b6000611a9884846115fd565b90506000198114611b005781811015611af35760405162461bcd60e51b815260206004820152601d60248201527f45524332303a20696e73756666696369656e7420616c6c6f77616e636500000060448201526064016106b6565b611b008484848403611968565b50505050565b6001600160a01b038316611b6a5760405162461bcd60e51b815260206004820152602560248201527f45524332303a207472616e736665722066726f6d20746865207a65726f206164604482015264647265737360d81b60648201526084016106b6565b6001600160a01b038216611bcc5760405162461bcd60e51b815260206004820152602360248201527f45524332303a207472616e7366657220746f20746865207a65726f206164647260448201526265737360e81b60648201526084016106b6565b6001600160a01b03831660009081526020819052604090205481811015611c445760405162461bcd60e51b815260206004820152602660248201527f45524332303a207472616e7366657220616d6f756e7420657863656564732062604482015265616c616e636560d01b60648201526084016106b6565b6001600160a01b03808516600090815260208190526040808220858503905591851681529081208054849290611c7b9084906122ab565b92505081905550826001600160a01b0316846001600160a01b03167fddf252ad1be2c89b69c2b068fc378daa952ba7f163c4a11628f55a4df523b3ef84604051611cc791815260200190565b60405180910390a3611b00565b6000600183831c81169081146106165760005b949350505050565b828054611cfb90612260565b90600052602060002090601f016020900481019282611d1d5760008555611d63565b82601f10611d3657805160ff1916838001178555611d63565b82800160010185558215611d63579182015b82811115611d63578251825591602001919060010190611d48565b50611d6f929150611da8565b5090565b6040805160c081018252600080825260208201819052918101829052606081018290526080810182905260a081019190915290565b5b80821115611d6f5760008155600101611da9565b6000815180845260005b81811015611de357602081850181015186830182015201611dc7565b81811115611df5576000602083870101525b50601f01601f19169290920160200192915050565b6020815260006106416020830184611dbd565b80356001600160a01b0381168114611e3457600080fd5b919050565b60008060408385031215611e4c57600080fd5b611e5583611e1d565b946020939093013593505050565b600080600060608486031215611e7857600080fd5b611e8184611e1d565b9250611e8f60208501611e1d565b9150604084013590509250925092565b600060208284031215611eb157600080fd5b61064182611e1d565b803560ff81168114611e3457600080fd5b634e487b7160e01b600052604160045260246000fd5b600082601f830112611ef257600080fd5b813567ffffffffffffffff80821115611f0d57611f0d611ecb565b604051601f8301601f19908116603f01168101908282118183101715611f3557611f35611ecb565b81604052838152866020858801011115611f4e57600080fd5b836020870160208301376000602085830101528094505050505092915050565b600080600060608486031215611f8357600080fd5b83359250611f9360208501611eba565b9150604084013567ffffffffffffffff811115611faf57600080fd5b611fbb86828701611ee1565b9150509250925092565b80511515825260018060a01b0360208201511660208301526000604082015160606040850152611ce76060850182611dbd565b6000602080830181845280855180835260408601915060408160051b870101925083870160005b8281101561204d57603f1988860301845261203b858351611fc5565b9450928501929085019060010161201f565b5092979650505050505050565b80358015158114611e3457600080fd5b6000806040838503121561207d57600080fd5b611e558361205a565b80511515825260208082015160ff169083015260408082015190830152606080820151908301526080808201516001600160a01b039081169184019190915260a09182015116910152565b60c0810161061c8284612086565b6000602082840312156120f157600080fd5b813567ffffffffffffffff81111561210857600080fd5b611ce784828501611ee1565b60006020828403121561212657600080fd5b5035919050565b6020808252825182820181905260009190848201906040850190845b8181101561216f5761215c838551612086565b9284019260c09290920191600101612149565b50909695505050505050565b60006020828403121561218d57600080fd5b61064182611eba565b602081528151602082015260006020830151604080840152611ce76060840182611dbd565b600080604083850312156121ce57600080fd5b6121d783611e1d565b91506121e560208401611e1d565b90509250929050565b60008060006060848603121561220357600080fd5b833592506020840135915061221a6040850161205a565b90509250925092565b6000806040838503121561223657600080fd5b61223f83611e1d565b91506121e560208401611eba565b6020815260006106416020830184611fc5565b600181811c9082168061227457607f821691505b6020821081141561096c57634e487b7160e01b600052602260045260246000fd5b634e487b7160e01b600052601160045260246000fd5b600082198211156122be576122be612295565b500190565b634e487b7160e01b600052603260045260246000fd5b60006000198214156122ed576122ed612295565b5060010190565b60208082526022908201527f596f757220617265206e6f7420617574686f72697a656420746f20646f207468604082015261697360f01b606082015260800190565b60208082526026908201527f596f75722072616e6b20646f6573206e6f7420617574686f72697a6520757067604082015265726164696e6760d01b606082015260800190565b6020808252600e908201526d2737ba103b30b634b2103ab9b2b960911b60408201526060019056fea26469706673582212208ed729002bbf3cf500a87a7d2c080e2a1fdc38a7ce969b27bf4c8029c2fdd5d264736f6c634300080b0033a26469706673582212207529095731e5e4076ce7090d332dde9ee8f202dd32f528f1c5b2fec47bd9216264736f6c634300080b0033",
  "immutableReferences": {},
  "source": "// SPDX-License-Identifier: MIT\r\n// Delegation contract\r\npragma solidity ^0.8.0;\r\n\r\nimport \"@openzeppelin/contracts/access/Ownable.sol\";\r\nimport \"./Items.sol\";\r\nimport \"./Guild.sol\";\r\nimport \"./Class.sol\";\r\nimport \"./Quest.sol\";\r\nimport \"./Hero.sol\";\r\n\r\nimport \"./library/LClass.sol\";\r\nimport \"./library/LHero.sol\";\r\nimport \"./library/LItems.sol\";\r\nimport \"./library/LQuest.sol\";\r\n\r\nimport \"./interfaces/IDelegateContract.sol\";\r\n\r\n//enum Numbers {strong,endurance,concentration,agility,charisma,stealth,exp,level,peuple,classe}\r\n\r\ncontract DelegateContract is Ownable, IDelegateContract {\r\n  error AlreadyHaveGuild(address from, address addressGuild);\r\n  error GuildNotExist(address from, address addressGuild);\r\n  error NotEnoughEth(uint256 price, uint256 weiSended, uint256 tokenId, uint256 quantity);\r\n  error NotEnoughEthHero(uint256 price, uint256 weiSended);\r\n  error NotRemainingHero(uint256 tokenLimit, uint256 nextTokenIdToMint);\r\n  error NotYourToken(address sender, address ownerOfToken, uint256 tokenId);\r\n  error AlreadyInQuest(\r\n    address sender,\r\n    uint256 questId,\r\n    uint256 currentQuestId,\r\n    uint256 tokenId\r\n  );\r\n  error QuestNotFinished(\r\n    uint256 blockTimestamp,\r\n    uint256 heroQuestTime,\r\n    uint256 currentQuestTime,\r\n    uint256 tokenId\r\n  );\r\n  error NotEnoughExperience(\r\n    uint256 experienceHero,\r\n    uint256 experienceNeeded,\r\n    uint256 tokenId\r\n  );\r\n  error NotAStat(uint256 statToLvlUp, uint256 tokenId);\r\n\r\n  address private addressHero;\r\n  address private addressQuest;\r\n  address private addressClass;\r\n  address private addressItem;\r\n  mapping(string => uint256) public paramsContract;\r\n  mapping(address => Guild) private guilds; //address = creator\r\n  mapping(uint256 => address) private addressGuilds; //address = creator\r\n  uint8 private countGuilds;\r\n\r\n  constructor(\r\n    address _addressHero,\r\n    address _addressQuest,\r\n    address _addressClass,\r\n    address _addressItem\r\n  ) {\r\n    addressHero = _addressHero;\r\n    addressQuest = _addressQuest;\r\n    addressClass = _addressClass;\r\n    addressItem = _addressItem;\r\n    paramsContract[\"nextTokenIdToMint\"] = Hero(addressHero).getParamsContract(\r\n      \"nextTokenIdToMint\"\r\n    );\r\n    paramsContract[\"price\"] = 100000000000000000; //dev:100000000000000000000 == 100 eth\r\n    paramsContract[\"totalPnt\"] = 5;\r\n    paramsContract[\"tokenLimit\"] = 10000;\r\n    paramsContract[\"nonce\"] = 0;\r\n    paramsContract[\"expForLevelUp\"] = 100;\r\n  }\r\n\r\n  modifier notYourToken(uint256 tokenId) {\r\n    Hero contrat = Hero(addressHero);\r\n    if (contrat.ownerOf(tokenId) != _msgSender())\r\n      revert NotYourToken({\r\n        sender: _msgSender(),\r\n        ownerOfToken: contrat.ownerOf(tokenId),\r\n        tokenId: tokenId\r\n      });\r\n    _;\r\n  }\r\n\r\n  ///@notice Create a guild by also deleting its contract\r\n  ///@param from user for found addresses of your contract by creator mapping\r\n  ///@param name name of your created contract\r\n  ///@param symbol name of your created contract\r\n  function createGuild(\r\n    address from,\r\n    string calldata name,\r\n    string calldata symbol\r\n  ) external {\r\n    if (address(guilds[from]) != address(0))\r\n      revert AlreadyHaveGuild({ from: from, addressGuild: address(guilds[from]) });\r\n    guilds[from] = new Guild(name, symbol, payable(_msgSender()), owner(), countGuilds);\r\n    addressGuilds[countGuilds] = from;\r\n    countGuilds++;\r\n  }\r\n\r\n  ///@notice return one guild by address creator\r\n  ///@param from user for found addresses of your contract by creator mapping\r\n  ///@return addressContract address of the contract guild\r\n  function getOneGuildAddress(address from) external view returns (address) {\r\n    if (address(guilds[from]) == address(0))\r\n      revert GuildNotExist({ from: from, addressGuild: address(guilds[from]) });\r\n    return address(guilds[from]);\r\n  }\r\n\r\n  ///@notice return all guilds addresses\r\n  ///@return result an array of address for all guilds created\r\n  function getAddressesGuilds() external view returns (address[] memory) {\r\n    address[] memory result = new address[](countGuilds);\r\n    uint256 resultIndex = 0;\r\n    uint256 i;\r\n    for (i = 0; i < countGuilds; i++) {\r\n      if (addressGuilds[i] != address(0)) {\r\n        result[resultIndex] = addressGuilds[i];\r\n        resultIndex++;\r\n      }\r\n    }\r\n    return result;\r\n  }\r\n\r\n  ///@notice Update a parameter of contract\r\n  ///@param key key index of params contract you want set\r\n  ///@param value value of params contract you want set\r\n  function setParamsContract(string calldata key, uint256 value) external onlyOwner {\r\n    paramsContract[key] = value;\r\n  }\r\n\r\n  ///@notice Return a parameter of contract by key index\r\n  ///@param key key index of param your want to return\r\n  ///@return param value of parameter contract\r\n  function getParamsContract(string calldata key) external view returns (uint256) {\r\n    return paramsContract[key];\r\n  }\r\n\r\n  ///@notice Update a parameter of hero contract\r\n  ///@param key key index of params contract you want set\r\n  ///@param value value of params contract you want set\r\n  function setParamsHeroContract(string calldata key, uint256 value) internal {\r\n    Hero contrat = Hero(addressHero);\r\n    contrat.setParamsContract(key, value);\r\n  }\r\n\r\n  ///@notice purchase of a resource for eth/MATIC\r\n  ///@param quantity count of item you want purchase\r\n  ///@param receiver receiver address of token\r\n  ///@param tokenId id of item\r\n  function buyItem(uint256 quantity, address receiver, uint256 tokenId) external payable {\r\n    Items itemContrat = Items(addressItem);\r\n    ItemsLib.Item memory item = itemContrat.getItemDetails(tokenId);\r\n    if (msg.value < item.price * quantity)\r\n      revert NotEnoughEth({\r\n        price: item.price * quantity,\r\n        weiSended: msg.value,\r\n        tokenId: tokenId,\r\n        quantity: quantity\r\n      });\r\n    itemContrat.mint(receiver, tokenId, quantity);\r\n    //setCurrentPrice();\r\n  }\r\n\r\n  ///@notice sell of a resource for eth/MATIC\r\n  ///@param quantity count of item you want purchase\r\n  ///@param tokenId id of item\r\n  function sellItem(uint256 quantity, uint256 tokenId) external {\r\n    Items itemContrat = Items(addressItem);\r\n    ItemsLib.Item memory item = itemContrat.getItemDetails(tokenId);\r\n    require(itemContrat.getSupply(tokenId) >= quantity, \"No more this token\");\r\n    require(\r\n      itemContrat.balanceOf(_msgSender(), tokenId) >= quantity,\r\n      \"No more this token\"\r\n    );\r\n    payable(_msgSender()).transfer(item.price * quantity);\r\n    itemContrat.burn(_msgSender(), tokenId, quantity);\r\n    //setCurrentPrice();\r\n  }\r\n\r\n  ///@notice mint a hero for a value price and generate stats and parameterr\r\n  ///@param generation generation of creation hero\r\n  ///@param peuple peuple with class and stat linked\r\n  ///@param _tokenUri uri of metadata token hero\r\n  function mintHero(\r\n    uint8 generation,\r\n    uint8 peuple,\r\n    string calldata _tokenUri\r\n  ) external payable {\r\n    require(msg.value >= paramsContract[\"price\"], \"More ETH required\");\r\n    if (msg.value < paramsContract[\"price\"])\r\n      revert NotEnoughEthHero({ price: paramsContract[\"price\"], weiSended: msg.value });\r\n    if (paramsContract[\"tokenLimit\"] <= paramsContract[\"nextTokenIdToMint\"])\r\n      revert NotRemainingHero({\r\n        tokenLimit: paramsContract[\"tokenLimit\"],\r\n        nextTokenIdToMint: paramsContract[\"nextTokenIdToMint\"]\r\n      });\r\n    uint8[] memory randomParts = randomStats(peuple);\r\n    uint256[] memory randomParams = randomParameters(msg.value, generation);\r\n    paramsContract[\"nextTokenIdToMint\"]++;\r\n\r\n    Hero contrat = Hero(addressHero);\r\n    contrat.mint(_msgSender(), randomParts, randomParams, _tokenUri);\r\n  }\r\n\r\n  ///@notice generate stats for your hero in uint8\r\n  ///@param peuple peuple of hero generated\r\n  ///@return randomParts array of stats uint8 for hero\r\n  function randomStats(uint8 peuple) internal virtual returns (uint8[] memory) {\r\n    uint8[] memory randomParts = new uint8[](20);\r\n\r\n    Class classContrat = Class(addressClass);\r\n    ClassLib.Classes memory class;\r\n    class = classContrat.getClassDetails(0);\r\n    for (uint8 index = 0; index < classContrat.getClassCount(); index++) {\r\n      if (random(100) < classContrat.getClassDetails(index).rarity)\r\n        class = classContrat.getClassDetails(index);\r\n    }\r\n    uint8[] memory stats = class.stats;\r\n\r\n    randomParts[0] = stats[0]; //strong\r\n    randomParts[1] = stats[1]; //endurance\r\n    randomParts[2] = stats[2]; //concentration\r\n    randomParts[3] = stats[3]; //agility\r\n    randomParts[4] = stats[4]; //charisma\r\n    randomParts[5] = stats[5]; //stealth\r\n\r\n    randomParts[8] = peuple; //peuple\r\n    randomParts[9] = class.id; //class\r\n\r\n    return randomParts;\r\n  }\r\n\r\n  ///@notice generate parameter for your hero in uint256\r\n  ///@param price price of buying hero\r\n  ///@param generation generation fo hero\r\n  ///@return randomParams array of parameters uint256 for hero\r\n  function randomParameters(\r\n    uint256 price,\r\n    uint8 generation\r\n  ) internal virtual returns (uint256[] memory) {\r\n    uint256[] memory randomParams = new uint256[](20);\r\n    randomParams[0] = block.timestamp; //date de cration\r\n    randomParams[1] = price; //prix d'achat\r\n    randomParams[2] = block.timestamp; //date de la drnire action (il y a une heure) permettant de participer a des missions\r\n    //randomParams[3] = 0;//Mission choisis (si 0 aucune current mission)\r\n    //randomParams[4] = 0;//seconds pour finir la mission\r\n    //randomParams[5] = 0;//difficult de la qute (dtermine l'exp gagn, et les objets % gagn)\r\n    //randomParams[6] = 0;//last quest succeded\r\n    randomParams[6] = paramsContract[\"nextTokenIdToMint\"]; //tokenId\r\n    randomParams[7] = generation; //type\r\n    //randomParams[8] = 0;//exp\r\n    randomParams[9] = 1; //level\r\n    return randomParams;\r\n  }\r\n\r\n  ///@notice start a quest by id for one hero token\r\n  ///@param tokenId id of token you want to launch in quest\r\n  ///@param questId id of quest you want to start\r\n  function startQuest(uint256 tokenId, uint256 questId) external notYourToken(tokenId) {\r\n    Hero contrat = Hero(addressHero);\r\n    Quest questContrat = Quest(addressQuest);\r\n    QuestLib.QuestStruct memory questTemp = questContrat.getQuestDetails(questId);\r\n    HeroLib.Token memory tokenTemp = contrat.getTokenDetails(tokenId);\r\n    if (tokenTemp.params256[4] != 0)\r\n      revert AlreadyInQuest({\r\n        sender: _msgSender(),\r\n        questId: questId,\r\n        currentQuestId: tokenTemp.params256[4],\r\n        tokenId: tokenId\r\n      });\r\n    tokenTemp.params256[2] = block.timestamp;\r\n    tokenTemp.params256[3] = questId;\r\n    tokenTemp.params256[4] = questTemp.time;\r\n    contrat.updateToken(tokenTemp, tokenId, _msgSender());\r\n  }\r\n\r\n  ///@notice Validation of the quest at the end of a quest\r\n  ///@param tokenId id of token you want to complete quest\r\n  function completeQuest(uint256 tokenId) external notYourToken(tokenId) {\r\n    Hero contrat = Hero(addressHero);\r\n    HeroLib.Token memory tokenTemp = contrat.getTokenDetails(tokenId);\r\n\r\n    Quest questContrat = Quest(addressQuest);\r\n    QuestLib.QuestStruct memory questTemp = questContrat.getQuestDetails(\r\n      tokenTemp.params256[3]\r\n    );\r\n    if (block.timestamp - tokenTemp.params256[2] <= (questTemp.time))\r\n      revert QuestNotFinished({\r\n        blockTimestamp: block.timestamp,\r\n        heroQuestTime: tokenTemp.params256[2],\r\n        currentQuestTime: questTemp.time,\r\n        tokenId: tokenId\r\n      });\r\n    uint8 malus = 0;\r\n    for (uint8 index = 0; index < questTemp.stats.length; index++) {\r\n      if (questTemp.stats[index] > tokenTemp.params8[index]) {\r\n        malus += questTemp.stats[index] - tokenTemp.params8[index];\r\n      }\r\n    }\r\n    ///SUCCESS QUEST\r\n    uint256 percentSuccess = random(100 - malus);\r\n    tokenTemp.params256[7] = percentSuccess;\r\n    if (percentSuccess > questTemp.percentDifficulty) {\r\n      tokenTemp.params256[6] = 1;\r\n      tokenTemp.params256[8] += (questTemp.exp * questContrat.getMultiplicateurExp());\r\n\r\n      Items itemContrat = Items(addressItem);\r\n\r\n      for (uint256 index = 0; index < questTemp.items.length; index++) {\r\n        itemContrat.mint(_msgSender(), questTemp.items[index], 1);\r\n      }\r\n      /*for (uint256 index = 0; index < countItems; index++) {\r\n        Items itemtemp = Items(items[index]);\r\n        if (random256(100000) > itemtemp.getRarity()) {\r\n          itemtemp.mint(1, _msgSender());\r\n        }\r\n      }*/\r\n    } else {\r\n      tokenTemp.params256[6] = 0;\r\n    }\r\n    //recuperer les items dans la quest !IMPORTANT\r\n    tokenTemp.params256[2] = block.timestamp;\r\n    tokenTemp.params256[4] = 0;\r\n\r\n    contrat.updateToken(tokenTemp, tokenId, _msgSender());\r\n  }\r\n\r\n  ///@notice level up hero and increment one stat\r\n  ///@param statToLvlUp id of stat you wan increment\r\n  ///@param tokenId id of token you want level up\r\n  function levelUp(uint8 statToLvlUp, uint256 tokenId) external notYourToken(tokenId) {\r\n    Hero contrat = Hero(addressHero);\r\n    HeroLib.Token memory tokenTemp = contrat.getTokenDetails(tokenId);\r\n    if (\r\n      tokenTemp.params256[8] <=\r\n      (100 + (paramsContract[\"expForLevelUp\"] ** tokenTemp.params256[9]))\r\n    )\r\n      revert NotEnoughExperience({\r\n        experienceHero: tokenTemp.params256[8],\r\n        experienceNeeded: (100 +\r\n          (paramsContract[\"expForLevelUp\"] ** tokenTemp.params256[9])),\r\n        tokenId: tokenId\r\n      });\r\n    if (statToLvlUp < 0 || statToLvlUp > 5)\r\n      revert NotAStat({ statToLvlUp: statToLvlUp, tokenId: tokenId });\r\n    tokenTemp.params8[statToLvlUp]++;\r\n    tokenTemp.params256[8] = 0;\r\n    tokenTemp.params256[9]++;\r\n\r\n    contrat.updateToken(tokenTemp, tokenId, _msgSender());\r\n  }\r\n\r\n  /****************************************\r\n    UTILS\r\n     ****************************************/\r\n\r\n  ///@notice return random number\r\n  ///@param maxNumber max number random to return\r\n  ///@return randomNumber random uint256 returned\r\n  function random(uint8 maxNumber) internal returns (uint8) {\r\n    return uint8(random256(uint8(maxNumber)));\r\n  }\r\n\r\n  ///@notice return random number\r\n  ///@param maxNumber max number random to return\r\n  ///@return randomNumber random uint256 returned\r\n  function random256(uint256 maxNumber) internal returns (uint256) {\r\n    uint256 randomNumber = uint256(\r\n      keccak256(abi.encodePacked(block.timestamp, _msgSender(), paramsContract[\"nonce\"]))\r\n    ) % maxNumber;\r\n    paramsContract[\"nonce\"]++;\r\n    return randomNumber;\r\n  }\r\n\r\n  /*FUNDS OF CONTRACT*/\r\n\r\n  function withdraw() external onlyOwner {\r\n    payable(_msgSender()).transfer(address(this).balance);\r\n  }\r\n\r\n  /**\r\n    a finaliser\r\n     */\r\n  /*function calculPriceSupply() public{\r\n        Hero contrat = Hero(addressHero);\r\n        uint totalSupply = contrat.getParamsContract(\"totalSupply\");\r\n        //priceInUsd = (item.price/(10**18)) * (latestPrice/10**8)\r\n    }*/\r\n\r\n  /**\r\n    appel vers le contrat officiel du jeton\r\n    Achat d'un token par un utilisateur\r\n     */\r\n  /*function purchase(address contactAddr, uint256 tokenId) external payable {\r\n        Hero contrat = Hero(addressHero);\r\n        HeroLib.Token memory token = contrat.getTokenDetails(tokenId);\r\n        require(msg.value >= token.params256[1], \"Insufficient fonds sent\");\r\n        require(contrat.getOwnerOf(tokenId) != _msgSender(), \"Already Owned\");\r\n        //contrat.updateToken(token,tokenId,_msgSender());\r\n        contrat.transfer(contactAddr, _msgSender(), tokenId);\r\n    }*/\r\n\r\n  ///@notice Deleted a guild by also deleting its contract\r\n  ///@dev ATTENTION, the totality of the ether contained above atters to the creator of the contract\r\n  ///@param from user for found addresses of your contract by creator mapping\r\n  //function deleteGuild(address from) external {\r\n  //  require(address(guilds[from]) != address(0), \"Guild not exist\");\r\n  //  require(guilds[from].isOwner(_msgSender()), \"Is not your guild\");\r\n  //  guilds[from].kill();\r\n  //  addressGuilds[guilds[from].getId()] = address(0);\r\n  //}\r\n\r\n  ///@notice convert of a resource for another token\r\n  //function convertToAnotherToken(uint256 value, address anotherToken) external {\r\n  //require(supplies[tokenId]>value+1,\"No more this token\");\r\n  //require(balanceOf(_msgSender())>=value,\"No more this token\");\r\n  //burn(_msgSender(),value);\r\n  //currentprice = setCurrentPrice();\r\n  //}\r\n\r\n  // function giveHero(\r\n  //   address to,\r\n  //   uint8 generation,\r\n  //   string memory _tokenUri\r\n  // ) external onlyOwner {\r\n  //require(paramsContract[\"tokenLimit\"] > 0, \"No remaining\");\r\n  //bool[] memory booleans = new bool[](20);\r\n  //uint8[] memory randomParts = randomStats(0);\r\n  //uint256[] memory randomParams = randomParams(paramsContract[\"price\"], generation);\r\n  //paramsContract[\"nextTokenIdToMint\"]++;\r\n\r\n  //Hero contrat = Hero(addressHero);\r\n  //contrat.mint(to, booleans, randomParts, randomParams, _tokenUri);\r\n  //}\r\n}\r\n",
  "sourcePath": "C:\\Users\\Kevin\\Desktop\\WorkHome\\--Solidity--MYOS\\contracts\\DelegateContract.sol",
  "compiler": {
    "name": "solc",
    "version": "0.8.11+commit.d7f03943.Emscripten.clang"
  },
  "schemaVersion": "3.4.6",
  "updatedAt": "2022-11-06T23:28:42.003Z",
  "devdoc": {
    "kind": "dev",
    "methods": {
      "buyItem(uint256,address,uint256)": {
        "params": {
          "quantity": "count of item you want purchase",
          "receiver": "receiver address of token",
          "tokenId": "id of item"
        }
      },
      "completeQuest(uint256)": {
        "params": {
          "tokenId": "id of token you want to complete quest"
        }
      },
      "createGuild(address,string,string)": {
        "params": {
          "from": "user for found addresses of your contract by creator mapping",
          "name": "name of your created contract",
          "symbol": "name of your created contract"
        }
      },
      "getAddressesGuilds()": {
        "returns": {
          "_0": "result an array of address for all guilds created"
        }
      },
      "getOneGuildAddress(address)": {
        "params": {
          "from": "user for found addresses of your contract by creator mapping"
        },
        "returns": {
          "_0": "addressContract address of the contract guild"
        }
      },
      "getParamsContract(string)": {
        "params": {
          "key": "key index of param your want to return"
        },
        "returns": {
          "_0": "param value of parameter contract"
        }
      },
      "levelUp(uint8,uint256)": {
        "params": {
          "statToLvlUp": "id of stat you wan increment",
          "tokenId": "id of token you want level up"
        }
      },
      "mintHero(uint8,uint8,string)": {
        "params": {
          "_tokenUri": "uri of metadata token hero",
          "generation": "generation of creation hero",
          "peuple": "peuple with class and stat linked"
        }
      },
      "owner()": {
        "details": "Returns the address of the current owner."
      },
      "renounceOwnership()": {
        "details": "Leaves the contract without owner. It will not be possible to call `onlyOwner` functions anymore. Can only be called by the current owner. NOTE: Renouncing ownership will leave the contract without an owner, thereby removing any functionality that is only available to the owner."
      },
      "sellItem(uint256,uint256)": {
        "params": {
          "quantity": "count of item you want purchase",
          "tokenId": "id of item"
        }
      },
      "setParamsContract(string,uint256)": {
        "params": {
          "key": "key index of params contract you want set",
          "value": "value of params contract you want set"
        }
      },
      "startQuest(uint256,uint256)": {
        "params": {
          "questId": "id of quest you want to start",
          "tokenId": "id of token you want to launch in quest"
        }
      },
      "transferOwnership(address)": {
        "details": "Transfers ownership of the contract to a new account (`newOwner`). Can only be called by the current owner."
      }
    },
    "version": 1
  },
  "userdoc": {
    "kind": "user",
    "methods": {
      "buyItem(uint256,address,uint256)": {
        "notice": "purchase of a resource for eth/MATIC"
      },
      "completeQuest(uint256)": {
        "notice": "Validation of the quest at the end of a quest"
      },
      "createGuild(address,string,string)": {
        "notice": "Create a guild by also deleting its contract"
      },
      "getAddressesGuilds()": {
        "notice": "return all guilds addresses"
      },
      "getOneGuildAddress(address)": {
        "notice": "return one guild by address creator"
      },
      "getParamsContract(string)": {
        "notice": "Return a parameter of contract by key index"
      },
      "levelUp(uint8,uint256)": {
        "notice": "level up hero and increment one stat"
      },
      "mintHero(uint8,uint8,string)": {
        "notice": "mint a hero for a value price and generate stats and parameterr"
      },
      "sellItem(uint256,uint256)": {
        "notice": "sell of a resource for eth/MATIC"
      },
      "setParamsContract(string,uint256)": {
        "notice": "Update a parameter of contract"
      },
      "startQuest(uint256,uint256)": {
        "notice": "start a quest by id for one hero token"
      }
    },
    "version": 1
  }
}