{
  "contractName": "DelegateContractMYOS",
  "abi": [
    {
      "anonymous": false,
      "inputs": [
        {
          "indexed": true,
          "internalType": "address",
          "name": "previousOwner",
          "type": "address"
        },
        {
          "indexed": true,
          "internalType": "address",
          "name": "newOwner",
          "type": "address"
        }
      ],
      "name": "OwnershipTransferred",
      "type": "event"
    },
    {
      "inputs": [],
      "name": "owner",
      "outputs": [
        {
          "internalType": "address",
          "name": "",
          "type": "address"
        }
      ],
      "stateMutability": "view",
      "type": "function"
    },
    {
      "inputs": [],
      "name": "renounceOwnership",
      "outputs": [],
      "stateMutability": "nonpayable",
      "type": "function"
    },
    {
      "inputs": [
        {
          "internalType": "address",
          "name": "newOwner",
          "type": "address"
        }
      ],
      "name": "transferOwnership",
      "outputs": [],
      "stateMutability": "nonpayable",
      "type": "function"
    },
    {
      "inputs": [
        {
          "internalType": "uint256",
          "name": "newPrice",
          "type": "uint256"
        }
      ],
      "name": "setCurrentPriceMYOS",
      "outputs": [],
      "stateMutability": "nonpayable",
      "type": "function"
    },
    {
      "inputs": [
        {
          "internalType": "bytes32",
          "name": "_merkleRoot",
          "type": "bytes32"
        },
        {
          "internalType": "uint256",
          "name": "_merkleEndTime",
          "type": "uint256"
        }
      ],
      "name": "setMerkleTree",
      "outputs": [],
      "stateMutability": "nonpayable",
      "type": "function"
    },
    {
      "inputs": [
        {
          "internalType": "uint256",
          "name": "quantity",
          "type": "uint256"
        },
        {
          "internalType": "address",
          "name": "receiver",
          "type": "address"
        },
        {
          "internalType": "bytes32[]",
          "name": "_proofs",
          "type": "bytes32[]"
        },
        {
          "internalType": "uint256",
          "name": "_proofMaxQuantityPerTransaction",
          "type": "uint256"
        }
      ],
      "name": "buyMYOS",
      "outputs": [],
      "stateMutability": "payable",
      "type": "function"
    },
    {
      "inputs": [
        {
          "internalType": "uint256",
          "name": "quantity",
          "type": "uint256"
        }
      ],
      "name": "sellMYOS",
      "outputs": [],
      "stateMutability": "nonpayable",
      "type": "function"
    },
    {
      "inputs": [
        {
          "internalType": "uint256",
          "name": "quantity",
          "type": "uint256"
        },
        {
          "internalType": "address",
          "name": "anotherToken",
          "type": "address"
        }
      ],
      "name": "convertMYOSToAnotherToken",
      "outputs": [],
      "stateMutability": "nonpayable",
      "type": "function"
    },
    {
      "inputs": [
        {
          "internalType": "address",
          "name": "_claimer",
          "type": "address"
        },
        {
          "internalType": "bytes32[]",
          "name": "_proofs",
          "type": "bytes32[]"
        },
        {
          "internalType": "uint256",
          "name": "_proofMaxQuantityPerTransaction",
          "type": "uint256"
        }
      ],
      "name": "verifyMerkleProof",
      "outputs": [
        {
          "internalType": "bool",
          "name": "validMerkleProof",
          "type": "bool"
        },
        {
          "internalType": "uint256",
          "name": "merkleProofIndex",
          "type": "uint256"
        }
      ],
      "stateMutability": "view",
      "type": "function"
    },
    {
      "inputs": [],
      "name": "getDynamicPriceMYOS",
      "outputs": [
        {
          "internalType": "uint256",
          "name": "",
          "type": "uint256"
        }
      ],
      "stateMutability": "view",
      "type": "function"
    }
  ],
  "bytecode": "0x608060405234801561001057600080fd5b5061002d61002261003260201b60201c565b61003a60201b60201c565b6100fe565b600033905090565b60008060009054906101000a900473ffffffffffffffffffffffffffffffffffffffff169050816000806101000a81548173ffffffffffffffffffffffffffffffffffffffff021916908373ffffffffffffffffffffffffffffffffffffffff1602179055508173ffffffffffffffffffffffffffffffffffffffff168173ffffffffffffffffffffffffffffffffffffffff167f8be0079c531659141344cd1fd0a4f28419497f9722a3daafe3b4186f6b6457e060405160405180910390a35050565b6115948061010d6000396000f3fe6080604052600436106100915760003560e01c8063a36d3e6b11610059578063a36d3e6b1461015b578063adcb719b14610184578063ae3c14a3146101ad578063f2fde38b146101d8578063fa4f8ab81461020157610091565b806353b6aecf146100965780636e1edceb146100d4578063715018a6146100f05780638d8ac43d146101075780638da5cb5b14610130575b600080fd5b3480156100a257600080fd5b506100bd60048036038101906100b89190610e3b565b61022a565b6040516100cb929190611225565b60405180910390f35b6100ee60048036038101906100e99190610f71565b6102e0565b005b3480156100fc57600080fd5b5061010561044c565b005b34801561011357600080fd5b5061012e60048036038101906101299190610ee3565b6104d4565b005b34801561013c57600080fd5b5061014561055a565b60405161015291906111e1565b60405180910390f35b34801561016757600080fd5b50610182600480360381019061017d9190610f35565b610583565b005b34801561019057600080fd5b506101ab60048036038101906101a69190610ea7565b610587565b005b3480156101b957600080fd5b506101c2610615565b6040516101cf91906112ce565b60405180910390f35b3480156101e457600080fd5b506101ff60048036038101906101fa9190610e12565b610766565b005b34801561020d57600080fd5b5061022860048036038101906102239190610ee3565b61085e565b005b6000806000801b60045414158015610243575042600354105b80156102525750600060035414155b156102d7576000806102d0878780806020026020016040519081016040528093929190818152602001838360200280828437600081840152601f19601f820116905080830192505050505050506004548a886040516020016102b5929190611189565b60405160208183030381529060405280519060200120610ba6565b9150915050505b94509492505050565b6102ec3384848461022a565b505060006002541461034957846002546103069190611381565b341015610348576040517f08c379a000000000000000000000000000000000000000000000000000000000815260040161033f906112ae565b60405180910390fd5b5b600060025414156103aa578461035d610615565b6103679190611381565b3410156103a9576040517f08c379a00000000000000000000000000000000000000000000000000000000081526004016103a0906112ae565b60405180910390fd5b5b600160009054906101000a900473ffffffffffffffffffffffffffffffffffffffff1673ffffffffffffffffffffffffffffffffffffffff166340c10f19856018886103f69190611381565b6040518363ffffffff1660e01b81526004016104139291906111fc565b600060405180830381600087803b15801561042d57600080fd5b505af1158015610441573d6000803e3d6000fd5b505050505050505050565b610454610ca8565b73ffffffffffffffffffffffffffffffffffffffff1661047261055a565b73ffffffffffffffffffffffffffffffffffffffff16146104c8576040517f08c379a00000000000000000000000000000000000000000000000000000000081526004016104bf9061126e565b60405180910390fd5b6104d26000610cb0565b565b6104dc610ca8565b73ffffffffffffffffffffffffffffffffffffffff166104fa61055a565b73ffffffffffffffffffffffffffffffffffffffff1614610550576040517f08c379a00000000000000000000000000000000000000000000000000000000081526004016105479061126e565b60405180910390fd5b8060028190555050565b60008060009054906101000a900473ffffffffffffffffffffffffffffffffffffffff16905090565b5050565b61058f610ca8565b73ffffffffffffffffffffffffffffffffffffffff166105ad61055a565b73ffffffffffffffffffffffffffffffffffffffff1614610603576040517f08c379a00000000000000000000000000000000000000000000000000000000081526004016105fa9061126e565b60405180910390fd5b81600481905550806003819055505050565b6000600160009054906101000a900473ffffffffffffffffffffffffffffffffffffffff1673ffffffffffffffffffffffffffffffffffffffff166318160ddd6040518163ffffffff1660e01b815260040160206040518083038186803b15801561067f57600080fd5b505afa158015610693573d6000803e3d6000fd5b505050506040513d601f19601f820116820180604052508101906106b79190610f0c565b600160009054906101000a900473ffffffffffffffffffffffffffffffffffffffff1673ffffffffffffffffffffffffffffffffffffffff166366bd78fd6040518163ffffffff1660e01b815260040160206040518083038186803b15801561071f57600080fd5b505afa158015610733573d6000803e3d6000fd5b505050506040513d601f19601f820116820180604052508101906107579190610f0c565b6107619190611350565b905090565b61076e610ca8565b73ffffffffffffffffffffffffffffffffffffffff1661078c61055a565b73ffffffffffffffffffffffffffffffffffffffff16146107e2576040517f08c379a00000000000000000000000000000000000000000000000000000000081526004016107d99061126e565b60405180910390fd5b600073ffffffffffffffffffffffffffffffffffffffff168173ffffffffffffffffffffffffffffffffffffffff161415610852576040517f08c379a00000000000000000000000000000000000000000000000000000000081526004016108499061124e565b60405180910390fd5b61085b81610cb0565b50565b60018161086b91906112fa565b600160009054906101000a900473ffffffffffffffffffffffffffffffffffffffff1673ffffffffffffffffffffffffffffffffffffffff166318160ddd6040518163ffffffff1660e01b815260040160206040518083038186803b1580156108d357600080fd5b505afa1580156108e7573d6000803e3d6000fd5b505050506040513d601f19601f8201168201806040525081019061090b9190610f0c565b1161094b576040517f08c379a00000000000000000000000000000000000000000000000000000000081526004016109429061128e565b60405180910390fd5b6018816109589190611381565b600160009054906101000a900473ffffffffffffffffffffffffffffffffffffffff1673ffffffffffffffffffffffffffffffffffffffff166370a08231336040518263ffffffff1660e01b81526004016109b391906111e1565b60206040518083038186803b1580156109cb57600080fd5b505afa1580156109df573d6000803e3d6000fd5b505050506040513d601f19601f82011682018060405250810190610a039190610f0c565b1015610a44576040517f08c379a0000000000000000000000000000000000000000000000000000000008152600401610a3b9061128e565b60405180910390fd5b600060025414610aa3573373ffffffffffffffffffffffffffffffffffffffff166108fc82600254610a769190611381565b9081150290604051600060405180830381858888f19350505050158015610aa1573d6000803e3d6000fd5b505b60006002541415610b08573373ffffffffffffffffffffffffffffffffffffffff166108fc82610ad1610615565b610adb9190611381565b9081150290604051600060405180830381858888f19350505050158015610b06573d6000803e3d6000fd5b505b600160009054906101000a900473ffffffffffffffffffffffffffffffffffffffff1673ffffffffffffffffffffffffffffffffffffffff16639dc29fac33601884610b549190611381565b6040518363ffffffff1660e01b8152600401610b719291906111fc565b600060405180830381600087803b158015610b8b57600080fd5b505af1158015610b9f573d6000803e3d6000fd5b5050505050565b60008060008390506000805b8751811015610c9557600282610bc89190611381565b91506000888281518110610c05577f4e487b7100000000000000000000000000000000000000000000000000000000600052603260045260246000fd5b60200260200101519050808411610c46578381604051602001610c299291906111b5565b604051602081830303815290604052805190602001209350610c81565b8084604051602001610c599291906111b5565b604051602081830303815290604052805190602001209350600183610c7e91906112fa565b92505b508080610c8d9061142d565b915050610bb2565b5085821481935093505050935093915050565b600033905090565b60008060009054906101000a900473ffffffffffffffffffffffffffffffffffffffff169050816000806101000a81548173ffffffffffffffffffffffffffffffffffffffff021916908373ffffffffffffffffffffffffffffffffffffffff1602179055508173ffffffffffffffffffffffffffffffffffffffff168173ffffffffffffffffffffffffffffffffffffffff167f8be0079c531659141344cd1fd0a4f28419497f9722a3daafe3b4186f6b6457e060405160405180910390a35050565b600081359050610d8381611519565b92915050565b60008083601f840112610d9b57600080fd5b8235905067ffffffffffffffff811115610db457600080fd5b602083019150836020820283011115610dcc57600080fd5b9250929050565b600081359050610de281611530565b92915050565b600081359050610df781611547565b92915050565b600081519050610e0c81611547565b92915050565b600060208284031215610e2457600080fd5b6000610e3284828501610d74565b91505092915050565b60008060008060608587031215610e5157600080fd5b6000610e5f87828801610d74565b945050602085013567ffffffffffffffff811115610e7c57600080fd5b610e8887828801610d89565b93509350506040610e9b87828801610de8565b91505092959194509250565b60008060408385031215610eba57600080fd5b6000610ec885828601610dd3565b9250506020610ed985828601610de8565b9150509250929050565b600060208284031215610ef557600080fd5b6000610f0384828501610de8565b91505092915050565b600060208284031215610f1e57600080fd5b6000610f2c84828501610dfd565b91505092915050565b60008060408385031215610f4857600080fd5b6000610f5685828601610de8565b9250506020610f6785828601610d74565b9150509250929050565b600080600080600060808688031215610f8957600080fd5b6000610f9788828901610de8565b9550506020610fa888828901610d74565b945050604086013567ffffffffffffffff811115610fc557600080fd5b610fd188828901610d89565b93509350506060610fe488828901610de8565b9150509295509295909350565b610ffa816113db565b82525050565b61101161100c826113db565b611476565b82525050565b611020816113ed565b82525050565b611037611032826113f9565b611488565b82525050565b600061104a6026836112e9565b91507f4f776e61626c653a206e6577206f776e657220697320746865207a65726f206160008301527f64647265737300000000000000000000000000000000000000000000000000006020830152604082019050919050565b60006110b06020836112e9565b91507f4f776e61626c653a2063616c6c6572206973206e6f7420746865206f776e65726000830152602082019050919050565b60006110f06012836112e9565b91507f4e6f206d6f7265207468697320746f6b656e00000000000000000000000000006000830152602082019050919050565b60006111306011836112e9565b91507f4d6f7265204554482072657175697265640000000000000000000000000000006000830152602082019050919050565b61116c81611423565b82525050565b61118361117e82611423565b6114a4565b82525050565b60006111958285611000565b6014820191506111a58284611172565b6020820191508190509392505050565b60006111c18285611026565b6020820191506111d18284611026565b6020820191508190509392505050565b60006020820190506111f66000830184610ff1565b92915050565b60006040820190506112116000830185610ff1565b61121e6020830184611163565b9392505050565b600060408201905061123a6000830185611017565b6112476020830184611163565b9392505050565b600060208201905081810360008301526112678161103d565b9050919050565b60006020820190508181036000830152611287816110a3565b9050919050565b600060208201905081810360008301526112a7816110e3565b9050919050565b600060208201905081810360008301526112c781611123565b9050919050565b60006020820190506112e36000830184611163565b92915050565b600082825260208201905092915050565b600061130582611423565b915061131083611423565b9250827fffffffffffffffffffffffffffffffffffffffffffffffffffffffffffffffff03821115611345576113446114ae565b5b828201905092915050565b600061135b82611423565b915061136683611423565b925082611376576113756114dd565b5b828204905092915050565b600061138c82611423565b915061139783611423565b9250817fffffffffffffffffffffffffffffffffffffffffffffffffffffffffffffffff04831182151516156113d0576113cf6114ae565b5b828202905092915050565b60006113e682611403565b9050919050565b60008115159050919050565b6000819050919050565b600073ffffffffffffffffffffffffffffffffffffffff82169050919050565b6000819050919050565b600061143882611423565b91507fffffffffffffffffffffffffffffffffffffffffffffffffffffffffffffffff82141561146b5761146a6114ae565b5b600182019050919050565b600061148182611492565b9050919050565b6000819050919050565b600061149d8261150c565b9050919050565b6000819050919050565b7f4e487b7100000000000000000000000000000000000000000000000000000000600052601160045260246000fd5b7f4e487b7100000000000000000000000000000000000000000000000000000000600052601260045260246000fd5b60008160601b9050919050565b611522816113db565b811461152d57600080fd5b50565b611539816113f9565b811461154457600080fd5b50565b61155081611423565b811461155b57600080fd5b5056fea26469706673582212208181911cba65aaacf532d65f1555d361e1e72c4d1c19a27b071f75fa2caaadf764736f6c63430008000033",
  "immutableReferences": {},
  "source": "// SPDX-License-Identifier: MIT\n// Delegation contract\npragma solidity ^0.8.0;\n\nimport \"@openzeppelin/contracts/access/Ownable.sol\";\nimport \"./MerkleProof.sol\";\nimport \"./MYOS.sol\";\n\ncontract DelegateContractMYOS is Ownable {\n    address addressMYOSToken;\n    uint256 currentpriceMYOS;\n    uint256 merkleEndTime;\n    bytes32 merkleRoot;\n\n    ///@notice Update price of MYOS token for static price, if == 0 change for dynamic price\n    ///@param newPrice value of price in matic wei (matic / 10**18)\n    function setCurrentPriceMYOS(uint256 newPrice) external onlyOwner {\n        currentpriceMYOS = newPrice;\n    }\n\n    ///@notice Set the merkle tree to create whitelist for mint\n    ///@param _merkleRoot A bytes 32 represent root of tree for verify all merkle proof\n    ///@param _merkleEndTime Represent a timestamp (in seconds) represents end of whitelist\n    function setMerkleTree(bytes32 _merkleRoot, uint256 _merkleEndTime)\n        external\n        onlyOwner\n    {\n        merkleRoot = _merkleRoot;\n        merkleEndTime = _merkleEndTime;\n    }\n\n    ///@notice Purchase of a resource for eth/MATIC\n    ///@param quantity number of token myos you want purchase\n    ///@param receiver address waller of receiver's token\n    function buyMYOS(\n        uint256 quantity,\n        address receiver,\n        bytes32[] calldata _proofs,\n        uint256 _proofMaxQuantityPerTransaction\n    ) external payable {\n        verifyMerkleProof(msg.sender, _proofs, _proofMaxQuantityPerTransaction);\n        if (currentpriceMYOS != 0)\n            require(\n                msg.value >= (currentpriceMYOS * quantity),\n                \"More ETH required\"\n            );\n        if (currentpriceMYOS == 0)\n            require(\n                msg.value >= (getDynamicPriceMYOS() * quantity),\n                \"More ETH required\"\n            );\n        MYOS(addressMYOSToken).mint(receiver, quantity * (10 ^ 18));\n    }\n\n    ///@notice Sale of MYOS token against MATIC\n    ///@param quantity number of token myos you want sell\n    function sellMYOS(uint256 quantity) public {\n        require(\n            MYOS(addressMYOSToken).totalSupply() > quantity + 1,\n            \"No more this token\"\n        );\n        require(\n            MYOS(addressMYOSToken).balanceOf(msg.sender) >=\n                quantity * (10 ^ 18),\n            \"No more this token\"\n        );\n        if (currentpriceMYOS != 0)\n            payable(msg.sender).transfer(currentpriceMYOS * quantity);\n        if (currentpriceMYOS == 0)\n            payable(msg.sender).transfer(getDynamicPriceMYOS() * quantity);\n        MYOS(addressMYOSToken).burn(msg.sender, quantity * (10 ^ 18));\n    }\n\n    ///@notice Converting the MYOS to another token\n    ///@param quantity number of token myos you want convert\n    ///@param anotherToken address of token you want to convert\n    function convertMYOSToAnotherToken(uint256 quantity, address anotherToken)\n        public\n    {\n        /*require(totalSupply()>quantity+1,\"No more this token\");\n        require(balanceOf(msg.sender)>=quantity,\"No more this token\");\n        _burn(msg.sender,quantity);\n        currentprice = getDynamicPriceMYOS();*/\n    }\n\n    ///@notice Verify proof of a claimer to mint in a whitelist\n    ///@param _claimer msg.sender address wallet of user he want mint token MYOS\n    ///@param _proofs array of bytes 32 represent proof of merkle with merkle tree\n    ///@param _proofMaxQuantityPerTransaction useless for us but need it, its for add quantity into merkle tree\n    function verifyMerkleProof(\n        address _claimer,\n        bytes32[] calldata _proofs,\n        uint256 _proofMaxQuantityPerTransaction\n    ) public view returns (bool validMerkleProof, uint256 merkleProofIndex) {\n        if (\n            merkleRoot != bytes32(0) &&\n            merkleEndTime < block.timestamp &&\n            merkleEndTime != 0\n        ) {\n            (bool validMerkleProof, uint256 merkleProofIndex) = MerkleProofLib\n                .verify(\n                    _proofs,\n                    merkleRoot,\n                    keccak256(\n                        abi.encodePacked(\n                            _claimer,\n                            _proofMaxQuantityPerTransaction\n                        )\n                    )\n                );\n        }\n    }\n\n    ///@notice Function to calculate dynamic price\n    function getDynamicPriceMYOS() public view returns (uint256) {\n        return\n            MYOS(addressMYOSToken).getBalanceContract() /\n            MYOS(addressMYOSToken).totalSupply();\n    }\n}\n",
  "sourcePath": "/home/kevin/Bureau/homework/MYOS/contracts/DelegateContractMYOS.sol",
  "compiler": {
    "name": "solc",
    "version": "0.8.0+commit.c7dfd78e.Emscripten.clang"
  },
  "schemaVersion": "3.4.7",
  "updatedAt": "2022-08-04T08:17:24.555Z",
  "devdoc": {
    "kind": "dev",
    "methods": {
      "buyMYOS(uint256,address,bytes32[],uint256)": {
        "params": {
          "quantity": "number of token myos you want purchase",
          "receiver": "address waller of receiver's token"
        }
      },
      "convertMYOSToAnotherToken(uint256,address)": {
        "params": {
          "anotherToken": "address of token you want to convert",
          "quantity": "number of token myos you want convert"
        }
      },
      "owner()": {
        "details": "Returns the address of the current owner."
      },
      "renounceOwnership()": {
        "details": "Leaves the contract without owner. It will not be possible to call `onlyOwner` functions anymore. Can only be called by the current owner. NOTE: Renouncing ownership will leave the contract without an owner, thereby removing any functionality that is only available to the owner."
      },
      "sellMYOS(uint256)": {
        "params": {
          "quantity": "number of token myos you want sell"
        }
      },
      "setCurrentPriceMYOS(uint256)": {
        "params": {
          "newPrice": "value of price in matic wei (matic / 10**18)"
        }
      },
      "setMerkleTree(bytes32,uint256)": {
        "params": {
          "_merkleEndTime": "Represent a timestamp (in seconds) represents end of whitelist",
          "_merkleRoot": "A bytes 32 represent root of tree for verify all merkle proof"
        }
      },
      "transferOwnership(address)": {
        "details": "Transfers ownership of the contract to a new account (`newOwner`). Can only be called by the current owner."
      },
      "verifyMerkleProof(address,bytes32[],uint256)": {
        "params": {
          "_claimer": "msg.sender address wallet of user he want mint token MYOS",
          "_proofMaxQuantityPerTransaction": "useless for us but need it, its for add quantity into merkle tree",
          "_proofs": "array of bytes 32 represent proof of merkle with merkle tree"
        }
      }
    },
    "version": 1
  },
  "userdoc": {
    "kind": "user",
    "methods": {
      "buyMYOS(uint256,address,bytes32[],uint256)": {
        "notice": "Purchase of a resource for eth/MATIC"
      },
      "convertMYOSToAnotherToken(uint256,address)": {
        "notice": "Converting the MYOS to another token"
      },
      "getDynamicPriceMYOS()": {
        "notice": "Function to calculate dynamic price"
      },
      "sellMYOS(uint256)": {
        "notice": "Sale of MYOS token against MATIC"
      },
      "setCurrentPriceMYOS(uint256)": {
        "notice": "Update price of MYOS token for static price, if == 0 change for dynamic price"
      },
      "setMerkleTree(bytes32,uint256)": {
        "notice": "Set the merkle tree to create whitelist for mint"
      },
      "verifyMerkleProof(address,bytes32[],uint256)": {
        "notice": "Verify proof of a claimer to mint in a whitelist"
      }
    },
    "version": 1
  }
}