{
  "contractName": "DelegateContract",
  "abi": [
    {
      "inputs": [
        {
          "internalType": "address",
          "name": "_addressContract",
          "type": "address"
        }
      ],
      "stateMutability": "nonpayable",
      "type": "constructor"
    },
    {
      "anonymous": false,
      "inputs": [
        {
          "indexed": true,
          "internalType": "address",
          "name": "previousOwner",
          "type": "address"
        },
        {
          "indexed": true,
          "internalType": "address",
          "name": "newOwner",
          "type": "address"
        }
      ],
      "name": "OwnershipTransferred",
      "type": "event"
    },
    {
      "inputs": [],
      "name": "owner",
      "outputs": [
        {
          "internalType": "address",
          "name": "",
          "type": "address"
        }
      ],
      "stateMutability": "view",
      "type": "function",
      "constant": true
    },
    {
      "inputs": [],
      "name": "renounceOwnership",
      "outputs": [],
      "stateMutability": "nonpayable",
      "type": "function"
    },
    {
      "inputs": [
        {
          "internalType": "address",
          "name": "newOwner",
          "type": "address"
        }
      ],
      "name": "transferOwnership",
      "outputs": [],
      "stateMutability": "nonpayable",
      "type": "function"
    },
    {
      "inputs": [
        {
          "internalType": "address",
          "name": "_addressContract",
          "type": "address"
        }
      ],
      "name": "setAddressContract",
      "outputs": [],
      "stateMutability": "nonpayable",
      "type": "function"
    },
    {
      "inputs": [
        {
          "internalType": "string",
          "name": "keyParams",
          "type": "string"
        },
        {
          "internalType": "uint256",
          "name": "valueParams",
          "type": "uint256"
        }
      ],
      "name": "setParamsContract",
      "outputs": [],
      "stateMutability": "nonpayable",
      "type": "function"
    },
    {
      "inputs": [
        {
          "internalType": "string",
          "name": "keyParams",
          "type": "string"
        }
      ],
      "name": "getParamsContract",
      "outputs": [
        {
          "internalType": "uint256",
          "name": "",
          "type": "uint256"
        }
      ],
      "stateMutability": "view",
      "type": "function",
      "constant": true
    },
    {
      "inputs": [
        {
          "internalType": "string",
          "name": "keyParams",
          "type": "string"
        },
        {
          "internalType": "uint256",
          "name": "valueParams",
          "type": "uint256"
        }
      ],
      "name": "setParamsDelegate",
      "outputs": [],
      "stateMutability": "nonpayable",
      "type": "function"
    },
    {
      "inputs": [
        {
          "internalType": "uint8",
          "name": "typeMint",
          "type": "uint8"
        },
        {
          "internalType": "address",
          "name": "to",
          "type": "address"
        },
        {
          "internalType": "uint256",
          "name": "number",
          "type": "uint256"
        }
      ],
      "name": "giveNyxie",
      "outputs": [],
      "stateMutability": "nonpayable",
      "type": "function"
    },
    {
      "inputs": [
        {
          "internalType": "uint8",
          "name": "typeMint",
          "type": "uint8"
        }
      ],
      "name": "mintDelegate",
      "outputs": [],
      "stateMutability": "payable",
      "type": "function",
      "payable": true
    },
    {
      "inputs": [
        {
          "internalType": "uint256",
          "name": "tokenId",
          "type": "uint256"
        },
        {
          "internalType": "bool",
          "name": "sellable",
          "type": "bool"
        },
        {
          "internalType": "bool",
          "name": "egg",
          "type": "bool"
        },
        {
          "internalType": "uint256",
          "name": "tokenIdReproducable",
          "type": "uint256"
        }
      ],
      "name": "paramsNyxies",
      "outputs": [],
      "stateMutability": "nonpayable",
      "type": "function"
    },
    {
      "inputs": [
        {
          "internalType": "address",
          "name": "contactAddr",
          "type": "address"
        },
        {
          "internalType": "uint256",
          "name": "tokenId",
          "type": "uint256"
        }
      ],
      "name": "purchase",
      "outputs": [],
      "stateMutability": "payable",
      "type": "function",
      "payable": true
    },
    {
      "inputs": [
        {
          "internalType": "address",
          "name": "user",
          "type": "address"
        }
      ],
      "name": "getAllTokensForUser",
      "outputs": [
        {
          "internalType": "uint256[]",
          "name": "",
          "type": "uint256[]"
        }
      ],
      "stateMutability": "view",
      "type": "function",
      "constant": true
    },
    {
      "inputs": [
        {
          "internalType": "uint256",
          "name": "tokenId",
          "type": "uint256"
        }
      ],
      "name": "getTokenDetails",
      "outputs": [
        {
          "components": [
            {
              "internalType": "bool",
              "name": "inSell",
              "type": "bool"
            },
            {
              "internalType": "bool",
              "name": "egg",
              "type": "bool"
            },
            {
              "internalType": "uint8[]",
              "name": "params8",
              "type": "uint8[]"
            },
            {
              "internalType": "uint256[]",
              "name": "params256",
              "type": "uint256[]"
            }
          ],
          "internalType": "struct TokenDelegable.Nyxies",
          "name": "",
          "type": "tuple"
        }
      ],
      "stateMutability": "view",
      "type": "function",
      "constant": true
    },
    {
      "inputs": [
        {
          "internalType": "uint8",
          "name": "maxNumber",
          "type": "uint8"
        }
      ],
      "name": "random",
      "outputs": [
        {
          "internalType": "uint8",
          "name": "",
          "type": "uint8"
        }
      ],
      "stateMutability": "nonpayable",
      "type": "function"
    },
    {
      "inputs": [],
      "name": "withdraw",
      "outputs": [],
      "stateMutability": "nonpayable",
      "type": "function"
    },
    {
      "inputs": [
        {
          "internalType": "uint256",
          "name": "amount",
          "type": "uint256"
        }
      ],
      "name": "deposit",
      "outputs": [],
      "stateMutability": "payable",
      "type": "function",
      "payable": true
    },
    {
      "inputs": [],
      "name": "getBalance",
      "outputs": [
        {
          "internalType": "uint256",
          "name": "",
          "type": "uint256"
        }
      ],
      "stateMutability": "view",
      "type": "function",
      "constant": true
    }
  ],
  "bytecode": "0x60806040523480156200001157600080fd5b50604051620040453803806200404583398181016040528101906200003791906200035c565b620000576200004b6200026260201b60201c565b6200026a60201b60201c565b80600160006101000a81548173ffffffffffffffffffffffffffffffffffffffff021916908373ffffffffffffffffffffffffffffffffffffffff160217905550600160009054906101000a900473ffffffffffffffffffffffffffffffffffffffff1673ffffffffffffffffffffffffffffffffffffffff1663f26bf0b76040518163ffffffff1660e01b8152600401620000f39062000665565b60206040518083038186803b1580156200010c57600080fd5b505afa15801562000121573d6000803e3d6000fd5b505050506040513d601f19601f8201168201806040525081019062000147919062000388565b6002604051620001579062000609565b90815260200160405180910390208190555068056bc75e2d631000006002604051620001839062000620565b9081526020016040518091039020819055506801158e460913d000006002604051620001af90620005f2565b908152602001604051809103902081905550678ac7230489e800006002604051620001da9062000637565b9081526020016040518091039020819055506103e86002604051620001ff90620005db565b908152602001604051809103902081905550610bb860026040516200022490620005c4565b908152602001604051809103902081905550611770600260405162000249906200064e565b9081526020016040518091039020819055505062000715565b600033905090565b60008060009054906101000a900473ffffffffffffffffffffffffffffffffffffffff169050816000806101000a81548173ffffffffffffffffffffffffffffffffffffffff021916908373ffffffffffffffffffffffffffffffffffffffff1602179055508173ffffffffffffffffffffffffffffffffffffffff168173ffffffffffffffffffffffffffffffffffffffff167f8be0079c531659141344cd1fd0a4f28419497f9722a3daafe3b4186f6b6457e060405160405180910390a35050565b6000815190506200033f81620006e1565b92915050565b6000815190506200035681620006fb565b92915050565b6000602082840312156200036f57600080fd5b60006200037f848285016200032e565b91505092915050565b6000602082840312156200039b57600080fd5b6000620003ab8482850162000345565b91505092915050565b6000620003c3600c8362000698565b91507f65676754776f52656d61696e00000000000000000000000000000000000000006000830152600c82019050919050565b600062000405600c8362000698565b91507f6567674f6e6552656d61696e00000000000000000000000000000000000000006000830152600c82019050919050565b600062000447600b8362000698565b91507f707269636545676754776f0000000000000000000000000000000000000000006000830152600b82019050919050565b60006200048960068362000687565b91507f6e657874496400000000000000000000000000000000000000000000000000006000830152602082019050919050565b6000620004cb60068362000698565b91507f6e657874496400000000000000000000000000000000000000000000000000006000830152600682019050919050565b60006200050d600b8362000698565b91507f70726963654567674f6e650000000000000000000000000000000000000000006000830152600b82019050919050565b60006200054f600d8362000698565b91507f70726963654567675468726565000000000000000000000000000000000000006000830152600d82019050919050565b600062000591600e8362000698565b91507f656767546872656552656d61696e0000000000000000000000000000000000006000830152600e82019050919050565b6000620005d182620003b4565b9150819050919050565b6000620005e882620003f6565b9150819050919050565b6000620005ff8262000438565b9150819050919050565b60006200061682620004bc565b9150819050919050565b60006200062d82620004fe565b9150819050919050565b6000620006448262000540565b9150819050919050565b60006200065b8262000582565b9150819050919050565b6000602082019050818103600083015262000680816200047a565b9050919050565b600082825260208201905092915050565b600081905092915050565b6000620006b082620006b7565b9050919050565b600073ffffffffffffffffffffffffffffffffffffffff82169050919050565b6000819050919050565b620006ec81620006a3565b8114620006f857600080fd5b50565b6200070681620006d7565b81146200071257600080fd5b50565b61392080620007256000396000f3fe6080604052600436106100fe5760003560e01c80638de9322211610095578063c1e0372811610064578063c1e03728146102bc578063d6b730d2146102f9578063e0e0e2d314610322578063f26bf0b71461035f578063f2fde38b1461039c576100fe565b80638de932221461023f578063a5042fec1461025b578063b558072314610284578063b6b55f25146102a0576100fe565b806369cb44f7116100d157806369cb44f714610197578063715018a6146101c057806382de8fe9146101d75780638da5cb5b14610214576100fe565b806312065fe0146101035780633a2ef8fc1461012e5780633cb11944146101575780633ccfd60b14610180575b600080fd5b34801561010f57600080fd5b506101186103c5565b6040516101259190613499565b60405180910390f35b34801561013a57600080fd5b5061015560048036038101906101509190612891565b6103cd565b005b34801561016357600080fd5b5061017e60048036038101906101799190612891565b610466565b005b34801561018c57600080fd5b50610195610509565b005b3480156101a357600080fd5b506101be60048036038101906101b9919061294f565b6105ce565b005b3480156101cc57600080fd5b506101d56107c4565b005b3480156101e357600080fd5b506101fe60048036038101906101f99190612781565b61084c565b60405161020b91906132e7565b60405180910390f35b34801561022057600080fd5b5061022961090b565b6040516102369190613250565b60405180910390f35b610259600480360381019061025491906127d3565b610934565b005b34801561026757600080fd5b50610282600480360381019061027d91906129db565b610e52565b005b61029e600480360381019061029991906129b2565b611616565b005b6102ba60048036038101906102b59190612926565b611fe1565b005b3480156102c857600080fd5b506102e360048036038101906102de9190612926565b61206c565b6040516102f09190613439565b60405180910390f35b34801561030557600080fd5b50610320600480360381019061031b9190612781565b612131565b005b34801561032e57600080fd5b50610349600480360381019061034491906129b2565b6121f1565b60405161035691906134b4565b60405180910390f35b34801561036b57600080fd5b5061038660048036038101906103819190612850565b612289565b6040516103939190613499565b60405180910390f35b3480156103a857600080fd5b506103c360048036038101906103be9190612781565b6122b1565b005b600047905090565b6000600160009054906101000a900473ffffffffffffffffffffffffffffffffffffffff1690508073ffffffffffffffffffffffffffffffffffffffff16633cb1194484846040518363ffffffff1660e01b815260040161042f929190613309565b600060405180830381600087803b15801561044957600080fd5b505af115801561045d573d6000803e3d6000fd5b50505050505050565b61046e6123a9565b73ffffffffffffffffffffffffffffffffffffffff1661048c61090b565b73ffffffffffffffffffffffffffffffffffffffff16146104e2576040517f08c379a00000000000000000000000000000000000000000000000000000000081526004016104d9906133d9565b60405180910390fd5b806002836040516104f39190613154565b9081526020016040518091039020819055505050565b6105116123a9565b73ffffffffffffffffffffffffffffffffffffffff1661052f61090b565b73ffffffffffffffffffffffffffffffffffffffff1614610585576040517f08c379a000000000000000000000000000000000000000000000000000000000815260040161057c906133d9565b60405180910390fd5b3373ffffffffffffffffffffffffffffffffffffffff166108fc479081150290604051600060405180830381858888f193505050501580156105cb573d6000803e3d6000fd5b50565b6000600160009054906101000a900473ffffffffffffffffffffffffffffffffffffffff16905060008173ffffffffffffffffffffffffffffffffffffffff1663c1e03728876040518263ffffffff1660e01b81526004016106309190613499565b60006040518083038186803b15801561064857600080fd5b505afa15801561065c573d6000803e3d6000fd5b505050506040513d6000823e3d601f19601f8201168201806040525081019061068591906128e5565b90508481600001901515908115158152505083151581602001511515146106f2574281606001516000815181106106e5577f4e487b7100000000000000000000000000000000000000000000000000000000600052603260045260246000fd5b6020026020010181815250505b83816020019015159081151581525050828160600151600181518110610741577f4e487b7100000000000000000000000000000000000000000000000000000000600052603260045260246000fd5b6020026020010181815250508173ffffffffffffffffffffffffffffffffffffffff16635105d1718288336040518463ffffffff1660e01b815260040161078a9392919061345b565b600060405180830381600087803b1580156107a457600080fd5b505af11580156107b8573d6000803e3d6000fd5b50505050505050505050565b6107cc6123a9565b73ffffffffffffffffffffffffffffffffffffffff166107ea61090b565b73ffffffffffffffffffffffffffffffffffffffff1614610840576040517f08c379a0000000000000000000000000000000000000000000000000000000008152600401610837906133d9565b60405180910390fd5b61084a60006123b1565b565b60606000600160009054906101000a900473ffffffffffffffffffffffffffffffffffffffff1690508073ffffffffffffffffffffffffffffffffffffffff166382de8fe9846040518263ffffffff1660e01b81526004016108ae9190613250565b60006040518083038186803b1580156108c657600080fd5b505afa1580156108da573d6000803e3d6000fd5b505050506040513d6000823e3d601f19601f82011682018060405250810190610903919061280f565b915050919050565b60008060009054906101000a900473ffffffffffffffffffffffffffffffffffffffff16905090565b6000600160009054906101000a900473ffffffffffffffffffffffffffffffffffffffff16905060008173ffffffffffffffffffffffffffffffffffffffff1663c1e03728846040518263ffffffff1660e01b81526004016109969190613499565b60006040518083038186803b1580156109ae57600080fd5b505afa1580156109c2573d6000803e3d6000fd5b505050506040513d6000823e3d601f19601f820116820180604052508101906109eb91906128e5565b90508060600151600181518110610a2b577f4e487b7100000000000000000000000000000000000000000000000000000000600052603260045260246000fd5b6020026020010151341015610a75576040517f08c379a0000000000000000000000000000000000000000000000000000000008152600401610a6c90613419565b60405180910390fd5b3373ffffffffffffffffffffffffffffffffffffffff168273ffffffffffffffffffffffffffffffffffffffff166383638710856040518263ffffffff1660e01b8152600401610ac59190613499565b60206040518083038186803b158015610add57600080fd5b505afa158015610af1573d6000803e3d6000fd5b505050506040513d601f19601f82011682018060405250810190610b1591906127aa565b73ffffffffffffffffffffffffffffffffffffffff161415610b6c576040517f08c379a0000000000000000000000000000000000000000000000000000000008152600401610b63906133b9565b60405180910390fd5b60001515816020015115151415610d5d5760008273ffffffffffffffffffffffffffffffffffffffff166382de8fe9336040518263ffffffff1660e01b8152600401610bb89190613250565b60006040518083038186803b158015610bd057600080fd5b505afa158015610be4573d6000803e3d6000fd5b505050506040513d6000823e3d601f19601f82011682018060405250810190610c0d919061280f565b90506000805b8251811015610d1257600015158573ffffffffffffffffffffffffffffffffffffffff1663c1e03728858481518110610c75577f4e487b7100000000000000000000000000000000000000000000000000000000600052603260045260246000fd5b60200260200101516040518263ffffffff1660e01b8152600401610c999190613499565b60006040518083038186803b158015610cb157600080fd5b505afa158015610cc5573d6000803e3d6000fd5b505050506040513d6000823e3d601f19601f82011682018060405250810190610cee91906128e5565b6020015115151415610cff57600191505b8080610d0a9061373b565b915050610c13565b6000151582151514610d59576040517f08c379a0000000000000000000000000000000000000000000000000000000008152600401610d5090613379565b60405180910390fd5b5050505b60008160000190151590811515815250508173ffffffffffffffffffffffffffffffffffffffff16635105d1718285336040518463ffffffff1660e01b8152600401610dab9392919061345b565b600060405180830381600087803b158015610dc557600080fd5b505af1158015610dd9573d6000803e3d6000fd5b505050508173ffffffffffffffffffffffffffffffffffffffff1663beabacc88533866040518463ffffffff1660e01b8152600401610e1a9392919061326b565b600060405180830381600087803b158015610e3457600080fd5b505af1158015610e48573d6000803e3d6000fd5b5050505050505050565b610e5a6123a9565b73ffffffffffffffffffffffffffffffffffffffff16610e7861090b565b73ffffffffffffffffffffffffffffffffffffffff1614610ece576040517f08c379a0000000000000000000000000000000000000000000000000000000008152600401610ec5906133d9565b60405180910390fd5b60008060008560ff161480610ee6575060018560ff16145b80610ef4575060028560ff16145b610f33576040517f08c379a0000000000000000000000000000000000000000000000000000000008152600401610f2a90613399565b60405180910390fd5b60008560ff161415610f6757600891506002604051610f51906131d4565b9081526020016040518091039020549050610fcd565b60018560ff161415610f9b57600491506002604051610f8590613195565b9081526020016040518091039020549050610fcc565b60028560ff161415610fcb57600091506002604051610fb9906131e9565b90815260200160405180910390205490505b5b5b6000600667ffffffffffffffff811115611010577f4e487b7100000000000000000000000000000000000000000000000000000000600052604160045260246000fd5b60405190808252806020026020018201604052801561103e5781602001602082028036833780820191505090505b5090506000600a67ffffffffffffffff811115611084577f4e487b7100000000000000000000000000000000000000000000000000000000600052604160045260246000fd5b6040519080825280602002602001820160405280156110b25781602001602082028036833780820191505090505b5090506110bf60046121f1565b826000815181106110f9577f4e487b7100000000000000000000000000000000000000000000000000000000600052603260045260246000fd5b602002602001019060ff16908160ff16815250508361111860046121f1565b6111229190613643565b8260018151811061115c577f4e487b7100000000000000000000000000000000000000000000000000000000600052603260045260246000fd5b602002602001019060ff16908160ff16815250508361117b60046121f1565b6111859190613643565b826002815181106111bf577f4e487b7100000000000000000000000000000000000000000000000000000000600052603260045260246000fd5b602002602001019060ff16908160ff1681525050836111de60046121f1565b6111e89190613643565b82600381518110611222577f4e487b7100000000000000000000000000000000000000000000000000000000600052603260045260246000fd5b602002602001019060ff16908160ff16815250508361124160046121f1565b61124b9190613643565b82600481518110611285577f4e487b7100000000000000000000000000000000000000000000000000000000600052603260045260246000fd5b602002602001019060ff16908160ff16815250506000826005815181106112d5577f4e487b7100000000000000000000000000000000000000000000000000000000600052603260045260246000fd5b602002602001019060ff16908160ff16815250504281600081518110611324577f4e487b7100000000000000000000000000000000000000000000000000000000600052603260045260246000fd5b602002602001018181525050828160018151811061136b577f4e487b7100000000000000000000000000000000000000000000000000000000600052603260045260246000fd5b6020026020010181815250506000816002815181106113b3577f4e487b7100000000000000000000000000000000000000000000000000000000600052603260045260246000fd5b6020026020010181815250506000816003815181106113fb577f4e487b7100000000000000000000000000000000000000000000000000000000600052603260045260246000fd5b602002602001018181525050600081600481518110611443577f4e487b7100000000000000000000000000000000000000000000000000000000600052603260045260246000fd5b60200260200101818152505060008160058151811061148b577f4e487b7100000000000000000000000000000000000000000000000000000000600052603260045260246000fd5b60200260200101818152505060026040516114a5906131aa565b908152602001604051809103902054816006815181106114ee577f4e487b7100000000000000000000000000000000000000000000000000000000600052603260045260246000fd5b6020026020010181815250508660ff1681600781518110611538577f4e487b7100000000000000000000000000000000000000000000000000000000600052603260045260246000fd5b6020026020010181815250506002604051611552906131aa565b908152602001604051809103902060008154809291906115719061373b565b91905055506000600160009054906101000a900473ffffffffffffffffffffffffffffffffffffffff1690508073ffffffffffffffffffffffffffffffffffffffff1663ea4edda28885856040518463ffffffff1660e01b81526004016115da939291906132a2565b600060405180830381600087803b1580156115f457600080fd5b505af1158015611608573d6000803e3d6000fd5b505050505050505050505050565b6000808260ff16148061162c575060018260ff16145b8061163a575060028260ff16145b611679576040517f08c379a000000000000000000000000000000000000000000000000000000000815260040161167090613399565b60405180910390fd5b60008260ff16141561177e576002604051611693906131d4565b9081526020016040518091039020543410156116e4576040517f08c379a00000000000000000000000000000000000000000000000000000000081526004016116db906133f9565b60405180910390fd5b600060026040516116f490613180565b90815260200160405180910390205411611743576040517f08c379a000000000000000000000000000000000000000000000000000000000815260040161173a90613359565b60405180910390fd5b60089050600260405161175590613180565b9081526020016040518091039020600081548092919061177490613711565b9190505550611986565b60018260ff16141561188357600260405161179890613195565b9081526020016040518091039020543410156117e9576040517f08c379a00000000000000000000000000000000000000000000000000000000081526004016117e0906133f9565b60405180910390fd5b600060026040516117f99061316b565b90815260200160405180910390205411611848576040517f08c379a000000000000000000000000000000000000000000000000000000000815260040161183f90613359565b60405180910390fd5b60049050600260405161185a9061316b565b9081526020016040518091039020600081548092919061187990613711565b9190505550611985565b60028260ff16141561198457600260405161189d906131e9565b9081526020016040518091039020543410156118ee576040517f08c379a00000000000000000000000000000000000000000000000000000000081526004016118e5906133f9565b60405180910390fd5b600060026040516118fe906131fe565b9081526020016040518091039020541161194d576040517f08c379a000000000000000000000000000000000000000000000000000000000815260040161194490613359565b60405180910390fd5b60009050600260405161195f906131fe565b9081526020016040518091039020600081548092919061197e90613711565b91905055505b5b5b6000600667ffffffffffffffff8111156119c9577f4e487b7100000000000000000000000000000000000000000000000000000000600052604160045260246000fd5b6040519080825280602002602001820160405280156119f75781602001602082028036833780820191505090505b5090506000600a67ffffffffffffffff811115611a3d577f4e487b7100000000000000000000000000000000000000000000000000000000600052604160045260246000fd5b604051908082528060200260200182016040528015611a6b5781602001602082028036833780820191505090505b509050611a7860046121f1565b82600081518110611ab2577f4e487b7100000000000000000000000000000000000000000000000000000000600052603260045260246000fd5b602002602001019060ff16908160ff168152505082611ad160046121f1565b611adb9190613643565b82600181518110611b15577f4e487b7100000000000000000000000000000000000000000000000000000000600052603260045260246000fd5b602002602001019060ff16908160ff168152505082611b3460046121f1565b611b3e9190613643565b82600281518110611b78577f4e487b7100000000000000000000000000000000000000000000000000000000600052603260045260246000fd5b602002602001019060ff16908160ff168152505082611b9760046121f1565b611ba19190613643565b82600381518110611bdb577f4e487b7100000000000000000000000000000000000000000000000000000000600052603260045260246000fd5b602002602001019060ff16908160ff168152505082611bfa60046121f1565b611c049190613643565b82600481518110611c3e577f4e487b7100000000000000000000000000000000000000000000000000000000600052603260045260246000fd5b602002602001019060ff16908160ff1681525050600082600581518110611c8e577f4e487b7100000000000000000000000000000000000000000000000000000000600052603260045260246000fd5b602002602001019060ff16908160ff16815250504281600081518110611cdd577f4e487b7100000000000000000000000000000000000000000000000000000000600052603260045260246000fd5b6020026020010181815250503481600181518110611d24577f4e487b7100000000000000000000000000000000000000000000000000000000600052603260045260246000fd5b602002602001018181525050600081600281518110611d6c577f4e487b7100000000000000000000000000000000000000000000000000000000600052603260045260246000fd5b602002602001018181525050600081600381518110611db4577f4e487b7100000000000000000000000000000000000000000000000000000000600052603260045260246000fd5b602002602001018181525050600081600481518110611dfc577f4e487b7100000000000000000000000000000000000000000000000000000000600052603260045260246000fd5b602002602001018181525050600081600581518110611e44577f4e487b7100000000000000000000000000000000000000000000000000000000600052603260045260246000fd5b6020026020010181815250506002604051611e5e906131aa565b90815260200160405180910390205481600681518110611ea7577f4e487b7100000000000000000000000000000000000000000000000000000000600052603260045260246000fd5b6020026020010181815250508360ff1681600781518110611ef1577f4e487b7100000000000000000000000000000000000000000000000000000000600052603260045260246000fd5b6020026020010181815250506002604051611f0b906131aa565b90815260200160405180910390206000815480929190611f2a9061373b565b91905055506000600185611f3e9190613643565b60ff1690506000600160009054906101000a900473ffffffffffffffffffffffffffffffffffffffff1690508073ffffffffffffffffffffffffffffffffffffffff1663ea4edda23386866040518463ffffffff1660e01b8152600401611fa7939291906132a2565b600060405180830381600087803b158015611fc157600080fd5b505af1158015611fd5573d6000803e3d6000fd5b50505050505050505050565b611fe96123a9565b73ffffffffffffffffffffffffffffffffffffffff1661200761090b565b73ffffffffffffffffffffffffffffffffffffffff161461205d576040517f08c379a0000000000000000000000000000000000000000000000000000000008152600401612054906133d9565b60405180910390fd5b80341461206957600080fd5b50565b612074612475565b6000600160009054906101000a900473ffffffffffffffffffffffffffffffffffffffff1690508073ffffffffffffffffffffffffffffffffffffffff1663c1e03728846040518263ffffffff1660e01b81526004016120d49190613499565b60006040518083038186803b1580156120ec57600080fd5b505afa158015612100573d6000803e3d6000fd5b505050506040513d6000823e3d601f19601f8201168201806040525081019061212991906128e5565b915050919050565b6121396123a9565b73ffffffffffffffffffffffffffffffffffffffff1661215761090b565b73ffffffffffffffffffffffffffffffffffffffff16146121ad576040517f08c379a00000000000000000000000000000000000000000000000000000000081526004016121a4906133d9565b60405180910390fd5b80600160006101000a81548173ffffffffffffffffffffffffffffffffffffffff021916908373ffffffffffffffffffffffffffffffffffffffff16021790555050565b6000808260ff1642336002604051612208906131bf565b90815260200160405180910390205460405160200161222993929190613213565b6040516020818303038152906040528051906020012060001c61224c91906137b2565b9050600260405161225c906131bf565b9081526020016040518091039020600081548092919061227b9061373b565b919050555080915050919050565b600060028260405161229b9190613154565b9081526020016040518091039020549050919050565b6122b96123a9565b73ffffffffffffffffffffffffffffffffffffffff166122d761090b565b73ffffffffffffffffffffffffffffffffffffffff161461232d576040517f08c379a0000000000000000000000000000000000000000000000000000000008152600401612324906133d9565b60405180910390fd5b600073ffffffffffffffffffffffffffffffffffffffff168173ffffffffffffffffffffffffffffffffffffffff16141561239d576040517f08c379a000000000000000000000000000000000000000000000000000000000815260040161239490613339565b60405180910390fd5b6123a6816123b1565b50565b600033905090565b60008060009054906101000a900473ffffffffffffffffffffffffffffffffffffffff169050816000806101000a81548173ffffffffffffffffffffffffffffffffffffffff021916908373ffffffffffffffffffffffffffffffffffffffff1602179055508173ffffffffffffffffffffffffffffffffffffffff168173ffffffffffffffffffffffffffffffffffffffff167f8be0079c531659141344cd1fd0a4f28419497f9722a3daafe3b4186f6b6457e060405160405180910390a35050565b604051806080016040528060001515815260200160001515815260200160608152602001606081525090565b60006124b46124af84613500565b6134cf565b905080838252602082019050828560208602820111156124d357600080fd5b60005b8581101561250357816124e98882612742565b8452602084019350602083019250506001810190506124d6565b5050509392505050565b600061252061251b8461352c565b6134cf565b9050808382526020820190508285602086028201111561253f57600080fd5b60005b8581101561256f5781612555888261276c565b845260208401935060208301925050600181019050612542565b5050509392505050565b600061258c61258784613558565b6134cf565b9050828152602081018484840111156125a457600080fd5b6125af8482856136cf565b509392505050565b6000813590506125c68161388e565b92915050565b6000815190506125db8161388e565b92915050565b600082601f8301126125f257600080fd5b81516126028482602086016124a1565b91505092915050565b600082601f83011261261c57600080fd5b815161262c84826020860161250d565b91505092915050565b600081359050612644816138a5565b92915050565b600081519050612659816138a5565b92915050565b600082601f83011261267057600080fd5b8135612680848260208601612579565b91505092915050565b60006080828403121561269b57600080fd5b6126a560806134cf565b905060006126b58482850161264a565b60008301525060206126c98482850161264a565b602083015250604082015167ffffffffffffffff8111156126e957600080fd5b6126f58482850161260b565b604083015250606082015167ffffffffffffffff81111561271557600080fd5b612721848285016125e1565b60608301525092915050565b60008135905061273c816138bc565b92915050565b600081519050612751816138bc565b92915050565b600081359050612766816138d3565b92915050565b60008151905061277b816138d3565b92915050565b60006020828403121561279357600080fd5b60006127a1848285016125b7565b91505092915050565b6000602082840312156127bc57600080fd5b60006127ca848285016125cc565b91505092915050565b600080604083850312156127e657600080fd5b60006127f4858286016125b7565b92505060206128058582860161272d565b9150509250929050565b60006020828403121561282157600080fd5b600082015167ffffffffffffffff81111561283b57600080fd5b612847848285016125e1565b91505092915050565b60006020828403121561286257600080fd5b600082013567ffffffffffffffff81111561287c57600080fd5b6128888482850161265f565b91505092915050565b600080604083850312156128a457600080fd5b600083013567ffffffffffffffff8111156128be57600080fd5b6128ca8582860161265f565b92505060206128db8582860161272d565b9150509250929050565b6000602082840312156128f757600080fd5b600082015167ffffffffffffffff81111561291157600080fd5b61291d84828501612689565b91505092915050565b60006020828403121561293857600080fd5b60006129468482850161272d565b91505092915050565b6000806000806080858703121561296557600080fd5b60006129738782880161272d565b945050602061298487828801612635565b935050604061299587828801612635565b92505060606129a68782880161272d565b91505092959194509250565b6000602082840312156129c457600080fd5b60006129d284828501612757565b91505092915050565b6000806000606084860312156129f057600080fd5b60006129fe86828701612757565b9350506020612a0f868287016125b7565b9250506040612a208682870161272d565b9150509250925092565b6000612a368383613101565b60208301905092915050565b6000612a4e8383613136565b60208301905092915050565b612a638161367a565b82525050565b612a7a612a758261367a565b613784565b82525050565b6000612a8b826135a8565b612a9581856135e3565b9350612aa083613588565b8060005b83811015612ad1578151612ab88882612a2a565b9750612ac3836135c9565b925050600181019050612aa4565b5085935050505092915050565b6000612ae9826135a8565b612af381856135f4565b9350612afe83613588565b8060005b83811015612b2f578151612b168882612a2a565b9750612b21836135c9565b925050600181019050612b02565b5085935050505092915050565b6000612b47826135b3565b612b518185613605565b9350612b5c83613598565b8060005b83811015612b8d578151612b748882612a42565b9750612b7f836135d6565b925050600181019050612b60565b5085935050505092915050565b6000612ba5826135b3565b612baf8185613616565b9350612bba83613598565b8060005b83811015612beb578151612bd28882612a42565b9750612bdd836135d6565b925050600181019050612bbe565b5085935050505092915050565b612c018161368c565b82525050565b6000612c12826135be565b612c1c8185613627565b9350612c2c8185602086016136de565b612c3581613870565b840191505092915050565b6000612c4b826135be565b612c558185613638565b9350612c658185602086016136de565b80840191505092915050565b6000612c7e600c83613638565b91507f65676754776f52656d61696e00000000000000000000000000000000000000006000830152600c82019050919050565b6000612cbe602683613627565b91507f4f776e61626c653a206e6577206f776e657220697320746865207a65726f206160008301527f64647265737300000000000000000000000000000000000000000000000000006020830152604082019050919050565b6000612d24600c83613638565b91507f6567674f6e6552656d61696e00000000000000000000000000000000000000006000830152600c82019050919050565b6000612d64601183613627565b91507f4e6f20656767732072656d61696e696e670000000000000000000000000000006000830152602082019050919050565b6000612da4600b83613638565b91507f707269636545676754776f0000000000000000000000000000000000000000006000830152600b82019050919050565b6000612de4600683613638565b91507f6e657874496400000000000000000000000000000000000000000000000000006000830152600682019050919050565b6000612e24601583613627565b91507f416c726561647920686176652061206e797869657300000000000000000000006000830152602082019050919050565b6000612e64600d83613627565b91507f54797065206e6f7420676f6f64000000000000000000000000000000000000006000830152602082019050919050565b6000612ea4600583613638565b91507f6e6f6e63650000000000000000000000000000000000000000000000000000006000830152600582019050919050565b6000612ee4600d83613627565b91507f416c7265616479204f776e6564000000000000000000000000000000000000006000830152602082019050919050565b6000612f24600b83613638565b91507f70726963654567674f6e650000000000000000000000000000000000000000006000830152600b82019050919050565b6000612f64602083613627565b91507f4f776e61626c653a2063616c6c6572206973206e6f7420746865206f776e65726000830152602082019050919050565b6000612fa4601183613627565b91507f4d6f7265204554482072657175697265640000000000000000000000000000006000830152602082019050919050565b6000612fe4601783613627565b91507f496e73756666696369656e7420666f6e64732073656e740000000000000000006000830152602082019050919050565b6000613024600d83613638565b91507f70726963654567675468726565000000000000000000000000000000000000006000830152600d82019050919050565b6000613064600e83613638565b91507f656767546872656552656d61696e0000000000000000000000000000000000006000830152600e82019050919050565b60006080830160008301516130af6000860182612bf8565b5060208301516130c26020860182612bf8565b50604083015184820360408601526130da8282612b3c565b915050606083015184820360608601526130f48282612a80565b9150508091505092915050565b61310a816136b8565b82525050565b613119816136b8565b82525050565b61313061312b826136b8565b6137a8565b82525050565b61313f816136c2565b82525050565b61314e816136c2565b82525050565b60006131608284612c40565b915081905092915050565b600061317682612c71565b9150819050919050565b600061318b82612d17565b9150819050919050565b60006131a082612d97565b9150819050919050565b60006131b582612dd7565b9150819050919050565b60006131ca82612e97565b9150819050919050565b60006131df82612f17565b9150819050919050565b60006131f482613017565b9150819050919050565b600061320982613057565b9150819050919050565b600061321f828661311f565b60208201915061322f8285612a69565b60148201915061323f828461311f565b602082019150819050949350505050565b60006020820190506132656000830184612a5a565b92915050565b60006060820190506132806000830186612a5a565b61328d6020830185612a5a565b61329a6040830184613110565b949350505050565b60006060820190506132b76000830186612a5a565b81810360208301526132c98185612b9a565b905081810360408301526132dd8184612ade565b9050949350505050565b600060208201905081810360008301526133018184612ade565b905092915050565b600060408201905081810360008301526133238185612c07565b90506133326020830184613110565b9392505050565b6000602082019050818103600083015261335281612cb1565b9050919050565b6000602082019050818103600083015261337281612d57565b9050919050565b6000602082019050818103600083015261339281612e17565b9050919050565b600060208201905081810360008301526133b281612e57565b9050919050565b600060208201905081810360008301526133d281612ed7565b9050919050565b600060208201905081810360008301526133f281612f57565b9050919050565b6000602082019050818103600083015261341281612f97565b9050919050565b6000602082019050818103600083015261343281612fd7565b9050919050565b600060208201905081810360008301526134538184613097565b905092915050565b600060608201905081810360008301526134758186613097565b90506134846020830185613110565b6134916040830184612a5a565b949350505050565b60006020820190506134ae6000830184613110565b92915050565b60006020820190506134c96000830184613145565b92915050565b6000604051905081810181811067ffffffffffffffff821117156134f6576134f5613841565b5b8060405250919050565b600067ffffffffffffffff82111561351b5761351a613841565b5b602082029050602081019050919050565b600067ffffffffffffffff82111561354757613546613841565b5b602082029050602081019050919050565b600067ffffffffffffffff82111561357357613572613841565b5b601f19601f8301169050602081019050919050565b6000819050602082019050919050565b6000819050602082019050919050565b600081519050919050565b600081519050919050565b600081519050919050565b6000602082019050919050565b6000602082019050919050565b600082825260208201905092915050565b600082825260208201905092915050565b600082825260208201905092915050565b600082825260208201905092915050565b600082825260208201905092915050565b600081905092915050565b600061364e826136c2565b9150613659836136c2565b92508260ff0382111561366f5761366e6137e3565b5b828201905092915050565b600061368582613698565b9050919050565b60008115159050919050565b600073ffffffffffffffffffffffffffffffffffffffff82169050919050565b6000819050919050565b600060ff82169050919050565b82818337600083830152505050565b60005b838110156136fc5780820151818401526020810190506136e1565b8381111561370b576000848401525b50505050565b600061371c826136b8565b915060008214156137305761372f6137e3565b5b600182039050919050565b6000613746826136b8565b91507fffffffffffffffffffffffffffffffffffffffffffffffffffffffffffffffff821415613779576137786137e3565b5b600182019050919050565b600061378f82613796565b9050919050565b60006137a182613881565b9050919050565b6000819050919050565b60006137bd826136b8565b91506137c8836136b8565b9250826137d8576137d7613812565b5b828206905092915050565b7f4e487b7100000000000000000000000000000000000000000000000000000000600052601160045260246000fd5b7f4e487b7100000000000000000000000000000000000000000000000000000000600052601260045260246000fd5b7f4e487b7100000000000000000000000000000000000000000000000000000000600052604160045260246000fd5b6000601f19601f8301169050919050565b60008160601b9050919050565b6138978161367a565b81146138a257600080fd5b50565b6138ae8161368c565b81146138b957600080fd5b50565b6138c5816136b8565b81146138d057600080fd5b50565b6138dc816136c2565b81146138e757600080fd5b5056fea264697066735822122078c1c31d7656a672ead72630c7ae95d908eaba4ff23692d3bdf341554b7e60dd64736f6c63430008000033",
  "immutableReferences": {},
  "source": "pragma solidity 0.8.0;\r\n\r\nimport '@openzeppelin/contracts/token/ERC721/extensions/ERC721Enumerable.sol';\r\nimport '@openzeppelin/contracts/access/Ownable.sol';\r\n\r\ncontract DelegateContract is Ownable {\r\n\r\n    constructor(address _addressContract) {\r\n        addressContract = _addressContract;\r\n        paramsContract[\"nextId\"] = TokenDelegable(addressContract).getParamsContract(\"nextId\");\r\n        paramsContract[\"priceEggOne\"] = 100000000000000000000;//dev:100000000000000000\r\n        paramsContract[\"priceEggTwo\"] = 20000000000000000000;//dev:20000000000000000\r\n        paramsContract[\"priceEggThree\"] = 10000000000000000000;//dev:10000000000000000\r\n        \r\n        paramsContract[\"eggOneRemain\"] = 1000;\r\n        paramsContract[\"eggTwoRemain\"] = 3000;\r\n        paramsContract[\"eggThreeRemain\"] = 6000;\r\n     }\r\n\r\n    address addressContract;\r\n    mapping( string => uint ) paramsContract;\r\n\r\n    function setAddressContract(address _addressContract) external onlyOwner {\r\n        addressContract = _addressContract;\r\n    }\r\n\r\n    function setParamsContract(string memory keyParams, uint valueParams) external onlyOwner {\r\n        paramsContract[keyParams] = valueParams;\r\n    }\r\n\r\n    function getParamsContract(string memory keyParams) external view returns (uint256){\r\n        return paramsContract[keyParams];\r\n    }\r\n\r\n    function setParamsDelegate(string memory keyParams, uint256 valueParams ) external {\r\n        TokenDelegable contrat = TokenDelegable(addressContract);\r\n        contrat.setParamsContract(keyParams, valueParams);\r\n    }\r\n\r\n    function giveNyxie(uint8 typeMint, address to, uint256 number) public onlyOwner{\r\n        uint8 bonus = 0;\r\n        uint256 price = 0;\r\n        require(typeMint == 0 || typeMint == 1 || typeMint == 2,\"Type not good\");\r\n        if(typeMint == 0){\r\n            bonus = 8;\r\n            price = paramsContract[\"priceEggOne\"];\r\n        }else if(typeMint == 1){\r\n            bonus = 4;\r\n            price = paramsContract[\"priceEggTwo\"];\r\n        }else if(typeMint == 2){\r\n            bonus = 0;\r\n            price = paramsContract[\"priceEggThree\"];\r\n        }\r\n        uint8[] memory randomParts = new uint8[](6);\r\n        uint256[] memory randomParams = new uint256[](10);\r\n        randomParts[0] = random(4);//color\r\n        randomParts[1] = random(4)+bonus;//part1\r\n        randomParts[2] = random(4)+bonus;//part2\r\n        randomParts[3] = random(4)+bonus;//part3\r\n        randomParts[4] = random(4)+bonus;//part4\r\n        randomParts[5] = 0;\r\n        randomParams[0] = block.timestamp;\r\n        randomParams[1] = price;\r\n        randomParams[2] = 0;//idreproduce\r\n        randomParams[3] = 0;//mother\r\n        randomParams[4] = 0;//father\r\n        randomParams[5] = 0;//nbrreproduce\r\n        randomParams[6] = paramsContract[\"nextId\"];//tokenId\r\n        randomParams[7] = typeMint;//type\r\n        paramsContract[\"nextId\"]++;\r\n\r\n        TokenDelegable contrat = TokenDelegable(addressContract);\r\n        contrat.mint(to, randomParts, randomParams);\r\n    }\r\n\r\n    function mintDelegate(uint8 typeMint) public payable{\r\n\r\n        uint8 bonus = 0;\r\n        require(typeMint == 0 || typeMint == 1 || typeMint == 2,\"Type not good\");\r\n        if(typeMint == 0){\r\n            require(msg.value >= paramsContract[\"priceEggOne\"],\"More ETH required\");\r\n            require(paramsContract[\"eggOneRemain\"] > 0,\"No eggs remaining\");\r\n            bonus = 8;\r\n            paramsContract[\"eggOneRemain\"]--;\r\n        }else if(typeMint == 1){\r\n            require(msg.value >= paramsContract[\"priceEggTwo\"],\"More ETH required\");\r\n            require(paramsContract[\"eggTwoRemain\"] > 0,\"No eggs remaining\");\r\n            bonus = 4;\r\n            paramsContract[\"eggTwoRemain\"]--;\r\n        }else if(typeMint == 2){\r\n            require(msg.value >= paramsContract[\"priceEggThree\"],\"More ETH required\");\r\n            require(paramsContract[\"eggThreeRemain\"] > 0,\"No eggs remaining\");\r\n            bonus = 0;\r\n            paramsContract[\"eggThreeRemain\"]--;\r\n        }\r\n        uint8[] memory randomParts = new uint8[](6);\r\n        uint256[] memory randomParams = new uint256[](10);\r\n        randomParts[0] = random(4);//color\r\n        randomParts[1] = random(4)+bonus;//part1\r\n        randomParts[2] = random(4)+bonus;//part2\r\n        randomParts[3] = random(4)+bonus;//part3\r\n        randomParts[4] = random(4)+bonus;//part4\r\n        randomParts[5] = 0;\r\n        randomParams[0] = block.timestamp;\r\n        randomParams[1] = msg.value;\r\n        randomParams[2] = 0;//idreproduce\r\n        randomParams[3] = 0;//mother\r\n        randomParams[4] = 0;//father\r\n        randomParams[5] = 0;//nbrreproduce\r\n        randomParams[6] = paramsContract[\"nextId\"];//tokenId\r\n        randomParams[7] = typeMint;//type\r\n        paramsContract[\"nextId\"]++;\r\n        uint256 number = uint256(typeMint+1);\r\n        TokenDelegable contrat = TokenDelegable(addressContract);\r\n        contrat.mint(msg.sender, randomParts, randomParams);\r\n    }\r\n\r\n    \r\n    function paramsNyxies(uint256 tokenId,bool sellable,bool egg, uint256 tokenIdReproducable) public {\r\n        \r\n        TokenDelegable contrat = TokenDelegable(addressContract);\r\n        TokenDelegable.Nyxies memory nyxiesTemp =  contrat.getTokenDetails(tokenId);\r\n        nyxiesTemp.inSell = sellable;\r\n        if(nyxiesTemp.egg != egg) nyxiesTemp.params256[0] = block.timestamp;\r\n        nyxiesTemp.egg = egg;\r\n        nyxiesTemp.params256[1] = tokenIdReproducable;\r\n\r\n        contrat.updateToken(nyxiesTemp,tokenId,msg.sender);\r\n    }\r\n\r\n    /*function purchaseAndTransfer(address contactAddr, uint256 tokenId,bool purchase) external payable {\r\n        TokenDelegable contrat = TokenDelegable(addressContract);\r\n        TokenDelegable.Nyxies memory nyxies =  contrat.getTokenDetails(tokenId);\r\n        require(msg.value >= nyxies.params256[1], \"Insufficient fonds sent\");\r\n        require(contrat.getOwnerOf(tokenId) != (purchase?msg.sender:contactAddr), \"Already Owned\");\r\n        uint256[] memory resultIndex = contrat.getAllTokensForUser(msg.sender);\r\n        require(resultIndex.length <= 1, \"Already have a nyxies\");\r\n        nyxies.inSell=false;\r\n        contrat.updateToken(nyxies,tokenId,msg.sender);\r\n        contrat.transfer((purchase?contactAddr:msg.sender), (purchase?msg.sender:contactAddr), tokenId);\r\n    }*/\r\n\r\n    function purchase(address contactAddr, uint256 tokenId) external payable {//vendre que des oeufs ou si adulte checker qu'ont a pas d'autre adulte\r\n        TokenDelegable contrat = TokenDelegable(addressContract);\r\n        TokenDelegable.Nyxies memory nyxie = contrat.getTokenDetails(tokenId);\r\n        require(msg.value >= nyxie.params256[1], \"Insufficient fonds sent\");\r\n        require(contrat.getOwnerOf(tokenId) != msg.sender, \"Already Owned\");\r\n        if(nyxie.egg == false){\r\n            uint256[] memory resultIndex = contrat.getAllTokensForUser(msg.sender);\r\n            bool alreadyHaveAdult = false;\r\n            uint256 i;\r\n            for(i = 0; i < resultIndex.length; i++){\r\n                //TokenDelegable.Nyxies memory nyxieOwned = contrat.getTokenDetails(resultIndex[i]);\r\n                if(contrat.getTokenDetails(resultIndex[i]).egg == false) alreadyHaveAdult = true;\r\n            }\r\n            require(alreadyHaveAdult == false, \"Already have a nyxies\");\r\n        }\r\n        nyxie.inSell=false;\r\n        contrat.updateToken(nyxie,tokenId,msg.sender);\r\n        contrat.transfer(contactAddr, msg.sender, tokenId);\r\n    }\r\n\r\n    function getAllTokensForUser(address user) external view returns (uint256[] memory){\r\n        TokenDelegable contrat = TokenDelegable(addressContract);\r\n        return contrat.getAllTokensForUser(user);\r\n    }\r\n\r\n    function getTokenDetails(uint256 tokenId) external view returns (TokenDelegable.Nyxies memory){\r\n        TokenDelegable contrat = TokenDelegable(addressContract);\r\n        return contrat.getTokenDetails(tokenId);\r\n    }\r\n\r\n    /*function reproduce( uint256 tokenIdOne, address senderInvit, uint256 tokenIdTwo) public {\r\n\r\n        TokenDelegable contrat = TokenDelegable(addressContract);\r\n        TokenDelegable.Nyxies memory nyxiesOne =  contrat.getTokenDetails(tokenIdOne);\r\n        TokenDelegable.Nyxies memory nyxiesTwo =  contrat.getTokenDetails(tokenIdTwo);\r\n\r\n        require(nyxiesOne.params256[0] != 0 && nyxiesTwo.params256[0] != 0,\"Nyxies not exist\");\r\n        require((tokenIdOne != nyxiesTwo.params256[3] && tokenIdOne != nyxiesTwo.params256[4] && tokenIdTwo != nyxiesOne.params256[3] && tokenIdOne != nyxiesOne.params256[4] && nyxiesOne.params256[4] != nyxiesTwo.params256[4] && nyxiesOne.params256[4] != nyxiesTwo.params256[3] && nyxiesOne.params256[3] != nyxiesTwo.params256[4] && nyxiesOne.params256[3] != nyxiesTwo.params256[3]) || (nyxiesTwo.params256[3] == 0 && nyxiesTwo.params256[4] == 0 && nyxiesOne.params256[3] == 0 && nyxiesOne.params256[4] == 0) ,\"Parently too close\");\r\n        require(nyxiesTwo.params256[2] == tokenIdOne && contrat.getOwnerOf(tokenIdOne) == msg.sender && contrat.getOwnerOf(tokenIdTwo) == senderInvit && nyxiesTwo.params256[5] < 3 && nyxiesOne.params256[5] < 3 ,\"Too many reproduce time\");\r\n\r\n        \r\n        uint8[] memory randomParts = new uint8[](6);\r\n        uint256[] memory randomParams = new uint256[](10);\r\n        randomParts[0] = random(2)==0?nyxiesOne.params8[0]:nyxiesTwo.params8[0];\r\n        randomParts[1] = random(2)==0?nyxiesOne.params8[1]:nyxiesTwo.params8[1];\r\n        randomParts[2] = random(2)==0?nyxiesOne.params8[2]:nyxiesTwo.params8[2];\r\n        randomParts[3] = random(2)==0?nyxiesOne.params8[3]:nyxiesTwo.params8[3];\r\n        randomParts[4] = random(2)==0?nyxiesOne.params8[4]:nyxiesTwo.params8[4];\r\n        randomParts[5] = random(2)==0?nyxiesOne.params8[5]:nyxiesTwo.params8[5];\r\n        randomParams[0] = block.timestamp;\r\n        randomParams[1] = (nyxiesOne.params256[1]+nyxiesTwo.params256[1])/2;\r\n        randomParams[2] = 0;//idreproduce\r\n        randomParams[3] = tokenIdOne;//mother\r\n        randomParams[4] = tokenIdTwo;//father\r\n        randomParams[5] = 0;//nbrreproduce\r\n        randomParams[6] = paramsContract[\"nextId\"];//tokenId\r\n        randomParams[7] = 3;//type\r\n\r\n        \r\n        contrat.mint(msg.sender, randomParts, randomParams);\r\n        paramsContract[\"nextId\"]++;\r\n        randomParts[0] = random(2)==0?nyxiesOne.params8[0]:nyxiesTwo.params8[0];\r\n        randomParts[1] = random(2)==0?nyxiesOne.params8[1]:nyxiesTwo.params8[1];\r\n        randomParts[2] = random(2)==0?nyxiesOne.params8[2]:nyxiesTwo.params8[2];\r\n        randomParts[3] = random(2)==0?nyxiesOne.params8[3]:nyxiesTwo.params8[3];\r\n        randomParts[4] = random(2)==0?nyxiesOne.params8[4]:nyxiesTwo.params8[4];\r\n        randomParts[5] = random(2)==0?nyxiesOne.params8[5]:nyxiesTwo.params8[5];\r\n        randomParams[6] = paramsContract[\"nextId\"];//tokenId\r\n        contrat.mint(senderInvit, randomParts, randomParams);\r\n        paramsContract[\"nextId\"]++;\r\n        \r\n        nyxiesOne.params256[5]++;\r\n        nyxiesTwo.params256[5]++;\r\n        nyxiesTwo.params256[1] = 0;\r\n        \r\n        contrat.updateToken(nyxiesOne,tokenIdOne,msg.sender);\r\n        contrat.updateToken(nyxiesTwo,tokenIdTwo,senderInvit);\r\n    }*/\r\n\r\n    function random(uint8 maxNumber) public returns (uint8) {\r\n        uint256 randomnumber = uint256(keccak256(abi.encodePacked(block.timestamp, msg.sender, paramsContract[\"nonce\"]))) % maxNumber;\r\n        randomnumber = randomnumber ;\r\n        paramsContract[\"nonce\"]++;\r\n        return uint8(randomnumber);\r\n    }\r\n\r\n    /*FUNDS*/\r\n\r\n    function withdraw() public onlyOwner {\r\n        payable(msg.sender).transfer(address(this).balance);\r\n    }\r\n\r\n    function deposit(uint256 amount) payable public onlyOwner {\r\n        require(msg.value == amount);\r\n    }\r\n\r\n    function getBalance() public view returns (uint256)  {\r\n        return address(this).balance;\r\n    }\r\n\r\n}\r\n\r\n\r\n\r\n\r\n\r\n\r\n\r\n\r\n\r\n\r\ncontract TokenDelegable is ERC721Enumerable, Ownable{\r\n    using Strings for uint256;\r\n    \r\n    struct  Nyxies {\r\n        bool inSell;\r\n        bool egg;\r\n        uint8[] params8;//parts \r\n        uint256[] params256;//params\r\n    }\r\n\r\n    address adressDelegateContract;\r\n    mapping( string => uint ) paramsContract;\r\n    mapping( uint256 => Nyxies ) private _tokenDetails;\r\n    string public baseURI;\r\n    string public baseExtension = \".json\";\r\n    bool public paused = false;\r\n\r\n    constructor(string memory name, string memory symbol, string memory _initBaseURI) ERC721(name, symbol){\r\n        paramsContract[\"nextId\"] = 0;\r\n        paramsContract[\"nbrNyxies\"] = 0;\r\n        setBaseURI(_initBaseURI);\r\n    }\r\n\r\n    function _baseURI() internal view virtual override returns (string memory) {\r\n        return baseURI;\r\n    }\r\n\r\n     function setBaseURI(string memory _newBaseURI) public onlyOwner {\r\n        baseURI = _newBaseURI;\r\n    }\r\n\r\n    function tokenURI(uint256 tokenId) public view virtual override returns (string memory) {\r\n        require( _exists(tokenId), \"ERC721Metadata: URI query for nonexistent token\" );\r\n        string memory currentBaseURI = _baseURI();\r\n        return bytes(currentBaseURI).length > 0 ? string(abi.encodePacked(currentBaseURI, tokenId.toString(), baseExtension)) : \"\";\r\n    }\r\n\r\n    modifier byDelegate() {\r\n        require(msg.sender == adressDelegateContract,\"Not good delegate contract\");\r\n        _;\r\n    }\r\n\r\n    function pause(bool _state) public onlyOwner {\r\n        paused = _state;\r\n    }\r\n\r\n    function mint(address sender, uint8[] memory params8, uint256[] memory params256) external payable {\r\n        _tokenDetails[paramsContract[\"nextId\"]] = Nyxies(false,true,params8,params256);\r\n        _safeMint(sender, paramsContract[\"nextId\"]);\r\n        paramsContract[\"nextId\"]++;\r\n        paramsContract[\"nbrNyxies\"]++;\r\n    }\r\n    \r\n    function burn(uint256 tokenId) public byDelegate {\r\n        _burn(tokenId);\r\n        paramsContract[\"nbrNyxies\"]--;\r\n    }\r\n\r\n    function transfer(address from, address to ,uint256 tokenId) external byDelegate {\r\n        _safeTransfer(from, to, tokenId, \"\");\r\n    }\r\n\r\n    function getTokenDetails(uint256 tokenId) external view returns (Nyxies memory){\r\n        return _tokenDetails[tokenId];\r\n    }\r\n\r\n    function getAllTokensForUser(address user) external view returns (uint256[] memory){\r\n        uint256 tokenCount = balanceOf(user);\r\n        if(tokenCount == 0){\r\n            return new uint256[](0);\r\n        }\r\n        else{\r\n            uint[] memory result = new uint256[](tokenCount);\r\n            uint256 totalNyxiess = paramsContract[\"nextId\"];\r\n            uint256 resultIndex = 0;\r\n            uint256 i;\r\n            for(i = 0; i < totalNyxiess; i++){\r\n                if(ownerOf(i) == user){\r\n                    result[resultIndex] = i;\r\n                    resultIndex++;\r\n                }\r\n            }\r\n            return result;\r\n        }\r\n    }\r\n\r\n    function getOwnerOf(uint256 tokenId) external view returns (address) {\r\n        return ownerOf(tokenId);\r\n    }\r\n\r\n    function getBalanceOf(address user) external view returns (uint) {\r\n        return balanceOf(user);\r\n    }\r\n\r\n    function updateToken(Nyxies memory nyxiesTemp,uint256 tokenId,address owner) external byDelegate {\r\n        require(ownerOf(tokenId) == owner,\"Not Your nyxies\");\r\n        _tokenDetails[tokenId] = nyxiesTemp;\r\n    }\r\n\r\n    function setParamsContract(string memory keyParams, uint valueParams) external onlyOwner {\r\n        paramsContract[keyParams] = valueParams;\r\n    }\r\n\r\n    function getParamsContract(string memory keyParams) external view returns (uint){\r\n        return paramsContract[keyParams];\r\n    }\r\n\r\n    function setAdressDelegateContract(address _adress) external onlyOwner {\r\n        adressDelegateContract = _adress;\r\n    }\r\n\r\n}\r\n",
  "sourcePath": "C:\\laragon\\www\\nftWithFlo\\contracts\\TokenDelegable.sol",
  "compiler": {
    "name": "solc",
    "version": "0.8.0+commit.c7dfd78e.Emscripten.clang"
  },
  "schemaVersion": "3.4.4",
  "updatedAt": "2022-01-26T21:59:59.788Z",
  "networkType": "ethereum",
  "devdoc": {
    "kind": "dev",
    "methods": {
      "owner()": {
        "details": "Returns the address of the current owner."
      },
      "renounceOwnership()": {
        "details": "Leaves the contract without owner. It will not be possible to call `onlyOwner` functions anymore. Can only be called by the current owner. NOTE: Renouncing ownership will leave the contract without an owner, thereby removing any functionality that is only available to the owner."
      },
      "transferOwnership(address)": {
        "details": "Transfers ownership of the contract to a new account (`newOwner`). Can only be called by the current owner."
      }
    },
    "version": 1
  },
  "userdoc": {
    "kind": "user",
    "methods": {},
    "version": 1
  }
}