{
  "contractName": "DelegateContract",
  "abi": [
    {
      "inputs": [
        {
          "internalType": "address",
          "name": "_addressHero",
          "type": "address"
        },
        {
          "internalType": "address",
          "name": "_addressQuest",
          "type": "address"
        },
        {
          "internalType": "address",
          "name": "_addressClass",
          "type": "address"
        },
        {
          "internalType": "address",
          "name": "_addressItem",
          "type": "address"
        }
      ],
      "stateMutability": "nonpayable",
      "type": "constructor"
    },
    {
      "inputs": [
        {
          "internalType": "address",
          "name": "from",
          "type": "address"
        },
        {
          "internalType": "address",
          "name": "addressGuild",
          "type": "address"
        }
      ],
      "name": "AlreadyHaveGuild",
      "type": "error"
    },
    {
      "inputs": [
        {
          "internalType": "address",
          "name": "sender",
          "type": "address"
        },
        {
          "internalType": "uint256",
          "name": "questId",
          "type": "uint256"
        },
        {
          "internalType": "uint256",
          "name": "currentQuestId",
          "type": "uint256"
        },
        {
          "internalType": "uint256",
          "name": "tokenId",
          "type": "uint256"
        }
      ],
      "name": "AlreadyInQuest",
      "type": "error"
    },
    {
      "inputs": [
        {
          "internalType": "address",
          "name": "from",
          "type": "address"
        },
        {
          "internalType": "address",
          "name": "addressGuild",
          "type": "address"
        }
      ],
      "name": "GuildNotExist",
      "type": "error"
    },
    {
      "inputs": [
        {
          "internalType": "uint256",
          "name": "balance",
          "type": "uint256"
        },
        {
          "internalType": "address",
          "name": "sender",
          "type": "address"
        },
        {
          "internalType": "uint256",
          "name": "quantity",
          "type": "uint256"
        },
        {
          "internalType": "uint256",
          "name": "tokenId",
          "type": "uint256"
        }
      ],
      "name": "NoMoreBalanceToken",
      "type": "error"
    },
    {
      "inputs": [
        {
          "internalType": "uint256",
          "name": "supply",
          "type": "uint256"
        },
        {
          "internalType": "uint256",
          "name": "quantity",
          "type": "uint256"
        },
        {
          "internalType": "uint256",
          "name": "tokenId",
          "type": "uint256"
        }
      ],
      "name": "NoMoreSupplyToken",
      "type": "error"
    },
    {
      "inputs": [
        {
          "internalType": "uint256",
          "name": "statToLvlUp",
          "type": "uint256"
        },
        {
          "internalType": "uint256",
          "name": "tokenId",
          "type": "uint256"
        }
      ],
      "name": "NotAStat",
      "type": "error"
    },
    {
      "inputs": [
        {
          "internalType": "uint256",
          "name": "price",
          "type": "uint256"
        },
        {
          "internalType": "uint256",
          "name": "weiSended",
          "type": "uint256"
        },
        {
          "internalType": "uint256",
          "name": "tokenId",
          "type": "uint256"
        },
        {
          "internalType": "uint256",
          "name": "quantity",
          "type": "uint256"
        }
      ],
      "name": "NotEnoughEth",
      "type": "error"
    },
    {
      "inputs": [
        {
          "internalType": "uint256",
          "name": "price",
          "type": "uint256"
        },
        {
          "internalType": "uint256",
          "name": "weiSended",
          "type": "uint256"
        }
      ],
      "name": "NotEnoughEthHero",
      "type": "error"
    },
    {
      "inputs": [
        {
          "internalType": "uint256",
          "name": "experienceHero",
          "type": "uint256"
        },
        {
          "internalType": "uint256",
          "name": "experienceNeeded",
          "type": "uint256"
        },
        {
          "internalType": "uint256",
          "name": "tokenId",
          "type": "uint256"
        }
      ],
      "name": "NotEnoughExperience",
      "type": "error"
    },
    {
      "inputs": [
        {
          "internalType": "uint256",
          "name": "tokenLimit",
          "type": "uint256"
        },
        {
          "internalType": "uint256",
          "name": "nextTokenIdToMint",
          "type": "uint256"
        }
      ],
      "name": "NotRemainingHero",
      "type": "error"
    },
    {
      "inputs": [
        {
          "internalType": "address",
          "name": "sender",
          "type": "address"
        },
        {
          "internalType": "address",
          "name": "ownerOfToken",
          "type": "address"
        },
        {
          "internalType": "uint256",
          "name": "tokenId",
          "type": "uint256"
        }
      ],
      "name": "NotYourToken",
      "type": "error"
    },
    {
      "inputs": [
        {
          "internalType": "uint256",
          "name": "blockTimestamp",
          "type": "uint256"
        },
        {
          "internalType": "uint256",
          "name": "heroQuestTime",
          "type": "uint256"
        },
        {
          "internalType": "uint256",
          "name": "currentQuestTime",
          "type": "uint256"
        },
        {
          "internalType": "uint256",
          "name": "tokenId",
          "type": "uint256"
        }
      ],
      "name": "QuestNotFinished",
      "type": "error"
    },
    {
      "inputs": [
        {
          "internalType": "address",
          "name": "to",
          "type": "address"
        },
        {
          "internalType": "uint256",
          "name": "value",
          "type": "uint256"
        }
      ],
      "name": "SellItemSendEth",
      "type": "error"
    },
    {
      "inputs": [
        {
          "internalType": "uint256",
          "name": "balance",
          "type": "uint256"
        },
        {
          "internalType": "address",
          "name": "sender",
          "type": "address"
        },
        {
          "internalType": "uint256",
          "name": "quantity",
          "type": "uint256"
        },
        {
          "internalType": "uint256",
          "name": "tokenId",
          "type": "uint256"
        }
      ],
      "name": "ZeroQuantityConvertAvailable",
      "type": "error"
    },
    {
      "anonymous": false,
      "inputs": [
        {
          "indexed": true,
          "internalType": "address",
          "name": "previousOwner",
          "type": "address"
        },
        {
          "indexed": true,
          "internalType": "address",
          "name": "newOwner",
          "type": "address"
        }
      ],
      "name": "OwnershipTransferred",
      "type": "event"
    },
    {
      "inputs": [],
      "name": "owner",
      "outputs": [
        {
          "internalType": "address",
          "name": "",
          "type": "address"
        }
      ],
      "stateMutability": "view",
      "type": "function"
    },
    {
      "inputs": [
        {
          "internalType": "string",
          "name": "",
          "type": "string"
        }
      ],
      "name": "paramsContract",
      "outputs": [
        {
          "internalType": "uint256",
          "name": "",
          "type": "uint256"
        }
      ],
      "stateMutability": "view",
      "type": "function"
    },
    {
      "inputs": [],
      "name": "renounceOwnership",
      "outputs": [],
      "stateMutability": "nonpayable",
      "type": "function"
    },
    {
      "inputs": [
        {
          "internalType": "address",
          "name": "newOwner",
          "type": "address"
        }
      ],
      "name": "transferOwnership",
      "outputs": [],
      "stateMutability": "nonpayable",
      "type": "function"
    },
    {
      "inputs": [
        {
          "internalType": "address",
          "name": "from",
          "type": "address"
        },
        {
          "internalType": "string",
          "name": "name",
          "type": "string"
        },
        {
          "internalType": "string",
          "name": "symbol",
          "type": "string"
        }
      ],
      "name": "createGuild",
      "outputs": [],
      "stateMutability": "nonpayable",
      "type": "function"
    },
    {
      "inputs": [
        {
          "internalType": "address",
          "name": "from",
          "type": "address"
        }
      ],
      "name": "getOneGuildAddress",
      "outputs": [
        {
          "internalType": "address",
          "name": "",
          "type": "address"
        }
      ],
      "stateMutability": "view",
      "type": "function"
    },
    {
      "inputs": [],
      "name": "getAddressesGuilds",
      "outputs": [
        {
          "internalType": "address[]",
          "name": "",
          "type": "address[]"
        }
      ],
      "stateMutability": "view",
      "type": "function"
    },
    {
      "inputs": [
        {
          "internalType": "string",
          "name": "key",
          "type": "string"
        },
        {
          "internalType": "uint256",
          "name": "value",
          "type": "uint256"
        }
      ],
      "name": "setParamsContract",
      "outputs": [],
      "stateMutability": "nonpayable",
      "type": "function"
    },
    {
      "inputs": [
        {
          "internalType": "string",
          "name": "key",
          "type": "string"
        }
      ],
      "name": "getParamsContract",
      "outputs": [
        {
          "internalType": "uint256",
          "name": "",
          "type": "uint256"
        }
      ],
      "stateMutability": "view",
      "type": "function"
    },
    {
      "inputs": [
        {
          "internalType": "uint256",
          "name": "quantity",
          "type": "uint256"
        },
        {
          "internalType": "address",
          "name": "receiver",
          "type": "address"
        },
        {
          "internalType": "uint256",
          "name": "tokenId",
          "type": "uint256"
        }
      ],
      "name": "buyItem",
      "outputs": [],
      "stateMutability": "payable",
      "type": "function"
    },
    {
      "inputs": [
        {
          "internalType": "uint256",
          "name": "quantity",
          "type": "uint256"
        },
        {
          "internalType": "uint256",
          "name": "tokenId",
          "type": "uint256"
        }
      ],
      "name": "sellItem",
      "outputs": [],
      "stateMutability": "nonpayable",
      "type": "function"
    },
    {
      "inputs": [
        {
          "internalType": "address",
          "name": "receiver",
          "type": "address"
        },
        {
          "internalType": "uint256",
          "name": "quantity",
          "type": "uint256"
        },
        {
          "internalType": "uint256",
          "name": "fromTokenId",
          "type": "uint256"
        },
        {
          "internalType": "uint256",
          "name": "toTokenId",
          "type": "uint256"
        }
      ],
      "name": "convertToAnotherToken",
      "outputs": [],
      "stateMutability": "nonpayable",
      "type": "function"
    },
    {
      "inputs": [
        {
          "internalType": "uint8",
          "name": "generation",
          "type": "uint8"
        },
        {
          "internalType": "uint8",
          "name": "peuple",
          "type": "uint8"
        },
        {
          "internalType": "string",
          "name": "_tokenUri",
          "type": "string"
        }
      ],
      "name": "mintHero",
      "outputs": [],
      "stateMutability": "payable",
      "type": "function"
    },
    {
      "inputs": [
        {
          "internalType": "uint256",
          "name": "tokenId",
          "type": "uint256"
        },
        {
          "internalType": "uint256",
          "name": "questId",
          "type": "uint256"
        }
      ],
      "name": "startQuest",
      "outputs": [],
      "stateMutability": "nonpayable",
      "type": "function"
    },
    {
      "inputs": [
        {
          "internalType": "uint256",
          "name": "tokenId",
          "type": "uint256"
        }
      ],
      "name": "completeQuest",
      "outputs": [],
      "stateMutability": "nonpayable",
      "type": "function"
    },
    {
      "inputs": [
        {
          "internalType": "uint8",
          "name": "statToLvlUp",
          "type": "uint8"
        },
        {
          "internalType": "uint256",
          "name": "tokenId",
          "type": "uint256"
        }
      ],
      "name": "levelUp",
      "outputs": [],
      "stateMutability": "nonpayable",
      "type": "function"
    },
    {
      "inputs": [],
      "name": "withdraw",
      "outputs": [],
      "stateMutability": "nonpayable",
      "type": "function"
    },
    {
      "inputs": [],
      "name": "test",
      "outputs": [
        {
          "internalType": "uint256",
          "name": "",
          "type": "uint256"
        }
      ],
      "stateMutability": "view",
      "type": "function"
    }
  ],
  "bytecode": "0x60806040523480156200001157600080fd5b506040516200619538038062006195833981016040819052620000349162000274565b6200003f3362000207565b600180546001600160a01b038087166001600160a01b031992831681179093556002805487831690841617905560038054868316908416179055600480549185169190921617815560405163f26bf0b760e01b815263f26bf0b791620000cb91016020808252601190820152701b995e1d151bdad95b9259151bd35a5b9d607a1b604082015260600190565b602060405180830381865afa158015620000e9573d6000803e3d6000fd5b505050506040513d601f19601f820116820180604052508101906200010f9190620002d1565b60408051701b995e1d151bdad95b9259151bd35a5b9d607a1b815260056011820181905282519182900360310182209390935564707269636560d81b81528083018390528151908190036025908101822067016345785d8a00009055671d1bdd185b141b9d60c21b8252600882018490528251918290036028018220849055691d1bdad95b931a5b5a5d60b21b8252600a8201849052825191829003602a0182206127109055646e6f6e636560d81b8252818401849052825191829003018120600090556c0657870466f724c6576656c557609c1b8152600d8101929092525190819003602d0190206064905550620002eb92505050565b600080546001600160a01b038381166001600160a01b0319831681178455604051919092169283917f8be0079c531659141344cd1fd0a4f28419497f9722a3daafe3b4186f6b6457e09190a35050565b80516001600160a01b03811681146200026f57600080fd5b919050565b600080600080608085870312156200028b57600080fd5b620002968562000257565b9350620002a66020860162000257565b9250620002b66040860162000257565b9150620002c66060860162000257565b905092959194509250565b600060208284031215620002e457600080fd5b5051919050565b615e9a80620002fb6000396000f3fe6080604052600436106200011f5760003560e01c8063715018a611620000a1578063c3c33b40116200006c578063c3c33b40146200031f578063f26bf0b71462000344578063f2fde38b1462000369578063f8a8fd6d146200038e578063fa84413a14620003a657600080fd5b8063715018a614620002975780638da5cb5b14620002af578063ac56c43d14620002e3578063b77f02e814620002fa57600080fd5b80633ccfd60b11620000ee5780633ccfd60b14620001ba57806348c6309d14620001d2578063528be0a91462000202578063586e2ee414620002275780635f9d45d8146200024c57600080fd5b806308585fe414620001245780630b275db4146200014b5780632d92356114620001705780633cb119441462000195575b600080fd5b3480156200013157600080fd5b50620001496200014336600462002902565b620003bd565b005b3480156200015857600080fd5b50620001496200016a36600462002950565b620008d0565b3480156200017d57600080fd5b50620001496200018f3660046200297f565b62000d01565b348015620001a257600080fd5b5062000149620001b4366004620029ed565b620010e2565b348015620001c757600080fd5b506200014962001116565b348015620001df57600080fd5b50620001ea62001150565b604051620001f9919062002a3c565b60405180910390f35b3480156200020f57600080fd5b50620001496200022136600462002a8b565b6200124a565b3480156200023457600080fd5b50620001496200024636600462002aa5565b62001863565b3480156200025957600080fd5b50620002886200026b36600462002c18565b805160208183018101805160058252928201919093012091525481565b604051908152602001620001f9565b348015620002a457600080fd5b50620001496200199c565b348015620002bc57600080fd5b506000546001600160a01b03165b6040516001600160a01b039091168152602001620001f9565b62000149620002f436600462002c9f565b620019b4565b3480156200030757600080fd5b50620002ca6200031936600462002cda565b62001af8565b3480156200032c57600080fd5b50620001496200033e3660046200297f565b62001b7a565b3480156200035157600080fd5b50620002886200036336600462002cfa565b62001e3c565b3480156200037657600080fd5b50620001496200038836600462002cda565b62001e6a565b3480156200039b57600080fd5b506200028862001ee6565b62000149620003b736600462002d3f565b62001f11565b60048054604051630398026560e51b81529182018490526001600160a01b03169060009082906373004ca090602401600060405180830381865afa1580156200040a573d6000803e3d6000fd5b505050506040513d6000823e601f3d908101601f1916820160405262000434919081019062002e38565b604051630398026560e51b8152600481018590529091506000906001600160a01b038416906373004ca090602401600060405180830381865afa15801562000480573d6000803e3d6000fd5b505050506040513d6000823e601f3d908101601f19168201604052620004aa919081019062002e38565b60405163f77ee79d60e01b81526004810187905290915086906001600160a01b0385169063f77ee79d90602401602060405180830381865afa158015620004f5573d6000803e3d6000fd5b505050506040513d601f19601f820116820180604052508101906200051b919062002eea565b1015620005be5760405163f77ee79d60e01b8152600481018690526001600160a01b0384169063f77ee79d90602401602060405180830381865afa15801562000568573d6000803e3d6000fd5b505050506040513d601f19601f820116820180604052508101906200058e919062002eea565b604051633dd4346360e21b8152600481019190915260248101879052604481018690526064015b60405180910390fd5b856001600160a01b03841662fdd58e336040516001600160e01b031960e084901b1681526001600160a01b03909116600482015260248101899052604401602060405180830381865afa1580156200061a573d6000803e3d6000fd5b505050506040513d601f19601f8201168201806040525081019062000640919062002eea565b1015620006fa576001600160a01b03831662fdd58e336040516001600160e01b031960e084901b1681526001600160a01b03909116600482015260248101889052604401602060405180830381865afa158015620006a2573d6000803e3d6000fd5b505050506040513d601f19601f82011682018060405250810190620006c8919062002eea565b60405163700acb1960e11b815260048101919091523360248201526044810187905260648101869052608401620005b5565b60006200073c629896806200072e896200073586604001516200072e629896808a604001516200219690919063ffffffff16565b90620021ab565b9062002196565b905060008111620007fa576001600160a01b03841662fdd58e336040516001600160e01b031960e084901b1681526001600160a01b03909116600482015260248101899052604401602060405180830381865afa158015620007a2573d6000803e3d6000fd5b505050506040513d601f19601f82011682018060405250810190620007c8919062002eea565b604051631eeefc3f60e11b815260048101919091523360248201526044810188905260648101869052608401620005b5565b604051637a94c56560e11b81526001600160a01b0385169063f5298aca906200082c9033908a908c9060040162002f04565b600060405180830381600087803b1580156200084757600080fd5b505af11580156200085c573d6000803e3d6000fd5b5050604051630ab714fb60e11b81526001600160a01b038716925063156e29f6915062000892908b908990869060040162002f04565b600060405180830381600087803b158015620008ad57600080fd5b505af1158015620008c2573d6000803e3d6000fd5b505050505050505050505050565b60015481906001600160a01b0316336040516331a9108f60e11b8152600481018490526001600160a01b0391821691831690636352211e90602401602060405180830381865afa15801562000929573d6000803e3d6000fd5b505050506040513d601f19601f820116820180604052508101906200094f919062002f25565b6001600160a01b03161462000a0057335b6040516331a9108f60e11b8152600481018490526001600160a01b03831690636352211e90602401602060405180830381865afa158015620009a6573d6000803e3d6000fd5b505050506040513d601f19601f82011682018060405250810190620009cc919062002f25565b6040516365165d8160e11b81526001600160a01b0392831660048201529116602482015260448101839052606401620005b5565b60015460405163183c06e560e31b8152600481018590526001600160a01b0390911690600090829063c1e0372890602401600060405180830381865afa15801562000a4f573d6000803e3d6000fd5b505050506040513d6000823e601f3d908101601f1916820160405262000a79919081019062002ff0565b9050806020015160098151811062000a955762000a95620030e8565b6020026020010151600560405162000ac0906c0657870466f724c6576656c557609c1b8152600d0190565b90815260200160405180910390205462000adb919062003211565b62000ae89060646200321f565b816020015160088151811062000b025762000b02620030e8565b60200260200101511162000bc957806020015160088151811062000b2a5762000b2a620030e8565b6020026020010151816020015160098151811062000b4c5762000b4c620030e8565b6020026020010151600560405162000b77906c0657870466f724c6576656c557609c1b8152600d0190565b90815260200160405180910390205462000b92919062003211565b62000b9f9060646200321f565b60405163c2f02ac960e01b81526004810192909252602482015260448101869052606401620005b5565b60058660ff16111562000bfc57604051632f62314360e11b815260ff8716600482015260248101869052604401620005b5565b8051805160ff881690811062000c165762000c16620030e8565b60200260200101805180919062000c2d906200323a565b60ff1660ff16815250506000816020015160088151811062000c535762000c53620030e8565b602002602001018181525050806020015160098151811062000c795762000c79620030e8565b60200260200101805180919062000c90906200325d565b9052506040516338bd885760e21b81526001600160a01b0383169063e2f6215c9062000cc590849089903390600401620032ed565b600060405180830381600087803b15801562000ce057600080fd5b505af115801562000cf5573d6000803e3d6000fd5b50505050505050505050565b60048054604051630398026560e51b81529182018390526001600160a01b03169060009082906373004ca090602401600060405180830381865afa15801562000d4e573d6000803e3d6000fd5b505050506040513d6000823e601f3d908101601f1916820160405262000d78919081019062002e38565b60405163f77ee79d60e01b81526004810185905290915084906001600160a01b0384169063f77ee79d90602401602060405180830381865afa15801562000dc3573d6000803e3d6000fd5b505050506040513d601f19601f8201168201806040525081019062000de9919062002eea565b101562000e885760405163f77ee79d60e01b8152600481018490526001600160a01b0383169063f77ee79d90602401602060405180830381865afa15801562000e36573d6000803e3d6000fd5b505050506040513d601f19601f8201168201806040525081019062000e5c919062002eea565b604051633dd4346360e21b815260048101919091526024810185905260448101849052606401620005b5565b836001600160a01b03831662fdd58e336040516001600160e01b031960e084901b1681526001600160a01b03909116600482015260248101879052604401602060405180830381865afa15801562000ee4573d6000803e3d6000fd5b505050506040513d601f19601f8201168201806040525081019062000f0a919062002eea565b101562000fc4576001600160a01b03821662fdd58e336040516001600160e01b031960e084901b1681526001600160a01b03909116600482015260248101869052604401602060405180830381865afa15801562000f6c573d6000803e3d6000fd5b505050506040513d601f19601f8201168201806040525081019062000f92919062002eea565b60405163700acb1960e11b815260048101919091523360248201526044810185905260648101849052608401620005b5565b604051637a94c56560e11b81526001600160a01b0383169063f5298aca9062000ff69033908790899060040162002f04565b600060405180830381600087803b1580156200101157600080fd5b505af115801562001026573d6000803e3d6000fd5b505050506000620010343390565b6001600160a01b03168583604001516200104f91906200334c565b604051600081818185875af1925050503d80600081146200108d576040519150601f19603f3d011682016040523d82523d6000602084013e62001092565b606091505b509091505080620010db5733858360400151620010b091906200334c565b60405163723403cf60e01b81526001600160a01b0390921660048301526024820152604401620005b5565b5050505050565b620010ec620021b9565b8060058484604051620011019291906200336e565b90815260405190819003602001902055505050565b62001120620021b9565b60405133904780156108fc02916000818181858888f193505050501580156200114d573d6000803e3d6000fd5b50565b60085460609060009060ff166001600160401b0381111562001176576200117662002b30565b604051908082528060200260200182016040528015620011a0578160200160208202803683370190505b5090506000805b60085460ff1681101562001242576000818152600760205260409020546001600160a01b0316156200122d5760008181526007602052604090205483516001600160a01b0390911690849084908110620012055762001205620030e8565b6001600160a01b03909216602092830291909101909101528162001229816200325d565b9250505b8062001239816200325d565b915050620011a7565b509092915050565b60015481906001600160a01b0316336040516331a9108f60e11b8152600481018490526001600160a01b0391821691831690636352211e90602401602060405180830381865afa158015620012a3573d6000803e3d6000fd5b505050506040513d601f19601f82011682018060405250810190620012c9919062002f25565b6001600160a01b031614620012df573362000960565b60015460405163183c06e560e31b8152600481018590526001600160a01b0390911690600090829063c1e0372890602401600060405180830381865afa1580156200132e573d6000803e3d6000fd5b505050506040513d6000823e601f3d908101601f1916820160405262001358919081019062002ff0565b600254602082015180519293506001600160a01b0390911691600091839163b0f929b091906003908110620013915762001391620030e8565b60200260200101516040518263ffffffff1660e01b8152600401620013b891815260200190565b600060405180830381865afa158015620013d6573d6000803e3d6000fd5b505050506040513d6000823e601f3d908101601f1916820160405262001400919081019062003391565b90508060a001518360200151600281518110620014215762001421620030e8565b60200260200101514262001436919062003479565b116200149957428360200151600281518110620014575762001457620030e8565b60200260200101518260a001518960405163250ebb6160e21b8152600401620005b5949392919093845260208401929092526040830152606082015260800190565b6000805b8260400151518160ff16101562001577578451805160ff8316908110620014c857620014c8620030e8565b602002602001015160ff1683604001518260ff1681518110620014ef57620014ef620030e8565b602002602001015160ff16111562001562578451805160ff83169081106200151b576200151b620030e8565b602002602001015183604001518260ff16815181106200153f576200153f620030e8565b602002602001015162001553919062003493565b6200155f9083620034b9565b91505b806200156e816200323a565b9150506200149d565b506000620015916200158b83606462003493565b62002215565b60ff169050808560200151600781518110620015b157620015b1620030e8565b602002602001018181525050826020015160ff168111156200177b5760018560200151600681518110620015e957620015e9620030e8565b602002602001018181525050836001600160a01b0316636827822e6040518163ffffffff1660e01b8152600401602060405180830381865afa15801562001634573d6000803e3d6000fd5b505050506040513d601f19601f820116820180604052508101906200165a9190620034e1565b83516200166b9160ff169062003501565b61ffff168560200151600881518110620016895762001689620030e8565b602002602001018181516200169f91906200321f565b9052506004546001600160a01b031660005b84606001515181101562001773576001600160a01b03821663156e29f63387606001518481518110620016e857620016e8620030e8565b60209081029190910101516040516001600160e01b031960e085901b1681526001600160a01b03909216600483015260ff16602482015260016044820152606401600060405180830381600087803b1580156200174457600080fd5b505af115801562001759573d6000803e3d6000fd5b5050505080806200176a906200325d565b915050620016b1565b5050620017a4565b60008560200151600681518110620017975762001797620030e8565b6020026020010181815250505b428560200151600281518110620017bf57620017bf620030e8565b60200260200101818152505060008560200151600481518110620017e757620017e7620030e8565b60209081029190910101526040516338bd885760e21b81526001600160a01b0387169063e2f6215c90620018249088908d903390600401620032ed565b600060405180830381600087803b1580156200183f57600080fd5b505af115801562001854573d6000803e3d6000fd5b50505050505050505050505050565b6001600160a01b038581166000908152600660205260409020541615620018c5576001600160a01b038581166000818152600660205260409081902054905163ce4571ef60e01b815260048101929092529091166024820152604401620005b5565b83838383336000546001600160a01b031660085460405160ff90911690620018ed90620028de565b620018ff979695949392919062003557565b604051809103906000f0801580156200191c573d6000803e3d6000fd5b506001600160a01b0380871660008181526006602090815260408083208054969095166001600160a01b0319968716179094556008805460ff908116845260079092529382208054909516909217909355815416916200197c836200323a565b91906101000a81548160ff021916908360ff160217905550505050505050565b620019a6620021b9565b620019b2600062002225565b565b60048054604051630398026560e51b81529182018390526001600160a01b03169060009082906373004ca090602401600060405180830381865afa15801562001a01573d6000803e3d6000fd5b505050506040513d6000823e601f3d908101601f1916820160405262001a2b919081019062002e38565b905084816040015162001a3f91906200334c565b34101562001a8b5784816040015162001a5991906200334c565b60405163c1a311cf60e01b815260048101919091523460248201526044810184905260648101869052608401620005b5565b604051630ab714fb60e11b81526001600160a01b0383169063156e29f69062001abd90879087908a9060040162002f04565b600060405180830381600087803b15801562001ad857600080fd5b505af115801562001aed573d6000803e3d6000fd5b505050505050505050565b6001600160a01b0381811660009081526006602052604081205490911662001b5b576001600160a01b038281166000818152600660205260409081902054905163629818cb60e01b815260048101929092529091166024820152604401620005b5565b506001600160a01b039081166000908152600660205260409020541690565b60015482906001600160a01b0316336040516331a9108f60e11b8152600481018490526001600160a01b0391821691831690636352211e90602401602060405180830381865afa15801562001bd3573d6000803e3d6000fd5b505050506040513d601f19601f8201168201806040525081019062001bf9919062002f25565b6001600160a01b03161462001c0f573362000960565b600154600254604051630b0f929b60e41b8152600481018690526001600160a01b039283169290911690600090829063b0f929b090602401600060405180830381865afa15801562001c65573d6000803e3d6000fd5b505050506040513d6000823e601f3d908101601f1916820160405262001c8f919081019062003391565b60405163183c06e560e31b8152600481018990529091506000906001600160a01b0385169063c1e0372890602401600060405180830381865afa15801562001cdb573d6000803e3d6000fd5b505050506040513d6000823e601f3d908101601f1916820160405262001d05919081019062002ff0565b9050806020015160048151811062001d215762001d21620030e8565b602002602001015160001462001d92573387826020015160048151811062001d4d5762001d4d620030e8565b602090810291909101015160405163c9913a8d60e01b81526001600160a01b0390931660048401526024830191909152604482015260648101899052608401620005b5565b42816020015160028151811062001dad5762001dad620030e8565b60200260200101818152505086816020015160038151811062001dd45762001dd4620030e8565b6020026020010181815250508160a00151816020015160048151811062001dff5762001dff620030e8565b60209081029190910101526040516338bd885760e21b81526001600160a01b0385169063e2f6215c90620008929084908c903390600401620032ed565b60006005838360405162001e529291906200336e565b90815260200160405180910390205490505b92915050565b62001e74620021b9565b6001600160a01b03811662001edb5760405162461bcd60e51b815260206004820152602660248201527f4f776e61626c653a206e6577206f776e657220697320746865207a65726f206160448201526564647265737360d01b6064820152608401620005b5565b6200114d8162002225565b600060066010600d62001f09629896806200072e84620007358583898662002196565b935050505090565b60405164707269636560d81b8152600590810190815260200160405180910390205434101562001f785760405162461bcd60e51b8152602060048201526011602482015270135bdc9948115512081c995c5d5a5c9959607a1b6044820152606401620005b5565b60405164707269636560d81b8152600590810190815260200160405180910390205434101562001fe25760405164707269636560d81b815260059081019081526040519081900360200181205462a184d760e21b82526004820152346024820152604401620005b5565b604051701b995e1d151bdad95b9259151bd35a5b9d607a1b815260059060110190815260405190819003602001812054691d1bdad95b931a5b5a5d60b21b825290600590600a0190815260200160405180910390205411620020b657604051691d1bdad95b931a5b5a5d60b21b8152600590600a0190815260405190819003602001812054701b995e1d151bdad95b9259151bd35a5b9d607a1b82529060059060110190815260405190819003602001812054633a3b705560e11b8252620005b59291600401918252602082015260400190565b6000620020c38462002275565b90506000620020d33487620026ec565b90506005604051620020fc90701b995e1d151bdad95b9259151bd35a5b9d607a1b815260110190565b90815260405190819003602001902080549060006200211b836200325d565b90915550506001546001600160a01b031680639005ba9533858589896040518663ffffffff1660e01b815260040162002159959493929190620035b1565b600060405180830381600087803b1580156200217457600080fd5b505af115801562002189573d6000803e3d6000fd5b5050505050505050505050565b6000620021a482846200334c565b9392505050565b6000620021a4828462003624565b6000546001600160a01b03163314620019b25760405162461bcd60e51b815260206004820181905260248201527f4f776e61626c653a2063616c6c6572206973206e6f7420746865206f776e65726044820152606401620005b5565b600062001e648260ff166200281e565b600080546001600160a01b038381166001600160a01b0319831681178455604051919092169283917f8be0079c531659141344cd1fd0a4f28419497f9722a3daafe3b4186f6b6457e09190a35050565b6040805160148082526102a08201909252606091600091906020820161028080368337019050506003546040805160a08101825260008082526020820181905260609282018390528282015260808101919091529192506001600160a01b03169060405163323eae4960e01b8152600060048201526001600160a01b0383169063323eae4990602401600060405180830381865afa1580156200231c573d6000803e3d6000fd5b505050506040513d6000823e601f3d908101601f191682016040526200234691908101906200363b565b905060005b826001600160a01b0316630b01ca3b6040518163ffffffff1660e01b8152600401602060405180830381865afa1580156200238a573d6000803e3d6000fd5b505050506040513d601f19601f82011682018060405250810190620023b09190620034e1565b60ff168160ff161015620024d45760405163323eae4960e01b815260ff821660048201526001600160a01b0384169063323eae4990602401600060405180830381865afa15801562002406573d6000803e3d6000fd5b505050506040513d6000823e601f3d908101601f191682016040526200243091908101906200363b565b5160ff1662002440606462002215565b60ff161015620024bf5760405163323eae4960e01b815260ff821660048201526001600160a01b0384169063323eae4990602401600060405180830381865afa15801562002492573d6000803e3d6000fd5b505050506040513d6000823e601f3d908101601f19168201604052620024bc91908101906200363b565b91505b80620024cb816200323a565b9150506200234b565b50604081015180518190600090620024f057620024f0620030e8565b6020026020010151846000815181106200250e576200250e620030e8565b602002602001019060ff16908160ff168152505080600181518110620025385762002538620030e8565b602002602001015184600181518110620025565762002556620030e8565b602002602001019060ff16908160ff168152505080600281518110620025805762002580620030e8565b6020026020010151846002815181106200259e576200259e620030e8565b602002602001019060ff16908160ff168152505080600381518110620025c857620025c8620030e8565b602002602001015184600381518110620025e657620025e6620030e8565b602002602001019060ff16908160ff168152505080600481518110620026105762002610620030e8565b6020026020010151846004815181106200262e576200262e620030e8565b602002602001019060ff16908160ff168152505080600581518110620026585762002658620030e8565b602002602001015184600581518110620026765762002676620030e8565b602002602001019060ff16908160ff16815250508584600881518110620026a157620026a1620030e8565b602002602001019060ff16908160ff1681525050816020015184600981518110620026d057620026d0620030e8565b60ff909216602092830291909101909101525091949350505050565b6040805160148082526102a0820190925260609160009190602082016102808036833701905050905042816000815181106200272c576200272c620030e8565b60200260200101818152505083816001815181106200274f576200274f620030e8565b6020026020010181815250504281600281518110620027725762002772620030e8565b6020908102919091010152604051701b995e1d151bdad95b9259151bd35a5b9d607a1b815260059060110190815260200160405180910390205481600681518110620027c257620027c2620030e8565b6020026020010181815250508260ff1681600781518110620027e857620027e8620030e8565b6020026020010181815250506001816009815181106200280c576200280c620030e8565b60209081029190910101529392505050565b60408051646e6f6e636560d81b81526005808201528151908190036025018120544260208301526bffffffffffffffffffffffff193360601b16928201929092526054810191909152600090819083906074016040516020818303038152906040528051906020012060001c62002896919062003713565b90506005604051620028b390646e6f6e636560d81b815260050190565b9081526040519081900360200190208054906000620028d2836200325d565b90915550909392505050565b61273a806200372b83390190565b6001600160a01b03811681146200114d57600080fd5b600080600080608085870312156200291957600080fd5b84356200292681620028ec565b966020860135965060408601359560600135945092505050565b60ff811681146200114d57600080fd5b600080604083850312156200296457600080fd5b8235620029718162002940565b946020939093013593505050565b600080604083850312156200299357600080fd5b50508035926020909101359150565b60008083601f840112620029b557600080fd5b5081356001600160401b03811115620029cd57600080fd5b602083019150836020828501011115620029e657600080fd5b9250929050565b60008060006040848603121562002a0357600080fd5b83356001600160401b0381111562002a1a57600080fd5b62002a2886828701620029a2565b909790965060209590950135949350505050565b6020808252825182820181905260009190848201906040850190845b8181101562002a7f5783516001600160a01b03168352928401929184019160010162002a58565b50909695505050505050565b60006020828403121562002a9e57600080fd5b5035919050565b60008060008060006060868803121562002abe57600080fd5b853562002acb81620028ec565b945060208601356001600160401b038082111562002ae857600080fd5b62002af689838a01620029a2565b9096509450604088013591508082111562002b1057600080fd5b5062002b1f88828901620029a2565b969995985093965092949392505050565b634e487b7160e01b600052604160045260246000fd5b604080519081016001600160401b038111828210171562002b6b5762002b6b62002b30565b60405290565b60405160e081016001600160401b038111828210171562002b6b5762002b6b62002b30565b60405160a081016001600160401b038111828210171562002b6b5762002b6b62002b30565b604051601f8201601f191681016001600160401b038111828210171562002be65762002be662002b30565b604052919050565b60006001600160401b0382111562002c0a5762002c0a62002b30565b50601f01601f191660200190565b60006020828403121562002c2b57600080fd5b81356001600160401b0381111562002c4257600080fd5b8201601f8101841362002c5457600080fd5b803562002c6b62002c658262002bee565b62002bbb565b81815285602083850101111562002c8157600080fd5b81602084016020830137600091810160200191909152949350505050565b60008060006060848603121562002cb557600080fd5b83359250602084013562002cc981620028ec565b929592945050506040919091013590565b60006020828403121562002ced57600080fd5b8135620021a481620028ec565b6000806020838503121562002d0e57600080fd5b82356001600160401b0381111562002d2557600080fd5b62002d3385828601620029a2565b90969095509350505050565b6000806000806060858703121562002d5657600080fd5b843562002d638162002940565b9350602085013562002d758162002940565b925060408501356001600160401b0381111562002d9157600080fd5b62002d9f87828801620029a2565b95989497509550505050565b600082601f83011262002dbd57600080fd5b815162002dce62002c658262002bee565b8181526020858184870101111562002de557600080fd5b60005b8381101562002e0557858101820151838201830152810162002de8565b8381111562002e175760008285850101525b509095945050505050565b8051801515811462002e3357600080fd5b919050565b60006020828403121562002e4b57600080fd5b81516001600160401b038082111562002e6357600080fd5b908301906080828603121562002e7857600080fd5b60405160808101818110838211171562002e965762002e9662002b30565b60405282518281111562002ea957600080fd5b62002eb78782860162002dab565b825250602083015160208201526040830151604082015262002edc6060840162002e22565b606082015295945050505050565b60006020828403121562002efd57600080fd5b5051919050565b6001600160a01b039390931683526020830191909152604082015260600190565b60006020828403121562002f3857600080fd5b8151620021a481620028ec565b60006001600160401b0382111562002f615762002f6162002b30565b5060051b60200190565b805162002e338162002940565b600082601f83011262002f8a57600080fd5b8151602062002f9d62002c658362002f45565b82815260059290921b8401810191818101908684111562002fbd57600080fd5b8286015b8481101562002fe557805162002fd78162002940565b835291830191830162002fc1565b509695505050505050565b600060208083850312156200300457600080fd5b82516001600160401b03808211156200301c57600080fd5b90840190604082870312156200303157600080fd5b6200303b62002b46565b8251828111156200304b57600080fd5b620030598882860162002f78565b82525083830151828111156200306e57600080fd5b80840193505086601f8401126200308457600080fd5b825191506200309762002c658362002f45565b82815260059290921b83018401918481019088841115620030b757600080fd5b938501935b83851015620030d757845182529385019390850190620030bc565b948201949094529695505050505050565b634e487b7160e01b600052603260045260246000fd5b634e487b7160e01b600052601160045260246000fd5b600181815b8085111562003155578160001904821115620031395762003139620030fe565b808516156200314757918102915b93841c939080029062003119565b509250929050565b6000826200316e5750600162001e64565b816200317d5750600062001e64565b8160018114620031965760028114620031a157620031c1565b600191505062001e64565b60ff841115620031b557620031b5620030fe565b50506001821b62001e64565b5060208310610133831016604e8410600b8410161715620031e6575081810a62001e64565b620031f2838362003114565b8060001904821115620032095762003209620030fe565b029392505050565b6000620021a483836200315d565b60008219821115620032355762003235620030fe565b500190565b600060ff821660ff811415620032545762003254620030fe565b60010192915050565b6000600019821415620032745762003274620030fe565b5060010190565b600081518084526020808501945080840160005b83811015620032b057815160ff16875295820195908201906001016200328f565b509495945050505050565b600081518084526020808501945080840160005b83811015620032b057815187529582019590820190600101620032cf565b6060815260008451604060608401526200330b60a08401826200327b565b90506020860151605f198483030160808501526200332a8282620032bb565b60208501969096525050506001600160a01b0391909116604090910152919050565b6000816000190483118215151615620033695762003369620030fe565b500290565b8183823760009101908152919050565b805161ffff8116811462002e3357600080fd5b600060208284031215620033a457600080fd5b81516001600160401b0380821115620033bc57600080fd5b9083019060e08286031215620033d157600080fd5b620033db62002b71565b620033e6836200337e565b8152620033f66020840162002f6b565b60208201526040830151828111156200340e57600080fd5b6200341c8782860162002f78565b6040830152506060830151828111156200343557600080fd5b620034438782860162002f78565b6060830152506080830151608082015260a083015160a08201526200346b60c0840162002e22565b60c082015295945050505050565b6000828210156200348e576200348e620030fe565b500390565b600060ff821660ff841680821015620034b057620034b0620030fe565b90039392505050565b600060ff821660ff84168060ff03821115620034d957620034d9620030fe565b019392505050565b600060208284031215620034f457600080fd5b8151620021a48162002940565b600061ffff80831681851681830481118215151615620035255762003525620030fe565b02949350505050565b81835281816020850137506000828201602090810191909152601f909101601f19169091010190565b60a0815260006200356d60a08301898b6200352e565b82810360208401526200358281888a6200352e565b6001600160a01b0396871660408501529490951660608301525060ff9190911660809091015295945050505050565b6001600160a01b0386168152608060208201819052600090620035d7908301876200327b565b8281036040840152620035eb8187620032bb565b90508281036060840152620036028185876200352e565b98975050505050505050565b634e487b7160e01b600052601260045260246000fd5b6000826200363657620036366200360e565b500490565b6000602082840312156200364e57600080fd5b81516001600160401b03808211156200366657600080fd5b9083019060a082860312156200367b57600080fd5b6200368562002b96565b8251620036928162002940565b81526020830151620036a48162002940565b6020820152604083015182811115620036bc57600080fd5b620036ca8782860162002f78565b604083015250620036de6060840162002e22565b6060820152608083015182811115620036f657600080fd5b620037048782860162002dab565b60808301525095945050505050565b6000826200372557620037256200360e565b50069056fe60806040523480156200001157600080fd5b506040516200273a3803806200273a83398101604081905262000034916200022e565b8451859085906200004d906003906020850190620000a2565b50805162000063906004906020840190620000a2565b5050600c80546001600160a01b039586166001600160a01b031991821617909155600d80549490951693169290921790925550600855506200030b9050565b828054620000b090620002ce565b90600052602060002090601f016020900481019282620000d457600085556200011f565b82601f10620000ef57805160ff19168380011785556200011f565b828001600101855582156200011f579182015b828111156200011f57825182559160200191906001019062000102565b506200012d92915062000131565b5090565b5b808211156200012d576000815560010162000132565b634e487b7160e01b600052604160045260246000fd5b600082601f8301126200017057600080fd5b81516001600160401b03808211156200018d576200018d62000148565b604051601f8301601f19908116603f01168101908282118183101715620001b857620001b862000148565b81604052838152602092508683858801011115620001d557600080fd5b600091505b83821015620001f95785820183015181830184015290820190620001da565b838211156200020b5760008385830101525b9695505050505050565b6001600160a01b03811681146200022b57600080fd5b50565b600080600080600060a086880312156200024757600080fd5b85516001600160401b03808211156200025f57600080fd5b6200026d89838a016200015e565b965060208801519150808211156200028457600080fd5b5062000293888289016200015e565b9450506040860151620002a68162000215565b6060870151909350620002b98162000215565b80925050608086015190509295509295909350565b600181811c90821680620002e357607f821691505b602082108114156200030557634e487b7160e01b600052602260045260246000fd5b50919050565b61241f806200031b6000396000f3fe6080604052600436106101b75760003560e01c806372a2377f116100ec578063ca6d56dc1161008a578063dd62ed3e11610064578063dd62ed3e146104e9578063e0f9895514610509578063f798e52514610529578063fd0232b21461054957600080fd5b8063ca6d56dc14610494578063ccf25b4d146104b4578063cd9f0921146104e157600080fd5b8063a457c2d7116100c6578063a457c2d714610414578063a9059cbb14610434578063aa887bb614610454578063c7f067441461047457600080fd5b806372a2377f146103bd5780637c0f6b35146103dd57806395d89b41146103ff57600080fd5b8063395093511161015957806355f6e5071161013357806355f6e507146103255780635d1ca631146103525780636586737a1461036757806370a082311461038757600080fd5b806339509351146102c357806340566488146102e357806344a96ce01461030557600080fd5b806323b872dd1161019557806323b872dd146102365780632f54bf6e14610256578063313ce567146102855780633597f252146102a157600080fd5b806306fdde03146101bc578063095ea7b3146101e757806318160ddd14610217575b600080fd5b3480156101c857600080fd5b506101d1610576565b6040516101de9190611e83565b60405180910390f35b3480156101f357600080fd5b50610207610202366004611eb2565b610608565b60405190151581526020016101de565b34801561022357600080fd5b506002545b6040519081526020016101de565b34801561024257600080fd5b50610207610251366004611edc565b610622565b34801561026257600080fd5b50610207610271366004611f18565b600c546001600160a01b0391821691161490565b34801561029157600080fd5b50604051601281526020016101de565b3480156102ad57600080fd5b506102c16102bc366004611f8d565b610648565b005b3480156102cf57600080fd5b506102076102de366004611eb2565b610792565b3480156102ef57600080fd5b506102f86107b4565b6040516101de919061201a565b34801561031157600080fd5b506102c161032036600461208c565b6109ac565b34801561033157600080fd5b50610345610340366004611f18565b610a3d565b6040516101de91906120f3565b34801561035e57600080fd5b50600854610228565b34801561037357600080fd5b506102c1610382366004612101565b610b07565b34801561039357600080fd5b506102286103a2366004611f18565b6001600160a01b031660009081526020819052604090205490565b3480156103c957600080fd5b506102c16103d8366004612143565b610be1565b3480156103e957600080fd5b506103f2610d39565b6040516101de919061215c565b34801561040b57600080fd5b506101d1610e9a565b34801561042057600080fd5b5061020761042f366004611eb2565b610ea9565b34801561044057600080fd5b5061020761044f366004611eb2565b610f2f565b34801561046057600080fd5b506102c161046f366004611f18565b610f3d565b34801561048057600080fd5b506102c161048f366004612143565b6111a5565b3480156104a057600080fd5b506102c16104af366004611f18565b6112b2565b3480156104c057600080fd5b506104d46104cf3660046121aa565b6114ff565b6040516101de91906121c5565b6102c16115d3565b3480156104f557600080fd5b506102286105043660046121ea565b611676565b34801561051557600080fd5b5061022861052436600461221d565b6116a1565b34801561053557600080fd5b506102c1610544366004612252565b6116c4565b34801561055557600080fd5b50610569610564366004612143565b611912565b6040516101de919061227c565b6060600380546105859061228f565b80601f01602080910402602001604051908101604052809291908181526020018280546105b19061228f565b80156105fe5780601f106105d3576101008083540402835291602001916105fe565b820191906000526020600020905b8154815290600101906020018083116105e157829003601f168201915b5050505050905090565b6000336106168185856119e1565b60019150505b92915050565b600033610630858285611b05565b61063b858585611b7f565b60019150505b9392505050565b600c546001600160a01b0316336001600160a01b0316148061067d5750600d546001600160a01b0316336001600160a01b0316145b6106bf5760405162461bcd60e51b815260206004820152600e60248201526d139bdd081e5bdd5c8819dd5a5b1960921b60448201526064015b60405180910390fd5b60008360ff161180156106d55750600a8360ff16105b6107105760405162461bcd60e51b815260206004820152600c60248201526b06260408ee4c2c8ca409ac2f60a31b60448201526064016106b6565b604051806040016040528085815260200183838080601f016020809104026020016040519081016040528093929190818152602001838380828437600092018290525093909452505060ff8616815260056020908152604090912083518155838201518051919350610789926001850192910190611d68565b50505050505050565b6000336106168185856107a58383611676565b6107af91906122da565b6119e1565b6060600b546000141561080c576040805160008082526020820190925290610806565b604080516060808201835260008083526020830152918101919091528152602001906001900390816107d75790505b50905090565b6000600b5467ffffffffffffffff811115610829576108296122f2565b60405190808252806020026020018201604052801561087657816020015b604080516060808201835260008083526020830152918101919091528152602001906001900390816108475790505b50905060005b600b548110156109a65760008181526007602052604090205460ff16151560011415610994576000818152600760209081526040918290208251606081018452815460ff81161515825261010090046001600160a01b0316928101929092526001810180549193849290840191906108f39061228f565b80601f016020809104026020016040519081016040528092919081815260200182805461091f9061228f565b801561096c5780601f106109415761010080835404028352916020019161096c565b820191906000526020600020905b81548152906001019060200180831161094f57829003601f168201915b50505050508152505083838151811061098757610987612308565b6020026020010181905250505b8061099e8161231e565b91505061087c565b50919050565b600c546001600160a01b0316336001600160a01b031614806109e15750600d546001600160a01b0316336001600160a01b0316145b610a1e5760405162461bcd60e51b815260206004820152600e60248201526d139bdd081e5bdd5c8819dd5a5b1960921b60448201526064016106b6565b6000908152600660205260409020805460ff1916911515919091179055565b610a45611dec565b610a4d611dec565b60005b600a54811015610b00576000818152600660205260409020600401546001600160a01b0385811691161415610aee57600081815260066020908152604091829020825160c081018452815460ff8082161515835261010090910416928101929092526001810154928201929092526002820154606082015260038201546001600160a01b03908116608083015260049092015490911660a082015291505b80610af88161231e565b915050610a50565b5092915050565b60408051606081019091526001815260208101336001600160a01b0316815260200183838080601f0160208091040260200160405190810160405280939291908181526020018383808284376000920182905250939094525050600b5481526007602090815260409182902084518154868401516001600160a01b031661010002610100600160a81b0319921515929092166001600160a81b031990911617178155918401518051929350610bc59260018501929190910190611d68565b5050600b805491506000610bd88361231e565b91905055505050565b60008181526007602052604090205460ff161515600114610c445760405162461bcd60e51b815260206004820181905260248201527f5468697320696e7669746174696f6e206973206e6f206d6f72652076616c696460448201526064016106b6565b6000805b600a54811015610c8a576000818152600660205260409020600401546001600160a01b0316331415610c78578091505b80610c828161231e565b915050610c48565b506000828152600760205260409020546001600160a01b0361010090910416331480610d04575060008181526006602052604090205460ff1615156001148015610d045750600081815260066020908152604080832054610100900460ff1683526005909152902054610cfe906004611d4d565b15156001145b610d205760405162461bcd60e51b81526004016106b690612339565b506000908152600760205260409020805460ff19169055565b6060600a5460001415610d7c576040805160008082526020820190925290610806565b610d64611dec565b815260200190600190039081610d5c57905050905090565b6000600a5467ffffffffffffffff811115610d9957610d996122f2565b604051908082528060200260200182016040528015610dd257816020015b610dbf611dec565b815260200190600190039081610db75790505b50905060005b600a548110156109a65760008181526006602052604090205460ff16151560011415610e8857600081815260066020908152604091829020825160c081018452815460ff8082161515835261010090910416928101929092526001810154928201929092526002820154606082015260038201546001600160a01b03908116608083015260048301541660a08201528351849084908110610e7b57610e7b612308565b6020026020010181905250505b80610e928161231e565b915050610dd8565b6060600480546105859061228f565b60003381610eb78286611676565b905083811015610f175760405162461bcd60e51b815260206004820152602560248201527f45524332303a2064656372656173656420616c6c6f77616e63652062656c6f77604482015264207a65726f60d81b60648201526084016106b6565b610f2482868684036119e1565b506001949350505050565b600033610616818585611b7f565b60008060005b600a54811015610fae576000818152600660205260409020600401546001600160a01b0316331415610f73578092505b6000818152600660205260409020600401546001600160a01b0385811691161415610f9c578091505b80610fa68161231e565b915050610f43565b50600082815260066020908152604080832054610100900460ff1683526005909152902054610fde906004611d4d565b1515600114806110015750600c546001600160a01b0316336001600160a01b0316145b8061101f5750600d546001600160a01b0316336001600160a01b0316145b61103b5760405162461bcd60e51b81526004016106b69061237b565b6000818152600660205260408082205484835291205460ff610100928390048116929091041611806110805750600c546001600160a01b0316336001600160a01b0316145b8061109e5750600d546001600160a01b0316336001600160a01b0316145b6110ea5760405162461bcd60e51b815260206004820152601c60248201527f596f75722072616e6b206973206e6f74206869676820656e6f7567680000000060448201526064016106b6565b60008181526006602052604090205460ff1615156001148015611120575060008281526006602052604090205460ff1615156001145b61113c5760405162461bcd60e51b81526004016106b6906123c1565b600081815260066020526040808220600481015460029091015491516001600160a01b039091169282156108fc02929190818181858888f1935050505015801561118a573d6000803e3d6000fd5b506000908152600660205260409020805460ff191690555050565b6000805b600a548110156111eb576000818152600660205260409020600401546001600160a01b03163314156111d9578091505b806111e38161231e565b9150506111a9565b5060008181526006602052604090205460ff16151560011461121f5760405162461bcd60e51b81526004016106b6906123c1565b6000818152600660205260409020600201548211156112805760405162461bcd60e51b815260206004820152601a60248201527f4e6f7420656e6f7567746820657468657220696e20636865737400000000000060448201526064016106b6565b604051339083156108fc029084906000818181858888f193505050501580156112ad573d6000803e3d6000fd5b505050565b60008060005b600a548110156112fa576000818152600660205260409020600401546001600160a01b03163314156112e8578092505b806112f28161231e565b9150506112b8565b5060005b600b54811015611345576000818152600760205260409020546001600160a01b03858116610100909204161415611333578091505b8061133d8161231e565b9150506112fe565b5060008181526006602052604090205460ff16151560011461139a5760405162461bcd60e51b815260206004820152600e60248201526d155cd95c881b9bdd081d985b1a5960921b60448201526064016106b6565b60008281526006602052604090205460ff16151560011480156113ed5750600082815260066020908152604080832054610100900460ff16835260059091529020546113e7906003611d4d565b15156001145b6114095760405162461bcd60e51b81526004016106b690612339565b6040518060c00160405280600015158152602001600060ff1681526020014281526020016000815260200161143b3390565b6001600160a01b039081168252858116602092830152600980546000908152600684526040808220865181549688015160ff166101000261ff00199115159190911661ffff19909716969096179590951785558581015160018601556060860151600286015560808601516003860180549186166001600160a01b031992831617905560a09096015160049095018054959094169490951693909317909155838252918120805460ff19169055815491906114f58361231e565b9190505550505050565b60408051808201909152600081526060602082015260ff8216600090815260056020908152604091829020825180840190935280548352600181018054919284019161154a9061228f565b80601f01602080910402602001604051908101604052809291908181526020018280546115769061228f565b80156115c35780601f10611598576101008083540402835291602001916115c3565b820191906000526020600020905b8154815290600101906020018083116115a657829003601f168201915b5050505050815250509050919050565b6000805b600a54811015611619576000818152600660205260409020600401546001600160a01b0316331415611607578091505b806116118161231e565b9150506115d7565b5060008181526006602052604090205460ff16151560011461164d5760405162461bcd60e51b81526004016106b6906123c1565b6000818152600660205260408120600201805434929061166e9084906122da565b909155505050565b6001600160a01b03918216600090815260016020908152604080832093909416825291909152205490565b600081156116b957506001821b929092179182610641565b50506001901b191690565b60008060005b600a54811015611735576000818152600660205260409020600401546001600160a01b03163314156116fa578092505b6000818152600660205260409020600401546001600160a01b0386811691161415611723578091505b8061172d8161231e565b9150506116ca565b50600082815260066020908152604080832054610100900460ff1683526005909152902054611765906007611d4d565b1515600114806117885750600c546001600160a01b0316336001600160a01b0316145b806117a65750600d546001600160a01b0316336001600160a01b0316145b6117c25760405162461bcd60e51b81526004016106b69061237b565b60008281526006602052604090205460ff808516610100909204161080159061180e57506000818152600660205260408082205484835291205460ff6101009283900481169290910416115b8061182c5750600c546001600160a01b0316336001600160a01b0316145b8061184a5750600d546001600160a01b0316336001600160a01b0316145b6118965760405162461bcd60e51b815260206004820152601c60248201527f596f75722072616e6b206973206e6f74206869676820656e6f7567680000000060448201526064016106b6565b60008181526006602052604090205460ff16151560011480156118cc575060008281526006602052604090205460ff1615156001145b6118e85760405162461bcd60e51b81526004016106b6906123c1565b506000908152600660205260409020805460ff9092166101000261ff001990921691909117905550565b6040805160608082018352600080835260208301529181019190915260008281526007602052604090205460ff1615156001146119915760405162461bcd60e51b815260206004820181905260248201527f5468697320696e7669746174696f6e206973206e6f206d6f72652076616c696460448201526064016106b6565b6000828152600760209081526040918290208251606081018452815460ff81161515825261010090046001600160a01b031692810192909252600181018054929391929184019161154a9061228f565b6001600160a01b038316611a435760405162461bcd60e51b8152602060048201526024808201527f45524332303a20617070726f76652066726f6d20746865207a65726f206164646044820152637265737360e01b60648201526084016106b6565b6001600160a01b038216611aa45760405162461bcd60e51b815260206004820152602260248201527f45524332303a20617070726f766520746f20746865207a65726f206164647265604482015261737360f01b60648201526084016106b6565b6001600160a01b0383811660008181526001602090815260408083209487168084529482529182902085905590518481527f8c5be1e5ebec7d5bd14f71427d1e84f3dd0314c0f7b2291e5b200ac8c7c3b925910160405180910390a3505050565b6000611b118484611676565b90506000198114611b795781811015611b6c5760405162461bcd60e51b815260206004820152601d60248201527f45524332303a20696e73756666696369656e7420616c6c6f77616e636500000060448201526064016106b6565b611b7984848484036119e1565b50505050565b6001600160a01b038316611be35760405162461bcd60e51b815260206004820152602560248201527f45524332303a207472616e736665722066726f6d20746865207a65726f206164604482015264647265737360d81b60648201526084016106b6565b6001600160a01b038216611c455760405162461bcd60e51b815260206004820152602360248201527f45524332303a207472616e7366657220746f20746865207a65726f206164647260448201526265737360e81b60648201526084016106b6565b6001600160a01b03831660009081526020819052604090205481811015611cbd5760405162461bcd60e51b815260206004820152602660248201527f45524332303a207472616e7366657220616d6f756e7420657863656564732062604482015265616c616e636560d01b60648201526084016106b6565b6001600160a01b03808516600090815260208190526040808220858503905591851681529081208054849290611cf49084906122da565b92505081905550826001600160a01b0316846001600160a01b03167fddf252ad1be2c89b69c2b068fc378daa952ba7f163c4a11628f55a4df523b3ef84604051611d4091815260200190565b60405180910390a3611b79565b6000600183831c81169081146106165760005b949350505050565b828054611d749061228f565b90600052602060002090601f016020900481019282611d965760008555611ddc565b82601f10611daf57805160ff1916838001178555611ddc565b82800160010185558215611ddc579182015b82811115611ddc578251825591602001919060010190611dc1565b50611de8929150611e21565b5090565b6040805160c081018252600080825260208201819052918101829052606081018290526080810182905260a081019190915290565b5b80821115611de85760008155600101611e22565b6000815180845260005b81811015611e5c57602081850181015186830182015201611e40565b81811115611e6e576000602083870101525b50601f01601f19169290920160200192915050565b6020815260006106416020830184611e36565b80356001600160a01b0381168114611ead57600080fd5b919050565b60008060408385031215611ec557600080fd5b611ece83611e96565b946020939093013593505050565b600080600060608486031215611ef157600080fd5b611efa84611e96565b9250611f0860208501611e96565b9150604084013590509250925092565b600060208284031215611f2a57600080fd5b61064182611e96565b803560ff81168114611ead57600080fd5b60008083601f840112611f5657600080fd5b50813567ffffffffffffffff811115611f6e57600080fd5b602083019150836020828501011115611f8657600080fd5b9250929050565b60008060008060608587031215611fa357600080fd5b84359350611fb360208601611f33565b9250604085013567ffffffffffffffff811115611fcf57600080fd5b611fdb87828801611f44565b95989497509550505050565b80511515825260018060a01b0360208201511660208301526000604082015160606040850152611d606060850182611e36565b6000602080830181845280855180835260408601915060408160051b870101925083870160005b8281101561206f57603f1988860301845261205d858351611fe7565b94509285019290850190600101612041565b5092979650505050505050565b80358015158114611ead57600080fd5b6000806040838503121561209f57600080fd5b611ece8361207c565b80511515825260208082015160ff169083015260408082015190830152606080820151908301526080808201516001600160a01b039081169184019190915260a09182015116910152565b60c0810161061c82846120a8565b6000806020838503121561211457600080fd5b823567ffffffffffffffff81111561212b57600080fd5b61213785828601611f44565b90969095509350505050565b60006020828403121561215557600080fd5b5035919050565b6020808252825182820181905260009190848201906040850190845b8181101561219e5761218b8385516120a8565b9284019260c09290920191600101612178565b50909695505050505050565b6000602082840312156121bc57600080fd5b61064182611f33565b602081528151602082015260006020830151604080840152611d606060840182611e36565b600080604083850312156121fd57600080fd5b61220683611e96565b915061221460208401611e96565b90509250929050565b60008060006060848603121561223257600080fd5b83359250602084013591506122496040850161207c565b90509250925092565b6000806040838503121561226557600080fd5b61226e83611e96565b915061221460208401611f33565b6020815260006106416020830184611fe7565b600181811c908216806122a357607f821691505b602082108114156109a657634e487b7160e01b600052602260045260246000fd5b634e487b7160e01b600052601160045260246000fd5b600082198211156122ed576122ed6122c4565b500190565b634e487b7160e01b600052604160045260246000fd5b634e487b7160e01b600052603260045260246000fd5b6000600019821415612332576123326122c4565b5060010190565b60208082526022908201527f596f757220617265206e6f7420617574686f72697a656420746f20646f207468604082015261697360f01b606082015260800190565b60208082526026908201527f596f75722072616e6b20646f6573206e6f7420617574686f72697a6520757067604082015265726164696e6760d01b606082015260800190565b6020808252600e908201526d2737ba103b30b634b2103ab9b2b960911b60408201526060019056fea264697066735822122021ca55cb392188a731f6780f36767b0b6e018519a9bb4c5fbee1ae3fab4a93fd64736f6c634300080b0033a26469706673582212200a5e0b446bd018c57895326497d6d590fd5a632ad3ddb4307cfd92e42744661264736f6c634300080b0033",
  "immutableReferences": {},
  "source": "// SPDX-License-Identifier: MIT\r\n// Delegation contract\r\npragma solidity ^0.8.0;\r\n\r\nimport \"@openzeppelin/contracts/access/Ownable.sol\";\r\nimport \"./Items.sol\";\r\nimport \"./Guild.sol\";\r\nimport \"./Class.sol\";\r\nimport \"./Quest.sol\";\r\nimport \"./Hero.sol\";\r\n\r\nimport \"./library/LClass.sol\";\r\nimport \"./library/LHero.sol\";\r\nimport \"./library/LItems.sol\";\r\nimport \"./library/LQuest.sol\";\r\n\r\nimport \"./interfaces/IDelegateContract.sol\";\r\nimport \"@openzeppelin/contracts/utils/math/SafeMath.sol\";\r\n\r\n//enum Numbers {strong,endurance,concentration,agility,charisma,stealth,exp,level,peuple,classe}\r\n\r\ncontract DelegateContract is Ownable, IDelegateContract {\r\n  using SafeMath for uint;\r\n  error AlreadyHaveGuild(address from, address addressGuild);\r\n  error GuildNotExist(address from, address addressGuild);\r\n  error NotEnoughEth(uint256 price, uint256 weiSended, uint256 tokenId, uint256 quantity);\r\n  error NotEnoughEthHero(uint256 price, uint256 weiSended);\r\n  error NotRemainingHero(uint256 tokenLimit, uint256 nextTokenIdToMint);\r\n  error NotYourToken(address sender, address ownerOfToken, uint256 tokenId);\r\n  error AlreadyInQuest(\r\n    address sender,\r\n    uint256 questId,\r\n    uint256 currentQuestId,\r\n    uint256 tokenId\r\n  );\r\n  error QuestNotFinished(\r\n    uint256 blockTimestamp,\r\n    uint256 heroQuestTime,\r\n    uint256 currentQuestTime,\r\n    uint256 tokenId\r\n  );\r\n  error NotEnoughExperience(\r\n    uint256 experienceHero,\r\n    uint256 experienceNeeded,\r\n    uint256 tokenId\r\n  );\r\n  error NotAStat(uint256 statToLvlUp, uint256 tokenId);\r\n  error NoMoreSupplyToken(uint256 supply, uint256 quantity, uint256 tokenId);\r\n  error NoMoreBalanceToken(\r\n    uint256 balance,\r\n    address sender,\r\n    uint256 quantity,\r\n    uint256 tokenId\r\n  );\r\n  error ZeroQuantityConvertAvailable(\r\n    uint256 balance,\r\n    address sender,\r\n    uint256 quantity,\r\n    uint256 tokenId\r\n  );\r\n  error SellItemSendEth(address to, uint value);\r\n\r\n  address private addressHero;\r\n  address private addressQuest;\r\n  address private addressClass;\r\n  address private addressItem;\r\n  mapping(string => uint256) public paramsContract;\r\n  mapping(address => Guild) private guilds; //address = creator\r\n  mapping(uint256 => address) private addressGuilds; //address = creator\r\n  uint8 private countGuilds;\r\n\r\n  uint256 private constant utilMathMultiply = 10000000;\r\n\r\n  constructor(\r\n    address _addressHero,\r\n    address _addressQuest,\r\n    address _addressClass,\r\n    address _addressItem\r\n  ) {\r\n    addressHero = _addressHero;\r\n    addressQuest = _addressQuest;\r\n    addressClass = _addressClass;\r\n    addressItem = _addressItem;\r\n    paramsContract[\"nextTokenIdToMint\"] = Hero(addressHero).getParamsContract(\r\n      \"nextTokenIdToMint\"\r\n    );\r\n    paramsContract[\"price\"] = 100000000000000000; //dev:100000000000000000000 == 100 eth\r\n    paramsContract[\"totalPnt\"] = 5;\r\n    paramsContract[\"tokenLimit\"] = 10000;\r\n    paramsContract[\"nonce\"] = 0;\r\n    paramsContract[\"expForLevelUp\"] = 100;\r\n  }\r\n\r\n  modifier notYourToken(uint256 tokenId) {\r\n    Hero contrat = Hero(addressHero);\r\n    if (contrat.ownerOf(tokenId) != _msgSender())\r\n      revert NotYourToken({\r\n        sender: _msgSender(),\r\n        ownerOfToken: contrat.ownerOf(tokenId),\r\n        tokenId: tokenId\r\n      });\r\n    _;\r\n  }\r\n\r\n  ///@notice Create a guild by also deleting its contract\r\n  ///@param from user for found addresses of your contract by creator mapping\r\n  ///@param name name of your created contract\r\n  ///@param symbol name of your created contract\r\n  function createGuild(\r\n    address from,\r\n    string calldata name,\r\n    string calldata symbol\r\n  ) external {\r\n    if (address(guilds[from]) != address(0))\r\n      revert AlreadyHaveGuild({ from: from, addressGuild: address(guilds[from]) });\r\n    guilds[from] = new Guild(name, symbol, payable(_msgSender()), owner(), countGuilds);\r\n    addressGuilds[countGuilds] = from;\r\n    countGuilds++;\r\n  }\r\n\r\n  ///@notice return one guild by address creator\r\n  ///@param from user for found addresses of your contract by creator mapping\r\n  ///@return addressContract address of the contract guild\r\n  function getOneGuildAddress(address from) external view returns (address) {\r\n    if (address(guilds[from]) == address(0))\r\n      revert GuildNotExist({ from: from, addressGuild: address(guilds[from]) });\r\n    return address(guilds[from]);\r\n  }\r\n\r\n  ///@notice return all guilds addresses\r\n  ///@return result an array of address for all guilds created\r\n  function getAddressesGuilds() external view returns (address[] memory) {\r\n    address[] memory result = new address[](countGuilds);\r\n    uint256 resultIndex = 0;\r\n    uint256 i;\r\n    for (i = 0; i < countGuilds; i++) {\r\n      if (addressGuilds[i] != address(0)) {\r\n        result[resultIndex] = addressGuilds[i];\r\n        resultIndex++;\r\n      }\r\n    }\r\n    return result;\r\n  }\r\n\r\n  ///@notice Update a parameter of contract\r\n  ///@param key key index of params contract you want set\r\n  ///@param value value of params contract you want set\r\n  function setParamsContract(string calldata key, uint256 value) external onlyOwner {\r\n    paramsContract[key] = value;\r\n  }\r\n\r\n  ///@notice Return a parameter of contract by key index\r\n  ///@param key key index of param your want to return\r\n  ///@return param value of parameter contract\r\n  function getParamsContract(string calldata key) external view returns (uint256) {\r\n    return paramsContract[key];\r\n  }\r\n\r\n  ///@notice Update a parameter of hero contract\r\n  ///@param key key index of params contract you want set\r\n  ///@param value value of params contract you want set\r\n  function setParamsHeroContract(string calldata key, uint256 value) internal {\r\n    Hero contrat = Hero(addressHero);\r\n    contrat.setParamsContract(key, value);\r\n  }\r\n\r\n  ///@notice purchase of a resource for eth/MATIC\r\n  ///@param quantity count of item you want purchase\r\n  ///@param receiver receiver address of token\r\n  ///@param tokenId id of item\r\n  function buyItem(uint256 quantity, address receiver, uint256 tokenId) external payable {\r\n    Items itemContrat = Items(addressItem);\r\n    ItemsLib.Item memory item = itemContrat.getItemDetails(tokenId);\r\n    if (msg.value < item.price * quantity)\r\n      revert NotEnoughEth({\r\n        price: item.price * quantity,\r\n        weiSended: msg.value,\r\n        tokenId: tokenId,\r\n        quantity: quantity\r\n      });\r\n    itemContrat.mint(receiver, tokenId, quantity);\r\n    //setCurrentPrice();\r\n  }\r\n\r\n  ///@notice sell of a resource for eth/MATIC\r\n  ///@param quantity count of item you want purchase\r\n  ///@param tokenId id of item\r\n  function sellItem(uint256 quantity, uint256 tokenId) external {\r\n    Items itemContrat = Items(addressItem);\r\n    ItemsLib.Item memory item = itemContrat.getItemDetails(tokenId);\r\n    if (itemContrat.getSupply(tokenId) < quantity)\r\n      revert NoMoreSupplyToken({\r\n        supply: itemContrat.getSupply(tokenId),\r\n        quantity: quantity,\r\n        tokenId: tokenId\r\n      });\r\n    if (itemContrat.balanceOf(_msgSender(), tokenId) < quantity)\r\n      revert NoMoreBalanceToken({\r\n        balance: itemContrat.balanceOf(_msgSender(), tokenId),\r\n        sender: _msgSender(),\r\n        quantity: quantity,\r\n        tokenId: tokenId\r\n      });\r\n\r\n    itemContrat.burn(_msgSender(), tokenId, quantity);\r\n    (bool sent, ) = _msgSender().call{ value: item.price * quantity }(\"\");\r\n    if (sent == false)\r\n      revert SellItemSendEth({ to: _msgSender(), value: item.price * quantity });\r\n    //payable(_msgSender()).transfer(item.price * quantity);\r\n    //setCurrentPrice();\r\n  }\r\n\r\n  ///@notice convert of a resource for another token\r\n  ///@param receiver address of receiver toToken minted\r\n  ///@param quantity quantity of fromToken burned for same quantity burned\r\n  ///@param fromTokenId id of token burned\r\n  ///@param toTokenId if of token minted\r\n  function convertToAnotherToken(\r\n    address receiver,\r\n    uint256 quantity,\r\n    uint256 fromTokenId,\r\n    uint256 toTokenId\r\n  ) external {\r\n    Items itemContrat = Items(addressItem);\r\n    ItemsLib.Item memory fromItem = itemContrat.getItemDetails(fromTokenId);\r\n    ItemsLib.Item memory toItem = itemContrat.getItemDetails(toTokenId);\r\n\r\n    if (itemContrat.getSupply(fromTokenId) < quantity)\r\n      revert NoMoreSupplyToken({\r\n        supply: itemContrat.getSupply(fromTokenId),\r\n        quantity: quantity,\r\n        tokenId: fromTokenId\r\n      });\r\n\r\n    if (itemContrat.balanceOf(_msgSender(), fromTokenId) < quantity)\r\n      revert NoMoreBalanceToken({\r\n        balance: itemContrat.balanceOf(_msgSender(), fromTokenId),\r\n        sender: _msgSender(),\r\n        quantity: quantity,\r\n        tokenId: fromTokenId\r\n      });\r\n\r\n    uint256 toQuantityAvailable = fromItem.price.mul(utilMathMultiply).div(toItem.price).mul(quantity).div(utilMathMultiply);\r\n\r\n    if (toQuantityAvailable <= 0)\r\n      revert ZeroQuantityConvertAvailable({\r\n        balance: itemContrat.balanceOf(_msgSender(), fromTokenId),\r\n        sender: _msgSender(),\r\n        quantity: quantity,\r\n        tokenId: toTokenId\r\n      });\r\n\r\n    itemContrat.burn(_msgSender(), fromTokenId, quantity);\r\n    itemContrat.mint(receiver, toTokenId, toQuantityAvailable);\r\n    //currentprice = setCurrentPrice();\r\n  }\r\n\r\n  ///@notice mint a hero for a value price and generate stats and parameterr\r\n  ///@param generation generation of creation hero\r\n  ///@param peuple peuple with class and stat linked\r\n  ///@param _tokenUri uri of metadata token hero\r\n  function mintHero(\r\n    uint8 generation,\r\n    uint8 peuple,\r\n    string calldata _tokenUri\r\n  ) external payable {\r\n    require(msg.value >= paramsContract[\"price\"], \"More ETH required\");\r\n    if (msg.value < paramsContract[\"price\"])\r\n      revert NotEnoughEthHero({ price: paramsContract[\"price\"], weiSended: msg.value });\r\n    if (paramsContract[\"tokenLimit\"] <= paramsContract[\"nextTokenIdToMint\"])\r\n      revert NotRemainingHero({\r\n        tokenLimit: paramsContract[\"tokenLimit\"],\r\n        nextTokenIdToMint: paramsContract[\"nextTokenIdToMint\"]\r\n      });\r\n    uint8[] memory randomParts = randomStats(peuple);\r\n    uint256[] memory randomParams = randomParameters(msg.value, generation);\r\n    paramsContract[\"nextTokenIdToMint\"]++;\r\n\r\n    Hero contrat = Hero(addressHero);\r\n    contrat.mint(_msgSender(), randomParts, randomParams, _tokenUri);\r\n  }\r\n\r\n  ///@notice generate stats for your hero in uint8\r\n  ///@param peuple peuple of hero generated\r\n  ///@return randomParts array of stats uint8 for hero\r\n  function randomStats(uint8 peuple) internal virtual returns (uint8[] memory) {\r\n    uint8[] memory randomParts = new uint8[](20);\r\n\r\n    Class classContrat = Class(addressClass);\r\n    ClassLib.Classes memory class;\r\n    class = classContrat.getClassDetails(0);\r\n    for (uint8 index = 0; index < classContrat.getClassCount(); index++) {\r\n      if (random(100) < classContrat.getClassDetails(index).rarity)\r\n        class = classContrat.getClassDetails(index);\r\n    }\r\n    uint8[] memory stats = class.stats;\r\n\r\n    randomParts[0] = stats[0]; //strong\r\n    randomParts[1] = stats[1]; //endurance\r\n    randomParts[2] = stats[2]; //concentration\r\n    randomParts[3] = stats[3]; //agility\r\n    randomParts[4] = stats[4]; //charisma\r\n    randomParts[5] = stats[5]; //stealth\r\n\r\n    randomParts[8] = peuple; //peuple\r\n    randomParts[9] = class.id; //class\r\n\r\n    return randomParts;\r\n  }\r\n\r\n  ///@notice generate parameter for your hero in uint256\r\n  ///@param price price of buying hero\r\n  ///@param generation generation fo hero\r\n  ///@return randomParams array of parameters uint256 for hero\r\n  function randomParameters(\r\n    uint256 price,\r\n    uint8 generation\r\n  ) internal virtual returns (uint256[] memory) {\r\n    uint256[] memory randomParams = new uint256[](20);\r\n    randomParams[0] = block.timestamp; //date de cration\r\n    randomParams[1] = price; //prix d'achat\r\n    randomParams[2] = block.timestamp; //date de la drnire action (il y a une heure) permettant de participer a des missions\r\n    //randomParams[3] = 0;//Mission choisis (si 0 aucune current mission)\r\n    //randomParams[4] = 0;//seconds pour finir la mission\r\n    //randomParams[5] = 0;//difficult de la qute (dtermine l'exp gagn, et les objets % gagn)\r\n    //randomParams[6] = 0;//last quest succeded\r\n    randomParams[6] = paramsContract[\"nextTokenIdToMint\"]; //tokenId\r\n    randomParams[7] = generation; //type\r\n    //randomParams[8] = 0;//exp\r\n    randomParams[9] = 1; //level\r\n    return randomParams;\r\n  }\r\n\r\n  ///@notice start a quest by id for one hero token\r\n  ///@param tokenId id of token you want to launch in quest\r\n  ///@param questId id of quest you want to start\r\n  function startQuest(uint256 tokenId, uint256 questId) external notYourToken(tokenId) {\r\n    Hero contrat = Hero(addressHero);\r\n    Quest questContrat = Quest(addressQuest);\r\n    QuestLib.QuestStruct memory questTemp = questContrat.getQuestDetails(questId);\r\n    HeroLib.Token memory tokenTemp = contrat.getTokenDetails(tokenId);\r\n    if (tokenTemp.params256[4] != 0)\r\n      revert AlreadyInQuest({\r\n        sender: _msgSender(),\r\n        questId: questId,\r\n        currentQuestId: tokenTemp.params256[4],\r\n        tokenId: tokenId\r\n      });\r\n    tokenTemp.params256[2] = block.timestamp;\r\n    tokenTemp.params256[3] = questId;\r\n    tokenTemp.params256[4] = questTemp.time;\r\n    contrat.updateToken(tokenTemp, tokenId, _msgSender());\r\n  }\r\n\r\n  ///@notice Validation of the quest at the end of a quest\r\n  ///@param tokenId id of token you want to complete quest\r\n  function completeQuest(uint256 tokenId) external notYourToken(tokenId) {\r\n    Hero contrat = Hero(addressHero);\r\n    HeroLib.Token memory tokenTemp = contrat.getTokenDetails(tokenId);\r\n\r\n    Quest questContrat = Quest(addressQuest);\r\n    QuestLib.QuestStruct memory questTemp = questContrat.getQuestDetails(\r\n      tokenTemp.params256[3]\r\n    );\r\n    if (block.timestamp - tokenTemp.params256[2] <= (questTemp.time))\r\n      revert QuestNotFinished({\r\n        blockTimestamp: block.timestamp,\r\n        heroQuestTime: tokenTemp.params256[2],\r\n        currentQuestTime: questTemp.time,\r\n        tokenId: tokenId\r\n      });\r\n    uint8 malus = 0;\r\n    for (uint8 index = 0; index < questTemp.stats.length; index++) {\r\n      if (questTemp.stats[index] > tokenTemp.params8[index]) {\r\n        malus += questTemp.stats[index] - tokenTemp.params8[index];\r\n      }\r\n    }\r\n    ///SUCCESS QUEST\r\n    uint256 percentSuccess = random(100 - malus);\r\n    tokenTemp.params256[7] = percentSuccess;\r\n    if (percentSuccess > questTemp.percentDifficulty) {\r\n      tokenTemp.params256[6] = 1;\r\n      tokenTemp.params256[8] += (questTemp.exp * questContrat.getMultiplicateurExp());\r\n\r\n      Items itemContrat = Items(addressItem);\r\n\r\n      for (uint256 index = 0; index < questTemp.items.length; index++) {\r\n        itemContrat.mint(_msgSender(), questTemp.items[index], 1);\r\n      }\r\n      //recuperer les items dans la quest !IMPORTANT\r\n      /*for (uint256 index = 0; index < countItems; index++) {\r\n        Items itemtemp = Items(items[index]);\r\n        if (random256(100000) > itemtemp.getRarity()) {\r\n          itemtemp.mint(1, _msgSender());\r\n        }\r\n      }*/\r\n    } else {\r\n      tokenTemp.params256[6] = 0;\r\n    }\r\n    tokenTemp.params256[2] = block.timestamp;\r\n    tokenTemp.params256[4] = 0;\r\n\r\n    contrat.updateToken(tokenTemp, tokenId, _msgSender());\r\n  }\r\n\r\n  ///@notice level up hero and increment one stat\r\n  ///@param statToLvlUp id of stat you wan increment\r\n  ///@param tokenId id of token you want level up\r\n  function levelUp(uint8 statToLvlUp, uint256 tokenId) external notYourToken(tokenId) {\r\n    Hero contrat = Hero(addressHero);\r\n    HeroLib.Token memory tokenTemp = contrat.getTokenDetails(tokenId);\r\n    if (\r\n      tokenTemp.params256[8] <=\r\n      (100 + (paramsContract[\"expForLevelUp\"] ** tokenTemp.params256[9]))\r\n    )\r\n      revert NotEnoughExperience({\r\n        experienceHero: tokenTemp.params256[8],\r\n        experienceNeeded: (100 +\r\n          (paramsContract[\"expForLevelUp\"] ** tokenTemp.params256[9])),\r\n        tokenId: tokenId\r\n      });\r\n    if (statToLvlUp < 0 || statToLvlUp > 5)\r\n      revert NotAStat({ statToLvlUp: statToLvlUp, tokenId: tokenId });\r\n    tokenTemp.params8[statToLvlUp]++;\r\n    tokenTemp.params256[8] = 0;\r\n    tokenTemp.params256[9]++;\r\n\r\n    contrat.updateToken(tokenTemp, tokenId, _msgSender());\r\n  }\r\n\r\n  /****************************************\r\n    UTILS\r\n     ****************************************/\r\n\r\n  ///@notice return random number\r\n  ///@param maxNumber max number random to return\r\n  ///@return randomNumber random uint256 returned\r\n  function random(uint8 maxNumber) internal returns (uint8) {\r\n    return uint8(random256(uint8(maxNumber)));\r\n  }\r\n\r\n  ///@notice return random number\r\n  ///@param maxNumber max number random to return\r\n  ///@return randomNumber random uint256 returned\r\n  function random256(uint256 maxNumber) internal returns (uint256) {\r\n    uint256 randomNumber = uint256(\r\n      keccak256(abi.encodePacked(block.timestamp, _msgSender(), paramsContract[\"nonce\"]))\r\n    ) % maxNumber;\r\n    paramsContract[\"nonce\"]++;\r\n    return randomNumber;\r\n  }\r\n\r\n  /*FUNDS OF CONTRACT*/\r\n\r\n  function withdraw() external onlyOwner {\r\n    payable(_msgSender()).transfer(address(this).balance);\r\n  }\r\n\r\n  function test() external view returns (uint256) {\r\n    uint firstTokenPrice = 6;\r\n    uint quantity = 16;\r\n    uint twoTokenPrice = 13;\r\n    return firstTokenPrice.mul(utilMathMultiply).div(twoTokenPrice).mul(quantity).div(utilMathMultiply);\r\n  }\r\n\r\n  /**\r\n    a finaliser\r\n     */\r\n  /*function calculPriceSupply() public{\r\n        Hero contrat = Hero(addressHero);\r\n        uint totalSupply = contrat.getParamsContract(\"totalSupply\");\r\n        //priceInUsd = (item.price/(10**18)) * (latestPrice/10**8)\r\n    }*/\r\n\r\n  /**\r\n    appel vers le contrat officiel du jeton\r\n    Achat d'un token par un utilisateur\r\n     */\r\n  /*function purchase(address contactAddr, uint256 tokenId) external payable {\r\n        Hero contrat = Hero(addressHero);\r\n        HeroLib.Token memory token = contrat.getTokenDetails(tokenId);\r\n        require(msg.value >= token.params256[1], \"Insufficient fonds sent\");\r\n        require(contrat.getOwnerOf(tokenId) != _msgSender(), \"Already Owned\");\r\n        //contrat.updateToken(token,tokenId,_msgSender());\r\n        contrat.transfer(contactAddr, _msgSender(), tokenId);\r\n    }*/\r\n\r\n  ///@notice Deleted a guild by also deleting its contract\r\n  ///@dev ATTENTION, the totality of the ether contained above atters to the creator of the contract\r\n  ///@param from user for found addresses of your contract by creator mapping\r\n  //function deleteGuild(address from) external {\r\n  //  require(address(guilds[from]) != address(0), \"Guild not exist\");\r\n  //  require(guilds[from].isOwner(_msgSender()), \"Is not your guild\");\r\n  //  guilds[from].kill();\r\n  //  addressGuilds[guilds[from].getId()] = address(0);\r\n  //}\r\n\r\n  // function giveHero(\r\n  //   address to,\r\n  //   uint8 generation,\r\n  //   string memory _tokenUri\r\n  // ) external onlyOwner {\r\n  //require(paramsContract[\"tokenLimit\"] > 0, \"No remaining\");\r\n  //bool[] memory booleans = new bool[](20);\r\n  //uint8[] memory randomParts = randomStats(0);\r\n  //uint256[] memory randomParams = randomParams(paramsContract[\"price\"], generation);\r\n  //paramsContract[\"nextTokenIdToMint\"]++;\r\n\r\n  //Hero contrat = Hero(addressHero);\r\n  //contrat.mint(to, booleans, randomParts, randomParams, _tokenUri);\r\n  //}\r\n}\r\n",
  "sourcePath": "C:\\Users\\Kevin\\Desktop\\WorkHome\\--Solidity--MYOS\\contracts\\DelegateContract.sol",
  "compiler": {
    "name": "solc",
    "version": "0.8.11+commit.d7f03943.Emscripten.clang"
  },
  "schemaVersion": "3.4.6",
  "updatedAt": "2022-11-07T02:08:52.249Z",
  "devdoc": {
    "kind": "dev",
    "methods": {
      "buyItem(uint256,address,uint256)": {
        "params": {
          "quantity": "count of item you want purchase",
          "receiver": "receiver address of token",
          "tokenId": "id of item"
        }
      },
      "completeQuest(uint256)": {
        "params": {
          "tokenId": "id of token you want to complete quest"
        }
      },
      "convertToAnotherToken(address,uint256,uint256,uint256)": {
        "params": {
          "fromTokenId": "id of token burned",
          "quantity": "quantity of fromToken burned for same quantity burned",
          "receiver": "address of receiver toToken minted",
          "toTokenId": "if of token minted"
        }
      },
      "createGuild(address,string,string)": {
        "params": {
          "from": "user for found addresses of your contract by creator mapping",
          "name": "name of your created contract",
          "symbol": "name of your created contract"
        }
      },
      "getAddressesGuilds()": {
        "returns": {
          "_0": "result an array of address for all guilds created"
        }
      },
      "getOneGuildAddress(address)": {
        "params": {
          "from": "user for found addresses of your contract by creator mapping"
        },
        "returns": {
          "_0": "addressContract address of the contract guild"
        }
      },
      "getParamsContract(string)": {
        "params": {
          "key": "key index of param your want to return"
        },
        "returns": {
          "_0": "param value of parameter contract"
        }
      },
      "levelUp(uint8,uint256)": {
        "params": {
          "statToLvlUp": "id of stat you wan increment",
          "tokenId": "id of token you want level up"
        }
      },
      "mintHero(uint8,uint8,string)": {
        "params": {
          "_tokenUri": "uri of metadata token hero",
          "generation": "generation of creation hero",
          "peuple": "peuple with class and stat linked"
        }
      },
      "owner()": {
        "details": "Returns the address of the current owner."
      },
      "renounceOwnership()": {
        "details": "Leaves the contract without owner. It will not be possible to call `onlyOwner` functions anymore. Can only be called by the current owner. NOTE: Renouncing ownership will leave the contract without an owner, thereby removing any functionality that is only available to the owner."
      },
      "sellItem(uint256,uint256)": {
        "params": {
          "quantity": "count of item you want purchase",
          "tokenId": "id of item"
        }
      },
      "setParamsContract(string,uint256)": {
        "params": {
          "key": "key index of params contract you want set",
          "value": "value of params contract you want set"
        }
      },
      "startQuest(uint256,uint256)": {
        "params": {
          "questId": "id of quest you want to start",
          "tokenId": "id of token you want to launch in quest"
        }
      },
      "transferOwnership(address)": {
        "details": "Transfers ownership of the contract to a new account (`newOwner`). Can only be called by the current owner."
      }
    },
    "version": 1
  },
  "userdoc": {
    "kind": "user",
    "methods": {
      "buyItem(uint256,address,uint256)": {
        "notice": "purchase of a resource for eth/MATIC"
      },
      "completeQuest(uint256)": {
        "notice": "Validation of the quest at the end of a quest"
      },
      "convertToAnotherToken(address,uint256,uint256,uint256)": {
        "notice": "convert of a resource for another token"
      },
      "createGuild(address,string,string)": {
        "notice": "Create a guild by also deleting its contract"
      },
      "getAddressesGuilds()": {
        "notice": "return all guilds addresses"
      },
      "getOneGuildAddress(address)": {
        "notice": "return one guild by address creator"
      },
      "getParamsContract(string)": {
        "notice": "Return a parameter of contract by key index"
      },
      "levelUp(uint8,uint256)": {
        "notice": "level up hero and increment one stat"
      },
      "mintHero(uint8,uint8,string)": {
        "notice": "mint a hero for a value price and generate stats and parameterr"
      },
      "sellItem(uint256,uint256)": {
        "notice": "sell of a resource for eth/MATIC"
      },
      "setParamsContract(string,uint256)": {
        "notice": "Update a parameter of contract"
      },
      "startQuest(uint256,uint256)": {
        "notice": "start a quest by id for one hero token"
      }
    },
    "version": 1
  }
}