{
  "contractName": "Equipments",
  "abi": [
    {
      "inputs": [
        {
          "internalType": "string",
          "name": "baseUri",
          "type": "string"
        }
      ],
      "stateMutability": "nonpayable",
      "type": "constructor"
    },
    {
      "anonymous": false,
      "inputs": [
        {
          "indexed": true,
          "internalType": "address",
          "name": "account",
          "type": "address"
        },
        {
          "indexed": true,
          "internalType": "address",
          "name": "operator",
          "type": "address"
        },
        {
          "indexed": false,
          "internalType": "bool",
          "name": "approved",
          "type": "bool"
        }
      ],
      "name": "ApprovalForAll",
      "type": "event"
    },
    {
      "anonymous": false,
      "inputs": [
        {
          "indexed": true,
          "internalType": "address",
          "name": "previousOwner",
          "type": "address"
        },
        {
          "indexed": true,
          "internalType": "address",
          "name": "newOwner",
          "type": "address"
        }
      ],
      "name": "OwnershipTransferred",
      "type": "event"
    },
    {
      "anonymous": false,
      "inputs": [
        {
          "indexed": true,
          "internalType": "address",
          "name": "operator",
          "type": "address"
        },
        {
          "indexed": true,
          "internalType": "address",
          "name": "from",
          "type": "address"
        },
        {
          "indexed": true,
          "internalType": "address",
          "name": "to",
          "type": "address"
        },
        {
          "indexed": false,
          "internalType": "uint256[]",
          "name": "ids",
          "type": "uint256[]"
        },
        {
          "indexed": false,
          "internalType": "uint256[]",
          "name": "values",
          "type": "uint256[]"
        }
      ],
      "name": "TransferBatch",
      "type": "event"
    },
    {
      "anonymous": false,
      "inputs": [
        {
          "indexed": true,
          "internalType": "address",
          "name": "operator",
          "type": "address"
        },
        {
          "indexed": true,
          "internalType": "address",
          "name": "from",
          "type": "address"
        },
        {
          "indexed": true,
          "internalType": "address",
          "name": "to",
          "type": "address"
        },
        {
          "indexed": false,
          "internalType": "uint256",
          "name": "id",
          "type": "uint256"
        },
        {
          "indexed": false,
          "internalType": "uint256",
          "name": "value",
          "type": "uint256"
        }
      ],
      "name": "TransferSingle",
      "type": "event"
    },
    {
      "anonymous": false,
      "inputs": [
        {
          "indexed": false,
          "internalType": "string",
          "name": "value",
          "type": "string"
        },
        {
          "indexed": true,
          "internalType": "uint256",
          "name": "id",
          "type": "uint256"
        }
      ],
      "name": "URI",
      "type": "event"
    },
    {
      "inputs": [
        {
          "internalType": "address",
          "name": "account",
          "type": "address"
        },
        {
          "internalType": "uint256",
          "name": "id",
          "type": "uint256"
        }
      ],
      "name": "balanceOf",
      "outputs": [
        {
          "internalType": "uint256",
          "name": "",
          "type": "uint256"
        }
      ],
      "stateMutability": "view",
      "type": "function"
    },
    {
      "inputs": [
        {
          "internalType": "address[]",
          "name": "accounts",
          "type": "address[]"
        },
        {
          "internalType": "uint256[]",
          "name": "ids",
          "type": "uint256[]"
        }
      ],
      "name": "balanceOfBatch",
      "outputs": [
        {
          "internalType": "uint256[]",
          "name": "",
          "type": "uint256[]"
        }
      ],
      "stateMutability": "view",
      "type": "function"
    },
    {
      "inputs": [
        {
          "internalType": "address",
          "name": "account",
          "type": "address"
        },
        {
          "internalType": "address",
          "name": "operator",
          "type": "address"
        }
      ],
      "name": "isApprovedForAll",
      "outputs": [
        {
          "internalType": "bool",
          "name": "",
          "type": "bool"
        }
      ],
      "stateMutability": "view",
      "type": "function"
    },
    {
      "inputs": [],
      "name": "owner",
      "outputs": [
        {
          "internalType": "address",
          "name": "",
          "type": "address"
        }
      ],
      "stateMutability": "view",
      "type": "function"
    },
    {
      "inputs": [],
      "name": "renounceOwnership",
      "outputs": [],
      "stateMutability": "nonpayable",
      "type": "function"
    },
    {
      "inputs": [
        {
          "internalType": "address",
          "name": "from",
          "type": "address"
        },
        {
          "internalType": "address",
          "name": "to",
          "type": "address"
        },
        {
          "internalType": "uint256[]",
          "name": "ids",
          "type": "uint256[]"
        },
        {
          "internalType": "uint256[]",
          "name": "amounts",
          "type": "uint256[]"
        },
        {
          "internalType": "bytes",
          "name": "data",
          "type": "bytes"
        }
      ],
      "name": "safeBatchTransferFrom",
      "outputs": [],
      "stateMutability": "nonpayable",
      "type": "function"
    },
    {
      "inputs": [
        {
          "internalType": "address",
          "name": "from",
          "type": "address"
        },
        {
          "internalType": "address",
          "name": "to",
          "type": "address"
        },
        {
          "internalType": "uint256",
          "name": "id",
          "type": "uint256"
        },
        {
          "internalType": "uint256",
          "name": "amount",
          "type": "uint256"
        },
        {
          "internalType": "bytes",
          "name": "data",
          "type": "bytes"
        }
      ],
      "name": "safeTransferFrom",
      "outputs": [],
      "stateMutability": "nonpayable",
      "type": "function"
    },
    {
      "inputs": [
        {
          "internalType": "address",
          "name": "operator",
          "type": "address"
        },
        {
          "internalType": "bool",
          "name": "approved",
          "type": "bool"
        }
      ],
      "name": "setApprovalForAll",
      "outputs": [],
      "stateMutability": "nonpayable",
      "type": "function"
    },
    {
      "inputs": [
        {
          "internalType": "bytes4",
          "name": "interfaceId",
          "type": "bytes4"
        }
      ],
      "name": "supportsInterface",
      "outputs": [
        {
          "internalType": "bool",
          "name": "",
          "type": "bool"
        }
      ],
      "stateMutability": "view",
      "type": "function"
    },
    {
      "inputs": [
        {
          "internalType": "address",
          "name": "newOwner",
          "type": "address"
        }
      ],
      "name": "transferOwnership",
      "outputs": [],
      "stateMutability": "nonpayable",
      "type": "function"
    },
    {
      "inputs": [
        {
          "internalType": "uint256",
          "name": "",
          "type": "uint256"
        }
      ],
      "name": "uri",
      "outputs": [
        {
          "internalType": "string",
          "name": "",
          "type": "string"
        }
      ],
      "stateMutability": "view",
      "type": "function"
    },
    {
      "inputs": [
        {
          "internalType": "string",
          "name": "name",
          "type": "string"
        },
        {
          "internalType": "uint256",
          "name": "rarity",
          "type": "uint256"
        },
        {
          "internalType": "uint256",
          "name": "price",
          "type": "uint256"
        },
        {
          "internalType": "uint256[]",
          "name": "itemsIdsCraft",
          "type": "uint256[]"
        },
        {
          "internalType": "uint256[]",
          "name": "itemsQuantitiesCraft",
          "type": "uint256[]"
        },
        {
          "internalType": "uint256",
          "name": "id",
          "type": "uint256"
        }
      ],
      "name": "setEquipment",
      "outputs": [],
      "stateMutability": "nonpayable",
      "type": "function"
    },
    {
      "inputs": [
        {
          "internalType": "uint256",
          "name": "tokenId",
          "type": "uint256"
        }
      ],
      "name": "getSupply",
      "outputs": [
        {
          "internalType": "uint256",
          "name": "",
          "type": "uint256"
        }
      ],
      "stateMutability": "view",
      "type": "function"
    },
    {
      "inputs": [
        {
          "internalType": "address",
          "name": "_address",
          "type": "address"
        }
      ],
      "name": "setaddressProxyContract",
      "outputs": [],
      "stateMutability": "nonpayable",
      "type": "function"
    },
    {
      "inputs": [
        {
          "internalType": "address",
          "name": "to",
          "type": "address"
        },
        {
          "internalType": "uint256",
          "name": "tokenId",
          "type": "uint256"
        },
        {
          "internalType": "uint256",
          "name": "amount",
          "type": "uint256"
        }
      ],
      "name": "mint",
      "outputs": [],
      "stateMutability": "payable",
      "type": "function"
    },
    {
      "inputs": [
        {
          "internalType": "address",
          "name": "to",
          "type": "address"
        },
        {
          "internalType": "uint256",
          "name": "tokenId",
          "type": "uint256"
        },
        {
          "internalType": "uint256",
          "name": "amount",
          "type": "uint256"
        }
      ],
      "name": "burn",
      "outputs": [],
      "stateMutability": "nonpayable",
      "type": "function"
    },
    {
      "inputs": [
        {
          "internalType": "uint256",
          "name": "tokenId",
          "type": "uint256"
        }
      ],
      "name": "getEquipmentDetails",
      "outputs": [
        {
          "components": [
            {
              "internalType": "string",
              "name": "name",
              "type": "string"
            },
            {
              "internalType": "uint256",
              "name": "rarity",
              "type": "uint256"
            },
            {
              "internalType": "uint256",
              "name": "price",
              "type": "uint256"
            },
            {
              "internalType": "uint256[]",
              "name": "itemsIdsCraft",
              "type": "uint256[]"
            },
            {
              "internalType": "uint256[]",
              "name": "itemsQuantitiesCraft",
              "type": "uint256[]"
            },
            {
              "internalType": "bool",
              "name": "valid",
              "type": "bool"
            }
          ],
          "internalType": "struct EquipmentsLib.Equipment",
          "name": "",
          "type": "tuple"
        }
      ],
      "stateMutability": "view",
      "type": "function"
    }
  ],
  "bytecode": "0x60806040523480156200001157600080fd5b50604051620023e9380380620023e983398101604081905262000034916200017a565b80620000408162000053565b506200004c336200006c565b5062000293565b805162000068906002906020840190620000be565b5050565b600380546001600160a01b038381166001600160a01b0319831681179093556040519116919082907f8be0079c531659141344cd1fd0a4f28419497f9722a3daafe3b4186f6b6457e090600090a35050565b828054620000cc9062000256565b90600052602060002090601f016020900481019282620000f057600085556200013b565b82601f106200010b57805160ff19168380011785556200013b565b828001600101855582156200013b579182015b828111156200013b5782518255916020019190600101906200011e565b50620001499291506200014d565b5090565b5b808211156200014957600081556001016200014e565b634e487b7160e01b600052604160045260246000fd5b600060208083850312156200018e57600080fd5b82516001600160401b0380821115620001a657600080fd5b818501915085601f830112620001bb57600080fd5b815181811115620001d057620001d062000164565b604051601f8201601f19908116603f01168101908382118183101715620001fb57620001fb62000164565b8160405282815288868487010111156200021457600080fd5b600093505b8284101562000238578484018601518185018701529285019262000219565b828411156200024a5760008684830101525b98975050505050505050565b600181811c908216806200026b57607f821691505b602082108114156200028d57634e487b7160e01b600052602260045260246000fd5b50919050565b61214680620002a36000396000f3fe6080604052600436106100fd5760003560e01c80634e1273f411610095578063e985e9c511610064578063e985e9c5146102be578063f242432a14610307578063f2fde38b14610327578063f5298aca14610347578063f77ee79d1461036757600080fd5b80634e1273f414610234578063715018a6146102615780638da5cb5b14610276578063a22cb4651461029e57600080fd5b8063156e29f6116100d1578063156e29f6146101b457806318315ca8146101c75780632eb2c2d6146101e75780634da3b9c71461020757600080fd5b8062fdd58e1461010257806301ffc9a714610135578063078ef740146101655780630e89341c14610187575b600080fd5b34801561010e57600080fd5b5061012261011d3660046116e7565b610394565b6040519081526020015b60405180910390f35b34801561014157600080fd5b50610155610150366004611727565b61042a565b604051901515815260200161012c565b34801561017157600080fd5b5061018561018036600461174b565b61047c565b005b34801561019357600080fd5b506101a76101a2366004611766565b6104a6565b60405161012c91906117cc565b6101856101c23660046117df565b61053a565b3480156101d357600080fd5b506101856101e236600461185e565b6105f0565b3480156101f357600080fd5b50610185610202366004611a8a565b6107bb565b34801561021357600080fd5b50610227610222366004611766565b610807565b60405161012c9190611b6f565b34801561024057600080fd5b5061025461024f366004611bf4565b6109c7565b60405161012c9190611cbf565b34801561026d57600080fd5b50610185610af1565b34801561028257600080fd5b506003546040516001600160a01b03909116815260200161012c565b3480156102aa57600080fd5b506101856102b9366004611cd2565b610b05565b3480156102ca57600080fd5b506101556102d9366004611d0e565b6001600160a01b03918216600090815260016020908152604080832093909416825291909152205460ff1690565b34801561031357600080fd5b50610185610322366004611d41565b610b14565b34801561033357600080fd5b5061018561034236600461174b565b610b59565b34801561035357600080fd5b506101856103623660046117df565b610bd2565b34801561037357600080fd5b50610122610382366004611766565b60009081526006602052604090205490565b60006001600160a01b0383166104045760405162461bcd60e51b815260206004820152602a60248201527f455243313135353a2061646472657373207a65726f206973206e6f742061207660448201526930b634b21037bbb732b960b11b60648201526084015b60405180910390fd5b506000908152602081815260408083206001600160a01b03949094168352929052205490565b60006001600160e01b03198216636cdb3d1360e11b148061045b57506001600160e01b031982166303a24d0760e21b145b8061047657506301ffc9a760e01b6001600160e01b03198316145b92915050565b610484610c72565b600480546001600160a01b0319166001600160a01b0392909216919091179055565b6060600280546104b590611da6565b80601f01602080910402602001604051908101604052809291908181526020018280546104e190611da6565b801561052e5780601f106105035761010080835404028352916020019161052e565b820191906000526020600020905b81548152906001019060200180831161051157829003601f168201915b50505050509050919050565b6004546001600160a01b0316336001600160a01b0316148061056557506004546001600160a01b0316155b6105ab5760405162461bcd60e51b8152602060048201526017602482015276139bdd0819dbdbd908141c9bde1e4818dbdb9d1c9858dd604a1b60448201526064016103fb565b600082815260066020526040812080548392906105c9908490611df7565b925050819055506105eb83838360405180602001604052806000815250610ccc565b505050565b6105f8610c72565b83821461063f5760405162461bcd60e51b81526020600482015260156024820152740dcdee840cededec840c2e4e4c2f240d8cadccee8d605b1b60448201526064016103fb565b60008181526007602052604090206005015460ff16610662576005805460010190555b6040518060c001604052808a8a8080601f01602080910402602001604051908101604052809392919081815260200183838082843760009201919091525050509082525060208082018a905260408083018a9052805188830281810184019092528881526060909301929189918991829190850190849080828437600092019190915250505090825250604080516020868102828101820190935286825292830192909187918791829185019084908082843760009201829052509385525050600160209384015250838152600782526040902082518051919261074b928492909101906115f8565b5060208281015160018301556040830151600283015560608301518051610778926003850192019061167c565b506080820151805161079491600484019160209091019061167c565b5060a091909101516005909101805460ff1916911515919091179055505050505050505050565b6001600160a01b0385163314806107d757506107d785336102d9565b6107f35760405162461bcd60e51b81526004016103fb90611e0f565b6108008585858585610de0565b5050505050565b6108426040518060c0016040528060608152602001600081526020016000815260200160608152602001606081526020016000151581525090565b60008281526007602052604090819020815160c0810190925280548290829061086a90611da6565b80601f016020809104026020016040519081016040528092919081815260200182805461089690611da6565b80156108e35780601f106108b8576101008083540402835291602001916108e3565b820191906000526020600020905b8154815290600101906020018083116108c657829003601f168201915b5050505050815260200160018201548152602001600282015481526020016003820180548060200260200160405190810160405280929190818152602001828054801561094f57602002820191906000526020600020905b81548152602001906001019080831161093b575b50505050508152602001600482018054806020026020016040519081016040528092919081815260200182805480156109a757602002820191906000526020600020905b815481526020019060010190808311610993575b50505091835250506005919091015460ff16151560209091015292915050565b60608151835114610a2c5760405162461bcd60e51b815260206004820152602960248201527f455243313135353a206163636f756e747320616e6420696473206c656e677468604482015268040dad2e6dac2e8c6d60bb1b60648201526084016103fb565b6000835167ffffffffffffffff811115610a4857610a4861193e565b604051908082528060200260200182016040528015610a71578160200160208202803683370190505b50905060005b8451811015610ae957610abc858281518110610a9557610a95611e5d565b6020026020010151858381518110610aaf57610aaf611e5d565b6020026020010151610394565b828281518110610ace57610ace611e5d565b6020908102919091010152610ae281611e73565b9050610a77565b509392505050565b610af9610c72565b610b036000610fbd565b565b610b1033838361100f565b5050565b6001600160a01b038516331480610b305750610b3085336102d9565b610b4c5760405162461bcd60e51b81526004016103fb90611e0f565b61080085858585856110f0565b610b61610c72565b6001600160a01b038116610bc65760405162461bcd60e51b815260206004820152602660248201527f4f776e61626c653a206e6577206f776e657220697320746865207a65726f206160448201526564647265737360d01b60648201526084016103fb565b610bcf81610fbd565b50565b6004546001600160a01b0316336001600160a01b03161480610bfd57506004546001600160a01b0316155b610c435760405162461bcd60e51b8152602060048201526017602482015276139bdd0819dbdbd908141c9bde1e4818dbdb9d1c9858dd604a1b60448201526064016103fb565b60008281526006602052604081208054839290610c61908490611e8e565b909155506105eb905083838361121a565b6003546001600160a01b03163314610b035760405162461bcd60e51b815260206004820181905260248201527f4f776e61626c653a2063616c6c6572206973206e6f7420746865206f776e657260448201526064016103fb565b6001600160a01b038416610d2c5760405162461bcd60e51b815260206004820152602160248201527f455243313135353a206d696e7420746f20746865207a65726f206164647265736044820152607360f81b60648201526084016103fb565b336000610d3885611396565b90506000610d4585611396565b90506000868152602081815260408083206001600160a01b038b16845290915281208054879290610d77908490611df7565b909155505060408051878152602081018790526001600160a01b03808a1692600092918716917fc3d58168c5ae7397731d063d5bbf3d657854427343f4c083240f7aacaa2d0f62910160405180910390a4610dd7836000898989896113e1565b50505050505050565b8151835114610e425760405162461bcd60e51b815260206004820152602860248201527f455243313135353a2069647320616e6420616d6f756e7473206c656e677468206044820152670dad2e6dac2e8c6d60c31b60648201526084016103fb565b6001600160a01b038416610e685760405162461bcd60e51b81526004016103fb90611ea5565b3360005b8451811015610f4f576000858281518110610e8957610e89611e5d565b602002602001015190506000858381518110610ea757610ea7611e5d565b602090810291909101810151600084815280835260408082206001600160a01b038e168352909352919091205490915081811015610ef75760405162461bcd60e51b81526004016103fb90611eea565b6000838152602081815260408083206001600160a01b038e8116855292528083208585039055908b16825281208054849290610f34908490611df7565b9250508190555050505080610f4890611e73565b9050610e6c565b50846001600160a01b0316866001600160a01b0316826001600160a01b03167f4a39dc06d4c0dbc64b70af90fd698a233a518aa5d07e595d983b8c0526c8f7fb8787604051610f9f929190611f34565b60405180910390a4610fb581878787878761153d565b505050505050565b600380546001600160a01b038381166001600160a01b0319831681179093556040519116919082907f8be0079c531659141344cd1fd0a4f28419497f9722a3daafe3b4186f6b6457e090600090a35050565b816001600160a01b0316836001600160a01b031614156110835760405162461bcd60e51b815260206004820152602960248201527f455243313135353a2073657474696e6720617070726f76616c20737461747573604482015268103337b91039b2b63360b91b60648201526084016103fb565b6001600160a01b03838116600081815260016020908152604080832094871680845294825291829020805460ff191686151590811790915591519182527f17307eab39ab6107e8899845ad3d59bd9653f200f220920489ca2b5937696c31910160405180910390a3505050565b6001600160a01b0384166111165760405162461bcd60e51b81526004016103fb90611ea5565b33600061112285611396565b9050600061112f85611396565b90506000868152602081815260408083206001600160a01b038c168452909152902054858110156111725760405162461bcd60e51b81526004016103fb90611eea565b6000878152602081815260408083206001600160a01b038d8116855292528083208985039055908a168252812080548892906111af908490611df7565b909155505060408051888152602081018890526001600160a01b03808b16928c821692918816917fc3d58168c5ae7397731d063d5bbf3d657854427343f4c083240f7aacaa2d0f62910160405180910390a461120f848a8a8a8a8a6113e1565b505050505050505050565b6001600160a01b03831661127c5760405162461bcd60e51b815260206004820152602360248201527f455243313135353a206275726e2066726f6d20746865207a65726f206164647260448201526265737360e81b60648201526084016103fb565b33600061128884611396565b9050600061129584611396565b60408051602080820183526000918290528882528181528282206001600160a01b038b168352905220549091508481101561131e5760405162461bcd60e51b8152602060048201526024808201527f455243313135353a206275726e20616d6f756e7420657863656564732062616c604482015263616e636560e01b60648201526084016103fb565b6000868152602081815260408083206001600160a01b038b81168086529184528285208a8703905582518b81529384018a90529092908816917fc3d58168c5ae7397731d063d5bbf3d657854427343f4c083240f7aacaa2d0f62910160405180910390a4604080516020810190915260009052610dd7565b604080516001808252818301909252606091600091906020808301908036833701905050905082816000815181106113d0576113d0611e5d565b602090810291909101015292915050565b6001600160a01b0384163b15610fb55760405163f23a6e6160e01b81526001600160a01b0385169063f23a6e61906114259089908990889088908890600401611f62565b6020604051808303816000875af1925050508015611460575060408051601f3d908101601f1916820190925261145d91810190611fa7565b60015b61150d5761146c611fc4565b806308c379a014156114a65750611481611fe0565b8061148c57506114a8565b8060405162461bcd60e51b81526004016103fb91906117cc565b505b60405162461bcd60e51b815260206004820152603460248201527f455243313135353a207472616e7366657220746f206e6f6e2d455243313135356044820152732932b1b2b4bb32b91034b6b83632b6b2b73a32b960611b60648201526084016103fb565b6001600160e01b0319811663f23a6e6160e01b14610dd75760405162461bcd60e51b81526004016103fb9061206a565b6001600160a01b0384163b15610fb55760405163bc197c8160e01b81526001600160a01b0385169063bc197c819061158190899089908890889088906004016120b2565b6020604051808303816000875af19250505080156115bc575060408051601f3d908101601f191682019092526115b991810190611fa7565b60015b6115c85761146c611fc4565b6001600160e01b0319811663bc197c8160e01b14610dd75760405162461bcd60e51b81526004016103fb9061206a565b82805461160490611da6565b90600052602060002090601f016020900481019282611626576000855561166c565b82601f1061163f57805160ff191683800117855561166c565b8280016001018555821561166c579182015b8281111561166c578251825591602001919060010190611651565b506116789291506116b6565b5090565b82805482825590600052602060002090810192821561166c579160200282018281111561166c578251825591602001919060010190611651565b5b8082111561167857600081556001016116b7565b80356001600160a01b03811681146116e257600080fd5b919050565b600080604083850312156116fa57600080fd5b611703836116cb565b946020939093013593505050565b6001600160e01b031981168114610bcf57600080fd5b60006020828403121561173957600080fd5b813561174481611711565b9392505050565b60006020828403121561175d57600080fd5b611744826116cb565b60006020828403121561177857600080fd5b5035919050565b6000815180845260005b818110156117a557602081850181015186830182015201611789565b818111156117b7576000602083870101525b50601f01601f19169290920160200192915050565b602081526000611744602083018461177f565b6000806000606084860312156117f457600080fd5b6117fd846116cb565b95602085013595506040909401359392505050565b60008083601f84011261182457600080fd5b50813567ffffffffffffffff81111561183c57600080fd5b6020830191508360208260051b850101111561185757600080fd5b9250929050565b600080600080600080600080600060c08a8c03121561187c57600080fd5b893567ffffffffffffffff8082111561189457600080fd5b818c0191508c601f8301126118a857600080fd5b8135818111156118b757600080fd5b8d60208285010111156118c957600080fd5b60209283019b509950908b0135975060408b0135965060608b013590808211156118f257600080fd5b6118fe8d838e01611812565b909750955060808c013591508082111561191757600080fd5b506119248c828d01611812565b9a9d999c50979a9699959894979660a00135949350505050565b634e487b7160e01b600052604160045260246000fd5b601f8201601f1916810167ffffffffffffffff8111828210171561197a5761197a61193e565b6040525050565b600067ffffffffffffffff82111561199b5761199b61193e565b5060051b60200190565b600082601f8301126119b657600080fd5b813560206119c382611981565b6040516119d08282611954565b83815260059390931b85018201928281019150868411156119f057600080fd5b8286015b84811015611a0b57803583529183019183016119f4565b509695505050505050565b600082601f830112611a2757600080fd5b813567ffffffffffffffff811115611a4157611a4161193e565b604051611a58601f8301601f191660200182611954565b818152846020838601011115611a6d57600080fd5b816020850160208301376000918101602001919091529392505050565b600080600080600060a08688031215611aa257600080fd5b611aab866116cb565b9450611ab9602087016116cb565b9350604086013567ffffffffffffffff80821115611ad657600080fd5b611ae289838a016119a5565b94506060880135915080821115611af857600080fd5b611b0489838a016119a5565b93506080880135915080821115611b1a57600080fd5b50611b2788828901611a16565b9150509295509295909350565b600081518084526020808501945080840160005b83811015611b6457815187529582019590820190600101611b48565b509495945050505050565b602081526000825160c06020840152611b8b60e084018261177f565b905060208401516040840152604084015160608401526060840151601f1980858403016080860152611bbd8383611b34565b925060808601519150808584030160a086015250611bdb8282611b34565b91505060a0840151151560c08401528091505092915050565b60008060408385031215611c0757600080fd5b823567ffffffffffffffff80821115611c1f57600080fd5b818501915085601f830112611c3357600080fd5b81356020611c4082611981565b604051611c4d8282611954565b83815260059390931b8501820192828101915089841115611c6d57600080fd5b948201945b83861015611c9257611c83866116cb565b82529482019490820190611c72565b96505086013592505080821115611ca857600080fd5b50611cb5858286016119a5565b9150509250929050565b6020815260006117446020830184611b34565b60008060408385031215611ce557600080fd5b611cee836116cb565b915060208301358015158114611d0357600080fd5b809150509250929050565b60008060408385031215611d2157600080fd5b611d2a836116cb565b9150611d38602084016116cb565b90509250929050565b600080600080600060a08688031215611d5957600080fd5b611d62866116cb565b9450611d70602087016116cb565b93506040860135925060608601359150608086013567ffffffffffffffff811115611d9a57600080fd5b611b2788828901611a16565b600181811c90821680611dba57607f821691505b60208210811415611ddb57634e487b7160e01b600052602260045260246000fd5b50919050565b634e487b7160e01b600052601160045260246000fd5b60008219821115611e0a57611e0a611de1565b500190565b6020808252602e908201527f455243313135353a2063616c6c6572206973206e6f7420746f6b656e206f776e60408201526d195c881bdc88185c1c1c9bdd995960921b606082015260800190565b634e487b7160e01b600052603260045260246000fd5b6000600019821415611e8757611e87611de1565b5060010190565b600082821015611ea057611ea0611de1565b500390565b60208082526025908201527f455243313135353a207472616e7366657220746f20746865207a65726f206164604082015264647265737360d81b606082015260800190565b6020808252602a908201527f455243313135353a20696e73756666696369656e742062616c616e636520666f60408201526939103a3930b739b332b960b11b606082015260800190565b604081526000611f476040830185611b34565b8281036020840152611f598185611b34565b95945050505050565b6001600160a01b03868116825285166020820152604081018490526060810183905260a060808201819052600090611f9c9083018461177f565b979650505050505050565b600060208284031215611fb957600080fd5b815161174481611711565b600060033d1115611fdd5760046000803e5060005160e01c5b90565b600060443d1015611fee5790565b6040516003193d81016004833e81513d67ffffffffffffffff816024840111818411171561201e57505050505090565b82850191508151818111156120365750505050505090565b843d87010160208285010111156120505750505050505090565b61205f60208286010187611954565b509095945050505050565b60208082526028908201527f455243313135353a204552433131353552656365697665722072656a656374656040820152676420746f6b656e7360c01b606082015260800190565b6001600160a01b0386811682528516602082015260a0604082018190526000906120de90830186611b34565b82810360608401526120f08186611b34565b90508281036080840152612104818561177f565b9897505050505050505056fea2646970667358221220501a376b32269436c51e04ea65a2fa8eaf48ebfc04ec4cfcedb3865723a2289f64736f6c634300080b0033",
  "immutableReferences": {},
  "source": "// SPDX-License-Identifier: MIT\n// Equipments Contract\npragma solidity ^0.8.0;\n\nimport \"@openzeppelin/contracts/access/Ownable.sol\";\nimport \"@openzeppelin/contracts/token/ERC1155/ERC1155.sol\";\n\nimport \"../library/LEquipments.sol\";\n\ncontract Equipments is ERC1155, Ownable {\n  address addressProxyContract;\n  uint256 equipmentCount;\n  mapping(uint256 => uint256) supplies;\n  mapping(uint256 => EquipmentsLib.Equipment) equipments;\n\n  constructor(string memory baseUri) ERC1155(baseUri) {}\n\n  ///@notice Very important function that we add on almost all the other functions to check that the call of the functions is done well from the delegation contract for more security\n  modifier byProxy() {\n    require(\n      (_msgSender() == addressProxyContract || addressProxyContract == address(0)),\n      \"Not good Proxy contract\"\n    );\n    _;\n  }\n\n  ///@notice create or update item\n  ///@param name name of equipment\n  ///@param rarity rarity to loot this equipment\n  ///@param price price of equipment in wei\n  ///@param id id of equipment you want to set\n  function setEquipment(\n    string calldata name,\n    uint256 rarity,\n    uint256 price,\n    uint256[] calldata itemsIdsCraft,\n    uint256[] calldata itemsQuantitiesCraft,\n    uint256 id\n  ) external onlyOwner {\n    require(itemsIdsCraft.length == itemsQuantitiesCraft.length, \"not good array length\");\n\n    if (equipments[id].valid == false) {\n      unchecked {\n        equipmentCount++;\n      }\n    }\n    equipments[id] = EquipmentsLib.Equipment(\n      name,\n      rarity,\n      price,\n      itemsIdsCraft,\n      itemsQuantitiesCraft,\n      true\n    );\n  }\n\n  function getSupply(uint256 tokenId) external view returns (uint256) {\n    return supplies[tokenId];\n  }\n\n  ///@notice modify the address of the delegation contract to allow the said contract to interact with this one\n  ///@param _address new address of delegation contract\n  function setaddressProxyContract(address _address) external onlyOwner {\n    addressProxyContract = _address;\n  }\n\n  ///@notice Function of mint token\n  ///@param to address of receiver's equipment\n  ///@param tokenId token id you want to mint\n  ///@param amount mint a quantity of equipment\n  function mint(address to, uint256 tokenId, uint256 amount) external payable byProxy {\n    supplies[tokenId] += amount;\n    _mint(to, tokenId, amount, \"\");\n  }\n\n  ///@notice Function of burn token\n  ///@param to address of burner's equipment\n  ///@param tokenId token id you want to burn\n  ///@param amount mint a quantity of equipment\n  function burn(address to, uint256 tokenId, uint256 amount) external byProxy {\n    supplies[tokenId] -= amount;\n    _burn(to, tokenId, amount);\n  }\n\n  ///@notice Get equipment structure detail\n  ///@param tokenId token id you want to return\n  ///@return equipment stucture Equipment attached to tokenId\n  function getEquipmentDetails(\n    uint256 tokenId\n  ) external view returns (EquipmentsLib.Equipment memory) {\n    return equipments[tokenId];\n  }\n}\n",
  "sourcePath": "/home/solid-solution/Bureau/HOMEWORK/MYOS/contracts/immutable/Equipments.sol",
  "compiler": {
    "name": "solc",
    "version": "0.8.11+commit.d7f03943.Emscripten.clang"
  },
  "schemaVersion": "3.4.10",
  "updatedAt": "2022-11-21T13:19:37.162Z",
  "devdoc": {
    "kind": "dev",
    "methods": {
      "balanceOf(address,uint256)": {
        "details": "See {IERC1155-balanceOf}. Requirements: - `account` cannot be the zero address."
      },
      "balanceOfBatch(address[],uint256[])": {
        "details": "See {IERC1155-balanceOfBatch}. Requirements: - `accounts` and `ids` must have the same length."
      },
      "burn(address,uint256,uint256)": {
        "params": {
          "amount": "mint a quantity of equipment",
          "to": "address of burner's equipment",
          "tokenId": "token id you want to burn"
        }
      },
      "getEquipmentDetails(uint256)": {
        "params": {
          "tokenId": "token id you want to return"
        },
        "returns": {
          "_0": "equipment stucture Equipment attached to tokenId"
        }
      },
      "isApprovedForAll(address,address)": {
        "details": "See {IERC1155-isApprovedForAll}."
      },
      "mint(address,uint256,uint256)": {
        "params": {
          "amount": "mint a quantity of equipment",
          "to": "address of receiver's equipment",
          "tokenId": "token id you want to mint"
        }
      },
      "owner()": {
        "details": "Returns the address of the current owner."
      },
      "renounceOwnership()": {
        "details": "Leaves the contract without owner. It will not be possible to call `onlyOwner` functions anymore. Can only be called by the current owner. NOTE: Renouncing ownership will leave the contract without an owner, thereby removing any functionality that is only available to the owner."
      },
      "safeBatchTransferFrom(address,address,uint256[],uint256[],bytes)": {
        "details": "See {IERC1155-safeBatchTransferFrom}."
      },
      "safeTransferFrom(address,address,uint256,uint256,bytes)": {
        "details": "See {IERC1155-safeTransferFrom}."
      },
      "setApprovalForAll(address,bool)": {
        "details": "See {IERC1155-setApprovalForAll}."
      },
      "setEquipment(string,uint256,uint256,uint256[],uint256[],uint256)": {
        "params": {
          "id": "id of equipment you want to set",
          "name": "name of equipment",
          "price": "price of equipment in wei",
          "rarity": "rarity to loot this equipment"
        }
      },
      "setaddressProxyContract(address)": {
        "params": {
          "_address": "new address of delegation contract"
        }
      },
      "supportsInterface(bytes4)": {
        "details": "See {IERC165-supportsInterface}."
      },
      "transferOwnership(address)": {
        "details": "Transfers ownership of the contract to a new account (`newOwner`). Can only be called by the current owner."
      },
      "uri(uint256)": {
        "details": "See {IERC1155MetadataURI-uri}. This implementation returns the same URI for *all* token types. It relies on the token type ID substitution mechanism https://eips.ethereum.org/EIPS/eip-1155#metadata[defined in the EIP]. Clients calling this function must replace the `\\{id\\}` substring with the actual token type ID."
      }
    },
    "version": 1
  },
  "userdoc": {
    "kind": "user",
    "methods": {
      "burn(address,uint256,uint256)": {
        "notice": "Function of burn token"
      },
      "getEquipmentDetails(uint256)": {
        "notice": "Get equipment structure detail"
      },
      "mint(address,uint256,uint256)": {
        "notice": "Function of mint token"
      },
      "setEquipment(string,uint256,uint256,uint256[],uint256[],uint256)": {
        "notice": "create or update item"
      },
      "setaddressProxyContract(address)": {
        "notice": "modify the address of the delegation contract to allow the said contract to interact with this one"
      }
    },
    "version": 1
  }
}