{
  "contractName": "Guild",
  "abi": [
    {
      "inputs": [
        {
          "internalType": "string",
          "name": "name",
          "type": "string"
        },
        {
          "internalType": "string",
          "name": "symbol",
          "type": "string"
        },
        {
          "internalType": "address payable",
          "name": "_owner",
          "type": "address"
        },
        {
          "internalType": "address",
          "name": "_myosAddress",
          "type": "address"
        },
        {
          "internalType": "uint256",
          "name": "_id",
          "type": "uint256"
        }
      ],
      "stateMutability": "nonpayable",
      "type": "constructor"
    },
    {
      "anonymous": false,
      "inputs": [
        {
          "indexed": true,
          "internalType": "address",
          "name": "owner",
          "type": "address"
        },
        {
          "indexed": true,
          "internalType": "address",
          "name": "spender",
          "type": "address"
        },
        {
          "indexed": false,
          "internalType": "uint256",
          "name": "value",
          "type": "uint256"
        }
      ],
      "name": "Approval",
      "type": "event"
    },
    {
      "anonymous": false,
      "inputs": [
        {
          "indexed": true,
          "internalType": "address",
          "name": "from",
          "type": "address"
        },
        {
          "indexed": true,
          "internalType": "address",
          "name": "to",
          "type": "address"
        },
        {
          "indexed": false,
          "internalType": "uint256",
          "name": "value",
          "type": "uint256"
        }
      ],
      "name": "Transfer",
      "type": "event"
    },
    {
      "inputs": [
        {
          "internalType": "address",
          "name": "owner",
          "type": "address"
        },
        {
          "internalType": "address",
          "name": "spender",
          "type": "address"
        }
      ],
      "name": "allowance",
      "outputs": [
        {
          "internalType": "uint256",
          "name": "",
          "type": "uint256"
        }
      ],
      "stateMutability": "view",
      "type": "function"
    },
    {
      "inputs": [
        {
          "internalType": "address",
          "name": "spender",
          "type": "address"
        },
        {
          "internalType": "uint256",
          "name": "amount",
          "type": "uint256"
        }
      ],
      "name": "approve",
      "outputs": [
        {
          "internalType": "bool",
          "name": "",
          "type": "bool"
        }
      ],
      "stateMutability": "nonpayable",
      "type": "function"
    },
    {
      "inputs": [
        {
          "internalType": "address",
          "name": "account",
          "type": "address"
        }
      ],
      "name": "balanceOf",
      "outputs": [
        {
          "internalType": "uint256",
          "name": "",
          "type": "uint256"
        }
      ],
      "stateMutability": "view",
      "type": "function"
    },
    {
      "inputs": [],
      "name": "decimals",
      "outputs": [
        {
          "internalType": "uint8",
          "name": "",
          "type": "uint8"
        }
      ],
      "stateMutability": "view",
      "type": "function"
    },
    {
      "inputs": [
        {
          "internalType": "address",
          "name": "spender",
          "type": "address"
        },
        {
          "internalType": "uint256",
          "name": "subtractedValue",
          "type": "uint256"
        }
      ],
      "name": "decreaseAllowance",
      "outputs": [
        {
          "internalType": "bool",
          "name": "",
          "type": "bool"
        }
      ],
      "stateMutability": "nonpayable",
      "type": "function"
    },
    {
      "inputs": [
        {
          "internalType": "address",
          "name": "spender",
          "type": "address"
        },
        {
          "internalType": "uint256",
          "name": "addedValue",
          "type": "uint256"
        }
      ],
      "name": "increaseAllowance",
      "outputs": [
        {
          "internalType": "bool",
          "name": "",
          "type": "bool"
        }
      ],
      "stateMutability": "nonpayable",
      "type": "function"
    },
    {
      "inputs": [],
      "name": "name",
      "outputs": [
        {
          "internalType": "string",
          "name": "",
          "type": "string"
        }
      ],
      "stateMutability": "view",
      "type": "function"
    },
    {
      "inputs": [],
      "name": "symbol",
      "outputs": [
        {
          "internalType": "string",
          "name": "",
          "type": "string"
        }
      ],
      "stateMutability": "view",
      "type": "function"
    },
    {
      "inputs": [],
      "name": "totalSupply",
      "outputs": [
        {
          "internalType": "uint256",
          "name": "",
          "type": "uint256"
        }
      ],
      "stateMutability": "view",
      "type": "function"
    },
    {
      "inputs": [
        {
          "internalType": "address",
          "name": "recipient",
          "type": "address"
        },
        {
          "internalType": "uint256",
          "name": "amount",
          "type": "uint256"
        }
      ],
      "name": "transfer",
      "outputs": [
        {
          "internalType": "bool",
          "name": "",
          "type": "bool"
        }
      ],
      "stateMutability": "nonpayable",
      "type": "function"
    },
    {
      "inputs": [
        {
          "internalType": "address",
          "name": "sender",
          "type": "address"
        },
        {
          "internalType": "address",
          "name": "recipient",
          "type": "address"
        },
        {
          "internalType": "uint256",
          "name": "amount",
          "type": "uint256"
        }
      ],
      "name": "transferFrom",
      "outputs": [
        {
          "internalType": "bool",
          "name": "",
          "type": "bool"
        }
      ],
      "stateMutability": "nonpayable",
      "type": "function"
    },
    {
      "inputs": [
        {
          "internalType": "uint8",
          "name": "_id",
          "type": "uint8"
        },
        {
          "internalType": "bool",
          "name": "valid",
          "type": "bool"
        },
        {
          "internalType": "bool",
          "name": "write",
          "type": "bool"
        },
        {
          "internalType": "bool",
          "name": "read",
          "type": "bool"
        },
        {
          "internalType": "bool",
          "name": "invit",
          "type": "bool"
        },
        {
          "internalType": "bool",
          "name": "desinvit",
          "type": "bool"
        },
        {
          "internalType": "bool",
          "name": "sendMoney",
          "type": "bool"
        },
        {
          "internalType": "bool",
          "name": "takeMoney",
          "type": "bool"
        },
        {
          "internalType": "bool",
          "name": "graduate",
          "type": "bool"
        },
        {
          "internalType": "string",
          "name": "name",
          "type": "string"
        }
      ],
      "name": "setGrade",
      "outputs": [],
      "stateMutability": "nonpayable",
      "type": "function"
    },
    {
      "inputs": [
        {
          "internalType": "uint8",
          "name": "_id",
          "type": "uint8"
        }
      ],
      "name": "getGrade",
      "outputs": [
        {
          "components": [
            {
              "internalType": "bool",
              "name": "valid",
              "type": "bool"
            },
            {
              "internalType": "bool",
              "name": "write",
              "type": "bool"
            },
            {
              "internalType": "bool",
              "name": "read",
              "type": "bool"
            },
            {
              "internalType": "bool",
              "name": "invit",
              "type": "bool"
            },
            {
              "internalType": "bool",
              "name": "desinvit",
              "type": "bool"
            },
            {
              "internalType": "bool",
              "name": "sendMoney",
              "type": "bool"
            },
            {
              "internalType": "bool",
              "name": "takeMoney",
              "type": "bool"
            },
            {
              "internalType": "bool",
              "name": "graduate",
              "type": "bool"
            },
            {
              "internalType": "string",
              "name": "name",
              "type": "string"
            }
          ],
          "internalType": "struct Guild.Grade",
          "name": "",
          "type": "tuple"
        }
      ],
      "stateMutability": "view",
      "type": "function"
    },
    {
      "inputs": [
        {
          "internalType": "string",
          "name": "description",
          "type": "string"
        }
      ],
      "name": "suscribe",
      "outputs": [],
      "stateMutability": "nonpayable",
      "type": "function"
    },
    {
      "inputs": [
        {
          "internalType": "uint256",
          "name": "invit",
          "type": "uint256"
        }
      ],
      "name": "unsuscribe",
      "outputs": [],
      "stateMutability": "nonpayable",
      "type": "function"
    },
    {
      "inputs": [
        {
          "internalType": "uint256",
          "name": "invit",
          "type": "uint256"
        }
      ],
      "name": "getOneSubscription",
      "outputs": [
        {
          "components": [
            {
              "internalType": "bool",
              "name": "valid",
              "type": "bool"
            },
            {
              "internalType": "address",
              "name": "addr",
              "type": "address"
            },
            {
              "internalType": "string",
              "name": "description",
              "type": "string"
            }
          ],
          "internalType": "struct Guild.Invit",
          "name": "",
          "type": "tuple"
        }
      ],
      "stateMutability": "view",
      "type": "function"
    },
    {
      "inputs": [],
      "name": "getAllSubscriptionStruct",
      "outputs": [
        {
          "components": [
            {
              "internalType": "bool",
              "name": "valid",
              "type": "bool"
            },
            {
              "internalType": "address",
              "name": "addr",
              "type": "address"
            },
            {
              "internalType": "string",
              "name": "description",
              "type": "string"
            }
          ],
          "internalType": "struct Guild.Invit[]",
          "name": "",
          "type": "tuple[]"
        }
      ],
      "stateMutability": "view",
      "type": "function"
    },
    {
      "inputs": [
        {
          "internalType": "address",
          "name": "_to",
          "type": "address"
        }
      ],
      "name": "addMember",
      "outputs": [],
      "stateMutability": "nonpayable",
      "type": "function"
    },
    {
      "inputs": [
        {
          "internalType": "address",
          "name": "_to",
          "type": "address"
        },
        {
          "internalType": "uint8",
          "name": "grade",
          "type": "uint8"
        }
      ],
      "name": "changeGrade",
      "outputs": [],
      "stateMutability": "nonpayable",
      "type": "function"
    },
    {
      "inputs": [
        {
          "internalType": "address",
          "name": "_to",
          "type": "address"
        }
      ],
      "name": "subMember",
      "outputs": [],
      "stateMutability": "nonpayable",
      "type": "function"
    },
    {
      "inputs": [],
      "name": "getAllMembers",
      "outputs": [
        {
          "components": [
            {
              "internalType": "bool",
              "name": "valid",
              "type": "bool"
            },
            {
              "internalType": "uint8",
              "name": "grade",
              "type": "uint8"
            },
            {
              "internalType": "uint256",
              "name": "createdAt",
              "type": "uint256"
            },
            {
              "internalType": "uint256",
              "name": "chestETH",
              "type": "uint256"
            },
            {
              "internalType": "address",
              "name": "addBy",
              "type": "address"
            },
            {
              "internalType": "address",
              "name": "addressMember",
              "type": "address"
            }
          ],
          "internalType": "struct Guild.Member[]",
          "name": "",
          "type": "tuple[]"
        }
      ],
      "stateMutability": "view",
      "type": "function"
    },
    {
      "inputs": [
        {
          "internalType": "address",
          "name": "user",
          "type": "address"
        }
      ],
      "name": "getOneMember",
      "outputs": [
        {
          "components": [
            {
              "internalType": "bool",
              "name": "valid",
              "type": "bool"
            },
            {
              "internalType": "uint8",
              "name": "grade",
              "type": "uint8"
            },
            {
              "internalType": "uint256",
              "name": "createdAt",
              "type": "uint256"
            },
            {
              "internalType": "uint256",
              "name": "chestETH",
              "type": "uint256"
            },
            {
              "internalType": "address",
              "name": "addBy",
              "type": "address"
            },
            {
              "internalType": "address",
              "name": "addressMember",
              "type": "address"
            }
          ],
          "internalType": "struct Guild.Member",
          "name": "",
          "type": "tuple"
        }
      ],
      "stateMutability": "view",
      "type": "function"
    },
    {
      "inputs": [
        {
          "internalType": "bool",
          "name": "valid",
          "type": "bool"
        },
        {
          "internalType": "uint256",
          "name": "member",
          "type": "uint256"
        }
      ],
      "name": "validMember",
      "outputs": [],
      "stateMutability": "nonpayable",
      "type": "function"
    },
    {
      "inputs": [],
      "name": "sendETHInChest",
      "outputs": [],
      "stateMutability": "payable",
      "type": "function"
    },
    {
      "inputs": [
        {
          "internalType": "uint256",
          "name": "value",
          "type": "uint256"
        }
      ],
      "name": "withdrawETHMyChest",
      "outputs": [],
      "stateMutability": "nonpayable",
      "type": "function"
    },
    {
      "inputs": [],
      "name": "kill",
      "outputs": [],
      "stateMutability": "nonpayable",
      "type": "function"
    },
    {
      "inputs": [],
      "name": "getId",
      "outputs": [
        {
          "internalType": "uint256",
          "name": "",
          "type": "uint256"
        }
      ],
      "stateMutability": "view",
      "type": "function"
    },
    {
      "inputs": [
        {
          "internalType": "address",
          "name": "_owner",
          "type": "address"
        }
      ],
      "name": "isOwner",
      "outputs": [
        {
          "internalType": "bool",
          "name": "",
          "type": "bool"
        }
      ],
      "stateMutability": "view",
      "type": "function"
    }
  ],
  "bytecode": "0x60806040523480156200001157600080fd5b5060405162004e2938038062004e29833981810160405281019062000037919062000268565b848481600390805190602001906200005192919062000101565b5080600490805190602001906200006a92919062000101565b50505082600c60006101000a81548173ffffffffffffffffffffffffffffffffffffffff021916908373ffffffffffffffffffffffffffffffffffffffff16021790555081600d60006101000a81548173ffffffffffffffffffffffffffffffffffffffff021916908373ffffffffffffffffffffffffffffffffffffffff160217905550806008819055505050505050620004ed565b8280546200010f906200040b565b90600052602060002090601f0160209004810192826200013357600085556200017f565b82601f106200014e57805160ff19168380011785556200017f565b828001600101855582156200017f579182015b828111156200017e57825182559160200191906001019062000161565b5b5090506200018e919062000192565b5090565b5b80821115620001ad57600081600090555060010162000193565b5090565b6000620001c8620001c28462000350565b6200031c565b905082815260208101848484011115620001e157600080fd5b620001ee848285620003d5565b509392505050565b60008151905062000207816200049f565b92915050565b6000815190506200021e81620004b9565b92915050565b600082601f8301126200023657600080fd5b815162000248848260208601620001b1565b91505092915050565b6000815190506200026281620004d3565b92915050565b600080600080600060a086880312156200028157600080fd5b600086015167ffffffffffffffff8111156200029c57600080fd5b620002aa8882890162000224565b955050602086015167ffffffffffffffff811115620002c857600080fd5b620002d68882890162000224565b9450506040620002e9888289016200020d565b9350506060620002fc88828901620001f6565b92505060806200030f8882890162000251565b9150509295509295909350565b6000604051905081810181811067ffffffffffffffff8211171562000346576200034562000470565b5b8060405250919050565b600067ffffffffffffffff8211156200036e576200036d62000470565b5b601f19601f8301169050602081019050919050565b60006200039082620003ab565b9050919050565b6000620003a482620003ab565b9050919050565b600073ffffffffffffffffffffffffffffffffffffffff82169050919050565b6000819050919050565b60005b83811015620003f5578082015181840152602081019050620003d8565b8381111562000405576000848401525b50505050565b600060028204905060018216806200042457607f821691505b602082108114156200043b576200043a62000441565b5b50919050565b7f4e487b7100000000000000000000000000000000000000000000000000000000600052602260045260246000fd5b7f4e487b7100000000000000000000000000000000000000000000000000000000600052604160045260246000fd5b620004aa8162000383565b8114620004b657600080fd5b50565b620004c48162000397565b8114620004d057600080fd5b50565b620004de81620003cb565b8114620004ea57600080fd5b50565b61492c80620004fd6000396000f3fe6080604052600436106101b75760003560e01c806372a2377f116100ec578063c7f067441161008a578063cd9f092111610064578063cd9f092114610644578063dd62ed3e1461064e578063f798e5251461068b578063fd0232b2146106b4576101b7565b8063c7f06744146105b5578063ca6d56dc146105de578063ccf25b4d14610607576101b7565b806399103d1f116100c657806399103d1f146104e9578063a457c2d714610512578063a9059cbb1461054f578063aa887bb61461058c576101b7565b806372a2377f1461046a5780637c0f6b351461049357806395d89b41146104be576101b7565b8063405664881161015957806355f6e5071161013357806355f6e5071461039c5780635d1ca631146103d95780636586737a1461040457806370a082311461042d576101b7565b8063405664881461033157806341c0e1b51461035c57806344a96ce014610373576101b7565b806323b872dd1161019557806323b872dd1461024f5780632f54bf6e1461028c578063313ce567146102c957806339509351146102f4576101b7565b806306fdde03146101bc578063095ea7b3146101e757806318160ddd14610224575b600080fd5b3480156101c857600080fd5b506101d16106f1565b6040516101de91906142dd565b60405180910390f35b3480156101f357600080fd5b5061020e600480360381019061020991906136b9565b610783565b60405161021b91906142c2565b60405180910390f35b34801561023057600080fd5b506102396107a1565b604051610246919061455e565b60405180910390f35b34801561025b57600080fd5b506102766004803603810190610271919061366a565b6107ab565b60405161028391906142c2565b60405180910390f35b34801561029857600080fd5b506102b360048036038101906102ae9190613605565b6108a3565b6040516102c091906142c2565b60405180910390f35b3480156102d557600080fd5b506102de6108fd565b6040516102eb9190614579565b60405180910390f35b34801561030057600080fd5b5061031b600480360381019061031691906136b9565b610906565b60405161032891906142c2565b60405180910390f35b34801561033d57600080fd5b506103466109b2565b604051610353919061427e565b60405180910390f35b34801561036857600080fd5b50610371610c86565b005b34801561037f57600080fd5b5061039a60048036038101906103959190613731565b610da9565b005b3480156103a857600080fd5b506103c360048036038101906103be9190613605565b610ec3565b6040516103d09190614543565b60405180910390f35b3480156103e557600080fd5b506103ee611080565b6040516103fb919061455e565b60405180910390f35b34801561041057600080fd5b5061042b6004803603810190610426919061376d565b61108a565b005b34801561043957600080fd5b50610454600480360381019061044f9190613605565b611175565b604051610461919061455e565b60405180910390f35b34801561047657600080fd5b50610491600480360381019061048c91906137ae565b6111bd565b005b34801561049f57600080fd5b506104a8611420565b6040516104b591906142a0565b60405180910390f35b3480156104ca57600080fd5b506104d36116e9565b6040516104e091906142dd565b60405180910390f35b3480156104f557600080fd5b50610510600480360381019061050b9190613800565b61177b565b005b34801561051e57600080fd5b50610539600480360381019061053491906136b9565b611a4e565b60405161054691906142c2565b60405180910390f35b34801561055b57600080fd5b50610576600480360381019061057191906136b9565b611b39565b60405161058391906142c2565b60405180910390f35b34801561059857600080fd5b506105b360048036038101906105ae9190613605565b611b57565b005b3480156105c157600080fd5b506105dc60048036038101906105d791906137ae565b61203c565b005b3480156105ea57600080fd5b5061060560048036038101906106009190613605565b6121de565b005b34801561061357600080fd5b5061062e600480360381019061062991906137d7565b6125d7565b60405161063b91906144ff565b60405180910390f35b61064c612775565b005b34801561065a57600080fd5b506106756004803603810190610670919061362e565b6128a3565b604051610682919061455e565b60405180910390f35b34801561069757600080fd5b506106b260048036038101906106ad91906136f5565b61292a565b005b3480156106c057600080fd5b506106db60048036038101906106d691906137ae565b612db2565b6040516106e89190614521565b60405180910390f35b60606003805461070090614781565b80601f016020809104026020016040519081016040528092919081815260200182805461072c90614781565b80156107795780601f1061074e57610100808354040283529160200191610779565b820191906000526020600020905b81548152906001019060200180831161075c57829003601f168201915b5050505050905090565b6000610797610790612f4c565b8484612f54565b6001905092915050565b6000600254905090565b60006107b884848461311f565b6000600160008673ffffffffffffffffffffffffffffffffffffffff1673ffffffffffffffffffffffffffffffffffffffff1681526020019081526020016000206000610803612f4c565b73ffffffffffffffffffffffffffffffffffffffff1673ffffffffffffffffffffffffffffffffffffffff16815260200190815260200160002054905082811015610883576040517f08c379a000000000000000000000000000000000000000000000000000000000815260040161087a9061441f565b60405180910390fd5b6108978561088f612f4c565b858403612f54565b60019150509392505050565b6000600c60009054906101000a900473ffffffffffffffffffffffffffffffffffffffff1673ffffffffffffffffffffffffffffffffffffffff168273ffffffffffffffffffffffffffffffffffffffff16149050919050565b60006012905090565b60006109a8610913612f4c565b848460016000610921612f4c565b73ffffffffffffffffffffffffffffffffffffffff1673ffffffffffffffffffffffffffffffffffffffff16815260200190815260200160002060008873ffffffffffffffffffffffffffffffffffffffff1673ffffffffffffffffffffffffffffffffffffffff168152602001908152602001600020546109a39190614694565b612f54565b6001905092915050565b60606000600b541415610a4157600067ffffffffffffffff811115610a00577f4e487b7100000000000000000000000000000000000000000000000000000000600052604160045260246000fd5b604051908082528060200260200182016040528015610a3957816020015b610a266133aa565b815260200190600190039081610a1e5790505b509050610c83565b6000600b5467ffffffffffffffff811115610a85577f4e487b7100000000000000000000000000000000000000000000000000000000600052604160045260246000fd5b604051908082528060200260200182016040528015610abe57816020015b610aab6133aa565b815260200190600190039081610aa35790505b50905060005b600b54811015610c7d57600115156007600083815260200190815260200160002060000160009054906101000a900460ff1615151415610c6a576000600760008381526020019081526020016000209050806040518060600160405290816000820160009054906101000a900460ff161515151581526020016000820160019054906101000a900473ffffffffffffffffffffffffffffffffffffffff1673ffffffffffffffffffffffffffffffffffffffff1673ffffffffffffffffffffffffffffffffffffffff168152602001600182018054610ba290614781565b80601f0160208091040260200160405190810160405280929190818152602001828054610bce90614781565b8015610c1b5780601f10610bf057610100808354040283529160200191610c1b565b820191906000526020600020905b815481529060010190602001808311610bfe57829003601f168201915b505050505081525050838381518110610c5d577f4e487b7100000000000000000000000000000000000000000000000000000000600052603260045260246000fd5b6020026020010181905250505b8080610c75906147b3565b915050610ac4565b50809150505b90565b600c60009054906101000a900473ffffffffffffffffffffffffffffffffffffffff1673ffffffffffffffffffffffffffffffffffffffff163373ffffffffffffffffffffffffffffffffffffffff161480610d2f5750600d60009054906101000a900473ffffffffffffffffffffffffffffffffffffffff1673ffffffffffffffffffffffffffffffffffffffff163373ffffffffffffffffffffffffffffffffffffffff16145b610d6e576040517f08c379a0000000000000000000000000000000000000000000000000000000008152600401610d65906144bf565b60405180910390fd5b600c60009054906101000a900473ffffffffffffffffffffffffffffffffffffffff1673ffffffffffffffffffffffffffffffffffffffff16ff5b600c60009054906101000a900473ffffffffffffffffffffffffffffffffffffffff1673ffffffffffffffffffffffffffffffffffffffff163373ffffffffffffffffffffffffffffffffffffffff161480610e525750600d60009054906101000a900473ffffffffffffffffffffffffffffffffffffffff1673ffffffffffffffffffffffffffffffffffffffff163373ffffffffffffffffffffffffffffffffffffffff16145b610e91576040517f08c379a0000000000000000000000000000000000000000000000000000000008152600401610e88906144bf565b60405180910390fd5b816006600083815260200190815260200160002060000160006101000a81548160ff0219169083151502179055505050565b610ecb6133e3565b610ed36133e3565b60005b600a54811015611076578373ffffffffffffffffffffffffffffffffffffffff166006600083815260200190815260200160002060040160009054906101000a900473ffffffffffffffffffffffffffffffffffffffff1673ffffffffffffffffffffffffffffffffffffffff16141561106357600660008281526020019081526020016000206040518060c00160405290816000820160009054906101000a900460ff161515151581526020016000820160019054906101000a900460ff1660ff1660ff16815260200160018201548152602001600282015481526020016003820160009054906101000a900473ffffffffffffffffffffffffffffffffffffffff1673ffffffffffffffffffffffffffffffffffffffff1673ffffffffffffffffffffffffffffffffffffffff1681526020016004820160009054906101000a900473ffffffffffffffffffffffffffffffffffffffff1673ffffffffffffffffffffffffffffffffffffffff1673ffffffffffffffffffffffffffffffffffffffff168152505091505b808061106e906147b3565b915050610ed6565b5080915050919050565b6000600854905090565b60405180606001604052806001151581526020013373ffffffffffffffffffffffffffffffffffffffff1681526020018281525060076000600b54815260200190815260200160002060008201518160000160006101000a81548160ff02191690831515021790555060208201518160000160016101000a81548173ffffffffffffffffffffffffffffffffffffffff021916908373ffffffffffffffffffffffffffffffffffffffff160217905550604082015181600101908051906020019061115692919061344a565b50905050600b600081548092919061116d906147b3565b919050555050565b60008060008373ffffffffffffffffffffffffffffffffffffffff1673ffffffffffffffffffffffffffffffffffffffff168152602001908152602001600020549050919050565b600115156007600083815260200190815260200160002060000160009054906101000a900460ff16151514611227576040517f08c379a000000000000000000000000000000000000000000000000000000000815260040161121e9061433f565b60405180910390fd5b600080600090505b600a548110156112ba573373ffffffffffffffffffffffffffffffffffffffff166006600083815260200190815260200160002060040160009054906101000a900473ffffffffffffffffffffffffffffffffffffffff1673ffffffffffffffffffffffffffffffffffffffff1614156112a7578091505b80806112b2906147b3565b91505061122f565b503373ffffffffffffffffffffffffffffffffffffffff166007600084815260200190815260200160002060000160019054906101000a900473ffffffffffffffffffffffffffffffffffffffff1673ffffffffffffffffffffffffffffffffffffffff1614806113ae5750600115156006600083815260200190815260200160002060000160009054906101000a900460ff1615151480156113ad575060011515600560006006600085815260200190815260200160002060000160019054906101000a900460ff1660ff1660ff16815260200190815260200160002060000160049054906101000a900460ff161515145b5b6113ed576040517f08c379a00000000000000000000000000000000000000000000000000000000081526004016113e49061435f565b60405180910390fd5b60006007600084815260200190815260200160002060000160006101000a81548160ff0219169083151502179055505050565b60606000600a5414156114af57600067ffffffffffffffff81111561146e577f4e487b7100000000000000000000000000000000000000000000000000000000600052604160045260246000fd5b6040519080825280602002602001820160405280156114a757816020015b6114946133e3565b81526020019060019003908161148c5790505b5090506116e6565b6000600a5467ffffffffffffffff8111156114f3577f4e487b7100000000000000000000000000000000000000000000000000000000600052604160045260246000fd5b60405190808252806020026020018201604052801561152c57816020015b6115196133e3565b8152602001906001900390816115115790505b50905060005b600a548110156116e057600115156006600083815260200190815260200160002060000160009054906101000a900460ff16151514156116cd576000600660008381526020019081526020016000209050806040518060c00160405290816000820160009054906101000a900460ff161515151581526020016000820160019054906101000a900460ff1660ff1660ff16815260200160018201548152602001600282015481526020016003820160009054906101000a900473ffffffffffffffffffffffffffffffffffffffff1673ffffffffffffffffffffffffffffffffffffffff1673ffffffffffffffffffffffffffffffffffffffff1681526020016004820160009054906101000a900473ffffffffffffffffffffffffffffffffffffffff1673ffffffffffffffffffffffffffffffffffffffff1673ffffffffffffffffffffffffffffffffffffffff16815250508383815181106116c0577f4e487b7100000000000000000000000000000000000000000000000000000000600052603260045260246000fd5b6020026020010181905250505b80806116d8906147b3565b915050611532565b50809150505b90565b6060600480546116f890614781565b80601f016020809104026020016040519081016040528092919081815260200182805461172490614781565b80156117715780601f1061174657610100808354040283529160200191611771565b820191906000526020600020905b81548152906001019060200180831161175457829003601f168201915b5050505050905090565b600c60009054906101000a900473ffffffffffffffffffffffffffffffffffffffff1673ffffffffffffffffffffffffffffffffffffffff163373ffffffffffffffffffffffffffffffffffffffff1614806118245750600d60009054906101000a900473ffffffffffffffffffffffffffffffffffffffff1673ffffffffffffffffffffffffffffffffffffffff163373ffffffffffffffffffffffffffffffffffffffff16145b611863576040517f08c379a000000000000000000000000000000000000000000000000000000000815260040161185a906144bf565b60405180910390fd5b60008a60ff161180156118795750600a8a60ff16105b6118b8576040517f08c379a00000000000000000000000000000000000000000000000000000000081526004016118af9061445f565b60405180910390fd5b6040518061012001604052808a15158152602001891515815260200188151581526020018715158152602001861515815260200185151581526020018415158152602001831515815260200182815250600560008c60ff1660ff16815260200190815260200160002060008201518160000160006101000a81548160ff02191690831515021790555060208201518160000160016101000a81548160ff02191690831515021790555060408201518160000160026101000a81548160ff02191690831515021790555060608201518160000160036101000a81548160ff02191690831515021790555060808201518160000160046101000a81548160ff02191690831515021790555060a08201518160000160056101000a81548160ff02191690831515021790555060c08201518160000160066101000a81548160ff02191690831515021790555060e08201518160000160076101000a81548160ff021916908315150217905550610100820151816001019080519060200190611a3e92919061344a565b5090505050505050505050505050565b60008060016000611a5d612f4c565b73ffffffffffffffffffffffffffffffffffffffff1673ffffffffffffffffffffffffffffffffffffffff16815260200190815260200160002060008573ffffffffffffffffffffffffffffffffffffffff1673ffffffffffffffffffffffffffffffffffffffff16815260200190815260200160002054905082811015611b1a576040517f08c379a0000000000000000000000000000000000000000000000000000000008152600401611b11906144df565b60405180910390fd5b611b2e611b25612f4c565b85858403612f54565b600191505092915050565b6000611b4d611b46612f4c565b848461311f565b6001905092915050565b60008060005b600a54811015611c56573373ffffffffffffffffffffffffffffffffffffffff166006600083815260200190815260200160002060040160009054906101000a900473ffffffffffffffffffffffffffffffffffffffff1673ffffffffffffffffffffffffffffffffffffffff161415611bd5578092505b8373ffffffffffffffffffffffffffffffffffffffff166006600083815260200190815260200160002060040160009054906101000a900473ffffffffffffffffffffffffffffffffffffffff1673ffffffffffffffffffffffffffffffffffffffff161415611c43578091505b8080611c4e906147b3565b915050611b5d565b5060011515600560006006600086815260200190815260200160002060000160019054906101000a900460ff1660ff1660ff16815260200190815260200160002060000160049054906101000a900460ff1615151480611d035750600c60009054906101000a900473ffffffffffffffffffffffffffffffffffffffff1673ffffffffffffffffffffffffffffffffffffffff163373ffffffffffffffffffffffffffffffffffffffff16145b80611d5b5750600d60009054906101000a900473ffffffffffffffffffffffffffffffffffffffff1673ffffffffffffffffffffffffffffffffffffffff163373ffffffffffffffffffffffffffffffffffffffff16145b611d9a576040517f08c379a0000000000000000000000000000000000000000000000000000000008152600401611d91906143ff565b60405180910390fd5b6006600082815260200190815260200160002060000160019054906101000a900460ff1660ff166006600084815260200190815260200160002060000160019054906101000a900460ff1660ff161180611e415750600c60009054906101000a900473ffffffffffffffffffffffffffffffffffffffff1673ffffffffffffffffffffffffffffffffffffffff163373ffffffffffffffffffffffffffffffffffffffff16145b80611e995750600d60009054906101000a900473ffffffffffffffffffffffffffffffffffffffff1673ffffffffffffffffffffffffffffffffffffffff163373ffffffffffffffffffffffffffffffffffffffff16145b611ed8576040517f08c379a0000000000000000000000000000000000000000000000000000000008152600401611ecf906143df565b60405180910390fd5b600115156006600083815260200190815260200160002060000160009054906101000a900460ff161515148015611f365750600115156006600084815260200190815260200160002060000160009054906101000a900460ff161515145b611f75576040517f08c379a0000000000000000000000000000000000000000000000000000000008152600401611f6c9061443f565b60405180910390fd5b6006600082815260200190815260200160002060040160009054906101000a900473ffffffffffffffffffffffffffffffffffffffff1673ffffffffffffffffffffffffffffffffffffffff166108fc60066000848152602001908152602001600020600201549081150290604051600060405180830381858888f19350505050158015612007573d6000803e3d6000fd5b5060006006600083815260200190815260200160002060000160006101000a81548160ff021916908315150217905550505050565b600080600090505b600a548110156120cf573373ffffffffffffffffffffffffffffffffffffffff166006600083815260200190815260200160002060040160009054906101000a900473ffffffffffffffffffffffffffffffffffffffff1673ffffffffffffffffffffffffffffffffffffffff1614156120bc578091505b80806120c7906147b3565b915050612044565b50600115156006600083815260200190815260200160002060000160009054906101000a900460ff1615151461213a576040517f08c379a00000000000000000000000000000000000000000000000000000000081526004016121319061443f565b60405180910390fd5b8160066000838152602001908152602001600020600201541015612193576040517f08c379a000000000000000000000000000000000000000000000000000000000815260040161218a9061439f565b60405180910390fd5b3373ffffffffffffffffffffffffffffffffffffffff166108fc839081150290604051600060405180830381858888f193505050501580156121d9573d6000803e3d6000fd5b505050565b60008060005b600a5481101561226f573373ffffffffffffffffffffffffffffffffffffffff166006600083815260200190815260200160002060040160009054906101000a900473ffffffffffffffffffffffffffffffffffffffff1673ffffffffffffffffffffffffffffffffffffffff16141561225c578092505b8080612267906147b3565b9150506121e4565b5060005b600b548110156122fe578373ffffffffffffffffffffffffffffffffffffffff166007600083815260200190815260200160002060000160019054906101000a900473ffffffffffffffffffffffffffffffffffffffff1673ffffffffffffffffffffffffffffffffffffffff1614156122eb578091505b80806122f6906147b3565b915050612273565b50600115156006600083815260200190815260200160002060000160009054906101000a900460ff16151514612369576040517f08c379a00000000000000000000000000000000000000000000000000000000081526004016123609061431f565b60405180910390fd5b600115156006600084815260200190815260200160002060000160009054906101000a900460ff1615151480156123f0575060011515600560006006600086815260200190815260200160002060000160019054906101000a900460ff1660ff1660ff16815260200190815260200160002060000160039054906101000a900460ff161515145b61242f576040517f08c379a00000000000000000000000000000000000000000000000000000000081526004016124269061435f565b60405180910390fd5b6040518060c00160405280600015158152602001600060ff168152602001428152602001600081526020013373ffffffffffffffffffffffffffffffffffffffff1681526020018473ffffffffffffffffffffffffffffffffffffffff1681525060066000600954815260200190815260200160002060008201518160000160006101000a81548160ff02191690831515021790555060208201518160000160016101000a81548160ff021916908360ff160217905550604082015181600101556060820151816002015560808201518160030160006101000a81548173ffffffffffffffffffffffffffffffffffffffff021916908373ffffffffffffffffffffffffffffffffffffffff16021790555060a08201518160040160006101000a81548173ffffffffffffffffffffffffffffffffffffffff021916908373ffffffffffffffffffffffffffffffffffffffff16021790555090505060006006600083815260200190815260200160002060000160006101000a81548160ff021916908315150217905550600960008154809291906125cd906147b3565b9190505550505050565b6125df6134d0565b600560008360ff1660ff168152602001908152602001600020604051806101200160405290816000820160009054906101000a900460ff161515151581526020016000820160019054906101000a900460ff161515151581526020016000820160029054906101000a900460ff161515151581526020016000820160039054906101000a900460ff161515151581526020016000820160049054906101000a900460ff161515151581526020016000820160059054906101000a900460ff161515151581526020016000820160069054906101000a900460ff161515151581526020016000820160079054906101000a900460ff161515151581526020016001820180546126ec90614781565b80601f016020809104026020016040519081016040528092919081815260200182805461271890614781565b80156127655780601f1061273a57610100808354040283529160200191612765565b820191906000526020600020905b81548152906001019060200180831161274857829003601f168201915b5050505050815250509050919050565b600080600090505b600a54811015612808573373ffffffffffffffffffffffffffffffffffffffff166006600083815260200190815260200160002060040160009054906101000a900473ffffffffffffffffffffffffffffffffffffffff1673ffffffffffffffffffffffffffffffffffffffff1614156127f5578091505b8080612800906147b3565b91505061277d565b50600115156006600083815260200190815260200160002060000160009054906101000a900460ff16151514612873576040517f08c379a000000000000000000000000000000000000000000000000000000000815260040161286a9061443f565b60405180910390fd5b346006600083815260200190815260200160002060020160008282546128999190614694565b9250508190555050565b6000600160008473ffffffffffffffffffffffffffffffffffffffff1673ffffffffffffffffffffffffffffffffffffffff16815260200190815260200160002060008373ffffffffffffffffffffffffffffffffffffffff1673ffffffffffffffffffffffffffffffffffffffff16815260200190815260200160002054905092915050565b60008060005b600a54811015612a29573373ffffffffffffffffffffffffffffffffffffffff166006600083815260200190815260200160002060040160009054906101000a900473ffffffffffffffffffffffffffffffffffffffff1673ffffffffffffffffffffffffffffffffffffffff1614156129a8578092505b8473ffffffffffffffffffffffffffffffffffffffff166006600083815260200190815260200160002060040160009054906101000a900473ffffffffffffffffffffffffffffffffffffffff1673ffffffffffffffffffffffffffffffffffffffff161415612a16578091505b8080612a21906147b3565b915050612930565b5060011515600560006006600086815260200190815260200160002060000160019054906101000a900460ff1660ff1660ff16815260200190815260200160002060000160079054906101000a900460ff1615151480612ad65750600c60009054906101000a900473ffffffffffffffffffffffffffffffffffffffff1673ffffffffffffffffffffffffffffffffffffffff163373ffffffffffffffffffffffffffffffffffffffff16145b80612b2e5750600d60009054906101000a900473ffffffffffffffffffffffffffffffffffffffff1673ffffffffffffffffffffffffffffffffffffffff163373ffffffffffffffffffffffffffffffffffffffff16145b612b6d576040517f08c379a0000000000000000000000000000000000000000000000000000000008152600401612b64906143ff565b60405180910390fd5b8260ff166006600084815260200190815260200160002060000160019054906101000a900460ff1660ff1610158015612bf157506006600082815260200190815260200160002060000160019054906101000a900460ff1660ff166006600084815260200190815260200160002060000160019054906101000a900460ff1660ff16115b80612c495750600c60009054906101000a900473ffffffffffffffffffffffffffffffffffffffff1673ffffffffffffffffffffffffffffffffffffffff163373ffffffffffffffffffffffffffffffffffffffff16145b80612ca15750600d60009054906101000a900473ffffffffffffffffffffffffffffffffffffffff1673ffffffffffffffffffffffffffffffffffffffff163373ffffffffffffffffffffffffffffffffffffffff16145b612ce0576040517f08c379a0000000000000000000000000000000000000000000000000000000008152600401612cd7906143df565b60405180910390fd5b600115156006600083815260200190815260200160002060000160009054906101000a900460ff161515148015612d3e5750600115156006600084815260200190815260200160002060000160009054906101000a900460ff161515145b612d7d576040517f08c379a0000000000000000000000000000000000000000000000000000000008152600401612d749061443f565b60405180910390fd5b826006600084815260200190815260200160002060000160016101000a81548160ff021916908360ff16021790555050505050565b612dba6133aa565b600115156007600084815260200190815260200160002060000160009054906101000a900460ff16151514612e24576040517f08c379a0000000000000000000000000000000000000000000000000000000008152600401612e1b9061433f565b60405180910390fd5b600760008381526020019081526020016000206040518060600160405290816000820160009054906101000a900460ff161515151581526020016000820160019054906101000a900473ffffffffffffffffffffffffffffffffffffffff1673ffffffffffffffffffffffffffffffffffffffff1673ffffffffffffffffffffffffffffffffffffffff168152602001600182018054612ec390614781565b80601f0160208091040260200160405190810160405280929190818152602001828054612eef90614781565b8015612f3c5780601f10612f1157610100808354040283529160200191612f3c565b820191906000526020600020905b815481529060010190602001808311612f1f57829003601f168201915b5050505050815250509050919050565b600033905090565b600073ffffffffffffffffffffffffffffffffffffffff168373ffffffffffffffffffffffffffffffffffffffff161415612fc4576040517f08c379a0000000000000000000000000000000000000000000000000000000008152600401612fbb9061449f565b60405180910390fd5b600073ffffffffffffffffffffffffffffffffffffffff168273ffffffffffffffffffffffffffffffffffffffff161415613034576040517f08c379a000000000000000000000000000000000000000000000000000000000815260040161302b9061437f565b60405180910390fd5b80600160008573ffffffffffffffffffffffffffffffffffffffff1673ffffffffffffffffffffffffffffffffffffffff16815260200190815260200160002060008473ffffffffffffffffffffffffffffffffffffffff1673ffffffffffffffffffffffffffffffffffffffff168152602001908152602001600020819055508173ffffffffffffffffffffffffffffffffffffffff168373ffffffffffffffffffffffffffffffffffffffff167f8c5be1e5ebec7d5bd14f71427d1e84f3dd0314c0f7b2291e5b200ac8c7c3b92583604051613112919061455e565b60405180910390a3505050565b600073ffffffffffffffffffffffffffffffffffffffff168373ffffffffffffffffffffffffffffffffffffffff16141561318f576040517f08c379a00000000000000000000000000000000000000000000000000000000081526004016131869061447f565b60405180910390fd5b600073ffffffffffffffffffffffffffffffffffffffff168273ffffffffffffffffffffffffffffffffffffffff1614156131ff576040517f08c379a00000000000000000000000000000000000000000000000000000000081526004016131f6906142ff565b60405180910390fd5b61320a8383836133a0565b60008060008573ffffffffffffffffffffffffffffffffffffffff1673ffffffffffffffffffffffffffffffffffffffff16815260200190815260200160002054905081811015613290576040517f08c379a0000000000000000000000000000000000000000000000000000000008152600401613287906143bf565b60405180910390fd5b8181036000808673ffffffffffffffffffffffffffffffffffffffff1673ffffffffffffffffffffffffffffffffffffffff16815260200190815260200160002081905550816000808573ffffffffffffffffffffffffffffffffffffffff1673ffffffffffffffffffffffffffffffffffffffff16815260200190815260200160002060008282546133239190614694565b925050819055508273ffffffffffffffffffffffffffffffffffffffff168473ffffffffffffffffffffffffffffffffffffffff167fddf252ad1be2c89b69c2b068fc378daa952ba7f163c4a11628f55a4df523b3ef84604051613387919061455e565b60405180910390a361339a8484846133a5565b50505050565b505050565b505050565b6040518060600160405280600015158152602001600073ffffffffffffffffffffffffffffffffffffffff168152602001606081525090565b6040518060c00160405280600015158152602001600060ff1681526020016000815260200160008152602001600073ffffffffffffffffffffffffffffffffffffffff168152602001600073ffffffffffffffffffffffffffffffffffffffff1681525090565b82805461345690614781565b90600052602060002090601f01602090048101928261347857600085556134bf565b82601f1061349157805160ff19168380011785556134bf565b828001600101855582156134bf579182015b828111156134be5782518255916020019190600101906134a3565b5b5090506134cc919061352c565b5090565b604051806101200160405280600015158152602001600015158152602001600015158152602001600015158152602001600015158152602001600015158152602001600015158152602001600015158152602001606081525090565b5b8082111561354557600081600090555060010161352d565b5090565b600061355c613557846145c5565b614594565b90508281526020810184848401111561357457600080fd5b61357f84828561473f565b509392505050565b6000813590506135968161489a565b92915050565b6000813590506135ab816148b1565b92915050565b600082601f8301126135c257600080fd5b81356135d2848260208601613549565b91505092915050565b6000813590506135ea816148c8565b92915050565b6000813590506135ff816148df565b92915050565b60006020828403121561361757600080fd5b600061362584828501613587565b91505092915050565b6000806040838503121561364157600080fd5b600061364f85828601613587565b925050602061366085828601613587565b9150509250929050565b60008060006060848603121561367f57600080fd5b600061368d86828701613587565b935050602061369e86828701613587565b92505060406136af868287016135db565b9150509250925092565b600080604083850312156136cc57600080fd5b60006136da85828601613587565b92505060206136eb858286016135db565b9150509250929050565b6000806040838503121561370857600080fd5b600061371685828601613587565b9250506020613727858286016135f0565b9150509250929050565b6000806040838503121561374457600080fd5b60006137528582860161359c565b9250506020613763858286016135db565b9150509250929050565b60006020828403121561377f57600080fd5b600082013567ffffffffffffffff81111561379957600080fd5b6137a5848285016135b1565b91505092915050565b6000602082840312156137c057600080fd5b60006137ce848285016135db565b91505092915050565b6000602082840312156137e957600080fd5b60006137f7848285016135f0565b91505092915050565b6000806000806000806000806000806101408b8d03121561382057600080fd5b600061382e8d828e016135f0565b9a5050602061383f8d828e0161359c565b99505060406138508d828e0161359c565b98505060606138618d828e0161359c565b97505060806138728d828e0161359c565b96505060a06138838d828e0161359c565b95505060c06138948d828e0161359c565b94505060e06138a58d828e0161359c565b9350506101006138b78d828e0161359c565b9250506101208b013567ffffffffffffffff8111156138d557600080fd5b6138e18d828e016135b1565b9150509295989b9194979a5092959850565b60006138ff83836140ac565b905092915050565b6000613913838361414c565b60c08301905092915050565b613928816146ea565b82525050565b600061393982614615565b6139438185614650565b935083602082028501613955856145f5565b8060005b85811015613991578484038952815161397285826138f3565b945061397d83614636565b925060208a01995050600181019050613959565b50829750879550505050505092915050565b60006139ae82614620565b6139b88185614661565b93506139c383614605565b8060005b838110156139f45781516139db8882613907565b97506139e683614643565b9250506001810190506139c7565b5085935050505092915050565b613a0a816146fc565b82525050565b613a19816146fc565b82525050565b6000613a2a8261462b565b613a348185614672565b9350613a4481856020860161474e565b613a4d81614889565b840191505092915050565b6000613a638261462b565b613a6d8185614683565b9350613a7d81856020860161474e565b613a8681614889565b840191505092915050565b6000613a9e602383614683565b91507f45524332303a207472616e7366657220746f20746865207a65726f206164647260008301527f65737300000000000000000000000000000000000000000000000000000000006020830152604082019050919050565b6000613b04600e83614683565b91507f55736572206e6f742076616c69640000000000000000000000000000000000006000830152602082019050919050565b6000613b44602083614683565b91507f5468697320696e7669746174696f6e206973206e6f206d6f72652076616c69646000830152602082019050919050565b6000613b84602283614683565b91507f596f757220617265206e6f7420617574686f72697a656420746f20646f20746860008301527f69730000000000000000000000000000000000000000000000000000000000006020830152604082019050919050565b6000613bea602283614683565b91507f45524332303a20617070726f766520746f20746865207a65726f20616464726560008301527f73730000000000000000000000000000000000000000000000000000000000006020830152604082019050919050565b6000613c50601a83614683565b91507f4e6f7420656e6f7567746820657468657220696e2063686573740000000000006000830152602082019050919050565b6000613c90602683614683565b91507f45524332303a207472616e7366657220616d6f756e742065786365656473206260008301527f616c616e636500000000000000000000000000000000000000000000000000006020830152604082019050919050565b6000613cf6601c83614683565b91507f596f75722072616e6b206973206e6f74206869676820656e6f756768000000006000830152602082019050919050565b6000613d36602683614683565b91507f596f75722072616e6b20646f6573206e6f7420617574686f72697a652075706760008301527f726164696e6700000000000000000000000000000000000000000000000000006020830152604082019050919050565b6000613d9c602883614683565b91507f45524332303a207472616e7366657220616d6f756e742065786365656473206160008301527f6c6c6f77616e63650000000000000000000000000000000000000000000000006020830152604082019050919050565b6000613e02600e83614683565b91507f4e6f742076616c696420757365720000000000000000000000000000000000006000830152602082019050919050565b6000613e42600c83614683565b91507f3130204772616465204d617800000000000000000000000000000000000000006000830152602082019050919050565b6000613e82602583614683565b91507f45524332303a207472616e736665722066726f6d20746865207a65726f20616460008301527f64726573730000000000000000000000000000000000000000000000000000006020830152604082019050919050565b6000613ee8602483614683565b91507f45524332303a20617070726f76652066726f6d20746865207a65726f2061646460008301527f72657373000000000000000000000000000000000000000000000000000000006020830152604082019050919050565b6000613f4e600e83614683565b91507f4e6f7420796f7572206775696c640000000000000000000000000000000000006000830152602082019050919050565b6000613f8e602583614683565b91507f45524332303a2064656372656173656420616c6c6f77616e63652062656c6f7760008301527f207a65726f0000000000000000000000000000000000000000000000000000006020830152604082019050919050565b6000610120830160008301516140006000860182613a01565b5060208301516140136020860182613a01565b5060408301516140266040860182613a01565b5060608301516140396060860182613a01565b50608083015161404c6080860182613a01565b5060a083015161405f60a0860182613a01565b5060c083015161407260c0860182613a01565b5060e083015161408560e0860182613a01565b5061010083015184820361010086015261409f8282613a1f565b9150508091505092915050565b60006060830160008301516140c46000860182613a01565b5060208301516140d7602086018261391f565b50604083015184820360408601526140ef8282613a1f565b9150508091505092915050565b60006060830160008301516141146000860182613a01565b506020830151614127602086018261391f565b506040830151848203604086015261413f8282613a1f565b9150508091505092915050565b60c0820160008201516141626000850182613a01565b5060208201516141756020850182614260565b5060408201516141886040850182614242565b50606082015161419b6060850182614242565b5060808201516141ae608085018261391f565b5060a08201516141c160a085018261391f565b50505050565b60c0820160008201516141dd6000850182613a01565b5060208201516141f06020850182614260565b5060408201516142036040850182614242565b5060608201516142166060850182614242565b506080820151614229608085018261391f565b5060a082015161423c60a085018261391f565b50505050565b61424b81614728565b82525050565b61425a81614728565b82525050565b61426981614732565b82525050565b61427881614732565b82525050565b60006020820190508181036000830152614298818461392e565b905092915050565b600060208201905081810360008301526142ba81846139a3565b905092915050565b60006020820190506142d76000830184613a10565b92915050565b600060208201905081810360008301526142f78184613a58565b905092915050565b6000602082019050818103600083015261431881613a91565b9050919050565b6000602082019050818103600083015261433881613af7565b9050919050565b6000602082019050818103600083015261435881613b37565b9050919050565b6000602082019050818103600083015261437881613b77565b9050919050565b6000602082019050818103600083015261439881613bdd565b9050919050565b600060208201905081810360008301526143b881613c43565b9050919050565b600060208201905081810360008301526143d881613c83565b9050919050565b600060208201905081810360008301526143f881613ce9565b9050919050565b6000602082019050818103600083015261441881613d29565b9050919050565b6000602082019050818103600083015261443881613d8f565b9050919050565b6000602082019050818103600083015261445881613df5565b9050919050565b6000602082019050818103600083015261447881613e35565b9050919050565b6000602082019050818103600083015261449881613e75565b9050919050565b600060208201905081810360008301526144b881613edb565b9050919050565b600060208201905081810360008301526144d881613f41565b9050919050565b600060208201905081810360008301526144f881613f81565b9050919050565b600060208201905081810360008301526145198184613fe7565b905092915050565b6000602082019050818103600083015261453b81846140fc565b905092915050565b600060c08201905061455860008301846141c7565b92915050565b60006020820190506145736000830184614251565b92915050565b600060208201905061458e600083018461426f565b92915050565b6000604051905081810181811067ffffffffffffffff821117156145bb576145ba61485a565b5b8060405250919050565b600067ffffffffffffffff8211156145e0576145df61485a565b5b601f19601f8301169050602081019050919050565b6000819050602082019050919050565b6000819050602082019050919050565b600081519050919050565b600081519050919050565b600081519050919050565b6000602082019050919050565b6000602082019050919050565b600082825260208201905092915050565b600082825260208201905092915050565b600082825260208201905092915050565b600082825260208201905092915050565b600061469f82614728565b91506146aa83614728565b9250827fffffffffffffffffffffffffffffffffffffffffffffffffffffffffffffffff038211156146df576146de6147fc565b5b828201905092915050565b60006146f582614708565b9050919050565b60008115159050919050565b600073ffffffffffffffffffffffffffffffffffffffff82169050919050565b6000819050919050565b600060ff82169050919050565b82818337600083830152505050565b60005b8381101561476c578082015181840152602081019050614751565b8381111561477b576000848401525b50505050565b6000600282049050600182168061479957607f821691505b602082108114156147ad576147ac61482b565b5b50919050565b60006147be82614728565b91507fffffffffffffffffffffffffffffffffffffffffffffffffffffffffffffffff8214156147f1576147f06147fc565b5b600182019050919050565b7f4e487b7100000000000000000000000000000000000000000000000000000000600052601160045260246000fd5b7f4e487b7100000000000000000000000000000000000000000000000000000000600052602260045260246000fd5b7f4e487b7100000000000000000000000000000000000000000000000000000000600052604160045260246000fd5b6000601f19601f8301169050919050565b6148a3816146ea565b81146148ae57600080fd5b50565b6148ba816146fc565b81146148c557600080fd5b50565b6148d181614728565b81146148dc57600080fd5b50565b6148e881614732565b81146148f357600080fd5b5056fea2646970667358221220dc5c1f6c14dd3401c89369efca8de26626c9845c08e1bdd4aefa021a5404d49664736f6c63430008000033",
  "immutableReferences": {},
  "source": "// SPDX-License-Identifier: MIT\n// Guild contract\npragma solidity ^0.8.0;\n\nimport '@openzeppelin/contracts/token/ERC20/ERC20.sol';\n\ncontract Guild is ERC20 {\n    \n    struct Member {\n        bool valid;\n        uint8 grade;\n        uint256 createdAt;\n        uint256 chestETH;\n        address addBy;\n        address addressMember;\n    }\n\n    struct Invit {\n        bool valid;\n        address addr;\n        string description;\n    }\n\n    struct Grade {\n        bool valid;\n        bool write;\n        bool read;\n        bool invit;\n        bool desinvit;\n        bool sendMoney;\n        bool takeMoney;\n        bool graduate;\n        string name;\n    }\n\n    mapping( uint8 => Grade ) _grades;\n    mapping( uint256 => Member ) _members;\n    mapping( uint256 => Invit ) _invits;\n    uint256 id;\n    uint256 nonceMember;\n    uint256 countMember;\n    uint256 countInvit;\n    address payable owner;\n    address myosAddress;\n\n    constructor(string memory name, string memory symbol, address payable _owner, address _myosAddress, uint _id) ERC20(name,symbol)  {\n        owner = _owner;\n        myosAddress = _myosAddress;\n        id = _id;\n    }\n\n    modifier onlyCreator(){\n        require(msg.sender == owner || msg.sender == myosAddress,\"Not your guild\");\n        _;\n    }\n    \n    /**\n    appel direct depuis web3 (on ne passe pas par delegate contract)\n     */\n    function setGrade(uint8 _id, bool valid, bool write, bool read, bool invit, bool desinvit, bool sendMoney, bool takeMoney, bool graduate, string memory name ) external onlyCreator {\n        require(_id>0&&_id<10,\"10 Grade Max\");\n        _grades[_id] = Grade(valid,write,read,invit,desinvit,sendMoney,takeMoney,graduate,name);\n    }\n    \n    /**\n    appel direct depuis web3 (on ne passe pas par delegate contract)\n     */\n    function getGrade(uint8 _id) external view returns (Grade memory){\n        return _grades[_id];\n    }\n\n    /**\n    SUBSCRIBE SECTION\n     */\n    function suscribe(string memory description) external {\n        _invits[countInvit] = Invit(true,msg.sender,description);\n        countInvit++;\n    }\n    \n    /**\n    appel direct depuis web3 (on ne passe pas par delegate contract)\n     */\n    function unsuscribe(uint256 invit) external {\n        require(_invits[invit].valid == true,\"This invitation is no more valid\");\n        uint256 changerId;\n        for (uint256 index = 0; index < countMember; index++) {\n            if(_members[index].addressMember == msg.sender) changerId = index;\n        }\n        require(_invits[invit].addr == msg.sender || (_members[changerId].valid == true && _grades[_members[changerId].grade].desinvit == true) ,\"Your are not authorized to do this\");\n        _invits[invit].valid = false;\n    }\n    \n    /**\n    appel direct depuis web3 (on ne passe pas par delegate contract)\n     */\n    function getOneSubscription(uint256 invit) external view returns (Invit memory){\n        require(_invits[invit].valid == true,\"This invitation is no more valid\");\n        return _invits[invit];\n    }\n\n    /*function getAllSubscription() external view returns (uint256[] memory){\n        if(countInvit == 0){\n            return new uint256[](0);\n        }\n        else{\n            uint[] memory result = new uint256[](countInvit);\n            uint256 resultIndex = 0;\n            for(uint256 i = 0; i < countInvit; i++){\n                if(_invits[i].valid == true){\n                    result[resultIndex] = i;\n                    resultIndex++;\n                }\n            }\n            return result;\n        }\n    }*/\n    \n    /**\n    appel direct depuis web3 (on ne passe pas par delegate contract)\n     */\n    function getAllSubscriptionStruct() external view returns (Invit[] memory){\n        if(countInvit == 0){\n            return new Invit[](0);\n        }else{\n            Invit[] memory result = new Invit[](countInvit);\n            for(uint256 i = 0; i < countInvit; i++){\n                if(_invits[i].valid == true){\n                    Invit storage invit = _invits[i];\n                    result[i] = invit;\n                }\n            }\n            return result;\n        }\n    }\n    \n    /**\n    appel direct depuis web3 (on ne passe pas par delegate contract)\n     */\n    function addMember(address _to) external {\n        uint256 changerId;\n        uint256 changedId;\n        for (uint256 index = 0; index < countMember; index++) {\n            if(_members[index].addressMember == msg.sender) changerId = index;\n        }\n        for (uint256 index2 = 0; index2 < countInvit; index2++) {\n            if(_invits[index2].addr == _to) changedId = index2;\n        }\n        require(_members[changedId].valid == true,\"User not valid\");\n        require(_members[changerId].valid == true && _grades[_members[changerId].grade].invit == true ,\"Your are not authorized to do this\");\n        _members[nonceMember] = Member(false,0,block.timestamp,0,msg.sender,_to);\n        _members[changedId].valid = false;\n        nonceMember++;\n    }\n\n    /**\n    appel direct depuis web3 (on ne passe pas par delegate contract)\n     */\n    function changeGrade(address _to, uint8 grade) external {\n        uint256 changerId;\n        uint256 changedId;\n        for (uint256 index = 0; index < countMember; index++) {\n            if(_members[index].addressMember == msg.sender) changerId = index;\n            if(_members[index].addressMember == _to) changedId = index;\n        }\n        require(_grades[_members[changerId].grade].graduate == true || msg.sender == owner || msg.sender == myosAddress,\"Your rank does not authorize upgrading\");\n        require((_members[changerId].grade >= grade && _members[changerId].grade > _members[changedId].grade) || msg.sender == owner || msg.sender == myosAddress,\"Your rank is not high enough\");\n        require(_members[changedId].valid == true && _members[changerId].valid == true,\"Not valid user\");\n        _members[changerId].grade = grade;\n    }\n\n    /**\n    appel direct depuis web3 (on ne passe pas par delegate contract)\n    on ban un membre de la guild tout en gardant ses informations juste en le passant en invalid\n    mais on lui rend sa thune quand mme on est pas des sauvages\n     */\n    function subMember(address _to) external {\n        uint256 changerId;\n        uint256 changedId;\n        for (uint256 index = 0; index < countMember; index++) {\n            if(_members[index].addressMember == msg.sender) changerId = index;\n            if(_members[index].addressMember == _to) changedId = index;\n        }\n        \n        require(_grades[_members[changerId].grade].desinvit == true || msg.sender == owner || msg.sender == myosAddress,\"Your rank does not authorize upgrading\");\n        require(_members[changerId].grade > _members[changedId].grade || msg.sender == owner || msg.sender == myosAddress,\"Your rank is not high enough\");\n        require(_members[changedId].valid == true && _members[changerId].valid == true,\"Not valid user\");\n        payable(_members[changedId].addressMember).transfer(_members[changedId].chestETH);\n        _members[changedId].valid = false;\n    }\n    \n    /**\n    appel direct depuis web3 (on ne passe pas par delegate contract)\n     */\n    function getAllMembers() external view returns (Member[] memory){\n        if(countMember == 0){\n            return new Member[](0);\n        }else{\n            Member[] memory result = new Member[](countMember);\n            for(uint256 i = 0; i < countMember; i++){\n                if(_members[i].valid == true){\n                    Member storage member = _members[i];\n                    result[i] = member;\n                }\n            }\n            return result;\n        }\n    }\n\n    /**\n    appel direct depuis web3 (on ne passe pas par delegate contract)\n     */\n    function getOneMember(address user) external view returns (Member memory){\n        Member memory tempMember;\n        for (uint256 index = 0; index < countMember; index++) {\n            if(_members[index].addressMember == user) tempMember = _members[index];\n        }\n        return tempMember;\n    }\n\n    /**\n    appel direct depuis web3 (on ne passe pas par delegate contract)\n     */\n    function validMember(bool valid, uint256 member) external onlyCreator {\n        _members[member].valid = valid;\n    }\n\n    /**\n    appel direct depuis web3 (on ne passe pas par delegate contract)\n    Dposer de l'argent sur le contrat accssible seulement pour l'utilisateur\n     */\n    function sendETHInChest() external payable {\n        uint256 idUser;\n        for (uint256 index = 0; index < countMember; index++) {\n            if(_members[index].addressMember == msg.sender) idUser = index;\n        }\n        require(_members[idUser].valid == true,\"Not valid user\");\n        _members[idUser].chestETH += msg.value;\n    }\n\n    /**\n    appel direct depuis web3 (on ne passe pas par delegate contract)\n    Rcuprer l'argent de l'utilisateur pos prcdement sur le contrat\n     */\n    function withdrawETHMyChest(uint256 value) external {\n        uint256 idUser;\n        for (uint256 index = 0; index < countMember; index++) {\n            if(_members[index].addressMember == msg.sender) idUser = index;\n        }\n        require(_members[idUser].valid == true,\"Not valid user\");\n        require(_members[idUser].chestETH >= value,\"Not enougth ether in chest\");\n        payable(msg.sender).transfer(value);\n    }\n\n\n\n\n    /**\n    appel depuis le delegate contract on devrais en fait ne pas faire a parce que trop risquer pour les users\n     */\n    function kill() external onlyCreator {\n        selfdestruct(owner);\n    }\n\n    function getId() external view returns (uint) {\n        return id;\n    }\n\n    function isOwner(address _owner) external view returns (bool) {\n        return _owner == owner;\n    }\n\n}\n",
  "sourcePath": "/home/kevin/Bureau/homework/MYOS/contracts/Guild.sol",
  "compiler": {
    "name": "solc",
    "version": "0.8.0+commit.c7dfd78e.Emscripten.clang"
  },
  "schemaVersion": "3.4.7",
  "updatedAt": "2022-09-22T08:17:05.453Z",
  "devdoc": {
    "kind": "dev",
    "methods": {
      "allowance(address,address)": {
        "details": "See {IERC20-allowance}."
      },
      "approve(address,uint256)": {
        "details": "See {IERC20-approve}. Requirements: - `spender` cannot be the zero address."
      },
      "balanceOf(address)": {
        "details": "See {IERC20-balanceOf}."
      },
      "decimals()": {
        "details": "Returns the number of decimals used to get its user representation. For example, if `decimals` equals `2`, a balance of `505` tokens should be displayed to a user as `5.05` (`505 / 10 ** 2`). Tokens usually opt for a value of 18, imitating the relationship between Ether and Wei. This is the value {ERC20} uses, unless this function is overridden; NOTE: This information is only used for _display_ purposes: it in no way affects any of the arithmetic of the contract, including {IERC20-balanceOf} and {IERC20-transfer}."
      },
      "decreaseAllowance(address,uint256)": {
        "details": "Atomically decreases the allowance granted to `spender` by the caller. This is an alternative to {approve} that can be used as a mitigation for problems described in {IERC20-approve}. Emits an {Approval} event indicating the updated allowance. Requirements: - `spender` cannot be the zero address. - `spender` must have allowance for the caller of at least `subtractedValue`."
      },
      "increaseAllowance(address,uint256)": {
        "details": "Atomically increases the allowance granted to `spender` by the caller. This is an alternative to {approve} that can be used as a mitigation for problems described in {IERC20-approve}. Emits an {Approval} event indicating the updated allowance. Requirements: - `spender` cannot be the zero address."
      },
      "name()": {
        "details": "Returns the name of the token."
      },
      "symbol()": {
        "details": "Returns the symbol of the token, usually a shorter version of the name."
      },
      "totalSupply()": {
        "details": "See {IERC20-totalSupply}."
      },
      "transfer(address,uint256)": {
        "details": "See {IERC20-transfer}. Requirements: - `recipient` cannot be the zero address. - the caller must have a balance of at least `amount`."
      },
      "transferFrom(address,address,uint256)": {
        "details": "See {IERC20-transferFrom}. Emits an {Approval} event indicating the updated allowance. This is not required by the EIP. See the note at the beginning of {ERC20}. Requirements: - `sender` and `recipient` cannot be the zero address. - `sender` must have a balance of at least `amount`. - the caller must have allowance for ``sender``'s tokens of at least `amount`."
      }
    },
    "version": 1
  },
  "userdoc": {
    "kind": "user",
    "methods": {
      "addMember(address)": {
        "notice": "appel direct depuis web3 (on ne passe pas par delegate contract)"
      },
      "changeGrade(address,uint8)": {
        "notice": "appel direct depuis web3 (on ne passe pas par delegate contract)"
      },
      "getAllMembers()": {
        "notice": "appel direct depuis web3 (on ne passe pas par delegate contract)"
      },
      "getAllSubscriptionStruct()": {
        "notice": "appel direct depuis web3 (on ne passe pas par delegate contract)"
      },
      "getGrade(uint8)": {
        "notice": "appel direct depuis web3 (on ne passe pas par delegate contract)"
      },
      "getOneMember(address)": {
        "notice": "appel direct depuis web3 (on ne passe pas par delegate contract)"
      },
      "getOneSubscription(uint256)": {
        "notice": "appel direct depuis web3 (on ne passe pas par delegate contract)"
      },
      "kill()": {
        "notice": "appel depuis le delegate contract on devrais en fait ne pas faire a parce que trop risquer pour les users"
      },
      "sendETHInChest()": {
        "notice": "appel direct depuis web3 (on ne passe pas par delegate contract) Dposer de l'argent sur le contrat accssible seulement pour l'utilisateur"
      },
      "setGrade(uint8,bool,bool,bool,bool,bool,bool,bool,bool,string)": {
        "notice": "appel direct depuis web3 (on ne passe pas par delegate contract)"
      },
      "subMember(address)": {
        "notice": "appel direct depuis web3 (on ne passe pas par delegate contract) on ban un membre de la guild tout en gardant ses informations juste en le passant en invalid mais on lui rend sa thune quand mme on est pas des sauvages"
      },
      "suscribe(string)": {
        "notice": "SUBSCRIBE SECTION"
      },
      "unsuscribe(uint256)": {
        "notice": "appel direct depuis web3 (on ne passe pas par delegate contract)"
      },
      "validMember(bool,uint256)": {
        "notice": "appel direct depuis web3 (on ne passe pas par delegate contract)"
      },
      "withdrawETHMyChest(uint256)": {
        "notice": "appel direct depuis web3 (on ne passe pas par delegate contract) Rcuprer l'argent de l'utilisateur pos prcdement sur le contrat"
      }
    },
    "version": 1
  }
}