{
  "contractName": "Guild",
  "abi": [
    {
      "inputs": [
        {
          "internalType": "string",
          "name": "name",
          "type": "string"
        },
        {
          "internalType": "string",
          "name": "symbol",
          "type": "string"
        },
        {
          "internalType": "address payable",
          "name": "_owner",
          "type": "address"
        },
        {
          "internalType": "address",
          "name": "_myosAddress",
          "type": "address"
        },
        {
          "internalType": "uint256",
          "name": "_id",
          "type": "uint256"
        }
      ],
      "stateMutability": "nonpayable",
      "type": "constructor"
    },
    {
      "anonymous": false,
      "inputs": [
        {
          "indexed": true,
          "internalType": "address",
          "name": "owner",
          "type": "address"
        },
        {
          "indexed": true,
          "internalType": "address",
          "name": "spender",
          "type": "address"
        },
        {
          "indexed": false,
          "internalType": "uint256",
          "name": "value",
          "type": "uint256"
        }
      ],
      "name": "Approval",
      "type": "event"
    },
    {
      "anonymous": false,
      "inputs": [
        {
          "indexed": true,
          "internalType": "address",
          "name": "from",
          "type": "address"
        },
        {
          "indexed": true,
          "internalType": "address",
          "name": "to",
          "type": "address"
        },
        {
          "indexed": false,
          "internalType": "uint256",
          "name": "value",
          "type": "uint256"
        }
      ],
      "name": "Transfer",
      "type": "event"
    },
    {
      "inputs": [
        {
          "internalType": "address",
          "name": "owner",
          "type": "address"
        },
        {
          "internalType": "address",
          "name": "spender",
          "type": "address"
        }
      ],
      "name": "allowance",
      "outputs": [
        {
          "internalType": "uint256",
          "name": "",
          "type": "uint256"
        }
      ],
      "stateMutability": "view",
      "type": "function"
    },
    {
      "inputs": [
        {
          "internalType": "address",
          "name": "spender",
          "type": "address"
        },
        {
          "internalType": "uint256",
          "name": "amount",
          "type": "uint256"
        }
      ],
      "name": "approve",
      "outputs": [
        {
          "internalType": "bool",
          "name": "",
          "type": "bool"
        }
      ],
      "stateMutability": "nonpayable",
      "type": "function"
    },
    {
      "inputs": [
        {
          "internalType": "address",
          "name": "account",
          "type": "address"
        }
      ],
      "name": "balanceOf",
      "outputs": [
        {
          "internalType": "uint256",
          "name": "",
          "type": "uint256"
        }
      ],
      "stateMutability": "view",
      "type": "function"
    },
    {
      "inputs": [],
      "name": "decimals",
      "outputs": [
        {
          "internalType": "uint8",
          "name": "",
          "type": "uint8"
        }
      ],
      "stateMutability": "view",
      "type": "function"
    },
    {
      "inputs": [
        {
          "internalType": "address",
          "name": "spender",
          "type": "address"
        },
        {
          "internalType": "uint256",
          "name": "subtractedValue",
          "type": "uint256"
        }
      ],
      "name": "decreaseAllowance",
      "outputs": [
        {
          "internalType": "bool",
          "name": "",
          "type": "bool"
        }
      ],
      "stateMutability": "nonpayable",
      "type": "function"
    },
    {
      "inputs": [
        {
          "internalType": "address",
          "name": "spender",
          "type": "address"
        },
        {
          "internalType": "uint256",
          "name": "addedValue",
          "type": "uint256"
        }
      ],
      "name": "increaseAllowance",
      "outputs": [
        {
          "internalType": "bool",
          "name": "",
          "type": "bool"
        }
      ],
      "stateMutability": "nonpayable",
      "type": "function"
    },
    {
      "inputs": [],
      "name": "name",
      "outputs": [
        {
          "internalType": "string",
          "name": "",
          "type": "string"
        }
      ],
      "stateMutability": "view",
      "type": "function"
    },
    {
      "inputs": [],
      "name": "symbol",
      "outputs": [
        {
          "internalType": "string",
          "name": "",
          "type": "string"
        }
      ],
      "stateMutability": "view",
      "type": "function"
    },
    {
      "inputs": [],
      "name": "totalSupply",
      "outputs": [
        {
          "internalType": "uint256",
          "name": "",
          "type": "uint256"
        }
      ],
      "stateMutability": "view",
      "type": "function"
    },
    {
      "inputs": [
        {
          "internalType": "address",
          "name": "to",
          "type": "address"
        },
        {
          "internalType": "uint256",
          "name": "amount",
          "type": "uint256"
        }
      ],
      "name": "transfer",
      "outputs": [
        {
          "internalType": "bool",
          "name": "",
          "type": "bool"
        }
      ],
      "stateMutability": "nonpayable",
      "type": "function"
    },
    {
      "inputs": [
        {
          "internalType": "address",
          "name": "from",
          "type": "address"
        },
        {
          "internalType": "address",
          "name": "to",
          "type": "address"
        },
        {
          "internalType": "uint256",
          "name": "amount",
          "type": "uint256"
        }
      ],
      "name": "transferFrom",
      "outputs": [
        {
          "internalType": "bool",
          "name": "",
          "type": "bool"
        }
      ],
      "stateMutability": "nonpayable",
      "type": "function"
    },
    {
      "inputs": [
        {
          "internalType": "uint256",
          "name": "_packedBools",
          "type": "uint256"
        },
        {
          "internalType": "uint256",
          "name": "_boolNumber",
          "type": "uint256"
        },
        {
          "internalType": "bool",
          "name": "_value",
          "type": "bool"
        }
      ],
      "name": "setBoolean",
      "outputs": [
        {
          "internalType": "uint256",
          "name": "",
          "type": "uint256"
        }
      ],
      "stateMutability": "pure",
      "type": "function"
    },
    {
      "inputs": [
        {
          "internalType": "uint256",
          "name": "_packedBools",
          "type": "uint256"
        },
        {
          "internalType": "uint8",
          "name": "_id",
          "type": "uint8"
        },
        {
          "internalType": "string",
          "name": "name",
          "type": "string"
        }
      ],
      "name": "setGrade",
      "outputs": [],
      "stateMutability": "nonpayable",
      "type": "function"
    },
    {
      "inputs": [
        {
          "internalType": "uint8",
          "name": "_id",
          "type": "uint8"
        }
      ],
      "name": "getGrade",
      "outputs": [
        {
          "components": [
            {
              "internalType": "uint256",
              "name": "datas",
              "type": "uint256"
            },
            {
              "internalType": "string",
              "name": "name",
              "type": "string"
            }
          ],
          "internalType": "struct GuildLib.Grade",
          "name": "",
          "type": "tuple"
        }
      ],
      "stateMutability": "view",
      "type": "function"
    },
    {
      "inputs": [
        {
          "internalType": "string",
          "name": "description",
          "type": "string"
        }
      ],
      "name": "suscribe",
      "outputs": [],
      "stateMutability": "nonpayable",
      "type": "function"
    },
    {
      "inputs": [
        {
          "internalType": "uint256",
          "name": "invit",
          "type": "uint256"
        }
      ],
      "name": "unsuscribe",
      "outputs": [],
      "stateMutability": "nonpayable",
      "type": "function"
    },
    {
      "inputs": [
        {
          "internalType": "uint256",
          "name": "invit",
          "type": "uint256"
        }
      ],
      "name": "getOneSubscription",
      "outputs": [
        {
          "components": [
            {
              "internalType": "bool",
              "name": "valid",
              "type": "bool"
            },
            {
              "internalType": "address",
              "name": "addr",
              "type": "address"
            },
            {
              "internalType": "string",
              "name": "description",
              "type": "string"
            }
          ],
          "internalType": "struct GuildLib.Invit",
          "name": "",
          "type": "tuple"
        }
      ],
      "stateMutability": "view",
      "type": "function"
    },
    {
      "inputs": [],
      "name": "getAllSubscriptionStruct",
      "outputs": [
        {
          "components": [
            {
              "internalType": "bool",
              "name": "valid",
              "type": "bool"
            },
            {
              "internalType": "address",
              "name": "addr",
              "type": "address"
            },
            {
              "internalType": "string",
              "name": "description",
              "type": "string"
            }
          ],
          "internalType": "struct GuildLib.Invit[]",
          "name": "",
          "type": "tuple[]"
        }
      ],
      "stateMutability": "view",
      "type": "function"
    },
    {
      "inputs": [
        {
          "internalType": "address",
          "name": "_to",
          "type": "address"
        }
      ],
      "name": "addMember",
      "outputs": [],
      "stateMutability": "nonpayable",
      "type": "function"
    },
    {
      "inputs": [
        {
          "internalType": "address",
          "name": "_to",
          "type": "address"
        },
        {
          "internalType": "uint8",
          "name": "grade",
          "type": "uint8"
        }
      ],
      "name": "changeGrade",
      "outputs": [],
      "stateMutability": "nonpayable",
      "type": "function"
    },
    {
      "inputs": [
        {
          "internalType": "address",
          "name": "_to",
          "type": "address"
        }
      ],
      "name": "subMember",
      "outputs": [],
      "stateMutability": "nonpayable",
      "type": "function"
    },
    {
      "inputs": [],
      "name": "getAllMembers",
      "outputs": [
        {
          "components": [
            {
              "internalType": "bool",
              "name": "valid",
              "type": "bool"
            },
            {
              "internalType": "uint8",
              "name": "grade",
              "type": "uint8"
            },
            {
              "internalType": "uint256",
              "name": "createdAt",
              "type": "uint256"
            },
            {
              "internalType": "uint256",
              "name": "chestETH",
              "type": "uint256"
            },
            {
              "internalType": "address",
              "name": "addBy",
              "type": "address"
            },
            {
              "internalType": "address",
              "name": "addressMember",
              "type": "address"
            }
          ],
          "internalType": "struct GuildLib.Member[]",
          "name": "",
          "type": "tuple[]"
        }
      ],
      "stateMutability": "view",
      "type": "function"
    },
    {
      "inputs": [
        {
          "internalType": "address",
          "name": "member",
          "type": "address"
        }
      ],
      "name": "getOneMember",
      "outputs": [
        {
          "components": [
            {
              "internalType": "bool",
              "name": "valid",
              "type": "bool"
            },
            {
              "internalType": "uint8",
              "name": "grade",
              "type": "uint8"
            },
            {
              "internalType": "uint256",
              "name": "createdAt",
              "type": "uint256"
            },
            {
              "internalType": "uint256",
              "name": "chestETH",
              "type": "uint256"
            },
            {
              "internalType": "address",
              "name": "addBy",
              "type": "address"
            },
            {
              "internalType": "address",
              "name": "addressMember",
              "type": "address"
            }
          ],
          "internalType": "struct GuildLib.Member",
          "name": "",
          "type": "tuple"
        }
      ],
      "stateMutability": "view",
      "type": "function"
    },
    {
      "inputs": [
        {
          "internalType": "bool",
          "name": "valid",
          "type": "bool"
        },
        {
          "internalType": "uint256",
          "name": "member",
          "type": "uint256"
        }
      ],
      "name": "validMember",
      "outputs": [],
      "stateMutability": "nonpayable",
      "type": "function"
    },
    {
      "inputs": [],
      "name": "sendETHInChest",
      "outputs": [],
      "stateMutability": "payable",
      "type": "function"
    },
    {
      "inputs": [
        {
          "internalType": "uint256",
          "name": "value",
          "type": "uint256"
        }
      ],
      "name": "withdrawETHMyChest",
      "outputs": [],
      "stateMutability": "nonpayable",
      "type": "function"
    },
    {
      "inputs": [],
      "name": "getId",
      "outputs": [
        {
          "internalType": "uint256",
          "name": "",
          "type": "uint256"
        }
      ],
      "stateMutability": "view",
      "type": "function"
    },
    {
      "inputs": [
        {
          "internalType": "address",
          "name": "_owner",
          "type": "address"
        }
      ],
      "name": "isOwner",
      "outputs": [
        {
          "internalType": "bool",
          "name": "",
          "type": "bool"
        }
      ],
      "stateMutability": "view",
      "type": "function"
    }
  ],
  "bytecode": "0x60806040523480156200001157600080fd5b50604051620026f5380380620026f583398101604081905262000034916200022e565b8451859085906200004d906003906020850190620000a2565b50805162000063906004906020840190620000a2565b5050600c80546001600160a01b039586166001600160a01b031991821617909155600d80549490951693169290921790925550600855506200030b9050565b828054620000b090620002ce565b90600052602060002090601f016020900481019282620000d457600085556200011f565b82601f10620000ef57805160ff19168380011785556200011f565b828001600101855582156200011f579182015b828111156200011f57825182559160200191906001019062000102565b506200012d92915062000131565b5090565b5b808211156200012d576000815560010162000132565b634e487b7160e01b600052604160045260246000fd5b600082601f8301126200017057600080fd5b81516001600160401b03808211156200018d576200018d62000148565b604051601f8301601f19908116603f01168101908282118183101715620001b857620001b862000148565b81604052838152602092508683858801011115620001d557600080fd5b600091505b83821015620001f95785820183015181830184015290820190620001da565b838211156200020b5760008385830101525b9695505050505050565b6001600160a01b03811681146200022b57600080fd5b50565b600080600080600060a086880312156200024757600080fd5b85516001600160401b03808211156200025f57600080fd5b6200026d89838a016200015e565b965060208801519150808211156200028457600080fd5b5062000293888289016200015e565b9450506040860151620002a68162000215565b6060870151909350620002b98162000215565b80925050608086015190509295509295909350565b600181811c90821680620002e357607f821691505b602082108114156200030557634e487b7160e01b600052602260045260246000fd5b50919050565b6123da806200031b6000396000f3fe6080604052600436106101b75760003560e01c806372a2377f116100ec578063ca6d56dc1161008a578063dd62ed3e11610064578063dd62ed3e146104e9578063e0f9895514610509578063f798e52514610529578063fd0232b21461054957600080fd5b8063ca6d56dc14610494578063ccf25b4d146104b4578063cd9f0921146104e157600080fd5b8063a457c2d7116100c6578063a457c2d714610414578063a9059cbb14610434578063aa887bb614610454578063c7f067441461047457600080fd5b806372a2377f146103bd5780637c0f6b35146103dd57806395d89b41146103ff57600080fd5b8063395093511161015957806355f6e5071161013357806355f6e507146103255780635d1ca631146103525780636586737a1461036757806370a082311461038757600080fd5b806339509351146102c357806340566488146102e357806344a96ce01461030557600080fd5b806323b872dd1161019557806323b872dd146102365780632f54bf6e14610256578063313ce567146102855780633597f252146102a157600080fd5b806306fdde03146101bc578063095ea7b3146101e757806318160ddd14610217575b600080fd5b3480156101c857600080fd5b506101d1610576565b6040516101de9190611e0a565b60405180910390f35b3480156101f357600080fd5b50610207610202366004611e39565b610608565b60405190151581526020016101de565b34801561022357600080fd5b506002545b6040519081526020016101de565b34801561024257600080fd5b50610207610251366004611e63565b610622565b34801561026257600080fd5b50610207610271366004611e9f565b600c546001600160a01b0391821691161490565b34801561029157600080fd5b50604051601281526020016101de565b3480156102ad57600080fd5b506102c16102bc366004611f6e565b610648565b005b3480156102cf57600080fd5b506102076102de366004611e39565b610758565b3480156102ef57600080fd5b506102f861077a565b6040516101de9190611ff8565b34801561031157600080fd5b506102c161032036600461206a565b610972565b34801561033157600080fd5b50610345610340366004611e9f565b610a03565b6040516101de91906120d1565b34801561035e57600080fd5b50600854610228565b34801561037357600080fd5b506102c16103823660046120df565b610acd565b34801561039357600080fd5b506102286103a2366004611e9f565b6001600160a01b031660009081526020819052604090205490565b3480156103c957600080fd5b506102c16103d8366004612114565b610b68565b3480156103e957600080fd5b506103f2610cc0565b6040516101de919061212d565b34801561040b57600080fd5b506101d1610e21565b34801561042057600080fd5b5061020761042f366004611e39565b610e30565b34801561044057600080fd5b5061020761044f366004611e39565b610eb6565b34801561046057600080fd5b506102c161046f366004611e9f565b610ec4565b34801561048057600080fd5b506102c161048f366004612114565b61112c565b3480156104a057600080fd5b506102c16104af366004611e9f565b611239565b3480156104c057600080fd5b506104d46104cf36600461217b565b611486565b6040516101de9190612196565b6102c161155a565b3480156104f557600080fd5b506102286105043660046121bb565b6115fd565b34801561051557600080fd5b506102286105243660046121ee565b611628565b34801561053557600080fd5b506102c1610544366004612223565b61164b565b34801561055557600080fd5b50610569610564366004612114565b611899565b6040516101de919061224d565b60606003805461058590612260565b80601f01602080910402602001604051908101604052809291908181526020018280546105b190612260565b80156105fe5780601f106105d3576101008083540402835291602001916105fe565b820191906000526020600020905b8154815290600101906020018083116105e157829003601f168201915b5050505050905090565b600033610616818585611968565b60019150505b92915050565b600033610630858285611a8c565b61063b858585611b06565b60019150505b9392505050565b600c546001600160a01b0316336001600160a01b0316148061067d5750600d546001600160a01b0316336001600160a01b0316145b6106bf5760405162461bcd60e51b815260206004820152600e60248201526d139bdd081e5bdd5c8819dd5a5b1960921b60448201526064015b60405180910390fd5b60008260ff161180156106d55750600a8260ff16105b6107105760405162461bcd60e51b815260206004820152600c60248201526b06260408ee4c2c8ca409ac2f60a31b60448201526064016106b6565b604080518082018252848152602080820184815260ff86166000908152600583529390932082518155925180519293926107509260018501920190611cef565b505050505050565b60003361061681858561076b83836115fd565b61077591906122ab565b611968565b6060600b54600014156107d25760408051600080825260208201909252906107cc565b6040805160608082018352600080835260208301529181019190915281526020019060019003908161079d5790505b50905090565b6000600b5467ffffffffffffffff8111156107ef576107ef611ecb565b60405190808252806020026020018201604052801561083c57816020015b6040805160608082018352600080835260208301529181019190915281526020019060019003908161080d5790505b50905060005b600b5481101561096c5760008181526007602052604090205460ff1615156001141561095a576000818152600760209081526040918290208251606081018452815460ff81161515825261010090046001600160a01b0316928101929092526001810180549193849290840191906108b990612260565b80601f01602080910402602001604051908101604052809291908181526020018280546108e590612260565b80156109325780601f1061090757610100808354040283529160200191610932565b820191906000526020600020905b81548152906001019060200180831161091557829003601f168201915b50505050508152505083838151811061094d5761094d6122c3565b6020026020010181905250505b80610964816122d9565b915050610842565b50919050565b600c546001600160a01b0316336001600160a01b031614806109a75750600d546001600160a01b0316336001600160a01b0316145b6109e45760405162461bcd60e51b815260206004820152600e60248201526d139bdd081e5bdd5c8819dd5a5b1960921b60448201526064016106b6565b6000908152600660205260409020805460ff1916911515919091179055565b610a0b611d73565b610a13611d73565b60005b600a54811015610ac6576000818152600660205260409020600401546001600160a01b0385811691161415610ab457600081815260066020908152604091829020825160c081018452815460ff8082161515835261010090910416928101929092526001810154928201929092526002820154606082015260038201546001600160a01b03908116608083015260049092015490911660a082015291505b80610abe816122d9565b915050610a16565b5092915050565b604080516060810182526001808252336020808401918252838501868152600b54600090815260078352959095208451815493516001600160a81b0319909416901515610100600160a81b031916176101006001600160a01b03909416939093029290921782559351805193949193610b4d938501929190910190611cef565b5050600b805491506000610b60836122d9565b919050555050565b60008181526007602052604090205460ff161515600114610bcb5760405162461bcd60e51b815260206004820181905260248201527f5468697320696e7669746174696f6e206973206e6f206d6f72652076616c696460448201526064016106b6565b6000805b600a54811015610c11576000818152600660205260409020600401546001600160a01b0316331415610bff578091505b80610c09816122d9565b915050610bcf565b506000828152600760205260409020546001600160a01b0361010090910416331480610c8b575060008181526006602052604090205460ff1615156001148015610c8b5750600081815260066020908152604080832054610100900460ff1683526005909152902054610c85906004611cd4565b15156001145b610ca75760405162461bcd60e51b81526004016106b6906122f4565b506000908152600760205260409020805460ff19169055565b6060600a5460001415610d035760408051600080825260208201909252906107cc565b610ceb611d73565b815260200190600190039081610ce357905050905090565b6000600a5467ffffffffffffffff811115610d2057610d20611ecb565b604051908082528060200260200182016040528015610d5957816020015b610d46611d73565b815260200190600190039081610d3e5790505b50905060005b600a5481101561096c5760008181526006602052604090205460ff16151560011415610e0f57600081815260066020908152604091829020825160c081018452815460ff8082161515835261010090910416928101929092526001810154928201929092526002820154606082015260038201546001600160a01b03908116608083015260048301541660a08201528351849084908110610e0257610e026122c3565b6020026020010181905250505b80610e19816122d9565b915050610d5f565b60606004805461058590612260565b60003381610e3e82866115fd565b905083811015610e9e5760405162461bcd60e51b815260206004820152602560248201527f45524332303a2064656372656173656420616c6c6f77616e63652062656c6f77604482015264207a65726f60d81b60648201526084016106b6565b610eab8286868403611968565b506001949350505050565b600033610616818585611b06565b60008060005b600a54811015610f35576000818152600660205260409020600401546001600160a01b0316331415610efa578092505b6000818152600660205260409020600401546001600160a01b0385811691161415610f23578091505b80610f2d816122d9565b915050610eca565b50600082815260066020908152604080832054610100900460ff1683526005909152902054610f65906004611cd4565b151560011480610f885750600c546001600160a01b0316336001600160a01b0316145b80610fa65750600d546001600160a01b0316336001600160a01b0316145b610fc25760405162461bcd60e51b81526004016106b690612336565b6000818152600660205260408082205484835291205460ff610100928390048116929091041611806110075750600c546001600160a01b0316336001600160a01b0316145b806110255750600d546001600160a01b0316336001600160a01b0316145b6110715760405162461bcd60e51b815260206004820152601c60248201527f596f75722072616e6b206973206e6f74206869676820656e6f7567680000000060448201526064016106b6565b60008181526006602052604090205460ff16151560011480156110a7575060008281526006602052604090205460ff1615156001145b6110c35760405162461bcd60e51b81526004016106b69061237c565b600081815260066020526040808220600481015460029091015491516001600160a01b039091169282156108fc02929190818181858888f19350505050158015611111573d6000803e3d6000fd5b506000908152600660205260409020805460ff191690555050565b6000805b600a54811015611172576000818152600660205260409020600401546001600160a01b0316331415611160578091505b8061116a816122d9565b915050611130565b5060008181526006602052604090205460ff1615156001146111a65760405162461bcd60e51b81526004016106b69061237c565b6000818152600660205260409020600201548211156112075760405162461bcd60e51b815260206004820152601a60248201527f4e6f7420656e6f7567746820657468657220696e20636865737400000000000060448201526064016106b6565b604051339083156108fc029084906000818181858888f19350505050158015611234573d6000803e3d6000fd5b505050565b60008060005b600a54811015611281576000818152600660205260409020600401546001600160a01b031633141561126f578092505b80611279816122d9565b91505061123f565b5060005b600b548110156112cc576000818152600760205260409020546001600160a01b038581166101009092041614156112ba578091505b806112c4816122d9565b915050611285565b5060008181526006602052604090205460ff1615156001146113215760405162461bcd60e51b815260206004820152600e60248201526d155cd95c881b9bdd081d985b1a5960921b60448201526064016106b6565b60008281526006602052604090205460ff16151560011480156113745750600082815260066020908152604080832054610100900460ff168352600590915290205461136e906003611cd4565b15156001145b6113905760405162461bcd60e51b81526004016106b6906122f4565b6040518060c00160405280600015158152602001600060ff168152602001428152602001600081526020016113c23390565b6001600160a01b039081168252858116602092830152600980546000908152600684526040808220865181549688015160ff166101000261ff00199115159190911661ffff19909716969096179590951785558581015160018601556060860151600286015560808601516003860180549186166001600160a01b031992831617905560a09096015160049095018054959094169490951693909317909155838252918120805460ff191690558154919061147c836122d9565b9190505550505050565b60408051808201909152600081526060602082015260ff821660009081526005602090815260409182902082518084019093528054835260018101805491928401916114d190612260565b80601f01602080910402602001604051908101604052809291908181526020018280546114fd90612260565b801561154a5780601f1061151f5761010080835404028352916020019161154a565b820191906000526020600020905b81548152906001019060200180831161152d57829003601f168201915b5050505050815250509050919050565b6000805b600a548110156115a0576000818152600660205260409020600401546001600160a01b031633141561158e578091505b80611598816122d9565b91505061155e565b5060008181526006602052604090205460ff1615156001146115d45760405162461bcd60e51b81526004016106b69061237c565b600081815260066020526040812060020180543492906115f59084906122ab565b909155505050565b6001600160a01b03918216600090815260016020908152604080832093909416825291909152205490565b6000811561164057506001821b929092179182610641565b50506001901b191690565b60008060005b600a548110156116bc576000818152600660205260409020600401546001600160a01b0316331415611681578092505b6000818152600660205260409020600401546001600160a01b03868116911614156116aa578091505b806116b4816122d9565b915050611651565b50600082815260066020908152604080832054610100900460ff16835260059091529020546116ec906007611cd4565b15156001148061170f5750600c546001600160a01b0316336001600160a01b0316145b8061172d5750600d546001600160a01b0316336001600160a01b0316145b6117495760405162461bcd60e51b81526004016106b690612336565b60008281526006602052604090205460ff808516610100909204161080159061179557506000818152600660205260408082205484835291205460ff6101009283900481169290910416115b806117b35750600c546001600160a01b0316336001600160a01b0316145b806117d15750600d546001600160a01b0316336001600160a01b0316145b61181d5760405162461bcd60e51b815260206004820152601c60248201527f596f75722072616e6b206973206e6f74206869676820656e6f7567680000000060448201526064016106b6565b60008181526006602052604090205460ff1615156001148015611853575060008281526006602052604090205460ff1615156001145b61186f5760405162461bcd60e51b81526004016106b69061237c565b506000908152600660205260409020805460ff9092166101000261ff001990921691909117905550565b6040805160608082018352600080835260208301529181019190915260008281526007602052604090205460ff1615156001146119185760405162461bcd60e51b815260206004820181905260248201527f5468697320696e7669746174696f6e206973206e6f206d6f72652076616c696460448201526064016106b6565b6000828152600760209081526040918290208251606081018452815460ff81161515825261010090046001600160a01b03169281019290925260018101805492939192918401916114d190612260565b6001600160a01b0383166119ca5760405162461bcd60e51b8152602060048201526024808201527f45524332303a20617070726f76652066726f6d20746865207a65726f206164646044820152637265737360e01b60648201526084016106b6565b6001600160a01b038216611a2b5760405162461bcd60e51b815260206004820152602260248201527f45524332303a20617070726f766520746f20746865207a65726f206164647265604482015261737360f01b60648201526084016106b6565b6001600160a01b0383811660008181526001602090815260408083209487168084529482529182902085905590518481527f8c5be1e5ebec7d5bd14f71427d1e84f3dd0314c0f7b2291e5b200ac8c7c3b925910160405180910390a3505050565b6000611a9884846115fd565b90506000198114611b005781811015611af35760405162461bcd60e51b815260206004820152601d60248201527f45524332303a20696e73756666696369656e7420616c6c6f77616e636500000060448201526064016106b6565b611b008484848403611968565b50505050565b6001600160a01b038316611b6a5760405162461bcd60e51b815260206004820152602560248201527f45524332303a207472616e736665722066726f6d20746865207a65726f206164604482015264647265737360d81b60648201526084016106b6565b6001600160a01b038216611bcc5760405162461bcd60e51b815260206004820152602360248201527f45524332303a207472616e7366657220746f20746865207a65726f206164647260448201526265737360e81b60648201526084016106b6565b6001600160a01b03831660009081526020819052604090205481811015611c445760405162461bcd60e51b815260206004820152602660248201527f45524332303a207472616e7366657220616d6f756e7420657863656564732062604482015265616c616e636560d01b60648201526084016106b6565b6001600160a01b03808516600090815260208190526040808220858503905591851681529081208054849290611c7b9084906122ab565b92505081905550826001600160a01b0316846001600160a01b03167fddf252ad1be2c89b69c2b068fc378daa952ba7f163c4a11628f55a4df523b3ef84604051611cc791815260200190565b60405180910390a3611b00565b6000600183831c81169081146106165760005b949350505050565b828054611cfb90612260565b90600052602060002090601f016020900481019282611d1d5760008555611d63565b82601f10611d3657805160ff1916838001178555611d63565b82800160010185558215611d63579182015b82811115611d63578251825591602001919060010190611d48565b50611d6f929150611da8565b5090565b6040805160c081018252600080825260208201819052918101829052606081018290526080810182905260a081019190915290565b5b80821115611d6f5760008155600101611da9565b6000815180845260005b81811015611de357602081850181015186830182015201611dc7565b81811115611df5576000602083870101525b50601f01601f19169290920160200192915050565b6020815260006106416020830184611dbd565b80356001600160a01b0381168114611e3457600080fd5b919050565b60008060408385031215611e4c57600080fd5b611e5583611e1d565b946020939093013593505050565b600080600060608486031215611e7857600080fd5b611e8184611e1d565b9250611e8f60208501611e1d565b9150604084013590509250925092565b600060208284031215611eb157600080fd5b61064182611e1d565b803560ff81168114611e3457600080fd5b634e487b7160e01b600052604160045260246000fd5b600082601f830112611ef257600080fd5b813567ffffffffffffffff80821115611f0d57611f0d611ecb565b604051601f8301601f19908116603f01168101908282118183101715611f3557611f35611ecb565b81604052838152866020858801011115611f4e57600080fd5b836020870160208301376000602085830101528094505050505092915050565b600080600060608486031215611f8357600080fd5b83359250611f9360208501611eba565b9150604084013567ffffffffffffffff811115611faf57600080fd5b611fbb86828701611ee1565b9150509250925092565b80511515825260018060a01b0360208201511660208301526000604082015160606040850152611ce76060850182611dbd565b6000602080830181845280855180835260408601915060408160051b870101925083870160005b8281101561204d57603f1988860301845261203b858351611fc5565b9450928501929085019060010161201f565b5092979650505050505050565b80358015158114611e3457600080fd5b6000806040838503121561207d57600080fd5b611e558361205a565b80511515825260208082015160ff169083015260408082015190830152606080820151908301526080808201516001600160a01b039081169184019190915260a09182015116910152565b60c0810161061c8284612086565b6000602082840312156120f157600080fd5b813567ffffffffffffffff81111561210857600080fd5b611ce784828501611ee1565b60006020828403121561212657600080fd5b5035919050565b6020808252825182820181905260009190848201906040850190845b8181101561216f5761215c838551612086565b9284019260c09290920191600101612149565b50909695505050505050565b60006020828403121561218d57600080fd5b61064182611eba565b602081528151602082015260006020830151604080840152611ce76060840182611dbd565b600080604083850312156121ce57600080fd5b6121d783611e1d565b91506121e560208401611e1d565b90509250929050565b60008060006060848603121561220357600080fd5b833592506020840135915061221a6040850161205a565b90509250925092565b6000806040838503121561223657600080fd5b61223f83611e1d565b91506121e560208401611eba565b6020815260006106416020830184611fc5565b600181811c9082168061227457607f821691505b6020821081141561096c57634e487b7160e01b600052602260045260246000fd5b634e487b7160e01b600052601160045260246000fd5b600082198211156122be576122be612295565b500190565b634e487b7160e01b600052603260045260246000fd5b60006000198214156122ed576122ed612295565b5060010190565b60208082526022908201527f596f757220617265206e6f7420617574686f72697a656420746f20646f207468604082015261697360f01b606082015260800190565b60208082526026908201527f596f75722072616e6b20646f6573206e6f7420617574686f72697a6520757067604082015265726164696e6760d01b606082015260800190565b6020808252600e908201526d2737ba103b30b634b2103ab9b2b960911b60408201526060019056fea26469706673582212208ed729002bbf3cf500a87a7d2c080e2a1fdc38a7ce969b27bf4c8029c2fdd5d264736f6c634300080b0033",
  "immutableReferences": {},
  "source": "// SPDX-License-Identifier: MIT\r\n// Guild contract\r\npragma solidity ^0.8.0;\r\n\r\nimport \"@openzeppelin/contracts/token/ERC20/ERC20.sol\";\r\n\r\nimport \"./interfaces/IGuild.sol\";\r\nimport \"./library/LGuild.sol\";\r\n\r\ncontract Guild is ERC20, IGuild {\r\n  mapping(uint8 => GuildLib.Grade) _grades;\r\n  mapping(uint256 => GuildLib.Member) _members;\r\n  mapping(uint256 => GuildLib.Invit) _invits;\r\n\r\n  uint256 id;\r\n  uint256 nonceMember;\r\n  uint256 countMember;\r\n  uint256 countInvit;\r\n  address payable owner;\r\n  address myosAddress;\r\n\r\n  constructor(\r\n    string memory name,\r\n    string memory symbol,\r\n    address payable _owner,\r\n    address _myosAddress,\r\n    uint256 _id\r\n  ) ERC20(name, symbol) {\r\n    owner = _owner;\r\n    myosAddress = _myosAddress;\r\n    id = _id;\r\n  }\r\n\r\n  ///@notice check sender of transaction is creator of guild contract\r\n  modifier onlyCreator() {\r\n    require(_msgSender() == owner || _msgSender() == myosAddress, \"Not your guild\");\r\n    _;\r\n  }\r\n\r\n  ///@notice return a boolean from a uint256 by key\r\n  ///@param _packedBools pack of boolean contained into this uint256\r\n  ///@param _boolNumber key of bool you want to return\r\n  ///@return bool boolean contained into this uint256 by key\r\n  function getBoolean(\r\n    uint256 _packedBools,\r\n    uint256 _boolNumber\r\n  ) internal pure returns (bool) {\r\n    uint256 flag = (_packedBools >> _boolNumber) & uint256(1);\r\n    return (flag == 1 ? true : false);\r\n  }\r\n\r\n  ///@notice use this function external view to prepare uint256 of bool to set grade\r\n  ///@param _packedBools pack of boolean contained into this uint256\r\n  ///@param _boolNumber key of bool you want to set\r\n  ///@param _value ?\r\n  function setBoolean(\r\n    uint256 _packedBools,\r\n    uint256 _boolNumber,\r\n    bool _value\r\n  ) external pure returns (uint256) {\r\n    if (_value) {\r\n      _packedBools = _packedBools | (uint256(1) << _boolNumber);\r\n      return _packedBools;\r\n    }\r\n    _packedBools = _packedBools & ~(uint256(1) << _boolNumber);\r\n    return _packedBools;\r\n  }\r\n\r\n  ///@dev direct call (not by delegate contract)\r\n  ///@notice upsert grade member and authorization\r\n  ///@param _packedBools pack of boolean contained into this uint256\r\n  ///@param _id key id of grade mapping you want to set\r\n  ///@param name name of this grade\r\n  function setGrade(\r\n    uint256 _packedBools,\r\n    uint8 _id,\r\n    string memory name\r\n  ) external onlyCreator {\r\n    require(_id > 0 && _id < 10, \"10 Grade Max\");\r\n    _grades[_id] = GuildLib.Grade(_packedBools, name);\r\n  }\r\n\r\n  ///@dev direct call (not by delegate contract)\r\n  ///@notice return grade structure\r\n  ///@param _id key of grade you want to get\r\n  ///@return Grade structure of grade with parameters\r\n  function getGrade(uint8 _id) external view returns (GuildLib.Grade memory) {\r\n    return _grades[_id];\r\n  }\r\n\r\n  ///@notice send a subscribtion to this guild by sender\r\n  ///@param description short text for subscription\r\n  function suscribe(string memory description) external {\r\n    _invits[countInvit] = GuildLib.Invit(true, _msgSender(), description);\r\n    countInvit++;\r\n  }\r\n\r\n  ///@dev direct call (not by delegate contract)\r\n  ///@notice send an un-subscription to this guild by sender\r\n  function unsuscribe(uint256 invit) external {\r\n    require(_invits[invit].valid == true, \"This invitation is no more valid\");\r\n    uint256 changerId;\r\n    for (uint256 index = 0; index < countMember; index++) {\r\n      if (_members[index].addressMember == _msgSender()) changerId = index;\r\n    }\r\n    require(\r\n      _invits[invit].addr == _msgSender() ||\r\n        (_members[changerId].valid == true &&\r\n          getBoolean(_grades[_members[changerId].grade].datas, 4) == true),\r\n      \"Your are not authorized to do this\"\r\n    );\r\n    _invits[invit].valid = false;\r\n  }\r\n\r\n  ///@dev direct call (not by delegate contract)\r\n  ///@notice return one subscription request\r\n  ///@param invit uint256 id of invitation\r\n  ///@return Invit return structure invit\r\n  function getOneSubscription(\r\n    uint256 invit\r\n  ) external view returns (GuildLib.Invit memory) {\r\n    require(_invits[invit].valid == true, \"This invitation is no more valid\");\r\n    return _invits[invit];\r\n  }\r\n\r\n  /*function getAllSubscription() external view returns (uint256[] memory){\r\n        if(countInvit == 0){\r\n            return new uint256[](0);\r\n        }\r\n        else{\r\n            uint[] memory result = new uint256[](countInvit);\r\n            uint256 resultIndex = 0;\r\n            for(uint256 i = 0; i < countInvit; i++){\r\n                if(_invits[i].valid == true){\r\n                    result[resultIndex] = i;\r\n                    resultIndex++;\r\n                }\r\n            }\r\n            return result;\r\n        }\r\n    }*/\r\n\r\n  ///@dev direct call (not by delegate contract)\r\n  ///@notice return all subscription strucuture of this guilds\r\n  ///@return Invit array of invitation subscription\r\n  function getAllSubscriptionStruct() external view returns (GuildLib.Invit[] memory) {\r\n    if (countInvit == 0) {\r\n      return new GuildLib.Invit[](0);\r\n    } else {\r\n      GuildLib.Invit[] memory result = new GuildLib.Invit[](countInvit);\r\n      for (uint256 i = 0; i < countInvit; i++) {\r\n        if (_invits[i].valid == true) {\r\n          GuildLib.Invit storage invit = _invits[i];\r\n          result[i] = invit;\r\n        }\r\n      }\r\n      return result;\r\n    }\r\n  }\r\n\r\n  ///@dev direct call (not by delegate contract)\r\n  ///@notice add member to this guild only if we have grade for this\r\n  ///@param _to address of user you want to add member to this guild\r\n  function addMember(address _to) external {\r\n    uint256 changerId;\r\n    uint256 changedId;\r\n    for (uint256 index = 0; index < countMember; index++) {\r\n      if (_members[index].addressMember == _msgSender()) changerId = index;\r\n    }\r\n    for (uint256 index2 = 0; index2 < countInvit; index2++) {\r\n      if (_invits[index2].addr == _to) changedId = index2;\r\n    }\r\n    require(_members[changedId].valid == true, \"User not valid\");\r\n    require(\r\n      _members[changerId].valid == true &&\r\n        getBoolean(_grades[_members[changerId].grade].datas, 3) == true,\r\n      \"Your are not authorized to do this\"\r\n    );\r\n    _members[nonceMember] = GuildLib.Member(\r\n      false,\r\n      0,\r\n      block.timestamp,\r\n      0,\r\n      _msgSender(),\r\n      _to\r\n    );\r\n    _members[changedId].valid = false;\r\n    nonceMember++;\r\n  }\r\n\r\n  ///@dev direct call (not by delegate contract)\r\n  ///@notice change grade of one user if you have right\r\n  ///@param _to address of member you want to change grade\r\n  ///@param grade grade id you want to set for this member\r\n  function changeGrade(address _to, uint8 grade) external {\r\n    uint256 changerId;\r\n    uint256 changedId;\r\n    for (uint256 index = 0; index < countMember; index++) {\r\n      if (_members[index].addressMember == _msgSender()) changerId = index;\r\n      if (_members[index].addressMember == _to) changedId = index;\r\n    }\r\n    require(\r\n      getBoolean(_grades[_members[changerId].grade].datas, 7) == true ||\r\n        _msgSender() == owner ||\r\n        _msgSender() == myosAddress,\r\n      \"Your rank does not authorize upgrading\"\r\n    );\r\n    require(\r\n      (_members[changerId].grade >= grade &&\r\n        _members[changerId].grade > _members[changedId].grade) ||\r\n        _msgSender() == owner ||\r\n        _msgSender() == myosAddress,\r\n      \"Your rank is not high enough\"\r\n    );\r\n    require(\r\n      _members[changedId].valid == true && _members[changerId].valid == true,\r\n      \"Not valid user\"\r\n    );\r\n    _members[changerId].grade = grade;\r\n  }\r\n\r\n  ///@dev direct call (not by delegate contract)\r\n  ///@notice kick a member from this guild but keep datas, only set valid param to false but we send their money, we are not savage\r\n  ///@param _to address of member you want to kick\r\n  function subMember(address _to) external {\r\n    uint256 changerId;\r\n    uint256 changedId;\r\n    for (uint256 index = 0; index < countMember; index++) {\r\n      if (_members[index].addressMember == _msgSender()) changerId = index;\r\n      if (_members[index].addressMember == _to) changedId = index;\r\n    }\r\n\r\n    require(\r\n      getBoolean(_grades[_members[changerId].grade].datas, 4) == true ||\r\n        _msgSender() == owner ||\r\n        _msgSender() == myosAddress,\r\n      \"Your rank does not authorize upgrading\"\r\n    );\r\n    require(\r\n      _members[changerId].grade > _members[changedId].grade ||\r\n        _msgSender() == owner ||\r\n        _msgSender() == myosAddress,\r\n      \"Your rank is not high enough\"\r\n    );\r\n    require(\r\n      _members[changedId].valid == true && _members[changerId].valid == true,\r\n      \"Not valid user\"\r\n    );\r\n    payable(_members[changedId].addressMember).transfer(_members[changedId].chestETH);\r\n    _members[changedId].valid = false;\r\n  }\r\n\r\n  ///@dev direct call (not by delegate contract)\r\n  ///@notice return all members valid of this guild\r\n  ///@return Members array of member structure\r\n  function getAllMembers() external view returns (GuildLib.Member[] memory) {\r\n    if (countMember == 0) {\r\n      return new GuildLib.Member[](0);\r\n    } else {\r\n      GuildLib.Member[] memory result = new GuildLib.Member[](countMember);\r\n      for (uint256 i = 0; i < countMember; i++) {\r\n        if (_members[i].valid == true) {\r\n          GuildLib.Member storage member = _members[i];\r\n          result[i] = member;\r\n        }\r\n      }\r\n      return result;\r\n    }\r\n  }\r\n\r\n  ///@dev direct call (not by delegate contract)\r\n  ///@notice return one member of this guild\r\n  ///@param member address of member you want to get\r\n  ///@return Member member structure (can be empty stuct)\r\n  function getOneMember(address member) external view returns (GuildLib.Member memory) {\r\n    GuildLib.Member memory tempMember;\r\n    for (uint256 index = 0; index < countMember; index++) {\r\n      if (_members[index].addressMember == member) tempMember = _members[index];\r\n    }\r\n    return tempMember;\r\n  }\r\n\r\n  ///@dev direct call (not by delegate contract)\r\n  ///@notice validate or not a member in this guild\r\n  ///@param valid boolean validity of member\r\n  ///@param member id key of member\r\n  function validMember(bool valid, uint256 member) external onlyCreator {\r\n    _members[member].valid = valid;\r\n  }\r\n\r\n  ///@dev direct call (not by delegate contract)\r\n  ///@notice put wei in this contract, accessible only by sender\r\n  function sendETHInChest() external payable {\r\n    uint256 idUser;\r\n    for (uint256 index = 0; index < countMember; index++) {\r\n      if (_members[index].addressMember == _msgSender()) idUser = index;\r\n    }\r\n    require(_members[idUser].valid == true, \"Not valid user\");\r\n    _members[idUser].chestETH += msg.value;\r\n  }\r\n\r\n  ///@dev direct call (not by delegate contract)\r\n  ///@notice retrieve money sended by user on this contract\r\n  function withdrawETHMyChest(uint256 value) external {\r\n    uint256 idUser;\r\n    for (uint256 index = 0; index < countMember; index++) {\r\n      if (_members[index].addressMember == _msgSender()) idUser = index;\r\n    }\r\n    require(_members[idUser].valid == true, \"Not valid user\");\r\n    require(_members[idUser].chestETH >= value, \"Not enougth ether in chest\");\r\n    payable(_msgSender()).transfer(value);\r\n  }\r\n\r\n  //function kill() external onlyCreator {\r\n  //  selfdestruct(owner);\r\n  //}\r\n\r\n  ///@notice return id of this contract\r\n  ///@return id number key of this contract\r\n  function getId() external view returns (uint256) {\r\n    return id;\r\n  }\r\n\r\n  ///@notice check if owner is creater of this guild contract\r\n  ///@param _owner address of creator guild contract\r\n  ///@return owner boolean\r\n  function isOwner(address _owner) external view returns (bool) {\r\n    return _owner == owner;\r\n  }\r\n}\r\n",
  "sourcePath": "C:\\Users\\Kevin\\Desktop\\WorkHome\\--Solidity--MYOS\\contracts\\Guild.sol",
  "compiler": {
    "name": "solc",
    "version": "0.8.11+commit.d7f03943.Emscripten.clang"
  },
  "schemaVersion": "3.4.6",
  "updatedAt": "2022-11-06T23:28:42.034Z",
  "devdoc": {
    "kind": "dev",
    "methods": {
      "addMember(address)": {
        "details": "direct call (not by delegate contract)",
        "params": {
          "_to": "address of user you want to add member to this guild"
        }
      },
      "allowance(address,address)": {
        "details": "See {IERC20-allowance}."
      },
      "approve(address,uint256)": {
        "details": "See {IERC20-approve}. NOTE: If `amount` is the maximum `uint256`, the allowance is not updated on `transferFrom`. This is semantically equivalent to an infinite approval. Requirements: - `spender` cannot be the zero address."
      },
      "balanceOf(address)": {
        "details": "See {IERC20-balanceOf}."
      },
      "changeGrade(address,uint8)": {
        "details": "direct call (not by delegate contract)",
        "params": {
          "_to": "address of member you want to change grade",
          "grade": "grade id you want to set for this member"
        }
      },
      "decimals()": {
        "details": "Returns the number of decimals used to get its user representation. For example, if `decimals` equals `2`, a balance of `505` tokens should be displayed to a user as `5.05` (`505 / 10 ** 2`). Tokens usually opt for a value of 18, imitating the relationship between Ether and Wei. This is the value {ERC20} uses, unless this function is overridden; NOTE: This information is only used for _display_ purposes: it in no way affects any of the arithmetic of the contract, including {IERC20-balanceOf} and {IERC20-transfer}."
      },
      "decreaseAllowance(address,uint256)": {
        "details": "Atomically decreases the allowance granted to `spender` by the caller. This is an alternative to {approve} that can be used as a mitigation for problems described in {IERC20-approve}. Emits an {Approval} event indicating the updated allowance. Requirements: - `spender` cannot be the zero address. - `spender` must have allowance for the caller of at least `subtractedValue`."
      },
      "getAllMembers()": {
        "details": "direct call (not by delegate contract)",
        "returns": {
          "_0": "Members array of member structure"
        }
      },
      "getAllSubscriptionStruct()": {
        "details": "direct call (not by delegate contract)",
        "returns": {
          "_0": "Invit array of invitation subscription"
        }
      },
      "getGrade(uint8)": {
        "details": "direct call (not by delegate contract)",
        "params": {
          "_id": "key of grade you want to get"
        },
        "returns": {
          "_0": "Grade structure of grade with parameters"
        }
      },
      "getId()": {
        "returns": {
          "_0": "id number key of this contract"
        }
      },
      "getOneMember(address)": {
        "details": "direct call (not by delegate contract)",
        "params": {
          "member": "address of member you want to get"
        },
        "returns": {
          "_0": "Member member structure (can be empty stuct)"
        }
      },
      "getOneSubscription(uint256)": {
        "details": "direct call (not by delegate contract)",
        "params": {
          "invit": "uint256 id of invitation"
        },
        "returns": {
          "_0": "Invit return structure invit"
        }
      },
      "increaseAllowance(address,uint256)": {
        "details": "Atomically increases the allowance granted to `spender` by the caller. This is an alternative to {approve} that can be used as a mitigation for problems described in {IERC20-approve}. Emits an {Approval} event indicating the updated allowance. Requirements: - `spender` cannot be the zero address."
      },
      "isOwner(address)": {
        "params": {
          "_owner": "address of creator guild contract"
        },
        "returns": {
          "_0": "owner boolean"
        }
      },
      "name()": {
        "details": "Returns the name of the token."
      },
      "sendETHInChest()": {
        "details": "direct call (not by delegate contract)"
      },
      "setBoolean(uint256,uint256,bool)": {
        "params": {
          "_boolNumber": "key of bool you want to set",
          "_packedBools": "pack of boolean contained into this uint256",
          "_value": "?"
        }
      },
      "setGrade(uint256,uint8,string)": {
        "details": "direct call (not by delegate contract)",
        "params": {
          "_id": "key id of grade mapping you want to set",
          "_packedBools": "pack of boolean contained into this uint256",
          "name": "name of this grade"
        }
      },
      "subMember(address)": {
        "details": "direct call (not by delegate contract)",
        "params": {
          "_to": "address of member you want to kick"
        }
      },
      "suscribe(string)": {
        "params": {
          "description": "short text for subscription"
        }
      },
      "symbol()": {
        "details": "Returns the symbol of the token, usually a shorter version of the name."
      },
      "totalSupply()": {
        "details": "See {IERC20-totalSupply}."
      },
      "transfer(address,uint256)": {
        "details": "See {IERC20-transfer}. Requirements: - `to` cannot be the zero address. - the caller must have a balance of at least `amount`."
      },
      "transferFrom(address,address,uint256)": {
        "details": "See {IERC20-transferFrom}. Emits an {Approval} event indicating the updated allowance. This is not required by the EIP. See the note at the beginning of {ERC20}. NOTE: Does not update the allowance if the current allowance is the maximum `uint256`. Requirements: - `from` and `to` cannot be the zero address. - `from` must have a balance of at least `amount`. - the caller must have allowance for ``from``'s tokens of at least `amount`."
      },
      "unsuscribe(uint256)": {
        "details": "direct call (not by delegate contract)"
      },
      "validMember(bool,uint256)": {
        "details": "direct call (not by delegate contract)",
        "params": {
          "member": "id key of member",
          "valid": "boolean validity of member"
        }
      },
      "withdrawETHMyChest(uint256)": {
        "details": "direct call (not by delegate contract)"
      }
    },
    "version": 1
  },
  "userdoc": {
    "kind": "user",
    "methods": {
      "addMember(address)": {
        "notice": "add member to this guild only if we have grade for this"
      },
      "changeGrade(address,uint8)": {
        "notice": "change grade of one user if you have right"
      },
      "getAllMembers()": {
        "notice": "return all members valid of this guild"
      },
      "getAllSubscriptionStruct()": {
        "notice": "return all subscription strucuture of this guilds"
      },
      "getGrade(uint8)": {
        "notice": "return grade structure"
      },
      "getId()": {
        "notice": "return id of this contract"
      },
      "getOneMember(address)": {
        "notice": "return one member of this guild"
      },
      "getOneSubscription(uint256)": {
        "notice": "return one subscription request"
      },
      "isOwner(address)": {
        "notice": "check if owner is creater of this guild contract"
      },
      "sendETHInChest()": {
        "notice": "put wei in this contract, accessible only by sender"
      },
      "setBoolean(uint256,uint256,bool)": {
        "notice": "use this function external view to prepare uint256 of bool to set grade"
      },
      "setGrade(uint256,uint8,string)": {
        "notice": "upsert grade member and authorization"
      },
      "subMember(address)": {
        "notice": "kick a member from this guild but keep datas, only set valid param to false but we send their money, we are not savage"
      },
      "suscribe(string)": {
        "notice": "send a subscribtion to this guild by sender"
      },
      "unsuscribe(uint256)": {
        "notice": "send an un-subscription to this guild by sender"
      },
      "validMember(bool,uint256)": {
        "notice": "validate or not a member in this guild"
      },
      "withdrawETHMyChest(uint256)": {
        "notice": "retrieve money sended by user on this contract"
      }
    },
    "version": 1
  }
}