{
  "contractName": "Guild",
  "abi": [
    {
      "inputs": [
        {
          "internalType": "string",
          "name": "name",
          "type": "string"
        },
        {
          "internalType": "string",
          "name": "symbol",
          "type": "string"
        },
        {
          "internalType": "address payable",
          "name": "_owner",
          "type": "address"
        },
        {
          "internalType": "address",
          "name": "_myosAddress",
          "type": "address"
        },
        {
          "internalType": "uint256",
          "name": "_id",
          "type": "uint256"
        }
      ],
      "stateMutability": "nonpayable",
      "type": "constructor"
    },
    {
      "anonymous": false,
      "inputs": [
        {
          "indexed": true,
          "internalType": "address",
          "name": "owner",
          "type": "address"
        },
        {
          "indexed": true,
          "internalType": "address",
          "name": "spender",
          "type": "address"
        },
        {
          "indexed": false,
          "internalType": "uint256",
          "name": "value",
          "type": "uint256"
        }
      ],
      "name": "Approval",
      "type": "event"
    },
    {
      "anonymous": false,
      "inputs": [
        {
          "indexed": true,
          "internalType": "address",
          "name": "from",
          "type": "address"
        },
        {
          "indexed": true,
          "internalType": "address",
          "name": "to",
          "type": "address"
        },
        {
          "indexed": false,
          "internalType": "uint256",
          "name": "value",
          "type": "uint256"
        }
      ],
      "name": "Transfer",
      "type": "event"
    },
    {
      "inputs": [
        {
          "internalType": "address",
          "name": "owner",
          "type": "address"
        },
        {
          "internalType": "address",
          "name": "spender",
          "type": "address"
        }
      ],
      "name": "allowance",
      "outputs": [
        {
          "internalType": "uint256",
          "name": "",
          "type": "uint256"
        }
      ],
      "stateMutability": "view",
      "type": "function"
    },
    {
      "inputs": [
        {
          "internalType": "address",
          "name": "spender",
          "type": "address"
        },
        {
          "internalType": "uint256",
          "name": "amount",
          "type": "uint256"
        }
      ],
      "name": "approve",
      "outputs": [
        {
          "internalType": "bool",
          "name": "",
          "type": "bool"
        }
      ],
      "stateMutability": "nonpayable",
      "type": "function"
    },
    {
      "inputs": [
        {
          "internalType": "address",
          "name": "account",
          "type": "address"
        }
      ],
      "name": "balanceOf",
      "outputs": [
        {
          "internalType": "uint256",
          "name": "",
          "type": "uint256"
        }
      ],
      "stateMutability": "view",
      "type": "function"
    },
    {
      "inputs": [],
      "name": "decimals",
      "outputs": [
        {
          "internalType": "uint8",
          "name": "",
          "type": "uint8"
        }
      ],
      "stateMutability": "view",
      "type": "function"
    },
    {
      "inputs": [
        {
          "internalType": "address",
          "name": "spender",
          "type": "address"
        },
        {
          "internalType": "uint256",
          "name": "subtractedValue",
          "type": "uint256"
        }
      ],
      "name": "decreaseAllowance",
      "outputs": [
        {
          "internalType": "bool",
          "name": "",
          "type": "bool"
        }
      ],
      "stateMutability": "nonpayable",
      "type": "function"
    },
    {
      "inputs": [
        {
          "internalType": "address",
          "name": "spender",
          "type": "address"
        },
        {
          "internalType": "uint256",
          "name": "addedValue",
          "type": "uint256"
        }
      ],
      "name": "increaseAllowance",
      "outputs": [
        {
          "internalType": "bool",
          "name": "",
          "type": "bool"
        }
      ],
      "stateMutability": "nonpayable",
      "type": "function"
    },
    {
      "inputs": [],
      "name": "name",
      "outputs": [
        {
          "internalType": "string",
          "name": "",
          "type": "string"
        }
      ],
      "stateMutability": "view",
      "type": "function"
    },
    {
      "inputs": [],
      "name": "symbol",
      "outputs": [
        {
          "internalType": "string",
          "name": "",
          "type": "string"
        }
      ],
      "stateMutability": "view",
      "type": "function"
    },
    {
      "inputs": [],
      "name": "totalSupply",
      "outputs": [
        {
          "internalType": "uint256",
          "name": "",
          "type": "uint256"
        }
      ],
      "stateMutability": "view",
      "type": "function"
    },
    {
      "inputs": [
        {
          "internalType": "address",
          "name": "to",
          "type": "address"
        },
        {
          "internalType": "uint256",
          "name": "amount",
          "type": "uint256"
        }
      ],
      "name": "transfer",
      "outputs": [
        {
          "internalType": "bool",
          "name": "",
          "type": "bool"
        }
      ],
      "stateMutability": "nonpayable",
      "type": "function"
    },
    {
      "inputs": [
        {
          "internalType": "address",
          "name": "from",
          "type": "address"
        },
        {
          "internalType": "address",
          "name": "to",
          "type": "address"
        },
        {
          "internalType": "uint256",
          "name": "amount",
          "type": "uint256"
        }
      ],
      "name": "transferFrom",
      "outputs": [
        {
          "internalType": "bool",
          "name": "",
          "type": "bool"
        }
      ],
      "stateMutability": "nonpayable",
      "type": "function"
    },
    {
      "inputs": [
        {
          "internalType": "uint256",
          "name": "_packedBools",
          "type": "uint256"
        },
        {
          "internalType": "uint256",
          "name": "_boolNumber",
          "type": "uint256"
        },
        {
          "internalType": "bool",
          "name": "_value",
          "type": "bool"
        }
      ],
      "name": "setBoolean",
      "outputs": [
        {
          "internalType": "uint256",
          "name": "",
          "type": "uint256"
        }
      ],
      "stateMutability": "pure",
      "type": "function"
    },
    {
      "inputs": [
        {
          "internalType": "uint256",
          "name": "_packedBools",
          "type": "uint256"
        },
        {
          "internalType": "uint8",
          "name": "_id",
          "type": "uint8"
        },
        {
          "internalType": "string",
          "name": "name",
          "type": "string"
        }
      ],
      "name": "setGrade",
      "outputs": [],
      "stateMutability": "nonpayable",
      "type": "function"
    },
    {
      "inputs": [
        {
          "internalType": "uint8",
          "name": "_id",
          "type": "uint8"
        }
      ],
      "name": "getGrade",
      "outputs": [
        {
          "components": [
            {
              "internalType": "uint256",
              "name": "datas",
              "type": "uint256"
            },
            {
              "internalType": "string",
              "name": "name",
              "type": "string"
            }
          ],
          "internalType": "struct GuildLib.Grade",
          "name": "",
          "type": "tuple"
        }
      ],
      "stateMutability": "view",
      "type": "function"
    },
    {
      "inputs": [
        {
          "internalType": "string",
          "name": "description",
          "type": "string"
        }
      ],
      "name": "suscribe",
      "outputs": [],
      "stateMutability": "nonpayable",
      "type": "function"
    },
    {
      "inputs": [
        {
          "internalType": "uint256",
          "name": "invit",
          "type": "uint256"
        }
      ],
      "name": "unsuscribe",
      "outputs": [],
      "stateMutability": "nonpayable",
      "type": "function"
    },
    {
      "inputs": [
        {
          "internalType": "uint256",
          "name": "invit",
          "type": "uint256"
        }
      ],
      "name": "getOneSubscription",
      "outputs": [
        {
          "components": [
            {
              "internalType": "bool",
              "name": "valid",
              "type": "bool"
            },
            {
              "internalType": "address",
              "name": "addr",
              "type": "address"
            },
            {
              "internalType": "string",
              "name": "description",
              "type": "string"
            }
          ],
          "internalType": "struct GuildLib.Invit",
          "name": "",
          "type": "tuple"
        }
      ],
      "stateMutability": "view",
      "type": "function"
    },
    {
      "inputs": [],
      "name": "getAllSubscriptionStruct",
      "outputs": [
        {
          "components": [
            {
              "internalType": "bool",
              "name": "valid",
              "type": "bool"
            },
            {
              "internalType": "address",
              "name": "addr",
              "type": "address"
            },
            {
              "internalType": "string",
              "name": "description",
              "type": "string"
            }
          ],
          "internalType": "struct GuildLib.Invit[]",
          "name": "",
          "type": "tuple[]"
        }
      ],
      "stateMutability": "view",
      "type": "function"
    },
    {
      "inputs": [
        {
          "internalType": "address",
          "name": "_to",
          "type": "address"
        }
      ],
      "name": "addMember",
      "outputs": [],
      "stateMutability": "nonpayable",
      "type": "function"
    },
    {
      "inputs": [
        {
          "internalType": "address",
          "name": "_to",
          "type": "address"
        },
        {
          "internalType": "uint8",
          "name": "grade",
          "type": "uint8"
        }
      ],
      "name": "changeGrade",
      "outputs": [],
      "stateMutability": "nonpayable",
      "type": "function"
    },
    {
      "inputs": [
        {
          "internalType": "address",
          "name": "_to",
          "type": "address"
        }
      ],
      "name": "subMember",
      "outputs": [],
      "stateMutability": "nonpayable",
      "type": "function"
    },
    {
      "inputs": [],
      "name": "getAllMembers",
      "outputs": [
        {
          "components": [
            {
              "internalType": "bool",
              "name": "valid",
              "type": "bool"
            },
            {
              "internalType": "uint8",
              "name": "grade",
              "type": "uint8"
            },
            {
              "internalType": "uint256",
              "name": "createdAt",
              "type": "uint256"
            },
            {
              "internalType": "uint256",
              "name": "chestETH",
              "type": "uint256"
            },
            {
              "internalType": "address",
              "name": "addBy",
              "type": "address"
            },
            {
              "internalType": "address",
              "name": "addressMember",
              "type": "address"
            }
          ],
          "internalType": "struct GuildLib.Member[]",
          "name": "",
          "type": "tuple[]"
        }
      ],
      "stateMutability": "view",
      "type": "function"
    },
    {
      "inputs": [
        {
          "internalType": "address",
          "name": "member",
          "type": "address"
        }
      ],
      "name": "getOneMember",
      "outputs": [
        {
          "components": [
            {
              "internalType": "bool",
              "name": "valid",
              "type": "bool"
            },
            {
              "internalType": "uint8",
              "name": "grade",
              "type": "uint8"
            },
            {
              "internalType": "uint256",
              "name": "createdAt",
              "type": "uint256"
            },
            {
              "internalType": "uint256",
              "name": "chestETH",
              "type": "uint256"
            },
            {
              "internalType": "address",
              "name": "addBy",
              "type": "address"
            },
            {
              "internalType": "address",
              "name": "addressMember",
              "type": "address"
            }
          ],
          "internalType": "struct GuildLib.Member",
          "name": "",
          "type": "tuple"
        }
      ],
      "stateMutability": "view",
      "type": "function"
    },
    {
      "inputs": [
        {
          "internalType": "bool",
          "name": "valid",
          "type": "bool"
        },
        {
          "internalType": "uint256",
          "name": "member",
          "type": "uint256"
        }
      ],
      "name": "validMember",
      "outputs": [],
      "stateMutability": "nonpayable",
      "type": "function"
    },
    {
      "inputs": [],
      "name": "sendETHInChest",
      "outputs": [],
      "stateMutability": "payable",
      "type": "function"
    },
    {
      "inputs": [
        {
          "internalType": "uint256",
          "name": "value",
          "type": "uint256"
        }
      ],
      "name": "withdrawETHMyChest",
      "outputs": [],
      "stateMutability": "nonpayable",
      "type": "function"
    },
    {
      "inputs": [],
      "name": "getId",
      "outputs": [
        {
          "internalType": "uint256",
          "name": "",
          "type": "uint256"
        }
      ],
      "stateMutability": "view",
      "type": "function"
    },
    {
      "inputs": [
        {
          "internalType": "address",
          "name": "_owner",
          "type": "address"
        }
      ],
      "name": "isOwner",
      "outputs": [
        {
          "internalType": "bool",
          "name": "",
          "type": "bool"
        }
      ],
      "stateMutability": "view",
      "type": "function"
    }
  ],
  "bytecode": "0x60806040523480156200001157600080fd5b50604051620027263803806200272683398101604081905262000034916200022e565b8451859085906200004d906003906020850190620000a2565b50805162000063906004906020840190620000a2565b5050600c80546001600160a01b039586166001600160a01b031991821617909155600d80549490951693169290921790925550600855506200030b9050565b828054620000b090620002ce565b90600052602060002090601f016020900481019282620000d457600085556200011f565b82601f10620000ef57805160ff19168380011785556200011f565b828001600101855582156200011f579182015b828111156200011f57825182559160200191906001019062000102565b506200012d92915062000131565b5090565b5b808211156200012d576000815560010162000132565b634e487b7160e01b600052604160045260246000fd5b600082601f8301126200017057600080fd5b81516001600160401b03808211156200018d576200018d62000148565b604051601f8301601f19908116603f01168101908282118183101715620001b857620001b862000148565b81604052838152602092508683858801011115620001d557600080fd5b600091505b83821015620001f95785820183015181830184015290820190620001da565b838211156200020b5760008385830101525b9695505050505050565b6001600160a01b03811681146200022b57600080fd5b50565b600080600080600060a086880312156200024757600080fd5b85516001600160401b03808211156200025f57600080fd5b6200026d89838a016200015e565b965060208801519150808211156200028457600080fd5b5062000293888289016200015e565b9450506040860151620002a68162000215565b6060870151909350620002b98162000215565b80925050608086015190509295509295909350565b600181811c90821680620002e357607f821691505b602082108114156200030557634e487b7160e01b600052602260045260246000fd5b50919050565b61240b806200031b6000396000f3fe6080604052600436106101b75760003560e01c806372a2377f116100ec578063ca6d56dc1161008a578063dd62ed3e11610064578063dd62ed3e146104e9578063e0f9895514610509578063f798e52514610529578063fd0232b21461054957600080fd5b8063ca6d56dc14610494578063ccf25b4d146104b4578063cd9f0921146104e157600080fd5b8063a457c2d7116100c6578063a457c2d714610414578063a9059cbb14610434578063aa887bb614610454578063c7f067441461047457600080fd5b806372a2377f146103bd5780637c0f6b35146103dd57806395d89b41146103ff57600080fd5b8063395093511161015957806355f6e5071161013357806355f6e507146103255780635d1ca631146103525780636586737a1461036757806370a082311461038757600080fd5b806339509351146102c357806340566488146102e357806344a96ce01461030557600080fd5b806323b872dd1161019557806323b872dd146102365780632f54bf6e14610256578063313ce567146102855780633597f252146102a157600080fd5b806306fdde03146101bc578063095ea7b3146101e757806318160ddd14610217575b600080fd5b3480156101c857600080fd5b506101d1610576565b6040516101de9190611e6f565b60405180910390f35b3480156101f357600080fd5b50610207610202366004611e9e565b610608565b60405190151581526020016101de565b34801561022357600080fd5b506002545b6040519081526020016101de565b34801561024257600080fd5b50610207610251366004611ec8565b610622565b34801561026257600080fd5b50610207610271366004611f04565b600c546001600160a01b0391821691161490565b34801561029157600080fd5b50604051601281526020016101de565b3480156102ad57600080fd5b506102c16102bc366004611f79565b610648565b005b3480156102cf57600080fd5b506102076102de366004611e9e565b610792565b3480156102ef57600080fd5b506102f86107b4565b6040516101de9190612006565b34801561031157600080fd5b506102c1610320366004612078565b6109ac565b34801561033157600080fd5b50610345610340366004611f04565b610a3d565b6040516101de91906120df565b34801561035e57600080fd5b50600854610228565b34801561037357600080fd5b506102c16103823660046120ed565b610b07565b34801561039357600080fd5b506102286103a2366004611f04565b6001600160a01b031660009081526020819052604090205490565b3480156103c957600080fd5b506102c16103d836600461212f565b610bd5565b3480156103e957600080fd5b506103f2610d2d565b6040516101de9190612148565b34801561040b57600080fd5b506101d1610e8e565b34801561042057600080fd5b5061020761042f366004611e9e565b610e9d565b34801561044057600080fd5b5061020761044f366004611e9e565b610f23565b34801561046057600080fd5b506102c161046f366004611f04565b610f31565b34801561048057600080fd5b506102c161048f36600461212f565b611199565b3480156104a057600080fd5b506102c16104af366004611f04565b6112a6565b3480156104c057600080fd5b506104d46104cf366004612196565b6114eb565b6040516101de91906121b1565b6102c16115bf565b3480156104f557600080fd5b506102286105043660046121d6565b611662565b34801561051557600080fd5b50610228610524366004612209565b61168d565b34801561053557600080fd5b506102c161054436600461223e565b6116b0565b34801561055557600080fd5b5061056961056436600461212f565b6118fe565b6040516101de9190612268565b6060600380546105859061227b565b80601f01602080910402602001604051908101604052809291908181526020018280546105b19061227b565b80156105fe5780601f106105d3576101008083540402835291602001916105fe565b820191906000526020600020905b8154815290600101906020018083116105e157829003601f168201915b5050505050905090565b6000336106168185856119cd565b60019150505b92915050565b600033610630858285611af1565b61063b858585611b6b565b60019150505b9392505050565b600c546001600160a01b0316336001600160a01b0316148061067d5750600d546001600160a01b0316336001600160a01b0316145b6106bf5760405162461bcd60e51b815260206004820152600e60248201526d139bdd081e5bdd5c8819dd5a5b1960921b60448201526064015b60405180910390fd5b60008360ff161180156106d55750600a8360ff16105b6107105760405162461bcd60e51b815260206004820152600c60248201526b06260408ee4c2c8ca409ac2f60a31b60448201526064016106b6565b604051806040016040528085815260200183838080601f016020809104026020016040519081016040528093929190818152602001838380828437600092018290525093909452505060ff8616815260056020908152604090912083518155838201518051919350610789926001850192910190611d54565b50505050505050565b6000336106168185856107a58383611662565b6107af91906122c6565b6119cd565b6060600b546000141561080c576040805160008082526020820190925290610806565b604080516060808201835260008083526020830152918101919091528152602001906001900390816107d75790505b50905090565b6000600b5467ffffffffffffffff811115610829576108296122de565b60405190808252806020026020018201604052801561087657816020015b604080516060808201835260008083526020830152918101919091528152602001906001900390816108475790505b50905060005b600b548110156109a65760008181526007602052604090205460ff16151560011415610994576000818152600760209081526040918290208251606081018452815460ff81161515825261010090046001600160a01b0316928101929092526001810180549193849290840191906108f39061227b565b80601f016020809104026020016040519081016040528092919081815260200182805461091f9061227b565b801561096c5780601f106109415761010080835404028352916020019161096c565b820191906000526020600020905b81548152906001019060200180831161094f57829003601f168201915b505050505081525050838381518110610987576109876122f4565b6020026020010181905250505b8061099e8161230a565b91505061087c565b50919050565b600c546001600160a01b0316336001600160a01b031614806109e15750600d546001600160a01b0316336001600160a01b0316145b610a1e5760405162461bcd60e51b815260206004820152600e60248201526d139bdd081e5bdd5c8819dd5a5b1960921b60448201526064016106b6565b6000908152600660205260409020805460ff1916911515919091179055565b610a45611dd8565b610a4d611dd8565b60005b600a54811015610b00576000818152600660205260409020600401546001600160a01b0385811691161415610aee57600081815260066020908152604091829020825160c081018452815460ff8082161515835261010090910416928101929092526001810154928201929092526002820154606082015260038201546001600160a01b03908116608083015260049092015490911660a082015291505b80610af88161230a565b915050610a50565b5092915050565b60408051606081019091526001815260208101336001600160a01b0316815260200183838080601f0160208091040260200160405190810160405280939291908181526020018383808284376000920182905250939094525050600b5481526007602090815260409182902084518154868401516001600160a01b031661010002610100600160a81b0319921515929092166001600160a81b031990911617178155918401518051929350610bc59260018501929190910190611d54565b5050600b80546001019055505050565b60008181526007602052604090205460ff161515600114610c385760405162461bcd60e51b815260206004820181905260248201527f5468697320696e7669746174696f6e206973206e6f206d6f72652076616c696460448201526064016106b6565b6000805b600a54811015610c7e576000818152600660205260409020600401546001600160a01b0316331415610c6c578091505b80610c768161230a565b915050610c3c565b506000828152600760205260409020546001600160a01b0361010090910416331480610cf8575060008181526006602052604090205460ff1615156001148015610cf85750600081815260066020908152604080832054610100900460ff1683526005909152902054610cf2906004611d39565b15156001145b610d145760405162461bcd60e51b81526004016106b690612325565b506000908152600760205260409020805460ff19169055565b6060600a5460001415610d70576040805160008082526020820190925290610806565b610d58611dd8565b815260200190600190039081610d5057905050905090565b6000600a5467ffffffffffffffff811115610d8d57610d8d6122de565b604051908082528060200260200182016040528015610dc657816020015b610db3611dd8565b815260200190600190039081610dab5790505b50905060005b600a548110156109a65760008181526006602052604090205460ff16151560011415610e7c57600081815260066020908152604091829020825160c081018452815460ff8082161515835261010090910416928101929092526001810154928201929092526002820154606082015260038201546001600160a01b03908116608083015260048301541660a08201528351849084908110610e6f57610e6f6122f4565b6020026020010181905250505b80610e868161230a565b915050610dcc565b6060600480546105859061227b565b60003381610eab8286611662565b905083811015610f0b5760405162461bcd60e51b815260206004820152602560248201527f45524332303a2064656372656173656420616c6c6f77616e63652062656c6f77604482015264207a65726f60d81b60648201526084016106b6565b610f1882868684036119cd565b506001949350505050565b600033610616818585611b6b565b60008060005b600a54811015610fa2576000818152600660205260409020600401546001600160a01b0316331415610f67578092505b6000818152600660205260409020600401546001600160a01b0385811691161415610f90578091505b80610f9a8161230a565b915050610f37565b50600082815260066020908152604080832054610100900460ff1683526005909152902054610fd2906004611d39565b151560011480610ff55750600c546001600160a01b0316336001600160a01b0316145b806110135750600d546001600160a01b0316336001600160a01b0316145b61102f5760405162461bcd60e51b81526004016106b690612367565b6000818152600660205260408082205484835291205460ff610100928390048116929091041611806110745750600c546001600160a01b0316336001600160a01b0316145b806110925750600d546001600160a01b0316336001600160a01b0316145b6110de5760405162461bcd60e51b815260206004820152601c60248201527f596f75722072616e6b206973206e6f74206869676820656e6f7567680000000060448201526064016106b6565b60008181526006602052604090205460ff1615156001148015611114575060008281526006602052604090205460ff1615156001145b6111305760405162461bcd60e51b81526004016106b6906123ad565b600081815260066020526040808220600481015460029091015491516001600160a01b039091169282156108fc02929190818181858888f1935050505015801561117e573d6000803e3d6000fd5b506000908152600660205260409020805460ff191690555050565b6000805b600a548110156111df576000818152600660205260409020600401546001600160a01b03163314156111cd578091505b806111d78161230a565b91505061119d565b5060008181526006602052604090205460ff1615156001146112135760405162461bcd60e51b81526004016106b6906123ad565b6000818152600660205260409020600201548211156112745760405162461bcd60e51b815260206004820152601a60248201527f4e6f7420656e6f7567746820657468657220696e20636865737400000000000060448201526064016106b6565b604051339083156108fc029084906000818181858888f193505050501580156112a1573d6000803e3d6000fd5b505050565b60008060005b600a548110156112ee576000818152600660205260409020600401546001600160a01b03163314156112dc578092505b806112e68161230a565b9150506112ac565b5060005b600b54811015611339576000818152600760205260409020546001600160a01b03858116610100909204161415611327578091505b806113318161230a565b9150506112f2565b5060008181526006602052604090205460ff16151560011461138e5760405162461bcd60e51b815260206004820152600e60248201526d155cd95c881b9bdd081d985b1a5960921b60448201526064016106b6565b60008281526006602052604090205460ff16151560011480156113e15750600082815260066020908152604080832054610100900460ff16835260059091529020546113db906003611d39565b15156001145b6113fd5760405162461bcd60e51b81526004016106b690612325565b6040518060c00160405280600015158152602001600060ff1681526020014281526020016000815260200161142f3390565b6001600160a01b039081168252948516602091820152600980546000908152600683526040808220855181549587015160ff166101000261ff00199115159190911661ffff199096169590951794909417845584810151600180860191909155606086015160028601556080860151600386018054918b166001600160a01b031992831617905560a09096015160049095018054959099169490951693909317909655928552909320805460ff19169055805490920190915550565b60408051808201909152600081526060602082015260ff821660009081526005602090815260409182902082518084019093528054835260018101805491928401916115369061227b565b80601f01602080910402602001604051908101604052809291908181526020018280546115629061227b565b80156115af5780601f10611584576101008083540402835291602001916115af565b820191906000526020600020905b81548152906001019060200180831161159257829003601f168201915b5050505050815250509050919050565b6000805b600a54811015611605576000818152600660205260409020600401546001600160a01b03163314156115f3578091505b806115fd8161230a565b9150506115c3565b5060008181526006602052604090205460ff1615156001146116395760405162461bcd60e51b81526004016106b6906123ad565b6000818152600660205260408120600201805434929061165a9084906122c6565b909155505050565b6001600160a01b03918216600090815260016020908152604080832093909416825291909152205490565b600081156116a557506001821b929092179182610641565b50506001901b191690565b60008060005b600a54811015611721576000818152600660205260409020600401546001600160a01b03163314156116e6578092505b6000818152600660205260409020600401546001600160a01b038681169116141561170f578091505b806117198161230a565b9150506116b6565b50600082815260066020908152604080832054610100900460ff1683526005909152902054611751906007611d39565b1515600114806117745750600c546001600160a01b0316336001600160a01b0316145b806117925750600d546001600160a01b0316336001600160a01b0316145b6117ae5760405162461bcd60e51b81526004016106b690612367565b60008281526006602052604090205460ff80851661010090920416108015906117fa57506000818152600660205260408082205484835291205460ff6101009283900481169290910416115b806118185750600c546001600160a01b0316336001600160a01b0316145b806118365750600d546001600160a01b0316336001600160a01b0316145b6118825760405162461bcd60e51b815260206004820152601c60248201527f596f75722072616e6b206973206e6f74206869676820656e6f7567680000000060448201526064016106b6565b60008181526006602052604090205460ff16151560011480156118b8575060008281526006602052604090205460ff1615156001145b6118d45760405162461bcd60e51b81526004016106b6906123ad565b506000908152600660205260409020805460ff9092166101000261ff001990921691909117905550565b6040805160608082018352600080835260208301529181019190915260008281526007602052604090205460ff16151560011461197d5760405162461bcd60e51b815260206004820181905260248201527f5468697320696e7669746174696f6e206973206e6f206d6f72652076616c696460448201526064016106b6565b6000828152600760209081526040918290208251606081018452815460ff81161515825261010090046001600160a01b03169281019290925260018101805492939192918401916115369061227b565b6001600160a01b038316611a2f5760405162461bcd60e51b8152602060048201526024808201527f45524332303a20617070726f76652066726f6d20746865207a65726f206164646044820152637265737360e01b60648201526084016106b6565b6001600160a01b038216611a905760405162461bcd60e51b815260206004820152602260248201527f45524332303a20617070726f766520746f20746865207a65726f206164647265604482015261737360f01b60648201526084016106b6565b6001600160a01b0383811660008181526001602090815260408083209487168084529482529182902085905590518481527f8c5be1e5ebec7d5bd14f71427d1e84f3dd0314c0f7b2291e5b200ac8c7c3b925910160405180910390a3505050565b6000611afd8484611662565b90506000198114611b655781811015611b585760405162461bcd60e51b815260206004820152601d60248201527f45524332303a20696e73756666696369656e7420616c6c6f77616e636500000060448201526064016106b6565b611b6584848484036119cd565b50505050565b6001600160a01b038316611bcf5760405162461bcd60e51b815260206004820152602560248201527f45524332303a207472616e736665722066726f6d20746865207a65726f206164604482015264647265737360d81b60648201526084016106b6565b6001600160a01b038216611c315760405162461bcd60e51b815260206004820152602360248201527f45524332303a207472616e7366657220746f20746865207a65726f206164647260448201526265737360e81b60648201526084016106b6565b6001600160a01b03831660009081526020819052604090205481811015611ca95760405162461bcd60e51b815260206004820152602660248201527f45524332303a207472616e7366657220616d6f756e7420657863656564732062604482015265616c616e636560d01b60648201526084016106b6565b6001600160a01b03808516600090815260208190526040808220858503905591851681529081208054849290611ce09084906122c6565b92505081905550826001600160a01b0316846001600160a01b03167fddf252ad1be2c89b69c2b068fc378daa952ba7f163c4a11628f55a4df523b3ef84604051611d2c91815260200190565b60405180910390a3611b65565b6000600183831c81169081146106165760005b949350505050565b828054611d609061227b565b90600052602060002090601f016020900481019282611d825760008555611dc8565b82601f10611d9b57805160ff1916838001178555611dc8565b82800160010185558215611dc8579182015b82811115611dc8578251825591602001919060010190611dad565b50611dd4929150611e0d565b5090565b6040805160c081018252600080825260208201819052918101829052606081018290526080810182905260a081019190915290565b5b80821115611dd45760008155600101611e0e565b6000815180845260005b81811015611e4857602081850181015186830182015201611e2c565b81811115611e5a576000602083870101525b50601f01601f19169290920160200192915050565b6020815260006106416020830184611e22565b80356001600160a01b0381168114611e9957600080fd5b919050565b60008060408385031215611eb157600080fd5b611eba83611e82565b946020939093013593505050565b600080600060608486031215611edd57600080fd5b611ee684611e82565b9250611ef460208501611e82565b9150604084013590509250925092565b600060208284031215611f1657600080fd5b61064182611e82565b803560ff81168114611e9957600080fd5b60008083601f840112611f4257600080fd5b50813567ffffffffffffffff811115611f5a57600080fd5b602083019150836020828501011115611f7257600080fd5b9250929050565b60008060008060608587031215611f8f57600080fd5b84359350611f9f60208601611f1f565b9250604085013567ffffffffffffffff811115611fbb57600080fd5b611fc787828801611f30565b95989497509550505050565b80511515825260018060a01b0360208201511660208301526000604082015160606040850152611d4c6060850182611e22565b6000602080830181845280855180835260408601915060408160051b870101925083870160005b8281101561205b57603f19888603018452612049858351611fd3565b9450928501929085019060010161202d565b5092979650505050505050565b80358015158114611e9957600080fd5b6000806040838503121561208b57600080fd5b611eba83612068565b80511515825260208082015160ff169083015260408082015190830152606080820151908301526080808201516001600160a01b039081169184019190915260a09182015116910152565b60c0810161061c8284612094565b6000806020838503121561210057600080fd5b823567ffffffffffffffff81111561211757600080fd5b61212385828601611f30565b90969095509350505050565b60006020828403121561214157600080fd5b5035919050565b6020808252825182820181905260009190848201906040850190845b8181101561218a57612177838551612094565b9284019260c09290920191600101612164565b50909695505050505050565b6000602082840312156121a857600080fd5b61064182611f1f565b602081528151602082015260006020830151604080840152611d4c6060840182611e22565b600080604083850312156121e957600080fd5b6121f283611e82565b915061220060208401611e82565b90509250929050565b60008060006060848603121561221e57600080fd5b833592506020840135915061223560408501612068565b90509250925092565b6000806040838503121561225157600080fd5b61225a83611e82565b915061220060208401611f1f565b6020815260006106416020830184611fd3565b600181811c9082168061228f57607f821691505b602082108114156109a657634e487b7160e01b600052602260045260246000fd5b634e487b7160e01b600052601160045260246000fd5b600082198211156122d9576122d96122b0565b500190565b634e487b7160e01b600052604160045260246000fd5b634e487b7160e01b600052603260045260246000fd5b600060001982141561231e5761231e6122b0565b5060010190565b60208082526022908201527f596f757220617265206e6f7420617574686f72697a656420746f20646f207468604082015261697360f01b606082015260800190565b60208082526026908201527f596f75722072616e6b20646f6573206e6f7420617574686f72697a6520757067604082015265726164696e6760d01b606082015260800190565b6020808252600e908201526d2737ba103b30b634b2103ab9b2b960911b60408201526060019056fea2646970667358221220a77ef192a069733e44168dca17d831eeba6ea526a807a8d4337cb806b0b5802c64736f6c634300080b0033",
  "immutableReferences": {},
  "source": "// SPDX-License-Identifier: MIT\n// Guild contract\npragma solidity ^0.8.0;\n\nimport \"@openzeppelin/contracts/token/ERC20/ERC20.sol\";\n\nimport \"../library/LGuild.sol\";\n\ncontract Guild is ERC20 {\n  mapping(uint8 => GuildLib.Grade) _grades;\n  mapping(uint256 => GuildLib.Member) _members;\n  mapping(uint256 => GuildLib.Invit) _invits;\n\n  uint256 id;\n  uint256 nonceMember;\n  uint256 countMember;\n  uint256 countInvit;\n  address payable owner;\n  address myosAddress;\n\n  constructor(\n    string memory name,\n    string memory symbol,\n    address payable _owner,\n    address _myosAddress,\n    uint256 _id\n  ) ERC20(name, symbol) {\n    owner = _owner;\n    myosAddress = _myosAddress;\n    id = _id;\n  }\n\n  ///@notice check sender of transaction is creator of guild contract\n  modifier onlyCreator() {\n    require(_msgSender() == owner || _msgSender() == myosAddress, \"Not your guild\");\n    _;\n  }\n\n  ///@notice return a boolean from a uint256 by key\n  ///@param _packedBools pack of boolean contained into this uint256\n  ///@param _boolNumber key of bool you want to return\n  ///@return bool boolean contained into this uint256 by key\n  function getBoolean(\n    uint256 _packedBools,\n    uint256 _boolNumber\n  ) internal pure returns (bool) {\n    uint256 flag = (_packedBools >> _boolNumber) & uint256(1);\n    return (flag == 1 ? true : false);\n  }\n\n  ///@notice use this function external view to prepare uint256 of bool to set grade\n  ///@param _packedBools pack of boolean contained into this uint256\n  ///@param _boolNumber key of bool you want to set\n  ///@param _value ?\n  function setBoolean(\n    uint256 _packedBools,\n    uint256 _boolNumber,\n    bool _value\n  ) external pure returns (uint256) {\n    if (_value) {\n      _packedBools = _packedBools | (uint256(1) << _boolNumber);\n      return _packedBools;\n    }\n    _packedBools = _packedBools & ~(uint256(1) << _boolNumber);\n    return _packedBools;\n  }\n\n  ///@dev direct call (not by proxy contract)\n  ///@notice upsert grade member and authorization\n  ///@param _packedBools pack of boolean contained into this uint256\n  ///@param _id key id of grade mapping you want to set\n  ///@param name name of this grade\n  function setGrade(\n    uint256 _packedBools,\n    uint8 _id,\n    string calldata name\n  ) external onlyCreator {\n    require(_id > 0 && _id < 10, \"10 Grade Max\");\n    _grades[_id] = GuildLib.Grade(_packedBools, name);\n  }\n\n  ///@dev direct call (not by proxy contract)\n  ///@notice return grade structure\n  ///@param _id key of grade you want to get\n  ///@return Grade structure of grade with parameters\n  function getGrade(uint8 _id) external view returns (GuildLib.Grade memory) {\n    return _grades[_id];\n  }\n\n  ///@notice send a subscribtion to this guild by sender\n  ///@param description short text for subscription\n  function suscribe(string calldata description) external {\n    _invits[countInvit] = GuildLib.Invit(true, _msgSender(), description);\n    unchecked {\n      countInvit++;\n    }\n  }\n\n  ///@dev direct call (not by proxy contract)\n  ///@notice send an un-subscription to this guild by sender\n  function unsuscribe(uint256 invit) external {\n    require(_invits[invit].valid == true, \"This invitation is no more valid\");\n    uint256 changerId;\n    for (uint256 index = 0; index < countMember; index++) {\n      if (_members[index].addressMember == _msgSender()) changerId = index;\n    }\n    require(\n      _invits[invit].addr == _msgSender() ||\n        (_members[changerId].valid == true &&\n          getBoolean(_grades[_members[changerId].grade].datas, 4) == true),\n      \"Your are not authorized to do this\"\n    );\n    _invits[invit].valid = false;\n  }\n\n  ///@dev direct call (not by proxy contract)\n  ///@notice return one subscription request\n  ///@param invit uint256 id of invitation\n  ///@return Invit return structure invit\n  function getOneSubscription(\n    uint256 invit\n  ) external view returns (GuildLib.Invit memory) {\n    require(_invits[invit].valid == true, \"This invitation is no more valid\");\n    return _invits[invit];\n  }\n\n  /*function getAllSubscription() external view returns (uint256[] memory){\n        if(countInvit == 0){\n            return new uint256[](0);\n        }\n        else{\n            uint[] memory result = new uint256[](countInvit);\n            uint256 resultIndex = 0;\n            for(uint256 i = 0; i < countInvit; i++){\n                if(_invits[i].valid == true){\n                    result[resultIndex] = i;\n                    resultIndex++;\n                }\n            }\n            return result;\n        }\n    }*/\n\n  ///@dev direct call (not by proxy contract)\n  ///@notice return all subscription strucuture of this guilds\n  ///@return Invit array of invitation subscription\n  function getAllSubscriptionStruct() external view returns (GuildLib.Invit[] memory) {\n    if (countInvit == 0) {\n      return new GuildLib.Invit[](0);\n    } else {\n      GuildLib.Invit[] memory result = new GuildLib.Invit[](countInvit);\n      for (uint256 i = 0; i < countInvit; i++) {\n        if (_invits[i].valid == true) {\n          GuildLib.Invit storage invit = _invits[i];\n          result[i] = invit;\n        }\n      }\n      return result;\n    }\n  }\n\n  ///@dev direct call (not by proxy contract)\n  ///@notice add member to this guild only if we have grade for this\n  ///@param _to address of user you want to add member to this guild\n  function addMember(address _to) external {\n    uint256 changerId;\n    uint256 changedId;\n    for (uint256 index = 0; index < countMember; index++) {\n      if (_members[index].addressMember == _msgSender()) changerId = index;\n    }\n    for (uint256 index2 = 0; index2 < countInvit; index2++) {\n      if (_invits[index2].addr == _to) changedId = index2;\n    }\n    require(_members[changedId].valid == true, \"User not valid\");\n    require(\n      _members[changerId].valid == true &&\n        getBoolean(_grades[_members[changerId].grade].datas, 3) == true,\n      \"Your are not authorized to do this\"\n    );\n    _members[nonceMember] = GuildLib.Member(\n      false,\n      0,\n      block.timestamp,\n      0,\n      _msgSender(),\n      _to\n    );\n    _members[changedId].valid = false;\n    unchecked {\n      nonceMember++;\n    }\n  }\n\n  ///@dev direct call (not by proxy contract)\n  ///@notice change grade of one user if you have right\n  ///@param _to address of member you want to change grade\n  ///@param grade grade id you want to set for this member\n  function changeGrade(address _to, uint8 grade) external {\n    uint256 changerId;\n    uint256 changedId;\n    for (uint256 index = 0; index < countMember; index++) {\n      if (_members[index].addressMember == _msgSender()) changerId = index;\n      if (_members[index].addressMember == _to) changedId = index;\n    }\n    require(\n      getBoolean(_grades[_members[changerId].grade].datas, 7) == true ||\n        _msgSender() == owner ||\n        _msgSender() == myosAddress,\n      \"Your rank does not authorize upgrading\"\n    );\n    require(\n      (_members[changerId].grade >= grade &&\n        _members[changerId].grade > _members[changedId].grade) ||\n        _msgSender() == owner ||\n        _msgSender() == myosAddress,\n      \"Your rank is not high enough\"\n    );\n    require(\n      _members[changedId].valid == true && _members[changerId].valid == true,\n      \"Not valid user\"\n    );\n    _members[changerId].grade = grade;\n  }\n\n  ///@dev direct call (not by proxy contract)\n  ///@notice kick a member from this guild but keep datas, only set valid param to false but we send their money, we are not savage\n  ///@param _to address of member you want to kick\n  function subMember(address _to) external {\n    uint256 changerId;\n    uint256 changedId;\n    for (uint256 index = 0; index < countMember; index++) {\n      if (_members[index].addressMember == _msgSender()) changerId = index;\n      if (_members[index].addressMember == _to) changedId = index;\n    }\n\n    require(\n      getBoolean(_grades[_members[changerId].grade].datas, 4) == true ||\n        _msgSender() == owner ||\n        _msgSender() == myosAddress,\n      \"Your rank does not authorize upgrading\"\n    );\n    require(\n      _members[changerId].grade > _members[changedId].grade ||\n        _msgSender() == owner ||\n        _msgSender() == myosAddress,\n      \"Your rank is not high enough\"\n    );\n    require(\n      _members[changedId].valid == true && _members[changerId].valid == true,\n      \"Not valid user\"\n    );\n    payable(_members[changedId].addressMember).transfer(_members[changedId].chestETH);\n    _members[changedId].valid = false;\n  }\n\n  ///@dev direct call (not by proxy contract)\n  ///@notice return all members valid of this guild\n  ///@return Members array of member structure\n  function getAllMembers() external view returns (GuildLib.Member[] memory) {\n    if (countMember == 0) {\n      return new GuildLib.Member[](0);\n    } else {\n      GuildLib.Member[] memory result = new GuildLib.Member[](countMember);\n      for (uint256 i = 0; i < countMember; i++) {\n        if (_members[i].valid == true) {\n          GuildLib.Member storage member = _members[i];\n          result[i] = member;\n        }\n      }\n      return result;\n    }\n  }\n\n  ///@dev direct call (not by proxy contract)\n  ///@notice return one member of this guild\n  ///@param member address of member you want to get\n  ///@return Member member structure (can be empty stuct)\n  function getOneMember(address member) external view returns (GuildLib.Member memory) {\n    GuildLib.Member memory tempMember;\n    for (uint256 index = 0; index < countMember; index++) {\n      if (_members[index].addressMember == member) tempMember = _members[index];\n    }\n    return tempMember;\n  }\n\n  ///@dev direct call (not by proxy contract)\n  ///@notice validate or not a member in this guild\n  ///@param valid boolean validity of member\n  ///@param member id key of member\n  function validMember(bool valid, uint256 member) external onlyCreator {\n    _members[member].valid = valid;\n  }\n\n  ///@dev direct call (not by proxy contract)\n  ///@notice put wei in this contract, accessible only by sender\n  function sendETHInChest() external payable {\n    uint256 idUser;\n    for (uint256 index = 0; index < countMember; index++) {\n      if (_members[index].addressMember == _msgSender()) idUser = index;\n    }\n    require(_members[idUser].valid == true, \"Not valid user\");\n    _members[idUser].chestETH += msg.value;\n  }\n\n  ///@dev direct call (not by proxy contract)\n  ///@notice retrieve money sended by user on this contract\n  function withdrawETHMyChest(uint256 value) external {\n    uint256 idUser;\n    for (uint256 index = 0; index < countMember; index++) {\n      if (_members[index].addressMember == _msgSender()) idUser = index;\n    }\n    require(_members[idUser].valid == true, \"Not valid user\");\n    require(_members[idUser].chestETH >= value, \"Not enougth ether in chest\");\n    payable(_msgSender()).transfer(value);\n  }\n\n  //function kill() external onlyCreator {\n  //  selfdestruct(owner);\n  //}\n\n  ///@notice return id of this contract\n  ///@return id number key of this contract\n  function getId() external view returns (uint256) {\n    return id;\n  }\n\n  ///@notice check if owner is creater of this guild contract\n  ///@param _owner address of creator guild contract\n  ///@return owner boolean\n  function isOwner(address _owner) external view returns (bool) {\n    return _owner == owner;\n  }\n}\n",
  "sourcePath": "/home/solid-solution/Bureau/HOMEWORK/MYOS/contracts/immutable/Guild.sol",
  "compiler": {
    "name": "solc",
    "version": "0.8.11+commit.d7f03943.Emscripten.clang"
  },
  "schemaVersion": "3.4.10",
  "updatedAt": "2022-11-18T14:29:30.449Z",
  "devdoc": {
    "kind": "dev",
    "methods": {
      "addMember(address)": {
        "details": "direct call (not by proxy contract)",
        "params": {
          "_to": "address of user you want to add member to this guild"
        }
      },
      "allowance(address,address)": {
        "details": "See {IERC20-allowance}."
      },
      "approve(address,uint256)": {
        "details": "See {IERC20-approve}. NOTE: If `amount` is the maximum `uint256`, the allowance is not updated on `transferFrom`. This is semantically equivalent to an infinite approval. Requirements: - `spender` cannot be the zero address."
      },
      "balanceOf(address)": {
        "details": "See {IERC20-balanceOf}."
      },
      "changeGrade(address,uint8)": {
        "details": "direct call (not by proxy contract)",
        "params": {
          "_to": "address of member you want to change grade",
          "grade": "grade id you want to set for this member"
        }
      },
      "decimals()": {
        "details": "Returns the number of decimals used to get its user representation. For example, if `decimals` equals `2`, a balance of `505` tokens should be displayed to a user as `5.05` (`505 / 10 ** 2`). Tokens usually opt for a value of 18, imitating the relationship between Ether and Wei. This is the value {ERC20} uses, unless this function is overridden; NOTE: This information is only used for _display_ purposes: it in no way affects any of the arithmetic of the contract, including {IERC20-balanceOf} and {IERC20-transfer}."
      },
      "decreaseAllowance(address,uint256)": {
        "details": "Atomically decreases the allowance granted to `spender` by the caller. This is an alternative to {approve} that can be used as a mitigation for problems described in {IERC20-approve}. Emits an {Approval} event indicating the updated allowance. Requirements: - `spender` cannot be the zero address. - `spender` must have allowance for the caller of at least `subtractedValue`."
      },
      "getAllMembers()": {
        "details": "direct call (not by proxy contract)",
        "returns": {
          "_0": "Members array of member structure"
        }
      },
      "getAllSubscriptionStruct()": {
        "details": "direct call (not by proxy contract)",
        "returns": {
          "_0": "Invit array of invitation subscription"
        }
      },
      "getGrade(uint8)": {
        "details": "direct call (not by proxy contract)",
        "params": {
          "_id": "key of grade you want to get"
        },
        "returns": {
          "_0": "Grade structure of grade with parameters"
        }
      },
      "getId()": {
        "returns": {
          "_0": "id number key of this contract"
        }
      },
      "getOneMember(address)": {
        "details": "direct call (not by proxy contract)",
        "params": {
          "member": "address of member you want to get"
        },
        "returns": {
          "_0": "Member member structure (can be empty stuct)"
        }
      },
      "getOneSubscription(uint256)": {
        "details": "direct call (not by proxy contract)",
        "params": {
          "invit": "uint256 id of invitation"
        },
        "returns": {
          "_0": "Invit return structure invit"
        }
      },
      "increaseAllowance(address,uint256)": {
        "details": "Atomically increases the allowance granted to `spender` by the caller. This is an alternative to {approve} that can be used as a mitigation for problems described in {IERC20-approve}. Emits an {Approval} event indicating the updated allowance. Requirements: - `spender` cannot be the zero address."
      },
      "isOwner(address)": {
        "params": {
          "_owner": "address of creator guild contract"
        },
        "returns": {
          "_0": "owner boolean"
        }
      },
      "name()": {
        "details": "Returns the name of the token."
      },
      "sendETHInChest()": {
        "details": "direct call (not by proxy contract)"
      },
      "setBoolean(uint256,uint256,bool)": {
        "params": {
          "_boolNumber": "key of bool you want to set",
          "_packedBools": "pack of boolean contained into this uint256",
          "_value": "?"
        }
      },
      "setGrade(uint256,uint8,string)": {
        "details": "direct call (not by proxy contract)",
        "params": {
          "_id": "key id of grade mapping you want to set",
          "_packedBools": "pack of boolean contained into this uint256",
          "name": "name of this grade"
        }
      },
      "subMember(address)": {
        "details": "direct call (not by proxy contract)",
        "params": {
          "_to": "address of member you want to kick"
        }
      },
      "suscribe(string)": {
        "params": {
          "description": "short text for subscription"
        }
      },
      "symbol()": {
        "details": "Returns the symbol of the token, usually a shorter version of the name."
      },
      "totalSupply()": {
        "details": "See {IERC20-totalSupply}."
      },
      "transfer(address,uint256)": {
        "details": "See {IERC20-transfer}. Requirements: - `to` cannot be the zero address. - the caller must have a balance of at least `amount`."
      },
      "transferFrom(address,address,uint256)": {
        "details": "See {IERC20-transferFrom}. Emits an {Approval} event indicating the updated allowance. This is not required by the EIP. See the note at the beginning of {ERC20}. NOTE: Does not update the allowance if the current allowance is the maximum `uint256`. Requirements: - `from` and `to` cannot be the zero address. - `from` must have a balance of at least `amount`. - the caller must have allowance for ``from``'s tokens of at least `amount`."
      },
      "unsuscribe(uint256)": {
        "details": "direct call (not by proxy contract)"
      },
      "validMember(bool,uint256)": {
        "details": "direct call (not by proxy contract)",
        "params": {
          "member": "id key of member",
          "valid": "boolean validity of member"
        }
      },
      "withdrawETHMyChest(uint256)": {
        "details": "direct call (not by proxy contract)"
      }
    },
    "version": 1
  },
  "userdoc": {
    "kind": "user",
    "methods": {
      "addMember(address)": {
        "notice": "add member to this guild only if we have grade for this"
      },
      "changeGrade(address,uint8)": {
        "notice": "change grade of one user if you have right"
      },
      "getAllMembers()": {
        "notice": "return all members valid of this guild"
      },
      "getAllSubscriptionStruct()": {
        "notice": "return all subscription strucuture of this guilds"
      },
      "getGrade(uint8)": {
        "notice": "return grade structure"
      },
      "getId()": {
        "notice": "return id of this contract"
      },
      "getOneMember(address)": {
        "notice": "return one member of this guild"
      },
      "getOneSubscription(uint256)": {
        "notice": "return one subscription request"
      },
      "isOwner(address)": {
        "notice": "check if owner is creater of this guild contract"
      },
      "sendETHInChest()": {
        "notice": "put wei in this contract, accessible only by sender"
      },
      "setBoolean(uint256,uint256,bool)": {
        "notice": "use this function external view to prepare uint256 of bool to set grade"
      },
      "setGrade(uint256,uint8,string)": {
        "notice": "upsert grade member and authorization"
      },
      "subMember(address)": {
        "notice": "kick a member from this guild but keep datas, only set valid param to false but we send their money, we are not savage"
      },
      "suscribe(string)": {
        "notice": "send a subscribtion to this guild by sender"
      },
      "unsuscribe(uint256)": {
        "notice": "send an un-subscription to this guild by sender"
      },
      "validMember(bool,uint256)": {
        "notice": "validate or not a member in this guild"
      },
      "withdrawETHMyChest(uint256)": {
        "notice": "retrieve money sended by user on this contract"
      }
    },
    "version": 1
  }
}