{
  "contractName": "Guild",
  "abi": [
    {
      "inputs": [
        {
          "internalType": "string",
          "name": "name",
          "type": "string"
        },
        {
          "internalType": "string",
          "name": "symbol",
          "type": "string"
        },
        {
          "internalType": "address payable",
          "name": "_owner",
          "type": "address"
        },
        {
          "internalType": "address",
          "name": "_myosAddress",
          "type": "address"
        },
        {
          "internalType": "uint256",
          "name": "_id",
          "type": "uint256"
        }
      ],
      "stateMutability": "nonpayable",
      "type": "constructor"
    },
    {
      "anonymous": false,
      "inputs": [
        {
          "indexed": true,
          "internalType": "address",
          "name": "owner",
          "type": "address"
        },
        {
          "indexed": true,
          "internalType": "address",
          "name": "spender",
          "type": "address"
        },
        {
          "indexed": false,
          "internalType": "uint256",
          "name": "value",
          "type": "uint256"
        }
      ],
      "name": "Approval",
      "type": "event"
    },
    {
      "anonymous": false,
      "inputs": [
        {
          "indexed": true,
          "internalType": "address",
          "name": "from",
          "type": "address"
        },
        {
          "indexed": true,
          "internalType": "address",
          "name": "to",
          "type": "address"
        },
        {
          "indexed": false,
          "internalType": "uint256",
          "name": "value",
          "type": "uint256"
        }
      ],
      "name": "Transfer",
      "type": "event"
    },
    {
      "inputs": [
        {
          "internalType": "address",
          "name": "owner",
          "type": "address"
        },
        {
          "internalType": "address",
          "name": "spender",
          "type": "address"
        }
      ],
      "name": "allowance",
      "outputs": [
        {
          "internalType": "uint256",
          "name": "",
          "type": "uint256"
        }
      ],
      "stateMutability": "view",
      "type": "function"
    },
    {
      "inputs": [
        {
          "internalType": "address",
          "name": "spender",
          "type": "address"
        },
        {
          "internalType": "uint256",
          "name": "amount",
          "type": "uint256"
        }
      ],
      "name": "approve",
      "outputs": [
        {
          "internalType": "bool",
          "name": "",
          "type": "bool"
        }
      ],
      "stateMutability": "nonpayable",
      "type": "function"
    },
    {
      "inputs": [
        {
          "internalType": "address",
          "name": "account",
          "type": "address"
        }
      ],
      "name": "balanceOf",
      "outputs": [
        {
          "internalType": "uint256",
          "name": "",
          "type": "uint256"
        }
      ],
      "stateMutability": "view",
      "type": "function"
    },
    {
      "inputs": [],
      "name": "decimals",
      "outputs": [
        {
          "internalType": "uint8",
          "name": "",
          "type": "uint8"
        }
      ],
      "stateMutability": "view",
      "type": "function"
    },
    {
      "inputs": [
        {
          "internalType": "address",
          "name": "spender",
          "type": "address"
        },
        {
          "internalType": "uint256",
          "name": "subtractedValue",
          "type": "uint256"
        }
      ],
      "name": "decreaseAllowance",
      "outputs": [
        {
          "internalType": "bool",
          "name": "",
          "type": "bool"
        }
      ],
      "stateMutability": "nonpayable",
      "type": "function"
    },
    {
      "inputs": [
        {
          "internalType": "address",
          "name": "spender",
          "type": "address"
        },
        {
          "internalType": "uint256",
          "name": "addedValue",
          "type": "uint256"
        }
      ],
      "name": "increaseAllowance",
      "outputs": [
        {
          "internalType": "bool",
          "name": "",
          "type": "bool"
        }
      ],
      "stateMutability": "nonpayable",
      "type": "function"
    },
    {
      "inputs": [],
      "name": "name",
      "outputs": [
        {
          "internalType": "string",
          "name": "",
          "type": "string"
        }
      ],
      "stateMutability": "view",
      "type": "function"
    },
    {
      "inputs": [],
      "name": "symbol",
      "outputs": [
        {
          "internalType": "string",
          "name": "",
          "type": "string"
        }
      ],
      "stateMutability": "view",
      "type": "function"
    },
    {
      "inputs": [],
      "name": "totalSupply",
      "outputs": [
        {
          "internalType": "uint256",
          "name": "",
          "type": "uint256"
        }
      ],
      "stateMutability": "view",
      "type": "function"
    },
    {
      "inputs": [
        {
          "internalType": "address",
          "name": "to",
          "type": "address"
        },
        {
          "internalType": "uint256",
          "name": "amount",
          "type": "uint256"
        }
      ],
      "name": "transfer",
      "outputs": [
        {
          "internalType": "bool",
          "name": "",
          "type": "bool"
        }
      ],
      "stateMutability": "nonpayable",
      "type": "function"
    },
    {
      "inputs": [
        {
          "internalType": "address",
          "name": "from",
          "type": "address"
        },
        {
          "internalType": "address",
          "name": "to",
          "type": "address"
        },
        {
          "internalType": "uint256",
          "name": "amount",
          "type": "uint256"
        }
      ],
      "name": "transferFrom",
      "outputs": [
        {
          "internalType": "bool",
          "name": "",
          "type": "bool"
        }
      ],
      "stateMutability": "nonpayable",
      "type": "function"
    },
    {
      "inputs": [
        {
          "internalType": "uint8",
          "name": "_id",
          "type": "uint8"
        },
        {
          "internalType": "bool",
          "name": "valid",
          "type": "bool"
        },
        {
          "internalType": "bool",
          "name": "write",
          "type": "bool"
        },
        {
          "internalType": "bool",
          "name": "read",
          "type": "bool"
        },
        {
          "internalType": "bool",
          "name": "invit",
          "type": "bool"
        },
        {
          "internalType": "bool",
          "name": "desinvit",
          "type": "bool"
        },
        {
          "internalType": "bool",
          "name": "sendMoney",
          "type": "bool"
        },
        {
          "internalType": "bool",
          "name": "takeMoney",
          "type": "bool"
        },
        {
          "internalType": "bool",
          "name": "graduate",
          "type": "bool"
        },
        {
          "internalType": "string",
          "name": "name",
          "type": "string"
        }
      ],
      "name": "setGrade",
      "outputs": [],
      "stateMutability": "nonpayable",
      "type": "function"
    },
    {
      "inputs": [
        {
          "internalType": "uint8",
          "name": "_id",
          "type": "uint8"
        }
      ],
      "name": "getGrade",
      "outputs": [
        {
          "components": [
            {
              "internalType": "bool",
              "name": "valid",
              "type": "bool"
            },
            {
              "internalType": "bool",
              "name": "write",
              "type": "bool"
            },
            {
              "internalType": "bool",
              "name": "read",
              "type": "bool"
            },
            {
              "internalType": "bool",
              "name": "invit",
              "type": "bool"
            },
            {
              "internalType": "bool",
              "name": "desinvit",
              "type": "bool"
            },
            {
              "internalType": "bool",
              "name": "sendMoney",
              "type": "bool"
            },
            {
              "internalType": "bool",
              "name": "takeMoney",
              "type": "bool"
            },
            {
              "internalType": "bool",
              "name": "graduate",
              "type": "bool"
            },
            {
              "internalType": "string",
              "name": "name",
              "type": "string"
            }
          ],
          "internalType": "struct Guild.Grade",
          "name": "",
          "type": "tuple"
        }
      ],
      "stateMutability": "view",
      "type": "function"
    },
    {
      "inputs": [
        {
          "internalType": "string",
          "name": "description",
          "type": "string"
        }
      ],
      "name": "suscribe",
      "outputs": [],
      "stateMutability": "nonpayable",
      "type": "function"
    },
    {
      "inputs": [
        {
          "internalType": "uint256",
          "name": "invit",
          "type": "uint256"
        }
      ],
      "name": "unsuscribe",
      "outputs": [],
      "stateMutability": "nonpayable",
      "type": "function"
    },
    {
      "inputs": [
        {
          "internalType": "uint256",
          "name": "invit",
          "type": "uint256"
        }
      ],
      "name": "getOneSubscription",
      "outputs": [
        {
          "components": [
            {
              "internalType": "bool",
              "name": "valid",
              "type": "bool"
            },
            {
              "internalType": "address",
              "name": "addr",
              "type": "address"
            },
            {
              "internalType": "string",
              "name": "description",
              "type": "string"
            }
          ],
          "internalType": "struct Guild.Invit",
          "name": "",
          "type": "tuple"
        }
      ],
      "stateMutability": "view",
      "type": "function"
    },
    {
      "inputs": [],
      "name": "getAllSubscriptionStruct",
      "outputs": [
        {
          "components": [
            {
              "internalType": "bool",
              "name": "valid",
              "type": "bool"
            },
            {
              "internalType": "address",
              "name": "addr",
              "type": "address"
            },
            {
              "internalType": "string",
              "name": "description",
              "type": "string"
            }
          ],
          "internalType": "struct Guild.Invit[]",
          "name": "",
          "type": "tuple[]"
        }
      ],
      "stateMutability": "view",
      "type": "function"
    },
    {
      "inputs": [
        {
          "internalType": "address",
          "name": "_to",
          "type": "address"
        }
      ],
      "name": "addMember",
      "outputs": [],
      "stateMutability": "nonpayable",
      "type": "function"
    },
    {
      "inputs": [
        {
          "internalType": "address",
          "name": "_to",
          "type": "address"
        },
        {
          "internalType": "uint8",
          "name": "grade",
          "type": "uint8"
        }
      ],
      "name": "changeGrade",
      "outputs": [],
      "stateMutability": "nonpayable",
      "type": "function"
    },
    {
      "inputs": [
        {
          "internalType": "address",
          "name": "_to",
          "type": "address"
        }
      ],
      "name": "subMember",
      "outputs": [],
      "stateMutability": "nonpayable",
      "type": "function"
    },
    {
      "inputs": [],
      "name": "getAllMembers",
      "outputs": [
        {
          "components": [
            {
              "internalType": "bool",
              "name": "valid",
              "type": "bool"
            },
            {
              "internalType": "uint8",
              "name": "grade",
              "type": "uint8"
            },
            {
              "internalType": "uint256",
              "name": "createdAt",
              "type": "uint256"
            },
            {
              "internalType": "uint256",
              "name": "chestETH",
              "type": "uint256"
            },
            {
              "internalType": "address",
              "name": "addBy",
              "type": "address"
            },
            {
              "internalType": "address",
              "name": "addressMember",
              "type": "address"
            }
          ],
          "internalType": "struct Guild.Member[]",
          "name": "",
          "type": "tuple[]"
        }
      ],
      "stateMutability": "view",
      "type": "function"
    },
    {
      "inputs": [
        {
          "internalType": "address",
          "name": "user",
          "type": "address"
        }
      ],
      "name": "getOneMember",
      "outputs": [
        {
          "components": [
            {
              "internalType": "bool",
              "name": "valid",
              "type": "bool"
            },
            {
              "internalType": "uint8",
              "name": "grade",
              "type": "uint8"
            },
            {
              "internalType": "uint256",
              "name": "createdAt",
              "type": "uint256"
            },
            {
              "internalType": "uint256",
              "name": "chestETH",
              "type": "uint256"
            },
            {
              "internalType": "address",
              "name": "addBy",
              "type": "address"
            },
            {
              "internalType": "address",
              "name": "addressMember",
              "type": "address"
            }
          ],
          "internalType": "struct Guild.Member",
          "name": "",
          "type": "tuple"
        }
      ],
      "stateMutability": "view",
      "type": "function"
    },
    {
      "inputs": [
        {
          "internalType": "bool",
          "name": "valid",
          "type": "bool"
        },
        {
          "internalType": "uint256",
          "name": "member",
          "type": "uint256"
        }
      ],
      "name": "validMember",
      "outputs": [],
      "stateMutability": "nonpayable",
      "type": "function"
    },
    {
      "inputs": [],
      "name": "sendETHInChest",
      "outputs": [],
      "stateMutability": "payable",
      "type": "function"
    },
    {
      "inputs": [
        {
          "internalType": "uint256",
          "name": "value",
          "type": "uint256"
        }
      ],
      "name": "withdrawETHMyChest",
      "outputs": [],
      "stateMutability": "nonpayable",
      "type": "function"
    },
    {
      "inputs": [],
      "name": "kill",
      "outputs": [],
      "stateMutability": "nonpayable",
      "type": "function"
    },
    {
      "inputs": [],
      "name": "getId",
      "outputs": [
        {
          "internalType": "uint256",
          "name": "",
          "type": "uint256"
        }
      ],
      "stateMutability": "view",
      "type": "function"
    },
    {
      "inputs": [
        {
          "internalType": "address",
          "name": "_owner",
          "type": "address"
        }
      ],
      "name": "isOwner",
      "outputs": [
        {
          "internalType": "bool",
          "name": "",
          "type": "bool"
        }
      ],
      "stateMutability": "view",
      "type": "function"
    }
  ],
  "bytecode": "0x60806040523480156200001157600080fd5b50604051620029243803806200292483398101604081905262000034916200022e565b8451859085906200004d906003906020850190620000a2565b50805162000063906004906020840190620000a2565b5050600c80546001600160a01b039586166001600160a01b031991821617909155600d80549490951693169290921790925550600855506200030b9050565b828054620000b090620002ce565b90600052602060002090601f016020900481019282620000d457600085556200011f565b82601f10620000ef57805160ff19168380011785556200011f565b828001600101855582156200011f579182015b828111156200011f57825182559160200191906001019062000102565b506200012d92915062000131565b5090565b5b808211156200012d576000815560010162000132565b634e487b7160e01b600052604160045260246000fd5b600082601f8301126200017057600080fd5b81516001600160401b03808211156200018d576200018d62000148565b604051601f8301601f19908116603f01168101908282118183101715620001b857620001b862000148565b81604052838152602092508683858801011115620001d557600080fd5b600091505b83821015620001f95785820183015181830184015290820190620001da565b838211156200020b5760008385830101525b9695505050505050565b6001600160a01b03811681146200022b57600080fd5b50565b600080600080600060a086880312156200024757600080fd5b85516001600160401b03808211156200025f57600080fd5b6200026d89838a016200015e565b965060208801519150808211156200028457600080fd5b5062000293888289016200015e565b9450506040860151620002a68162000215565b6060870151909350620002b98162000215565b80925050608086015190509295509295909350565b600181811c90821680620002e357607f821691505b602082108114156200030557634e487b7160e01b600052602260045260246000fd5b50919050565b612609806200031b6000396000f3fe6080604052600436106101b75760003560e01c806372a2377f116100ec578063c7f067441161008a578063cd9f092111610064578063cd9f0921146104f6578063dd62ed3e146104fe578063f798e5251461051e578063fd0232b21461053e57600080fd5b8063c7f0674414610489578063ca6d56dc146104a9578063ccf25b4d146104c957600080fd5b806399103d1f116100c657806399103d1f14610409578063a457c2d714610429578063a9059cbb14610449578063aa887bb61461046957600080fd5b806372a2377f146103b25780637c0f6b35146103d257806395d89b41146103f457600080fd5b8063405664881161015957806355f6e5071161013357806355f6e5071461031a5780635d1ca631146103475780636586737a1461035c57806370a082311461037c57600080fd5b806340566488146102c157806341c0e1b5146102e357806344a96ce0146102fa57600080fd5b806323b872dd1161019557806323b872dd146102365780632f54bf6e14610256578063313ce5671461028557806339509351146102a157600080fd5b806306fdde03146101bc578063095ea7b3146101e757806318160ddd14610217575b600080fd5b3480156101c857600080fd5b506101d161056b565b6040516101de9190611f40565b60405180910390f35b3480156101f357600080fd5b50610207610202366004611f76565b6105fd565b60405190151581526020016101de565b34801561022357600080fd5b506002545b6040519081526020016101de565b34801561024257600080fd5b50610207610251366004611fa0565b610617565b34801561026257600080fd5b50610207610271366004611fdc565b600c546001600160a01b0391821691161490565b34801561029157600080fd5b50604051601281526020016101de565b3480156102ad57600080fd5b506102076102bc366004611f76565b61063b565b3480156102cd57600080fd5b506102d661065d565b6040516101de9190612032565b3480156102ef57600080fd5b506102f8610855565b005b34801561030657600080fd5b506102f86103153660046120a4565b6108ab565b34801561032657600080fd5b5061033a610335366004611fdc565b610909565b6040516101de919061210b565b34801561035357600080fd5b50600854610228565b34801561036857600080fd5b506102f86103773660046121bc565b6109d3565b34801561038857600080fd5b50610228610397366004611fdc565b6001600160a01b031660009081526020819052604090205490565b3480156103be57600080fd5b506102f86103cd3660046121f1565b610a6e565b3480156103de57600080fd5b506103e7610bc6565b6040516101de919061220a565b34801561040057600080fd5b506101d1610d27565b34801561041557600080fd5b506102f8610424366004612269565b610d36565b34801561043557600080fd5b50610207610444366004611f76565b610f5b565b34801561045557600080fd5b50610207610464366004611f76565b610fd6565b34801561047557600080fd5b506102f8610484366004611fdc565b610fe4565b34801561049557600080fd5b506102f86104a43660046121f1565b611229565b3480156104b557600080fd5b506102f86104c4366004611fdc565b611336565b3480156104d557600080fd5b506104e96104e436600461233e565b611565565b6040516101de9190612359565b6102f86116f2565b34801561050a57600080fd5b506102286105193660046123f7565b611795565b34801561052a57600080fd5b506102f861053936600461242a565b6117c0565b34801561054a57600080fd5b5061055e6105593660046121f1565b6119ea565b6040516101de9190612454565b60606003805461057a90612467565b80601f01602080910402602001604051908101604052809291908181526020018280546105a690612467565b80156105f35780601f106105c8576101008083540402835291602001916105f3565b820191906000526020600020905b8154815290600101906020018083116105d657829003601f168201915b5050505050905090565b60003361060b818585611ab9565b60019150505b92915050565b600033610625858285611bdd565b610630858585611c57565b506001949350505050565b60003361060b81858561064e8383611795565b61065891906124b2565b611ab9565b6060600b54600014156106b55760408051600080825260208201909252906106af565b604080516060808201835260008083526020830152918101919091528152602001906001900390816106805790505b50905090565b6000600b5467ffffffffffffffff8111156106d2576106d2612119565b60405190808252806020026020018201604052801561071f57816020015b604080516060808201835260008083526020830152918101919091528152602001906001900390816106f05790505b50905060005b600b5481101561084f5760008181526007602052604090205460ff1615156001141561083d576000818152600760209081526040918290208251606081018452815460ff81161515825261010090046001600160a01b03169281019290925260018101805491938492908401919061079c90612467565b80601f01602080910402602001604051908101604052809291908181526020018280546107c890612467565b80156108155780601f106107ea57610100808354040283529160200191610815565b820191906000526020600020905b8154815290600101906020018083116107f857829003601f168201915b505050505081525050838381518110610830576108306124ca565b6020026020010181905250505b80610847816124e0565b915050610725565b50919050565b600c546001600160a01b03163314806108785750600d546001600160a01b031633145b61089d5760405162461bcd60e51b8152600401610894906124fb565b60405180910390fd5b600c546001600160a01b0316ff5b600c546001600160a01b03163314806108ce5750600d546001600160a01b031633145b6108ea5760405162461bcd60e51b8152600401610894906124fb565b6000908152600660205260409020805460ff1916911515919091179055565b610911611e25565b610919611e25565b60005b600a548110156109cc576000818152600660205260409020600401546001600160a01b03858116911614156109ba57600081815260066020908152604091829020825160c081018452815460ff8082161515835261010090910416928101929092526001810154928201929092526002820154606082015260038201546001600160a01b03908116608083015260049092015490911660a082015291505b806109c4816124e0565b91505061091c565b5092915050565b604080516060810182526001808252336020808401918252838501868152600b54600090815260078352959095208451815493516001600160a81b0319909416901515610100600160a81b031916176101006001600160a01b03909416939093029290921782559351805193949193610a53938501929190910190611e5a565b5050600b805491506000610a66836124e0565b919050555050565b60008181526007602052604090205460ff161515600114610ad15760405162461bcd60e51b815260206004820181905260248201527f5468697320696e7669746174696f6e206973206e6f206d6f72652076616c69646044820152606401610894565b6000805b600a54811015610b17576000818152600660205260409020600401546001600160a01b0316331415610b05578091505b80610b0f816124e0565b915050610ad5565b5060008281526007602052604090205461010090046001600160a01b0316331480610b91575060008181526006602052604090205460ff1615156001148015610b91575060008181526006602090815260408083205460ff6101009091048116845260059092529091205464010000000090041615156001145b610bad5760405162461bcd60e51b815260040161089490612523565b506000908152600760205260409020805460ff19169055565b6060600a5460001415610c095760408051600080825260208201909252906106af565b610bf1611e25565b815260200190600190039081610be957905050905090565b6000600a5467ffffffffffffffff811115610c2657610c26612119565b604051908082528060200260200182016040528015610c5f57816020015b610c4c611e25565b815260200190600190039081610c445790505b50905060005b600a5481101561084f5760008181526006602052604090205460ff16151560011415610d1557600081815260066020908152604091829020825160c081018452815460ff8082161515835261010090910416928101929092526001810154928201929092526002820154606082015260038201546001600160a01b03908116608083015260048301541660a08201528351849084908110610d0857610d086124ca565b6020026020010181905250505b80610d1f816124e0565b915050610c65565b60606004805461057a90612467565b600c546001600160a01b0316331480610d595750600d546001600160a01b031633145b610d755760405162461bcd60e51b8152600401610894906124fb565b60008a60ff16118015610d8b5750600a8a60ff16105b610dc65760405162461bcd60e51b815260206004820152600c60248201526b06260408ee4c2c8ca409ac2f60a31b6044820152606401610894565b6040518061012001604052808a15158152602001891515815260200188151581526020018715158152602001861515815260200185151581526020018415158152602001831515815260200182815250600560008c60ff1660ff16815260200190815260200160002060008201518160000160006101000a81548160ff02191690831515021790555060208201518160000160016101000a81548160ff02191690831515021790555060408201518160000160026101000a81548160ff02191690831515021790555060608201518160000160036101000a81548160ff02191690831515021790555060808201518160000160046101000a81548160ff02191690831515021790555060a08201518160000160056101000a81548160ff02191690831515021790555060c08201518160000160066101000a81548160ff02191690831515021790555060e08201518160000160076101000a81548160ff021916908315150217905550610100820151816001019080519060200190610f4c929190611e5a565b50505050505050505050505050565b60003381610f698286611795565b905083811015610fc95760405162461bcd60e51b815260206004820152602560248201527f45524332303a2064656372656173656420616c6c6f77616e63652062656c6f77604482015264207a65726f60d81b6064820152608401610894565b6106308286868403611ab9565b60003361060b818585611c57565b60008060005b600a54811015611055576000818152600660205260409020600401546001600160a01b031633141561101a578092505b6000818152600660205260409020600401546001600160a01b0385811691161415611043578091505b8061104d816124e0565b915050610fea565b5060008281526006602090815260408083205460ff610100909104811684526005909252909120546401000000009004161515600114806110a05750600c546001600160a01b031633145b806110b55750600d546001600160a01b031633145b6110d15760405162461bcd60e51b815260040161089490612565565b6000818152600660205260408082205484835291205460ff6101009283900481169290910416118061110d5750600c546001600160a01b031633145b806111225750600d546001600160a01b031633145b61116e5760405162461bcd60e51b815260206004820152601c60248201527f596f75722072616e6b206973206e6f74206869676820656e6f756768000000006044820152606401610894565b60008181526006602052604090205460ff16151560011480156111a4575060008281526006602052604090205460ff1615156001145b6111c05760405162461bcd60e51b8152600401610894906125ab565b600081815260066020526040808220600481015460029091015491516001600160a01b039091169282156108fc02929190818181858888f1935050505015801561120e573d6000803e3d6000fd5b506000908152600660205260409020805460ff191690555050565b6000805b600a5481101561126f576000818152600660205260409020600401546001600160a01b031633141561125d578091505b80611267816124e0565b91505061122d565b5060008181526006602052604090205460ff1615156001146112a35760405162461bcd60e51b8152600401610894906125ab565b6000818152600660205260409020600201548211156113045760405162461bcd60e51b815260206004820152601a60248201527f4e6f7420656e6f7567746820657468657220696e2063686573740000000000006044820152606401610894565b604051339083156108fc029084906000818181858888f19350505050158015611331573d6000803e3d6000fd5b505050565b60008060005b600a5481101561137e576000818152600660205260409020600401546001600160a01b031633141561136c578092505b80611376816124e0565b91505061133c565b5060005b600b548110156113c9576000818152600760205260409020546001600160a01b038581166101009092041614156113b7578091505b806113c1816124e0565b915050611382565b5060008181526006602052604090205460ff16151560011461141e5760405162461bcd60e51b815260206004820152600e60248201526d155cd95c881b9bdd081d985b1a5960921b6044820152606401610894565b60008281526006602052604090205460ff1615156001148015611471575060008281526006602090815260408083205460ff61010090910481168452600590925290912054630100000090041615156001145b61148d5760405162461bcd60e51b815260040161089490612523565b6040805160c08101825260008082526020808301828152428486019081526060850184815233608087019081526001600160a01b038b811660a08901908152600980548952600690975289882098518954965161ffff1990971690151561ff0019161761010060ff909716969096029590951788559251600188015590516002870155516003860180546001600160a01b0319908116928416929092179055915160049095018054909216941693909317909255838152918220805460ff1916905580549161155b836124e0565b9190505550505050565b604080516101208101825260008082526020820181905291810182905260608082018390526080820183905260a0820183905260c0820183905260e082019290925261010081019190915260ff808316600090815260056020908152604091829020825161012081018452815480861615158252610100808204871615159483019490945262010000810486161515948201949094526301000000840485161515606082015264010000000084048516151560808201526501000000000084048516151560a0820152660100000000000084048516151560c0820152600160381b909304909316151560e08301526001830180549293929184019161166990612467565b80601f016020809104026020016040519081016040528092919081815260200182805461169590612467565b80156116e25780601f106116b7576101008083540402835291602001916116e2565b820191906000526020600020905b8154815290600101906020018083116116c557829003601f168201915b5050505050815250509050919050565b6000805b600a54811015611738576000818152600660205260409020600401546001600160a01b0316331415611726578091505b80611730816124e0565b9150506116f6565b5060008181526006602052604090205460ff16151560011461176c5760405162461bcd60e51b8152600401610894906125ab565b6000818152600660205260408120600201805434929061178d9084906124b2565b909155505050565b6001600160a01b03918216600090815260016020908152604080832093909416825291909152205490565b60008060005b600a54811015611831576000818152600660205260409020600401546001600160a01b03163314156117f6578092505b6000818152600660205260409020600401546001600160a01b038681169116141561181f578091505b80611829816124e0565b9150506117c6565b5060008281526006602090815260408083205460ff61010090910481168452600590925290912054600160381b90041615156001148061187b5750600c546001600160a01b031633145b806118905750600d546001600160a01b031633145b6118ac5760405162461bcd60e51b815260040161089490612565565b60008281526006602052604090205460ff80851661010090920416108015906118f857506000818152600660205260408082205484835291205460ff6101009283900481169290910416115b8061190d5750600c546001600160a01b031633145b806119225750600d546001600160a01b031633145b61196e5760405162461bcd60e51b815260206004820152601c60248201527f596f75722072616e6b206973206e6f74206869676820656e6f756768000000006044820152606401610894565b60008181526006602052604090205460ff16151560011480156119a4575060008281526006602052604090205460ff1615156001145b6119c05760405162461bcd60e51b8152600401610894906125ab565b506000908152600660205260409020805460ff9092166101000261ff001990921691909117905550565b6040805160608082018352600080835260208301529181019190915260008281526007602052604090205460ff161515600114611a695760405162461bcd60e51b815260206004820181905260248201527f5468697320696e7669746174696f6e206973206e6f206d6f72652076616c69646044820152606401610894565b6000828152600760209081526040918290208251606081018452815460ff81161515825261010090046001600160a01b031692810192909252600181018054929391929184019161166990612467565b6001600160a01b038316611b1b5760405162461bcd60e51b8152602060048201526024808201527f45524332303a20617070726f76652066726f6d20746865207a65726f206164646044820152637265737360e01b6064820152608401610894565b6001600160a01b038216611b7c5760405162461bcd60e51b815260206004820152602260248201527f45524332303a20617070726f766520746f20746865207a65726f206164647265604482015261737360f01b6064820152608401610894565b6001600160a01b0383811660008181526001602090815260408083209487168084529482529182902085905590518481527f8c5be1e5ebec7d5bd14f71427d1e84f3dd0314c0f7b2291e5b200ac8c7c3b925910160405180910390a3505050565b6000611be98484611795565b90506000198114611c515781811015611c445760405162461bcd60e51b815260206004820152601d60248201527f45524332303a20696e73756666696369656e7420616c6c6f77616e63650000006044820152606401610894565b611c518484848403611ab9565b50505050565b6001600160a01b038316611cbb5760405162461bcd60e51b815260206004820152602560248201527f45524332303a207472616e736665722066726f6d20746865207a65726f206164604482015264647265737360d81b6064820152608401610894565b6001600160a01b038216611d1d5760405162461bcd60e51b815260206004820152602360248201527f45524332303a207472616e7366657220746f20746865207a65726f206164647260448201526265737360e81b6064820152608401610894565b6001600160a01b03831660009081526020819052604090205481811015611d955760405162461bcd60e51b815260206004820152602660248201527f45524332303a207472616e7366657220616d6f756e7420657863656564732062604482015265616c616e636560d01b6064820152608401610894565b6001600160a01b03808516600090815260208190526040808220858503905591851681529081208054849290611dcc9084906124b2565b92505081905550826001600160a01b0316846001600160a01b03167fddf252ad1be2c89b69c2b068fc378daa952ba7f163c4a11628f55a4df523b3ef84604051611e1891815260200190565b60405180910390a3611c51565b6040805160c081018252600080825260208201819052918101829052606081018290526080810182905260a081019190915290565b828054611e6690612467565b90600052602060002090601f016020900481019282611e885760008555611ece565b82601f10611ea157805160ff1916838001178555611ece565b82800160010185558215611ece579182015b82811115611ece578251825591602001919060010190611eb3565b50611eda929150611ede565b5090565b5b80821115611eda5760008155600101611edf565b6000815180845260005b81811015611f1957602081850181015186830182015201611efd565b81811115611f2b576000602083870101525b50601f01601f19169290920160200192915050565b602081526000611f536020830184611ef3565b9392505050565b80356001600160a01b0381168114611f7157600080fd5b919050565b60008060408385031215611f8957600080fd5b611f9283611f5a565b946020939093013593505050565b600080600060608486031215611fb557600080fd5b611fbe84611f5a565b9250611fcc60208501611f5a565b9150604084013590509250925092565b600060208284031215611fee57600080fd5b611f5382611f5a565b80511515825260018060a01b036020820151166020830152600060408201516060604085015261202a6060850182611ef3565b949350505050565b6000602080830181845280855180835260408601915060408160051b870101925083870160005b8281101561208757603f19888603018452612075858351611ff7565b94509285019290850190600101612059565b5092979650505050505050565b80358015158114611f7157600080fd5b600080604083850312156120b757600080fd5b611f9283612094565b80511515825260208082015160ff169083015260408082015190830152606080820151908301526080808201516001600160a01b039081169184019190915260a09182015116910152565b60c0810161061182846120c0565b634e487b7160e01b600052604160045260246000fd5b600082601f83011261214057600080fd5b813567ffffffffffffffff8082111561215b5761215b612119565b604051601f8301601f19908116603f0116810190828211818310171561218357612183612119565b8160405283815286602085880101111561219c57600080fd5b836020870160208301376000602085830101528094505050505092915050565b6000602082840312156121ce57600080fd5b813567ffffffffffffffff8111156121e557600080fd5b61202a8482850161212f565b60006020828403121561220357600080fd5b5035919050565b6020808252825182820181905260009190848201906040850190845b8181101561224c576122398385516120c0565b9284019260c09290920191600101612226565b50909695505050505050565b803560ff81168114611f7157600080fd5b6000806000806000806000806000806101408b8d03121561228957600080fd5b6122928b612258565b99506122a060208c01612094565b98506122ae60408c01612094565b97506122bc60608c01612094565b96506122ca60808c01612094565b95506122d860a08c01612094565b94506122e660c08c01612094565b93506122f460e08c01612094565b92506123036101008c01612094565b91506101208b013567ffffffffffffffff81111561232057600080fd5b61232c8d828e0161212f565b9150509295989b9194979a5092959850565b60006020828403121561235057600080fd5b611f5382612258565b6020815261236c60208201835115159052565b60006020830151612381604084018215159052565b5060408301518015156060840152506060830151801515608084015250608083015180151560a08401525060a083015180151560c08401525060c083015180151560e08401525060e08301516101006123dd8185018315159052565b84015161012084810152905061202a610140840182611ef3565b6000806040838503121561240a57600080fd5b61241383611f5a565b915061242160208401611f5a565b90509250929050565b6000806040838503121561243d57600080fd5b61244683611f5a565b915061242160208401612258565b602081526000611f536020830184611ff7565b600181811c9082168061247b57607f821691505b6020821081141561084f57634e487b7160e01b600052602260045260246000fd5b634e487b7160e01b600052601160045260246000fd5b600082198211156124c5576124c561249c565b500190565b634e487b7160e01b600052603260045260246000fd5b60006000198214156124f4576124f461249c565b5060010190565b6020808252600e908201526d139bdd081e5bdd5c8819dd5a5b1960921b604082015260600190565b60208082526022908201527f596f757220617265206e6f7420617574686f72697a656420746f20646f207468604082015261697360f01b606082015260800190565b60208082526026908201527f596f75722072616e6b20646f6573206e6f7420617574686f72697a6520757067604082015265726164696e6760d01b606082015260800190565b6020808252600e908201526d2737ba103b30b634b2103ab9b2b960911b60408201526060019056fea26469706673582212208ccf8bbf68f2ee0112a92f4cf156f76d440aba5ef708886e2725ccd9d1a76f1064736f6c634300080b0033",
  "immutableReferences": {},
  "source": "// SPDX-License-Identifier: MIT\n// Guild contract\npragma solidity ^0.8.0;\n\nimport \"@openzeppelin/contracts/token/ERC20/ERC20.sol\";\n\ncontract Guild is ERC20 {\n  struct Member {\n    bool valid;\n    uint8 grade;\n    uint256 createdAt;\n    uint256 chestETH;\n    address addBy;\n    address addressMember;\n  }\n\n  struct Invit {\n    bool valid;\n    address addr;\n    string description;\n  }\n\n  struct Grade {\n    bool valid;\n    bool write;\n    bool read;\n    bool invit;\n    bool desinvit;\n    bool sendMoney;\n    bool takeMoney;\n    bool graduate;\n    string name;\n  }\n\n  mapping(uint8 => Grade) _grades;\n  mapping(uint256 => Member) _members;\n  mapping(uint256 => Invit) _invits;\n  uint256 id;\n  uint256 nonceMember;\n  uint256 countMember;\n  uint256 countInvit;\n  address payable owner;\n  address myosAddress;\n\n  constructor(\n    string memory name,\n    string memory symbol,\n    address payable _owner,\n    address _myosAddress,\n    uint256 _id\n  ) ERC20(name, symbol) {\n    owner = _owner;\n    myosAddress = _myosAddress;\n    id = _id;\n  }\n\n  modifier onlyCreator() {\n    require(msg.sender == owner || msg.sender == myosAddress, \"Not your guild\");\n    _;\n  }\n\n  /**\n    appel direct depuis web3 (on ne passe pas par delegate contract)\n     */\n  function setGrade(\n    uint8 _id,\n    bool valid,\n    bool write,\n    bool read,\n    bool invit,\n    bool desinvit,\n    bool sendMoney,\n    bool takeMoney,\n    bool graduate,\n    string memory name\n  ) external onlyCreator {\n    require(_id > 0 && _id < 10, \"10 Grade Max\");\n    _grades[_id] = Grade(\n      valid,\n      write,\n      read,\n      invit,\n      desinvit,\n      sendMoney,\n      takeMoney,\n      graduate,\n      name\n    );\n  }\n\n  /**\n    appel direct depuis web3 (on ne passe pas par delegate contract)\n     */\n  function getGrade(uint8 _id) external view returns (Grade memory) {\n    return _grades[_id];\n  }\n\n  /**\n    SUBSCRIBE SECTION\n     */\n  function suscribe(string memory description) external {\n    _invits[countInvit] = Invit(true, msg.sender, description);\n    countInvit++;\n  }\n\n  /**\n    appel direct depuis web3 (on ne passe pas par delegate contract)\n     */\n  function unsuscribe(uint256 invit) external {\n    require(_invits[invit].valid == true, \"This invitation is no more valid\");\n    uint256 changerId;\n    for (uint256 index = 0; index < countMember; index++) {\n      if (_members[index].addressMember == msg.sender) changerId = index;\n    }\n    require(\n      _invits[invit].addr == msg.sender ||\n        (_members[changerId].valid == true &&\n          _grades[_members[changerId].grade].desinvit == true),\n      \"Your are not authorized to do this\"\n    );\n    _invits[invit].valid = false;\n  }\n\n  /**\n    appel direct depuis web3 (on ne passe pas par delegate contract)\n     */\n  function getOneSubscription(uint256 invit) external view returns (Invit memory) {\n    require(_invits[invit].valid == true, \"This invitation is no more valid\");\n    return _invits[invit];\n  }\n\n  /*function getAllSubscription() external view returns (uint256[] memory){\n        if(countInvit == 0){\n            return new uint256[](0);\n        }\n        else{\n            uint[] memory result = new uint256[](countInvit);\n            uint256 resultIndex = 0;\n            for(uint256 i = 0; i < countInvit; i++){\n                if(_invits[i].valid == true){\n                    result[resultIndex] = i;\n                    resultIndex++;\n                }\n            }\n            return result;\n        }\n    }*/\n\n  /**\n    appel direct depuis web3 (on ne passe pas par delegate contract)\n     */\n  function getAllSubscriptionStruct() external view returns (Invit[] memory) {\n    if (countInvit == 0) {\n      return new Invit[](0);\n    } else {\n      Invit[] memory result = new Invit[](countInvit);\n      for (uint256 i = 0; i < countInvit; i++) {\n        if (_invits[i].valid == true) {\n          Invit storage invit = _invits[i];\n          result[i] = invit;\n        }\n      }\n      return result;\n    }\n  }\n\n  /**\n    appel direct depuis web3 (on ne passe pas par delegate contract)\n     */\n  function addMember(address _to) external {\n    uint256 changerId;\n    uint256 changedId;\n    for (uint256 index = 0; index < countMember; index++) {\n      if (_members[index].addressMember == msg.sender) changerId = index;\n    }\n    for (uint256 index2 = 0; index2 < countInvit; index2++) {\n      if (_invits[index2].addr == _to) changedId = index2;\n    }\n    require(_members[changedId].valid == true, \"User not valid\");\n    require(\n      _members[changerId].valid == true &&\n        _grades[_members[changerId].grade].invit == true,\n      \"Your are not authorized to do this\"\n    );\n    _members[nonceMember] = Member(false, 0, block.timestamp, 0, msg.sender, _to);\n    _members[changedId].valid = false;\n    nonceMember++;\n  }\n\n  /**\n    appel direct depuis web3 (on ne passe pas par delegate contract)\n     */\n  function changeGrade(address _to, uint8 grade) external {\n    uint256 changerId;\n    uint256 changedId;\n    for (uint256 index = 0; index < countMember; index++) {\n      if (_members[index].addressMember == msg.sender) changerId = index;\n      if (_members[index].addressMember == _to) changedId = index;\n    }\n    require(\n      _grades[_members[changerId].grade].graduate == true ||\n        msg.sender == owner ||\n        msg.sender == myosAddress,\n      \"Your rank does not authorize upgrading\"\n    );\n    require(\n      (_members[changerId].grade >= grade &&\n        _members[changerId].grade > _members[changedId].grade) ||\n        msg.sender == owner ||\n        msg.sender == myosAddress,\n      \"Your rank is not high enough\"\n    );\n    require(\n      _members[changedId].valid == true && _members[changerId].valid == true,\n      \"Not valid user\"\n    );\n    _members[changerId].grade = grade;\n  }\n\n  /**\n    appel direct depuis web3 (on ne passe pas par delegate contract)\n    on ban un membre de la guild tout en gardant ses informations juste en le passant en invalid\n    mais on lui rend sa thune quand mme on est pas des sauvages\n     */\n  function subMember(address _to) external {\n    uint256 changerId;\n    uint256 changedId;\n    for (uint256 index = 0; index < countMember; index++) {\n      if (_members[index].addressMember == msg.sender) changerId = index;\n      if (_members[index].addressMember == _to) changedId = index;\n    }\n\n    require(\n      _grades[_members[changerId].grade].desinvit == true ||\n        msg.sender == owner ||\n        msg.sender == myosAddress,\n      \"Your rank does not authorize upgrading\"\n    );\n    require(\n      _members[changerId].grade > _members[changedId].grade ||\n        msg.sender == owner ||\n        msg.sender == myosAddress,\n      \"Your rank is not high enough\"\n    );\n    require(\n      _members[changedId].valid == true && _members[changerId].valid == true,\n      \"Not valid user\"\n    );\n    payable(_members[changedId].addressMember).transfer(_members[changedId].chestETH);\n    _members[changedId].valid = false;\n  }\n\n  /**\n    appel direct depuis web3 (on ne passe pas par delegate contract)\n     */\n  function getAllMembers() external view returns (Member[] memory) {\n    if (countMember == 0) {\n      return new Member[](0);\n    } else {\n      Member[] memory result = new Member[](countMember);\n      for (uint256 i = 0; i < countMember; i++) {\n        if (_members[i].valid == true) {\n          Member storage member = _members[i];\n          result[i] = member;\n        }\n      }\n      return result;\n    }\n  }\n\n  /**\n    appel direct depuis web3 (on ne passe pas par delegate contract)\n     */\n  function getOneMember(address user) external view returns (Member memory) {\n    Member memory tempMember;\n    for (uint256 index = 0; index < countMember; index++) {\n      if (_members[index].addressMember == user) tempMember = _members[index];\n    }\n    return tempMember;\n  }\n\n  /**\n    appel direct depuis web3 (on ne passe pas par delegate contract)\n     */\n  function validMember(bool valid, uint256 member) external onlyCreator {\n    _members[member].valid = valid;\n  }\n\n  /**\n    appel direct depuis web3 (on ne passe pas par delegate contract)\n    Dposer de l'argent sur le contrat accssible seulement pour l'utilisateur\n     */\n  function sendETHInChest() external payable {\n    uint256 idUser;\n    for (uint256 index = 0; index < countMember; index++) {\n      if (_members[index].addressMember == msg.sender) idUser = index;\n    }\n    require(_members[idUser].valid == true, \"Not valid user\");\n    _members[idUser].chestETH += msg.value;\n  }\n\n  /**\n    appel direct depuis web3 (on ne passe pas par delegate contract)\n    Rcuprer l'argent de l'utilisateur pos prcdement sur le contrat\n     */\n  function withdrawETHMyChest(uint256 value) external {\n    uint256 idUser;\n    for (uint256 index = 0; index < countMember; index++) {\n      if (_members[index].addressMember == msg.sender) idUser = index;\n    }\n    require(_members[idUser].valid == true, \"Not valid user\");\n    require(_members[idUser].chestETH >= value, \"Not enougth ether in chest\");\n    payable(msg.sender).transfer(value);\n  }\n\n  /**\n    appel depuis le delegate contract on devrais en fait ne pas faire a parce que trop risquer pour les users\n     */\n  function kill() external onlyCreator {\n    selfdestruct(owner);\n  }\n\n  function getId() external view returns (uint256) {\n    return id;\n  }\n\n  function isOwner(address _owner) external view returns (bool) {\n    return _owner == owner;\n  }\n}\n",
  "sourcePath": "/home/kevin/Bureau/homework/MYOS/contracts/Guild.sol",
  "compiler": {
    "name": "solc",
    "version": "0.8.11+commit.d7f03943.Emscripten.clang"
  },
  "schemaVersion": "3.4.7",
  "updatedAt": "2022-10-31T18:30:52.166Z",
  "devdoc": {
    "kind": "dev",
    "methods": {
      "allowance(address,address)": {
        "details": "See {IERC20-allowance}."
      },
      "approve(address,uint256)": {
        "details": "See {IERC20-approve}. NOTE: If `amount` is the maximum `uint256`, the allowance is not updated on `transferFrom`. This is semantically equivalent to an infinite approval. Requirements: - `spender` cannot be the zero address."
      },
      "balanceOf(address)": {
        "details": "See {IERC20-balanceOf}."
      },
      "decimals()": {
        "details": "Returns the number of decimals used to get its user representation. For example, if `decimals` equals `2`, a balance of `505` tokens should be displayed to a user as `5.05` (`505 / 10 ** 2`). Tokens usually opt for a value of 18, imitating the relationship between Ether and Wei. This is the value {ERC20} uses, unless this function is overridden; NOTE: This information is only used for _display_ purposes: it in no way affects any of the arithmetic of the contract, including {IERC20-balanceOf} and {IERC20-transfer}."
      },
      "decreaseAllowance(address,uint256)": {
        "details": "Atomically decreases the allowance granted to `spender` by the caller. This is an alternative to {approve} that can be used as a mitigation for problems described in {IERC20-approve}. Emits an {Approval} event indicating the updated allowance. Requirements: - `spender` cannot be the zero address. - `spender` must have allowance for the caller of at least `subtractedValue`."
      },
      "increaseAllowance(address,uint256)": {
        "details": "Atomically increases the allowance granted to `spender` by the caller. This is an alternative to {approve} that can be used as a mitigation for problems described in {IERC20-approve}. Emits an {Approval} event indicating the updated allowance. Requirements: - `spender` cannot be the zero address."
      },
      "name()": {
        "details": "Returns the name of the token."
      },
      "symbol()": {
        "details": "Returns the symbol of the token, usually a shorter version of the name."
      },
      "totalSupply()": {
        "details": "See {IERC20-totalSupply}."
      },
      "transfer(address,uint256)": {
        "details": "See {IERC20-transfer}. Requirements: - `to` cannot be the zero address. - the caller must have a balance of at least `amount`."
      },
      "transferFrom(address,address,uint256)": {
        "details": "See {IERC20-transferFrom}. Emits an {Approval} event indicating the updated allowance. This is not required by the EIP. See the note at the beginning of {ERC20}. NOTE: Does not update the allowance if the current allowance is the maximum `uint256`. Requirements: - `from` and `to` cannot be the zero address. - `from` must have a balance of at least `amount`. - the caller must have allowance for ``from``'s tokens of at least `amount`."
      }
    },
    "version": 1
  },
  "userdoc": {
    "kind": "user",
    "methods": {
      "addMember(address)": {
        "notice": "appel direct depuis web3 (on ne passe pas par delegate contract)"
      },
      "changeGrade(address,uint8)": {
        "notice": "appel direct depuis web3 (on ne passe pas par delegate contract)"
      },
      "getAllMembers()": {
        "notice": "appel direct depuis web3 (on ne passe pas par delegate contract)"
      },
      "getAllSubscriptionStruct()": {
        "notice": "appel direct depuis web3 (on ne passe pas par delegate contract)"
      },
      "getGrade(uint8)": {
        "notice": "appel direct depuis web3 (on ne passe pas par delegate contract)"
      },
      "getOneMember(address)": {
        "notice": "appel direct depuis web3 (on ne passe pas par delegate contract)"
      },
      "getOneSubscription(uint256)": {
        "notice": "appel direct depuis web3 (on ne passe pas par delegate contract)"
      },
      "kill()": {
        "notice": "appel depuis le delegate contract on devrais en fait ne pas faire a parce que trop risquer pour les users"
      },
      "sendETHInChest()": {
        "notice": "appel direct depuis web3 (on ne passe pas par delegate contract) Dposer de l'argent sur le contrat accssible seulement pour l'utilisateur"
      },
      "setGrade(uint8,bool,bool,bool,bool,bool,bool,bool,bool,string)": {
        "notice": "appel direct depuis web3 (on ne passe pas par delegate contract)"
      },
      "subMember(address)": {
        "notice": "appel direct depuis web3 (on ne passe pas par delegate contract) on ban un membre de la guild tout en gardant ses informations juste en le passant en invalid mais on lui rend sa thune quand mme on est pas des sauvages"
      },
      "suscribe(string)": {
        "notice": "SUBSCRIBE SECTION"
      },
      "unsuscribe(uint256)": {
        "notice": "appel direct depuis web3 (on ne passe pas par delegate contract)"
      },
      "validMember(bool,uint256)": {
        "notice": "appel direct depuis web3 (on ne passe pas par delegate contract)"
      },
      "withdrawETHMyChest(uint256)": {
        "notice": "appel direct depuis web3 (on ne passe pas par delegate contract) Rcuprer l'argent de l'utilisateur pos prcdement sur le contrat"
      }
    },
    "version": 1
  }
}