{
  "contractName": "Hero",
  "abi": [
    {
      "inputs": [
        {
          "internalType": "string",
          "name": "name",
          "type": "string"
        },
        {
          "internalType": "string",
          "name": "symbol",
          "type": "string"
        },
        {
          "internalType": "string",
          "name": "_initBaseURI",
          "type": "string"
        }
      ],
      "stateMutability": "nonpayable",
      "type": "constructor"
    },
    {
      "anonymous": false,
      "inputs": [
        {
          "indexed": true,
          "internalType": "address",
          "name": "owner",
          "type": "address"
        },
        {
          "indexed": true,
          "internalType": "address",
          "name": "approved",
          "type": "address"
        },
        {
          "indexed": true,
          "internalType": "uint256",
          "name": "tokenId",
          "type": "uint256"
        }
      ],
      "name": "Approval",
      "type": "event"
    },
    {
      "anonymous": false,
      "inputs": [
        {
          "indexed": true,
          "internalType": "address",
          "name": "owner",
          "type": "address"
        },
        {
          "indexed": true,
          "internalType": "address",
          "name": "operator",
          "type": "address"
        },
        {
          "indexed": false,
          "internalType": "bool",
          "name": "approved",
          "type": "bool"
        }
      ],
      "name": "ApprovalForAll",
      "type": "event"
    },
    {
      "anonymous": false,
      "inputs": [
        {
          "indexed": true,
          "internalType": "address",
          "name": "previousOwner",
          "type": "address"
        },
        {
          "indexed": true,
          "internalType": "address",
          "name": "newOwner",
          "type": "address"
        }
      ],
      "name": "OwnershipTransferred",
      "type": "event"
    },
    {
      "anonymous": false,
      "inputs": [
        {
          "indexed": true,
          "internalType": "address",
          "name": "from",
          "type": "address"
        },
        {
          "indexed": true,
          "internalType": "address",
          "name": "to",
          "type": "address"
        },
        {
          "indexed": true,
          "internalType": "uint256",
          "name": "tokenId",
          "type": "uint256"
        }
      ],
      "name": "Transfer",
      "type": "event"
    },
    {
      "inputs": [
        {
          "internalType": "address",
          "name": "to",
          "type": "address"
        },
        {
          "internalType": "uint256",
          "name": "tokenId",
          "type": "uint256"
        }
      ],
      "name": "approve",
      "outputs": [],
      "stateMutability": "nonpayable",
      "type": "function"
    },
    {
      "inputs": [
        {
          "internalType": "address",
          "name": "owner",
          "type": "address"
        }
      ],
      "name": "balanceOf",
      "outputs": [
        {
          "internalType": "uint256",
          "name": "",
          "type": "uint256"
        }
      ],
      "stateMutability": "view",
      "type": "function"
    },
    {
      "inputs": [],
      "name": "baseExtension",
      "outputs": [
        {
          "internalType": "string",
          "name": "",
          "type": "string"
        }
      ],
      "stateMutability": "view",
      "type": "function"
    },
    {
      "inputs": [],
      "name": "baseURI",
      "outputs": [
        {
          "internalType": "string",
          "name": "",
          "type": "string"
        }
      ],
      "stateMutability": "view",
      "type": "function"
    },
    {
      "inputs": [
        {
          "internalType": "uint256",
          "name": "tokenId",
          "type": "uint256"
        }
      ],
      "name": "getApproved",
      "outputs": [
        {
          "internalType": "address",
          "name": "",
          "type": "address"
        }
      ],
      "stateMutability": "view",
      "type": "function"
    },
    {
      "inputs": [
        {
          "internalType": "address",
          "name": "owner",
          "type": "address"
        },
        {
          "internalType": "address",
          "name": "operator",
          "type": "address"
        }
      ],
      "name": "isApprovedForAll",
      "outputs": [
        {
          "internalType": "bool",
          "name": "",
          "type": "bool"
        }
      ],
      "stateMutability": "view",
      "type": "function"
    },
    {
      "inputs": [],
      "name": "name",
      "outputs": [
        {
          "internalType": "string",
          "name": "",
          "type": "string"
        }
      ],
      "stateMutability": "view",
      "type": "function"
    },
    {
      "inputs": [],
      "name": "owner",
      "outputs": [
        {
          "internalType": "address",
          "name": "",
          "type": "address"
        }
      ],
      "stateMutability": "view",
      "type": "function"
    },
    {
      "inputs": [
        {
          "internalType": "uint256",
          "name": "tokenId",
          "type": "uint256"
        }
      ],
      "name": "ownerOf",
      "outputs": [
        {
          "internalType": "address",
          "name": "",
          "type": "address"
        }
      ],
      "stateMutability": "view",
      "type": "function"
    },
    {
      "inputs": [],
      "name": "paused",
      "outputs": [
        {
          "internalType": "bool",
          "name": "",
          "type": "bool"
        }
      ],
      "stateMutability": "view",
      "type": "function"
    },
    {
      "inputs": [],
      "name": "renounceOwnership",
      "outputs": [],
      "stateMutability": "nonpayable",
      "type": "function"
    },
    {
      "inputs": [
        {
          "internalType": "address",
          "name": "from",
          "type": "address"
        },
        {
          "internalType": "address",
          "name": "to",
          "type": "address"
        },
        {
          "internalType": "uint256",
          "name": "tokenId",
          "type": "uint256"
        }
      ],
      "name": "safeTransferFrom",
      "outputs": [],
      "stateMutability": "nonpayable",
      "type": "function"
    },
    {
      "inputs": [
        {
          "internalType": "address",
          "name": "from",
          "type": "address"
        },
        {
          "internalType": "address",
          "name": "to",
          "type": "address"
        },
        {
          "internalType": "uint256",
          "name": "tokenId",
          "type": "uint256"
        },
        {
          "internalType": "bytes",
          "name": "data",
          "type": "bytes"
        }
      ],
      "name": "safeTransferFrom",
      "outputs": [],
      "stateMutability": "nonpayable",
      "type": "function"
    },
    {
      "inputs": [
        {
          "internalType": "address",
          "name": "operator",
          "type": "address"
        },
        {
          "internalType": "bool",
          "name": "approved",
          "type": "bool"
        }
      ],
      "name": "setApprovalForAll",
      "outputs": [],
      "stateMutability": "nonpayable",
      "type": "function"
    },
    {
      "inputs": [
        {
          "internalType": "bytes4",
          "name": "interfaceId",
          "type": "bytes4"
        }
      ],
      "name": "supportsInterface",
      "outputs": [
        {
          "internalType": "bool",
          "name": "",
          "type": "bool"
        }
      ],
      "stateMutability": "view",
      "type": "function"
    },
    {
      "inputs": [],
      "name": "symbol",
      "outputs": [
        {
          "internalType": "string",
          "name": "",
          "type": "string"
        }
      ],
      "stateMutability": "view",
      "type": "function"
    },
    {
      "inputs": [
        {
          "internalType": "address",
          "name": "from",
          "type": "address"
        },
        {
          "internalType": "address",
          "name": "to",
          "type": "address"
        },
        {
          "internalType": "uint256",
          "name": "tokenId",
          "type": "uint256"
        }
      ],
      "name": "transferFrom",
      "outputs": [],
      "stateMutability": "nonpayable",
      "type": "function"
    },
    {
      "inputs": [
        {
          "internalType": "address",
          "name": "newOwner",
          "type": "address"
        }
      ],
      "name": "transferOwnership",
      "outputs": [],
      "stateMutability": "nonpayable",
      "type": "function"
    },
    {
      "inputs": [
        {
          "internalType": "string",
          "name": "_newBaseURI",
          "type": "string"
        }
      ],
      "name": "setBaseURI",
      "outputs": [],
      "stateMutability": "nonpayable",
      "type": "function"
    },
    {
      "inputs": [
        {
          "internalType": "uint256",
          "name": "tokenId",
          "type": "uint256"
        }
      ],
      "name": "tokenURI",
      "outputs": [
        {
          "internalType": "string",
          "name": "",
          "type": "string"
        }
      ],
      "stateMutability": "view",
      "type": "function"
    },
    {
      "inputs": [
        {
          "internalType": "bool",
          "name": "_state",
          "type": "bool"
        }
      ],
      "name": "pause",
      "outputs": [],
      "stateMutability": "nonpayable",
      "type": "function"
    },
    {
      "inputs": [
        {
          "internalType": "address",
          "name": "receiver",
          "type": "address"
        },
        {
          "internalType": "bool[]",
          "name": "booleans",
          "type": "bool[]"
        },
        {
          "internalType": "uint8[]",
          "name": "params8",
          "type": "uint8[]"
        },
        {
          "internalType": "uint256[]",
          "name": "params256",
          "type": "uint256[]"
        },
        {
          "internalType": "string",
          "name": "_tokenURI",
          "type": "string"
        }
      ],
      "name": "mint",
      "outputs": [],
      "stateMutability": "payable",
      "type": "function"
    },
    {
      "inputs": [
        {
          "internalType": "uint256",
          "name": "tokenId",
          "type": "uint256"
        }
      ],
      "name": "burn",
      "outputs": [],
      "stateMutability": "nonpayable",
      "type": "function"
    },
    {
      "inputs": [
        {
          "internalType": "address",
          "name": "from",
          "type": "address"
        },
        {
          "internalType": "address",
          "name": "to",
          "type": "address"
        },
        {
          "internalType": "uint256",
          "name": "tokenId",
          "type": "uint256"
        }
      ],
      "name": "transfer",
      "outputs": [],
      "stateMutability": "nonpayable",
      "type": "function"
    },
    {
      "inputs": [
        {
          "internalType": "address",
          "name": "user",
          "type": "address"
        }
      ],
      "name": "getAllTokensForUser",
      "outputs": [
        {
          "internalType": "uint256[]",
          "name": "",
          "type": "uint256[]"
        }
      ],
      "stateMutability": "view",
      "type": "function"
    },
    {
      "inputs": [
        {
          "components": [
            {
              "internalType": "bool[]",
              "name": "booleans",
              "type": "bool[]"
            },
            {
              "internalType": "uint8[]",
              "name": "params8",
              "type": "uint8[]"
            },
            {
              "internalType": "uint256[]",
              "name": "params256",
              "type": "uint256[]"
            }
          ],
          "internalType": "struct Hero.Token",
          "name": "tokenTemp",
          "type": "tuple"
        },
        {
          "internalType": "uint256",
          "name": "tokenId",
          "type": "uint256"
        },
        {
          "internalType": "address",
          "name": "owner",
          "type": "address"
        }
      ],
      "name": "updateToken",
      "outputs": [],
      "stateMutability": "nonpayable",
      "type": "function"
    },
    {
      "inputs": [
        {
          "internalType": "uint256",
          "name": "tokenId",
          "type": "uint256"
        }
      ],
      "name": "getTokenDetails",
      "outputs": [
        {
          "components": [
            {
              "internalType": "bool[]",
              "name": "booleans",
              "type": "bool[]"
            },
            {
              "internalType": "uint8[]",
              "name": "params8",
              "type": "uint8[]"
            },
            {
              "internalType": "uint256[]",
              "name": "params256",
              "type": "uint256[]"
            }
          ],
          "internalType": "struct Hero.Token",
          "name": "",
          "type": "tuple"
        }
      ],
      "stateMutability": "view",
      "type": "function"
    },
    {
      "inputs": [
        {
          "internalType": "string",
          "name": "keyParams",
          "type": "string"
        },
        {
          "internalType": "uint256",
          "name": "valueParams",
          "type": "uint256"
        }
      ],
      "name": "setParamsContract",
      "outputs": [],
      "stateMutability": "nonpayable",
      "type": "function"
    },
    {
      "inputs": [
        {
          "internalType": "string",
          "name": "keyParams",
          "type": "string"
        }
      ],
      "name": "getParamsContract",
      "outputs": [
        {
          "internalType": "uint256",
          "name": "",
          "type": "uint256"
        }
      ],
      "stateMutability": "view",
      "type": "function"
    },
    {
      "inputs": [
        {
          "internalType": "address",
          "name": "_address",
          "type": "address"
        }
      ],
      "name": "setaddressDelegateContract",
      "outputs": [],
      "stateMutability": "nonpayable",
      "type": "function"
    },
    {
      "inputs": [],
      "name": "withdraw",
      "outputs": [],
      "stateMutability": "nonpayable",
      "type": "function"
    },
    {
      "inputs": [],
      "name": "deposit",
      "outputs": [],
      "stateMutability": "payable",
      "type": "function"
    },
    {
      "inputs": [],
      "name": "getBalance",
      "outputs": [
        {
          "internalType": "uint256",
          "name": "",
          "type": "uint256"
        }
      ],
      "stateMutability": "view",
      "type": "function"
    },
    {
      "inputs": [
        {
          "internalType": "uint256",
          "name": "tokenId",
          "type": "uint256"
        }
      ],
      "name": "getOwnerOf",
      "outputs": [
        {
          "internalType": "address",
          "name": "",
          "type": "address"
        }
      ],
      "stateMutability": "view",
      "type": "function"
    },
    {
      "inputs": [
        {
          "internalType": "address",
          "name": "user",
          "type": "address"
        }
      ],
      "name": "getBalanceOf",
      "outputs": [
        {
          "internalType": "uint256",
          "name": "",
          "type": "uint256"
        }
      ],
      "stateMutability": "view",
      "type": "function"
    }
  ],
  "bytecode": "0x60c06040526005608081905264173539b7b760d91b60a09081526200002891600c9190620001f8565b50600d805460ff191690553480156200004057600080fd5b5060405162002e9938038062002e9983398101604081905262000063916200036b565b8251839083906200007c906000906020850190620001f8565b50805162000092906001906020840190620001f8565b505050620000af620000a96200011e60201b60201c565b62000122565b60006009604051620000cd90651b995e1d125960d21b815260060190565b908152604051908190036020018120919091556a746f74616c537570706c7960a81b8152600090600990600b0190815260405190819003602001902055620001158162000174565b50505062000439565b3390565b600780546001600160a01b038381166001600160a01b0319831681179093556040519116919082907f8be0079c531659141344cd1fd0a4f28419497f9722a3daafe3b4186f6b6457e090600090a35050565b6200017e62000197565b80516200019390600b906020840190620001f8565b5050565b6007546001600160a01b03163314620001f65760405162461bcd60e51b815260206004820181905260248201527f4f776e61626c653a2063616c6c6572206973206e6f7420746865206f776e6572604482015260640160405180910390fd5b565b8280546200020690620003fc565b90600052602060002090601f0160209004810192826200022a576000855562000275565b82601f106200024557805160ff191683800117855562000275565b8280016001018555821562000275579182015b828111156200027557825182559160200191906001019062000258565b506200028392915062000287565b5090565b5b8082111562000283576000815560010162000288565b634e487b7160e01b600052604160045260246000fd5b600082601f830112620002c657600080fd5b81516001600160401b0380821115620002e357620002e36200029e565b604051601f8301601f19908116603f011681019082821181831017156200030e576200030e6200029e565b816040528381526020925086838588010111156200032b57600080fd5b600091505b838210156200034f578582018301518183018401529082019062000330565b83821115620003615760008385830101525b9695505050505050565b6000806000606084860312156200038157600080fd5b83516001600160401b03808211156200039957600080fd5b620003a787838801620002b4565b94506020860151915080821115620003be57600080fd5b620003cc87838801620002b4565b93506040860151915080821115620003e357600080fd5b50620003f286828701620002b4565b9150509250925092565b600181811c908216806200041157607f821691505b602082108114156200043357634e487b7160e01b600052602260045260246000fd5b50919050565b612a5080620004496000396000f3fe6080604052600436106102045760003560e01c806382de8fe911610118578063c6682862116100a0578063e1e5151d1161006f578063e1e5151d146105ba578063e6d46f33146105da578063e985e9c5146105ed578063f26bf0b714610636578063f2fde38b1461065657600080fd5b8063c66828621461055d578063c87b56dd14610572578063d0e30db014610592578063de6d9cf21461059a57600080fd5b80639b96eece116100e75780639b96eece146104b0578063a22cb465146104d0578063b88d4fde146104f0578063beabacc814610510578063c1e037281461053057600080fd5b806382de8fe914610430578063836387101461045d5780638da5cb5b1461047d57806395d89b411461049b57600080fd5b80633ccfd60b1161019b5780635c975abb1161016a5780635c975abb146103ac5780636352211e146103c65780636c0360eb146103e657806370a08231146103fb578063715018a61461041b57600080fd5b80633ccfd60b1461033757806342842e0e1461034c57806342966c681461036c57806355f804b31461038c57600080fd5b8063095ea7b3116101d7578063095ea7b3146102ba57806312065fe0146102da57806323b872dd146102f75780633cb119441461031757600080fd5b806301ffc9a71461020957806302329a291461023e57806306fdde0314610260578063081812fc14610282575b600080fd5b34801561021557600080fd5b50610229610224366004611f75565b610676565b60405190151581526020015b60405180910390f35b34801561024a57600080fd5b5061025e610259366004611fa7565b6106c8565b005b34801561026c57600080fd5b506102756106e3565b604051610235919061201a565b34801561028e57600080fd5b506102a261029d36600461202d565b610775565b6040516001600160a01b039091168152602001610235565b3480156102c657600080fd5b5061025e6102d536600461205d565b61079c565b3480156102e657600080fd5b50475b604051908152602001610235565b34801561030357600080fd5b5061025e610312366004612087565b6108b7565b34801561032357600080fd5b5061025e6103323660046121ab565b6108e8565b34801561034357600080fd5b5061025e610915565b34801561035857600080fd5b5061025e610367366004612087565b61094c565b34801561037857600080fd5b5061025e61038736600461202d565b610967565b34801561039857600080fd5b5061025e6103a73660046121f0565b6109f9565b3480156103b857600080fd5b50600d546102299060ff1681565b3480156103d257600080fd5b506102a26103e136600461202d565b610a18565b3480156103f257600080fd5b50610275610a78565b34801561040757600080fd5b506102e9610416366004612225565b610b06565b34801561042757600080fd5b5061025e610b8c565b34801561043c57600080fd5b5061045061044b366004612225565b610ba0565b604051610235919061227b565b34801561046957600080fd5b506102a261047836600461202d565b610cbc565b34801561048957600080fd5b506007546001600160a01b03166102a2565b3480156104a757600080fd5b50610275610cc7565b3480156104bc57600080fd5b506102e96104cb366004612225565b610cd6565b3480156104dc57600080fd5b5061025e6104eb36600461228e565b610ce1565b3480156104fc57600080fd5b5061025e61050b3660046122c1565b610cec565b34801561051c57600080fd5b5061025e61052b366004612087565b610d24565b34801561053c57600080fd5b5061055061054b36600461202d565b610d8c565b6040516102359190612370565b34801561056957600080fd5b50610275610f0e565b34801561057e57600080fd5b5061027561058d36600461202d565b610f1b565b61025e610ff9565b3480156105a657600080fd5b5061025e6105b5366004612225565b611001565b3480156105c657600080fd5b5061025e6105d536600461255a565b61102b565b61025e6105e836600461262b565b611134565b3480156105f957600080fd5b506102296106083660046126e9565b6001600160a01b03918216600090815260056020908152604080832093909416825291909152205460ff1690565b34801561064257600080fd5b506102e96106513660046121f0565b61130c565b34801561066257600080fd5b5061025e610671366004612225565b611334565b60006001600160e01b031982166380ac58cd60e01b14806106a757506001600160e01b03198216635b5e139f60e01b145b806106c257506301ffc9a760e01b6001600160e01b03198316145b92915050565b6106d06113aa565b600d805460ff1916911515919091179055565b6060600080546106f290612713565b80601f016020809104026020016040519081016040528092919081815260200182805461071e90612713565b801561076b5780601f106107405761010080835404028352916020019161076b565b820191906000526020600020905b81548152906001019060200180831161074e57829003601f168201915b5050505050905090565b600061078082611404565b506000908152600460205260409020546001600160a01b031690565b60006107a782610a18565b9050806001600160a01b0316836001600160a01b0316141561081a5760405162461bcd60e51b815260206004820152602160248201527f4552433732313a20617070726f76616c20746f2063757272656e74206f776e656044820152603960f91b60648201526084015b60405180910390fd5b336001600160a01b038216148061083657506108368133610608565b6108a85760405162461bcd60e51b815260206004820152603e60248201527f4552433732313a20617070726f76652063616c6c6572206973206e6f7420746f60448201527f6b656e206f776e6572206e6f7220617070726f76656420666f7220616c6c00006064820152608401610811565b6108b28383611463565b505050565b6108c133826114d1565b6108dd5760405162461bcd60e51b815260040161081190612748565b6108b2838383611550565b6108f06113aa565b806009836040516109019190612796565b908152604051908190036020019020555050565b61091d6113aa565b60405133904780156108fc02916000818181858888f19350505050158015610949573d6000803e3d6000fd5b50565b6108b283838360405180602001604052806000815250610cec565b6008546001600160a01b031633148061098957506008546001600160a01b0316155b80156109985750600d5460ff16155b6109b45760405162461bcd60e51b8152600401610811906127b2565b6040516a746f74616c537570706c7960a81b8152600990600b0190815260405190819003602001902080549060006109eb836127ff565b9190505550610949816116ec565b610a016113aa565b8051610a1490600b906020840190611d4f565b5050565b6000818152600260205260408120546001600160a01b0316806106c25760405162461bcd60e51b8152602060048201526018602482015277115490cdcc8c4e881a5b9d985b1a59081d1bdad95b88125160421b6044820152606401610811565b600b8054610a8590612713565b80601f0160208091040260200160405190810160405280929190818152602001828054610ab190612713565b8015610afe5780601f10610ad357610100808354040283529160200191610afe565b820191906000526020600020905b815481529060010190602001808311610ae157829003601f168201915b505050505081565b60006001600160a01b038216610b705760405162461bcd60e51b815260206004820152602960248201527f4552433732313a2061646472657373207a65726f206973206e6f7420612076616044820152683634b21037bbb732b960b91b6064820152608401610811565b506001600160a01b031660009081526003602052604090205490565b610b946113aa565b610b9e600061172c565b565b60606000610bad83610b06565b905080610bca575050604080516000815260208101909152919050565b60008167ffffffffffffffff811115610be557610be56120c3565b604051908082528060200260200182016040528015610c0e578160200160208202803683370190505b50905060006009604051610c2e90651b995e1d125960d21b815260060190565b90815260200160405180910390205490506000805b82811015610cab57866001600160a01b0316610c5e82610a18565b6001600160a01b03161415610c995780848381518110610c8057610c80612816565b602090810291909101015281610c958161282c565b9250505b80610ca38161282c565b915050610c43565b509195945050505050565b50919050565b60006106c282610a18565b6060600180546106f290612713565b60006106c282610b06565b610a1433838361177e565b610cf633836114d1565b610d125760405162461bcd60e51b815260040161081190612748565b610d1e8484848461184d565b50505050565b6008546001600160a01b0316331480610d4657506008546001600160a01b0316155b8015610d555750600d5460ff16155b610d715760405162461bcd60e51b8152600401610811906127b2565b6108b28383836040518060200160405280600081525061184d565b610db060405180606001604052806060815260200160608152602001606081525090565b6000828152600a602090815260409182902082518154608093810282018401909452606081018481529093919284928491840182828015610e3057602002820191906000526020600020906000905b825461010083900a900460ff161515815260206001928301818104948501949093039092029101808411610dff5790505b5050505050815260200160018201805480602002602001604051908101604052809291908181526020018280548015610ea657602002820191906000526020600020906000905b825461010083900a900460ff16815260206001928301818104948501949093039092029101808411610e775790505b5050505050815260200160028201805480602002602001604051908101604052809291908181526020018280548015610efe57602002820191906000526020600020905b815481526020019060010190808311610eea575b5050505050815250509050919050565b600c8054610a8590612713565b6000818152600260205260409020546060906001600160a01b0316610f9a5760405162461bcd60e51b815260206004820152602f60248201527f4552433732314d657461646174613a2055524920717565727920666f72206e6f60448201526e3732bc34b9ba32b73a103a37b5b2b760891b6064820152608401610811565b6000610fa4611880565b90506000815111610fc45760405180602001604052806000815250610ff2565b80610fce8461188f565b600c604051602001610fe293929190612847565b6040516020818303038152906040525b9392505050565b610b9e6113aa565b6110096113aa565b600880546001600160a01b0319166001600160a01b0392909216919091179055565b6008546001600160a01b031633148061104d57506008546001600160a01b0316155b801561105c5750600d5460ff16155b6110785760405162461bcd60e51b8152600401610811906127b2565b806001600160a01b031661108b83610a18565b6001600160a01b0316146110d25760405162461bcd60e51b815260206004820152600e60248201526d2737ba102cb7bab9103a37b5b2b760911b6044820152606401610811565b6000828152600a602090815260409091208451805186936110f7928492910190611dd3565b5060208281015180516111109260018501920190611e73565b506040820151805161112c916002840191602090910190611eda565b505050505050565b6008546001600160a01b031633148061115657506008546001600160a01b0316155b80156111655750600d5460ff16155b6111815760405162461bcd60e51b8152600401610811906127b2565b604051806060016040528085815260200184815260200183815250600a600060096040516111bb90651b995e1d125960d21b815260060190565b908152602001604051809103902054815260200190815260200160002060008201518160000190805190602001906111f4929190611dd3565b50602082810151805161120d9260018501920190611e73565b5060408201518051611229916002840191602090910190611eda565b5050604051651b995e1d125960d21b815260099150600601908152604051908190036020019020805490600061125e8361282c565b90915550506040516a746f74616c537570706c7960a81b8152600990600b01908152604051908190036020019020805490600061129a8361282c565b91905055506112d28560096040516112be90651b995e1d125960d21b815260060190565b90815260200160405180910390205461198d565b61130560096040516112f090651b995e1d125960d21b815260060190565b908152602001604051809103902054826119a7565b5050505050565b600060098260405161131e9190612796565b9081526020016040518091039020549050919050565b61133c6113aa565b6001600160a01b0381166113a15760405162461bcd60e51b815260206004820152602660248201527f4f776e61626c653a206e6577206f776e657220697320746865207a65726f206160448201526564647265737360d01b6064820152608401610811565b6109498161172c565b6007546001600160a01b03163314610b9e5760405162461bcd60e51b815260206004820181905260248201527f4f776e61626c653a2063616c6c6572206973206e6f7420746865206f776e65726044820152606401610811565b6000818152600260205260409020546001600160a01b03166109495760405162461bcd60e51b8152602060048201526018602482015277115490cdcc8c4e881a5b9d985b1a59081d1bdad95b88125160421b6044820152606401610811565b600081815260046020526040902080546001600160a01b0319166001600160a01b038416908117909155819061149882610a18565b6001600160a01b03167f8c5be1e5ebec7d5bd14f71427d1e84f3dd0314c0f7b2291e5b200ac8c7c3b92560405160405180910390a45050565b6000806114dd83610a18565b9050806001600160a01b0316846001600160a01b0316148061152457506001600160a01b0380821660009081526005602090815260408083209388168352929052205460ff165b806115485750836001600160a01b031661153d84610775565b6001600160a01b0316145b949350505050565b826001600160a01b031661156382610a18565b6001600160a01b0316146115c75760405162461bcd60e51b815260206004820152602560248201527f4552433732313a207472616e736665722066726f6d20696e636f72726563742060448201526437bbb732b960d91b6064820152608401610811565b6001600160a01b0382166116295760405162461bcd60e51b8152602060048201526024808201527f4552433732313a207472616e7366657220746f20746865207a65726f206164646044820152637265737360e01b6064820152608401610811565b611634600082611463565b6001600160a01b038316600090815260036020526040812080546001929061165d90849061290b565b90915550506001600160a01b038216600090815260036020526040812080546001929061168b908490612922565b909155505060008181526002602052604080822080546001600160a01b0319166001600160a01b0386811691821790925591518493918716917fddf252ad1be2c89b69c2b068fc378daa952ba7f163c4a11628f55a4df523b3ef91a4505050565b6116f581611a41565b6000818152600660205260409020805461170e90612713565b15905061094957600081815260066020526040812061094991611f14565b600780546001600160a01b038381166001600160a01b0319831681179093556040519116919082907f8be0079c531659141344cd1fd0a4f28419497f9722a3daafe3b4186f6b6457e090600090a35050565b816001600160a01b0316836001600160a01b031614156117e05760405162461bcd60e51b815260206004820152601960248201527f4552433732313a20617070726f766520746f2063616c6c6572000000000000006044820152606401610811565b6001600160a01b03838116600081815260056020908152604080832094871680845294825291829020805460ff191686151590811790915591519182527f17307eab39ab6107e8899845ad3d59bd9653f200f220920489ca2b5937696c31910160405180910390a3505050565b611858848484611550565b61186484848484611adc565b610d1e5760405162461bcd60e51b81526004016108119061293a565b6060600b80546106f290612713565b6060816118b35750506040805180820190915260018152600360fc1b602082015290565b8160005b81156118dd57806118c78161282c565b91506118d69050600a836129a2565b91506118b7565b60008167ffffffffffffffff8111156118f8576118f86120c3565b6040519080825280601f01601f191660200182016040528015611922576020820181803683370190505b5090505b84156115485761193760018361290b565b9150611944600a866129b6565b61194f906030612922565b60f81b81838151811061196457611964612816565b60200101906001600160f81b031916908160001a905350611986600a866129a2565b9450611926565b610a14828260405180602001604052806000815250611bda565b6000828152600260205260409020546001600160a01b0316611a225760405162461bcd60e51b815260206004820152602e60248201527f45524337323155524953746f726167653a2055524920736574206f66206e6f6e60448201526d32bc34b9ba32b73a103a37b5b2b760911b6064820152608401610811565b600082815260066020908152604090912082516108b292840190611d4f565b6000611a4c82610a18565b9050611a59600083611463565b6001600160a01b0381166000908152600360205260408120805460019290611a8290849061290b565b909155505060008281526002602052604080822080546001600160a01b0319169055518391906001600160a01b038416907fddf252ad1be2c89b69c2b068fc378daa952ba7f163c4a11628f55a4df523b3ef908390a45050565b60006001600160a01b0384163b15611bcf57604051630a85bd0160e11b81526001600160a01b0385169063150b7a0290611b209033908990889088906004016129ca565b6020604051808303816000875af1925050508015611b5b575060408051601f3d908101601f19168201909252611b58918101906129fd565b60015b611bb5573d808015611b89576040519150601f19603f3d011682016040523d82523d6000602084013e611b8e565b606091505b508051611bad5760405162461bcd60e51b81526004016108119061293a565b805181602001fd5b6001600160e01b031916630a85bd0160e11b149050611548565b506001949350505050565b611be48383611c0d565b611bf16000848484611adc565b6108b25760405162461bcd60e51b81526004016108119061293a565b6001600160a01b038216611c635760405162461bcd60e51b815260206004820181905260248201527f4552433732313a206d696e7420746f20746865207a65726f20616464726573736044820152606401610811565b6000818152600260205260409020546001600160a01b031615611cc85760405162461bcd60e51b815260206004820152601c60248201527f4552433732313a20746f6b656e20616c7265616479206d696e746564000000006044820152606401610811565b6001600160a01b0382166000908152600360205260408120805460019290611cf1908490612922565b909155505060008181526002602052604080822080546001600160a01b0319166001600160a01b03861690811790915590518392907fddf252ad1be2c89b69c2b068fc378daa952ba7f163c4a11628f55a4df523b3ef908290a45050565b828054611d5b90612713565b90600052602060002090601f016020900481019282611d7d5760008555611dc3565b82601f10611d9657805160ff1916838001178555611dc3565b82800160010185558215611dc3579182015b82811115611dc3578251825591602001919060010190611da8565b50611dcf929150611f4a565b5090565b82805482825590600052602060002090601f01602090048101928215611dc35791602002820160005b83821115611e3957835183826101000a81548160ff0219169083151502179055509260200192600101602081600001049283019260010302611dfc565b8015611e665782816101000a81549060ff0219169055600101602081600001049283019260010302611e39565b5050611dcf929150611f4a565b82805482825590600052602060002090601f01602090048101928215611dc35791602002820160005b83821115611e3957835183826101000a81548160ff021916908360ff1602179055509260200192600101602081600001049283019260010302611e9c565b828054828255906000526020600020908101928215611dc35791602002820182811115611dc3578251825591602001919060010190611da8565b508054611f2090612713565b6000825580601f10611f30575050565b601f01602090049060005260206000209081019061094991905b5b80821115611dcf5760008155600101611f4b565b6001600160e01b03198116811461094957600080fd5b600060208284031215611f8757600080fd5b8135610ff281611f5f565b80358015158114611fa257600080fd5b919050565b600060208284031215611fb957600080fd5b610ff282611f92565b60005b83811015611fdd578181015183820152602001611fc5565b83811115610d1e5750506000910152565b60008151808452612006816020860160208601611fc2565b601f01601f19169290920160200192915050565b602081526000610ff26020830184611fee565b60006020828403121561203f57600080fd5b5035919050565b80356001600160a01b0381168114611fa257600080fd5b6000806040838503121561207057600080fd5b61207983612046565b946020939093013593505050565b60008060006060848603121561209c57600080fd5b6120a584612046565b92506120b360208501612046565b9150604084013590509250925092565b634e487b7160e01b600052604160045260246000fd5b6040516060810167ffffffffffffffff811182821017156120fc576120fc6120c3565b60405290565b604051601f8201601f1916810167ffffffffffffffff8111828210171561212b5761212b6120c3565b604052919050565b600067ffffffffffffffff83111561214d5761214d6120c3565b612160601f8401601f1916602001612102565b905082815283838301111561217457600080fd5b828260208301376000602084830101529392505050565b600082601f83011261219c57600080fd5b610ff283833560208501612133565b600080604083850312156121be57600080fd5b823567ffffffffffffffff8111156121d557600080fd5b6121e18582860161218b565b95602094909401359450505050565b60006020828403121561220257600080fd5b813567ffffffffffffffff81111561221957600080fd5b6115488482850161218b565b60006020828403121561223757600080fd5b610ff282612046565b600081518084526020808501945080840160005b8381101561227057815187529582019590820190600101612254565b509495945050505050565b602081526000610ff26020830184612240565b600080604083850312156122a157600080fd5b6122aa83612046565b91506122b860208401611f92565b90509250929050565b600080600080608085870312156122d757600080fd5b6122e085612046565b93506122ee60208601612046565b925060408501359150606085013567ffffffffffffffff81111561231157600080fd5b8501601f8101871361232257600080fd5b61233187823560208401612133565b91505092959194509250565b600081518084526020808501945080840160005b8381101561227057815160ff1687529582019590820190600101612351565b6020808252825160608383015280516080840181905260009291820190839060a08601905b808310156123b757835115158252928401926001929092019190840190612395565b50838701519350601f199250828682030160408701526123d7818561233d565b935050506040850151818584030160608601526123f48382612240565b9695505050505050565b600067ffffffffffffffff821115612418576124186120c3565b5060051b60200190565b600082601f83011261243357600080fd5b81356020612448612443836123fe565b612102565b82815260059290921b8401810191818101908684111561246757600080fd5b8286015b848110156124895761247c81611f92565b835291830191830161246b565b509695505050505050565b600082601f8301126124a557600080fd5b813560206124b5612443836123fe565b82815260059290921b840181019181810190868411156124d457600080fd5b8286015b8481101561248957803560ff811681146124f25760008081fd5b83529183019183016124d8565b600082601f83011261251057600080fd5b81356020612520612443836123fe565b82815260059290921b8401810191818101908684111561253f57600080fd5b8286015b848110156124895780358352918301918301612543565b60008060006060848603121561256f57600080fd5b833567ffffffffffffffff8082111561258757600080fd5b908501906060828803121561259b57600080fd5b6125a36120d9565b8235828111156125b257600080fd5b6125be89828601612422565b8252506020830135828111156125d357600080fd5b6125df89828601612494565b6020830152506040830135828111156125f757600080fd5b612603898286016124ff565b6040830152508095505050506020840135915061262260408501612046565b90509250925092565b600080600080600060a0868803121561264357600080fd5b61264c86612046565b9450602086013567ffffffffffffffff8082111561266957600080fd5b61267589838a01612422565b9550604088013591508082111561268b57600080fd5b61269789838a01612494565b945060608801359150808211156126ad57600080fd5b6126b989838a016124ff565b935060808801359150808211156126cf57600080fd5b506126dc8882890161218b565b9150509295509295909350565b600080604083850312156126fc57600080fd5b61270583612046565b91506122b860208401612046565b600181811c9082168061272757607f821691505b60208210811415610cb657634e487b7160e01b600052602260045260246000fd5b6020808252602e908201527f4552433732313a2063616c6c6572206973206e6f7420746f6b656e206f776e6560408201526d1c881b9bdc88185c1c1c9bdd995960921b606082015260800190565b600082516127a8818460208701611fc2565b9190910192915050565b6020808252601a908201527f4e6f7420676f6f642064656c656761746520636f6e7472616374000000000000604082015260600190565b634e487b7160e01b600052601160045260246000fd5b60008161280e5761280e6127e9565b506000190190565b634e487b7160e01b600052603260045260246000fd5b6000600019821415612840576128406127e9565b5060010190565b60008451602061285a8285838a01611fc2565b85519184019161286d8184848a01611fc2565b8554920191600090600181811c908083168061288a57607f831692505b8583108114156128a857634e487b7160e01b85526022600452602485fd5b8080156128bc57600181146128cd576128fa565b60ff198516885283880195506128fa565b60008b81526020902060005b858110156128f25781548a8201529084019088016128d9565b505083880195505b50939b9a5050505050505050505050565b60008282101561291d5761291d6127e9565b500390565b60008219821115612935576129356127e9565b500190565b60208082526032908201527f4552433732313a207472616e7366657220746f206e6f6e20455243373231526560408201527131b2b4bb32b91034b6b83632b6b2b73a32b960711b606082015260800190565b634e487b7160e01b600052601260045260246000fd5b6000826129b1576129b161298c565b500490565b6000826129c5576129c561298c565b500690565b6001600160a01b03858116825284166020820152604081018390526080606082018190526000906123f490830184611fee565b600060208284031215612a0f57600080fd5b8151610ff281611f5f56fea26469706673582212201654b46e2a580b98a5924b11f8cecc24e2b64e3371738b62bba81b30d31c897664736f6c634300080b0033",
  "immutableReferences": {},
  "source": "// SPDX-License-Identifier: MIT\n// Token Myos\npragma solidity ^0.8.0;\n\nimport \"@openzeppelin/contracts/token/ERC721/extensions/ERC721URIStorage.sol\";\nimport \"@openzeppelin/contracts/access/Ownable.sol\";\n\ncontract Hero is ERC721URIStorage, Ownable {\n  using Strings for uint256;\n\n  struct Token {\n    bool[] booleans;\n    uint8[] params8; //parts\n    uint256[] params256; //params\n  }\n\n  address addressDelegateContract;\n  mapping(string => uint256) paramsContract;\n  mapping(uint256 => Token) private _tokenDetails;\n\n  string public baseURI;\n  string public baseExtension = \".json\";\n  bool public paused = false;\n\n  constructor(\n    string memory name,\n    string memory symbol,\n    string memory _initBaseURI\n  ) ERC721(name, symbol) {\n    paramsContract[\"nextId\"] = 0;\n    paramsContract[\"totalSupply\"] = 0;\n    setBaseURI(_initBaseURI);\n  }\n\n  ///@notice Retourne un nombre alatoire jusqu'a un maxNumber dfini\n  function random(uint8 maxNumber) internal returns (uint8) {\n    uint256 randomnumber = uint256(\n      keccak256(abi.encodePacked(block.timestamp, msg.sender, paramsContract[\"nonce\"]))\n    ) % maxNumber;\n    paramsContract[\"nonce\"]++;\n    return uint8(randomnumber);\n  }\n\n  ///@notice Retourne les metadatas d'un token, essentiel pour opensea et autres plateform\n  function _baseURI() internal view virtual override returns (string memory) {\n    return baseURI;\n  }\n\n  ///@notice Mettre a jour l'uri des metadatas des tokens\n  function setBaseURI(string memory _newBaseURI) public onlyOwner {\n    baseURI = _newBaseURI;\n  }\n\n  ///@notice Retourne les metadatas d'un token, essentiel pour opensea et autres plateform\n  function tokenURI(uint256 tokenId)\n    public\n    view\n    virtual\n    override\n    returns (string memory)\n  {\n    require(_exists(tokenId), \"ERC721Metadata: URI query for nonexistent token\");\n    string memory currentBaseURI = _baseURI();\n    return\n      bytes(currentBaseURI).length > 0\n        ? string(abi.encodePacked(currentBaseURI, tokenId.toString(), baseExtension))\n        : \"\";\n  }\n\n  ///@notice Foncton trs importante que l'ont rajoute sur presque toutes les autres fonctions pour vrifier que l'appel des fonctions ce fais bien depuis le contrat de dlgation pour plus de scuriter\n  modifier byDelegate() {\n    require(\n      (msg.sender == addressDelegateContract || addressDelegateContract == address(0)) &&\n        !paused,\n      \"Not good delegate contract\"\n    );\n    _;\n  }\n\n  ///@notice Mttre en pause le contrat en cas de problme\n  function pause(bool _state) external onlyOwner {\n    paused = _state;\n  }\n\n  ///@notice Fonction de mint, on envoi un tableau de uint8 et un tableau de uint256 qui seront les params de notre token, On enregistre la struct dans un mapping avec la key id, Puis on mint avec la mme key id\n  function mint(\n    address receiver,\n    bool[] memory booleans,\n    uint8[] memory params8,\n    uint256[] memory params256,\n    string memory _tokenURI\n  ) external payable byDelegate {\n    _tokenDetails[paramsContract[\"nextId\"]] = Token(booleans, params8, params256);\n    paramsContract[\"nextId\"]++;\n    paramsContract[\"totalSupply\"]++;\n    _safeMint(receiver, paramsContract[\"nextId\"]);\n    _setTokenURI(paramsContract[\"nextId\"], _tokenURI);\n  }\n\n  ///@notice Burn un token avec son id et diminu le total supply\n  function burn(uint256 tokenId) external byDelegate {\n    paramsContract[\"totalSupply\"]--;\n    _burn(tokenId);\n  }\n\n  ///@notice Transfr un token d'une addresse  une autre en utilsant l'id token\n  function transfer(\n    address from,\n    address to,\n    uint256 tokenId\n  ) external byDelegate {\n    _safeTransfer(from, to, tokenId, \"\");\n  }\n\n  ///@notice Rcuprer dans un tableau tout les id token d'un utilisateur\n  function getAllTokensForUser(address user) external view returns (uint256[] memory) {\n    uint256 tokenCount = balanceOf(user);\n    if (tokenCount == 0) {\n      return new uint256[](0);\n    } else {\n      uint256[] memory result = new uint256[](tokenCount);\n      uint256 totalTokens = paramsContract[\"nextId\"];\n      uint256 resultIndex = 0;\n      uint256 i;\n      for (i = 0; i < totalTokens; i++) {\n        if (ownerOf(i) == user) {\n          result[resultIndex] = i;\n          resultIndex++;\n        }\n      }\n      return result;\n    }\n  }\n\n  ///@notice Mttre a jour le Token (hero) en cas de level up par example en utilisant l'id en cl et en envoyant directement l'objet de la mise a jour du token\n  function updateToken(\n    Token memory tokenTemp,\n    uint256 tokenId,\n    address owner\n  ) external byDelegate {\n    require(ownerOf(tokenId) == owner, \"Not Your token\");\n    _tokenDetails[tokenId] = tokenTemp;\n  }\n\n  ///@notice Rcuprer les datas d'un token en utilisant son id\n  function getTokenDetails(uint256 tokenId) external view returns (Token memory) {\n    return _tokenDetails[tokenId];\n  }\n\n  ///@notice Mttre a jour une des datas du cotnrat en utilisant la key\n  function setParamsContract(string memory keyParams, uint256 valueParams)\n    external\n    onlyOwner\n  {\n    paramsContract[keyParams] = valueParams;\n  }\n\n  ///@notice Rcuperer une des datas du contrat en utilisant la key\n  function getParamsContract(string memory keyParams) external view returns (uint256) {\n    return paramsContract[keyParams];\n  }\n\n  ///@notice modifier l'addresse du contrat de dlgation pour permettre aux dit contrat d'intragir avec celui ci\n  function setaddressDelegateContract(address _address) external onlyOwner {\n    addressDelegateContract = _address;\n  }\n\n  ///@notice FUNDS OF CONTRACT\n\n  function withdraw() public onlyOwner {\n    payable(msg.sender).transfer(address(this).balance);\n  }\n\n  function deposit() public payable onlyOwner {}\n\n  function getBalance() public view returns (uint256) {\n    return address(this).balance;\n  }\n\n  ///@notice Rcuprer l'addresse du possesseur du token en utilisant la key id du token\n  function getOwnerOf(uint256 tokenId) external view returns (address) {\n    return ownerOf(tokenId);\n  }\n\n  ///@notice Rcuprer le nombre de token possd par un joueur\n  function getBalanceOf(address user) external view returns (uint256) {\n    return balanceOf(user);\n  }\n}\n\n/*Tout faire passer par le contrat pour permettre :\n-plus de scurit, quasi incraquable\n-aucun moyen que le serveur tombe a un moment et que les joueurs soit en panique\n-tracabilit et transparance maximum, ont peut voir quels actions ont tait effectu par qui et a quel moment\n\nL'avantage de faire de chaque items un jeton ERC20 :\n-Transmition facile d'un user  un autre, ou d'un contrat  un autre\n-Impossible de craquer le jeu et ce donner des millions d'item, en gros triche impossible\n-Vente des jetons facile\n-Petit icone sur meta mask pour son jeton a rajoute toujours une sorte d'attachement au jeton*/\n",
  "sourcePath": "/home/kevin/Bureau/homework/MYOS/contracts/Hero.sol",
  "compiler": {
    "name": "solc",
    "version": "0.8.11+commit.d7f03943.Emscripten.clang"
  },
  "schemaVersion": "3.4.7",
  "updatedAt": "2022-10-31T18:30:52.179Z",
  "devdoc": {
    "kind": "dev",
    "methods": {
      "approve(address,uint256)": {
        "details": "See {IERC721-approve}."
      },
      "balanceOf(address)": {
        "details": "See {IERC721-balanceOf}."
      },
      "getApproved(uint256)": {
        "details": "See {IERC721-getApproved}."
      },
      "isApprovedForAll(address,address)": {
        "details": "See {IERC721-isApprovedForAll}."
      },
      "name()": {
        "details": "See {IERC721Metadata-name}."
      },
      "owner()": {
        "details": "Returns the address of the current owner."
      },
      "ownerOf(uint256)": {
        "details": "See {IERC721-ownerOf}."
      },
      "renounceOwnership()": {
        "details": "Leaves the contract without owner. It will not be possible to call `onlyOwner` functions anymore. Can only be called by the current owner. NOTE: Renouncing ownership will leave the contract without an owner, thereby removing any functionality that is only available to the owner."
      },
      "safeTransferFrom(address,address,uint256)": {
        "details": "See {IERC721-safeTransferFrom}."
      },
      "safeTransferFrom(address,address,uint256,bytes)": {
        "details": "See {IERC721-safeTransferFrom}."
      },
      "setApprovalForAll(address,bool)": {
        "details": "See {IERC721-setApprovalForAll}."
      },
      "supportsInterface(bytes4)": {
        "details": "See {IERC165-supportsInterface}."
      },
      "symbol()": {
        "details": "See {IERC721Metadata-symbol}."
      },
      "transferFrom(address,address,uint256)": {
        "details": "See {IERC721-transferFrom}."
      },
      "transferOwnership(address)": {
        "details": "Transfers ownership of the contract to a new account (`newOwner`). Can only be called by the current owner."
      }
    },
    "version": 1
  },
  "userdoc": {
    "kind": "user",
    "methods": {
      "burn(uint256)": {
        "notice": "Burn un token avec son id et diminu le total supply"
      },
      "getAllTokensForUser(address)": {
        "notice": "Rcuprer dans un tableau tout les id token d'un utilisateur"
      },
      "getBalanceOf(address)": {
        "notice": "Rcuprer le nombre de token possd par un joueur"
      },
      "getOwnerOf(uint256)": {
        "notice": "Rcuprer l'addresse du possesseur du token en utilisant la key id du token"
      },
      "getParamsContract(string)": {
        "notice": "Rcuperer une des datas du contrat en utilisant la key"
      },
      "getTokenDetails(uint256)": {
        "notice": "Rcuprer les datas d'un token en utilisant son id"
      },
      "mint(address,bool[],uint8[],uint256[],string)": {
        "notice": "Fonction de mint, on envoi un tableau de uint8 et un tableau de uint256 qui seront les params de notre token, On enregistre la struct dans un mapping avec la key id, Puis on mint avec la mme key id"
      },
      "pause(bool)": {
        "notice": "Mttre en pause le contrat en cas de problme"
      },
      "setBaseURI(string)": {
        "notice": "Mettre a jour l'uri des metadatas des tokens"
      },
      "setParamsContract(string,uint256)": {
        "notice": "Mttre a jour une des datas du cotnrat en utilisant la key"
      },
      "setaddressDelegateContract(address)": {
        "notice": "modifier l'addresse du contrat de dlgation pour permettre aux dit contrat d'intragir avec celui ci"
      },
      "tokenURI(uint256)": {
        "notice": "Retourne les metadatas d'un token, essentiel pour opensea et autres plateform"
      },
      "transfer(address,address,uint256)": {
        "notice": "Transfr un token d'une addresse  une autre en utilsant l'id token"
      },
      "updateToken((bool[],uint8[],uint256[]),uint256,address)": {
        "notice": "Mttre a jour le Token (hero) en cas de level up par example en utilisant l'id en cl et en envoyant directement l'objet de la mise a jour du token"
      },
      "withdraw()": {
        "notice": "FUNDS OF CONTRACT"
      }
    },
    "version": 1
  }
}