{
  "contractName": "Hero",
  "abi": [
    {
      "inputs": [
        {
          "internalType": "string",
          "name": "name",
          "type": "string"
        },
        {
          "internalType": "string",
          "name": "symbol",
          "type": "string"
        },
        {
          "internalType": "string",
          "name": "_initBaseURI",
          "type": "string"
        }
      ],
      "stateMutability": "nonpayable",
      "type": "constructor"
    },
    {
      "anonymous": false,
      "inputs": [
        {
          "indexed": true,
          "internalType": "address",
          "name": "owner",
          "type": "address"
        },
        {
          "indexed": true,
          "internalType": "address",
          "name": "approved",
          "type": "address"
        },
        {
          "indexed": true,
          "internalType": "uint256",
          "name": "tokenId",
          "type": "uint256"
        }
      ],
      "name": "Approval",
      "type": "event"
    },
    {
      "anonymous": false,
      "inputs": [
        {
          "indexed": true,
          "internalType": "address",
          "name": "owner",
          "type": "address"
        },
        {
          "indexed": true,
          "internalType": "address",
          "name": "operator",
          "type": "address"
        },
        {
          "indexed": false,
          "internalType": "bool",
          "name": "approved",
          "type": "bool"
        }
      ],
      "name": "ApprovalForAll",
      "type": "event"
    },
    {
      "anonymous": false,
      "inputs": [
        {
          "indexed": true,
          "internalType": "address",
          "name": "previousOwner",
          "type": "address"
        },
        {
          "indexed": true,
          "internalType": "address",
          "name": "newOwner",
          "type": "address"
        }
      ],
      "name": "OwnershipTransferred",
      "type": "event"
    },
    {
      "anonymous": false,
      "inputs": [
        {
          "indexed": true,
          "internalType": "address",
          "name": "from",
          "type": "address"
        },
        {
          "indexed": true,
          "internalType": "address",
          "name": "to",
          "type": "address"
        },
        {
          "indexed": true,
          "internalType": "uint256",
          "name": "tokenId",
          "type": "uint256"
        }
      ],
      "name": "Transfer",
      "type": "event"
    },
    {
      "inputs": [
        {
          "internalType": "address",
          "name": "to",
          "type": "address"
        },
        {
          "internalType": "uint256",
          "name": "tokenId",
          "type": "uint256"
        }
      ],
      "name": "approve",
      "outputs": [],
      "stateMutability": "nonpayable",
      "type": "function"
    },
    {
      "inputs": [
        {
          "internalType": "address",
          "name": "owner",
          "type": "address"
        }
      ],
      "name": "balanceOf",
      "outputs": [
        {
          "internalType": "uint256",
          "name": "",
          "type": "uint256"
        }
      ],
      "stateMutability": "view",
      "type": "function"
    },
    {
      "inputs": [],
      "name": "baseExtension",
      "outputs": [
        {
          "internalType": "string",
          "name": "",
          "type": "string"
        }
      ],
      "stateMutability": "view",
      "type": "function"
    },
    {
      "inputs": [],
      "name": "baseURI",
      "outputs": [
        {
          "internalType": "string",
          "name": "",
          "type": "string"
        }
      ],
      "stateMutability": "view",
      "type": "function"
    },
    {
      "inputs": [
        {
          "internalType": "uint256",
          "name": "tokenId",
          "type": "uint256"
        }
      ],
      "name": "getApproved",
      "outputs": [
        {
          "internalType": "address",
          "name": "",
          "type": "address"
        }
      ],
      "stateMutability": "view",
      "type": "function"
    },
    {
      "inputs": [
        {
          "internalType": "address",
          "name": "owner",
          "type": "address"
        },
        {
          "internalType": "address",
          "name": "operator",
          "type": "address"
        }
      ],
      "name": "isApprovedForAll",
      "outputs": [
        {
          "internalType": "bool",
          "name": "",
          "type": "bool"
        }
      ],
      "stateMutability": "view",
      "type": "function"
    },
    {
      "inputs": [],
      "name": "name",
      "outputs": [
        {
          "internalType": "string",
          "name": "",
          "type": "string"
        }
      ],
      "stateMutability": "view",
      "type": "function"
    },
    {
      "inputs": [],
      "name": "owner",
      "outputs": [
        {
          "internalType": "address",
          "name": "",
          "type": "address"
        }
      ],
      "stateMutability": "view",
      "type": "function"
    },
    {
      "inputs": [
        {
          "internalType": "uint256",
          "name": "tokenId",
          "type": "uint256"
        }
      ],
      "name": "ownerOf",
      "outputs": [
        {
          "internalType": "address",
          "name": "",
          "type": "address"
        }
      ],
      "stateMutability": "view",
      "type": "function"
    },
    {
      "inputs": [],
      "name": "renounceOwnership",
      "outputs": [],
      "stateMutability": "nonpayable",
      "type": "function"
    },
    {
      "inputs": [
        {
          "internalType": "address",
          "name": "from",
          "type": "address"
        },
        {
          "internalType": "address",
          "name": "to",
          "type": "address"
        },
        {
          "internalType": "uint256",
          "name": "tokenId",
          "type": "uint256"
        }
      ],
      "name": "safeTransferFrom",
      "outputs": [],
      "stateMutability": "nonpayable",
      "type": "function"
    },
    {
      "inputs": [
        {
          "internalType": "address",
          "name": "from",
          "type": "address"
        },
        {
          "internalType": "address",
          "name": "to",
          "type": "address"
        },
        {
          "internalType": "uint256",
          "name": "tokenId",
          "type": "uint256"
        },
        {
          "internalType": "bytes",
          "name": "data",
          "type": "bytes"
        }
      ],
      "name": "safeTransferFrom",
      "outputs": [],
      "stateMutability": "nonpayable",
      "type": "function"
    },
    {
      "inputs": [
        {
          "internalType": "address",
          "name": "operator",
          "type": "address"
        },
        {
          "internalType": "bool",
          "name": "approved",
          "type": "bool"
        }
      ],
      "name": "setApprovalForAll",
      "outputs": [],
      "stateMutability": "nonpayable",
      "type": "function"
    },
    {
      "inputs": [
        {
          "internalType": "bytes4",
          "name": "interfaceId",
          "type": "bytes4"
        }
      ],
      "name": "supportsInterface",
      "outputs": [
        {
          "internalType": "bool",
          "name": "",
          "type": "bool"
        }
      ],
      "stateMutability": "view",
      "type": "function"
    },
    {
      "inputs": [],
      "name": "symbol",
      "outputs": [
        {
          "internalType": "string",
          "name": "",
          "type": "string"
        }
      ],
      "stateMutability": "view",
      "type": "function"
    },
    {
      "inputs": [
        {
          "internalType": "address",
          "name": "from",
          "type": "address"
        },
        {
          "internalType": "address",
          "name": "to",
          "type": "address"
        },
        {
          "internalType": "uint256",
          "name": "tokenId",
          "type": "uint256"
        }
      ],
      "name": "transferFrom",
      "outputs": [],
      "stateMutability": "nonpayable",
      "type": "function"
    },
    {
      "inputs": [
        {
          "internalType": "address",
          "name": "newOwner",
          "type": "address"
        }
      ],
      "name": "transferOwnership",
      "outputs": [],
      "stateMutability": "nonpayable",
      "type": "function"
    },
    {
      "inputs": [
        {
          "internalType": "string",
          "name": "_newBaseURI",
          "type": "string"
        }
      ],
      "name": "setBaseURI",
      "outputs": [],
      "stateMutability": "nonpayable",
      "type": "function"
    },
    {
      "inputs": [
        {
          "internalType": "uint256",
          "name": "tokenId",
          "type": "uint256"
        }
      ],
      "name": "tokenURI",
      "outputs": [
        {
          "internalType": "string",
          "name": "",
          "type": "string"
        }
      ],
      "stateMutability": "view",
      "type": "function"
    },
    {
      "inputs": [
        {
          "internalType": "bool",
          "name": "_state",
          "type": "bool"
        }
      ],
      "name": "pause",
      "outputs": [],
      "stateMutability": "nonpayable",
      "type": "function"
    },
    {
      "inputs": [
        {
          "internalType": "address",
          "name": "receiver",
          "type": "address"
        },
        {
          "internalType": "uint8[]",
          "name": "params8",
          "type": "uint8[]"
        },
        {
          "internalType": "uint256[]",
          "name": "params256",
          "type": "uint256[]"
        },
        {
          "internalType": "string",
          "name": "_tokenURI",
          "type": "string"
        }
      ],
      "name": "mint",
      "outputs": [],
      "stateMutability": "payable",
      "type": "function"
    },
    {
      "inputs": [
        {
          "internalType": "uint256",
          "name": "tokenId",
          "type": "uint256"
        }
      ],
      "name": "burn",
      "outputs": [],
      "stateMutability": "nonpayable",
      "type": "function"
    },
    {
      "inputs": [
        {
          "internalType": "address",
          "name": "from",
          "type": "address"
        },
        {
          "internalType": "address",
          "name": "to",
          "type": "address"
        },
        {
          "internalType": "uint256",
          "name": "tokenId",
          "type": "uint256"
        }
      ],
      "name": "transfer",
      "outputs": [],
      "stateMutability": "nonpayable",
      "type": "function"
    },
    {
      "inputs": [
        {
          "internalType": "address",
          "name": "user",
          "type": "address"
        }
      ],
      "name": "getAllTokensForUser",
      "outputs": [
        {
          "internalType": "uint256[]",
          "name": "",
          "type": "uint256[]"
        }
      ],
      "stateMutability": "view",
      "type": "function"
    },
    {
      "inputs": [
        {
          "components": [
            {
              "internalType": "uint8[]",
              "name": "params8",
              "type": "uint8[]"
            },
            {
              "internalType": "uint256[]",
              "name": "params256",
              "type": "uint256[]"
            }
          ],
          "internalType": "struct HeroLib.Token",
          "name": "tokenTemp",
          "type": "tuple"
        },
        {
          "internalType": "uint256",
          "name": "tokenId",
          "type": "uint256"
        },
        {
          "internalType": "address",
          "name": "owner",
          "type": "address"
        }
      ],
      "name": "updateToken",
      "outputs": [],
      "stateMutability": "nonpayable",
      "type": "function"
    },
    {
      "inputs": [
        {
          "internalType": "uint256",
          "name": "tokenId",
          "type": "uint256"
        }
      ],
      "name": "getTokenDetails",
      "outputs": [
        {
          "components": [
            {
              "internalType": "uint8[]",
              "name": "params8",
              "type": "uint8[]"
            },
            {
              "internalType": "uint256[]",
              "name": "params256",
              "type": "uint256[]"
            }
          ],
          "internalType": "struct HeroLib.Token",
          "name": "",
          "type": "tuple"
        }
      ],
      "stateMutability": "view",
      "type": "function"
    },
    {
      "inputs": [
        {
          "internalType": "string",
          "name": "key",
          "type": "string"
        },
        {
          "internalType": "uint256",
          "name": "value",
          "type": "uint256"
        }
      ],
      "name": "setParamsContract",
      "outputs": [],
      "stateMutability": "nonpayable",
      "type": "function"
    },
    {
      "inputs": [
        {
          "internalType": "string",
          "name": "key",
          "type": "string"
        }
      ],
      "name": "getParamsContract",
      "outputs": [
        {
          "internalType": "uint256",
          "name": "",
          "type": "uint256"
        }
      ],
      "stateMutability": "view",
      "type": "function"
    },
    {
      "inputs": [
        {
          "internalType": "address",
          "name": "_address",
          "type": "address"
        }
      ],
      "name": "setAddressDelegateContract",
      "outputs": [],
      "stateMutability": "nonpayable",
      "type": "function"
    },
    {
      "inputs": [],
      "name": "withdraw",
      "outputs": [],
      "stateMutability": "nonpayable",
      "type": "function"
    }
  ],
  "bytecode": "0x6080604052600c805460ff191690553480156200001b57600080fd5b5060405162002ce438038062002ce48339810160408190526200003e9162000346565b82518390839062000057906000906020850190620001d3565b5080516200006d906001906020840190620001d3565b5050506200008a62000084620000f960201b60201c565b620000fd565b60006009604051620000a890651b995e1d125960d21b815260060190565b908152604051908190036020018120919091556a746f74616c537570706c7960a81b8152600090600990600b0190815260405190819003602001902055620000f0816200014f565b50505062000414565b3390565b600780546001600160a01b038381166001600160a01b0319831681179093556040519116919082907f8be0079c531659141344cd1fd0a4f28419497f9722a3daafe3b4186f6b6457e090600090a35050565b6200015962000172565b80516200016e90600b906020840190620001d3565b5050565b6007546001600160a01b03163314620001d15760405162461bcd60e51b815260206004820181905260248201527f4f776e61626c653a2063616c6c6572206973206e6f7420746865206f776e6572604482015260640160405180910390fd5b565b828054620001e190620003d7565b90600052602060002090601f01602090048101928262000205576000855562000250565b82601f106200022057805160ff191683800117855562000250565b8280016001018555821562000250579182015b828111156200025057825182559160200191906001019062000233565b506200025e92915062000262565b5090565b5b808211156200025e576000815560010162000263565b634e487b7160e01b600052604160045260246000fd5b600082601f830112620002a157600080fd5b81516001600160401b0380821115620002be57620002be62000279565b604051601f8301601f19908116603f01168101908282118183101715620002e957620002e962000279565b816040528381526020925086838588010111156200030657600080fd5b600091505b838210156200032a57858201830151818301840152908201906200030b565b838211156200033c5760008385830101525b9695505050505050565b6000806000606084860312156200035c57600080fd5b83516001600160401b03808211156200037457600080fd5b62000382878388016200028f565b945060208601519150808211156200039957600080fd5b620003a7878388016200028f565b93506040860151915080821115620003be57600080fd5b50620003cd868287016200028f565b9150509250925092565b600181811c90821680620003ec57607f821691505b602082108114156200040e57634e487b7160e01b600052602260045260246000fd5b50919050565b6128c080620004246000396000f3fe6080604052600436106101cd5760003560e01c8063715018a6116100f7578063beabacc811610095578063e2f6215c11610064578063e2f6215c14610541578063e985e9c514610561578063f26bf0b7146105aa578063f2fde38b146105ca57600080fd5b8063beabacc8146104a3578063c1e03728146104c3578063c6682862146104f0578063c87b56dd1461052157600080fd5b80639005ba95116100d15780639005ba951461043b57806395d89b411461044e578063a22cb46514610463578063b88d4fde1461048357600080fd5b8063715018a6146103db57806382de8fe9146103f05780638da5cb5b1461041d57600080fd5b80633ccfd60b1161016f5780636352211e1161013e5780636352211e146103585780636c0360eb1461037857806370a082311461038d578063714e3305146103bb57600080fd5b80633ccfd60b146102e357806342842e0e146102f857806342966c681461031857806355f804b31461033857600080fd5b8063081812fc116101ab578063081812fc1461024b578063095ea7b31461028357806323b872dd146102a35780633cb11944146102c357600080fd5b806301ffc9a7146101d257806302329a291461020757806306fdde0314610229575b600080fd5b3480156101de57600080fd5b506101f26101ed366004611e34565b6105ea565b60405190151581526020015b60405180910390f35b34801561021357600080fd5b50610227610222366004611e66565b61063c565b005b34801561023557600080fd5b5061023e610657565b6040516101fe9190611ed9565b34801561025757600080fd5b5061026b610266366004611eec565b6106e9565b6040516001600160a01b0390911681526020016101fe565b34801561028f57600080fd5b5061022761029e366004611f1c565b610710565b3480156102af57600080fd5b506102276102be366004611f46565b61082b565b3480156102cf57600080fd5b506102276102de366004611fcb565b61085c565b3480156102ef57600080fd5b5061022761088c565b34801561030457600080fd5b50610227610313366004611f46565b6108c3565b34801561032457600080fd5b50610227610333366004611eec565b6108de565b34801561034457600080fd5b506102276103533660046120a3565b610979565b34801561036457600080fd5b5061026b610373366004611eec565b610998565b34801561038457600080fd5b5061023e6109f8565b34801561039957600080fd5b506103ad6103a83660046120ec565b610a86565b6040519081526020016101fe565b3480156103c757600080fd5b506102276103d63660046120ec565b610b0c565b3480156103e757600080fd5b50610227610b36565b3480156103fc57600080fd5b5061041061040b3660046120ec565b610b4a565b6040516101fe9190612142565b34801561042957600080fd5b506007546001600160a01b031661026b565b61022761044936600461219a565b610c67565b34801561045a57600080fd5b5061023e610ead565b34801561046f57600080fd5b5061022761047e366004612245565b610ebc565b34801561048f57600080fd5b5061022761049e366004612278565b610ec7565b3480156104af57600080fd5b506102276104be366004611f46565b610eff565b3480156104cf57600080fd5b506104e36104de366004611eec565b610f70565b6040516101fe91906122f4565b3480156104fc57600080fd5b5061023e60405180604001604052806005815260200164173539b7b760d91b81525081565b34801561052d57600080fd5b5061023e61053c366004611eec565b611063565b34801561054d57600080fd5b5061022761055c366004612363565b61115d565b34801561056d57600080fd5b506101f261057c3660046123bf565b6001600160a01b03918216600090815260056020908152604080832093909416825291909152205460ff1690565b3480156105b657600080fd5b506103ad6105c53660046123e9565b61122e565b3480156105d657600080fd5b506102276105e53660046120ec565b611259565b60006001600160e01b031982166380ac58cd60e01b148061061b57506001600160e01b03198216635b5e139f60e01b145b8061063657506301ffc9a760e01b6001600160e01b03198316145b92915050565b6106446112cf565b600c805460ff1916911515919091179055565b6060600080546106669061242b565b80601f01602080910402602001604051908101604052809291908181526020018280546106929061242b565b80156106df5780601f106106b4576101008083540402835291602001916106df565b820191906000526020600020905b8154815290600101906020018083116106c257829003601f168201915b5050505050905090565b60006106f482611329565b506000908152600460205260409020546001600160a01b031690565b600061071b82610998565b9050806001600160a01b0316836001600160a01b0316141561078e5760405162461bcd60e51b815260206004820152602160248201527f4552433732313a20617070726f76616c20746f2063757272656e74206f776e656044820152603960f91b60648201526084015b60405180910390fd5b336001600160a01b03821614806107aa57506107aa813361057c565b61081c5760405162461bcd60e51b815260206004820152603e60248201527f4552433732313a20617070726f76652063616c6c6572206973206e6f7420746f60448201527f6b656e206f776e6572206e6f7220617070726f76656420666f7220616c6c00006064820152608401610785565b6108268383611388565b505050565b61083533826113f6565b6108515760405162461bcd60e51b815260040161078590612460565b610826838383611475565b6108646112cf565b80600984846040516108779291906124ae565b90815260405190819003602001902055505050565b6108946112cf565b60405133904780156108fc02916000818181858888f193505050501580156108c0573d6000803e3d6000fd5b50565b61082683838360405180602001604052806000815250610ec7565b6008546001600160a01b0316336001600160a01b0316148061090957506008546001600160a01b0316155b80156109185750600c5460ff16155b6109345760405162461bcd60e51b8152600401610785906124be565b6040516a746f74616c537570706c7960a81b8152600990600b01908152604051908190036020019020805490600061096b8361250b565b91905055506108c081611611565b6109816112cf565b805161099490600b906020840190611c74565b5050565b6000818152600260205260408120546001600160a01b0316806106365760405162461bcd60e51b8152602060048201526018602482015277115490cdcc8c4e881a5b9d985b1a59081d1bdad95b88125160421b6044820152606401610785565b600b8054610a059061242b565b80601f0160208091040260200160405190810160405280929190818152602001828054610a319061242b565b8015610a7e5780601f10610a5357610100808354040283529160200191610a7e565b820191906000526020600020905b815481529060010190602001808311610a6157829003601f168201915b505050505081565b60006001600160a01b038216610af05760405162461bcd60e51b815260206004820152602960248201527f4552433732313a2061646472657373207a65726f206973206e6f7420612076616044820152683634b21037bbb732b960b91b6064820152608401610785565b506001600160a01b031660009081526003602052604090205490565b610b146112cf565b600880546001600160a01b0319166001600160a01b0392909216919091179055565b610b3e6112cf565b610b486000611651565b565b60606000610b5783610a86565b905080610b74575050604080516000815260208101909152919050565b60008167ffffffffffffffff811115610b8f57610b8f612017565b604051908082528060200260200182016040528015610bb8578160200160208202803683370190505b50905060006009604051610bd890651b995e1d125960d21b815260060190565b9081526040519081900360200190205490506000805b82811015610c5657866001600160a01b0316610c0982610998565b6001600160a01b03161415610c445780848381518110610c2b57610c2b612522565b602090810291909101015281610c4081612538565b9250505b80610c4e81612538565b915050610bee565b509195945050505050565b50919050565b6008546001600160a01b0316336001600160a01b03161480610c9257506008546001600160a01b0316155b8015610ca15750600c5460ff16155b610cbd5760405162461bcd60e51b8152600401610785906124be565b60405180604001604052808787808060200260200160405190810160405280939291908181526020018383602002808284376000920191909152505050908252506040805160208781028281018201909352878252928301929091889188918291850190849080828437600092018290525093909452505060408051651b995e1d125960d21b8152600960068201528151908190036026019020548252600a6020908152912083518051919350610d78928492910190611cf8565b506020828101518051610d919260018501920190611d99565b50905050610dc8876009604051610db490651b995e1d125960d21b815260060190565b9081526020016040518091039020546116a3565b610e316009604051610de690651b995e1d125960d21b815260060190565b90815260200160405180910390205483838080601f0160208091040260200160405190810160405280939291908181526020018383808284376000920191909152506116bd92505050565b604051651b995e1d125960d21b81526009906006019081526040519081900360200190208054906000610e6383612538565b90915550506040516a746f74616c537570706c7960a81b8152600990600b019081526040519081900360200190208054906000610e9f83612538565b919050555050505050505050565b6060600180546106669061242b565b610994338383611757565b610ed133836113f6565b610eed5760405162461bcd60e51b815260040161078590612460565b610ef984848484611826565b50505050565b6008546001600160a01b0316336001600160a01b03161480610f2a57506008546001600160a01b0316155b8015610f395750600c5460ff16155b610f555760405162461bcd60e51b8152600401610785906124be565b61082683838360405180602001604052806000815250611826565b604080518082018252606080825260208083018290526000858152600a825284902084518154928302810184018652948501828152939493909284928491840182828015610ffb57602002820191906000526020600020906000905b825461010083900a900460ff16815260206001928301818104948501949093039092029101808411610fcc5790505b505050505081526020016001820180548060200260200160405190810160405280929190818152602001828054801561105357602002820191906000526020600020905b81548152602001906001019080831161103f575b5050505050815250509050919050565b6000818152600260205260409020546060906001600160a01b03166110e25760405162461bcd60e51b815260206004820152602f60248201527f4552433732314d657461646174613a2055524920717565727920666f72206e6f60448201526e3732bc34b9ba32b73a103a37b5b2b760891b6064820152608401610785565b60006110ec611859565b9050600081511161110c5760405180602001604052806000815250611156565b8061111684611868565b60405180604001604052806005815260200164173539b7b760d91b81525060405160200161114693929190612553565b6040516020818303038152906040525b9392505050565b6008546001600160a01b0316336001600160a01b0316148061118857506008546001600160a01b0316155b80156111975750600c5460ff16155b6111b35760405162461bcd60e51b8152600401610785906124be565b806001600160a01b03166111c683610998565b6001600160a01b03161461120d5760405162461bcd60e51b815260206004820152600e60248201526d2737ba102cb7bab9103a37b5b2b760911b6044820152606401610785565b6000828152600a6020526040902083906112278282612676565b5050505050565b6000600983836040516112429291906124ae565b908152602001604051809103902054905092915050565b6112616112cf565b6001600160a01b0381166112c65760405162461bcd60e51b815260206004820152602660248201527f4f776e61626c653a206e6577206f776e657220697320746865207a65726f206160448201526564647265737360d01b6064820152608401610785565b6108c081611651565b6007546001600160a01b03163314610b485760405162461bcd60e51b815260206004820181905260248201527f4f776e61626c653a2063616c6c6572206973206e6f7420746865206f776e65726044820152606401610785565b6000818152600260205260409020546001600160a01b03166108c05760405162461bcd60e51b8152602060048201526018602482015277115490cdcc8c4e881a5b9d985b1a59081d1bdad95b88125160421b6044820152606401610785565b600081815260046020526040902080546001600160a01b0319166001600160a01b03841690811790915581906113bd82610998565b6001600160a01b03167f8c5be1e5ebec7d5bd14f71427d1e84f3dd0314c0f7b2291e5b200ac8c7c3b92560405160405180910390a45050565b60008061140283610998565b9050806001600160a01b0316846001600160a01b0316148061144957506001600160a01b0380821660009081526005602090815260408083209388168352929052205460ff165b8061146d5750836001600160a01b0316611462846106e9565b6001600160a01b0316145b949350505050565b826001600160a01b031661148882610998565b6001600160a01b0316146114ec5760405162461bcd60e51b815260206004820152602560248201527f4552433732313a207472616e736665722066726f6d20696e636f72726563742060448201526437bbb732b960d91b6064820152608401610785565b6001600160a01b03821661154e5760405162461bcd60e51b8152602060048201526024808201527f4552433732313a207472616e7366657220746f20746865207a65726f206164646044820152637265737360e01b6064820152608401610785565b611559600082611388565b6001600160a01b0383166000908152600360205260408120805460019290611582908490612771565b90915550506001600160a01b03821660009081526003602052604081208054600192906115b0908490612788565b909155505060008181526002602052604080822080546001600160a01b0319166001600160a01b0386811691821790925591518493918716917fddf252ad1be2c89b69c2b068fc378daa952ba7f163c4a11628f55a4df523b3ef91a4505050565b61161a81611966565b600081815260066020526040902080546116339061242b565b1590506108c05760008181526006602052604081206108c091611dd3565b600780546001600160a01b038381166001600160a01b0319831681179093556040519116919082907f8be0079c531659141344cd1fd0a4f28419497f9722a3daafe3b4186f6b6457e090600090a35050565b610994828260405180602001604052806000815250611a01565b6000828152600260205260409020546001600160a01b03166117385760405162461bcd60e51b815260206004820152602e60248201527f45524337323155524953746f726167653a2055524920736574206f66206e6f6e60448201526d32bc34b9ba32b73a103a37b5b2b760911b6064820152608401610785565b6000828152600660209081526040909120825161082692840190611c74565b816001600160a01b0316836001600160a01b031614156117b95760405162461bcd60e51b815260206004820152601960248201527f4552433732313a20617070726f766520746f2063616c6c6572000000000000006044820152606401610785565b6001600160a01b03838116600081815260056020908152604080832094871680845294825291829020805460ff191686151590811790915591519182527f17307eab39ab6107e8899845ad3d59bd9653f200f220920489ca2b5937696c31910160405180910390a3505050565b611831848484611475565b61183d84848484611a34565b610ef95760405162461bcd60e51b8152600401610785906127a0565b6060600b80546106669061242b565b60608161188c5750506040805180820190915260018152600360fc1b602082015290565b8160005b81156118b657806118a081612538565b91506118af9050600a83612808565b9150611890565b60008167ffffffffffffffff8111156118d1576118d1612017565b6040519080825280601f01601f1916602001820160405280156118fb576020820181803683370190505b5090505b841561146d57611910600183612771565b915061191d600a8661281c565b611928906030612788565b60f81b81838151811061193d5761193d612522565b60200101906001600160f81b031916908160001a90535061195f600a86612808565b94506118ff565b600061197182610998565b905061197e600083611388565b6001600160a01b03811660009081526003602052604081208054600192906119a7908490612771565b909155505060008281526002602052604080822080546001600160a01b0319169055518391906001600160a01b038416907fddf252ad1be2c89b69c2b068fc378daa952ba7f163c4a11628f55a4df523b3ef908390a45050565b611a0b8383611b32565b611a186000848484611a34565b6108265760405162461bcd60e51b8152600401610785906127a0565b60006001600160a01b0384163b15611b2757604051630a85bd0160e11b81526001600160a01b0385169063150b7a0290611a78903390899088908890600401612830565b6020604051808303816000875af1925050508015611ab3575060408051601f3d908101601f19168201909252611ab09181019061286d565b60015b611b0d573d808015611ae1576040519150601f19603f3d011682016040523d82523d6000602084013e611ae6565b606091505b508051611b055760405162461bcd60e51b8152600401610785906127a0565b805181602001fd5b6001600160e01b031916630a85bd0160e11b14905061146d565b506001949350505050565b6001600160a01b038216611b885760405162461bcd60e51b815260206004820181905260248201527f4552433732313a206d696e7420746f20746865207a65726f20616464726573736044820152606401610785565b6000818152600260205260409020546001600160a01b031615611bed5760405162461bcd60e51b815260206004820152601c60248201527f4552433732313a20746f6b656e20616c7265616479206d696e746564000000006044820152606401610785565b6001600160a01b0382166000908152600360205260408120805460019290611c16908490612788565b909155505060008181526002602052604080822080546001600160a01b0319166001600160a01b03861690811790915590518392907fddf252ad1be2c89b69c2b068fc378daa952ba7f163c4a11628f55a4df523b3ef908290a45050565b828054611c809061242b565b90600052602060002090601f016020900481019282611ca25760008555611ce8565b82601f10611cbb57805160ff1916838001178555611ce8565b82800160010185558215611ce8579182015b82811115611ce8578251825591602001919060010190611ccd565b50611cf4929150611e09565b5090565b82805482825590600052602060002090601f01602090048101928215611ce85791602002820160005b83821115611d5f57835183826101000a81548160ff021916908360ff1602179055509260200192600101602081600001049283019260010302611d21565b8015611d8c5782816101000a81549060ff0219169055600101602081600001049283019260010302611d5f565b5050611cf4929150611e09565b828054828255906000526020600020908101928215611ce85791602002820182811115611ce8578251825591602001919060010190611ccd565b508054611ddf9061242b565b6000825580601f10611def575050565b601f0160209004906000526020600020908101906108c091905b5b80821115611cf45760008155600101611e0a565b6001600160e01b0319811681146108c057600080fd5b600060208284031215611e4657600080fd5b813561115681611e1e565b80358015158114611e6157600080fd5b919050565b600060208284031215611e7857600080fd5b61115682611e51565b60005b83811015611e9c578181015183820152602001611e84565b83811115610ef95750506000910152565b60008151808452611ec5816020860160208601611e81565b601f01601f19169290920160200192915050565b6020815260006111566020830184611ead565b600060208284031215611efe57600080fd5b5035919050565b80356001600160a01b0381168114611e6157600080fd5b60008060408385031215611f2f57600080fd5b611f3883611f05565b946020939093013593505050565b600080600060608486031215611f5b57600080fd5b611f6484611f05565b9250611f7260208501611f05565b9150604084013590509250925092565b60008083601f840112611f9457600080fd5b50813567ffffffffffffffff811115611fac57600080fd5b602083019150836020828501011115611fc457600080fd5b9250929050565b600080600060408486031215611fe057600080fd5b833567ffffffffffffffff811115611ff757600080fd5b61200386828701611f82565b909790965060209590950135949350505050565b634e487b7160e01b600052604160045260246000fd5b600067ffffffffffffffff8084111561204857612048612017565b604051601f8501601f19908116603f0116810190828211818310171561207057612070612017565b8160405280935085815286868601111561208957600080fd5b858560208301376000602087830101525050509392505050565b6000602082840312156120b557600080fd5b813567ffffffffffffffff8111156120cc57600080fd5b8201601f810184136120dd57600080fd5b61146d8482356020840161202d565b6000602082840312156120fe57600080fd5b61115682611f05565b600081518084526020808501945080840160005b838110156121375781518752958201959082019060010161211b565b509495945050505050565b6020815260006111566020830184612107565b60008083601f84011261216757600080fd5b50813567ffffffffffffffff81111561217f57600080fd5b6020830191508360208260051b8501011115611fc457600080fd5b60008060008060008060006080888a0312156121b557600080fd5b6121be88611f05565b9650602088013567ffffffffffffffff808211156121db57600080fd5b6121e78b838c01612155565b909850965060408a013591508082111561220057600080fd5b61220c8b838c01612155565b909650945060608a013591508082111561222557600080fd5b506122328a828b01611f82565b989b979a50959850939692959293505050565b6000806040838503121561225857600080fd5b61226183611f05565b915061226f60208401611e51565b90509250929050565b6000806000806080858703121561228e57600080fd5b61229785611f05565b93506122a560208601611f05565b925060408501359150606085013567ffffffffffffffff8111156122c857600080fd5b8501601f810187136122d957600080fd5b6122e88782356020840161202d565b91505092959194509250565b6020808252825160408383015280516060840181905260009291820190839060808601905b8083101561233c57835160ff168252928401926001929092019190840190612319565b5092860151858403601f19016040870152926123588185612107565b979650505050505050565b60008060006060848603121561237857600080fd5b833567ffffffffffffffff81111561238f57600080fd5b8401604081870312156123a157600080fd5b9250602084013591506123b660408501611f05565b90509250925092565b600080604083850312156123d257600080fd5b6123db83611f05565b915061226f60208401611f05565b600080602083850312156123fc57600080fd5b823567ffffffffffffffff81111561241357600080fd5b61241f85828601611f82565b90969095509350505050565b600181811c9082168061243f57607f821691505b60208210811415610c6157634e487b7160e01b600052602260045260246000fd5b6020808252602e908201527f4552433732313a2063616c6c6572206973206e6f7420746f6b656e206f776e6560408201526d1c881b9bdc88185c1c1c9bdd995960921b606082015260800190565b8183823760009101908152919050565b6020808252601a908201527f4e6f7420676f6f642064656c656761746520636f6e7472616374000000000000604082015260600190565b634e487b7160e01b600052601160045260246000fd5b60008161251a5761251a6124f5565b506000190190565b634e487b7160e01b600052603260045260246000fd5b600060001982141561254c5761254c6124f5565b5060010190565b60008451612565818460208901611e81565b845190830190612579818360208901611e81565b845191019061258c818360208801611e81565b0195945050505050565b6000808335601e198436030181126125ad57600080fd5b83018035915067ffffffffffffffff8211156125c857600080fd5b6020019150600581901b3603821315611fc457600080fd5b5b8181101561099457600081556001016125e1565b6000813560ff8116811461063657600080fd5b600160401b83111561261c5761261c612017565b805483825580841015612642578160005260206000206126408282018683016125e0565b505b50818160005260208060002060005b8681101561266d57833582559282019260019182019101612651565b50505050505050565b6126808283612596565b600160401b81111561269457612694612017565b8254818455808210156126ea57836000526020600020601f830160051c8101601f841680156126d4576000198083018054828460200360031b1c16815550505b506126e7601f840160051c8301826125e0565b50505b506000838152602090206000805b838110156127515761272961270c866125f5565b845460ff600386901b81811b801990931693909116901b16178455565b60208501945060018083019250601f8311156127485792830192600092505b506001016126f8565b50505050506127636020830183612596565b610ef9818360018601612608565b600082821015612783576127836124f5565b500390565b6000821982111561279b5761279b6124f5565b500190565b60208082526032908201527f4552433732313a207472616e7366657220746f206e6f6e20455243373231526560408201527131b2b4bb32b91034b6b83632b6b2b73a32b960711b606082015260800190565b634e487b7160e01b600052601260045260246000fd5b600082612817576128176127f2565b500490565b60008261282b5761282b6127f2565b500690565b6001600160a01b038581168252841660208201526040810183905260806060820181905260009061286390830184611ead565b9695505050505050565b60006020828403121561287f57600080fd5b815161115681611e1e56fea2646970667358221220c50282e4514d0682fb3ace1f94dbdf683613340c2e40073ed0d226c30c79602464736f6c634300080b0033",
  "immutableReferences": {},
  "source": "// SPDX-License-Identifier: MIT\r\n// Token Myos\r\npragma solidity ^0.8.0;\r\n\r\nimport \"@openzeppelin/contracts/token/ERC721/extensions/ERC721URIStorage.sol\";\r\nimport \"@openzeppelin/contracts/access/Ownable.sol\";\r\n\r\nimport \"./interfaces/IHero.sol\";\r\nimport \"./library/LHero.sol\";\r\n\r\ncontract Hero is ERC721URIStorage, Ownable, IHero {\r\n  using Strings for uint256;\r\n\r\n  address addressDelegateContract;\r\n  mapping(string => uint256) paramsContract;\r\n  mapping(uint256 => HeroLib.Token) private _tokenDetails;\r\n\r\n  string public baseURI;\r\n  string public constant baseExtension = \".json\";\r\n  bool private paused = false;\r\n\r\n  constructor(\r\n    string memory name,\r\n    string memory symbol,\r\n    string memory _initBaseURI\r\n  ) ERC721(name, symbol) {\r\n    paramsContract[\"nextId\"] = 0;\r\n    paramsContract[\"totalSupply\"] = 0;\r\n    setBaseURI(_initBaseURI);\r\n  }\r\n\r\n  ///@notice Returns a random number up to a defined maxNumber\r\n  ///@param maxNumber max number uint8 for generate random number\r\n  ///@return randomNumber generated number uint8\r\n  function random(uint8 maxNumber) internal returns (uint8) {\r\n    uint256 randomnumber = uint256(\r\n      keccak256(abi.encodePacked(block.timestamp, _msgSender(), paramsContract[\"nonce\"]))\r\n    ) % maxNumber;\r\n    paramsContract[\"nonce\"]++;\r\n    return uint8(randomnumber);\r\n  }\r\n\r\n  ///@notice Return the metadatas of a token, essential for opensea and other platforms\r\n  function _baseURI() internal view virtual override returns (string memory) {\r\n    return baseURI;\r\n  }\r\n\r\n  ///@notice Update the uri of tokens metadatas\r\n  function setBaseURI(string memory _newBaseURI) public onlyOwner {\r\n    baseURI = _newBaseURI;\r\n  }\r\n\r\n  ///@notice Return the metadatas of a token, essential for opensea and other platforms\r\n  function tokenURI(\r\n    uint256 tokenId\r\n  ) public view virtual override returns (string memory) {\r\n    require(_exists(tokenId), \"ERC721Metadata: URI query for nonexistent token\");\r\n    string memory currentBaseURI = _baseURI();\r\n    return\r\n      bytes(currentBaseURI).length > 0\r\n        ? string(abi.encodePacked(currentBaseURI, tokenId.toString(), baseExtension))\r\n        : \"\";\r\n  }\r\n\r\n  ///@notice very important function that we add on almost all the other functions to check that the call of the functions is done well since the contract of delegation for more security\r\n  modifier byDelegate() {\r\n    require(\r\n      (_msgSender() == addressDelegateContract ||\r\n        addressDelegateContract == address(0)) && !paused,\r\n      \"Not good delegate contract\"\r\n    );\r\n    _;\r\n  }\r\n\r\n  ///@notice Pause the contract in case of problems\r\n  function pause(bool _state) external onlyOwner {\r\n    paused = _state;\r\n  }\r\n\r\n  ///@notice Function of mint token\r\n  ///@param receiver receiver address of token _requireMinted\r\n  ///@param params8 array uint8 used for stats\r\n  ///@param params256 array uint256 used for complex parameter\r\n  ///@param _tokenURI uri of metadatas token\r\n  function mint(\r\n    address receiver,\r\n    uint8[] calldata params8,\r\n    uint256[] calldata params256,\r\n    string calldata _tokenURI\r\n  ) external payable byDelegate {\r\n    _tokenDetails[paramsContract[\"nextId\"]] = HeroLib.Token(params8, params256);\r\n    _safeMint(receiver, paramsContract[\"nextId\"]);\r\n    _setTokenURI(paramsContract[\"nextId\"], _tokenURI);\r\n    paramsContract[\"nextId\"]++;\r\n    paramsContract[\"totalSupply\"]++;\r\n  }\r\n\r\n  ///@notice Burn a token with its id and decrease the total supply\r\n  function burn(uint256 tokenId) external byDelegate {\r\n    paramsContract[\"totalSupply\"]--;\r\n    _burn(tokenId);\r\n  }\r\n\r\n  ///@notice Transfer a token from one address to another using the token id\r\n  function transfer(address from, address to, uint256 tokenId) external byDelegate {\r\n    _safeTransfer(from, to, tokenId, \"\");\r\n  }\r\n\r\n  ///@notice Retrieve in a table all the ids token of a user\r\n  ///@param user address of user own token\r\n  ///@return ids ids token of user\r\n  function getAllTokensForUser(address user) external view returns (uint256[] memory) {\r\n    uint256 tokenCount = balanceOf(user);\r\n    if (tokenCount == 0) {\r\n      return new uint256[](0);\r\n    } else {\r\n      uint256[] memory result = new uint256[](tokenCount);\r\n      uint256 totalTokens = paramsContract[\"nextId\"];\r\n      uint256 resultIndex;\r\n      uint256 i;\r\n      for (i = 0; i < totalTokens; i++) {\r\n        if (ownerOf(i) == user) {\r\n          result[resultIndex] = i;\r\n          resultIndex++;\r\n        }\r\n      }\r\n      return result;\r\n    }\r\n  }\r\n\r\n  ///@notice Update the token (hero) in case of level up for example by using the id as key and sending directly the object of the token update\r\n  ///@param tokenTemp structure of token you want to return\r\n  ///@param tokenId id of token you want to update\r\n  ///@param owner sender of tx origin by delegateContract\r\n  function updateToken(\r\n    HeroLib.Token calldata tokenTemp,\r\n    uint256 tokenId,\r\n    address owner\r\n  ) external byDelegate {\r\n    require(ownerOf(tokenId) == owner, \"Not Your token\");\r\n    _tokenDetails[tokenId] = tokenTemp;\r\n  }\r\n\r\n  ///@notice Retrieve data from a token using its id\r\n  ///@param tokenId key id of token\r\n  ///@return token structure of token\r\n  function getTokenDetails(uint256 tokenId) external view returns (HeroLib.Token memory) {\r\n    return _tokenDetails[tokenId];\r\n  }\r\n\r\n  ///@notice Update one of the cotnrat data using the key\r\n  ///@param key key index of parameter you want to return\r\n  ///@param value value you want to set\r\n  function setParamsContract(string calldata key, uint256 value) external onlyOwner {\r\n    paramsContract[key] = value;\r\n  }\r\n\r\n  ///@notice Retrieve one of the contract data using the key\r\n  ///@param key key index of parameter you want to return\r\n  ///@return paramContract value of parameter\r\n  function getParamsContract(string calldata key) external view returns (uint256) {\r\n    return paramsContract[key];\r\n  }\r\n\r\n  ///@notice modify the address of the delegation contract to allow the said contract to interact with this one\r\n  ///@param _address address of delegate contract\r\n  function setAddressDelegateContract(address _address) external onlyOwner {\r\n    addressDelegateContract = _address;\r\n  }\r\n\r\n  ///@notice FUNDS OF CONTRACT\r\n\r\n  function withdraw() external onlyOwner {\r\n    payable(_msgSender()).transfer(address(this).balance);\r\n  }\r\n}",
  "sourcePath": "C:\\Users\\Kevin\\Desktop\\WorkHome\\--Solidity--MYOS\\contracts\\Hero.sol",
  "compiler": {
    "name": "solc",
    "version": "0.8.11+commit.d7f03943.Emscripten.clang"
  },
  "schemaVersion": "3.4.6",
  "updatedAt": "2022-11-07T00:14:12.730Z",
  "devdoc": {
    "kind": "dev",
    "methods": {
      "approve(address,uint256)": {
        "details": "See {IERC721-approve}."
      },
      "balanceOf(address)": {
        "details": "See {IERC721-balanceOf}."
      },
      "getAllTokensForUser(address)": {
        "params": {
          "user": "address of user own token"
        },
        "returns": {
          "_0": "ids ids token of user"
        }
      },
      "getApproved(uint256)": {
        "details": "See {IERC721-getApproved}."
      },
      "getParamsContract(string)": {
        "params": {
          "key": "key index of parameter you want to return"
        },
        "returns": {
          "_0": "paramContract value of parameter"
        }
      },
      "getTokenDetails(uint256)": {
        "params": {
          "tokenId": "key id of token"
        },
        "returns": {
          "_0": "token structure of token"
        }
      },
      "isApprovedForAll(address,address)": {
        "details": "See {IERC721-isApprovedForAll}."
      },
      "mint(address,uint8[],uint256[],string)": {
        "params": {
          "_tokenURI": "uri of metadatas token",
          "params256": "array uint256 used for complex parameter",
          "params8": "array uint8 used for stats",
          "receiver": "receiver address of token _requireMinted"
        }
      },
      "name()": {
        "details": "See {IERC721Metadata-name}."
      },
      "owner()": {
        "details": "Returns the address of the current owner."
      },
      "ownerOf(uint256)": {
        "details": "See {IERC721-ownerOf}."
      },
      "renounceOwnership()": {
        "details": "Leaves the contract without owner. It will not be possible to call `onlyOwner` functions anymore. Can only be called by the current owner. NOTE: Renouncing ownership will leave the contract without an owner, thereby removing any functionality that is only available to the owner."
      },
      "safeTransferFrom(address,address,uint256)": {
        "details": "See {IERC721-safeTransferFrom}."
      },
      "safeTransferFrom(address,address,uint256,bytes)": {
        "details": "See {IERC721-safeTransferFrom}."
      },
      "setAddressDelegateContract(address)": {
        "params": {
          "_address": "address of delegate contract"
        }
      },
      "setApprovalForAll(address,bool)": {
        "details": "See {IERC721-setApprovalForAll}."
      },
      "setParamsContract(string,uint256)": {
        "params": {
          "key": "key index of parameter you want to return",
          "value": "value you want to set"
        }
      },
      "supportsInterface(bytes4)": {
        "details": "See {IERC165-supportsInterface}."
      },
      "symbol()": {
        "details": "See {IERC721Metadata-symbol}."
      },
      "transferFrom(address,address,uint256)": {
        "details": "See {IERC721-transferFrom}."
      },
      "transferOwnership(address)": {
        "details": "Transfers ownership of the contract to a new account (`newOwner`). Can only be called by the current owner."
      },
      "updateToken((uint8[],uint256[]),uint256,address)": {
        "params": {
          "owner": "sender of tx origin by delegateContract",
          "tokenId": "id of token you want to update",
          "tokenTemp": "structure of token you want to return"
        }
      }
    },
    "version": 1
  },
  "userdoc": {
    "kind": "user",
    "methods": {
      "burn(uint256)": {
        "notice": "Burn a token with its id and decrease the total supply"
      },
      "getAllTokensForUser(address)": {
        "notice": "Retrieve in a table all the ids token of a user"
      },
      "getParamsContract(string)": {
        "notice": "Retrieve one of the contract data using the key"
      },
      "getTokenDetails(uint256)": {
        "notice": "Retrieve data from a token using its id"
      },
      "mint(address,uint8[],uint256[],string)": {
        "notice": "Function of mint token"
      },
      "pause(bool)": {
        "notice": "Pause the contract in case of problems"
      },
      "setAddressDelegateContract(address)": {
        "notice": "modify the address of the delegation contract to allow the said contract to interact with this one"
      },
      "setBaseURI(string)": {
        "notice": "Update the uri of tokens metadatas"
      },
      "setParamsContract(string,uint256)": {
        "notice": "Update one of the cotnrat data using the key"
      },
      "tokenURI(uint256)": {
        "notice": "Return the metadatas of a token, essential for opensea and other platforms"
      },
      "transfer(address,address,uint256)": {
        "notice": "Transfer a token from one address to another using the token id"
      },
      "updateToken((uint8[],uint256[]),uint256,address)": {
        "notice": "Update the token (hero) in case of level up for example by using the id as key and sending directly the object of the token update"
      },
      "withdraw()": {
        "notice": "FUNDS OF CONTRACT"
      }
    },
    "version": 1
  }
}