{
  "contractName": "Hero",
  "abi": [
    {
      "inputs": [
        {
          "internalType": "string",
          "name": "name",
          "type": "string"
        },
        {
          "internalType": "string",
          "name": "symbol",
          "type": "string"
        },
        {
          "internalType": "string",
          "name": "_initBaseURI",
          "type": "string"
        }
      ],
      "stateMutability": "nonpayable",
      "type": "constructor"
    },
    {
      "anonymous": false,
      "inputs": [
        {
          "indexed": true,
          "internalType": "address",
          "name": "owner",
          "type": "address"
        },
        {
          "indexed": true,
          "internalType": "address",
          "name": "approved",
          "type": "address"
        },
        {
          "indexed": true,
          "internalType": "uint256",
          "name": "tokenId",
          "type": "uint256"
        }
      ],
      "name": "Approval",
      "type": "event"
    },
    {
      "anonymous": false,
      "inputs": [
        {
          "indexed": true,
          "internalType": "address",
          "name": "owner",
          "type": "address"
        },
        {
          "indexed": true,
          "internalType": "address",
          "name": "operator",
          "type": "address"
        },
        {
          "indexed": false,
          "internalType": "bool",
          "name": "approved",
          "type": "bool"
        }
      ],
      "name": "ApprovalForAll",
      "type": "event"
    },
    {
      "anonymous": false,
      "inputs": [
        {
          "indexed": true,
          "internalType": "address",
          "name": "previousOwner",
          "type": "address"
        },
        {
          "indexed": true,
          "internalType": "address",
          "name": "newOwner",
          "type": "address"
        }
      ],
      "name": "OwnershipTransferred",
      "type": "event"
    },
    {
      "anonymous": false,
      "inputs": [
        {
          "indexed": true,
          "internalType": "address",
          "name": "from",
          "type": "address"
        },
        {
          "indexed": true,
          "internalType": "address",
          "name": "to",
          "type": "address"
        },
        {
          "indexed": true,
          "internalType": "uint256",
          "name": "tokenId",
          "type": "uint256"
        }
      ],
      "name": "Transfer",
      "type": "event"
    },
    {
      "inputs": [
        {
          "internalType": "address",
          "name": "to",
          "type": "address"
        },
        {
          "internalType": "uint256",
          "name": "tokenId",
          "type": "uint256"
        }
      ],
      "name": "approve",
      "outputs": [],
      "stateMutability": "nonpayable",
      "type": "function"
    },
    {
      "inputs": [
        {
          "internalType": "address",
          "name": "owner",
          "type": "address"
        }
      ],
      "name": "balanceOf",
      "outputs": [
        {
          "internalType": "uint256",
          "name": "",
          "type": "uint256"
        }
      ],
      "stateMutability": "view",
      "type": "function"
    },
    {
      "inputs": [],
      "name": "baseExtension",
      "outputs": [
        {
          "internalType": "string",
          "name": "",
          "type": "string"
        }
      ],
      "stateMutability": "view",
      "type": "function"
    },
    {
      "inputs": [],
      "name": "baseURI",
      "outputs": [
        {
          "internalType": "string",
          "name": "",
          "type": "string"
        }
      ],
      "stateMutability": "view",
      "type": "function"
    },
    {
      "inputs": [
        {
          "internalType": "uint256",
          "name": "tokenId",
          "type": "uint256"
        }
      ],
      "name": "getApproved",
      "outputs": [
        {
          "internalType": "address",
          "name": "",
          "type": "address"
        }
      ],
      "stateMutability": "view",
      "type": "function"
    },
    {
      "inputs": [
        {
          "internalType": "address",
          "name": "owner",
          "type": "address"
        },
        {
          "internalType": "address",
          "name": "operator",
          "type": "address"
        }
      ],
      "name": "isApprovedForAll",
      "outputs": [
        {
          "internalType": "bool",
          "name": "",
          "type": "bool"
        }
      ],
      "stateMutability": "view",
      "type": "function"
    },
    {
      "inputs": [],
      "name": "name",
      "outputs": [
        {
          "internalType": "string",
          "name": "",
          "type": "string"
        }
      ],
      "stateMutability": "view",
      "type": "function"
    },
    {
      "inputs": [],
      "name": "owner",
      "outputs": [
        {
          "internalType": "address",
          "name": "",
          "type": "address"
        }
      ],
      "stateMutability": "view",
      "type": "function"
    },
    {
      "inputs": [
        {
          "internalType": "uint256",
          "name": "tokenId",
          "type": "uint256"
        }
      ],
      "name": "ownerOf",
      "outputs": [
        {
          "internalType": "address",
          "name": "",
          "type": "address"
        }
      ],
      "stateMutability": "view",
      "type": "function"
    },
    {
      "inputs": [],
      "name": "paused",
      "outputs": [
        {
          "internalType": "bool",
          "name": "",
          "type": "bool"
        }
      ],
      "stateMutability": "view",
      "type": "function"
    },
    {
      "inputs": [],
      "name": "renounceOwnership",
      "outputs": [],
      "stateMutability": "nonpayable",
      "type": "function"
    },
    {
      "inputs": [
        {
          "internalType": "address",
          "name": "from",
          "type": "address"
        },
        {
          "internalType": "address",
          "name": "to",
          "type": "address"
        },
        {
          "internalType": "uint256",
          "name": "tokenId",
          "type": "uint256"
        }
      ],
      "name": "safeTransferFrom",
      "outputs": [],
      "stateMutability": "nonpayable",
      "type": "function"
    },
    {
      "inputs": [
        {
          "internalType": "address",
          "name": "from",
          "type": "address"
        },
        {
          "internalType": "address",
          "name": "to",
          "type": "address"
        },
        {
          "internalType": "uint256",
          "name": "tokenId",
          "type": "uint256"
        },
        {
          "internalType": "bytes",
          "name": "_data",
          "type": "bytes"
        }
      ],
      "name": "safeTransferFrom",
      "outputs": [],
      "stateMutability": "nonpayable",
      "type": "function"
    },
    {
      "inputs": [
        {
          "internalType": "address",
          "name": "operator",
          "type": "address"
        },
        {
          "internalType": "bool",
          "name": "approved",
          "type": "bool"
        }
      ],
      "name": "setApprovalForAll",
      "outputs": [],
      "stateMutability": "nonpayable",
      "type": "function"
    },
    {
      "inputs": [
        {
          "internalType": "bytes4",
          "name": "interfaceId",
          "type": "bytes4"
        }
      ],
      "name": "supportsInterface",
      "outputs": [
        {
          "internalType": "bool",
          "name": "",
          "type": "bool"
        }
      ],
      "stateMutability": "view",
      "type": "function"
    },
    {
      "inputs": [],
      "name": "symbol",
      "outputs": [
        {
          "internalType": "string",
          "name": "",
          "type": "string"
        }
      ],
      "stateMutability": "view",
      "type": "function"
    },
    {
      "inputs": [
        {
          "internalType": "address",
          "name": "from",
          "type": "address"
        },
        {
          "internalType": "address",
          "name": "to",
          "type": "address"
        },
        {
          "internalType": "uint256",
          "name": "tokenId",
          "type": "uint256"
        }
      ],
      "name": "transferFrom",
      "outputs": [],
      "stateMutability": "nonpayable",
      "type": "function"
    },
    {
      "inputs": [
        {
          "internalType": "address",
          "name": "newOwner",
          "type": "address"
        }
      ],
      "name": "transferOwnership",
      "outputs": [],
      "stateMutability": "nonpayable",
      "type": "function"
    },
    {
      "inputs": [
        {
          "internalType": "string",
          "name": "_newBaseURI",
          "type": "string"
        }
      ],
      "name": "setBaseURI",
      "outputs": [],
      "stateMutability": "nonpayable",
      "type": "function"
    },
    {
      "inputs": [
        {
          "internalType": "uint256",
          "name": "tokenId",
          "type": "uint256"
        }
      ],
      "name": "tokenURI",
      "outputs": [
        {
          "internalType": "string",
          "name": "",
          "type": "string"
        }
      ],
      "stateMutability": "view",
      "type": "function"
    },
    {
      "inputs": [
        {
          "internalType": "bool",
          "name": "_state",
          "type": "bool"
        }
      ],
      "name": "pause",
      "outputs": [],
      "stateMutability": "nonpayable",
      "type": "function"
    },
    {
      "inputs": [
        {
          "internalType": "address",
          "name": "receiver",
          "type": "address"
        },
        {
          "internalType": "bool[]",
          "name": "booleans",
          "type": "bool[]"
        },
        {
          "internalType": "uint8[]",
          "name": "params8",
          "type": "uint8[]"
        },
        {
          "internalType": "uint256[]",
          "name": "params256",
          "type": "uint256[]"
        },
        {
          "internalType": "string",
          "name": "_tokenURI",
          "type": "string"
        }
      ],
      "name": "mint",
      "outputs": [],
      "stateMutability": "payable",
      "type": "function"
    },
    {
      "inputs": [
        {
          "internalType": "uint256",
          "name": "tokenId",
          "type": "uint256"
        }
      ],
      "name": "burn",
      "outputs": [],
      "stateMutability": "nonpayable",
      "type": "function"
    },
    {
      "inputs": [
        {
          "internalType": "address",
          "name": "from",
          "type": "address"
        },
        {
          "internalType": "address",
          "name": "to",
          "type": "address"
        },
        {
          "internalType": "uint256",
          "name": "tokenId",
          "type": "uint256"
        }
      ],
      "name": "transfer",
      "outputs": [],
      "stateMutability": "nonpayable",
      "type": "function"
    },
    {
      "inputs": [
        {
          "internalType": "address",
          "name": "user",
          "type": "address"
        }
      ],
      "name": "getAllTokensForUser",
      "outputs": [
        {
          "internalType": "uint256[]",
          "name": "",
          "type": "uint256[]"
        }
      ],
      "stateMutability": "view",
      "type": "function"
    },
    {
      "inputs": [
        {
          "components": [
            {
              "internalType": "bool[]",
              "name": "booleans",
              "type": "bool[]"
            },
            {
              "internalType": "uint8[]",
              "name": "params8",
              "type": "uint8[]"
            },
            {
              "internalType": "uint256[]",
              "name": "params256",
              "type": "uint256[]"
            }
          ],
          "internalType": "struct Hero.Token",
          "name": "tokenTemp",
          "type": "tuple"
        },
        {
          "internalType": "uint256",
          "name": "tokenId",
          "type": "uint256"
        },
        {
          "internalType": "address",
          "name": "owner",
          "type": "address"
        }
      ],
      "name": "updateToken",
      "outputs": [],
      "stateMutability": "nonpayable",
      "type": "function"
    },
    {
      "inputs": [
        {
          "internalType": "uint256",
          "name": "tokenId",
          "type": "uint256"
        }
      ],
      "name": "getTokenDetails",
      "outputs": [
        {
          "components": [
            {
              "internalType": "bool[]",
              "name": "booleans",
              "type": "bool[]"
            },
            {
              "internalType": "uint8[]",
              "name": "params8",
              "type": "uint8[]"
            },
            {
              "internalType": "uint256[]",
              "name": "params256",
              "type": "uint256[]"
            }
          ],
          "internalType": "struct Hero.Token",
          "name": "",
          "type": "tuple"
        }
      ],
      "stateMutability": "view",
      "type": "function"
    },
    {
      "inputs": [
        {
          "internalType": "string",
          "name": "keyParams",
          "type": "string"
        },
        {
          "internalType": "uint256",
          "name": "valueParams",
          "type": "uint256"
        }
      ],
      "name": "setParamsContract",
      "outputs": [],
      "stateMutability": "nonpayable",
      "type": "function"
    },
    {
      "inputs": [
        {
          "internalType": "string",
          "name": "keyParams",
          "type": "string"
        }
      ],
      "name": "getParamsContract",
      "outputs": [
        {
          "internalType": "uint256",
          "name": "",
          "type": "uint256"
        }
      ],
      "stateMutability": "view",
      "type": "function"
    },
    {
      "inputs": [
        {
          "internalType": "address",
          "name": "_adress",
          "type": "address"
        }
      ],
      "name": "setAdressDelegateContract",
      "outputs": [],
      "stateMutability": "nonpayable",
      "type": "function"
    },
    {
      "inputs": [],
      "name": "withdraw",
      "outputs": [],
      "stateMutability": "nonpayable",
      "type": "function"
    },
    {
      "inputs": [],
      "name": "deposit",
      "outputs": [],
      "stateMutability": "payable",
      "type": "function"
    },
    {
      "inputs": [],
      "name": "getBalance",
      "outputs": [
        {
          "internalType": "uint256",
          "name": "",
          "type": "uint256"
        }
      ],
      "stateMutability": "view",
      "type": "function"
    },
    {
      "inputs": [
        {
          "internalType": "uint256",
          "name": "tokenId",
          "type": "uint256"
        }
      ],
      "name": "getOwnerOf",
      "outputs": [
        {
          "internalType": "address",
          "name": "",
          "type": "address"
        }
      ],
      "stateMutability": "view",
      "type": "function"
    },
    {
      "inputs": [
        {
          "internalType": "address",
          "name": "user",
          "type": "address"
        }
      ],
      "name": "getBalanceOf",
      "outputs": [
        {
          "internalType": "uint256",
          "name": "",
          "type": "uint256"
        }
      ],
      "stateMutability": "view",
      "type": "function"
    }
  ],
  "bytecode": "0x60806040526040518060400160405280600581526020017f2e6a736f6e000000000000000000000000000000000000000000000000000000815250600c908051906020019062000051929190620002fb565b506000600d60006101000a81548160ff0219169083151502179055503480156200007a57600080fd5b5060405162005631380380620056318339818101604052810190620000a091906200041d565b82828160009080519060200190620000ba929190620002fb565b508060019080519060200190620000d3929190620002fb565b505050620000f6620000ea6200015860201b60201c565b6200016060201b60201c565b60006009604051620001089062000584565b908152602001604051809103902081905550600060096040516200012c906200059b565b9081526020016040518091039020819055506200014f816200022660201b60201c565b50505062000721565b600033905090565b6000600760009054906101000a900473ffffffffffffffffffffffffffffffffffffffff16905081600760006101000a81548173ffffffffffffffffffffffffffffffffffffffff021916908373ffffffffffffffffffffffffffffffffffffffff1602179055508173ffffffffffffffffffffffffffffffffffffffff168173ffffffffffffffffffffffffffffffffffffffff167f8be0079c531659141344cd1fd0a4f28419497f9722a3daafe3b4186f6b6457e060405160405180910390a35050565b620002366200015860201b60201c565b73ffffffffffffffffffffffffffffffffffffffff166200025c620002d160201b60201c565b73ffffffffffffffffffffffffffffffffffffffff1614620002b5576040517f08c379a0000000000000000000000000000000000000000000000000000000008152600401620002ac90620005b2565b60405180910390fd5b80600b9080519060200190620002cd929190620002fb565b5050565b6000600760009054906101000a900473ffffffffffffffffffffffffffffffffffffffff16905090565b82805462000309906200068d565b90600052602060002090601f0160209004810192826200032d576000855562000379565b82601f106200034857805160ff191683800117855562000379565b8280016001018555821562000379579182015b82811115620003785782518255916020019190600101906200035b565b5b5090506200038891906200038c565b5090565b5b80821115620003a75760008160009055506001016200038d565b5090565b6000620003c2620003bc8462000608565b620005d4565b905082815260208101848484011115620003db57600080fd5b620003e884828562000657565b509392505050565b600082601f8301126200040257600080fd5b815162000414848260208601620003ab565b91505092915050565b6000806000606084860312156200043357600080fd5b600084015167ffffffffffffffff8111156200044e57600080fd5b6200045c86828701620003f0565b935050602084015167ffffffffffffffff8111156200047a57600080fd5b6200048886828701620003f0565b925050604084015167ffffffffffffffff811115620004a657600080fd5b620004b486828701620003f0565b9150509250925092565b6000620004cd6006836200064c565b91507f6e657874496400000000000000000000000000000000000000000000000000006000830152600682019050919050565b60006200050f600b836200064c565b91507f746f74616c537570706c790000000000000000000000000000000000000000006000830152600b82019050919050565b6000620005516020836200063b565b91507f4f776e61626c653a2063616c6c6572206973206e6f7420746865206f776e65726000830152602082019050919050565b60006200059182620004be565b9150819050919050565b6000620005a88262000500565b9150819050919050565b60006020820190508181036000830152620005cd8162000542565b9050919050565b6000604051905081810181811067ffffffffffffffff82111715620005fe57620005fd620006f2565b5b8060405250919050565b600067ffffffffffffffff821115620006265762000625620006f2565b5b601f19601f8301169050602081019050919050565b600082825260208201905092915050565b600081905092915050565b60005b83811015620006775780820151818401526020810190506200065a565b8381111562000687576000848401525b50505050565b60006002820490506001821680620006a657607f821691505b60208210811415620006bd57620006bc620006c3565b5b50919050565b7f4e487b7100000000000000000000000000000000000000000000000000000000600052602260045260246000fd5b7f4e487b7100000000000000000000000000000000000000000000000000000000600052604160045260246000fd5b614f0080620007316000396000f3fe6080604052600436106102045760003560e01c8063715018a611610118578063c1e03728116100a0578063e1e5151d1161006f578063e1e5151d14610756578063e6d46f331461077f578063e985e9c51461079b578063f26bf0b7146107d8578063f2fde38b1461081557610204565b8063c1e03728146106a7578063c6682862146106e4578063c87b56dd1461070f578063d0e30db01461074c57610204565b806395d89b41116100e757806395d89b41146105c45780639b96eece146105ef578063a22cb4651461062c578063b88d4fde14610655578063beabacc81461067e57610204565b8063715018a61461050857806382de8fe91461051f578063836387101461055c5780638da5cb5b1461059957610204565b80633ccfd60b1161019b57806355f804b31161016a57806355f804b31461040f5780635c975abb146104385780636352211e146104635780636c0360eb146104a057806370a08231146104cb57610204565b80633ccfd60b1461037d57806342842e0e1461039457806342966c68146103bd57806348972034146103e657610204565b8063095ea7b3116101d7578063095ea7b3146102d757806312065fe01461030057806323b872dd1461032b5780633cb119441461035457610204565b806301ffc9a71461020957806302329a291461024657806306fdde031461026f578063081812fc1461029a575b600080fd5b34801561021557600080fd5b50610230600480360381019061022b91906138f9565b61083e565b60405161023d9190614633565b60405180910390f35b34801561025257600080fd5b5061026d600480360381019061026891906138d0565b610920565b005b34801561027b57600080fd5b506102846109b9565b604051610291919061464e565b60405180910390f35b3480156102a657600080fd5b506102c160048036038101906102bc9190613a47565b610a4b565b6040516102ce91906145aa565b60405180910390f35b3480156102e357600080fd5b506102fe60048036038101906102f99190613894565b610ad0565b005b34801561030c57600080fd5b50610315610be8565b60405161032291906148f2565b60405180910390f35b34801561033757600080fd5b50610352600480360381019061034d91906136b7565b610bf0565b005b34801561036057600080fd5b5061037b6004803603810190610376919061398c565b610c50565b005b34801561038957600080fd5b50610392610cf3565b005b3480156103a057600080fd5b506103bb60048036038101906103b691906136b7565b610db8565b005b3480156103c957600080fd5b506103e460048036038101906103df9190613a47565b610dd8565b005b3480156103f257600080fd5b5061040d60048036038101906104089190613652565b610f18565b005b34801561041b57600080fd5b506104366004803603810190610431919061394b565b610fd8565b005b34801561044457600080fd5b5061044d61106e565b60405161045a9190614633565b60405180910390f35b34801561046f57600080fd5b5061048a60048036038101906104859190613a47565b611081565b60405161049791906145aa565b60405180910390f35b3480156104ac57600080fd5b506104b5611133565b6040516104c2919061464e565b60405180910390f35b3480156104d757600080fd5b506104f260048036038101906104ed9190613652565b6111c1565b6040516104ff91906148f2565b60405180910390f35b34801561051457600080fd5b5061051d611279565b005b34801561052b57600080fd5b5061054660048036038101906105419190613652565b611301565b6040516105539190614611565b60405180910390f35b34801561056857600080fd5b50610583600480360381019061057e9190613a47565b6114e3565b60405161059091906145aa565b60405180910390f35b3480156105a557600080fd5b506105ae6114f5565b6040516105bb91906145aa565b60405180910390f35b3480156105d057600080fd5b506105d961151f565b6040516105e6919061464e565b60405180910390f35b3480156105fb57600080fd5b5061061660048036038101906106119190613652565b6115b1565b60405161062391906148f2565b60405180910390f35b34801561063857600080fd5b50610653600480360381019061064e9190613858565b6115c3565b005b34801561066157600080fd5b5061067c60048036038101906106779190613706565b6115d9565b005b34801561068a57600080fd5b506106a560048036038101906106a091906136b7565b61163b565b005b3480156106b357600080fd5b506106ce60048036038101906106c99190613a47565b61175d565b6040516106db91906148d0565b60405180910390f35b3480156106f057600080fd5b506106f96118dd565b604051610706919061464e565b60405180910390f35b34801561071b57600080fd5b5061073660048036038101906107319190613a47565b61196b565b604051610743919061464e565b60405180910390f35b610754611a15565b005b34801561076257600080fd5b5061077d600480360381019061077891906139e0565b611a93565b005b61079960048036038101906107949190613781565b611c7e565b005b3480156107a757600080fd5b506107c260048036038101906107bd919061367b565b611edb565b6040516107cf9190614633565b60405180910390f35b3480156107e457600080fd5b506107ff60048036038101906107fa919061394b565b611f6f565b60405161080c91906148f2565b60405180910390f35b34801561082157600080fd5b5061083c60048036038101906108379190613652565b611f97565b005b60007f80ac58cd000000000000000000000000000000000000000000000000000000007bffffffffffffffffffffffffffffffffffffffffffffffffffffffff1916827bffffffffffffffffffffffffffffffffffffffffffffffffffffffff1916148061090957507f5b5e139f000000000000000000000000000000000000000000000000000000007bffffffffffffffffffffffffffffffffffffffffffffffffffffffff1916827bffffffffffffffffffffffffffffffffffffffffffffffffffffffff1916145b8061091957506109188261208f565b5b9050919050565b6109286120f9565b73ffffffffffffffffffffffffffffffffffffffff166109466114f5565b73ffffffffffffffffffffffffffffffffffffffff161461099c576040517f08c379a000000000000000000000000000000000000000000000000000000000815260040161099390614810565b60405180910390fd5b80600d60006101000a81548160ff02191690831515021790555050565b6060600080546109c890614cde565b80601f01602080910402602001604051908101604052809291908181526020018280546109f490614cde565b8015610a415780601f10610a1657610100808354040283529160200191610a41565b820191906000526020600020905b815481529060010190602001808311610a2457829003601f168201915b5050505050905090565b6000610a5682612101565b610a95576040517f08c379a0000000000000000000000000000000000000000000000000000000008152600401610a8c906147f0565b60405180910390fd5b6004600083815260200190815260200160002060009054906101000a900473ffffffffffffffffffffffffffffffffffffffff169050919050565b6000610adb82611081565b90508073ffffffffffffffffffffffffffffffffffffffff168373ffffffffffffffffffffffffffffffffffffffff161415610b4c576040517f08c379a0000000000000000000000000000000000000000000000000000000008152600401610b4390614870565b60405180910390fd5b8073ffffffffffffffffffffffffffffffffffffffff16610b6b6120f9565b73ffffffffffffffffffffffffffffffffffffffff161480610b9a5750610b9981610b946120f9565b611edb565b5b610bd9576040517f08c379a0000000000000000000000000000000000000000000000000000000008152600401610bd090614750565b60405180910390fd5b610be3838361216d565b505050565b600047905090565b610c01610bfb6120f9565b82612226565b610c40576040517f08c379a0000000000000000000000000000000000000000000000000000000008152600401610c3790614890565b60405180910390fd5b610c4b838383612304565b505050565b610c586120f9565b73ffffffffffffffffffffffffffffffffffffffff16610c766114f5565b73ffffffffffffffffffffffffffffffffffffffff1614610ccc576040517f08c379a0000000000000000000000000000000000000000000000000000000008152600401610cc390614810565b60405180910390fd5b80600983604051610cdd9190614538565b9081526020016040518091039020819055505050565b610cfb6120f9565b73ffffffffffffffffffffffffffffffffffffffff16610d196114f5565b73ffffffffffffffffffffffffffffffffffffffff1614610d6f576040517f08c379a0000000000000000000000000000000000000000000000000000000008152600401610d6690614810565b60405180910390fd5b3373ffffffffffffffffffffffffffffffffffffffff166108fc479081150290604051600060405180830381858888f19350505050158015610db5573d6000803e3d6000fd5b50565b610dd3838383604051806020016040528060008152506115d9565b505050565b600860009054906101000a900473ffffffffffffffffffffffffffffffffffffffff1673ffffffffffffffffffffffffffffffffffffffff163373ffffffffffffffffffffffffffffffffffffffff161480610e825750600073ffffffffffffffffffffffffffffffffffffffff16600860009054906101000a900473ffffffffffffffffffffffffffffffffffffffff1673ffffffffffffffffffffffffffffffffffffffff16145b8015610e9b5750600d60009054906101000a900460ff16155b610eda576040517f08c379a0000000000000000000000000000000000000000000000000000000008152600401610ed1906146d0565b60405180910390fd5b6009604051610ee890614595565b90815260200160405180910390206000815480929190610f0790614cb4565b9190505550610f1581612560565b50565b610f206120f9565b73ffffffffffffffffffffffffffffffffffffffff16610f3e6114f5565b73ffffffffffffffffffffffffffffffffffffffff1614610f94576040517f08c379a0000000000000000000000000000000000000000000000000000000008152600401610f8b90614810565b60405180910390fd5b80600860006101000a81548173ffffffffffffffffffffffffffffffffffffffff021916908373ffffffffffffffffffffffffffffffffffffffff16021790555050565b610fe06120f9565b73ffffffffffffffffffffffffffffffffffffffff16610ffe6114f5565b73ffffffffffffffffffffffffffffffffffffffff1614611054576040517f08c379a000000000000000000000000000000000000000000000000000000000815260040161104b90614810565b60405180910390fd5b80600b908051906020019061106a929190612ffc565b5050565b600d60009054906101000a900460ff1681565b6000806002600084815260200190815260200160002060009054906101000a900473ffffffffffffffffffffffffffffffffffffffff169050600073ffffffffffffffffffffffffffffffffffffffff168173ffffffffffffffffffffffffffffffffffffffff16141561112a576040517f08c379a000000000000000000000000000000000000000000000000000000000815260040161112190614790565b60405180910390fd5b80915050919050565b600b805461114090614cde565b80601f016020809104026020016040519081016040528092919081815260200182805461116c90614cde565b80156111b95780601f1061118e576101008083540402835291602001916111b9565b820191906000526020600020905b81548152906001019060200180831161119c57829003601f168201915b505050505081565b60008073ffffffffffffffffffffffffffffffffffffffff168273ffffffffffffffffffffffffffffffffffffffff161415611232576040517f08c379a000000000000000000000000000000000000000000000000000000000815260040161122990614770565b60405180910390fd5b600360008373ffffffffffffffffffffffffffffffffffffffff1673ffffffffffffffffffffffffffffffffffffffff168152602001908152602001600020549050919050565b6112816120f9565b73ffffffffffffffffffffffffffffffffffffffff1661129f6114f5565b73ffffffffffffffffffffffffffffffffffffffff16146112f5576040517f08c379a00000000000000000000000000000000000000000000000000000000081526004016112ec90614810565b60405180910390fd5b6112ff60006125b3565b565b6060600061130e836111c1565b9050600081141561139157600067ffffffffffffffff81111561135a577f4e487b7100000000000000000000000000000000000000000000000000000000600052604160045260246000fd5b6040519080825280602002602001820160405280156113885781602001602082028036833780820191505090505b509150506114de565b60008167ffffffffffffffff8111156113d3577f4e487b7100000000000000000000000000000000000000000000000000000000600052604160045260246000fd5b6040519080825280602002602001820160405280156114015781602001602082028036833780820191505090505b5090506000600960405161141490614580565b90815260200160405180910390205490506000805b828110156114d5578673ffffffffffffffffffffffffffffffffffffffff1661145182611081565b73ffffffffffffffffffffffffffffffffffffffff1614156114c257808483815181106114a7577f4e487b7100000000000000000000000000000000000000000000000000000000600052603260045260246000fd5b60200260200101818152505081806114be90614d10565b9250505b80806114cd90614d10565b915050611429565b83955050505050505b919050565b60006114ee82611081565b9050919050565b6000600760009054906101000a900473ffffffffffffffffffffffffffffffffffffffff16905090565b60606001805461152e90614cde565b80601f016020809104026020016040519081016040528092919081815260200182805461155a90614cde565b80156115a75780601f1061157c576101008083540402835291602001916115a7565b820191906000526020600020905b81548152906001019060200180831161158a57829003601f168201915b5050505050905090565b60006115bc826111c1565b9050919050565b6115d56115ce6120f9565b8383612679565b5050565b6115ea6115e46120f9565b83612226565b611629576040517f08c379a000000000000000000000000000000000000000000000000000000000815260040161162090614890565b60405180910390fd5b611635848484846127e6565b50505050565b600860009054906101000a900473ffffffffffffffffffffffffffffffffffffffff1673ffffffffffffffffffffffffffffffffffffffff163373ffffffffffffffffffffffffffffffffffffffff1614806116e55750600073ffffffffffffffffffffffffffffffffffffffff16600860009054906101000a900473ffffffffffffffffffffffffffffffffffffffff1673ffffffffffffffffffffffffffffffffffffffff16145b80156116fe5750600d60009054906101000a900460ff16155b61173d576040517f08c379a0000000000000000000000000000000000000000000000000000000008152600401611734906146d0565b60405180910390fd5b611758838383604051806020016040528060008152506127e6565b505050565b611765613082565b600a6000838152602001908152602001600020604051806060016040529081600082018054806020026020016040519081016040528092919081815260200182805480156117f757602002820191906000526020600020906000905b82829054906101000a900460ff161515815260200190600101906020826000010492830192600103820291508084116117c15790505b505050505081526020016001820180548060200260200160405190810160405280929190818152602001828054801561187557602002820191906000526020600020906000905b82829054906101000a900460ff1660ff168152602001906001019060208260000104928301926001038202915080841161183e5790505b50505050508152602001600282018054806020026020016040519081016040528092919081815260200182805480156118cd57602002820191906000526020600020905b8154815260200190600101908083116118b9575b5050505050815250509050919050565b600c80546118ea90614cde565b80601f016020809104026020016040519081016040528092919081815260200182805461191690614cde565b80156119635780601f1061193857610100808354040283529160200191611963565b820191906000526020600020905b81548152906001019060200180831161194657829003601f168201915b505050505081565b606061197682612101565b6119b5576040517f08c379a00000000000000000000000000000000000000000000000000000000081526004016119ac90614850565b60405180910390fd5b60006119bf612842565b905060008151116119df5760405180602001604052806000815250611a0d565b806119e9846128d4565b600c6040516020016119fd9392919061454f565b6040516020818303038152906040525b915050919050565b611a1d6120f9565b73ffffffffffffffffffffffffffffffffffffffff16611a3b6114f5565b73ffffffffffffffffffffffffffffffffffffffff1614611a91576040517f08c379a0000000000000000000000000000000000000000000000000000000008152600401611a8890614810565b60405180910390fd5b565b600860009054906101000a900473ffffffffffffffffffffffffffffffffffffffff1673ffffffffffffffffffffffffffffffffffffffff163373ffffffffffffffffffffffffffffffffffffffff161480611b3d5750600073ffffffffffffffffffffffffffffffffffffffff16600860009054906101000a900473ffffffffffffffffffffffffffffffffffffffff1673ffffffffffffffffffffffffffffffffffffffff16145b8015611b565750600d60009054906101000a900460ff16155b611b95576040517f08c379a0000000000000000000000000000000000000000000000000000000008152600401611b8c906146d0565b60405180910390fd5b8073ffffffffffffffffffffffffffffffffffffffff16611bb583611081565b73ffffffffffffffffffffffffffffffffffffffff1614611c0b576040517f08c379a0000000000000000000000000000000000000000000000000000000008152600401611c02906148b0565b60405180910390fd5b82600a60008481526020019081526020016000206000820151816000019080519060200190611c3b9291906130a3565b506020820151816001019080519060200190611c58929190613149565b506040820151816002019080519060200190611c759291906131f0565b50905050505050565b600860009054906101000a900473ffffffffffffffffffffffffffffffffffffffff1673ffffffffffffffffffffffffffffffffffffffff163373ffffffffffffffffffffffffffffffffffffffff161480611d285750600073ffffffffffffffffffffffffffffffffffffffff16600860009054906101000a900473ffffffffffffffffffffffffffffffffffffffff1673ffffffffffffffffffffffffffffffffffffffff16145b8015611d415750600d60009054906101000a900460ff16155b611d80576040517f08c379a0000000000000000000000000000000000000000000000000000000008152600401611d77906146d0565b60405180910390fd5b604051806060016040528085815260200184815260200183815250600a60006009604051611dad90614580565b90815260200160405180910390205481526020019081526020016000206000820151816000019080519060200190611de69291906130a3565b506020820151816001019080519060200190611e03929190613149565b506040820151816002019080519060200190611e209291906131f0565b509050506009604051611e3290614580565b90815260200160405180910390206000815480929190611e5190614d10565b91905055506009604051611e6490614595565b90815260200160405180910390206000815480929190611e8390614d10565b9190505550611eae856009604051611e9a90614580565b908152602001604051809103902054612a81565b611ed46009604051611ebf90614580565b90815260200160405180910390205482612a9f565b5050505050565b6000600560008473ffffffffffffffffffffffffffffffffffffffff1673ffffffffffffffffffffffffffffffffffffffff16815260200190815260200160002060008373ffffffffffffffffffffffffffffffffffffffff1673ffffffffffffffffffffffffffffffffffffffff16815260200190815260200160002060009054906101000a900460ff16905092915050565b6000600982604051611f819190614538565b9081526020016040518091039020549050919050565b611f9f6120f9565b73ffffffffffffffffffffffffffffffffffffffff16611fbd6114f5565b73ffffffffffffffffffffffffffffffffffffffff1614612013576040517f08c379a000000000000000000000000000000000000000000000000000000000815260040161200a90614810565b60405180910390fd5b600073ffffffffffffffffffffffffffffffffffffffff168173ffffffffffffffffffffffffffffffffffffffff161415612083576040517f08c379a000000000000000000000000000000000000000000000000000000000815260040161207a90614690565b60405180910390fd5b61208c816125b3565b50565b60007f01ffc9a7000000000000000000000000000000000000000000000000000000007bffffffffffffffffffffffffffffffffffffffffffffffffffffffff1916827bffffffffffffffffffffffffffffffffffffffffffffffffffffffff1916149050919050565b600033905090565b60008073ffffffffffffffffffffffffffffffffffffffff166002600084815260200190815260200160002060009054906101000a900473ffffffffffffffffffffffffffffffffffffffff1673ffffffffffffffffffffffffffffffffffffffff1614159050919050565b816004600083815260200190815260200160002060006101000a81548173ffffffffffffffffffffffffffffffffffffffff021916908373ffffffffffffffffffffffffffffffffffffffff160217905550808273ffffffffffffffffffffffffffffffffffffffff166121e083611081565b73ffffffffffffffffffffffffffffffffffffffff167f8c5be1e5ebec7d5bd14f71427d1e84f3dd0314c0f7b2291e5b200ac8c7c3b92560405160405180910390a45050565b600061223182612101565b612270576040517f08c379a000000000000000000000000000000000000000000000000000000000815260040161226790614730565b60405180910390fd5b600061227b83611081565b90508073ffffffffffffffffffffffffffffffffffffffff168473ffffffffffffffffffffffffffffffffffffffff1614806122ea57508373ffffffffffffffffffffffffffffffffffffffff166122d284610a4b565b73ffffffffffffffffffffffffffffffffffffffff16145b806122fb57506122fa8185611edb565b5b91505092915050565b8273ffffffffffffffffffffffffffffffffffffffff1661232482611081565b73ffffffffffffffffffffffffffffffffffffffff161461237a576040517f08c379a000000000000000000000000000000000000000000000000000000000815260040161237190614830565b60405180910390fd5b600073ffffffffffffffffffffffffffffffffffffffff168273ffffffffffffffffffffffffffffffffffffffff1614156123ea576040517f08c379a00000000000000000000000000000000000000000000000000000000081526004016123e1906146f0565b60405180910390fd5b6123f5838383612b13565b61240060008261216d565b6001600360008573ffffffffffffffffffffffffffffffffffffffff1673ffffffffffffffffffffffffffffffffffffffff16815260200190815260200160002060008282546124509190614bbd565b925050819055506001600360008473ffffffffffffffffffffffffffffffffffffffff1673ffffffffffffffffffffffffffffffffffffffff16815260200190815260200160002060008282546124a79190614b36565b92505081905550816002600083815260200190815260200160002060006101000a81548173ffffffffffffffffffffffffffffffffffffffff021916908373ffffffffffffffffffffffffffffffffffffffff160217905550808273ffffffffffffffffffffffffffffffffffffffff168473ffffffffffffffffffffffffffffffffffffffff167fddf252ad1be2c89b69c2b068fc378daa952ba7f163c4a11628f55a4df523b3ef60405160405180910390a4505050565b61256981612b18565b600060066000838152602001908152602001600020805461258990614cde565b9050146125b0576006600082815260200190815260200160002060006125af919061323d565b5b50565b6000600760009054906101000a900473ffffffffffffffffffffffffffffffffffffffff16905081600760006101000a81548173ffffffffffffffffffffffffffffffffffffffff021916908373ffffffffffffffffffffffffffffffffffffffff1602179055508173ffffffffffffffffffffffffffffffffffffffff168173ffffffffffffffffffffffffffffffffffffffff167f8be0079c531659141344cd1fd0a4f28419497f9722a3daafe3b4186f6b6457e060405160405180910390a35050565b8173ffffffffffffffffffffffffffffffffffffffff168373ffffffffffffffffffffffffffffffffffffffff1614156126e8576040517f08c379a00000000000000000000000000000000000000000000000000000000081526004016126df90614710565b60405180910390fd5b80600560008573ffffffffffffffffffffffffffffffffffffffff1673ffffffffffffffffffffffffffffffffffffffff16815260200190815260200160002060008473ffffffffffffffffffffffffffffffffffffffff1673ffffffffffffffffffffffffffffffffffffffff16815260200190815260200160002060006101000a81548160ff0219169083151502179055508173ffffffffffffffffffffffffffffffffffffffff168373ffffffffffffffffffffffffffffffffffffffff167f17307eab39ab6107e8899845ad3d59bd9653f200f220920489ca2b5937696c31836040516127d99190614633565b60405180910390a3505050565b6127f1848484612304565b6127fd84848484612c29565b61283c576040517f08c379a000000000000000000000000000000000000000000000000000000000815260040161283390614670565b60405180910390fd5b50505050565b6060600b805461285190614cde565b80601f016020809104026020016040519081016040528092919081815260200182805461287d90614cde565b80156128ca5780601f1061289f576101008083540402835291602001916128ca565b820191906000526020600020905b8154815290600101906020018083116128ad57829003601f168201915b5050505050905090565b6060600082141561291c576040518060400160405280600181526020017f30000000000000000000000000000000000000000000000000000000000000008152509050612a7c565b600082905060005b6000821461294e57808061293790614d10565b915050600a826129479190614b8c565b9150612924565b60008167ffffffffffffffff811115612990577f4e487b7100000000000000000000000000000000000000000000000000000000600052604160045260246000fd5b6040519080825280601f01601f1916602001820160405280156129c25781602001600182028036833780820191505090505b5090505b60008514612a75576001826129db9190614bbd565b9150600a856129ea9190614d59565b60306129f69190614b36565b60f81b818381518110612a32577f4e487b7100000000000000000000000000000000000000000000000000000000600052603260045260246000fd5b60200101907effffffffffffffffffffffffffffffffffffffffffffffffffffffffffffff1916908160001a905350600a85612a6e9190614b8c565b94506129c6565b8093505050505b919050565b612a9b828260405180602001604052806000815250612dc0565b5050565b612aa882612101565b612ae7576040517f08c379a0000000000000000000000000000000000000000000000000000000008152600401612ade906147b0565b60405180910390fd5b80600660008481526020019081526020016000209080519060200190612b0e929190612ffc565b505050565b505050565b6000612b2382611081565b9050612b3181600084612b13565b612b3c60008361216d565b6001600360008373ffffffffffffffffffffffffffffffffffffffff1673ffffffffffffffffffffffffffffffffffffffff1681526020019081526020016000206000828254612b8c9190614bbd565b925050819055506002600083815260200190815260200160002060006101000a81549073ffffffffffffffffffffffffffffffffffffffff021916905581600073ffffffffffffffffffffffffffffffffffffffff168273ffffffffffffffffffffffffffffffffffffffff167fddf252ad1be2c89b69c2b068fc378daa952ba7f163c4a11628f55a4df523b3ef60405160405180910390a45050565b6000612c4a8473ffffffffffffffffffffffffffffffffffffffff16612e1b565b15612db3578373ffffffffffffffffffffffffffffffffffffffff1663150b7a02612c736120f9565b8786866040518563ffffffff1660e01b8152600401612c9594939291906145c5565b602060405180830381600087803b158015612caf57600080fd5b505af1925050508015612ce057506040513d601f19601f82011682018060405250810190612cdd9190613922565b60015b612d63573d8060008114612d10576040519150601f19603f3d011682016040523d82523d6000602084013e612d15565b606091505b50600081511415612d5b576040517f08c379a0000000000000000000000000000000000000000000000000000000008152600401612d5290614670565b60405180910390fd5b805181602001fd5b63150b7a0260e01b7bffffffffffffffffffffffffffffffffffffffffffffffffffffffff1916817bffffffffffffffffffffffffffffffffffffffffffffffffffffffff191614915050612db8565b600190505b949350505050565b612dca8383612e2e565b612dd76000848484612c29565b612e16576040517f08c379a0000000000000000000000000000000000000000000000000000000008152600401612e0d90614670565b60405180910390fd5b505050565b600080823b905060008111915050919050565b600073ffffffffffffffffffffffffffffffffffffffff168273ffffffffffffffffffffffffffffffffffffffff161415612e9e576040517f08c379a0000000000000000000000000000000000000000000000000000000008152600401612e95906147d0565b60405180910390fd5b612ea781612101565b15612ee7576040517f08c379a0000000000000000000000000000000000000000000000000000000008152600401612ede906146b0565b60405180910390fd5b612ef360008383612b13565b6001600360008473ffffffffffffffffffffffffffffffffffffffff1673ffffffffffffffffffffffffffffffffffffffff1681526020019081526020016000206000828254612f439190614b36565b92505081905550816002600083815260200190815260200160002060006101000a81548173ffffffffffffffffffffffffffffffffffffffff021916908373ffffffffffffffffffffffffffffffffffffffff160217905550808273ffffffffffffffffffffffffffffffffffffffff16600073ffffffffffffffffffffffffffffffffffffffff167fddf252ad1be2c89b69c2b068fc378daa952ba7f163c4a11628f55a4df523b3ef60405160405180910390a45050565b82805461300890614cde565b90600052602060002090601f01602090048101928261302a5760008555613071565b82601f1061304357805160ff1916838001178555613071565b82800160010185558215613071579182015b82811115613070578251825591602001919060010190613055565b5b50905061307e919061327d565b5090565b60405180606001604052806060815260200160608152602001606081525090565b82805482825590600052602060002090601f016020900481019282156131385791602002820160005b8382111561310957835183826101000a81548160ff02191690831515021790555092602001926001016020816000010492830192600103026130cc565b80156131365782816101000a81549060ff0219169055600101602081600001049283019260010302613109565b505b509050613145919061327d565b5090565b82805482825590600052602060002090601f016020900481019282156131df5791602002820160005b838211156131b057835183826101000a81548160ff021916908360ff1602179055509260200192600101602081600001049283019260010302613172565b80156131dd5782816101000a81549060ff02191690556001016020816000010492830192600103026131b0565b505b5090506131ec919061327d565b5090565b82805482825590600052602060002090810192821561322c579160200282015b8281111561322b578251825591602001919060010190613210565b5b509050613239919061327d565b5090565b50805461324990614cde565b6000825580601f1061325b575061327a565b601f016020900490600052602060002090810190613279919061327d565b5b50565b5b8082111561329657600081600090555060010161327e565b5090565b60006132ad6132a88461493e565b61490d565b905080838252602082019050828560208602820111156132cc57600080fd5b60005b858110156132fc57816132e288826134ed565b8452602084019350602083019250506001810190506132cf565b5050509392505050565b60006133196133148461496a565b61490d565b9050808382526020820190508285602086028201111561333857600080fd5b60005b85811015613368578161334e8882613628565b84526020840193506020830192505060018101905061333b565b5050509392505050565b600061338561338084614996565b61490d565b905080838252602082019050828560208602820111156133a457600080fd5b60005b858110156133d457816133ba888261363d565b8452602084019350602083019250506001810190506133a7565b5050509392505050565b60006133f16133ec846149c2565b61490d565b90508281526020810184848401111561340957600080fd5b613414848285614c72565b509392505050565b600061342f61342a846149f2565b61490d565b90508281526020810184848401111561344757600080fd5b613452848285614c72565b509392505050565b60008135905061346981614e57565b92915050565b600082601f83011261348057600080fd5b813561349084826020860161329a565b91505092915050565b600082601f8301126134aa57600080fd5b81356134ba848260208601613306565b91505092915050565b600082601f8301126134d457600080fd5b81356134e4848260208601613372565b91505092915050565b6000813590506134fc81614e6e565b92915050565b60008135905061351181614e85565b92915050565b60008151905061352681614e85565b92915050565b600082601f83011261353d57600080fd5b813561354d8482602086016133de565b91505092915050565b600082601f83011261356757600080fd5b813561357784826020860161341c565b91505092915050565b60006060828403121561359257600080fd5b61359c606061490d565b9050600082013567ffffffffffffffff8111156135b857600080fd5b6135c48482850161346f565b600083015250602082013567ffffffffffffffff8111156135e457600080fd5b6135f0848285016134c3565b602083015250604082013567ffffffffffffffff81111561361057600080fd5b61361c84828501613499565b60408301525092915050565b60008135905061363781614e9c565b92915050565b60008135905061364c81614eb3565b92915050565b60006020828403121561366457600080fd5b60006136728482850161345a565b91505092915050565b6000806040838503121561368e57600080fd5b600061369c8582860161345a565b92505060206136ad8582860161345a565b9150509250929050565b6000806000606084860312156136cc57600080fd5b60006136da8682870161345a565b93505060206136eb8682870161345a565b92505060406136fc86828701613628565b9150509250925092565b6000806000806080858703121561371c57600080fd5b600061372a8782880161345a565b945050602061373b8782880161345a565b935050604061374c87828801613628565b925050606085013567ffffffffffffffff81111561376957600080fd5b6137758782880161352c565b91505092959194509250565b600080600080600060a0868803121561379957600080fd5b60006137a78882890161345a565b955050602086013567ffffffffffffffff8111156137c457600080fd5b6137d08882890161346f565b945050604086013567ffffffffffffffff8111156137ed57600080fd5b6137f9888289016134c3565b935050606086013567ffffffffffffffff81111561381657600080fd5b61382288828901613499565b925050608086013567ffffffffffffffff81111561383f57600080fd5b61384b88828901613556565b9150509295509295909350565b6000806040838503121561386b57600080fd5b60006138798582860161345a565b925050602061388a858286016134ed565b9150509250929050565b600080604083850312156138a757600080fd5b60006138b58582860161345a565b92505060206138c685828601613628565b9150509250929050565b6000602082840312156138e257600080fd5b60006138f0848285016134ed565b91505092915050565b60006020828403121561390b57600080fd5b600061391984828501613502565b91505092915050565b60006020828403121561393457600080fd5b600061394284828501613517565b91505092915050565b60006020828403121561395d57600080fd5b600082013567ffffffffffffffff81111561397757600080fd5b61398384828501613556565b91505092915050565b6000806040838503121561399f57600080fd5b600083013567ffffffffffffffff8111156139b957600080fd5b6139c585828601613556565b92505060206139d685828601613628565b9150509250929050565b6000806000606084860312156139f557600080fd5b600084013567ffffffffffffffff811115613a0f57600080fd5b613a1b86828701613580565b9350506020613a2c86828701613628565b9250506040613a3d8682870161345a565b9150509250925092565b600060208284031215613a5957600080fd5b6000613a6784828501613628565b91505092915050565b6000613a7c8383613c3f565b60208301905092915050565b6000613a94838361450b565b60208301905092915050565b6000613aac8383614529565b60208301905092915050565b613ac181614bf1565b82525050565b6000613ad282614a67565b613adc8185614ac5565b9350613ae783614a22565b8060005b83811015613b18578151613aff8882613a70565b9750613b0a83614a9e565b925050600181019050613aeb565b5085935050505092915050565b6000613b3082614a72565b613b3a8185614ad6565b9350613b4583614a32565b8060005b83811015613b76578151613b5d8882613a88565b9750613b6883614aab565b925050600181019050613b49565b5085935050505092915050565b6000613b8e82614a72565b613b988185614ae7565b9350613ba383614a32565b8060005b83811015613bd4578151613bbb8882613a88565b9750613bc683614aab565b925050600181019050613ba7565b5085935050505092915050565b6000613bec82614a7d565b613bf68185614af8565b9350613c0183614a42565b8060005b83811015613c32578151613c198882613aa0565b9750613c2483614ab8565b925050600181019050613c05565b5085935050505092915050565b613c4881614c03565b82525050565b613c5781614c03565b82525050565b6000613c6882614a88565b613c728185614b09565b9350613c82818560208601614c81565b613c8b81614e46565b840191505092915050565b6000613ca182614a93565b613cab8185614b1a565b9350613cbb818560208601614c81565b613cc481614e46565b840191505092915050565b6000613cda82614a93565b613ce48185614b2b565b9350613cf4818560208601614c81565b80840191505092915050565b60008154613d0d81614cde565b613d178186614b2b565b94506001821660008114613d325760018114613d4357613d76565b60ff19831686528186019350613d76565b613d4c85614a52565b60005b83811015613d6e57815481890152600182019150602081019050613d4f565b838801955050505b50505092915050565b6000613d8c603283614b1a565b91507f4552433732313a207472616e7366657220746f206e6f6e20455243373231526560008301527f63656976657220696d706c656d656e74657200000000000000000000000000006020830152604082019050919050565b6000613df2602683614b1a565b91507f4f776e61626c653a206e6577206f776e657220697320746865207a65726f206160008301527f64647265737300000000000000000000000000000000000000000000000000006020830152604082019050919050565b6000613e58601c83614b1a565b91507f4552433732313a20746f6b656e20616c7265616479206d696e746564000000006000830152602082019050919050565b6000613e98601a83614b1a565b91507f4e6f7420676f6f642064656c656761746520636f6e74726163740000000000006000830152602082019050919050565b6000613ed8602483614b1a565b91507f4552433732313a207472616e7366657220746f20746865207a65726f2061646460008301527f72657373000000000000000000000000000000000000000000000000000000006020830152604082019050919050565b6000613f3e601983614b1a565b91507f4552433732313a20617070726f766520746f2063616c6c6572000000000000006000830152602082019050919050565b6000613f7e600683614b2b565b91507f6e657874496400000000000000000000000000000000000000000000000000006000830152600682019050919050565b6000613fbe602c83614b1a565b91507f4552433732313a206f70657261746f7220717565727920666f72206e6f6e657860008301527f697374656e7420746f6b656e00000000000000000000000000000000000000006020830152604082019050919050565b6000614024603883614b1a565b91507f4552433732313a20617070726f76652063616c6c6572206973206e6f74206f7760008301527f6e6572206e6f7220617070726f76656420666f7220616c6c00000000000000006020830152604082019050919050565b600061408a602a83614b1a565b91507f4552433732313a2062616c616e636520717565727920666f7220746865207a6560008301527f726f2061646472657373000000000000000000000000000000000000000000006020830152604082019050919050565b60006140f0602983614b1a565b91507f4552433732313a206f776e657220717565727920666f72206e6f6e657869737460008301527f656e7420746f6b656e00000000000000000000000000000000000000000000006020830152604082019050919050565b6000614156602e83614b1a565b91507f45524337323155524953746f726167653a2055524920736574206f66206e6f6e60008301527f6578697374656e7420746f6b656e0000000000000000000000000000000000006020830152604082019050919050565b60006141bc600b83614b2b565b91507f746f74616c537570706c790000000000000000000000000000000000000000006000830152600b82019050919050565b60006141fc602083614b1a565b91507f4552433732313a206d696e7420746f20746865207a65726f20616464726573736000830152602082019050919050565b600061423c602c83614b1a565b91507f4552433732313a20617070726f76656420717565727920666f72206e6f6e657860008301527f697374656e7420746f6b656e00000000000000000000000000000000000000006020830152604082019050919050565b60006142a2602083614b1a565b91507f4f776e61626c653a2063616c6c6572206973206e6f7420746865206f776e65726000830152602082019050919050565b60006142e2602983614b1a565b91507f4552433732313a207472616e73666572206f6620746f6b656e2074686174206960008301527f73206e6f74206f776e00000000000000000000000000000000000000000000006020830152604082019050919050565b6000614348602f83614b1a565b91507f4552433732314d657461646174613a2055524920717565727920666f72206e6f60008301527f6e6578697374656e7420746f6b656e00000000000000000000000000000000006020830152604082019050919050565b60006143ae602183614b1a565b91507f4552433732313a20617070726f76616c20746f2063757272656e74206f776e6560008301527f72000000000000000000000000000000000000000000000000000000000000006020830152604082019050919050565b6000614414603183614b1a565b91507f4552433732313a207472616e736665722063616c6c6572206973206e6f74206f60008301527f776e6572206e6f7220617070726f7665640000000000000000000000000000006020830152604082019050919050565b600061447a600e83614b1a565b91507f4e6f7420596f757220746f6b656e0000000000000000000000000000000000006000830152602082019050919050565b600060608301600083015184820360008601526144ca8282613ac7565b915050602083015184820360208601526144e48282613be1565b915050604083015184820360408601526144fe8282613b25565b9150508091505092915050565b61451481614c5b565b82525050565b61452381614c5b565b82525050565b61453281614c65565b82525050565b60006145448284613ccf565b915081905092915050565b600061455b8286613ccf565b91506145678285613ccf565b91506145738284613d00565b9150819050949350505050565b600061458b82613f71565b9150819050919050565b60006145a0826141af565b9150819050919050565b60006020820190506145bf6000830184613ab8565b92915050565b60006080820190506145da6000830187613ab8565b6145e76020830186613ab8565b6145f4604083018561451a565b81810360608301526146068184613c5d565b905095945050505050565b6000602082019050818103600083015261462b8184613b83565b905092915050565b60006020820190506146486000830184613c4e565b92915050565b600060208201905081810360008301526146688184613c96565b905092915050565b6000602082019050818103600083015261468981613d7f565b9050919050565b600060208201905081810360008301526146a981613de5565b9050919050565b600060208201905081810360008301526146c981613e4b565b9050919050565b600060208201905081810360008301526146e981613e8b565b9050919050565b6000602082019050818103600083015261470981613ecb565b9050919050565b6000602082019050818103600083015261472981613f31565b9050919050565b6000602082019050818103600083015261474981613fb1565b9050919050565b6000602082019050818103600083015261476981614017565b9050919050565b600060208201905081810360008301526147898161407d565b9050919050565b600060208201905081810360008301526147a9816140e3565b9050919050565b600060208201905081810360008301526147c981614149565b9050919050565b600060208201905081810360008301526147e9816141ef565b9050919050565b600060208201905081810360008301526148098161422f565b9050919050565b6000602082019050818103600083015261482981614295565b9050919050565b60006020820190508181036000830152614849816142d5565b9050919050565b600060208201905081810360008301526148698161433b565b9050919050565b60006020820190508181036000830152614889816143a1565b9050919050565b600060208201905081810360008301526148a981614407565b9050919050565b600060208201905081810360008301526148c98161446d565b9050919050565b600060208201905081810360008301526148ea81846144ad565b905092915050565b6000602082019050614907600083018461451a565b92915050565b6000604051905081810181811067ffffffffffffffff8211171561493457614933614e17565b5b8060405250919050565b600067ffffffffffffffff82111561495957614958614e17565b5b602082029050602081019050919050565b600067ffffffffffffffff82111561498557614984614e17565b5b602082029050602081019050919050565b600067ffffffffffffffff8211156149b1576149b0614e17565b5b602082029050602081019050919050565b600067ffffffffffffffff8211156149dd576149dc614e17565b5b601f19601f8301169050602081019050919050565b600067ffffffffffffffff821115614a0d57614a0c614e17565b5b601f19601f8301169050602081019050919050565b6000819050602082019050919050565b6000819050602082019050919050565b6000819050602082019050919050565b60008190508160005260206000209050919050565b600081519050919050565b600081519050919050565b600081519050919050565b600081519050919050565b600081519050919050565b6000602082019050919050565b6000602082019050919050565b6000602082019050919050565b600082825260208201905092915050565b600082825260208201905092915050565b600082825260208201905092915050565b600082825260208201905092915050565b600082825260208201905092915050565b600082825260208201905092915050565b600081905092915050565b6000614b4182614c5b565b9150614b4c83614c5b565b9250827fffffffffffffffffffffffffffffffffffffffffffffffffffffffffffffffff03821115614b8157614b80614d8a565b5b828201905092915050565b6000614b9782614c5b565b9150614ba283614c5b565b925082614bb257614bb1614db9565b5b828204905092915050565b6000614bc882614c5b565b9150614bd383614c5b565b925082821015614be657614be5614d8a565b5b828203905092915050565b6000614bfc82614c3b565b9050919050565b60008115159050919050565b60007fffffffff0000000000000000000000000000000000000000000000000000000082169050919050565b600073ffffffffffffffffffffffffffffffffffffffff82169050919050565b6000819050919050565b600060ff82169050919050565b82818337600083830152505050565b60005b83811015614c9f578082015181840152602081019050614c84565b83811115614cae576000848401525b50505050565b6000614cbf82614c5b565b91506000821415614cd357614cd2614d8a565b5b600182039050919050565b60006002820490506001821680614cf657607f821691505b60208210811415614d0a57614d09614de8565b5b50919050565b6000614d1b82614c5b565b91507fffffffffffffffffffffffffffffffffffffffffffffffffffffffffffffffff821415614d4e57614d4d614d8a565b5b600182019050919050565b6000614d6482614c5b565b9150614d6f83614c5b565b925082614d7f57614d7e614db9565b5b828206905092915050565b7f4e487b7100000000000000000000000000000000000000000000000000000000600052601160045260246000fd5b7f4e487b7100000000000000000000000000000000000000000000000000000000600052601260045260246000fd5b7f4e487b7100000000000000000000000000000000000000000000000000000000600052602260045260246000fd5b7f4e487b7100000000000000000000000000000000000000000000000000000000600052604160045260246000fd5b6000601f19601f8301169050919050565b614e6081614bf1565b8114614e6b57600080fd5b50565b614e7781614c03565b8114614e8257600080fd5b50565b614e8e81614c0f565b8114614e9957600080fd5b50565b614ea581614c5b565b8114614eb057600080fd5b50565b614ebc81614c65565b8114614ec757600080fd5b5056fea2646970667358221220f8dc1d1b42d88eae34ccb0b83c86512e8aae19f895378fa26eac1c8f481feb3664736f6c63430008000033",
  "immutableReferences": {},
  "source": "// SPDX-License-Identifier: MIT\n// Token Myos\npragma solidity ^0.8.0;\n\nimport \"@openzeppelin/contracts/token/ERC721/extensions/ERC721URIStorage.sol\";\nimport \"@openzeppelin/contracts/access/Ownable.sol\";\n\ncontract Hero is ERC721URIStorage, Ownable {\n    using Strings for uint256;\n\n    struct Token {\n        bool[] booleans;\n        uint8[] params8; //parts\n        uint256[] params256; //params\n    }\n\n    address adressDelegateContract;\n    mapping(string => uint256) paramsContract;\n    mapping(uint256 => Token) private _tokenDetails;\n\n    string public baseURI;\n    string public baseExtension = \".json\";\n    bool public paused = false;\n\n    constructor(\n        string memory name,\n        string memory symbol,\n        string memory _initBaseURI\n    ) ERC721(name, symbol) {\n        paramsContract[\"nextId\"] = 0;\n        paramsContract[\"totalSupply\"] = 0;\n        setBaseURI(_initBaseURI);\n    }\n\n    ///@notice Retourne un nombre alatoire jusqu'a un maxNumber dfini\n    function random(uint8 maxNumber) internal returns (uint8) {\n        uint256 randomnumber = uint256(\n            keccak256(\n                abi.encodePacked(\n                    block.timestamp,\n                    msg.sender,\n                    paramsContract[\"nonce\"]\n                )\n            )\n        ) % maxNumber;\n        paramsContract[\"nonce\"]++;\n        return uint8(randomnumber);\n    }\n\n    ///@notice Retourne les metadatas d'un token, essentiel pour opensea et autres plateform\n    function _baseURI() internal view virtual override returns (string memory) {\n        return baseURI;\n    }\n\n    ///@notice Mettre a jour l'uri des metadatas des tokens \n    function setBaseURI(string memory _newBaseURI) public onlyOwner {\n        baseURI = _newBaseURI;\n    }\n\n    ///@notice Retourne les metadatas d'un token, essentiel pour opensea et autres plateform\n    function tokenURI(uint256 tokenId)\n        public\n        view\n        virtual\n        override\n        returns (string memory)\n    {\n        require(\n            _exists(tokenId),\n            \"ERC721Metadata: URI query for nonexistent token\"\n        );\n        string memory currentBaseURI = _baseURI();\n        return\n            bytes(currentBaseURI).length > 0\n                ? string(\n                    abi.encodePacked(\n                        currentBaseURI,\n                        tokenId.toString(),\n                        baseExtension\n                    )\n                )\n                : \"\";\n    }\n\n    ///@notice Foncton trs importante que l'ont rajoute sur presque toutes les autres fonctions pour vrifier que l'appel des fonctions ce fais bien depuis le contrat de dlgation pour plus de scuriter\n    modifier byDelegate() {\n        require(\n            (msg.sender == adressDelegateContract ||\n                adressDelegateContract == address(0)) && !paused,\n            \"Not good delegate contract\"\n        );\n        _;\n    }\n\n    ///@notice Mttre en pause le contrat en cas de problme\n    function pause(bool _state) external onlyOwner {\n        paused = _state;\n    }\n\n    ///@notice Fonction de mint, on envoi un tableau de uint8 et un tableau de uint256 qui seront les params de notre token, On enregistre la struct dans un mapping avec la key id, Puis on mint avec la mme key id\n    function mint(\n        address receiver,\n        bool[] memory booleans,\n        uint8[] memory params8,\n        uint256[] memory params256,\n        string memory _tokenURI\n    ) external payable byDelegate {\n        _tokenDetails[paramsContract[\"nextId\"]] = Token(\n            booleans,\n            params8,\n            params256\n        );\n        paramsContract[\"nextId\"]++;\n        paramsContract[\"totalSupply\"]++;\n        _safeMint(receiver, paramsContract[\"nextId\"]);\n        _setTokenURI(paramsContract[\"nextId\"], _tokenURI);\n    }\n\n    ///@notice Burn un token avec son id et diminu le total supply\n    function burn(uint256 tokenId) external byDelegate {\n        paramsContract[\"totalSupply\"]--;\n        _burn(tokenId);\n    }\n\n    ///@notice Transfr un token d'une adresse  une autre en utilsant l'id token\n    function transfer(\n        address from,\n        address to,\n        uint256 tokenId\n    ) external byDelegate {\n        _safeTransfer(from, to, tokenId, \"\");\n    }\n\n    ///@notice Rcuprer dans un tableau tout les id token d'un utilisateur\n    function getAllTokensForUser(address user)\n        external\n        view\n        returns (uint256[] memory)\n    {\n        uint256 tokenCount = balanceOf(user);\n        if (tokenCount == 0) {\n            return new uint256[](0);\n        } else {\n            uint256[] memory result = new uint256[](tokenCount);\n            uint256 totalTokens = paramsContract[\"nextId\"];\n            uint256 resultIndex = 0;\n            uint256 i;\n            for (i = 0; i < totalTokens; i++) {\n                if (ownerOf(i) == user) {\n                    result[resultIndex] = i;\n                    resultIndex++;\n                }\n            }\n            return result;\n        }\n    }\n\n    ///@notice Mttre a jour le Token (hero) en cas de level up par example en utilisant l'id en cl et en envoyant directement l'objet de la mise a jour du token\n    function updateToken(\n        Token memory tokenTemp,\n        uint256 tokenId,\n        address owner\n    ) external byDelegate {\n        require(ownerOf(tokenId) == owner, \"Not Your token\");\n        _tokenDetails[tokenId] = tokenTemp;\n    }\n\n    ///@notice Rcuprer les datas d'un token en utilisant son id\n    function getTokenDetails(uint256 tokenId)\n        external\n        view\n        returns (Token memory)\n    {\n        return _tokenDetails[tokenId];\n    }\n\n    ///@notice Mttre a jour une des datas du cotnrat en utilisant la key\n    function setParamsContract(string memory keyParams, uint256 valueParams)\n        external\n        onlyOwner\n    {\n        paramsContract[keyParams] = valueParams;\n    }\n\n    ///@notice Rcuperer une des datas du contrat en utilisant la key\n    function getParamsContract(string memory keyParams)\n        external\n        view\n        returns (uint256)\n    {\n        return paramsContract[keyParams];\n    }\n\n    ///@notice modifier l'addresse du contrat de dlgation pour permettre aux dit contrat d'intragir avec celui ci\n    function setAdressDelegateContract(address _adress) external onlyOwner {\n        adressDelegateContract = _adress;\n    }\n\n    ///@notice FUNDS OF CONTRACT\n\n    function withdraw() public onlyOwner {\n        payable(msg.sender).transfer(address(this).balance);\n    }\n\n    function deposit() public payable onlyOwner {}\n\n    function getBalance() public view returns (uint256) {\n        return address(this).balance;\n    }\n\n    ///@notice Rcuprer l'adresse du possesseur du token en utilisant la key id du token\n    function getOwnerOf(uint256 tokenId) external view returns (address) {\n        return ownerOf(tokenId);\n    }\n\n    ///@notice Rcuprer le nombre de token possd par un joueur\n    function getBalanceOf(address user) external view returns (uint256) {\n        return balanceOf(user);\n    }\n}\n\n/*Tout faire passer par le contrat pour permettre :\n-plus de scurit, quasi incraquable\n-aucun moyen que le serveur tombe a un moment et que les joueurs soit en panique\n-tracabilit et transparance maximum, ont peut voir quels actions ont tait effectu par qui et a quel moment\n\nL'avantage de faire de chaque items un jeton ERC20 :\n-Transmition facile d'un user  un autre, ou d'un contrat  un autre\n-Impossible de craquer le jeu et ce donner des millions d'item, en gros triche impossible\n-Vente des jetons facile\n-Petit icone sur meta mask pour son jeton a rajoute toujours une sorte d'attachement au jeton*/\n",
  "sourcePath": "/home/kevin/Bureau/homework/MYOS/contracts/Hero.sol",
  "compiler": {
    "name": "solc",
    "version": "0.8.0+commit.c7dfd78e.Emscripten.clang"
  },
  "schemaVersion": "3.4.7",
  "updatedAt": "2022-08-04T08:17:24.579Z",
  "devdoc": {
    "kind": "dev",
    "methods": {
      "approve(address,uint256)": {
        "details": "See {IERC721-approve}."
      },
      "balanceOf(address)": {
        "details": "See {IERC721-balanceOf}."
      },
      "getApproved(uint256)": {
        "details": "See {IERC721-getApproved}."
      },
      "isApprovedForAll(address,address)": {
        "details": "See {IERC721-isApprovedForAll}."
      },
      "name()": {
        "details": "See {IERC721Metadata-name}."
      },
      "owner()": {
        "details": "Returns the address of the current owner."
      },
      "ownerOf(uint256)": {
        "details": "See {IERC721-ownerOf}."
      },
      "renounceOwnership()": {
        "details": "Leaves the contract without owner. It will not be possible to call `onlyOwner` functions anymore. Can only be called by the current owner. NOTE: Renouncing ownership will leave the contract without an owner, thereby removing any functionality that is only available to the owner."
      },
      "safeTransferFrom(address,address,uint256)": {
        "details": "See {IERC721-safeTransferFrom}."
      },
      "safeTransferFrom(address,address,uint256,bytes)": {
        "details": "See {IERC721-safeTransferFrom}."
      },
      "setApprovalForAll(address,bool)": {
        "details": "See {IERC721-setApprovalForAll}."
      },
      "supportsInterface(bytes4)": {
        "details": "See {IERC165-supportsInterface}."
      },
      "symbol()": {
        "details": "See {IERC721Metadata-symbol}."
      },
      "transferFrom(address,address,uint256)": {
        "details": "See {IERC721-transferFrom}."
      },
      "transferOwnership(address)": {
        "details": "Transfers ownership of the contract to a new account (`newOwner`). Can only be called by the current owner."
      }
    },
    "version": 1
  },
  "userdoc": {
    "kind": "user",
    "methods": {
      "burn(uint256)": {
        "notice": "Burn un token avec son id et diminu le total supply"
      },
      "getAllTokensForUser(address)": {
        "notice": "Rcuprer dans un tableau tout les id token d'un utilisateur"
      },
      "getBalanceOf(address)": {
        "notice": "Rcuprer le nombre de token possd par un joueur"
      },
      "getOwnerOf(uint256)": {
        "notice": "Rcuprer l'adresse du possesseur du token en utilisant la key id du token"
      },
      "getParamsContract(string)": {
        "notice": "Rcuperer une des datas du contrat en utilisant la key"
      },
      "getTokenDetails(uint256)": {
        "notice": "Rcuprer les datas d'un token en utilisant son id"
      },
      "mint(address,bool[],uint8[],uint256[],string)": {
        "notice": "Fonction de mint, on envoi un tableau de uint8 et un tableau de uint256 qui seront les params de notre token, On enregistre la struct dans un mapping avec la key id, Puis on mint avec la mme key id"
      },
      "pause(bool)": {
        "notice": "Mttre en pause le contrat en cas de problme"
      },
      "setAdressDelegateContract(address)": {
        "notice": "modifier l'addresse du contrat de dlgation pour permettre aux dit contrat d'intragir avec celui ci"
      },
      "setBaseURI(string)": {
        "notice": "Mettre a jour l'uri des metadatas des tokens "
      },
      "setParamsContract(string,uint256)": {
        "notice": "Mttre a jour une des datas du cotnrat en utilisant la key"
      },
      "tokenURI(uint256)": {
        "notice": "Retourne les metadatas d'un token, essentiel pour opensea et autres plateform"
      },
      "transfer(address,address,uint256)": {
        "notice": "Transfr un token d'une adresse  une autre en utilsant l'id token"
      },
      "updateToken((bool[],uint8[],uint256[]),uint256,address)": {
        "notice": "Mttre a jour le Token (hero) en cas de level up par example en utilisant l'id en cl et en envoyant directement l'objet de la mise a jour du token"
      },
      "withdraw()": {
        "notice": "FUNDS OF CONTRACT"
      }
    },
    "version": 1
  }
}