{
  "contractName": "Hero",
  "abi": [
    {
      "inputs": [
        {
          "internalType": "string",
          "name": "name",
          "type": "string"
        },
        {
          "internalType": "string",
          "name": "symbol",
          "type": "string"
        },
        {
          "internalType": "string",
          "name": "_initBaseURI",
          "type": "string"
        }
      ],
      "stateMutability": "nonpayable",
      "type": "constructor"
    },
    {
      "anonymous": false,
      "inputs": [
        {
          "indexed": true,
          "internalType": "address",
          "name": "owner",
          "type": "address"
        },
        {
          "indexed": true,
          "internalType": "address",
          "name": "approved",
          "type": "address"
        },
        {
          "indexed": true,
          "internalType": "uint256",
          "name": "tokenId",
          "type": "uint256"
        }
      ],
      "name": "Approval",
      "type": "event"
    },
    {
      "anonymous": false,
      "inputs": [
        {
          "indexed": true,
          "internalType": "address",
          "name": "owner",
          "type": "address"
        },
        {
          "indexed": true,
          "internalType": "address",
          "name": "operator",
          "type": "address"
        },
        {
          "indexed": false,
          "internalType": "bool",
          "name": "approved",
          "type": "bool"
        }
      ],
      "name": "ApprovalForAll",
      "type": "event"
    },
    {
      "anonymous": false,
      "inputs": [
        {
          "indexed": true,
          "internalType": "address",
          "name": "previousOwner",
          "type": "address"
        },
        {
          "indexed": true,
          "internalType": "address",
          "name": "newOwner",
          "type": "address"
        }
      ],
      "name": "OwnershipTransferred",
      "type": "event"
    },
    {
      "anonymous": false,
      "inputs": [
        {
          "indexed": true,
          "internalType": "address",
          "name": "from",
          "type": "address"
        },
        {
          "indexed": true,
          "internalType": "address",
          "name": "to",
          "type": "address"
        },
        {
          "indexed": true,
          "internalType": "uint256",
          "name": "tokenId",
          "type": "uint256"
        }
      ],
      "name": "Transfer",
      "type": "event"
    },
    {
      "inputs": [
        {
          "internalType": "address",
          "name": "to",
          "type": "address"
        },
        {
          "internalType": "uint256",
          "name": "tokenId",
          "type": "uint256"
        }
      ],
      "name": "approve",
      "outputs": [],
      "stateMutability": "nonpayable",
      "type": "function"
    },
    {
      "inputs": [
        {
          "internalType": "address",
          "name": "owner",
          "type": "address"
        }
      ],
      "name": "balanceOf",
      "outputs": [
        {
          "internalType": "uint256",
          "name": "",
          "type": "uint256"
        }
      ],
      "stateMutability": "view",
      "type": "function"
    },
    {
      "inputs": [],
      "name": "baseExtension",
      "outputs": [
        {
          "internalType": "string",
          "name": "",
          "type": "string"
        }
      ],
      "stateMutability": "view",
      "type": "function"
    },
    {
      "inputs": [],
      "name": "baseURI",
      "outputs": [
        {
          "internalType": "string",
          "name": "",
          "type": "string"
        }
      ],
      "stateMutability": "view",
      "type": "function"
    },
    {
      "inputs": [
        {
          "internalType": "uint256",
          "name": "tokenId",
          "type": "uint256"
        }
      ],
      "name": "getApproved",
      "outputs": [
        {
          "internalType": "address",
          "name": "",
          "type": "address"
        }
      ],
      "stateMutability": "view",
      "type": "function"
    },
    {
      "inputs": [
        {
          "internalType": "address",
          "name": "owner",
          "type": "address"
        },
        {
          "internalType": "address",
          "name": "operator",
          "type": "address"
        }
      ],
      "name": "isApprovedForAll",
      "outputs": [
        {
          "internalType": "bool",
          "name": "",
          "type": "bool"
        }
      ],
      "stateMutability": "view",
      "type": "function"
    },
    {
      "inputs": [],
      "name": "name",
      "outputs": [
        {
          "internalType": "string",
          "name": "",
          "type": "string"
        }
      ],
      "stateMutability": "view",
      "type": "function"
    },
    {
      "inputs": [],
      "name": "owner",
      "outputs": [
        {
          "internalType": "address",
          "name": "",
          "type": "address"
        }
      ],
      "stateMutability": "view",
      "type": "function"
    },
    {
      "inputs": [
        {
          "internalType": "uint256",
          "name": "tokenId",
          "type": "uint256"
        }
      ],
      "name": "ownerOf",
      "outputs": [
        {
          "internalType": "address",
          "name": "",
          "type": "address"
        }
      ],
      "stateMutability": "view",
      "type": "function"
    },
    {
      "inputs": [],
      "name": "renounceOwnership",
      "outputs": [],
      "stateMutability": "nonpayable",
      "type": "function"
    },
    {
      "inputs": [
        {
          "internalType": "address",
          "name": "from",
          "type": "address"
        },
        {
          "internalType": "address",
          "name": "to",
          "type": "address"
        },
        {
          "internalType": "uint256",
          "name": "tokenId",
          "type": "uint256"
        }
      ],
      "name": "safeTransferFrom",
      "outputs": [],
      "stateMutability": "nonpayable",
      "type": "function"
    },
    {
      "inputs": [
        {
          "internalType": "address",
          "name": "from",
          "type": "address"
        },
        {
          "internalType": "address",
          "name": "to",
          "type": "address"
        },
        {
          "internalType": "uint256",
          "name": "tokenId",
          "type": "uint256"
        },
        {
          "internalType": "bytes",
          "name": "data",
          "type": "bytes"
        }
      ],
      "name": "safeTransferFrom",
      "outputs": [],
      "stateMutability": "nonpayable",
      "type": "function"
    },
    {
      "inputs": [
        {
          "internalType": "address",
          "name": "operator",
          "type": "address"
        },
        {
          "internalType": "bool",
          "name": "approved",
          "type": "bool"
        }
      ],
      "name": "setApprovalForAll",
      "outputs": [],
      "stateMutability": "nonpayable",
      "type": "function"
    },
    {
      "inputs": [
        {
          "internalType": "bytes4",
          "name": "interfaceId",
          "type": "bytes4"
        }
      ],
      "name": "supportsInterface",
      "outputs": [
        {
          "internalType": "bool",
          "name": "",
          "type": "bool"
        }
      ],
      "stateMutability": "view",
      "type": "function"
    },
    {
      "inputs": [],
      "name": "symbol",
      "outputs": [
        {
          "internalType": "string",
          "name": "",
          "type": "string"
        }
      ],
      "stateMutability": "view",
      "type": "function"
    },
    {
      "inputs": [
        {
          "internalType": "address",
          "name": "from",
          "type": "address"
        },
        {
          "internalType": "address",
          "name": "to",
          "type": "address"
        },
        {
          "internalType": "uint256",
          "name": "tokenId",
          "type": "uint256"
        }
      ],
      "name": "transferFrom",
      "outputs": [],
      "stateMutability": "nonpayable",
      "type": "function"
    },
    {
      "inputs": [
        {
          "internalType": "address",
          "name": "newOwner",
          "type": "address"
        }
      ],
      "name": "transferOwnership",
      "outputs": [],
      "stateMutability": "nonpayable",
      "type": "function"
    },
    {
      "inputs": [
        {
          "internalType": "string",
          "name": "_newBaseURI",
          "type": "string"
        }
      ],
      "name": "setBaseURI",
      "outputs": [],
      "stateMutability": "nonpayable",
      "type": "function"
    },
    {
      "inputs": [
        {
          "internalType": "uint256",
          "name": "tokenId",
          "type": "uint256"
        }
      ],
      "name": "tokenURI",
      "outputs": [
        {
          "internalType": "string",
          "name": "",
          "type": "string"
        }
      ],
      "stateMutability": "view",
      "type": "function"
    },
    {
      "inputs": [
        {
          "internalType": "bool",
          "name": "_state",
          "type": "bool"
        }
      ],
      "name": "pause",
      "outputs": [],
      "stateMutability": "nonpayable",
      "type": "function"
    },
    {
      "inputs": [
        {
          "internalType": "address",
          "name": "receiver",
          "type": "address"
        },
        {
          "internalType": "uint8[]",
          "name": "params8",
          "type": "uint8[]"
        },
        {
          "internalType": "uint256[]",
          "name": "params256",
          "type": "uint256[]"
        },
        {
          "internalType": "string",
          "name": "_tokenURI",
          "type": "string"
        }
      ],
      "name": "mint",
      "outputs": [],
      "stateMutability": "payable",
      "type": "function"
    },
    {
      "inputs": [
        {
          "internalType": "uint256",
          "name": "tokenId",
          "type": "uint256"
        }
      ],
      "name": "burn",
      "outputs": [],
      "stateMutability": "nonpayable",
      "type": "function"
    },
    {
      "inputs": [
        {
          "internalType": "address",
          "name": "from",
          "type": "address"
        },
        {
          "internalType": "address",
          "name": "to",
          "type": "address"
        },
        {
          "internalType": "uint256",
          "name": "tokenId",
          "type": "uint256"
        }
      ],
      "name": "transfer",
      "outputs": [],
      "stateMutability": "nonpayable",
      "type": "function"
    },
    {
      "inputs": [
        {
          "internalType": "address",
          "name": "user",
          "type": "address"
        }
      ],
      "name": "getAllTokensForUser",
      "outputs": [
        {
          "internalType": "uint256[]",
          "name": "",
          "type": "uint256[]"
        }
      ],
      "stateMutability": "view",
      "type": "function"
    },
    {
      "inputs": [
        {
          "components": [
            {
              "internalType": "uint8[]",
              "name": "params8",
              "type": "uint8[]"
            },
            {
              "internalType": "uint256[]",
              "name": "params256",
              "type": "uint256[]"
            }
          ],
          "internalType": "struct Hero.Token",
          "name": "tokenTemp",
          "type": "tuple"
        },
        {
          "internalType": "uint256",
          "name": "tokenId",
          "type": "uint256"
        },
        {
          "internalType": "address",
          "name": "owner",
          "type": "address"
        }
      ],
      "name": "updateToken",
      "outputs": [],
      "stateMutability": "nonpayable",
      "type": "function"
    },
    {
      "inputs": [
        {
          "internalType": "uint256",
          "name": "tokenId",
          "type": "uint256"
        }
      ],
      "name": "getTokenDetails",
      "outputs": [
        {
          "components": [
            {
              "internalType": "uint8[]",
              "name": "params8",
              "type": "uint8[]"
            },
            {
              "internalType": "uint256[]",
              "name": "params256",
              "type": "uint256[]"
            }
          ],
          "internalType": "struct Hero.Token",
          "name": "",
          "type": "tuple"
        }
      ],
      "stateMutability": "view",
      "type": "function"
    },
    {
      "inputs": [
        {
          "internalType": "string",
          "name": "key",
          "type": "string"
        },
        {
          "internalType": "uint256",
          "name": "value",
          "type": "uint256"
        }
      ],
      "name": "setParamsContract",
      "outputs": [],
      "stateMutability": "nonpayable",
      "type": "function"
    },
    {
      "inputs": [
        {
          "internalType": "string",
          "name": "key",
          "type": "string"
        }
      ],
      "name": "getParamsContract",
      "outputs": [
        {
          "internalType": "uint256",
          "name": "",
          "type": "uint256"
        }
      ],
      "stateMutability": "view",
      "type": "function"
    },
    {
      "inputs": [
        {
          "internalType": "address",
          "name": "_address",
          "type": "address"
        }
      ],
      "name": "setAddressDelegateContract",
      "outputs": [],
      "stateMutability": "nonpayable",
      "type": "function"
    },
    {
      "inputs": [],
      "name": "withdraw",
      "outputs": [],
      "stateMutability": "nonpayable",
      "type": "function"
    }
  ],
  "bytecode": "0x60c06040526005608081905264173539b7b760d91b60a09081526200002891600c9190620001f8565b50600d805460ff191690553480156200004057600080fd5b5060405162002bb338038062002bb383398101604081905262000063916200036b565b8251839083906200007c906000906020850190620001f8565b50805162000092906001906020840190620001f8565b505050620000af620000a96200011e60201b60201c565b62000122565b60006009604051620000cd90651b995e1d125960d21b815260060190565b908152604051908190036020018120919091556a746f74616c537570706c7960a81b8152600090600990600b0190815260405190819003602001902055620001158162000174565b50505062000439565b3390565b600780546001600160a01b038381166001600160a01b0319831681179093556040519116919082907f8be0079c531659141344cd1fd0a4f28419497f9722a3daafe3b4186f6b6457e090600090a35050565b6200017e62000197565b80516200019390600b906020840190620001f8565b5050565b6007546001600160a01b03163314620001f65760405162461bcd60e51b815260206004820181905260248201527f4f776e61626c653a2063616c6c6572206973206e6f7420746865206f776e6572604482015260640160405180910390fd5b565b8280546200020690620003fc565b90600052602060002090601f0160209004810192826200022a576000855562000275565b82601f106200024557805160ff191683800117855562000275565b8280016001018555821562000275579182015b828111156200027557825182559160200191906001019062000258565b506200028392915062000287565b5090565b5b8082111562000283576000815560010162000288565b634e487b7160e01b600052604160045260246000fd5b600082601f830112620002c657600080fd5b81516001600160401b0380821115620002e357620002e36200029e565b604051601f8301601f19908116603f011681019082821181831017156200030e576200030e6200029e565b816040528381526020925086838588010111156200032b57600080fd5b600091505b838210156200034f578582018301518183018401529082019062000330565b83821115620003615760008385830101525b9695505050505050565b6000806000606084860312156200038157600080fd5b83516001600160401b03808211156200039957600080fd5b620003a787838801620002b4565b94506020860151915080821115620003be57600080fd5b620003cc87838801620002b4565b93506040860151915080821115620003e357600080fd5b50620003f286828701620002b4565b9150509250925092565b600181811c908216806200041157607f821691505b602082108114156200043357634e487b7160e01b600052602260045260246000fd5b50919050565b61276a80620004496000396000f3fe6080604052600436106101cd5760003560e01c8063715018a6116100f7578063beabacc811610095578063e2f6215c11610064578063e2f6215c14610525578063e985e9c514610545578063f26bf0b71461058e578063f2fde38b146105ae57600080fd5b8063beabacc8146104a3578063c1e03728146104c3578063c6682862146104f0578063c87b56dd1461050557600080fd5b80639005ba95116100d15780639005ba951461043b57806395d89b411461044e578063a22cb46514610463578063b88d4fde1461048357600080fd5b8063715018a6146103db57806382de8fe9146103f05780638da5cb5b1461041d57600080fd5b80633ccfd60b1161016f5780636352211e1161013e5780636352211e146103585780636c0360eb1461037857806370a082311461038d578063714e3305146103bb57600080fd5b80633ccfd60b146102e357806342842e0e146102f857806342966c681461031857806355f804b31461033857600080fd5b8063081812fc116101ab578063081812fc1461024b578063095ea7b31461028357806323b872dd146102a35780633cb11944146102c357600080fd5b806301ffc9a7146101d257806302329a291461020757806306fdde0314610229575b600080fd5b3480156101de57600080fd5b506101f26101ed366004611da1565b6105ce565b60405190151581526020015b60405180910390f35b34801561021357600080fd5b50610227610222366004611dd3565b610620565b005b34801561023557600080fd5b5061023e61063b565b6040516101fe9190611e46565b34801561025757600080fd5b5061026b610266366004611e59565b6106cd565b6040516001600160a01b0390911681526020016101fe565b34801561028f57600080fd5b5061022761029e366004611e89565b6106f4565b3480156102af57600080fd5b506102276102be366004611eb3565b61080f565b3480156102cf57600080fd5b506102276102de366004611fae565b610840565b3480156102ef57600080fd5b5061022761086d565b34801561030457600080fd5b50610227610313366004611eb3565b6108a4565b34801561032457600080fd5b50610227610333366004611e59565b6108bf565b34801561034457600080fd5b50610227610353366004611ff3565b61095a565b34801561036457600080fd5b5061026b610373366004611e59565b610979565b34801561038457600080fd5b5061023e6109d9565b34801561039957600080fd5b506103ad6103a8366004612028565b610a67565b6040519081526020016101fe565b3480156103c757600080fd5b506102276103d6366004612028565b610aed565b3480156103e757600080fd5b50610227610b17565b3480156103fc57600080fd5b5061041061040b366004612028565b610b2b565b6040516101fe919061207e565b34801561042957600080fd5b506007546001600160a01b031661026b565b61022761044936600461218b565b610c48565b34801561045a57600080fd5b5061023e610e07565b34801561046f57600080fd5b5061022761047e366004612224565b610e16565b34801561048f57600080fd5b5061022761049e366004612257565b610e21565b3480156104af57600080fd5b506102276104be366004611eb3565b610e59565b3480156104cf57600080fd5b506104e36104de366004611e59565b610eca565b6040516101fe91906122c7565b3480156104fc57600080fd5b5061023e610fbd565b34801561051157600080fd5b5061023e610520366004611e59565b610fca565b34801561053157600080fd5b50610227610540366004612336565b6110a8565b34801561055157600080fd5b506101f26105603660046123f9565b6001600160a01b03918216600090815260056020908152604080832093909416825291909152205460ff1690565b34801561059a57600080fd5b506103ad6105a9366004611ff3565b61119e565b3480156105ba57600080fd5b506102276105c9366004612028565b6111c6565b60006001600160e01b031982166380ac58cd60e01b14806105ff57506001600160e01b03198216635b5e139f60e01b145b8061061a57506301ffc9a760e01b6001600160e01b03198316145b92915050565b61062861123c565b600d805460ff1916911515919091179055565b60606000805461064a90612423565b80601f016020809104026020016040519081016040528092919081815260200182805461067690612423565b80156106c35780601f10610698576101008083540402835291602001916106c3565b820191906000526020600020905b8154815290600101906020018083116106a657829003601f168201915b5050505050905090565b60006106d882611296565b506000908152600460205260409020546001600160a01b031690565b60006106ff82610979565b9050806001600160a01b0316836001600160a01b031614156107725760405162461bcd60e51b815260206004820152602160248201527f4552433732313a20617070726f76616c20746f2063757272656e74206f776e656044820152603960f91b60648201526084015b60405180910390fd5b336001600160a01b038216148061078e575061078e8133610560565b6108005760405162461bcd60e51b815260206004820152603e60248201527f4552433732313a20617070726f76652063616c6c6572206973206e6f7420746f60448201527f6b656e206f776e6572206e6f7220617070726f76656420666f7220616c6c00006064820152608401610769565b61080a83836112f5565b505050565b6108193382611363565b6108355760405162461bcd60e51b815260040161076990612458565b61080a8383836113e2565b61084861123c565b8060098360405161085991906124a6565b908152604051908190036020019020555050565b61087561123c565b60405133904780156108fc02916000818181858888f193505050501580156108a1573d6000803e3d6000fd5b50565b61080a83838360405180602001604052806000815250610e21565b6008546001600160a01b0316336001600160a01b031614806108ea57506008546001600160a01b0316155b80156108f95750600d5460ff16155b6109155760405162461bcd60e51b8152600401610769906124c2565b6040516a746f74616c537570706c7960a81b8152600990600b01908152604051908190036020019020805490600061094c8361250f565b91905055506108a18161157e565b61096261123c565b805161097590600b906020840190611be1565b5050565b6000818152600260205260408120546001600160a01b03168061061a5760405162461bcd60e51b8152602060048201526018602482015277115490cdcc8c4e881a5b9d985b1a59081d1bdad95b88125160421b6044820152606401610769565b600b80546109e690612423565b80601f0160208091040260200160405190810160405280929190818152602001828054610a1290612423565b8015610a5f5780601f10610a3457610100808354040283529160200191610a5f565b820191906000526020600020905b815481529060010190602001808311610a4257829003601f168201915b505050505081565b60006001600160a01b038216610ad15760405162461bcd60e51b815260206004820152602960248201527f4552433732313a2061646472657373207a65726f206973206e6f7420612076616044820152683634b21037bbb732b960b91b6064820152608401610769565b506001600160a01b031660009081526003602052604090205490565b610af561123c565b600880546001600160a01b0319166001600160a01b0392909216919091179055565b610b1f61123c565b610b2960006115be565b565b60606000610b3883610a67565b905080610b55575050604080516000815260208101909152919050565b60008167ffffffffffffffff811115610b7057610b70611eef565b604051908082528060200260200182016040528015610b99578160200160208202803683370190505b50905060006009604051610bb990651b995e1d125960d21b815260060190565b9081526040519081900360200190205490506000805b82811015610c3757866001600160a01b0316610bea82610979565b6001600160a01b03161415610c255780848381518110610c0c57610c0c612526565b602090810291909101015281610c218161253c565b9250505b80610c2f8161253c565b915050610bcf565b509195945050505050565b50919050565b6008546001600160a01b0316336001600160a01b03161480610c7357506008546001600160a01b0316155b8015610c825750600d5460ff16155b610c9e5760405162461bcd60e51b8152600401610769906124c2565b604051806040016040528084815260200183815250600a60006009604051610cd290651b995e1d125960d21b815260060190565b90815260200160405180910390205481526020019081526020016000206000820151816000019080519060200190610d0b929190611c65565b506020828101518051610d249260018501920190611d06565b50905050610d5b846009604051610d4790651b995e1d125960d21b815260060190565b908152602001604051809103902054611610565b610d8e6009604051610d7990651b995e1d125960d21b815260060190565b9081526020016040518091039020548261162a565b604051651b995e1d125960d21b81526009906006019081526040519081900360200190208054906000610dc08361253c565b90915550506040516a746f74616c537570706c7960a81b8152600990600b019081526040519081900360200190208054906000610dfc8361253c565b919050555050505050565b60606001805461064a90612423565b6109753383836116c4565b610e2b3383611363565b610e475760405162461bcd60e51b815260040161076990612458565b610e5384848484611793565b50505050565b6008546001600160a01b0316336001600160a01b03161480610e8457506008546001600160a01b0316155b8015610e935750600d5460ff16155b610eaf5760405162461bcd60e51b8152600401610769906124c2565b61080a83838360405180602001604052806000815250611793565b604080518082018252606080825260208083018290526000858152600a825284902084518154928302810184018652948501828152939493909284928491840182828015610f5557602002820191906000526020600020906000905b825461010083900a900460ff16815260206001928301818104948501949093039092029101808411610f265790505b5050505050815260200160018201805480602002602001604051908101604052809291908181526020018280548015610fad57602002820191906000526020600020905b815481526020019060010190808311610f99575b5050505050815250509050919050565b600c80546109e690612423565b6000818152600260205260409020546060906001600160a01b03166110495760405162461bcd60e51b815260206004820152602f60248201527f4552433732314d657461646174613a2055524920717565727920666f72206e6f60448201526e3732bc34b9ba32b73a103a37b5b2b760891b6064820152608401610769565b60006110536117c6565b9050600081511161107357604051806020016040528060008152506110a1565b8061107d846117d5565b600c60405160200161109193929190612557565b6040516020818303038152906040525b9392505050565b6008546001600160a01b0316336001600160a01b031614806110d357506008546001600160a01b0316155b80156110e25750600d5460ff16155b6110fe5760405162461bcd60e51b8152600401610769906124c2565b806001600160a01b031661111183610979565b6001600160a01b0316146111585760405162461bcd60e51b815260206004820152600e60248201526d2737ba102cb7bab9103a37b5b2b760911b6044820152606401610769565b6000828152600a6020908152604090912084518051869361117d928492910190611c65565b5060208281015180516111969260018501920190611d06565b505050505050565b60006009826040516111b091906124a6565b9081526020016040518091039020549050919050565b6111ce61123c565b6001600160a01b0381166112335760405162461bcd60e51b815260206004820152602660248201527f4f776e61626c653a206e6577206f776e657220697320746865207a65726f206160448201526564647265737360d01b6064820152608401610769565b6108a1816115be565b6007546001600160a01b03163314610b295760405162461bcd60e51b815260206004820181905260248201527f4f776e61626c653a2063616c6c6572206973206e6f7420746865206f776e65726044820152606401610769565b6000818152600260205260409020546001600160a01b03166108a15760405162461bcd60e51b8152602060048201526018602482015277115490cdcc8c4e881a5b9d985b1a59081d1bdad95b88125160421b6044820152606401610769565b600081815260046020526040902080546001600160a01b0319166001600160a01b038416908117909155819061132a82610979565b6001600160a01b03167f8c5be1e5ebec7d5bd14f71427d1e84f3dd0314c0f7b2291e5b200ac8c7c3b92560405160405180910390a45050565b60008061136f83610979565b9050806001600160a01b0316846001600160a01b031614806113b657506001600160a01b0380821660009081526005602090815260408083209388168352929052205460ff165b806113da5750836001600160a01b03166113cf846106cd565b6001600160a01b0316145b949350505050565b826001600160a01b03166113f582610979565b6001600160a01b0316146114595760405162461bcd60e51b815260206004820152602560248201527f4552433732313a207472616e736665722066726f6d20696e636f72726563742060448201526437bbb732b960d91b6064820152608401610769565b6001600160a01b0382166114bb5760405162461bcd60e51b8152602060048201526024808201527f4552433732313a207472616e7366657220746f20746865207a65726f206164646044820152637265737360e01b6064820152608401610769565b6114c66000826112f5565b6001600160a01b03831660009081526003602052604081208054600192906114ef90849061261b565b90915550506001600160a01b038216600090815260036020526040812080546001929061151d908490612632565b909155505060008181526002602052604080822080546001600160a01b0319166001600160a01b0386811691821790925591518493918716917fddf252ad1be2c89b69c2b068fc378daa952ba7f163c4a11628f55a4df523b3ef91a4505050565b611587816118d3565b600081815260066020526040902080546115a090612423565b1590506108a15760008181526006602052604081206108a191611d40565b600780546001600160a01b038381166001600160a01b0319831681179093556040519116919082907f8be0079c531659141344cd1fd0a4f28419497f9722a3daafe3b4186f6b6457e090600090a35050565b61097582826040518060200160405280600081525061196e565b6000828152600260205260409020546001600160a01b03166116a55760405162461bcd60e51b815260206004820152602e60248201527f45524337323155524953746f726167653a2055524920736574206f66206e6f6e60448201526d32bc34b9ba32b73a103a37b5b2b760911b6064820152608401610769565b6000828152600660209081526040909120825161080a92840190611be1565b816001600160a01b0316836001600160a01b031614156117265760405162461bcd60e51b815260206004820152601960248201527f4552433732313a20617070726f766520746f2063616c6c6572000000000000006044820152606401610769565b6001600160a01b03838116600081815260056020908152604080832094871680845294825291829020805460ff191686151590811790915591519182527f17307eab39ab6107e8899845ad3d59bd9653f200f220920489ca2b5937696c31910160405180910390a3505050565b61179e8484846113e2565b6117aa848484846119a1565b610e535760405162461bcd60e51b81526004016107699061264a565b6060600b805461064a90612423565b6060816117f95750506040805180820190915260018152600360fc1b602082015290565b8160005b8115611823578061180d8161253c565b915061181c9050600a836126b2565b91506117fd565b60008167ffffffffffffffff81111561183e5761183e611eef565b6040519080825280601f01601f191660200182016040528015611868576020820181803683370190505b5090505b84156113da5761187d60018361261b565b915061188a600a866126c6565b611895906030612632565b60f81b8183815181106118aa576118aa612526565b60200101906001600160f81b031916908160001a9053506118cc600a866126b2565b945061186c565b60006118de82610979565b90506118eb6000836112f5565b6001600160a01b038116600090815260036020526040812080546001929061191490849061261b565b909155505060008281526002602052604080822080546001600160a01b0319169055518391906001600160a01b038416907fddf252ad1be2c89b69c2b068fc378daa952ba7f163c4a11628f55a4df523b3ef908390a45050565b6119788383611a9f565b61198560008484846119a1565b61080a5760405162461bcd60e51b81526004016107699061264a565b60006001600160a01b0384163b15611a9457604051630a85bd0160e11b81526001600160a01b0385169063150b7a02906119e59033908990889088906004016126da565b6020604051808303816000875af1925050508015611a20575060408051601f3d908101601f19168201909252611a1d91810190612717565b60015b611a7a573d808015611a4e576040519150601f19603f3d011682016040523d82523d6000602084013e611a53565b606091505b508051611a725760405162461bcd60e51b81526004016107699061264a565b805181602001fd5b6001600160e01b031916630a85bd0160e11b1490506113da565b506001949350505050565b6001600160a01b038216611af55760405162461bcd60e51b815260206004820181905260248201527f4552433732313a206d696e7420746f20746865207a65726f20616464726573736044820152606401610769565b6000818152600260205260409020546001600160a01b031615611b5a5760405162461bcd60e51b815260206004820152601c60248201527f4552433732313a20746f6b656e20616c7265616479206d696e746564000000006044820152606401610769565b6001600160a01b0382166000908152600360205260408120805460019290611b83908490612632565b909155505060008181526002602052604080822080546001600160a01b0319166001600160a01b03861690811790915590518392907fddf252ad1be2c89b69c2b068fc378daa952ba7f163c4a11628f55a4df523b3ef908290a45050565b828054611bed90612423565b90600052602060002090601f016020900481019282611c0f5760008555611c55565b82601f10611c2857805160ff1916838001178555611c55565b82800160010185558215611c55579182015b82811115611c55578251825591602001919060010190611c3a565b50611c61929150611d76565b5090565b82805482825590600052602060002090601f01602090048101928215611c555791602002820160005b83821115611ccc57835183826101000a81548160ff021916908360ff1602179055509260200192600101602081600001049283019260010302611c8e565b8015611cf95782816101000a81549060ff0219169055600101602081600001049283019260010302611ccc565b5050611c61929150611d76565b828054828255906000526020600020908101928215611c555791602002820182811115611c55578251825591602001919060010190611c3a565b508054611d4c90612423565b6000825580601f10611d5c575050565b601f0160209004906000526020600020908101906108a191905b5b80821115611c615760008155600101611d77565b6001600160e01b0319811681146108a157600080fd5b600060208284031215611db357600080fd5b81356110a181611d8b565b80358015158114611dce57600080fd5b919050565b600060208284031215611de557600080fd5b6110a182611dbe565b60005b83811015611e09578181015183820152602001611df1565b83811115610e535750506000910152565b60008151808452611e32816020860160208601611dee565b601f01601f19169290920160200192915050565b6020815260006110a16020830184611e1a565b600060208284031215611e6b57600080fd5b5035919050565b80356001600160a01b0381168114611dce57600080fd5b60008060408385031215611e9c57600080fd5b611ea583611e72565b946020939093013593505050565b600080600060608486031215611ec857600080fd5b611ed184611e72565b9250611edf60208501611e72565b9150604084013590509250925092565b634e487b7160e01b600052604160045260246000fd5b604051601f8201601f1916810167ffffffffffffffff81118282101715611f2e57611f2e611eef565b604052919050565b600067ffffffffffffffff831115611f5057611f50611eef565b611f63601f8401601f1916602001611f05565b9050828152838383011115611f7757600080fd5b828260208301376000602084830101529392505050565b600082601f830112611f9f57600080fd5b6110a183833560208501611f36565b60008060408385031215611fc157600080fd5b823567ffffffffffffffff811115611fd857600080fd5b611fe485828601611f8e565b95602094909401359450505050565b60006020828403121561200557600080fd5b813567ffffffffffffffff81111561201c57600080fd5b6113da84828501611f8e565b60006020828403121561203a57600080fd5b6110a182611e72565b600081518084526020808501945080840160005b8381101561207357815187529582019590820190600101612057565b509495945050505050565b6020815260006110a16020830184612043565b600067ffffffffffffffff8211156120ab576120ab611eef565b5060051b60200190565b600082601f8301126120c657600080fd5b813560206120db6120d683612091565b611f05565b82815260059290921b840181019181810190868411156120fa57600080fd5b8286015b8481101561212557803560ff811681146121185760008081fd5b83529183019183016120fe565b509695505050505050565b600082601f83011261214157600080fd5b813560206121516120d683612091565b82815260059290921b8401810191818101908684111561217057600080fd5b8286015b848110156121255780358352918301918301612174565b600080600080608085870312156121a157600080fd5b6121aa85611e72565b9350602085013567ffffffffffffffff808211156121c757600080fd5b6121d3888389016120b5565b945060408701359150808211156121e957600080fd5b6121f588838901612130565b9350606087013591508082111561220b57600080fd5b5061221887828801611f8e565b91505092959194509250565b6000806040838503121561223757600080fd5b61224083611e72565b915061224e60208401611dbe565b90509250929050565b6000806000806080858703121561226d57600080fd5b61227685611e72565b935061228460208601611e72565b925060408501359150606085013567ffffffffffffffff8111156122a757600080fd5b8501601f810187136122b857600080fd5b61221887823560208401611f36565b6020808252825160408383015280516060840181905260009291820190839060808601905b8083101561230f57835160ff1682529284019260019290920191908401906122ec565b5092860151858403601f190160408701529261232b8185612043565b979650505050505050565b60008060006060848603121561234b57600080fd5b833567ffffffffffffffff8082111561236357600080fd5b908501906040828803121561237757600080fd5b60405160408101818110838211171561239257612392611eef565b6040528235828111156123a457600080fd5b6123b0898286016120b5565b8252506020830135828111156123c557600080fd5b6123d189828601612130565b602083015250809550505050602084013591506123f060408501611e72565b90509250925092565b6000806040838503121561240c57600080fd5b61241583611e72565b915061224e60208401611e72565b600181811c9082168061243757607f821691505b60208210811415610c4257634e487b7160e01b600052602260045260246000fd5b6020808252602e908201527f4552433732313a2063616c6c6572206973206e6f7420746f6b656e206f776e6560408201526d1c881b9bdc88185c1c1c9bdd995960921b606082015260800190565b600082516124b8818460208701611dee565b9190910192915050565b6020808252601a908201527f4e6f7420676f6f642064656c656761746520636f6e7472616374000000000000604082015260600190565b634e487b7160e01b600052601160045260246000fd5b60008161251e5761251e6124f9565b506000190190565b634e487b7160e01b600052603260045260246000fd5b6000600019821415612550576125506124f9565b5060010190565b60008451602061256a8285838a01611dee565b85519184019161257d8184848a01611dee565b8554920191600090600181811c908083168061259a57607f831692505b8583108114156125b857634e487b7160e01b85526022600452602485fd5b8080156125cc57600181146125dd5761260a565b60ff1985168852838801955061260a565b60008b81526020902060005b858110156126025781548a8201529084019088016125e9565b505083880195505b50939b9a5050505050505050505050565b60008282101561262d5761262d6124f9565b500390565b60008219821115612645576126456124f9565b500190565b60208082526032908201527f4552433732313a207472616e7366657220746f206e6f6e20455243373231526560408201527131b2b4bb32b91034b6b83632b6b2b73a32b960711b606082015260800190565b634e487b7160e01b600052601260045260246000fd5b6000826126c1576126c161269c565b500490565b6000826126d5576126d561269c565b500690565b6001600160a01b038581168252841660208201526040810183905260806060820181905260009061270d90830184611e1a565b9695505050505050565b60006020828403121561272957600080fd5b81516110a181611d8b56fea2646970667358221220fceaac031501ca97ca9f3234a19cb2d1d44636293bf62b9544a99876b53d57b664736f6c634300080b0033",
  "immutableReferences": {},
  "source": "// SPDX-License-Identifier: MIT\r\n// Token Myos\r\npragma solidity ^0.8.0;\r\n\r\nimport \"@openzeppelin/contracts/token/ERC721/extensions/ERC721URIStorage.sol\";\r\nimport \"@openzeppelin/contracts/access/Ownable.sol\";\r\n\r\ncontract Hero is ERC721URIStorage, Ownable {\r\n  using Strings for uint256;\r\n\r\n  struct Token {\r\n    uint8[] params8; //parts\r\n    uint256[] params256; //params\r\n  }\r\n\r\n  address addressDelegateContract;\r\n  mapping(string => uint256) paramsContract;\r\n  mapping(uint256 => Token) private _tokenDetails;\r\n\r\n  string public baseURI;\r\n  string public baseExtension = \".json\";\r\n  bool private paused = false;\r\n\r\n  constructor(\r\n    string memory name,\r\n    string memory symbol,\r\n    string memory _initBaseURI\r\n  ) ERC721(name, symbol) {\r\n    paramsContract[\"nextId\"] = 0;\r\n    paramsContract[\"totalSupply\"] = 0;\r\n    setBaseURI(_initBaseURI);\r\n  }\r\n\r\n  ///@notice Returns a random number up to a defined maxNumber\r\n  ///@param maxNumber max number uint8 for generate random number\r\n  ///@return randomNumber generated number uint8\r\n  function random(uint8 maxNumber) internal returns (uint8) {\r\n    uint256 randomnumber = uint256(\r\n      keccak256(abi.encodePacked(block.timestamp, _msgSender(), paramsContract[\"nonce\"]))\r\n    ) % maxNumber;\r\n    paramsContract[\"nonce\"]++;\r\n    return uint8(randomnumber);\r\n  }\r\n\r\n  ///@notice Return the metadatas of a token, essential for opensea and other platforms\r\n  function _baseURI() internal view virtual override returns (string memory) {\r\n    return baseURI;\r\n  }\r\n\r\n  ///@notice Update the uri of tokens metadatas\r\n  function setBaseURI(string memory _newBaseURI) public onlyOwner {\r\n    baseURI = _newBaseURI;\r\n  }\r\n\r\n  ///@notice Return the metadatas of a token, essential for opensea and other platforms\r\n  function tokenURI(uint256 tokenId)\r\n    public\r\n    view\r\n    virtual\r\n    override\r\n    returns (string memory)\r\n  {\r\n    require(_exists(tokenId), \"ERC721Metadata: URI query for nonexistent token\");\r\n    string memory currentBaseURI = _baseURI();\r\n    return\r\n      bytes(currentBaseURI).length > 0\r\n        ? string(abi.encodePacked(currentBaseURI, tokenId.toString(), baseExtension))\r\n        : \"\";\r\n  }\r\n\r\n  ///@notice very important function that we add on almost all the other functions to check that the call of the functions is done well since the contract of delegation for more security\r\n  modifier byDelegate() {\r\n    require(\r\n      (_msgSender() == addressDelegateContract ||\r\n        addressDelegateContract == address(0)) && !paused,\r\n      \"Not good delegate contract\"\r\n    );\r\n    _;\r\n  }\r\n\r\n  ///@notice Pause the contract in case of problems\r\n  function pause(bool _state) external onlyOwner {\r\n    paused = _state;\r\n  }\r\n\r\n  ///@notice Function of mint token\r\n  ///@param receiver receiver address of token _requireMinted\r\n  ///@param params8 array uint8 used for stats\r\n  ///@param params256 array uint256 used for complex parameter\r\n  ///@param _tokenURI uri of metadatas token\r\n  function mint(\r\n    address receiver,\r\n    uint8[] memory params8,\r\n    uint256[] memory params256,\r\n    string memory _tokenURI\r\n  ) external payable byDelegate {\r\n    _tokenDetails[paramsContract[\"nextId\"]] = Token(params8, params256);\r\n    _safeMint(receiver, paramsContract[\"nextId\"]);\r\n    _setTokenURI(paramsContract[\"nextId\"], _tokenURI);\r\n    paramsContract[\"nextId\"]++;\r\n    paramsContract[\"totalSupply\"]++;\r\n  }\r\n\r\n  ///@notice Burn a token with its id and decrease the total supply\r\n  function burn(uint256 tokenId) external byDelegate {\r\n    paramsContract[\"totalSupply\"]--;\r\n    _burn(tokenId);\r\n  }\r\n\r\n  ///@notice Transfer a token from one address to another using the token id\r\n  function transfer(\r\n    address from,\r\n    address to,\r\n    uint256 tokenId\r\n  ) external byDelegate {\r\n    _safeTransfer(from, to, tokenId, \"\");\r\n  }\r\n\r\n  ///@notice Retrieve in a table all the ids token of a user\r\n  ///@param user address of user own token\r\n  ///@return ids ids token of user\r\n  function getAllTokensForUser(address user) external view returns (uint256[] memory) {\r\n    uint256 tokenCount = balanceOf(user);\r\n    if (tokenCount == 0) {\r\n      return new uint256[](0);\r\n    } else {\r\n      uint256[] memory result = new uint256[](tokenCount);\r\n      uint256 totalTokens = paramsContract[\"nextId\"];\r\n      uint256 resultIndex;\r\n      uint256 i;\r\n      for (i = 0; i < totalTokens; i++) {\r\n        if (ownerOf(i) == user) {\r\n          result[resultIndex] = i;\r\n          resultIndex++;\r\n        }\r\n      }\r\n      return result;\r\n    }\r\n  }\r\n\r\n  ///@notice Update the token (hero) in case of level up for example by using the id as key and sending directly the object of the token update\r\n  ///@param tokenTemp structure of token you want to return\r\n  ///@param tokenId id of token you want to update\r\n  ///@param owner sender of tx origin by delegateContract\r\n  function updateToken(\r\n    Token memory tokenTemp,\r\n    uint256 tokenId,\r\n    address owner\r\n  ) external byDelegate {\r\n    require(ownerOf(tokenId) == owner, \"Not Your token\");\r\n    _tokenDetails[tokenId] = tokenTemp;\r\n  }\r\n\r\n  ///@notice Retrieve data from a token using its id\r\n  ///@param tokenId key id of token\r\n  ///@return token structure of token\r\n  function getTokenDetails(uint256 tokenId) external view returns (Token memory) {\r\n    return _tokenDetails[tokenId];\r\n  }\r\n\r\n  ///@notice Update one of the cotnrat data using the key\r\n  ///@param key key index of parameter you want to return\r\n  ///@param value value you want to set\r\n  function setParamsContract(string memory key, uint256 value) external onlyOwner {\r\n    paramsContract[key] = value;\r\n  }\r\n\r\n  ///@notice Retrieve one of the contract data using the key\r\n  ///@param key key index of parameter you want to return\r\n  ///@return paramContract value of parameter\r\n  function getParamsContract(string memory key) external view returns (uint256) {\r\n    return paramsContract[key];\r\n  }\r\n\r\n  ///@notice modify the address of the delegation contract to allow the said contract to interact with this one\r\n  ///@param _address address of delegate contract\r\n  function setAddressDelegateContract(address _address) external onlyOwner {\r\n    addressDelegateContract = _address;\r\n  }\r\n\r\n  ///@notice FUNDS OF CONTRACT\r\n\r\n  function withdraw() external onlyOwner {\r\n    payable(_msgSender()).transfer(address(this).balance);\r\n  }\r\n}\r\n\r\n/*Tout faire passer par le contrat pour permettre :\r\n-plus de scurit, quasi incraquable\r\n-aucun moyen que le serveur tombe a un moment et que les joueurs soit en panique\r\n-tracabilit et transparance maximum, ont peut voir quels actions ont tait effectu par qui et a quel moment\r\n\r\nL'avantage de faire de chaque items un jeton ERC20 :\r\n-Transmition facile d'un user  un autre, ou d'un contrat  un autre\r\n-Impossible de craquer le jeu et ce donner des millions d'item, en gros triche impossible\r\n-Vente des jetons facile\r\n-Petit icone sur meta mask pour son jeton a rajoute toujours une sorte d'attachement au jeton*/\r\n",
  "sourcePath": "C:\\Users\\Kevin\\Desktop\\WorkHome\\--Solidity--MYOS\\contracts\\Hero.sol",
  "compiler": {
    "name": "solc",
    "version": "0.8.11+commit.d7f03943.Emscripten.clang"
  },
  "schemaVersion": "3.4.6",
  "updatedAt": "2022-11-05T21:04:56.770Z",
  "devdoc": {
    "kind": "dev",
    "methods": {
      "approve(address,uint256)": {
        "details": "See {IERC721-approve}."
      },
      "balanceOf(address)": {
        "details": "See {IERC721-balanceOf}."
      },
      "getAllTokensForUser(address)": {
        "params": {
          "user": "address of user own token"
        },
        "returns": {
          "_0": "ids ids token of user"
        }
      },
      "getApproved(uint256)": {
        "details": "See {IERC721-getApproved}."
      },
      "getParamsContract(string)": {
        "params": {
          "key": "key index of parameter you want to return"
        },
        "returns": {
          "_0": "paramContract value of parameter"
        }
      },
      "getTokenDetails(uint256)": {
        "params": {
          "tokenId": "key id of token"
        },
        "returns": {
          "_0": "token structure of token"
        }
      },
      "isApprovedForAll(address,address)": {
        "details": "See {IERC721-isApprovedForAll}."
      },
      "mint(address,uint8[],uint256[],string)": {
        "params": {
          "_tokenURI": "uri of metadatas token",
          "params256": "array uint256 used for complex parameter",
          "params8": "array uint8 used for stats",
          "receiver": "receiver address of token _requireMinted"
        }
      },
      "name()": {
        "details": "See {IERC721Metadata-name}."
      },
      "owner()": {
        "details": "Returns the address of the current owner."
      },
      "ownerOf(uint256)": {
        "details": "See {IERC721-ownerOf}."
      },
      "renounceOwnership()": {
        "details": "Leaves the contract without owner. It will not be possible to call `onlyOwner` functions anymore. Can only be called by the current owner. NOTE: Renouncing ownership will leave the contract without an owner, thereby removing any functionality that is only available to the owner."
      },
      "safeTransferFrom(address,address,uint256)": {
        "details": "See {IERC721-safeTransferFrom}."
      },
      "safeTransferFrom(address,address,uint256,bytes)": {
        "details": "See {IERC721-safeTransferFrom}."
      },
      "setAddressDelegateContract(address)": {
        "params": {
          "_address": "address of delegate contract"
        }
      },
      "setApprovalForAll(address,bool)": {
        "details": "See {IERC721-setApprovalForAll}."
      },
      "setParamsContract(string,uint256)": {
        "params": {
          "key": "key index of parameter you want to return",
          "value": "value you want to set"
        }
      },
      "supportsInterface(bytes4)": {
        "details": "See {IERC165-supportsInterface}."
      },
      "symbol()": {
        "details": "See {IERC721Metadata-symbol}."
      },
      "transferFrom(address,address,uint256)": {
        "details": "See {IERC721-transferFrom}."
      },
      "transferOwnership(address)": {
        "details": "Transfers ownership of the contract to a new account (`newOwner`). Can only be called by the current owner."
      },
      "updateToken((uint8[],uint256[]),uint256,address)": {
        "params": {
          "owner": "sender of tx origin by delegateContract",
          "tokenId": "id of token you want to update",
          "tokenTemp": "structure of token you want to return"
        }
      }
    },
    "version": 1
  },
  "userdoc": {
    "kind": "user",
    "methods": {
      "burn(uint256)": {
        "notice": "Burn a token with its id and decrease the total supply"
      },
      "getAllTokensForUser(address)": {
        "notice": "Retrieve in a table all the ids token of a user"
      },
      "getParamsContract(string)": {
        "notice": "Retrieve one of the contract data using the key"
      },
      "getTokenDetails(uint256)": {
        "notice": "Retrieve data from a token using its id"
      },
      "mint(address,uint8[],uint256[],string)": {
        "notice": "Function of mint token"
      },
      "pause(bool)": {
        "notice": "Pause the contract in case of problems"
      },
      "setAddressDelegateContract(address)": {
        "notice": "modify the address of the delegation contract to allow the said contract to interact with this one"
      },
      "setBaseURI(string)": {
        "notice": "Update the uri of tokens metadatas"
      },
      "setParamsContract(string,uint256)": {
        "notice": "Update one of the cotnrat data using the key"
      },
      "tokenURI(uint256)": {
        "notice": "Return the metadatas of a token, essential for opensea and other platforms"
      },
      "transfer(address,address,uint256)": {
        "notice": "Transfer a token from one address to another using the token id"
      },
      "updateToken((uint8[],uint256[]),uint256,address)": {
        "notice": "Update the token (hero) in case of level up for example by using the id as key and sending directly the object of the token update"
      },
      "withdraw()": {
        "notice": "FUNDS OF CONTRACT"
      }
    },
    "version": 1
  }
}