{
  "contractName": "Items",
  "abi": [
    {
      "inputs": [
        {
          "internalType": "string",
          "name": "baseUri",
          "type": "string"
        }
      ],
      "stateMutability": "nonpayable",
      "type": "constructor"
    },
    {
      "anonymous": false,
      "inputs": [
        {
          "indexed": true,
          "internalType": "address",
          "name": "account",
          "type": "address"
        },
        {
          "indexed": true,
          "internalType": "address",
          "name": "operator",
          "type": "address"
        },
        {
          "indexed": false,
          "internalType": "bool",
          "name": "approved",
          "type": "bool"
        }
      ],
      "name": "ApprovalForAll",
      "type": "event"
    },
    {
      "anonymous": false,
      "inputs": [
        {
          "indexed": true,
          "internalType": "address",
          "name": "previousOwner",
          "type": "address"
        },
        {
          "indexed": true,
          "internalType": "address",
          "name": "newOwner",
          "type": "address"
        }
      ],
      "name": "OwnershipTransferred",
      "type": "event"
    },
    {
      "anonymous": false,
      "inputs": [
        {
          "indexed": true,
          "internalType": "address",
          "name": "operator",
          "type": "address"
        },
        {
          "indexed": true,
          "internalType": "address",
          "name": "from",
          "type": "address"
        },
        {
          "indexed": true,
          "internalType": "address",
          "name": "to",
          "type": "address"
        },
        {
          "indexed": false,
          "internalType": "uint256[]",
          "name": "ids",
          "type": "uint256[]"
        },
        {
          "indexed": false,
          "internalType": "uint256[]",
          "name": "values",
          "type": "uint256[]"
        }
      ],
      "name": "TransferBatch",
      "type": "event"
    },
    {
      "anonymous": false,
      "inputs": [
        {
          "indexed": true,
          "internalType": "address",
          "name": "operator",
          "type": "address"
        },
        {
          "indexed": true,
          "internalType": "address",
          "name": "from",
          "type": "address"
        },
        {
          "indexed": true,
          "internalType": "address",
          "name": "to",
          "type": "address"
        },
        {
          "indexed": false,
          "internalType": "uint256",
          "name": "id",
          "type": "uint256"
        },
        {
          "indexed": false,
          "internalType": "uint256",
          "name": "value",
          "type": "uint256"
        }
      ],
      "name": "TransferSingle",
      "type": "event"
    },
    {
      "anonymous": false,
      "inputs": [
        {
          "indexed": false,
          "internalType": "string",
          "name": "value",
          "type": "string"
        },
        {
          "indexed": true,
          "internalType": "uint256",
          "name": "id",
          "type": "uint256"
        }
      ],
      "name": "URI",
      "type": "event"
    },
    {
      "inputs": [
        {
          "internalType": "address",
          "name": "account",
          "type": "address"
        },
        {
          "internalType": "uint256",
          "name": "id",
          "type": "uint256"
        }
      ],
      "name": "balanceOf",
      "outputs": [
        {
          "internalType": "uint256",
          "name": "",
          "type": "uint256"
        }
      ],
      "stateMutability": "view",
      "type": "function"
    },
    {
      "inputs": [
        {
          "internalType": "address[]",
          "name": "accounts",
          "type": "address[]"
        },
        {
          "internalType": "uint256[]",
          "name": "ids",
          "type": "uint256[]"
        }
      ],
      "name": "balanceOfBatch",
      "outputs": [
        {
          "internalType": "uint256[]",
          "name": "",
          "type": "uint256[]"
        }
      ],
      "stateMutability": "view",
      "type": "function"
    },
    {
      "inputs": [
        {
          "internalType": "address",
          "name": "account",
          "type": "address"
        },
        {
          "internalType": "address",
          "name": "operator",
          "type": "address"
        }
      ],
      "name": "isApprovedForAll",
      "outputs": [
        {
          "internalType": "bool",
          "name": "",
          "type": "bool"
        }
      ],
      "stateMutability": "view",
      "type": "function"
    },
    {
      "inputs": [],
      "name": "owner",
      "outputs": [
        {
          "internalType": "address",
          "name": "",
          "type": "address"
        }
      ],
      "stateMutability": "view",
      "type": "function"
    },
    {
      "inputs": [],
      "name": "renounceOwnership",
      "outputs": [],
      "stateMutability": "nonpayable",
      "type": "function"
    },
    {
      "inputs": [
        {
          "internalType": "address",
          "name": "from",
          "type": "address"
        },
        {
          "internalType": "address",
          "name": "to",
          "type": "address"
        },
        {
          "internalType": "uint256[]",
          "name": "ids",
          "type": "uint256[]"
        },
        {
          "internalType": "uint256[]",
          "name": "amounts",
          "type": "uint256[]"
        },
        {
          "internalType": "bytes",
          "name": "data",
          "type": "bytes"
        }
      ],
      "name": "safeBatchTransferFrom",
      "outputs": [],
      "stateMutability": "nonpayable",
      "type": "function"
    },
    {
      "inputs": [
        {
          "internalType": "address",
          "name": "from",
          "type": "address"
        },
        {
          "internalType": "address",
          "name": "to",
          "type": "address"
        },
        {
          "internalType": "uint256",
          "name": "id",
          "type": "uint256"
        },
        {
          "internalType": "uint256",
          "name": "amount",
          "type": "uint256"
        },
        {
          "internalType": "bytes",
          "name": "data",
          "type": "bytes"
        }
      ],
      "name": "safeTransferFrom",
      "outputs": [],
      "stateMutability": "nonpayable",
      "type": "function"
    },
    {
      "inputs": [
        {
          "internalType": "address",
          "name": "operator",
          "type": "address"
        },
        {
          "internalType": "bool",
          "name": "approved",
          "type": "bool"
        }
      ],
      "name": "setApprovalForAll",
      "outputs": [],
      "stateMutability": "nonpayable",
      "type": "function"
    },
    {
      "inputs": [
        {
          "internalType": "bytes4",
          "name": "interfaceId",
          "type": "bytes4"
        }
      ],
      "name": "supportsInterface",
      "outputs": [
        {
          "internalType": "bool",
          "name": "",
          "type": "bool"
        }
      ],
      "stateMutability": "view",
      "type": "function"
    },
    {
      "inputs": [
        {
          "internalType": "address",
          "name": "newOwner",
          "type": "address"
        }
      ],
      "name": "transferOwnership",
      "outputs": [],
      "stateMutability": "nonpayable",
      "type": "function"
    },
    {
      "inputs": [
        {
          "internalType": "uint256",
          "name": "",
          "type": "uint256"
        }
      ],
      "name": "uri",
      "outputs": [
        {
          "internalType": "string",
          "name": "",
          "type": "string"
        }
      ],
      "stateMutability": "view",
      "type": "function"
    },
    {
      "inputs": [
        {
          "internalType": "string",
          "name": "name",
          "type": "string"
        },
        {
          "internalType": "uint256",
          "name": "rarity",
          "type": "uint256"
        },
        {
          "internalType": "uint256",
          "name": "price",
          "type": "uint256"
        },
        {
          "internalType": "uint256",
          "name": "id",
          "type": "uint256"
        }
      ],
      "name": "setItem",
      "outputs": [],
      "stateMutability": "nonpayable",
      "type": "function"
    },
    {
      "inputs": [
        {
          "internalType": "uint256",
          "name": "tokenId",
          "type": "uint256"
        }
      ],
      "name": "getSupply",
      "outputs": [
        {
          "internalType": "uint256",
          "name": "",
          "type": "uint256"
        }
      ],
      "stateMutability": "view",
      "type": "function"
    },
    {
      "inputs": [
        {
          "internalType": "address",
          "name": "_address",
          "type": "address"
        }
      ],
      "name": "setaddressProxyContract",
      "outputs": [],
      "stateMutability": "nonpayable",
      "type": "function"
    },
    {
      "inputs": [
        {
          "internalType": "address",
          "name": "to",
          "type": "address"
        },
        {
          "internalType": "uint256",
          "name": "tokenId",
          "type": "uint256"
        },
        {
          "internalType": "uint256",
          "name": "amount",
          "type": "uint256"
        }
      ],
      "name": "mint",
      "outputs": [],
      "stateMutability": "payable",
      "type": "function"
    },
    {
      "inputs": [
        {
          "internalType": "address",
          "name": "to",
          "type": "address"
        },
        {
          "internalType": "uint256",
          "name": "tokenId",
          "type": "uint256"
        },
        {
          "internalType": "uint256",
          "name": "amount",
          "type": "uint256"
        }
      ],
      "name": "burn",
      "outputs": [],
      "stateMutability": "nonpayable",
      "type": "function"
    },
    {
      "inputs": [
        {
          "internalType": "uint256",
          "name": "tokenId",
          "type": "uint256"
        }
      ],
      "name": "getItemDetails",
      "outputs": [
        {
          "components": [
            {
              "internalType": "string",
              "name": "name",
              "type": "string"
            },
            {
              "internalType": "uint256",
              "name": "rarity",
              "type": "uint256"
            },
            {
              "internalType": "uint256",
              "name": "price",
              "type": "uint256"
            },
            {
              "internalType": "bool",
              "name": "valid",
              "type": "bool"
            }
          ],
          "internalType": "struct ItemsLib.Item",
          "name": "",
          "type": "tuple"
        }
      ],
      "stateMutability": "view",
      "type": "function"
    }
  ],
  "bytecode": "0x60806040523480156200001157600080fd5b50604051620021223803806200212283398101604081905262000034916200017a565b80620000408162000053565b506200004c336200006c565b5062000293565b805162000068906002906020840190620000be565b5050565b600380546001600160a01b038381166001600160a01b0319831681179093556040519116919082907f8be0079c531659141344cd1fd0a4f28419497f9722a3daafe3b4186f6b6457e090600090a35050565b828054620000cc9062000256565b90600052602060002090601f016020900481019282620000f057600085556200013b565b82601f106200010b57805160ff19168380011785556200013b565b828001600101855582156200013b579182015b828111156200013b5782518255916020019190600101906200011e565b50620001499291506200014d565b5090565b5b808211156200014957600081556001016200014e565b634e487b7160e01b600052604160045260246000fd5b600060208083850312156200018e57600080fd5b82516001600160401b0380821115620001a657600080fd5b818501915085601f830112620001bb57600080fd5b815181811115620001d057620001d062000164565b604051601f8201601f19908116603f01168101908382118183101715620001fb57620001fb62000164565b8160405282815288868487010111156200021457600080fd5b600093505b8284101562000238578484018601518185018701529285019262000219565b828411156200024a5760008684830101525b98975050505050505050565b600181811c908216806200026b57607f821691505b602082108114156200028d57634e487b7160e01b600052602260045260246000fd5b50919050565b611e7f80620002a36000396000f3fe6080604052600436106100fd5760003560e01c806373004ca011610095578063f242432a11610064578063f242432a146102e7578063f2fde38b14610307578063f5298aca14610327578063f77ee79d14610347578063fd1e457e1461037457600080fd5b806373004ca0146102295780638da5cb5b14610256578063a22cb4651461027e578063e985e9c51461029e57600080fd5b8063156e29f6116100d1578063156e29f6146101b45780632eb2c2d6146101c75780634e1273f4146101e7578063715018a61461021457600080fd5b8062fdd58e1461010257806301ffc9a714610135578063078ef740146101655780630e89341c14610187575b600080fd5b34801561010e57600080fd5b5061012261011d366004611501565b610394565b6040519081526020015b60405180910390f35b34801561014157600080fd5b50610155610150366004611541565b61042a565b604051901515815260200161012c565b34801561017157600080fd5b50610185610180366004611565565b61047c565b005b34801561019357600080fd5b506101a76101a2366004611580565b6104a6565b60405161012c91906115e6565b6101856101c23660046115f9565b61053a565b3480156101d357600080fd5b506101856101e2366004611778565b6105f0565b3480156101f357600080fd5b50610207610202366004611822565b61063c565b60405161012c9190611928565b34801561022057600080fd5b50610185610766565b34801561023557600080fd5b50610249610244366004611580565b61077a565b60405161012c919061193b565b34801561026257600080fd5b506003546040516001600160a01b03909116815260200161012c565b34801561028a57600080fd5b50610185610299366004611983565b61087b565b3480156102aa57600080fd5b506101556102b93660046119bf565b6001600160a01b03918216600090815260016020908152604080832093909416825291909152205460ff1690565b3480156102f357600080fd5b506101856103023660046119f2565b61088a565b34801561031357600080fd5b50610185610322366004611565565b6108cf565b34801561033357600080fd5b506101856103423660046115f9565b610948565b34801561035357600080fd5b50610122610362366004611580565b60009081526006602052604090205490565b34801561038057600080fd5b5061018561038f366004611a57565b6109e8565b60006001600160a01b0383166104045760405162461bcd60e51b815260206004820152602a60248201527f455243313135353a2061646472657373207a65726f206973206e6f742061207660448201526930b634b21037bbb732b960b11b60648201526084015b60405180910390fd5b506000908152602081815260408083206001600160a01b03949094168352929052205490565b60006001600160e01b03198216636cdb3d1360e11b148061045b57506001600160e01b031982166303a24d0760e21b145b8061047657506301ffc9a760e01b6001600160e01b03198316145b92915050565b610484610ac6565b600480546001600160a01b0319166001600160a01b0392909216919091179055565b6060600280546104b590611adf565b80601f01602080910402602001604051908101604052809291908181526020018280546104e190611adf565b801561052e5780601f106105035761010080835404028352916020019161052e565b820191906000526020600020905b81548152906001019060200180831161051157829003601f168201915b50505050509050919050565b6004546001600160a01b0316336001600160a01b0316148061056557506004546001600160a01b0316155b6105ab5760405162461bcd60e51b8152602060048201526017602482015276139bdd0819dbdbd908141c9bde1e4818dbdb9d1c9858dd604a1b60448201526064016103fb565b600082815260066020526040812080548392906105c9908490611b30565b925050819055506105eb83838360405180602001604052806000815250610b20565b505050565b6001600160a01b03851633148061060c575061060c85336102b9565b6106285760405162461bcd60e51b81526004016103fb90611b48565b6106358585858585610c34565b5050505050565b606081518351146106a15760405162461bcd60e51b815260206004820152602960248201527f455243313135353a206163636f756e747320616e6420696473206c656e677468604482015268040dad2e6dac2e8c6d60bb1b60648201526084016103fb565b6000835167ffffffffffffffff8111156106bd576106bd61162c565b6040519080825280602002602001820160405280156106e6578160200160208202803683370190505b50905060005b845181101561075e5761073185828151811061070a5761070a611b96565b602002602001015185838151811061072457610724611b96565b6020026020010151610394565b82828151811061074357610743611b96565b602090810291909101015261075781611bac565b90506106ec565b509392505050565b61076e610ac6565b6107786000610e11565b565b6107a760405180608001604052806060815260200160008152602001600081526020016000151581525090565b600082815260076020526040908190208151608081019092528054829082906107cf90611adf565b80601f01602080910402602001604051908101604052809291908181526020018280546107fb90611adf565b80156108485780601f1061081d57610100808354040283529160200191610848565b820191906000526020600020905b81548152906001019060200180831161082b57829003601f168201915b5050509183525050600182015460208201526002820154604082015260039091015460ff16151560609091015292915050565b610886338383610e63565b5050565b6001600160a01b0385163314806108a657506108a685336102b9565b6108c25760405162461bcd60e51b81526004016103fb90611b48565b6106358585858585610f44565b6108d7610ac6565b6001600160a01b03811661093c5760405162461bcd60e51b815260206004820152602660248201527f4f776e61626c653a206e6577206f776e657220697320746865207a65726f206160448201526564647265737360d01b60648201526084016103fb565b61094581610e11565b50565b6004546001600160a01b0316336001600160a01b0316148061097357506004546001600160a01b0316155b6109b95760405162461bcd60e51b8152602060048201526017602482015276139bdd0819dbdbd908141c9bde1e4818dbdb9d1c9858dd604a1b60448201526064016103fb565b600082815260066020526040812080548392906109d7908490611bc7565b909155506105eb905083838361106e565b6109f0610ac6565b60008181526007602052604090206003015460ff16610a13576005805460010190555b604051806080016040528086868080601f016020809104026020016040519081016040528093929190818152602001838380828437600092018290525093855250505060208083018790526040808401879052600160609094019390935284825260078152919020825180519192610a909284929091019061144c565b5060208201516001820155604082015160028201556060909101516003909101805460ff19169115159190911790555050505050565b6003546001600160a01b031633146107785760405162461bcd60e51b815260206004820181905260248201527f4f776e61626c653a2063616c6c6572206973206e6f7420746865206f776e657260448201526064016103fb565b6001600160a01b038416610b805760405162461bcd60e51b815260206004820152602160248201527f455243313135353a206d696e7420746f20746865207a65726f206164647265736044820152607360f81b60648201526084016103fb565b336000610b8c856111ea565b90506000610b99856111ea565b90506000868152602081815260408083206001600160a01b038b16845290915281208054879290610bcb908490611b30565b909155505060408051878152602081018790526001600160a01b03808a1692600092918716917fc3d58168c5ae7397731d063d5bbf3d657854427343f4c083240f7aacaa2d0f62910160405180910390a4610c2b83600089898989611235565b50505050505050565b8151835114610c965760405162461bcd60e51b815260206004820152602860248201527f455243313135353a2069647320616e6420616d6f756e7473206c656e677468206044820152670dad2e6dac2e8c6d60c31b60648201526084016103fb565b6001600160a01b038416610cbc5760405162461bcd60e51b81526004016103fb90611bde565b3360005b8451811015610da3576000858281518110610cdd57610cdd611b96565b602002602001015190506000858381518110610cfb57610cfb611b96565b602090810291909101810151600084815280835260408082206001600160a01b038e168352909352919091205490915081811015610d4b5760405162461bcd60e51b81526004016103fb90611c23565b6000838152602081815260408083206001600160a01b038e8116855292528083208585039055908b16825281208054849290610d88908490611b30565b9250508190555050505080610d9c90611bac565b9050610cc0565b50846001600160a01b0316866001600160a01b0316826001600160a01b03167f4a39dc06d4c0dbc64b70af90fd698a233a518aa5d07e595d983b8c0526c8f7fb8787604051610df3929190611c6d565b60405180910390a4610e09818787878787611391565b505050505050565b600380546001600160a01b038381166001600160a01b0319831681179093556040519116919082907f8be0079c531659141344cd1fd0a4f28419497f9722a3daafe3b4186f6b6457e090600090a35050565b816001600160a01b0316836001600160a01b03161415610ed75760405162461bcd60e51b815260206004820152602960248201527f455243313135353a2073657474696e6720617070726f76616c20737461747573604482015268103337b91039b2b63360b91b60648201526084016103fb565b6001600160a01b03838116600081815260016020908152604080832094871680845294825291829020805460ff191686151590811790915591519182527f17307eab39ab6107e8899845ad3d59bd9653f200f220920489ca2b5937696c31910160405180910390a3505050565b6001600160a01b038416610f6a5760405162461bcd60e51b81526004016103fb90611bde565b336000610f76856111ea565b90506000610f83856111ea565b90506000868152602081815260408083206001600160a01b038c16845290915290205485811015610fc65760405162461bcd60e51b81526004016103fb90611c23565b6000878152602081815260408083206001600160a01b038d8116855292528083208985039055908a16825281208054889290611003908490611b30565b909155505060408051888152602081018890526001600160a01b03808b16928c821692918816917fc3d58168c5ae7397731d063d5bbf3d657854427343f4c083240f7aacaa2d0f62910160405180910390a4611063848a8a8a8a8a611235565b505050505050505050565b6001600160a01b0383166110d05760405162461bcd60e51b815260206004820152602360248201527f455243313135353a206275726e2066726f6d20746865207a65726f206164647260448201526265737360e81b60648201526084016103fb565b3360006110dc846111ea565b905060006110e9846111ea565b60408051602080820183526000918290528882528181528282206001600160a01b038b16835290522054909150848110156111725760405162461bcd60e51b8152602060048201526024808201527f455243313135353a206275726e20616d6f756e7420657863656564732062616c604482015263616e636560e01b60648201526084016103fb565b6000868152602081815260408083206001600160a01b038b81168086529184528285208a8703905582518b81529384018a90529092908816917fc3d58168c5ae7397731d063d5bbf3d657854427343f4c083240f7aacaa2d0f62910160405180910390a4604080516020810190915260009052610c2b565b6040805160018082528183019092526060916000919060208083019080368337019050509050828160008151811061122457611224611b96565b602090810291909101015292915050565b6001600160a01b0384163b15610e095760405163f23a6e6160e01b81526001600160a01b0385169063f23a6e61906112799089908990889088908890600401611c9b565b6020604051808303816000875af19250505080156112b4575060408051601f3d908101601f191682019092526112b191810190611ce0565b60015b611361576112c0611cfd565b806308c379a014156112fa57506112d5611d19565b806112e057506112fc565b8060405162461bcd60e51b81526004016103fb91906115e6565b505b60405162461bcd60e51b815260206004820152603460248201527f455243313135353a207472616e7366657220746f206e6f6e2d455243313135356044820152732932b1b2b4bb32b91034b6b83632b6b2b73a32b960611b60648201526084016103fb565b6001600160e01b0319811663f23a6e6160e01b14610c2b5760405162461bcd60e51b81526004016103fb90611da3565b6001600160a01b0384163b15610e095760405163bc197c8160e01b81526001600160a01b0385169063bc197c81906113d59089908990889088908890600401611deb565b6020604051808303816000875af1925050508015611410575060408051601f3d908101601f1916820190925261140d91810190611ce0565b60015b61141c576112c0611cfd565b6001600160e01b0319811663bc197c8160e01b14610c2b5760405162461bcd60e51b81526004016103fb90611da3565b82805461145890611adf565b90600052602060002090601f01602090048101928261147a57600085556114c0565b82601f1061149357805160ff19168380011785556114c0565b828001600101855582156114c0579182015b828111156114c05782518255916020019190600101906114a5565b506114cc9291506114d0565b5090565b5b808211156114cc57600081556001016114d1565b80356001600160a01b03811681146114fc57600080fd5b919050565b6000806040838503121561151457600080fd5b61151d836114e5565b946020939093013593505050565b6001600160e01b03198116811461094557600080fd5b60006020828403121561155357600080fd5b813561155e8161152b565b9392505050565b60006020828403121561157757600080fd5b61155e826114e5565b60006020828403121561159257600080fd5b5035919050565b6000815180845260005b818110156115bf576020818501810151868301820152016115a3565b818111156115d1576000602083870101525b50601f01601f19169290920160200192915050565b60208152600061155e6020830184611599565b60008060006060848603121561160e57600080fd5b611617846114e5565b95602085013595506040909401359392505050565b634e487b7160e01b600052604160045260246000fd5b601f8201601f1916810167ffffffffffffffff811182821017156116685761166861162c565b6040525050565b600067ffffffffffffffff8211156116895761168961162c565b5060051b60200190565b600082601f8301126116a457600080fd5b813560206116b18261166f565b6040516116be8282611642565b83815260059390931b85018201928281019150868411156116de57600080fd5b8286015b848110156116f957803583529183019183016116e2565b509695505050505050565b600082601f83011261171557600080fd5b813567ffffffffffffffff81111561172f5761172f61162c565b604051611746601f8301601f191660200182611642565b81815284602083860101111561175b57600080fd5b816020850160208301376000918101602001919091529392505050565b600080600080600060a0868803121561179057600080fd5b611799866114e5565b94506117a7602087016114e5565b9350604086013567ffffffffffffffff808211156117c457600080fd5b6117d089838a01611693565b945060608801359150808211156117e657600080fd5b6117f289838a01611693565b9350608088013591508082111561180857600080fd5b5061181588828901611704565b9150509295509295909350565b6000806040838503121561183557600080fd5b823567ffffffffffffffff8082111561184d57600080fd5b818501915085601f83011261186157600080fd5b8135602061186e8261166f565b60405161187b8282611642565b83815260059390931b850182019282810191508984111561189b57600080fd5b948201945b838610156118c0576118b1866114e5565b825294820194908201906118a0565b965050860135925050808211156118d657600080fd5b506118e385828601611693565b9150509250929050565b600081518084526020808501945080840160005b8381101561191d57815187529582019590820190600101611901565b509495945050505050565b60208152600061155e60208301846118ed565b60208152600082516080602084015261195760a0840182611599565b905060208401516040840152604084015160608401526060840151151560808401528091505092915050565b6000806040838503121561199657600080fd5b61199f836114e5565b9150602083013580151581146119b457600080fd5b809150509250929050565b600080604083850312156119d257600080fd5b6119db836114e5565b91506119e9602084016114e5565b90509250929050565b600080600080600060a08688031215611a0a57600080fd5b611a13866114e5565b9450611a21602087016114e5565b93506040860135925060608601359150608086013567ffffffffffffffff811115611a4b57600080fd5b61181588828901611704565b600080600080600060808688031215611a6f57600080fd5b853567ffffffffffffffff80821115611a8757600080fd5b818801915088601f830112611a9b57600080fd5b813581811115611aaa57600080fd5b896020828501011115611abc57600080fd5b60209283019a909950918801359760408101359750606001359550909350505050565b600181811c90821680611af357607f821691505b60208210811415611b1457634e487b7160e01b600052602260045260246000fd5b50919050565b634e487b7160e01b600052601160045260246000fd5b60008219821115611b4357611b43611b1a565b500190565b6020808252602e908201527f455243313135353a2063616c6c6572206973206e6f7420746f6b656e206f776e60408201526d195c881bdc88185c1c1c9bdd995960921b606082015260800190565b634e487b7160e01b600052603260045260246000fd5b6000600019821415611bc057611bc0611b1a565b5060010190565b600082821015611bd957611bd9611b1a565b500390565b60208082526025908201527f455243313135353a207472616e7366657220746f20746865207a65726f206164604082015264647265737360d81b606082015260800190565b6020808252602a908201527f455243313135353a20696e73756666696369656e742062616c616e636520666f60408201526939103a3930b739b332b960b11b606082015260800190565b604081526000611c8060408301856118ed565b8281036020840152611c9281856118ed565b95945050505050565b6001600160a01b03868116825285166020820152604081018490526060810183905260a060808201819052600090611cd590830184611599565b979650505050505050565b600060208284031215611cf257600080fd5b815161155e8161152b565b600060033d1115611d165760046000803e5060005160e01c5b90565b600060443d1015611d275790565b6040516003193d81016004833e81513d67ffffffffffffffff8160248401118184111715611d5757505050505090565b8285019150815181811115611d6f5750505050505090565b843d8701016020828501011115611d895750505050505090565b611d9860208286010187611642565b509095945050505050565b60208082526028908201527f455243313135353a204552433131353552656365697665722072656a656374656040820152676420746f6b656e7360c01b606082015260800190565b6001600160a01b0386811682528516602082015260a060408201819052600090611e17908301866118ed565b8281036060840152611e2981866118ed565b90508281036080840152611e3d8185611599565b9897505050505050505056fea26469706673582212209aebb901570b70f8768be1ef6ed41a6d7f546aead81287934a3ea6e117ed93eb64736f6c634300080b0033",
  "immutableReferences": {},
  "source": "// SPDX-License-Identifier: MIT\n// Items Contract\npragma solidity ^0.8.0;\n\nimport \"@openzeppelin/contracts/access/Ownable.sol\";\nimport \"@openzeppelin/contracts/token/ERC1155/ERC1155.sol\";\n\nimport \"../library/LItems.sol\";\n\ncontract Items is ERC1155, Ownable {\n  address addressProxyContract;\n  uint256 itemCount;\n  mapping(uint256 => uint256) supplies;\n  mapping(uint256 => ItemsLib.Item) items;\n\n  constructor(string memory baseUri) ERC1155(baseUri) {}\n\n  ///@notice Very important function that we add on almost all the other functions to check that the call of the functions is done well from the delegation contract for more security\n  modifier byProxy() {\n    require(\n      (_msgSender() == addressProxyContract || addressProxyContract == address(0)),\n      \"Not good Proxy contract\"\n    );\n    _;\n  }\n\n  ///@notice create or update item\n  ///@param name name of item\n  ///@param rarity rarity to loot this item\n  ///@param price price of item in wei\n  ///@param id id of item you want to set\n  function setItem(\n    string calldata name,\n    uint256 rarity,\n    uint256 price,\n    uint256 id\n  ) external onlyOwner {\n    if (items[id].valid == false) {\n      unchecked {\n        itemCount++;\n      }\n    }\n    items[id] = ItemsLib.Item(name, rarity, price, true);\n  }\n\n  function getSupply(uint256 tokenId) external view returns (uint256) {\n    return supplies[tokenId];\n  }\n\n  ///@notice modify the address of the delegation contract to allow the said contract to interact with this one\n  ///@param _address new address of delegation contract\n  function setaddressProxyContract(address _address) external onlyOwner {\n    addressProxyContract = _address;\n  }\n\n  ///@notice Function of mint token\n  ///@param to address of receiver's item\n  ///@param tokenId token id you want to mint\n  ///@param amount mint a quantity of item\n  function mint(address to, uint256 tokenId, uint256 amount) external payable byProxy {\n    supplies[tokenId] += amount;\n    _mint(to, tokenId, amount, \"\");\n  }\n\n  ///@notice Function of burn token\n  ///@param to address of burner's item\n  ///@param tokenId token id you want to burn\n  ///@param amount mint a quantity of item\n  function burn(address to, uint256 tokenId, uint256 amount) external byProxy {\n    supplies[tokenId] -= amount;\n    _burn(to, tokenId, amount);\n  }\n\n  ///@notice Get item structure detail\n  ///@param tokenId token id you want to return\n  ///@return item stucture Item attached to tokenId\n  function getItemDetails(uint256 tokenId) external view returns (ItemsLib.Item memory) {\n    return items[tokenId];\n  }\n\n  /*\n  ///@notice Actualize dynamic price\n  function setCurrentPrice(uint256 tokenId) public {\n    currentprice = address(this).balance / supplies[tokenId];\n  }\n\n  ///@notice Get dynamic price\n  function getCurrentPrice(uint256 tokenId) public view returns (uint256) {\n    return address(this).balance / supplies[tokenId];\n  }*/\n}\n",
  "sourcePath": "/home/solid-solution/Bureau/HOMEWORK/MYOS/contracts/immutable/Items.sol",
  "compiler": {
    "name": "solc",
    "version": "0.8.11+commit.d7f03943.Emscripten.clang"
  },
  "schemaVersion": "3.4.10",
  "updatedAt": "2022-11-22T22:56:18.519Z",
  "devdoc": {
    "kind": "dev",
    "methods": {
      "balanceOf(address,uint256)": {
        "details": "See {IERC1155-balanceOf}. Requirements: - `account` cannot be the zero address."
      },
      "balanceOfBatch(address[],uint256[])": {
        "details": "See {IERC1155-balanceOfBatch}. Requirements: - `accounts` and `ids` must have the same length."
      },
      "burn(address,uint256,uint256)": {
        "params": {
          "amount": "mint a quantity of item",
          "to": "address of burner's item",
          "tokenId": "token id you want to burn"
        }
      },
      "getItemDetails(uint256)": {
        "params": {
          "tokenId": "token id you want to return"
        },
        "returns": {
          "_0": "item stucture Item attached to tokenId"
        }
      },
      "isApprovedForAll(address,address)": {
        "details": "See {IERC1155-isApprovedForAll}."
      },
      "mint(address,uint256,uint256)": {
        "params": {
          "amount": "mint a quantity of item",
          "to": "address of receiver's item",
          "tokenId": "token id you want to mint"
        }
      },
      "owner()": {
        "details": "Returns the address of the current owner."
      },
      "renounceOwnership()": {
        "details": "Leaves the contract without owner. It will not be possible to call `onlyOwner` functions anymore. Can only be called by the current owner. NOTE: Renouncing ownership will leave the contract without an owner, thereby removing any functionality that is only available to the owner."
      },
      "safeBatchTransferFrom(address,address,uint256[],uint256[],bytes)": {
        "details": "See {IERC1155-safeBatchTransferFrom}."
      },
      "safeTransferFrom(address,address,uint256,uint256,bytes)": {
        "details": "See {IERC1155-safeTransferFrom}."
      },
      "setApprovalForAll(address,bool)": {
        "details": "See {IERC1155-setApprovalForAll}."
      },
      "setItem(string,uint256,uint256,uint256)": {
        "params": {
          "id": "id of item you want to set",
          "name": "name of item",
          "price": "price of item in wei",
          "rarity": "rarity to loot this item"
        }
      },
      "setaddressProxyContract(address)": {
        "params": {
          "_address": "new address of delegation contract"
        }
      },
      "supportsInterface(bytes4)": {
        "details": "See {IERC165-supportsInterface}."
      },
      "transferOwnership(address)": {
        "details": "Transfers ownership of the contract to a new account (`newOwner`). Can only be called by the current owner."
      },
      "uri(uint256)": {
        "details": "See {IERC1155MetadataURI-uri}. This implementation returns the same URI for *all* token types. It relies on the token type ID substitution mechanism https://eips.ethereum.org/EIPS/eip-1155#metadata[defined in the EIP]. Clients calling this function must replace the `\\{id\\}` substring with the actual token type ID."
      }
    },
    "version": 1
  },
  "userdoc": {
    "kind": "user",
    "methods": {
      "burn(address,uint256,uint256)": {
        "notice": "Function of burn token"
      },
      "getItemDetails(uint256)": {
        "notice": "Get item structure detail"
      },
      "mint(address,uint256,uint256)": {
        "notice": "Function of mint token"
      },
      "setItem(string,uint256,uint256,uint256)": {
        "notice": "create or update item"
      },
      "setaddressProxyContract(address)": {
        "notice": "modify the address of the delegation contract to allow the said contract to interact with this one"
      }
    },
    "version": 1
  }
}