{
  "contractName": "Items",
  "abi": [
    {
      "inputs": [
        {
          "internalType": "string",
          "name": "baseUri",
          "type": "string"
        }
      ],
      "stateMutability": "nonpayable",
      "type": "constructor"
    },
    {
      "anonymous": false,
      "inputs": [
        {
          "indexed": true,
          "internalType": "address",
          "name": "account",
          "type": "address"
        },
        {
          "indexed": true,
          "internalType": "address",
          "name": "operator",
          "type": "address"
        },
        {
          "indexed": false,
          "internalType": "bool",
          "name": "approved",
          "type": "bool"
        }
      ],
      "name": "ApprovalForAll",
      "type": "event"
    },
    {
      "anonymous": false,
      "inputs": [
        {
          "indexed": true,
          "internalType": "address",
          "name": "previousOwner",
          "type": "address"
        },
        {
          "indexed": true,
          "internalType": "address",
          "name": "newOwner",
          "type": "address"
        }
      ],
      "name": "OwnershipTransferred",
      "type": "event"
    },
    {
      "anonymous": false,
      "inputs": [
        {
          "indexed": true,
          "internalType": "address",
          "name": "operator",
          "type": "address"
        },
        {
          "indexed": true,
          "internalType": "address",
          "name": "from",
          "type": "address"
        },
        {
          "indexed": true,
          "internalType": "address",
          "name": "to",
          "type": "address"
        },
        {
          "indexed": false,
          "internalType": "uint256[]",
          "name": "ids",
          "type": "uint256[]"
        },
        {
          "indexed": false,
          "internalType": "uint256[]",
          "name": "values",
          "type": "uint256[]"
        }
      ],
      "name": "TransferBatch",
      "type": "event"
    },
    {
      "anonymous": false,
      "inputs": [
        {
          "indexed": true,
          "internalType": "address",
          "name": "operator",
          "type": "address"
        },
        {
          "indexed": true,
          "internalType": "address",
          "name": "from",
          "type": "address"
        },
        {
          "indexed": true,
          "internalType": "address",
          "name": "to",
          "type": "address"
        },
        {
          "indexed": false,
          "internalType": "uint256",
          "name": "id",
          "type": "uint256"
        },
        {
          "indexed": false,
          "internalType": "uint256",
          "name": "value",
          "type": "uint256"
        }
      ],
      "name": "TransferSingle",
      "type": "event"
    },
    {
      "anonymous": false,
      "inputs": [
        {
          "indexed": false,
          "internalType": "string",
          "name": "value",
          "type": "string"
        },
        {
          "indexed": true,
          "internalType": "uint256",
          "name": "id",
          "type": "uint256"
        }
      ],
      "name": "URI",
      "type": "event"
    },
    {
      "inputs": [
        {
          "internalType": "address",
          "name": "account",
          "type": "address"
        },
        {
          "internalType": "uint256",
          "name": "id",
          "type": "uint256"
        }
      ],
      "name": "balanceOf",
      "outputs": [
        {
          "internalType": "uint256",
          "name": "",
          "type": "uint256"
        }
      ],
      "stateMutability": "view",
      "type": "function"
    },
    {
      "inputs": [
        {
          "internalType": "address[]",
          "name": "accounts",
          "type": "address[]"
        },
        {
          "internalType": "uint256[]",
          "name": "ids",
          "type": "uint256[]"
        }
      ],
      "name": "balanceOfBatch",
      "outputs": [
        {
          "internalType": "uint256[]",
          "name": "",
          "type": "uint256[]"
        }
      ],
      "stateMutability": "view",
      "type": "function"
    },
    {
      "inputs": [
        {
          "internalType": "address",
          "name": "account",
          "type": "address"
        },
        {
          "internalType": "address",
          "name": "operator",
          "type": "address"
        }
      ],
      "name": "isApprovedForAll",
      "outputs": [
        {
          "internalType": "bool",
          "name": "",
          "type": "bool"
        }
      ],
      "stateMutability": "view",
      "type": "function"
    },
    {
      "inputs": [],
      "name": "owner",
      "outputs": [
        {
          "internalType": "address",
          "name": "",
          "type": "address"
        }
      ],
      "stateMutability": "view",
      "type": "function"
    },
    {
      "inputs": [],
      "name": "renounceOwnership",
      "outputs": [],
      "stateMutability": "nonpayable",
      "type": "function"
    },
    {
      "inputs": [
        {
          "internalType": "address",
          "name": "from",
          "type": "address"
        },
        {
          "internalType": "address",
          "name": "to",
          "type": "address"
        },
        {
          "internalType": "uint256[]",
          "name": "ids",
          "type": "uint256[]"
        },
        {
          "internalType": "uint256[]",
          "name": "amounts",
          "type": "uint256[]"
        },
        {
          "internalType": "bytes",
          "name": "data",
          "type": "bytes"
        }
      ],
      "name": "safeBatchTransferFrom",
      "outputs": [],
      "stateMutability": "nonpayable",
      "type": "function"
    },
    {
      "inputs": [
        {
          "internalType": "address",
          "name": "from",
          "type": "address"
        },
        {
          "internalType": "address",
          "name": "to",
          "type": "address"
        },
        {
          "internalType": "uint256",
          "name": "id",
          "type": "uint256"
        },
        {
          "internalType": "uint256",
          "name": "amount",
          "type": "uint256"
        },
        {
          "internalType": "bytes",
          "name": "data",
          "type": "bytes"
        }
      ],
      "name": "safeTransferFrom",
      "outputs": [],
      "stateMutability": "nonpayable",
      "type": "function"
    },
    {
      "inputs": [
        {
          "internalType": "address",
          "name": "operator",
          "type": "address"
        },
        {
          "internalType": "bool",
          "name": "approved",
          "type": "bool"
        }
      ],
      "name": "setApprovalForAll",
      "outputs": [],
      "stateMutability": "nonpayable",
      "type": "function"
    },
    {
      "inputs": [
        {
          "internalType": "bytes4",
          "name": "interfaceId",
          "type": "bytes4"
        }
      ],
      "name": "supportsInterface",
      "outputs": [
        {
          "internalType": "bool",
          "name": "",
          "type": "bool"
        }
      ],
      "stateMutability": "view",
      "type": "function"
    },
    {
      "inputs": [
        {
          "internalType": "address",
          "name": "newOwner",
          "type": "address"
        }
      ],
      "name": "transferOwnership",
      "outputs": [],
      "stateMutability": "nonpayable",
      "type": "function"
    },
    {
      "inputs": [
        {
          "internalType": "uint256",
          "name": "",
          "type": "uint256"
        }
      ],
      "name": "uri",
      "outputs": [
        {
          "internalType": "string",
          "name": "",
          "type": "string"
        }
      ],
      "stateMutability": "view",
      "type": "function"
    },
    {
      "inputs": [
        {
          "internalType": "string",
          "name": "name",
          "type": "string"
        },
        {
          "internalType": "uint256",
          "name": "rarity",
          "type": "uint256"
        },
        {
          "internalType": "uint256",
          "name": "price",
          "type": "uint256"
        },
        {
          "internalType": "uint256",
          "name": "id",
          "type": "uint256"
        }
      ],
      "name": "setItem",
      "outputs": [],
      "stateMutability": "nonpayable",
      "type": "function"
    },
    {
      "inputs": [
        {
          "internalType": "uint256",
          "name": "tokenId",
          "type": "uint256"
        }
      ],
      "name": "getSupply",
      "outputs": [
        {
          "internalType": "uint256",
          "name": "",
          "type": "uint256"
        }
      ],
      "stateMutability": "view",
      "type": "function"
    },
    {
      "inputs": [
        {
          "internalType": "address",
          "name": "_address",
          "type": "address"
        }
      ],
      "name": "setaddressDelegateContract",
      "outputs": [],
      "stateMutability": "nonpayable",
      "type": "function"
    },
    {
      "inputs": [
        {
          "internalType": "address",
          "name": "to",
          "type": "address"
        },
        {
          "internalType": "uint256",
          "name": "tokenId",
          "type": "uint256"
        },
        {
          "internalType": "uint256",
          "name": "amount",
          "type": "uint256"
        }
      ],
      "name": "mint",
      "outputs": [],
      "stateMutability": "payable",
      "type": "function"
    },
    {
      "inputs": [
        {
          "internalType": "address",
          "name": "to",
          "type": "address"
        },
        {
          "internalType": "uint256",
          "name": "tokenId",
          "type": "uint256"
        },
        {
          "internalType": "uint256",
          "name": "amount",
          "type": "uint256"
        }
      ],
      "name": "burn",
      "outputs": [],
      "stateMutability": "nonpayable",
      "type": "function"
    },
    {
      "inputs": [
        {
          "internalType": "uint256",
          "name": "tokenId",
          "type": "uint256"
        }
      ],
      "name": "getItemDetails",
      "outputs": [
        {
          "components": [
            {
              "internalType": "string",
              "name": "name",
              "type": "string"
            },
            {
              "internalType": "uint256",
              "name": "rarity",
              "type": "uint256"
            },
            {
              "internalType": "uint256",
              "name": "price",
              "type": "uint256"
            },
            {
              "internalType": "bool",
              "name": "valid",
              "type": "bool"
            }
          ],
          "internalType": "struct ItemsLib.Item",
          "name": "",
          "type": "tuple"
        }
      ],
      "stateMutability": "view",
      "type": "function"
    }
  ],
  "bytecode": "0x60806040523480156200001157600080fd5b506040516200213b3803806200213b83398101604081905262000034916200017a565b80620000408162000053565b506200004c336200006c565b5062000293565b805162000068906002906020840190620000be565b5050565b600380546001600160a01b038381166001600160a01b0319831681179093556040519116919082907f8be0079c531659141344cd1fd0a4f28419497f9722a3daafe3b4186f6b6457e090600090a35050565b828054620000cc9062000256565b90600052602060002090601f016020900481019282620000f057600085556200013b565b82601f106200010b57805160ff19168380011785556200013b565b828001600101855582156200013b579182015b828111156200013b5782518255916020019190600101906200011e565b50620001499291506200014d565b5090565b5b808211156200014957600081556001016200014e565b634e487b7160e01b600052604160045260246000fd5b600060208083850312156200018e57600080fd5b82516001600160401b0380821115620001a657600080fd5b818501915085601f830112620001bb57600080fd5b815181811115620001d057620001d062000164565b604051601f8201601f19908116603f01168101908382118183101715620001fb57620001fb62000164565b8160405282815288868487010111156200021457600080fd5b600093505b8284101562000238578484018601518185018701529285019262000219565b828411156200024a5760008684830101525b98975050505050505050565b600181811c908216806200026b57607f821691505b602082108114156200028d57634e487b7160e01b600052602260045260246000fd5b50919050565b611e9880620002a36000396000f3fe6080604052600436106100fd5760003560e01c80638da5cb5b11610095578063f242432a11610064578063f242432a146102e7578063f2fde38b14610307578063f5298aca14610327578063f77ee79d14610347578063fd1e457e1461037457600080fd5b80638da5cb5b14610236578063a22cb4651461025e578063de6d9cf21461027e578063e985e9c51461029e57600080fd5b80632eb2c2d6116100d15780632eb2c2d6146101a75780634e1273f4146101c7578063715018a6146101f457806373004ca01461020957600080fd5b8062fdd58e1461010257806301ffc9a7146101355780630e89341c14610165578063156e29f614610192575b600080fd5b34801561010e57600080fd5b5061012261011d366004611519565b610394565b6040519081526020015b60405180910390f35b34801561014157600080fd5b50610155610150366004611559565b61042a565b604051901515815260200161012c565b34801561017157600080fd5b5061018561018036600461157d565b61047c565b60405161012c91906115e3565b6101a56101a03660046115f6565b610510565b005b3480156101b357600080fd5b506101a56101c2366004611775565b6105cc565b3480156101d357600080fd5b506101e76101e236600461181f565b610618565b60405161012c9190611925565b34801561020057600080fd5b506101a5610742565b34801561021557600080fd5b5061022961022436600461157d565b610756565b60405161012c9190611938565b34801561024257600080fd5b506003546040516001600160a01b03909116815260200161012c565b34801561026a57600080fd5b506101a5610279366004611980565b610857565b34801561028a57600080fd5b506101a56102993660046119bc565b610866565b3480156102aa57600080fd5b506101556102b93660046119d7565b6001600160a01b03918216600090815260016020908152604080832093909416825291909152205460ff1690565b3480156102f357600080fd5b506101a5610302366004611a0a565b610890565b34801561031357600080fd5b506101a56103223660046119bc565b6108d5565b34801561033357600080fd5b506101a56103423660046115f6565b61094e565b34801561035357600080fd5b5061012261036236600461157d565b60009081526006602052604090205490565b34801561038057600080fd5b506101a561038f366004611a6f565b6109f4565b60006001600160a01b0383166104045760405162461bcd60e51b815260206004820152602a60248201527f455243313135353a2061646472657373207a65726f206973206e6f742061207660448201526930b634b21037bbb732b960b11b60648201526084015b60405180910390fd5b506000908152602081815260408083206001600160a01b03949094168352929052205490565b60006001600160e01b03198216636cdb3d1360e11b148061045b57506001600160e01b031982166303a24d0760e21b145b8061047657506301ffc9a760e01b6001600160e01b03198316145b92915050565b60606002805461048b90611af7565b80601f01602080910402602001604051908101604052809291908181526020018280546104b790611af7565b80156105045780601f106104d957610100808354040283529160200191610504565b820191906000526020600020905b8154815290600101906020018083116104e757829003601f168201915b50505050509050919050565b6004546001600160a01b0316336001600160a01b0316148061053b57506004546001600160a01b0316155b6105875760405162461bcd60e51b815260206004820152601a60248201527f4e6f7420676f6f642064656c656761746520636f6e747261637400000000000060448201526064016103fb565b600082815260066020526040812080548392906105a5908490611b48565b925050819055506105c783838360405180602001604052806000815250610ade565b505050565b6001600160a01b0385163314806105e857506105e885336102b9565b6106045760405162461bcd60e51b81526004016103fb90611b60565b6106118585858585610bf2565b5050505050565b6060815183511461067d5760405162461bcd60e51b815260206004820152602960248201527f455243313135353a206163636f756e747320616e6420696473206c656e677468604482015268040dad2e6dac2e8c6d60bb1b60648201526084016103fb565b6000835167ffffffffffffffff81111561069957610699611629565b6040519080825280602002602001820160405280156106c2578160200160208202803683370190505b50905060005b845181101561073a5761070d8582815181106106e6576106e6611baf565b602002602001015185838151811061070057610700611baf565b6020026020010151610394565b82828151811061071f5761071f611baf565b602090810291909101015261073381611bc5565b90506106c8565b509392505050565b61074a610dcf565b6107546000610e29565b565b61078360405180608001604052806060815260200160008152602001600081526020016000151581525090565b600082815260076020526040908190208151608081019092528054829082906107ab90611af7565b80601f01602080910402602001604051908101604052809291908181526020018280546107d790611af7565b80156108245780601f106107f957610100808354040283529160200191610824565b820191906000526020600020905b81548152906001019060200180831161080757829003601f168201915b5050509183525050600182015460208201526002820154604082015260039091015460ff16151560609091015292915050565b610862338383610e7b565b5050565b61086e610dcf565b600480546001600160a01b0319166001600160a01b0392909216919091179055565b6001600160a01b0385163314806108ac57506108ac85336102b9565b6108c85760405162461bcd60e51b81526004016103fb90611b60565b6106118585858585610f5c565b6108dd610dcf565b6001600160a01b0381166109425760405162461bcd60e51b815260206004820152602660248201527f4f776e61626c653a206e6577206f776e657220697320746865207a65726f206160448201526564647265737360d01b60648201526084016103fb565b61094b81610e29565b50565b6004546001600160a01b0316336001600160a01b0316148061097957506004546001600160a01b0316155b6109c55760405162461bcd60e51b815260206004820152601a60248201527f4e6f7420676f6f642064656c656761746520636f6e747261637400000000000060448201526064016103fb565b600082815260066020526040812080548392906109e3908490611be0565b909155506105c79050838383611086565b6109fc610dcf565b60008181526007602052604090206003015460ff16610a2b5760058054906000610a2583611bc5565b91905055505b604051806080016040528086868080601f016020809104026020016040519081016040528093929190818152602001838380828437600092018290525093855250505060208083018790526040808401879052600160609094019390935284825260078152919020825180519192610aa892849290910190611464565b5060208201516001820155604082015160028201556060909101516003909101805460ff19169115159190911790555050505050565b6001600160a01b038416610b3e5760405162461bcd60e51b815260206004820152602160248201527f455243313135353a206d696e7420746f20746865207a65726f206164647265736044820152607360f81b60648201526084016103fb565b336000610b4a85611202565b90506000610b5785611202565b90506000868152602081815260408083206001600160a01b038b16845290915281208054879290610b89908490611b48565b909155505060408051878152602081018790526001600160a01b03808a1692600092918716917fc3d58168c5ae7397731d063d5bbf3d657854427343f4c083240f7aacaa2d0f62910160405180910390a4610be98360008989898961124d565b50505050505050565b8151835114610c545760405162461bcd60e51b815260206004820152602860248201527f455243313135353a2069647320616e6420616d6f756e7473206c656e677468206044820152670dad2e6dac2e8c6d60c31b60648201526084016103fb565b6001600160a01b038416610c7a5760405162461bcd60e51b81526004016103fb90611bf7565b3360005b8451811015610d61576000858281518110610c9b57610c9b611baf565b602002602001015190506000858381518110610cb957610cb9611baf565b602090810291909101810151600084815280835260408082206001600160a01b038e168352909352919091205490915081811015610d095760405162461bcd60e51b81526004016103fb90611c3c565b6000838152602081815260408083206001600160a01b038e8116855292528083208585039055908b16825281208054849290610d46908490611b48565b9250508190555050505080610d5a90611bc5565b9050610c7e565b50846001600160a01b0316866001600160a01b0316826001600160a01b03167f4a39dc06d4c0dbc64b70af90fd698a233a518aa5d07e595d983b8c0526c8f7fb8787604051610db1929190611c86565b60405180910390a4610dc78187878787876113a9565b505050505050565b6003546001600160a01b031633146107545760405162461bcd60e51b815260206004820181905260248201527f4f776e61626c653a2063616c6c6572206973206e6f7420746865206f776e657260448201526064016103fb565b600380546001600160a01b038381166001600160a01b0319831681179093556040519116919082907f8be0079c531659141344cd1fd0a4f28419497f9722a3daafe3b4186f6b6457e090600090a35050565b816001600160a01b0316836001600160a01b03161415610eef5760405162461bcd60e51b815260206004820152602960248201527f455243313135353a2073657474696e6720617070726f76616c20737461747573604482015268103337b91039b2b63360b91b60648201526084016103fb565b6001600160a01b03838116600081815260016020908152604080832094871680845294825291829020805460ff191686151590811790915591519182527f17307eab39ab6107e8899845ad3d59bd9653f200f220920489ca2b5937696c31910160405180910390a3505050565b6001600160a01b038416610f825760405162461bcd60e51b81526004016103fb90611bf7565b336000610f8e85611202565b90506000610f9b85611202565b90506000868152602081815260408083206001600160a01b038c16845290915290205485811015610fde5760405162461bcd60e51b81526004016103fb90611c3c565b6000878152602081815260408083206001600160a01b038d8116855292528083208985039055908a1682528120805488929061101b908490611b48565b909155505060408051888152602081018890526001600160a01b03808b16928c821692918816917fc3d58168c5ae7397731d063d5bbf3d657854427343f4c083240f7aacaa2d0f62910160405180910390a461107b848a8a8a8a8a61124d565b505050505050505050565b6001600160a01b0383166110e85760405162461bcd60e51b815260206004820152602360248201527f455243313135353a206275726e2066726f6d20746865207a65726f206164647260448201526265737360e81b60648201526084016103fb565b3360006110f484611202565b9050600061110184611202565b60408051602080820183526000918290528882528181528282206001600160a01b038b168352905220549091508481101561118a5760405162461bcd60e51b8152602060048201526024808201527f455243313135353a206275726e20616d6f756e7420657863656564732062616c604482015263616e636560e01b60648201526084016103fb565b6000868152602081815260408083206001600160a01b038b81168086529184528285208a8703905582518b81529384018a90529092908816917fc3d58168c5ae7397731d063d5bbf3d657854427343f4c083240f7aacaa2d0f62910160405180910390a4604080516020810190915260009052610be9565b6040805160018082528183019092526060916000919060208083019080368337019050509050828160008151811061123c5761123c611baf565b602090810291909101015292915050565b6001600160a01b0384163b15610dc75760405163f23a6e6160e01b81526001600160a01b0385169063f23a6e61906112919089908990889088908890600401611cb4565b6020604051808303816000875af19250505080156112cc575060408051601f3d908101601f191682019092526112c991810190611cf9565b60015b611379576112d8611d16565b806308c379a0141561131257506112ed611d32565b806112f85750611314565b8060405162461bcd60e51b81526004016103fb91906115e3565b505b60405162461bcd60e51b815260206004820152603460248201527f455243313135353a207472616e7366657220746f206e6f6e20455243313135356044820152732932b1b2b4bb32b91034b6b83632b6b2b73a32b960611b60648201526084016103fb565b6001600160e01b0319811663f23a6e6160e01b14610be95760405162461bcd60e51b81526004016103fb90611dbc565b6001600160a01b0384163b15610dc75760405163bc197c8160e01b81526001600160a01b0385169063bc197c81906113ed9089908990889088908890600401611e04565b6020604051808303816000875af1925050508015611428575060408051601f3d908101601f1916820190925261142591810190611cf9565b60015b611434576112d8611d16565b6001600160e01b0319811663bc197c8160e01b14610be95760405162461bcd60e51b81526004016103fb90611dbc565b82805461147090611af7565b90600052602060002090601f01602090048101928261149257600085556114d8565b82601f106114ab57805160ff19168380011785556114d8565b828001600101855582156114d8579182015b828111156114d85782518255916020019190600101906114bd565b506114e49291506114e8565b5090565b5b808211156114e457600081556001016114e9565b80356001600160a01b038116811461151457600080fd5b919050565b6000806040838503121561152c57600080fd5b611535836114fd565b946020939093013593505050565b6001600160e01b03198116811461094b57600080fd5b60006020828403121561156b57600080fd5b813561157681611543565b9392505050565b60006020828403121561158f57600080fd5b5035919050565b6000815180845260005b818110156115bc576020818501810151868301820152016115a0565b818111156115ce576000602083870101525b50601f01601f19169290920160200192915050565b6020815260006115766020830184611596565b60008060006060848603121561160b57600080fd5b611614846114fd565b95602085013595506040909401359392505050565b634e487b7160e01b600052604160045260246000fd5b601f8201601f1916810167ffffffffffffffff8111828210171561166557611665611629565b6040525050565b600067ffffffffffffffff82111561168657611686611629565b5060051b60200190565b600082601f8301126116a157600080fd5b813560206116ae8261166c565b6040516116bb828261163f565b83815260059390931b85018201928281019150868411156116db57600080fd5b8286015b848110156116f657803583529183019183016116df565b509695505050505050565b600082601f83011261171257600080fd5b813567ffffffffffffffff81111561172c5761172c611629565b604051611743601f8301601f19166020018261163f565b81815284602083860101111561175857600080fd5b816020850160208301376000918101602001919091529392505050565b600080600080600060a0868803121561178d57600080fd5b611796866114fd565b94506117a4602087016114fd565b9350604086013567ffffffffffffffff808211156117c157600080fd5b6117cd89838a01611690565b945060608801359150808211156117e357600080fd5b6117ef89838a01611690565b9350608088013591508082111561180557600080fd5b5061181288828901611701565b9150509295509295909350565b6000806040838503121561183257600080fd5b823567ffffffffffffffff8082111561184a57600080fd5b818501915085601f83011261185e57600080fd5b8135602061186b8261166c565b604051611878828261163f565b83815260059390931b850182019282810191508984111561189857600080fd5b948201945b838610156118bd576118ae866114fd565b8252948201949082019061189d565b965050860135925050808211156118d357600080fd5b506118e085828601611690565b9150509250929050565b600081518084526020808501945080840160005b8381101561191a578151875295820195908201906001016118fe565b509495945050505050565b60208152600061157660208301846118ea565b60208152600082516080602084015261195460a0840182611596565b905060208401516040840152604084015160608401526060840151151560808401528091505092915050565b6000806040838503121561199357600080fd5b61199c836114fd565b9150602083013580151581146119b157600080fd5b809150509250929050565b6000602082840312156119ce57600080fd5b611576826114fd565b600080604083850312156119ea57600080fd5b6119f3836114fd565b9150611a01602084016114fd565b90509250929050565b600080600080600060a08688031215611a2257600080fd5b611a2b866114fd565b9450611a39602087016114fd565b93506040860135925060608601359150608086013567ffffffffffffffff811115611a6357600080fd5b61181288828901611701565b600080600080600060808688031215611a8757600080fd5b853567ffffffffffffffff80821115611a9f57600080fd5b818801915088601f830112611ab357600080fd5b813581811115611ac257600080fd5b896020828501011115611ad457600080fd5b60209283019a909950918801359760408101359750606001359550909350505050565b600181811c90821680611b0b57607f821691505b60208210811415611b2c57634e487b7160e01b600052602260045260246000fd5b50919050565b634e487b7160e01b600052601160045260246000fd5b60008219821115611b5b57611b5b611b32565b500190565b6020808252602f908201527f455243313135353a2063616c6c6572206973206e6f7420746f6b656e206f776e60408201526e195c881b9bdc88185c1c1c9bdd9959608a1b606082015260800190565b634e487b7160e01b600052603260045260246000fd5b6000600019821415611bd957611bd9611b32565b5060010190565b600082821015611bf257611bf2611b32565b500390565b60208082526025908201527f455243313135353a207472616e7366657220746f20746865207a65726f206164604082015264647265737360d81b606082015260800190565b6020808252602a908201527f455243313135353a20696e73756666696369656e742062616c616e636520666f60408201526939103a3930b739b332b960b11b606082015260800190565b604081526000611c9960408301856118ea565b8281036020840152611cab81856118ea565b95945050505050565b6001600160a01b03868116825285166020820152604081018490526060810183905260a060808201819052600090611cee90830184611596565b979650505050505050565b600060208284031215611d0b57600080fd5b815161157681611543565b600060033d1115611d2f5760046000803e5060005160e01c5b90565b600060443d1015611d405790565b6040516003193d81016004833e81513d67ffffffffffffffff8160248401118184111715611d7057505050505090565b8285019150815181811115611d885750505050505090565b843d8701016020828501011115611da25750505050505090565b611db16020828601018761163f565b509095945050505050565b60208082526028908201527f455243313135353a204552433131353552656365697665722072656a656374656040820152676420746f6b656e7360c01b606082015260800190565b6001600160a01b0386811682528516602082015260a060408201819052600090611e30908301866118ea565b8281036060840152611e4281866118ea565b90508281036080840152611e568185611596565b9897505050505050505056fea26469706673582212200ef39dad9fbcfb8fee0b47f606e2431631825330105c79c3ca0a03828a4c8e4664736f6c634300080b0033",
  "immutableReferences": {},
  "source": "// SPDX-License-Identifier: MIT\r\n// Items Contract\r\npragma solidity ^0.8.0;\r\n\r\nimport \"@openzeppelin/contracts/access/Ownable.sol\";\r\nimport \"@openzeppelin/contracts/token/ERC1155/ERC1155.sol\";\r\n\r\nimport \"./library/LItems.sol\";\r\n\r\nimport \"./interfaces/IItems.sol\";\r\n\r\ncontract Items is ERC1155, Ownable, IItems {\r\n  address addressDelegateContract;\r\n  uint256 itemCount;\r\n  mapping(uint256 => uint256) supplies;\r\n  mapping(uint256 => ItemsLib.Item) items;\r\n\r\n  constructor(string memory baseUri) ERC1155(baseUri) {}\r\n\r\n  ///@notice Very important function that we add on almost all the other functions to check that the call of the functions is done well from the delegation contract for more security\r\n  modifier byDelegate() {\r\n    require(\r\n      (_msgSender() == addressDelegateContract || addressDelegateContract == address(0)),\r\n      \"Not good delegate contract\"\r\n    );\r\n    _;\r\n  }\r\n\r\n  ///@notice create or update quest\r\n  ///@param name name of item\r\n  ///@param rarity rarity to loot this item\r\n  ///@param price price of item in wei\r\n  ///@param id id of item you want to set\r\n  function setItem(\r\n    string calldata name,\r\n    uint256 rarity,\r\n    uint256 price,\r\n    uint256 id\r\n  ) external onlyOwner {\r\n    if (items[id].valid == false) itemCount++;\r\n    items[id] = ItemsLib.Item(name, rarity, price, true);\r\n  }\r\n\r\n  function getSupply(uint256 tokenId) external view returns (uint256) {\r\n    return supplies[tokenId];\r\n  }\r\n\r\n  ///@notice modify the address of the delegation contract to allow the said contract to interact with this one\r\n  ///@param _address new address of delegation contract\r\n  function setaddressDelegateContract(address _address) external onlyOwner {\r\n    addressDelegateContract = _address;\r\n  }\r\n\r\n  ///@notice Function of mint token\r\n  ///@param to address of receiver's item\r\n  ///@param tokenId token id you want to mint\r\n  ///@param amount mint a quantity of item\r\n  function mint(address to, uint256 tokenId, uint256 amount) external payable byDelegate {\r\n    supplies[tokenId] += amount;\r\n    _mint(to, tokenId, amount, \"\");\r\n  }\r\n\r\n  ///@notice Function of burn token\r\n  ///@param to address of burner's item\r\n  ///@param tokenId token id you want to burn\r\n  ///@param amount mint a quantity of item\r\n  function burn(address to, uint256 tokenId, uint256 amount) external byDelegate {\r\n    supplies[tokenId] -= amount;\r\n    _burn(to, tokenId, amount);\r\n  }\r\n\r\n  ///@notice Get item structure detail\r\n  ///@param tokenId token id you want to return\r\n  ///@return item stucture Item attached to tokenId\r\n  function getItemDetails(uint256 tokenId) external view returns (ItemsLib.Item memory) {\r\n    return items[tokenId];\r\n  }\r\n\r\n  /*\r\n  ///@notice Actualize dynamic price\r\n  function setCurrentPrice(uint256 tokenId) public {\r\n    currentprice = address(this).balance / supplies[tokenId];\r\n  }\r\n\r\n  ///@notice Get dynamic price\r\n  function getCurrentPrice(uint256 tokenId) public view returns (uint256) {\r\n    return address(this).balance / supplies[tokenId];\r\n  }*/\r\n}\r\n",
  "sourcePath": "C:\\Users\\Kevin\\Desktop\\WorkHome\\--Solidity--MYOS\\contracts\\Items.sol",
  "compiler": {
    "name": "solc",
    "version": "0.8.11+commit.d7f03943.Emscripten.clang"
  },
  "schemaVersion": "3.4.6",
  "updatedAt": "2022-11-07T00:14:12.743Z",
  "devdoc": {
    "kind": "dev",
    "methods": {
      "balanceOf(address,uint256)": {
        "details": "See {IERC1155-balanceOf}. Requirements: - `account` cannot be the zero address."
      },
      "balanceOfBatch(address[],uint256[])": {
        "details": "See {IERC1155-balanceOfBatch}. Requirements: - `accounts` and `ids` must have the same length."
      },
      "burn(address,uint256,uint256)": {
        "params": {
          "amount": "mint a quantity of item",
          "to": "address of burner's item",
          "tokenId": "token id you want to burn"
        }
      },
      "getItemDetails(uint256)": {
        "params": {
          "tokenId": "token id you want to return"
        },
        "returns": {
          "_0": "item stucture Item attached to tokenId"
        }
      },
      "isApprovedForAll(address,address)": {
        "details": "See {IERC1155-isApprovedForAll}."
      },
      "mint(address,uint256,uint256)": {
        "params": {
          "amount": "mint a quantity of item",
          "to": "address of receiver's item",
          "tokenId": "token id you want to mint"
        }
      },
      "owner()": {
        "details": "Returns the address of the current owner."
      },
      "renounceOwnership()": {
        "details": "Leaves the contract without owner. It will not be possible to call `onlyOwner` functions anymore. Can only be called by the current owner. NOTE: Renouncing ownership will leave the contract without an owner, thereby removing any functionality that is only available to the owner."
      },
      "safeBatchTransferFrom(address,address,uint256[],uint256[],bytes)": {
        "details": "See {IERC1155-safeBatchTransferFrom}."
      },
      "safeTransferFrom(address,address,uint256,uint256,bytes)": {
        "details": "See {IERC1155-safeTransferFrom}."
      },
      "setApprovalForAll(address,bool)": {
        "details": "See {IERC1155-setApprovalForAll}."
      },
      "setItem(string,uint256,uint256,uint256)": {
        "params": {
          "id": "id of item you want to set",
          "name": "name of item",
          "price": "price of item in wei",
          "rarity": "rarity to loot this item"
        }
      },
      "setaddressDelegateContract(address)": {
        "params": {
          "_address": "new address of delegation contract"
        }
      },
      "supportsInterface(bytes4)": {
        "details": "See {IERC165-supportsInterface}."
      },
      "transferOwnership(address)": {
        "details": "Transfers ownership of the contract to a new account (`newOwner`). Can only be called by the current owner."
      },
      "uri(uint256)": {
        "details": "See {IERC1155MetadataURI-uri}. This implementation returns the same URI for *all* token types. It relies on the token type ID substitution mechanism https://eips.ethereum.org/EIPS/eip-1155#metadata[defined in the EIP]. Clients calling this function must replace the `\\{id\\}` substring with the actual token type ID."
      }
    },
    "version": 1
  },
  "userdoc": {
    "kind": "user",
    "methods": {
      "burn(address,uint256,uint256)": {
        "notice": "Function of burn token"
      },
      "getItemDetails(uint256)": {
        "notice": "Get item structure detail"
      },
      "mint(address,uint256,uint256)": {
        "notice": "Function of mint token"
      },
      "setItem(string,uint256,uint256,uint256)": {
        "notice": "create or update quest"
      },
      "setaddressDelegateContract(address)": {
        "notice": "modify the address of the delegation contract to allow the said contract to interact with this one"
      }
    },
    "version": 1
  }
}