{
  "contractName": "Items",
  "abi": [
    {
      "inputs": [
        {
          "internalType": "uint256",
          "name": "_supply",
          "type": "uint256"
        },
        {
          "internalType": "string",
          "name": "name",
          "type": "string"
        },
        {
          "internalType": "string",
          "name": "symbol",
          "type": "string"
        }
      ],
      "stateMutability": "nonpayable",
      "type": "constructor"
    },
    {
      "anonymous": false,
      "inputs": [
        {
          "indexed": true,
          "internalType": "address",
          "name": "owner",
          "type": "address"
        },
        {
          "indexed": true,
          "internalType": "address",
          "name": "spender",
          "type": "address"
        },
        {
          "indexed": false,
          "internalType": "uint256",
          "name": "value",
          "type": "uint256"
        }
      ],
      "name": "Approval",
      "type": "event"
    },
    {
      "anonymous": false,
      "inputs": [
        {
          "indexed": true,
          "internalType": "address",
          "name": "previousOwner",
          "type": "address"
        },
        {
          "indexed": true,
          "internalType": "address",
          "name": "newOwner",
          "type": "address"
        }
      ],
      "name": "OwnershipTransferred",
      "type": "event"
    },
    {
      "anonymous": false,
      "inputs": [
        {
          "indexed": true,
          "internalType": "address",
          "name": "from",
          "type": "address"
        },
        {
          "indexed": true,
          "internalType": "address",
          "name": "to",
          "type": "address"
        },
        {
          "indexed": false,
          "internalType": "uint256",
          "name": "value",
          "type": "uint256"
        }
      ],
      "name": "Transfer",
      "type": "event"
    },
    {
      "inputs": [
        {
          "internalType": "address",
          "name": "owner",
          "type": "address"
        },
        {
          "internalType": "address",
          "name": "spender",
          "type": "address"
        }
      ],
      "name": "allowance",
      "outputs": [
        {
          "internalType": "uint256",
          "name": "",
          "type": "uint256"
        }
      ],
      "stateMutability": "view",
      "type": "function"
    },
    {
      "inputs": [
        {
          "internalType": "address",
          "name": "spender",
          "type": "address"
        },
        {
          "internalType": "uint256",
          "name": "amount",
          "type": "uint256"
        }
      ],
      "name": "approve",
      "outputs": [
        {
          "internalType": "bool",
          "name": "",
          "type": "bool"
        }
      ],
      "stateMutability": "nonpayable",
      "type": "function"
    },
    {
      "inputs": [
        {
          "internalType": "address",
          "name": "account",
          "type": "address"
        }
      ],
      "name": "balanceOf",
      "outputs": [
        {
          "internalType": "uint256",
          "name": "",
          "type": "uint256"
        }
      ],
      "stateMutability": "view",
      "type": "function"
    },
    {
      "inputs": [],
      "name": "decimals",
      "outputs": [
        {
          "internalType": "uint8",
          "name": "",
          "type": "uint8"
        }
      ],
      "stateMutability": "view",
      "type": "function"
    },
    {
      "inputs": [
        {
          "internalType": "address",
          "name": "spender",
          "type": "address"
        },
        {
          "internalType": "uint256",
          "name": "subtractedValue",
          "type": "uint256"
        }
      ],
      "name": "decreaseAllowance",
      "outputs": [
        {
          "internalType": "bool",
          "name": "",
          "type": "bool"
        }
      ],
      "stateMutability": "nonpayable",
      "type": "function"
    },
    {
      "inputs": [
        {
          "internalType": "address",
          "name": "spender",
          "type": "address"
        },
        {
          "internalType": "uint256",
          "name": "addedValue",
          "type": "uint256"
        }
      ],
      "name": "increaseAllowance",
      "outputs": [
        {
          "internalType": "bool",
          "name": "",
          "type": "bool"
        }
      ],
      "stateMutability": "nonpayable",
      "type": "function"
    },
    {
      "inputs": [],
      "name": "name",
      "outputs": [
        {
          "internalType": "string",
          "name": "",
          "type": "string"
        }
      ],
      "stateMutability": "view",
      "type": "function"
    },
    {
      "inputs": [],
      "name": "owner",
      "outputs": [
        {
          "internalType": "address",
          "name": "",
          "type": "address"
        }
      ],
      "stateMutability": "view",
      "type": "function"
    },
    {
      "inputs": [],
      "name": "renounceOwnership",
      "outputs": [],
      "stateMutability": "nonpayable",
      "type": "function"
    },
    {
      "inputs": [],
      "name": "symbol",
      "outputs": [
        {
          "internalType": "string",
          "name": "",
          "type": "string"
        }
      ],
      "stateMutability": "view",
      "type": "function"
    },
    {
      "inputs": [],
      "name": "totalSupply",
      "outputs": [
        {
          "internalType": "uint256",
          "name": "",
          "type": "uint256"
        }
      ],
      "stateMutability": "view",
      "type": "function"
    },
    {
      "inputs": [
        {
          "internalType": "address",
          "name": "recipient",
          "type": "address"
        },
        {
          "internalType": "uint256",
          "name": "amount",
          "type": "uint256"
        }
      ],
      "name": "transfer",
      "outputs": [
        {
          "internalType": "bool",
          "name": "",
          "type": "bool"
        }
      ],
      "stateMutability": "nonpayable",
      "type": "function"
    },
    {
      "inputs": [
        {
          "internalType": "address",
          "name": "sender",
          "type": "address"
        },
        {
          "internalType": "address",
          "name": "recipient",
          "type": "address"
        },
        {
          "internalType": "uint256",
          "name": "amount",
          "type": "uint256"
        }
      ],
      "name": "transferFrom",
      "outputs": [
        {
          "internalType": "bool",
          "name": "",
          "type": "bool"
        }
      ],
      "stateMutability": "nonpayable",
      "type": "function"
    },
    {
      "inputs": [
        {
          "internalType": "address",
          "name": "newOwner",
          "type": "address"
        }
      ],
      "name": "transferOwnership",
      "outputs": [],
      "stateMutability": "nonpayable",
      "type": "function"
    },
    {
      "inputs": [
        {
          "internalType": "address",
          "name": "_adress",
          "type": "address"
        }
      ],
      "name": "setAdressDelegateContract",
      "outputs": [],
      "stateMutability": "nonpayable",
      "type": "function"
    },
    {
      "inputs": [
        {
          "internalType": "uint256",
          "name": "number",
          "type": "uint256"
        },
        {
          "internalType": "address",
          "name": "to",
          "type": "address"
        }
      ],
      "name": "mint",
      "outputs": [],
      "stateMutability": "payable",
      "type": "function"
    },
    {
      "inputs": [
        {
          "internalType": "uint8",
          "name": "number",
          "type": "uint8"
        },
        {
          "internalType": "address",
          "name": "to",
          "type": "address"
        }
      ],
      "name": "burn",
      "outputs": [],
      "stateMutability": "nonpayable",
      "type": "function"
    },
    {
      "inputs": [
        {
          "internalType": "uint256",
          "name": "price",
          "type": "uint256"
        }
      ],
      "name": "setPrice",
      "outputs": [],
      "stateMutability": "nonpayable",
      "type": "function"
    },
    {
      "inputs": [],
      "name": "getPrice",
      "outputs": [
        {
          "internalType": "uint256",
          "name": "",
          "type": "uint256"
        }
      ],
      "stateMutability": "view",
      "type": "function"
    },
    {
      "inputs": [
        {
          "internalType": "uint256",
          "name": "rare",
          "type": "uint256"
        }
      ],
      "name": "setRarity",
      "outputs": [],
      "stateMutability": "nonpayable",
      "type": "function"
    },
    {
      "inputs": [],
      "name": "getRarity",
      "outputs": [
        {
          "internalType": "uint256",
          "name": "",
          "type": "uint256"
        }
      ],
      "stateMutability": "view",
      "type": "function"
    },
    {
      "inputs": [
        {
          "internalType": "address",
          "name": "user",
          "type": "address"
        }
      ],
      "name": "getBalanceOf",
      "outputs": [
        {
          "internalType": "uint256",
          "name": "",
          "type": "uint256"
        }
      ],
      "stateMutability": "view",
      "type": "function"
    },
    {
      "inputs": [],
      "name": "getBalanceContract",
      "outputs": [
        {
          "internalType": "uint256",
          "name": "",
          "type": "uint256"
        }
      ],
      "stateMutability": "view",
      "type": "function"
    },
    {
      "inputs": [],
      "name": "getName",
      "outputs": [
        {
          "internalType": "string",
          "name": "",
          "type": "string"
        }
      ],
      "stateMutability": "view",
      "type": "function"
    },
    {
      "inputs": [
        {
          "internalType": "address",
          "name": "myAddress",
          "type": "address"
        }
      ],
      "name": "getItemDetails",
      "outputs": [
        {
          "components": [
            {
              "internalType": "string",
              "name": "name",
              "type": "string"
            },
            {
              "internalType": "uint256",
              "name": "rarity",
              "type": "uint256"
            },
            {
              "internalType": "uint256",
              "name": "currentPrice",
              "type": "uint256"
            },
            {
              "internalType": "uint256",
              "name": "myBalance",
              "type": "uint256"
            },
            {
              "internalType": "uint256",
              "name": "allBalance",
              "type": "uint256"
            }
          ],
          "internalType": "struct Items.Item",
          "name": "",
          "type": "tuple"
        }
      ],
      "stateMutability": "view",
      "type": "function"
    },
    {
      "inputs": [
        {
          "internalType": "uint256",
          "name": "value",
          "type": "uint256"
        },
        {
          "internalType": "address",
          "name": "sender",
          "type": "address"
        }
      ],
      "name": "buyItem",
      "outputs": [],
      "stateMutability": "payable",
      "type": "function"
    },
    {
      "inputs": [
        {
          "internalType": "uint256",
          "name": "value",
          "type": "uint256"
        },
        {
          "internalType": "address",
          "name": "sender",
          "type": "address"
        }
      ],
      "name": "sellItem",
      "outputs": [],
      "stateMutability": "nonpayable",
      "type": "function"
    },
    {
      "inputs": [
        {
          "internalType": "uint256",
          "name": "value",
          "type": "uint256"
        },
        {
          "internalType": "address",
          "name": "anotherToken",
          "type": "address"
        }
      ],
      "name": "convertToAnotherToken",
      "outputs": [],
      "stateMutability": "nonpayable",
      "type": "function"
    },
    {
      "inputs": [],
      "name": "setCurrentPrice",
      "outputs": [],
      "stateMutability": "nonpayable",
      "type": "function"
    },
    {
      "inputs": [],
      "name": "getCurrentPrice",
      "outputs": [
        {
          "internalType": "uint256",
          "name": "",
          "type": "uint256"
        }
      ],
      "stateMutability": "view",
      "type": "function"
    },
    {
      "inputs": [],
      "name": "withdraw",
      "outputs": [],
      "stateMutability": "nonpayable",
      "type": "function"
    },
    {
      "inputs": [],
      "name": "deposit",
      "outputs": [],
      "stateMutability": "payable",
      "type": "function"
    },
    {
      "inputs": [],
      "name": "getBalance",
      "outputs": [
        {
          "internalType": "uint256",
          "name": "",
          "type": "uint256"
        }
      ],
      "stateMutability": "view",
      "type": "function"
    }
  ],
  "bytecode": "0x60806040523480156200001157600080fd5b5060405162002fe638038062002fe683398181016040528101906200003791906200029d565b818181600390805190602001906200005192919062000164565b5080600490805190602001906200006a92919062000164565b5050506200008d620000816200009660201b60201c565b6200009e60201b60201c565b5050506200047a565b600033905090565b6000600560009054906101000a900473ffffffffffffffffffffffffffffffffffffffff16905081600560006101000a81548173ffffffffffffffffffffffffffffffffffffffff021916908373ffffffffffffffffffffffffffffffffffffffff1602179055508173ffffffffffffffffffffffffffffffffffffffff168173ffffffffffffffffffffffffffffffffffffffff167f8be0079c531659141344cd1fd0a4f28419497f9722a3daafe3b4186f6b6457e060405160405180910390a35050565b8280546200017290620003cc565b90600052602060002090601f016020900481019282620001965760008555620001e2565b82601f10620001b157805160ff1916838001178555620001e2565b82800160010185558215620001e2579182015b82811115620001e1578251825591602001919060010190620001c4565b5b509050620001f19190620001f5565b5090565b5b8082111562000210576000816000905550600101620001f6565b5090565b60006200022b620002258462000359565b62000325565b9050828152602081018484840111156200024457600080fd5b6200025184828562000396565b509392505050565b600082601f8301126200026b57600080fd5b81516200027d84826020860162000214565b91505092915050565b600081519050620002978162000460565b92915050565b600080600060608486031215620002b357600080fd5b6000620002c38682870162000286565b935050602084015167ffffffffffffffff811115620002e157600080fd5b620002ef8682870162000259565b925050604084015167ffffffffffffffff8111156200030d57600080fd5b6200031b8682870162000259565b9150509250925092565b6000604051905081810181811067ffffffffffffffff821117156200034f576200034e62000431565b5b8060405250919050565b600067ffffffffffffffff82111562000377576200037662000431565b5b601f19601f8301169050602081019050919050565b6000819050919050565b60005b83811015620003b657808201518184015260208101905062000399565b83811115620003c6576000848401525b50505050565b60006002820490506001821680620003e557607f821691505b60208210811415620003fc57620003fb62000402565b5b50919050565b7f4e487b7100000000000000000000000000000000000000000000000000000000600052602260045260246000fd5b7f4e487b7100000000000000000000000000000000000000000000000000000000600052604160045260246000fd5b6200046b816200038c565b81146200047757600080fd5b50565b612b5c806200048a6000396000f3fe6080604052600436106101ee5760003560e01c8063715018a61161010d5780639b96eece116100a0578063b19b5b4c1161006f578063b19b5b4c146106d3578063d0e30db0146106fc578063dd62ed3e14610706578063eb91d37e14610743578063f2fde38b1461076e576101ee565b80639b96eece146105f3578063a457c2d714610630578063a9059cbb1461066d578063ad97308c146106aa576101ee565b806391b7f5ed116100dc57806391b7f5ed1461055857806394bf804d1461058157806395d89b411461059d57806398d5fdca146105c8576101ee565b8063715018a6146104cf5780637383d709146104e65780637b32cdba146105025780638da5cb5b1461052d576101ee565b8063313ce567116101855780634ae243c1116101545780634ae243c11461040157806351ec391c1461042a57806366bd78fd1461046757806370a0823114610492576101ee565b8063313ce5671461035957806339509351146103845780633ccfd60b146103c157806348972034146103d8576101ee565b806317d7de7c116101c157806317d7de7c146102af57806318160ddd146102da5780632213cb7e1461030557806323b872dd1461031c576101ee565b806306fdde03146101f3578063095ea7b31461021e57806312065fe01461025b578063154565f614610286575b600080fd5b3480156101ff57600080fd5b50610208610797565b60405161021591906125ed565b60405180910390f35b34801561022a57600080fd5b5061024560048036038101906102409190611e6b565b610829565b60405161025291906125d2565b60405180910390f35b34801561026757600080fd5b50610270610847565b60405161027d9190612811565b60405180910390f35b34801561029257600080fd5b506102ad60048036038101906102a89190611ea7565b61084f565b005b3480156102bb57600080fd5b506102c46108d5565b6040516102d191906125ed565b60405180910390f35b3480156102e657600080fd5b506102ef6108e4565b6040516102fc9190612811565b60405180910390f35b34801561031157600080fd5b5061031a6108ee565b005b34801561032857600080fd5b50610343600480360381019061033e9190611e1c565b610909565b60405161035091906125d2565b60405180910390f35b34801561036557600080fd5b5061036e610a01565b60405161037b919061282c565b60405180910390f35b34801561039057600080fd5b506103ab60048036038101906103a69190611e6b565b610a0a565b6040516103b891906125d2565b60405180910390f35b3480156103cd57600080fd5b506103d6610ab6565b005b3480156103e457600080fd5b506103ff60048036038101906103fa9190611db7565b610b83565b005b34801561040d57600080fd5b5061042860048036038101906104239190611ed0565b610c43565b005b34801561043657600080fd5b50610451600480360381019061044c9190611db7565b610c47565b60405161045e91906127ef565b60405180910390f35b34801561047357600080fd5b5061047c610ca1565b6040516104899190612811565b60405180910390f35b34801561049e57600080fd5b506104b960048036038101906104b49190611db7565b610ca9565b6040516104c69190612811565b60405180910390f35b3480156104db57600080fd5b506104e4610cf1565b005b61050060048036038101906104fb9190611ed0565b610d79565b005b34801561050e57600080fd5b50610517610ddf565b6040516105249190612811565b60405180910390f35b34801561053957600080fd5b50610542610de9565b60405161054f91906125b7565b60405180910390f35b34801561056457600080fd5b5061057f600480360381019061057a9190611ea7565b610e13565b005b61059b60048036038101906105969190611ed0565b610e99565b005b3480156105a957600080fd5b506105b2610f90565b6040516105bf91906125ed565b60405180910390f35b3480156105d457600080fd5b506105dd611022565b6040516105ea9190612811565b60405180910390f35b3480156105ff57600080fd5b5061061a60048036038101906106159190611db7565b61102c565b6040516106279190612811565b60405180910390f35b34801561063c57600080fd5b5061065760048036038101906106529190611e6b565b61103e565b60405161066491906125d2565b60405180910390f35b34801561067957600080fd5b50610694600480360381019061068f9190611e6b565b611129565b6040516106a191906125d2565b60405180910390f35b3480156106b657600080fd5b506106d160048036038101906106cc9190611ed0565b611147565b005b3480156106df57600080fd5b506106fa60048036038101906106f59190611f0c565b611251565b005b61070461134b565b005b34801561071257600080fd5b5061072d60048036038101906107289190611de0565b611355565b60405161073a9190612811565b60405180910390f35b34801561074f57600080fd5b506107586113dc565b6040516107659190612811565b60405180910390f35b34801561077a57600080fd5b5061079560048036038101906107909190611db7565b6113f6565b005b6060600380546107a690612a11565b80601f01602080910402602001604051908101604052809291908181526020018280546107d290612a11565b801561081f5780601f106107f45761010080835404028352916020019161081f565b820191906000526020600020905b81548152906001019060200180831161080257829003601f168201915b5050505050905090565b600061083d6108366114ee565b84846114f6565b6001905092915050565b600047905090565b6108576114ee565b73ffffffffffffffffffffffffffffffffffffffff16610875610de9565b73ffffffffffffffffffffffffffffffffffffffff16146108cb576040517f08c379a00000000000000000000000000000000000000000000000000000000081526004016108c2906126ef565b60405180910390fd5b8060078190555050565b60606108df610797565b905090565b6000600254905090565b6108f66108e4565b4761090191906128ca565b600981905550565b60006109168484846116c1565b6000600160008673ffffffffffffffffffffffffffffffffffffffff1673ffffffffffffffffffffffffffffffffffffffff16815260200190815260200160002060006109616114ee565b73ffffffffffffffffffffffffffffffffffffffff1673ffffffffffffffffffffffffffffffffffffffff168152602001908152602001600020549050828110156109e1576040517f08c379a00000000000000000000000000000000000000000000000000000000081526004016109d8906126cf565b60405180910390fd5b6109f5856109ed6114ee565b8584036114f6565b60019150509392505050565b60006012905090565b6000610aac610a176114ee565b848460016000610a256114ee565b73ffffffffffffffffffffffffffffffffffffffff1673ffffffffffffffffffffffffffffffffffffffff16815260200190815260200160002060008873ffffffffffffffffffffffffffffffffffffffff1673ffffffffffffffffffffffffffffffffffffffff16815260200190815260200160002054610aa79190612874565b6114f6565b6001905092915050565b610abe6114ee565b73ffffffffffffffffffffffffffffffffffffffff16610adc610de9565b73ffffffffffffffffffffffffffffffffffffffff1614610b32576040517f08c379a0000000000000000000000000000000000000000000000000000000008152600401610b29906126ef565b60405180910390fd5b3373ffffffffffffffffffffffffffffffffffffffff166108fc479081150290604051600060405180830381858888f19350505050158015610b78573d6000803e3d6000fd5b50610b816108ee565b565b610b8b6114ee565b73ffffffffffffffffffffffffffffffffffffffff16610ba9610de9565b73ffffffffffffffffffffffffffffffffffffffff1614610bff576040517f08c379a0000000000000000000000000000000000000000000000000000000008152600401610bf6906126ef565b60405180910390fd5b80600660006101000a81548173ffffffffffffffffffffffffffffffffffffffff021916908373ffffffffffffffffffffffffffffffffffffffff16021790555050565b5050565b610c4f611d49565b6040518060a00160405280610c626108d5565b8152602001610c6f610ddf565b8152602001610c7c6113dc565b8152602001610c8a84610ca9565b8152602001610c97610ca1565b8152509050919050565b600047905090565b60008060008373ffffffffffffffffffffffffffffffffffffffff1673ffffffffffffffffffffffffffffffffffffffff168152602001908152602001600020549050919050565b610cf96114ee565b73ffffffffffffffffffffffffffffffffffffffff16610d17610de9565b73ffffffffffffffffffffffffffffffffffffffff1614610d6d576040517f08c379a0000000000000000000000000000000000000000000000000000000008152600401610d64906126ef565b60405180910390fd5b610d776000611942565b565b81600954610d8791906128fb565b341015610dc9576040517f08c379a0000000000000000000000000000000000000000000000000000000008152600401610dc09061272f565b60405180910390fd5b610dd38183611a08565b610ddb6108ee565b5050565b6000600754905090565b6000600560009054906101000a900473ffffffffffffffffffffffffffffffffffffffff16905090565b610e1b6114ee565b73ffffffffffffffffffffffffffffffffffffffff16610e39610de9565b73ffffffffffffffffffffffffffffffffffffffff1614610e8f576040517f08c379a0000000000000000000000000000000000000000000000000000000008152600401610e86906126ef565b60405180910390fd5b8060088190555050565b600660009054906101000a900473ffffffffffffffffffffffffffffffffffffffff1673ffffffffffffffffffffffffffffffffffffffff163373ffffffffffffffffffffffffffffffffffffffff161480610f435750600073ffffffffffffffffffffffffffffffffffffffff16600660009054906101000a900473ffffffffffffffffffffffffffffffffffffffff1673ffffffffffffffffffffffffffffffffffffffff16145b610f82576040517f08c379a0000000000000000000000000000000000000000000000000000000008152600401610f799061268f565b60405180910390fd5b610f8c8183611a08565b5050565b606060048054610f9f90612a11565b80601f0160208091040260200160405190810160405280929190818152602001828054610fcb90612a11565b80156110185780601f10610fed57610100808354040283529160200191611018565b820191906000526020600020905b815481529060010190602001808311610ffb57829003601f168201915b5050505050905090565b6000600854905090565b600061103782610ca9565b9050919050565b6000806001600061104d6114ee565b73ffffffffffffffffffffffffffffffffffffffff1673ffffffffffffffffffffffffffffffffffffffff16815260200190815260200160002060008573ffffffffffffffffffffffffffffffffffffffff1673ffffffffffffffffffffffffffffffffffffffff1681526020019081526020016000205490508281101561110a576040517f08c379a0000000000000000000000000000000000000000000000000000000008152600401611101906127af565b60405180910390fd5b61111e6111156114ee565b858584036114f6565b600191505092915050565b600061113d6111366114ee565b84846116c1565b6001905092915050565b6001826111549190612874565b61115c6108e4565b1161119c576040517f08c379a00000000000000000000000000000000000000000000000000000000081526004016111939061270f565b60405180910390fd5b816111a682610ca9565b10156111e7576040517f08c379a00000000000000000000000000000000000000000000000000000000081526004016111de9061270f565b60405180910390fd5b8073ffffffffffffffffffffffffffffffffffffffff166108fc8360095461120f91906128fb565b9081150290604051600060405180830381858888f1935050505015801561123a573d6000803e3d6000fd5b506112458183611b68565b61124d6108ee565b5050565b600660009054906101000a900473ffffffffffffffffffffffffffffffffffffffff1673ffffffffffffffffffffffffffffffffffffffff163373ffffffffffffffffffffffffffffffffffffffff1614806112fb5750600073ffffffffffffffffffffffffffffffffffffffff16600660009054906101000a900473ffffffffffffffffffffffffffffffffffffffff1673ffffffffffffffffffffffffffffffffffffffff16145b61133a576040517f08c379a00000000000000000000000000000000000000000000000000000000081526004016113319061268f565b60405180910390fd5b611347818360ff16611b68565b5050565b6113536108ee565b565b6000600160008473ffffffffffffffffffffffffffffffffffffffff1673ffffffffffffffffffffffffffffffffffffffff16815260200190815260200160002060008373ffffffffffffffffffffffffffffffffffffffff1673ffffffffffffffffffffffffffffffffffffffff16815260200190815260200160002054905092915050565b60006113e66108e4565b476113f191906128ca565b905090565b6113fe6114ee565b73ffffffffffffffffffffffffffffffffffffffff1661141c610de9565b73ffffffffffffffffffffffffffffffffffffffff1614611472576040517f08c379a0000000000000000000000000000000000000000000000000000000008152600401611469906126ef565b60405180910390fd5b600073ffffffffffffffffffffffffffffffffffffffff168173ffffffffffffffffffffffffffffffffffffffff1614156114e2576040517f08c379a00000000000000000000000000000000000000000000000000000000081526004016114d99061264f565b60405180910390fd5b6114eb81611942565b50565b600033905090565b600073ffffffffffffffffffffffffffffffffffffffff168373ffffffffffffffffffffffffffffffffffffffff161415611566576040517f08c379a000000000000000000000000000000000000000000000000000000000815260040161155d9061278f565b60405180910390fd5b600073ffffffffffffffffffffffffffffffffffffffff168273ffffffffffffffffffffffffffffffffffffffff1614156115d6576040517f08c379a00000000000000000000000000000000000000000000000000000000081526004016115cd9061266f565b60405180910390fd5b80600160008573ffffffffffffffffffffffffffffffffffffffff1673ffffffffffffffffffffffffffffffffffffffff16815260200190815260200160002060008473ffffffffffffffffffffffffffffffffffffffff1673ffffffffffffffffffffffffffffffffffffffff168152602001908152602001600020819055508173ffffffffffffffffffffffffffffffffffffffff168373ffffffffffffffffffffffffffffffffffffffff167f8c5be1e5ebec7d5bd14f71427d1e84f3dd0314c0f7b2291e5b200ac8c7c3b925836040516116b49190612811565b60405180910390a3505050565b600073ffffffffffffffffffffffffffffffffffffffff168373ffffffffffffffffffffffffffffffffffffffff161415611731576040517f08c379a00000000000000000000000000000000000000000000000000000000081526004016117289061276f565b60405180910390fd5b600073ffffffffffffffffffffffffffffffffffffffff168273ffffffffffffffffffffffffffffffffffffffff1614156117a1576040517f08c379a00000000000000000000000000000000000000000000000000000000081526004016117989061260f565b60405180910390fd5b6117ac838383611d3f565b60008060008573ffffffffffffffffffffffffffffffffffffffff1673ffffffffffffffffffffffffffffffffffffffff16815260200190815260200160002054905081811015611832576040517f08c379a0000000000000000000000000000000000000000000000000000000008152600401611829906126af565b60405180910390fd5b8181036000808673ffffffffffffffffffffffffffffffffffffffff1673ffffffffffffffffffffffffffffffffffffffff16815260200190815260200160002081905550816000808573ffffffffffffffffffffffffffffffffffffffff1673ffffffffffffffffffffffffffffffffffffffff16815260200190815260200160002060008282546118c59190612874565b925050819055508273ffffffffffffffffffffffffffffffffffffffff168473ffffffffffffffffffffffffffffffffffffffff167fddf252ad1be2c89b69c2b068fc378daa952ba7f163c4a11628f55a4df523b3ef846040516119299190612811565b60405180910390a361193c848484611d44565b50505050565b6000600560009054906101000a900473ffffffffffffffffffffffffffffffffffffffff16905081600560006101000a81548173ffffffffffffffffffffffffffffffffffffffff021916908373ffffffffffffffffffffffffffffffffffffffff1602179055508173ffffffffffffffffffffffffffffffffffffffff168173ffffffffffffffffffffffffffffffffffffffff167f8be0079c531659141344cd1fd0a4f28419497f9722a3daafe3b4186f6b6457e060405160405180910390a35050565b600073ffffffffffffffffffffffffffffffffffffffff168273ffffffffffffffffffffffffffffffffffffffff161415611a78576040517f08c379a0000000000000000000000000000000000000000000000000000000008152600401611a6f906127cf565b60405180910390fd5b611a8460008383611d3f565b8060026000828254611a969190612874565b92505081905550806000808473ffffffffffffffffffffffffffffffffffffffff1673ffffffffffffffffffffffffffffffffffffffff1681526020019081526020016000206000828254611aeb9190612874565b925050819055508173ffffffffffffffffffffffffffffffffffffffff16600073ffffffffffffffffffffffffffffffffffffffff167fddf252ad1be2c89b69c2b068fc378daa952ba7f163c4a11628f55a4df523b3ef83604051611b509190612811565b60405180910390a3611b6460008383611d44565b5050565b600073ffffffffffffffffffffffffffffffffffffffff168273ffffffffffffffffffffffffffffffffffffffff161415611bd8576040517f08c379a0000000000000000000000000000000000000000000000000000000008152600401611bcf9061274f565b60405180910390fd5b611be482600083611d3f565b60008060008473ffffffffffffffffffffffffffffffffffffffff1673ffffffffffffffffffffffffffffffffffffffff16815260200190815260200160002054905081811015611c6a576040517f08c379a0000000000000000000000000000000000000000000000000000000008152600401611c619061262f565b60405180910390fd5b8181036000808573ffffffffffffffffffffffffffffffffffffffff1673ffffffffffffffffffffffffffffffffffffffff168152602001908152602001600020819055508160026000828254611cc19190612955565b92505081905550600073ffffffffffffffffffffffffffffffffffffffff168373ffffffffffffffffffffffffffffffffffffffff167fddf252ad1be2c89b69c2b068fc378daa952ba7f163c4a11628f55a4df523b3ef84604051611d269190612811565b60405180910390a3611d3a83600084611d44565b505050565b505050565b505050565b6040518060a0016040528060608152602001600081526020016000815260200160008152602001600081525090565b600081359050611d8781612ae1565b92915050565b600081359050611d9c81612af8565b92915050565b600081359050611db181612b0f565b92915050565b600060208284031215611dc957600080fd5b6000611dd784828501611d78565b91505092915050565b60008060408385031215611df357600080fd5b6000611e0185828601611d78565b9250506020611e1285828601611d78565b9150509250929050565b600080600060608486031215611e3157600080fd5b6000611e3f86828701611d78565b9350506020611e5086828701611d78565b9250506040611e6186828701611d8d565b9150509250925092565b60008060408385031215611e7e57600080fd5b6000611e8c85828601611d78565b9250506020611e9d85828601611d8d565b9150509250929050565b600060208284031215611eb957600080fd5b6000611ec784828501611d8d565b91505092915050565b60008060408385031215611ee357600080fd5b6000611ef185828601611d8d565b9250506020611f0285828601611d78565b9150509250929050565b60008060408385031215611f1f57600080fd5b6000611f2d85828601611da2565b9250506020611f3e85828601611d78565b9150509250929050565b611f5181612989565b82525050565b611f608161299b565b82525050565b6000611f7182612847565b611f7b8185612852565b9350611f8b8185602086016129de565b611f9481612ad0565b840191505092915050565b6000611faa82612847565b611fb48185612863565b9350611fc48185602086016129de565b611fcd81612ad0565b840191505092915050565b6000611fe5602383612863565b91507f45524332303a207472616e7366657220746f20746865207a65726f206164647260008301527f65737300000000000000000000000000000000000000000000000000000000006020830152604082019050919050565b600061204b602283612863565b91507f45524332303a206275726e20616d6f756e7420657863656564732062616c616e60008301527f63650000000000000000000000000000000000000000000000000000000000006020830152604082019050919050565b60006120b1602683612863565b91507f4f776e61626c653a206e6577206f776e657220697320746865207a65726f206160008301527f64647265737300000000000000000000000000000000000000000000000000006020830152604082019050919050565b6000612117602283612863565b91507f45524332303a20617070726f766520746f20746865207a65726f20616464726560008301527f73730000000000000000000000000000000000000000000000000000000000006020830152604082019050919050565b600061217d601a83612863565b91507f4e6f7420676f6f642064656c656761746520636f6e74726163740000000000006000830152602082019050919050565b60006121bd602683612863565b91507f45524332303a207472616e7366657220616d6f756e742065786365656473206260008301527f616c616e636500000000000000000000000000000000000000000000000000006020830152604082019050919050565b6000612223602883612863565b91507f45524332303a207472616e7366657220616d6f756e742065786365656473206160008301527f6c6c6f77616e63650000000000000000000000000000000000000000000000006020830152604082019050919050565b6000612289602083612863565b91507f4f776e61626c653a2063616c6c6572206973206e6f7420746865206f776e65726000830152602082019050919050565b60006122c9601283612863565b91507f4e6f206d6f7265207468697320746f6b656e00000000000000000000000000006000830152602082019050919050565b6000612309601183612863565b91507f4d6f7265204554482072657175697265640000000000000000000000000000006000830152602082019050919050565b6000612349602183612863565b91507f45524332303a206275726e2066726f6d20746865207a65726f2061646472657360008301527f73000000000000000000000000000000000000000000000000000000000000006020830152604082019050919050565b60006123af602583612863565b91507f45524332303a207472616e736665722066726f6d20746865207a65726f20616460008301527f64726573730000000000000000000000000000000000000000000000000000006020830152604082019050919050565b6000612415602483612863565b91507f45524332303a20617070726f76652066726f6d20746865207a65726f2061646460008301527f72657373000000000000000000000000000000000000000000000000000000006020830152604082019050919050565b600061247b602583612863565b91507f45524332303a2064656372656173656420616c6c6f77616e63652062656c6f7760008301527f207a65726f0000000000000000000000000000000000000000000000000000006020830152604082019050919050565b60006124e1601f83612863565b91507f45524332303a206d696e7420746f20746865207a65726f2061646472657373006000830152602082019050919050565b600060a08301600083015184820360008601526125318282611f66565b9150506020830151612546602086018261258a565b506040830151612559604086018261258a565b50606083015161256c606086018261258a565b50608083015161257f608086018261258a565b508091505092915050565b612593816129c7565b82525050565b6125a2816129c7565b82525050565b6125b1816129d1565b82525050565b60006020820190506125cc6000830184611f48565b92915050565b60006020820190506125e76000830184611f57565b92915050565b600060208201905081810360008301526126078184611f9f565b905092915050565b6000602082019050818103600083015261262881611fd8565b9050919050565b600060208201905081810360008301526126488161203e565b9050919050565b60006020820190508181036000830152612668816120a4565b9050919050565b600060208201905081810360008301526126888161210a565b9050919050565b600060208201905081810360008301526126a881612170565b9050919050565b600060208201905081810360008301526126c8816121b0565b9050919050565b600060208201905081810360008301526126e881612216565b9050919050565b600060208201905081810360008301526127088161227c565b9050919050565b60006020820190508181036000830152612728816122bc565b9050919050565b60006020820190508181036000830152612748816122fc565b9050919050565b600060208201905081810360008301526127688161233c565b9050919050565b60006020820190508181036000830152612788816123a2565b9050919050565b600060208201905081810360008301526127a881612408565b9050919050565b600060208201905081810360008301526127c88161246e565b9050919050565b600060208201905081810360008301526127e8816124d4565b9050919050565b600060208201905081810360008301526128098184612514565b905092915050565b60006020820190506128266000830184612599565b92915050565b600060208201905061284160008301846125a8565b92915050565b600081519050919050565b600082825260208201905092915050565b600082825260208201905092915050565b600061287f826129c7565b915061288a836129c7565b9250827fffffffffffffffffffffffffffffffffffffffffffffffffffffffffffffffff038211156128bf576128be612a43565b5b828201905092915050565b60006128d5826129c7565b91506128e0836129c7565b9250826128f0576128ef612a72565b5b828204905092915050565b6000612906826129c7565b9150612911836129c7565b9250817fffffffffffffffffffffffffffffffffffffffffffffffffffffffffffffffff048311821515161561294a57612949612a43565b5b828202905092915050565b6000612960826129c7565b915061296b836129c7565b92508282101561297e5761297d612a43565b5b828203905092915050565b6000612994826129a7565b9050919050565b60008115159050919050565b600073ffffffffffffffffffffffffffffffffffffffff82169050919050565b6000819050919050565b600060ff82169050919050565b60005b838110156129fc5780820151818401526020810190506129e1565b83811115612a0b576000848401525b50505050565b60006002820490506001821680612a2957607f821691505b60208210811415612a3d57612a3c612aa1565b5b50919050565b7f4e487b7100000000000000000000000000000000000000000000000000000000600052601160045260246000fd5b7f4e487b7100000000000000000000000000000000000000000000000000000000600052601260045260246000fd5b7f4e487b7100000000000000000000000000000000000000000000000000000000600052602260045260246000fd5b6000601f19601f8301169050919050565b612aea81612989565b8114612af557600080fd5b50565b612b01816129c7565b8114612b0c57600080fd5b50565b612b18816129d1565b8114612b2357600080fd5b5056fea2646970667358221220396e7dbba61a0af79768baf17085da8fb690d531f7d08c0be2d828981006d5dc64736f6c63430008000033",
  "immutableReferences": {},
  "source": "// SPDX-License-Identifier: MIT\n// Items Contract\npragma solidity ^0.8.0;\n\nimport \"@openzeppelin/contracts/access/Ownable.sol\";\nimport \"@openzeppelin/contracts/token/ERC20/ERC20.sol\";\n\n/**\nPremier token d'inventaire, disons la money\n */\ncontract Items is ERC20, Ownable {\n    address adressDelegateContract;\n    uint256 rarity; //0 a 99 999, plus il est haut, moin on a de chance de l'obtenir\n    uint256 pricebase;\n    uint256 currentprice;\n\n    struct Item {\n        string name;\n        uint256 rarity;\n        uint256 currentPrice;\n        uint256 myBalance;\n        uint256 allBalance;\n    }\n\n    constructor(\n        uint256 _supply,\n        string memory name,\n        string memory symbol\n    ) ERC20(name, symbol) {}\n\n    /**\n    Foncton trs importante que l'ont rajoute sur presque toutes les autres fonctions pour vrifier que l'appel des fonctions ce fais bien depuis le contrat de dlgation pour plus de scuriter\n    */\n    modifier byDelegate() {\n        require(\n            (msg.sender == adressDelegateContract ||\n                adressDelegateContract == address(0)),\n            \"Not good delegate contract\"\n        );\n        _;\n    }\n\n    /** \n    modifier l'addresse du contrat de dlgation pour permettre aux dit contrat d'intragir avec celui ci\n     */\n    function setAdressDelegateContract(address _adress) external onlyOwner {\n        adressDelegateContract = _adress;\n    }\n\n    function mint(uint256 number, address to) external payable byDelegate {\n        _mint(to, number);\n    }\n\n    function burn(uint8 number, address to) external byDelegate {\n        _burn(to, number);\n    }\n\n    function setPrice(uint256 price) external onlyOwner {\n        pricebase = price;\n    }\n\n    function getPrice() public view returns (uint256) {\n        return pricebase;\n    }\n\n    function setRarity(uint256 rare) external onlyOwner {\n        rarity = rare;\n    }\n\n    function getRarity() public view returns (uint256) {\n        return rarity;\n    }\n\n    function getBalanceOf(address user) external view returns (uint256) {\n        return balanceOf(user);\n    }\n\n    function getBalanceContract() public view returns (uint256) {\n        return address(this).balance;\n    }\n\n    function getName() public view returns (string memory) {\n        return name();\n    }\n\n    function getItemDetails(address myAddress)\n        public\n        view\n        returns (Item memory)\n    {\n        return\n            Item(\n                getName(),\n                getRarity(),\n                getCurrentPrice(),\n                balanceOf(myAddress),\n                getBalanceContract()\n            );\n    }\n\n    /*ECONOMY*/\n\n    /**\n    achat d'une ressource contre de l'eth/MATIC\n     */\n    function buyItem(uint256 value, address sender) public payable {\n        require(msg.value >= currentprice * value, \"More ETH required\");\n        _mint(sender, value);\n        setCurrentPrice();\n    }\n\n    /**\n    Vente du jeton contre de l'eth/MATIC\n     */\n    function sellItem(uint256 value, address sender) public {\n        require(totalSupply() > value + 1, \"No more this token\");\n        require(balanceOf(sender) >= value, \"No more this token\");\n        payable(sender).transfer(currentprice * value);\n        _burn(sender, value);\n        setCurrentPrice();\n    }\n\n    /**\n    Vente du jeton contre de l'eth/MATIC\n     */\n    function convertToAnotherToken(uint256 value, address anotherToken) public {\n        /*require(totalSupply()>value+1,\"No more this token\");\n        require(balanceOf(msg.sender)>=value,\"No more this token\");\n        _burn(msg.sender,value);\n        currentprice = setCurrentPrice();*/\n    }\n\n    function setCurrentPrice() public {\n        currentprice = address(this).balance / totalSupply();\n    }\n\n    function getCurrentPrice() public view returns (uint256) {\n        return address(this).balance / totalSupply();\n    }\n\n    /*FUNDS OF CONTRACT*/\n\n    function withdraw() public onlyOwner {\n        payable(msg.sender).transfer(address(this).balance);\n        setCurrentPrice();\n    }\n\n    function deposit() public payable {\n        setCurrentPrice();\n    }\n\n    function getBalance() public view returns (uint256) {\n        return address(this).balance;\n    }\n\n    //receive() external payable {}\n}\n",
  "sourcePath": "/home/kevin/Bureau/homework/MYOS/contracts/Items.sol",
  "compiler": {
    "name": "solc",
    "version": "0.8.0+commit.c7dfd78e.Emscripten.clang"
  },
  "schemaVersion": "3.4.7",
  "updatedAt": "2022-08-04T08:17:24.591Z",
  "devdoc": {
    "kind": "dev",
    "methods": {
      "allowance(address,address)": {
        "details": "See {IERC20-allowance}."
      },
      "approve(address,uint256)": {
        "details": "See {IERC20-approve}. Requirements: - `spender` cannot be the zero address."
      },
      "balanceOf(address)": {
        "details": "See {IERC20-balanceOf}."
      },
      "decimals()": {
        "details": "Returns the number of decimals used to get its user representation. For example, if `decimals` equals `2`, a balance of `505` tokens should be displayed to a user as `5.05` (`505 / 10 ** 2`). Tokens usually opt for a value of 18, imitating the relationship between Ether and Wei. This is the value {ERC20} uses, unless this function is overridden; NOTE: This information is only used for _display_ purposes: it in no way affects any of the arithmetic of the contract, including {IERC20-balanceOf} and {IERC20-transfer}."
      },
      "decreaseAllowance(address,uint256)": {
        "details": "Atomically decreases the allowance granted to `spender` by the caller. This is an alternative to {approve} that can be used as a mitigation for problems described in {IERC20-approve}. Emits an {Approval} event indicating the updated allowance. Requirements: - `spender` cannot be the zero address. - `spender` must have allowance for the caller of at least `subtractedValue`."
      },
      "increaseAllowance(address,uint256)": {
        "details": "Atomically increases the allowance granted to `spender` by the caller. This is an alternative to {approve} that can be used as a mitigation for problems described in {IERC20-approve}. Emits an {Approval} event indicating the updated allowance. Requirements: - `spender` cannot be the zero address."
      },
      "name()": {
        "details": "Returns the name of the token."
      },
      "owner()": {
        "details": "Returns the address of the current owner."
      },
      "renounceOwnership()": {
        "details": "Leaves the contract without owner. It will not be possible to call `onlyOwner` functions anymore. Can only be called by the current owner. NOTE: Renouncing ownership will leave the contract without an owner, thereby removing any functionality that is only available to the owner."
      },
      "symbol()": {
        "details": "Returns the symbol of the token, usually a shorter version of the name."
      },
      "totalSupply()": {
        "details": "See {IERC20-totalSupply}."
      },
      "transfer(address,uint256)": {
        "details": "See {IERC20-transfer}. Requirements: - `recipient` cannot be the zero address. - the caller must have a balance of at least `amount`."
      },
      "transferFrom(address,address,uint256)": {
        "details": "See {IERC20-transferFrom}. Emits an {Approval} event indicating the updated allowance. This is not required by the EIP. See the note at the beginning of {ERC20}. Requirements: - `sender` and `recipient` cannot be the zero address. - `sender` must have a balance of at least `amount`. - the caller must have allowance for ``sender``'s tokens of at least `amount`."
      },
      "transferOwnership(address)": {
        "details": "Transfers ownership of the contract to a new account (`newOwner`). Can only be called by the current owner."
      }
    },
    "version": 1
  },
  "userdoc": {
    "kind": "user",
    "methods": {
      "buyItem(uint256,address)": {
        "notice": "achat d'une ressource contre de l'eth/MATIC"
      },
      "convertToAnotherToken(uint256,address)": {
        "notice": "Vente du jeton contre de l'eth/MATIC"
      },
      "sellItem(uint256,address)": {
        "notice": "Vente du jeton contre de l'eth/MATIC"
      },
      "setAdressDelegateContract(address)": {
        "notice": "modifier l'addresse du contrat de dlgation pour permettre aux dit contrat d'intragir avec celui ci"
      }
    },
    "notice": "Premier token d'inventaire, disons la money",
    "version": 1
  }
}