{
  "contractName": "Items",
  "abi": [
    {
      "inputs": [
        {
          "internalType": "uint256",
          "name": "_supply",
          "type": "uint256"
        },
        {
          "internalType": "string",
          "name": "name",
          "type": "string"
        },
        {
          "internalType": "string",
          "name": "symbol",
          "type": "string"
        }
      ],
      "stateMutability": "nonpayable",
      "type": "constructor"
    },
    {
      "anonymous": false,
      "inputs": [
        {
          "indexed": true,
          "internalType": "address",
          "name": "owner",
          "type": "address"
        },
        {
          "indexed": true,
          "internalType": "address",
          "name": "spender",
          "type": "address"
        },
        {
          "indexed": false,
          "internalType": "uint256",
          "name": "value",
          "type": "uint256"
        }
      ],
      "name": "Approval",
      "type": "event"
    },
    {
      "anonymous": false,
      "inputs": [
        {
          "indexed": true,
          "internalType": "address",
          "name": "previousOwner",
          "type": "address"
        },
        {
          "indexed": true,
          "internalType": "address",
          "name": "newOwner",
          "type": "address"
        }
      ],
      "name": "OwnershipTransferred",
      "type": "event"
    },
    {
      "anonymous": false,
      "inputs": [
        {
          "indexed": true,
          "internalType": "address",
          "name": "from",
          "type": "address"
        },
        {
          "indexed": true,
          "internalType": "address",
          "name": "to",
          "type": "address"
        },
        {
          "indexed": false,
          "internalType": "uint256",
          "name": "value",
          "type": "uint256"
        }
      ],
      "name": "Transfer",
      "type": "event"
    },
    {
      "inputs": [
        {
          "internalType": "address",
          "name": "owner",
          "type": "address"
        },
        {
          "internalType": "address",
          "name": "spender",
          "type": "address"
        }
      ],
      "name": "allowance",
      "outputs": [
        {
          "internalType": "uint256",
          "name": "",
          "type": "uint256"
        }
      ],
      "stateMutability": "view",
      "type": "function"
    },
    {
      "inputs": [
        {
          "internalType": "address",
          "name": "spender",
          "type": "address"
        },
        {
          "internalType": "uint256",
          "name": "amount",
          "type": "uint256"
        }
      ],
      "name": "approve",
      "outputs": [
        {
          "internalType": "bool",
          "name": "",
          "type": "bool"
        }
      ],
      "stateMutability": "nonpayable",
      "type": "function"
    },
    {
      "inputs": [
        {
          "internalType": "address",
          "name": "account",
          "type": "address"
        }
      ],
      "name": "balanceOf",
      "outputs": [
        {
          "internalType": "uint256",
          "name": "",
          "type": "uint256"
        }
      ],
      "stateMutability": "view",
      "type": "function"
    },
    {
      "inputs": [],
      "name": "decimals",
      "outputs": [
        {
          "internalType": "uint8",
          "name": "",
          "type": "uint8"
        }
      ],
      "stateMutability": "view",
      "type": "function"
    },
    {
      "inputs": [
        {
          "internalType": "address",
          "name": "spender",
          "type": "address"
        },
        {
          "internalType": "uint256",
          "name": "subtractedValue",
          "type": "uint256"
        }
      ],
      "name": "decreaseAllowance",
      "outputs": [
        {
          "internalType": "bool",
          "name": "",
          "type": "bool"
        }
      ],
      "stateMutability": "nonpayable",
      "type": "function"
    },
    {
      "inputs": [
        {
          "internalType": "address",
          "name": "spender",
          "type": "address"
        },
        {
          "internalType": "uint256",
          "name": "addedValue",
          "type": "uint256"
        }
      ],
      "name": "increaseAllowance",
      "outputs": [
        {
          "internalType": "bool",
          "name": "",
          "type": "bool"
        }
      ],
      "stateMutability": "nonpayable",
      "type": "function"
    },
    {
      "inputs": [],
      "name": "name",
      "outputs": [
        {
          "internalType": "string",
          "name": "",
          "type": "string"
        }
      ],
      "stateMutability": "view",
      "type": "function"
    },
    {
      "inputs": [],
      "name": "owner",
      "outputs": [
        {
          "internalType": "address",
          "name": "",
          "type": "address"
        }
      ],
      "stateMutability": "view",
      "type": "function"
    },
    {
      "inputs": [],
      "name": "renounceOwnership",
      "outputs": [],
      "stateMutability": "nonpayable",
      "type": "function"
    },
    {
      "inputs": [],
      "name": "symbol",
      "outputs": [
        {
          "internalType": "string",
          "name": "",
          "type": "string"
        }
      ],
      "stateMutability": "view",
      "type": "function"
    },
    {
      "inputs": [],
      "name": "totalSupply",
      "outputs": [
        {
          "internalType": "uint256",
          "name": "",
          "type": "uint256"
        }
      ],
      "stateMutability": "view",
      "type": "function"
    },
    {
      "inputs": [
        {
          "internalType": "address",
          "name": "to",
          "type": "address"
        },
        {
          "internalType": "uint256",
          "name": "amount",
          "type": "uint256"
        }
      ],
      "name": "transfer",
      "outputs": [
        {
          "internalType": "bool",
          "name": "",
          "type": "bool"
        }
      ],
      "stateMutability": "nonpayable",
      "type": "function"
    },
    {
      "inputs": [
        {
          "internalType": "address",
          "name": "from",
          "type": "address"
        },
        {
          "internalType": "address",
          "name": "to",
          "type": "address"
        },
        {
          "internalType": "uint256",
          "name": "amount",
          "type": "uint256"
        }
      ],
      "name": "transferFrom",
      "outputs": [
        {
          "internalType": "bool",
          "name": "",
          "type": "bool"
        }
      ],
      "stateMutability": "nonpayable",
      "type": "function"
    },
    {
      "inputs": [
        {
          "internalType": "address",
          "name": "newOwner",
          "type": "address"
        }
      ],
      "name": "transferOwnership",
      "outputs": [],
      "stateMutability": "nonpayable",
      "type": "function"
    },
    {
      "inputs": [
        {
          "internalType": "address",
          "name": "_address",
          "type": "address"
        }
      ],
      "name": "setaddressDelegateContract",
      "outputs": [],
      "stateMutability": "nonpayable",
      "type": "function"
    },
    {
      "inputs": [
        {
          "internalType": "uint256",
          "name": "number",
          "type": "uint256"
        },
        {
          "internalType": "address",
          "name": "to",
          "type": "address"
        }
      ],
      "name": "mint",
      "outputs": [],
      "stateMutability": "payable",
      "type": "function"
    },
    {
      "inputs": [
        {
          "internalType": "uint8",
          "name": "number",
          "type": "uint8"
        },
        {
          "internalType": "address",
          "name": "to",
          "type": "address"
        }
      ],
      "name": "burn",
      "outputs": [],
      "stateMutability": "nonpayable",
      "type": "function"
    },
    {
      "inputs": [
        {
          "internalType": "uint256",
          "name": "price",
          "type": "uint256"
        }
      ],
      "name": "setPrice",
      "outputs": [],
      "stateMutability": "nonpayable",
      "type": "function"
    },
    {
      "inputs": [],
      "name": "getPrice",
      "outputs": [
        {
          "internalType": "uint256",
          "name": "",
          "type": "uint256"
        }
      ],
      "stateMutability": "view",
      "type": "function"
    },
    {
      "inputs": [
        {
          "internalType": "uint256",
          "name": "rare",
          "type": "uint256"
        }
      ],
      "name": "setRarity",
      "outputs": [],
      "stateMutability": "nonpayable",
      "type": "function"
    },
    {
      "inputs": [],
      "name": "getRarity",
      "outputs": [
        {
          "internalType": "uint256",
          "name": "",
          "type": "uint256"
        }
      ],
      "stateMutability": "view",
      "type": "function"
    },
    {
      "inputs": [
        {
          "internalType": "address",
          "name": "myAddress",
          "type": "address"
        }
      ],
      "name": "getItemDetails",
      "outputs": [
        {
          "components": [
            {
              "internalType": "string",
              "name": "name",
              "type": "string"
            },
            {
              "internalType": "uint256",
              "name": "rarity",
              "type": "uint256"
            },
            {
              "internalType": "uint256",
              "name": "currentPrice",
              "type": "uint256"
            },
            {
              "internalType": "uint256",
              "name": "myBalance",
              "type": "uint256"
            },
            {
              "internalType": "uint256",
              "name": "allBalance",
              "type": "uint256"
            }
          ],
          "internalType": "struct Items.Item",
          "name": "",
          "type": "tuple"
        }
      ],
      "stateMutability": "view",
      "type": "function"
    },
    {
      "inputs": [
        {
          "internalType": "uint256",
          "name": "quantity",
          "type": "uint256"
        },
        {
          "internalType": "address",
          "name": "sender",
          "type": "address"
        }
      ],
      "name": "buyItem",
      "outputs": [],
      "stateMutability": "payable",
      "type": "function"
    },
    {
      "inputs": [
        {
          "internalType": "uint256",
          "name": "quantity",
          "type": "uint256"
        },
        {
          "internalType": "address",
          "name": "sender",
          "type": "address"
        }
      ],
      "name": "sellItem",
      "outputs": [],
      "stateMutability": "nonpayable",
      "type": "function"
    },
    {
      "inputs": [
        {
          "internalType": "uint256",
          "name": "value",
          "type": "uint256"
        },
        {
          "internalType": "address",
          "name": "anotherToken",
          "type": "address"
        }
      ],
      "name": "convertToAnotherToken",
      "outputs": [],
      "stateMutability": "nonpayable",
      "type": "function"
    },
    {
      "inputs": [],
      "name": "setCurrentPrice",
      "outputs": [],
      "stateMutability": "nonpayable",
      "type": "function"
    },
    {
      "inputs": [],
      "name": "getCurrentPrice",
      "outputs": [
        {
          "internalType": "uint256",
          "name": "",
          "type": "uint256"
        }
      ],
      "stateMutability": "view",
      "type": "function"
    },
    {
      "inputs": [],
      "name": "withdraw",
      "outputs": [],
      "stateMutability": "nonpayable",
      "type": "function"
    }
  ],
  "bytecode": "0x60806040523480156200001157600080fd5b506040516200173e3803806200173e833981016040819052620000349162000252565b8151829082906200004d906003906020850190620000df565b50805162000063906004906020840190620000df565b505050620000806200007a6200008960201b60201c565b6200008d565b50505062000303565b3390565b600580546001600160a01b038381166001600160a01b0319831681179093556040519116919082907f8be0079c531659141344cd1fd0a4f28419497f9722a3daafe3b4186f6b6457e090600090a35050565b828054620000ed90620002c6565b90600052602060002090601f0160209004810192826200011157600085556200015c565b82601f106200012c57805160ff19168380011785556200015c565b828001600101855582156200015c579182015b828111156200015c5782518255916020019190600101906200013f565b506200016a9291506200016e565b5090565b5b808211156200016a57600081556001016200016f565b634e487b7160e01b600052604160045260246000fd5b600082601f830112620001ad57600080fd5b81516001600160401b0380821115620001ca57620001ca62000185565b604051601f8301601f19908116603f01168101908282118183101715620001f557620001f562000185565b816040528381526020925086838588010111156200021257600080fd5b600091505b8382101562000236578582018301518183018401529082019062000217565b83821115620002485760008385830101525b9695505050505050565b6000806000606084860312156200026857600080fd5b835160208501519093506001600160401b03808211156200028857600080fd5b62000296878388016200019b565b93506040860151915080821115620002ad57600080fd5b50620002bc868287016200019b565b9150509250925092565b600181811c90821680620002db57607f821691505b60208210811415620002fd57634e487b7160e01b600052602260045260246000fd5b50919050565b61142b80620003136000396000f3fe6080604052600436106101b75760003560e01c80637b32cdba116100ec578063a9059cbb1161008a578063dd62ed3e11610064578063dd62ed3e146104a2578063de6d9cf2146104c2578063eb91d37e146104e2578063f2fde38b146104f757600080fd5b8063a9059cbb14610442578063ad97308c14610462578063b19b5b4c1461048257600080fd5b806394bf804d116100c657806394bf804d146103e557806395d89b41146103f857806398d5fdca1461040d578063a457c2d71461042257600080fd5b80637b32cdba146103885780638da5cb5b1461039d57806391b7f5ed146103c557600080fd5b8063395093511161015957806351ec391c1161013357806351ec391c146102fd57806370a082311461032a578063715018a6146103605780637383d7091461037557600080fd5b806339509351146102a95780633ccfd60b146102c95780634ae243c1146102de57600080fd5b806318160ddd1161019557806318160ddd146102395780632213cb7e1461025857806323b872dd1461026d578063313ce5671461028d57600080fd5b806306fdde03146101bc578063095ea7b3146101e7578063154565f614610217575b600080fd5b3480156101c857600080fd5b506101d1610517565b6040516101de919061119a565b60405180910390f35b3480156101f357600080fd5b506102076102023660046111d0565b6105a9565b60405190151581526020016101de565b34801561022357600080fd5b506102376102323660046111fa565b6105c1565b005b34801561024557600080fd5b506002545b6040519081526020016101de565b34801561026457600080fd5b506102376105ce565b34801561027957600080fd5b50610207610288366004611213565b6105e0565b34801561029957600080fd5b50604051601281526020016101de565b3480156102b557600080fd5b506102076102c43660046111d0565b610604565b3480156102d557600080fd5b50610237610626565b3480156102ea57600080fd5b506102376102f936600461124f565b5050565b34801561030957600080fd5b5061031d61031836600461127b565b610665565b6040516101de9190611296565b34801561033657600080fd5b5061024a61034536600461127b565b6001600160a01b031660009081526020819052604090205490565b34801561036c57600080fd5b506102376106f8565b61023761038336600461124f565b61070a565b34801561039457600080fd5b5060075461024a565b3480156103a957600080fd5b506005546040516001600160a01b0390911681526020016101de565b3480156103d157600080fd5b506102376103e03660046111fa565b610772565b6102376103f336600461124f565b61077f565b34801561040457600080fd5b506101d1610800565b34801561041957600080fd5b5060085461024a565b34801561042e57600080fd5b5061020761043d3660046111d0565b61080f565b34801561044e57600080fd5b5061020761045d3660046111d0565b61088a565b34801561046e57600080fd5b5061023761047d36600461124f565b610898565b34801561048e57600080fd5b5061023761049d3660046112e6565b610999565b3480156104ae57600080fd5b5061024a6104bd366004611318565b610a1d565b3480156104ce57600080fd5b506102376104dd36600461127b565b610a48565b3480156104ee57600080fd5b5061024a610a72565b34801561050357600080fd5b5061023761051236600461127b565b610a8c565b60606003805461052690611334565b80601f016020809104026020016040519081016040528092919081815260200182805461055290611334565b801561059f5780601f106105745761010080835404028352916020019161059f565b820191906000526020600020905b81548152906001019060200180831161058257829003601f168201915b5050505050905090565b6000336105b7818585610b05565b5060019392505050565b6105c9610c2a565b600755565b6002546105db9047611385565b600955565b6000336105ee858285610c84565b6105f9858585610cfe565b506001949350505050565b6000336105b78185856106178383610a1d565b61062191906113a7565b610b05565b61062e610c2a565b60405133904780156108fc02916000818181858888f1935050505015801561065a573d6000803e3d6000fd5b506106636105ce565b565b6106976040518060a0016040528060608152602001600081526020016000815260200160008152602001600081525090565b6040518060a001604052806106aa610ecc565b81526020016106b860075490565b81526020016106c5610a72565b81526020016106e9846001600160a01b031660009081526020819052604090205490565b81524760209091015292915050565b610700610c2a565b6106636000610ed6565b8160095461071891906113bf565b3410156107605760405162461bcd60e51b8152602060048201526011602482015270135bdc9948115512081c995c5d5a5c9959607a1b60448201526064015b60405180910390fd5b61076a8183610f28565b6102f96105ce565b61077a610c2a565b600855565b6006546001600160a01b0316336001600160a01b031614806107aa57506006546001600160a01b0316155b6107f65760405162461bcd60e51b815260206004820152601a60248201527f4e6f7420676f6f642064656c656761746520636f6e74726163740000000000006044820152606401610757565b6102f98183610f28565b60606004805461052690611334565b6000338161081d8286610a1d565b90508381101561087d5760405162461bcd60e51b815260206004820152602560248201527f45524332303a2064656372656173656420616c6c6f77616e63652062656c6f77604482015264207a65726f60d81b6064820152608401610757565b6105f98286868403610b05565b6000336105b7818585610cfe565b6108a38260016113a7565b600254116108e85760405162461bcd60e51b815260206004820152601260248201527127379036b7b932903a3434b9903a37b5b2b760711b6044820152606401610757565b81610908826001600160a01b031660009081526020819052604090205490565b101561094b5760405162461bcd60e51b815260206004820152601260248201527127379036b7b932903a3434b9903a37b5b2b760711b6044820152606401610757565b806001600160a01b03166108fc8360095461096691906113bf565b6040518115909202916000818181858888f1935050505015801561098e573d6000803e3d6000fd5b5061076a8183611007565b6006546001600160a01b0316336001600160a01b031614806109c457506006546001600160a01b0316155b610a105760405162461bcd60e51b815260206004820152601a60248201527f4e6f7420676f6f642064656c656761746520636f6e74726163740000000000006044820152606401610757565b6102f9818360ff16611007565b6001600160a01b03918216600090815260016020908152604080832093909416825291909152205490565b610a50610c2a565b600680546001600160a01b0319166001600160a01b0392909216919091179055565b6000610a7d60025490565b610a879047611385565b905090565b610a94610c2a565b6001600160a01b038116610af95760405162461bcd60e51b815260206004820152602660248201527f4f776e61626c653a206e6577206f776e657220697320746865207a65726f206160448201526564647265737360d01b6064820152608401610757565b610b0281610ed6565b50565b6001600160a01b038316610b675760405162461bcd60e51b8152602060048201526024808201527f45524332303a20617070726f76652066726f6d20746865207a65726f206164646044820152637265737360e01b6064820152608401610757565b6001600160a01b038216610bc85760405162461bcd60e51b815260206004820152602260248201527f45524332303a20617070726f766520746f20746865207a65726f206164647265604482015261737360f01b6064820152608401610757565b6001600160a01b0383811660008181526001602090815260408083209487168084529482529182902085905590518481527f8c5be1e5ebec7d5bd14f71427d1e84f3dd0314c0f7b2291e5b200ac8c7c3b92591015b60405180910390a3505050565b6005546001600160a01b031633146106635760405162461bcd60e51b815260206004820181905260248201527f4f776e61626c653a2063616c6c6572206973206e6f7420746865206f776e65726044820152606401610757565b6000610c908484610a1d565b90506000198114610cf85781811015610ceb5760405162461bcd60e51b815260206004820152601d60248201527f45524332303a20696e73756666696369656e7420616c6c6f77616e63650000006044820152606401610757565b610cf88484848403610b05565b50505050565b6001600160a01b038316610d625760405162461bcd60e51b815260206004820152602560248201527f45524332303a207472616e736665722066726f6d20746865207a65726f206164604482015264647265737360d81b6064820152608401610757565b6001600160a01b038216610dc45760405162461bcd60e51b815260206004820152602360248201527f45524332303a207472616e7366657220746f20746865207a65726f206164647260448201526265737360e81b6064820152608401610757565b6001600160a01b03831660009081526020819052604090205481811015610e3c5760405162461bcd60e51b815260206004820152602660248201527f45524332303a207472616e7366657220616d6f756e7420657863656564732062604482015265616c616e636560d01b6064820152608401610757565b6001600160a01b03808516600090815260208190526040808220858503905591851681529081208054849290610e739084906113a7565b92505081905550826001600160a01b0316846001600160a01b03167fddf252ad1be2c89b69c2b068fc378daa952ba7f163c4a11628f55a4df523b3ef84604051610ebf91815260200190565b60405180910390a3610cf8565b6060610a87610517565b600580546001600160a01b038381166001600160a01b0319831681179093556040519116919082907f8be0079c531659141344cd1fd0a4f28419497f9722a3daafe3b4186f6b6457e090600090a35050565b6001600160a01b038216610f7e5760405162461bcd60e51b815260206004820152601f60248201527f45524332303a206d696e7420746f20746865207a65726f2061646472657373006044820152606401610757565b8060026000828254610f9091906113a7565b90915550506001600160a01b03821660009081526020819052604081208054839290610fbd9084906113a7565b90915550506040518181526001600160a01b038316906000907fddf252ad1be2c89b69c2b068fc378daa952ba7f163c4a11628f55a4df523b3ef9060200160405180910390a35050565b6001600160a01b0382166110675760405162461bcd60e51b815260206004820152602160248201527f45524332303a206275726e2066726f6d20746865207a65726f206164647265736044820152607360f81b6064820152608401610757565b6001600160a01b038216600090815260208190526040902054818110156110db5760405162461bcd60e51b815260206004820152602260248201527f45524332303a206275726e20616d6f756e7420657863656564732062616c616e604482015261636560f01b6064820152608401610757565b6001600160a01b038316600090815260208190526040812083830390556002805484929061110a9084906113de565b90915550506040518281526000906001600160a01b038516907fddf252ad1be2c89b69c2b068fc378daa952ba7f163c4a11628f55a4df523b3ef90602001610c1d565b6000815180845260005b8181101561117357602081850181015186830182015201611157565b81811115611185576000602083870101525b50601f01601f19169290920160200192915050565b6020815260006111ad602083018461114d565b9392505050565b80356001600160a01b03811681146111cb57600080fd5b919050565b600080604083850312156111e357600080fd5b6111ec836111b4565b946020939093013593505050565b60006020828403121561120c57600080fd5b5035919050565b60008060006060848603121561122857600080fd5b611231846111b4565b925061123f602085016111b4565b9150604084013590509250925092565b6000806040838503121561126257600080fd5b82359150611272602084016111b4565b90509250929050565b60006020828403121561128d57600080fd5b6111ad826111b4565b602081526000825160a060208401526112b260c084018261114d565b9050602084015160408401526040840151606084015260608401516080840152608084015160a08401528091505092915050565b600080604083850312156112f957600080fd5b823560ff8116811461130a57600080fd5b9150611272602084016111b4565b6000806040838503121561132b57600080fd5b61130a836111b4565b600181811c9082168061134857607f821691505b6020821081141561136957634e487b7160e01b600052602260045260246000fd5b50919050565b634e487b7160e01b600052601160045260246000fd5b6000826113a257634e487b7160e01b600052601260045260246000fd5b500490565b600082198211156113ba576113ba61136f565b500190565b60008160001904831182151516156113d9576113d961136f565b500290565b6000828210156113f0576113f061136f565b50039056fea2646970667358221220c2f2e503a55dbe1ca2a30244b0c533506a3787a86878663bc50ff231daeac69264736f6c634300080b0033",
  "immutableReferences": {},
  "source": "// SPDX-License-Identifier: MIT\n// Items Contract\npragma solidity ^0.8.0;\n\nimport \"@openzeppelin/contracts/access/Ownable.sol\";\nimport \"@openzeppelin/contracts/token/ERC20/ERC20.sol\";\n\n/**\nPremier token d'inventaire, disons la money\n */\ncontract Items is ERC20, Ownable {\n  address addressDelegateContract;\n  uint256 rarity; //0 a 99 999, plus il est haut, moin on a de chance de l'obtenir\n  uint256 pricebase;\n  uint256 currentprice;\n\n  struct Item {\n    string name;\n    uint256 rarity;\n    uint256 currentPrice;\n    uint256 myBalance;\n    uint256 allBalance;\n  }\n\n  constructor(\n    uint256 _supply,\n    string memory name,\n    string memory symbol\n  ) ERC20(name, symbol) {}\n\n  ///@notice Very important function that we add on almost all the other functions to check that the call of the functions is done well from the delegation contract for more security\n  modifier byDelegate() {\n    require(\n      (_msgSender() == addressDelegateContract || addressDelegateContract == address(0)),\n      \"Not good delegate contract\"\n    );\n    _;\n  }\n\n  ///@notice modify the address of the delegation contract to allow the said contract to interact with this one\n  function setaddressDelegateContract(address _address) external onlyOwner {\n    addressDelegateContract = _address;\n  }\n\n  ///@notice Function of mint token\n  function mint(uint256 number, address to) external payable byDelegate {\n    _mint(to, number);\n  }\n\n  ///@notice Function of burn token\n  function burn(uint8 number, address to) external byDelegate {\n    _burn(to, number);\n  }\n\n  ///@notice Set price param for an item\n  function setPrice(uint256 price) external onlyOwner {\n    pricebase = price;\n  }\n\n  ///@notice Get price param for an item\n  function getPrice() external view returns (uint256) {\n    return pricebase;\n  }\n\n  ///@notice Set rarity param for an item\n  function setRarity(uint256 rare) external onlyOwner {\n    rarity = rare;\n  }\n\n  ///@notice Get rarity param for an item\n  function getRarity() public view returns (uint256) {\n    return rarity;\n  }\n\n  ///@notice Get name param for an item\n  function getName() internal view returns (string memory) {\n    return name();\n  }\n\n  ///@notice Get item structure detail\n  function getItemDetails(address myAddress) external view returns (Item memory) {\n    return\n      Item(\n        getName(),\n        getRarity(),\n        getCurrentPrice(),\n        balanceOf(myAddress),\n        address(this).balance\n      );\n  }\n\n  /*ECONOMY*/\n\n  ///@notice purchase of a resource for eth/MATIC\n  function buyItem(uint256 quantity, address sender) external payable {\n    require(msg.value >= currentprice * quantity, \"More ETH required\");\n    _mint(sender, quantity);\n    setCurrentPrice();\n  }\n\n  ///@notice sell of a resource for eth/MATIC\n  function sellItem(uint256 quantity, address sender) external {\n    require(totalSupply() > quantity + 1, \"No more this token\");\n    require(balanceOf(sender) >= quantity, \"No more this token\");\n    payable(sender).transfer(currentprice * quantity);\n    _burn(sender, quantity);\n    setCurrentPrice();\n  }\n\n  ///@notice convert of a resource for another token\n  function convertToAnotherToken(uint256 value, address anotherToken) external {\n    /*require(totalSupply()>value+1,\"No more this token\");\n        require(balanceOf(_msgSender())>=value,\"No more this token\");\n        _burn(_msgSender(),value);\n        currentprice = setCurrentPrice();*/\n  }\n\n  ///@notice Actualize dynamic price\n  function setCurrentPrice() public {\n    currentprice = address(this).balance / totalSupply();\n  }\n\n  ///@notice Get dynamic price\n  function getCurrentPrice() public view returns (uint256) {\n    return address(this).balance / totalSupply();\n  }\n\n  function withdraw() external onlyOwner {\n    payable(_msgSender()).transfer(address(this).balance);\n    setCurrentPrice();\n  }\n}\n",
  "sourcePath": "/home/kevin/Bureau/homework/MYOS/contracts/Items.sol",
  "compiler": {
    "name": "solc",
    "version": "0.8.11+commit.d7f03943.Emscripten.clang"
  },
  "schemaVersion": "3.4.7",
  "updatedAt": "2022-10-31T23:24:58.469Z",
  "devdoc": {
    "kind": "dev",
    "methods": {
      "allowance(address,address)": {
        "details": "See {IERC20-allowance}."
      },
      "approve(address,uint256)": {
        "details": "See {IERC20-approve}. NOTE: If `amount` is the maximum `uint256`, the allowance is not updated on `transferFrom`. This is semantically equivalent to an infinite approval. Requirements: - `spender` cannot be the zero address."
      },
      "balanceOf(address)": {
        "details": "See {IERC20-balanceOf}."
      },
      "decimals()": {
        "details": "Returns the number of decimals used to get its user representation. For example, if `decimals` equals `2`, a balance of `505` tokens should be displayed to a user as `5.05` (`505 / 10 ** 2`). Tokens usually opt for a value of 18, imitating the relationship between Ether and Wei. This is the value {ERC20} uses, unless this function is overridden; NOTE: This information is only used for _display_ purposes: it in no way affects any of the arithmetic of the contract, including {IERC20-balanceOf} and {IERC20-transfer}."
      },
      "decreaseAllowance(address,uint256)": {
        "details": "Atomically decreases the allowance granted to `spender` by the caller. This is an alternative to {approve} that can be used as a mitigation for problems described in {IERC20-approve}. Emits an {Approval} event indicating the updated allowance. Requirements: - `spender` cannot be the zero address. - `spender` must have allowance for the caller of at least `subtractedValue`."
      },
      "increaseAllowance(address,uint256)": {
        "details": "Atomically increases the allowance granted to `spender` by the caller. This is an alternative to {approve} that can be used as a mitigation for problems described in {IERC20-approve}. Emits an {Approval} event indicating the updated allowance. Requirements: - `spender` cannot be the zero address."
      },
      "name()": {
        "details": "Returns the name of the token."
      },
      "owner()": {
        "details": "Returns the address of the current owner."
      },
      "renounceOwnership()": {
        "details": "Leaves the contract without owner. It will not be possible to call `onlyOwner` functions anymore. Can only be called by the current owner. NOTE: Renouncing ownership will leave the contract without an owner, thereby removing any functionality that is only available to the owner."
      },
      "symbol()": {
        "details": "Returns the symbol of the token, usually a shorter version of the name."
      },
      "totalSupply()": {
        "details": "See {IERC20-totalSupply}."
      },
      "transfer(address,uint256)": {
        "details": "See {IERC20-transfer}. Requirements: - `to` cannot be the zero address. - the caller must have a balance of at least `amount`."
      },
      "transferFrom(address,address,uint256)": {
        "details": "See {IERC20-transferFrom}. Emits an {Approval} event indicating the updated allowance. This is not required by the EIP. See the note at the beginning of {ERC20}. NOTE: Does not update the allowance if the current allowance is the maximum `uint256`. Requirements: - `from` and `to` cannot be the zero address. - `from` must have a balance of at least `amount`. - the caller must have allowance for ``from``'s tokens of at least `amount`."
      },
      "transferOwnership(address)": {
        "details": "Transfers ownership of the contract to a new account (`newOwner`). Can only be called by the current owner."
      }
    },
    "version": 1
  },
  "userdoc": {
    "kind": "user",
    "methods": {
      "burn(uint8,address)": {
        "notice": "Function of burn token"
      },
      "buyItem(uint256,address)": {
        "notice": "purchase of a resource for eth/MATIC"
      },
      "convertToAnotherToken(uint256,address)": {
        "notice": "convert of a resource for another token"
      },
      "getCurrentPrice()": {
        "notice": "Get dynamic price"
      },
      "getItemDetails(address)": {
        "notice": "Get item structure detail"
      },
      "getPrice()": {
        "notice": "Get price param for an item"
      },
      "getRarity()": {
        "notice": "Get rarity param for an item"
      },
      "mint(uint256,address)": {
        "notice": "Function of mint token"
      },
      "sellItem(uint256,address)": {
        "notice": "sell of a resource for eth/MATIC"
      },
      "setCurrentPrice()": {
        "notice": "Actualize dynamic price"
      },
      "setPrice(uint256)": {
        "notice": "Set price param for an item"
      },
      "setRarity(uint256)": {
        "notice": "Set rarity param for an item"
      },
      "setaddressDelegateContract(address)": {
        "notice": "modify the address of the delegation contract to allow the said contract to interact with this one"
      }
    },
    "notice": "Premier token d'inventaire, disons la money",
    "version": 1
  }
}