{
  "contractName": "Items",
  "abi": [
    {
      "inputs": [
        {
          "internalType": "uint256",
          "name": "_supply",
          "type": "uint256"
        },
        {
          "internalType": "string",
          "name": "name",
          "type": "string"
        },
        {
          "internalType": "string",
          "name": "symbol",
          "type": "string"
        }
      ],
      "stateMutability": "nonpayable",
      "type": "constructor"
    },
    {
      "anonymous": false,
      "inputs": [
        {
          "indexed": true,
          "internalType": "address",
          "name": "owner",
          "type": "address"
        },
        {
          "indexed": true,
          "internalType": "address",
          "name": "spender",
          "type": "address"
        },
        {
          "indexed": false,
          "internalType": "uint256",
          "name": "value",
          "type": "uint256"
        }
      ],
      "name": "Approval",
      "type": "event"
    },
    {
      "anonymous": false,
      "inputs": [
        {
          "indexed": true,
          "internalType": "address",
          "name": "previousOwner",
          "type": "address"
        },
        {
          "indexed": true,
          "internalType": "address",
          "name": "newOwner",
          "type": "address"
        }
      ],
      "name": "OwnershipTransferred",
      "type": "event"
    },
    {
      "anonymous": false,
      "inputs": [
        {
          "indexed": true,
          "internalType": "address",
          "name": "from",
          "type": "address"
        },
        {
          "indexed": true,
          "internalType": "address",
          "name": "to",
          "type": "address"
        },
        {
          "indexed": false,
          "internalType": "uint256",
          "name": "value",
          "type": "uint256"
        }
      ],
      "name": "Transfer",
      "type": "event"
    },
    {
      "inputs": [
        {
          "internalType": "address",
          "name": "owner",
          "type": "address"
        },
        {
          "internalType": "address",
          "name": "spender",
          "type": "address"
        }
      ],
      "name": "allowance",
      "outputs": [
        {
          "internalType": "uint256",
          "name": "",
          "type": "uint256"
        }
      ],
      "stateMutability": "view",
      "type": "function"
    },
    {
      "inputs": [
        {
          "internalType": "address",
          "name": "spender",
          "type": "address"
        },
        {
          "internalType": "uint256",
          "name": "amount",
          "type": "uint256"
        }
      ],
      "name": "approve",
      "outputs": [
        {
          "internalType": "bool",
          "name": "",
          "type": "bool"
        }
      ],
      "stateMutability": "nonpayable",
      "type": "function"
    },
    {
      "inputs": [
        {
          "internalType": "address",
          "name": "account",
          "type": "address"
        }
      ],
      "name": "balanceOf",
      "outputs": [
        {
          "internalType": "uint256",
          "name": "",
          "type": "uint256"
        }
      ],
      "stateMutability": "view",
      "type": "function"
    },
    {
      "inputs": [],
      "name": "decimals",
      "outputs": [
        {
          "internalType": "uint8",
          "name": "",
          "type": "uint8"
        }
      ],
      "stateMutability": "view",
      "type": "function"
    },
    {
      "inputs": [
        {
          "internalType": "address",
          "name": "spender",
          "type": "address"
        },
        {
          "internalType": "uint256",
          "name": "subtractedValue",
          "type": "uint256"
        }
      ],
      "name": "decreaseAllowance",
      "outputs": [
        {
          "internalType": "bool",
          "name": "",
          "type": "bool"
        }
      ],
      "stateMutability": "nonpayable",
      "type": "function"
    },
    {
      "inputs": [
        {
          "internalType": "address",
          "name": "spender",
          "type": "address"
        },
        {
          "internalType": "uint256",
          "name": "addedValue",
          "type": "uint256"
        }
      ],
      "name": "increaseAllowance",
      "outputs": [
        {
          "internalType": "bool",
          "name": "",
          "type": "bool"
        }
      ],
      "stateMutability": "nonpayable",
      "type": "function"
    },
    {
      "inputs": [],
      "name": "name",
      "outputs": [
        {
          "internalType": "string",
          "name": "",
          "type": "string"
        }
      ],
      "stateMutability": "view",
      "type": "function"
    },
    {
      "inputs": [],
      "name": "owner",
      "outputs": [
        {
          "internalType": "address",
          "name": "",
          "type": "address"
        }
      ],
      "stateMutability": "view",
      "type": "function"
    },
    {
      "inputs": [],
      "name": "renounceOwnership",
      "outputs": [],
      "stateMutability": "nonpayable",
      "type": "function"
    },
    {
      "inputs": [],
      "name": "symbol",
      "outputs": [
        {
          "internalType": "string",
          "name": "",
          "type": "string"
        }
      ],
      "stateMutability": "view",
      "type": "function"
    },
    {
      "inputs": [],
      "name": "totalSupply",
      "outputs": [
        {
          "internalType": "uint256",
          "name": "",
          "type": "uint256"
        }
      ],
      "stateMutability": "view",
      "type": "function"
    },
    {
      "inputs": [
        {
          "internalType": "address",
          "name": "to",
          "type": "address"
        },
        {
          "internalType": "uint256",
          "name": "amount",
          "type": "uint256"
        }
      ],
      "name": "transfer",
      "outputs": [
        {
          "internalType": "bool",
          "name": "",
          "type": "bool"
        }
      ],
      "stateMutability": "nonpayable",
      "type": "function"
    },
    {
      "inputs": [
        {
          "internalType": "address",
          "name": "from",
          "type": "address"
        },
        {
          "internalType": "address",
          "name": "to",
          "type": "address"
        },
        {
          "internalType": "uint256",
          "name": "amount",
          "type": "uint256"
        }
      ],
      "name": "transferFrom",
      "outputs": [
        {
          "internalType": "bool",
          "name": "",
          "type": "bool"
        }
      ],
      "stateMutability": "nonpayable",
      "type": "function"
    },
    {
      "inputs": [
        {
          "internalType": "address",
          "name": "newOwner",
          "type": "address"
        }
      ],
      "name": "transferOwnership",
      "outputs": [],
      "stateMutability": "nonpayable",
      "type": "function"
    },
    {
      "inputs": [
        {
          "internalType": "address",
          "name": "_address",
          "type": "address"
        }
      ],
      "name": "setaddressDelegateContract",
      "outputs": [],
      "stateMutability": "nonpayable",
      "type": "function"
    },
    {
      "inputs": [
        {
          "internalType": "uint256",
          "name": "number",
          "type": "uint256"
        },
        {
          "internalType": "address",
          "name": "to",
          "type": "address"
        }
      ],
      "name": "mint",
      "outputs": [],
      "stateMutability": "payable",
      "type": "function"
    },
    {
      "inputs": [
        {
          "internalType": "uint8",
          "name": "number",
          "type": "uint8"
        },
        {
          "internalType": "address",
          "name": "to",
          "type": "address"
        }
      ],
      "name": "burn",
      "outputs": [],
      "stateMutability": "nonpayable",
      "type": "function"
    },
    {
      "inputs": [
        {
          "internalType": "uint256",
          "name": "price",
          "type": "uint256"
        }
      ],
      "name": "setPrice",
      "outputs": [],
      "stateMutability": "nonpayable",
      "type": "function"
    },
    {
      "inputs": [],
      "name": "getPrice",
      "outputs": [
        {
          "internalType": "uint256",
          "name": "",
          "type": "uint256"
        }
      ],
      "stateMutability": "view",
      "type": "function"
    },
    {
      "inputs": [
        {
          "internalType": "uint256",
          "name": "rare",
          "type": "uint256"
        }
      ],
      "name": "setRarity",
      "outputs": [],
      "stateMutability": "nonpayable",
      "type": "function"
    },
    {
      "inputs": [],
      "name": "getRarity",
      "outputs": [
        {
          "internalType": "uint256",
          "name": "",
          "type": "uint256"
        }
      ],
      "stateMutability": "view",
      "type": "function"
    },
    {
      "inputs": [
        {
          "internalType": "address",
          "name": "myAddress",
          "type": "address"
        }
      ],
      "name": "getItemDetails",
      "outputs": [
        {
          "components": [
            {
              "internalType": "string",
              "name": "name",
              "type": "string"
            },
            {
              "internalType": "uint256",
              "name": "rarity",
              "type": "uint256"
            },
            {
              "internalType": "uint256",
              "name": "currentPrice",
              "type": "uint256"
            },
            {
              "internalType": "uint256",
              "name": "myBalance",
              "type": "uint256"
            },
            {
              "internalType": "uint256",
              "name": "allBalance",
              "type": "uint256"
            }
          ],
          "internalType": "struct Items.Item",
          "name": "",
          "type": "tuple"
        }
      ],
      "stateMutability": "view",
      "type": "function"
    },
    {
      "inputs": [
        {
          "internalType": "uint256",
          "name": "quantity",
          "type": "uint256"
        },
        {
          "internalType": "address",
          "name": "sender",
          "type": "address"
        }
      ],
      "name": "buyItem",
      "outputs": [],
      "stateMutability": "payable",
      "type": "function"
    },
    {
      "inputs": [
        {
          "internalType": "uint256",
          "name": "quantity",
          "type": "uint256"
        },
        {
          "internalType": "address",
          "name": "sender",
          "type": "address"
        }
      ],
      "name": "sellItem",
      "outputs": [],
      "stateMutability": "nonpayable",
      "type": "function"
    },
    {
      "inputs": [
        {
          "internalType": "uint256",
          "name": "value",
          "type": "uint256"
        },
        {
          "internalType": "address",
          "name": "anotherToken",
          "type": "address"
        }
      ],
      "name": "convertToAnotherToken",
      "outputs": [],
      "stateMutability": "nonpayable",
      "type": "function"
    },
    {
      "inputs": [],
      "name": "setCurrentPrice",
      "outputs": [],
      "stateMutability": "nonpayable",
      "type": "function"
    },
    {
      "inputs": [],
      "name": "getCurrentPrice",
      "outputs": [
        {
          "internalType": "uint256",
          "name": "",
          "type": "uint256"
        }
      ],
      "stateMutability": "view",
      "type": "function"
    },
    {
      "inputs": [],
      "name": "withdraw",
      "outputs": [],
      "stateMutability": "nonpayable",
      "type": "function"
    },
    {
      "inputs": [],
      "name": "deposit",
      "outputs": [],
      "stateMutability": "payable",
      "type": "function"
    },
    {
      "inputs": [],
      "name": "getBalance",
      "outputs": [
        {
          "internalType": "uint256",
          "name": "",
          "type": "uint256"
        }
      ],
      "stateMutability": "view",
      "type": "function"
    }
  ],
  "bytecode": "0x60806040523480156200001157600080fd5b506040516200176438038062001764833981016040819052620000349162000252565b8151829082906200004d906003906020850190620000df565b50805162000063906004906020840190620000df565b505050620000806200007a6200008960201b60201c565b6200008d565b50505062000303565b3390565b600580546001600160a01b038381166001600160a01b0319831681179093556040519116919082907f8be0079c531659141344cd1fd0a4f28419497f9722a3daafe3b4186f6b6457e090600090a35050565b828054620000ed90620002c6565b90600052602060002090601f0160209004810192826200011157600085556200015c565b82601f106200012c57805160ff19168380011785556200015c565b828001600101855582156200015c579182015b828111156200015c5782518255916020019190600101906200013f565b506200016a9291506200016e565b5090565b5b808211156200016a57600081556001016200016f565b634e487b7160e01b600052604160045260246000fd5b600082601f830112620001ad57600080fd5b81516001600160401b0380821115620001ca57620001ca62000185565b604051601f8301601f19908116603f01168101908282118183101715620001f557620001f562000185565b816040528381526020925086838588010111156200021257600080fd5b600091505b8382101562000236578582018301518183018401529082019062000217565b83821115620002485760008385830101525b9695505050505050565b6000806000606084860312156200026857600080fd5b835160208501519093506001600160401b03808211156200028857600080fd5b62000296878388016200019b565b93506040860151915080821115620002ad57600080fd5b50620002bc868287016200019b565b9150509250925092565b600181811c90821680620002db57607f821691505b60208210811415620002fd57634e487b7160e01b600052602260045260246000fd5b50919050565b61145180620003136000396000f3fe6080604052600436106101cd5760003560e01c80637b32cdba116100f7578063a9059cbb11610095578063dd62ed3e11610064578063dd62ed3e146104d3578063de6d9cf2146104f3578063eb91d37e14610513578063f2fde38b1461052857600080fd5b8063a9059cbb1461046b578063ad97308c1461048b578063b19b5b4c146104ab578063d0e30db0146104cb57600080fd5b806394bf804d116100d157806394bf804d1461040e57806395d89b411461042157806398d5fdca14610436578063a457c2d71461044b57600080fd5b80637b32cdba146103b15780638da5cb5b146103c657806391b7f5ed146103ee57600080fd5b8063313ce5671161016f57806351ec391c1161013e57806351ec391c1461032657806370a0823114610353578063715018a6146103895780637383d7091461039e57600080fd5b8063313ce567146102b657806339509351146102d25780633ccfd60b146102f25780634ae243c11461030757600080fd5b8063154565f6116101ab578063154565f61461024a57806318160ddd1461026c5780632213cb7e1461028157806323b872dd1461029657600080fd5b806306fdde03146101d2578063095ea7b3146101fd57806312065fe01461022d575b600080fd5b3480156101de57600080fd5b506101e7610548565b6040516101f491906111c0565b60405180910390f35b34801561020957600080fd5b5061021d6102183660046111f6565b6105da565b60405190151581526020016101f4565b34801561023957600080fd5b50475b6040519081526020016101f4565b34801561025657600080fd5b5061026a610265366004611220565b6105f2565b005b34801561027857600080fd5b5060025461023c565b34801561028d57600080fd5b5061026a6105ff565b3480156102a257600080fd5b5061021d6102b1366004611239565b610611565b3480156102c257600080fd5b50604051601281526020016101f4565b3480156102de57600080fd5b5061021d6102ed3660046111f6565b610635565b3480156102fe57600080fd5b5061026a610657565b34801561031357600080fd5b5061026a610322366004611275565b5050565b34801561033257600080fd5b506103466103413660046112a1565b610696565b6040516101f491906112bc565b34801561035f57600080fd5b5061023c61036e3660046112a1565b6001600160a01b031660009081526020819052604090205490565b34801561039557600080fd5b5061026a610728565b61026a6103ac366004611275565b61073a565b3480156103bd57600080fd5b5060075461023c565b3480156103d257600080fd5b506005546040516001600160a01b0390911681526020016101f4565b3480156103fa57600080fd5b5061026a610409366004611220565b6107a2565b61026a61041c366004611275565b6107af565b34801561042d57600080fd5b506101e7610827565b34801561044257600080fd5b5060085461023c565b34801561045757600080fd5b5061021d6104663660046111f6565b610836565b34801561047757600080fd5b5061021d6104863660046111f6565b6108b1565b34801561049757600080fd5b5061026a6104a6366004611275565b6108bf565b3480156104b757600080fd5b5061026a6104c636600461130c565b6109c0565b61026a610a3b565b3480156104df57600080fd5b5061023c6104ee36600461133e565b610a43565b3480156104ff57600080fd5b5061026a61050e3660046112a1565b610a6e565b34801561051f57600080fd5b5061023c610a98565b34801561053457600080fd5b5061026a6105433660046112a1565b610ab2565b6060600380546105579061135a565b80601f01602080910402602001604051908101604052809291908181526020018280546105839061135a565b80156105d05780601f106105a5576101008083540402835291602001916105d0565b820191906000526020600020905b8154815290600101906020018083116105b357829003601f168201915b5050505050905090565b6000336105e8818585610b2b565b5060019392505050565b6105fa610c50565b600755565b60025461060c90476113ab565b600955565b60003361061f858285610caa565b61062a858585610d24565b506001949350505050565b6000336105e88185856106488383610a43565b61065291906113cd565b610b2b565b61065f610c50565b60405133904780156108fc02916000818181858888f1935050505015801561068b573d6000803e3d6000fd5b506106946105ff565b565b6106c86040518060a0016040528060608152602001600081526020016000815260200160008152602001600081525090565b6040518060a001604052806106db610ef2565b81526020016106e960075490565b81526020016106f6610a98565b815260200161071a846001600160a01b031660009081526020819052604090205490565b815260200147905292915050565b610730610c50565b6106946000610efc565b8160095461074891906113e5565b3410156107905760405162461bcd60e51b8152602060048201526011602482015270135bdc9948115512081c995c5d5a5c9959607a1b60448201526064015b60405180910390fd5b61079a8183610f4e565b6103226105ff565b6107aa610c50565b600855565b6006546001600160a01b03163314806107d157506006546001600160a01b0316155b61081d5760405162461bcd60e51b815260206004820152601a60248201527f4e6f7420676f6f642064656c656761746520636f6e74726163740000000000006044820152606401610787565b6103228183610f4e565b6060600480546105579061135a565b600033816108448286610a43565b9050838110156108a45760405162461bcd60e51b815260206004820152602560248201527f45524332303a2064656372656173656420616c6c6f77616e63652062656c6f77604482015264207a65726f60d81b6064820152608401610787565b61062a8286868403610b2b565b6000336105e8818585610d24565b6108ca8260016113cd565b6002541161090f5760405162461bcd60e51b815260206004820152601260248201527127379036b7b932903a3434b9903a37b5b2b760711b6044820152606401610787565b8161092f826001600160a01b031660009081526020819052604090205490565b10156109725760405162461bcd60e51b815260206004820152601260248201527127379036b7b932903a3434b9903a37b5b2b760711b6044820152606401610787565b806001600160a01b03166108fc8360095461098d91906113e5565b6040518115909202916000818181858888f193505050501580156109b5573d6000803e3d6000fd5b5061079a818361102d565b6006546001600160a01b03163314806109e257506006546001600160a01b0316155b610a2e5760405162461bcd60e51b815260206004820152601a60248201527f4e6f7420676f6f642064656c656761746520636f6e74726163740000000000006044820152606401610787565b610322818360ff1661102d565b6106946105ff565b6001600160a01b03918216600090815260016020908152604080832093909416825291909152205490565b610a76610c50565b600680546001600160a01b0319166001600160a01b0392909216919091179055565b6000610aa360025490565b610aad90476113ab565b905090565b610aba610c50565b6001600160a01b038116610b1f5760405162461bcd60e51b815260206004820152602660248201527f4f776e61626c653a206e6577206f776e657220697320746865207a65726f206160448201526564647265737360d01b6064820152608401610787565b610b2881610efc565b50565b6001600160a01b038316610b8d5760405162461bcd60e51b8152602060048201526024808201527f45524332303a20617070726f76652066726f6d20746865207a65726f206164646044820152637265737360e01b6064820152608401610787565b6001600160a01b038216610bee5760405162461bcd60e51b815260206004820152602260248201527f45524332303a20617070726f766520746f20746865207a65726f206164647265604482015261737360f01b6064820152608401610787565b6001600160a01b0383811660008181526001602090815260408083209487168084529482529182902085905590518481527f8c5be1e5ebec7d5bd14f71427d1e84f3dd0314c0f7b2291e5b200ac8c7c3b92591015b60405180910390a3505050565b6005546001600160a01b031633146106945760405162461bcd60e51b815260206004820181905260248201527f4f776e61626c653a2063616c6c6572206973206e6f7420746865206f776e65726044820152606401610787565b6000610cb68484610a43565b90506000198114610d1e5781811015610d115760405162461bcd60e51b815260206004820152601d60248201527f45524332303a20696e73756666696369656e7420616c6c6f77616e63650000006044820152606401610787565b610d1e8484848403610b2b565b50505050565b6001600160a01b038316610d885760405162461bcd60e51b815260206004820152602560248201527f45524332303a207472616e736665722066726f6d20746865207a65726f206164604482015264647265737360d81b6064820152608401610787565b6001600160a01b038216610dea5760405162461bcd60e51b815260206004820152602360248201527f45524332303a207472616e7366657220746f20746865207a65726f206164647260448201526265737360e81b6064820152608401610787565b6001600160a01b03831660009081526020819052604090205481811015610e625760405162461bcd60e51b815260206004820152602660248201527f45524332303a207472616e7366657220616d6f756e7420657863656564732062604482015265616c616e636560d01b6064820152608401610787565b6001600160a01b03808516600090815260208190526040808220858503905591851681529081208054849290610e999084906113cd565b92505081905550826001600160a01b0316846001600160a01b03167fddf252ad1be2c89b69c2b068fc378daa952ba7f163c4a11628f55a4df523b3ef84604051610ee591815260200190565b60405180910390a3610d1e565b6060610aad610548565b600580546001600160a01b038381166001600160a01b0319831681179093556040519116919082907f8be0079c531659141344cd1fd0a4f28419497f9722a3daafe3b4186f6b6457e090600090a35050565b6001600160a01b038216610fa45760405162461bcd60e51b815260206004820152601f60248201527f45524332303a206d696e7420746f20746865207a65726f2061646472657373006044820152606401610787565b8060026000828254610fb691906113cd565b90915550506001600160a01b03821660009081526020819052604081208054839290610fe39084906113cd565b90915550506040518181526001600160a01b038316906000907fddf252ad1be2c89b69c2b068fc378daa952ba7f163c4a11628f55a4df523b3ef9060200160405180910390a35050565b6001600160a01b03821661108d5760405162461bcd60e51b815260206004820152602160248201527f45524332303a206275726e2066726f6d20746865207a65726f206164647265736044820152607360f81b6064820152608401610787565b6001600160a01b038216600090815260208190526040902054818110156111015760405162461bcd60e51b815260206004820152602260248201527f45524332303a206275726e20616d6f756e7420657863656564732062616c616e604482015261636560f01b6064820152608401610787565b6001600160a01b0383166000908152602081905260408120838303905560028054849290611130908490611404565b90915550506040518281526000906001600160a01b038516907fddf252ad1be2c89b69c2b068fc378daa952ba7f163c4a11628f55a4df523b3ef90602001610c43565b6000815180845260005b818110156111995760208185018101518683018201520161117d565b818111156111ab576000602083870101525b50601f01601f19169290920160200192915050565b6020815260006111d36020830184611173565b9392505050565b80356001600160a01b03811681146111f157600080fd5b919050565b6000806040838503121561120957600080fd5b611212836111da565b946020939093013593505050565b60006020828403121561123257600080fd5b5035919050565b60008060006060848603121561124e57600080fd5b611257846111da565b9250611265602085016111da565b9150604084013590509250925092565b6000806040838503121561128857600080fd5b82359150611298602084016111da565b90509250929050565b6000602082840312156112b357600080fd5b6111d3826111da565b602081526000825160a060208401526112d860c0840182611173565b9050602084015160408401526040840151606084015260608401516080840152608084015160a08401528091505092915050565b6000806040838503121561131f57600080fd5b823560ff8116811461133057600080fd5b9150611298602084016111da565b6000806040838503121561135157600080fd5b611330836111da565b600181811c9082168061136e57607f821691505b6020821081141561138f57634e487b7160e01b600052602260045260246000fd5b50919050565b634e487b7160e01b600052601160045260246000fd5b6000826113c857634e487b7160e01b600052601260045260246000fd5b500490565b600082198211156113e0576113e0611395565b500190565b60008160001904831182151516156113ff576113ff611395565b500290565b60008282101561141657611416611395565b50039056fea26469706673582212203f5bd3089425204a99eca3c791dbea41d7a4da828707bd662d297d7251c4b11764736f6c634300080b0033",
  "immutableReferences": {},
  "source": "// SPDX-License-Identifier: MIT\n// Items Contract\npragma solidity ^0.8.0;\n\nimport \"@openzeppelin/contracts/access/Ownable.sol\";\nimport \"@openzeppelin/contracts/token/ERC20/ERC20.sol\";\n\n/**\nPremier token d'inventaire, disons la money\n */\ncontract Items is ERC20, Ownable {\n  address addressDelegateContract;\n  uint256 rarity; //0 a 99 999, plus il est haut, moin on a de chance de l'obtenir\n  uint256 pricebase;\n  uint256 currentprice;\n\n  struct Item {\n    string name;\n    uint256 rarity;\n    uint256 currentPrice;\n    uint256 myBalance;\n    uint256 allBalance;\n  }\n\n  constructor(\n    uint256 _supply,\n    string memory name,\n    string memory symbol\n  ) ERC20(name, symbol) {}\n\n  /**\n    Foncton trs importante que l'ont rajoute sur presque toutes les autres fonctions pour vrifier que l'appel des fonctions ce fais bien depuis le contrat de dlgation pour plus de scuriter\n    */\n  modifier byDelegate() {\n    require(\n      (msg.sender == addressDelegateContract || addressDelegateContract == address(0)),\n      \"Not good delegate contract\"\n    );\n    _;\n  }\n\n  /** \n    modifier l'addresse du contrat de dlgation pour permettre aux dit contrat d'intragir avec celui ci\n     */\n  function setaddressDelegateContract(address _address) external onlyOwner {\n    addressDelegateContract = _address;\n  }\n\n  function mint(uint256 number, address to) external payable byDelegate {\n    _mint(to, number);\n  }\n\n  function burn(uint8 number, address to) external byDelegate {\n    _burn(to, number);\n  }\n\n  function setPrice(uint256 price) external onlyOwner {\n    pricebase = price;\n  }\n\n  function getPrice() external view returns (uint256) {\n    return pricebase;\n  }\n\n  function setRarity(uint256 rare) external onlyOwner {\n    rarity = rare;\n  }\n\n  function getRarity() public view returns (uint256) {\n    return rarity;\n  }\n\n  function getBalanceContract() internal view returns (uint256) {\n    return address(this).balance;\n  }\n\n  function getName() internal view returns (string memory) {\n    return name();\n  }\n\n  function getItemDetails(address myAddress) external view returns (Item memory) {\n    return\n      Item(\n        getName(),\n        getRarity(),\n        getCurrentPrice(),\n        balanceOf(myAddress),\n        getBalanceContract()\n      );\n  }\n\n  /*ECONOMY*/\n\n  /**\n    achat d'une ressource contre de l'eth/MATIC\n     */\n  function buyItem(uint256 quantity, address sender) external payable {\n    require(msg.value >= currentprice * quantity, \"More ETH required\");\n    _mint(sender, quantity);\n    setCurrentPrice();\n  }\n\n  /**\n    Vente du jeton contre de l'eth/MATIC\n     */\n  function sellItem(uint256 quantity, address sender) external {\n    require(totalSupply() > quantity + 1, \"No more this token\");\n    require(balanceOf(sender) >= quantity, \"No more this token\");\n    payable(sender).transfer(currentprice * quantity);\n    _burn(sender, quantity);\n    setCurrentPrice();\n  }\n\n  /**\n    Vente du jeton contre de l'eth/MATIC\n     */\n  function convertToAnotherToken(uint256 value, address anotherToken) external {\n    /*require(totalSupply()>value+1,\"No more this token\");\n        require(balanceOf(msg.sender)>=value,\"No more this token\");\n        _burn(msg.sender,value);\n        currentprice = setCurrentPrice();*/\n  }\n\n  function setCurrentPrice() public {\n    currentprice = address(this).balance / totalSupply();\n  }\n\n  function getCurrentPrice() public view returns (uint256) {\n    return address(this).balance / totalSupply();\n  }\n\n  /*FUNDS OF CONTRACT*/\n\n  function withdraw() external onlyOwner {\n    payable(msg.sender).transfer(address(this).balance);\n    setCurrentPrice();\n  }\n\n  function deposit() external payable {\n    setCurrentPrice();\n  }\n\n  function getBalance() external view returns (uint256) {\n    return address(this).balance;\n  }\n\n  //receive() external payable {}\n}\n",
  "sourcePath": "/home/kevin/Bureau/homework/MYOS/contracts/Items.sol",
  "compiler": {
    "name": "solc",
    "version": "0.8.11+commit.d7f03943.Emscripten.clang"
  },
  "schemaVersion": "3.4.7",
  "updatedAt": "2022-10-31T22:36:34.879Z",
  "devdoc": {
    "kind": "dev",
    "methods": {
      "allowance(address,address)": {
        "details": "See {IERC20-allowance}."
      },
      "approve(address,uint256)": {
        "details": "See {IERC20-approve}. NOTE: If `amount` is the maximum `uint256`, the allowance is not updated on `transferFrom`. This is semantically equivalent to an infinite approval. Requirements: - `spender` cannot be the zero address."
      },
      "balanceOf(address)": {
        "details": "See {IERC20-balanceOf}."
      },
      "decimals()": {
        "details": "Returns the number of decimals used to get its user representation. For example, if `decimals` equals `2`, a balance of `505` tokens should be displayed to a user as `5.05` (`505 / 10 ** 2`). Tokens usually opt for a value of 18, imitating the relationship between Ether and Wei. This is the value {ERC20} uses, unless this function is overridden; NOTE: This information is only used for _display_ purposes: it in no way affects any of the arithmetic of the contract, including {IERC20-balanceOf} and {IERC20-transfer}."
      },
      "decreaseAllowance(address,uint256)": {
        "details": "Atomically decreases the allowance granted to `spender` by the caller. This is an alternative to {approve} that can be used as a mitigation for problems described in {IERC20-approve}. Emits an {Approval} event indicating the updated allowance. Requirements: - `spender` cannot be the zero address. - `spender` must have allowance for the caller of at least `subtractedValue`."
      },
      "increaseAllowance(address,uint256)": {
        "details": "Atomically increases the allowance granted to `spender` by the caller. This is an alternative to {approve} that can be used as a mitigation for problems described in {IERC20-approve}. Emits an {Approval} event indicating the updated allowance. Requirements: - `spender` cannot be the zero address."
      },
      "name()": {
        "details": "Returns the name of the token."
      },
      "owner()": {
        "details": "Returns the address of the current owner."
      },
      "renounceOwnership()": {
        "details": "Leaves the contract without owner. It will not be possible to call `onlyOwner` functions anymore. Can only be called by the current owner. NOTE: Renouncing ownership will leave the contract without an owner, thereby removing any functionality that is only available to the owner."
      },
      "symbol()": {
        "details": "Returns the symbol of the token, usually a shorter version of the name."
      },
      "totalSupply()": {
        "details": "See {IERC20-totalSupply}."
      },
      "transfer(address,uint256)": {
        "details": "See {IERC20-transfer}. Requirements: - `to` cannot be the zero address. - the caller must have a balance of at least `amount`."
      },
      "transferFrom(address,address,uint256)": {
        "details": "See {IERC20-transferFrom}. Emits an {Approval} event indicating the updated allowance. This is not required by the EIP. See the note at the beginning of {ERC20}. NOTE: Does not update the allowance if the current allowance is the maximum `uint256`. Requirements: - `from` and `to` cannot be the zero address. - `from` must have a balance of at least `amount`. - the caller must have allowance for ``from``'s tokens of at least `amount`."
      },
      "transferOwnership(address)": {
        "details": "Transfers ownership of the contract to a new account (`newOwner`). Can only be called by the current owner."
      }
    },
    "version": 1
  },
  "userdoc": {
    "kind": "user",
    "methods": {
      "buyItem(uint256,address)": {
        "notice": "achat d'une ressource contre de l'eth/MATIC"
      },
      "convertToAnotherToken(uint256,address)": {
        "notice": "Vente du jeton contre de l'eth/MATIC"
      },
      "sellItem(uint256,address)": {
        "notice": "Vente du jeton contre de l'eth/MATIC"
      },
      "setaddressDelegateContract(address)": {
        "notice": "modifier l'addresse du contrat de dlgation pour permettre aux dit contrat d'intragir avec celui ci"
      }
    },
    "notice": "Premier token d'inventaire, disons la money",
    "version": 1
  }
}