{
  "contractName": "MYOS",
  "abi": [
    {
      "inputs": [
        {
          "internalType": "uint256",
          "name": "_maxSupply",
          "type": "uint256"
        },
        {
          "internalType": "string",
          "name": "name",
          "type": "string"
        },
        {
          "internalType": "string",
          "name": "symbol",
          "type": "string"
        }
      ],
      "stateMutability": "nonpayable",
      "type": "constructor"
    },
    {
      "inputs": [
        {
          "internalType": "uint256",
          "name": "totalSupply",
          "type": "uint256"
        },
        {
          "internalType": "uint256",
          "name": "quantity",
          "type": "uint256"
        },
        {
          "internalType": "uint256",
          "name": "maxSupply",
          "type": "uint256"
        }
      ],
      "name": "MaxSupplyReached",
      "type": "error"
    },
    {
      "inputs": [
        {
          "internalType": "uint256",
          "name": "timestamp",
          "type": "uint256"
        },
        {
          "internalType": "uint256",
          "name": "pausedMintEndDate",
          "type": "uint256"
        },
        {
          "internalType": "address",
          "name": "from",
          "type": "address"
        }
      ],
      "name": "MintIsPaused",
      "type": "error"
    },
    {
      "inputs": [
        {
          "internalType": "address",
          "name": "sender",
          "type": "address"
        },
        {
          "internalType": "address",
          "name": "addressDelegateContract",
          "type": "address"
        }
      ],
      "name": "NotDelegateContract",
      "type": "error"
    },
    {
      "inputs": [
        {
          "internalType": "uint256",
          "name": "timestamp",
          "type": "uint256"
        },
        {
          "internalType": "uint256",
          "name": "pausedTransferEndDate",
          "type": "uint256"
        },
        {
          "internalType": "address",
          "name": "from",
          "type": "address"
        }
      ],
      "name": "TransferIsPaused",
      "type": "error"
    },
    {
      "anonymous": false,
      "inputs": [
        {
          "indexed": true,
          "internalType": "address",
          "name": "owner",
          "type": "address"
        },
        {
          "indexed": true,
          "internalType": "address",
          "name": "spender",
          "type": "address"
        },
        {
          "indexed": false,
          "internalType": "uint256",
          "name": "value",
          "type": "uint256"
        }
      ],
      "name": "Approval",
      "type": "event"
    },
    {
      "anonymous": false,
      "inputs": [
        {
          "indexed": true,
          "internalType": "address",
          "name": "previousOwner",
          "type": "address"
        },
        {
          "indexed": true,
          "internalType": "address",
          "name": "newOwner",
          "type": "address"
        }
      ],
      "name": "OwnershipTransferred",
      "type": "event"
    },
    {
      "anonymous": false,
      "inputs": [
        {
          "indexed": true,
          "internalType": "address",
          "name": "from",
          "type": "address"
        },
        {
          "indexed": true,
          "internalType": "address",
          "name": "to",
          "type": "address"
        },
        {
          "indexed": false,
          "internalType": "uint256",
          "name": "value",
          "type": "uint256"
        }
      ],
      "name": "Transfer",
      "type": "event"
    },
    {
      "inputs": [],
      "name": "addressDelegateContract",
      "outputs": [
        {
          "internalType": "address",
          "name": "",
          "type": "address"
        }
      ],
      "stateMutability": "view",
      "type": "function"
    },
    {
      "inputs": [
        {
          "internalType": "address",
          "name": "owner",
          "type": "address"
        },
        {
          "internalType": "address",
          "name": "spender",
          "type": "address"
        }
      ],
      "name": "allowance",
      "outputs": [
        {
          "internalType": "uint256",
          "name": "",
          "type": "uint256"
        }
      ],
      "stateMutability": "view",
      "type": "function"
    },
    {
      "inputs": [
        {
          "internalType": "address",
          "name": "spender",
          "type": "address"
        },
        {
          "internalType": "uint256",
          "name": "amount",
          "type": "uint256"
        }
      ],
      "name": "approve",
      "outputs": [
        {
          "internalType": "bool",
          "name": "",
          "type": "bool"
        }
      ],
      "stateMutability": "nonpayable",
      "type": "function"
    },
    {
      "inputs": [
        {
          "internalType": "address",
          "name": "account",
          "type": "address"
        }
      ],
      "name": "balanceOf",
      "outputs": [
        {
          "internalType": "uint256",
          "name": "",
          "type": "uint256"
        }
      ],
      "stateMutability": "view",
      "type": "function"
    },
    {
      "inputs": [],
      "name": "decimals",
      "outputs": [
        {
          "internalType": "uint8",
          "name": "",
          "type": "uint8"
        }
      ],
      "stateMutability": "view",
      "type": "function"
    },
    {
      "inputs": [
        {
          "internalType": "address",
          "name": "spender",
          "type": "address"
        },
        {
          "internalType": "uint256",
          "name": "subtractedValue",
          "type": "uint256"
        }
      ],
      "name": "decreaseAllowance",
      "outputs": [
        {
          "internalType": "bool",
          "name": "",
          "type": "bool"
        }
      ],
      "stateMutability": "nonpayable",
      "type": "function"
    },
    {
      "inputs": [
        {
          "internalType": "address",
          "name": "spender",
          "type": "address"
        },
        {
          "internalType": "uint256",
          "name": "addedValue",
          "type": "uint256"
        }
      ],
      "name": "increaseAllowance",
      "outputs": [
        {
          "internalType": "bool",
          "name": "",
          "type": "bool"
        }
      ],
      "stateMutability": "nonpayable",
      "type": "function"
    },
    {
      "inputs": [],
      "name": "maxSupply",
      "outputs": [
        {
          "internalType": "uint256",
          "name": "",
          "type": "uint256"
        }
      ],
      "stateMutability": "view",
      "type": "function"
    },
    {
      "inputs": [],
      "name": "name",
      "outputs": [
        {
          "internalType": "string",
          "name": "",
          "type": "string"
        }
      ],
      "stateMutability": "view",
      "type": "function"
    },
    {
      "inputs": [],
      "name": "owner",
      "outputs": [
        {
          "internalType": "address",
          "name": "",
          "type": "address"
        }
      ],
      "stateMutability": "view",
      "type": "function"
    },
    {
      "inputs": [],
      "name": "renounceOwnership",
      "outputs": [],
      "stateMutability": "nonpayable",
      "type": "function"
    },
    {
      "inputs": [],
      "name": "symbol",
      "outputs": [
        {
          "internalType": "string",
          "name": "",
          "type": "string"
        }
      ],
      "stateMutability": "view",
      "type": "function"
    },
    {
      "inputs": [],
      "name": "totalSupply",
      "outputs": [
        {
          "internalType": "uint256",
          "name": "",
          "type": "uint256"
        }
      ],
      "stateMutability": "view",
      "type": "function"
    },
    {
      "inputs": [
        {
          "internalType": "address",
          "name": "to",
          "type": "address"
        },
        {
          "internalType": "uint256",
          "name": "amount",
          "type": "uint256"
        }
      ],
      "name": "transfer",
      "outputs": [
        {
          "internalType": "bool",
          "name": "",
          "type": "bool"
        }
      ],
      "stateMutability": "nonpayable",
      "type": "function"
    },
    {
      "inputs": [
        {
          "internalType": "address",
          "name": "from",
          "type": "address"
        },
        {
          "internalType": "address",
          "name": "to",
          "type": "address"
        },
        {
          "internalType": "uint256",
          "name": "amount",
          "type": "uint256"
        }
      ],
      "name": "transferFrom",
      "outputs": [
        {
          "internalType": "bool",
          "name": "",
          "type": "bool"
        }
      ],
      "stateMutability": "nonpayable",
      "type": "function"
    },
    {
      "inputs": [
        {
          "internalType": "address",
          "name": "newOwner",
          "type": "address"
        }
      ],
      "name": "transferOwnership",
      "outputs": [],
      "stateMutability": "nonpayable",
      "type": "function"
    },
    {
      "inputs": [
        {
          "internalType": "address",
          "name": "_address",
          "type": "address"
        }
      ],
      "name": "setAddressDelegateContract",
      "outputs": [],
      "stateMutability": "nonpayable",
      "type": "function"
    },
    {
      "inputs": [
        {
          "internalType": "address",
          "name": "to",
          "type": "address"
        },
        {
          "internalType": "uint256",
          "name": "quantity",
          "type": "uint256"
        }
      ],
      "name": "mint",
      "outputs": [],
      "stateMutability": "nonpayable",
      "type": "function"
    },
    {
      "inputs": [
        {
          "internalType": "address",
          "name": "to",
          "type": "address"
        },
        {
          "internalType": "uint256",
          "name": "quantity",
          "type": "uint256"
        }
      ],
      "name": "burn",
      "outputs": [],
      "stateMutability": "nonpayable",
      "type": "function"
    },
    {
      "inputs": [],
      "name": "withdraw",
      "outputs": [],
      "stateMutability": "nonpayable",
      "type": "function"
    },
    {
      "inputs": [
        {
          "internalType": "uint256",
          "name": "time",
          "type": "uint256"
        }
      ],
      "name": "setPausedMintEndDate",
      "outputs": [],
      "stateMutability": "nonpayable",
      "type": "function"
    },
    {
      "inputs": [
        {
          "internalType": "uint256",
          "name": "time",
          "type": "uint256"
        }
      ],
      "name": "setPausedTransferEndDate",
      "outputs": [],
      "stateMutability": "nonpayable",
      "type": "function"
    }
  ],
  "bytecode": "0x60806040523480156200001157600080fd5b506040516200144238038062001442833981016040819052620000349162000270565b8151829082906200004d906003906020850190620000fd565b50805162000063906004906020840190620000fd565b505050620000806200007a620000a760201b60201c565b620000ab565b6200008e6012600a620003f9565b6200009a90846200040e565b600755506200046d915050565b3390565b600580546001600160a01b038381166001600160a01b0319831681179093556040519116919082907f8be0079c531659141344cd1fd0a4f28419497f9722a3daafe3b4186f6b6457e090600090a35050565b8280546200010b9062000430565b90600052602060002090601f0160209004810192826200012f57600085556200017a565b82601f106200014a57805160ff19168380011785556200017a565b828001600101855582156200017a579182015b828111156200017a5782518255916020019190600101906200015d565b50620001889291506200018c565b5090565b5b808211156200018857600081556001016200018d565b634e487b7160e01b600052604160045260246000fd5b600082601f830112620001cb57600080fd5b81516001600160401b0380821115620001e857620001e8620001a3565b604051601f8301601f19908116603f01168101908282118183101715620002135762000213620001a3565b816040528381526020925086838588010111156200023057600080fd5b600091505b8382101562000254578582018301518183018401529082019062000235565b83821115620002665760008385830101525b9695505050505050565b6000806000606084860312156200028657600080fd5b835160208501519093506001600160401b0380821115620002a657600080fd5b620002b487838801620001b9565b93506040860151915080821115620002cb57600080fd5b50620002da86828701620001b9565b9150509250925092565b634e487b7160e01b600052601160045260246000fd5b600181815b808511156200033b5781600019048211156200031f576200031f620002e4565b808516156200032d57918102915b93841c9390800290620002ff565b509250929050565b6000826200035457506001620003f3565b816200036357506000620003f3565b81600181146200037c57600281146200038757620003a7565b6001915050620003f3565b60ff8411156200039b576200039b620002e4565b50506001821b620003f3565b5060208310610133831016604e8410600b8410161715620003cc575081810a620003f3565b620003d88383620002fa565b8060001904821115620003ef57620003ef620002e4565b0290505b92915050565b600062000407838362000343565b9392505050565b60008160001904831182151516156200042b576200042b620002e4565b500290565b600181811c908216806200044557607f821691505b602082108114156200046757634e487b7160e01b600052602260045260246000fd5b50919050565b610fc5806200047d6000396000f3fe608060405234801561001057600080fd5b50600436106101425760003560e01c8063714e3305116100b85780639dc29fac1161007c5780639dc29fac1461029a578063a457c2d7146102ad578063a9059cbb146102c0578063d5abeb01146102d3578063dd62ed3e146102dc578063f2fde38b146102ef57600080fd5b8063714e330514610253578063715018a6146102665780638c9f21141461026e5780638da5cb5b1461028157806395d89b411461029257600080fd5b8063313ce5671161010a578063313ce567146101d857806339509351146101e75780633ccfd60b146101fa57806340c10f19146102045780636e7888c11461021757806370a082311461022a57600080fd5b806306fdde0314610147578063095ea7b3146101655780630ea73d771461018857806318160ddd146101b357806323b872dd146101c5575b600080fd5b61014f610302565b60405161015c9190610dca565b60405180910390f35b610178610173366004610e3b565b610394565b604051901515815260200161015c565b60065461019b906001600160a01b031681565b6040516001600160a01b03909116815260200161015c565b6002545b60405190815260200161015c565b6101786101d3366004610e65565b6103ac565b6040516012815260200161015c565b6101786101f5366004610e3b565b6103d0565b6102026103f2565b005b610202610212366004610e3b565b610429565b610202610225366004610ea1565b6104eb565b6101b7610238366004610eba565b6001600160a01b031660009081526020819052604090205490565b610202610261366004610eba565b6104f8565b610202610522565b61020261027c366004610ea1565b610536565b6005546001600160a01b031661019b565b61014f610543565b6102026102a8366004610e3b565b610552565b6101786102bb366004610e3b565b610595565b6101786102ce366004610e3b565b610610565b6101b760075481565b6101b76102ea366004610edc565b61061e565b6102026102fd366004610eba565b610649565b60606003805461031190610f0f565b80601f016020809104026020016040519081016040528092919081815260200182805461033d90610f0f565b801561038a5780601f1061035f5761010080835404028352916020019161038a565b820191906000526020600020905b81548152906001019060200180831161036d57829003601f168201915b5050505050905090565b6000336103a28185856106bf565b5060019392505050565b6000336103ba8582856107e4565b6103c585858561085e565b506001949350505050565b6000336103a28185856103e3838361061e565b6103ed9190610f60565b6106bf565b6103fa610a37565b60405133904780156108fc02916000818181858888f19350505050158015610426573d6000803e3d6000fd5b50565b6006546001600160a01b0316336001600160a01b03161415801561045757506006546001600160a01b031615155b1561049257335b60065460405163e59c4f9d60e01b81526001600160a01b039283166004820152911660248201526044015b60405180910390fd5b6007548161049f60025490565b6104a99190610f60565b106104dd57600254600754604051636ce6bbdd60e01b81526004810192909252602482018390526044820152606401610489565b6104e78282610a91565b5050565b6104f3610a37565b600855565b610500610a37565b600680546001600160a01b0319166001600160a01b0392909216919091179055565b61052a610a37565b6105346000610b7c565b565b61053e610a37565b600955565b60606004805461031190610f0f565b6006546001600160a01b0316336001600160a01b03161415801561058057506006546001600160a01b031615155b1561058b573361045e565b6104e78282610bce565b600033816105a3828661061e565b9050838110156106035760405162461bcd60e51b815260206004820152602560248201527f45524332303a2064656372656173656420616c6c6f77616e63652062656c6f77604482015264207a65726f60d81b6064820152608401610489565b6103c582868684036106bf565b6000336103a281858561085e565b6001600160a01b03918216600090815260016020908152604080832093909416825291909152205490565b610651610a37565b6001600160a01b0381166106b65760405162461bcd60e51b815260206004820152602660248201527f4f776e61626c653a206e6577206f776e657220697320746865207a65726f206160448201526564647265737360d01b6064820152608401610489565b61042681610b7c565b6001600160a01b0383166107215760405162461bcd60e51b8152602060048201526024808201527f45524332303a20617070726f76652066726f6d20746865207a65726f206164646044820152637265737360e01b6064820152608401610489565b6001600160a01b0382166107825760405162461bcd60e51b815260206004820152602260248201527f45524332303a20617070726f766520746f20746865207a65726f206164647265604482015261737360f01b6064820152608401610489565b6001600160a01b0383811660008181526001602090815260408083209487168084529482529182902085905590518481527f8c5be1e5ebec7d5bd14f71427d1e84f3dd0314c0f7b2291e5b200ac8c7c3b92591015b60405180910390a3505050565b60006107f0848461061e565b90506000198114610858578181101561084b5760405162461bcd60e51b815260206004820152601d60248201527f45524332303a20696e73756666696369656e7420616c6c6f77616e63650000006044820152606401610489565b61085884848484036106bf565b50505050565b6001600160a01b0383166108c25760405162461bcd60e51b815260206004820152602560248201527f45524332303a207472616e736665722066726f6d20746865207a65726f206164604482015264647265737360d81b6064820152608401610489565b6001600160a01b0382166109245760405162461bcd60e51b815260206004820152602360248201527f45524332303a207472616e7366657220746f20746865207a65726f206164647260448201526265737360e81b6064820152608401610489565b61092f838383610d20565b6001600160a01b038316600090815260208190526040902054818110156109a75760405162461bcd60e51b815260206004820152602660248201527f45524332303a207472616e7366657220616d6f756e7420657863656564732062604482015265616c616e636560d01b6064820152608401610489565b6001600160a01b038085166000908152602081905260408082208585039055918516815290812080548492906109de908490610f60565b92505081905550826001600160a01b0316846001600160a01b03167fddf252ad1be2c89b69c2b068fc378daa952ba7f163c4a11628f55a4df523b3ef84604051610a2a91815260200190565b60405180910390a3610858565b6005546001600160a01b031633146105345760405162461bcd60e51b815260206004820181905260248201527f4f776e61626c653a2063616c6c6572206973206e6f7420746865206f776e65726044820152606401610489565b6001600160a01b038216610ae75760405162461bcd60e51b815260206004820152601f60248201527f45524332303a206d696e7420746f20746865207a65726f2061646472657373006044820152606401610489565b610af360008383610d20565b8060026000828254610b059190610f60565b90915550506001600160a01b03821660009081526020819052604081208054839290610b32908490610f60565b90915550506040518181526001600160a01b038316906000907fddf252ad1be2c89b69c2b068fc378daa952ba7f163c4a11628f55a4df523b3ef9060200160405180910390a35050565b600580546001600160a01b038381166001600160a01b0319831681179093556040519116919082907f8be0079c531659141344cd1fd0a4f28419497f9722a3daafe3b4186f6b6457e090600090a35050565b6001600160a01b038216610c2e5760405162461bcd60e51b815260206004820152602160248201527f45524332303a206275726e2066726f6d20746865207a65726f206164647265736044820152607360f81b6064820152608401610489565b610c3a82600083610d20565b6001600160a01b03821660009081526020819052604090205481811015610cae5760405162461bcd60e51b815260206004820152602260248201527f45524332303a206275726e20616d6f756e7420657863656564732062616c616e604482015261636560f01b6064820152608401610489565b6001600160a01b0383166000908152602081905260408120838303905560028054849290610cdd908490610f78565b90915550506040518281526000906001600160a01b038516907fddf252ad1be2c89b69c2b068fc378daa952ba7f163c4a11628f55a4df523b3ef906020016107d7565b60085442108015610d3957506001600160a01b03831615155b15610d73576008546040516379a3983760e01b815242600482015260248101919091526001600160a01b0384166044820152606401610489565b60095442108015610d8b57506001600160a01b038316155b15610dc55760095460405163ca4ba26160e01b815242600482015260248101919091526001600160a01b0384166044820152606401610489565b505050565b600060208083528351808285015260005b81811015610df757858101830151858201604001528201610ddb565b81811115610e09576000604083870101525b50601f01601f1916929092016040019392505050565b80356001600160a01b0381168114610e3657600080fd5b919050565b60008060408385031215610e4e57600080fd5b610e5783610e1f565b946020939093013593505050565b600080600060608486031215610e7a57600080fd5b610e8384610e1f565b9250610e9160208501610e1f565b9150604084013590509250925092565b600060208284031215610eb357600080fd5b5035919050565b600060208284031215610ecc57600080fd5b610ed582610e1f565b9392505050565b60008060408385031215610eef57600080fd5b610ef883610e1f565b9150610f0660208401610e1f565b90509250929050565b600181811c90821680610f2357607f821691505b60208210811415610f4457634e487b7160e01b600052602260045260246000fd5b50919050565b634e487b7160e01b600052601160045260246000fd5b60008219821115610f7357610f73610f4a565b500190565b600082821015610f8a57610f8a610f4a565b50039056fea2646970667358221220e8f546fc20e9eab47c7a1640207a7cf0653f7854ef7291265a0831273fc1898964736f6c634300080b0033",
  "immutableReferences": {},
  "source": "// SPDX-License-Identifier: MIT\r\n// Items Contract\r\npragma solidity ^0.8.0;\r\n\r\nimport \"@openzeppelin/contracts/access/Ownable.sol\";\r\nimport \"@openzeppelin/contracts/token/ERC20/ERC20.sol\";\r\n\r\nimport \"./interfaces/IMYOS.sol\";\r\n\r\ncontract MYOS is ERC20, Ownable, IMYOS {\r\n  error NotDelegateContract(address sender, address addressDelegateContract);\r\n  error MaxSupplyReached(uint256 totalSupply, uint256 quantity, uint256 maxSupply);\r\n  error TransferIsPaused(uint256 timestamp, uint256 pausedTransferEndDate, address from);\r\n  error MintIsPaused(uint256 timestamp, uint256 pausedMintEndDate, address from);\r\n\r\n  address public addressDelegateContract;\r\n  uint256 public maxSupply;\r\n  uint256 private pausedTransferEndDate;\r\n  uint256 private pausedMintEndDate;\r\n\r\n  constructor(\r\n    uint256 _maxSupply,\r\n    string memory name,\r\n    string memory symbol\r\n  ) ERC20(name, symbol) {\r\n    maxSupply = _maxSupply * (10 ** uint256(decimals()));\r\n  }\r\n\r\n  ///@notice Very important function that we add on almost all the other functions to check that the call of the functions is done well from the delegation contract for more security\r\n  modifier byDelegate() {\r\n    if (_msgSender() != addressDelegateContract && addressDelegateContract != address(0))\r\n      revert NotDelegateContract({\r\n        sender: _msgSender(),\r\n        addressDelegateContract: addressDelegateContract\r\n      });\r\n    _;\r\n  }\r\n\r\n  ///@notice modify the address of the delegation contract to allow the said contract to interact with this one\r\n  ///@param _address new address of delegation contract\r\n  function setAddressDelegateContract(address _address) external onlyOwner {\r\n    addressDelegateContract = _address;\r\n  }\r\n\r\n  ///@notice Function of mint token\r\n  ///@param to address of receiver's item\r\n  ///@param quantity mint a guantity of item\r\n  function mint(address to, uint256 quantity) external byDelegate {\r\n    if (totalSupply() + quantity >= maxSupply)\r\n      revert MaxSupplyReached({\r\n        totalSupply: totalSupply(),\r\n        quantity: quantity,\r\n        maxSupply: maxSupply\r\n      });\r\n    _mint(to, quantity);\r\n  }\r\n\r\n  ///@notice Function of burn token\r\n  ///@param to address of burner's item\r\n  ///@param quantity mint a guantity of item\r\n  function burn(address to, uint256 quantity) external byDelegate {\r\n    _burn(to, quantity);\r\n  }\r\n\r\n  /*FUNDS OF CONTRACT*/\r\n\r\n  ///@notice Withdraw funds of this contract to an address wallet\r\n  function withdraw() external onlyOwner {\r\n    payable(_msgSender()).transfer(address(this).balance);\r\n  }\r\n\r\n  ///@notice Pause mint of token between address before time pausedMintEndDate\r\n  ///@param time timestamp until which the contract will be paused for mint\r\n  function setPausedMintEndDate(uint256 time) external onlyOwner {\r\n    pausedMintEndDate = time;\r\n  }\r\n\r\n  ///@notice Pause transfer of token between address before time pausedTransferEndDate\r\n  ///@param time timestamp until which the contract will be paused for transfer\r\n  function setPausedTransferEndDate(uint256 time) external onlyOwner {\r\n    pausedTransferEndDate = time;\r\n  }\r\n\r\n  ///@notice override of function before token transfer to pauser transfer\r\n  function _beforeTokenTransfer(\r\n    address from,\r\n    address to,\r\n    uint256 amount\r\n  ) internal virtual override(ERC20) {\r\n    if (block.timestamp < pausedTransferEndDate && from != address(0))\r\n      revert TransferIsPaused({\r\n        timestamp: block.timestamp,\r\n        pausedTransferEndDate: pausedTransferEndDate,\r\n        from: from\r\n      });\r\n    if (block.timestamp < pausedMintEndDate && from == address(0))\r\n      revert MintIsPaused({\r\n        timestamp: block.timestamp,\r\n        pausedMintEndDate: pausedMintEndDate,\r\n        from: from\r\n      });\r\n    super._beforeTokenTransfer(from, to, amount);\r\n  }\r\n}\r\n",
  "sourcePath": "C:\\Users\\Kevin\\Desktop\\WorkHome\\--Solidity--MYOS\\contracts\\MYOS.sol",
  "compiler": {
    "name": "solc",
    "version": "0.8.11+commit.d7f03943.Emscripten.clang"
  },
  "schemaVersion": "3.4.6",
  "updatedAt": "2022-11-07T00:14:12.751Z",
  "devdoc": {
    "kind": "dev",
    "methods": {
      "allowance(address,address)": {
        "details": "See {IERC20-allowance}."
      },
      "approve(address,uint256)": {
        "details": "See {IERC20-approve}. NOTE: If `amount` is the maximum `uint256`, the allowance is not updated on `transferFrom`. This is semantically equivalent to an infinite approval. Requirements: - `spender` cannot be the zero address."
      },
      "balanceOf(address)": {
        "details": "See {IERC20-balanceOf}."
      },
      "burn(address,uint256)": {
        "params": {
          "quantity": "mint a guantity of item",
          "to": "address of burner's item"
        }
      },
      "decimals()": {
        "details": "Returns the number of decimals used to get its user representation. For example, if `decimals` equals `2`, a balance of `505` tokens should be displayed to a user as `5.05` (`505 / 10 ** 2`). Tokens usually opt for a value of 18, imitating the relationship between Ether and Wei. This is the value {ERC20} uses, unless this function is overridden; NOTE: This information is only used for _display_ purposes: it in no way affects any of the arithmetic of the contract, including {IERC20-balanceOf} and {IERC20-transfer}."
      },
      "decreaseAllowance(address,uint256)": {
        "details": "Atomically decreases the allowance granted to `spender` by the caller. This is an alternative to {approve} that can be used as a mitigation for problems described in {IERC20-approve}. Emits an {Approval} event indicating the updated allowance. Requirements: - `spender` cannot be the zero address. - `spender` must have allowance for the caller of at least `subtractedValue`."
      },
      "increaseAllowance(address,uint256)": {
        "details": "Atomically increases the allowance granted to `spender` by the caller. This is an alternative to {approve} that can be used as a mitigation for problems described in {IERC20-approve}. Emits an {Approval} event indicating the updated allowance. Requirements: - `spender` cannot be the zero address."
      },
      "mint(address,uint256)": {
        "params": {
          "quantity": "mint a guantity of item",
          "to": "address of receiver's item"
        }
      },
      "name()": {
        "details": "Returns the name of the token."
      },
      "owner()": {
        "details": "Returns the address of the current owner."
      },
      "renounceOwnership()": {
        "details": "Leaves the contract without owner. It will not be possible to call `onlyOwner` functions anymore. Can only be called by the current owner. NOTE: Renouncing ownership will leave the contract without an owner, thereby removing any functionality that is only available to the owner."
      },
      "setAddressDelegateContract(address)": {
        "params": {
          "_address": "new address of delegation contract"
        }
      },
      "setPausedMintEndDate(uint256)": {
        "params": {
          "time": "timestamp until which the contract will be paused for mint"
        }
      },
      "setPausedTransferEndDate(uint256)": {
        "params": {
          "time": "timestamp until which the contract will be paused for transfer"
        }
      },
      "symbol()": {
        "details": "Returns the symbol of the token, usually a shorter version of the name."
      },
      "totalSupply()": {
        "details": "See {IERC20-totalSupply}."
      },
      "transfer(address,uint256)": {
        "details": "See {IERC20-transfer}. Requirements: - `to` cannot be the zero address. - the caller must have a balance of at least `amount`."
      },
      "transferFrom(address,address,uint256)": {
        "details": "See {IERC20-transferFrom}. Emits an {Approval} event indicating the updated allowance. This is not required by the EIP. See the note at the beginning of {ERC20}. NOTE: Does not update the allowance if the current allowance is the maximum `uint256`. Requirements: - `from` and `to` cannot be the zero address. - `from` must have a balance of at least `amount`. - the caller must have allowance for ``from``'s tokens of at least `amount`."
      },
      "transferOwnership(address)": {
        "details": "Transfers ownership of the contract to a new account (`newOwner`). Can only be called by the current owner."
      }
    },
    "version": 1
  },
  "userdoc": {
    "kind": "user",
    "methods": {
      "burn(address,uint256)": {
        "notice": "Function of burn token"
      },
      "mint(address,uint256)": {
        "notice": "Function of mint token"
      },
      "setAddressDelegateContract(address)": {
        "notice": "modify the address of the delegation contract to allow the said contract to interact with this one"
      },
      "setPausedMintEndDate(uint256)": {
        "notice": "Pause mint of token between address before time pausedMintEndDate"
      },
      "setPausedTransferEndDate(uint256)": {
        "notice": "Pause transfer of token between address before time pausedTransferEndDate"
      },
      "withdraw()": {
        "notice": "Withdraw funds of this contract to an address wallet"
      }
    },
    "version": 1
  }
}