{
  "contractName": "MYOS",
  "abi": [
    {
      "inputs": [
        {
          "internalType": "uint256",
          "name": "_maxSupply",
          "type": "uint256"
        },
        {
          "internalType": "string",
          "name": "name",
          "type": "string"
        },
        {
          "internalType": "string",
          "name": "symbol",
          "type": "string"
        }
      ],
      "stateMutability": "nonpayable",
      "type": "constructor"
    },
    {
      "anonymous": false,
      "inputs": [
        {
          "indexed": true,
          "internalType": "address",
          "name": "owner",
          "type": "address"
        },
        {
          "indexed": true,
          "internalType": "address",
          "name": "spender",
          "type": "address"
        },
        {
          "indexed": false,
          "internalType": "uint256",
          "name": "value",
          "type": "uint256"
        }
      ],
      "name": "Approval",
      "type": "event"
    },
    {
      "anonymous": false,
      "inputs": [
        {
          "indexed": true,
          "internalType": "address",
          "name": "previousOwner",
          "type": "address"
        },
        {
          "indexed": true,
          "internalType": "address",
          "name": "newOwner",
          "type": "address"
        }
      ],
      "name": "OwnershipTransferred",
      "type": "event"
    },
    {
      "anonymous": false,
      "inputs": [
        {
          "indexed": true,
          "internalType": "address",
          "name": "from",
          "type": "address"
        },
        {
          "indexed": true,
          "internalType": "address",
          "name": "to",
          "type": "address"
        },
        {
          "indexed": false,
          "internalType": "uint256",
          "name": "value",
          "type": "uint256"
        }
      ],
      "name": "Transfer",
      "type": "event"
    },
    {
      "inputs": [],
      "name": "adressDelegateContract",
      "outputs": [
        {
          "internalType": "address",
          "name": "",
          "type": "address"
        }
      ],
      "stateMutability": "view",
      "type": "function"
    },
    {
      "inputs": [
        {
          "internalType": "address",
          "name": "owner",
          "type": "address"
        },
        {
          "internalType": "address",
          "name": "spender",
          "type": "address"
        }
      ],
      "name": "allowance",
      "outputs": [
        {
          "internalType": "uint256",
          "name": "",
          "type": "uint256"
        }
      ],
      "stateMutability": "view",
      "type": "function"
    },
    {
      "inputs": [
        {
          "internalType": "address",
          "name": "spender",
          "type": "address"
        },
        {
          "internalType": "uint256",
          "name": "amount",
          "type": "uint256"
        }
      ],
      "name": "approve",
      "outputs": [
        {
          "internalType": "bool",
          "name": "",
          "type": "bool"
        }
      ],
      "stateMutability": "nonpayable",
      "type": "function"
    },
    {
      "inputs": [
        {
          "internalType": "address",
          "name": "account",
          "type": "address"
        }
      ],
      "name": "balanceOf",
      "outputs": [
        {
          "internalType": "uint256",
          "name": "",
          "type": "uint256"
        }
      ],
      "stateMutability": "view",
      "type": "function"
    },
    {
      "inputs": [],
      "name": "decimals",
      "outputs": [
        {
          "internalType": "uint8",
          "name": "",
          "type": "uint8"
        }
      ],
      "stateMutability": "view",
      "type": "function"
    },
    {
      "inputs": [
        {
          "internalType": "address",
          "name": "spender",
          "type": "address"
        },
        {
          "internalType": "uint256",
          "name": "subtractedValue",
          "type": "uint256"
        }
      ],
      "name": "decreaseAllowance",
      "outputs": [
        {
          "internalType": "bool",
          "name": "",
          "type": "bool"
        }
      ],
      "stateMutability": "nonpayable",
      "type": "function"
    },
    {
      "inputs": [
        {
          "internalType": "address",
          "name": "spender",
          "type": "address"
        },
        {
          "internalType": "uint256",
          "name": "addedValue",
          "type": "uint256"
        }
      ],
      "name": "increaseAllowance",
      "outputs": [
        {
          "internalType": "bool",
          "name": "",
          "type": "bool"
        }
      ],
      "stateMutability": "nonpayable",
      "type": "function"
    },
    {
      "inputs": [],
      "name": "maxSupply",
      "outputs": [
        {
          "internalType": "uint256",
          "name": "",
          "type": "uint256"
        }
      ],
      "stateMutability": "view",
      "type": "function"
    },
    {
      "inputs": [],
      "name": "name",
      "outputs": [
        {
          "internalType": "string",
          "name": "",
          "type": "string"
        }
      ],
      "stateMutability": "view",
      "type": "function"
    },
    {
      "inputs": [],
      "name": "owner",
      "outputs": [
        {
          "internalType": "address",
          "name": "",
          "type": "address"
        }
      ],
      "stateMutability": "view",
      "type": "function"
    },
    {
      "inputs": [],
      "name": "renounceOwnership",
      "outputs": [],
      "stateMutability": "nonpayable",
      "type": "function"
    },
    {
      "inputs": [],
      "name": "symbol",
      "outputs": [
        {
          "internalType": "string",
          "name": "",
          "type": "string"
        }
      ],
      "stateMutability": "view",
      "type": "function"
    },
    {
      "inputs": [],
      "name": "totalSupply",
      "outputs": [
        {
          "internalType": "uint256",
          "name": "",
          "type": "uint256"
        }
      ],
      "stateMutability": "view",
      "type": "function"
    },
    {
      "inputs": [
        {
          "internalType": "address",
          "name": "recipient",
          "type": "address"
        },
        {
          "internalType": "uint256",
          "name": "amount",
          "type": "uint256"
        }
      ],
      "name": "transfer",
      "outputs": [
        {
          "internalType": "bool",
          "name": "",
          "type": "bool"
        }
      ],
      "stateMutability": "nonpayable",
      "type": "function"
    },
    {
      "inputs": [
        {
          "internalType": "address",
          "name": "sender",
          "type": "address"
        },
        {
          "internalType": "address",
          "name": "recipient",
          "type": "address"
        },
        {
          "internalType": "uint256",
          "name": "amount",
          "type": "uint256"
        }
      ],
      "name": "transferFrom",
      "outputs": [
        {
          "internalType": "bool",
          "name": "",
          "type": "bool"
        }
      ],
      "stateMutability": "nonpayable",
      "type": "function"
    },
    {
      "inputs": [
        {
          "internalType": "address",
          "name": "newOwner",
          "type": "address"
        }
      ],
      "name": "transferOwnership",
      "outputs": [],
      "stateMutability": "nonpayable",
      "type": "function"
    },
    {
      "inputs": [
        {
          "internalType": "address",
          "name": "_adress",
          "type": "address"
        }
      ],
      "name": "setAdressDelegateContract",
      "outputs": [],
      "stateMutability": "nonpayable",
      "type": "function"
    },
    {
      "inputs": [
        {
          "internalType": "address",
          "name": "to",
          "type": "address"
        },
        {
          "internalType": "uint256",
          "name": "value",
          "type": "uint256"
        }
      ],
      "name": "mint",
      "outputs": [],
      "stateMutability": "payable",
      "type": "function"
    },
    {
      "inputs": [
        {
          "internalType": "address",
          "name": "to",
          "type": "address"
        },
        {
          "internalType": "uint256",
          "name": "number",
          "type": "uint256"
        }
      ],
      "name": "burn",
      "outputs": [],
      "stateMutability": "nonpayable",
      "type": "function"
    },
    {
      "inputs": [],
      "name": "getBalanceContract",
      "outputs": [
        {
          "internalType": "uint256",
          "name": "",
          "type": "uint256"
        }
      ],
      "stateMutability": "view",
      "type": "function"
    },
    {
      "inputs": [],
      "name": "withdraw",
      "outputs": [],
      "stateMutability": "nonpayable",
      "type": "function"
    },
    {
      "inputs": [],
      "name": "deposit",
      "outputs": [],
      "stateMutability": "payable",
      "type": "function"
    },
    {
      "inputs": [
        {
          "internalType": "uint256",
          "name": "time",
          "type": "uint256"
        }
      ],
      "name": "setPausedTransferEndDate",
      "outputs": [],
      "stateMutability": "nonpayable",
      "type": "function"
    }
  ],
  "bytecode": "0x60806040523480156200001157600080fd5b50604051620029e0380380620029e08339818101604052810190620000379190620002b2565b818181600390805190602001906200005192919062000179565b5080600490805190602001906200006a92919062000179565b5050506200008d62000081620000ab60201b60201c565b620000b360201b60201c565b6018836200009c9190620003a1565b6007819055505050506200051f565b600033905090565b6000600560009054906101000a900473ffffffffffffffffffffffffffffffffffffffff16905081600560006101000a81548173ffffffffffffffffffffffffffffffffffffffff021916908373ffffffffffffffffffffffffffffffffffffffff1602179055508173ffffffffffffffffffffffffffffffffffffffff168173ffffffffffffffffffffffffffffffffffffffff167f8be0079c531659141344cd1fd0a4f28419497f9722a3daafe3b4186f6b6457e060405160405180910390a35050565b828054620001879062000442565b90600052602060002090601f016020900481019282620001ab5760008555620001f7565b82601f10620001c657805160ff1916838001178555620001f7565b82800160010185558215620001f7579182015b82811115620001f6578251825591602001919060010190620001d9565b5b5090506200020691906200020a565b5090565b5b80821115620002255760008160009055506001016200020b565b5090565b6000620002406200023a846200036e565b6200033a565b9050828152602081018484840111156200025957600080fd5b620002668482856200040c565b509392505050565b600082601f8301126200028057600080fd5b81516200029284826020860162000229565b91505092915050565b600081519050620002ac8162000505565b92915050565b600080600060608486031215620002c857600080fd5b6000620002d8868287016200029b565b935050602084015167ffffffffffffffff811115620002f657600080fd5b62000304868287016200026e565b925050604084015167ffffffffffffffff8111156200032257600080fd5b62000330868287016200026e565b9150509250925092565b6000604051905081810181811067ffffffffffffffff82111715620003645762000363620004d6565b5b8060405250919050565b600067ffffffffffffffff8211156200038c576200038b620004d6565b5b601f19601f8301169050602081019050919050565b6000620003ae8262000402565b9150620003bb8362000402565b9250817fffffffffffffffffffffffffffffffffffffffffffffffffffffffffffffffff0483118215151615620003f757620003f662000478565b5b828202905092915050565b6000819050919050565b60005b838110156200042c5780820151818401526020810190506200040f565b838111156200043c576000848401525b50505050565b600060028204905060018216806200045b57607f821691505b60208210811415620004725762000471620004a7565b5b50919050565b7f4e487b7100000000000000000000000000000000000000000000000000000000600052601160045260246000fd5b7f4e487b7100000000000000000000000000000000000000000000000000000000600052602260045260246000fd5b7f4e487b7100000000000000000000000000000000000000000000000000000000600052604160045260246000fd5b620005108162000402565b81146200051c57600080fd5b50565b6124b1806200052f6000396000f3fe6080604052600436106101405760003560e01c80636e7888c1116100b6578063a457c2d71161006f578063a457c2d71461042b578063a9059cbb14610468578063d0e30db0146104a5578063d5abeb01146104af578063dd62ed3e146104da578063f2fde38b1461051757610140565b80636e7888c11461032f57806370a0823114610358578063715018a6146103955780638da5cb5b146103ac57806395d89b41146103d75780639dc29fac1461040257610140565b8063313ce56711610108578063313ce56714610240578063395093511461026b5780633ccfd60b146102a857806340c10f19146102bf57806348972034146102db57806366bd78fd1461030457610140565b806306fdde0314610145578063095ea7b31461017057806318160ddd146101ad57806323b872dd146101d85780632501cfc714610215575b600080fd5b34801561015157600080fd5b5061015a610540565b6040516101679190612046565b60405180910390f35b34801561017c57600080fd5b50610197600480360381019061019291906119fa565b6105d2565b6040516101a4919061202b565b60405180910390f35b3480156101b957600080fd5b506101c26105f0565b6040516101cf9190612248565b60405180910390f35b3480156101e457600080fd5b506101ff60048036038101906101fa91906119ab565b6105fa565b60405161020c919061202b565b60405180910390f35b34801561022157600080fd5b5061022a6106f2565b6040516102379190612010565b60405180910390f35b34801561024c57600080fd5b50610255610718565b6040516102629190612263565b60405180910390f35b34801561027757600080fd5b50610292600480360381019061028d91906119fa565b610721565b60405161029f919061202b565b60405180910390f35b3480156102b457600080fd5b506102bd6107cd565b005b6102d960048036038101906102d491906119fa565b610892565b005b3480156102e757600080fd5b5061030260048036038101906102fd9190611946565b6109d4565b005b34801561031057600080fd5b50610319610a94565b6040516103269190612248565b60405180910390f35b34801561033b57600080fd5b5061035660048036038101906103519190611a36565b610a9c565b005b34801561036457600080fd5b5061037f600480360381019061037a9190611946565b610b22565b60405161038c9190612248565b60405180910390f35b3480156103a157600080fd5b506103aa610b6a565b005b3480156103b857600080fd5b506103c1610bf2565b6040516103ce9190612010565b60405180910390f35b3480156103e357600080fd5b506103ec610c1c565b6040516103f99190612046565b60405180910390f35b34801561040e57600080fd5b50610429600480360381019061042491906119fa565b610cae565b005b34801561043757600080fd5b50610452600480360381019061044d91906119fa565b610da5565b60405161045f919061202b565b60405180910390f35b34801561047457600080fd5b5061048f600480360381019061048a91906119fa565b610e90565b60405161049c919061202b565b60405180910390f35b6104ad610eae565b005b3480156104bb57600080fd5b506104c4610eb0565b6040516104d19190612248565b60405180910390f35b3480156104e657600080fd5b5061050160048036038101906104fc919061196f565b610eb6565b60405161050e9190612248565b60405180910390f35b34801561052357600080fd5b5061053e60048036038101906105399190611946565b610f3d565b005b60606003805461054f906123ac565b80601f016020809104026020016040519081016040528092919081815260200182805461057b906123ac565b80156105c85780601f1061059d576101008083540402835291602001916105c8565b820191906000526020600020905b8154815290600101906020018083116105ab57829003601f168201915b5050505050905090565b60006105e66105df611035565b848461103d565b6001905092915050565b6000600254905090565b6000610607848484611208565b6000600160008673ffffffffffffffffffffffffffffffffffffffff1673ffffffffffffffffffffffffffffffffffffffff1681526020019081526020016000206000610652611035565b73ffffffffffffffffffffffffffffffffffffffff1673ffffffffffffffffffffffffffffffffffffffff168152602001908152602001600020549050828110156106d2576040517f08c379a00000000000000000000000000000000000000000000000000000000081526004016106c990612128565b60405180910390fd5b6106e6856106de611035565b85840361103d565b60019150509392505050565b600660009054906101000a900473ffffffffffffffffffffffffffffffffffffffff1681565b60006012905090565b60006107c361072e611035565b84846001600061073c611035565b73ffffffffffffffffffffffffffffffffffffffff1673ffffffffffffffffffffffffffffffffffffffff16815260200190815260200160002060008873ffffffffffffffffffffffffffffffffffffffff1673ffffffffffffffffffffffffffffffffffffffff168152602001908152602001600020546107be919061229a565b61103d565b6001905092915050565b6107d5611035565b73ffffffffffffffffffffffffffffffffffffffff166107f3610bf2565b73ffffffffffffffffffffffffffffffffffffffff1614610849576040517f08c379a000000000000000000000000000000000000000000000000000000000815260040161084090612148565b60405180910390fd5b3373ffffffffffffffffffffffffffffffffffffffff166108fc479081150290604051600060405180830381858888f1935050505015801561088f573d6000803e3d6000fd5b50565b600660009054906101000a900473ffffffffffffffffffffffffffffffffffffffff1673ffffffffffffffffffffffffffffffffffffffff163373ffffffffffffffffffffffffffffffffffffffff16148061093c5750600073ffffffffffffffffffffffffffffffffffffffff16600660009054906101000a900473ffffffffffffffffffffffffffffffffffffffff1673ffffffffffffffffffffffffffffffffffffffff16145b61097b576040517f08c379a0000000000000000000000000000000000000000000000000000000008152600401610972906120e8565b60405180910390fd5b6007546109866105f0565b106109c6576040517f08c379a00000000000000000000000000000000000000000000000000000000081526004016109bd906121e8565b60405180910390fd5b6109d08282611489565b5050565b6109dc611035565b73ffffffffffffffffffffffffffffffffffffffff166109fa610bf2565b73ffffffffffffffffffffffffffffffffffffffff1614610a50576040517f08c379a0000000000000000000000000000000000000000000000000000000008152600401610a4790612148565b60405180910390fd5b80600660006101000a81548173ffffffffffffffffffffffffffffffffffffffff021916908373ffffffffffffffffffffffffffffffffffffffff16021790555050565b600047905090565b610aa4611035565b73ffffffffffffffffffffffffffffffffffffffff16610ac2610bf2565b73ffffffffffffffffffffffffffffffffffffffff1614610b18576040517f08c379a0000000000000000000000000000000000000000000000000000000008152600401610b0f90612148565b60405180910390fd5b8060088190555050565b60008060008373ffffffffffffffffffffffffffffffffffffffff1673ffffffffffffffffffffffffffffffffffffffff168152602001908152602001600020549050919050565b610b72611035565b73ffffffffffffffffffffffffffffffffffffffff16610b90610bf2565b73ffffffffffffffffffffffffffffffffffffffff1614610be6576040517f08c379a0000000000000000000000000000000000000000000000000000000008152600401610bdd90612148565b60405180910390fd5b610bf060006115e9565b565b6000600560009054906101000a900473ffffffffffffffffffffffffffffffffffffffff16905090565b606060048054610c2b906123ac565b80601f0160208091040260200160405190810160405280929190818152602001828054610c57906123ac565b8015610ca45780601f10610c7957610100808354040283529160200191610ca4565b820191906000526020600020905b815481529060010190602001808311610c8757829003601f168201915b5050505050905090565b600660009054906101000a900473ffffffffffffffffffffffffffffffffffffffff1673ffffffffffffffffffffffffffffffffffffffff163373ffffffffffffffffffffffffffffffffffffffff161480610d585750600073ffffffffffffffffffffffffffffffffffffffff16600660009054906101000a900473ffffffffffffffffffffffffffffffffffffffff1673ffffffffffffffffffffffffffffffffffffffff16145b610d97576040517f08c379a0000000000000000000000000000000000000000000000000000000008152600401610d8e906120e8565b60405180910390fd5b610da182826116af565b5050565b60008060016000610db4611035565b73ffffffffffffffffffffffffffffffffffffffff1673ffffffffffffffffffffffffffffffffffffffff16815260200190815260200160002060008573ffffffffffffffffffffffffffffffffffffffff1673ffffffffffffffffffffffffffffffffffffffff16815260200190815260200160002054905082811015610e71576040517f08c379a0000000000000000000000000000000000000000000000000000000008152600401610e6890612208565b60405180910390fd5b610e85610e7c611035565b8585840361103d565b600191505092915050565b6000610ea4610e9d611035565b8484611208565b6001905092915050565b565b60075481565b6000600160008473ffffffffffffffffffffffffffffffffffffffff1673ffffffffffffffffffffffffffffffffffffffff16815260200190815260200160002060008373ffffffffffffffffffffffffffffffffffffffff1673ffffffffffffffffffffffffffffffffffffffff16815260200190815260200160002054905092915050565b610f45611035565b73ffffffffffffffffffffffffffffffffffffffff16610f63610bf2565b73ffffffffffffffffffffffffffffffffffffffff1614610fb9576040517f08c379a0000000000000000000000000000000000000000000000000000000008152600401610fb090612148565b60405180910390fd5b600073ffffffffffffffffffffffffffffffffffffffff168173ffffffffffffffffffffffffffffffffffffffff161415611029576040517f08c379a0000000000000000000000000000000000000000000000000000000008152600401611020906120a8565b60405180910390fd5b611032816115e9565b50565b600033905090565b600073ffffffffffffffffffffffffffffffffffffffff168373ffffffffffffffffffffffffffffffffffffffff1614156110ad576040517f08c379a00000000000000000000000000000000000000000000000000000000081526004016110a4906121c8565b60405180910390fd5b600073ffffffffffffffffffffffffffffffffffffffff168273ffffffffffffffffffffffffffffffffffffffff16141561111d576040517f08c379a0000000000000000000000000000000000000000000000000000000008152600401611114906120c8565b60405180910390fd5b80600160008573ffffffffffffffffffffffffffffffffffffffff1673ffffffffffffffffffffffffffffffffffffffff16815260200190815260200160002060008473ffffffffffffffffffffffffffffffffffffffff1673ffffffffffffffffffffffffffffffffffffffff168152602001908152602001600020819055508173ffffffffffffffffffffffffffffffffffffffff168373ffffffffffffffffffffffffffffffffffffffff167f8c5be1e5ebec7d5bd14f71427d1e84f3dd0314c0f7b2291e5b200ac8c7c3b925836040516111fb9190612248565b60405180910390a3505050565b600073ffffffffffffffffffffffffffffffffffffffff168373ffffffffffffffffffffffffffffffffffffffff161415611278576040517f08c379a000000000000000000000000000000000000000000000000000000000815260040161126f906121a8565b60405180910390fd5b600073ffffffffffffffffffffffffffffffffffffffff168273ffffffffffffffffffffffffffffffffffffffff1614156112e8576040517f08c379a00000000000000000000000000000000000000000000000000000000081526004016112df90612068565b60405180910390fd5b6112f3838383611886565b60008060008573ffffffffffffffffffffffffffffffffffffffff1673ffffffffffffffffffffffffffffffffffffffff16815260200190815260200160002054905081811015611379576040517f08c379a000000000000000000000000000000000000000000000000000000000815260040161137090612108565b60405180910390fd5b8181036000808673ffffffffffffffffffffffffffffffffffffffff1673ffffffffffffffffffffffffffffffffffffffff16815260200190815260200160002081905550816000808573ffffffffffffffffffffffffffffffffffffffff1673ffffffffffffffffffffffffffffffffffffffff168152602001908152602001600020600082825461140c919061229a565b925050819055508273ffffffffffffffffffffffffffffffffffffffff168473ffffffffffffffffffffffffffffffffffffffff167fddf252ad1be2c89b69c2b068fc378daa952ba7f163c4a11628f55a4df523b3ef846040516114709190612248565b60405180910390a3611483848484611912565b50505050565b600073ffffffffffffffffffffffffffffffffffffffff168273ffffffffffffffffffffffffffffffffffffffff1614156114f9576040517f08c379a00000000000000000000000000000000000000000000000000000000081526004016114f090612228565b60405180910390fd5b61150560008383611886565b8060026000828254611517919061229a565b92505081905550806000808473ffffffffffffffffffffffffffffffffffffffff1673ffffffffffffffffffffffffffffffffffffffff168152602001908152602001600020600082825461156c919061229a565b925050819055508173ffffffffffffffffffffffffffffffffffffffff16600073ffffffffffffffffffffffffffffffffffffffff167fddf252ad1be2c89b69c2b068fc378daa952ba7f163c4a11628f55a4df523b3ef836040516115d19190612248565b60405180910390a36115e560008383611912565b5050565b6000600560009054906101000a900473ffffffffffffffffffffffffffffffffffffffff16905081600560006101000a81548173ffffffffffffffffffffffffffffffffffffffff021916908373ffffffffffffffffffffffffffffffffffffffff1602179055508173ffffffffffffffffffffffffffffffffffffffff168173ffffffffffffffffffffffffffffffffffffffff167f8be0079c531659141344cd1fd0a4f28419497f9722a3daafe3b4186f6b6457e060405160405180910390a35050565b600073ffffffffffffffffffffffffffffffffffffffff168273ffffffffffffffffffffffffffffffffffffffff16141561171f576040517f08c379a000000000000000000000000000000000000000000000000000000000815260040161171690612168565b60405180910390fd5b61172b82600083611886565b60008060008473ffffffffffffffffffffffffffffffffffffffff1673ffffffffffffffffffffffffffffffffffffffff168152602001908152602001600020549050818110156117b1576040517f08c379a00000000000000000000000000000000000000000000000000000000081526004016117a890612088565b60405180910390fd5b8181036000808573ffffffffffffffffffffffffffffffffffffffff1673ffffffffffffffffffffffffffffffffffffffff16815260200190815260200160002081905550816002600082825461180891906122f0565b92505081905550600073ffffffffffffffffffffffffffffffffffffffff168373ffffffffffffffffffffffffffffffffffffffff167fddf252ad1be2c89b69c2b068fc378daa952ba7f163c4a11628f55a4df523b3ef8460405161186d9190612248565b60405180910390a361188183600084611912565b505050565b600854421015806118c35750600073ffffffffffffffffffffffffffffffffffffffff168373ffffffffffffffffffffffffffffffffffffffff16145b611902576040517f08c379a00000000000000000000000000000000000000000000000000000000081526004016118f990612188565b60405180910390fd5b61190d838383611917565b505050565b505050565b505050565b60008135905061192b8161244d565b92915050565b60008135905061194081612464565b92915050565b60006020828403121561195857600080fd5b60006119668482850161191c565b91505092915050565b6000806040838503121561198257600080fd5b60006119908582860161191c565b92505060206119a18582860161191c565b9150509250929050565b6000806000606084860312156119c057600080fd5b60006119ce8682870161191c565b93505060206119df8682870161191c565b92505060406119f086828701611931565b9150509250925092565b60008060408385031215611a0d57600080fd5b6000611a1b8582860161191c565b9250506020611a2c85828601611931565b9150509250929050565b600060208284031215611a4857600080fd5b6000611a5684828501611931565b91505092915050565b611a6881612324565b82525050565b611a7781612336565b82525050565b6000611a888261227e565b611a928185612289565b9350611aa2818560208601612379565b611aab8161243c565b840191505092915050565b6000611ac3602383612289565b91507f45524332303a207472616e7366657220746f20746865207a65726f206164647260008301527f65737300000000000000000000000000000000000000000000000000000000006020830152604082019050919050565b6000611b29602283612289565b91507f45524332303a206275726e20616d6f756e7420657863656564732062616c616e60008301527f63650000000000000000000000000000000000000000000000000000000000006020830152604082019050919050565b6000611b8f602683612289565b91507f4f776e61626c653a206e6577206f776e657220697320746865207a65726f206160008301527f64647265737300000000000000000000000000000000000000000000000000006020830152604082019050919050565b6000611bf5602283612289565b91507f45524332303a20617070726f766520746f20746865207a65726f20616464726560008301527f73730000000000000000000000000000000000000000000000000000000000006020830152604082019050919050565b6000611c5b601a83612289565b91507f4e6f7420676f6f642064656c656761746520636f6e74726163740000000000006000830152602082019050919050565b6000611c9b602683612289565b91507f45524332303a207472616e7366657220616d6f756e742065786365656473206260008301527f616c616e636500000000000000000000000000000000000000000000000000006020830152604082019050919050565b6000611d01602883612289565b91507f45524332303a207472616e7366657220616d6f756e742065786365656473206160008301527f6c6c6f77616e63650000000000000000000000000000000000000000000000006020830152604082019050919050565b6000611d67602083612289565b91507f4f776e61626c653a2063616c6c6572206973206e6f7420746865206f776e65726000830152602082019050919050565b6000611da7602183612289565b91507f45524332303a206275726e2066726f6d20746865207a65726f2061646472657360008301527f73000000000000000000000000000000000000000000000000000000000000006020830152604082019050919050565b6000611e0d601283612289565b91507f7472616e736665722069732070617573656400000000000000000000000000006000830152602082019050919050565b6000611e4d602583612289565b91507f45524332303a207472616e736665722066726f6d20746865207a65726f20616460008301527f64726573730000000000000000000000000000000000000000000000000000006020830152604082019050919050565b6000611eb3602483612289565b91507f45524332303a20617070726f76652066726f6d20746865207a65726f2061646460008301527f72657373000000000000000000000000000000000000000000000000000000006020830152604082019050919050565b6000611f19601283612289565b91507f4d617820737570706c79207265616368656400000000000000000000000000006000830152602082019050919050565b6000611f59602583612289565b91507f45524332303a2064656372656173656420616c6c6f77616e63652062656c6f7760008301527f207a65726f0000000000000000000000000000000000000000000000000000006020830152604082019050919050565b6000611fbf601f83612289565b91507f45524332303a206d696e7420746f20746865207a65726f2061646472657373006000830152602082019050919050565b611ffb81612362565b82525050565b61200a8161236c565b82525050565b60006020820190506120256000830184611a5f565b92915050565b60006020820190506120406000830184611a6e565b92915050565b600060208201905081810360008301526120608184611a7d565b905092915050565b6000602082019050818103600083015261208181611ab6565b9050919050565b600060208201905081810360008301526120a181611b1c565b9050919050565b600060208201905081810360008301526120c181611b82565b9050919050565b600060208201905081810360008301526120e181611be8565b9050919050565b6000602082019050818103600083015261210181611c4e565b9050919050565b6000602082019050818103600083015261212181611c8e565b9050919050565b6000602082019050818103600083015261214181611cf4565b9050919050565b6000602082019050818103600083015261216181611d5a565b9050919050565b6000602082019050818103600083015261218181611d9a565b9050919050565b600060208201905081810360008301526121a181611e00565b9050919050565b600060208201905081810360008301526121c181611e40565b9050919050565b600060208201905081810360008301526121e181611ea6565b9050919050565b6000602082019050818103600083015261220181611f0c565b9050919050565b6000602082019050818103600083015261222181611f4c565b9050919050565b6000602082019050818103600083015261224181611fb2565b9050919050565b600060208201905061225d6000830184611ff2565b92915050565b60006020820190506122786000830184612001565b92915050565b600081519050919050565b600082825260208201905092915050565b60006122a582612362565b91506122b083612362565b9250827fffffffffffffffffffffffffffffffffffffffffffffffffffffffffffffffff038211156122e5576122e46123de565b5b828201905092915050565b60006122fb82612362565b915061230683612362565b925082821015612319576123186123de565b5b828203905092915050565b600061232f82612342565b9050919050565b60008115159050919050565b600073ffffffffffffffffffffffffffffffffffffffff82169050919050565b6000819050919050565b600060ff82169050919050565b60005b8381101561239757808201518184015260208101905061237c565b838111156123a6576000848401525b50505050565b600060028204905060018216806123c457607f821691505b602082108114156123d8576123d761240d565b5b50919050565b7f4e487b7100000000000000000000000000000000000000000000000000000000600052601160045260246000fd5b7f4e487b7100000000000000000000000000000000000000000000000000000000600052602260045260246000fd5b6000601f19601f8301169050919050565b61245681612324565b811461246157600080fd5b50565b61246d81612362565b811461247857600080fd5b5056fea2646970667358221220658dd797eedbbeb301989836035b369f561da45ead8191a7f25cdf27b0d9a9f464736f6c63430008000033",
  "immutableReferences": {},
  "source": "// SPDX-License-Identifier: MIT\n// Items Contract\npragma solidity ^0.8.0;\n\nimport \"@openzeppelin/contracts/access/Ownable.sol\";\nimport \"@openzeppelin/contracts/token/ERC20/ERC20.sol\";\n\n/**\nPremier token d'inventaire, disons la money\n */\ncontract MYOS is ERC20, Ownable {\n    address public adressDelegateContract;\n    uint256 public maxSupply;\n    uint256 private pausedTransferEndDate;\n\n    constructor(\n        uint256 _maxSupply,\n        string memory name,\n        string memory symbol\n    ) ERC20(name, symbol) {\n        maxSupply = _maxSupply* (10 ^ 18);\n    }\n\n    ///@notice Very important function that we add on almost all the other functions to check that the call of the functions is done well from the delegation contract for more security\n    modifier byDelegate() {\n        require(\n            (msg.sender == adressDelegateContract ||\n                adressDelegateContract == address(0)),\n            \"Not good delegate contract\"\n        );\n        _;\n    }\n\n    ///@notice Modify the address of the delegation contract to allow the said contract to interact with this one\n    function setAdressDelegateContract(address _adress) external onlyOwner {\n        adressDelegateContract = _adress;\n    }\n\n    ///@notice Function to offer myos tokens to a wallet address\n    function mint(address to, uint256 value) external payable byDelegate {\n        require(totalSupply()<maxSupply,\"Max supply reached\");\n        _mint(to, value);\n    }\n\n    ///@notice Function to destroy myos tokens to a wallet address\n    function burn(address to, uint256 number) external byDelegate {\n        _burn(to, number);\n    }\n\n    ///@notice Return native token (MATIC) from this contract\n    function getBalanceContract() external view returns (uint256) {\n        return address(this).balance;\n    }\n\n    /*FUNDS OF CONTRACT*/\n\n    ///@notice Withdraw funds of this contract to an address wallet\n    function withdraw() external onlyOwner {\n        payable(msg.sender).transfer(address(this).balance);\n    }\n\n    ///@notice Deposit funds to this contract\n    function deposit() external payable {\n        \n    }\n\n    ///@notice Pause transfer of token between address before time pausedTransferEndDate\n    function setPausedTransferEndDate(uint256 time) external onlyOwner {\n        pausedTransferEndDate = time;\n    }\n\n    ///@notice override of function before token transfer to pauser transfer\n    function _beforeTokenTransfer(\n        address from,\n        address to,\n        uint256 amount\n    ) internal virtual override(ERC20) {\n        require(block.timestamp >= pausedTransferEndDate || from == address(0),\"transfer is paused\");\n        super._beforeTokenTransfer(from, to, amount);\n    }\n\n}",
  "sourcePath": "/home/kevin/Bureau/homework/MYOS/contracts/MYOS.sol",
  "compiler": {
    "name": "solc",
    "version": "0.8.0+commit.c7dfd78e.Emscripten.clang"
  },
  "schemaVersion": "3.4.7",
  "updatedAt": "2022-08-04T08:17:24.597Z",
  "devdoc": {
    "kind": "dev",
    "methods": {
      "allowance(address,address)": {
        "details": "See {IERC20-allowance}."
      },
      "approve(address,uint256)": {
        "details": "See {IERC20-approve}. Requirements: - `spender` cannot be the zero address."
      },
      "balanceOf(address)": {
        "details": "See {IERC20-balanceOf}."
      },
      "decimals()": {
        "details": "Returns the number of decimals used to get its user representation. For example, if `decimals` equals `2`, a balance of `505` tokens should be displayed to a user as `5.05` (`505 / 10 ** 2`). Tokens usually opt for a value of 18, imitating the relationship between Ether and Wei. This is the value {ERC20} uses, unless this function is overridden; NOTE: This information is only used for _display_ purposes: it in no way affects any of the arithmetic of the contract, including {IERC20-balanceOf} and {IERC20-transfer}."
      },
      "decreaseAllowance(address,uint256)": {
        "details": "Atomically decreases the allowance granted to `spender` by the caller. This is an alternative to {approve} that can be used as a mitigation for problems described in {IERC20-approve}. Emits an {Approval} event indicating the updated allowance. Requirements: - `spender` cannot be the zero address. - `spender` must have allowance for the caller of at least `subtractedValue`."
      },
      "increaseAllowance(address,uint256)": {
        "details": "Atomically increases the allowance granted to `spender` by the caller. This is an alternative to {approve} that can be used as a mitigation for problems described in {IERC20-approve}. Emits an {Approval} event indicating the updated allowance. Requirements: - `spender` cannot be the zero address."
      },
      "name()": {
        "details": "Returns the name of the token."
      },
      "owner()": {
        "details": "Returns the address of the current owner."
      },
      "renounceOwnership()": {
        "details": "Leaves the contract without owner. It will not be possible to call `onlyOwner` functions anymore. Can only be called by the current owner. NOTE: Renouncing ownership will leave the contract without an owner, thereby removing any functionality that is only available to the owner."
      },
      "symbol()": {
        "details": "Returns the symbol of the token, usually a shorter version of the name."
      },
      "totalSupply()": {
        "details": "See {IERC20-totalSupply}."
      },
      "transfer(address,uint256)": {
        "details": "See {IERC20-transfer}. Requirements: - `recipient` cannot be the zero address. - the caller must have a balance of at least `amount`."
      },
      "transferFrom(address,address,uint256)": {
        "details": "See {IERC20-transferFrom}. Emits an {Approval} event indicating the updated allowance. This is not required by the EIP. See the note at the beginning of {ERC20}. Requirements: - `sender` and `recipient` cannot be the zero address. - `sender` must have a balance of at least `amount`. - the caller must have allowance for ``sender``'s tokens of at least `amount`."
      },
      "transferOwnership(address)": {
        "details": "Transfers ownership of the contract to a new account (`newOwner`). Can only be called by the current owner."
      }
    },
    "version": 1
  },
  "userdoc": {
    "kind": "user",
    "methods": {
      "burn(address,uint256)": {
        "notice": "Function to destroy myos tokens to a wallet address"
      },
      "deposit()": {
        "notice": "Deposit funds to this contract"
      },
      "getBalanceContract()": {
        "notice": "Return native token (MATIC) from this contract"
      },
      "mint(address,uint256)": {
        "notice": "Function to offer myos tokens to a wallet address"
      },
      "setAdressDelegateContract(address)": {
        "notice": "Modify the address of the delegation contract to allow the said contract to interact with this one"
      },
      "setPausedTransferEndDate(uint256)": {
        "notice": "Pause transfer of token between address before time pausedTransferEndDate"
      },
      "withdraw()": {
        "notice": "Withdraw funds of this contract to an address wallet"
      }
    },
    "notice": "Premier token d'inventaire, disons la money",
    "version": 1
  }
}