{
  "contractName": "MYOS",
  "abi": [
    {
      "inputs": [
        {
          "internalType": "uint256",
          "name": "_maxSupply",
          "type": "uint256"
        },
        {
          "internalType": "string",
          "name": "name",
          "type": "string"
        },
        {
          "internalType": "string",
          "name": "symbol",
          "type": "string"
        }
      ],
      "stateMutability": "nonpayable",
      "type": "constructor"
    },
    {
      "anonymous": false,
      "inputs": [
        {
          "indexed": true,
          "internalType": "address",
          "name": "owner",
          "type": "address"
        },
        {
          "indexed": true,
          "internalType": "address",
          "name": "spender",
          "type": "address"
        },
        {
          "indexed": false,
          "internalType": "uint256",
          "name": "value",
          "type": "uint256"
        }
      ],
      "name": "Approval",
      "type": "event"
    },
    {
      "anonymous": false,
      "inputs": [
        {
          "indexed": true,
          "internalType": "address",
          "name": "previousOwner",
          "type": "address"
        },
        {
          "indexed": true,
          "internalType": "address",
          "name": "newOwner",
          "type": "address"
        }
      ],
      "name": "OwnershipTransferred",
      "type": "event"
    },
    {
      "anonymous": false,
      "inputs": [
        {
          "indexed": true,
          "internalType": "address",
          "name": "from",
          "type": "address"
        },
        {
          "indexed": true,
          "internalType": "address",
          "name": "to",
          "type": "address"
        },
        {
          "indexed": false,
          "internalType": "uint256",
          "name": "value",
          "type": "uint256"
        }
      ],
      "name": "Transfer",
      "type": "event"
    },
    {
      "inputs": [],
      "name": "adressDelegateContract",
      "outputs": [
        {
          "internalType": "address",
          "name": "",
          "type": "address"
        }
      ],
      "stateMutability": "view",
      "type": "function"
    },
    {
      "inputs": [
        {
          "internalType": "address",
          "name": "owner",
          "type": "address"
        },
        {
          "internalType": "address",
          "name": "spender",
          "type": "address"
        }
      ],
      "name": "allowance",
      "outputs": [
        {
          "internalType": "uint256",
          "name": "",
          "type": "uint256"
        }
      ],
      "stateMutability": "view",
      "type": "function"
    },
    {
      "inputs": [
        {
          "internalType": "address",
          "name": "spender",
          "type": "address"
        },
        {
          "internalType": "uint256",
          "name": "amount",
          "type": "uint256"
        }
      ],
      "name": "approve",
      "outputs": [
        {
          "internalType": "bool",
          "name": "",
          "type": "bool"
        }
      ],
      "stateMutability": "nonpayable",
      "type": "function"
    },
    {
      "inputs": [
        {
          "internalType": "address",
          "name": "account",
          "type": "address"
        }
      ],
      "name": "balanceOf",
      "outputs": [
        {
          "internalType": "uint256",
          "name": "",
          "type": "uint256"
        }
      ],
      "stateMutability": "view",
      "type": "function"
    },
    {
      "inputs": [],
      "name": "decimals",
      "outputs": [
        {
          "internalType": "uint8",
          "name": "",
          "type": "uint8"
        }
      ],
      "stateMutability": "view",
      "type": "function"
    },
    {
      "inputs": [
        {
          "internalType": "address",
          "name": "spender",
          "type": "address"
        },
        {
          "internalType": "uint256",
          "name": "subtractedValue",
          "type": "uint256"
        }
      ],
      "name": "decreaseAllowance",
      "outputs": [
        {
          "internalType": "bool",
          "name": "",
          "type": "bool"
        }
      ],
      "stateMutability": "nonpayable",
      "type": "function"
    },
    {
      "inputs": [
        {
          "internalType": "address",
          "name": "spender",
          "type": "address"
        },
        {
          "internalType": "uint256",
          "name": "addedValue",
          "type": "uint256"
        }
      ],
      "name": "increaseAllowance",
      "outputs": [
        {
          "internalType": "bool",
          "name": "",
          "type": "bool"
        }
      ],
      "stateMutability": "nonpayable",
      "type": "function"
    },
    {
      "inputs": [],
      "name": "maxSupply",
      "outputs": [
        {
          "internalType": "uint256",
          "name": "",
          "type": "uint256"
        }
      ],
      "stateMutability": "view",
      "type": "function"
    },
    {
      "inputs": [],
      "name": "name",
      "outputs": [
        {
          "internalType": "string",
          "name": "",
          "type": "string"
        }
      ],
      "stateMutability": "view",
      "type": "function"
    },
    {
      "inputs": [],
      "name": "owner",
      "outputs": [
        {
          "internalType": "address",
          "name": "",
          "type": "address"
        }
      ],
      "stateMutability": "view",
      "type": "function"
    },
    {
      "inputs": [],
      "name": "renounceOwnership",
      "outputs": [],
      "stateMutability": "nonpayable",
      "type": "function"
    },
    {
      "inputs": [],
      "name": "symbol",
      "outputs": [
        {
          "internalType": "string",
          "name": "",
          "type": "string"
        }
      ],
      "stateMutability": "view",
      "type": "function"
    },
    {
      "inputs": [],
      "name": "totalSupply",
      "outputs": [
        {
          "internalType": "uint256",
          "name": "",
          "type": "uint256"
        }
      ],
      "stateMutability": "view",
      "type": "function"
    },
    {
      "inputs": [
        {
          "internalType": "address",
          "name": "recipient",
          "type": "address"
        },
        {
          "internalType": "uint256",
          "name": "amount",
          "type": "uint256"
        }
      ],
      "name": "transfer",
      "outputs": [
        {
          "internalType": "bool",
          "name": "",
          "type": "bool"
        }
      ],
      "stateMutability": "nonpayable",
      "type": "function"
    },
    {
      "inputs": [
        {
          "internalType": "address",
          "name": "sender",
          "type": "address"
        },
        {
          "internalType": "address",
          "name": "recipient",
          "type": "address"
        },
        {
          "internalType": "uint256",
          "name": "amount",
          "type": "uint256"
        }
      ],
      "name": "transferFrom",
      "outputs": [
        {
          "internalType": "bool",
          "name": "",
          "type": "bool"
        }
      ],
      "stateMutability": "nonpayable",
      "type": "function"
    },
    {
      "inputs": [
        {
          "internalType": "address",
          "name": "newOwner",
          "type": "address"
        }
      ],
      "name": "transferOwnership",
      "outputs": [],
      "stateMutability": "nonpayable",
      "type": "function"
    },
    {
      "inputs": [
        {
          "internalType": "address",
          "name": "_adress",
          "type": "address"
        }
      ],
      "name": "setAdressDelegateContract",
      "outputs": [],
      "stateMutability": "nonpayable",
      "type": "function"
    },
    {
      "inputs": [
        {
          "internalType": "address",
          "name": "to",
          "type": "address"
        },
        {
          "internalType": "uint256",
          "name": "value",
          "type": "uint256"
        }
      ],
      "name": "mint",
      "outputs": [],
      "stateMutability": "nonpayable",
      "type": "function"
    },
    {
      "inputs": [
        {
          "internalType": "address",
          "name": "to",
          "type": "address"
        },
        {
          "internalType": "uint256",
          "name": "number",
          "type": "uint256"
        }
      ],
      "name": "burn",
      "outputs": [],
      "stateMutability": "nonpayable",
      "type": "function"
    },
    {
      "inputs": [],
      "name": "getBalanceContract",
      "outputs": [
        {
          "internalType": "uint256",
          "name": "",
          "type": "uint256"
        }
      ],
      "stateMutability": "view",
      "type": "function"
    },
    {
      "inputs": [],
      "name": "withdraw",
      "outputs": [],
      "stateMutability": "nonpayable",
      "type": "function"
    },
    {
      "inputs": [],
      "name": "deposit",
      "outputs": [],
      "stateMutability": "payable",
      "type": "function"
    },
    {
      "inputs": [
        {
          "internalType": "uint256",
          "name": "time",
          "type": "uint256"
        }
      ],
      "name": "setPausedMintEndDate",
      "outputs": [],
      "stateMutability": "nonpayable",
      "type": "function"
    },
    {
      "inputs": [
        {
          "internalType": "uint256",
          "name": "time",
          "type": "uint256"
        }
      ],
      "name": "setPausedTransferEndDate",
      "outputs": [],
      "stateMutability": "nonpayable",
      "type": "function"
    }
  ],
  "bytecode": "0x60806040523480156200001157600080fd5b5060405162002d5138038062002d518339818101604052810190620000379190620002da565b8181816003908051906020019062000051929190620001a1565b5080600490805190602001906200006a929190620001a1565b5050506200008d62000081620000ca60201b60201c565b620000d260201b60201c565b6200009d6200019860201b60201c565b60ff16600a620000ae919062000424565b83620000bb919062000561565b600781905550505050620006ec565b600033905090565b6000600560009054906101000a900473ffffffffffffffffffffffffffffffffffffffff16905081600560006101000a81548173ffffffffffffffffffffffffffffffffffffffff021916908373ffffffffffffffffffffffffffffffffffffffff1602179055508173ffffffffffffffffffffffffffffffffffffffff168173ffffffffffffffffffffffffffffffffffffffff167f8be0079c531659141344cd1fd0a4f28419497f9722a3daafe3b4186f6b6457e060405160405180910390a35050565b60006012905090565b828054620001af9062000602565b90600052602060002090601f016020900481019282620001d357600085556200021f565b82601f10620001ee57805160ff19168380011785556200021f565b828001600101855582156200021f579182015b828111156200021e57825182559160200191906001019062000201565b5b5090506200022e919062000232565b5090565b5b808211156200024d57600081600090555060010162000233565b5090565b600062000268620002628462000396565b62000362565b9050828152602081018484840111156200028157600080fd5b6200028e848285620005cc565b509392505050565b600082601f830112620002a857600080fd5b8151620002ba84826020860162000251565b91505092915050565b600081519050620002d481620006d2565b92915050565b600080600060608486031215620002f057600080fd5b60006200030086828701620002c3565b935050602084015167ffffffffffffffff8111156200031e57600080fd5b6200032c8682870162000296565b925050604084015167ffffffffffffffff8111156200034a57600080fd5b620003588682870162000296565b9150509250925092565b6000604051905081810181811067ffffffffffffffff821117156200038c576200038b62000696565b5b8060405250919050565b600067ffffffffffffffff821115620003b457620003b362000696565b5b601f19601f8301169050602081019050919050565b6000808291508390505b60018511156200041b57808604811115620003f357620003f262000638565b5b6001851615620004035780820291505b80810290506200041385620006c5565b9450620003d3565b94509492505050565b60006200043182620005c2565b91506200043e83620005c2565b92506200046d7fffffffffffffffffffffffffffffffffffffffffffffffffffffffffffffffff848462000475565b905092915050565b6000826200048757600190506200055a565b816200049757600090506200055a565b8160018114620004b05760028114620004bb57620004f1565b60019150506200055a565b60ff841115620004d057620004cf62000638565b5b8360020a915084821115620004ea57620004e962000638565b5b506200055a565b5060208310610133831016604e8410600b84101617156200052b5782820a90508381111562000525576200052462000638565b5b6200055a565b6200053a8484846001620003c9565b9250905081840481111562000554576200055362000638565b5b81810290505b9392505050565b60006200056e82620005c2565b91506200057b83620005c2565b9250817fffffffffffffffffffffffffffffffffffffffffffffffffffffffffffffffff0483118215151615620005b757620005b662000638565b5b828202905092915050565b6000819050919050565b60005b83811015620005ec578082015181840152602081019050620005cf565b83811115620005fc576000848401525b50505050565b600060028204905060018216806200061b57607f821691505b6020821081141562000632576200063162000667565b5b50919050565b7f4e487b7100000000000000000000000000000000000000000000000000000000600052601160045260246000fd5b7f4e487b7100000000000000000000000000000000000000000000000000000000600052602260045260246000fd5b7f4e487b7100000000000000000000000000000000000000000000000000000000600052604160045260246000fd5b60008160011c9050919050565b620006dd81620005c2565b8114620006e957600080fd5b50565b61265580620006fc6000396000f3fe60806040526004361061014b5760003560e01c806370a08231116100b6578063a457c2d71161006f578063a457c2d71461046c578063a9059cbb146104a9578063d0e30db0146104e6578063d5abeb01146104f0578063dd62ed3e1461051b578063f2fde38b146105585761014b565b806370a0823114610370578063715018a6146103ad5780638c9f2114146103c45780638da5cb5b146103ed57806395d89b41146104185780639dc29fac146104435761014b565b8063395093511161010857806339509351146102765780633ccfd60b146102b357806340c10f19146102ca57806348972034146102f357806366bd78fd1461031c5780636e7888c1146103475761014b565b806306fdde0314610150578063095ea7b31461017b57806318160ddd146101b857806323b872dd146101e35780632501cfc714610220578063313ce5671461024b575b600080fd5b34801561015c57600080fd5b50610165610581565b60405161017291906121ca565b60405180910390f35b34801561018757600080fd5b506101a2600480360381019061019d9190611b3e565b610613565b6040516101af91906121af565b60405180910390f35b3480156101c457600080fd5b506101cd610631565b6040516101da91906123ec565b60405180910390f35b3480156101ef57600080fd5b5061020a60048036038101906102059190611aef565b61063b565b60405161021791906121af565b60405180910390f35b34801561022c57600080fd5b50610235610733565b6040516102429190612194565b60405180910390f35b34801561025757600080fd5b50610260610759565b60405161026d9190612407565b60405180910390f35b34801561028257600080fd5b5061029d60048036038101906102989190611b3e565b610762565b6040516102aa91906121af565b60405180910390f35b3480156102bf57600080fd5b506102c861080e565b005b3480156102d657600080fd5b506102f160048036038101906102ec9190611b3e565b6108d3565b005b3480156102ff57600080fd5b5061031a60048036038101906103159190611a8a565b610a15565b005b34801561032857600080fd5b50610331610ad5565b60405161033e91906123ec565b60405180910390f35b34801561035357600080fd5b5061036e60048036038101906103699190611b7a565b610add565b005b34801561037c57600080fd5b5061039760048036038101906103929190611a8a565b610b63565b6040516103a491906123ec565b60405180910390f35b3480156103b957600080fd5b506103c2610bab565b005b3480156103d057600080fd5b506103eb60048036038101906103e69190611b7a565b610c33565b005b3480156103f957600080fd5b50610402610cb9565b60405161040f9190612194565b60405180910390f35b34801561042457600080fd5b5061042d610ce3565b60405161043a91906121ca565b60405180910390f35b34801561044f57600080fd5b5061046a60048036038101906104659190611b3e565b610d75565b005b34801561047857600080fd5b50610493600480360381019061048e9190611b3e565b610e6c565b6040516104a091906121af565b60405180910390f35b3480156104b557600080fd5b506104d060048036038101906104cb9190611b3e565b610f57565b6040516104dd91906121af565b60405180910390f35b6104ee610f75565b005b3480156104fc57600080fd5b50610505610f77565b60405161051291906123ec565b60405180910390f35b34801561052757600080fd5b50610542600480360381019061053d9190611ab3565b610f7d565b60405161054f91906123ec565b60405180910390f35b34801561056457600080fd5b5061057f600480360381019061057a9190611a8a565b611004565b005b60606003805461059090612550565b80601f01602080910402602001604051908101604052809291908181526020018280546105bc90612550565b80156106095780601f106105de57610100808354040283529160200191610609565b820191906000526020600020905b8154815290600101906020018083116105ec57829003601f168201915b5050505050905090565b60006106276106206110fc565b8484611104565b6001905092915050565b6000600254905090565b60006106488484846112cf565b6000600160008673ffffffffffffffffffffffffffffffffffffffff1673ffffffffffffffffffffffffffffffffffffffff16815260200190815260200160002060006106936110fc565b73ffffffffffffffffffffffffffffffffffffffff1673ffffffffffffffffffffffffffffffffffffffff16815260200190815260200160002054905082811015610713576040517f08c379a000000000000000000000000000000000000000000000000000000000815260040161070a906122cc565b60405180910390fd5b6107278561071f6110fc565b858403611104565b60019150509392505050565b600660009054906101000a900473ffffffffffffffffffffffffffffffffffffffff1681565b60006012905090565b600061080461076f6110fc565b84846001600061077d6110fc565b73ffffffffffffffffffffffffffffffffffffffff1673ffffffffffffffffffffffffffffffffffffffff16815260200190815260200160002060008873ffffffffffffffffffffffffffffffffffffffff1673ffffffffffffffffffffffffffffffffffffffff168152602001908152602001600020546107ff919061243e565b611104565b6001905092915050565b6108166110fc565b73ffffffffffffffffffffffffffffffffffffffff16610834610cb9565b73ffffffffffffffffffffffffffffffffffffffff161461088a576040517f08c379a0000000000000000000000000000000000000000000000000000000008152600401610881906122ec565b60405180910390fd5b3373ffffffffffffffffffffffffffffffffffffffff166108fc479081150290604051600060405180830381858888f193505050501580156108d0573d6000803e3d6000fd5b50565b600660009054906101000a900473ffffffffffffffffffffffffffffffffffffffff1673ffffffffffffffffffffffffffffffffffffffff163373ffffffffffffffffffffffffffffffffffffffff16148061097d5750600073ffffffffffffffffffffffffffffffffffffffff16600660009054906101000a900473ffffffffffffffffffffffffffffffffffffffff1673ffffffffffffffffffffffffffffffffffffffff16145b6109bc576040517f08c379a00000000000000000000000000000000000000000000000000000000081526004016109b39061228c565b60405180910390fd5b6007546109c7610631565b10610a07576040517f08c379a00000000000000000000000000000000000000000000000000000000081526004016109fe9061236c565b60405180910390fd5b610a118282611550565b5050565b610a1d6110fc565b73ffffffffffffffffffffffffffffffffffffffff16610a3b610cb9565b73ffffffffffffffffffffffffffffffffffffffff1614610a91576040517f08c379a0000000000000000000000000000000000000000000000000000000008152600401610a88906122ec565b60405180910390fd5b80600660006101000a81548173ffffffffffffffffffffffffffffffffffffffff021916908373ffffffffffffffffffffffffffffffffffffffff16021790555050565b600047905090565b610ae56110fc565b73ffffffffffffffffffffffffffffffffffffffff16610b03610cb9565b73ffffffffffffffffffffffffffffffffffffffff1614610b59576040517f08c379a0000000000000000000000000000000000000000000000000000000008152600401610b50906122ec565b60405180910390fd5b8060088190555050565b60008060008373ffffffffffffffffffffffffffffffffffffffff1673ffffffffffffffffffffffffffffffffffffffff168152602001908152602001600020549050919050565b610bb36110fc565b73ffffffffffffffffffffffffffffffffffffffff16610bd1610cb9565b73ffffffffffffffffffffffffffffffffffffffff1614610c27576040517f08c379a0000000000000000000000000000000000000000000000000000000008152600401610c1e906122ec565b60405180910390fd5b610c3160006116b0565b565b610c3b6110fc565b73ffffffffffffffffffffffffffffffffffffffff16610c59610cb9565b73ffffffffffffffffffffffffffffffffffffffff1614610caf576040517f08c379a0000000000000000000000000000000000000000000000000000000008152600401610ca6906122ec565b60405180910390fd5b8060098190555050565b6000600560009054906101000a900473ffffffffffffffffffffffffffffffffffffffff16905090565b606060048054610cf290612550565b80601f0160208091040260200160405190810160405280929190818152602001828054610d1e90612550565b8015610d6b5780601f10610d4057610100808354040283529160200191610d6b565b820191906000526020600020905b815481529060010190602001808311610d4e57829003601f168201915b5050505050905090565b600660009054906101000a900473ffffffffffffffffffffffffffffffffffffffff1673ffffffffffffffffffffffffffffffffffffffff163373ffffffffffffffffffffffffffffffffffffffff161480610e1f5750600073ffffffffffffffffffffffffffffffffffffffff16600660009054906101000a900473ffffffffffffffffffffffffffffffffffffffff1673ffffffffffffffffffffffffffffffffffffffff16145b610e5e576040517f08c379a0000000000000000000000000000000000000000000000000000000008152600401610e559061228c565b60405180910390fd5b610e688282611776565b5050565b60008060016000610e7b6110fc565b73ffffffffffffffffffffffffffffffffffffffff1673ffffffffffffffffffffffffffffffffffffffff16815260200190815260200160002060008573ffffffffffffffffffffffffffffffffffffffff1673ffffffffffffffffffffffffffffffffffffffff16815260200190815260200160002054905082811015610f38576040517f08c379a0000000000000000000000000000000000000000000000000000000008152600401610f2f906123ac565b60405180910390fd5b610f4c610f436110fc565b85858403611104565b600191505092915050565b6000610f6b610f646110fc565b84846112cf565b6001905092915050565b565b60075481565b6000600160008473ffffffffffffffffffffffffffffffffffffffff1673ffffffffffffffffffffffffffffffffffffffff16815260200190815260200160002060008373ffffffffffffffffffffffffffffffffffffffff1673ffffffffffffffffffffffffffffffffffffffff16815260200190815260200160002054905092915050565b61100c6110fc565b73ffffffffffffffffffffffffffffffffffffffff1661102a610cb9565b73ffffffffffffffffffffffffffffffffffffffff1614611080576040517f08c379a0000000000000000000000000000000000000000000000000000000008152600401611077906122ec565b60405180910390fd5b600073ffffffffffffffffffffffffffffffffffffffff168173ffffffffffffffffffffffffffffffffffffffff1614156110f0576040517f08c379a00000000000000000000000000000000000000000000000000000000081526004016110e79061224c565b60405180910390fd5b6110f9816116b0565b50565b600033905090565b600073ffffffffffffffffffffffffffffffffffffffff168373ffffffffffffffffffffffffffffffffffffffff161415611174576040517f08c379a000000000000000000000000000000000000000000000000000000000815260040161116b9061234c565b60405180910390fd5b600073ffffffffffffffffffffffffffffffffffffffff168273ffffffffffffffffffffffffffffffffffffffff1614156111e4576040517f08c379a00000000000000000000000000000000000000000000000000000000081526004016111db9061226c565b60405180910390fd5b80600160008573ffffffffffffffffffffffffffffffffffffffff1673ffffffffffffffffffffffffffffffffffffffff16815260200190815260200160002060008473ffffffffffffffffffffffffffffffffffffffff1673ffffffffffffffffffffffffffffffffffffffff168152602001908152602001600020819055508173ffffffffffffffffffffffffffffffffffffffff168373ffffffffffffffffffffffffffffffffffffffff167f8c5be1e5ebec7d5bd14f71427d1e84f3dd0314c0f7b2291e5b200ac8c7c3b925836040516112c291906123ec565b60405180910390a3505050565b600073ffffffffffffffffffffffffffffffffffffffff168373ffffffffffffffffffffffffffffffffffffffff16141561133f576040517f08c379a00000000000000000000000000000000000000000000000000000000081526004016113369061232c565b60405180910390fd5b600073ffffffffffffffffffffffffffffffffffffffff168273ffffffffffffffffffffffffffffffffffffffff1614156113af576040517f08c379a00000000000000000000000000000000000000000000000000000000081526004016113a6906121ec565b60405180910390fd5b6113ba83838361194d565b60008060008573ffffffffffffffffffffffffffffffffffffffff1673ffffffffffffffffffffffffffffffffffffffff16815260200190815260200160002054905081811015611440576040517f08c379a0000000000000000000000000000000000000000000000000000000008152600401611437906122ac565b60405180910390fd5b8181036000808673ffffffffffffffffffffffffffffffffffffffff1673ffffffffffffffffffffffffffffffffffffffff16815260200190815260200160002081905550816000808573ffffffffffffffffffffffffffffffffffffffff1673ffffffffffffffffffffffffffffffffffffffff16815260200190815260200160002060008282546114d3919061243e565b925050819055508273ffffffffffffffffffffffffffffffffffffffff168473ffffffffffffffffffffffffffffffffffffffff167fddf252ad1be2c89b69c2b068fc378daa952ba7f163c4a11628f55a4df523b3ef8460405161153791906123ec565b60405180910390a361154a848484611a56565b50505050565b600073ffffffffffffffffffffffffffffffffffffffff168273ffffffffffffffffffffffffffffffffffffffff1614156115c0576040517f08c379a00000000000000000000000000000000000000000000000000000000081526004016115b7906123cc565b60405180910390fd5b6115cc6000838361194d565b80600260008282546115de919061243e565b92505081905550806000808473ffffffffffffffffffffffffffffffffffffffff1673ffffffffffffffffffffffffffffffffffffffff1681526020019081526020016000206000828254611633919061243e565b925050819055508173ffffffffffffffffffffffffffffffffffffffff16600073ffffffffffffffffffffffffffffffffffffffff167fddf252ad1be2c89b69c2b068fc378daa952ba7f163c4a11628f55a4df523b3ef8360405161169891906123ec565b60405180910390a36116ac60008383611a56565b5050565b6000600560009054906101000a900473ffffffffffffffffffffffffffffffffffffffff16905081600560006101000a81548173ffffffffffffffffffffffffffffffffffffffff021916908373ffffffffffffffffffffffffffffffffffffffff1602179055508173ffffffffffffffffffffffffffffffffffffffff168173ffffffffffffffffffffffffffffffffffffffff167f8be0079c531659141344cd1fd0a4f28419497f9722a3daafe3b4186f6b6457e060405160405180910390a35050565b600073ffffffffffffffffffffffffffffffffffffffff168273ffffffffffffffffffffffffffffffffffffffff1614156117e6576040517f08c379a00000000000000000000000000000000000000000000000000000000081526004016117dd9061230c565b60405180910390fd5b6117f28260008361194d565b60008060008473ffffffffffffffffffffffffffffffffffffffff1673ffffffffffffffffffffffffffffffffffffffff16815260200190815260200160002054905081811015611878576040517f08c379a000000000000000000000000000000000000000000000000000000000815260040161186f9061220c565b60405180910390fd5b8181036000808573ffffffffffffffffffffffffffffffffffffffff1673ffffffffffffffffffffffffffffffffffffffff1681526020019081526020016000208190555081600260008282546118cf9190612494565b92505081905550600073ffffffffffffffffffffffffffffffffffffffff168373ffffffffffffffffffffffffffffffffffffffff167fddf252ad1be2c89b69c2b068fc378daa952ba7f163c4a11628f55a4df523b3ef8460405161193491906123ec565b60405180910390a361194883600084611a56565b505050565b6008544210158061198a5750600073ffffffffffffffffffffffffffffffffffffffff168373ffffffffffffffffffffffffffffffffffffffff16145b6119c9576040517f08c379a00000000000000000000000000000000000000000000000000000000081526004016119c09061222c565b60405180910390fd5b60095442101580611a075750600073ffffffffffffffffffffffffffffffffffffffff168373ffffffffffffffffffffffffffffffffffffffff1614155b611a46576040517f08c379a0000000000000000000000000000000000000000000000000000000008152600401611a3d9061238c565b60405180910390fd5b611a51838383611a5b565b505050565b505050565b505050565b600081359050611a6f816125f1565b92915050565b600081359050611a8481612608565b92915050565b600060208284031215611a9c57600080fd5b6000611aaa84828501611a60565b91505092915050565b60008060408385031215611ac657600080fd5b6000611ad485828601611a60565b9250506020611ae585828601611a60565b9150509250929050565b600080600060608486031215611b0457600080fd5b6000611b1286828701611a60565b9350506020611b2386828701611a60565b9250506040611b3486828701611a75565b9150509250925092565b60008060408385031215611b5157600080fd5b6000611b5f85828601611a60565b9250506020611b7085828601611a75565b9150509250929050565b600060208284031215611b8c57600080fd5b6000611b9a84828501611a75565b91505092915050565b611bac816124c8565b82525050565b611bbb816124da565b82525050565b6000611bcc82612422565b611bd6818561242d565b9350611be681856020860161251d565b611bef816125e0565b840191505092915050565b6000611c0760238361242d565b91507f45524332303a207472616e7366657220746f20746865207a65726f206164647260008301527f65737300000000000000000000000000000000000000000000000000000000006020830152604082019050919050565b6000611c6d60228361242d565b91507f45524332303a206275726e20616d6f756e7420657863656564732062616c616e60008301527f63650000000000000000000000000000000000000000000000000000000000006020830152604082019050919050565b6000611cd360128361242d565b91507f5472616e736665722069732070617573656400000000000000000000000000006000830152602082019050919050565b6000611d1360268361242d565b91507f4f776e61626c653a206e6577206f776e657220697320746865207a65726f206160008301527f64647265737300000000000000000000000000000000000000000000000000006020830152604082019050919050565b6000611d7960228361242d565b91507f45524332303a20617070726f766520746f20746865207a65726f20616464726560008301527f73730000000000000000000000000000000000000000000000000000000000006020830152604082019050919050565b6000611ddf601a8361242d565b91507f4e6f7420676f6f642064656c656761746520636f6e74726163740000000000006000830152602082019050919050565b6000611e1f60268361242d565b91507f45524332303a207472616e7366657220616d6f756e742065786365656473206260008301527f616c616e636500000000000000000000000000000000000000000000000000006020830152604082019050919050565b6000611e8560288361242d565b91507f45524332303a207472616e7366657220616d6f756e742065786365656473206160008301527f6c6c6f77616e63650000000000000000000000000000000000000000000000006020830152604082019050919050565b6000611eeb60208361242d565b91507f4f776e61626c653a2063616c6c6572206973206e6f7420746865206f776e65726000830152602082019050919050565b6000611f2b60218361242d565b91507f45524332303a206275726e2066726f6d20746865207a65726f2061646472657360008301527f73000000000000000000000000000000000000000000000000000000000000006020830152604082019050919050565b6000611f9160258361242d565b91507f45524332303a207472616e736665722066726f6d20746865207a65726f20616460008301527f64726573730000000000000000000000000000000000000000000000000000006020830152604082019050919050565b6000611ff760248361242d565b91507f45524332303a20617070726f76652066726f6d20746865207a65726f2061646460008301527f72657373000000000000000000000000000000000000000000000000000000006020830152604082019050919050565b600061205d60128361242d565b91507f4d617820737570706c79207265616368656400000000000000000000000000006000830152602082019050919050565b600061209d600e8361242d565b91507f4d696e74206973207061757365640000000000000000000000000000000000006000830152602082019050919050565b60006120dd60258361242d565b91507f45524332303a2064656372656173656420616c6c6f77616e63652062656c6f7760008301527f207a65726f0000000000000000000000000000000000000000000000000000006020830152604082019050919050565b6000612143601f8361242d565b91507f45524332303a206d696e7420746f20746865207a65726f2061646472657373006000830152602082019050919050565b61217f81612506565b82525050565b61218e81612510565b82525050565b60006020820190506121a96000830184611ba3565b92915050565b60006020820190506121c46000830184611bb2565b92915050565b600060208201905081810360008301526121e48184611bc1565b905092915050565b6000602082019050818103600083015261220581611bfa565b9050919050565b6000602082019050818103600083015261222581611c60565b9050919050565b6000602082019050818103600083015261224581611cc6565b9050919050565b6000602082019050818103600083015261226581611d06565b9050919050565b6000602082019050818103600083015261228581611d6c565b9050919050565b600060208201905081810360008301526122a581611dd2565b9050919050565b600060208201905081810360008301526122c581611e12565b9050919050565b600060208201905081810360008301526122e581611e78565b9050919050565b6000602082019050818103600083015261230581611ede565b9050919050565b6000602082019050818103600083015261232581611f1e565b9050919050565b6000602082019050818103600083015261234581611f84565b9050919050565b6000602082019050818103600083015261236581611fea565b9050919050565b6000602082019050818103600083015261238581612050565b9050919050565b600060208201905081810360008301526123a581612090565b9050919050565b600060208201905081810360008301526123c5816120d0565b9050919050565b600060208201905081810360008301526123e581612136565b9050919050565b60006020820190506124016000830184612176565b92915050565b600060208201905061241c6000830184612185565b92915050565b600081519050919050565b600082825260208201905092915050565b600061244982612506565b915061245483612506565b9250827fffffffffffffffffffffffffffffffffffffffffffffffffffffffffffffffff0382111561248957612488612582565b5b828201905092915050565b600061249f82612506565b91506124aa83612506565b9250828210156124bd576124bc612582565b5b828203905092915050565b60006124d3826124e6565b9050919050565b60008115159050919050565b600073ffffffffffffffffffffffffffffffffffffffff82169050919050565b6000819050919050565b600060ff82169050919050565b60005b8381101561253b578082015181840152602081019050612520565b8381111561254a576000848401525b50505050565b6000600282049050600182168061256857607f821691505b6020821081141561257c5761257b6125b1565b5b50919050565b7f4e487b7100000000000000000000000000000000000000000000000000000000600052601160045260246000fd5b7f4e487b7100000000000000000000000000000000000000000000000000000000600052602260045260246000fd5b6000601f19601f8301169050919050565b6125fa816124c8565b811461260557600080fd5b50565b61261181612506565b811461261c57600080fd5b5056fea2646970667358221220b30092140024478429c150a7340d7dc7c7fb6ba051189ef15492a00360df0abc64736f6c63430008000033",
  "immutableReferences": {},
  "source": "// SPDX-License-Identifier: MIT\n// Items Contract\npragma solidity ^0.8.0;\n\nimport \"@openzeppelin/contracts/access/Ownable.sol\";\nimport \"@openzeppelin/contracts/token/ERC20/ERC20.sol\";\n\ncontract MYOS is ERC20, Ownable {\n    address public adressDelegateContract;\n    uint256 public maxSupply;\n    uint256 private pausedTransferEndDate;\n    uint256 private pausedMintEndDate;\n\n    constructor(\n        uint256 _maxSupply,\n        string memory name,\n        string memory symbol\n    ) ERC20(name, symbol) {\n        maxSupply = _maxSupply * (10**uint256(decimals()));\n    }\n\n    ///@notice Very important function that we add on almost all the other functions to check that the call of the functions is done well from the delegation contract for more security\n    modifier byDelegate() {\n        require(\n            (msg.sender == adressDelegateContract ||\n                adressDelegateContract == address(0)),\n            \"Not good delegate contract\"\n        );\n        _;\n    }\n\n    ///@notice Modify the address of the delegation contract to allow the said contract to interact with this one\n    function setAdressDelegateContract(address _adress) external onlyOwner {\n        adressDelegateContract = _adress;\n    }\n\n    ///@notice Function to offer myos tokens to a wallet address\n    function mint(address to, uint256 value) external byDelegate {\n        require(totalSupply() < maxSupply, \"Max supply reached\");\n        _mint(to, value);\n    }\n\n    ///@notice Function to destroy myos tokens to a wallet address\n    function burn(address to, uint256 number) external byDelegate {\n        _burn(to, number);\n    }\n\n    ///@notice Return native token (MATIC) from this contract\n    function getBalanceContract() external view returns (uint256) {\n        return address(this).balance;\n    }\n\n    /*FUNDS OF CONTRACT*/\n\n    ///@notice Withdraw funds of this contract to an address wallet\n    function withdraw() external onlyOwner {\n        payable(msg.sender).transfer(address(this).balance);\n    }\n\n    ///@notice Deposit funds to this contract\n    function deposit() external payable {}\n\n    ///@notice Pause mint of token between address before time pausedMintEndDate\n    function setPausedMintEndDate(uint256 time) external onlyOwner {\n        pausedMintEndDate = time;\n    }\n\n    ///@notice Pause transfer of token between address before time pausedTransferEndDate\n    function setPausedTransferEndDate(uint256 time) external onlyOwner {\n        pausedTransferEndDate = time;\n    }\n\n    ///@notice override of function before token transfer to pauser transfer\n    function _beforeTokenTransfer(\n        address from,\n        address to,\n        uint256 amount\n    ) internal virtual override(ERC20) {\n        require(\n            block.timestamp >= pausedTransferEndDate || from == address(0),\n            \"Transfer is paused\"\n        );\n        require(\n            block.timestamp >= pausedMintEndDate || from != address(0),\n            \"Mint is paused\"\n        );\n        super._beforeTokenTransfer(from, to, amount);\n    }\n}\n",
  "sourcePath": "/home/kevin/Bureau/homework/MYOS/contracts/MYOS.sol",
  "compiler": {
    "name": "solc",
    "version": "0.8.0+commit.c7dfd78e.Emscripten.clang"
  },
  "schemaVersion": "3.4.7",
  "updatedAt": "2022-09-22T08:17:05.490Z",
  "devdoc": {
    "kind": "dev",
    "methods": {
      "allowance(address,address)": {
        "details": "See {IERC20-allowance}."
      },
      "approve(address,uint256)": {
        "details": "See {IERC20-approve}. Requirements: - `spender` cannot be the zero address."
      },
      "balanceOf(address)": {
        "details": "See {IERC20-balanceOf}."
      },
      "decimals()": {
        "details": "Returns the number of decimals used to get its user representation. For example, if `decimals` equals `2`, a balance of `505` tokens should be displayed to a user as `5.05` (`505 / 10 ** 2`). Tokens usually opt for a value of 18, imitating the relationship between Ether and Wei. This is the value {ERC20} uses, unless this function is overridden; NOTE: This information is only used for _display_ purposes: it in no way affects any of the arithmetic of the contract, including {IERC20-balanceOf} and {IERC20-transfer}."
      },
      "decreaseAllowance(address,uint256)": {
        "details": "Atomically decreases the allowance granted to `spender` by the caller. This is an alternative to {approve} that can be used as a mitigation for problems described in {IERC20-approve}. Emits an {Approval} event indicating the updated allowance. Requirements: - `spender` cannot be the zero address. - `spender` must have allowance for the caller of at least `subtractedValue`."
      },
      "increaseAllowance(address,uint256)": {
        "details": "Atomically increases the allowance granted to `spender` by the caller. This is an alternative to {approve} that can be used as a mitigation for problems described in {IERC20-approve}. Emits an {Approval} event indicating the updated allowance. Requirements: - `spender` cannot be the zero address."
      },
      "name()": {
        "details": "Returns the name of the token."
      },
      "owner()": {
        "details": "Returns the address of the current owner."
      },
      "renounceOwnership()": {
        "details": "Leaves the contract without owner. It will not be possible to call `onlyOwner` functions anymore. Can only be called by the current owner. NOTE: Renouncing ownership will leave the contract without an owner, thereby removing any functionality that is only available to the owner."
      },
      "symbol()": {
        "details": "Returns the symbol of the token, usually a shorter version of the name."
      },
      "totalSupply()": {
        "details": "See {IERC20-totalSupply}."
      },
      "transfer(address,uint256)": {
        "details": "See {IERC20-transfer}. Requirements: - `recipient` cannot be the zero address. - the caller must have a balance of at least `amount`."
      },
      "transferFrom(address,address,uint256)": {
        "details": "See {IERC20-transferFrom}. Emits an {Approval} event indicating the updated allowance. This is not required by the EIP. See the note at the beginning of {ERC20}. Requirements: - `sender` and `recipient` cannot be the zero address. - `sender` must have a balance of at least `amount`. - the caller must have allowance for ``sender``'s tokens of at least `amount`."
      },
      "transferOwnership(address)": {
        "details": "Transfers ownership of the contract to a new account (`newOwner`). Can only be called by the current owner."
      }
    },
    "version": 1
  },
  "userdoc": {
    "kind": "user",
    "methods": {
      "burn(address,uint256)": {
        "notice": "Function to destroy myos tokens to a wallet address"
      },
      "deposit()": {
        "notice": "Deposit funds to this contract"
      },
      "getBalanceContract()": {
        "notice": "Return native token (MATIC) from this contract"
      },
      "mint(address,uint256)": {
        "notice": "Function to offer myos tokens to a wallet address"
      },
      "setAdressDelegateContract(address)": {
        "notice": "Modify the address of the delegation contract to allow the said contract to interact with this one"
      },
      "setPausedMintEndDate(uint256)": {
        "notice": "Pause mint of token between address before time pausedMintEndDate"
      },
      "setPausedTransferEndDate(uint256)": {
        "notice": "Pause transfer of token between address before time pausedTransferEndDate"
      },
      "withdraw()": {
        "notice": "Withdraw funds of this contract to an address wallet"
      }
    },
    "version": 1
  }
}