{
  "contractName": "MYOS",
  "abi": [
    {
      "inputs": [
        {
          "internalType": "uint256",
          "name": "_maxSupply",
          "type": "uint256"
        },
        {
          "internalType": "string",
          "name": "name",
          "type": "string"
        },
        {
          "internalType": "string",
          "name": "symbol",
          "type": "string"
        }
      ],
      "stateMutability": "nonpayable",
      "type": "constructor"
    },
    {
      "anonymous": false,
      "inputs": [
        {
          "indexed": true,
          "internalType": "address",
          "name": "owner",
          "type": "address"
        },
        {
          "indexed": true,
          "internalType": "address",
          "name": "spender",
          "type": "address"
        },
        {
          "indexed": false,
          "internalType": "uint256",
          "name": "value",
          "type": "uint256"
        }
      ],
      "name": "Approval",
      "type": "event"
    },
    {
      "anonymous": false,
      "inputs": [
        {
          "indexed": true,
          "internalType": "address",
          "name": "previousOwner",
          "type": "address"
        },
        {
          "indexed": true,
          "internalType": "address",
          "name": "newOwner",
          "type": "address"
        }
      ],
      "name": "OwnershipTransferred",
      "type": "event"
    },
    {
      "anonymous": false,
      "inputs": [
        {
          "indexed": true,
          "internalType": "address",
          "name": "from",
          "type": "address"
        },
        {
          "indexed": true,
          "internalType": "address",
          "name": "to",
          "type": "address"
        },
        {
          "indexed": false,
          "internalType": "uint256",
          "name": "value",
          "type": "uint256"
        }
      ],
      "name": "Transfer",
      "type": "event"
    },
    {
      "inputs": [],
      "name": "addressDelegateContract",
      "outputs": [
        {
          "internalType": "address",
          "name": "",
          "type": "address"
        }
      ],
      "stateMutability": "view",
      "type": "function"
    },
    {
      "inputs": [
        {
          "internalType": "address",
          "name": "owner",
          "type": "address"
        },
        {
          "internalType": "address",
          "name": "spender",
          "type": "address"
        }
      ],
      "name": "allowance",
      "outputs": [
        {
          "internalType": "uint256",
          "name": "",
          "type": "uint256"
        }
      ],
      "stateMutability": "view",
      "type": "function"
    },
    {
      "inputs": [
        {
          "internalType": "address",
          "name": "spender",
          "type": "address"
        },
        {
          "internalType": "uint256",
          "name": "amount",
          "type": "uint256"
        }
      ],
      "name": "approve",
      "outputs": [
        {
          "internalType": "bool",
          "name": "",
          "type": "bool"
        }
      ],
      "stateMutability": "nonpayable",
      "type": "function"
    },
    {
      "inputs": [
        {
          "internalType": "address",
          "name": "account",
          "type": "address"
        }
      ],
      "name": "balanceOf",
      "outputs": [
        {
          "internalType": "uint256",
          "name": "",
          "type": "uint256"
        }
      ],
      "stateMutability": "view",
      "type": "function"
    },
    {
      "inputs": [],
      "name": "decimals",
      "outputs": [
        {
          "internalType": "uint8",
          "name": "",
          "type": "uint8"
        }
      ],
      "stateMutability": "view",
      "type": "function"
    },
    {
      "inputs": [
        {
          "internalType": "address",
          "name": "spender",
          "type": "address"
        },
        {
          "internalType": "uint256",
          "name": "subtractedValue",
          "type": "uint256"
        }
      ],
      "name": "decreaseAllowance",
      "outputs": [
        {
          "internalType": "bool",
          "name": "",
          "type": "bool"
        }
      ],
      "stateMutability": "nonpayable",
      "type": "function"
    },
    {
      "inputs": [
        {
          "internalType": "address",
          "name": "spender",
          "type": "address"
        },
        {
          "internalType": "uint256",
          "name": "addedValue",
          "type": "uint256"
        }
      ],
      "name": "increaseAllowance",
      "outputs": [
        {
          "internalType": "bool",
          "name": "",
          "type": "bool"
        }
      ],
      "stateMutability": "nonpayable",
      "type": "function"
    },
    {
      "inputs": [],
      "name": "maxSupply",
      "outputs": [
        {
          "internalType": "uint256",
          "name": "",
          "type": "uint256"
        }
      ],
      "stateMutability": "view",
      "type": "function"
    },
    {
      "inputs": [],
      "name": "name",
      "outputs": [
        {
          "internalType": "string",
          "name": "",
          "type": "string"
        }
      ],
      "stateMutability": "view",
      "type": "function"
    },
    {
      "inputs": [],
      "name": "owner",
      "outputs": [
        {
          "internalType": "address",
          "name": "",
          "type": "address"
        }
      ],
      "stateMutability": "view",
      "type": "function"
    },
    {
      "inputs": [],
      "name": "renounceOwnership",
      "outputs": [],
      "stateMutability": "nonpayable",
      "type": "function"
    },
    {
      "inputs": [],
      "name": "symbol",
      "outputs": [
        {
          "internalType": "string",
          "name": "",
          "type": "string"
        }
      ],
      "stateMutability": "view",
      "type": "function"
    },
    {
      "inputs": [],
      "name": "totalSupply",
      "outputs": [
        {
          "internalType": "uint256",
          "name": "",
          "type": "uint256"
        }
      ],
      "stateMutability": "view",
      "type": "function"
    },
    {
      "inputs": [
        {
          "internalType": "address",
          "name": "to",
          "type": "address"
        },
        {
          "internalType": "uint256",
          "name": "amount",
          "type": "uint256"
        }
      ],
      "name": "transfer",
      "outputs": [
        {
          "internalType": "bool",
          "name": "",
          "type": "bool"
        }
      ],
      "stateMutability": "nonpayable",
      "type": "function"
    },
    {
      "inputs": [
        {
          "internalType": "address",
          "name": "from",
          "type": "address"
        },
        {
          "internalType": "address",
          "name": "to",
          "type": "address"
        },
        {
          "internalType": "uint256",
          "name": "amount",
          "type": "uint256"
        }
      ],
      "name": "transferFrom",
      "outputs": [
        {
          "internalType": "bool",
          "name": "",
          "type": "bool"
        }
      ],
      "stateMutability": "nonpayable",
      "type": "function"
    },
    {
      "inputs": [
        {
          "internalType": "address",
          "name": "newOwner",
          "type": "address"
        }
      ],
      "name": "transferOwnership",
      "outputs": [],
      "stateMutability": "nonpayable",
      "type": "function"
    },
    {
      "inputs": [
        {
          "internalType": "address",
          "name": "_address",
          "type": "address"
        }
      ],
      "name": "setAddressDelegateContract",
      "outputs": [],
      "stateMutability": "nonpayable",
      "type": "function"
    },
    {
      "inputs": [
        {
          "internalType": "address",
          "name": "to",
          "type": "address"
        },
        {
          "internalType": "uint256",
          "name": "value",
          "type": "uint256"
        }
      ],
      "name": "mint",
      "outputs": [],
      "stateMutability": "nonpayable",
      "type": "function"
    },
    {
      "inputs": [
        {
          "internalType": "address",
          "name": "to",
          "type": "address"
        },
        {
          "internalType": "uint256",
          "name": "number",
          "type": "uint256"
        }
      ],
      "name": "burn",
      "outputs": [],
      "stateMutability": "nonpayable",
      "type": "function"
    },
    {
      "inputs": [],
      "name": "getBalanceContract",
      "outputs": [
        {
          "internalType": "uint256",
          "name": "",
          "type": "uint256"
        }
      ],
      "stateMutability": "view",
      "type": "function"
    },
    {
      "inputs": [],
      "name": "withdraw",
      "outputs": [],
      "stateMutability": "nonpayable",
      "type": "function"
    },
    {
      "inputs": [],
      "name": "deposit",
      "outputs": [],
      "stateMutability": "payable",
      "type": "function"
    },
    {
      "inputs": [
        {
          "internalType": "uint256",
          "name": "time",
          "type": "uint256"
        }
      ],
      "name": "setPausedMintEndDate",
      "outputs": [],
      "stateMutability": "nonpayable",
      "type": "function"
    },
    {
      "inputs": [
        {
          "internalType": "uint256",
          "name": "time",
          "type": "uint256"
        }
      ],
      "name": "setPausedTransferEndDate",
      "outputs": [],
      "stateMutability": "nonpayable",
      "type": "function"
    }
  ],
  "bytecode": "0x60806040523480156200001157600080fd5b50604051620015c2380380620015c2833981016040819052620000349162000270565b8151829082906200004d906003906020850190620000fd565b50805162000063906004906020840190620000fd565b505050620000806200007a620000a760201b60201c565b620000ab565b6200008e6012600a620003f9565b6200009a90846200040e565b600755506200046d915050565b3390565b600580546001600160a01b038381166001600160a01b0319831681179093556040519116919082907f8be0079c531659141344cd1fd0a4f28419497f9722a3daafe3b4186f6b6457e090600090a35050565b8280546200010b9062000430565b90600052602060002090601f0160209004810192826200012f57600085556200017a565b82601f106200014a57805160ff19168380011785556200017a565b828001600101855582156200017a579182015b828111156200017a5782518255916020019190600101906200015d565b50620001889291506200018c565b5090565b5b808211156200018857600081556001016200018d565b634e487b7160e01b600052604160045260246000fd5b600082601f830112620001cb57600080fd5b81516001600160401b0380821115620001e857620001e8620001a3565b604051601f8301601f19908116603f01168101908282118183101715620002135762000213620001a3565b816040528381526020925086838588010111156200023057600080fd5b600091505b8382101562000254578582018301518183018401529082019062000235565b83821115620002665760008385830101525b9695505050505050565b6000806000606084860312156200028657600080fd5b835160208501519093506001600160401b0380821115620002a657600080fd5b620002b487838801620001b9565b93506040860151915080821115620002cb57600080fd5b50620002da86828701620001b9565b9150509250925092565b634e487b7160e01b600052601160045260246000fd5b600181815b808511156200033b5781600019048211156200031f576200031f620002e4565b808516156200032d57918102915b93841c9390800290620002ff565b509250929050565b6000826200035457506001620003f3565b816200036357506000620003f3565b81600181146200037c57600281146200038757620003a7565b6001915050620003f3565b60ff8411156200039b576200039b620002e4565b50506001821b620003f3565b5060208310610133831016604e8410600b8410161715620003cc575081810a620003f3565b620003d88383620002fa565b8060001904821115620003ef57620003ef620002e4565b0290505b92915050565b600062000407838362000343565b9392505050565b60008160001904831182151516156200042b576200042b620002e4565b500290565b600181811c908216806200044557607f821691505b602082108114156200046757634e487b7160e01b600052602260045260246000fd5b50919050565b611145806200047d6000396000f3fe60806040526004361061014b5760003560e01c8063714e3305116100b6578063a457c2d71161006f578063a457c2d7146103a6578063a9059cbb146103c6578063d0e30db014610273578063d5abeb01146103e6578063dd62ed3e146103fc578063f2fde38b1461041c57600080fd5b8063714e3305146102fe578063715018a61461031e5780638c9f2114146103335780638da5cb5b1461035357806395d89b41146103715780639dc29fac1461038657600080fd5b80633950935111610108578063395093511461023e5780633ccfd60b1461025e57806340c10f191461027557806366bd78fd146102955780636e7888c1146102a857806370a08231146102c857600080fd5b806306fdde0314610150578063095ea7b31461017b5780630ea73d77146101ab57806318160ddd146101e357806323b872dd14610202578063313ce56714610222575b600080fd5b34801561015c57600080fd5b5061016561043c565b6040516101729190610f4a565b60405180910390f35b34801561018757600080fd5b5061019b610196366004610fbb565b6104ce565b6040519015158152602001610172565b3480156101b757600080fd5b506006546101cb906001600160a01b031681565b6040516001600160a01b039091168152602001610172565b3480156101ef57600080fd5b506002545b604051908152602001610172565b34801561020e57600080fd5b5061019b61021d366004610fe5565b6104e6565b34801561022e57600080fd5b5060405160128152602001610172565b34801561024a57600080fd5b5061019b610259366004610fbb565b61050a565b34801561026a57600080fd5b5061027361052c565b005b34801561028157600080fd5b50610273610290366004610fbb565b610563565b3480156102a157600080fd5b50476101f4565b3480156102b457600080fd5b506102736102c3366004611021565b61062c565b3480156102d457600080fd5b506101f46102e336600461103a565b6001600160a01b031660009081526020819052604090205490565b34801561030a57600080fd5b5061027361031936600461103a565b610639565b34801561032a57600080fd5b50610273610663565b34801561033f57600080fd5b5061027361034e366004611021565b610677565b34801561035f57600080fd5b506005546001600160a01b03166101cb565b34801561037d57600080fd5b50610165610684565b34801561039257600080fd5b506102736103a1366004610fbb565b610693565b3480156103b257600080fd5b5061019b6103c1366004610fbb565b61070b565b3480156103d257600080fd5b5061019b6103e1366004610fbb565b610786565b3480156103f257600080fd5b506101f460075481565b34801561040857600080fd5b506101f461041736600461105c565b610794565b34801561042857600080fd5b5061027361043736600461103a565b6107bf565b60606003805461044b9061108f565b80601f01602080910402602001604051908101604052809291908181526020018280546104779061108f565b80156104c45780601f10610499576101008083540402835291602001916104c4565b820191906000526020600020905b8154815290600101906020018083116104a757829003601f168201915b5050505050905090565b6000336104dc818585610835565b5060019392505050565b6000336104f485828561095a565b6104ff8585856109d4565b506001949350505050565b6000336104dc81858561051d8383610794565b61052791906110e0565b610835565b610534610bad565b60405133904780156108fc02916000818181858888f19350505050158015610560573d6000803e3d6000fd5b50565b6006546001600160a01b031633148061058557506006546001600160a01b0316155b6105d65760405162461bcd60e51b815260206004820152601a60248201527f4e6f7420676f6f642064656c656761746520636f6e747261637400000000000060448201526064015b60405180910390fd5b6007546002541061061e5760405162461bcd60e51b815260206004820152601260248201527113585e081cdd5c1c1b1e481c995858da195960721b60448201526064016105cd565b6106288282610c07565b5050565b610634610bad565b600855565b610641610bad565b600680546001600160a01b0319166001600160a01b0392909216919091179055565b61066b610bad565b6106756000610cf2565b565b61067f610bad565b600955565b60606004805461044b9061108f565b6006546001600160a01b03163314806106b557506006546001600160a01b0316155b6107015760405162461bcd60e51b815260206004820152601a60248201527f4e6f7420676f6f642064656c656761746520636f6e747261637400000000000060448201526064016105cd565b6106288282610d44565b600033816107198286610794565b9050838110156107795760405162461bcd60e51b815260206004820152602560248201527f45524332303a2064656372656173656420616c6c6f77616e63652062656c6f77604482015264207a65726f60d81b60648201526084016105cd565b6104ff8286868403610835565b6000336104dc8185856109d4565b6001600160a01b03918216600090815260016020908152604080832093909416825291909152205490565b6107c7610bad565b6001600160a01b03811661082c5760405162461bcd60e51b815260206004820152602660248201527f4f776e61626c653a206e6577206f776e657220697320746865207a65726f206160448201526564647265737360d01b60648201526084016105cd565b61056081610cf2565b6001600160a01b0383166108975760405162461bcd60e51b8152602060048201526024808201527f45524332303a20617070726f76652066726f6d20746865207a65726f206164646044820152637265737360e01b60648201526084016105cd565b6001600160a01b0382166108f85760405162461bcd60e51b815260206004820152602260248201527f45524332303a20617070726f766520746f20746865207a65726f206164647265604482015261737360f01b60648201526084016105cd565b6001600160a01b0383811660008181526001602090815260408083209487168084529482529182902085905590518481527f8c5be1e5ebec7d5bd14f71427d1e84f3dd0314c0f7b2291e5b200ac8c7c3b92591015b60405180910390a3505050565b60006109668484610794565b905060001981146109ce57818110156109c15760405162461bcd60e51b815260206004820152601d60248201527f45524332303a20696e73756666696369656e7420616c6c6f77616e636500000060448201526064016105cd565b6109ce8484848403610835565b50505050565b6001600160a01b038316610a385760405162461bcd60e51b815260206004820152602560248201527f45524332303a207472616e736665722066726f6d20746865207a65726f206164604482015264647265737360d81b60648201526084016105cd565b6001600160a01b038216610a9a5760405162461bcd60e51b815260206004820152602360248201527f45524332303a207472616e7366657220746f20746865207a65726f206164647260448201526265737360e81b60648201526084016105cd565b610aa5838383610e96565b6001600160a01b03831660009081526020819052604090205481811015610b1d5760405162461bcd60e51b815260206004820152602660248201527f45524332303a207472616e7366657220616d6f756e7420657863656564732062604482015265616c616e636560d01b60648201526084016105cd565b6001600160a01b03808516600090815260208190526040808220858503905591851681529081208054849290610b549084906110e0565b92505081905550826001600160a01b0316846001600160a01b03167fddf252ad1be2c89b69c2b068fc378daa952ba7f163c4a11628f55a4df523b3ef84604051610ba091815260200190565b60405180910390a36109ce565b6005546001600160a01b031633146106755760405162461bcd60e51b815260206004820181905260248201527f4f776e61626c653a2063616c6c6572206973206e6f7420746865206f776e657260448201526064016105cd565b6001600160a01b038216610c5d5760405162461bcd60e51b815260206004820152601f60248201527f45524332303a206d696e7420746f20746865207a65726f20616464726573730060448201526064016105cd565b610c6960008383610e96565b8060026000828254610c7b91906110e0565b90915550506001600160a01b03821660009081526020819052604081208054839290610ca89084906110e0565b90915550506040518181526001600160a01b038316906000907fddf252ad1be2c89b69c2b068fc378daa952ba7f163c4a11628f55a4df523b3ef9060200160405180910390a35050565b600580546001600160a01b038381166001600160a01b0319831681179093556040519116919082907f8be0079c531659141344cd1fd0a4f28419497f9722a3daafe3b4186f6b6457e090600090a35050565b6001600160a01b038216610da45760405162461bcd60e51b815260206004820152602160248201527f45524332303a206275726e2066726f6d20746865207a65726f206164647265736044820152607360f81b60648201526084016105cd565b610db082600083610e96565b6001600160a01b03821660009081526020819052604090205481811015610e245760405162461bcd60e51b815260206004820152602260248201527f45524332303a206275726e20616d6f756e7420657863656564732062616c616e604482015261636560f01b60648201526084016105cd565b6001600160a01b0383166000908152602081905260408120838303905560028054849290610e539084906110f8565b90915550506040518281526000906001600160a01b038516907fddf252ad1be2c89b69c2b068fc378daa952ba7f163c4a11628f55a4df523b3ef9060200161094d565b60085442101580610eae57506001600160a01b038316155b610eef5760405162461bcd60e51b8152602060048201526012602482015271151c985b9cd9995c881a5cc81c185d5cd95960721b60448201526064016105cd565b60095442101580610f0857506001600160a01b03831615155b610f455760405162461bcd60e51b815260206004820152600e60248201526d135a5b9d081a5cc81c185d5cd95960921b60448201526064016105cd565b505050565b600060208083528351808285015260005b81811015610f7757858101830151858201604001528201610f5b565b81811115610f89576000604083870101525b50601f01601f1916929092016040019392505050565b80356001600160a01b0381168114610fb657600080fd5b919050565b60008060408385031215610fce57600080fd5b610fd783610f9f565b946020939093013593505050565b600080600060608486031215610ffa57600080fd5b61100384610f9f565b925061101160208501610f9f565b9150604084013590509250925092565b60006020828403121561103357600080fd5b5035919050565b60006020828403121561104c57600080fd5b61105582610f9f565b9392505050565b6000806040838503121561106f57600080fd5b61107883610f9f565b915061108660208401610f9f565b90509250929050565b600181811c908216806110a357607f821691505b602082108114156110c457634e487b7160e01b600052602260045260246000fd5b50919050565b634e487b7160e01b600052601160045260246000fd5b600082198211156110f3576110f36110ca565b500190565b60008282101561110a5761110a6110ca565b50039056fea264697066735822122093894694581b50bdd4c7a486d4ac844f45d9267da7df93ca8e3e6a442cbfe6b964736f6c634300080b0033",
  "immutableReferences": {},
  "source": "// SPDX-License-Identifier: MIT\n// Items Contract\npragma solidity ^0.8.0;\n\nimport \"@openzeppelin/contracts/access/Ownable.sol\";\nimport \"@openzeppelin/contracts/token/ERC20/ERC20.sol\";\n\ncontract MYOS is ERC20, Ownable {\n  address public addressDelegateContract;\n  uint256 public maxSupply;\n  uint256 private pausedTransferEndDate;\n  uint256 private pausedMintEndDate;\n\n  constructor(\n    uint256 _maxSupply,\n    string memory name,\n    string memory symbol\n  ) ERC20(name, symbol) {\n    maxSupply = _maxSupply * (10**uint256(decimals()));\n  }\n\n  ///@notice Very important function that we add on almost all the other functions to check that the call of the functions is done well from the delegation contract for more security\n  modifier byDelegate() {\n    require(\n      (msg.sender == addressDelegateContract || addressDelegateContract == address(0)),\n      \"Not good delegate contract\"\n    );\n    _;\n  }\n\n  ///@notice Modify the address of the delegation contract to allow the said contract to interact with this one\n  function setAddressDelegateContract(address _address) external onlyOwner {\n    addressDelegateContract = _address;\n  }\n\n  ///@notice Function to offer myos tokens to a wallet address\n  function mint(address to, uint256 value) external byDelegate {\n    require(totalSupply() < maxSupply, \"Max supply reached\");\n    _mint(to, value);\n  }\n\n  ///@notice Function to destroy myos tokens to a wallet address\n  function burn(address to, uint256 number) external byDelegate {\n    _burn(to, number);\n  }\n\n  ///@notice Return native token (MATIC) from this contract\n  function getBalanceContract() external view returns (uint256) {\n    return address(this).balance;\n  }\n\n  /*FUNDS OF CONTRACT*/\n\n  ///@notice Withdraw funds of this contract to an address wallet\n  function withdraw() external onlyOwner {\n    payable(msg.sender).transfer(address(this).balance);\n  }\n\n  ///@notice Deposit funds to this contract\n  function deposit() external payable {}\n\n  ///@notice Pause mint of token between address before time pausedMintEndDate\n  function setPausedMintEndDate(uint256 time) external onlyOwner {\n    pausedMintEndDate = time;\n  }\n\n  ///@notice Pause transfer of token between address before time pausedTransferEndDate\n  function setPausedTransferEndDate(uint256 time) external onlyOwner {\n    pausedTransferEndDate = time;\n  }\n\n  ///@notice override of function before token transfer to pauser transfer\n  function _beforeTokenTransfer(\n    address from,\n    address to,\n    uint256 amount\n  ) internal virtual override(ERC20) {\n    require(\n      block.timestamp >= pausedTransferEndDate || from == address(0),\n      \"Transfer is paused\"\n    );\n    require(block.timestamp >= pausedMintEndDate || from != address(0), \"Mint is paused\");\n    super._beforeTokenTransfer(from, to, amount);\n  }\n}\n",
  "sourcePath": "/home/kevin/Bureau/homework/MYOS/contracts/MYOS.sol",
  "compiler": {
    "name": "solc",
    "version": "0.8.11+commit.d7f03943.Emscripten.clang"
  },
  "schemaVersion": "3.4.7",
  "updatedAt": "2022-10-31T22:36:34.883Z",
  "devdoc": {
    "kind": "dev",
    "methods": {
      "allowance(address,address)": {
        "details": "See {IERC20-allowance}."
      },
      "approve(address,uint256)": {
        "details": "See {IERC20-approve}. NOTE: If `amount` is the maximum `uint256`, the allowance is not updated on `transferFrom`. This is semantically equivalent to an infinite approval. Requirements: - `spender` cannot be the zero address."
      },
      "balanceOf(address)": {
        "details": "See {IERC20-balanceOf}."
      },
      "decimals()": {
        "details": "Returns the number of decimals used to get its user representation. For example, if `decimals` equals `2`, a balance of `505` tokens should be displayed to a user as `5.05` (`505 / 10 ** 2`). Tokens usually opt for a value of 18, imitating the relationship between Ether and Wei. This is the value {ERC20} uses, unless this function is overridden; NOTE: This information is only used for _display_ purposes: it in no way affects any of the arithmetic of the contract, including {IERC20-balanceOf} and {IERC20-transfer}."
      },
      "decreaseAllowance(address,uint256)": {
        "details": "Atomically decreases the allowance granted to `spender` by the caller. This is an alternative to {approve} that can be used as a mitigation for problems described in {IERC20-approve}. Emits an {Approval} event indicating the updated allowance. Requirements: - `spender` cannot be the zero address. - `spender` must have allowance for the caller of at least `subtractedValue`."
      },
      "increaseAllowance(address,uint256)": {
        "details": "Atomically increases the allowance granted to `spender` by the caller. This is an alternative to {approve} that can be used as a mitigation for problems described in {IERC20-approve}. Emits an {Approval} event indicating the updated allowance. Requirements: - `spender` cannot be the zero address."
      },
      "name()": {
        "details": "Returns the name of the token."
      },
      "owner()": {
        "details": "Returns the address of the current owner."
      },
      "renounceOwnership()": {
        "details": "Leaves the contract without owner. It will not be possible to call `onlyOwner` functions anymore. Can only be called by the current owner. NOTE: Renouncing ownership will leave the contract without an owner, thereby removing any functionality that is only available to the owner."
      },
      "symbol()": {
        "details": "Returns the symbol of the token, usually a shorter version of the name."
      },
      "totalSupply()": {
        "details": "See {IERC20-totalSupply}."
      },
      "transfer(address,uint256)": {
        "details": "See {IERC20-transfer}. Requirements: - `to` cannot be the zero address. - the caller must have a balance of at least `amount`."
      },
      "transferFrom(address,address,uint256)": {
        "details": "See {IERC20-transferFrom}. Emits an {Approval} event indicating the updated allowance. This is not required by the EIP. See the note at the beginning of {ERC20}. NOTE: Does not update the allowance if the current allowance is the maximum `uint256`. Requirements: - `from` and `to` cannot be the zero address. - `from` must have a balance of at least `amount`. - the caller must have allowance for ``from``'s tokens of at least `amount`."
      },
      "transferOwnership(address)": {
        "details": "Transfers ownership of the contract to a new account (`newOwner`). Can only be called by the current owner."
      }
    },
    "version": 1
  },
  "userdoc": {
    "kind": "user",
    "methods": {
      "burn(address,uint256)": {
        "notice": "Function to destroy myos tokens to a wallet address"
      },
      "deposit()": {
        "notice": "Deposit funds to this contract"
      },
      "getBalanceContract()": {
        "notice": "Return native token (MATIC) from this contract"
      },
      "mint(address,uint256)": {
        "notice": "Function to offer myos tokens to a wallet address"
      },
      "setAddressDelegateContract(address)": {
        "notice": "Modify the address of the delegation contract to allow the said contract to interact with this one"
      },
      "setPausedMintEndDate(uint256)": {
        "notice": "Pause mint of token between address before time pausedMintEndDate"
      },
      "setPausedTransferEndDate(uint256)": {
        "notice": "Pause transfer of token between address before time pausedTransferEndDate"
      },
      "withdraw()": {
        "notice": "Withdraw funds of this contract to an address wallet"
      }
    },
    "version": 1
  }
}