{
  "contractName": "ProxyItems",
  "abi": [
    {
      "inputs": [
        {
          "internalType": "address",
          "name": "_addressItem",
          "type": "address"
        }
      ],
      "stateMutability": "nonpayable",
      "type": "constructor"
    },
    {
      "inputs": [
        {
          "internalType": "uint256",
          "name": "balance",
          "type": "uint256"
        },
        {
          "internalType": "address",
          "name": "sender",
          "type": "address"
        },
        {
          "internalType": "uint256",
          "name": "quantity",
          "type": "uint256"
        },
        {
          "internalType": "uint256",
          "name": "tokenId",
          "type": "uint256"
        }
      ],
      "name": "NoMoreBalanceToken",
      "type": "error"
    },
    {
      "inputs": [
        {
          "internalType": "uint256",
          "name": "supply",
          "type": "uint256"
        },
        {
          "internalType": "uint256",
          "name": "quantity",
          "type": "uint256"
        },
        {
          "internalType": "uint256",
          "name": "tokenId",
          "type": "uint256"
        }
      ],
      "name": "NoMoreSupplyToken",
      "type": "error"
    },
    {
      "inputs": [
        {
          "internalType": "uint256",
          "name": "price",
          "type": "uint256"
        },
        {
          "internalType": "uint256",
          "name": "weiSended",
          "type": "uint256"
        },
        {
          "internalType": "uint256",
          "name": "tokenId",
          "type": "uint256"
        },
        {
          "internalType": "uint256",
          "name": "quantity",
          "type": "uint256"
        }
      ],
      "name": "NotEnoughEth",
      "type": "error"
    },
    {
      "inputs": [
        {
          "internalType": "address",
          "name": "to",
          "type": "address"
        },
        {
          "internalType": "uint256",
          "name": "value",
          "type": "uint256"
        }
      ],
      "name": "SellItemSendEth",
      "type": "error"
    },
    {
      "inputs": [
        {
          "internalType": "uint256",
          "name": "balance",
          "type": "uint256"
        },
        {
          "internalType": "address",
          "name": "sender",
          "type": "address"
        },
        {
          "internalType": "uint256",
          "name": "quantity",
          "type": "uint256"
        },
        {
          "internalType": "uint256",
          "name": "tokenId",
          "type": "uint256"
        }
      ],
      "name": "ZeroQuantityConvertAvailable",
      "type": "error"
    },
    {
      "anonymous": false,
      "inputs": [
        {
          "indexed": true,
          "internalType": "address",
          "name": "previousOwner",
          "type": "address"
        },
        {
          "indexed": true,
          "internalType": "address",
          "name": "newOwner",
          "type": "address"
        }
      ],
      "name": "OwnershipTransferred",
      "type": "event"
    },
    {
      "anonymous": false,
      "inputs": [
        {
          "indexed": true,
          "internalType": "address",
          "name": "sender",
          "type": "address"
        },
        {
          "indexed": false,
          "internalType": "uint256",
          "name": "quantity",
          "type": "uint256"
        },
        {
          "indexed": true,
          "internalType": "uint256",
          "name": "tokenId",
          "type": "uint256"
        },
        {
          "indexed": true,
          "internalType": "address",
          "name": "receiver",
          "type": "address"
        }
      ],
      "name": "buyedItem",
      "type": "event"
    },
    {
      "anonymous": false,
      "inputs": [
        {
          "indexed": true,
          "internalType": "address",
          "name": "sender",
          "type": "address"
        },
        {
          "indexed": false,
          "internalType": "uint256",
          "name": "quantity",
          "type": "uint256"
        },
        {
          "indexed": true,
          "internalType": "uint256",
          "name": "fromTokenId",
          "type": "uint256"
        },
        {
          "indexed": true,
          "internalType": "uint256",
          "name": "toTokenId",
          "type": "uint256"
        },
        {
          "indexed": false,
          "internalType": "address",
          "name": "receiver",
          "type": "address"
        }
      ],
      "name": "convertedToAnotherToken",
      "type": "event"
    },
    {
      "anonymous": false,
      "inputs": [
        {
          "indexed": true,
          "internalType": "address",
          "name": "sender",
          "type": "address"
        },
        {
          "indexed": false,
          "internalType": "uint256",
          "name": "id",
          "type": "uint256"
        },
        {
          "indexed": true,
          "internalType": "uint256",
          "name": "tokenId",
          "type": "uint256"
        },
        {
          "indexed": true,
          "internalType": "address",
          "name": "receiver",
          "type": "address"
        }
      ],
      "name": "purchasedInSell",
      "type": "event"
    },
    {
      "anonymous": false,
      "inputs": [
        {
          "indexed": true,
          "internalType": "address",
          "name": "sender",
          "type": "address"
        },
        {
          "indexed": true,
          "internalType": "uint256",
          "name": "tokenId",
          "type": "uint256"
        },
        {
          "indexed": false,
          "internalType": "uint256",
          "name": "price",
          "type": "uint256"
        }
      ],
      "name": "puttedInSell",
      "type": "event"
    },
    {
      "anonymous": false,
      "inputs": [
        {
          "indexed": true,
          "internalType": "address",
          "name": "sender",
          "type": "address"
        },
        {
          "indexed": false,
          "internalType": "uint256",
          "name": "quantity",
          "type": "uint256"
        },
        {
          "indexed": true,
          "internalType": "uint256",
          "name": "tokenId",
          "type": "uint256"
        }
      ],
      "name": "selledItem",
      "type": "event"
    },
    {
      "inputs": [],
      "name": "owner",
      "outputs": [
        {
          "internalType": "address",
          "name": "",
          "type": "address"
        }
      ],
      "stateMutability": "view",
      "type": "function"
    },
    {
      "inputs": [],
      "name": "renounceOwnership",
      "outputs": [],
      "stateMutability": "nonpayable",
      "type": "function"
    },
    {
      "inputs": [
        {
          "internalType": "address",
          "name": "newOwner",
          "type": "address"
        }
      ],
      "name": "transferOwnership",
      "outputs": [],
      "stateMutability": "nonpayable",
      "type": "function"
    },
    {
      "inputs": [
        {
          "internalType": "uint256",
          "name": "quantity",
          "type": "uint256"
        },
        {
          "internalType": "address",
          "name": "receiver",
          "type": "address"
        },
        {
          "internalType": "uint256",
          "name": "tokenId",
          "type": "uint256"
        }
      ],
      "name": "buyItem",
      "outputs": [],
      "stateMutability": "payable",
      "type": "function"
    },
    {
      "inputs": [
        {
          "internalType": "uint256",
          "name": "quantity",
          "type": "uint256"
        },
        {
          "internalType": "uint256",
          "name": "tokenId",
          "type": "uint256"
        }
      ],
      "name": "sellItem",
      "outputs": [],
      "stateMutability": "nonpayable",
      "type": "function"
    },
    {
      "inputs": [
        {
          "internalType": "address",
          "name": "receiver",
          "type": "address"
        },
        {
          "internalType": "uint256",
          "name": "quantity",
          "type": "uint256"
        },
        {
          "internalType": "uint256",
          "name": "fromTokenId",
          "type": "uint256"
        },
        {
          "internalType": "uint256",
          "name": "toTokenId",
          "type": "uint256"
        }
      ],
      "name": "convertToAnotherToken",
      "outputs": [],
      "stateMutability": "nonpayable",
      "type": "function"
    },
    {
      "inputs": [],
      "name": "withdraw",
      "outputs": [],
      "stateMutability": "nonpayable",
      "type": "function"
    },
    {
      "inputs": [
        {
          "internalType": "uint256",
          "name": "firstTokenPrice",
          "type": "uint256"
        },
        {
          "internalType": "uint256",
          "name": "twoTokenPrice",
          "type": "uint256"
        },
        {
          "internalType": "uint256",
          "name": "quantity",
          "type": "uint256"
        }
      ],
      "name": "calculConversionQuantity",
      "outputs": [
        {
          "internalType": "uint256",
          "name": "",
          "type": "uint256"
        }
      ],
      "stateMutability": "pure",
      "type": "function"
    }
  ],
  "bytecode": "0x608060405234801561001057600080fd5b5060405161126b38038061126b83398101604081905261002f916100b1565b61003833610061565b60018055600280546001600160a01b0319166001600160a01b03929092169190911790556100e1565b600080546001600160a01b038381166001600160a01b0319831681178455604051919092169283917f8be0079c531659141344cd1fd0a4f28419497f9722a3daafe3b4186f6b6457e09190a35050565b6000602082840312156100c357600080fd5b81516001600160a01b03811681146100da57600080fd5b9392505050565b61117b806100f06000396000f3fe60806040526004361061007b5760003560e01c80638da5cb5b1161004e5780638da5cb5b146100ec578063a7ca5d8a14610119578063ac56c43d14610147578063f2fde38b1461015a57600080fd5b806308585fe4146100805780632d923561146100a25780633ccfd60b146100c2578063715018a6146100d7575b600080fd5b34801561008c57600080fd5b506100a061009b366004610e62565b61017a565b005b3480156100ae57600080fd5b506100a06100bd366004610e9b565b6106ae565b3480156100ce57600080fd5b506100a0610aa8565b3480156100e357600080fd5b506100a0610adf565b3480156100f857600080fd5b506000546040516001600160a01b0390911681526020015b60405180910390f35b34801561012557600080fd5b50610139610134366004610ebd565b610af3565b604051908152602001610110565b6100a0610155366004610ee9565b610b20565b34801561016657600080fd5b506100a0610175366004610f1e565b610cad565b610182610d23565b600254604051630398026560e51b8152600481018490526001600160a01b039091169060009082906373004ca090602401600060405180830381865afa1580156101d0573d6000803e3d6000fd5b505050506040513d6000823e601f3d908101601f191682016040526101f89190810190610fb9565b604051630398026560e51b8152600481018590529091506000906001600160a01b038416906373004ca090602401600060405180830381865afa158015610243573d6000803e3d6000fd5b505050506040513d6000823e601f3d908101601f1916820160405261026b9190810190610fb9565b60405163f77ee79d60e01b81526004810187905290915086906001600160a01b0385169063f77ee79d90602401602060405180830381865afa1580156102b5573d6000803e3d6000fd5b505050506040513d601f19601f820116820180604052508101906102d991906110bc565b10156103785760405163f77ee79d60e01b8152600481018690526001600160a01b0384169063f77ee79d90602401602060405180830381865afa158015610324573d6000803e3d6000fd5b505050506040513d601f19601f8201168201806040525081019061034891906110bc565b604051633dd4346360e21b8152600481019190915260248101879052604481018690526064015b60405180910390fd5b856001600160a01b03841662fdd58e336040516001600160e01b031960e084901b1681526001600160a01b03909116600482015260248101899052604401602060405180830381865afa1580156103d3573d6000803e3d6000fd5b505050506040513d601f19601f820116820180604052508101906103f791906110bc565b10156104ac576001600160a01b03831662fdd58e336040516001600160e01b031960e084901b1681526001600160a01b03909116600482015260248101889052604401602060405180830381865afa158015610457573d6000803e3d6000fd5b505050506040513d601f19601f8201168201806040525081019061047b91906110bc565b60405163700acb1960e11b81526004810191909152336024820152604481018790526064810186905260840161036f565b60006104c18360400151836040015189610af3565b90506000811161057a576001600160a01b03841662fdd58e336040516001600160e01b031960e084901b1681526001600160a01b03909116600482015260248101899052604401602060405180830381865afa158015610525573d6000803e3d6000fd5b505050506040513d601f19601f8201168201806040525081019061054991906110bc565b604051631eeefc3f60e11b81526004810191909152336024820152604481018890526064810186905260840161036f565b604051637a94c56560e11b81526001600160a01b0385169063f5298aca906105aa9033908a908c906004016110d5565b600060405180830381600087803b1580156105c457600080fd5b505af11580156105d8573d6000803e3d6000fd5b5050604051630ab714fb60e11b81526001600160a01b038716925063156e29f6915061060c908b90899086906004016110d5565b600060405180830381600087803b15801561062657600080fd5b505af115801561063a573d6000803e3d6000fd5b5050505084866106473390565b6001600160a01b03167fd9d09af227784d82e79b16142daa01d77cef3a00dbf858d8d53deebb5faf30f58a8c6040516106939291909182526001600160a01b0316602082015260400190565b60405180910390a4505050506106a860018055565b50505050565b600254604051630398026560e51b8152600481018390526001600160a01b039091169060009082906373004ca090602401600060405180830381865afa1580156106fc573d6000803e3d6000fd5b505050506040513d6000823e601f3d908101601f191682016040526107249190810190610fb9565b60405163f77ee79d60e01b81526004810185905290915084906001600160a01b0384169063f77ee79d90602401602060405180830381865afa15801561076e573d6000803e3d6000fd5b505050506040513d601f19601f8201168201806040525081019061079291906110bc565b101561082c5760405163f77ee79d60e01b8152600481018490526001600160a01b0383169063f77ee79d90602401602060405180830381865afa1580156107dd573d6000803e3d6000fd5b505050506040513d601f19601f8201168201806040525081019061080191906110bc565b604051633dd4346360e21b81526004810191909152602481018590526044810184905260640161036f565b836001600160a01b03831662fdd58e336040516001600160e01b031960e084901b1681526001600160a01b03909116600482015260248101879052604401602060405180830381865afa158015610887573d6000803e3d6000fd5b505050506040513d601f19601f820116820180604052508101906108ab91906110bc565b1015610960576001600160a01b03821662fdd58e336040516001600160e01b031960e084901b1681526001600160a01b03909116600482015260248101869052604401602060405180830381865afa15801561090b573d6000803e3d6000fd5b505050506040513d601f19601f8201168201806040525081019061092f91906110bc565b60405163700acb1960e11b81526004810191909152336024820152604481018590526064810184905260840161036f565b604051637a94c56560e11b81526001600160a01b0383169063f5298aca90610990903390879089906004016110d5565b600060405180830381600087803b1580156109aa57600080fd5b505af11580156109be573d6000803e3d6000fd5b5050505060006109cb3390565b6001600160a01b03168583604001516109e491906110f6565b604051600081818185875af1925050503d8060008114610a20576040519150601f19603f3d011682016040523d82523d6000602084013e610a25565b606091505b509091505080610a6a5733858360400151610a4091906110f6565b60405163723403cf60e01b81526001600160a01b039092166004830152602482015260440161036f565b604051858152849033907f87dc965c9dbece8717dbb278cb13ffe166882fc7b81846349639199f624878ac9060200160405180910390a35050505050565b610ab0610d7d565b60405133904780156108fc02916000818181858888f19350505050158015610adc573d6000803e3d6000fd5b50565b610ae7610d7d565b610af16000610dd7565b565b6000610b1862989680610b0c84610b1287838a86610e27565b90610e3a565b90610e27565b949350505050565b600254604051630398026560e51b8152600481018390526001600160a01b039091169060009082906373004ca090602401600060405180830381865afa158015610b6e573d6000803e3d6000fd5b505050506040513d6000823e601f3d908101601f19168201604052610b969190810190610fb9565b9050848160400151610ba891906110f6565b341015610bf057848160400151610bbf91906110f6565b60405163c1a311cf60e01b81526004810191909152346024820152604481018490526064810186905260840161036f565b604051630ab714fb60e11b81526001600160a01b0383169063156e29f690610c2090879087908a906004016110d5565b600060405180830381600087803b158015610c3a57600080fd5b505af1158015610c4e573d6000803e3d6000fd5b50505050836001600160a01b031683610c643390565b6001600160a01b03167f751af90bbdc80cdb5f9e1af2c2ba763defc8e230fad905d6ca9010692fa3eb2588604051610c9e91815260200190565b60405180910390a45050505050565b610cb5610d7d565b6001600160a01b038116610d1a5760405162461bcd60e51b815260206004820152602660248201527f4f776e61626c653a206e6577206f776e657220697320746865207a65726f206160448201526564647265737360d01b606482015260840161036f565b610adc81610dd7565b60026001541415610d765760405162461bcd60e51b815260206004820152601f60248201527f5265656e7472616e637947756172643a207265656e7472616e742063616c6c00604482015260640161036f565b6002600155565b6000546001600160a01b03163314610af15760405162461bcd60e51b815260206004820181905260248201527f4f776e61626c653a2063616c6c6572206973206e6f7420746865206f776e6572604482015260640161036f565b600080546001600160a01b038381166001600160a01b0319831681178455604051919092169283917f8be0079c531659141344cd1fd0a4f28419497f9722a3daafe3b4186f6b6457e09190a35050565b6000610e3382846110f6565b9392505050565b6000610e338284611123565b80356001600160a01b0381168114610e5d57600080fd5b919050565b60008060008060808587031215610e7857600080fd5b610e8185610e46565b966020860135965060408601359560600135945092505050565b60008060408385031215610eae57600080fd5b50508035926020909101359150565b600080600060608486031215610ed257600080fd5b505081359360208301359350604090920135919050565b600080600060608486031215610efe57600080fd5b83359250610f0e60208501610e46565b9150604084013590509250925092565b600060208284031215610f3057600080fd5b610e3382610e46565b634e487b7160e01b600052604160045260246000fd5b6040516080810167ffffffffffffffff81118282101715610f7257610f72610f39565b60405290565b604051601f8201601f1916810167ffffffffffffffff81118282101715610fa157610fa1610f39565b604052919050565b80518015158114610e5d57600080fd5b60006020808385031215610fcc57600080fd5b825167ffffffffffffffff80821115610fe457600080fd5b9084019060808287031215610ff857600080fd5b611000610f4f565b82518281111561100f57600080fd5b8301601f8101881361102057600080fd5b80518381111561103257611032610f39565b611044601f8201601f19168701610f78565b9350808452888682840101111561105a57600080fd5b60005b8181101561107857828101870151858201880152860161105d565b818111156110895760008783870101525b5050508181528383015184820152604083015160408201526110ad60608401610fa9565b60608201529695505050505050565b6000602082840312156110ce57600080fd5b5051919050565b6001600160a01b039390931683526020830191909152604082015260600190565b600081600019048311821515161561111e57634e487b7160e01b600052601160045260246000fd5b500290565b60008261114057634e487b7160e01b600052601260045260246000fd5b50049056fea26469706673582212206d50bc047256b096b8bdd14b62bb52e8a7165cd7acc82c57586f6d1ff058659964736f6c634300080b0033",
  "immutableReferences": {},
  "source": "// SPDX-License-Identifier: MIT\n// Delegation contract\npragma solidity ^0.8.0;\n\nimport \"@openzeppelin/contracts/access/Ownable.sol\";\nimport \"@openzeppelin/contracts/security/ReentrancyGuard.sol\";\nimport \"@openzeppelin/contracts/utils/math/SafeMath.sol\";\n\nimport \"../immutable/Items.sol\";\n\nimport \"../library/LItems.sol\";\n\ncontract ProxyItems is Ownable, ReentrancyGuard {\n  using SafeMath for uint;\n  error NotEnoughEth(uint256 price, uint256 weiSended, uint256 tokenId, uint256 quantity);\n  error NoMoreSupplyToken(uint256 supply, uint256 quantity, uint256 tokenId);\n  error NoMoreBalanceToken(\n    uint256 balance,\n    address sender,\n    uint256 quantity,\n    uint256 tokenId\n  );\n  error ZeroQuantityConvertAvailable(\n    uint256 balance,\n    address sender,\n    uint256 quantity,\n    uint256 tokenId\n  );\n  error SellItemSendEth(address to, uint value);\n\n  event puttedInSell(address indexed sender, uint256 indexed tokenId, uint256 price);\n  event purchasedInSell(address indexed sender, uint256 id, uint256 indexed tokenId, address indexed receiver);\n  event buyedItem(address indexed sender, uint256 quantity, uint256 indexed tokenId, address indexed receiver);\n  event selledItem(address indexed sender, uint256 quantity, uint256 indexed tokenId);\n  event convertedToAnotherToken(address indexed sender, uint256 quantity, uint256 indexed fromTokenId, uint256 indexed toTokenId, address receiver);\n\n  address private addressItem;\n\n  uint256 private constant utilMathMultiply = 10000000;\n\n  constructor(address _addressItem) {\n    addressItem = _addressItem;\n  }\n\n  ///@notice purchase of a resource for eth/MATIC\n  ///@param quantity count of item you want purchase\n  ///@param receiver receiver address of token\n  ///@param tokenId id of item\n  function buyItem(uint256 quantity, address receiver, uint256 tokenId) external payable {\n    Items itemContrat = Items(addressItem);\n    ItemsLib.Item memory item = itemContrat.getItemDetails(tokenId);\n    if (msg.value < item.price * quantity)\n      revert NotEnoughEth({\n        price: item.price * quantity,\n        weiSended: msg.value,\n        tokenId: tokenId,\n        quantity: quantity\n      });\n    itemContrat.mint(receiver, tokenId, quantity);\n    //setCurrentPrice();\n    emit buyedItem(_msgSender(), quantity, tokenId, receiver);\n  }\n\n  ///@notice sell of a resource for eth/MATIC\n  ///@param quantity count of item you want purchase\n  ///@param tokenId id of item\n  function sellItem(uint256 quantity, uint256 tokenId) external {\n    Items itemContrat = Items(addressItem);\n    ItemsLib.Item memory item = itemContrat.getItemDetails(tokenId);\n    if (itemContrat.getSupply(tokenId) < quantity)\n      revert NoMoreSupplyToken({\n        supply: itemContrat.getSupply(tokenId),\n        quantity: quantity,\n        tokenId: tokenId\n      });\n    if (itemContrat.balanceOf(_msgSender(), tokenId) < quantity)\n      revert NoMoreBalanceToken({\n        balance: itemContrat.balanceOf(_msgSender(), tokenId),\n        sender: _msgSender(),\n        quantity: quantity,\n        tokenId: tokenId\n      });\n\n    itemContrat.burn(_msgSender(), tokenId, quantity);\n    (bool sent, ) = _msgSender().call{ value: item.price * quantity }(\"\");\n    if (sent == false)\n      revert SellItemSendEth({ to: _msgSender(), value: item.price * quantity });\n    //payable(_msgSender()).transfer(item.price * quantity);\n    //setCurrentPrice();\n    emit selledItem(_msgSender(), quantity, tokenId);\n  }\n\n  ///@notice convert of a resource for another token\n  ///@param receiver address of receiver toToken minted\n  ///@param quantity quantity of fromToken burned for same quantity burned\n  ///@param fromTokenId id of token burned\n  ///@param toTokenId if of token minted\n  function convertToAnotherToken(\n    address receiver,\n    uint256 quantity,\n    uint256 fromTokenId,\n    uint256 toTokenId\n  ) external nonReentrant {\n    Items itemContrat = Items(addressItem);\n    ItemsLib.Item memory fromItem = itemContrat.getItemDetails(fromTokenId);\n    ItemsLib.Item memory toItem = itemContrat.getItemDetails(toTokenId);\n\n    if (itemContrat.getSupply(fromTokenId) < quantity)\n      revert NoMoreSupplyToken({\n        supply: itemContrat.getSupply(fromTokenId),\n        quantity: quantity,\n        tokenId: fromTokenId\n      });\n\n    if (itemContrat.balanceOf(_msgSender(), fromTokenId) < quantity)\n      revert NoMoreBalanceToken({\n        balance: itemContrat.balanceOf(_msgSender(), fromTokenId),\n        sender: _msgSender(),\n        quantity: quantity,\n        tokenId: fromTokenId\n      });\n\n    uint256 toQuantityAvailable = calculConversionQuantity(\n      fromItem.price,\n      toItem.price,\n      quantity\n    );\n\n    if (toQuantityAvailable <= 0)\n      revert ZeroQuantityConvertAvailable({\n        balance: itemContrat.balanceOf(_msgSender(), fromTokenId),\n        sender: _msgSender(),\n        quantity: quantity,\n        tokenId: toTokenId\n      });\n\n    itemContrat.burn(_msgSender(), fromTokenId, quantity);\n    itemContrat.mint(receiver, toTokenId, toQuantityAvailable);\n    //currentprice = setCurrentPrice();\n    emit convertedToAnotherToken(_msgSender(), quantity, fromTokenId, toTokenId, receiver);\n  }\n\n  ///@notice Withdraw funds of this contract to an address wallet\n  function withdraw() external onlyOwner {\n    payable(_msgSender()).transfer(address(this).balance);\n  }\n\n  function calculConversionQuantity(\n    uint firstTokenPrice,\n    uint twoTokenPrice,\n    uint quantity\n  ) public pure returns (uint256) {\n    return\n      firstTokenPrice.mul(utilMathMultiply).div(twoTokenPrice).mul(quantity).div(\n        utilMathMultiply\n      );\n  }\n}\n",
  "sourcePath": "/home/solid-solution/Bureau/HOMEWORK/MYOS/contracts/proxy/ProxyItems.sol",
  "compiler": {
    "name": "solc",
    "version": "0.8.11+commit.d7f03943.Emscripten.clang"
  },
  "schemaVersion": "3.4.10",
  "updatedAt": "2022-11-25T23:06:00.492Z",
  "devdoc": {
    "kind": "dev",
    "methods": {
      "buyItem(uint256,address,uint256)": {
        "params": {
          "quantity": "count of item you want purchase",
          "receiver": "receiver address of token",
          "tokenId": "id of item"
        }
      },
      "convertToAnotherToken(address,uint256,uint256,uint256)": {
        "params": {
          "fromTokenId": "id of token burned",
          "quantity": "quantity of fromToken burned for same quantity burned",
          "receiver": "address of receiver toToken minted",
          "toTokenId": "if of token minted"
        }
      },
      "owner()": {
        "details": "Returns the address of the current owner."
      },
      "renounceOwnership()": {
        "details": "Leaves the contract without owner. It will not be possible to call `onlyOwner` functions anymore. Can only be called by the current owner. NOTE: Renouncing ownership will leave the contract without an owner, thereby removing any functionality that is only available to the owner."
      },
      "sellItem(uint256,uint256)": {
        "params": {
          "quantity": "count of item you want purchase",
          "tokenId": "id of item"
        }
      },
      "transferOwnership(address)": {
        "details": "Transfers ownership of the contract to a new account (`newOwner`). Can only be called by the current owner."
      }
    },
    "version": 1
  },
  "userdoc": {
    "kind": "user",
    "methods": {
      "buyItem(uint256,address,uint256)": {
        "notice": "purchase of a resource for eth/MATIC"
      },
      "convertToAnotherToken(address,uint256,uint256,uint256)": {
        "notice": "convert of a resource for another token"
      },
      "sellItem(uint256,uint256)": {
        "notice": "sell of a resource for eth/MATIC"
      },
      "withdraw()": {
        "notice": "Withdraw funds of this contract to an address wallet"
      }
    },
    "version": 1
  }
}