{
  "contractName": "ProxyHero",
  "abi": [
    {
      "inputs": [
        {
          "internalType": "address",
          "name": "_addressHero",
          "type": "address"
        },
        {
          "internalType": "address",
          "name": "_addressQuest",
          "type": "address"
        },
        {
          "internalType": "address",
          "name": "_addressClass",
          "type": "address"
        },
        {
          "internalType": "address",
          "name": "_addressItem",
          "type": "address"
        }
      ],
      "stateMutability": "nonpayable",
      "type": "constructor"
    },
    {
      "inputs": [
        {
          "internalType": "address",
          "name": "sender",
          "type": "address"
        },
        {
          "internalType": "uint256",
          "name": "questId",
          "type": "uint256"
        },
        {
          "internalType": "uint256",
          "name": "currentQuestId",
          "type": "uint256"
        },
        {
          "internalType": "uint256",
          "name": "tokenId",
          "type": "uint256"
        }
      ],
      "name": "AlreadyInQuest",
      "type": "error"
    },
    {
      "inputs": [
        {
          "internalType": "uint256",
          "name": "tokenId",
          "type": "uint256"
        },
        {
          "internalType": "address",
          "name": "sender",
          "type": "address"
        },
        {
          "internalType": "address",
          "name": "owner",
          "type": "address"
        }
      ],
      "name": "AlreadyOwned",
      "type": "error"
    },
    {
      "inputs": [
        {
          "internalType": "uint256",
          "name": "statToLvlUp",
          "type": "uint256"
        },
        {
          "internalType": "uint256",
          "name": "tokenId",
          "type": "uint256"
        }
      ],
      "name": "NotAStat",
      "type": "error"
    },
    {
      "inputs": [
        {
          "internalType": "address",
          "name": "sender",
          "type": "address"
        },
        {
          "internalType": "uint256",
          "name": "questId",
          "type": "uint256"
        },
        {
          "internalType": "uint256",
          "name": "energy",
          "type": "uint256"
        },
        {
          "internalType": "uint256",
          "name": "tokenId",
          "type": "uint256"
        }
      ],
      "name": "NotEnoughEnergy",
      "type": "error"
    },
    {
      "inputs": [
        {
          "internalType": "uint256",
          "name": "price",
          "type": "uint256"
        },
        {
          "internalType": "uint256",
          "name": "weiSended",
          "type": "uint256"
        },
        {
          "internalType": "uint256",
          "name": "tokenId",
          "type": "uint256"
        },
        {
          "internalType": "uint256",
          "name": "quantity",
          "type": "uint256"
        }
      ],
      "name": "NotEnoughEth",
      "type": "error"
    },
    {
      "inputs": [
        {
          "internalType": "uint256",
          "name": "price",
          "type": "uint256"
        },
        {
          "internalType": "uint256",
          "name": "weiSended",
          "type": "uint256"
        }
      ],
      "name": "NotEnoughEthHero",
      "type": "error"
    },
    {
      "inputs": [
        {
          "internalType": "uint256",
          "name": "tokenId",
          "type": "uint256"
        },
        {
          "internalType": "uint256",
          "name": "price",
          "type": "uint256"
        },
        {
          "internalType": "uint256",
          "name": "value",
          "type": "uint256"
        }
      ],
      "name": "NotEnoughEthPurchase",
      "type": "error"
    },
    {
      "inputs": [
        {
          "internalType": "uint256",
          "name": "experienceHero",
          "type": "uint256"
        },
        {
          "internalType": "uint256",
          "name": "experienceNeeded",
          "type": "uint256"
        },
        {
          "internalType": "uint256",
          "name": "tokenId",
          "type": "uint256"
        }
      ],
      "name": "NotEnoughExperience",
      "type": "error"
    },
    {
      "inputs": [
        {
          "internalType": "address",
          "name": "sender",
          "type": "address"
        },
        {
          "internalType": "uint256",
          "name": "tokenId",
          "type": "uint256"
        }
      ],
      "name": "NotInQuest",
      "type": "error"
    },
    {
      "inputs": [
        {
          "internalType": "uint256",
          "name": "tokenLimit",
          "type": "uint256"
        },
        {
          "internalType": "uint256",
          "name": "nextTokenIdToMint",
          "type": "uint256"
        }
      ],
      "name": "NotRemainingHero",
      "type": "error"
    },
    {
      "inputs": [
        {
          "internalType": "address",
          "name": "sender",
          "type": "address"
        },
        {
          "internalType": "address",
          "name": "ownerOfToken",
          "type": "address"
        },
        {
          "internalType": "uint256",
          "name": "tokenId",
          "type": "uint256"
        }
      ],
      "name": "NotYourToken",
      "type": "error"
    },
    {
      "inputs": [
        {
          "internalType": "uint256",
          "name": "blockTimestamp",
          "type": "uint256"
        },
        {
          "internalType": "uint256",
          "name": "heroQuestTime",
          "type": "uint256"
        },
        {
          "internalType": "uint256",
          "name": "currentQuestTime",
          "type": "uint256"
        },
        {
          "internalType": "uint256",
          "name": "tokenId",
          "type": "uint256"
        }
      ],
      "name": "QuestNotFinished",
      "type": "error"
    },
    {
      "inputs": [
        {
          "internalType": "address",
          "name": "to",
          "type": "address"
        },
        {
          "internalType": "uint256",
          "name": "value",
          "type": "uint256"
        }
      ],
      "name": "SellMyosSendEth",
      "type": "error"
    },
    {
      "inputs": [
        {
          "internalType": "uint256",
          "name": "tokenId",
          "type": "uint256"
        },
        {
          "internalType": "uint256",
          "name": "price",
          "type": "uint256"
        }
      ],
      "name": "TokenNotInSales",
      "type": "error"
    },
    {
      "anonymous": false,
      "inputs": [
        {
          "indexed": true,
          "internalType": "address",
          "name": "previousOwner",
          "type": "address"
        },
        {
          "indexed": true,
          "internalType": "address",
          "name": "newOwner",
          "type": "address"
        }
      ],
      "name": "OwnershipTransferred",
      "type": "event"
    },
    {
      "inputs": [],
      "name": "owner",
      "outputs": [
        {
          "internalType": "address",
          "name": "",
          "type": "address"
        }
      ],
      "stateMutability": "view",
      "type": "function"
    },
    {
      "inputs": [
        {
          "internalType": "string",
          "name": "",
          "type": "string"
        }
      ],
      "name": "paramsContract",
      "outputs": [
        {
          "internalType": "uint256",
          "name": "",
          "type": "uint256"
        }
      ],
      "stateMutability": "view",
      "type": "function"
    },
    {
      "inputs": [],
      "name": "renounceOwnership",
      "outputs": [],
      "stateMutability": "nonpayable",
      "type": "function"
    },
    {
      "inputs": [
        {
          "internalType": "address",
          "name": "newOwner",
          "type": "address"
        }
      ],
      "name": "transferOwnership",
      "outputs": [],
      "stateMutability": "nonpayable",
      "type": "function"
    },
    {
      "inputs": [
        {
          "internalType": "string",
          "name": "key",
          "type": "string"
        },
        {
          "internalType": "uint256",
          "name": "value",
          "type": "uint256"
        }
      ],
      "name": "setParamsContract",
      "outputs": [],
      "stateMutability": "nonpayable",
      "type": "function"
    },
    {
      "inputs": [
        {
          "internalType": "string",
          "name": "key",
          "type": "string"
        }
      ],
      "name": "getParamsContract",
      "outputs": [
        {
          "internalType": "uint256",
          "name": "",
          "type": "uint256"
        }
      ],
      "stateMutability": "view",
      "type": "function"
    },
    {
      "inputs": [
        {
          "internalType": "uint8",
          "name": "generation",
          "type": "uint8"
        },
        {
          "internalType": "uint8",
          "name": "faction",
          "type": "uint8"
        },
        {
          "internalType": "string",
          "name": "_tokenUri",
          "type": "string"
        }
      ],
      "name": "mintHero",
      "outputs": [],
      "stateMutability": "payable",
      "type": "function"
    },
    {
      "inputs": [
        {
          "internalType": "uint256",
          "name": "tokenId",
          "type": "uint256"
        },
        {
          "internalType": "uint256",
          "name": "questId",
          "type": "uint256"
        }
      ],
      "name": "startQuest",
      "outputs": [],
      "stateMutability": "nonpayable",
      "type": "function"
    },
    {
      "inputs": [
        {
          "internalType": "uint256",
          "name": "tokenId",
          "type": "uint256"
        }
      ],
      "name": "cancelQuest",
      "outputs": [],
      "stateMutability": "nonpayable",
      "type": "function"
    },
    {
      "inputs": [
        {
          "internalType": "uint256",
          "name": "tokenId",
          "type": "uint256"
        }
      ],
      "name": "completeQuest",
      "outputs": [],
      "stateMutability": "nonpayable",
      "type": "function"
    },
    {
      "inputs": [
        {
          "internalType": "uint8",
          "name": "statToLvlUp",
          "type": "uint8"
        },
        {
          "internalType": "uint256",
          "name": "tokenId",
          "type": "uint256"
        }
      ],
      "name": "levelUp",
      "outputs": [],
      "stateMutability": "nonpayable",
      "type": "function"
    },
    {
      "inputs": [
        {
          "internalType": "uint256",
          "name": "tokenId",
          "type": "uint256"
        },
        {
          "internalType": "uint256",
          "name": "price",
          "type": "uint256"
        }
      ],
      "name": "putHeroInSell",
      "outputs": [],
      "stateMutability": "nonpayable",
      "type": "function"
    },
    {
      "inputs": [],
      "name": "getHerosInSell",
      "outputs": [
        {
          "components": [
            {
              "internalType": "uint8[]",
              "name": "params8",
              "type": "uint8[]"
            },
            {
              "internalType": "uint256[]",
              "name": "params256",
              "type": "uint256[]"
            }
          ],
          "internalType": "struct HeroLib.Token[]",
          "name": "",
          "type": "tuple[]"
        }
      ],
      "stateMutability": "view",
      "type": "function"
    },
    {
      "inputs": [
        {
          "internalType": "uint256",
          "name": "tokenId",
          "type": "uint256"
        }
      ],
      "name": "purchase",
      "outputs": [],
      "stateMutability": "payable",
      "type": "function"
    },
    {
      "inputs": [],
      "name": "withdraw",
      "outputs": [],
      "stateMutability": "nonpayable",
      "type": "function"
    }
  ],
  "bytecode": "0x60806040523480156200001157600080fd5b50604051620030ab380380620030ab83398101604081905262000034916200027e565b6200003f3362000211565b60018055600280546001600160a01b038087166001600160a01b03199283168117909355600380548783169084161790556004805486831690841617815560058054928616929093169190911790915560405163f26bf0b760e01b815263f26bf0b791620000d391016020808252601190820152701b995e1d151bdad95b9259151bd35a5b9d607a1b604082015260600190565b602060405180830381865afa158015620000f1573d6000803e3d6000fd5b505050506040513d601f19601f82011682018060405250810190620001179190620002db565b60408051701b995e1d151bdad95b9259151bd35a5b9d607a1b815260066011820181905282519182900360310182209390935564707269636560d81b815260058082018490528251918290036025908101832067016345785d8a00009055671d1bdd185b141b9d60c21b8352600883018590528351928390036028018320829055691d1bdad95b931a5b5a5d60b21b8352600a8301859052835192839003602a0183206127109055646e6f6e636560d81b8352908201849052825191829003018120600090556c0657870466f724c6576656c557609c1b8152600d8101929092525190819003602d0190206064905550620002f592505050565b600080546001600160a01b038381166001600160a01b0319831681178455604051919092169283917f8be0079c531659141344cd1fd0a4f28419497f9722a3daafe3b4186f6b6457e09190a35050565b80516001600160a01b03811681146200027957600080fd5b919050565b600080600080608085870312156200029557600080fd5b620002a08562000261565b9350620002b06020860162000261565b9250620002c06040860162000261565b9150620002d06060860162000261565b905092959194509250565b600060208284031215620002ee57600080fd5b5051919050565b612da680620003056000396000f3fe6080604052600436106100e85760003560e01c80638da5cb5b1161008a578063f26bf0b711610059578063f26bf0b714610265578063f2fde38b14610285578063fa84413a146102a5578063fe90ff7d146102b857600080fd5b80638da5cb5b146101ea578063c3c33b4014610212578063d706b9ba14610232578063efef39a11461025257600080fd5b8063464fa3f5116100c6578063464fa3f514610144578063528be0a91461016f5780635f9d45d81461018f578063715018a6146101d557600080fd5b80630b275db4146100ed5780633cb119441461010f5780633ccfd60b1461012f575b600080fd5b3480156100f957600080fd5b5061010d610108366004612240565b6102d8565b005b34801561011b57600080fd5b5061010d61012a3660046122b4565b6106cc565b34801561013b57600080fd5b5061010d6106fc565b34801561015057600080fd5b50610159610733565b6040516101669190612387565b60405180910390f35b34801561017b57600080fd5b5061010d61018a3660046123e9565b6108bb565b34801561019b57600080fd5b506101c76101aa3660046124db565b805160208183018101805160068252928201919093012091525481565b604051908152602001610166565b3480156101e157600080fd5b5061010d610e79565b3480156101f657600080fd5b506000546040516001600160a01b039091168152602001610166565b34801561021e57600080fd5b5061010d61022d36600461255a565b610e8d565b34801561023e57600080fd5b5061010d61024d36600461255a565b6111a6565b61010d6102603660046123e9565b6112e8565b34801561027157600080fd5b506101c761028036600461257c565b61161e565b34801561029157600080fd5b5061010d6102a03660046125d2565b61164a565b61010d6102b33660046125f6565b6116c0565b3480156102c457600080fd5b5061010d6102d33660046123e9565b611907565b60025481906001600160a01b0316336040516331a9108f60e11b8152600481018490526001600160a01b0391821691831690636352211e90602401602060405180830381865afa158015610330573d6000803e3d6000fd5b505050506040513d601f19601f82011682018060405250810190610354919061265a565b6001600160a01b03161461040557335b6040516331a9108f60e11b8152600481018490526001600160a01b03831690636352211e90602401602060405180830381865afa1580156103a9573d6000803e3d6000fd5b505050506040513d601f19601f820116820180604052508101906103cd919061265a565b6040516365165d8160e11b81526001600160a01b03928316600482015291166024820152604481018390526064015b60405180910390fd5b60025460405163183c06e560e31b8152600481018590526001600160a01b0390911690600090829063c1e0372890602401600060405180830381865afa158015610453573d6000803e3d6000fd5b505050506040513d6000823e601f3d908101601f1916820160405261047b919081019061270e565b90508060200151600981518110610494576104946127f6565b602002602001015160066040516104be906c0657870466f724c6576656c557609c1b8152600d0190565b9081526020016040518091039020546104d79190612906565b6104e2906064612912565b81602001516008815181106104f9576104f96127f6565b6020026020010151116105b357806020015160088151811061051d5761051d6127f6565b6020026020010151816020015160098151811061053c5761053c6127f6565b60200260200101516006604051610566906c0657870466f724c6576656c557609c1b8152600d0190565b90815260200160405180910390205461057f9190612906565b61058a906064612912565b60405163c2f02ac960e01b815260048101929092526024820152604481018690526064016103fc565b60058660ff1611156105e457604051632f62314360e11b815260ff87166004820152602481018690526044016103fc565b8051805160ff88169081106105fb576105fb6127f6565b60200260200101805180919060010160ff1660ff16815250506000816020015160088151811061062d5761062d6127f6565b6020026020010181815250508060200151600981518110610650576106506127f6565b60209081029190910101805160010190526001600160a01b03821663e2f6215c8287335b6040518463ffffffff1660e01b81526004016106929392919061292a565b600060405180830381600087803b1580156106ac57600080fd5b505af11580156106c0573d6000803e3d6000fd5b50505050505050505050565b6106d4611ae5565b80600684846040516106e792919061295d565b90815260405190819003602001902055505050565b610704611ae5565b60405133904780156108fc02916000818181858888f19350505050158015610730573d6000803e3d6000fd5b50565b6002546040516060916001600160a01b0316906000906006906107559061296d565b9081526020016040518091039020546001600160401b0381111561077b5761077b612402565b6040519080825280602002602001820160405280156107c057816020015b60408051808201909152606080825260208201528152602001906001900390816107995790505b5090506000805b60066040516107d59061296d565b9081526020016040518091039020548110156108b25760405163183c06e560e31b8152600481018290526000906001600160a01b0386169063c1e0372890602401600060405180830381865afa158015610833573d6000803e3d6000fd5b505050506040513d6000823e601f3d908101601f1916820160405261085b919081019061270e565b905060008160200151600b81518110610876576108766127f6565b602002602001015111156108a95780848481518110610897576108976127f6565b60209081029190910101526001909201915b506001016107c7565b50909392505050565b60025481906001600160a01b0316336040516331a9108f60e11b8152600481018490526001600160a01b0391821691831690636352211e90602401602060405180830381865afa158015610913573d6000803e3d6000fd5b505050506040513d601f19601f82011682018060405250810190610937919061265a565b6001600160a01b03161461094b5733610364565b60025460405163183c06e560e31b8152600481018590526001600160a01b0390911690600090829063c1e0372890602401600060405180830381865afa158015610999573d6000803e3d6000fd5b505050506040513d6000823e601f3d908101601f191682016040526109c1919081019061270e565b60038054602083015180519394506001600160a01b0390911692600092849263b0f929b09290919081106109f7576109f76127f6565b60200260200101516040518263ffffffff1660e01b8152600401610a1d91815260200190565b600060405180830381865afa158015610a3a573d6000803e3d6000fd5b505050506040513d6000823e601f3d908101601f19168201604052610a6291908101906129ac565b90508060a001518360200151600281518110610a8057610a806127f6565b602002602001015142610a939190612a83565b11610af157428360200151600281518110610ab057610ab06127f6565b60200260200101518260a001518960405163250ebb6160e21b81526004016103fc949392919093845260208401929092526040830152606082015260800190565b6000805b8260400151518160ff161015610bba578451805160ff8316908110610b1c57610b1c6127f6565b602002602001015160ff1683604001518260ff1681518110610b4057610b406127f6565b602002602001015160ff161115610ba8578451805160ff8316908110610b6857610b686127f6565b602002602001015183604001518260ff1681518110610b8957610b896127f6565b6020026020010151610b9b9190612a9a565b610ba59083612abd565b91505b80610bb281612ae2565b915050610af5565b506000610bd0610bcb836064612a9a565b611b3f565b60ff169050808560200151600781518110610bed57610bed6127f6565b602002602001018181525050826020015160ff16811115610d9d5760018560200151600681518110610c2157610c216127f6565b602002602001018181525050836001600160a01b0316636827822e6040518163ffffffff1660e01b8152600401602060405180830381865afa158015610c6b573d6000803e3d6000fd5b505050506040513d601f19601f82011682018060405250810190610c8f9190612b02565b8351610c9e9160ff1690612b1f565b61ffff168560200151600881518110610cb957610cb96127f6565b60200260200101818151610ccd9190612912565b9052506005546001600160a01b031660005b846060015151811015610d96576001600160a01b03821663156e29f63387606001518481518110610d1257610d126127f6565b60209081029190910101516040516001600160e01b031960e085901b1681526001600160a01b03909216600483015260ff16602482015260016044820152606401600060405180830381600087803b158015610d6d57600080fd5b505af1158015610d81573d6000803e3d6000fd5b50505050610d8f8160010190565b9050610cdf565b5050610dc3565b60008560200151600681518110610db657610db66127f6565b6020026020010181815250505b428560200151600281518110610ddb57610ddb6127f6565b60200260200101818152505060008560200151600481518110610e0057610e006127f6565b60209081029190910101526001600160a01b03861663e2f6215c868b335b6040518463ffffffff1660e01b8152600401610e3c9392919061292a565b600060405180830381600087803b158015610e5657600080fd5b505af1158015610e6a573d6000803e3d6000fd5b50505050505050505050505050565b610e81611ae5565b610e8b6000611b4d565b565b60025482906001600160a01b0316336040516331a9108f60e11b8152600481018490526001600160a01b0391821691831690636352211e90602401602060405180830381865afa158015610ee5573d6000803e3d6000fd5b505050506040513d601f19601f82011682018060405250810190610f09919061265a565b6001600160a01b031614610f1d5733610364565b600254600354604051630b0f929b60e41b8152600481018690526001600160a01b039283169290911690600090829063b0f929b090602401600060405180830381865afa158015610f72573d6000803e3d6000fd5b505050506040513d6000823e601f3d908101601f19168201604052610f9a91908101906129ac565b60405163183c06e560e31b8152600481018990529091506000906001600160a01b0385169063c1e0372890602401600060405180830381865afa158015610fe5573d6000803e3d6000fd5b505050506040513d6000823e601f3d908101601f1916820160405261100d919081019061270e565b90508060200151600481518110611026576110266127f6565b6020026020010151600014611092573387826020015160048151811061104e5761104e6127f6565b602090810291909101015160405163c9913a8d60e01b81526001600160a01b03909316600484015260248301919091526044820152606481018990526084016103fc565b600081602001516002815181106110ab576110ab6127f6565b6020026020010151426110be9190612a83565b90508160200151600a815181106110d7576110d76127f6565b6020026020010151811115611108578160200151600a815181106110fd576110fd6127f6565b602002602001015190505b8260a001518110156111445760405163762a1ca160e01b81523360048201526024810189905260448101829052606481018a90526084016103fc565b87826020015160038151811061115c5761115c6127f6565b6020026020010181815250508260a001518260200151600481518110611184576111846127f6565b60209081029190910101526001600160a01b03851663e2f6215c838b33610e1e565b60025482906001600160a01b0316336040516331a9108f60e11b8152600481018490526001600160a01b0391821691831690636352211e90602401602060405180830381865afa1580156111fe573d6000803e3d6000fd5b505050506040513d601f19601f82011682018060405250810190611222919061265a565b6001600160a01b0316146112365733610364565b60025460405163183c06e560e31b8152600481018690526001600160a01b0390911690600090829063c1e0372890602401600060405180830381865afa158015611284573d6000803e3d6000fd5b505050506040513d6000823e601f3d908101601f191682016040526112ac919081019061270e565b9050848160200151600b815181106112c6576112c66127f6565b60209081029190910101526001600160a01b03821663e2f6215c828833610674565b60025460405163183c06e560e31b8152600481018390526001600160a01b0390911690600090829063c1e0372890602401600060405180830381865afa158015611336573d6000803e3d6000fd5b505050506040513d6000823e601f3d908101601f1916820160405261135e919081019061270e565b905060008160200151600b81518110611379576113796127f6565b602002602001015190506000836001600160a01b0316636352211e866040518263ffffffff1660e01b81526004016113b391815260200190565b602060405180830381865afa1580156113d0573d6000803e3d6000fd5b505050506040513d601f19601f820116820180604052508101906113f4919061265a565b905060008211611421576040516367bd44b960e11b815260048101869052602481018390526044016103fc565b813410156114525760405163186691af60e31b815260048101869052602481018390523460448201526064016103fc565b6001600160a01b0381163314156114945760405163a33405a560e01b8152600481018690523360248201526001600160a01b03821660448201526064016103fc565b60008360200151600b815181106114ad576114ad6127f6565b60209081029190910101526040516338bd885760e21b81526001600160a01b0385169063e2f6215c906114e89086908990869060040161292a565b600060405180830381600087803b15801561150257600080fd5b505af1158015611516573d6000803e3d6000fd5b50505050836001600160a01b031663beabacc8826115313390565b6040516001600160e01b031960e085901b1681526001600160a01b0392831660048201529116602482015260448101889052606401600060405180830381600087803b15801561158057600080fd5b505af1158015611594573d6000803e3d6000fd5b505050506000816001600160a01b03168360405160006040518083038185875af1925050503d80600081146115e5576040519150601f19603f3d011682016040523d82523d6000602084013e6115ea565b606091505b50909150508061161657604051634482712560e11b8152336004820152602481018490526044016103fc565b505050505050565b60006006838360405161163292919061295d565b90815260200160405180910390205490505b92915050565b611652611ae5565b6001600160a01b0381166116b75760405162461bcd60e51b815260206004820152602660248201527f4f776e61626c653a206e6577206f776e657220697320746865207a65726f206160448201526564647265737360d01b60648201526084016103fc565b61073081611b4d565b6116c8611b9d565b60405164707269636560d81b815260069060050190815260200160405180910390205434101561172e5760405162461bcd60e51b8152602060048201526011602482015270135bdc9948115512081c995c5d5a5c9959607a1b60448201526064016103fc565b60405164707269636560d81b81526006906005019081526020016040518091039020543410156117985760405164707269636560d81b81526006906005019081526040519081900360200181205462a184d760e21b825260048201523460248201526044016103fc565b60066040516117a69061296d565b90815260405190819003602001812054691d1bdad95b931a5b5a5d60b21b825290600690600a019081526020016040518091039020541161184757604051691d1bdad95b931a5b5a5d60b21b8152600690600a0190815260200160405180910390205460066040516118179061296d565b90815260405190819003602001812054633a3b705560e11b82526103fc9291600401918252602082015260400190565b600061185284611bf7565b905060006118603487612031565b905060066040516118709061296d565b908152604051908190036020019020805460010190556002546001600160a01b031680639005ba9561189f3390565b858589896040518663ffffffff1660e01b81526004016118c3959493929190612b72565b600060405180830381600087803b1580156118dd57600080fd5b505af11580156118f1573d6000803e3d6000fd5b5050505050505061190160018055565b50505050565b60025481906001600160a01b0316336040516331a9108f60e11b8152600481018490526001600160a01b0391821691831690636352211e90602401602060405180830381865afa15801561195f573d6000803e3d6000fd5b505050506040513d601f19601f82011682018060405250810190611983919061265a565b6001600160a01b0316146119975733610364565b60025460405163183c06e560e31b8152600481018590526001600160a01b0390911690600090829063c1e0372890602401600060405180830381865afa1580156119e5573d6000803e3d6000fd5b505050506040513d6000823e601f3d908101601f19168201604052611a0d919081019061270e565b90508060200151600481518110611a2657611a266127f6565b602002602001015160001415611a5857604051631ed712d560e11b8152336004820152602481018690526044016103fc565b60008160200151600481518110611a7157611a716127f6565b60209081029190910101526040516338bd885760e21b81526001600160a01b0383169063e2f6215c90611aac9084908990339060040161292a565b600060405180830381600087803b158015611ac657600080fd5b505af1158015611ada573d6000803e3d6000fd5b505050505050505050565b6000546001600160a01b03163314610e8b5760405162461bcd60e51b815260206004820181905260248201527f4f776e61626c653a2063616c6c6572206973206e6f7420746865206f776e657260448201526064016103fc565b60006116448260ff16612182565b600080546001600160a01b038381166001600160a01b0319831681178455604051919092169283917f8be0079c531659141344cd1fd0a4f28419497f9722a3daafe3b4186f6b6457e09190a35050565b60026001541415611bf05760405162461bcd60e51b815260206004820152601f60248201527f5265656e7472616e637947756172643a207265656e7472616e742063616c6c0060448201526064016103fc565b6002600155565b6040805160148082526102a08201909252606091600091906020820161028080368337019050506004546040805160a08101825260008082526020820181905260609282018390528282015260808101919091529192506001600160a01b03169060405163323eae4960e01b8152600060048201526001600160a01b0383169063323eae4990602401600060405180830381865afa158015611c9d573d6000803e3d6000fd5b505050506040513d6000823e601f3d908101601f19168201604052611cc59190810190612c87565b905060005b826001600160a01b0316630b01ca3b6040518163ffffffff1660e01b8152600401602060405180830381865afa158015611d08573d6000803e3d6000fd5b505050506040513d601f19601f82011682018060405250810190611d2c9190612b02565b60ff168160ff161015611e435760405163323eae4960e01b815260ff821660048201526001600160a01b0384169063323eae4990602401600060405180830381865afa158015611d80573d6000803e3d6000fd5b505050506040513d6000823e601f3d908101601f19168201604052611da89190810190612c87565b5160ff16611db66064611b3f565b60ff161015611e315760405163323eae4960e01b815260ff821660048201526001600160a01b0384169063323eae4990602401600060405180830381865afa158015611e06573d6000803e3d6000fd5b505050506040513d6000823e601f3d908101601f19168201604052611e2e9190810190612c87565b91505b80611e3b81612ae2565b915050611cca565b50604081015180518190600090611e5c57611e5c6127f6565b602002602001015184600081518110611e7757611e776127f6565b602002602001019060ff16908160ff168152505080600181518110611e9e57611e9e6127f6565b602002602001015184600181518110611eb957611eb96127f6565b602002602001019060ff16908160ff168152505080600281518110611ee057611ee06127f6565b602002602001015184600281518110611efb57611efb6127f6565b602002602001019060ff16908160ff168152505080600381518110611f2257611f226127f6565b602002602001015184600381518110611f3d57611f3d6127f6565b602002602001019060ff16908160ff168152505080600481518110611f6457611f646127f6565b602002602001015184600481518110611f7f57611f7f6127f6565b602002602001019060ff16908160ff168152505080600581518110611fa657611fa66127f6565b602002602001015184600581518110611fc157611fc16127f6565b602002602001019060ff16908160ff16815250508584600881518110611fe957611fe96127f6565b602002602001019060ff16908160ff1681525050816020015184600981518110612015576120156127f6565b60ff909216602092830291909101909101525091949350505050565b6040805160148082526102a08201909252606091600091906020820161028080368337019050509050428160008151811061206e5761206e6127f6565b602002602001018181525050838160018151811061208e5761208e6127f6565b60200260200101818152505042816002815181106120ae576120ae6127f6565b60200260200101818152505060066040516120c89061296d565b908152602001604051809103902054816006815181106120ea576120ea6127f6565b6020026020010181815250508260ff168160078151811061210d5761210d6127f6565b60200260200101818152505060018160098151811061212e5761212e6127f6565b602002602001018181525050606481600a8151811061214f5761214f6127f6565b602002602001018181525050600081600b81518110612170576121706127f6565b60209081029190910101529392505050565b60408051646e6f6e636560d81b8152600660058201528151908190036025018120544260208301526bffffffffffffffffffffffff193360601b16928201929092526054810191909152600090819083906074016040516020818303038152906040528051906020012060001c6121f99190612d4e565b9050600660405161221590646e6f6e636560d81b815260050190565b9081526040519081900360200190208054600101905592915050565b60ff8116811461073057600080fd5b6000806040838503121561225357600080fd5b823561225e81612231565b946020939093013593505050565b60008083601f84011261227e57600080fd5b5081356001600160401b0381111561229557600080fd5b6020830191508360208285010111156122ad57600080fd5b9250929050565b6000806000604084860312156122c957600080fd5b83356001600160401b038111156122df57600080fd5b6122eb8682870161226c565b909790965060209590950135949350505050565b805160408084528151908401819052600091602091908201906060860190845b8181101561233e57835160ff168352928401929184019160010161231f565b50508483015186820387850152805180835290840192506000918401905b8083101561237c578351825292840192600192909201919084019061235c565b509695505050505050565b6000602080830181845280855180835260408601915060408160051b870101925083870160005b828110156123dc57603f198886030184526123ca8583516122ff565b945092850192908501906001016123ae565b5092979650505050505050565b6000602082840312156123fb57600080fd5b5035919050565b634e487b7160e01b600052604160045260246000fd5b604080519081016001600160401b038111828210171561243a5761243a612402565b60405290565b60405160e081016001600160401b038111828210171561243a5761243a612402565b60405160a081016001600160401b038111828210171561243a5761243a612402565b604051601f8201601f191681016001600160401b03811182821017156124ac576124ac612402565b604052919050565b60006001600160401b038211156124cd576124cd612402565b50601f01601f191660200190565b6000602082840312156124ed57600080fd5b81356001600160401b0381111561250357600080fd5b8201601f8101841361251457600080fd5b8035612527612522826124b4565b612484565b81815285602083850101111561253c57600080fd5b81602084016020830137600091810160200191909152949350505050565b6000806040838503121561256d57600080fd5b50508035926020909101359150565b6000806020838503121561258f57600080fd5b82356001600160401b038111156125a557600080fd5b6125b18582860161226c565b90969095509350505050565b6001600160a01b038116811461073057600080fd5b6000602082840312156125e457600080fd5b81356125ef816125bd565b9392505050565b6000806000806060858703121561260c57600080fd5b843561261781612231565b9350602085013561262781612231565b925060408501356001600160401b0381111561264257600080fd5b61264e8782880161226c565b95989497509550505050565b60006020828403121561266c57600080fd5b81516125ef816125bd565b60006001600160401b0382111561269057612690612402565b5060051b60200190565b80516126a581612231565b919050565b600082601f8301126126bb57600080fd5b815160206126cb61252283612677565b82815260059290921b840181019181810190868411156126ea57600080fd5b8286015b8481101561237c57805161270181612231565b83529183019183016126ee565b6000602080838503121561272157600080fd5b82516001600160401b038082111561273857600080fd5b908401906040828703121561274c57600080fd5b612754612418565b82518281111561276357600080fd5b61276f888286016126aa565b825250838301518281111561278357600080fd5b80840193505086601f84011261279857600080fd5b825191506127a861252283612677565b82815260059290921b830184019184810190888411156127c757600080fd5b938501935b838510156127e5578451825293850193908501906127cc565b948201949094529695505050505050565b634e487b7160e01b600052603260045260246000fd5b634e487b7160e01b600052601160045260246000fd5b600181815b8085111561285d5781600019048211156128435761284361280c565b8085161561285057918102915b93841c9390800290612827565b509250929050565b60008261287457506001611644565b8161288157506000611644565b816001811461289757600281146128a1576128bd565b6001915050611644565b60ff8411156128b2576128b261280c565b50506001821b611644565b5060208310610133831016604e8410600b84101617156128e0575081810a611644565b6128ea8383612822565b80600019048211156128fe576128fe61280c565b029392505050565b60006125ef8383612865565b600082198211156129255761292561280c565b500190565b60608152600061293d60608301866122ff565b6020830194909452506001600160a01b0391909116604090910152919050565b8183823760009101908152919050565b701b995e1d151bdad95b9259151bd35a5b9d607a1b815260110190565b805161ffff811681146126a557600080fd5b805180151581146126a557600080fd5b6000602082840312156129be57600080fd5b81516001600160401b03808211156129d557600080fd5b9083019060e082860312156129e957600080fd5b6129f1612440565b6129fa8361298a565b8152612a086020840161269a565b6020820152604083015182811115612a1f57600080fd5b612a2b878286016126aa565b604083015250606083015182811115612a4357600080fd5b612a4f878286016126aa565b6060830152506080830151608082015260a083015160a0820152612a7560c0840161299c565b60c082015295945050505050565b600082821015612a9557612a9561280c565b500390565b600060ff821660ff841680821015612ab457612ab461280c565b90039392505050565b600060ff821660ff84168060ff03821115612ada57612ada61280c565b019392505050565b600060ff821660ff811415612af957612af961280c565b60010192915050565b600060208284031215612b1457600080fd5b81516125ef81612231565b600061ffff80831681851681830481118215151615612b4057612b4061280c565b02949350505050565b81835281816020850137506000828201602090810191909152601f909101601f19169091010190565b6001600160a01b0386168152608060208083018290528651918301829052600091878201919060a0850190845b81811015612bbe57845160ff1683529383019391830191600101612b9f565b50508481036040860152875180825290820192508188019060005b81811015612bf557825185529383019391830191600101612bd9565b505050508281036060840152612c0c818587612b49565b98975050505050505050565b600082601f830112612c2957600080fd5b8151612c37612522826124b4565b81815260208581848701011115612c4d57600080fd5b60005b83811015612c6b578581018201518382018301528101612c50565b83811115612c7c5760008285850101525b509095945050505050565b600060208284031215612c9957600080fd5b81516001600160401b0380821115612cb057600080fd5b9083019060a08286031215612cc457600080fd5b612ccc612462565b8251612cd781612231565b81526020830151612ce781612231565b6020820152604083015182811115612cfe57600080fd5b612d0a878286016126aa565b604083015250612d1c6060840161299c565b6060820152608083015182811115612d3357600080fd5b612d3f87828601612c18565b60808301525095945050505050565b600082612d6b57634e487b7160e01b600052601260045260246000fd5b50069056fea2646970667358221220c132e60eefec9a315750f9fb667301180252ce194c267a95c16853e52dc8622e64736f6c634300080b0033",
  "immutableReferences": {},
  "source": "// SPDX-License-Identifier: MIT\n// Delegation contract\npragma solidity ^0.8.0;\n\nimport \"@openzeppelin/contracts/access/Ownable.sol\";\nimport \"@openzeppelin/contracts/security/ReentrancyGuard.sol\";\nimport \"@openzeppelin/contracts/utils/math/SafeMath.sol\";\n\nimport \"../immutable/Items.sol\";\nimport \"../immutable/Class.sol\";\nimport \"../immutable/Quest.sol\";\nimport \"../immutable/Hero.sol\";\n\nimport \"../library/LClass.sol\";\nimport \"../library/LHero.sol\";\nimport \"../library/LItems.sol\";\nimport \"../library/LQuest.sol\";\n\n//enum Numbers {strong,endurance,concentration,agility,charisma,stealth,exp,level,faction,classe}\n\ncontract ProxyHero is Ownable, ReentrancyGuard {\n  using SafeMath for uint;\n  error NotEnoughEth(uint256 price, uint256 weiSended, uint256 tokenId, uint256 quantity);\n  error NotEnoughEthHero(uint256 price, uint256 weiSended);\n  error NotRemainingHero(uint256 tokenLimit, uint256 nextTokenIdToMint);\n  error NotYourToken(address sender, address ownerOfToken, uint256 tokenId);\n  error AlreadyInQuest(\n    address sender,\n    uint256 questId,\n    uint256 currentQuestId,\n    uint256 tokenId\n  );\n  error QuestNotFinished(\n    uint256 blockTimestamp,\n    uint256 heroQuestTime,\n    uint256 currentQuestTime,\n    uint256 tokenId\n  );\n  error NotEnoughExperience(\n    uint256 experienceHero,\n    uint256 experienceNeeded,\n    uint256 tokenId\n  );\n  error NotAStat(uint256 statToLvlUp, uint256 tokenId);\n  error SellMyosSendEth(address to, uint value);\n  error TokenNotInSales(uint256 tokenId, uint256 price);\n  error NotEnoughEthPurchase(uint256 tokenId, uint256 price, uint256 value);\n  error AlreadyOwned(uint256 tokenId, address sender, address owner);\n  error NotEnoughEnergy(address sender, uint256 questId, uint256 energy, uint256 tokenId);\n  error NotInQuest(address sender, uint256 tokenId);\n\n  address private addressHero;\n  address private addressQuest;\n  address private addressClass;\n  address private addressItem;\n  mapping(string => uint256) public paramsContract;\n\n  uint256 private constant utilMathMultiply = 10000000;\n\n  constructor(\n    address _addressHero,\n    address _addressQuest,\n    address _addressClass,\n    address _addressItem\n  ) {\n    addressHero = _addressHero;\n    addressQuest = _addressQuest;\n    addressClass = _addressClass;\n    addressItem = _addressItem;\n    paramsContract[\"nextTokenIdToMint\"] = Hero(addressHero).getParamsContract(\n      \"nextTokenIdToMint\"\n    );\n    paramsContract[\"price\"] = 100000000000000000; //dev:100000000000000000000 == 100 eth\n    paramsContract[\"totalPnt\"] = 5;\n    paramsContract[\"tokenLimit\"] = 10000;\n    paramsContract[\"nonce\"] = 0;\n    paramsContract[\"expForLevelUp\"] = 100;\n  }\n\n  modifier isYourToken(uint256 tokenId) {\n    Hero contrat = Hero(addressHero);\n    if (contrat.ownerOf(tokenId) != _msgSender())\n      revert NotYourToken({\n        sender: _msgSender(),\n        ownerOfToken: contrat.ownerOf(tokenId),\n        tokenId: tokenId\n      });\n    _;\n  }\n\n  function unsafeInc(uint x) private pure returns (uint) {\n    unchecked {\n      return x + 1;\n    }\n  }\n\n  ///@notice Update a parameter of contract\n  ///@param key key index of params contract you want set\n  ///@param value value of params contract you want set\n  function setParamsContract(string calldata key, uint256 value) external onlyOwner {\n    paramsContract[key] = value;\n  }\n\n  ///@notice Return a parameter of contract by key index\n  ///@param key key index of param your want to return\n  ///@return param value of parameter contract\n  function getParamsContract(string calldata key) external view returns (uint256) {\n    return paramsContract[key];\n  }\n\n  ///@notice Update a parameter of hero contract\n  ///@param key key index of params contract you want set\n  ///@param value value of params contract you want set\n  function setParamsHeroContract(string calldata key, uint256 value) internal {\n    Hero contrat = Hero(addressHero);\n    contrat.setParamsContract(key, value);\n  }\n\n  ///@notice mint a hero for a value price and generate stats and parameterr\n  ///@param generation generation of creation hero\n  ///@param faction faction with class and stat linked\n  ///@param _tokenUri uri of metadata token hero\n  function mintHero(\n    uint8 generation,\n    uint8 faction,\n    string calldata _tokenUri\n  ) external payable nonReentrant {\n    require(msg.value >= paramsContract[\"price\"], \"More ETH required\");\n    if (msg.value < paramsContract[\"price\"])\n      revert NotEnoughEthHero({ price: paramsContract[\"price\"], weiSended: msg.value });\n    if (paramsContract[\"tokenLimit\"] <= paramsContract[\"nextTokenIdToMint\"])\n      revert NotRemainingHero({\n        tokenLimit: paramsContract[\"tokenLimit\"],\n        nextTokenIdToMint: paramsContract[\"nextTokenIdToMint\"]\n      });\n    uint8[] memory randomParts = randomStats(faction);\n    uint256[] memory randomParams = randomParameters(msg.value, generation);\n    unchecked {\n      paramsContract[\"nextTokenIdToMint\"]++;\n    }\n\n    Hero contrat = Hero(addressHero);\n    contrat.mint(_msgSender(), randomParts, randomParams, _tokenUri);\n  }\n\n  ///@notice generate stats for your hero in uint8\n  ///@param faction faction of hero generated\n  ///@return randomParts array of stats uint8 for hero\n  function randomStats(uint8 faction) internal virtual returns (uint8[] memory) {\n    uint8[] memory randomParts = new uint8[](20);\n\n    Class classContrat = Class(addressClass);\n    ClassLib.Classes memory class;\n    class = classContrat.getClassDetails(0);\n    for (uint8 index = 0; index < classContrat.getClassCount(); index++) {\n      if (random(100) < classContrat.getClassDetails(index).rarity)\n        class = classContrat.getClassDetails(index);\n    }\n    uint8[] memory stats = class.stats;\n\n    randomParts[0] = stats[0]; //Strong\n    randomParts[1] = stats[1]; //Stamina\n    randomParts[2] = stats[2]; //Focus\n    randomParts[3] = stats[3]; //Swiftness\n    randomParts[4] = stats[4]; //Charisma\n    randomParts[5] = stats[5]; //Stealth\n\n    randomParts[8] = faction; //faction\n    randomParts[9] = class.id; //class\n\n    return randomParts;\n  }\n\n  ///@notice generate parameter for your hero in uint256\n  ///@param price price of buying hero\n  ///@param generation generation fo hero\n  ///@return randomParams array of parameters uint256 for hero\n  function randomParameters(\n    uint256 price,\n    uint8 generation\n  ) internal virtual returns (uint256[] memory) {\n    uint256[] memory randomParams = new uint256[](20);\n    randomParams[0] = block.timestamp; //date de cration\n    randomParams[1] = price; //prix d'achat\n    randomParams[2] = block.timestamp; //date de la drnire action (il y a une heure) permettant de participer a des missions\n    //randomParams[3] = 0;//Mission choisis (si 0 aucune current mission)\n    //randomParams[4] = 0;//seconds pour finir la mission\n    //randomParams[5] = 0;//difficult de la qute (dtermine l'exp gagn, et les objets % gagn)\n    //randomParams[6] = 0;//last quest succeded\n    randomParams[6] = paramsContract[\"nextTokenIdToMint\"]; //tokenId\n    randomParams[7] = generation; //type\n    //randomParams[8] = 0;//exp\n    randomParams[9] = 1; //level\n    randomParams[10] = 100; //maxEnergy\n    randomParams[11] = 0; //priceInSell\n    return randomParams;\n  }\n\n  ///@notice start a quest by id for one hero token\n  ///@param tokenId id of token you want to launch in quest\n  ///@param questId id of quest you want to start\n  function startQuest(uint256 tokenId, uint256 questId) external isYourToken(tokenId) {\n    Hero contrat = Hero(addressHero);\n    Quest questContrat = Quest(addressQuest);\n    QuestLib.QuestStruct memory questTemp = questContrat.getQuestDetails(questId);\n    HeroLib.Token memory hero = contrat.getTokenDetails(tokenId);\n    if (hero.params256[4] != 0)\n      revert AlreadyInQuest({\n        sender: _msgSender(),\n        questId: questId,\n        currentQuestId: hero.params256[4],\n        tokenId: tokenId\n      });\n    uint256 energy = block.timestamp - hero.params256[2];\n    if (energy > hero.params256[10]) energy = hero.params256[10];\n    if (energy < questTemp.time)\n      revert NotEnoughEnergy({\n        sender: _msgSender(),\n        questId: questId,\n        energy: energy,\n        tokenId: tokenId\n      });\n    hero.params256[3] = questId;\n    hero.params256[4] = questTemp.time;\n    contrat.updateToken(hero, tokenId, _msgSender());\n  }\n\n  ///@notice cancel a quest by id for one hero token\n  ///@param tokenId id of token you want to launch in quest\n  function cancelQuest(uint256 tokenId) external isYourToken(tokenId) {\n    Hero contrat = Hero(addressHero);\n    HeroLib.Token memory hero = contrat.getTokenDetails(tokenId);\n    if (hero.params256[4] == 0)\n      revert NotInQuest({ sender: _msgSender(), tokenId: tokenId });\n    hero.params256[4] = 0;\n    contrat.updateToken(hero, tokenId, _msgSender());\n  }\n\n  ///@notice Validation of the quest at the end of a quest\n  ///@param tokenId id of token you want to complete quest\n  function completeQuest(uint256 tokenId) external isYourToken(tokenId) {\n    Hero contrat = Hero(addressHero);\n    HeroLib.Token memory hero = contrat.getTokenDetails(tokenId);\n\n    Quest questContrat = Quest(addressQuest);\n    QuestLib.QuestStruct memory questTemp = questContrat.getQuestDetails(\n      hero.params256[3]\n    );\n    if (block.timestamp - hero.params256[2] <= (questTemp.time))\n      revert QuestNotFinished({\n        blockTimestamp: block.timestamp,\n        heroQuestTime: hero.params256[2],\n        currentQuestTime: questTemp.time,\n        tokenId: tokenId\n      });\n    uint8 malus = 0;\n    for (uint8 index = 0; index < questTemp.stats.length; index++) {\n      if (questTemp.stats[index] > hero.params8[index]) {\n        malus += questTemp.stats[index] - hero.params8[index];\n      }\n    }\n    ///SUCCESS QUEST\n    uint256 percentSuccess = random(100 - malus);\n    hero.params256[7] = percentSuccess;\n    if (percentSuccess > questTemp.percentDifficulty) {\n      hero.params256[6] = 1;\n      hero.params256[8] += (questTemp.exp * questContrat.getMultiplicateurExp());\n\n      Items itemContrat = Items(addressItem);\n\n      for (uint256 index = 0; index < questTemp.items.length; index = unsafeInc(index)) {\n        itemContrat.mint(_msgSender(), questTemp.items[index], 1);\n      }\n      //recuperer les items dans la quest !IMPORTANT\n      /*for (uint256 index = 0; index < countItems;  index = unsafeInc(index) {\n        Items itemtemp = Items(items[index]);\n        if (random256(100000) > itemtemp.getRarity()) {\n          itemtemp.mint(1, _msgSender());\n        }\n      }*/\n    } else {\n      hero.params256[6] = 0;\n    }\n    hero.params256[2] = block.timestamp;\n    hero.params256[4] = 0;\n\n    contrat.updateToken(hero, tokenId, _msgSender());\n  }\n\n  ///@notice level up hero and increment one stat\n  ///@param statToLvlUp id of stat you wan increment\n  ///@param tokenId id of token you want level up\n  function levelUp(uint8 statToLvlUp, uint256 tokenId) external isYourToken(tokenId) {\n    Hero contrat = Hero(addressHero);\n    HeroLib.Token memory hero = contrat.getTokenDetails(tokenId);\n    if (\n      hero.params256[8] <= (100 + (paramsContract[\"expForLevelUp\"] ** hero.params256[9]))\n    )\n      revert NotEnoughExperience({\n        experienceHero: hero.params256[8],\n        experienceNeeded: (100 + (paramsContract[\"expForLevelUp\"] ** hero.params256[9])),\n        tokenId: tokenId\n      });\n    if (statToLvlUp < 0 || statToLvlUp > 5)\n      revert NotAStat({ statToLvlUp: statToLvlUp, tokenId: tokenId });\n    unchecked {\n      hero.params8[statToLvlUp]++;\n    }\n    hero.params256[8] = 0;\n    unchecked {\n      hero.params256[9]++;\n    }\n\n    contrat.updateToken(hero, tokenId, _msgSender());\n  }\n\n  /****************************************\n    UTILS\n     ****************************************/\n\n  ///@notice return random number\n  ///@param maxNumber max number random to return\n  ///@return randomNumber random uint256 returned\n  function random(uint8 maxNumber) internal returns (uint8) {\n    return uint8(random256(uint8(maxNumber)));\n  }\n\n  ///@notice return random number\n  ///@param maxNumber max number random to return\n  ///@return randomNumber random uint256 returned\n  function random256(uint256 maxNumber) internal returns (uint256) {\n    uint256 randomNumber = uint256(\n      keccak256(abi.encodePacked(block.timestamp, _msgSender(), paramsContract[\"nonce\"]))\n    ) % maxNumber;\n    unchecked {\n      paramsContract[\"nonce\"]++;\n    }\n    return randomNumber;\n  }\n\n  ///@notice put hero in sell market\n  ///@param tokenId id key of token you want to putt in sell\n  ///@param price price of token put in selled\n  function putHeroInSell(uint256 tokenId, uint256 price) external isYourToken(tokenId) {\n    Hero contrat = Hero(addressHero);\n    HeroLib.Token memory hero = contrat.getTokenDetails(tokenId);\n    hero.params256[11] = price;\n    contrat.updateToken(hero, tokenId, _msgSender());\n  }\n\n  ///@notice return all heroes in market sell\n  ///@return tokens return structure of heroes\n  function getHerosInSell() external view returns (HeroLib.Token[] memory) {\n    Hero contrat = Hero(addressHero);\n    HeroLib.Token[] memory result = new HeroLib.Token[](\n      paramsContract[\"nextTokenIdToMint\"]\n    );\n    uint256 resultIndex;\n\n    for (uint256 i = 0; i < paramsContract[\"nextTokenIdToMint\"]; i = unsafeInc(i)) {\n      HeroLib.Token memory hero = contrat.getTokenDetails(i);\n      if (hero.params256[11] > 0) {\n        result[resultIndex] = hero;\n        unchecked {\n          resultIndex++;\n        }\n      }\n    }\n    return result;\n  }\n\n  ///@notice purchase a token previously put in sell\n  ///@param tokenId id of token you want buy\n  function purchase(uint256 tokenId) external payable {\n    Hero contrat = Hero(addressHero);\n    HeroLib.Token memory hero = contrat.getTokenDetails(tokenId);\n    uint256 price = hero.params256[11];\n    address owner = contrat.ownerOf(tokenId);\n    if (price <= 0) revert TokenNotInSales({ tokenId: tokenId, price: price });\n    if (msg.value < price)\n      revert NotEnoughEthPurchase({ tokenId: tokenId, price: price, value: msg.value });\n    if (owner == _msgSender())\n      revert AlreadyOwned({ tokenId: tokenId, sender: _msgSender(), owner: owner });\n\n    hero.params256[11] = 0;\n    contrat.updateToken(hero, tokenId, owner);\n\n    contrat.transfer(owner, _msgSender(), tokenId);\n\n    (bool sent, ) = owner.call{ value: price }(\"\");\n    if (sent == false) revert SellMyosSendEth({ to: _msgSender(), value: price });\n  }\n\n  /*FUNDS OF CONTRACT*/\n\n  function withdraw() external onlyOwner {\n    payable(_msgSender()).transfer(address(this).balance);\n  }\n\n  /**\n    a finaliser\n     */\n  /*function calculPriceSupply() public{\n        Hero contrat = Hero(addressHero);\n        uint totalSupply = contrat.getParamsContract(\"totalSupply\");\n        //priceInUsd = (item.price/(10**18)) * (latestPrice/10**8)\n    }*/\n}\n",
  "sourcePath": "/home/solid-solution/Bureau/HOMEWORK/MYOS/contracts/proxy/ProxyHero.sol",
  "compiler": {
    "name": "solc",
    "version": "0.8.11+commit.d7f03943.Emscripten.clang"
  },
  "schemaVersion": "3.4.10",
  "updatedAt": "2022-11-21T13:19:37.186Z",
  "devdoc": {
    "kind": "dev",
    "methods": {
      "cancelQuest(uint256)": {
        "params": {
          "tokenId": "id of token you want to launch in quest"
        }
      },
      "completeQuest(uint256)": {
        "params": {
          "tokenId": "id of token you want to complete quest"
        }
      },
      "getHerosInSell()": {
        "returns": {
          "_0": "tokens return structure of heroes"
        }
      },
      "getParamsContract(string)": {
        "params": {
          "key": "key index of param your want to return"
        },
        "returns": {
          "_0": "param value of parameter contract"
        }
      },
      "levelUp(uint8,uint256)": {
        "params": {
          "statToLvlUp": "id of stat you wan increment",
          "tokenId": "id of token you want level up"
        }
      },
      "mintHero(uint8,uint8,string)": {
        "params": {
          "_tokenUri": "uri of metadata token hero",
          "faction": "faction with class and stat linked",
          "generation": "generation of creation hero"
        }
      },
      "owner()": {
        "details": "Returns the address of the current owner."
      },
      "purchase(uint256)": {
        "params": {
          "tokenId": "id of token you want buy"
        }
      },
      "putHeroInSell(uint256,uint256)": {
        "params": {
          "price": "price of token put in selled",
          "tokenId": "id key of token you want to putt in sell"
        }
      },
      "renounceOwnership()": {
        "details": "Leaves the contract without owner. It will not be possible to call `onlyOwner` functions anymore. Can only be called by the current owner. NOTE: Renouncing ownership will leave the contract without an owner, thereby removing any functionality that is only available to the owner."
      },
      "setParamsContract(string,uint256)": {
        "params": {
          "key": "key index of params contract you want set",
          "value": "value of params contract you want set"
        }
      },
      "startQuest(uint256,uint256)": {
        "params": {
          "questId": "id of quest you want to start",
          "tokenId": "id of token you want to launch in quest"
        }
      },
      "transferOwnership(address)": {
        "details": "Transfers ownership of the contract to a new account (`newOwner`). Can only be called by the current owner."
      }
    },
    "version": 1
  },
  "userdoc": {
    "kind": "user",
    "methods": {
      "cancelQuest(uint256)": {
        "notice": "cancel a quest by id for one hero token"
      },
      "completeQuest(uint256)": {
        "notice": "Validation of the quest at the end of a quest"
      },
      "getHerosInSell()": {
        "notice": "return all heroes in market sell"
      },
      "getParamsContract(string)": {
        "notice": "Return a parameter of contract by key index"
      },
      "levelUp(uint8,uint256)": {
        "notice": "level up hero and increment one stat"
      },
      "mintHero(uint8,uint8,string)": {
        "notice": "mint a hero for a value price and generate stats and parameterr"
      },
      "purchase(uint256)": {
        "notice": "purchase a token previously put in sell"
      },
      "putHeroInSell(uint256,uint256)": {
        "notice": "put hero in sell market"
      },
      "setParamsContract(string,uint256)": {
        "notice": "Update a parameter of contract"
      },
      "startQuest(uint256,uint256)": {
        "notice": "start a quest by id for one hero token"
      }
    },
    "version": 1
  }
}