{
  "contractName": "ProxyHero",
  "abi": [
    {
      "inputs": [
        {
          "internalType": "address",
          "name": "_addressHero",
          "type": "address"
        },
        {
          "internalType": "address",
          "name": "_addressQuest",
          "type": "address"
        },
        {
          "internalType": "address",
          "name": "_addressClass",
          "type": "address"
        },
        {
          "internalType": "address",
          "name": "_addressItem",
          "type": "address"
        }
      ],
      "stateMutability": "nonpayable",
      "type": "constructor"
    },
    {
      "inputs": [
        {
          "internalType": "address",
          "name": "sender",
          "type": "address"
        },
        {
          "internalType": "uint256",
          "name": "questId",
          "type": "uint256"
        },
        {
          "internalType": "uint256",
          "name": "currentQuestId",
          "type": "uint256"
        },
        {
          "internalType": "uint256",
          "name": "tokenId",
          "type": "uint256"
        }
      ],
      "name": "AlreadyInQuest",
      "type": "error"
    },
    {
      "inputs": [
        {
          "internalType": "uint256",
          "name": "tokenId",
          "type": "uint256"
        },
        {
          "internalType": "address",
          "name": "sender",
          "type": "address"
        },
        {
          "internalType": "address",
          "name": "owner",
          "type": "address"
        }
      ],
      "name": "AlreadyOwned",
      "type": "error"
    },
    {
      "inputs": [
        {
          "internalType": "uint256",
          "name": "statToLvlUp",
          "type": "uint256"
        },
        {
          "internalType": "uint256",
          "name": "tokenId",
          "type": "uint256"
        }
      ],
      "name": "NotAStat",
      "type": "error"
    },
    {
      "inputs": [
        {
          "internalType": "address",
          "name": "sender",
          "type": "address"
        },
        {
          "internalType": "uint256",
          "name": "questId",
          "type": "uint256"
        },
        {
          "internalType": "uint256",
          "name": "energy",
          "type": "uint256"
        },
        {
          "internalType": "uint256",
          "name": "tokenId",
          "type": "uint256"
        }
      ],
      "name": "NotEnoughEnergy",
      "type": "error"
    },
    {
      "inputs": [
        {
          "internalType": "uint256",
          "name": "price",
          "type": "uint256"
        },
        {
          "internalType": "uint256",
          "name": "weiSended",
          "type": "uint256"
        },
        {
          "internalType": "uint256",
          "name": "tokenId",
          "type": "uint256"
        },
        {
          "internalType": "uint256",
          "name": "quantity",
          "type": "uint256"
        }
      ],
      "name": "NotEnoughEth",
      "type": "error"
    },
    {
      "inputs": [
        {
          "internalType": "uint256",
          "name": "price",
          "type": "uint256"
        },
        {
          "internalType": "uint256",
          "name": "weiSended",
          "type": "uint256"
        }
      ],
      "name": "NotEnoughEthHero",
      "type": "error"
    },
    {
      "inputs": [
        {
          "internalType": "uint256",
          "name": "tokenId",
          "type": "uint256"
        },
        {
          "internalType": "uint256",
          "name": "price",
          "type": "uint256"
        },
        {
          "internalType": "uint256",
          "name": "value",
          "type": "uint256"
        }
      ],
      "name": "NotEnoughEthPurchase",
      "type": "error"
    },
    {
      "inputs": [
        {
          "internalType": "uint256",
          "name": "experienceHero",
          "type": "uint256"
        },
        {
          "internalType": "uint256",
          "name": "experienceNeeded",
          "type": "uint256"
        },
        {
          "internalType": "uint256",
          "name": "tokenId",
          "type": "uint256"
        }
      ],
      "name": "NotEnoughExperience",
      "type": "error"
    },
    {
      "inputs": [
        {
          "internalType": "address",
          "name": "sender",
          "type": "address"
        },
        {
          "internalType": "uint256",
          "name": "tokenId",
          "type": "uint256"
        }
      ],
      "name": "NotInQuest",
      "type": "error"
    },
    {
      "inputs": [
        {
          "internalType": "uint256",
          "name": "tokenLimit",
          "type": "uint256"
        },
        {
          "internalType": "uint256",
          "name": "nextTokenIdToMint",
          "type": "uint256"
        }
      ],
      "name": "NotRemainingHero",
      "type": "error"
    },
    {
      "inputs": [
        {
          "internalType": "address",
          "name": "sender",
          "type": "address"
        },
        {
          "internalType": "address",
          "name": "ownerOfToken",
          "type": "address"
        },
        {
          "internalType": "uint256",
          "name": "tokenId",
          "type": "uint256"
        }
      ],
      "name": "NotYourToken",
      "type": "error"
    },
    {
      "inputs": [
        {
          "internalType": "uint256",
          "name": "blockTimestamp",
          "type": "uint256"
        },
        {
          "internalType": "uint256",
          "name": "heroQuestTime",
          "type": "uint256"
        },
        {
          "internalType": "uint256",
          "name": "currentQuestTime",
          "type": "uint256"
        },
        {
          "internalType": "uint256",
          "name": "tokenId",
          "type": "uint256"
        }
      ],
      "name": "QuestNotFinished",
      "type": "error"
    },
    {
      "inputs": [
        {
          "internalType": "address",
          "name": "to",
          "type": "address"
        },
        {
          "internalType": "uint256",
          "name": "value",
          "type": "uint256"
        }
      ],
      "name": "SellMyosSendEth",
      "type": "error"
    },
    {
      "inputs": [
        {
          "internalType": "uint256",
          "name": "tokenId",
          "type": "uint256"
        },
        {
          "internalType": "uint256",
          "name": "price",
          "type": "uint256"
        }
      ],
      "name": "TokenNotInSales",
      "type": "error"
    },
    {
      "anonymous": false,
      "inputs": [
        {
          "indexed": true,
          "internalType": "address",
          "name": "previousOwner",
          "type": "address"
        },
        {
          "indexed": true,
          "internalType": "address",
          "name": "newOwner",
          "type": "address"
        }
      ],
      "name": "OwnershipTransferred",
      "type": "event"
    },
    {
      "anonymous": false,
      "inputs": [
        {
          "indexed": true,
          "internalType": "bytes32",
          "name": "role",
          "type": "bytes32"
        },
        {
          "indexed": true,
          "internalType": "bytes32",
          "name": "previousAdminRole",
          "type": "bytes32"
        },
        {
          "indexed": true,
          "internalType": "bytes32",
          "name": "newAdminRole",
          "type": "bytes32"
        }
      ],
      "name": "RoleAdminChanged",
      "type": "event"
    },
    {
      "anonymous": false,
      "inputs": [
        {
          "indexed": true,
          "internalType": "bytes32",
          "name": "role",
          "type": "bytes32"
        },
        {
          "indexed": true,
          "internalType": "address",
          "name": "account",
          "type": "address"
        },
        {
          "indexed": true,
          "internalType": "address",
          "name": "sender",
          "type": "address"
        }
      ],
      "name": "RoleGranted",
      "type": "event"
    },
    {
      "anonymous": false,
      "inputs": [
        {
          "indexed": true,
          "internalType": "bytes32",
          "name": "role",
          "type": "bytes32"
        },
        {
          "indexed": true,
          "internalType": "address",
          "name": "account",
          "type": "address"
        },
        {
          "indexed": true,
          "internalType": "address",
          "name": "sender",
          "type": "address"
        }
      ],
      "name": "RoleRevoked",
      "type": "event"
    },
    {
      "anonymous": false,
      "inputs": [
        {
          "indexed": true,
          "internalType": "address",
          "name": "owner",
          "type": "address"
        },
        {
          "indexed": true,
          "internalType": "string",
          "name": "key",
          "type": "string"
        },
        {
          "indexed": false,
          "internalType": "uint256",
          "name": "value",
          "type": "uint256"
        }
      ],
      "name": "UpdateParamContract",
      "type": "event"
    },
    {
      "anonymous": false,
      "inputs": [
        {
          "indexed": true,
          "internalType": "address",
          "name": "sender",
          "type": "address"
        },
        {
          "indexed": true,
          "internalType": "uint256",
          "name": "tokenId",
          "type": "uint256"
        }
      ],
      "name": "canceledHeroInSell",
      "type": "event"
    },
    {
      "anonymous": false,
      "inputs": [
        {
          "indexed": true,
          "internalType": "address",
          "name": "sender",
          "type": "address"
        },
        {
          "indexed": true,
          "internalType": "uint256",
          "name": "tokenId",
          "type": "uint256"
        }
      ],
      "name": "canceledQuest",
      "type": "event"
    },
    {
      "anonymous": false,
      "inputs": [
        {
          "indexed": true,
          "internalType": "address",
          "name": "sender",
          "type": "address"
        },
        {
          "indexed": true,
          "internalType": "uint256",
          "name": "tokenId",
          "type": "uint256"
        },
        {
          "indexed": true,
          "internalType": "uint256",
          "name": "questId",
          "type": "uint256"
        }
      ],
      "name": "completedQuest",
      "type": "event"
    },
    {
      "anonymous": false,
      "inputs": [
        {
          "indexed": true,
          "internalType": "address",
          "name": "sender",
          "type": "address"
        },
        {
          "indexed": true,
          "internalType": "uint256",
          "name": "tokenId",
          "type": "uint256"
        },
        {
          "indexed": false,
          "internalType": "uint256",
          "name": "statToLvlUp",
          "type": "uint256"
        }
      ],
      "name": "levelupped",
      "type": "event"
    },
    {
      "anonymous": false,
      "inputs": [
        {
          "indexed": true,
          "internalType": "address",
          "name": "sender",
          "type": "address"
        },
        {
          "indexed": true,
          "internalType": "uint256",
          "name": "tokenId",
          "type": "uint256"
        },
        {
          "indexed": false,
          "internalType": "uint256",
          "name": "price",
          "type": "uint256"
        },
        {
          "indexed": true,
          "internalType": "address",
          "name": "owner",
          "type": "address"
        }
      ],
      "name": "purchasedHeroInSell",
      "type": "event"
    },
    {
      "anonymous": false,
      "inputs": [
        {
          "indexed": true,
          "internalType": "address",
          "name": "sender",
          "type": "address"
        },
        {
          "indexed": true,
          "internalType": "uint256",
          "name": "tokenId",
          "type": "uint256"
        },
        {
          "indexed": true,
          "internalType": "uint256",
          "name": "price",
          "type": "uint256"
        }
      ],
      "name": "puttedHeroInSell",
      "type": "event"
    },
    {
      "anonymous": false,
      "inputs": [
        {
          "indexed": true,
          "internalType": "address",
          "name": "sender",
          "type": "address"
        },
        {
          "indexed": true,
          "internalType": "uint256",
          "name": "tokenId",
          "type": "uint256"
        },
        {
          "indexed": true,
          "internalType": "uint256",
          "name": "questId",
          "type": "uint256"
        }
      ],
      "name": "startedQuest",
      "type": "event"
    },
    {
      "inputs": [],
      "name": "DEFAULT_ADMIN_ROLE",
      "outputs": [
        {
          "internalType": "bytes32",
          "name": "",
          "type": "bytes32"
        }
      ],
      "stateMutability": "view",
      "type": "function",
      "constant": true
    },
    {
      "inputs": [
        {
          "internalType": "bytes32",
          "name": "role",
          "type": "bytes32"
        }
      ],
      "name": "getRoleAdmin",
      "outputs": [
        {
          "internalType": "bytes32",
          "name": "",
          "type": "bytes32"
        }
      ],
      "stateMutability": "view",
      "type": "function",
      "constant": true
    },
    {
      "inputs": [
        {
          "internalType": "bytes32",
          "name": "role",
          "type": "bytes32"
        },
        {
          "internalType": "uint256",
          "name": "index",
          "type": "uint256"
        }
      ],
      "name": "getRoleMember",
      "outputs": [
        {
          "internalType": "address",
          "name": "",
          "type": "address"
        }
      ],
      "stateMutability": "view",
      "type": "function",
      "constant": true
    },
    {
      "inputs": [
        {
          "internalType": "bytes32",
          "name": "role",
          "type": "bytes32"
        }
      ],
      "name": "getRoleMemberCount",
      "outputs": [
        {
          "internalType": "uint256",
          "name": "",
          "type": "uint256"
        }
      ],
      "stateMutability": "view",
      "type": "function",
      "constant": true
    },
    {
      "inputs": [
        {
          "internalType": "bytes32",
          "name": "role",
          "type": "bytes32"
        },
        {
          "internalType": "address",
          "name": "account",
          "type": "address"
        }
      ],
      "name": "grantRole",
      "outputs": [],
      "stateMutability": "nonpayable",
      "type": "function"
    },
    {
      "inputs": [
        {
          "internalType": "bytes32",
          "name": "role",
          "type": "bytes32"
        },
        {
          "internalType": "address",
          "name": "account",
          "type": "address"
        }
      ],
      "name": "hasRole",
      "outputs": [
        {
          "internalType": "bool",
          "name": "",
          "type": "bool"
        }
      ],
      "stateMutability": "view",
      "type": "function",
      "constant": true
    },
    {
      "inputs": [],
      "name": "owner",
      "outputs": [
        {
          "internalType": "address",
          "name": "",
          "type": "address"
        }
      ],
      "stateMutability": "view",
      "type": "function",
      "constant": true
    },
    {
      "inputs": [
        {
          "internalType": "string",
          "name": "",
          "type": "string"
        }
      ],
      "name": "paramsContract",
      "outputs": [
        {
          "internalType": "uint256",
          "name": "",
          "type": "uint256"
        }
      ],
      "stateMutability": "view",
      "type": "function",
      "constant": true
    },
    {
      "inputs": [],
      "name": "renounceOwnership",
      "outputs": [],
      "stateMutability": "nonpayable",
      "type": "function"
    },
    {
      "inputs": [
        {
          "internalType": "bytes32",
          "name": "role",
          "type": "bytes32"
        },
        {
          "internalType": "address",
          "name": "account",
          "type": "address"
        }
      ],
      "name": "renounceRole",
      "outputs": [],
      "stateMutability": "nonpayable",
      "type": "function"
    },
    {
      "inputs": [
        {
          "internalType": "bytes32",
          "name": "role",
          "type": "bytes32"
        },
        {
          "internalType": "address",
          "name": "account",
          "type": "address"
        }
      ],
      "name": "revokeRole",
      "outputs": [],
      "stateMutability": "nonpayable",
      "type": "function"
    },
    {
      "inputs": [
        {
          "internalType": "address",
          "name": "newOwner",
          "type": "address"
        }
      ],
      "name": "transferOwnership",
      "outputs": [],
      "stateMutability": "nonpayable",
      "type": "function"
    },
    {
      "inputs": [
        {
          "internalType": "string",
          "name": "key",
          "type": "string"
        },
        {
          "internalType": "uint256",
          "name": "value",
          "type": "uint256"
        }
      ],
      "name": "setParamsContract",
      "outputs": [],
      "stateMutability": "nonpayable",
      "type": "function"
    },
    {
      "inputs": [
        {
          "internalType": "string",
          "name": "key",
          "type": "string"
        }
      ],
      "name": "getParamsContract",
      "outputs": [
        {
          "internalType": "uint256",
          "name": "",
          "type": "uint256"
        }
      ],
      "stateMutability": "view",
      "type": "function",
      "constant": true
    },
    {
      "inputs": [
        {
          "internalType": "uint8",
          "name": "generation",
          "type": "uint8"
        },
        {
          "internalType": "uint8",
          "name": "faction",
          "type": "uint8"
        }
      ],
      "name": "mintHero",
      "outputs": [],
      "stateMutability": "payable",
      "type": "function",
      "payable": true
    },
    {
      "inputs": [
        {
          "internalType": "uint256",
          "name": "tokenId",
          "type": "uint256"
        },
        {
          "internalType": "uint256",
          "name": "questId",
          "type": "uint256"
        }
      ],
      "name": "startQuest",
      "outputs": [],
      "stateMutability": "nonpayable",
      "type": "function"
    },
    {
      "inputs": [
        {
          "internalType": "uint256",
          "name": "tokenId",
          "type": "uint256"
        }
      ],
      "name": "cancelQuest",
      "outputs": [],
      "stateMutability": "nonpayable",
      "type": "function"
    },
    {
      "inputs": [
        {
          "internalType": "uint256",
          "name": "tokenId",
          "type": "uint256"
        }
      ],
      "name": "completeQuest",
      "outputs": [],
      "stateMutability": "nonpayable",
      "type": "function"
    },
    {
      "inputs": [
        {
          "internalType": "uint8",
          "name": "statToLvlUp",
          "type": "uint8"
        },
        {
          "internalType": "uint256",
          "name": "tokenId",
          "type": "uint256"
        }
      ],
      "name": "levelUp",
      "outputs": [],
      "stateMutability": "nonpayable",
      "type": "function"
    },
    {
      "inputs": [
        {
          "internalType": "uint256",
          "name": "tokenId",
          "type": "uint256"
        },
        {
          "internalType": "uint256",
          "name": "price",
          "type": "uint256"
        }
      ],
      "name": "putHeroInSell",
      "outputs": [],
      "stateMutability": "nonpayable",
      "type": "function"
    },
    {
      "inputs": [
        {
          "internalType": "uint256",
          "name": "tokenId",
          "type": "uint256"
        }
      ],
      "name": "cancelHeroInSell",
      "outputs": [],
      "stateMutability": "nonpayable",
      "type": "function"
    },
    {
      "inputs": [],
      "name": "getHerosInSell",
      "outputs": [
        {
          "components": [
            {
              "internalType": "uint8[]",
              "name": "params8",
              "type": "uint8[]"
            },
            {
              "internalType": "uint256[]",
              "name": "params256",
              "type": "uint256[]"
            },
            {
              "internalType": "address",
              "name": "owner",
              "type": "address"
            }
          ],
          "internalType": "struct HeroLib.Token[]",
          "name": "",
          "type": "tuple[]"
        }
      ],
      "stateMutability": "view",
      "type": "function",
      "constant": true
    },
    {
      "inputs": [
        {
          "internalType": "uint256",
          "name": "tokenId",
          "type": "uint256"
        }
      ],
      "name": "purchase",
      "outputs": [],
      "stateMutability": "payable",
      "type": "function",
      "payable": true
    },
    {
      "inputs": [],
      "name": "withdraw",
      "outputs": [],
      "stateMutability": "nonpayable",
      "type": "function"
    },
    {
      "inputs": [
        {
          "internalType": "address",
          "name": "",
          "type": "address"
        },
        {
          "internalType": "address",
          "name": "",
          "type": "address"
        },
        {
          "internalType": "uint256",
          "name": "",
          "type": "uint256"
        },
        {
          "internalType": "bytes",
          "name": "",
          "type": "bytes"
        }
      ],
      "name": "onERC721Received",
      "outputs": [
        {
          "internalType": "bytes4",
          "name": "",
          "type": "bytes4"
        }
      ],
      "stateMutability": "nonpayable",
      "type": "function"
    },
    {
      "inputs": [
        {
          "internalType": "bytes4",
          "name": "interfaceId",
          "type": "bytes4"
        }
      ],
      "name": "supportsInterface",
      "outputs": [
        {
          "internalType": "bool",
          "name": "",
          "type": "bool"
        }
      ],
      "stateMutability": "view",
      "type": "function",
      "constant": true
    }
  ],
  "bytecode": "0x60806040523480156200001157600080fd5b5060405162004105380380620041058339810160408190526200003491620002c7565b6200003f336200025a565b60018055600480546001600160a01b03199081166001600160a01b038781169182178455600580548416888316179055600680548416878316179055600780549093169085161790915560405163f26bf0b760e01b815260209281019290925260116024830152701b995e1d151bdad95b9259151bd35a5b9d607a1b60448301529063f26bf0b790606401602060405180830381865afa158015620000e8573d6000803e3d6000fd5b505050506040513d601f19601f820116820180604052508101906200010e919062000324565b60408051701b995e1d151bdad95b9259151bd35a5b9d607a1b815260086011808301829052835192839003603190810184209590955564707269636560d81b835260058084018390528451938490036025908101852067016345785d8a00009055671d1bdd185b141b9d60c21b85528484018490528551948590036028018520829055691d1bdad95b931a5b5a5d60b21b8552600a808601859052865195869003602a0186206127109055646e6f6e636560d81b8652918501849052855194859003018420600090556c0657870466f724c6576656c557609c1b8452600d8401839052845193849003602d018420606490819055686d6178456e6572677960b81b8552600985018490528551948590036029018520557019d85a5b915b995c99de509e53195d995b607a1b84529083019190915291519081900390920190912055506200033e92505050565b600080546001600160a01b038381166001600160a01b0319831681178455604051919092169283917f8be0079c531659141344cd1fd0a4f28419497f9722a3daafe3b4186f6b6457e09190a35050565b80516001600160a01b0381168114620002c257600080fd5b919050565b60008060008060808587031215620002de57600080fd5b620002e985620002aa565b9350620002f960208601620002aa565b92506200030960408601620002aa565b91506200031960608601620002aa565b905092959194509250565b6000602082840312156200033757600080fd5b5051919050565b613db7806200034e6000396000f3fe6080604052600436106101815760003560e01c80639010d07c116100d1578063d32cc8361161008a578063efef39a111610064578063efef39a11461049d578063f26bf0b7146104b0578063f2fde38b146104d0578063fe90ff7d146104f057600080fd5b8063d32cc8361461044a578063d547741f1461045d578063d706b9ba1461047d57600080fd5b80639010d07c1461039557806391d14854146103b55780639d2d4638146103d5578063a217fddf146103f5578063c3c33b401461040a578063ca15c8731461042a57600080fd5b80633cb119441161013e578063528be0a911610118578063528be0a9146102f65780635f9d45d814610316578063715018a61461034e5780638da5cb5b1461036357600080fd5b80633cb119441461029f5780633ccfd60b146102bf578063464fa3f5146102d457600080fd5b806301ffc9a7146101865780630b275db4146101bb578063150b7a02146101dd578063248a9ca3146102215780632f2ff15d1461025f57806336568abe1461027f575b600080fd5b34801561019257600080fd5b506101a66101a136600461308e565b610510565b60405190151581526020015b60405180910390f35b3480156101c757600080fd5b506101db6101d63660046130c7565b61053b565b005b3480156101e957600080fd5b506102086101f836600461321f565b630a85bd0160e11b949350505050565b6040516001600160e01b031990911681526020016101b2565b34801561022d57600080fd5b5061025161023c36600461329e565b60009081526002602052604090206001015490565b6040519081526020016101b2565b34801561026b57600080fd5b506101db61027a3660046132b7565b6109c2565b34801561028b57600080fd5b506101db61029a3660046132b7565b6109ec565b3480156102ab57600080fd5b506101db6102ba36600461332f565b610a6a565b3480156102cb57600080fd5b506101db610afb565b3480156102e057600080fd5b506102e9610b32565b6040516101b2919061342d565b34801561030257600080fd5b506101db61031136600461329e565b610d76565b34801561032257600080fd5b5061025161033136600461348f565b805160208183018101805160088252928201919093012091525481565b34801561035a57600080fd5b506101db61138d565b34801561036f57600080fd5b506000546001600160a01b03165b6040516001600160a01b0390911681526020016101b2565b3480156103a157600080fd5b5061037d6103b03660046134df565b6113a1565b3480156103c157600080fd5b506101a66103d03660046132b7565b6113c0565b3480156103e157600080fd5b506101db6103f036600461329e565b6113eb565b34801561040157600080fd5b50610251600081565b34801561041657600080fd5b506101db6104253660046134df565b61153b565b34801561043657600080fd5b5061025161044536600461329e565b6118e7565b6101db610458366004613501565b6118fe565b34801561046957600080fd5b506101db6104783660046132b7565b611b3b565b34801561048957600080fd5b506101db6104983660046134df565b611b60565b6101db6104ab36600461329e565b611e09565b3480156104bc57600080fd5b506102516104cb36600461352f565b61211d565b3480156104dc57600080fd5b506101db6104eb366004613570565b612148565b3480156104fc57600080fd5b506101db61050b36600461329e565b6121be565b60006001600160e01b03198216630a85bd0160e11b14806105355750610535826123d7565b92915050565b60045481906001600160a01b0316336040516331a9108f60e11b8152600481018490526001600160a01b0391821691831690636352211e90602401602060405180830381865afa158015610593573d6000803e3d6000fd5b505050506040513d601f19601f820116820180604052508101906105b7919061359d565b6001600160a01b03161461065657335b6040516331a9108f60e11b8152600481018490526001600160a01b03831690636352211e90602401602060405180830381865afa15801561060c573d6000803e3d6000fd5b505050506040513d601f19601f82011682018060405250810190610630919061359d565b836040516365165d8160e11b815260040161064d939291906135ba565b60405180910390fd5b6004805460405163183c06e560e31b81529182018590526001600160a01b031690600090829063c1e0372890602401600060405180830381865afa1580156106a2573d6000803e3d6000fd5b505050506040513d6000823e601f3d908101601f191682016040526106ca919081019061367b565b905080602001516009815181106106e3576106e3613770565b6020026020010151600860405161070d906c0657870466f724c6576656c557609c1b8152600d0190565b9081526020016040518091039020546107269190613880565b61073190606461388c565b816020015160088151811061074857610748613770565b60200260200101511161080257806020015160088151811061076c5761076c613770565b6020026020010151816020015160098151811061078b5761078b613770565b602002602001015160086040516107b5906c0657870466f724c6576656c557609c1b8152600d0190565b9081526020016040518091039020546107ce9190613880565b6107d990606461388c565b60405163c2f02ac960e01b8152600481019290925260248201526044810186905260640161064d565b60058660ff16111561083357604051632f62314360e11b815260ff871660048201526024810186905260440161064d565b8051805160ff881690811061084a5761084a613770565b60200260200101805180919060010160ff1660ff16815250506000816020015160088151811061087c5761087c613770565b602002602001018181525050806020015160098151811061089f5761089f613770565b60209081029190910101805160010190526040517019d85a5b915b995c99de509e53195d995b607a1b81526008906011019081526020016040518091039020548160200151600a815181106108f6576108f6613770565b6020026020010181815161090a919061388c565b90525060405163ed2123c360e01b81526001600160a01b0383169063ed2123c39061093d908490899033906004016138a4565b600060405180830381600087803b15801561095757600080fd5b505af115801561096b573d6000803e3d6000fd5b50505050846109773390565b60405160ff891681526001600160a01b0391909116907fd7fd7f613f35a65698c314e9f2351c1fc72f0546b866e30bfaa18f3e93ceaac59060200160405180910390a3505050505050565b6000828152600260205260409020600101546109dd816123fc565b6109e78383612406565b505050565b6001600160a01b0381163314610a5c5760405162461bcd60e51b815260206004820152602f60248201527f416363657373436f6e74726f6c3a2063616e206f6e6c792072656e6f756e636560448201526e103937b632b9903337b91039b2b63360891b606482015260840161064d565b610a668282612428565b5050565b610a7261244a565b8060088484604051610a859291906138d7565b90815260405190819003602001812091909155610aa590849084906138d7565b6040518091039020610ab43390565b6001600160a01b03167f419740d480ec7b24bbb56324d7b648081dbaf6c4f721ed5b7f1cacaa31c1f63183604051610aee91815260200190565b60405180910390a3505050565b610b0361244a565b60405133904780156108fc02916000818181858888f19350505050158015610b2f573d6000803e3d6000fd5b50565b6004546060906001600160a01b03166000805b6008604051610b53906138e7565b908152602001604051809103902054811015610c125760405163183c06e560e31b8152600481018290526000906001600160a01b0385169063c1e0372890602401600060405180830381865afa158015610bb1573d6000803e3d6000fd5b505050506040513d6000823e601f3d908101601f19168201604052610bd9919081019061367b565b905060008160200151600b81518110610bf457610bf4613770565b60200260200101511115610c09576001909201915b50600101610b45565b506000816001600160401b03811115610c2d57610c2d613108565b604051908082528060200260200182016040528015610c7a57816020015b60408051606080820183528082526020820152600091810191909152815260200190600190039081610c4b5790505b5090506000805b6008604051610c8f906138e7565b908152602001604051809103902054811015610d6c5760405163183c06e560e31b8152600481018290526000906001600160a01b0387169063c1e0372890602401600060405180830381865afa158015610ced573d6000803e3d6000fd5b505050506040513d6000823e601f3d908101601f19168201604052610d15919081019061367b565b905060008160200151600b81518110610d3057610d30613770565b60200260200101511115610d635780848481518110610d5157610d51613770565b60209081029190910101526001909201915b50600101610c81565b5090949350505050565b60045481906001600160a01b0316336040516331a9108f60e11b8152600481018490526001600160a01b0391821691831690636352211e90602401602060405180830381865afa158015610dce573d6000803e3d6000fd5b505050506040513d601f19601f82011682018060405250810190610df2919061359d565b6001600160a01b031614610e0657336105c7565b6004805460405163183c06e560e31b81529182018590526001600160a01b031690600090829063c1e0372890602401600060405180830381865afa158015610e52573d6000803e3d6000fd5b505050506040513d6000823e601f3d908101601f19168201604052610e7a919081019061367b565b600554602082015180519293506001600160a01b0390911691600091839163b0f929b091906003908110610eb057610eb0613770565b60200260200101516040518263ffffffff1660e01b8152600401610ed691815260200190565b600060405180830381865afa158015610ef3573d6000803e3d6000fd5b505050506040513d6000823e601f3d908101601f19168201604052610f1b9190810190613926565b90508060a001518360200151600281518110610f3957610f39613770565b602002602001015142610f4c91906139fd565b11610faa57428360200151600281518110610f6957610f69613770565b60200260200101518260a001518960405163250ebb6160e21b815260040161064d949392919093845260208401929092526040830152606082015260800190565b6000805b8260400151518160ff161015611073578451805160ff8316908110610fd557610fd5613770565b602002602001015160ff1683604001518260ff1681518110610ff957610ff9613770565b602002602001015160ff161115611061578451805160ff831690811061102157611021613770565b602002602001015183604001518260ff168151811061104257611042613770565b60200260200101516110549190613a14565b61105e9083613a37565b91505b8061106b81613a5c565b915050610fae565b506000611089611084836064613a14565b6124a4565b60ff1690508085602001516007815181106110a6576110a6613770565b602002602001018181525050826020015160ff1681111561125657600185602001516006815181106110da576110da613770565b602002602001018181525050836001600160a01b0316636827822e6040518163ffffffff1660e01b8152600401602060405180830381865afa158015611124573d6000803e3d6000fd5b505050506040513d601f19601f820116820180604052508101906111489190613a7c565b83516111579160ff1690613a99565b61ffff16856020015160088151811061117257611172613770565b60200260200101818151611186919061388c565b9052506007546001600160a01b031660005b84606001515181101561124f576001600160a01b03821663156e29f633876060015184815181106111cb576111cb613770565b60209081029190910101516040516001600160e01b031960e085901b1681526001600160a01b03909216600483015260ff16602482015260016044820152606401600060405180830381600087803b15801561122657600080fd5b505af115801561123a573d6000803e3d6000fd5b505050506112488160010190565b9050611198565b505061127c565b6000856020015160068151811061126f5761126f613770565b6020026020010181815250505b42856020015160028151811061129457611294613770565b602002602001018181525050600085602001516004815181106112b9576112b9613770565b602090810291909101015260405163ed2123c360e01b81526001600160a01b0387169063ed2123c3906112f49088908d9033906004016138a4565b600060405180830381600087803b15801561130e57600080fd5b505af1158015611322573d6000803e3d6000fd5b50505050846020015160038151811061133d5761133d613770565b60200260200101518961134d3390565b6001600160a01b03167ff94577e4230f725c7988aeb2df57de54ee35126b976024523471f486f5d1806760405160405180910390a4505050505050505050565b61139561244a565b61139f60006124b2565b565b60008281526003602052604081206113b99083612502565b9392505050565b60009182526002602090815260408084206001600160a01b0393909316845291905290205460ff1690565b6004805460405163183c06e560e31b81529182018390526001600160a01b031690600090829063c1e0372890602401600060405180830381865afa158015611437573d6000803e3d6000fd5b505050506040513d6000823e601f3d908101601f1916820160405261145f919081019061367b565b60408101519091506001600160a01b0381163314611496573381856040516365165d8160e11b815260040161064d939291906135ba565b6040516317d5759960e31b81526001600160a01b0384169063beabacc8906114c6903090859089906004016135ba565b600060405180830381600087803b1580156114e057600080fd5b505af11580156114f4573d6000803e3d6000fd5b50505050836115003390565b6001600160a01b03167f6694dd5448e9aec0657bd4e1cdd1ccf932a2e90fadde2951b67979aefc4a525e60405160405180910390a350505050565b60045482906001600160a01b0316336040516331a9108f60e11b8152600481018490526001600160a01b0391821691831690636352211e90602401602060405180830381865afa158015611593573d6000803e3d6000fd5b505050506040513d601f19601f820116820180604052508101906115b7919061359d565b6001600160a01b0316146115cb57336105c7565b60048054600554604051630b0f929b60e41b81529283018690526001600160a01b0391821692911690600090829063b0f929b090602401600060405180830381865afa15801561161f573d6000803e3d6000fd5b505050506040513d6000823e601f3d908101601f191682016040526116479190810190613926565b60405163183c06e560e31b8152600481018990529091506000906001600160a01b0385169063c1e0372890602401600060405180830381865afa158015611692573d6000803e3d6000fd5b505050506040513d6000823e601f3d908101601f191682016040526116ba919081019061367b565b905080602001516004815181106116d3576116d3613770565b602002602001015160001461173f57338782602001516004815181106116fb576116fb613770565b602090810291909101015160405163c9913a8d60e01b81526001600160a01b039093166004840152602483019190915260448201526064810189905260840161064d565b6000816020015160028151811061175857611758613770565b60200260200101514261176b91906139fd565b90508160200151600a8151811061178457611784613770565b60200260200101518111156117b5578160200151600a815181106117aa576117aa613770565b602002602001015190505b8260a001518110156117f15760405163762a1ca160e01b81523360048201526024810189905260448101829052606481018a905260840161064d565b87826020015160038151811061180957611809613770565b6020026020010181815250508260a00151826020015160048151811061183157611831613770565b602090810291909101015260405163ed2123c360e01b81526001600160a01b0386169063ed2123c39061186c9085908d9033906004016138a4565b600060405180830381600087803b15801561188657600080fd5b505af115801561189a573d6000803e3d6000fd5b5050505087896118a73390565b6001600160a01b03167f31b23362e7830832079a0f2c107622ace1ea076ae2abfe337543951cf25d736560405160405180910390a4505050505050505050565b60008181526003602052604081206105359061250e565b611906612518565b60405164707269636560d81b815260089060050190815260200160405180910390205434101561196c5760405162461bcd60e51b8152602060048201526011602482015270135bdc9948115512081c995c5d5a5c9959607a1b604482015260640161064d565b60405164707269636560d81b81526008906005019081526020016040518091039020543410156119d65760405164707269636560d81b81526008906005019081526040519081900360200181205462a184d760e21b8252600482015234602482015260440161064d565b60086040516119e4906138e7565b90815260405190819003602001812054691d1bdad95b931a5b5a5d60b21b825290600890600a0190815260200160405180910390205411611a8557604051691d1bdad95b931a5b5a5d60b21b8152600890600a019081526020016040518091039020546008604051611a55906138e7565b90815260405190819003602001812054633a3b705560e11b825261064d9291600401918252602082015260400190565b6000611a9082612572565b90506000611a9e34856129ac565b90506008604051611aae906138e7565b908152604051908190036020019020805460010190556004546001600160a01b03168063ea4edda2611add3390565b85856040518463ffffffff1660e01b8152600401611afd93929190613ac3565b600060405180830381600087803b158015611b1757600080fd5b505af1158015611b2b573d6000803e3d6000fd5b50505050505050610a6660018055565b600082815260026020526040902060010154611b56816123fc565b6109e78383612428565b60045482906001600160a01b0316336040516331a9108f60e11b8152600481018490526001600160a01b0391821691831690636352211e90602401602060405180830381865afa158015611bb8573d6000803e3d6000fd5b505050506040513d601f19601f82011682018060405250810190611bdc919061359d565b6001600160a01b031614611bf057336105c7565b600480546040516331a9108f60e11b81529182018690526001600160a01b0316906000908290636352211e90602401602060405180830381865afa158015611c3c573d6000803e3d6000fd5b505050506040513d601f19601f82011682018060405250810190611c60919061359d565b60405163183c06e560e31b8152600481018890529091506000906001600160a01b0384169063c1e0372890602401600060405180830381865afa158015611cab573d6000803e3d6000fd5b505050506040513d6000823e601f3d908101601f19168201604052611cd3919081019061367b565b9050858160200151600b81518110611ced57611ced613770565b60209081029190910101523360408281018290525163ed2123c360e01b81526001600160a01b0385169163ed2123c391611d2e9185918c91906004016138a4565b600060405180830381600087803b158015611d4857600080fd5b505af1158015611d5c573d6000803e3d6000fd5b50506040516317d5759960e31b81526001600160a01b038616925063beabacc89150611d9090859030908c906004016135ba565b600060405180830381600087803b158015611daa57600080fd5b505af1158015611dbe573d6000803e3d6000fd5b505050508587611dcb3390565b6001600160a01b03167ffd8d86aec839a7666b23492a488dc179722910b0b493dec3f4a7d5a89cfea47560405160405180910390a450505050505050565b6004805460405163183c06e560e31b81529182018390526001600160a01b031690600090829063c1e0372890602401600060405180830381865afa158015611e55573d6000803e3d6000fd5b505050506040513d6000823e601f3d908101601f19168201604052611e7d919081019061367b565b905060008160200151600b81518110611e9857611e98613770565b60200260200101519050600082604001519050611eb23390565b6001600160a01b0316604084015281611ee8576040516367bd44b960e11b8152600481018690526024810183905260440161064d565b81341015611f195760405163186691af60e31b8152600481018690526024810183905234604482015260640161064d565b6001600160a01b038116331415611f5b5760405163a33405a560e01b8152600481018690523360248201526001600160a01b038216604482015260640161064d565b60008360200151600b81518110611f7457611f74613770565b602090810291909101015260405163ed2123c360e01b81526001600160a01b0385169063ed2123c390611faf908690899030906004016138a4565b600060405180830381600087803b158015611fc957600080fd5b505af1158015611fdd573d6000803e3d6000fd5b50505050836001600160a01b031663beabacc830611ff83390565b886040518463ffffffff1660e01b8152600401612017939291906135ba565b600060405180830381600087803b15801561203157600080fd5b505af1158015612045573d6000803e3d6000fd5b505050506000816001600160a01b03168360405160006040518083038185875af1925050503d8060008114612096576040519150601f19603f3d011682016040523d82523d6000602084013e61209b565b606091505b5090915050806120c757604051634482712560e11b81523360048201526024810184905260440161064d565b6001600160a01b03821686336001600160a01b03167f3df9034dc7c1f5fc54b10ced70e3e64892bcad699a4ec43bffc09113089771ae8660405161210d91815260200190565b60405180910390a4505050505050565b6000600883836040516121319291906138d7565b908152602001604051809103902054905092915050565b61215061244a565b6001600160a01b0381166121b55760405162461bcd60e51b815260206004820152602660248201527f4f776e61626c653a206e6577206f776e657220697320746865207a65726f206160448201526564647265737360d01b606482015260840161064d565b610b2f816124b2565b60045481906001600160a01b0316336040516331a9108f60e11b8152600481018490526001600160a01b0391821691831690636352211e90602401602060405180830381865afa158015612216573d6000803e3d6000fd5b505050506040513d601f19601f8201168201806040525081019061223a919061359d565b6001600160a01b03161461224e57336105c7565b6004805460405163183c06e560e31b81529182018590526001600160a01b031690600090829063c1e0372890602401600060405180830381865afa15801561229a573d6000803e3d6000fd5b505050506040513d6000823e601f3d908101601f191682016040526122c2919081019061367b565b905080602001516004815181106122db576122db613770565b60200260200101516000141561230d57604051631ed712d560e11b81523360048201526024810186905260440161064d565b6000816020015160048151811061232657612326613770565b602090810291909101015260405163ed2123c360e01b81526001600160a01b0383169063ed2123c390612361908490899033906004016138a4565b600060405180830381600087803b15801561237b57600080fd5b505af115801561238f573d6000803e3d6000fd5b505050508461239b3390565b6001600160a01b03167fc04dbb3d4858dac03ad3597230df1f8983693a574e4bcfad6b9fb21c8959ba0c60405160405180910390a35050505050565b60006001600160e01b03198216635a05180f60e01b1480610535575061053582612b21565b610b2f8133612b56565b6124108282612baf565b60008281526003602052604090206109e79082612c35565b6124328282612c4a565b60008281526003602052604090206109e79082612cb1565b6000546001600160a01b0316331461139f5760405162461bcd60e51b815260206004820181905260248201527f4f776e61626c653a2063616c6c6572206973206e6f7420746865206f776e6572604482015260640161064d565b60006105358260ff16612cc6565b600080546001600160a01b038381166001600160a01b0319831681178455604051919092169283917f8be0079c531659141344cd1fd0a4f28419497f9722a3daafe3b4186f6b6457e09190a35050565b60006113b98383612d75565b6000610535825490565b6002600154141561256b5760405162461bcd60e51b815260206004820152601f60248201527f5265656e7472616e637947756172643a207265656e7472616e742063616c6c00604482015260640161064d565b6002600155565b6040805160148082526102a08201909252606091600091906020820161028080368337019050506006546040805160a08101825260008082526020820181905260609282018390528282015260808101919091529192506001600160a01b03169060405163323eae4960e01b8152600060048201526001600160a01b0383169063323eae4990602401600060405180830381865afa158015612618573d6000803e3d6000fd5b505050506040513d6000823e601f3d908101601f191682016040526126409190810190613ba4565b905060005b826001600160a01b0316630b01ca3b6040518163ffffffff1660e01b8152600401602060405180830381865afa158015612683573d6000803e3d6000fd5b505050506040513d601f19601f820116820180604052508101906126a79190613a7c565b60ff168160ff1610156127be5760405163323eae4960e01b815260ff821660048201526001600160a01b0384169063323eae4990602401600060405180830381865afa1580156126fb573d6000803e3d6000fd5b505050506040513d6000823e601f3d908101601f191682016040526127239190810190613ba4565b5160ff1661273160646124a4565b60ff1610156127ac5760405163323eae4960e01b815260ff821660048201526001600160a01b0384169063323eae4990602401600060405180830381865afa158015612781573d6000803e3d6000fd5b505050506040513d6000823e601f3d908101601f191682016040526127a99190810190613ba4565b91505b806127b681613a5c565b915050612645565b506040810151805181906000906127d7576127d7613770565b6020026020010151846000815181106127f2576127f2613770565b602002602001019060ff16908160ff16815250508060018151811061281957612819613770565b60200260200101518460018151811061283457612834613770565b602002602001019060ff16908160ff16815250508060028151811061285b5761285b613770565b60200260200101518460028151811061287657612876613770565b602002602001019060ff16908160ff16815250508060038151811061289d5761289d613770565b6020026020010151846003815181106128b8576128b8613770565b602002602001019060ff16908160ff1681525050806004815181106128df576128df613770565b6020026020010151846004815181106128fa576128fa613770565b602002602001019060ff16908160ff16815250508060058151811061292157612921613770565b60200260200101518460058151811061293c5761293c613770565b602002602001019060ff16908160ff1681525050858460088151811061296457612964613770565b602002602001019060ff16908160ff168152505081602001518460098151811061299057612990613770565b60ff909216602092830291909101909101525091949350505050565b6040805160148082526102a0820190925260609160009190602082016102808036833701905050905042816000815181106129e9576129e9613770565b6020026020010181815250508381600181518110612a0957612a09613770565b6020026020010181815250504281600281518110612a2957612a29613770565b6020026020010181815250506008604051612a43906138e7565b90815260200160405180910390205481600681518110612a6557612a65613770565b6020026020010181815250508260ff1681600781518110612a8857612a88613770565b602002602001018181525050600181600981518110612aa957612aa9613770565b6020908102919091010152604051686d6178456e6572677960b81b815260089060090190815260200160405180910390205481600a81518110612aee57612aee613770565b602002602001018181525050600081600b81518110612b0f57612b0f613770565b60209081029190910101529392505050565b60006001600160e01b03198216637965db0b60e01b148061053557506301ffc9a760e01b6001600160e01b0319831614610535565b612b6082826113c0565b610a6657612b6d81612d9f565b612b78836020612db1565b604051602001612b89929190613c6b565b60408051601f198184030181529082905262461bcd60e51b825261064d91600401613ce0565b612bb982826113c0565b610a665760008281526002602090815260408083206001600160a01b03851684529091529020805460ff19166001179055612bf13390565b6001600160a01b0316816001600160a01b0316837f2f8788117e7eff1d82e926ec794901d17c78024a50270940304540a733656f0d60405160405180910390a45050565b60006113b9836001600160a01b038416612f4c565b612c5482826113c0565b15610a665760008281526002602090815260408083206001600160a01b0385168085529252808320805460ff1916905551339285917ff6391f5c32d9c69d2a47ea670b442974b53935d1edc7fd64eb21e047a839171b9190a45050565b60006113b9836001600160a01b038416612f9b565b60408051646e6f6e636560d81b8152600860058201528151908190036025018120544260208301526bffffffffffffffffffffffff193360601b16928201929092526054810191909152600090819083906074016040516020818303038152906040528051906020012060001c612d3d9190613d13565b90506008604051612d5990646e6f6e636560d81b815260050190565b9081526040519081900360200190208054600101905592915050565b6000826000018281548110612d8c57612d8c613770565b9060005260206000200154905092915050565b60606105356001600160a01b03831660145b60606000612dc0836002613d35565b612dcb90600261388c565b6001600160401b03811115612de257612de2613108565b6040519080825280601f01601f191660200182016040528015612e0c576020820181803683370190505b509050600360fc1b81600081518110612e2757612e27613770565b60200101906001600160f81b031916908160001a905350600f60fb1b81600181518110612e5657612e56613770565b60200101906001600160f81b031916908160001a9053506000612e7a846002613d35565b612e8590600161388c565b90505b6001811115612efd576f181899199a1a9b1b9c1cb0b131b232b360811b85600f1660108110612eb957612eb9613770565b1a60f81b828281518110612ecf57612ecf613770565b60200101906001600160f81b031916908160001a90535060049490941c93612ef681613d54565b9050612e88565b5083156113b95760405162461bcd60e51b815260206004820181905260248201527f537472696e67733a20686578206c656e67746820696e73756666696369656e74604482015260640161064d565b6000818152600183016020526040812054612f9357508154600181810184556000848152602080822090930184905584548482528286019093526040902091909155610535565b506000610535565b60008181526001830160205260408120548015613084576000612fbf6001836139fd565b8554909150600090612fd3906001906139fd565b9050818114613038576000866000018281548110612ff357612ff3613770565b906000526020600020015490508087600001848154811061301657613016613770565b6000918252602080832090910192909255918252600188019052604090208390555b855486908061304957613049613d6b565b600190038181906000526020600020016000905590558560010160008681526020019081526020016000206000905560019350505050610535565b6000915050610535565b6000602082840312156130a057600080fd5b81356001600160e01b0319811681146113b957600080fd5b60ff81168114610b2f57600080fd5b600080604083850312156130da57600080fd5b82356130e5816130b8565b946020939093013593505050565b6001600160a01b0381168114610b2f57600080fd5b634e487b7160e01b600052604160045260246000fd5b604051606081016001600160401b038111828210171561314057613140613108565b60405290565b60405160e081016001600160401b038111828210171561314057613140613108565b60405160a081016001600160401b038111828210171561314057613140613108565b604051601f8201601f191681016001600160401b03811182821017156131b2576131b2613108565b604052919050565b60006001600160401b038211156131d3576131d3613108565b50601f01601f191660200190565b60006131f46131ef846131ba565b61318a565b905082815283838301111561320857600080fd5b828260208301376000602084830101529392505050565b6000806000806080858703121561323557600080fd5b8435613240816130f3565b93506020850135613250816130f3565b92506040850135915060608501356001600160401b0381111561327257600080fd5b8501601f8101871361328357600080fd5b613292878235602084016131e1565b91505092959194509250565b6000602082840312156132b057600080fd5b5035919050565b600080604083850312156132ca57600080fd5b8235915060208301356132dc816130f3565b809150509250929050565b60008083601f8401126132f957600080fd5b5081356001600160401b0381111561331057600080fd5b60208301915083602082850101111561332857600080fd5b9250929050565b60008060006040848603121561334457600080fd5b83356001600160401b0381111561335a57600080fd5b613366868287016132e7565b909790965060209590950135949350505050565b600081518084526020808501945080840160005b838110156133aa5781518752958201959082019060010161338e565b509495945050505050565b805160608084528151908401819052600091602091908201906080860190845b818110156133f457835160ff16835292840192918401916001016133d5565b50508285015191508581038387015261340d818361337a565b6040958601516001600160a01b0316969095019590955250919392505050565b6000602080830181845280855180835260408601915060408160051b870101925083870160005b8281101561348257603f198886030184526134708583516133b5565b94509285019290850190600101613454565b5092979650505050505050565b6000602082840312156134a157600080fd5b81356001600160401b038111156134b757600080fd5b8201601f810184136134c857600080fd5b6134d7848235602084016131e1565b949350505050565b600080604083850312156134f257600080fd5b50508035926020909101359150565b6000806040838503121561351457600080fd5b823561351f816130b8565b915060208301356132dc816130b8565b6000806020838503121561354257600080fd5b82356001600160401b0381111561355857600080fd5b613564858286016132e7565b90969095509350505050565b60006020828403121561358257600080fd5b81356113b9816130f3565b8051613598816130f3565b919050565b6000602082840312156135af57600080fd5b81516113b9816130f3565b6001600160a01b039384168152919092166020820152604081019190915260600190565b60006001600160401b038211156135f7576135f7613108565b5060051b60200190565b8051613598816130b8565b600082601f83011261361d57600080fd5b8151602061362d6131ef836135de565b82815260059290921b8401810191818101908684111561364c57600080fd5b8286015b84811015613670578051613663816130b8565b8352918301918301613650565b509695505050505050565b6000602080838503121561368e57600080fd5b82516001600160401b03808211156136a557600080fd5b90840190606082870312156136b957600080fd5b6136c161311e565b8251828111156136d057600080fd5b6136dc8882860161360c565b82525083830151828111156136f057600080fd5b83019150601f8201871361370357600080fd5b81516137116131ef826135de565b81815260059190911b8301850190858101908983111561373057600080fd5b938601935b8285101561374e57845182529386019390860190613735565b838701525061376190506040840161358d565b60408201529695505050505050565b634e487b7160e01b600052603260045260246000fd5b634e487b7160e01b600052601160045260246000fd5b600181815b808511156137d75781600019048211156137bd576137bd613786565b808516156137ca57918102915b93841c93908002906137a1565b509250929050565b6000826137ee57506001610535565b816137fb57506000610535565b8160018114613811576002811461381b57613837565b6001915050610535565b60ff84111561382c5761382c613786565b50506001821b610535565b5060208310610133831016604e8410600b841016171561385a575081810a610535565b613864838361379c565b806000190482111561387857613878613786565b029392505050565b60006113b983836137df565b6000821982111561389f5761389f613786565b500190565b6060815260006138b760608301866133b5565b6020830194909452506001600160a01b0391909116604090910152919050565b8183823760009101908152919050565b701b995e1d151bdad95b9259151bd35a5b9d607a1b815260110190565b805161ffff8116811461359857600080fd5b8051801515811461359857600080fd5b60006020828403121561393857600080fd5b81516001600160401b038082111561394f57600080fd5b9083019060e0828603121561396357600080fd5b61396b613146565b61397483613904565b815261398260208401613601565b602082015260408301518281111561399957600080fd5b6139a58782860161360c565b6040830152506060830151828111156139bd57600080fd5b6139c98782860161360c565b6060830152506080830151608082015260a083015160a08201526139ef60c08401613916565b60c082015295945050505050565b600082821015613a0f57613a0f613786565b500390565b600060ff821660ff841680821015613a2e57613a2e613786565b90039392505050565b600060ff821660ff84168060ff03821115613a5457613a54613786565b019392505050565b600060ff821660ff811415613a7357613a73613786565b60010192915050565b600060208284031215613a8e57600080fd5b81516113b9816130b8565b600061ffff80831681851681830481118215151615613aba57613aba613786565b02949350505050565b6001600160a01b038416815260606020808301829052845191830182905260009185820191906080850190845b81811015613b0f57845160ff1683529383019391830191600101613af0565b50508481036040860152613b23818761337a565b98975050505050505050565b60005b83811015613b4a578181015183820152602001613b32565b83811115613b59576000848401525b50505050565b600082601f830112613b7057600080fd5b8151613b7e6131ef826131ba565b818152846020838601011115613b9357600080fd5b6134d7826020830160208701613b2f565b600060208284031215613bb657600080fd5b81516001600160401b0380821115613bcd57600080fd5b9083019060a08286031215613be157600080fd5b613be9613168565b8251613bf4816130b8565b81526020830151613c04816130b8565b6020820152604083015182811115613c1b57600080fd5b613c278782860161360c565b604083015250613c3960608401613916565b6060820152608083015182811115613c5057600080fd5b613c5c87828601613b5f565b60808301525095945050505050565b7f416363657373436f6e74726f6c3a206163636f756e7420000000000000000000815260008351613ca3816017850160208801613b2f565b7001034b99036b4b9b9b4b733903937b6329607d1b6017918401918201528351613cd4816028840160208801613b2f565b01602801949350505050565b6020815260008251806020840152613cff816040850160208701613b2f565b601f01601f19169190910160400192915050565b600082613d3057634e487b7160e01b600052601260045260246000fd5b500690565b6000816000190483118215151615613d4f57613d4f613786565b500290565b600081613d6357613d63613786565b506000190190565b634e487b7160e01b600052603160045260246000fdfea2646970667358221220929e87e2efdbefd8b38436bd9837cc8b7fc9c84ce73ea98398dc9ee7a99c068664736f6c634300080b0033",
  "immutableReferences": {},
  "source": "// SPDX-License-Identifier: MIT\n// Delegation contract\npragma solidity ^0.8.0;\n\nimport \"@openzeppelin/contracts/access/Ownable.sol\";\nimport \"@openzeppelin/contracts/security/ReentrancyGuard.sol\";\nimport \"@openzeppelin/contracts/utils/math/SafeMath.sol\";\nimport \"@openzeppelin/contracts/token/ERC721/IERC721Receiver.sol\";\nimport \"@openzeppelin/contracts/access/AccessControlEnumerable.sol\";\n\nimport \"../immutable/Items.sol\";\nimport \"../immutable/Class.sol\";\nimport \"../immutable/Quest.sol\";\nimport \"../immutable/Hero.sol\";\n\nimport \"../library/LClass.sol\";\nimport \"../library/LHero.sol\";\nimport \"../library/LItems.sol\";\nimport \"../library/LQuest.sol\";\n\n//enum Numbers {strong,endurance,concentration,agility,charisma,stealth,exp,level,faction,classe}\n\ncontract ProxyHero is Ownable, ReentrancyGuard, IERC721Receiver, AccessControlEnumerable {\n  using SafeMath for uint;\n  error NotEnoughEth(uint256 price, uint256 weiSended, uint256 tokenId, uint256 quantity);\n  error NotEnoughEthHero(uint256 price, uint256 weiSended);\n  error NotRemainingHero(uint256 tokenLimit, uint256 nextTokenIdToMint);\n  error NotYourToken(address sender, address ownerOfToken, uint256 tokenId);\n  error AlreadyInQuest(\n    address sender,\n    uint256 questId,\n    uint256 currentQuestId,\n    uint256 tokenId\n  );\n  error QuestNotFinished(\n    uint256 blockTimestamp,\n    uint256 heroQuestTime,\n    uint256 currentQuestTime,\n    uint256 tokenId\n  );\n  error NotEnoughExperience(\n    uint256 experienceHero,\n    uint256 experienceNeeded,\n    uint256 tokenId\n  );\n  error NotAStat(uint256 statToLvlUp, uint256 tokenId);\n  error SellMyosSendEth(address to, uint value);\n  error TokenNotInSales(uint256 tokenId, uint256 price);\n  error NotEnoughEthPurchase(uint256 tokenId, uint256 price, uint256 value);\n  error AlreadyOwned(uint256 tokenId, address sender, address owner);\n  error NotEnoughEnergy(address sender, uint256 questId, uint256 energy, uint256 tokenId);\n  error NotInQuest(address sender, uint256 tokenId);\n\n  event UpdateParamContract(address indexed owner, string indexed key, uint256 value);\n  event startedQuest(address indexed sender, uint256 indexed tokenId, uint256 indexed questId);\n  event canceledQuest(address indexed sender, uint256 indexed tokenId);\n  event completedQuest(address indexed sender, uint256 indexed tokenId, uint256 indexed questId);\n  event levelupped(address indexed sender, uint256 indexed tokenId, uint256 statToLvlUp);\n  event puttedHeroInSell(address indexed sender, uint256 indexed tokenId, uint256 indexed price);\n  event canceledHeroInSell(address indexed sender, uint256 indexed tokenId);\n  event purchasedHeroInSell(address indexed sender, uint256 indexed tokenId, uint256 price, address indexed owner);\n  \n  address private addressHero;\n  address private addressQuest;\n  address private addressClass;\n  address private addressItem;\n  mapping(string => uint256) public paramsContract;\n\n  uint256 private constant utilMathMultiply = 10000000;\n\n  constructor(\n    address _addressHero,\n    address _addressQuest,\n    address _addressClass,\n    address _addressItem\n  ) {\n    addressHero = _addressHero;\n    addressQuest = _addressQuest;\n    addressClass = _addressClass;\n    addressItem = _addressItem;\n    paramsContract[\"nextTokenIdToMint\"] = Hero(addressHero).getParamsContract(\n      \"nextTokenIdToMint\"\n    );\n    paramsContract[\"price\"] = 100000000000000000; //dev:100000000000000000000 == 100 eth\n    paramsContract[\"totalPnt\"] = 5;\n    paramsContract[\"tokenLimit\"] = 10000;\n    paramsContract[\"nonce\"] = 0;\n    paramsContract[\"expForLevelUp\"] = 100;\n    paramsContract[\"maxEnergy\"] = 100;\n    paramsContract[\"gainEnergyByLevel\"] = 10;\n  }\n\n  modifier isYourToken(uint256 tokenId) {\n    Hero contrat = Hero(addressHero);\n    if (contrat.ownerOf(tokenId) != _msgSender())\n      revert NotYourToken({\n        sender: _msgSender(),\n        ownerOfToken: contrat.ownerOf(tokenId),\n        tokenId: tokenId\n      });\n    _;\n  }\n\n  function unsafeInc(uint x) private pure returns (uint) {\n    unchecked {\n      return x + 1;\n    }\n  }\n\n  ///@notice Update a parameter of contract\n  ///@param key key index of params contract you want set\n  ///@param value value of params contract you want set\n  function setParamsContract(string calldata key, uint256 value) external onlyOwner {\n    paramsContract[key] = value;\n    emit UpdateParamContract(_msgSender(), key, value);\n  }\n\n  ///@notice Return a parameter of contract by key index\n  ///@param key key index of param your want to return\n  ///@return param value of parameter contract\n  function getParamsContract(string calldata key) external view returns (uint256) {\n    return paramsContract[key];\n  }\n\n  ///@notice Update a parameter of hero contract\n  ///@param key key index of params contract you want set\n  ///@param value value of params contract you want set\n  function setParamsHeroContract(string calldata key, uint256 value) internal {\n    Hero contrat = Hero(addressHero);\n    contrat.setParamsContract(key, value);\n  }\n\n  ///@notice mint a hero for a value price and generate stats and parameterr\n  ///@param generation generation of creation hero\n  ///@param faction faction with class and stat linked\n  function mintHero(uint8 generation, uint8 faction) external payable nonReentrant {\n    require(msg.value >= paramsContract[\"price\"], \"More ETH required\");\n    if (msg.value < paramsContract[\"price\"])\n      revert NotEnoughEthHero({ price: paramsContract[\"price\"], weiSended: msg.value });\n    if (paramsContract[\"tokenLimit\"] <= paramsContract[\"nextTokenIdToMint\"])\n      revert NotRemainingHero({\n        tokenLimit: paramsContract[\"tokenLimit\"],\n        nextTokenIdToMint: paramsContract[\"nextTokenIdToMint\"]\n      });\n    uint8[] memory randomParts = randomStats(faction);\n    uint256[] memory randomParams = randomParameters(msg.value, generation);\n    unchecked {\n      paramsContract[\"nextTokenIdToMint\"]++;\n    }\n\n    Hero contrat = Hero(addressHero);\n    contrat.mint(_msgSender(), randomParts, randomParams);\n  }\n\n  ///@notice generate stats for your hero in uint8\n  ///@param faction faction of hero generated\n  ///@return randomParts array of stats uint8 for hero\n  function randomStats(uint8 faction) internal virtual returns (uint8[] memory) {\n    uint8[] memory randomParts = new uint8[](20);\n\n    Class classContrat = Class(addressClass);\n    ClassLib.Classes memory class;\n    class = classContrat.getClassDetails(0);\n    for (uint8 index = 0; index < classContrat.getClassCount(); index++) {\n      if (random(100) < classContrat.getClassDetails(index).rarity)\n        class = classContrat.getClassDetails(index);\n    }\n    uint8[] memory stats = class.stats;\n\n    randomParts[0] = stats[0]; //Strong\n    randomParts[1] = stats[1]; //Stamina\n    randomParts[2] = stats[2]; //Focus\n    randomParts[3] = stats[3]; //Swiftness\n    randomParts[4] = stats[4]; //Charisma\n    randomParts[5] = stats[5]; //Stealth\n\n    randomParts[8] = faction; //faction\n    randomParts[9] = class.id; //class\n\n    return randomParts;\n  }\n\n  ///@notice generate parameter for your hero in uint256\n  ///@param price price of buying hero\n  ///@param generation generation fo hero\n  ///@return randomParams array of parameters uint256 for hero\n  function randomParameters(\n    uint256 price,\n    uint8 generation\n  ) internal virtual returns (uint256[] memory) {\n    uint256[] memory randomParams = new uint256[](20);\n    randomParams[0] = block.timestamp; //date de cration\n    randomParams[1] = price; //prix d'achat\n    randomParams[2] = block.timestamp; //date de la drnire action (il y a une heure) permettant de participer a des missions\n    //randomParams[3] = 0;//Mission choisis (si 0 aucune current mission)\n    //randomParams[4] = 0;//seconds pour finir la mission\n    //randomParams[5] = 0;//difficult de la qute (dtermine l'exp gagn, et les objets % gagn)\n    //randomParams[6] = 0;//last quest succeded\n    randomParams[6] = paramsContract[\"nextTokenIdToMint\"]; //tokenId\n    randomParams[7] = generation; //type\n    //randomParams[8] = 0;//exp\n    randomParams[9] = 1; //level\n    randomParams[10] = paramsContract[\"maxEnergy\"];\n    randomParams[11] = 0; //priceInSell\n    return randomParams;\n  }\n\n  ///@notice start a quest by id for one hero token\n  ///@param tokenId id of token you want to launch in quest\n  ///@param questId id of quest you want to start\n  function startQuest(uint256 tokenId, uint256 questId) external isYourToken(tokenId) {\n    Hero contrat = Hero(addressHero);\n    Quest questContrat = Quest(addressQuest);\n    QuestLib.QuestStruct memory questTemp = questContrat.getQuestDetails(questId);\n    HeroLib.Token memory hero = contrat.getTokenDetails(tokenId);\n    if (hero.params256[4] != 0)\n      revert AlreadyInQuest({\n        sender: _msgSender(),\n        questId: questId,\n        currentQuestId: hero.params256[4],\n        tokenId: tokenId\n      });\n    uint256 energy = block.timestamp - hero.params256[2];\n    if (energy > hero.params256[10]) energy = hero.params256[10];\n    if (energy < questTemp.time)\n      revert NotEnoughEnergy({\n        sender: _msgSender(),\n        questId: questId,\n        energy: energy,\n        tokenId: tokenId\n      });\n    hero.params256[3] = questId;\n    hero.params256[4] = questTemp.time;\n    contrat.updateToken(hero, tokenId, _msgSender());\n    emit startedQuest(_msgSender(), tokenId, questId);\n  }\n\n  ///@notice cancel a quest by id for one hero token\n  ///@param tokenId id of token you want to launch in quest\n  function cancelQuest(uint256 tokenId) external isYourToken(tokenId) {\n    Hero contrat = Hero(addressHero);\n    HeroLib.Token memory hero = contrat.getTokenDetails(tokenId);\n    if (hero.params256[4] == 0)\n      revert NotInQuest({ sender: _msgSender(), tokenId: tokenId });\n    hero.params256[4] = 0;\n    contrat.updateToken(hero, tokenId, _msgSender());\n    emit canceledQuest(_msgSender(), tokenId);\n  }\n\n  ///@notice Validation of the quest at the end of a quest\n  ///@param tokenId id of token you want to complete quest\n  function completeQuest(uint256 tokenId) external isYourToken(tokenId) {\n    Hero contrat = Hero(addressHero);\n    HeroLib.Token memory hero = contrat.getTokenDetails(tokenId);\n\n    Quest questContrat = Quest(addressQuest);\n    QuestLib.QuestStruct memory questTemp = questContrat.getQuestDetails(\n      hero.params256[3]\n    );\n    if (block.timestamp - hero.params256[2] <= (questTemp.time))\n      revert QuestNotFinished({\n        blockTimestamp: block.timestamp,\n        heroQuestTime: hero.params256[2],\n        currentQuestTime: questTemp.time,\n        tokenId: tokenId\n      });\n    uint8 malus = 0;\n    for (uint8 index = 0; index < questTemp.stats.length; index++) {\n      if (questTemp.stats[index] > hero.params8[index]) {\n        malus += questTemp.stats[index] - hero.params8[index];\n      }\n    }\n    ///SUCCESS QUEST\n    uint256 percentSuccess = random(100 - malus);\n    hero.params256[7] = percentSuccess;\n    if (percentSuccess > questTemp.percentDifficulty) {\n      hero.params256[6] = 1;\n      hero.params256[8] += (questTemp.exp * questContrat.getMultiplicateurExp());\n\n      Items itemContrat = Items(addressItem);\n\n      for (uint256 index = 0; index < questTemp.items.length; index = unsafeInc(index)) {\n        itemContrat.mint(_msgSender(), questTemp.items[index], 1);\n      }\n      //recuperer les items dans la quest !IMPORTANT\n      /*for (uint256 index = 0; index < countItems;  index = unsafeInc(index) {\n        Items itemtemp = Items(items[index]);\n        if (random256(100000) > itemtemp.getRarity()) {\n          itemtemp.mint(1, _msgSender());\n        }\n      }*/\n    } else {\n      hero.params256[6] = 0;\n    }\n    hero.params256[2] = block.timestamp;\n    hero.params256[4] = 0;\n\n    contrat.updateToken(hero, tokenId, _msgSender());\n    emit completedQuest(_msgSender(), tokenId, hero.params256[3]);\n  }\n\n  ///@notice level up hero and increment one stat\n  ///@param statToLvlUp id of stat you want increment\n  ///@param tokenId id of token you want level up\n  function levelUp(uint8 statToLvlUp, uint256 tokenId) external isYourToken(tokenId) {\n    Hero contrat = Hero(addressHero);\n    HeroLib.Token memory hero = contrat.getTokenDetails(tokenId);\n    if (\n      hero.params256[8] <= (100 + (paramsContract[\"expForLevelUp\"] ** hero.params256[9]))\n    )\n      revert NotEnoughExperience({\n        experienceHero: hero.params256[8],\n        experienceNeeded: (100 + (paramsContract[\"expForLevelUp\"] ** hero.params256[9])),\n        tokenId: tokenId\n      });\n    if (statToLvlUp < 0 || statToLvlUp > 5)\n      revert NotAStat({ statToLvlUp: statToLvlUp, tokenId: tokenId });\n    unchecked {\n      hero.params8[statToLvlUp]++;\n    }\n    hero.params256[8] = 0;\n    unchecked {\n      hero.params256[9]++;\n    }\n    hero.params256[10] += paramsContract[\"gainEnergyByLevel\"];\n\n    contrat.updateToken(hero, tokenId, _msgSender());\n    emit levelupped(_msgSender(), tokenId, statToLvlUp);\n  }\n\n  /****************************************\n    UTILS\n     ****************************************/\n\n  ///@notice return random number\n  ///@param maxNumber max number random to return\n  ///@return randomNumber random uint256 returned\n  function random(uint8 maxNumber) internal returns (uint8) {\n    return uint8(random256(uint8(maxNumber)));\n  }\n\n  ///@notice return random number\n  ///@param maxNumber max number random to return\n  ///@return randomNumber random uint256 returned\n  function random256(uint256 maxNumber) internal returns (uint256) {\n    uint256 randomNumber = uint256(\n      keccak256(abi.encodePacked(block.timestamp, _msgSender(), paramsContract[\"nonce\"]))\n    ) % maxNumber;\n    unchecked {\n      paramsContract[\"nonce\"]++;\n    }\n    return randomNumber;\n  }\n\n  ///@notice put hero in sell market\n  ///@param tokenId id key of token you want to putt in sell\n  ///@param price price of token put in selled\n  function putHeroInSell(uint256 tokenId, uint256 price) external isYourToken(tokenId) {\n    Hero contrat = Hero(addressHero);\n    address owner = contrat.ownerOf(tokenId);\n    HeroLib.Token memory hero = contrat.getTokenDetails(tokenId);\n    hero.params256[11] = price;\n    hero.owner = _msgSender();\n    contrat.updateToken(hero, tokenId, _msgSender());\n    contrat.transfer(owner, address(this), tokenId);\n    emit puttedHeroInSell(_msgSender(), tokenId, price);\n  }\n\n  ///@notice cancel hero in sell market\n  ///@param tokenId id key of token you want to putt in sell\n  function cancelHeroInSell(uint256 tokenId) external {\n    Hero contrat = Hero(addressHero);\n    HeroLib.Token memory hero = contrat.getTokenDetails(tokenId);\n    address owner = hero.owner;\n    if (owner != _msgSender())\n      revert NotYourToken({\n        sender: _msgSender(),\n        ownerOfToken: owner,\n        tokenId: tokenId\n      });\n    contrat.transfer(address(this), owner, tokenId);\n    emit canceledHeroInSell(_msgSender(), tokenId);\n  }\n\n  ///@notice return all heroes in market sell\n  ///@return tokens return structure of heroes\n  function getHerosInSell() external view returns (HeroLib.Token[] memory) {\n    Hero contrat = Hero(addressHero);\n    uint256 lengthHeroInSell;\n    for (uint256 i = 0; i < paramsContract[\"nextTokenIdToMint\"]; i = unsafeInc(i)) {\n      HeroLib.Token memory hero = contrat.getTokenDetails(i);\n      if (hero.params256[11] > 0) {\n        unchecked {\n          lengthHeroInSell++;\n        }\n      }\n    }\n    HeroLib.Token[] memory result = new HeroLib.Token[](lengthHeroInSell);\n    uint256 resultIndex;\n\n    for (uint256 i = 0; i < paramsContract[\"nextTokenIdToMint\"]; i = unsafeInc(i)) {\n      HeroLib.Token memory hero = contrat.getTokenDetails(i);\n      if (hero.params256[11] > 0) {\n        result[resultIndex] = hero;\n        unchecked {\n          resultIndex++;\n        }\n      }\n    }\n    return result;\n  }\n\n  ///@notice purchase a token previously put in sell\n  ///@param tokenId id of token you want buy\n  function purchase(uint256 tokenId) external payable {\n    Hero contrat = Hero(addressHero);\n    HeroLib.Token memory hero = contrat.getTokenDetails(tokenId);\n    uint256 price = hero.params256[11];\n    address owner = hero.owner;\n    hero.owner = _msgSender();\n    if (price <= 0) revert TokenNotInSales({ tokenId: tokenId, price: price });\n    if (msg.value < price)\n      revert NotEnoughEthPurchase({ tokenId: tokenId, price: price, value: msg.value });\n    if (owner == _msgSender())\n      revert AlreadyOwned({ tokenId: tokenId, sender: _msgSender(), owner: owner });\n\n    hero.params256[11] = 0;\n    contrat.updateToken(hero, tokenId, address(this));\n\n    contrat.transfer(address(this), _msgSender(), tokenId);\n\n    (bool sent, ) = owner.call{ value: price }(\"\");\n    if (sent == false) revert SellMyosSendEth({ to: _msgSender(), value: price });\n    emit purchasedHeroInSell(_msgSender(), tokenId, price, owner);\n  }\n\n  ///@notice Withdraw funds of this contract to an address wallet\n  function withdraw() external onlyOwner {\n    payable(_msgSender()).transfer(address(this).balance);\n  }\n\n  /**\n   * Always returns `IERC721Receiver.onERC721Received.selector`.\n   */\n  function onERC721Received(\n    address,\n    address,\n    uint256,\n    bytes memory\n  ) public virtual override returns (bytes4) {\n    return this.onERC721Received.selector;\n  }\n\n  function supportsInterface(bytes4 interfaceId)\n    public\n    view\n    virtual\n    override(AccessControlEnumerable)\n    returns (bool)\n  {\n    return\n      interfaceId == type(IERC721Receiver).interfaceId ||\n      super.supportsInterface(interfaceId);\n  }\n\n  /**\n    a finaliser\n     */\n  /*function calculPriceSupply() public{\n        Hero contrat = Hero(addressHero);\n        uint totalSupply = contrat.getParamsContract(\"totalSupply\");\n        //priceInUsd = (item.price/(10**18)) * (latestPrice/10**8)\n    }*/\n}\n",
  "sourcePath": "/home/solid-solution/Bureau/HOMEWORK/MYOS/contracts/proxy/ProxyHero.sol",
  "compiler": {
    "name": "solc",
    "version": "0.8.11+commit.d7f03943.Emscripten.clang"
  },
  "schemaVersion": "3.4.10",
  "updatedAt": "2022-11-26T23:37:23.739Z",
  "networkType": "ethereum",
  "devdoc": {
    "kind": "dev",
    "methods": {
      "cancelHeroInSell(uint256)": {
        "params": {
          "tokenId": "id key of token you want to putt in sell"
        }
      },
      "cancelQuest(uint256)": {
        "params": {
          "tokenId": "id of token you want to launch in quest"
        }
      },
      "completeQuest(uint256)": {
        "params": {
          "tokenId": "id of token you want to complete quest"
        }
      },
      "getHerosInSell()": {
        "returns": {
          "_0": "tokens return structure of heroes"
        }
      },
      "getParamsContract(string)": {
        "params": {
          "key": "key index of param your want to return"
        },
        "returns": {
          "_0": "param value of parameter contract"
        }
      },
      "getRoleAdmin(bytes32)": {
        "details": "Returns the admin role that controls `role`. See {grantRole} and {revokeRole}. To change a role's admin, use {_setRoleAdmin}."
      },
      "getRoleMember(bytes32,uint256)": {
        "details": "Returns one of the accounts that have `role`. `index` must be a value between 0 and {getRoleMemberCount}, non-inclusive. Role bearers are not sorted in any particular way, and their ordering may change at any point. WARNING: When using {getRoleMember} and {getRoleMemberCount}, make sure you perform all queries on the same block. See the following https://forum.openzeppelin.com/t/iterating-over-elements-on-enumerableset-in-openzeppelin-contracts/2296[forum post] for more information."
      },
      "getRoleMemberCount(bytes32)": {
        "details": "Returns the number of accounts that have `role`. Can be used together with {getRoleMember} to enumerate all bearers of a role."
      },
      "grantRole(bytes32,address)": {
        "details": "Grants `role` to `account`. If `account` had not been already granted `role`, emits a {RoleGranted} event. Requirements: - the caller must have ``role``'s admin role. May emit a {RoleGranted} event."
      },
      "hasRole(bytes32,address)": {
        "details": "Returns `true` if `account` has been granted `role`."
      },
      "levelUp(uint8,uint256)": {
        "params": {
          "statToLvlUp": "id of stat you want increment",
          "tokenId": "id of token you want level up"
        }
      },
      "mintHero(uint8,uint8)": {
        "params": {
          "faction": "faction with class and stat linked",
          "generation": "generation of creation hero"
        }
      },
      "owner()": {
        "details": "Returns the address of the current owner."
      },
      "purchase(uint256)": {
        "params": {
          "tokenId": "id of token you want buy"
        }
      },
      "putHeroInSell(uint256,uint256)": {
        "params": {
          "price": "price of token put in selled",
          "tokenId": "id key of token you want to putt in sell"
        }
      },
      "renounceOwnership()": {
        "details": "Leaves the contract without owner. It will not be possible to call `onlyOwner` functions anymore. Can only be called by the current owner. NOTE: Renouncing ownership will leave the contract without an owner, thereby removing any functionality that is only available to the owner."
      },
      "renounceRole(bytes32,address)": {
        "details": "Revokes `role` from the calling account. Roles are often managed via {grantRole} and {revokeRole}: this function's purpose is to provide a mechanism for accounts to lose their privileges if they are compromised (such as when a trusted device is misplaced). If the calling account had been revoked `role`, emits a {RoleRevoked} event. Requirements: - the caller must be `account`. May emit a {RoleRevoked} event."
      },
      "revokeRole(bytes32,address)": {
        "details": "Revokes `role` from `account`. If `account` had been granted `role`, emits a {RoleRevoked} event. Requirements: - the caller must have ``role``'s admin role. May emit a {RoleRevoked} event."
      },
      "setParamsContract(string,uint256)": {
        "params": {
          "key": "key index of params contract you want set",
          "value": "value of params contract you want set"
        }
      },
      "startQuest(uint256,uint256)": {
        "params": {
          "questId": "id of quest you want to start",
          "tokenId": "id of token you want to launch in quest"
        }
      },
      "supportsInterface(bytes4)": {
        "details": "See {IERC165-supportsInterface}."
      },
      "transferOwnership(address)": {
        "details": "Transfers ownership of the contract to a new account (`newOwner`). Can only be called by the current owner."
      }
    },
    "version": 1
  },
  "userdoc": {
    "kind": "user",
    "methods": {
      "cancelHeroInSell(uint256)": {
        "notice": "cancel hero in sell market"
      },
      "cancelQuest(uint256)": {
        "notice": "cancel a quest by id for one hero token"
      },
      "completeQuest(uint256)": {
        "notice": "Validation of the quest at the end of a quest"
      },
      "getHerosInSell()": {
        "notice": "return all heroes in market sell"
      },
      "getParamsContract(string)": {
        "notice": "Return a parameter of contract by key index"
      },
      "levelUp(uint8,uint256)": {
        "notice": "level up hero and increment one stat"
      },
      "mintHero(uint8,uint8)": {
        "notice": "mint a hero for a value price and generate stats and parameterr"
      },
      "onERC721Received(address,address,uint256,bytes)": {
        "notice": "Always returns `IERC721Receiver.onERC721Received.selector`."
      },
      "purchase(uint256)": {
        "notice": "purchase a token previously put in sell"
      },
      "putHeroInSell(uint256,uint256)": {
        "notice": "put hero in sell market"
      },
      "setParamsContract(string,uint256)": {
        "notice": "Update a parameter of contract"
      },
      "startQuest(uint256,uint256)": {
        "notice": "start a quest by id for one hero token"
      },
      "withdraw()": {
        "notice": "Withdraw funds of this contract to an address wallet"
      }
    },
    "version": 1
  }
}