{
  "contractName": "ProxyHero",
  "abi": [
    {
      "inputs": [
        {
          "internalType": "address",
          "name": "_addressHero",
          "type": "address"
        },
        {
          "internalType": "address",
          "name": "_addressQuest",
          "type": "address"
        },
        {
          "internalType": "address",
          "name": "_addressClass",
          "type": "address"
        },
        {
          "internalType": "address",
          "name": "_addressItem",
          "type": "address"
        }
      ],
      "stateMutability": "nonpayable",
      "type": "constructor"
    },
    {
      "inputs": [
        {
          "internalType": "address",
          "name": "sender",
          "type": "address"
        },
        {
          "internalType": "uint256",
          "name": "questId",
          "type": "uint256"
        },
        {
          "internalType": "uint256",
          "name": "currentQuestId",
          "type": "uint256"
        },
        {
          "internalType": "uint256",
          "name": "tokenId",
          "type": "uint256"
        }
      ],
      "name": "AlreadyInQuest",
      "type": "error"
    },
    {
      "inputs": [
        {
          "internalType": "uint256",
          "name": "tokenId",
          "type": "uint256"
        },
        {
          "internalType": "address",
          "name": "sender",
          "type": "address"
        },
        {
          "internalType": "address",
          "name": "owner",
          "type": "address"
        }
      ],
      "name": "AlreadyOwned",
      "type": "error"
    },
    {
      "inputs": [
        {
          "internalType": "uint256",
          "name": "statToLvlUp",
          "type": "uint256"
        },
        {
          "internalType": "uint256",
          "name": "tokenId",
          "type": "uint256"
        }
      ],
      "name": "NotAStat",
      "type": "error"
    },
    {
      "inputs": [
        {
          "internalType": "address",
          "name": "sender",
          "type": "address"
        },
        {
          "internalType": "uint256",
          "name": "questId",
          "type": "uint256"
        },
        {
          "internalType": "uint256",
          "name": "energy",
          "type": "uint256"
        },
        {
          "internalType": "uint256",
          "name": "tokenId",
          "type": "uint256"
        }
      ],
      "name": "NotEnoughEnergy",
      "type": "error"
    },
    {
      "inputs": [
        {
          "internalType": "uint256",
          "name": "price",
          "type": "uint256"
        },
        {
          "internalType": "uint256",
          "name": "weiSended",
          "type": "uint256"
        },
        {
          "internalType": "uint256",
          "name": "tokenId",
          "type": "uint256"
        },
        {
          "internalType": "uint256",
          "name": "quantity",
          "type": "uint256"
        }
      ],
      "name": "NotEnoughEth",
      "type": "error"
    },
    {
      "inputs": [
        {
          "internalType": "uint256",
          "name": "price",
          "type": "uint256"
        },
        {
          "internalType": "uint256",
          "name": "weiSended",
          "type": "uint256"
        }
      ],
      "name": "NotEnoughEthHero",
      "type": "error"
    },
    {
      "inputs": [
        {
          "internalType": "uint256",
          "name": "tokenId",
          "type": "uint256"
        },
        {
          "internalType": "uint256",
          "name": "price",
          "type": "uint256"
        },
        {
          "internalType": "uint256",
          "name": "value",
          "type": "uint256"
        }
      ],
      "name": "NotEnoughEthPurchase",
      "type": "error"
    },
    {
      "inputs": [
        {
          "internalType": "uint256",
          "name": "experienceHero",
          "type": "uint256"
        },
        {
          "internalType": "uint256",
          "name": "experienceNeeded",
          "type": "uint256"
        },
        {
          "internalType": "uint256",
          "name": "tokenId",
          "type": "uint256"
        }
      ],
      "name": "NotEnoughExperience",
      "type": "error"
    },
    {
      "inputs": [
        {
          "internalType": "address",
          "name": "sender",
          "type": "address"
        },
        {
          "internalType": "uint256",
          "name": "tokenId",
          "type": "uint256"
        }
      ],
      "name": "NotInQuest",
      "type": "error"
    },
    {
      "inputs": [
        {
          "internalType": "uint256",
          "name": "tokenLimit",
          "type": "uint256"
        },
        {
          "internalType": "uint256",
          "name": "nextTokenIdToMint",
          "type": "uint256"
        }
      ],
      "name": "NotRemainingHero",
      "type": "error"
    },
    {
      "inputs": [
        {
          "internalType": "address",
          "name": "sender",
          "type": "address"
        },
        {
          "internalType": "address",
          "name": "ownerOfToken",
          "type": "address"
        },
        {
          "internalType": "uint256",
          "name": "tokenId",
          "type": "uint256"
        }
      ],
      "name": "NotYourToken",
      "type": "error"
    },
    {
      "inputs": [
        {
          "internalType": "uint256",
          "name": "blockTimestamp",
          "type": "uint256"
        },
        {
          "internalType": "uint256",
          "name": "heroQuestTime",
          "type": "uint256"
        },
        {
          "internalType": "uint256",
          "name": "currentQuestTime",
          "type": "uint256"
        },
        {
          "internalType": "uint256",
          "name": "tokenId",
          "type": "uint256"
        }
      ],
      "name": "QuestNotFinished",
      "type": "error"
    },
    {
      "inputs": [
        {
          "internalType": "address",
          "name": "to",
          "type": "address"
        },
        {
          "internalType": "uint256",
          "name": "value",
          "type": "uint256"
        }
      ],
      "name": "SellMyosSendEth",
      "type": "error"
    },
    {
      "inputs": [
        {
          "internalType": "uint256",
          "name": "tokenId",
          "type": "uint256"
        },
        {
          "internalType": "uint256",
          "name": "price",
          "type": "uint256"
        }
      ],
      "name": "TokenNotInSales",
      "type": "error"
    },
    {
      "anonymous": false,
      "inputs": [
        {
          "indexed": true,
          "internalType": "address",
          "name": "previousOwner",
          "type": "address"
        },
        {
          "indexed": true,
          "internalType": "address",
          "name": "newOwner",
          "type": "address"
        }
      ],
      "name": "OwnershipTransferred",
      "type": "event"
    },
    {
      "anonymous": false,
      "inputs": [
        {
          "indexed": true,
          "internalType": "address",
          "name": "owner",
          "type": "address"
        },
        {
          "indexed": true,
          "internalType": "string",
          "name": "key",
          "type": "string"
        },
        {
          "indexed": false,
          "internalType": "uint256",
          "name": "value",
          "type": "uint256"
        }
      ],
      "name": "UpdateParamContract",
      "type": "event"
    },
    {
      "anonymous": false,
      "inputs": [
        {
          "indexed": true,
          "internalType": "address",
          "name": "sender",
          "type": "address"
        },
        {
          "indexed": true,
          "internalType": "uint256",
          "name": "tokenId",
          "type": "uint256"
        }
      ],
      "name": "canceledQuest",
      "type": "event"
    },
    {
      "anonymous": false,
      "inputs": [
        {
          "indexed": true,
          "internalType": "address",
          "name": "sender",
          "type": "address"
        },
        {
          "indexed": true,
          "internalType": "uint256",
          "name": "tokenId",
          "type": "uint256"
        },
        {
          "indexed": true,
          "internalType": "uint256",
          "name": "questId",
          "type": "uint256"
        }
      ],
      "name": "completedQuest",
      "type": "event"
    },
    {
      "anonymous": false,
      "inputs": [
        {
          "indexed": true,
          "internalType": "address",
          "name": "sender",
          "type": "address"
        },
        {
          "indexed": true,
          "internalType": "uint256",
          "name": "tokenId",
          "type": "uint256"
        },
        {
          "indexed": false,
          "internalType": "uint256",
          "name": "statToLvlUp",
          "type": "uint256"
        }
      ],
      "name": "levelupped",
      "type": "event"
    },
    {
      "anonymous": false,
      "inputs": [
        {
          "indexed": true,
          "internalType": "address",
          "name": "sender",
          "type": "address"
        },
        {
          "indexed": true,
          "internalType": "uint256",
          "name": "tokenId",
          "type": "uint256"
        },
        {
          "indexed": false,
          "internalType": "uint256",
          "name": "price",
          "type": "uint256"
        },
        {
          "indexed": true,
          "internalType": "address",
          "name": "owner",
          "type": "address"
        }
      ],
      "name": "purchasedHeroInSell",
      "type": "event"
    },
    {
      "anonymous": false,
      "inputs": [
        {
          "indexed": true,
          "internalType": "address",
          "name": "sender",
          "type": "address"
        },
        {
          "indexed": true,
          "internalType": "uint256",
          "name": "tokenId",
          "type": "uint256"
        },
        {
          "indexed": true,
          "internalType": "uint256",
          "name": "price",
          "type": "uint256"
        }
      ],
      "name": "puttedHeroInSell",
      "type": "event"
    },
    {
      "anonymous": false,
      "inputs": [
        {
          "indexed": true,
          "internalType": "address",
          "name": "sender",
          "type": "address"
        },
        {
          "indexed": true,
          "internalType": "uint256",
          "name": "tokenId",
          "type": "uint256"
        },
        {
          "indexed": true,
          "internalType": "uint256",
          "name": "questId",
          "type": "uint256"
        }
      ],
      "name": "startedQuest",
      "type": "event"
    },
    {
      "inputs": [],
      "name": "owner",
      "outputs": [
        {
          "internalType": "address",
          "name": "",
          "type": "address"
        }
      ],
      "stateMutability": "view",
      "type": "function"
    },
    {
      "inputs": [
        {
          "internalType": "string",
          "name": "",
          "type": "string"
        }
      ],
      "name": "paramsContract",
      "outputs": [
        {
          "internalType": "uint256",
          "name": "",
          "type": "uint256"
        }
      ],
      "stateMutability": "view",
      "type": "function"
    },
    {
      "inputs": [],
      "name": "renounceOwnership",
      "outputs": [],
      "stateMutability": "nonpayable",
      "type": "function"
    },
    {
      "inputs": [
        {
          "internalType": "address",
          "name": "newOwner",
          "type": "address"
        }
      ],
      "name": "transferOwnership",
      "outputs": [],
      "stateMutability": "nonpayable",
      "type": "function"
    },
    {
      "inputs": [
        {
          "internalType": "string",
          "name": "key",
          "type": "string"
        },
        {
          "internalType": "uint256",
          "name": "value",
          "type": "uint256"
        }
      ],
      "name": "setParamsContract",
      "outputs": [],
      "stateMutability": "nonpayable",
      "type": "function"
    },
    {
      "inputs": [
        {
          "internalType": "string",
          "name": "key",
          "type": "string"
        }
      ],
      "name": "getParamsContract",
      "outputs": [
        {
          "internalType": "uint256",
          "name": "",
          "type": "uint256"
        }
      ],
      "stateMutability": "view",
      "type": "function"
    },
    {
      "inputs": [
        {
          "internalType": "uint8",
          "name": "generation",
          "type": "uint8"
        },
        {
          "internalType": "uint8",
          "name": "faction",
          "type": "uint8"
        },
        {
          "internalType": "string",
          "name": "_tokenUri",
          "type": "string"
        }
      ],
      "name": "mintHero",
      "outputs": [],
      "stateMutability": "payable",
      "type": "function"
    },
    {
      "inputs": [
        {
          "internalType": "uint256",
          "name": "tokenId",
          "type": "uint256"
        },
        {
          "internalType": "uint256",
          "name": "questId",
          "type": "uint256"
        }
      ],
      "name": "startQuest",
      "outputs": [],
      "stateMutability": "nonpayable",
      "type": "function"
    },
    {
      "inputs": [
        {
          "internalType": "uint256",
          "name": "tokenId",
          "type": "uint256"
        }
      ],
      "name": "cancelQuest",
      "outputs": [],
      "stateMutability": "nonpayable",
      "type": "function"
    },
    {
      "inputs": [
        {
          "internalType": "uint256",
          "name": "tokenId",
          "type": "uint256"
        }
      ],
      "name": "completeQuest",
      "outputs": [],
      "stateMutability": "nonpayable",
      "type": "function"
    },
    {
      "inputs": [
        {
          "internalType": "uint8",
          "name": "statToLvlUp",
          "type": "uint8"
        },
        {
          "internalType": "uint256",
          "name": "tokenId",
          "type": "uint256"
        }
      ],
      "name": "levelUp",
      "outputs": [],
      "stateMutability": "nonpayable",
      "type": "function"
    },
    {
      "inputs": [
        {
          "internalType": "uint256",
          "name": "tokenId",
          "type": "uint256"
        },
        {
          "internalType": "uint256",
          "name": "price",
          "type": "uint256"
        }
      ],
      "name": "putHeroInSell",
      "outputs": [],
      "stateMutability": "nonpayable",
      "type": "function"
    },
    {
      "inputs": [],
      "name": "getHerosInSell",
      "outputs": [
        {
          "components": [
            {
              "internalType": "uint8[]",
              "name": "params8",
              "type": "uint8[]"
            },
            {
              "internalType": "uint256[]",
              "name": "params256",
              "type": "uint256[]"
            }
          ],
          "internalType": "struct HeroLib.Token[]",
          "name": "",
          "type": "tuple[]"
        }
      ],
      "stateMutability": "view",
      "type": "function"
    },
    {
      "inputs": [
        {
          "internalType": "uint256",
          "name": "tokenId",
          "type": "uint256"
        }
      ],
      "name": "purchase",
      "outputs": [],
      "stateMutability": "payable",
      "type": "function"
    },
    {
      "inputs": [],
      "name": "withdraw",
      "outputs": [],
      "stateMutability": "nonpayable",
      "type": "function"
    }
  ],
  "bytecode": "0x60806040523480156200001157600080fd5b50604051620032de380380620032de83398101604081905262000034916200027e565b6200003f3362000211565b60018055600280546001600160a01b038087166001600160a01b03199283168117909355600380548783169084161790556004805486831690841617815560058054928616929093169190911790915560405163f26bf0b760e01b815263f26bf0b791620000d391016020808252601190820152701b995e1d151bdad95b9259151bd35a5b9d607a1b604082015260600190565b602060405180830381865afa158015620000f1573d6000803e3d6000fd5b505050506040513d601f19601f82011682018060405250810190620001179190620002db565b60408051701b995e1d151bdad95b9259151bd35a5b9d607a1b815260066011820181905282519182900360310182209390935564707269636560d81b815260058082018490528251918290036025908101832067016345785d8a00009055671d1bdd185b141b9d60c21b8352600883018590528351928390036028018320829055691d1bdad95b931a5b5a5d60b21b8352600a8301859052835192839003602a0183206127109055646e6f6e636560d81b8352908201849052825191829003018120600090556c0657870466f724c6576656c557609c1b8152600d8101929092525190819003602d0190206064905550620002f592505050565b600080546001600160a01b038381166001600160a01b0319831681178455604051919092169283917f8be0079c531659141344cd1fd0a4f28419497f9722a3daafe3b4186f6b6457e09190a35050565b80516001600160a01b03811681146200027957600080fd5b919050565b600080600080608085870312156200029557600080fd5b620002a08562000261565b9350620002b06020860162000261565b9250620002c06040860162000261565b9150620002d06060860162000261565b905092959194509250565b600060208284031215620002ee57600080fd5b5051919050565b612fd980620003056000396000f3fe6080604052600436106100e85760003560e01c80638da5cb5b1161008a578063f26bf0b711610059578063f26bf0b714610265578063f2fde38b14610285578063fa84413a146102a5578063fe90ff7d146102b857600080fd5b80638da5cb5b146101ea578063c3c33b4014610212578063d706b9ba14610232578063efef39a11461025257600080fd5b8063464fa3f5116100c6578063464fa3f514610144578063528be0a91461016f5780635f9d45d81461018f578063715018a6146101d557600080fd5b80630b275db4146100ed5780633cb119441461010f5780633ccfd60b1461012f575b600080fd5b3480156100f957600080fd5b5061010d610108366004612473565b6102d8565b005b34801561011b57600080fd5b5061010d61012a3660046124e7565b610716565b34801561013b57600080fd5b5061010d6107a7565b34801561015057600080fd5b506101596107de565b60405161016691906125ba565b60405180910390f35b34801561017b57600080fd5b5061010d61018a36600461261c565b610966565b34801561019b57600080fd5b506101c76101aa36600461270e565b805160208183018101805160068252928201919093012091525481565b604051908152602001610166565b3480156101e157600080fd5b5061010d610f7f565b3480156101f657600080fd5b506000546040516001600160a01b039091168152602001610166565b34801561021e57600080fd5b5061010d61022d36600461278d565b610f93565b34801561023e57600080fd5b5061010d61024d36600461278d565b6112bc565b61010d61026036600461261c565b61148f565b34801561027157600080fd5b506101c76102803660046127af565b611813565b34801561029157600080fd5b5061010d6102a0366004612805565b61183f565b61010d6102b3366004612829565b6118b5565b3480156102c457600080fd5b5061010d6102d336600461261c565b611afc565b60025481906001600160a01b0316336040516331a9108f60e11b8152600481018490526001600160a01b0391821691831690636352211e90602401602060405180830381865afa158015610330573d6000803e3d6000fd5b505050506040513d601f19601f82011682018060405250810190610354919061288d565b6001600160a01b03161461040557335b6040516331a9108f60e11b8152600481018490526001600160a01b03831690636352211e90602401602060405180830381865afa1580156103a9573d6000803e3d6000fd5b505050506040513d601f19601f820116820180604052508101906103cd919061288d565b6040516365165d8160e11b81526001600160a01b03928316600482015291166024820152604481018390526064015b60405180910390fd5b60025460405163183c06e560e31b8152600481018590526001600160a01b0390911690600090829063c1e0372890602401600060405180830381865afa158015610453573d6000803e3d6000fd5b505050506040513d6000823e601f3d908101601f1916820160405261047b9190810190612941565b9050806020015160098151811061049457610494612a29565b602002602001015160066040516104be906c0657870466f724c6576656c557609c1b8152600d0190565b9081526020016040518091039020546104d79190612b39565b6104e2906064612b45565b81602001516008815181106104f9576104f9612a29565b6020026020010151116105b357806020015160088151811061051d5761051d612a29565b6020026020010151816020015160098151811061053c5761053c612a29565b60200260200101516006604051610566906c0657870466f724c6576656c557609c1b8152600d0190565b90815260200160405180910390205461057f9190612b39565b61058a906064612b45565b60405163c2f02ac960e01b815260048101929092526024820152604481018690526064016103fc565b60058660ff1611156105e457604051632f62314360e11b815260ff87166004820152602481018690526044016103fc565b8051805160ff88169081106105fb576105fb612a29565b60200260200101805180919060010160ff1660ff16815250506000816020015160088151811061062d5761062d612a29565b602002602001018181525050806020015160098151811061065057610650612a29565b60209081029190910101805160010190526040516338bd885760e21b81526001600160a01b0383169063e2f6215c9061069190849089903390600401612b5d565b600060405180830381600087803b1580156106ab57600080fd5b505af11580156106bf573d6000803e3d6000fd5b50505050846106cb3390565b60405160ff891681526001600160a01b0391909116907fd7fd7f613f35a65698c314e9f2351c1fc72f0546b866e30bfaa18f3e93ceaac59060200160405180910390a3505050505050565b61071e611d17565b8060068484604051610731929190612b90565b908152604051908190036020018120919091556107519084908490612b90565b60405180910390206107603390565b6001600160a01b03167f419740d480ec7b24bbb56324d7b648081dbaf6c4f721ed5b7f1cacaa31c1f6318360405161079a91815260200190565b60405180910390a3505050565b6107af611d17565b60405133904780156108fc02916000818181858888f193505050501580156107db573d6000803e3d6000fd5b50565b6002546040516060916001600160a01b03169060009060069061080090612ba0565b9081526020016040518091039020546001600160401b0381111561082657610826612635565b60405190808252806020026020018201604052801561086b57816020015b60408051808201909152606080825260208201528152602001906001900390816108445790505b5090506000805b600660405161088090612ba0565b90815260200160405180910390205481101561095d5760405163183c06e560e31b8152600481018290526000906001600160a01b0386169063c1e0372890602401600060405180830381865afa1580156108de573d6000803e3d6000fd5b505050506040513d6000823e601f3d908101601f191682016040526109069190810190612941565b905060008160200151600b8151811061092157610921612a29565b60200260200101511115610954578084848151811061094257610942612a29565b60209081029190910101526001909201915b50600101610872565b50909392505050565b60025481906001600160a01b0316336040516331a9108f60e11b8152600481018490526001600160a01b0391821691831690636352211e90602401602060405180830381865afa1580156109be573d6000803e3d6000fd5b505050506040513d601f19601f820116820180604052508101906109e2919061288d565b6001600160a01b0316146109f65733610364565b60025460405163183c06e560e31b8152600481018590526001600160a01b0390911690600090829063c1e0372890602401600060405180830381865afa158015610a44573d6000803e3d6000fd5b505050506040513d6000823e601f3d908101601f19168201604052610a6c9190810190612941565b60038054602083015180519394506001600160a01b0390911692600092849263b0f929b0929091908110610aa257610aa2612a29565b60200260200101516040518263ffffffff1660e01b8152600401610ac891815260200190565b600060405180830381865afa158015610ae5573d6000803e3d6000fd5b505050506040513d6000823e601f3d908101601f19168201604052610b0d9190810190612bdf565b90508060a001518360200151600281518110610b2b57610b2b612a29565b602002602001015142610b3e9190612cb6565b11610b9c57428360200151600281518110610b5b57610b5b612a29565b60200260200101518260a001518960405163250ebb6160e21b81526004016103fc949392919093845260208401929092526040830152606082015260800190565b6000805b8260400151518160ff161015610c65578451805160ff8316908110610bc757610bc7612a29565b602002602001015160ff1683604001518260ff1681518110610beb57610beb612a29565b602002602001015160ff161115610c53578451805160ff8316908110610c1357610c13612a29565b602002602001015183604001518260ff1681518110610c3457610c34612a29565b6020026020010151610c469190612ccd565b610c509083612cf0565b91505b80610c5d81612d15565b915050610ba0565b506000610c7b610c76836064612ccd565b611d71565b60ff169050808560200151600781518110610c9857610c98612a29565b602002602001018181525050826020015160ff16811115610e485760018560200151600681518110610ccc57610ccc612a29565b602002602001018181525050836001600160a01b0316636827822e6040518163ffffffff1660e01b8152600401602060405180830381865afa158015610d16573d6000803e3d6000fd5b505050506040513d601f19601f82011682018060405250810190610d3a9190612d35565b8351610d499160ff1690612d52565b61ffff168560200151600881518110610d6457610d64612a29565b60200260200101818151610d789190612b45565b9052506005546001600160a01b031660005b846060015151811015610e41576001600160a01b03821663156e29f63387606001518481518110610dbd57610dbd612a29565b60209081029190910101516040516001600160e01b031960e085901b1681526001600160a01b03909216600483015260ff16602482015260016044820152606401600060405180830381600087803b158015610e1857600080fd5b505af1158015610e2c573d6000803e3d6000fd5b50505050610e3a8160010190565b9050610d8a565b5050610e6e565b60008560200151600681518110610e6157610e61612a29565b6020026020010181815250505b428560200151600281518110610e8657610e86612a29565b60200260200101818152505060008560200151600481518110610eab57610eab612a29565b60209081029190910101526040516338bd885760e21b81526001600160a01b0387169063e2f6215c90610ee69088908d903390600401612b5d565b600060405180830381600087803b158015610f0057600080fd5b505af1158015610f14573d6000803e3d6000fd5b505050508460200151600381518110610f2f57610f2f612a29565b602002602001015189610f3f3390565b6001600160a01b03167ff94577e4230f725c7988aeb2df57de54ee35126b976024523471f486f5d1806760405160405180910390a4505050505050505050565b610f87611d17565b610f916000611d7f565b565b60025482906001600160a01b0316336040516331a9108f60e11b8152600481018490526001600160a01b0391821691831690636352211e90602401602060405180830381865afa158015610feb573d6000803e3d6000fd5b505050506040513d601f19601f8201168201806040525081019061100f919061288d565b6001600160a01b0316146110235733610364565b600254600354604051630b0f929b60e41b8152600481018690526001600160a01b039283169290911690600090829063b0f929b090602401600060405180830381865afa158015611078573d6000803e3d6000fd5b505050506040513d6000823e601f3d908101601f191682016040526110a09190810190612bdf565b60405163183c06e560e31b8152600481018990529091506000906001600160a01b0385169063c1e0372890602401600060405180830381865afa1580156110eb573d6000803e3d6000fd5b505050506040513d6000823e601f3d908101601f191682016040526111139190810190612941565b9050806020015160048151811061112c5761112c612a29565b6020026020010151600014611198573387826020015160048151811061115457611154612a29565b602090810291909101015160405163c9913a8d60e01b81526001600160a01b03909316600484015260248301919091526044820152606481018990526084016103fc565b600081602001516002815181106111b1576111b1612a29565b6020026020010151426111c49190612cb6565b90508782602001516003815181106111de576111de612a29565b6020026020010181815250508260a00151826020015160048151811061120657611206612a29565b60209081029190910101526040516338bd885760e21b81526001600160a01b0386169063e2f6215c906112419085908d903390600401612b5d565b600060405180830381600087803b15801561125b57600080fd5b505af115801561126f573d6000803e3d6000fd5b50505050878961127c3390565b6001600160a01b03167f31b23362e7830832079a0f2c107622ace1ea076ae2abfe337543951cf25d736560405160405180910390a4505050505050505050565b60025482906001600160a01b0316336040516331a9108f60e11b8152600481018490526001600160a01b0391821691831690636352211e90602401602060405180830381865afa158015611314573d6000803e3d6000fd5b505050506040513d601f19601f82011682018060405250810190611338919061288d565b6001600160a01b03161461134c5733610364565b60025460405163183c06e560e31b8152600481018690526001600160a01b0390911690600090829063c1e0372890602401600060405180830381865afa15801561139a573d6000803e3d6000fd5b505050506040513d6000823e601f3d908101601f191682016040526113c29190810190612941565b9050848160200151600b815181106113dc576113dc612a29565b60209081029190910101526040516338bd885760e21b81526001600160a01b0383169063e2f6215c906114179084908a903390600401612b5d565b600060405180830381600087803b15801561143157600080fd5b505af1158015611445573d6000803e3d6000fd5b5050505084866114523390565b6001600160a01b03167ffd8d86aec839a7666b23492a488dc179722910b0b493dec3f4a7d5a89cfea47560405160405180910390a4505050505050565b60025460405163183c06e560e31b8152600481018390526001600160a01b0390911690600090829063c1e0372890602401600060405180830381865afa1580156114dd573d6000803e3d6000fd5b505050506040513d6000823e601f3d908101601f191682016040526115059190810190612941565b905060008160200151600b8151811061152057611520612a29565b602002602001015190506000836001600160a01b0316636352211e866040518263ffffffff1660e01b815260040161155a91815260200190565b602060405180830381865afa158015611577573d6000803e3d6000fd5b505050506040513d601f19601f8201168201806040525081019061159b919061288d565b9050600082116115c8576040516367bd44b960e11b815260048101869052602481018390526044016103fc565b813410156115f95760405163186691af60e31b815260048101869052602481018390523460448201526064016103fc565b6001600160a01b03811633141561163b5760405163a33405a560e01b8152600481018690523360248201526001600160a01b03821660448201526064016103fc565b60008360200151600b8151811061165457611654612a29565b60209081029190910101526040516338bd885760e21b81526001600160a01b0385169063e2f6215c9061168f90869089908690600401612b5d565b600060405180830381600087803b1580156116a957600080fd5b505af11580156116bd573d6000803e3d6000fd5b50505050836001600160a01b031663beabacc8826116d83390565b6040516001600160e01b031960e085901b1681526001600160a01b0392831660048201529116602482015260448101889052606401600060405180830381600087803b15801561172757600080fd5b505af115801561173b573d6000803e3d6000fd5b505050506000816001600160a01b03168360405160006040518083038185875af1925050503d806000811461178c576040519150601f19603f3d011682016040523d82523d6000602084013e611791565b606091505b5090915050806117bd57604051634482712560e11b8152336004820152602481018490526044016103fc565b6001600160a01b03821686336001600160a01b03167f3df9034dc7c1f5fc54b10ced70e3e64892bcad699a4ec43bffc09113089771ae8660405161180391815260200190565b60405180910390a4505050505050565b600060068383604051611827929190612b90565b90815260200160405180910390205490505b92915050565b611847611d17565b6001600160a01b0381166118ac5760405162461bcd60e51b815260206004820152602660248201527f4f776e61626c653a206e6577206f776e657220697320746865207a65726f206160448201526564647265737360d01b60648201526084016103fc565b6107db81611d7f565b6118bd611dcf565b60405164707269636560d81b81526006906005019081526020016040518091039020543410156119235760405162461bcd60e51b8152602060048201526011602482015270135bdc9948115512081c995c5d5a5c9959607a1b60448201526064016103fc565b60405164707269636560d81b815260069060050190815260200160405180910390205434101561198d5760405164707269636560d81b81526006906005019081526040519081900360200181205462a184d760e21b825260048201523460248201526044016103fc565b600660405161199b90612ba0565b90815260405190819003602001812054691d1bdad95b931a5b5a5d60b21b825290600690600a0190815260200160405180910390205411611a3c57604051691d1bdad95b931a5b5a5d60b21b8152600690600a019081526020016040518091039020546006604051611a0c90612ba0565b90815260405190819003602001812054633a3b705560e11b82526103fc9291600401918252602082015260400190565b6000611a4784611e29565b90506000611a553487612263565b90506006604051611a6590612ba0565b908152604051908190036020019020805460010190556002546001600160a01b031680639005ba95611a943390565b858589896040518663ffffffff1660e01b8152600401611ab8959493929190612da5565b600060405180830381600087803b158015611ad257600080fd5b505af1158015611ae6573d6000803e3d6000fd5b50505050505050611af660018055565b50505050565b60025481906001600160a01b0316336040516331a9108f60e11b8152600481018490526001600160a01b0391821691831690636352211e90602401602060405180830381865afa158015611b54573d6000803e3d6000fd5b505050506040513d601f19601f82011682018060405250810190611b78919061288d565b6001600160a01b031614611b8c5733610364565b60025460405163183c06e560e31b8152600481018590526001600160a01b0390911690600090829063c1e0372890602401600060405180830381865afa158015611bda573d6000803e3d6000fd5b505050506040513d6000823e601f3d908101601f19168201604052611c029190810190612941565b90508060200151600481518110611c1b57611c1b612a29565b602002602001015160001415611c4d57604051631ed712d560e11b8152336004820152602481018690526044016103fc565b60008160200151600481518110611c6657611c66612a29565b60209081029190910101526040516338bd885760e21b81526001600160a01b0383169063e2f6215c90611ca190849089903390600401612b5d565b600060405180830381600087803b158015611cbb57600080fd5b505af1158015611ccf573d6000803e3d6000fd5b5050505084611cdb3390565b6001600160a01b03167fc04dbb3d4858dac03ad3597230df1f8983693a574e4bcfad6b9fb21c8959ba0c60405160405180910390a35050505050565b6000546001600160a01b03163314610f915760405162461bcd60e51b815260206004820181905260248201527f4f776e61626c653a2063616c6c6572206973206e6f7420746865206f776e657260448201526064016103fc565b60006118398260ff166123b5565b600080546001600160a01b038381166001600160a01b0319831681178455604051919092169283917f8be0079c531659141344cd1fd0a4f28419497f9722a3daafe3b4186f6b6457e09190a35050565b60026001541415611e225760405162461bcd60e51b815260206004820152601f60248201527f5265656e7472616e637947756172643a207265656e7472616e742063616c6c0060448201526064016103fc565b6002600155565b6040805160148082526102a08201909252606091600091906020820161028080368337019050506004546040805160a08101825260008082526020820181905260609282018390528282015260808101919091529192506001600160a01b03169060405163323eae4960e01b8152600060048201526001600160a01b0383169063323eae4990602401600060405180830381865afa158015611ecf573d6000803e3d6000fd5b505050506040513d6000823e601f3d908101601f19168201604052611ef79190810190612eba565b905060005b826001600160a01b0316630b01ca3b6040518163ffffffff1660e01b8152600401602060405180830381865afa158015611f3a573d6000803e3d6000fd5b505050506040513d601f19601f82011682018060405250810190611f5e9190612d35565b60ff168160ff1610156120755760405163323eae4960e01b815260ff821660048201526001600160a01b0384169063323eae4990602401600060405180830381865afa158015611fb2573d6000803e3d6000fd5b505050506040513d6000823e601f3d908101601f19168201604052611fda9190810190612eba565b5160ff16611fe86064611d71565b60ff1610156120635760405163323eae4960e01b815260ff821660048201526001600160a01b0384169063323eae4990602401600060405180830381865afa158015612038573d6000803e3d6000fd5b505050506040513d6000823e601f3d908101601f191682016040526120609190810190612eba565b91505b8061206d81612d15565b915050611efc565b5060408101518051819060009061208e5761208e612a29565b6020026020010151846000815181106120a9576120a9612a29565b602002602001019060ff16908160ff1681525050806001815181106120d0576120d0612a29565b6020026020010151846001815181106120eb576120eb612a29565b602002602001019060ff16908160ff16815250508060028151811061211257612112612a29565b60200260200101518460028151811061212d5761212d612a29565b602002602001019060ff16908160ff16815250508060038151811061215457612154612a29565b60200260200101518460038151811061216f5761216f612a29565b602002602001019060ff16908160ff16815250508060048151811061219657612196612a29565b6020026020010151846004815181106121b1576121b1612a29565b602002602001019060ff16908160ff1681525050806005815181106121d8576121d8612a29565b6020026020010151846005815181106121f3576121f3612a29565b602002602001019060ff16908160ff1681525050858460088151811061221b5761221b612a29565b602002602001019060ff16908160ff168152505081602001518460098151811061224757612247612a29565b60ff909216602092830291909101909101525091949350505050565b6040805160148082526102a0820190925260609160009190602082016102808036833701905050905042816000815181106122a0576122a0612a29565b60200260200101818152505083816001815181106122c0576122c0612a29565b60200260200101818152505042816002815181106122e0576122e0612a29565b60200260200101818152505060066040516122fa90612ba0565b9081526020016040518091039020548160068151811061231c5761231c612a29565b6020026020010181815250508260ff168160078151811061233f5761233f612a29565b60200260200101818152505060018160098151811061236057612360612a29565b60200260200101818152505061271081600a8151811061238257612382612a29565b602002602001018181525050600081600b815181106123a3576123a3612a29565b60209081029190910101529392505050565b60408051646e6f6e636560d81b8152600660058201528151908190036025018120544260208301526bffffffffffffffffffffffff193360601b16928201929092526054810191909152600090819083906074016040516020818303038152906040528051906020012060001c61242c9190612f81565b9050600660405161244890646e6f6e636560d81b815260050190565b9081526040519081900360200190208054600101905592915050565b60ff811681146107db57600080fd5b6000806040838503121561248657600080fd5b823561249181612464565b946020939093013593505050565b60008083601f8401126124b157600080fd5b5081356001600160401b038111156124c857600080fd5b6020830191508360208285010111156124e057600080fd5b9250929050565b6000806000604084860312156124fc57600080fd5b83356001600160401b0381111561251257600080fd5b61251e8682870161249f565b909790965060209590950135949350505050565b805160408084528151908401819052600091602091908201906060860190845b8181101561257157835160ff1683529284019291840191600101612552565b50508483015186820387850152805180835290840192506000918401905b808310156125af578351825292840192600192909201919084019061258f565b509695505050505050565b6000602080830181845280855180835260408601915060408160051b870101925083870160005b8281101561260f57603f198886030184526125fd858351612532565b945092850192908501906001016125e1565b5092979650505050505050565b60006020828403121561262e57600080fd5b5035919050565b634e487b7160e01b600052604160045260246000fd5b604080519081016001600160401b038111828210171561266d5761266d612635565b60405290565b60405160e081016001600160401b038111828210171561266d5761266d612635565b60405160a081016001600160401b038111828210171561266d5761266d612635565b604051601f8201601f191681016001600160401b03811182821017156126df576126df612635565b604052919050565b60006001600160401b0382111561270057612700612635565b50601f01601f191660200190565b60006020828403121561272057600080fd5b81356001600160401b0381111561273657600080fd5b8201601f8101841361274757600080fd5b803561275a612755826126e7565b6126b7565b81815285602083850101111561276f57600080fd5b81602084016020830137600091810160200191909152949350505050565b600080604083850312156127a057600080fd5b50508035926020909101359150565b600080602083850312156127c257600080fd5b82356001600160401b038111156127d857600080fd5b6127e48582860161249f565b90969095509350505050565b6001600160a01b03811681146107db57600080fd5b60006020828403121561281757600080fd5b8135612822816127f0565b9392505050565b6000806000806060858703121561283f57600080fd5b843561284a81612464565b9350602085013561285a81612464565b925060408501356001600160401b0381111561287557600080fd5b6128818782880161249f565b95989497509550505050565b60006020828403121561289f57600080fd5b8151612822816127f0565b60006001600160401b038211156128c3576128c3612635565b5060051b60200190565b80516128d881612464565b919050565b600082601f8301126128ee57600080fd5b815160206128fe612755836128aa565b82815260059290921b8401810191818101908684111561291d57600080fd5b8286015b848110156125af57805161293481612464565b8352918301918301612921565b6000602080838503121561295457600080fd5b82516001600160401b038082111561296b57600080fd5b908401906040828703121561297f57600080fd5b61298761264b565b82518281111561299657600080fd5b6129a2888286016128dd565b82525083830151828111156129b657600080fd5b80840193505086601f8401126129cb57600080fd5b825191506129db612755836128aa565b82815260059290921b830184019184810190888411156129fa57600080fd5b938501935b83851015612a18578451825293850193908501906129ff565b948201949094529695505050505050565b634e487b7160e01b600052603260045260246000fd5b634e487b7160e01b600052601160045260246000fd5b600181815b80851115612a90578160001904821115612a7657612a76612a3f565b80851615612a8357918102915b93841c9390800290612a5a565b509250929050565b600082612aa757506001611839565b81612ab457506000611839565b8160018114612aca5760028114612ad457612af0565b6001915050611839565b60ff841115612ae557612ae5612a3f565b50506001821b611839565b5060208310610133831016604e8410600b8410161715612b13575081810a611839565b612b1d8383612a55565b8060001904821115612b3157612b31612a3f565b029392505050565b60006128228383612a98565b60008219821115612b5857612b58612a3f565b500190565b606081526000612b706060830186612532565b6020830194909452506001600160a01b0391909116604090910152919050565b8183823760009101908152919050565b701b995e1d151bdad95b9259151bd35a5b9d607a1b815260110190565b805161ffff811681146128d857600080fd5b805180151581146128d857600080fd5b600060208284031215612bf157600080fd5b81516001600160401b0380821115612c0857600080fd5b9083019060e08286031215612c1c57600080fd5b612c24612673565b612c2d83612bbd565b8152612c3b602084016128cd565b6020820152604083015182811115612c5257600080fd5b612c5e878286016128dd565b604083015250606083015182811115612c7657600080fd5b612c82878286016128dd565b6060830152506080830151608082015260a083015160a0820152612ca860c08401612bcf565b60c082015295945050505050565b600082821015612cc857612cc8612a3f565b500390565b600060ff821660ff841680821015612ce757612ce7612a3f565b90039392505050565b600060ff821660ff84168060ff03821115612d0d57612d0d612a3f565b019392505050565b600060ff821660ff811415612d2c57612d2c612a3f565b60010192915050565b600060208284031215612d4757600080fd5b815161282281612464565b600061ffff80831681851681830481118215151615612d7357612d73612a3f565b02949350505050565b81835281816020850137506000828201602090810191909152601f909101601f19169091010190565b6001600160a01b0386168152608060208083018290528651918301829052600091878201919060a0850190845b81811015612df157845160ff1683529383019391830191600101612dd2565b50508481036040860152875180825290820192508188019060005b81811015612e2857825185529383019391830191600101612e0c565b505050508281036060840152612e3f818587612d7c565b98975050505050505050565b600082601f830112612e5c57600080fd5b8151612e6a612755826126e7565b81815260208581848701011115612e8057600080fd5b60005b83811015612e9e578581018201518382018301528101612e83565b83811115612eaf5760008285850101525b509095945050505050565b600060208284031215612ecc57600080fd5b81516001600160401b0380821115612ee357600080fd5b9083019060a08286031215612ef757600080fd5b612eff612695565b8251612f0a81612464565b81526020830151612f1a81612464565b6020820152604083015182811115612f3157600080fd5b612f3d878286016128dd565b604083015250612f4f60608401612bcf565b6060820152608083015182811115612f6657600080fd5b612f7287828601612e4b565b60808301525095945050505050565b600082612f9e57634e487b7160e01b600052601260045260246000fd5b50069056fea26469706673582212201394ce07e2990a684fd1c2a3db42fc4af017f14e9711f3613934ad70f689538464736f6c634300080b0033",
  "immutableReferences": {},
  "source": "// SPDX-License-Identifier: MIT\n// Delegation contract\npragma solidity ^0.8.0;\n\nimport \"@openzeppelin/contracts/access/Ownable.sol\";\nimport \"@openzeppelin/contracts/security/ReentrancyGuard.sol\";\nimport \"@openzeppelin/contracts/utils/math/SafeMath.sol\";\n\nimport \"../immutable/Items.sol\";\nimport \"../immutable/Class.sol\";\nimport \"../immutable/Quest.sol\";\nimport \"../immutable/Hero.sol\";\n\nimport \"../library/LClass.sol\";\nimport \"../library/LHero.sol\";\nimport \"../library/LItems.sol\";\nimport \"../library/LQuest.sol\";\n\n//enum Numbers {strong,endurance,concentration,agility,charisma,stealth,exp,level,faction,classe}\n\ncontract ProxyHero is Ownable, ReentrancyGuard {\n  using SafeMath for uint;\n  error NotEnoughEth(uint256 price, uint256 weiSended, uint256 tokenId, uint256 quantity);\n  error NotEnoughEthHero(uint256 price, uint256 weiSended);\n  error NotRemainingHero(uint256 tokenLimit, uint256 nextTokenIdToMint);\n  error NotYourToken(address sender, address ownerOfToken, uint256 tokenId);\n  error AlreadyInQuest(\n    address sender,\n    uint256 questId,\n    uint256 currentQuestId,\n    uint256 tokenId\n  );\n  error QuestNotFinished(\n    uint256 blockTimestamp,\n    uint256 heroQuestTime,\n    uint256 currentQuestTime,\n    uint256 tokenId\n  );\n  error NotEnoughExperience(\n    uint256 experienceHero,\n    uint256 experienceNeeded,\n    uint256 tokenId\n  );\n  error NotAStat(uint256 statToLvlUp, uint256 tokenId);\n  error SellMyosSendEth(address to, uint value);\n  error TokenNotInSales(uint256 tokenId, uint256 price);\n  error NotEnoughEthPurchase(uint256 tokenId, uint256 price, uint256 value);\n  error AlreadyOwned(uint256 tokenId, address sender, address owner);\n  error NotEnoughEnergy(address sender, uint256 questId, uint256 energy, uint256 tokenId);\n  error NotInQuest(address sender, uint256 tokenId);\n\n  event UpdateParamContract(address indexed owner, string indexed key, uint256 value);\n  event startedQuest(address indexed sender, uint256 indexed tokenId, uint256 indexed questId);\n  event canceledQuest(address indexed sender, uint256 indexed tokenId);\n  event completedQuest(address indexed sender, uint256 indexed tokenId, uint256 indexed questId);\n  event levelupped(address indexed sender, uint256 indexed tokenId, uint256 statToLvlUp);\n  event puttedHeroInSell(address indexed sender, uint256 indexed tokenId, uint256 indexed price);\n  event purchasedHeroInSell(address indexed sender, uint256 indexed tokenId, uint256 price, address indexed owner);\n  \n  address private addressHero;\n  address private addressQuest;\n  address private addressClass;\n  address private addressItem;\n  mapping(string => uint256) public paramsContract;\n\n  uint256 private constant utilMathMultiply = 10000000;\n\n  constructor(\n    address _addressHero,\n    address _addressQuest,\n    address _addressClass,\n    address _addressItem\n  ) {\n    addressHero = _addressHero;\n    addressQuest = _addressQuest;\n    addressClass = _addressClass;\n    addressItem = _addressItem;\n    paramsContract[\"nextTokenIdToMint\"] = Hero(addressHero).getParamsContract(\n      \"nextTokenIdToMint\"\n    );\n    paramsContract[\"price\"] = 100000000000000000; //dev:100000000000000000000 == 100 eth\n    paramsContract[\"totalPnt\"] = 5;\n    paramsContract[\"tokenLimit\"] = 10000;\n    paramsContract[\"nonce\"] = 0;\n    paramsContract[\"expForLevelUp\"] = 100;\n  }\n\n  modifier isYourToken(uint256 tokenId) {\n    Hero contrat = Hero(addressHero);\n    if (contrat.ownerOf(tokenId) != _msgSender())\n      revert NotYourToken({\n        sender: _msgSender(),\n        ownerOfToken: contrat.ownerOf(tokenId),\n        tokenId: tokenId\n      });\n    _;\n  }\n\n  function unsafeInc(uint x) private pure returns (uint) {\n    unchecked {\n      return x + 1;\n    }\n  }\n\n  ///@notice Update a parameter of contract\n  ///@param key key index of params contract you want set\n  ///@param value value of params contract you want set\n  function setParamsContract(string calldata key, uint256 value) external onlyOwner {\n    paramsContract[key] = value;\n    emit UpdateParamContract(_msgSender(), key, value);\n  }\n\n  ///@notice Return a parameter of contract by key index\n  ///@param key key index of param your want to return\n  ///@return param value of parameter contract\n  function getParamsContract(string calldata key) external view returns (uint256) {\n    return paramsContract[key];\n  }\n\n  ///@notice Update a parameter of hero contract\n  ///@param key key index of params contract you want set\n  ///@param value value of params contract you want set\n  function setParamsHeroContract(string calldata key, uint256 value) internal {\n    Hero contrat = Hero(addressHero);\n    contrat.setParamsContract(key, value);\n  }\n\n  ///@notice mint a hero for a value price and generate stats and parameterr\n  ///@param generation generation of creation hero\n  ///@param faction faction with class and stat linked\n  ///@param _tokenUri uri of metadata token hero\n  function mintHero(\n    uint8 generation,\n    uint8 faction,\n    string calldata _tokenUri\n  ) external payable nonReentrant {\n    require(msg.value >= paramsContract[\"price\"], \"More ETH required\");\n    if (msg.value < paramsContract[\"price\"])\n      revert NotEnoughEthHero({ price: paramsContract[\"price\"], weiSended: msg.value });\n    if (paramsContract[\"tokenLimit\"] <= paramsContract[\"nextTokenIdToMint\"])\n      revert NotRemainingHero({\n        tokenLimit: paramsContract[\"tokenLimit\"],\n        nextTokenIdToMint: paramsContract[\"nextTokenIdToMint\"]\n      });\n    uint8[] memory randomParts = randomStats(faction);\n    uint256[] memory randomParams = randomParameters(msg.value, generation);\n    unchecked {\n      paramsContract[\"nextTokenIdToMint\"]++;\n    }\n\n    Hero contrat = Hero(addressHero);\n    contrat.mint(_msgSender(), randomParts, randomParams, _tokenUri);\n  }\n\n  ///@notice generate stats for your hero in uint8\n  ///@param faction faction of hero generated\n  ///@return randomParts array of stats uint8 for hero\n  function randomStats(uint8 faction) internal virtual returns (uint8[] memory) {\n    uint8[] memory randomParts = new uint8[](20);\n\n    Class classContrat = Class(addressClass);\n    ClassLib.Classes memory class;\n    class = classContrat.getClassDetails(0);\n    for (uint8 index = 0; index < classContrat.getClassCount(); index++) {\n      if (random(100) < classContrat.getClassDetails(index).rarity)\n        class = classContrat.getClassDetails(index);\n    }\n    uint8[] memory stats = class.stats;\n\n    randomParts[0] = stats[0]; //Strong\n    randomParts[1] = stats[1]; //Stamina\n    randomParts[2] = stats[2]; //Focus\n    randomParts[3] = stats[3]; //Swiftness\n    randomParts[4] = stats[4]; //Charisma\n    randomParts[5] = stats[5]; //Stealth\n\n    randomParts[8] = faction; //faction\n    randomParts[9] = class.id; //class\n\n    return randomParts;\n  }\n\n  ///@notice generate parameter for your hero in uint256\n  ///@param price price of buying hero\n  ///@param generation generation fo hero\n  ///@return randomParams array of parameters uint256 for hero\n  function randomParameters(\n    uint256 price,\n    uint8 generation\n  ) internal virtual returns (uint256[] memory) {\n    uint256[] memory randomParams = new uint256[](20);\n    randomParams[0] = block.timestamp; //date de cration\n    randomParams[1] = price; //prix d'achat\n    randomParams[2] = block.timestamp; //date de la drnire action (il y a une heure) permettant de participer a des missions\n    //randomParams[3] = 0;//Mission choisis (si 0 aucune current mission)\n    //randomParams[4] = 0;//seconds pour finir la mission\n    //randomParams[5] = 0;//difficult de la qute (dtermine l'exp gagn, et les objets % gagn)\n    //randomParams[6] = 0;//last quest succeded\n    randomParams[6] = paramsContract[\"nextTokenIdToMint\"]; //tokenId\n    randomParams[7] = generation; //type\n    //randomParams[8] = 0;//exp\n    randomParams[9] = 1; //level\n    randomParams[10] = 10000; //maxEnergy\n    randomParams[11] = 0; //priceInSell\n    return randomParams;\n  }\n\n  ///@notice start a quest by id for one hero token\n  ///@param tokenId id of token you want to launch in quest\n  ///@param questId id of quest you want to start\n  function startQuest(uint256 tokenId, uint256 questId) external isYourToken(tokenId) {\n    Hero contrat = Hero(addressHero);\n    Quest questContrat = Quest(addressQuest);\n    QuestLib.QuestStruct memory questTemp = questContrat.getQuestDetails(questId);\n    HeroLib.Token memory hero = contrat.getTokenDetails(tokenId);\n    if (hero.params256[4] != 0)\n      revert AlreadyInQuest({\n        sender: _msgSender(),\n        questId: questId,\n        currentQuestId: hero.params256[4],\n        tokenId: tokenId\n      });\n    uint256 energy = block.timestamp - hero.params256[2];\n    // if (energy > hero.params256[10]) energy = hero.params256[10];\n    // if (energy < questTemp.time)\n    //   revert NotEnoughEnergy({\n    //     sender: _msgSender(),\n    //     questId: questId,\n    //     energy: energy,\n    //     tokenId: tokenId\n    //   });\n    hero.params256[3] = questId;\n    hero.params256[4] = questTemp.time;\n    contrat.updateToken(hero, tokenId, _msgSender());\n    emit startedQuest(_msgSender(), tokenId, questId);\n  }\n\n  ///@notice cancel a quest by id for one hero token\n  ///@param tokenId id of token you want to launch in quest\n  function cancelQuest(uint256 tokenId) external isYourToken(tokenId) {\n    Hero contrat = Hero(addressHero);\n    HeroLib.Token memory hero = contrat.getTokenDetails(tokenId);\n    if (hero.params256[4] == 0)\n      revert NotInQuest({ sender: _msgSender(), tokenId: tokenId });\n    hero.params256[4] = 0;\n    contrat.updateToken(hero, tokenId, _msgSender());\n    emit canceledQuest(_msgSender(), tokenId);\n  }\n\n  ///@notice Validation of the quest at the end of a quest\n  ///@param tokenId id of token you want to complete quest\n  function completeQuest(uint256 tokenId) external isYourToken(tokenId) {\n    Hero contrat = Hero(addressHero);\n    HeroLib.Token memory hero = contrat.getTokenDetails(tokenId);\n\n    Quest questContrat = Quest(addressQuest);\n    QuestLib.QuestStruct memory questTemp = questContrat.getQuestDetails(\n      hero.params256[3]\n    );\n    if (block.timestamp - hero.params256[2] <= (questTemp.time))\n      revert QuestNotFinished({\n        blockTimestamp: block.timestamp,\n        heroQuestTime: hero.params256[2],\n        currentQuestTime: questTemp.time,\n        tokenId: tokenId\n      });\n    uint8 malus = 0;\n    for (uint8 index = 0; index < questTemp.stats.length; index++) {\n      if (questTemp.stats[index] > hero.params8[index]) {\n        malus += questTemp.stats[index] - hero.params8[index];\n      }\n    }\n    ///SUCCESS QUEST\n    uint256 percentSuccess = random(100 - malus);\n    hero.params256[7] = percentSuccess;\n    if (percentSuccess > questTemp.percentDifficulty) {\n      hero.params256[6] = 1;\n      hero.params256[8] += (questTemp.exp * questContrat.getMultiplicateurExp());\n\n      Items itemContrat = Items(addressItem);\n\n      for (uint256 index = 0; index < questTemp.items.length; index = unsafeInc(index)) {\n        itemContrat.mint(_msgSender(), questTemp.items[index], 1);\n      }\n      //recuperer les items dans la quest !IMPORTANT\n      /*for (uint256 index = 0; index < countItems;  index = unsafeInc(index) {\n        Items itemtemp = Items(items[index]);\n        if (random256(100000) > itemtemp.getRarity()) {\n          itemtemp.mint(1, _msgSender());\n        }\n      }*/\n    } else {\n      hero.params256[6] = 0;\n    }\n    hero.params256[2] = block.timestamp;\n    hero.params256[4] = 0;\n\n    contrat.updateToken(hero, tokenId, _msgSender());\n    emit completedQuest(_msgSender(), tokenId, hero.params256[3]);\n  }\n\n  ///@notice level up hero and increment one stat\n  ///@param statToLvlUp id of stat you want increment\n  ///@param tokenId id of token you want level up\n  function levelUp(uint8 statToLvlUp, uint256 tokenId) external isYourToken(tokenId) {\n    Hero contrat = Hero(addressHero);\n    HeroLib.Token memory hero = contrat.getTokenDetails(tokenId);\n    if (\n      hero.params256[8] <= (100 + (paramsContract[\"expForLevelUp\"] ** hero.params256[9]))\n    )\n      revert NotEnoughExperience({\n        experienceHero: hero.params256[8],\n        experienceNeeded: (100 + (paramsContract[\"expForLevelUp\"] ** hero.params256[9])),\n        tokenId: tokenId\n      });\n    if (statToLvlUp < 0 || statToLvlUp > 5)\n      revert NotAStat({ statToLvlUp: statToLvlUp, tokenId: tokenId });\n    unchecked {\n      hero.params8[statToLvlUp]++;\n    }\n    hero.params256[8] = 0;\n    unchecked {\n      hero.params256[9]++;\n    }\n\n    contrat.updateToken(hero, tokenId, _msgSender());\n    emit levelupped(_msgSender(), tokenId, statToLvlUp);\n  }\n\n  /****************************************\n    UTILS\n     ****************************************/\n\n  ///@notice return random number\n  ///@param maxNumber max number random to return\n  ///@return randomNumber random uint256 returned\n  function random(uint8 maxNumber) internal returns (uint8) {\n    return uint8(random256(uint8(maxNumber)));\n  }\n\n  ///@notice return random number\n  ///@param maxNumber max number random to return\n  ///@return randomNumber random uint256 returned\n  function random256(uint256 maxNumber) internal returns (uint256) {\n    uint256 randomNumber = uint256(\n      keccak256(abi.encodePacked(block.timestamp, _msgSender(), paramsContract[\"nonce\"]))\n    ) % maxNumber;\n    unchecked {\n      paramsContract[\"nonce\"]++;\n    }\n    return randomNumber;\n  }\n\n  ///@notice put hero in sell market\n  ///@param tokenId id key of token you want to putt in sell\n  ///@param price price of token put in selled\n  function putHeroInSell(uint256 tokenId, uint256 price) external isYourToken(tokenId) {\n    Hero contrat = Hero(addressHero);\n    HeroLib.Token memory hero = contrat.getTokenDetails(tokenId);\n    hero.params256[11] = price;\n    contrat.updateToken(hero, tokenId, _msgSender());\n    emit puttedHeroInSell(_msgSender(), tokenId, price);\n  }\n\n  ///@notice return all heroes in market sell\n  ///@return tokens return structure of heroes\n  function getHerosInSell() external view returns (HeroLib.Token[] memory) {\n    Hero contrat = Hero(addressHero);\n    HeroLib.Token[] memory result = new HeroLib.Token[](\n      paramsContract[\"nextTokenIdToMint\"]\n    );\n    uint256 resultIndex;\n\n    for (uint256 i = 0; i < paramsContract[\"nextTokenIdToMint\"]; i = unsafeInc(i)) {\n      HeroLib.Token memory hero = contrat.getTokenDetails(i);\n      if (hero.params256[11] > 0) {\n        result[resultIndex] = hero;\n        unchecked {\n          resultIndex++;\n        }\n      }\n    }\n    return result;\n  }\n\n  ///@notice purchase a token previously put in sell\n  ///@param tokenId id of token you want buy\n  function purchase(uint256 tokenId) external payable {\n    Hero contrat = Hero(addressHero);\n    HeroLib.Token memory hero = contrat.getTokenDetails(tokenId);\n    uint256 price = hero.params256[11];\n    address owner = contrat.ownerOf(tokenId);\n    if (price <= 0) revert TokenNotInSales({ tokenId: tokenId, price: price });\n    if (msg.value < price)\n      revert NotEnoughEthPurchase({ tokenId: tokenId, price: price, value: msg.value });\n    if (owner == _msgSender())\n      revert AlreadyOwned({ tokenId: tokenId, sender: _msgSender(), owner: owner });\n\n    hero.params256[11] = 0;\n    contrat.updateToken(hero, tokenId, owner);\n\n    contrat.transfer(owner, _msgSender(), tokenId);\n\n    (bool sent, ) = owner.call{ value: price }(\"\");\n    if (sent == false) revert SellMyosSendEth({ to: _msgSender(), value: price });\n    emit purchasedHeroInSell(_msgSender(), tokenId, price, owner);\n  }\n\n  /*FUNDS OF CONTRACT*/\n\n  function withdraw() external onlyOwner {\n    payable(_msgSender()).transfer(address(this).balance);\n  }\n\n  /**\n    a finaliser\n     */\n  /*function calculPriceSupply() public{\n        Hero contrat = Hero(addressHero);\n        uint totalSupply = contrat.getParamsContract(\"totalSupply\");\n        //priceInUsd = (item.price/(10**18)) * (latestPrice/10**8)\n    }*/\n}\n",
  "sourcePath": "/home/solid-solution/Bureau/HOMEWORK/MYOS/contracts/proxy/ProxyHero.sol",
  "compiler": {
    "name": "solc",
    "version": "0.8.11+commit.d7f03943.Emscripten.clang"
  },
  "schemaVersion": "3.4.10",
  "updatedAt": "2022-11-22T19:00:37.136Z",
  "devdoc": {
    "kind": "dev",
    "methods": {
      "cancelQuest(uint256)": {
        "params": {
          "tokenId": "id of token you want to launch in quest"
        }
      },
      "completeQuest(uint256)": {
        "params": {
          "tokenId": "id of token you want to complete quest"
        }
      },
      "getHerosInSell()": {
        "returns": {
          "_0": "tokens return structure of heroes"
        }
      },
      "getParamsContract(string)": {
        "params": {
          "key": "key index of param your want to return"
        },
        "returns": {
          "_0": "param value of parameter contract"
        }
      },
      "levelUp(uint8,uint256)": {
        "params": {
          "statToLvlUp": "id of stat you want increment",
          "tokenId": "id of token you want level up"
        }
      },
      "mintHero(uint8,uint8,string)": {
        "params": {
          "_tokenUri": "uri of metadata token hero",
          "faction": "faction with class and stat linked",
          "generation": "generation of creation hero"
        }
      },
      "owner()": {
        "details": "Returns the address of the current owner."
      },
      "purchase(uint256)": {
        "params": {
          "tokenId": "id of token you want buy"
        }
      },
      "putHeroInSell(uint256,uint256)": {
        "params": {
          "price": "price of token put in selled",
          "tokenId": "id key of token you want to putt in sell"
        }
      },
      "renounceOwnership()": {
        "details": "Leaves the contract without owner. It will not be possible to call `onlyOwner` functions anymore. Can only be called by the current owner. NOTE: Renouncing ownership will leave the contract without an owner, thereby removing any functionality that is only available to the owner."
      },
      "setParamsContract(string,uint256)": {
        "params": {
          "key": "key index of params contract you want set",
          "value": "value of params contract you want set"
        }
      },
      "startQuest(uint256,uint256)": {
        "params": {
          "questId": "id of quest you want to start",
          "tokenId": "id of token you want to launch in quest"
        }
      },
      "transferOwnership(address)": {
        "details": "Transfers ownership of the contract to a new account (`newOwner`). Can only be called by the current owner."
      }
    },
    "version": 1
  },
  "userdoc": {
    "kind": "user",
    "methods": {
      "cancelQuest(uint256)": {
        "notice": "cancel a quest by id for one hero token"
      },
      "completeQuest(uint256)": {
        "notice": "Validation of the quest at the end of a quest"
      },
      "getHerosInSell()": {
        "notice": "return all heroes in market sell"
      },
      "getParamsContract(string)": {
        "notice": "Return a parameter of contract by key index"
      },
      "levelUp(uint8,uint256)": {
        "notice": "level up hero and increment one stat"
      },
      "mintHero(uint8,uint8,string)": {
        "notice": "mint a hero for a value price and generate stats and parameterr"
      },
      "purchase(uint256)": {
        "notice": "purchase a token previously put in sell"
      },
      "putHeroInSell(uint256,uint256)": {
        "notice": "put hero in sell market"
      },
      "setParamsContract(string,uint256)": {
        "notice": "Update a parameter of contract"
      },
      "startQuest(uint256,uint256)": {
        "notice": "start a quest by id for one hero token"
      }
    },
    "version": 1
  }
}