{
  "contractName": "ProxyMYOS",
  "abi": [
    {
      "inputs": [
        {
          "internalType": "uint256",
          "name": "totalSupply",
          "type": "uint256"
        },
        {
          "internalType": "uint256",
          "name": "quantity",
          "type": "uint256"
        }
      ],
      "name": "NoMoreToken",
      "type": "error"
    },
    {
      "inputs": [
        {
          "internalType": "uint256",
          "name": "balance",
          "type": "uint256"
        },
        {
          "internalType": "uint256",
          "name": "quantity",
          "type": "uint256"
        }
      ],
      "name": "NoMoreTokenOwned",
      "type": "error"
    },
    {
      "inputs": [
        {
          "internalType": "uint256",
          "name": "price",
          "type": "uint256"
        },
        {
          "internalType": "uint256",
          "name": "weiSended",
          "type": "uint256"
        },
        {
          "internalType": "uint256",
          "name": "quantity",
          "type": "uint256"
        }
      ],
      "name": "NotEnoughEth",
      "type": "error"
    },
    {
      "inputs": [
        {
          "internalType": "address",
          "name": "to",
          "type": "address"
        },
        {
          "internalType": "uint256",
          "name": "value",
          "type": "uint256"
        }
      ],
      "name": "SellMyosSendEth",
      "type": "error"
    },
    {
      "anonymous": false,
      "inputs": [
        {
          "indexed": true,
          "internalType": "address",
          "name": "previousOwner",
          "type": "address"
        },
        {
          "indexed": true,
          "internalType": "address",
          "name": "newOwner",
          "type": "address"
        }
      ],
      "name": "OwnershipTransferred",
      "type": "event"
    },
    {
      "anonymous": false,
      "inputs": [
        {
          "indexed": true,
          "internalType": "address",
          "name": "sender",
          "type": "address"
        },
        {
          "indexed": true,
          "internalType": "address",
          "name": "oldAddress",
          "type": "address"
        },
        {
          "indexed": true,
          "internalType": "address",
          "name": "newAddress",
          "type": "address"
        }
      ],
      "name": "settedAddressMYOSToken",
      "type": "event"
    },
    {
      "anonymous": false,
      "inputs": [
        {
          "indexed": true,
          "internalType": "address",
          "name": "sender",
          "type": "address"
        },
        {
          "indexed": false,
          "internalType": "uint256",
          "name": "oldPrice",
          "type": "uint256"
        },
        {
          "indexed": false,
          "internalType": "uint256",
          "name": "newPrice",
          "type": "uint256"
        }
      ],
      "name": "settedCurrentPrice",
      "type": "event"
    },
    {
      "anonymous": false,
      "inputs": [
        {
          "indexed": true,
          "internalType": "address",
          "name": "sender",
          "type": "address"
        },
        {
          "indexed": true,
          "internalType": "bytes32",
          "name": "oldMerkleRoot",
          "type": "bytes32"
        },
        {
          "indexed": false,
          "internalType": "uint256",
          "name": "oldMerkleEndTime",
          "type": "uint256"
        },
        {
          "indexed": true,
          "internalType": "bytes32",
          "name": "newMerkleRoot",
          "type": "bytes32"
        },
        {
          "indexed": false,
          "internalType": "uint256",
          "name": "newMerkleEndTime",
          "type": "uint256"
        }
      ],
      "name": "settedMerkleTree",
      "type": "event"
    },
    {
      "inputs": [],
      "name": "owner",
      "outputs": [
        {
          "internalType": "address",
          "name": "",
          "type": "address"
        }
      ],
      "stateMutability": "view",
      "type": "function"
    },
    {
      "inputs": [],
      "name": "renounceOwnership",
      "outputs": [],
      "stateMutability": "nonpayable",
      "type": "function"
    },
    {
      "inputs": [
        {
          "internalType": "address",
          "name": "newOwner",
          "type": "address"
        }
      ],
      "name": "transferOwnership",
      "outputs": [],
      "stateMutability": "nonpayable",
      "type": "function"
    },
    {
      "inputs": [
        {
          "internalType": "uint256",
          "name": "newPrice",
          "type": "uint256"
        }
      ],
      "name": "setCurrentPriceMYOS",
      "outputs": [],
      "stateMutability": "nonpayable",
      "type": "function"
    },
    {
      "inputs": [
        {
          "internalType": "address",
          "name": "_addressMYOSToken",
          "type": "address"
        }
      ],
      "name": "setAddressMYOSToken",
      "outputs": [],
      "stateMutability": "nonpayable",
      "type": "function"
    },
    {
      "inputs": [
        {
          "internalType": "bytes32",
          "name": "_merkleRoot",
          "type": "bytes32"
        },
        {
          "internalType": "uint256",
          "name": "_merkleEndTime",
          "type": "uint256"
        }
      ],
      "name": "setMerkleTree",
      "outputs": [],
      "stateMutability": "nonpayable",
      "type": "function"
    },
    {
      "inputs": [
        {
          "internalType": "uint256",
          "name": "quantity",
          "type": "uint256"
        },
        {
          "internalType": "address",
          "name": "receiver",
          "type": "address"
        },
        {
          "internalType": "bytes32[]",
          "name": "_proofs",
          "type": "bytes32[]"
        },
        {
          "internalType": "uint256",
          "name": "_proofMaxQuantityPerTransaction",
          "type": "uint256"
        }
      ],
      "name": "buyMYOS",
      "outputs": [],
      "stateMutability": "payable",
      "type": "function"
    },
    {
      "inputs": [
        {
          "internalType": "uint256",
          "name": "quantity",
          "type": "uint256"
        }
      ],
      "name": "sellMYOS",
      "outputs": [],
      "stateMutability": "nonpayable",
      "type": "function"
    },
    {
      "inputs": [
        {
          "internalType": "uint256",
          "name": "quantity",
          "type": "uint256"
        },
        {
          "internalType": "address",
          "name": "anotherToken",
          "type": "address"
        }
      ],
      "name": "convertMYOSToAnotherToken",
      "outputs": [],
      "stateMutability": "nonpayable",
      "type": "function"
    },
    {
      "inputs": [],
      "name": "getDynamicPriceMYOS",
      "outputs": [
        {
          "internalType": "uint256",
          "name": "",
          "type": "uint256"
        }
      ],
      "stateMutability": "view",
      "type": "function"
    },
    {
      "inputs": [],
      "name": "getCurrentpriceMYOS",
      "outputs": [
        {
          "internalType": "uint256",
          "name": "",
          "type": "uint256"
        }
      ],
      "stateMutability": "view",
      "type": "function"
    }
  ],
  "bytecode": "0x608060405234801561001057600080fd5b5061001a33610023565b60018055610073565b600080546001600160a01b038381166001600160a01b0319831681178455604051919092169283917f8be0079c531659141344cd1fd0a4f28419497f9722a3daafe3b4186f6b6457e09190a35050565b611066806100826000396000f3fe60806040526004361061009c5760003560e01c8063a36d3e6b11610064578063a36d3e6b14610137578063adcb719b14610156578063ae3c14a314610176578063bbe7f1771461018b578063f2fde38b146101ab578063fa4f8ab8146101cb57600080fd5b80636e1edceb146100a1578063715018a6146100b65780638d8ac43d146100cb5780638da5cb5b146100eb578063943d25d314610118575b600080fd5b6100b46100af366004610d47565b6101eb565b005b3480156100c257600080fd5b506100b461038c565b3480156100d757600080fd5b506100b46100e6366004610dd9565b6103a0565b3480156100f757600080fd5b506000546040516001600160a01b0390911681526020015b60405180910390f35b34801561012457600080fd5b506003545b60405190815260200161010f565b34801561014357600080fd5b506100b4610152366004610df2565b5050565b34801561016257600080fd5b506100b4610171366004610e1e565b6103eb565b34801561018257600080fd5b50610129610456565b34801561019757600080fd5b506100b46101a6366004610e40565b6104d3565b3480156101b757600080fd5b506100b46101c6366004610e40565b610539565b3480156101d757600080fd5b506100b46101e6366004610dd9565b6105b2565b6101f3610aa4565b6101ff33848484610afe565b50506003541561025b57846003546102179190610e78565b34101561025b578460035461022c9190610e78565b604051631cc6ec7b60e21b81526004810191909152346024820152604481018690526064015b60405180910390fd5b60035461028f578461026b610456565b6102759190610e78565b34101561028f5784610285610456565b61022c9190610e78565b6002546040805163313ce56760e01b815290516001600160a01b03909216916340c10f19918791849163313ce5679160048083019260209291908290030181865afa1580156102e2573d6000803e3d6000fd5b505050506040513d601f19601f820116820180604052508101906103069190610e97565b6103149060ff16600a610fa0565b61031e9089610e78565b6040516001600160e01b031960e085901b1681526001600160a01b0390921660048301526024820152604401600060405180830381600087803b15801561036457600080fd5b505af1158015610378573d6000803e3d6000fd5b5050505061038560018055565b5050505050565b610394610bb3565b61039e6000610c0d565b565b6103a8610bb3565b600354604080519182526020820183905233917ffa1796035675ba5176555a9a6e9c076b58a16502ebb5b0ee535f5704379210be910160405180910390a2600355565b6103f3610bb3565b816005546103fe3390565b6001600160a01b03167fc38d5a97a3391f617fc4953327e37bf50286e4eb8319eb42b040c116173894f160045485604051610443929190918252602082015260400190565b60405180910390a4600591909155600455565b600254604080516318160ddd60e01b815290516000926001600160a01b0316916318160ddd9160048083019260209291908290030181865afa1580156104a0573d6000803e3d6000fd5b505050506040513d601f19601f820116820180604052508101906104c49190610fac565b6104ce9047610fc5565b905090565b6104db610bb3565b6002546040516001600160a01b0383811692169033907f7d7de69d331fe0c95f666493bbdd79a85be0946889470521089fcd19116f6e0190600090a4600280546001600160a01b0319166001600160a01b0392909216919091179055565b610541610bb3565b6001600160a01b0381166105a65760405162461bcd60e51b815260206004820152602660248201527f4f776e61626c653a206e6577206f776e657220697320746865207a65726f206160448201526564647265737360d01b6064820152608401610252565b6105af81610c0d565b50565b6105ba610aa4565b6105c5816001610fe7565b600260009054906101000a90046001600160a01b03166001600160a01b03166318160ddd6040518163ffffffff1660e01b8152600401602060405180830381865afa158015610618573d6000803e3d6000fd5b505050506040513d601f19601f8201168201806040525081019061063c9190610fac565b116106db57600260009054906101000a90046001600160a01b03166001600160a01b03166318160ddd6040518163ffffffff1660e01b8152600401602060405180830381865afa158015610694573d6000803e3d6000fd5b505050506040513d601f19601f820116820180604052508101906106b89190610fac565b604051620456e760e31b8152600481019190915260248101829052604401610252565b600260009054906101000a90046001600160a01b03166001600160a01b031663313ce5676040518163ffffffff1660e01b8152600401602060405180830381865afa15801561072e573d6000803e3d6000fd5b505050506040513d601f19601f820116820180604052508101906107529190610e97565b6107609060ff16600a610fa0565b61076a9082610e78565b6002546001600160a01b03166370a08231336040516001600160e01b031960e084901b1681526001600160a01b039091166004820152602401602060405180830381865afa1580156107c0573d6000803e3d6000fd5b505050506040513d601f19601f820116820180604052508101906107e49190610fac565b1015610888576002546001600160a01b03166370a08231336040516001600160e01b031960e084901b1681526001600160a01b039091166004820152602401602060405180830381865afa158015610840573d6000803e3d6000fd5b505050506040513d601f19601f820116820180604052508101906108649190610fac565b60405163037e5fc360e21b8152600481019190915260248101829052604401610252565b60035415610930576000336001600160a01b0316826003546108aa9190610e78565b604051600081818185875af1925050503d80600081146108e6576040519150601f19603f3d011682016040523d82523d6000602084013e6108eb565b606091505b50909150508061092e5733826003546109049190610e78565b604051634482712560e11b81526001600160a01b0390921660048301526024820152604401610252565b505b6003546109ae5760003382610943610456565b61094d9190610e78565b604051600081818185875af1925050503d8060008114610989576040519150601f19603f3d011682016040523d82523d6000602084013e61098e565b606091505b5090915050806109ac5733826109a2610456565b6109049190610e78565b505b6002546040805163313ce56760e01b815290516001600160a01b0390921691639dc29fac913391849163313ce5679160048083019260209291908290030181865afa158015610a01573d6000803e3d6000fd5b505050506040513d601f19601f82011682018060405250810190610a259190610e97565b610a339060ff16600a610fa0565b610a3d9085610e78565b6040516001600160e01b031960e085901b1681526001600160a01b0390921660048301526024820152604401600060405180830381600087803b158015610a8357600080fd5b505af1158015610a97573d6000803e3d6000fd5b505050506105af60018055565b60026001541415610af75760405162461bcd60e51b815260206004820152601f60248201527f5265656e7472616e637947756172643a207265656e7472616e742063616c6c006044820152606401610252565b6002600155565b600554600090819015801590610b15575042600454105b8015610b22575060045415155b15610baa57610ba4858580806020026020016040519081016040528093929190818152602001838360200280828437600092019190915250506005546040516bffffffffffffffffffffffff1960608d901b16602082015260348101899052909250605401905060405160208183030381529060405280519060200120610c5d565b90925090505b94509492505050565b6000546001600160a01b0316331461039e5760405162461bcd60e51b815260206004820181905260248201527f4f776e61626c653a2063616c6c6572206973206e6f7420746865206f776e65726044820152606401610252565b600080546001600160a01b038381166001600160a01b0319831681178455604051919092169283917f8be0079c531659141344cd1fd0a4f28419497f9722a3daafe3b4186f6b6457e09190a35050565b6000808281805b8751811015610d1f57610c78600283610e78565b91506000888281518110610c8e57610c8e610fff565b60200260200101519050808411610cd0576040805160208101869052908101829052606001604051602081830303815290604052805190602001209350610d0c565b6040805160208101839052908101859052606001604051602081830303815290604052805190602001209350600183610d099190610fe7565b92505b5080610d1781611015565b915050610c64565b50941495939450505050565b80356001600160a01b0381168114610d4257600080fd5b919050565b600080600080600060808688031215610d5f57600080fd5b85359450610d6f60208701610d2b565b9350604086013567ffffffffffffffff80821115610d8c57600080fd5b818801915088601f830112610da057600080fd5b813581811115610daf57600080fd5b8960208260051b8501011115610dc457600080fd5b96999598505060200195606001359392505050565b600060208284031215610deb57600080fd5b5035919050565b60008060408385031215610e0557600080fd5b82359150610e1560208401610d2b565b90509250929050565b60008060408385031215610e3157600080fd5b50508035926020909101359150565b600060208284031215610e5257600080fd5b610e5b82610d2b565b9392505050565b634e487b7160e01b600052601160045260246000fd5b6000816000190483118215151615610e9257610e92610e62565b500290565b600060208284031215610ea957600080fd5b815160ff81168114610e5b57600080fd5b600181815b80851115610ef5578160001904821115610edb57610edb610e62565b80851615610ee857918102915b93841c9390800290610ebf565b509250929050565b600082610f0c57506001610f9a565b81610f1957506000610f9a565b8160018114610f2f5760028114610f3957610f55565b6001915050610f9a565b60ff841115610f4a57610f4a610e62565b50506001821b610f9a565b5060208310610133831016604e8410600b8410161715610f78575081810a610f9a565b610f828383610eba565b8060001904821115610f9657610f96610e62565b0290505b92915050565b6000610e5b8383610efd565b600060208284031215610fbe57600080fd5b5051919050565b600082610fe257634e487b7160e01b600052601260045260246000fd5b500490565b60008219821115610ffa57610ffa610e62565b500190565b634e487b7160e01b600052603260045260246000fd5b600060001982141561102957611029610e62565b506001019056fea2646970667358221220e4a0905f0592790551f2b22c234c001c91cae209ed706446c04c8f8a652f157b64736f6c634300080b0033",
  "immutableReferences": {},
  "source": "// SPDX-License-Identifier: MIT\n// Delegation contract\npragma solidity ^0.8.0;\n\nimport \"@openzeppelin/contracts/access/Ownable.sol\";\nimport \"@openzeppelin/contracts/security/ReentrancyGuard.sol\";\nimport \"../immutable/MYOS.sol\";\n\nimport \"../library/MerkleProof.sol\";\n\ncontract ProxyMYOS is Ownable, ReentrancyGuard {\n  error NotEnoughEth(uint256 price, uint256 weiSended, uint256 quantity);\n  error NoMoreToken(uint256 totalSupply, uint256 quantity);\n  error NoMoreTokenOwned(uint256 balance, uint256 quantity);\n  error SellMyosSendEth(address to, uint value);\n\n  event settedCurrentPrice(address indexed sender, uint256 oldPrice, uint256 newPrice);\n  event settedAddressMYOSToken(address indexed sender, address indexed oldAddress, address indexed newAddress);\n  event settedMerkleTree(address indexed sender, bytes32 indexed oldMerkleRoot, uint256 oldMerkleEndTime, bytes32 indexed newMerkleRoot, uint256 newMerkleEndTime);\n\n  address addressMYOSToken;\n  uint256 currentpriceMYOS;\n  uint256 merkleEndTime;\n  bytes32 merkleRoot;\n\n  ///@notice Update price of MYOS token for static price, if == 0 change for dynamic price\n  ///@param newPrice value of price in matic wei (matic / 10**18)\n  function setCurrentPriceMYOS(uint256 newPrice) external onlyOwner {\n    emit settedCurrentPrice(_msgSender(), currentpriceMYOS, newPrice);\n    currentpriceMYOS = newPrice;\n  }\n\n  ///@notice Update the destination address of the official contract MYOS token so that the delegation contract can access it\n  ///@param _addressMYOSToken address of contract MYOS\n  function setAddressMYOSToken(address _addressMYOSToken) external onlyOwner {\n    emit settedAddressMYOSToken(_msgSender(), addressMYOSToken, _addressMYOSToken);\n    addressMYOSToken = _addressMYOSToken;\n  }\n\n  ///@notice Set the merkle tree to create whitelist for mint\n  ///@param _merkleRoot A bytes 32 represent root of tree for verify all merkle proof\n  ///@param _merkleEndTime Represent a timestamp (in seconds) represents end of whitelist\n  function setMerkleTree(bytes32 _merkleRoot, uint256 _merkleEndTime) external onlyOwner {\n    emit settedMerkleTree(_msgSender(), merkleRoot, merkleEndTime, _merkleRoot, _merkleEndTime);\n    merkleRoot = _merkleRoot;\n    merkleEndTime = _merkleEndTime;\n  }\n\n  ///@notice Purchase of a resource for eth/MATIC\n  ///@param quantity number of token myos you want purchase\n  ///@param receiver address waller of receiver's token\n  function buyMYOS(\n    uint256 quantity,\n    address receiver,\n    bytes32[] calldata _proofs,\n    uint256 _proofMaxQuantityPerTransaction\n  ) external payable nonReentrant {\n    verifyMerkleProof(_msgSender(), _proofs, _proofMaxQuantityPerTransaction);\n    if (currentpriceMYOS != 0) {\n      if (msg.value < (currentpriceMYOS * quantity))\n        revert NotEnoughEth({\n          price: currentpriceMYOS * quantity,\n          weiSended: msg.value,\n          quantity: quantity\n        });\n    }\n    if (currentpriceMYOS == 0) {\n      if (msg.value < (getDynamicPriceMYOS() * quantity))\n        revert NotEnoughEth({\n          price: getDynamicPriceMYOS() * quantity,\n          weiSended: msg.value,\n          quantity: quantity\n        });\n    }\n    // (bool sent, ) = addressMYOSToken.call{ value: msg.value }(\"\");\n    // require(sent == true, \"Send of eth not sent\");\n    MYOS(addressMYOSToken).mint(\n      receiver,\n      quantity * (10 ** uint256(MYOS(addressMYOSToken).decimals()))\n    );\n  }\n\n  ///@notice Sale of MYOS token against MATIC\n  ///@param quantity number of token myos you want sell\n  function sellMYOS(uint256 quantity) external nonReentrant {\n    if (MYOS(addressMYOSToken).totalSupply() <= quantity + 1)\n      revert NoMoreToken({\n        totalSupply: MYOS(addressMYOSToken).totalSupply(),\n        quantity: quantity\n      });\n    if (\n      MYOS(addressMYOSToken).balanceOf(_msgSender()) <\n      quantity * (10 ** uint256(MYOS(addressMYOSToken).decimals()))\n    )\n      revert NoMoreTokenOwned({\n        balance: MYOS(addressMYOSToken).balanceOf(_msgSender()),\n        quantity: quantity\n      });\n    if (currentpriceMYOS != 0) {\n      (bool sent, ) = _msgSender().call{ value: currentpriceMYOS * quantity }(\"\");\n      if (sent == false)\n        revert SellMyosSendEth({ to: _msgSender(), value: currentpriceMYOS * quantity });\n    }\n    if (currentpriceMYOS == 0) {\n      (bool sent, ) = _msgSender().call{ value: getDynamicPriceMYOS() * quantity }(\"\");\n      if (sent == false)\n        revert SellMyosSendEth({\n          to: _msgSender(),\n          value: getDynamicPriceMYOS() * quantity\n        });\n    }\n    MYOS(addressMYOSToken).burn(\n      _msgSender(),\n      quantity * (10 ** uint256(MYOS(addressMYOSToken).decimals()))\n    );\n  }\n\n  ///@notice Converting the MYOS to another token\n  ///@param quantity number of token myos you want convert\n  ///@param anotherToken address of token you want to convert\n  function convertMYOSToAnotherToken(uint256 quantity, address anotherToken) external {\n    /*require(totalSupply()>quantity+1,\"No more this token\");\n        require(balanceOf(_msgSender())>=quantity,\"No more this token\");\n        _burn(_msgSender(),quantity);\n        currentprice = getDynamicPriceMYOS();*/\n  }\n\n  ///@notice Verify proof of a claimer to mint in a whitelist\n  ///@param _claimer _msgSender() address wallet of user he want mint token MYOS\n  ///@param _proofs array of bytes 32 represent proof of merkle with merkle tree\n  ///@param _proofMaxQuantityPerTransaction useless for us but need it, its for add quantity into merkle tree\n  function verifyMerkleProof(\n    address _claimer,\n    bytes32[] calldata _proofs,\n    uint256 _proofMaxQuantityPerTransaction\n  ) internal view returns (bool validMerkleProof, uint256 merkleProofIndex) {\n    if (\n      merkleRoot != bytes32(0) && merkleEndTime < block.timestamp && merkleEndTime != 0\n    ) {\n      (validMerkleProof, merkleProofIndex) = MerkleProofLib.verify(\n        _proofs,\n        merkleRoot,\n        keccak256(abi.encodePacked(_claimer, _proofMaxQuantityPerTransaction))\n      );\n    }\n  }\n\n  ///@notice Function to calculate dynamic price\n  function getDynamicPriceMYOS() public view returns (uint256) {\n    return address(this).balance / MYOS(addressMYOSToken).totalSupply();\n  }\n\n  ///@notice Function to return static price\n  function getCurrentpriceMYOS() external view returns (uint256) {\n    return currentpriceMYOS;\n  }\n}\n",
  "sourcePath": "/home/solid-solution/Bureau/HOMEWORK/MYOS/contracts/proxy/ProxyMYOS.sol",
  "compiler": {
    "name": "solc",
    "version": "0.8.11+commit.d7f03943.Emscripten.clang"
  },
  "schemaVersion": "3.4.10",
  "updatedAt": "2022-11-23T00:28:56.482Z",
  "devdoc": {
    "kind": "dev",
    "methods": {
      "buyMYOS(uint256,address,bytes32[],uint256)": {
        "params": {
          "quantity": "number of token myos you want purchase",
          "receiver": "address waller of receiver's token"
        }
      },
      "convertMYOSToAnotherToken(uint256,address)": {
        "params": {
          "anotherToken": "address of token you want to convert",
          "quantity": "number of token myos you want convert"
        }
      },
      "owner()": {
        "details": "Returns the address of the current owner."
      },
      "renounceOwnership()": {
        "details": "Leaves the contract without owner. It will not be possible to call `onlyOwner` functions anymore. Can only be called by the current owner. NOTE: Renouncing ownership will leave the contract without an owner, thereby removing any functionality that is only available to the owner."
      },
      "sellMYOS(uint256)": {
        "params": {
          "quantity": "number of token myos you want sell"
        }
      },
      "setAddressMYOSToken(address)": {
        "params": {
          "_addressMYOSToken": "address of contract MYOS"
        }
      },
      "setCurrentPriceMYOS(uint256)": {
        "params": {
          "newPrice": "value of price in matic wei (matic / 10**18)"
        }
      },
      "setMerkleTree(bytes32,uint256)": {
        "params": {
          "_merkleEndTime": "Represent a timestamp (in seconds) represents end of whitelist",
          "_merkleRoot": "A bytes 32 represent root of tree for verify all merkle proof"
        }
      },
      "transferOwnership(address)": {
        "details": "Transfers ownership of the contract to a new account (`newOwner`). Can only be called by the current owner."
      }
    },
    "version": 1
  },
  "userdoc": {
    "kind": "user",
    "methods": {
      "buyMYOS(uint256,address,bytes32[],uint256)": {
        "notice": "Purchase of a resource for eth/MATIC"
      },
      "convertMYOSToAnotherToken(uint256,address)": {
        "notice": "Converting the MYOS to another token"
      },
      "getCurrentpriceMYOS()": {
        "notice": "Function to return static price"
      },
      "getDynamicPriceMYOS()": {
        "notice": "Function to calculate dynamic price"
      },
      "sellMYOS(uint256)": {
        "notice": "Sale of MYOS token against MATIC"
      },
      "setAddressMYOSToken(address)": {
        "notice": "Update the destination address of the official contract MYOS token so that the delegation contract can access it"
      },
      "setCurrentPriceMYOS(uint256)": {
        "notice": "Update price of MYOS token for static price, if == 0 change for dynamic price"
      },
      "setMerkleTree(bytes32,uint256)": {
        "notice": "Set the merkle tree to create whitelist for mint"
      }
    },
    "version": 1
  }
}