{
  "contractName": "ProxyEquipments",
  "abi": [
    {
      "inputs": [
        {
          "internalType": "address",
          "name": "_addressEquipment",
          "type": "address"
        },
        {
          "internalType": "address",
          "name": "_addressItem",
          "type": "address"
        }
      ],
      "stateMutability": "nonpayable",
      "type": "constructor"
    },
    {
      "inputs": [
        {
          "internalType": "uint256",
          "name": "tokenId",
          "type": "uint256"
        },
        {
          "internalType": "address",
          "name": "sender",
          "type": "address"
        },
        {
          "internalType": "address",
          "name": "owner",
          "type": "address"
        }
      ],
      "name": "AlreadyOwned",
      "type": "error"
    },
    {
      "inputs": [
        {
          "internalType": "uint256",
          "name": "tokenId",
          "type": "uint256"
        },
        {
          "internalType": "uint256",
          "name": "price",
          "type": "uint256"
        }
      ],
      "name": "EquipmentNotInSales",
      "type": "error"
    },
    {
      "inputs": [
        {
          "internalType": "uint256",
          "name": "balance",
          "type": "uint256"
        },
        {
          "internalType": "address",
          "name": "sender",
          "type": "address"
        },
        {
          "internalType": "uint256",
          "name": "quantity",
          "type": "uint256"
        },
        {
          "internalType": "uint256",
          "name": "tokenId",
          "type": "uint256"
        }
      ],
      "name": "NoMoreBalanceToken",
      "type": "error"
    },
    {
      "inputs": [
        {
          "internalType": "uint256",
          "name": "supply",
          "type": "uint256"
        },
        {
          "internalType": "uint256",
          "name": "quantity",
          "type": "uint256"
        },
        {
          "internalType": "uint256",
          "name": "tokenId",
          "type": "uint256"
        }
      ],
      "name": "NoMoreSupplyToken",
      "type": "error"
    },
    {
      "inputs": [
        {
          "internalType": "uint256",
          "name": "balance",
          "type": "uint256"
        },
        {
          "internalType": "uint256",
          "name": "itemIdQuantity",
          "type": "uint256"
        },
        {
          "internalType": "uint256",
          "name": "itemIdCraft",
          "type": "uint256"
        }
      ],
      "name": "NotEnoughBalance",
      "type": "error"
    },
    {
      "inputs": [
        {
          "internalType": "uint256",
          "name": "price",
          "type": "uint256"
        },
        {
          "internalType": "uint256",
          "name": "weiSended",
          "type": "uint256"
        },
        {
          "internalType": "uint256",
          "name": "tokenId",
          "type": "uint256"
        },
        {
          "internalType": "uint256",
          "name": "quantity",
          "type": "uint256"
        }
      ],
      "name": "NotEnoughEth",
      "type": "error"
    },
    {
      "inputs": [
        {
          "internalType": "uint256",
          "name": "tokenId",
          "type": "uint256"
        },
        {
          "internalType": "uint256",
          "name": "price",
          "type": "uint256"
        },
        {
          "internalType": "uint256",
          "name": "value",
          "type": "uint256"
        }
      ],
      "name": "NotEnoughEthPurchase",
      "type": "error"
    },
    {
      "inputs": [
        {
          "internalType": "uint256",
          "name": "tokenId",
          "type": "uint256"
        },
        {
          "internalType": "address",
          "name": "sender",
          "type": "address"
        },
        {
          "internalType": "uint256",
          "name": "tokenIdInStructure",
          "type": "uint256"
        }
      ],
      "name": "NotGoodTokenId",
      "type": "error"
    },
    {
      "inputs": [
        {
          "internalType": "uint256",
          "name": "tokenId",
          "type": "uint256"
        },
        {
          "internalType": "address",
          "name": "sender",
          "type": "address"
        },
        {
          "internalType": "address",
          "name": "owner",
          "type": "address"
        }
      ],
      "name": "NotYourToken",
      "type": "error"
    },
    {
      "inputs": [
        {
          "internalType": "address",
          "name": "to",
          "type": "address"
        },
        {
          "internalType": "uint256",
          "name": "value",
          "type": "uint256"
        }
      ],
      "name": "SellEquipmentSendEth",
      "type": "error"
    },
    {
      "inputs": [
        {
          "internalType": "uint256",
          "name": "balance",
          "type": "uint256"
        },
        {
          "internalType": "address",
          "name": "sender",
          "type": "address"
        },
        {
          "internalType": "uint256",
          "name": "quantity",
          "type": "uint256"
        },
        {
          "internalType": "uint256",
          "name": "tokenId",
          "type": "uint256"
        }
      ],
      "name": "ZeroQuantityConvertAvailable",
      "type": "error"
    },
    {
      "anonymous": false,
      "inputs": [
        {
          "indexed": true,
          "internalType": "address",
          "name": "previousOwner",
          "type": "address"
        },
        {
          "indexed": true,
          "internalType": "address",
          "name": "newOwner",
          "type": "address"
        }
      ],
      "name": "OwnershipTransferred",
      "type": "event"
    },
    {
      "anonymous": false,
      "inputs": [
        {
          "indexed": true,
          "internalType": "bytes32",
          "name": "role",
          "type": "bytes32"
        },
        {
          "indexed": true,
          "internalType": "bytes32",
          "name": "previousAdminRole",
          "type": "bytes32"
        },
        {
          "indexed": true,
          "internalType": "bytes32",
          "name": "newAdminRole",
          "type": "bytes32"
        }
      ],
      "name": "RoleAdminChanged",
      "type": "event"
    },
    {
      "anonymous": false,
      "inputs": [
        {
          "indexed": true,
          "internalType": "bytes32",
          "name": "role",
          "type": "bytes32"
        },
        {
          "indexed": true,
          "internalType": "address",
          "name": "account",
          "type": "address"
        },
        {
          "indexed": true,
          "internalType": "address",
          "name": "sender",
          "type": "address"
        }
      ],
      "name": "RoleGranted",
      "type": "event"
    },
    {
      "anonymous": false,
      "inputs": [
        {
          "indexed": true,
          "internalType": "bytes32",
          "name": "role",
          "type": "bytes32"
        },
        {
          "indexed": true,
          "internalType": "address",
          "name": "account",
          "type": "address"
        },
        {
          "indexed": true,
          "internalType": "address",
          "name": "sender",
          "type": "address"
        }
      ],
      "name": "RoleRevoked",
      "type": "event"
    },
    {
      "anonymous": false,
      "inputs": [
        {
          "indexed": true,
          "internalType": "address",
          "name": "sender",
          "type": "address"
        },
        {
          "indexed": false,
          "internalType": "uint256",
          "name": "quantity",
          "type": "uint256"
        },
        {
          "indexed": true,
          "internalType": "uint256",
          "name": "tokenId",
          "type": "uint256"
        },
        {
          "indexed": true,
          "internalType": "address",
          "name": "receiver",
          "type": "address"
        }
      ],
      "name": "buyedEquipment",
      "type": "event"
    },
    {
      "anonymous": false,
      "inputs": [
        {
          "indexed": true,
          "internalType": "address",
          "name": "sender",
          "type": "address"
        },
        {
          "indexed": true,
          "internalType": "uint256",
          "name": "tokenId",
          "type": "uint256"
        }
      ],
      "name": "cancelledInSell",
      "type": "event"
    },
    {
      "anonymous": false,
      "inputs": [
        {
          "indexed": true,
          "internalType": "address",
          "name": "sender",
          "type": "address"
        },
        {
          "indexed": false,
          "internalType": "uint256",
          "name": "quantity",
          "type": "uint256"
        },
        {
          "indexed": true,
          "internalType": "uint256",
          "name": "fromTokenId",
          "type": "uint256"
        },
        {
          "indexed": true,
          "internalType": "uint256",
          "name": "toTokenId",
          "type": "uint256"
        },
        {
          "indexed": false,
          "internalType": "address",
          "name": "receiver",
          "type": "address"
        }
      ],
      "name": "convertedToAnotherToken",
      "type": "event"
    },
    {
      "anonymous": false,
      "inputs": [
        {
          "indexed": true,
          "internalType": "address",
          "name": "sender",
          "type": "address"
        },
        {
          "indexed": true,
          "internalType": "uint256",
          "name": "tokenId",
          "type": "uint256"
        },
        {
          "indexed": false,
          "internalType": "address",
          "name": "receiver",
          "type": "address"
        }
      ],
      "name": "craftedItem",
      "type": "event"
    },
    {
      "anonymous": false,
      "inputs": [
        {
          "indexed": true,
          "internalType": "address",
          "name": "sender",
          "type": "address"
        },
        {
          "indexed": false,
          "internalType": "uint256",
          "name": "id",
          "type": "uint256"
        },
        {
          "indexed": true,
          "internalType": "uint256",
          "name": "tokenId",
          "type": "uint256"
        },
        {
          "indexed": true,
          "internalType": "address",
          "name": "receiver",
          "type": "address"
        }
      ],
      "name": "purchasedInSell",
      "type": "event"
    },
    {
      "anonymous": false,
      "inputs": [
        {
          "indexed": true,
          "internalType": "address",
          "name": "sender",
          "type": "address"
        },
        {
          "indexed": true,
          "internalType": "uint256",
          "name": "tokenId",
          "type": "uint256"
        },
        {
          "indexed": false,
          "internalType": "uint256",
          "name": "price",
          "type": "uint256"
        }
      ],
      "name": "puttedInSell",
      "type": "event"
    },
    {
      "anonymous": false,
      "inputs": [
        {
          "indexed": true,
          "internalType": "address",
          "name": "sender",
          "type": "address"
        },
        {
          "indexed": false,
          "internalType": "uint256",
          "name": "quantity",
          "type": "uint256"
        },
        {
          "indexed": true,
          "internalType": "uint256",
          "name": "tokenId",
          "type": "uint256"
        }
      ],
      "name": "selledEquipment",
      "type": "event"
    },
    {
      "inputs": [],
      "name": "DEFAULT_ADMIN_ROLE",
      "outputs": [
        {
          "internalType": "bytes32",
          "name": "",
          "type": "bytes32"
        }
      ],
      "stateMutability": "view",
      "type": "function"
    },
    {
      "inputs": [
        {
          "internalType": "uint256",
          "name": "",
          "type": "uint256"
        }
      ],
      "name": "equipmentsInSell",
      "outputs": [
        {
          "internalType": "uint256",
          "name": "tokenId",
          "type": "uint256"
        },
        {
          "internalType": "uint256",
          "name": "price",
          "type": "uint256"
        },
        {
          "internalType": "address",
          "name": "owner",
          "type": "address"
        }
      ],
      "stateMutability": "view",
      "type": "function"
    },
    {
      "inputs": [
        {
          "internalType": "bytes32",
          "name": "role",
          "type": "bytes32"
        }
      ],
      "name": "getRoleAdmin",
      "outputs": [
        {
          "internalType": "bytes32",
          "name": "",
          "type": "bytes32"
        }
      ],
      "stateMutability": "view",
      "type": "function"
    },
    {
      "inputs": [
        {
          "internalType": "bytes32",
          "name": "role",
          "type": "bytes32"
        },
        {
          "internalType": "uint256",
          "name": "index",
          "type": "uint256"
        }
      ],
      "name": "getRoleMember",
      "outputs": [
        {
          "internalType": "address",
          "name": "",
          "type": "address"
        }
      ],
      "stateMutability": "view",
      "type": "function"
    },
    {
      "inputs": [
        {
          "internalType": "bytes32",
          "name": "role",
          "type": "bytes32"
        }
      ],
      "name": "getRoleMemberCount",
      "outputs": [
        {
          "internalType": "uint256",
          "name": "",
          "type": "uint256"
        }
      ],
      "stateMutability": "view",
      "type": "function"
    },
    {
      "inputs": [
        {
          "internalType": "bytes32",
          "name": "role",
          "type": "bytes32"
        },
        {
          "internalType": "address",
          "name": "account",
          "type": "address"
        }
      ],
      "name": "grantRole",
      "outputs": [],
      "stateMutability": "nonpayable",
      "type": "function"
    },
    {
      "inputs": [
        {
          "internalType": "bytes32",
          "name": "role",
          "type": "bytes32"
        },
        {
          "internalType": "address",
          "name": "account",
          "type": "address"
        }
      ],
      "name": "hasRole",
      "outputs": [
        {
          "internalType": "bool",
          "name": "",
          "type": "bool"
        }
      ],
      "stateMutability": "view",
      "type": "function"
    },
    {
      "inputs": [],
      "name": "owner",
      "outputs": [
        {
          "internalType": "address",
          "name": "",
          "type": "address"
        }
      ],
      "stateMutability": "view",
      "type": "function"
    },
    {
      "inputs": [],
      "name": "renounceOwnership",
      "outputs": [],
      "stateMutability": "nonpayable",
      "type": "function"
    },
    {
      "inputs": [
        {
          "internalType": "bytes32",
          "name": "role",
          "type": "bytes32"
        },
        {
          "internalType": "address",
          "name": "account",
          "type": "address"
        }
      ],
      "name": "renounceRole",
      "outputs": [],
      "stateMutability": "nonpayable",
      "type": "function"
    },
    {
      "inputs": [
        {
          "internalType": "bytes32",
          "name": "role",
          "type": "bytes32"
        },
        {
          "internalType": "address",
          "name": "account",
          "type": "address"
        }
      ],
      "name": "revokeRole",
      "outputs": [],
      "stateMutability": "nonpayable",
      "type": "function"
    },
    {
      "inputs": [
        {
          "internalType": "address",
          "name": "newOwner",
          "type": "address"
        }
      ],
      "name": "transferOwnership",
      "outputs": [],
      "stateMutability": "nonpayable",
      "type": "function"
    },
    {
      "inputs": [
        {
          "internalType": "uint256",
          "name": "tokenId",
          "type": "uint256"
        },
        {
          "internalType": "address",
          "name": "receiver",
          "type": "address"
        }
      ],
      "name": "craft",
      "outputs": [],
      "stateMutability": "nonpayable",
      "type": "function"
    },
    {
      "inputs": [
        {
          "internalType": "uint256",
          "name": "tokenId",
          "type": "uint256"
        },
        {
          "internalType": "uint256",
          "name": "price",
          "type": "uint256"
        }
      ],
      "name": "putInSell",
      "outputs": [],
      "stateMutability": "nonpayable",
      "type": "function"
    },
    {
      "inputs": [
        {
          "internalType": "uint256",
          "name": "id",
          "type": "uint256"
        }
      ],
      "name": "cancelInSell",
      "outputs": [],
      "stateMutability": "nonpayable",
      "type": "function"
    },
    {
      "inputs": [],
      "name": "getInSell",
      "outputs": [
        {
          "components": [
            {
              "internalType": "uint256",
              "name": "tokenId",
              "type": "uint256"
            },
            {
              "internalType": "uint256",
              "name": "price",
              "type": "uint256"
            },
            {
              "internalType": "address",
              "name": "owner",
              "type": "address"
            }
          ],
          "internalType": "struct EquipmentsLib.EquipmentInSell[]",
          "name": "",
          "type": "tuple[]"
        }
      ],
      "stateMutability": "view",
      "type": "function"
    },
    {
      "inputs": [
        {
          "internalType": "uint256",
          "name": "id",
          "type": "uint256"
        },
        {
          "internalType": "uint256",
          "name": "tokenId",
          "type": "uint256"
        },
        {
          "internalType": "address",
          "name": "receiver",
          "type": "address"
        }
      ],
      "name": "purchase",
      "outputs": [],
      "stateMutability": "payable",
      "type": "function"
    },
    {
      "inputs": [
        {
          "internalType": "uint256",
          "name": "quantity",
          "type": "uint256"
        },
        {
          "internalType": "address",
          "name": "receiver",
          "type": "address"
        },
        {
          "internalType": "uint256",
          "name": "tokenId",
          "type": "uint256"
        }
      ],
      "name": "buyEquipment",
      "outputs": [],
      "stateMutability": "payable",
      "type": "function"
    },
    {
      "inputs": [
        {
          "internalType": "uint256",
          "name": "quantity",
          "type": "uint256"
        },
        {
          "internalType": "uint256",
          "name": "tokenId",
          "type": "uint256"
        }
      ],
      "name": "sellEquipment",
      "outputs": [],
      "stateMutability": "nonpayable",
      "type": "function"
    },
    {
      "inputs": [
        {
          "internalType": "address",
          "name": "receiver",
          "type": "address"
        },
        {
          "internalType": "uint256",
          "name": "quantity",
          "type": "uint256"
        },
        {
          "internalType": "uint256",
          "name": "fromTokenId",
          "type": "uint256"
        },
        {
          "internalType": "uint256",
          "name": "toTokenId",
          "type": "uint256"
        }
      ],
      "name": "convertToAnotherToken",
      "outputs": [],
      "stateMutability": "nonpayable",
      "type": "function"
    },
    {
      "inputs": [],
      "name": "withdraw",
      "outputs": [],
      "stateMutability": "nonpayable",
      "type": "function"
    },
    {
      "inputs": [
        {
          "internalType": "uint256",
          "name": "firstTokenPrice",
          "type": "uint256"
        },
        {
          "internalType": "uint256",
          "name": "twoTokenPrice",
          "type": "uint256"
        },
        {
          "internalType": "uint256",
          "name": "quantity",
          "type": "uint256"
        }
      ],
      "name": "calculConversionQuantity",
      "outputs": [
        {
          "internalType": "uint256",
          "name": "",
          "type": "uint256"
        }
      ],
      "stateMutability": "pure",
      "type": "function"
    },
    {
      "inputs": [
        {
          "internalType": "address",
          "name": "",
          "type": "address"
        },
        {
          "internalType": "address",
          "name": "",
          "type": "address"
        },
        {
          "internalType": "uint256",
          "name": "",
          "type": "uint256"
        },
        {
          "internalType": "uint256",
          "name": "",
          "type": "uint256"
        },
        {
          "internalType": "bytes",
          "name": "",
          "type": "bytes"
        }
      ],
      "name": "onERC1155Received",
      "outputs": [
        {
          "internalType": "bytes4",
          "name": "",
          "type": "bytes4"
        }
      ],
      "stateMutability": "nonpayable",
      "type": "function"
    },
    {
      "inputs": [
        {
          "internalType": "address",
          "name": "",
          "type": "address"
        },
        {
          "internalType": "address",
          "name": "",
          "type": "address"
        },
        {
          "internalType": "uint256[]",
          "name": "",
          "type": "uint256[]"
        },
        {
          "internalType": "uint256[]",
          "name": "",
          "type": "uint256[]"
        },
        {
          "internalType": "bytes",
          "name": "",
          "type": "bytes"
        }
      ],
      "name": "onERC1155BatchReceived",
      "outputs": [
        {
          "internalType": "bytes4",
          "name": "",
          "type": "bytes4"
        }
      ],
      "stateMutability": "nonpayable",
      "type": "function"
    },
    {
      "inputs": [
        {
          "internalType": "bytes4",
          "name": "interfaceId",
          "type": "bytes4"
        }
      ],
      "name": "supportsInterface",
      "outputs": [
        {
          "internalType": "bool",
          "name": "",
          "type": "bool"
        }
      ],
      "stateMutability": "view",
      "type": "function"
    }
  ],
  "bytecode": "0x60806040523480156200001157600080fd5b5060405162002b9338038062002b938339810160408190526200003491620000e2565b6200003f3362000075565b60018055600480546001600160a01b039384166001600160a01b031991821617909155600580549290931691161790556200011a565b600080546001600160a01b038381166001600160a01b0319831681178455604051919092169283917f8be0079c531659141344cd1fd0a4f28419497f9722a3daafe3b4186f6b6457e09190a35050565b80516001600160a01b0381168114620000dd57600080fd5b919050565b60008060408385031215620000f657600080fd5b6200010183620000c5565b91506200011160208401620000c5565b90509250929050565b612a69806200012a6000396000f3fe6080604052600436106101665760003560e01c80639010d07c116100d1578063bb5751311161008a578063d547741f11610064578063d547741f14610494578063ea3bd5df146104b4578063f23a6e61146104c7578063f2fde38b146104f357600080fd5b8063bb5751311461040f578063bc197c811461042f578063ca15c8731461047457600080fd5b80639010d07c1461030f57806391d148541461032f57806393ffff221461034f578063a217fddf14610371578063a7ca5d8a14610386578063afff305f146103a657600080fd5b80632f2ff15d116101235780632f2ff15d1461026057806335d4cb551461028057806336568abe146102935780633ccfd60b146102b3578063715018a6146102c85780638da5cb5b146102dd57600080fd5b806301ffc9a71461016b57806308585fe4146101a05780630893638a146101c257806319f51269146101e2578063248a9ca31461020257806329a975fa14610240575b600080fd5b34801561017757600080fd5b5061018b6101863660046121c2565b610513565b60405190151581526020015b60405180910390f35b3480156101ac57600080fd5b506101c06101bb366004612208565b61053e565b005b3480156101ce57600080fd5b506101c06101dd366004612241565b610a1c565b3480156101ee57600080fd5b506101c06101fd36600461225a565b610b4b565b34801561020e57600080fd5b5061023261021d366004612241565b60009081526002602052604090206001015490565b604051908152602001610197565b34801561024c57600080fd5b506101c061025b36600461225a565b610d86565b34801561026c57600080fd5b506101c061027b36600461227c565b61113e565b6101c061028e3660046122a8565b611168565b34801561029f57600080fd5b506101c06102ae36600461227c565b6112f3565b3480156102bf57600080fd5b506101c0611371565b3480156102d457600080fd5b506101c06113a8565b3480156102e957600080fd5b506000546001600160a01b03165b6040516001600160a01b039091168152602001610197565b34801561031b57600080fd5b506102f761032a36600461225a565b6113bc565b34801561033b57600080fd5b5061018b61034a36600461227c565b6113db565b34801561035b57600080fd5b50610364611406565b60405161019791906122dd565b34801561037d57600080fd5b50610232600081565b34801561039257600080fd5b506102326103a136600461233f565b61150c565b3480156103b257600080fd5b506103eb6103c1366004612241565b6006602052600090815260409020805460018201546002909201549091906001600160a01b031683565b6040805193845260208401929092526001600160a01b031690820152606001610197565b34801561041b57600080fd5b506101c061042a36600461227c565b611539565b34801561043b57600080fd5b5061045b61044a3660046124e3565b63bc197c8160e01b95945050505050565b6040516001600160e01b03199091168152602001610197565b34801561048057600080fd5b5061023261048f366004612241565b611840565b3480156104a057600080fd5b506101c06104af36600461227c565b611857565b6101c06104c236600461258d565b61187c565b3480156104d357600080fd5b5061045b6104e23660046125c2565b63f23a6e6160e01b95945050505050565b3480156104ff57600080fd5b506101c061050e366004612627565b611ae8565b60006001600160e01b03198216630271189760e51b1480610538575061053882611b5e565b92915050565b610546611b83565b60048054604051634da3b9c760e01b81529182018490526001600160a01b0316906000908290634da3b9c790602401600060405180830381865afa158015610592573d6000803e3d6000fd5b505050506040513d6000823e601f3d908101601f191682016040526105ba919081019061271e565b604051634da3b9c760e01b8152600481018590529091506000906001600160a01b03841690634da3b9c790602401600060405180830381865afa158015610605573d6000803e3d6000fd5b505050506040513d6000823e601f3d908101601f1916820160405261062d919081019061271e565b60405163f77ee79d60e01b81526004810187905290915086906001600160a01b0385169063f77ee79d90602401602060405180830381865afa158015610677573d6000803e3d6000fd5b505050506040513d601f19601f8201168201806040525081019061069b91906127f8565b101561073a5760405163f77ee79d60e01b8152600481018690526001600160a01b0384169063f77ee79d90602401602060405180830381865afa1580156106e6573d6000803e3d6000fd5b505050506040513d601f19601f8201168201806040525081019061070a91906127f8565b604051633dd4346360e21b8152600481019190915260248101879052604481018690526064015b60405180910390fd5b604051627eeac760e11b815286906001600160a01b0385169062fdd58e906107689033908a90600401612811565b602060405180830381865afa158015610785573d6000803e3d6000fd5b505050506040513d601f19601f820116820180604052508101906107a991906127f8565b101561083c57604051627eeac760e11b81526001600160a01b0384169062fdd58e906107db9033908990600401612811565b602060405180830381865afa1580156107f8573d6000803e3d6000fd5b505050506040513d601f19601f8201168201806040525081019061081c91906127f8565b33878760405163700acb1960e11b8152600401610731949392919061282a565b6000610851836040015183604001518961150c565b9050600081116108e857604051627eeac760e11b81526001600160a01b0385169062fdd58e906108879033908a90600401612811565b602060405180830381865afa1580156108a4573d6000803e3d6000fd5b505050506040513d601f19601f820116820180604052508101906108c891906127f8565b338887604051631eeefc3f60e11b8152600401610731949392919061282a565b604051637a94c56560e11b81526001600160a01b0385169063f5298aca906109189033908a908c9060040161284e565b600060405180830381600087803b15801561093257600080fd5b505af1158015610946573d6000803e3d6000fd5b5050604051630ab714fb60e11b81526001600160a01b038716925063156e29f6915061097a908b908990869060040161284e565b600060405180830381600087803b15801561099457600080fd5b505af11580156109a8573d6000803e3d6000fd5b5050505084866109b53390565b6001600160a01b03167fd9d09af227784d82e79b16142daa01d77cef3a00dbf858d8d53deebb5faf30f58a8c604051610a019291909182526001600160a01b0316602082015260400190565b60405180910390a450505050610a1660018055565b50505050565b6004546000828152600660205260409020600281015490546001600160a01b039283169290911690338214610a7c5760405163655b0b5f60e01b8152600481018290523360248201526001600160a01b0383166044820152606401610731565b60008481526006602052604080822082815560018082019390935560020180546001600160a01b031916905551637921219560e11b81526001600160a01b0385169163f242432a91610ad69130913391879160040161286f565b600060405180830381600087803b158015610af057600080fd5b505af1158015610b04573d6000803e3d6000fd5b5050505080610b103390565b6001600160a01b03167fd0aa86c0e98eeb27b2bd22d1174e1b52b2a35f6b6c134ce7d214226fa3e2d25a60405160405180910390a350505050565b6004546001600160a01b031660018162fdd58e33866040518363ffffffff1660e01b8152600401610b7d929190612811565b602060405180830381865afa158015610b9a573d6000803e3d6000fd5b505050506040513d601f19601f82011682018060405250810190610bbe91906127f8565b1015610c5257604051627eeac760e11b81526001600160a01b0382169062fdd58e90610bf09033908790600401612811565b602060405180830381865afa158015610c0d573d6000803e3d6000fd5b505050506040513d601f19601f82011682018060405250810190610c3191906127f8565b3360018560405163700acb1960e11b8152600401610731949392919061282a565b6040518060600160405280848152602001838152602001610c703390565b6001600160a01b03908116909152600780546000908152600660209081526040808320865181559186015160018301559490940151600290940180546001600160a01b0319169490931693909317909155805491610ccd836128bd565b9091555050604051637921219560e11b81526001600160a01b0382169063f242432a90610d059033903090889060019060040161286f565b600060405180830381600087803b158015610d1f57600080fd5b505af1158015610d33573d6000803e3d6000fd5b5050505082610d3f3390565b6001600160a01b03167f1bf3ee4555cbd9cd85b4e590d47313ba6756ce5314c435e51c05b5293bbd8db284604051610d7991815260200190565b60405180910390a3505050565b60048054604051634da3b9c760e01b81529182018390526001600160a01b0316906000908290634da3b9c790602401600060405180830381865afa158015610dd2573d6000803e3d6000fd5b505050506040513d6000823e601f3d908101601f19168201604052610dfa919081019061271e565b60405163f77ee79d60e01b81526004810185905290915084906001600160a01b0384169063f77ee79d90602401602060405180830381865afa158015610e44573d6000803e3d6000fd5b505050506040513d601f19601f82011682018060405250810190610e6891906127f8565b1015610f025760405163f77ee79d60e01b8152600481018490526001600160a01b0383169063f77ee79d90602401602060405180830381865afa158015610eb3573d6000803e3d6000fd5b505050506040513d601f19601f82011682018060405250810190610ed791906127f8565b604051633dd4346360e21b815260048101919091526024810185905260448101849052606401610731565b604051627eeac760e11b815284906001600160a01b0384169062fdd58e90610f309033908890600401612811565b602060405180830381865afa158015610f4d573d6000803e3d6000fd5b505050506040513d601f19601f82011682018060405250810190610f7191906127f8565b101561100457604051627eeac760e11b81526001600160a01b0383169062fdd58e90610fa39033908790600401612811565b602060405180830381865afa158015610fc0573d6000803e3d6000fd5b505050506040513d601f19601f82011682018060405250810190610fe491906127f8565b33858560405163700acb1960e11b8152600401610731949392919061282a565b604051637a94c56560e11b81526001600160a01b0383169063f5298aca906110349033908790899060040161284e565b600060405180830381600087803b15801561104e57600080fd5b505af1158015611062573d6000803e3d6000fd5b50505050600061106f3390565b6001600160a01b031685836040015161108891906128d8565b604051600081818185875af1925050503d80600081146110c4576040519150601f19603f3d011682016040523d82523d6000602084013e6110c9565b606091505b5090915050806110ff57338583604001516110e491906128d8565b6040516387cebd4160e01b8152600401610731929190612811565b604051858152849033907fd7ac34dda255bcb92d0892d9e60ef1b54faab90ff75c5b8aeece8c176ebc3448906020015b60405180910390a35050505050565b60008281526002602052604090206001015461115981611bdd565b6111638383611be7565b505050565b60048054604051634da3b9c760e01b81529182018390526001600160a01b0316906000908290634da3b9c790602401600060405180830381865afa1580156111b4573d6000803e3d6000fd5b505050506040513d6000823e601f3d908101601f191682016040526111dc919081019061271e565b90508481604001516111ee91906128d8565b3410156112365784816040015161120591906128d8565b60405163c1a311cf60e01b815260048101919091523460248201526044810184905260648101869052608401610731565b604051630ab714fb60e11b81526001600160a01b0383169063156e29f69061126690879087908a9060040161284e565b600060405180830381600087803b15801561128057600080fd5b505af1158015611294573d6000803e3d6000fd5b50505050836001600160a01b0316836112aa3390565b6001600160a01b03167f7bc20750fd5cb7bef7acca19ba8c153318c96d336304231aca9f9427f1f096a9886040516112e491815260200190565b60405180910390a45050505050565b6001600160a01b03811633146113635760405162461bcd60e51b815260206004820152602f60248201527f416363657373436f6e74726f6c3a2063616e206f6e6c792072656e6f756e636560448201526e103937b632b9903337b91039b2b63360891b6064820152608401610731565b61136d8282611c09565b5050565b611379611c2b565b60405133904780156108fc02916000818181858888f193505050501580156113a5573d6000803e3d6000fd5b50565b6113b0611c2b565b6113ba6000611c85565b565b60008281526003602052604081206113d49083611cd5565b9392505050565b60009182526002602090815260408084206001600160a01b0393909316845291905290205460ff1690565b6060600060075467ffffffffffffffff8111156114255761142561236b565b60405190808252806020026020018201604052801561148357816020015b6114706040518060600160405280600081526020016000815260200160006001600160a01b031681525090565b8152602001906001900390816114435790505b50905060005b60075481101561150657600081815260066020908152604091829020825160608101845281548152600182015492810192909252600201546001600160a01b031691810191909152825181908490849081106114e7576114e76128f7565b60200260200101819052505080806114fe906128bd565b915050611489565b50919050565b6000611531629896806115258461152b87838a86611ce1565b90611ced565b90611ce1565b949350505050565b60048054600554604051634da3b9c760e01b81529283018590526001600160a01b03918216929116906000908390634da3b9c790602401600060405180830381865afa15801561158d573d6000803e3d6000fd5b505050506040513d6000823e601f3d908101601f191682016040526115b5919081019061271e565b905060005b816060015151811015611795576000826060015182815181106115df576115df6128f7565b60200260200101519050600083608001518381518110611601576116016128f7565b6020026020010151905080856001600160a01b031662fdd58e6116213390565b856040518363ffffffff1660e01b815260040161163f929190612811565b602060405180830381865afa15801561165c573d6000803e3d6000fd5b505050506040513d601f19601f8201168201806040525081019061168091906127f8565b101561171e57604051627eeac760e11b81526001600160a01b0386169062fdd58e906116b29033908690600401612811565b602060405180830381865afa1580156116cf573d6000803e3d6000fd5b505050506040513d601f19601f820116820180604052508101906116f391906127f8565b60405163a484ed0f60e01b815260048101919091526024810182905260448101839052606401610731565b604051637a94c56560e11b81526001600160a01b0386169063f5298aca9061174e9033908690869060040161284e565b600060405180830381600087803b15801561176857600080fd5b505af115801561177c573d6000803e3d6000fd5b505050505050808061178d906128bd565b9150506115ba565b50604051630ab714fb60e11b81526001600160a01b0384169063156e29f6906117c7908790899060019060040161284e565b600060405180830381600087803b1580156117e157600080fd5b505af11580156117f5573d6000803e3d6000fd5b50505050846118013390565b6040516001600160a01b03878116825291909116907f73add7ba23fe506504fb6fe1f70d8de34e3b8991afd4981d2ca70a8c84e390bf9060200161112f565b600081815260036020526040812061053890611cf9565b60008281526002602052604090206001015461187281611bdd565b6111638383611c09565b600454600084815260066020526040902060018101546002909101546001600160a01b039283169216816118cd57604051631d42150760e01b81526004810186905260248101839052604401610731565b813410156118fe5760405163186691af60e31b81526004810186905260248101839052346044820152606401610731565b6001600160a01b0381163314156119405760405163a33405a560e01b8152600481018690523360248201526001600160a01b0382166044820152606401610731565b600086815260066020526040902054851461198f5760008681526006602052604090819020549051630ea9ab9360e41b8152600481018790523360248201526044810191909152606401610731565b60008681526006602052604080822060018082019390935560020180546001600160a01b031916905551637921219560e11b81526001600160a01b0385169163f242432a916119e691309189918b9160040161286f565b600060405180830381600087803b158015611a0057600080fd5b505af1158015611a14573d6000803e3d6000fd5b505050506000816001600160a01b03168360405160006040518083038185875af1925050503d8060008114611a65576040519150601f19603f3d011682016040523d82523d6000602084013e611a6a565b606091505b509091505080611a915781836040516387cebd4160e01b8152600401610731929190612811565b6001600160a01b03851686336001600160a01b03167f3684695d62361384a47b761a0fa85f8a5d11e78bb7fc90b305af7a58dc5908f78a604051611ad791815260200190565b60405180910390a450505050505050565b611af0611c2b565b6001600160a01b038116611b555760405162461bcd60e51b815260206004820152602660248201527f4f776e61626c653a206e6577206f776e657220697320746865207a65726f206160448201526564647265737360d01b6064820152608401610731565b6113a581611c85565b60006001600160e01b03198216635a05180f60e01b1480610538575061053882611d03565b60026001541415611bd65760405162461bcd60e51b815260206004820152601f60248201527f5265656e7472616e637947756172643a207265656e7472616e742063616c6c006044820152606401610731565b6002600155565b6113a58133611d38565b611bf18282611d91565b60008281526003602052604090206111639082611e17565b611c138282611e2c565b60008281526003602052604090206111639082611e93565b6000546001600160a01b031633146113ba5760405162461bcd60e51b815260206004820181905260248201527f4f776e61626c653a2063616c6c6572206973206e6f7420746865206f776e65726044820152606401610731565b600080546001600160a01b038381166001600160a01b0319831681178455604051919092169283917f8be0079c531659141344cd1fd0a4f28419497f9722a3daafe3b4186f6b6457e09190a35050565b60006113d48383611ea8565b60006113d482846128d8565b60006113d4828461290d565b6000610538825490565b60006001600160e01b03198216637965db0b60e01b148061053857506301ffc9a760e01b6001600160e01b0319831614610538565b611d4282826113db565b61136d57611d4f81611ed2565b611d5a836020611ee4565b604051602001611d6b92919061292f565b60408051601f198184030181529082905262461bcd60e51b8252610731916004016129a4565b611d9b82826113db565b61136d5760008281526002602090815260408083206001600160a01b03851684529091529020805460ff19166001179055611dd33390565b6001600160a01b0316816001600160a01b0316837f2f8788117e7eff1d82e926ec794901d17c78024a50270940304540a733656f0d60405160405180910390a45050565b60006113d4836001600160a01b038416612080565b611e3682826113db565b1561136d5760008281526002602090815260408083206001600160a01b0385168085529252808320805460ff1916905551339285917ff6391f5c32d9c69d2a47ea670b442974b53935d1edc7fd64eb21e047a839171b9190a45050565b60006113d4836001600160a01b0384166120cf565b6000826000018281548110611ebf57611ebf6128f7565b9060005260206000200154905092915050565b60606105386001600160a01b03831660145b60606000611ef38360026128d8565b611efe9060026129d7565b67ffffffffffffffff811115611f1657611f1661236b565b6040519080825280601f01601f191660200182016040528015611f40576020820181803683370190505b509050600360fc1b81600081518110611f5b57611f5b6128f7565b60200101906001600160f81b031916908160001a905350600f60fb1b81600181518110611f8a57611f8a6128f7565b60200101906001600160f81b031916908160001a9053506000611fae8460026128d8565b611fb99060016129d7565b90505b6001811115612031576f181899199a1a9b1b9c1cb0b131b232b360811b85600f1660108110611fed57611fed6128f7565b1a60f81b828281518110612003576120036128f7565b60200101906001600160f81b031916908160001a90535060049490941c9361202a816129ef565b9050611fbc565b5083156113d45760405162461bcd60e51b815260206004820181905260248201527f537472696e67733a20686578206c656e67746820696e73756666696369656e746044820152606401610731565b60008181526001830160205260408120546120c757508154600181810184556000848152602080822090930184905584548482528286019093526040902091909155610538565b506000610538565b600081815260018301602052604081205480156121b85760006120f3600183612a06565b855490915060009061210790600190612a06565b905081811461216c576000866000018281548110612127576121276128f7565b906000526020600020015490508087600001848154811061214a5761214a6128f7565b6000918252602080832090910192909255918252600188019052604090208390555b855486908061217d5761217d612a1d565b600190038181906000526020600020016000905590558560010160008681526020019081526020016000206000905560019350505050610538565b6000915050610538565b6000602082840312156121d457600080fd5b81356001600160e01b0319811681146113d457600080fd5b80356001600160a01b038116811461220357600080fd5b919050565b6000806000806080858703121561221e57600080fd5b612227856121ec565b966020860135965060408601359560600135945092505050565b60006020828403121561225357600080fd5b5035919050565b6000806040838503121561226d57600080fd5b50508035926020909101359150565b6000806040838503121561228f57600080fd5b8235915061229f602084016121ec565b90509250929050565b6000806000606084860312156122bd57600080fd5b833592506122cd602085016121ec565b9150604084013590509250925092565b602080825282518282018190526000919060409081850190868401855b828110156123325781518051855286810151878601528501516001600160a01b031685850152606090930192908501906001016122fa565b5091979650505050505050565b60008060006060848603121561235457600080fd5b505081359360208301359350604090920135919050565b634e487b7160e01b600052604160045260246000fd5b60405160c0810167ffffffffffffffff811182821017156123a4576123a461236b565b60405290565b604051601f8201601f1916810167ffffffffffffffff811182821017156123d3576123d361236b565b604052919050565b600067ffffffffffffffff8211156123f5576123f561236b565b5060051b60200190565b600082601f83011261241057600080fd5b81356020612425612420836123db565b6123aa565b82815260059290921b8401810191818101908684111561244457600080fd5b8286015b8481101561245f5780358352918301918301612448565b509695505050505050565b600067ffffffffffffffff8211156124845761248461236b565b50601f01601f191660200190565b600082601f8301126124a357600080fd5b81356124b16124208261246a565b8181528460208386010111156124c657600080fd5b816020850160208301376000918101602001919091529392505050565b600080600080600060a086880312156124fb57600080fd5b612504866121ec565b9450612512602087016121ec565b9350604086013567ffffffffffffffff8082111561252f57600080fd5b61253b89838a016123ff565b9450606088013591508082111561255157600080fd5b61255d89838a016123ff565b9350608088013591508082111561257357600080fd5b5061258088828901612492565b9150509295509295909350565b6000806000606084860312156125a257600080fd5b83359250602084013591506125b9604085016121ec565b90509250925092565b600080600080600060a086880312156125da57600080fd5b6125e3866121ec565b94506125f1602087016121ec565b93506040860135925060608601359150608086013567ffffffffffffffff81111561261b57600080fd5b61258088828901612492565b60006020828403121561263957600080fd5b6113d4826121ec565b60005b8381101561265d578181015183820152602001612645565b83811115610a165750506000910152565b600082601f83011261267f57600080fd5b815161268d6124208261246a565b8181528460208386010111156126a257600080fd5b611531826020830160208701612642565b600082601f8301126126c457600080fd5b815160206126d4612420836123db565b82815260059290921b840181019181810190868411156126f357600080fd5b8286015b8481101561245f57805183529183019183016126f7565b8051801515811461220357600080fd5b60006020828403121561273057600080fd5b815167ffffffffffffffff8082111561274857600080fd5b9083019060c0828603121561275c57600080fd5b612764612381565b82518281111561277357600080fd5b61277f8782860161266e565b82525060208301516020820152604083015160408201526060830151828111156127a857600080fd5b6127b4878286016126b3565b6060830152506080830151828111156127cc57600080fd5b6127d8878286016126b3565b6080830152506127ea60a0840161270e565b60a082015295945050505050565b60006020828403121561280a57600080fd5b5051919050565b6001600160a01b03929092168252602082015260400190565b9384526001600160a01b039290921660208401526040830152606082015260800190565b6001600160a01b039390931683526020830191909152604082015260600190565b6001600160a01b0394851681529290931660208301526040820152606081019190915260a06080820181905260009082015260c00190565b634e487b7160e01b600052601160045260246000fd5b60006000198214156128d1576128d16128a7565b5060010190565b60008160001904831182151516156128f2576128f26128a7565b500290565b634e487b7160e01b600052603260045260246000fd5b60008261292a57634e487b7160e01b600052601260045260246000fd5b500490565b7f416363657373436f6e74726f6c3a206163636f756e7420000000000000000000815260008351612967816017850160208801612642565b7001034b99036b4b9b9b4b733903937b6329607d1b6017918401918201528351612998816028840160208801612642565b01602801949350505050565b60208152600082518060208401526129c3816040850160208701612642565b601f01601f19169190910160400192915050565b600082198211156129ea576129ea6128a7565b500190565b6000816129fe576129fe6128a7565b506000190190565b600082821015612a1857612a186128a7565b500390565b634e487b7160e01b600052603160045260246000fdfea264697066735822122000696337c1bbdae144eeed57846c7900c6dc021143112c37f20d75a30971742864736f6c634300080b0033",
  "immutableReferences": {},
  "source": "// SPDX-License-Identifier: MIT\n// Delegation contract\npragma solidity ^0.8.0;\n\nimport \"@openzeppelin/contracts/access/Ownable.sol\";\nimport \"@openzeppelin/contracts/security/ReentrancyGuard.sol\";\nimport \"@openzeppelin/contracts/utils/math/SafeMath.sol\";\nimport \"@openzeppelin/contracts/token/ERC1155/IERC1155Receiver.sol\";\nimport \"@openzeppelin/contracts/access/AccessControlEnumerable.sol\";\n\nimport \"../immutable/Equipments.sol\";\nimport \"../immutable/Items.sol\";\n\nimport \"../library/LItems.sol\";\nimport \"../library/LEquipments.sol\";\n\ncontract ProxyEquipments is Ownable, ReentrancyGuard, IERC1155Receiver, AccessControlEnumerable {\n  using SafeMath for uint;\n  error NotEnoughEth(uint256 price, uint256 weiSended, uint256 tokenId, uint256 quantity);\n  error NoMoreSupplyToken(uint256 supply, uint256 quantity, uint256 tokenId);\n  error NoMoreBalanceToken(\n    uint256 balance,\n    address sender,\n    uint256 quantity,\n    uint256 tokenId\n  );\n  error ZeroQuantityConvertAvailable(\n    uint256 balance,\n    address sender,\n    uint256 quantity,\n    uint256 tokenId\n  );\n  error SellEquipmentSendEth(address to, uint value);\n  error NotEnoughBalance(uint256 balance, uint256 itemIdQuantity, uint256 itemIdCraft);\n  error AlreadyOwned(uint256 tokenId, address sender, address owner);\n  error NotEnoughEthPurchase(uint256 tokenId, uint256 price, uint256 value);\n  error NotGoodTokenId(uint256 tokenId, address sender, uint256 tokenIdInStructure);\n  error EquipmentNotInSales(uint256 tokenId, uint256 price);\n  error NotYourToken(uint256 tokenId, address sender, address owner);\n\n  event craftedItem(address indexed sender, uint256 indexed tokenId, address receiver);\n  event puttedInSell(address indexed sender, uint256 indexed tokenId, uint256 price);\n  event cancelledInSell(address indexed sender, uint256 indexed tokenId);\n  event purchasedInSell(address indexed sender, uint256 id, uint256 indexed tokenId, address indexed receiver);\n  event buyedEquipment(address indexed sender, uint256 quantity, uint256 indexed tokenId, address indexed receiver);\n  event selledEquipment(address indexed sender, uint256 quantity, uint256 indexed tokenId);\n  event convertedToAnotherToken(address indexed sender, uint256 quantity, uint256 indexed fromTokenId, uint256 indexed toTokenId, address receiver);\n\n  address private addressEquipment;\n  address private addressItem;\n\n  uint256 private constant utilMathMultiply = 10000000;\n\n  mapping(uint256 => EquipmentsLib.EquipmentInSell) public equipmentsInSell;\n  uint256 countEquipmentsInSell;\n\n  constructor(address _addressEquipment, address _addressItem) {\n    addressEquipment = _addressEquipment;\n    addressItem = _addressItem;\n  }\n\n  function craft(uint256 tokenId, address receiver) external {\n    Equipments equipmentContrat = Equipments(addressEquipment);\n    Items itemContrat = Items(addressItem);\n\n    EquipmentsLib.Equipment memory equipment = equipmentContrat.getEquipmentDetails(\n      tokenId\n    );\n\n    for (uint256 index = 0; index < equipment.itemsIdsCraft.length; index++) {\n      uint256 itemIdCraft = equipment.itemsIdsCraft[index];\n      uint256 itemIdQuantity = equipment.itemsQuantitiesCraft[index];\n\n      if (itemContrat.balanceOf(_msgSender(), itemIdCraft) < itemIdQuantity)\n        revert NotEnoughBalance({\n          balance: itemContrat.balanceOf(_msgSender(), itemIdCraft),\n          itemIdQuantity: itemIdQuantity,\n          itemIdCraft: itemIdCraft\n        });\n      itemContrat.burn(_msgSender(), itemIdCraft, itemIdQuantity);\n    }\n\n    equipmentContrat.mint(receiver, tokenId, 1);\n    emit craftedItem(_msgSender(),tokenId, receiver);\n  }\n\n  ///@notice put equipment in sell market\n  ///@param tokenId id key of token you want to putt in sell\n  ///@param price price of token put in selled\n  function putInSell(uint256 tokenId, uint256 price) external {\n    Equipments equipmentContrat = Equipments(addressEquipment);\n    if (equipmentContrat.balanceOf(_msgSender(), tokenId) < 1)\n      revert NoMoreBalanceToken({\n        balance: equipmentContrat.balanceOf(_msgSender(), tokenId),\n        sender: _msgSender(),\n        quantity: 1,\n        tokenId: tokenId\n      });\n    equipmentsInSell[countEquipmentsInSell] = EquipmentsLib.EquipmentInSell(\n      tokenId,\n      price,\n      _msgSender()\n    );\n    countEquipmentsInSell++;\n    equipmentContrat.safeTransferFrom(_msgSender(), address(this), tokenId, 1, \"\");\n    emit puttedInSell(_msgSender(), tokenId, price);\n  }\n\n  ///@notice cancel equipment in sell market\n  ///@param id id of key array of equipmentsInSell mapping you want cancel\n  function cancelInSell(uint256 id) external {\n    Equipments equipmentContrat = Equipments(addressEquipment);\n    address owner = equipmentsInSell[id].owner;\n    uint256 tokenId = equipmentsInSell[id].tokenId;\n    if (owner != _msgSender())\n      revert NotYourToken({ tokenId: tokenId, sender: _msgSender(), owner: owner });\n    delete equipmentsInSell[id];\n    equipmentContrat.safeTransferFrom(address(this), _msgSender(), tokenId, 1, \"\");\n    emit cancelledInSell(_msgSender(), tokenId);\n  }\n\n  //function stopSell()\n\n  ///@notice return all equipment in sell in market sell\n  ///@return tokens return array structure of equipment\n  function getInSell() external view returns (EquipmentsLib.EquipmentInSell[] memory) {\n    EquipmentsLib.EquipmentInSell[] memory result = new EquipmentsLib.EquipmentInSell[](\n      countEquipmentsInSell\n    );\n    for (uint256 i = 0; i < countEquipmentsInSell; i++) {\n      EquipmentsLib.EquipmentInSell memory equipment = equipmentsInSell[i];\n      result[i] = equipment;\n    }\n    return result;\n  }\n\n  ///@notice purchase a token previously put in sell\n  ///@param id id of key array of equipmentsInSell mapping you want buy\n  ///@param tokenId id key of token you want to buy\n  function purchase(uint256 id, uint256 tokenId, address receiver) external payable {\n    Equipments equipmentContrat = Equipments(addressEquipment);\n\n    uint256 price = equipmentsInSell[id].price;\n    address owner = equipmentsInSell[id].owner;\n\n    if (price <= 0) revert EquipmentNotInSales({ tokenId: tokenId, price: price });\n    if (msg.value < price)\n      revert NotEnoughEthPurchase({ tokenId: tokenId, price: price, value: msg.value });\n    if (owner == _msgSender())\n      revert AlreadyOwned({ tokenId: tokenId, sender: _msgSender(), owner: owner });\n    if (equipmentsInSell[id].tokenId != tokenId)\n      revert NotGoodTokenId({\n        tokenId: tokenId,\n        sender: _msgSender(),\n        tokenIdInStructure: equipmentsInSell[id].tokenId\n      });\n\n    equipmentsInSell[id].price = 0;\n    equipmentsInSell[id].owner = address(0);\n\n    equipmentContrat.safeTransferFrom(address(this), receiver, tokenId, 1, \"\");\n\n    (bool sent, ) = owner.call{ value: price }(\"\");\n    if (sent == false) revert SellEquipmentSendEth({ to: owner, value: price });\n    emit purchasedInSell(_msgSender(), id, tokenId, receiver);\n  }\n\n  ///@notice purchase of a resource for eth/MATIC\n  ///@param quantity count of equipment you want purchase\n  ///@param receiver receiver address of token\n  ///@param tokenId id of equipment\n  function buyEquipment(\n    uint256 quantity,\n    address receiver,\n    uint256 tokenId\n  ) external payable {\n    Equipments equipmentContrat = Equipments(addressEquipment);\n    EquipmentsLib.Equipment memory equipment = equipmentContrat.getEquipmentDetails(\n      tokenId\n    );\n    if (msg.value < equipment.price * quantity)\n      revert NotEnoughEth({\n        price: equipment.price * quantity,\n        weiSended: msg.value,\n        tokenId: tokenId,\n        quantity: quantity\n      });\n    equipmentContrat.mint(receiver, tokenId, quantity);\n    //setCurrentPrice();\n    emit buyedEquipment(_msgSender(), quantity, tokenId, receiver);\n  }\n\n  ///@notice sell of a resource for eth/MATIC\n  ///@param quantity count of equipment you want purchase\n  ///@param tokenId id of equipment\n  function sellEquipment(uint256 quantity, uint256 tokenId) external {\n    Equipments equipmentContrat = Equipments(addressEquipment);\n    EquipmentsLib.Equipment memory equipment = equipmentContrat.getEquipmentDetails(\n      tokenId\n    );\n    if (equipmentContrat.getSupply(tokenId) < quantity)\n      revert NoMoreSupplyToken({\n        supply: equipmentContrat.getSupply(tokenId),\n        quantity: quantity,\n        tokenId: tokenId\n      });\n    if (equipmentContrat.balanceOf(_msgSender(), tokenId) < quantity)\n      revert NoMoreBalanceToken({\n        balance: equipmentContrat.balanceOf(_msgSender(), tokenId),\n        sender: _msgSender(),\n        quantity: quantity,\n        tokenId: tokenId\n      });\n\n    equipmentContrat.burn(_msgSender(), tokenId, quantity);\n    (bool sent, ) = _msgSender().call{ value: equipment.price * quantity }(\"\");\n    if (sent == false)\n      revert SellEquipmentSendEth({\n        to: _msgSender(),\n        value: equipment.price * quantity\n      });\n    //payable(_msgSender()).transfer(equipment.price * quantity);\n    //setCurrentPrice();\n    emit selledEquipment(_msgSender(), quantity, tokenId);\n  }\n\n  ///@notice convert of a resource for another token\n  ///@param receiver address of receiver toToken minted\n  ///@param quantity quantity of fromToken burned for same quantity burned\n  ///@param fromTokenId id of token burned\n  ///@param toTokenId if of token minted\n  function convertToAnotherToken(\n    address receiver,\n    uint256 quantity,\n    uint256 fromTokenId,\n    uint256 toTokenId\n  ) external nonReentrant {\n    Equipments equipmentContrat = Equipments(addressEquipment);\n    EquipmentsLib.Equipment memory fromEquipment = equipmentContrat.getEquipmentDetails(\n      fromTokenId\n    );\n    EquipmentsLib.Equipment memory toEquipment = equipmentContrat.getEquipmentDetails(\n      toTokenId\n    );\n\n    if (equipmentContrat.getSupply(fromTokenId) < quantity)\n      revert NoMoreSupplyToken({\n        supply: equipmentContrat.getSupply(fromTokenId),\n        quantity: quantity,\n        tokenId: fromTokenId\n      });\n\n    if (equipmentContrat.balanceOf(_msgSender(), fromTokenId) < quantity)\n      revert NoMoreBalanceToken({\n        balance: equipmentContrat.balanceOf(_msgSender(), fromTokenId),\n        sender: _msgSender(),\n        quantity: quantity,\n        tokenId: fromTokenId\n      });\n\n    uint256 toQuantityAvailable = calculConversionQuantity(\n      fromEquipment.price,\n      toEquipment.price,\n      quantity\n    );\n\n    if (toQuantityAvailable <= 0)\n      revert ZeroQuantityConvertAvailable({\n        balance: equipmentContrat.balanceOf(_msgSender(), fromTokenId),\n        sender: _msgSender(),\n        quantity: quantity,\n        tokenId: toTokenId\n      });\n\n    equipmentContrat.burn(_msgSender(), fromTokenId, quantity);\n    equipmentContrat.mint(receiver, toTokenId, toQuantityAvailable);\n    emit convertedToAnotherToken(_msgSender(), quantity, fromTokenId, toTokenId, receiver);\n    //currentprice = setCurrentPrice();\n  }\n\n  /*\n  ///@notice convert of a resource to item\n  ///@param receiver address of receiver toToken minted\n  ///@param quantity quantity of fromToken burned for same quantity burned\n  ///@param fromTokenId id of token burned\n  ///@param toTokenId if of token minted\n  function convertToItem(\n    address receiver,\n    uint256 quantity,\n    uint256 fromTokenId,\n    uint256 toTokenId\n  ) external nonReentrant {}*/\n\n  /*FUNDS OF CONTRACT*/\n\n  function withdraw() external onlyOwner {\n    payable(_msgSender()).transfer(address(this).balance);\n  }\n\n  function calculConversionQuantity(\n    uint firstTokenPrice,\n    uint twoTokenPrice,\n    uint quantity\n  ) public pure returns (uint256) {\n    return\n      firstTokenPrice.mul(utilMathMultiply).div(twoTokenPrice).mul(quantity).div(\n        utilMathMultiply\n      );\n  }\n\n  function onERC1155Received(\n    address,\n    address,\n    uint256,\n    uint256,\n    bytes memory\n  ) public virtual override returns (bytes4) {\n    return this.onERC1155Received.selector;\n  }\n\n  function onERC1155BatchReceived(\n    address,\n    address,\n    uint256[] memory,\n    uint256[] memory,\n    bytes memory\n  ) public virtual override returns (bytes4) {\n    return this.onERC1155BatchReceived.selector;\n  }\n\n  function supportsInterface(bytes4 interfaceId)\n    public\n    view\n    virtual\n    override(AccessControlEnumerable, IERC165)\n    returns (bool)\n  {\n    return\n      interfaceId == type(IERC1155Receiver).interfaceId ||\n      super.supportsInterface(interfaceId);\n  }\n}\n",
  "sourcePath": "/home/solid-solution/Bureau/HOMEWORK/MYOS/contracts/proxy/ProxyEquipments.sol",
  "compiler": {
    "name": "solc",
    "version": "0.8.11+commit.d7f03943.Emscripten.clang"
  },
  "schemaVersion": "3.4.10",
  "updatedAt": "2022-11-23T23:34:13.633Z",
  "devdoc": {
    "kind": "dev",
    "methods": {
      "buyEquipment(uint256,address,uint256)": {
        "params": {
          "quantity": "count of equipment you want purchase",
          "receiver": "receiver address of token",
          "tokenId": "id of equipment"
        }
      },
      "cancelInSell(uint256)": {
        "params": {
          "id": "id of key array of equipmentsInSell mapping you want cancel"
        }
      },
      "convertToAnotherToken(address,uint256,uint256,uint256)": {
        "params": {
          "fromTokenId": "id of token burned",
          "quantity": "quantity of fromToken burned for same quantity burned",
          "receiver": "address of receiver toToken minted",
          "toTokenId": "if of token minted"
        }
      },
      "getInSell()": {
        "returns": {
          "_0": "tokens return array structure of equipment"
        }
      },
      "getRoleAdmin(bytes32)": {
        "details": "Returns the admin role that controls `role`. See {grantRole} and {revokeRole}. To change a role's admin, use {_setRoleAdmin}."
      },
      "getRoleMember(bytes32,uint256)": {
        "details": "Returns one of the accounts that have `role`. `index` must be a value between 0 and {getRoleMemberCount}, non-inclusive. Role bearers are not sorted in any particular way, and their ordering may change at any point. WARNING: When using {getRoleMember} and {getRoleMemberCount}, make sure you perform all queries on the same block. See the following https://forum.openzeppelin.com/t/iterating-over-elements-on-enumerableset-in-openzeppelin-contracts/2296[forum post] for more information."
      },
      "getRoleMemberCount(bytes32)": {
        "details": "Returns the number of accounts that have `role`. Can be used together with {getRoleMember} to enumerate all bearers of a role."
      },
      "grantRole(bytes32,address)": {
        "details": "Grants `role` to `account`. If `account` had not been already granted `role`, emits a {RoleGranted} event. Requirements: - the caller must have ``role``'s admin role. May emit a {RoleGranted} event."
      },
      "hasRole(bytes32,address)": {
        "details": "Returns `true` if `account` has been granted `role`."
      },
      "owner()": {
        "details": "Returns the address of the current owner."
      },
      "purchase(uint256,uint256,address)": {
        "params": {
          "id": "id of key array of equipmentsInSell mapping you want buy",
          "tokenId": "id key of token you want to buy"
        }
      },
      "putInSell(uint256,uint256)": {
        "params": {
          "price": "price of token put in selled",
          "tokenId": "id key of token you want to putt in sell"
        }
      },
      "renounceOwnership()": {
        "details": "Leaves the contract without owner. It will not be possible to call `onlyOwner` functions anymore. Can only be called by the current owner. NOTE: Renouncing ownership will leave the contract without an owner, thereby removing any functionality that is only available to the owner."
      },
      "renounceRole(bytes32,address)": {
        "details": "Revokes `role` from the calling account. Roles are often managed via {grantRole} and {revokeRole}: this function's purpose is to provide a mechanism for accounts to lose their privileges if they are compromised (such as when a trusted device is misplaced). If the calling account had been revoked `role`, emits a {RoleRevoked} event. Requirements: - the caller must be `account`. May emit a {RoleRevoked} event."
      },
      "revokeRole(bytes32,address)": {
        "details": "Revokes `role` from `account`. If `account` had been granted `role`, emits a {RoleRevoked} event. Requirements: - the caller must have ``role``'s admin role. May emit a {RoleRevoked} event."
      },
      "sellEquipment(uint256,uint256)": {
        "params": {
          "quantity": "count of equipment you want purchase",
          "tokenId": "id of equipment"
        }
      },
      "transferOwnership(address)": {
        "details": "Transfers ownership of the contract to a new account (`newOwner`). Can only be called by the current owner."
      }
    },
    "version": 1
  },
  "userdoc": {
    "kind": "user",
    "methods": {
      "buyEquipment(uint256,address,uint256)": {
        "notice": "purchase of a resource for eth/MATIC"
      },
      "cancelInSell(uint256)": {
        "notice": "cancel equipment in sell market"
      },
      "convertToAnotherToken(address,uint256,uint256,uint256)": {
        "notice": "convert of a resource for another token"
      },
      "getInSell()": {
        "notice": "return all equipment in sell in market sell"
      },
      "purchase(uint256,uint256,address)": {
        "notice": "purchase a token previously put in sell"
      },
      "putInSell(uint256,uint256)": {
        "notice": "put equipment in sell market"
      },
      "sellEquipment(uint256,uint256)": {
        "notice": "sell of a resource for eth/MATIC"
      }
    },
    "version": 1
  }
}