{
  "contractName": "ProxyHero",
  "abi": [
    {
      "inputs": [
        {
          "internalType": "address",
          "name": "_addressHero",
          "type": "address"
        },
        {
          "internalType": "address",
          "name": "_addressQuest",
          "type": "address"
        },
        {
          "internalType": "address",
          "name": "_addressClass",
          "type": "address"
        },
        {
          "internalType": "address",
          "name": "_addressItem",
          "type": "address"
        }
      ],
      "stateMutability": "nonpayable",
      "type": "constructor"
    },
    {
      "inputs": [
        {
          "internalType": "address",
          "name": "sender",
          "type": "address"
        },
        {
          "internalType": "uint256",
          "name": "questId",
          "type": "uint256"
        },
        {
          "internalType": "uint256",
          "name": "currentQuestId",
          "type": "uint256"
        },
        {
          "internalType": "uint256",
          "name": "tokenId",
          "type": "uint256"
        }
      ],
      "name": "AlreadyInQuest",
      "type": "error"
    },
    {
      "inputs": [
        {
          "internalType": "uint256",
          "name": "tokenId",
          "type": "uint256"
        },
        {
          "internalType": "address",
          "name": "sender",
          "type": "address"
        },
        {
          "internalType": "address",
          "name": "owner",
          "type": "address"
        }
      ],
      "name": "AlreadyOwned",
      "type": "error"
    },
    {
      "inputs": [
        {
          "internalType": "uint256",
          "name": "statToLvlUp",
          "type": "uint256"
        },
        {
          "internalType": "uint256",
          "name": "tokenId",
          "type": "uint256"
        }
      ],
      "name": "NotAStat",
      "type": "error"
    },
    {
      "inputs": [
        {
          "internalType": "address",
          "name": "sender",
          "type": "address"
        },
        {
          "internalType": "uint256",
          "name": "questId",
          "type": "uint256"
        },
        {
          "internalType": "uint256",
          "name": "energy",
          "type": "uint256"
        },
        {
          "internalType": "uint256",
          "name": "tokenId",
          "type": "uint256"
        }
      ],
      "name": "NotEnoughEnergy",
      "type": "error"
    },
    {
      "inputs": [
        {
          "internalType": "uint256",
          "name": "price",
          "type": "uint256"
        },
        {
          "internalType": "uint256",
          "name": "weiSended",
          "type": "uint256"
        },
        {
          "internalType": "uint256",
          "name": "tokenId",
          "type": "uint256"
        },
        {
          "internalType": "uint256",
          "name": "quantity",
          "type": "uint256"
        }
      ],
      "name": "NotEnoughEth",
      "type": "error"
    },
    {
      "inputs": [
        {
          "internalType": "uint256",
          "name": "price",
          "type": "uint256"
        },
        {
          "internalType": "uint256",
          "name": "weiSended",
          "type": "uint256"
        }
      ],
      "name": "NotEnoughEthHero",
      "type": "error"
    },
    {
      "inputs": [
        {
          "internalType": "uint256",
          "name": "tokenId",
          "type": "uint256"
        },
        {
          "internalType": "uint256",
          "name": "price",
          "type": "uint256"
        },
        {
          "internalType": "uint256",
          "name": "value",
          "type": "uint256"
        }
      ],
      "name": "NotEnoughEthPurchase",
      "type": "error"
    },
    {
      "inputs": [
        {
          "internalType": "uint256",
          "name": "experienceHero",
          "type": "uint256"
        },
        {
          "internalType": "uint256",
          "name": "experienceNeeded",
          "type": "uint256"
        },
        {
          "internalType": "uint256",
          "name": "tokenId",
          "type": "uint256"
        }
      ],
      "name": "NotEnoughExperience",
      "type": "error"
    },
    {
      "inputs": [
        {
          "internalType": "address",
          "name": "sender",
          "type": "address"
        },
        {
          "internalType": "uint256",
          "name": "tokenId",
          "type": "uint256"
        }
      ],
      "name": "NotInQuest",
      "type": "error"
    },
    {
      "inputs": [
        {
          "internalType": "uint256",
          "name": "tokenLimit",
          "type": "uint256"
        },
        {
          "internalType": "uint256",
          "name": "nextTokenIdToMint",
          "type": "uint256"
        }
      ],
      "name": "NotRemainingHero",
      "type": "error"
    },
    {
      "inputs": [
        {
          "internalType": "address",
          "name": "sender",
          "type": "address"
        },
        {
          "internalType": "address",
          "name": "ownerOfToken",
          "type": "address"
        },
        {
          "internalType": "uint256",
          "name": "tokenId",
          "type": "uint256"
        }
      ],
      "name": "NotYourToken",
      "type": "error"
    },
    {
      "inputs": [
        {
          "internalType": "uint256",
          "name": "blockTimestamp",
          "type": "uint256"
        },
        {
          "internalType": "uint256",
          "name": "heroQuestTime",
          "type": "uint256"
        },
        {
          "internalType": "uint256",
          "name": "currentQuestTime",
          "type": "uint256"
        },
        {
          "internalType": "uint256",
          "name": "tokenId",
          "type": "uint256"
        }
      ],
      "name": "QuestNotFinished",
      "type": "error"
    },
    {
      "inputs": [
        {
          "internalType": "address",
          "name": "to",
          "type": "address"
        },
        {
          "internalType": "uint256",
          "name": "value",
          "type": "uint256"
        }
      ],
      "name": "SellMyosSendEth",
      "type": "error"
    },
    {
      "inputs": [
        {
          "internalType": "uint256",
          "name": "tokenId",
          "type": "uint256"
        },
        {
          "internalType": "uint256",
          "name": "price",
          "type": "uint256"
        }
      ],
      "name": "TokenNotInSales",
      "type": "error"
    },
    {
      "anonymous": false,
      "inputs": [
        {
          "indexed": true,
          "internalType": "address",
          "name": "previousOwner",
          "type": "address"
        },
        {
          "indexed": true,
          "internalType": "address",
          "name": "newOwner",
          "type": "address"
        }
      ],
      "name": "OwnershipTransferred",
      "type": "event"
    },
    {
      "anonymous": false,
      "inputs": [
        {
          "indexed": true,
          "internalType": "bytes32",
          "name": "role",
          "type": "bytes32"
        },
        {
          "indexed": true,
          "internalType": "bytes32",
          "name": "previousAdminRole",
          "type": "bytes32"
        },
        {
          "indexed": true,
          "internalType": "bytes32",
          "name": "newAdminRole",
          "type": "bytes32"
        }
      ],
      "name": "RoleAdminChanged",
      "type": "event"
    },
    {
      "anonymous": false,
      "inputs": [
        {
          "indexed": true,
          "internalType": "bytes32",
          "name": "role",
          "type": "bytes32"
        },
        {
          "indexed": true,
          "internalType": "address",
          "name": "account",
          "type": "address"
        },
        {
          "indexed": true,
          "internalType": "address",
          "name": "sender",
          "type": "address"
        }
      ],
      "name": "RoleGranted",
      "type": "event"
    },
    {
      "anonymous": false,
      "inputs": [
        {
          "indexed": true,
          "internalType": "bytes32",
          "name": "role",
          "type": "bytes32"
        },
        {
          "indexed": true,
          "internalType": "address",
          "name": "account",
          "type": "address"
        },
        {
          "indexed": true,
          "internalType": "address",
          "name": "sender",
          "type": "address"
        }
      ],
      "name": "RoleRevoked",
      "type": "event"
    },
    {
      "anonymous": false,
      "inputs": [
        {
          "indexed": true,
          "internalType": "address",
          "name": "owner",
          "type": "address"
        },
        {
          "indexed": true,
          "internalType": "string",
          "name": "key",
          "type": "string"
        },
        {
          "indexed": false,
          "internalType": "uint256",
          "name": "value",
          "type": "uint256"
        }
      ],
      "name": "UpdateParamContract",
      "type": "event"
    },
    {
      "anonymous": false,
      "inputs": [
        {
          "indexed": true,
          "internalType": "address",
          "name": "sender",
          "type": "address"
        },
        {
          "indexed": true,
          "internalType": "uint256",
          "name": "tokenId",
          "type": "uint256"
        }
      ],
      "name": "canceledHeroInSell",
      "type": "event"
    },
    {
      "anonymous": false,
      "inputs": [
        {
          "indexed": true,
          "internalType": "address",
          "name": "sender",
          "type": "address"
        },
        {
          "indexed": true,
          "internalType": "uint256",
          "name": "tokenId",
          "type": "uint256"
        }
      ],
      "name": "canceledQuest",
      "type": "event"
    },
    {
      "anonymous": false,
      "inputs": [
        {
          "indexed": true,
          "internalType": "address",
          "name": "sender",
          "type": "address"
        },
        {
          "indexed": true,
          "internalType": "uint256",
          "name": "tokenId",
          "type": "uint256"
        },
        {
          "indexed": true,
          "internalType": "uint256",
          "name": "questId",
          "type": "uint256"
        }
      ],
      "name": "completedQuest",
      "type": "event"
    },
    {
      "anonymous": false,
      "inputs": [
        {
          "indexed": true,
          "internalType": "address",
          "name": "sender",
          "type": "address"
        },
        {
          "indexed": true,
          "internalType": "uint256",
          "name": "tokenId",
          "type": "uint256"
        },
        {
          "indexed": false,
          "internalType": "uint256",
          "name": "statToLvlUp",
          "type": "uint256"
        }
      ],
      "name": "levelupped",
      "type": "event"
    },
    {
      "anonymous": false,
      "inputs": [
        {
          "indexed": true,
          "internalType": "address",
          "name": "sender",
          "type": "address"
        },
        {
          "indexed": true,
          "internalType": "uint256",
          "name": "tokenId",
          "type": "uint256"
        },
        {
          "indexed": false,
          "internalType": "uint256",
          "name": "price",
          "type": "uint256"
        },
        {
          "indexed": true,
          "internalType": "address",
          "name": "owner",
          "type": "address"
        }
      ],
      "name": "purchasedHeroInSell",
      "type": "event"
    },
    {
      "anonymous": false,
      "inputs": [
        {
          "indexed": true,
          "internalType": "address",
          "name": "sender",
          "type": "address"
        },
        {
          "indexed": true,
          "internalType": "uint256",
          "name": "tokenId",
          "type": "uint256"
        },
        {
          "indexed": true,
          "internalType": "uint256",
          "name": "price",
          "type": "uint256"
        }
      ],
      "name": "puttedHeroInSell",
      "type": "event"
    },
    {
      "anonymous": false,
      "inputs": [
        {
          "indexed": true,
          "internalType": "address",
          "name": "sender",
          "type": "address"
        },
        {
          "indexed": true,
          "internalType": "uint256",
          "name": "tokenId",
          "type": "uint256"
        },
        {
          "indexed": true,
          "internalType": "uint256",
          "name": "questId",
          "type": "uint256"
        }
      ],
      "name": "startedQuest",
      "type": "event"
    },
    {
      "inputs": [],
      "name": "DEFAULT_ADMIN_ROLE",
      "outputs": [
        {
          "internalType": "bytes32",
          "name": "",
          "type": "bytes32"
        }
      ],
      "stateMutability": "view",
      "type": "function"
    },
    {
      "inputs": [
        {
          "internalType": "bytes32",
          "name": "role",
          "type": "bytes32"
        }
      ],
      "name": "getRoleAdmin",
      "outputs": [
        {
          "internalType": "bytes32",
          "name": "",
          "type": "bytes32"
        }
      ],
      "stateMutability": "view",
      "type": "function"
    },
    {
      "inputs": [
        {
          "internalType": "bytes32",
          "name": "role",
          "type": "bytes32"
        },
        {
          "internalType": "uint256",
          "name": "index",
          "type": "uint256"
        }
      ],
      "name": "getRoleMember",
      "outputs": [
        {
          "internalType": "address",
          "name": "",
          "type": "address"
        }
      ],
      "stateMutability": "view",
      "type": "function"
    },
    {
      "inputs": [
        {
          "internalType": "bytes32",
          "name": "role",
          "type": "bytes32"
        }
      ],
      "name": "getRoleMemberCount",
      "outputs": [
        {
          "internalType": "uint256",
          "name": "",
          "type": "uint256"
        }
      ],
      "stateMutability": "view",
      "type": "function"
    },
    {
      "inputs": [
        {
          "internalType": "bytes32",
          "name": "role",
          "type": "bytes32"
        },
        {
          "internalType": "address",
          "name": "account",
          "type": "address"
        }
      ],
      "name": "grantRole",
      "outputs": [],
      "stateMutability": "nonpayable",
      "type": "function"
    },
    {
      "inputs": [
        {
          "internalType": "bytes32",
          "name": "role",
          "type": "bytes32"
        },
        {
          "internalType": "address",
          "name": "account",
          "type": "address"
        }
      ],
      "name": "hasRole",
      "outputs": [
        {
          "internalType": "bool",
          "name": "",
          "type": "bool"
        }
      ],
      "stateMutability": "view",
      "type": "function"
    },
    {
      "inputs": [],
      "name": "owner",
      "outputs": [
        {
          "internalType": "address",
          "name": "",
          "type": "address"
        }
      ],
      "stateMutability": "view",
      "type": "function"
    },
    {
      "inputs": [
        {
          "internalType": "string",
          "name": "",
          "type": "string"
        }
      ],
      "name": "paramsContract",
      "outputs": [
        {
          "internalType": "uint256",
          "name": "",
          "type": "uint256"
        }
      ],
      "stateMutability": "view",
      "type": "function"
    },
    {
      "inputs": [],
      "name": "renounceOwnership",
      "outputs": [],
      "stateMutability": "nonpayable",
      "type": "function"
    },
    {
      "inputs": [
        {
          "internalType": "bytes32",
          "name": "role",
          "type": "bytes32"
        },
        {
          "internalType": "address",
          "name": "account",
          "type": "address"
        }
      ],
      "name": "renounceRole",
      "outputs": [],
      "stateMutability": "nonpayable",
      "type": "function"
    },
    {
      "inputs": [
        {
          "internalType": "bytes32",
          "name": "role",
          "type": "bytes32"
        },
        {
          "internalType": "address",
          "name": "account",
          "type": "address"
        }
      ],
      "name": "revokeRole",
      "outputs": [],
      "stateMutability": "nonpayable",
      "type": "function"
    },
    {
      "inputs": [
        {
          "internalType": "address",
          "name": "newOwner",
          "type": "address"
        }
      ],
      "name": "transferOwnership",
      "outputs": [],
      "stateMutability": "nonpayable",
      "type": "function"
    },
    {
      "inputs": [
        {
          "internalType": "string",
          "name": "key",
          "type": "string"
        },
        {
          "internalType": "uint256",
          "name": "value",
          "type": "uint256"
        }
      ],
      "name": "setParamsContract",
      "outputs": [],
      "stateMutability": "nonpayable",
      "type": "function"
    },
    {
      "inputs": [
        {
          "internalType": "string",
          "name": "key",
          "type": "string"
        }
      ],
      "name": "getParamsContract",
      "outputs": [
        {
          "internalType": "uint256",
          "name": "",
          "type": "uint256"
        }
      ],
      "stateMutability": "view",
      "type": "function"
    },
    {
      "inputs": [
        {
          "internalType": "uint8",
          "name": "generation",
          "type": "uint8"
        },
        {
          "internalType": "uint8",
          "name": "faction",
          "type": "uint8"
        },
        {
          "internalType": "string",
          "name": "_tokenUri",
          "type": "string"
        }
      ],
      "name": "mintHero",
      "outputs": [],
      "stateMutability": "payable",
      "type": "function"
    },
    {
      "inputs": [
        {
          "internalType": "uint256",
          "name": "tokenId",
          "type": "uint256"
        },
        {
          "internalType": "uint256",
          "name": "questId",
          "type": "uint256"
        }
      ],
      "name": "startQuest",
      "outputs": [],
      "stateMutability": "nonpayable",
      "type": "function"
    },
    {
      "inputs": [
        {
          "internalType": "uint256",
          "name": "tokenId",
          "type": "uint256"
        }
      ],
      "name": "cancelQuest",
      "outputs": [],
      "stateMutability": "nonpayable",
      "type": "function"
    },
    {
      "inputs": [
        {
          "internalType": "uint256",
          "name": "tokenId",
          "type": "uint256"
        }
      ],
      "name": "completeQuest",
      "outputs": [],
      "stateMutability": "nonpayable",
      "type": "function"
    },
    {
      "inputs": [
        {
          "internalType": "uint8",
          "name": "statToLvlUp",
          "type": "uint8"
        },
        {
          "internalType": "uint256",
          "name": "tokenId",
          "type": "uint256"
        }
      ],
      "name": "levelUp",
      "outputs": [],
      "stateMutability": "nonpayable",
      "type": "function"
    },
    {
      "inputs": [
        {
          "internalType": "uint256",
          "name": "tokenId",
          "type": "uint256"
        },
        {
          "internalType": "uint256",
          "name": "price",
          "type": "uint256"
        }
      ],
      "name": "putHeroInSell",
      "outputs": [],
      "stateMutability": "nonpayable",
      "type": "function"
    },
    {
      "inputs": [
        {
          "internalType": "uint256",
          "name": "tokenId",
          "type": "uint256"
        }
      ],
      "name": "cancelHeroInSell",
      "outputs": [],
      "stateMutability": "nonpayable",
      "type": "function"
    },
    {
      "inputs": [],
      "name": "getHerosInSell",
      "outputs": [
        {
          "components": [
            {
              "internalType": "uint8[]",
              "name": "params8",
              "type": "uint8[]"
            },
            {
              "internalType": "uint256[]",
              "name": "params256",
              "type": "uint256[]"
            },
            {
              "internalType": "address",
              "name": "owner",
              "type": "address"
            }
          ],
          "internalType": "struct HeroLib.Token[]",
          "name": "",
          "type": "tuple[]"
        }
      ],
      "stateMutability": "view",
      "type": "function"
    },
    {
      "inputs": [
        {
          "internalType": "uint256",
          "name": "tokenId",
          "type": "uint256"
        }
      ],
      "name": "purchase",
      "outputs": [],
      "stateMutability": "payable",
      "type": "function"
    },
    {
      "inputs": [],
      "name": "withdraw",
      "outputs": [],
      "stateMutability": "nonpayable",
      "type": "function"
    },
    {
      "inputs": [
        {
          "internalType": "address",
          "name": "",
          "type": "address"
        },
        {
          "internalType": "address",
          "name": "",
          "type": "address"
        },
        {
          "internalType": "uint256",
          "name": "",
          "type": "uint256"
        },
        {
          "internalType": "bytes",
          "name": "",
          "type": "bytes"
        }
      ],
      "name": "onERC721Received",
      "outputs": [
        {
          "internalType": "bytes4",
          "name": "",
          "type": "bytes4"
        }
      ],
      "stateMutability": "nonpayable",
      "type": "function"
    },
    {
      "inputs": [
        {
          "internalType": "bytes4",
          "name": "interfaceId",
          "type": "bytes4"
        }
      ],
      "name": "supportsInterface",
      "outputs": [
        {
          "internalType": "bool",
          "name": "",
          "type": "bool"
        }
      ],
      "stateMutability": "view",
      "type": "function"
    }
  ],
  "bytecode": "0x60806040523480156200001157600080fd5b5060405162003f5d38038062003f5d833981016040819052620000349162000274565b6200003f3362000207565b60018055600480546001600160a01b03199081166001600160a01b038781169182178455600580548416888316179055600680548416878316179055600780549093169085161790915560405163f26bf0b760e01b815260209281019290925260116024830152701b995e1d151bdad95b9259151bd35a5b9d607a1b60448301529063f26bf0b790606401602060405180830381865afa158015620000e8573d6000803e3d6000fd5b505050506040513d601f19601f820116820180604052508101906200010e9190620002d1565b60408051701b995e1d151bdad95b9259151bd35a5b9d607a1b815260086011820181905282519182900360310182209390935564707269636560d81b815260058082018490528251918290036025908101832067016345785d8a00009055671d1bdd185b141b9d60c21b83528285018590528351928390036028018320829055691d1bdad95b931a5b5a5d60b21b8352600a8301859052835192839003602a0183206127109055646e6f6e636560d81b8352908201849052825191829003018120600090556c0657870466f724c6576656c557609c1b8152600d8101929092525190819003602d0190206064905550620002eb92505050565b600080546001600160a01b038381166001600160a01b0319831681178455604051919092169283917f8be0079c531659141344cd1fd0a4f28419497f9722a3daafe3b4186f6b6457e09190a35050565b80516001600160a01b03811681146200026f57600080fd5b919050565b600080600080608085870312156200028b57600080fd5b620002968562000257565b9350620002a66020860162000257565b9250620002b66040860162000257565b9150620002c66060860162000257565b905092959194509250565b600060208284031215620002e457600080fd5b5051919050565b613c6280620002fb6000396000f3fe6080604052600436106101815760003560e01c80639010d07c116100d1578063d547741f1161008a578063f26bf0b711610064578063f26bf0b71461049d578063f2fde38b146104bd578063fa84413a146104dd578063fe90ff7d146104f057600080fd5b8063d547741f1461044a578063d706b9ba1461046a578063efef39a11461048a57600080fd5b80639010d07c1461039557806391d14854146103b55780639d2d4638146103d5578063a217fddf146103f5578063c3c33b401461040a578063ca15c8731461042a57600080fd5b80633cb119441161013e578063528be0a911610118578063528be0a9146102f65780635f9d45d814610316578063715018a61461034e5780638da5cb5b1461036357600080fd5b80633cb119441461029f5780633ccfd60b146102bf578063464fa3f5146102d457600080fd5b806301ffc9a7146101865780630b275db4146101bb578063150b7a02146101dd578063248a9ca3146102215780632f2ff15d1461025f57806336568abe1461027f575b600080fd5b34801561019257600080fd5b506101a66101a1366004612ee0565b610510565b60405190151581526020015b60405180910390f35b3480156101c757600080fd5b506101db6101d6366004612f19565b61053b565b005b3480156101e957600080fd5b506102086101f8366004613071565b630a85bd0160e11b949350505050565b6040516001600160e01b031990911681526020016101b2565b34801561022d57600080fd5b5061025161023c3660046130f0565b60009081526002602052604090206001015490565b6040519081526020016101b2565b34801561026b57600080fd5b506101db61027a366004613109565b610965565b34801561028b57600080fd5b506101db61029a366004613109565b61098f565b3480156102ab57600080fd5b506101db6102ba366004613181565b610a0d565b3480156102cb57600080fd5b506101db610a9e565b3480156102e057600080fd5b506102e9610ad5565b6040516101b2919061327f565b34801561030257600080fd5b506101db6103113660046130f0565b610c65565b34801561032257600080fd5b506102516103313660046132e1565b805160208183018101805160088252928201919093012091525481565b34801561035a57600080fd5b506101db61127c565b34801561036f57600080fd5b506000546001600160a01b03165b6040516001600160a01b0390911681526020016101b2565b3480156103a157600080fd5b5061037d6103b0366004613331565b611290565b3480156103c157600080fd5b506101a66103d0366004613109565b6112af565b3480156103e157600080fd5b506101db6103f03660046130f0565b6112da565b34801561040157600080fd5b50610251600081565b34801561041657600080fd5b506101db610425366004613331565b61142a565b34801561043657600080fd5b506102516104453660046130f0565b611752565b34801561045657600080fd5b506101db610465366004613109565b611769565b34801561047657600080fd5b506101db610485366004613331565b61178e565b6101db6104983660046130f0565b611a37565b3480156104a957600080fd5b506102516104b8366004613353565b611d4b565b3480156104c957600080fd5b506101db6104d8366004613394565b611d76565b6101db6104eb3660046133b1565b611dec565b3480156104fc57600080fd5b506101db61050b3660046130f0565b612033565b60006001600160e01b03198216630a85bd0160e11b148061053557506105358261224c565b92915050565b60045481906001600160a01b0316336040516331a9108f60e11b8152600481018490526001600160a01b0391821691831690636352211e90602401602060405180830381865afa158015610593573d6000803e3d6000fd5b505050506040513d601f19601f820116820180604052508101906105b79190613425565b6001600160a01b03161461065657335b6040516331a9108f60e11b8152600481018490526001600160a01b03831690636352211e90602401602060405180830381865afa15801561060c573d6000803e3d6000fd5b505050506040513d601f19601f820116820180604052508101906106309190613425565b836040516365165d8160e11b815260040161064d93929190613442565b60405180910390fd5b6004805460405163183c06e560e31b81529182018590526001600160a01b031690600090829063c1e0372890602401600060405180830381865afa1580156106a2573d6000803e3d6000fd5b505050506040513d6000823e601f3d908101601f191682016040526106ca9190810190613503565b905080602001516009815181106106e3576106e36135f8565b6020026020010151600860405161070d906c0657870466f724c6576656c557609c1b8152600d0190565b9081526020016040518091039020546107269190613708565b610731906064613714565b8160200151600881518110610748576107486135f8565b60200260200101511161080257806020015160088151811061076c5761076c6135f8565b6020026020010151816020015160098151811061078b5761078b6135f8565b602002602001015160086040516107b5906c0657870466f724c6576656c557609c1b8152600d0190565b9081526020016040518091039020546107ce9190613708565b6107d9906064613714565b60405163c2f02ac960e01b8152600481019290925260248201526044810186905260640161064d565b60058660ff16111561083357604051632f62314360e11b815260ff871660048201526024810186905260440161064d565b8051805160ff881690811061084a5761084a6135f8565b60200260200101805180919060010160ff1660ff16815250506000816020015160088151811061087c5761087c6135f8565b602002602001018181525050806020015160098151811061089f5761089f6135f8565b602090810291909101018051600101905260405163ed2123c360e01b81526001600160a01b0383169063ed2123c3906108e09084908990339060040161372c565b600060405180830381600087803b1580156108fa57600080fd5b505af115801561090e573d6000803e3d6000fd5b505050508461091a3390565b60405160ff891681526001600160a01b0391909116907fd7fd7f613f35a65698c314e9f2351c1fc72f0546b866e30bfaa18f3e93ceaac59060200160405180910390a3505050505050565b60008281526002602052604090206001015461098081612271565b61098a838361227b565b505050565b6001600160a01b03811633146109ff5760405162461bcd60e51b815260206004820152602f60248201527f416363657373436f6e74726f6c3a2063616e206f6e6c792072656e6f756e636560448201526e103937b632b9903337b91039b2b63360891b606482015260840161064d565b610a09828261229d565b5050565b610a156122bf565b8060088484604051610a2892919061375f565b90815260405190819003602001812091909155610a48908490849061375f565b6040518091039020610a573390565b6001600160a01b03167f419740d480ec7b24bbb56324d7b648081dbaf6c4f721ed5b7f1cacaa31c1f63183604051610a9191815260200190565b60405180910390a3505050565b610aa66122bf565b60405133904780156108fc02916000818181858888f19350505050158015610ad2573d6000803e3d6000fd5b50565b6004546040516060916001600160a01b031690600090600890610af79061376f565b9081526020016040518091039020546001600160401b03811115610b1d57610b1d612f5a565b604051908082528060200260200182016040528015610b6a57816020015b60408051606080820183528082526020820152600091810191909152815260200190600190039081610b3b5790505b5090506000805b6008604051610b7f9061376f565b908152602001604051809103902054811015610c5c5760405163183c06e560e31b8152600481018290526000906001600160a01b0386169063c1e0372890602401600060405180830381865afa158015610bdd573d6000803e3d6000fd5b505050506040513d6000823e601f3d908101601f19168201604052610c059190810190613503565b905060008160200151600b81518110610c2057610c206135f8565b60200260200101511115610c535780848481518110610c4157610c416135f8565b60209081029190910101526001909201915b50600101610b71565b50909392505050565b60045481906001600160a01b0316336040516331a9108f60e11b8152600481018490526001600160a01b0391821691831690636352211e90602401602060405180830381865afa158015610cbd573d6000803e3d6000fd5b505050506040513d601f19601f82011682018060405250810190610ce19190613425565b6001600160a01b031614610cf557336105c7565b6004805460405163183c06e560e31b81529182018590526001600160a01b031690600090829063c1e0372890602401600060405180830381865afa158015610d41573d6000803e3d6000fd5b505050506040513d6000823e601f3d908101601f19168201604052610d699190810190613503565b600554602082015180519293506001600160a01b0390911691600091839163b0f929b091906003908110610d9f57610d9f6135f8565b60200260200101516040518263ffffffff1660e01b8152600401610dc591815260200190565b600060405180830381865afa158015610de2573d6000803e3d6000fd5b505050506040513d6000823e601f3d908101601f19168201604052610e0a91908101906137ae565b90508060a001518360200151600281518110610e2857610e286135f8565b602002602001015142610e3b9190613885565b11610e9957428360200151600281518110610e5857610e586135f8565b60200260200101518260a001518960405163250ebb6160e21b815260040161064d949392919093845260208401929092526040830152606082015260800190565b6000805b8260400151518160ff161015610f62578451805160ff8316908110610ec457610ec46135f8565b602002602001015160ff1683604001518260ff1681518110610ee857610ee86135f8565b602002602001015160ff161115610f50578451805160ff8316908110610f1057610f106135f8565b602002602001015183604001518260ff1681518110610f3157610f316135f8565b6020026020010151610f43919061389c565b610f4d90836138bf565b91505b80610f5a816138e4565b915050610e9d565b506000610f78610f7383606461389c565b612319565b60ff169050808560200151600781518110610f9557610f956135f8565b602002602001018181525050826020015160ff168111156111455760018560200151600681518110610fc957610fc96135f8565b602002602001018181525050836001600160a01b0316636827822e6040518163ffffffff1660e01b8152600401602060405180830381865afa158015611013573d6000803e3d6000fd5b505050506040513d601f19601f820116820180604052508101906110379190613904565b83516110469160ff1690613921565b61ffff168560200151600881518110611061576110616135f8565b602002602001018181516110759190613714565b9052506007546001600160a01b031660005b84606001515181101561113e576001600160a01b03821663156e29f633876060015184815181106110ba576110ba6135f8565b60209081029190910101516040516001600160e01b031960e085901b1681526001600160a01b03909216600483015260ff16602482015260016044820152606401600060405180830381600087803b15801561111557600080fd5b505af1158015611129573d6000803e3d6000fd5b505050506111378160010190565b9050611087565b505061116b565b6000856020015160068151811061115e5761115e6135f8565b6020026020010181815250505b428560200151600281518110611183576111836135f8565b602002602001018181525050600085602001516004815181106111a8576111a86135f8565b602090810291909101015260405163ed2123c360e01b81526001600160a01b0387169063ed2123c3906111e39088908d90339060040161372c565b600060405180830381600087803b1580156111fd57600080fd5b505af1158015611211573d6000803e3d6000fd5b50505050846020015160038151811061122c5761122c6135f8565b60200260200101518961123c3390565b6001600160a01b03167ff94577e4230f725c7988aeb2df57de54ee35126b976024523471f486f5d1806760405160405180910390a4505050505050505050565b6112846122bf565b61128e6000612327565b565b60008281526003602052604081206112a89083612377565b9392505050565b60009182526002602090815260408084206001600160a01b0393909316845291905290205460ff1690565b6004805460405163183c06e560e31b81529182018390526001600160a01b031690600090829063c1e0372890602401600060405180830381865afa158015611326573d6000803e3d6000fd5b505050506040513d6000823e601f3d908101601f1916820160405261134e9190810190613503565b60408101519091506001600160a01b0381163314611385573381856040516365165d8160e11b815260040161064d93929190613442565b6040516317d5759960e31b81526001600160a01b0384169063beabacc8906113b590309085908990600401613442565b600060405180830381600087803b1580156113cf57600080fd5b505af11580156113e3573d6000803e3d6000fd5b50505050836113ef3390565b6001600160a01b03167f6694dd5448e9aec0657bd4e1cdd1ccf932a2e90fadde2951b67979aefc4a525e60405160405180910390a350505050565b60045482906001600160a01b0316336040516331a9108f60e11b8152600481018490526001600160a01b0391821691831690636352211e90602401602060405180830381865afa158015611482573d6000803e3d6000fd5b505050506040513d601f19601f820116820180604052508101906114a69190613425565b6001600160a01b0316146114ba57336105c7565b60048054600554604051630b0f929b60e41b81529283018690526001600160a01b0391821692911690600090829063b0f929b090602401600060405180830381865afa15801561150e573d6000803e3d6000fd5b505050506040513d6000823e601f3d908101601f1916820160405261153691908101906137ae565b60405163183c06e560e31b8152600481018990529091506000906001600160a01b0385169063c1e0372890602401600060405180830381865afa158015611581573d6000803e3d6000fd5b505050506040513d6000823e601f3d908101601f191682016040526115a99190810190613503565b905080602001516004815181106115c2576115c26135f8565b602002602001015160001461162e57338782602001516004815181106115ea576115ea6135f8565b602090810291909101015160405163c9913a8d60e01b81526001600160a01b039093166004840152602483019190915260448201526064810189905260840161064d565b60008160200151600281518110611647576116476135f8565b60200260200101514261165a9190613885565b9050878260200151600381518110611674576116746135f8565b6020026020010181815250508260a00151826020015160048151811061169c5761169c6135f8565b602090810291909101015260405163ed2123c360e01b81526001600160a01b0386169063ed2123c3906116d79085908d90339060040161372c565b600060405180830381600087803b1580156116f157600080fd5b505af1158015611705573d6000803e3d6000fd5b5050505087896117123390565b6001600160a01b03167f31b23362e7830832079a0f2c107622ace1ea076ae2abfe337543951cf25d736560405160405180910390a4505050505050505050565b600081815260036020526040812061053590612383565b60008281526002602052604090206001015461178481612271565b61098a838361229d565b60045482906001600160a01b0316336040516331a9108f60e11b8152600481018490526001600160a01b0391821691831690636352211e90602401602060405180830381865afa1580156117e6573d6000803e3d6000fd5b505050506040513d601f19601f8201168201806040525081019061180a9190613425565b6001600160a01b03161461181e57336105c7565b600480546040516331a9108f60e11b81529182018690526001600160a01b0316906000908290636352211e90602401602060405180830381865afa15801561186a573d6000803e3d6000fd5b505050506040513d601f19601f8201168201806040525081019061188e9190613425565b60405163183c06e560e31b8152600481018890529091506000906001600160a01b0384169063c1e0372890602401600060405180830381865afa1580156118d9573d6000803e3d6000fd5b505050506040513d6000823e601f3d908101601f191682016040526119019190810190613503565b9050858160200151600b8151811061191b5761191b6135f8565b60209081029190910101523360408281018290525163ed2123c360e01b81526001600160a01b0385169163ed2123c39161195c9185918c919060040161372c565b600060405180830381600087803b15801561197657600080fd5b505af115801561198a573d6000803e3d6000fd5b50506040516317d5759960e31b81526001600160a01b038616925063beabacc891506119be90859030908c90600401613442565b600060405180830381600087803b1580156119d857600080fd5b505af11580156119ec573d6000803e3d6000fd5b5050505085876119f93390565b6001600160a01b03167ffd8d86aec839a7666b23492a488dc179722910b0b493dec3f4a7d5a89cfea47560405160405180910390a450505050505050565b6004805460405163183c06e560e31b81529182018390526001600160a01b031690600090829063c1e0372890602401600060405180830381865afa158015611a83573d6000803e3d6000fd5b505050506040513d6000823e601f3d908101601f19168201604052611aab9190810190613503565b905060008160200151600b81518110611ac657611ac66135f8565b60200260200101519050600082604001519050611ae03390565b6001600160a01b0316604084015281611b16576040516367bd44b960e11b8152600481018690526024810183905260440161064d565b81341015611b475760405163186691af60e31b8152600481018690526024810183905234604482015260640161064d565b6001600160a01b038116331415611b895760405163a33405a560e01b8152600481018690523360248201526001600160a01b038216604482015260640161064d565b60008360200151600b81518110611ba257611ba26135f8565b602090810291909101015260405163ed2123c360e01b81526001600160a01b0385169063ed2123c390611bdd9086908990309060040161372c565b600060405180830381600087803b158015611bf757600080fd5b505af1158015611c0b573d6000803e3d6000fd5b50505050836001600160a01b031663beabacc830611c263390565b886040518463ffffffff1660e01b8152600401611c4593929190613442565b600060405180830381600087803b158015611c5f57600080fd5b505af1158015611c73573d6000803e3d6000fd5b505050506000816001600160a01b03168360405160006040518083038185875af1925050503d8060008114611cc4576040519150601f19603f3d011682016040523d82523d6000602084013e611cc9565b606091505b509091505080611cf557604051634482712560e11b81523360048201526024810184905260440161064d565b6001600160a01b03821686336001600160a01b03167f3df9034dc7c1f5fc54b10ced70e3e64892bcad699a4ec43bffc09113089771ae86604051611d3b91815260200190565b60405180910390a4505050505050565b600060088383604051611d5f92919061375f565b908152602001604051809103902054905092915050565b611d7e6122bf565b6001600160a01b038116611de35760405162461bcd60e51b815260206004820152602660248201527f4f776e61626c653a206e6577206f776e657220697320746865207a65726f206160448201526564647265737360d01b606482015260840161064d565b610ad281612327565b611df461238d565b60405164707269636560d81b8152600890600501908152602001604051809103902054341015611e5a5760405162461bcd60e51b8152602060048201526011602482015270135bdc9948115512081c995c5d5a5c9959607a1b604482015260640161064d565b60405164707269636560d81b8152600890600501908152602001604051809103902054341015611ec45760405164707269636560d81b81526008906005019081526040519081900360200181205462a184d760e21b8252600482015234602482015260440161064d565b6008604051611ed29061376f565b90815260405190819003602001812054691d1bdad95b931a5b5a5d60b21b825290600890600a0190815260200160405180910390205411611f7357604051691d1bdad95b931a5b5a5d60b21b8152600890600a019081526020016040518091039020546008604051611f439061376f565b90815260405190819003602001812054633a3b705560e11b825261064d9291600401918252602082015260400190565b6000611f7e846123e7565b90506000611f8c3487612821565b90506008604051611f9c9061376f565b908152604051908190036020019020805460010190556004546001600160a01b031680639005ba95611fcb3390565b858589896040518663ffffffff1660e01b8152600401611fef95949392919061394b565b600060405180830381600087803b15801561200957600080fd5b505af115801561201d573d6000803e3d6000fd5b5050505050505061202d60018055565b50505050565b60045481906001600160a01b0316336040516331a9108f60e11b8152600481018490526001600160a01b0391821691831690636352211e90602401602060405180830381865afa15801561208b573d6000803e3d6000fd5b505050506040513d601f19601f820116820180604052508101906120af9190613425565b6001600160a01b0316146120c357336105c7565b6004805460405163183c06e560e31b81529182018590526001600160a01b031690600090829063c1e0372890602401600060405180830381865afa15801561210f573d6000803e3d6000fd5b505050506040513d6000823e601f3d908101601f191682016040526121379190810190613503565b90508060200151600481518110612150576121506135f8565b60200260200101516000141561218257604051631ed712d560e11b81523360048201526024810186905260440161064d565b6000816020015160048151811061219b5761219b6135f8565b602090810291909101015260405163ed2123c360e01b81526001600160a01b0383169063ed2123c3906121d69084908990339060040161372c565b600060405180830381600087803b1580156121f057600080fd5b505af1158015612204573d6000803e3d6000fd5b50505050846122103390565b6001600160a01b03167fc04dbb3d4858dac03ad3597230df1f8983693a574e4bcfad6b9fb21c8959ba0c60405160405180910390a35050505050565b60006001600160e01b03198216635a05180f60e01b1480610535575061053582612973565b610ad281336129a8565b6122858282612a01565b600082815260036020526040902061098a9082612a87565b6122a78282612a9c565b600082815260036020526040902061098a9082612b03565b6000546001600160a01b0316331461128e5760405162461bcd60e51b815260206004820181905260248201527f4f776e61626c653a2063616c6c6572206973206e6f7420746865206f776e6572604482015260640161064d565b60006105358260ff16612b18565b600080546001600160a01b038381166001600160a01b0319831681178455604051919092169283917f8be0079c531659141344cd1fd0a4f28419497f9722a3daafe3b4186f6b6457e09190a35050565b60006112a88383612bc7565b6000610535825490565b600260015414156123e05760405162461bcd60e51b815260206004820152601f60248201527f5265656e7472616e637947756172643a207265656e7472616e742063616c6c00604482015260640161064d565b6002600155565b6040805160148082526102a08201909252606091600091906020820161028080368337019050506006546040805160a08101825260008082526020820181905260609282018390528282015260808101919091529192506001600160a01b03169060405163323eae4960e01b8152600060048201526001600160a01b0383169063323eae4990602401600060405180830381865afa15801561248d573d6000803e3d6000fd5b505050506040513d6000823e601f3d908101601f191682016040526124b59190810190613a4f565b905060005b826001600160a01b0316630b01ca3b6040518163ffffffff1660e01b8152600401602060405180830381865afa1580156124f8573d6000803e3d6000fd5b505050506040513d601f19601f8201168201806040525081019061251c9190613904565b60ff168160ff1610156126335760405163323eae4960e01b815260ff821660048201526001600160a01b0384169063323eae4990602401600060405180830381865afa158015612570573d6000803e3d6000fd5b505050506040513d6000823e601f3d908101601f191682016040526125989190810190613a4f565b5160ff166125a66064612319565b60ff1610156126215760405163323eae4960e01b815260ff821660048201526001600160a01b0384169063323eae4990602401600060405180830381865afa1580156125f6573d6000803e3d6000fd5b505050506040513d6000823e601f3d908101601f1916820160405261261e9190810190613a4f565b91505b8061262b816138e4565b9150506124ba565b5060408101518051819060009061264c5761264c6135f8565b602002602001015184600081518110612667576126676135f8565b602002602001019060ff16908160ff16815250508060018151811061268e5761268e6135f8565b6020026020010151846001815181106126a9576126a96135f8565b602002602001019060ff16908160ff1681525050806002815181106126d0576126d06135f8565b6020026020010151846002815181106126eb576126eb6135f8565b602002602001019060ff16908160ff168152505080600381518110612712576127126135f8565b60200260200101518460038151811061272d5761272d6135f8565b602002602001019060ff16908160ff168152505080600481518110612754576127546135f8565b60200260200101518460048151811061276f5761276f6135f8565b602002602001019060ff16908160ff168152505080600581518110612796576127966135f8565b6020026020010151846005815181106127b1576127b16135f8565b602002602001019060ff16908160ff168152505085846008815181106127d9576127d96135f8565b602002602001019060ff16908160ff1681525050816020015184600981518110612805576128056135f8565b60ff909216602092830291909101909101525091949350505050565b6040805160148082526102a08201909252606091600091906020820161028080368337019050509050428160008151811061285e5761285e6135f8565b602002602001018181525050838160018151811061287e5761287e6135f8565b602002602001018181525050428160028151811061289e5761289e6135f8565b60200260200101818152505060086040516128b89061376f565b908152602001604051809103902054816006815181106128da576128da6135f8565b6020026020010181815250508260ff16816007815181106128fd576128fd6135f8565b60200260200101818152505060018160098151811061291e5761291e6135f8565b60200260200101818152505061271081600a81518110612940576129406135f8565b602002602001018181525050600081600b81518110612961576129616135f8565b60209081029190910101529392505050565b60006001600160e01b03198216637965db0b60e01b148061053557506301ffc9a760e01b6001600160e01b0319831614610535565b6129b282826112af565b610a09576129bf81612bf1565b6129ca836020612c03565b6040516020016129db929190613b16565b60408051601f198184030181529082905262461bcd60e51b825261064d91600401613b8b565b612a0b82826112af565b610a095760008281526002602090815260408083206001600160a01b03851684529091529020805460ff19166001179055612a433390565b6001600160a01b0316816001600160a01b0316837f2f8788117e7eff1d82e926ec794901d17c78024a50270940304540a733656f0d60405160405180910390a45050565b60006112a8836001600160a01b038416612d9e565b612aa682826112af565b15610a095760008281526002602090815260408083206001600160a01b0385168085529252808320805460ff1916905551339285917ff6391f5c32d9c69d2a47ea670b442974b53935d1edc7fd64eb21e047a839171b9190a45050565b60006112a8836001600160a01b038416612ded565b60408051646e6f6e636560d81b8152600860058201528151908190036025018120544260208301526bffffffffffffffffffffffff193360601b16928201929092526054810191909152600090819083906074016040516020818303038152906040528051906020012060001c612b8f9190613bbe565b90506008604051612bab90646e6f6e636560d81b815260050190565b9081526040519081900360200190208054600101905592915050565b6000826000018281548110612bde57612bde6135f8565b9060005260206000200154905092915050565b60606105356001600160a01b03831660145b60606000612c12836002613be0565b612c1d906002613714565b6001600160401b03811115612c3457612c34612f5a565b6040519080825280601f01601f191660200182016040528015612c5e576020820181803683370190505b509050600360fc1b81600081518110612c7957612c796135f8565b60200101906001600160f81b031916908160001a905350600f60fb1b81600181518110612ca857612ca86135f8565b60200101906001600160f81b031916908160001a9053506000612ccc846002613be0565b612cd7906001613714565b90505b6001811115612d4f576f181899199a1a9b1b9c1cb0b131b232b360811b85600f1660108110612d0b57612d0b6135f8565b1a60f81b828281518110612d2157612d216135f8565b60200101906001600160f81b031916908160001a90535060049490941c93612d4881613bff565b9050612cda565b5083156112a85760405162461bcd60e51b815260206004820181905260248201527f537472696e67733a20686578206c656e67746820696e73756666696369656e74604482015260640161064d565b6000818152600183016020526040812054612de557508154600181810184556000848152602080822090930184905584548482528286019093526040902091909155610535565b506000610535565b60008181526001830160205260408120548015612ed6576000612e11600183613885565b8554909150600090612e2590600190613885565b9050818114612e8a576000866000018281548110612e4557612e456135f8565b9060005260206000200154905080876000018481548110612e6857612e686135f8565b6000918252602080832090910192909255918252600188019052604090208390555b8554869080612e9b57612e9b613c16565b600190038181906000526020600020016000905590558560010160008681526020019081526020016000206000905560019350505050610535565b6000915050610535565b600060208284031215612ef257600080fd5b81356001600160e01b0319811681146112a857600080fd5b60ff81168114610ad257600080fd5b60008060408385031215612f2c57600080fd5b8235612f3781612f0a565b946020939093013593505050565b6001600160a01b0381168114610ad257600080fd5b634e487b7160e01b600052604160045260246000fd5b604051606081016001600160401b0381118282101715612f9257612f92612f5a565b60405290565b60405160e081016001600160401b0381118282101715612f9257612f92612f5a565b60405160a081016001600160401b0381118282101715612f9257612f92612f5a565b604051601f8201601f191681016001600160401b038111828210171561300457613004612f5a565b604052919050565b60006001600160401b0382111561302557613025612f5a565b50601f01601f191660200190565b60006130466130418461300c565b612fdc565b905082815283838301111561305a57600080fd5b828260208301376000602084830101529392505050565b6000806000806080858703121561308757600080fd5b843561309281612f45565b935060208501356130a281612f45565b92506040850135915060608501356001600160401b038111156130c457600080fd5b8501601f810187136130d557600080fd5b6130e487823560208401613033565b91505092959194509250565b60006020828403121561310257600080fd5b5035919050565b6000806040838503121561311c57600080fd5b82359150602083013561312e81612f45565b809150509250929050565b60008083601f84011261314b57600080fd5b5081356001600160401b0381111561316257600080fd5b60208301915083602082850101111561317a57600080fd5b9250929050565b60008060006040848603121561319657600080fd5b83356001600160401b038111156131ac57600080fd5b6131b886828701613139565b909790965060209590950135949350505050565b600081518084526020808501945080840160005b838110156131fc578151875295820195908201906001016131e0565b509495945050505050565b805160608084528151908401819052600091602091908201906080860190845b8181101561324657835160ff1683529284019291840191600101613227565b50508285015191508581038387015261325f81836131cc565b6040958601516001600160a01b0316969095019590955250919392505050565b6000602080830181845280855180835260408601915060408160051b870101925083870160005b828110156132d457603f198886030184526132c2858351613207565b945092850192908501906001016132a6565b5092979650505050505050565b6000602082840312156132f357600080fd5b81356001600160401b0381111561330957600080fd5b8201601f8101841361331a57600080fd5b61332984823560208401613033565b949350505050565b6000806040838503121561334457600080fd5b50508035926020909101359150565b6000806020838503121561336657600080fd5b82356001600160401b0381111561337c57600080fd5b61338885828601613139565b90969095509350505050565b6000602082840312156133a657600080fd5b81356112a881612f45565b600080600080606085870312156133c757600080fd5b84356133d281612f0a565b935060208501356133e281612f0a565b925060408501356001600160401b038111156133fd57600080fd5b61340987828801613139565b95989497509550505050565b805161342081612f45565b919050565b60006020828403121561343757600080fd5b81516112a881612f45565b6001600160a01b039384168152919092166020820152604081019190915260600190565b60006001600160401b0382111561347f5761347f612f5a565b5060051b60200190565b805161342081612f0a565b600082601f8301126134a557600080fd5b815160206134b561304183613466565b82815260059290921b840181019181810190868411156134d457600080fd5b8286015b848110156134f85780516134eb81612f0a565b83529183019183016134d8565b509695505050505050565b6000602080838503121561351657600080fd5b82516001600160401b038082111561352d57600080fd5b908401906060828703121561354157600080fd5b613549612f70565b82518281111561355857600080fd5b61356488828601613494565b825250838301518281111561357857600080fd5b83019150601f8201871361358b57600080fd5b815161359961304182613466565b81815260059190911b830185019085810190898311156135b857600080fd5b938601935b828510156135d6578451825293860193908601906135bd565b83870152506135e9905060408401613415565b60408201529695505050505050565b634e487b7160e01b600052603260045260246000fd5b634e487b7160e01b600052601160045260246000fd5b600181815b8085111561365f5781600019048211156136455761364561360e565b8085161561365257918102915b93841c9390800290613629565b509250929050565b60008261367657506001610535565b8161368357506000610535565b816001811461369957600281146136a3576136bf565b6001915050610535565b60ff8411156136b4576136b461360e565b50506001821b610535565b5060208310610133831016604e8410600b84101617156136e2575081810a610535565b6136ec8383613624565b80600019048211156137005761370061360e565b029392505050565b60006112a88383613667565b600082198211156137275761372761360e565b500190565b60608152600061373f6060830186613207565b6020830194909452506001600160a01b0391909116604090910152919050565b8183823760009101908152919050565b701b995e1d151bdad95b9259151bd35a5b9d607a1b815260110190565b805161ffff8116811461342057600080fd5b8051801515811461342057600080fd5b6000602082840312156137c057600080fd5b81516001600160401b03808211156137d757600080fd5b9083019060e082860312156137eb57600080fd5b6137f3612f98565b6137fc8361378c565b815261380a60208401613489565b602082015260408301518281111561382157600080fd5b61382d87828601613494565b60408301525060608301518281111561384557600080fd5b61385187828601613494565b6060830152506080830151608082015260a083015160a082015261387760c0840161379e565b60c082015295945050505050565b6000828210156138975761389761360e565b500390565b600060ff821660ff8416808210156138b6576138b661360e565b90039392505050565b600060ff821660ff84168060ff038211156138dc576138dc61360e565b019392505050565b600060ff821660ff8114156138fb576138fb61360e565b60010192915050565b60006020828403121561391657600080fd5b81516112a881612f0a565b600061ffff808316818516818304811182151516156139425761394261360e565b02949350505050565b6001600160a01b0386168152608060208083018290528651918301829052600091878201919060a0850190845b8181101561399757845160ff1683529383019391830191600101613978565b505084810360408601526139ab81896131cc565b92505083820360608501528482528486828401376000828601820152601f909401601f1916019092019695505050505050565b60005b838110156139f95781810151838201526020016139e1565b8381111561202d5750506000910152565b600082601f830112613a1b57600080fd5b8151613a296130418261300c565b818152846020838601011115613a3e57600080fd5b6133298260208301602087016139de565b600060208284031215613a6157600080fd5b81516001600160401b0380821115613a7857600080fd5b9083019060a08286031215613a8c57600080fd5b613a94612fba565b8251613a9f81612f0a565b81526020830151613aaf81612f0a565b6020820152604083015182811115613ac657600080fd5b613ad287828601613494565b604083015250613ae46060840161379e565b6060820152608083015182811115613afb57600080fd5b613b0787828601613a0a565b60808301525095945050505050565b7f416363657373436f6e74726f6c3a206163636f756e7420000000000000000000815260008351613b4e8160178501602088016139de565b7001034b99036b4b9b9b4b733903937b6329607d1b6017918401918201528351613b7f8160288401602088016139de565b01602801949350505050565b6020815260008251806020840152613baa8160408501602087016139de565b601f01601f19169190910160400192915050565b600082613bdb57634e487b7160e01b600052601260045260246000fd5b500690565b6000816000190483118215151615613bfa57613bfa61360e565b500290565b600081613c0e57613c0e61360e565b506000190190565b634e487b7160e01b600052603160045260246000fdfea2646970667358221220d2dc6d9fa45d67a17d1b2fb96b5ead4bcb06ffe292615b585a82d7fc4e9dce1b64736f6c634300080b0033",
  "immutableReferences": {},
  "source": "// SPDX-License-Identifier: MIT\n// Delegation contract\npragma solidity ^0.8.0;\n\nimport \"@openzeppelin/contracts/access/Ownable.sol\";\nimport \"@openzeppelin/contracts/security/ReentrancyGuard.sol\";\nimport \"@openzeppelin/contracts/utils/math/SafeMath.sol\";\nimport \"@openzeppelin/contracts/token/ERC721/IERC721Receiver.sol\";\nimport \"@openzeppelin/contracts/access/AccessControlEnumerable.sol\";\n\nimport \"../immutable/Items.sol\";\nimport \"../immutable/Class.sol\";\nimport \"../immutable/Quest.sol\";\nimport \"../immutable/Hero.sol\";\n\nimport \"../library/LClass.sol\";\nimport \"../library/LHero.sol\";\nimport \"../library/LItems.sol\";\nimport \"../library/LQuest.sol\";\n\n//enum Numbers {strong,endurance,concentration,agility,charisma,stealth,exp,level,faction,classe}\n\ncontract ProxyHero is Ownable, ReentrancyGuard, IERC721Receiver, AccessControlEnumerable {\n  using SafeMath for uint;\n  error NotEnoughEth(uint256 price, uint256 weiSended, uint256 tokenId, uint256 quantity);\n  error NotEnoughEthHero(uint256 price, uint256 weiSended);\n  error NotRemainingHero(uint256 tokenLimit, uint256 nextTokenIdToMint);\n  error NotYourToken(address sender, address ownerOfToken, uint256 tokenId);\n  error AlreadyInQuest(\n    address sender,\n    uint256 questId,\n    uint256 currentQuestId,\n    uint256 tokenId\n  );\n  error QuestNotFinished(\n    uint256 blockTimestamp,\n    uint256 heroQuestTime,\n    uint256 currentQuestTime,\n    uint256 tokenId\n  );\n  error NotEnoughExperience(\n    uint256 experienceHero,\n    uint256 experienceNeeded,\n    uint256 tokenId\n  );\n  error NotAStat(uint256 statToLvlUp, uint256 tokenId);\n  error SellMyosSendEth(address to, uint value);\n  error TokenNotInSales(uint256 tokenId, uint256 price);\n  error NotEnoughEthPurchase(uint256 tokenId, uint256 price, uint256 value);\n  error AlreadyOwned(uint256 tokenId, address sender, address owner);\n  error NotEnoughEnergy(address sender, uint256 questId, uint256 energy, uint256 tokenId);\n  error NotInQuest(address sender, uint256 tokenId);\n\n  event UpdateParamContract(address indexed owner, string indexed key, uint256 value);\n  event startedQuest(address indexed sender, uint256 indexed tokenId, uint256 indexed questId);\n  event canceledQuest(address indexed sender, uint256 indexed tokenId);\n  event completedQuest(address indexed sender, uint256 indexed tokenId, uint256 indexed questId);\n  event levelupped(address indexed sender, uint256 indexed tokenId, uint256 statToLvlUp);\n  event puttedHeroInSell(address indexed sender, uint256 indexed tokenId, uint256 indexed price);\n  event canceledHeroInSell(address indexed sender, uint256 indexed tokenId);\n  event purchasedHeroInSell(address indexed sender, uint256 indexed tokenId, uint256 price, address indexed owner);\n  \n  address private addressHero;\n  address private addressQuest;\n  address private addressClass;\n  address private addressItem;\n  mapping(string => uint256) public paramsContract;\n\n  uint256 private constant utilMathMultiply = 10000000;\n\n  constructor(\n    address _addressHero,\n    address _addressQuest,\n    address _addressClass,\n    address _addressItem\n  ) {\n    addressHero = _addressHero;\n    addressQuest = _addressQuest;\n    addressClass = _addressClass;\n    addressItem = _addressItem;\n    paramsContract[\"nextTokenIdToMint\"] = Hero(addressHero).getParamsContract(\n      \"nextTokenIdToMint\"\n    );\n    paramsContract[\"price\"] = 100000000000000000; //dev:100000000000000000000 == 100 eth\n    paramsContract[\"totalPnt\"] = 5;\n    paramsContract[\"tokenLimit\"] = 10000;\n    paramsContract[\"nonce\"] = 0;\n    paramsContract[\"expForLevelUp\"] = 100;\n  }\n\n  modifier isYourToken(uint256 tokenId) {\n    Hero contrat = Hero(addressHero);\n    if (contrat.ownerOf(tokenId) != _msgSender())\n      revert NotYourToken({\n        sender: _msgSender(),\n        ownerOfToken: contrat.ownerOf(tokenId),\n        tokenId: tokenId\n      });\n    _;\n  }\n\n  function unsafeInc(uint x) private pure returns (uint) {\n    unchecked {\n      return x + 1;\n    }\n  }\n\n  ///@notice Update a parameter of contract\n  ///@param key key index of params contract you want set\n  ///@param value value of params contract you want set\n  function setParamsContract(string calldata key, uint256 value) external onlyOwner {\n    paramsContract[key] = value;\n    emit UpdateParamContract(_msgSender(), key, value);\n  }\n\n  ///@notice Return a parameter of contract by key index\n  ///@param key key index of param your want to return\n  ///@return param value of parameter contract\n  function getParamsContract(string calldata key) external view returns (uint256) {\n    return paramsContract[key];\n  }\n\n  ///@notice Update a parameter of hero contract\n  ///@param key key index of params contract you want set\n  ///@param value value of params contract you want set\n  function setParamsHeroContract(string calldata key, uint256 value) internal {\n    Hero contrat = Hero(addressHero);\n    contrat.setParamsContract(key, value);\n  }\n\n  ///@notice mint a hero for a value price and generate stats and parameterr\n  ///@param generation generation of creation hero\n  ///@param faction faction with class and stat linked\n  ///@param _tokenUri uri of metadata token hero\n  function mintHero(\n    uint8 generation,\n    uint8 faction,\n    string calldata _tokenUri\n  ) external payable nonReentrant {\n    require(msg.value >= paramsContract[\"price\"], \"More ETH required\");\n    if (msg.value < paramsContract[\"price\"])\n      revert NotEnoughEthHero({ price: paramsContract[\"price\"], weiSended: msg.value });\n    if (paramsContract[\"tokenLimit\"] <= paramsContract[\"nextTokenIdToMint\"])\n      revert NotRemainingHero({\n        tokenLimit: paramsContract[\"tokenLimit\"],\n        nextTokenIdToMint: paramsContract[\"nextTokenIdToMint\"]\n      });\n    uint8[] memory randomParts = randomStats(faction);\n    uint256[] memory randomParams = randomParameters(msg.value, generation);\n    unchecked {\n      paramsContract[\"nextTokenIdToMint\"]++;\n    }\n\n    Hero contrat = Hero(addressHero);\n    contrat.mint(_msgSender(), randomParts, randomParams, _tokenUri);\n  }\n\n  ///@notice generate stats for your hero in uint8\n  ///@param faction faction of hero generated\n  ///@return randomParts array of stats uint8 for hero\n  function randomStats(uint8 faction) internal virtual returns (uint8[] memory) {\n    uint8[] memory randomParts = new uint8[](20);\n\n    Class classContrat = Class(addressClass);\n    ClassLib.Classes memory class;\n    class = classContrat.getClassDetails(0);\n    for (uint8 index = 0; index < classContrat.getClassCount(); index++) {\n      if (random(100) < classContrat.getClassDetails(index).rarity)\n        class = classContrat.getClassDetails(index);\n    }\n    uint8[] memory stats = class.stats;\n\n    randomParts[0] = stats[0]; //Strong\n    randomParts[1] = stats[1]; //Stamina\n    randomParts[2] = stats[2]; //Focus\n    randomParts[3] = stats[3]; //Swiftness\n    randomParts[4] = stats[4]; //Charisma\n    randomParts[5] = stats[5]; //Stealth\n\n    randomParts[8] = faction; //faction\n    randomParts[9] = class.id; //class\n\n    return randomParts;\n  }\n\n  ///@notice generate parameter for your hero in uint256\n  ///@param price price of buying hero\n  ///@param generation generation fo hero\n  ///@return randomParams array of parameters uint256 for hero\n  function randomParameters(\n    uint256 price,\n    uint8 generation\n  ) internal virtual returns (uint256[] memory) {\n    uint256[] memory randomParams = new uint256[](20);\n    randomParams[0] = block.timestamp; //date de cration\n    randomParams[1] = price; //prix d'achat\n    randomParams[2] = block.timestamp; //date de la drnire action (il y a une heure) permettant de participer a des missions\n    //randomParams[3] = 0;//Mission choisis (si 0 aucune current mission)\n    //randomParams[4] = 0;//seconds pour finir la mission\n    //randomParams[5] = 0;//difficult de la qute (dtermine l'exp gagn, et les objets % gagn)\n    //randomParams[6] = 0;//last quest succeded\n    randomParams[6] = paramsContract[\"nextTokenIdToMint\"]; //tokenId\n    randomParams[7] = generation; //type\n    //randomParams[8] = 0;//exp\n    randomParams[9] = 1; //level\n    randomParams[10] = 10000; //maxEnergy\n    randomParams[11] = 0; //priceInSell\n    return randomParams;\n  }\n\n  ///@notice start a quest by id for one hero token\n  ///@param tokenId id of token you want to launch in quest\n  ///@param questId id of quest you want to start\n  function startQuest(uint256 tokenId, uint256 questId) external isYourToken(tokenId) {\n    Hero contrat = Hero(addressHero);\n    Quest questContrat = Quest(addressQuest);\n    QuestLib.QuestStruct memory questTemp = questContrat.getQuestDetails(questId);\n    HeroLib.Token memory hero = contrat.getTokenDetails(tokenId);\n    if (hero.params256[4] != 0)\n      revert AlreadyInQuest({\n        sender: _msgSender(),\n        questId: questId,\n        currentQuestId: hero.params256[4],\n        tokenId: tokenId\n      });\n    uint256 energy = block.timestamp - hero.params256[2];\n    // if (energy > hero.params256[10]) energy = hero.params256[10];\n    // if (energy < questTemp.time)\n    //   revert NotEnoughEnergy({\n    //     sender: _msgSender(),\n    //     questId: questId,\n    //     energy: energy,\n    //     tokenId: tokenId\n    //   });\n    hero.params256[3] = questId;\n    hero.params256[4] = questTemp.time;\n    contrat.updateToken(hero, tokenId, _msgSender());\n    emit startedQuest(_msgSender(), tokenId, questId);\n  }\n\n  ///@notice cancel a quest by id for one hero token\n  ///@param tokenId id of token you want to launch in quest\n  function cancelQuest(uint256 tokenId) external isYourToken(tokenId) {\n    Hero contrat = Hero(addressHero);\n    HeroLib.Token memory hero = contrat.getTokenDetails(tokenId);\n    if (hero.params256[4] == 0)\n      revert NotInQuest({ sender: _msgSender(), tokenId: tokenId });\n    hero.params256[4] = 0;\n    contrat.updateToken(hero, tokenId, _msgSender());\n    emit canceledQuest(_msgSender(), tokenId);\n  }\n\n  ///@notice Validation of the quest at the end of a quest\n  ///@param tokenId id of token you want to complete quest\n  function completeQuest(uint256 tokenId) external isYourToken(tokenId) {\n    Hero contrat = Hero(addressHero);\n    HeroLib.Token memory hero = contrat.getTokenDetails(tokenId);\n\n    Quest questContrat = Quest(addressQuest);\n    QuestLib.QuestStruct memory questTemp = questContrat.getQuestDetails(\n      hero.params256[3]\n    );\n    if (block.timestamp - hero.params256[2] <= (questTemp.time))\n      revert QuestNotFinished({\n        blockTimestamp: block.timestamp,\n        heroQuestTime: hero.params256[2],\n        currentQuestTime: questTemp.time,\n        tokenId: tokenId\n      });\n    uint8 malus = 0;\n    for (uint8 index = 0; index < questTemp.stats.length; index++) {\n      if (questTemp.stats[index] > hero.params8[index]) {\n        malus += questTemp.stats[index] - hero.params8[index];\n      }\n    }\n    ///SUCCESS QUEST\n    uint256 percentSuccess = random(100 - malus);\n    hero.params256[7] = percentSuccess;\n    if (percentSuccess > questTemp.percentDifficulty) {\n      hero.params256[6] = 1;\n      hero.params256[8] += (questTemp.exp * questContrat.getMultiplicateurExp());\n\n      Items itemContrat = Items(addressItem);\n\n      for (uint256 index = 0; index < questTemp.items.length; index = unsafeInc(index)) {\n        itemContrat.mint(_msgSender(), questTemp.items[index], 1);\n      }\n      //recuperer les items dans la quest !IMPORTANT\n      /*for (uint256 index = 0; index < countItems;  index = unsafeInc(index) {\n        Items itemtemp = Items(items[index]);\n        if (random256(100000) > itemtemp.getRarity()) {\n          itemtemp.mint(1, _msgSender());\n        }\n      }*/\n    } else {\n      hero.params256[6] = 0;\n    }\n    hero.params256[2] = block.timestamp;\n    hero.params256[4] = 0;\n\n    contrat.updateToken(hero, tokenId, _msgSender());\n    emit completedQuest(_msgSender(), tokenId, hero.params256[3]);\n  }\n\n  ///@notice level up hero and increment one stat\n  ///@param statToLvlUp id of stat you want increment\n  ///@param tokenId id of token you want level up\n  function levelUp(uint8 statToLvlUp, uint256 tokenId) external isYourToken(tokenId) {\n    Hero contrat = Hero(addressHero);\n    HeroLib.Token memory hero = contrat.getTokenDetails(tokenId);\n    if (\n      hero.params256[8] <= (100 + (paramsContract[\"expForLevelUp\"] ** hero.params256[9]))\n    )\n      revert NotEnoughExperience({\n        experienceHero: hero.params256[8],\n        experienceNeeded: (100 + (paramsContract[\"expForLevelUp\"] ** hero.params256[9])),\n        tokenId: tokenId\n      });\n    if (statToLvlUp < 0 || statToLvlUp > 5)\n      revert NotAStat({ statToLvlUp: statToLvlUp, tokenId: tokenId });\n    unchecked {\n      hero.params8[statToLvlUp]++;\n    }\n    hero.params256[8] = 0;\n    unchecked {\n      hero.params256[9]++;\n    }\n\n    contrat.updateToken(hero, tokenId, _msgSender());\n    emit levelupped(_msgSender(), tokenId, statToLvlUp);\n  }\n\n  /****************************************\n    UTILS\n     ****************************************/\n\n  ///@notice return random number\n  ///@param maxNumber max number random to return\n  ///@return randomNumber random uint256 returned\n  function random(uint8 maxNumber) internal returns (uint8) {\n    return uint8(random256(uint8(maxNumber)));\n  }\n\n  ///@notice return random number\n  ///@param maxNumber max number random to return\n  ///@return randomNumber random uint256 returned\n  function random256(uint256 maxNumber) internal returns (uint256) {\n    uint256 randomNumber = uint256(\n      keccak256(abi.encodePacked(block.timestamp, _msgSender(), paramsContract[\"nonce\"]))\n    ) % maxNumber;\n    unchecked {\n      paramsContract[\"nonce\"]++;\n    }\n    return randomNumber;\n  }\n\n  ///@notice put hero in sell market\n  ///@param tokenId id key of token you want to putt in sell\n  ///@param price price of token put in selled\n  function putHeroInSell(uint256 tokenId, uint256 price) external isYourToken(tokenId) {\n    Hero contrat = Hero(addressHero);\n    address owner = contrat.ownerOf(tokenId);\n    HeroLib.Token memory hero = contrat.getTokenDetails(tokenId);\n    hero.params256[11] = price;\n    hero.owner = _msgSender();\n    contrat.updateToken(hero, tokenId, _msgSender());\n    contrat.transfer(owner, address(this), tokenId);\n    emit puttedHeroInSell(_msgSender(), tokenId, price);\n  }\n\n  ///@notice cancel hero in sell market\n  ///@param tokenId id key of token you want to putt in sell\n  function cancelHeroInSell(uint256 tokenId) external {\n    Hero contrat = Hero(addressHero);\n    HeroLib.Token memory hero = contrat.getTokenDetails(tokenId);\n    address owner = hero.owner;\n    if (owner != _msgSender())\n      revert NotYourToken({\n        sender: _msgSender(),\n        ownerOfToken: owner,\n        tokenId: tokenId\n      });\n    contrat.transfer(address(this), owner, tokenId);\n    emit canceledHeroInSell(_msgSender(), tokenId);\n  }\n\n  ///@notice return all heroes in market sell\n  ///@return tokens return structure of heroes\n  function getHerosInSell() external view returns (HeroLib.Token[] memory) {\n    Hero contrat = Hero(addressHero);\n    HeroLib.Token[] memory result = new HeroLib.Token[](\n      paramsContract[\"nextTokenIdToMint\"]\n    );\n    uint256 resultIndex;\n\n    for (uint256 i = 0; i < paramsContract[\"nextTokenIdToMint\"]; i = unsafeInc(i)) {\n      HeroLib.Token memory hero = contrat.getTokenDetails(i);\n      if (hero.params256[11] > 0) {\n        result[resultIndex] = hero;\n        unchecked {\n          resultIndex++;\n        }\n      }\n    }\n    return result;\n  }\n\n  ///@notice purchase a token previously put in sell\n  ///@param tokenId id of token you want buy\n  function purchase(uint256 tokenId) external payable {\n    Hero contrat = Hero(addressHero);\n    HeroLib.Token memory hero = contrat.getTokenDetails(tokenId);\n    uint256 price = hero.params256[11];\n    address owner = hero.owner;\n    hero.owner = _msgSender();\n    if (price <= 0) revert TokenNotInSales({ tokenId: tokenId, price: price });\n    if (msg.value < price)\n      revert NotEnoughEthPurchase({ tokenId: tokenId, price: price, value: msg.value });\n    if (owner == _msgSender())\n      revert AlreadyOwned({ tokenId: tokenId, sender: _msgSender(), owner: owner });\n\n    hero.params256[11] = 0;\n    contrat.updateToken(hero, tokenId, address(this));\n\n    contrat.transfer(address(this), _msgSender(), tokenId);\n\n    (bool sent, ) = owner.call{ value: price }(\"\");\n    if (sent == false) revert SellMyosSendEth({ to: _msgSender(), value: price });\n    emit purchasedHeroInSell(_msgSender(), tokenId, price, owner);\n  }\n\n  /*FUNDS OF CONTRACT*/\n\n  function withdraw() external onlyOwner {\n    payable(_msgSender()).transfer(address(this).balance);\n  }\n\n  /**\n   * Always returns `IERC721Receiver.onERC721Received.selector`.\n   */\n  function onERC721Received(\n    address,\n    address,\n    uint256,\n    bytes memory\n  ) public virtual override returns (bytes4) {\n    return this.onERC721Received.selector;\n  }\n\n  function supportsInterface(bytes4 interfaceId)\n    public\n    view\n    virtual\n    override(AccessControlEnumerable)\n    returns (bool)\n  {\n    return\n      interfaceId == type(IERC721Receiver).interfaceId ||\n      super.supportsInterface(interfaceId);\n  }\n\n  /**\n    a finaliser\n     */\n  /*function calculPriceSupply() public{\n        Hero contrat = Hero(addressHero);\n        uint totalSupply = contrat.getParamsContract(\"totalSupply\");\n        //priceInUsd = (item.price/(10**18)) * (latestPrice/10**8)\n    }*/\n}\n",
  "sourcePath": "/home/solid-solution/Bureau/HOMEWORK/MYOS/contracts/proxy/ProxyHero.sol",
  "compiler": {
    "name": "solc",
    "version": "0.8.11+commit.d7f03943.Emscripten.clang"
  },
  "schemaVersion": "3.4.10",
  "updatedAt": "2022-11-22T23:39:00.944Z",
  "devdoc": {
    "kind": "dev",
    "methods": {
      "cancelHeroInSell(uint256)": {
        "params": {
          "tokenId": "id key of token you want to putt in sell"
        }
      },
      "cancelQuest(uint256)": {
        "params": {
          "tokenId": "id of token you want to launch in quest"
        }
      },
      "completeQuest(uint256)": {
        "params": {
          "tokenId": "id of token you want to complete quest"
        }
      },
      "getHerosInSell()": {
        "returns": {
          "_0": "tokens return structure of heroes"
        }
      },
      "getParamsContract(string)": {
        "params": {
          "key": "key index of param your want to return"
        },
        "returns": {
          "_0": "param value of parameter contract"
        }
      },
      "getRoleAdmin(bytes32)": {
        "details": "Returns the admin role that controls `role`. See {grantRole} and {revokeRole}. To change a role's admin, use {_setRoleAdmin}."
      },
      "getRoleMember(bytes32,uint256)": {
        "details": "Returns one of the accounts that have `role`. `index` must be a value between 0 and {getRoleMemberCount}, non-inclusive. Role bearers are not sorted in any particular way, and their ordering may change at any point. WARNING: When using {getRoleMember} and {getRoleMemberCount}, make sure you perform all queries on the same block. See the following https://forum.openzeppelin.com/t/iterating-over-elements-on-enumerableset-in-openzeppelin-contracts/2296[forum post] for more information."
      },
      "getRoleMemberCount(bytes32)": {
        "details": "Returns the number of accounts that have `role`. Can be used together with {getRoleMember} to enumerate all bearers of a role."
      },
      "grantRole(bytes32,address)": {
        "details": "Grants `role` to `account`. If `account` had not been already granted `role`, emits a {RoleGranted} event. Requirements: - the caller must have ``role``'s admin role. May emit a {RoleGranted} event."
      },
      "hasRole(bytes32,address)": {
        "details": "Returns `true` if `account` has been granted `role`."
      },
      "levelUp(uint8,uint256)": {
        "params": {
          "statToLvlUp": "id of stat you want increment",
          "tokenId": "id of token you want level up"
        }
      },
      "mintHero(uint8,uint8,string)": {
        "params": {
          "_tokenUri": "uri of metadata token hero",
          "faction": "faction with class and stat linked",
          "generation": "generation of creation hero"
        }
      },
      "owner()": {
        "details": "Returns the address of the current owner."
      },
      "purchase(uint256)": {
        "params": {
          "tokenId": "id of token you want buy"
        }
      },
      "putHeroInSell(uint256,uint256)": {
        "params": {
          "price": "price of token put in selled",
          "tokenId": "id key of token you want to putt in sell"
        }
      },
      "renounceOwnership()": {
        "details": "Leaves the contract without owner. It will not be possible to call `onlyOwner` functions anymore. Can only be called by the current owner. NOTE: Renouncing ownership will leave the contract without an owner, thereby removing any functionality that is only available to the owner."
      },
      "renounceRole(bytes32,address)": {
        "details": "Revokes `role` from the calling account. Roles are often managed via {grantRole} and {revokeRole}: this function's purpose is to provide a mechanism for accounts to lose their privileges if they are compromised (such as when a trusted device is misplaced). If the calling account had been revoked `role`, emits a {RoleRevoked} event. Requirements: - the caller must be `account`. May emit a {RoleRevoked} event."
      },
      "revokeRole(bytes32,address)": {
        "details": "Revokes `role` from `account`. If `account` had been granted `role`, emits a {RoleRevoked} event. Requirements: - the caller must have ``role``'s admin role. May emit a {RoleRevoked} event."
      },
      "setParamsContract(string,uint256)": {
        "params": {
          "key": "key index of params contract you want set",
          "value": "value of params contract you want set"
        }
      },
      "startQuest(uint256,uint256)": {
        "params": {
          "questId": "id of quest you want to start",
          "tokenId": "id of token you want to launch in quest"
        }
      },
      "supportsInterface(bytes4)": {
        "details": "See {IERC165-supportsInterface}."
      },
      "transferOwnership(address)": {
        "details": "Transfers ownership of the contract to a new account (`newOwner`). Can only be called by the current owner."
      }
    },
    "version": 1
  },
  "userdoc": {
    "kind": "user",
    "methods": {
      "cancelHeroInSell(uint256)": {
        "notice": "cancel hero in sell market"
      },
      "cancelQuest(uint256)": {
        "notice": "cancel a quest by id for one hero token"
      },
      "completeQuest(uint256)": {
        "notice": "Validation of the quest at the end of a quest"
      },
      "getHerosInSell()": {
        "notice": "return all heroes in market sell"
      },
      "getParamsContract(string)": {
        "notice": "Return a parameter of contract by key index"
      },
      "levelUp(uint8,uint256)": {
        "notice": "level up hero and increment one stat"
      },
      "mintHero(uint8,uint8,string)": {
        "notice": "mint a hero for a value price and generate stats and parameterr"
      },
      "onERC721Received(address,address,uint256,bytes)": {
        "notice": "Always returns `IERC721Receiver.onERC721Received.selector`."
      },
      "purchase(uint256)": {
        "notice": "purchase a token previously put in sell"
      },
      "putHeroInSell(uint256,uint256)": {
        "notice": "put hero in sell market"
      },
      "setParamsContract(string,uint256)": {
        "notice": "Update a parameter of contract"
      },
      "startQuest(uint256,uint256)": {
        "notice": "start a quest by id for one hero token"
      }
    },
    "version": 1
  }
}