{
  "contractName": "ProxyHero",
  "abi": [
    {
      "inputs": [
        {
          "internalType": "address",
          "name": "_addressHero",
          "type": "address"
        },
        {
          "internalType": "address",
          "name": "_addressQuest",
          "type": "address"
        },
        {
          "internalType": "address",
          "name": "_addressClass",
          "type": "address"
        },
        {
          "internalType": "address",
          "name": "_addressItem",
          "type": "address"
        }
      ],
      "stateMutability": "nonpayable",
      "type": "constructor"
    },
    {
      "inputs": [
        {
          "internalType": "address",
          "name": "sender",
          "type": "address"
        },
        {
          "internalType": "uint256",
          "name": "questId",
          "type": "uint256"
        },
        {
          "internalType": "uint256",
          "name": "currentQuestId",
          "type": "uint256"
        },
        {
          "internalType": "uint256",
          "name": "tokenId",
          "type": "uint256"
        }
      ],
      "name": "AlreadyInQuest",
      "type": "error"
    },
    {
      "inputs": [
        {
          "internalType": "uint256",
          "name": "tokenId",
          "type": "uint256"
        },
        {
          "internalType": "address",
          "name": "sender",
          "type": "address"
        },
        {
          "internalType": "address",
          "name": "owner",
          "type": "address"
        }
      ],
      "name": "AlreadyOwned",
      "type": "error"
    },
    {
      "inputs": [
        {
          "internalType": "uint256",
          "name": "statToLvlUp",
          "type": "uint256"
        },
        {
          "internalType": "uint256",
          "name": "tokenId",
          "type": "uint256"
        }
      ],
      "name": "NotAStat",
      "type": "error"
    },
    {
      "inputs": [
        {
          "internalType": "address",
          "name": "sender",
          "type": "address"
        },
        {
          "internalType": "uint256",
          "name": "questId",
          "type": "uint256"
        },
        {
          "internalType": "uint256",
          "name": "energy",
          "type": "uint256"
        },
        {
          "internalType": "uint256",
          "name": "tokenId",
          "type": "uint256"
        }
      ],
      "name": "NotEnoughEnergy",
      "type": "error"
    },
    {
      "inputs": [
        {
          "internalType": "uint256",
          "name": "price",
          "type": "uint256"
        },
        {
          "internalType": "uint256",
          "name": "weiSended",
          "type": "uint256"
        },
        {
          "internalType": "uint256",
          "name": "tokenId",
          "type": "uint256"
        },
        {
          "internalType": "uint256",
          "name": "quantity",
          "type": "uint256"
        }
      ],
      "name": "NotEnoughEth",
      "type": "error"
    },
    {
      "inputs": [
        {
          "internalType": "uint256",
          "name": "price",
          "type": "uint256"
        },
        {
          "internalType": "uint256",
          "name": "weiSended",
          "type": "uint256"
        }
      ],
      "name": "NotEnoughEthHero",
      "type": "error"
    },
    {
      "inputs": [
        {
          "internalType": "uint256",
          "name": "tokenId",
          "type": "uint256"
        },
        {
          "internalType": "uint256",
          "name": "price",
          "type": "uint256"
        },
        {
          "internalType": "uint256",
          "name": "value",
          "type": "uint256"
        }
      ],
      "name": "NotEnoughEthPurchase",
      "type": "error"
    },
    {
      "inputs": [
        {
          "internalType": "uint256",
          "name": "experienceHero",
          "type": "uint256"
        },
        {
          "internalType": "uint256",
          "name": "experienceNeeded",
          "type": "uint256"
        },
        {
          "internalType": "uint256",
          "name": "tokenId",
          "type": "uint256"
        }
      ],
      "name": "NotEnoughExperience",
      "type": "error"
    },
    {
      "inputs": [
        {
          "internalType": "address",
          "name": "sender",
          "type": "address"
        },
        {
          "internalType": "uint256",
          "name": "tokenId",
          "type": "uint256"
        }
      ],
      "name": "NotInQuest",
      "type": "error"
    },
    {
      "inputs": [
        {
          "internalType": "uint256",
          "name": "tokenLimit",
          "type": "uint256"
        },
        {
          "internalType": "uint256",
          "name": "nextTokenIdToMint",
          "type": "uint256"
        }
      ],
      "name": "NotRemainingHero",
      "type": "error"
    },
    {
      "inputs": [
        {
          "internalType": "address",
          "name": "sender",
          "type": "address"
        },
        {
          "internalType": "address",
          "name": "ownerOfToken",
          "type": "address"
        },
        {
          "internalType": "uint256",
          "name": "tokenId",
          "type": "uint256"
        }
      ],
      "name": "NotYourToken",
      "type": "error"
    },
    {
      "inputs": [
        {
          "internalType": "uint256",
          "name": "blockTimestamp",
          "type": "uint256"
        },
        {
          "internalType": "uint256",
          "name": "heroQuestTime",
          "type": "uint256"
        },
        {
          "internalType": "uint256",
          "name": "currentQuestTime",
          "type": "uint256"
        },
        {
          "internalType": "uint256",
          "name": "tokenId",
          "type": "uint256"
        }
      ],
      "name": "QuestNotFinished",
      "type": "error"
    },
    {
      "inputs": [
        {
          "internalType": "address",
          "name": "to",
          "type": "address"
        },
        {
          "internalType": "uint256",
          "name": "value",
          "type": "uint256"
        }
      ],
      "name": "SellMyosSendEth",
      "type": "error"
    },
    {
      "inputs": [
        {
          "internalType": "uint256",
          "name": "tokenId",
          "type": "uint256"
        },
        {
          "internalType": "uint256",
          "name": "price",
          "type": "uint256"
        }
      ],
      "name": "TokenNotInSales",
      "type": "error"
    },
    {
      "anonymous": false,
      "inputs": [
        {
          "indexed": true,
          "internalType": "address",
          "name": "previousOwner",
          "type": "address"
        },
        {
          "indexed": true,
          "internalType": "address",
          "name": "newOwner",
          "type": "address"
        }
      ],
      "name": "OwnershipTransferred",
      "type": "event"
    },
    {
      "anonymous": false,
      "inputs": [
        {
          "indexed": true,
          "internalType": "bytes32",
          "name": "role",
          "type": "bytes32"
        },
        {
          "indexed": true,
          "internalType": "bytes32",
          "name": "previousAdminRole",
          "type": "bytes32"
        },
        {
          "indexed": true,
          "internalType": "bytes32",
          "name": "newAdminRole",
          "type": "bytes32"
        }
      ],
      "name": "RoleAdminChanged",
      "type": "event"
    },
    {
      "anonymous": false,
      "inputs": [
        {
          "indexed": true,
          "internalType": "bytes32",
          "name": "role",
          "type": "bytes32"
        },
        {
          "indexed": true,
          "internalType": "address",
          "name": "account",
          "type": "address"
        },
        {
          "indexed": true,
          "internalType": "address",
          "name": "sender",
          "type": "address"
        }
      ],
      "name": "RoleGranted",
      "type": "event"
    },
    {
      "anonymous": false,
      "inputs": [
        {
          "indexed": true,
          "internalType": "bytes32",
          "name": "role",
          "type": "bytes32"
        },
        {
          "indexed": true,
          "internalType": "address",
          "name": "account",
          "type": "address"
        },
        {
          "indexed": true,
          "internalType": "address",
          "name": "sender",
          "type": "address"
        }
      ],
      "name": "RoleRevoked",
      "type": "event"
    },
    {
      "anonymous": false,
      "inputs": [
        {
          "indexed": true,
          "internalType": "address",
          "name": "owner",
          "type": "address"
        },
        {
          "indexed": true,
          "internalType": "string",
          "name": "key",
          "type": "string"
        },
        {
          "indexed": false,
          "internalType": "uint256",
          "name": "value",
          "type": "uint256"
        }
      ],
      "name": "UpdateParamContract",
      "type": "event"
    },
    {
      "anonymous": false,
      "inputs": [
        {
          "indexed": true,
          "internalType": "address",
          "name": "sender",
          "type": "address"
        },
        {
          "indexed": true,
          "internalType": "uint256",
          "name": "tokenId",
          "type": "uint256"
        }
      ],
      "name": "canceledQuest",
      "type": "event"
    },
    {
      "anonymous": false,
      "inputs": [
        {
          "indexed": true,
          "internalType": "address",
          "name": "sender",
          "type": "address"
        },
        {
          "indexed": true,
          "internalType": "uint256",
          "name": "tokenId",
          "type": "uint256"
        },
        {
          "indexed": true,
          "internalType": "uint256",
          "name": "questId",
          "type": "uint256"
        }
      ],
      "name": "completedQuest",
      "type": "event"
    },
    {
      "anonymous": false,
      "inputs": [
        {
          "indexed": true,
          "internalType": "address",
          "name": "sender",
          "type": "address"
        },
        {
          "indexed": true,
          "internalType": "uint256",
          "name": "tokenId",
          "type": "uint256"
        },
        {
          "indexed": false,
          "internalType": "uint256",
          "name": "statToLvlUp",
          "type": "uint256"
        }
      ],
      "name": "levelupped",
      "type": "event"
    },
    {
      "anonymous": false,
      "inputs": [
        {
          "indexed": true,
          "internalType": "address",
          "name": "sender",
          "type": "address"
        },
        {
          "indexed": true,
          "internalType": "uint256",
          "name": "tokenId",
          "type": "uint256"
        },
        {
          "indexed": false,
          "internalType": "uint256",
          "name": "price",
          "type": "uint256"
        },
        {
          "indexed": true,
          "internalType": "address",
          "name": "owner",
          "type": "address"
        }
      ],
      "name": "purchasedHeroInSell",
      "type": "event"
    },
    {
      "anonymous": false,
      "inputs": [
        {
          "indexed": true,
          "internalType": "address",
          "name": "sender",
          "type": "address"
        },
        {
          "indexed": true,
          "internalType": "uint256",
          "name": "tokenId",
          "type": "uint256"
        },
        {
          "indexed": true,
          "internalType": "uint256",
          "name": "price",
          "type": "uint256"
        }
      ],
      "name": "puttedHeroInSell",
      "type": "event"
    },
    {
      "anonymous": false,
      "inputs": [
        {
          "indexed": true,
          "internalType": "address",
          "name": "sender",
          "type": "address"
        },
        {
          "indexed": true,
          "internalType": "uint256",
          "name": "tokenId",
          "type": "uint256"
        },
        {
          "indexed": true,
          "internalType": "uint256",
          "name": "questId",
          "type": "uint256"
        }
      ],
      "name": "startedQuest",
      "type": "event"
    },
    {
      "inputs": [],
      "name": "DEFAULT_ADMIN_ROLE",
      "outputs": [
        {
          "internalType": "bytes32",
          "name": "",
          "type": "bytes32"
        }
      ],
      "stateMutability": "view",
      "type": "function"
    },
    {
      "inputs": [
        {
          "internalType": "bytes32",
          "name": "role",
          "type": "bytes32"
        }
      ],
      "name": "getRoleAdmin",
      "outputs": [
        {
          "internalType": "bytes32",
          "name": "",
          "type": "bytes32"
        }
      ],
      "stateMutability": "view",
      "type": "function"
    },
    {
      "inputs": [
        {
          "internalType": "bytes32",
          "name": "role",
          "type": "bytes32"
        },
        {
          "internalType": "uint256",
          "name": "index",
          "type": "uint256"
        }
      ],
      "name": "getRoleMember",
      "outputs": [
        {
          "internalType": "address",
          "name": "",
          "type": "address"
        }
      ],
      "stateMutability": "view",
      "type": "function"
    },
    {
      "inputs": [
        {
          "internalType": "bytes32",
          "name": "role",
          "type": "bytes32"
        }
      ],
      "name": "getRoleMemberCount",
      "outputs": [
        {
          "internalType": "uint256",
          "name": "",
          "type": "uint256"
        }
      ],
      "stateMutability": "view",
      "type": "function"
    },
    {
      "inputs": [
        {
          "internalType": "bytes32",
          "name": "role",
          "type": "bytes32"
        },
        {
          "internalType": "address",
          "name": "account",
          "type": "address"
        }
      ],
      "name": "grantRole",
      "outputs": [],
      "stateMutability": "nonpayable",
      "type": "function"
    },
    {
      "inputs": [
        {
          "internalType": "bytes32",
          "name": "role",
          "type": "bytes32"
        },
        {
          "internalType": "address",
          "name": "account",
          "type": "address"
        }
      ],
      "name": "hasRole",
      "outputs": [
        {
          "internalType": "bool",
          "name": "",
          "type": "bool"
        }
      ],
      "stateMutability": "view",
      "type": "function"
    },
    {
      "inputs": [],
      "name": "owner",
      "outputs": [
        {
          "internalType": "address",
          "name": "",
          "type": "address"
        }
      ],
      "stateMutability": "view",
      "type": "function"
    },
    {
      "inputs": [
        {
          "internalType": "string",
          "name": "",
          "type": "string"
        }
      ],
      "name": "paramsContract",
      "outputs": [
        {
          "internalType": "uint256",
          "name": "",
          "type": "uint256"
        }
      ],
      "stateMutability": "view",
      "type": "function"
    },
    {
      "inputs": [],
      "name": "renounceOwnership",
      "outputs": [],
      "stateMutability": "nonpayable",
      "type": "function"
    },
    {
      "inputs": [
        {
          "internalType": "bytes32",
          "name": "role",
          "type": "bytes32"
        },
        {
          "internalType": "address",
          "name": "account",
          "type": "address"
        }
      ],
      "name": "renounceRole",
      "outputs": [],
      "stateMutability": "nonpayable",
      "type": "function"
    },
    {
      "inputs": [
        {
          "internalType": "bytes32",
          "name": "role",
          "type": "bytes32"
        },
        {
          "internalType": "address",
          "name": "account",
          "type": "address"
        }
      ],
      "name": "revokeRole",
      "outputs": [],
      "stateMutability": "nonpayable",
      "type": "function"
    },
    {
      "inputs": [
        {
          "internalType": "address",
          "name": "newOwner",
          "type": "address"
        }
      ],
      "name": "transferOwnership",
      "outputs": [],
      "stateMutability": "nonpayable",
      "type": "function"
    },
    {
      "inputs": [
        {
          "internalType": "string",
          "name": "key",
          "type": "string"
        },
        {
          "internalType": "uint256",
          "name": "value",
          "type": "uint256"
        }
      ],
      "name": "setParamsContract",
      "outputs": [],
      "stateMutability": "nonpayable",
      "type": "function"
    },
    {
      "inputs": [
        {
          "internalType": "string",
          "name": "key",
          "type": "string"
        }
      ],
      "name": "getParamsContract",
      "outputs": [
        {
          "internalType": "uint256",
          "name": "",
          "type": "uint256"
        }
      ],
      "stateMutability": "view",
      "type": "function"
    },
    {
      "inputs": [
        {
          "internalType": "uint8",
          "name": "generation",
          "type": "uint8"
        },
        {
          "internalType": "uint8",
          "name": "faction",
          "type": "uint8"
        },
        {
          "internalType": "string",
          "name": "_tokenUri",
          "type": "string"
        }
      ],
      "name": "mintHero",
      "outputs": [],
      "stateMutability": "payable",
      "type": "function"
    },
    {
      "inputs": [
        {
          "internalType": "uint256",
          "name": "tokenId",
          "type": "uint256"
        },
        {
          "internalType": "uint256",
          "name": "questId",
          "type": "uint256"
        }
      ],
      "name": "startQuest",
      "outputs": [],
      "stateMutability": "nonpayable",
      "type": "function"
    },
    {
      "inputs": [
        {
          "internalType": "uint256",
          "name": "tokenId",
          "type": "uint256"
        }
      ],
      "name": "cancelQuest",
      "outputs": [],
      "stateMutability": "nonpayable",
      "type": "function"
    },
    {
      "inputs": [
        {
          "internalType": "uint256",
          "name": "tokenId",
          "type": "uint256"
        }
      ],
      "name": "completeQuest",
      "outputs": [],
      "stateMutability": "nonpayable",
      "type": "function"
    },
    {
      "inputs": [
        {
          "internalType": "uint8",
          "name": "statToLvlUp",
          "type": "uint8"
        },
        {
          "internalType": "uint256",
          "name": "tokenId",
          "type": "uint256"
        }
      ],
      "name": "levelUp",
      "outputs": [],
      "stateMutability": "nonpayable",
      "type": "function"
    },
    {
      "inputs": [
        {
          "internalType": "uint256",
          "name": "tokenId",
          "type": "uint256"
        },
        {
          "internalType": "uint256",
          "name": "price",
          "type": "uint256"
        }
      ],
      "name": "putHeroInSell",
      "outputs": [],
      "stateMutability": "nonpayable",
      "type": "function"
    },
    {
      "inputs": [],
      "name": "getHerosInSell",
      "outputs": [
        {
          "components": [
            {
              "internalType": "uint8[]",
              "name": "params8",
              "type": "uint8[]"
            },
            {
              "internalType": "uint256[]",
              "name": "params256",
              "type": "uint256[]"
            },
            {
              "internalType": "address",
              "name": "owner",
              "type": "address"
            }
          ],
          "internalType": "struct HeroLib.Token[]",
          "name": "",
          "type": "tuple[]"
        }
      ],
      "stateMutability": "view",
      "type": "function"
    },
    {
      "inputs": [
        {
          "internalType": "uint256",
          "name": "tokenId",
          "type": "uint256"
        }
      ],
      "name": "purchase",
      "outputs": [],
      "stateMutability": "payable",
      "type": "function"
    },
    {
      "inputs": [],
      "name": "withdraw",
      "outputs": [],
      "stateMutability": "nonpayable",
      "type": "function"
    },
    {
      "inputs": [
        {
          "internalType": "address",
          "name": "",
          "type": "address"
        },
        {
          "internalType": "address",
          "name": "",
          "type": "address"
        },
        {
          "internalType": "uint256",
          "name": "",
          "type": "uint256"
        },
        {
          "internalType": "bytes",
          "name": "",
          "type": "bytes"
        }
      ],
      "name": "onERC721Received",
      "outputs": [
        {
          "internalType": "bytes4",
          "name": "",
          "type": "bytes4"
        }
      ],
      "stateMutability": "nonpayable",
      "type": "function"
    },
    {
      "inputs": [
        {
          "internalType": "bytes4",
          "name": "interfaceId",
          "type": "bytes4"
        }
      ],
      "name": "supportsInterface",
      "outputs": [
        {
          "internalType": "bool",
          "name": "",
          "type": "bool"
        }
      ],
      "stateMutability": "view",
      "type": "function"
    }
  ],
  "bytecode": "0x60806040523480156200001157600080fd5b5060405162003dc438038062003dc4833981016040819052620000349162000274565b6200003f3362000207565b60018055600480546001600160a01b03199081166001600160a01b038781169182178455600580548416888316179055600680548416878316179055600780549093169085161790915560405163f26bf0b760e01b815260209281019290925260116024830152701b995e1d151bdad95b9259151bd35a5b9d607a1b60448301529063f26bf0b790606401602060405180830381865afa158015620000e8573d6000803e3d6000fd5b505050506040513d601f19601f820116820180604052508101906200010e9190620002d1565b60408051701b995e1d151bdad95b9259151bd35a5b9d607a1b815260086011820181905282519182900360310182209390935564707269636560d81b815260058082018490528251918290036025908101832067016345785d8a00009055671d1bdd185b141b9d60c21b83528285018590528351928390036028018320829055691d1bdad95b931a5b5a5d60b21b8352600a8301859052835192839003602a0183206127109055646e6f6e636560d81b8352908201849052825191829003018120600090556c0657870466f724c6576656c557609c1b8152600d8101929092525190819003602d0190206064905550620002eb92505050565b600080546001600160a01b038381166001600160a01b0319831681178455604051919092169283917f8be0079c531659141344cd1fd0a4f28419497f9722a3daafe3b4186f6b6457e09190a35050565b80516001600160a01b03811681146200026f57600080fd5b919050565b600080600080608085870312156200028b57600080fd5b620002968562000257565b9350620002a66020860162000257565b9250620002b66040860162000257565b9150620002c66060860162000257565b905092959194509250565b600060208284031215620002e457600080fd5b5051919050565b613ac980620002fb6000396000f3fe6080604052600436106101665760003560e01c80638da5cb5b116100d1578063d547741f1161008a578063f26bf0b711610064578063f26bf0b714610462578063f2fde38b14610482578063fa84413a146104a2578063fe90ff7d146104b557600080fd5b8063d547741f1461040f578063d706b9ba1461042f578063efef39a11461044f57600080fd5b80638da5cb5b146103485780639010d07c1461037a57806391d148541461039a578063a217fddf146103ba578063c3c33b40146103cf578063ca15c873146103ef57600080fd5b80633cb11944116101235780633cb11944146102845780633ccfd60b146102a4578063464fa3f5146102b9578063528be0a9146102db5780635f9d45d8146102fb578063715018a61461033357600080fd5b806301ffc9a71461016b5780630b275db4146101a0578063150b7a02146101c2578063248a9ca3146102065780632f2ff15d1461024457806336568abe14610264575b600080fd5b34801561017757600080fd5b5061018b610186366004612d6b565b6104d5565b60405190151581526020015b60405180910390f35b3480156101ac57600080fd5b506101c06101bb366004612da4565b610500565b005b3480156101ce57600080fd5b506101ed6101dd366004612efc565b630a85bd0160e11b949350505050565b6040516001600160e01b03199091168152602001610197565b34801561021257600080fd5b50610236610221366004612f7b565b60009081526002602052604090206001015490565b604051908152602001610197565b34801561025057600080fd5b506101c061025f366004612f94565b61093c565b34801561027057600080fd5b506101c061027f366004612f94565b610966565b34801561029057600080fd5b506101c061029f36600461300c565b6109e4565b3480156102b057600080fd5b506101c0610a75565b3480156102c557600080fd5b506102ce610aac565b604051610197919061310a565b3480156102e757600080fd5b506101c06102f6366004612f7b565b610c3c565b34801561030757600080fd5b5061023661031636600461316c565b805160208183018101805160088252928201919093012091525481565b34801561033f57600080fd5b506101c0611253565b34801561035457600080fd5b506000546001600160a01b03165b6040516001600160a01b039091168152602001610197565b34801561038657600080fd5b506103626103953660046131bc565b611267565b3480156103a657600080fd5b5061018b6103b5366004612f94565b611286565b3480156103c657600080fd5b50610236600081565b3480156103db57600080fd5b506101c06103ea3660046131bc565b6112b1565b3480156103fb57600080fd5b5061023661040a366004612f7b565b6115d9565b34801561041b57600080fd5b506101c061042a366004612f94565b6115f0565b34801561043b57600080fd5b506101c061044a3660046131bc565b611615565b6101c061045d366004612f7b565b6118be565b34801561046e57600080fd5b5061023661047d3660046131de565b611bd6565b34801561048e57600080fd5b506101c061049d36600461321f565b611c01565b6101c06104b036600461323c565b611c77565b3480156104c157600080fd5b506101c06104d0366004612f7b565b611ebe565b60006001600160e01b03198216630a85bd0160e11b14806104fa57506104fa826120d7565b92915050565b60045481906001600160a01b0316336040516331a9108f60e11b8152600481018490526001600160a01b0391821691831690636352211e90602401602060405180830381865afa158015610558573d6000803e3d6000fd5b505050506040513d601f19601f8201168201806040525081019061057c91906132b0565b6001600160a01b03161461062d57335b6040516331a9108f60e11b8152600481018490526001600160a01b03831690636352211e90602401602060405180830381865afa1580156105d1573d6000803e3d6000fd5b505050506040513d601f19601f820116820180604052508101906105f591906132b0565b6040516365165d8160e11b81526001600160a01b03928316600482015291166024820152604481018390526064015b60405180910390fd5b6004805460405163183c06e560e31b81529182018590526001600160a01b031690600090829063c1e0372890602401600060405180830381865afa158015610679573d6000803e3d6000fd5b505050506040513d6000823e601f3d908101601f191682016040526106a1919081019061336a565b905080602001516009815181106106ba576106ba61345f565b602002602001015160086040516106e4906c0657870466f724c6576656c557609c1b8152600d0190565b9081526020016040518091039020546106fd919061356f565b61070890606461357b565b816020015160088151811061071f5761071f61345f565b6020026020010151116107d95780602001516008815181106107435761074361345f565b602002602001015181602001516009815181106107625761076261345f565b6020026020010151600860405161078c906c0657870466f724c6576656c557609c1b8152600d0190565b9081526020016040518091039020546107a5919061356f565b6107b090606461357b565b60405163c2f02ac960e01b81526004810192909252602482015260448101869052606401610624565b60058660ff16111561080a57604051632f62314360e11b815260ff8716600482015260248101869052604401610624565b8051805160ff88169081106108215761082161345f565b60200260200101805180919060010160ff1660ff1681525050600081602001516008815181106108535761085361345f565b60200260200101818152505080602001516009815181106108765761087661345f565b602090810291909101018051600101905260405163ed2123c360e01b81526001600160a01b0383169063ed2123c3906108b790849089903390600401613593565b600060405180830381600087803b1580156108d157600080fd5b505af11580156108e5573d6000803e3d6000fd5b50505050846108f13390565b60405160ff891681526001600160a01b0391909116907fd7fd7f613f35a65698c314e9f2351c1fc72f0546b866e30bfaa18f3e93ceaac59060200160405180910390a3505050505050565b600082815260026020526040902060010154610957816120fc565b6109618383612106565b505050565b6001600160a01b03811633146109d65760405162461bcd60e51b815260206004820152602f60248201527f416363657373436f6e74726f6c3a2063616e206f6e6c792072656e6f756e636560448201526e103937b632b9903337b91039b2b63360891b6064820152608401610624565b6109e08282612128565b5050565b6109ec61214a565b80600884846040516109ff9291906135c6565b90815260405190819003602001812091909155610a1f90849084906135c6565b6040518091039020610a2e3390565b6001600160a01b03167f419740d480ec7b24bbb56324d7b648081dbaf6c4f721ed5b7f1cacaa31c1f63183604051610a6891815260200190565b60405180910390a3505050565b610a7d61214a565b60405133904780156108fc02916000818181858888f19350505050158015610aa9573d6000803e3d6000fd5b50565b6004546040516060916001600160a01b031690600090600890610ace906135d6565b9081526020016040518091039020546001600160401b03811115610af457610af4612de5565b604051908082528060200260200182016040528015610b4157816020015b60408051606080820183528082526020820152600091810191909152815260200190600190039081610b125790505b5090506000805b6008604051610b56906135d6565b908152602001604051809103902054811015610c335760405163183c06e560e31b8152600481018290526000906001600160a01b0386169063c1e0372890602401600060405180830381865afa158015610bb4573d6000803e3d6000fd5b505050506040513d6000823e601f3d908101601f19168201604052610bdc919081019061336a565b905060008160200151600b81518110610bf757610bf761345f565b60200260200101511115610c2a5780848481518110610c1857610c1861345f565b60209081029190910101526001909201915b50600101610b48565b50909392505050565b60045481906001600160a01b0316336040516331a9108f60e11b8152600481018490526001600160a01b0391821691831690636352211e90602401602060405180830381865afa158015610c94573d6000803e3d6000fd5b505050506040513d601f19601f82011682018060405250810190610cb891906132b0565b6001600160a01b031614610ccc573361058c565b6004805460405163183c06e560e31b81529182018590526001600160a01b031690600090829063c1e0372890602401600060405180830381865afa158015610d18573d6000803e3d6000fd5b505050506040513d6000823e601f3d908101601f19168201604052610d40919081019061336a565b600554602082015180519293506001600160a01b0390911691600091839163b0f929b091906003908110610d7657610d7661345f565b60200260200101516040518263ffffffff1660e01b8152600401610d9c91815260200190565b600060405180830381865afa158015610db9573d6000803e3d6000fd5b505050506040513d6000823e601f3d908101601f19168201604052610de19190810190613615565b90508060a001518360200151600281518110610dff57610dff61345f565b602002602001015142610e1291906136ec565b11610e7057428360200151600281518110610e2f57610e2f61345f565b60200260200101518260a001518960405163250ebb6160e21b8152600401610624949392919093845260208401929092526040830152606082015260800190565b6000805b8260400151518160ff161015610f39578451805160ff8316908110610e9b57610e9b61345f565b602002602001015160ff1683604001518260ff1681518110610ebf57610ebf61345f565b602002602001015160ff161115610f27578451805160ff8316908110610ee757610ee761345f565b602002602001015183604001518260ff1681518110610f0857610f0861345f565b6020026020010151610f1a9190613703565b610f249083613726565b91505b80610f318161374b565b915050610e74565b506000610f4f610f4a836064613703565b6121a4565b60ff169050808560200151600781518110610f6c57610f6c61345f565b602002602001018181525050826020015160ff1681111561111c5760018560200151600681518110610fa057610fa061345f565b602002602001018181525050836001600160a01b0316636827822e6040518163ffffffff1660e01b8152600401602060405180830381865afa158015610fea573d6000803e3d6000fd5b505050506040513d601f19601f8201168201806040525081019061100e919061376b565b835161101d9160ff1690613788565b61ffff1685602001516008815181106110385761103861345f565b6020026020010181815161104c919061357b565b9052506007546001600160a01b031660005b846060015151811015611115576001600160a01b03821663156e29f633876060015184815181106110915761109161345f565b60209081029190910101516040516001600160e01b031960e085901b1681526001600160a01b03909216600483015260ff16602482015260016044820152606401600060405180830381600087803b1580156110ec57600080fd5b505af1158015611100573d6000803e3d6000fd5b5050505061110e8160010190565b905061105e565b5050611142565b600085602001516006815181106111355761113561345f565b6020026020010181815250505b42856020015160028151811061115a5761115a61345f565b6020026020010181815250506000856020015160048151811061117f5761117f61345f565b602090810291909101015260405163ed2123c360e01b81526001600160a01b0387169063ed2123c3906111ba9088908d903390600401613593565b600060405180830381600087803b1580156111d457600080fd5b505af11580156111e8573d6000803e3d6000fd5b5050505084602001516003815181106112035761120361345f565b6020026020010151896112133390565b6001600160a01b03167ff94577e4230f725c7988aeb2df57de54ee35126b976024523471f486f5d1806760405160405180910390a4505050505050505050565b61125b61214a565b61126560006121b2565b565b600082815260036020526040812061127f9083612202565b9392505050565b60009182526002602090815260408084206001600160a01b0393909316845291905290205460ff1690565b60045482906001600160a01b0316336040516331a9108f60e11b8152600481018490526001600160a01b0391821691831690636352211e90602401602060405180830381865afa158015611309573d6000803e3d6000fd5b505050506040513d601f19601f8201168201806040525081019061132d91906132b0565b6001600160a01b031614611341573361058c565b60048054600554604051630b0f929b60e41b81529283018690526001600160a01b0391821692911690600090829063b0f929b090602401600060405180830381865afa158015611395573d6000803e3d6000fd5b505050506040513d6000823e601f3d908101601f191682016040526113bd9190810190613615565b60405163183c06e560e31b8152600481018990529091506000906001600160a01b0385169063c1e0372890602401600060405180830381865afa158015611408573d6000803e3d6000fd5b505050506040513d6000823e601f3d908101601f19168201604052611430919081019061336a565b905080602001516004815181106114495761144961345f565b60200260200101516000146114b557338782602001516004815181106114715761147161345f565b602090810291909101015160405163c9913a8d60e01b81526001600160a01b0390931660048401526024830191909152604482015260648101899052608401610624565b600081602001516002815181106114ce576114ce61345f565b6020026020010151426114e191906136ec565b90508782602001516003815181106114fb576114fb61345f565b6020026020010181815250508260a0015182602001516004815181106115235761152361345f565b602090810291909101015260405163ed2123c360e01b81526001600160a01b0386169063ed2123c39061155e9085908d903390600401613593565b600060405180830381600087803b15801561157857600080fd5b505af115801561158c573d6000803e3d6000fd5b5050505087896115993390565b6001600160a01b03167f31b23362e7830832079a0f2c107622ace1ea076ae2abfe337543951cf25d736560405160405180910390a4505050505050505050565b60008181526003602052604081206104fa9061220e565b60008281526002602052604090206001015461160b816120fc565b6109618383612128565b60045482906001600160a01b0316336040516331a9108f60e11b8152600481018490526001600160a01b0391821691831690636352211e90602401602060405180830381865afa15801561166d573d6000803e3d6000fd5b505050506040513d601f19601f8201168201806040525081019061169191906132b0565b6001600160a01b0316146116a5573361058c565b600480546040516331a9108f60e11b81529182018690526001600160a01b0316906000908290636352211e90602401602060405180830381865afa1580156116f1573d6000803e3d6000fd5b505050506040513d601f19601f8201168201806040525081019061171591906132b0565b60405163183c06e560e31b8152600481018890529091506000906001600160a01b0384169063c1e0372890602401600060405180830381865afa158015611760573d6000803e3d6000fd5b505050506040513d6000823e601f3d908101601f19168201604052611788919081019061336a565b9050858160200151600b815181106117a2576117a261345f565b602090810291909101015260405163ed2123c360e01b81526001600160a01b0384169063ed2123c3906117dd9084908b903390600401613593565b600060405180830381600087803b1580156117f757600080fd5b505af115801561180b573d6000803e3d6000fd5b50506040516317d5759960e31b81526001600160a01b038581166004830152306024830152604482018b90528616925063beabacc89150606401600060405180830381600087803b15801561185f57600080fd5b505af1158015611873573d6000803e3d6000fd5b5050505085876118803390565b6001600160a01b03167ffd8d86aec839a7666b23492a488dc179722910b0b493dec3f4a7d5a89cfea47560405160405180910390a450505050505050565b6004805460405163183c06e560e31b81529182018390526001600160a01b031690600090829063c1e0372890602401600060405180830381865afa15801561190a573d6000803e3d6000fd5b505050506040513d6000823e601f3d908101601f19168201604052611932919081019061336a565b905060008160200151600b8151811061194d5761194d61345f565b602002602001015190506000826040015190506000821161198b576040516367bd44b960e11b81526004810186905260248101839052604401610624565b813410156119bc5760405163186691af60e31b81526004810186905260248101839052346044820152606401610624565b6001600160a01b0381163314156119fe5760405163a33405a560e01b8152600481018690523360248201526001600160a01b0382166044820152606401610624565b60008360200151600b81518110611a1757611a1761345f565b602090810291909101015260405163ed2123c360e01b81526001600160a01b0385169063ed2123c390611a5290869089908690600401613593565b600060405180830381600087803b158015611a6c57600080fd5b505af1158015611a80573d6000803e3d6000fd5b50505050836001600160a01b031663beabacc830611a9b3390565b6040516001600160e01b031960e085901b1681526001600160a01b0392831660048201529116602482015260448101889052606401600060405180830381600087803b158015611aea57600080fd5b505af1158015611afe573d6000803e3d6000fd5b505050506000816001600160a01b03168360405160006040518083038185875af1925050503d8060008114611b4f576040519150601f19603f3d011682016040523d82523d6000602084013e611b54565b606091505b509091505080611b8057604051634482712560e11b815233600482015260248101849052604401610624565b6001600160a01b03821686336001600160a01b03167f3df9034dc7c1f5fc54b10ced70e3e64892bcad699a4ec43bffc09113089771ae86604051611bc691815260200190565b60405180910390a4505050505050565b600060088383604051611bea9291906135c6565b908152602001604051809103902054905092915050565b611c0961214a565b6001600160a01b038116611c6e5760405162461bcd60e51b815260206004820152602660248201527f4f776e61626c653a206e6577206f776e657220697320746865207a65726f206160448201526564647265737360d01b6064820152608401610624565b610aa9816121b2565b611c7f612218565b60405164707269636560d81b8152600890600501908152602001604051809103902054341015611ce55760405162461bcd60e51b8152602060048201526011602482015270135bdc9948115512081c995c5d5a5c9959607a1b6044820152606401610624565b60405164707269636560d81b8152600890600501908152602001604051809103902054341015611d4f5760405164707269636560d81b81526008906005019081526040519081900360200181205462a184d760e21b82526004820152346024820152604401610624565b6008604051611d5d906135d6565b90815260405190819003602001812054691d1bdad95b931a5b5a5d60b21b825290600890600a0190815260200160405180910390205411611dfe57604051691d1bdad95b931a5b5a5d60b21b8152600890600a019081526020016040518091039020546008604051611dce906135d6565b90815260405190819003602001812054633a3b705560e11b82526106249291600401918252602082015260400190565b6000611e0984612272565b90506000611e1734876126ac565b90506008604051611e27906135d6565b908152604051908190036020019020805460010190556004546001600160a01b031680639005ba95611e563390565b858589896040518663ffffffff1660e01b8152600401611e7a9594939291906137b2565b600060405180830381600087803b158015611e9457600080fd5b505af1158015611ea8573d6000803e3d6000fd5b50505050505050611eb860018055565b50505050565b60045481906001600160a01b0316336040516331a9108f60e11b8152600481018490526001600160a01b0391821691831690636352211e90602401602060405180830381865afa158015611f16573d6000803e3d6000fd5b505050506040513d601f19601f82011682018060405250810190611f3a91906132b0565b6001600160a01b031614611f4e573361058c565b6004805460405163183c06e560e31b81529182018590526001600160a01b031690600090829063c1e0372890602401600060405180830381865afa158015611f9a573d6000803e3d6000fd5b505050506040513d6000823e601f3d908101601f19168201604052611fc2919081019061336a565b90508060200151600481518110611fdb57611fdb61345f565b60200260200101516000141561200d57604051631ed712d560e11b815233600482015260248101869052604401610624565b600081602001516004815181106120265761202661345f565b602090810291909101015260405163ed2123c360e01b81526001600160a01b0383169063ed2123c39061206190849089903390600401613593565b600060405180830381600087803b15801561207b57600080fd5b505af115801561208f573d6000803e3d6000fd5b505050508461209b3390565b6001600160a01b03167fc04dbb3d4858dac03ad3597230df1f8983693a574e4bcfad6b9fb21c8959ba0c60405160405180910390a35050505050565b60006001600160e01b03198216635a05180f60e01b14806104fa57506104fa826127fe565b610aa98133612833565b612110828261288c565b60008281526003602052604090206109619082612912565b6121328282612927565b6000828152600360205260409020610961908261298e565b6000546001600160a01b031633146112655760405162461bcd60e51b815260206004820181905260248201527f4f776e61626c653a2063616c6c6572206973206e6f7420746865206f776e65726044820152606401610624565b60006104fa8260ff166129a3565b600080546001600160a01b038381166001600160a01b0319831681178455604051919092169283917f8be0079c531659141344cd1fd0a4f28419497f9722a3daafe3b4186f6b6457e09190a35050565b600061127f8383612a52565b60006104fa825490565b6002600154141561226b5760405162461bcd60e51b815260206004820152601f60248201527f5265656e7472616e637947756172643a207265656e7472616e742063616c6c006044820152606401610624565b6002600155565b6040805160148082526102a08201909252606091600091906020820161028080368337019050506006546040805160a08101825260008082526020820181905260609282018390528282015260808101919091529192506001600160a01b03169060405163323eae4960e01b8152600060048201526001600160a01b0383169063323eae4990602401600060405180830381865afa158015612318573d6000803e3d6000fd5b505050506040513d6000823e601f3d908101601f1916820160405261234091908101906138b6565b905060005b826001600160a01b0316630b01ca3b6040518163ffffffff1660e01b8152600401602060405180830381865afa158015612383573d6000803e3d6000fd5b505050506040513d601f19601f820116820180604052508101906123a7919061376b565b60ff168160ff1610156124be5760405163323eae4960e01b815260ff821660048201526001600160a01b0384169063323eae4990602401600060405180830381865afa1580156123fb573d6000803e3d6000fd5b505050506040513d6000823e601f3d908101601f1916820160405261242391908101906138b6565b5160ff1661243160646121a4565b60ff1610156124ac5760405163323eae4960e01b815260ff821660048201526001600160a01b0384169063323eae4990602401600060405180830381865afa158015612481573d6000803e3d6000fd5b505050506040513d6000823e601f3d908101601f191682016040526124a991908101906138b6565b91505b806124b68161374b565b915050612345565b506040810151805181906000906124d7576124d761345f565b6020026020010151846000815181106124f2576124f261345f565b602002602001019060ff16908160ff1681525050806001815181106125195761251961345f565b6020026020010151846001815181106125345761253461345f565b602002602001019060ff16908160ff16815250508060028151811061255b5761255b61345f565b6020026020010151846002815181106125765761257661345f565b602002602001019060ff16908160ff16815250508060038151811061259d5761259d61345f565b6020026020010151846003815181106125b8576125b861345f565b602002602001019060ff16908160ff1681525050806004815181106125df576125df61345f565b6020026020010151846004815181106125fa576125fa61345f565b602002602001019060ff16908160ff1681525050806005815181106126215761262161345f565b60200260200101518460058151811061263c5761263c61345f565b602002602001019060ff16908160ff168152505085846008815181106126645761266461345f565b602002602001019060ff16908160ff16815250508160200151846009815181106126905761269061345f565b60ff909216602092830291909101909101525091949350505050565b6040805160148082526102a0820190925260609160009190602082016102808036833701905050905042816000815181106126e9576126e961345f565b60200260200101818152505083816001815181106127095761270961345f565b60200260200101818152505042816002815181106127295761272961345f565b6020026020010181815250506008604051612743906135d6565b908152602001604051809103902054816006815181106127655761276561345f565b6020026020010181815250508260ff16816007815181106127885761278861345f565b6020026020010181815250506001816009815181106127a9576127a961345f565b60200260200101818152505061271081600a815181106127cb576127cb61345f565b602002602001018181525050600081600b815181106127ec576127ec61345f565b60209081029190910101529392505050565b60006001600160e01b03198216637965db0b60e01b14806104fa57506301ffc9a760e01b6001600160e01b03198316146104fa565b61283d8282611286565b6109e05761284a81612a7c565b612855836020612a8e565b60405160200161286692919061397d565b60408051601f198184030181529082905262461bcd60e51b8252610624916004016139f2565b6128968282611286565b6109e05760008281526002602090815260408083206001600160a01b03851684529091529020805460ff191660011790556128ce3390565b6001600160a01b0316816001600160a01b0316837f2f8788117e7eff1d82e926ec794901d17c78024a50270940304540a733656f0d60405160405180910390a45050565b600061127f836001600160a01b038416612c29565b6129318282611286565b156109e05760008281526002602090815260408083206001600160a01b0385168085529252808320805460ff1916905551339285917ff6391f5c32d9c69d2a47ea670b442974b53935d1edc7fd64eb21e047a839171b9190a45050565b600061127f836001600160a01b038416612c78565b60408051646e6f6e636560d81b8152600860058201528151908190036025018120544260208301526bffffffffffffffffffffffff193360601b16928201929092526054810191909152600090819083906074016040516020818303038152906040528051906020012060001c612a1a9190613a25565b90506008604051612a3690646e6f6e636560d81b815260050190565b9081526040519081900360200190208054600101905592915050565b6000826000018281548110612a6957612a6961345f565b9060005260206000200154905092915050565b60606104fa6001600160a01b03831660145b60606000612a9d836002613a47565b612aa890600261357b565b6001600160401b03811115612abf57612abf612de5565b6040519080825280601f01601f191660200182016040528015612ae9576020820181803683370190505b509050600360fc1b81600081518110612b0457612b0461345f565b60200101906001600160f81b031916908160001a905350600f60fb1b81600181518110612b3357612b3361345f565b60200101906001600160f81b031916908160001a9053506000612b57846002613a47565b612b6290600161357b565b90505b6001811115612bda576f181899199a1a9b1b9c1cb0b131b232b360811b85600f1660108110612b9657612b9661345f565b1a60f81b828281518110612bac57612bac61345f565b60200101906001600160f81b031916908160001a90535060049490941c93612bd381613a66565b9050612b65565b50831561127f5760405162461bcd60e51b815260206004820181905260248201527f537472696e67733a20686578206c656e67746820696e73756666696369656e746044820152606401610624565b6000818152600183016020526040812054612c70575081546001818101845560008481526020808220909301849055845484825282860190935260409020919091556104fa565b5060006104fa565b60008181526001830160205260408120548015612d61576000612c9c6001836136ec565b8554909150600090612cb0906001906136ec565b9050818114612d15576000866000018281548110612cd057612cd061345f565b9060005260206000200154905080876000018481548110612cf357612cf361345f565b6000918252602080832090910192909255918252600188019052604090208390555b8554869080612d2657612d26613a7d565b6001900381819060005260206000200160009055905585600101600086815260200190815260200160002060009055600193505050506104fa565b60009150506104fa565b600060208284031215612d7d57600080fd5b81356001600160e01b03198116811461127f57600080fd5b60ff81168114610aa957600080fd5b60008060408385031215612db757600080fd5b8235612dc281612d95565b946020939093013593505050565b6001600160a01b0381168114610aa957600080fd5b634e487b7160e01b600052604160045260246000fd5b604051606081016001600160401b0381118282101715612e1d57612e1d612de5565b60405290565b60405160e081016001600160401b0381118282101715612e1d57612e1d612de5565b60405160a081016001600160401b0381118282101715612e1d57612e1d612de5565b604051601f8201601f191681016001600160401b0381118282101715612e8f57612e8f612de5565b604052919050565b60006001600160401b03821115612eb057612eb0612de5565b50601f01601f191660200190565b6000612ed1612ecc84612e97565b612e67565b9050828152838383011115612ee557600080fd5b828260208301376000602084830101529392505050565b60008060008060808587031215612f1257600080fd5b8435612f1d81612dd0565b93506020850135612f2d81612dd0565b92506040850135915060608501356001600160401b03811115612f4f57600080fd5b8501601f81018713612f6057600080fd5b612f6f87823560208401612ebe565b91505092959194509250565b600060208284031215612f8d57600080fd5b5035919050565b60008060408385031215612fa757600080fd5b823591506020830135612fb981612dd0565b809150509250929050565b60008083601f840112612fd657600080fd5b5081356001600160401b03811115612fed57600080fd5b60208301915083602082850101111561300557600080fd5b9250929050565b60008060006040848603121561302157600080fd5b83356001600160401b0381111561303757600080fd5b61304386828701612fc4565b909790965060209590950135949350505050565b600081518084526020808501945080840160005b838110156130875781518752958201959082019060010161306b565b509495945050505050565b805160608084528151908401819052600091602091908201906080860190845b818110156130d157835160ff16835292840192918401916001016130b2565b5050828501519150858103838701526130ea8183613057565b6040958601516001600160a01b0316969095019590955250919392505050565b6000602080830181845280855180835260408601915060408160051b870101925083870160005b8281101561315f57603f1988860301845261314d858351613092565b94509285019290850190600101613131565b5092979650505050505050565b60006020828403121561317e57600080fd5b81356001600160401b0381111561319457600080fd5b8201601f810184136131a557600080fd5b6131b484823560208401612ebe565b949350505050565b600080604083850312156131cf57600080fd5b50508035926020909101359150565b600080602083850312156131f157600080fd5b82356001600160401b0381111561320757600080fd5b61321385828601612fc4565b90969095509350505050565b60006020828403121561323157600080fd5b813561127f81612dd0565b6000806000806060858703121561325257600080fd5b843561325d81612d95565b9350602085013561326d81612d95565b925060408501356001600160401b0381111561328857600080fd5b61329487828801612fc4565b95989497509550505050565b80516132ab81612dd0565b919050565b6000602082840312156132c257600080fd5b815161127f81612dd0565b60006001600160401b038211156132e6576132e6612de5565b5060051b60200190565b80516132ab81612d95565b600082601f83011261330c57600080fd5b8151602061331c612ecc836132cd565b82815260059290921b8401810191818101908684111561333b57600080fd5b8286015b8481101561335f57805161335281612d95565b835291830191830161333f565b509695505050505050565b6000602080838503121561337d57600080fd5b82516001600160401b038082111561339457600080fd5b90840190606082870312156133a857600080fd5b6133b0612dfb565b8251828111156133bf57600080fd5b6133cb888286016132fb565b82525083830151828111156133df57600080fd5b83019150601f820187136133f257600080fd5b8151613400612ecc826132cd565b81815260059190911b8301850190858101908983111561341f57600080fd5b938601935b8285101561343d57845182529386019390860190613424565b83870152506134509050604084016132a0565b60408201529695505050505050565b634e487b7160e01b600052603260045260246000fd5b634e487b7160e01b600052601160045260246000fd5b600181815b808511156134c65781600019048211156134ac576134ac613475565b808516156134b957918102915b93841c9390800290613490565b509250929050565b6000826134dd575060016104fa565b816134ea575060006104fa565b8160018114613500576002811461350a57613526565b60019150506104fa565b60ff84111561351b5761351b613475565b50506001821b6104fa565b5060208310610133831016604e8410600b8410161715613549575081810a6104fa565b613553838361348b565b806000190482111561356757613567613475565b029392505050565b600061127f83836134ce565b6000821982111561358e5761358e613475565b500190565b6060815260006135a66060830186613092565b6020830194909452506001600160a01b0391909116604090910152919050565b8183823760009101908152919050565b701b995e1d151bdad95b9259151bd35a5b9d607a1b815260110190565b805161ffff811681146132ab57600080fd5b805180151581146132ab57600080fd5b60006020828403121561362757600080fd5b81516001600160401b038082111561363e57600080fd5b9083019060e0828603121561365257600080fd5b61365a612e23565b613663836135f3565b8152613671602084016132f0565b602082015260408301518281111561368857600080fd5b613694878286016132fb565b6040830152506060830151828111156136ac57600080fd5b6136b8878286016132fb565b6060830152506080830151608082015260a083015160a08201526136de60c08401613605565b60c082015295945050505050565b6000828210156136fe576136fe613475565b500390565b600060ff821660ff84168082101561371d5761371d613475565b90039392505050565b600060ff821660ff84168060ff0382111561374357613743613475565b019392505050565b600060ff821660ff81141561376257613762613475565b60010192915050565b60006020828403121561377d57600080fd5b815161127f81612d95565b600061ffff808316818516818304811182151516156137a9576137a9613475565b02949350505050565b6001600160a01b0386168152608060208083018290528651918301829052600091878201919060a0850190845b818110156137fe57845160ff16835293830193918301916001016137df565b505084810360408601526138128189613057565b92505083820360608501528482528486828401376000828601820152601f909401601f1916019092019695505050505050565b60005b83811015613860578181015183820152602001613848565b83811115611eb85750506000910152565b600082601f83011261388257600080fd5b8151613890612ecc82612e97565b8181528460208386010111156138a557600080fd5b6131b4826020830160208701613845565b6000602082840312156138c857600080fd5b81516001600160401b03808211156138df57600080fd5b9083019060a082860312156138f357600080fd5b6138fb612e45565b825161390681612d95565b8152602083015161391681612d95565b602082015260408301518281111561392d57600080fd5b613939878286016132fb565b60408301525061394b60608401613605565b606082015260808301518281111561396257600080fd5b61396e87828601613871565b60808301525095945050505050565b7f416363657373436f6e74726f6c3a206163636f756e74200000000000000000008152600083516139b5816017850160208801613845565b7001034b99036b4b9b9b4b733903937b6329607d1b60179184019182015283516139e6816028840160208801613845565b01602801949350505050565b6020815260008251806020840152613a11816040850160208701613845565b601f01601f19169190910160400192915050565b600082613a4257634e487b7160e01b600052601260045260246000fd5b500690565b6000816000190483118215151615613a6157613a61613475565b500290565b600081613a7557613a75613475565b506000190190565b634e487b7160e01b600052603160045260246000fdfea2646970667358221220327b646966f852c6c3e21d6390e915c6fb0092a655f6452c9a713bcd2dec296f64736f6c634300080b0033",
  "immutableReferences": {},
  "source": "// SPDX-License-Identifier: MIT\n// Delegation contract\npragma solidity ^0.8.0;\n\nimport \"@openzeppelin/contracts/access/Ownable.sol\";\nimport \"@openzeppelin/contracts/security/ReentrancyGuard.sol\";\nimport \"@openzeppelin/contracts/utils/math/SafeMath.sol\";\nimport \"@openzeppelin/contracts/token/ERC721/IERC721Receiver.sol\";\nimport \"@openzeppelin/contracts/access/AccessControlEnumerable.sol\";\n\nimport \"../immutable/Items.sol\";\nimport \"../immutable/Class.sol\";\nimport \"../immutable/Quest.sol\";\nimport \"../immutable/Hero.sol\";\n\nimport \"../library/LClass.sol\";\nimport \"../library/LHero.sol\";\nimport \"../library/LItems.sol\";\nimport \"../library/LQuest.sol\";\n\n//enum Numbers {strong,endurance,concentration,agility,charisma,stealth,exp,level,faction,classe}\n\ncontract ProxyHero is Ownable, ReentrancyGuard, IERC721Receiver, AccessControlEnumerable {\n  using SafeMath for uint;\n  error NotEnoughEth(uint256 price, uint256 weiSended, uint256 tokenId, uint256 quantity);\n  error NotEnoughEthHero(uint256 price, uint256 weiSended);\n  error NotRemainingHero(uint256 tokenLimit, uint256 nextTokenIdToMint);\n  error NotYourToken(address sender, address ownerOfToken, uint256 tokenId);\n  error AlreadyInQuest(\n    address sender,\n    uint256 questId,\n    uint256 currentQuestId,\n    uint256 tokenId\n  );\n  error QuestNotFinished(\n    uint256 blockTimestamp,\n    uint256 heroQuestTime,\n    uint256 currentQuestTime,\n    uint256 tokenId\n  );\n  error NotEnoughExperience(\n    uint256 experienceHero,\n    uint256 experienceNeeded,\n    uint256 tokenId\n  );\n  error NotAStat(uint256 statToLvlUp, uint256 tokenId);\n  error SellMyosSendEth(address to, uint value);\n  error TokenNotInSales(uint256 tokenId, uint256 price);\n  error NotEnoughEthPurchase(uint256 tokenId, uint256 price, uint256 value);\n  error AlreadyOwned(uint256 tokenId, address sender, address owner);\n  error NotEnoughEnergy(address sender, uint256 questId, uint256 energy, uint256 tokenId);\n  error NotInQuest(address sender, uint256 tokenId);\n\n  event UpdateParamContract(address indexed owner, string indexed key, uint256 value);\n  event startedQuest(address indexed sender, uint256 indexed tokenId, uint256 indexed questId);\n  event canceledQuest(address indexed sender, uint256 indexed tokenId);\n  event completedQuest(address indexed sender, uint256 indexed tokenId, uint256 indexed questId);\n  event levelupped(address indexed sender, uint256 indexed tokenId, uint256 statToLvlUp);\n  event puttedHeroInSell(address indexed sender, uint256 indexed tokenId, uint256 indexed price);\n  event purchasedHeroInSell(address indexed sender, uint256 indexed tokenId, uint256 price, address indexed owner);\n  \n  address private addressHero;\n  address private addressQuest;\n  address private addressClass;\n  address private addressItem;\n  mapping(string => uint256) public paramsContract;\n\n  uint256 private constant utilMathMultiply = 10000000;\n\n  constructor(\n    address _addressHero,\n    address _addressQuest,\n    address _addressClass,\n    address _addressItem\n  ) {\n    addressHero = _addressHero;\n    addressQuest = _addressQuest;\n    addressClass = _addressClass;\n    addressItem = _addressItem;\n    paramsContract[\"nextTokenIdToMint\"] = Hero(addressHero).getParamsContract(\n      \"nextTokenIdToMint\"\n    );\n    paramsContract[\"price\"] = 100000000000000000; //dev:100000000000000000000 == 100 eth\n    paramsContract[\"totalPnt\"] = 5;\n    paramsContract[\"tokenLimit\"] = 10000;\n    paramsContract[\"nonce\"] = 0;\n    paramsContract[\"expForLevelUp\"] = 100;\n  }\n\n  modifier isYourToken(uint256 tokenId) {\n    Hero contrat = Hero(addressHero);\n    if (contrat.ownerOf(tokenId) != _msgSender())\n      revert NotYourToken({\n        sender: _msgSender(),\n        ownerOfToken: contrat.ownerOf(tokenId),\n        tokenId: tokenId\n      });\n    _;\n  }\n\n  function unsafeInc(uint x) private pure returns (uint) {\n    unchecked {\n      return x + 1;\n    }\n  }\n\n  ///@notice Update a parameter of contract\n  ///@param key key index of params contract you want set\n  ///@param value value of params contract you want set\n  function setParamsContract(string calldata key, uint256 value) external onlyOwner {\n    paramsContract[key] = value;\n    emit UpdateParamContract(_msgSender(), key, value);\n  }\n\n  ///@notice Return a parameter of contract by key index\n  ///@param key key index of param your want to return\n  ///@return param value of parameter contract\n  function getParamsContract(string calldata key) external view returns (uint256) {\n    return paramsContract[key];\n  }\n\n  ///@notice Update a parameter of hero contract\n  ///@param key key index of params contract you want set\n  ///@param value value of params contract you want set\n  function setParamsHeroContract(string calldata key, uint256 value) internal {\n    Hero contrat = Hero(addressHero);\n    contrat.setParamsContract(key, value);\n  }\n\n  ///@notice mint a hero for a value price and generate stats and parameterr\n  ///@param generation generation of creation hero\n  ///@param faction faction with class and stat linked\n  ///@param _tokenUri uri of metadata token hero\n  function mintHero(\n    uint8 generation,\n    uint8 faction,\n    string calldata _tokenUri\n  ) external payable nonReentrant {\n    require(msg.value >= paramsContract[\"price\"], \"More ETH required\");\n    if (msg.value < paramsContract[\"price\"])\n      revert NotEnoughEthHero({ price: paramsContract[\"price\"], weiSended: msg.value });\n    if (paramsContract[\"tokenLimit\"] <= paramsContract[\"nextTokenIdToMint\"])\n      revert NotRemainingHero({\n        tokenLimit: paramsContract[\"tokenLimit\"],\n        nextTokenIdToMint: paramsContract[\"nextTokenIdToMint\"]\n      });\n    uint8[] memory randomParts = randomStats(faction);\n    uint256[] memory randomParams = randomParameters(msg.value, generation);\n    unchecked {\n      paramsContract[\"nextTokenIdToMint\"]++;\n    }\n\n    Hero contrat = Hero(addressHero);\n    contrat.mint(_msgSender(), randomParts, randomParams, _tokenUri);\n  }\n\n  ///@notice generate stats for your hero in uint8\n  ///@param faction faction of hero generated\n  ///@return randomParts array of stats uint8 for hero\n  function randomStats(uint8 faction) internal virtual returns (uint8[] memory) {\n    uint8[] memory randomParts = new uint8[](20);\n\n    Class classContrat = Class(addressClass);\n    ClassLib.Classes memory class;\n    class = classContrat.getClassDetails(0);\n    for (uint8 index = 0; index < classContrat.getClassCount(); index++) {\n      if (random(100) < classContrat.getClassDetails(index).rarity)\n        class = classContrat.getClassDetails(index);\n    }\n    uint8[] memory stats = class.stats;\n\n    randomParts[0] = stats[0]; //Strong\n    randomParts[1] = stats[1]; //Stamina\n    randomParts[2] = stats[2]; //Focus\n    randomParts[3] = stats[3]; //Swiftness\n    randomParts[4] = stats[4]; //Charisma\n    randomParts[5] = stats[5]; //Stealth\n\n    randomParts[8] = faction; //faction\n    randomParts[9] = class.id; //class\n\n    return randomParts;\n  }\n\n  ///@notice generate parameter for your hero in uint256\n  ///@param price price of buying hero\n  ///@param generation generation fo hero\n  ///@return randomParams array of parameters uint256 for hero\n  function randomParameters(\n    uint256 price,\n    uint8 generation\n  ) internal virtual returns (uint256[] memory) {\n    uint256[] memory randomParams = new uint256[](20);\n    randomParams[0] = block.timestamp; //date de cration\n    randomParams[1] = price; //prix d'achat\n    randomParams[2] = block.timestamp; //date de la drnire action (il y a une heure) permettant de participer a des missions\n    //randomParams[3] = 0;//Mission choisis (si 0 aucune current mission)\n    //randomParams[4] = 0;//seconds pour finir la mission\n    //randomParams[5] = 0;//difficult de la qute (dtermine l'exp gagn, et les objets % gagn)\n    //randomParams[6] = 0;//last quest succeded\n    randomParams[6] = paramsContract[\"nextTokenIdToMint\"]; //tokenId\n    randomParams[7] = generation; //type\n    //randomParams[8] = 0;//exp\n    randomParams[9] = 1; //level\n    randomParams[10] = 10000; //maxEnergy\n    randomParams[11] = 0; //priceInSell\n    return randomParams;\n  }\n\n  ///@notice start a quest by id for one hero token\n  ///@param tokenId id of token you want to launch in quest\n  ///@param questId id of quest you want to start\n  function startQuest(uint256 tokenId, uint256 questId) external isYourToken(tokenId) {\n    Hero contrat = Hero(addressHero);\n    Quest questContrat = Quest(addressQuest);\n    QuestLib.QuestStruct memory questTemp = questContrat.getQuestDetails(questId);\n    HeroLib.Token memory hero = contrat.getTokenDetails(tokenId);\n    if (hero.params256[4] != 0)\n      revert AlreadyInQuest({\n        sender: _msgSender(),\n        questId: questId,\n        currentQuestId: hero.params256[4],\n        tokenId: tokenId\n      });\n    uint256 energy = block.timestamp - hero.params256[2];\n    // if (energy > hero.params256[10]) energy = hero.params256[10];\n    // if (energy < questTemp.time)\n    //   revert NotEnoughEnergy({\n    //     sender: _msgSender(),\n    //     questId: questId,\n    //     energy: energy,\n    //     tokenId: tokenId\n    //   });\n    hero.params256[3] = questId;\n    hero.params256[4] = questTemp.time;\n    contrat.updateToken(hero, tokenId, _msgSender());\n    emit startedQuest(_msgSender(), tokenId, questId);\n  }\n\n  ///@notice cancel a quest by id for one hero token\n  ///@param tokenId id of token you want to launch in quest\n  function cancelQuest(uint256 tokenId) external isYourToken(tokenId) {\n    Hero contrat = Hero(addressHero);\n    HeroLib.Token memory hero = contrat.getTokenDetails(tokenId);\n    if (hero.params256[4] == 0)\n      revert NotInQuest({ sender: _msgSender(), tokenId: tokenId });\n    hero.params256[4] = 0;\n    contrat.updateToken(hero, tokenId, _msgSender());\n    emit canceledQuest(_msgSender(), tokenId);\n  }\n\n  ///@notice Validation of the quest at the end of a quest\n  ///@param tokenId id of token you want to complete quest\n  function completeQuest(uint256 tokenId) external isYourToken(tokenId) {\n    Hero contrat = Hero(addressHero);\n    HeroLib.Token memory hero = contrat.getTokenDetails(tokenId);\n\n    Quest questContrat = Quest(addressQuest);\n    QuestLib.QuestStruct memory questTemp = questContrat.getQuestDetails(\n      hero.params256[3]\n    );\n    if (block.timestamp - hero.params256[2] <= (questTemp.time))\n      revert QuestNotFinished({\n        blockTimestamp: block.timestamp,\n        heroQuestTime: hero.params256[2],\n        currentQuestTime: questTemp.time,\n        tokenId: tokenId\n      });\n    uint8 malus = 0;\n    for (uint8 index = 0; index < questTemp.stats.length; index++) {\n      if (questTemp.stats[index] > hero.params8[index]) {\n        malus += questTemp.stats[index] - hero.params8[index];\n      }\n    }\n    ///SUCCESS QUEST\n    uint256 percentSuccess = random(100 - malus);\n    hero.params256[7] = percentSuccess;\n    if (percentSuccess > questTemp.percentDifficulty) {\n      hero.params256[6] = 1;\n      hero.params256[8] += (questTemp.exp * questContrat.getMultiplicateurExp());\n\n      Items itemContrat = Items(addressItem);\n\n      for (uint256 index = 0; index < questTemp.items.length; index = unsafeInc(index)) {\n        itemContrat.mint(_msgSender(), questTemp.items[index], 1);\n      }\n      //recuperer les items dans la quest !IMPORTANT\n      /*for (uint256 index = 0; index < countItems;  index = unsafeInc(index) {\n        Items itemtemp = Items(items[index]);\n        if (random256(100000) > itemtemp.getRarity()) {\n          itemtemp.mint(1, _msgSender());\n        }\n      }*/\n    } else {\n      hero.params256[6] = 0;\n    }\n    hero.params256[2] = block.timestamp;\n    hero.params256[4] = 0;\n\n    contrat.updateToken(hero, tokenId, _msgSender());\n    emit completedQuest(_msgSender(), tokenId, hero.params256[3]);\n  }\n\n  ///@notice level up hero and increment one stat\n  ///@param statToLvlUp id of stat you want increment\n  ///@param tokenId id of token you want level up\n  function levelUp(uint8 statToLvlUp, uint256 tokenId) external isYourToken(tokenId) {\n    Hero contrat = Hero(addressHero);\n    HeroLib.Token memory hero = contrat.getTokenDetails(tokenId);\n    if (\n      hero.params256[8] <= (100 + (paramsContract[\"expForLevelUp\"] ** hero.params256[9]))\n    )\n      revert NotEnoughExperience({\n        experienceHero: hero.params256[8],\n        experienceNeeded: (100 + (paramsContract[\"expForLevelUp\"] ** hero.params256[9])),\n        tokenId: tokenId\n      });\n    if (statToLvlUp < 0 || statToLvlUp > 5)\n      revert NotAStat({ statToLvlUp: statToLvlUp, tokenId: tokenId });\n    unchecked {\n      hero.params8[statToLvlUp]++;\n    }\n    hero.params256[8] = 0;\n    unchecked {\n      hero.params256[9]++;\n    }\n\n    contrat.updateToken(hero, tokenId, _msgSender());\n    emit levelupped(_msgSender(), tokenId, statToLvlUp);\n  }\n\n  /****************************************\n    UTILS\n     ****************************************/\n\n  ///@notice return random number\n  ///@param maxNumber max number random to return\n  ///@return randomNumber random uint256 returned\n  function random(uint8 maxNumber) internal returns (uint8) {\n    return uint8(random256(uint8(maxNumber)));\n  }\n\n  ///@notice return random number\n  ///@param maxNumber max number random to return\n  ///@return randomNumber random uint256 returned\n  function random256(uint256 maxNumber) internal returns (uint256) {\n    uint256 randomNumber = uint256(\n      keccak256(abi.encodePacked(block.timestamp, _msgSender(), paramsContract[\"nonce\"]))\n    ) % maxNumber;\n    unchecked {\n      paramsContract[\"nonce\"]++;\n    }\n    return randomNumber;\n  }\n\n  ///@notice put hero in sell market\n  ///@param tokenId id key of token you want to putt in sell\n  ///@param price price of token put in selled\n  function putHeroInSell(uint256 tokenId, uint256 price) external isYourToken(tokenId) {\n    Hero contrat = Hero(addressHero);\n    address owner = contrat.ownerOf(tokenId);\n    HeroLib.Token memory hero = contrat.getTokenDetails(tokenId);\n    hero.params256[11] = price;\n    contrat.updateToken(hero, tokenId, _msgSender());\n    contrat.transfer(owner, address(this), tokenId);\n    emit puttedHeroInSell(_msgSender(), tokenId, price);\n  }\n\n  ///@notice return all heroes in market sell\n  ///@return tokens return structure of heroes\n  function getHerosInSell() external view returns (HeroLib.Token[] memory) {\n    Hero contrat = Hero(addressHero);\n    HeroLib.Token[] memory result = new HeroLib.Token[](\n      paramsContract[\"nextTokenIdToMint\"]\n    );\n    uint256 resultIndex;\n\n    for (uint256 i = 0; i < paramsContract[\"nextTokenIdToMint\"]; i = unsafeInc(i)) {\n      HeroLib.Token memory hero = contrat.getTokenDetails(i);\n      if (hero.params256[11] > 0) {\n        result[resultIndex] = hero;\n        unchecked {\n          resultIndex++;\n        }\n      }\n    }\n    return result;\n  }\n\n  ///@notice purchase a token previously put in sell\n  ///@param tokenId id of token you want buy\n  function purchase(uint256 tokenId) external payable {\n    Hero contrat = Hero(addressHero);\n    HeroLib.Token memory hero = contrat.getTokenDetails(tokenId);\n    uint256 price = hero.params256[11];\n    address owner = hero.owner;\n    if (price <= 0) revert TokenNotInSales({ tokenId: tokenId, price: price });\n    if (msg.value < price)\n      revert NotEnoughEthPurchase({ tokenId: tokenId, price: price, value: msg.value });\n    if (owner == _msgSender())\n      revert AlreadyOwned({ tokenId: tokenId, sender: _msgSender(), owner: owner });\n\n    hero.params256[11] = 0;\n    contrat.updateToken(hero, tokenId, owner);\n\n    contrat.transfer(address(this), _msgSender(), tokenId);\n\n    (bool sent, ) = owner.call{ value: price }(\"\");\n    if (sent == false) revert SellMyosSendEth({ to: _msgSender(), value: price });\n    emit purchasedHeroInSell(_msgSender(), tokenId, price, owner);\n  }\n\n  /*FUNDS OF CONTRACT*/\n\n  function withdraw() external onlyOwner {\n    payable(_msgSender()).transfer(address(this).balance);\n  }\n\n  /**\n   * Always returns `IERC721Receiver.onERC721Received.selector`.\n   */\n  function onERC721Received(\n    address,\n    address,\n    uint256,\n    bytes memory\n  ) public virtual override returns (bytes4) {\n    return this.onERC721Received.selector;\n  }\n\n  function supportsInterface(bytes4 interfaceId)\n    public\n    view\n    virtual\n    override(AccessControlEnumerable)\n    returns (bool)\n  {\n    return\n      interfaceId == type(IERC721Receiver).interfaceId ||\n      super.supportsInterface(interfaceId);\n  }\n\n  /**\n    a finaliser\n     */\n  /*function calculPriceSupply() public{\n        Hero contrat = Hero(addressHero);\n        uint totalSupply = contrat.getParamsContract(\"totalSupply\");\n        //priceInUsd = (item.price/(10**18)) * (latestPrice/10**8)\n    }*/\n}\n",
  "sourcePath": "/home/solid-solution/Bureau/HOMEWORK/MYOS/contracts/proxy/ProxyHero.sol",
  "compiler": {
    "name": "solc",
    "version": "0.8.11+commit.d7f03943.Emscripten.clang"
  },
  "schemaVersion": "3.4.10",
  "updatedAt": "2022-11-22T20:53:26.374Z",
  "devdoc": {
    "kind": "dev",
    "methods": {
      "cancelQuest(uint256)": {
        "params": {
          "tokenId": "id of token you want to launch in quest"
        }
      },
      "completeQuest(uint256)": {
        "params": {
          "tokenId": "id of token you want to complete quest"
        }
      },
      "getHerosInSell()": {
        "returns": {
          "_0": "tokens return structure of heroes"
        }
      },
      "getParamsContract(string)": {
        "params": {
          "key": "key index of param your want to return"
        },
        "returns": {
          "_0": "param value of parameter contract"
        }
      },
      "getRoleAdmin(bytes32)": {
        "details": "Returns the admin role that controls `role`. See {grantRole} and {revokeRole}. To change a role's admin, use {_setRoleAdmin}."
      },
      "getRoleMember(bytes32,uint256)": {
        "details": "Returns one of the accounts that have `role`. `index` must be a value between 0 and {getRoleMemberCount}, non-inclusive. Role bearers are not sorted in any particular way, and their ordering may change at any point. WARNING: When using {getRoleMember} and {getRoleMemberCount}, make sure you perform all queries on the same block. See the following https://forum.openzeppelin.com/t/iterating-over-elements-on-enumerableset-in-openzeppelin-contracts/2296[forum post] for more information."
      },
      "getRoleMemberCount(bytes32)": {
        "details": "Returns the number of accounts that have `role`. Can be used together with {getRoleMember} to enumerate all bearers of a role."
      },
      "grantRole(bytes32,address)": {
        "details": "Grants `role` to `account`. If `account` had not been already granted `role`, emits a {RoleGranted} event. Requirements: - the caller must have ``role``'s admin role. May emit a {RoleGranted} event."
      },
      "hasRole(bytes32,address)": {
        "details": "Returns `true` if `account` has been granted `role`."
      },
      "levelUp(uint8,uint256)": {
        "params": {
          "statToLvlUp": "id of stat you want increment",
          "tokenId": "id of token you want level up"
        }
      },
      "mintHero(uint8,uint8,string)": {
        "params": {
          "_tokenUri": "uri of metadata token hero",
          "faction": "faction with class and stat linked",
          "generation": "generation of creation hero"
        }
      },
      "owner()": {
        "details": "Returns the address of the current owner."
      },
      "purchase(uint256)": {
        "params": {
          "tokenId": "id of token you want buy"
        }
      },
      "putHeroInSell(uint256,uint256)": {
        "params": {
          "price": "price of token put in selled",
          "tokenId": "id key of token you want to putt in sell"
        }
      },
      "renounceOwnership()": {
        "details": "Leaves the contract without owner. It will not be possible to call `onlyOwner` functions anymore. Can only be called by the current owner. NOTE: Renouncing ownership will leave the contract without an owner, thereby removing any functionality that is only available to the owner."
      },
      "renounceRole(bytes32,address)": {
        "details": "Revokes `role` from the calling account. Roles are often managed via {grantRole} and {revokeRole}: this function's purpose is to provide a mechanism for accounts to lose their privileges if they are compromised (such as when a trusted device is misplaced). If the calling account had been revoked `role`, emits a {RoleRevoked} event. Requirements: - the caller must be `account`. May emit a {RoleRevoked} event."
      },
      "revokeRole(bytes32,address)": {
        "details": "Revokes `role` from `account`. If `account` had been granted `role`, emits a {RoleRevoked} event. Requirements: - the caller must have ``role``'s admin role. May emit a {RoleRevoked} event."
      },
      "setParamsContract(string,uint256)": {
        "params": {
          "key": "key index of params contract you want set",
          "value": "value of params contract you want set"
        }
      },
      "startQuest(uint256,uint256)": {
        "params": {
          "questId": "id of quest you want to start",
          "tokenId": "id of token you want to launch in quest"
        }
      },
      "supportsInterface(bytes4)": {
        "details": "See {IERC165-supportsInterface}."
      },
      "transferOwnership(address)": {
        "details": "Transfers ownership of the contract to a new account (`newOwner`). Can only be called by the current owner."
      }
    },
    "version": 1
  },
  "userdoc": {
    "kind": "user",
    "methods": {
      "cancelQuest(uint256)": {
        "notice": "cancel a quest by id for one hero token"
      },
      "completeQuest(uint256)": {
        "notice": "Validation of the quest at the end of a quest"
      },
      "getHerosInSell()": {
        "notice": "return all heroes in market sell"
      },
      "getParamsContract(string)": {
        "notice": "Return a parameter of contract by key index"
      },
      "levelUp(uint8,uint256)": {
        "notice": "level up hero and increment one stat"
      },
      "mintHero(uint8,uint8,string)": {
        "notice": "mint a hero for a value price and generate stats and parameterr"
      },
      "onERC721Received(address,address,uint256,bytes)": {
        "notice": "Always returns `IERC721Receiver.onERC721Received.selector`."
      },
      "purchase(uint256)": {
        "notice": "purchase a token previously put in sell"
      },
      "putHeroInSell(uint256,uint256)": {
        "notice": "put hero in sell market"
      },
      "setParamsContract(string,uint256)": {
        "notice": "Update a parameter of contract"
      },
      "startQuest(uint256,uint256)": {
        "notice": "start a quest by id for one hero token"
      }
    },
    "version": 1
  }
}