{
  "contractName": "ProxyEquipments",
  "abi": [
    {
      "inputs": [
        {
          "internalType": "address",
          "name": "_addressEquipment",
          "type": "address"
        },
        {
          "internalType": "address",
          "name": "_addressItem",
          "type": "address"
        }
      ],
      "stateMutability": "nonpayable",
      "type": "constructor"
    },
    {
      "inputs": [
        {
          "internalType": "uint256",
          "name": "tokenId",
          "type": "uint256"
        },
        {
          "internalType": "address",
          "name": "sender",
          "type": "address"
        },
        {
          "internalType": "address",
          "name": "owner",
          "type": "address"
        }
      ],
      "name": "AlreadyOwned",
      "type": "error"
    },
    {
      "inputs": [
        {
          "internalType": "uint256",
          "name": "tokenId",
          "type": "uint256"
        },
        {
          "internalType": "uint256",
          "name": "price",
          "type": "uint256"
        }
      ],
      "name": "EquipmentNotInSales",
      "type": "error"
    },
    {
      "inputs": [
        {
          "internalType": "uint256",
          "name": "balance",
          "type": "uint256"
        },
        {
          "internalType": "address",
          "name": "sender",
          "type": "address"
        },
        {
          "internalType": "uint256",
          "name": "quantity",
          "type": "uint256"
        },
        {
          "internalType": "uint256",
          "name": "tokenId",
          "type": "uint256"
        }
      ],
      "name": "NoMoreBalanceToken",
      "type": "error"
    },
    {
      "inputs": [
        {
          "internalType": "uint256",
          "name": "supply",
          "type": "uint256"
        },
        {
          "internalType": "uint256",
          "name": "quantity",
          "type": "uint256"
        },
        {
          "internalType": "uint256",
          "name": "tokenId",
          "type": "uint256"
        }
      ],
      "name": "NoMoreSupplyToken",
      "type": "error"
    },
    {
      "inputs": [
        {
          "internalType": "uint256",
          "name": "balance",
          "type": "uint256"
        },
        {
          "internalType": "uint256",
          "name": "itemIdQuantity",
          "type": "uint256"
        },
        {
          "internalType": "uint256",
          "name": "itemIdCraft",
          "type": "uint256"
        }
      ],
      "name": "NotEnoughBalance",
      "type": "error"
    },
    {
      "inputs": [
        {
          "internalType": "uint256",
          "name": "price",
          "type": "uint256"
        },
        {
          "internalType": "uint256",
          "name": "weiSended",
          "type": "uint256"
        },
        {
          "internalType": "uint256",
          "name": "tokenId",
          "type": "uint256"
        },
        {
          "internalType": "uint256",
          "name": "quantity",
          "type": "uint256"
        }
      ],
      "name": "NotEnoughEth",
      "type": "error"
    },
    {
      "inputs": [
        {
          "internalType": "uint256",
          "name": "tokenId",
          "type": "uint256"
        },
        {
          "internalType": "uint256",
          "name": "price",
          "type": "uint256"
        },
        {
          "internalType": "uint256",
          "name": "value",
          "type": "uint256"
        }
      ],
      "name": "NotEnoughEthPurchase",
      "type": "error"
    },
    {
      "inputs": [
        {
          "internalType": "uint256",
          "name": "tokenId",
          "type": "uint256"
        },
        {
          "internalType": "address",
          "name": "sender",
          "type": "address"
        },
        {
          "internalType": "uint256",
          "name": "tokenIdInStructure",
          "type": "uint256"
        }
      ],
      "name": "NotGoodTokenId",
      "type": "error"
    },
    {
      "inputs": [
        {
          "internalType": "address",
          "name": "to",
          "type": "address"
        },
        {
          "internalType": "uint256",
          "name": "value",
          "type": "uint256"
        }
      ],
      "name": "SellEquipmentSendEth",
      "type": "error"
    },
    {
      "inputs": [
        {
          "internalType": "uint256",
          "name": "balance",
          "type": "uint256"
        },
        {
          "internalType": "address",
          "name": "sender",
          "type": "address"
        },
        {
          "internalType": "uint256",
          "name": "quantity",
          "type": "uint256"
        },
        {
          "internalType": "uint256",
          "name": "tokenId",
          "type": "uint256"
        }
      ],
      "name": "ZeroQuantityConvertAvailable",
      "type": "error"
    },
    {
      "anonymous": false,
      "inputs": [
        {
          "indexed": true,
          "internalType": "address",
          "name": "previousOwner",
          "type": "address"
        },
        {
          "indexed": true,
          "internalType": "address",
          "name": "newOwner",
          "type": "address"
        }
      ],
      "name": "OwnershipTransferred",
      "type": "event"
    },
    {
      "inputs": [
        {
          "internalType": "uint256",
          "name": "",
          "type": "uint256"
        }
      ],
      "name": "equipmentsInSell",
      "outputs": [
        {
          "internalType": "uint256",
          "name": "tokenId",
          "type": "uint256"
        },
        {
          "internalType": "uint256",
          "name": "price",
          "type": "uint256"
        },
        {
          "internalType": "address",
          "name": "owner",
          "type": "address"
        }
      ],
      "stateMutability": "view",
      "type": "function"
    },
    {
      "inputs": [],
      "name": "owner",
      "outputs": [
        {
          "internalType": "address",
          "name": "",
          "type": "address"
        }
      ],
      "stateMutability": "view",
      "type": "function"
    },
    {
      "inputs": [],
      "name": "renounceOwnership",
      "outputs": [],
      "stateMutability": "nonpayable",
      "type": "function"
    },
    {
      "inputs": [
        {
          "internalType": "address",
          "name": "newOwner",
          "type": "address"
        }
      ],
      "name": "transferOwnership",
      "outputs": [],
      "stateMutability": "nonpayable",
      "type": "function"
    },
    {
      "inputs": [
        {
          "internalType": "uint256",
          "name": "tokenId",
          "type": "uint256"
        },
        {
          "internalType": "address",
          "name": "receiver",
          "type": "address"
        }
      ],
      "name": "craft",
      "outputs": [],
      "stateMutability": "nonpayable",
      "type": "function"
    },
    {
      "inputs": [
        {
          "internalType": "uint256",
          "name": "tokenId",
          "type": "uint256"
        },
        {
          "internalType": "uint256",
          "name": "price",
          "type": "uint256"
        }
      ],
      "name": "putInSell",
      "outputs": [],
      "stateMutability": "nonpayable",
      "type": "function"
    },
    {
      "inputs": [],
      "name": "getInSell",
      "outputs": [
        {
          "components": [
            {
              "internalType": "uint256",
              "name": "tokenId",
              "type": "uint256"
            },
            {
              "internalType": "uint256",
              "name": "price",
              "type": "uint256"
            },
            {
              "internalType": "address",
              "name": "owner",
              "type": "address"
            }
          ],
          "internalType": "struct EquipmentsLib.EquipmentInSell[]",
          "name": "",
          "type": "tuple[]"
        }
      ],
      "stateMutability": "view",
      "type": "function"
    },
    {
      "inputs": [
        {
          "internalType": "uint256",
          "name": "id",
          "type": "uint256"
        },
        {
          "internalType": "uint256",
          "name": "tokenId",
          "type": "uint256"
        },
        {
          "internalType": "address",
          "name": "receiver",
          "type": "address"
        }
      ],
      "name": "purchase",
      "outputs": [],
      "stateMutability": "payable",
      "type": "function"
    },
    {
      "inputs": [
        {
          "internalType": "uint256",
          "name": "quantity",
          "type": "uint256"
        },
        {
          "internalType": "address",
          "name": "receiver",
          "type": "address"
        },
        {
          "internalType": "uint256",
          "name": "tokenId",
          "type": "uint256"
        }
      ],
      "name": "buyEquipment",
      "outputs": [],
      "stateMutability": "payable",
      "type": "function"
    },
    {
      "inputs": [
        {
          "internalType": "uint256",
          "name": "quantity",
          "type": "uint256"
        },
        {
          "internalType": "uint256",
          "name": "tokenId",
          "type": "uint256"
        }
      ],
      "name": "sellEquipment",
      "outputs": [],
      "stateMutability": "nonpayable",
      "type": "function"
    },
    {
      "inputs": [
        {
          "internalType": "address",
          "name": "receiver",
          "type": "address"
        },
        {
          "internalType": "uint256",
          "name": "quantity",
          "type": "uint256"
        },
        {
          "internalType": "uint256",
          "name": "fromTokenId",
          "type": "uint256"
        },
        {
          "internalType": "uint256",
          "name": "toTokenId",
          "type": "uint256"
        }
      ],
      "name": "convertToAnotherToken",
      "outputs": [],
      "stateMutability": "nonpayable",
      "type": "function"
    },
    {
      "inputs": [],
      "name": "withdraw",
      "outputs": [],
      "stateMutability": "nonpayable",
      "type": "function"
    },
    {
      "inputs": [
        {
          "internalType": "uint256",
          "name": "firstTokenPrice",
          "type": "uint256"
        },
        {
          "internalType": "uint256",
          "name": "twoTokenPrice",
          "type": "uint256"
        },
        {
          "internalType": "uint256",
          "name": "quantity",
          "type": "uint256"
        }
      ],
      "name": "calculConversionQuantity",
      "outputs": [
        {
          "internalType": "uint256",
          "name": "",
          "type": "uint256"
        }
      ],
      "stateMutability": "pure",
      "type": "function"
    }
  ],
  "bytecode": "0x60806040523480156200001157600080fd5b5060405162001c2438038062001c248339810160408190526200003491620000e2565b6200003f3362000075565b60018055600280546001600160a01b039384166001600160a01b031991821617909155600380549290931691161790556200011a565b600080546001600160a01b038381166001600160a01b0319831681178455604051919092169283917f8be0079c531659141344cd1fd0a4f28419497f9722a3daafe3b4186f6b6457e09190a35050565b80516001600160a01b0381168114620000dd57600080fd5b919050565b60008060408385031215620000f657600080fd5b6200010183620000c5565b91506200011160208401620000c5565b90509250929050565b611afa806200012a6000396000f3fe6080604052600436106100c25760003560e01c80638da5cb5b1161007f578063afff305f11610059578063afff305f146101e3578063bb5751311461024c578063ea3bd5df1461026c578063f2fde38b1461027f57600080fd5b80638da5cb5b1461016657806393ffff2214610193578063a7ca5d8a146101b557600080fd5b806308585fe4146100c757806319f51269146100e957806329a975fa1461010957806335d4cb55146101295780633ccfd60b1461013c578063715018a614610151575b600080fd5b3480156100d357600080fd5b506100e76100e23660046115ac565b61029f565b005b3480156100f557600080fd5b506100e76101043660046115e5565b610722565b34801561011557600080fd5b506100e76101243660046115e5565b6108ae565b6100e7610137366004611607565b610c30565b34801561014857600080fd5b506100e7610d69565b34801561015d57600080fd5b506100e7610da0565b34801561017257600080fd5b506000546040516001600160a01b0390911681526020015b60405180910390f35b34801561019f57600080fd5b506101a8610db4565b60405161018a919061163c565b3480156101c157600080fd5b506101d56101d036600461169e565b610eba565b60405190815260200161018a565b3480156101ef57600080fd5b506102286101fe3660046116ca565b6004602052600090815260409020805460018201546002909201549091906001600160a01b031683565b6040805193845260208401929092526001600160a01b03169082015260600161018a565b34801561025857600080fd5b506100e76102673660046116e3565b610ee7565b6100e761027a36600461170f565b611176565b34801561028b57600080fd5b506100e761029a366004611744565b6113f7565b6102a761146d565b600254604051634da3b9c760e01b8152600481018490526001600160a01b03909116906000908290634da3b9c790602401600060405180830381865afa1580156102f5573d6000803e3d6000fd5b505050506040513d6000823e601f3d908101601f1916820160405261031d91908101906118eb565b604051634da3b9c760e01b8152600481018590529091506000906001600160a01b03841690634da3b9c790602401600060405180830381865afa158015610368573d6000803e3d6000fd5b505050506040513d6000823e601f3d908101601f1916820160405261039091908101906118eb565b60405163f77ee79d60e01b81526004810187905290915086906001600160a01b0385169063f77ee79d90602401602060405180830381865afa1580156103da573d6000803e3d6000fd5b505050506040513d601f19601f820116820180604052508101906103fe91906119c5565b101561049d5760405163f77ee79d60e01b8152600481018690526001600160a01b0384169063f77ee79d90602401602060405180830381865afa158015610449573d6000803e3d6000fd5b505050506040513d601f19601f8201168201806040525081019061046d91906119c5565b604051633dd4346360e21b8152600481019190915260248101879052604481018690526064015b60405180910390fd5b604051627eeac760e11b815286906001600160a01b0385169062fdd58e906104cb9033908a906004016119de565b602060405180830381865afa1580156104e8573d6000803e3d6000fd5b505050506040513d601f19601f8201168201806040525081019061050c91906119c5565b101561059f57604051627eeac760e11b81526001600160a01b0384169062fdd58e9061053e90339089906004016119de565b602060405180830381865afa15801561055b573d6000803e3d6000fd5b505050506040513d601f19601f8201168201806040525081019061057f91906119c5565b33878760405163700acb1960e11b815260040161049494939291906119f7565b60006105b48360400151836040015189610eba565b90506000811161064b57604051627eeac760e11b81526001600160a01b0385169062fdd58e906105ea9033908a906004016119de565b602060405180830381865afa158015610607573d6000803e3d6000fd5b505050506040513d601f19601f8201168201806040525081019061062b91906119c5565b338887604051631eeefc3f60e11b815260040161049494939291906119f7565b604051637a94c56560e11b81526001600160a01b0385169063f5298aca9061067b9033908a908c90600401611a1b565b600060405180830381600087803b15801561069557600080fd5b505af11580156106a9573d6000803e3d6000fd5b5050604051630ab714fb60e11b81526001600160a01b038716925063156e29f691506106dd908b9089908690600401611a1b565b600060405180830381600087803b1580156106f757600080fd5b505af115801561070b573d6000803e3d6000fd5b505050505050505061071c60018055565b50505050565b6002546001600160a01b031660018162fdd58e33866040518363ffffffff1660e01b81526004016107549291906119de565b602060405180830381865afa158015610771573d6000803e3d6000fd5b505050506040513d601f19601f8201168201806040525081019061079591906119c5565b101561082957604051627eeac760e11b81526001600160a01b0382169062fdd58e906107c790339087906004016119de565b602060405180830381865afa1580156107e4573d6000803e3d6000fd5b505050506040513d601f19601f8201168201806040525081019061080891906119c5565b3360018560405163700acb1960e11b815260040161049494939291906119f7565b60405180606001604052808481526020018381526020016108473390565b6001600160a01b03908116909152600580546000908152600460209081526040808320865181559186015160018301559490940151600290940180546001600160a01b03191694909316939093179091558054916108a483611a52565b9190505550505050565b600254604051634da3b9c760e01b8152600481018390526001600160a01b03909116906000908290634da3b9c790602401600060405180830381865afa1580156108fc573d6000803e3d6000fd5b505050506040513d6000823e601f3d908101601f1916820160405261092491908101906118eb565b60405163f77ee79d60e01b81526004810185905290915084906001600160a01b0384169063f77ee79d90602401602060405180830381865afa15801561096e573d6000803e3d6000fd5b505050506040513d601f19601f8201168201806040525081019061099291906119c5565b1015610a2c5760405163f77ee79d60e01b8152600481018490526001600160a01b0383169063f77ee79d90602401602060405180830381865afa1580156109dd573d6000803e3d6000fd5b505050506040513d601f19601f82011682018060405250810190610a0191906119c5565b604051633dd4346360e21b815260048101919091526024810185905260448101849052606401610494565b604051627eeac760e11b815284906001600160a01b0384169062fdd58e90610a5a90339088906004016119de565b602060405180830381865afa158015610a77573d6000803e3d6000fd5b505050506040513d601f19601f82011682018060405250810190610a9b91906119c5565b1015610b2e57604051627eeac760e11b81526001600160a01b0383169062fdd58e90610acd90339087906004016119de565b602060405180830381865afa158015610aea573d6000803e3d6000fd5b505050506040513d601f19601f82011682018060405250810190610b0e91906119c5565b33858560405163700acb1960e11b815260040161049494939291906119f7565b604051637a94c56560e11b81526001600160a01b0383169063f5298aca90610b5e90339087908990600401611a1b565b600060405180830381600087803b158015610b7857600080fd5b505af1158015610b8c573d6000803e3d6000fd5b505050506000610b993390565b6001600160a01b0316858360400151610bb29190611a6d565b604051600081818185875af1925050503d8060008114610bee576040519150601f19603f3d011682016040523d82523d6000602084013e610bf3565b606091505b509091505080610c295733858360400151610c0e9190611a6d565b6040516387cebd4160e01b81526004016104949291906119de565b5050505050565b600254604051634da3b9c760e01b8152600481018390526001600160a01b03909116906000908290634da3b9c790602401600060405180830381865afa158015610c7e573d6000803e3d6000fd5b505050506040513d6000823e601f3d908101601f19168201604052610ca691908101906118eb565b9050848160400151610cb89190611a6d565b341015610d0057848160400151610ccf9190611a6d565b60405163c1a311cf60e01b815260048101919091523460248201526044810184905260648101869052608401610494565b604051630ab714fb60e11b81526001600160a01b0383169063156e29f690610d3090879087908a90600401611a1b565b600060405180830381600087803b158015610d4a57600080fd5b505af1158015610d5e573d6000803e3d6000fd5b505050505050505050565b610d716114c7565b60405133904780156108fc02916000818181858888f19350505050158015610d9d573d6000803e3d6000fd5b50565b610da86114c7565b610db26000611521565b565b6060600060055467ffffffffffffffff811115610dd357610dd361175f565b604051908082528060200260200182016040528015610e3157816020015b610e1e6040518060600160405280600081526020016000815260200160006001600160a01b031681525090565b815260200190600190039081610df15790505b50905060005b600554811015610eb457600081815260046020908152604091829020825160608101845281548152600182015492810192909252600201546001600160a01b03169181019190915282518190849084908110610e9557610e95611a8c565b6020026020010181905250508080610eac90611a52565b915050610e37565b50919050565b6000610edf62989680610ed384610ed987838a86611571565b90611584565b90611571565b949350505050565b600254600354604051634da3b9c760e01b8152600481018590526001600160a01b0392831692909116906000908390634da3b9c790602401600060405180830381865afa158015610f3c573d6000803e3d6000fd5b505050506040513d6000823e601f3d908101601f19168201604052610f6491908101906118eb565b905060005b81606001515181101561114457600082606001518281518110610f8e57610f8e611a8c565b60200260200101519050600083608001518381518110610fb057610fb0611a8c565b6020026020010151905080856001600160a01b031662fdd58e610fd03390565b856040518363ffffffff1660e01b8152600401610fee9291906119de565b602060405180830381865afa15801561100b573d6000803e3d6000fd5b505050506040513d601f19601f8201168201806040525081019061102f91906119c5565b10156110cd57604051627eeac760e11b81526001600160a01b0386169062fdd58e9061106190339086906004016119de565b602060405180830381865afa15801561107e573d6000803e3d6000fd5b505050506040513d601f19601f820116820180604052508101906110a291906119c5565b60405163a484ed0f60e01b815260048101919091526024810182905260448101839052606401610494565b604051637a94c56560e11b81526001600160a01b0386169063f5298aca906110fd90339086908690600401611a1b565b600060405180830381600087803b15801561111757600080fd5b505af115801561112b573d6000803e3d6000fd5b505050505050808061113c90611a52565b915050610f69565b50604051630ab714fb60e11b81526001600160a01b0384169063156e29f690610d309087908990600190600401611a1b565b60028054600085815260046020526040902060018101549201546001600160a01b03918216929116816111c657604051631d42150760e01b81526004810186905260248101839052604401610494565b813410156111f75760405163186691af60e31b81526004810186905260248101839052346044820152606401610494565b6001600160a01b0381163314156112395760405163a33405a560e01b8152600481018690523360248201526001600160a01b0382166044820152606401610494565b600086815260046020526040902054851461128957600086815260046020819052604091829020549151630ea9ab9360e41b81529081018790523360248201526044810191909152606401610494565b600086815260046020819052604080832060018082019490945560020180546001600160a01b031916905551637a94c56560e11b81526001600160a01b0386169263f5298aca926112e09286928b92909101611a1b565b600060405180830381600087803b1580156112fa57600080fd5b505af115801561130e573d6000803e3d6000fd5b5050604051630ab714fb60e11b81526001600160a01b038616925063156e29f691506113439087908990600190600401611a1b565b600060405180830381600087803b15801561135d57600080fd5b505af1158015611371573d6000803e3d6000fd5b505050506000816001600160a01b03168360405160006040518083038185875af1925050503d80600081146113c2576040519150601f19603f3d011682016040523d82523d6000602084013e6113c7565b606091505b5090915050806113ee5781836040516387cebd4160e01b81526004016104949291906119de565b50505050505050565b6113ff6114c7565b6001600160a01b0381166114645760405162461bcd60e51b815260206004820152602660248201527f4f776e61626c653a206e6577206f776e657220697320746865207a65726f206160448201526564647265737360d01b6064820152608401610494565b610d9d81611521565b600260015414156114c05760405162461bcd60e51b815260206004820152601f60248201527f5265656e7472616e637947756172643a207265656e7472616e742063616c6c006044820152606401610494565b6002600155565b6000546001600160a01b03163314610db25760405162461bcd60e51b815260206004820181905260248201527f4f776e61626c653a2063616c6c6572206973206e6f7420746865206f776e65726044820152606401610494565b600080546001600160a01b038381166001600160a01b0319831681178455604051919092169283917f8be0079c531659141344cd1fd0a4f28419497f9722a3daafe3b4186f6b6457e09190a35050565b600061157d8284611a6d565b9392505050565b600061157d8284611aa2565b80356001600160a01b03811681146115a757600080fd5b919050565b600080600080608085870312156115c257600080fd5b6115cb85611590565b966020860135965060408601359560600135945092505050565b600080604083850312156115f857600080fd5b50508035926020909101359150565b60008060006060848603121561161c57600080fd5b8335925061162c60208501611590565b9150604084013590509250925092565b602080825282518282018190526000919060409081850190868401855b828110156116915781518051855286810151878601528501516001600160a01b03168585015260609093019290850190600101611659565b5091979650505050505050565b6000806000606084860312156116b357600080fd5b505081359360208301359350604090920135919050565b6000602082840312156116dc57600080fd5b5035919050565b600080604083850312156116f657600080fd5b8235915061170660208401611590565b90509250929050565b60008060006060848603121561172457600080fd5b833592506020840135915061173b60408501611590565b90509250925092565b60006020828403121561175657600080fd5b61157d82611590565b634e487b7160e01b600052604160045260246000fd5b60405160c0810167ffffffffffffffff811182821017156117985761179861175f565b60405290565b604051601f8201601f1916810167ffffffffffffffff811182821017156117c7576117c761175f565b604052919050565b600082601f8301126117e057600080fd5b815167ffffffffffffffff8111156117fa576117fa61175f565b602061180e601f8301601f1916820161179e565b828152858284870101111561182257600080fd5b60005b83811015611840578581018301518282018401528201611825565b838111156118515760008385840101525b5095945050505050565b600082601f83011261186c57600080fd5b8151602067ffffffffffffffff8211156118885761188861175f565b8160051b61189782820161179e565b92835284810182019282810190878511156118b157600080fd5b83870192505b848310156118d0578251825291830191908301906118b7565b979650505050505050565b805180151581146115a757600080fd5b6000602082840312156118fd57600080fd5b815167ffffffffffffffff8082111561191557600080fd5b9083019060c0828603121561192957600080fd5b611931611775565b82518281111561194057600080fd5b61194c878286016117cf565b825250602083015160208201526040830151604082015260608301518281111561197557600080fd5b6119818782860161185b565b60608301525060808301518281111561199957600080fd5b6119a58782860161185b565b6080830152506119b760a084016118db565b60a082015295945050505050565b6000602082840312156119d757600080fd5b5051919050565b6001600160a01b03929092168252602082015260400190565b9384526001600160a01b039290921660208401526040830152606082015260800190565b6001600160a01b039390931683526020830191909152604082015260600190565b634e487b7160e01b600052601160045260246000fd5b6000600019821415611a6657611a66611a3c565b5060010190565b6000816000190483118215151615611a8757611a87611a3c565b500290565b634e487b7160e01b600052603260045260246000fd5b600082611abf57634e487b7160e01b600052601260045260246000fd5b50049056fea264697066735822122044255d3ac85a9f9e053611dcab9399f5a50d9f0f99e27d3846545098f06052ff64736f6c634300080b0033",
  "immutableReferences": {},
  "source": "// SPDX-License-Identifier: MIT\n// Delegation contract\npragma solidity ^0.8.0;\n\nimport \"@openzeppelin/contracts/access/Ownable.sol\";\nimport \"@openzeppelin/contracts/security/ReentrancyGuard.sol\";\nimport \"@openzeppelin/contracts/utils/math/SafeMath.sol\";\n\nimport \"../immutable/Equipments.sol\";\nimport \"../immutable/Items.sol\";\n\nimport \"../library/LItems.sol\";\nimport \"../library/LEquipments.sol\";\n\ncontract ProxyEquipments is Ownable, ReentrancyGuard {\n  using SafeMath for uint;\n  error NotEnoughEth(uint256 price, uint256 weiSended, uint256 tokenId, uint256 quantity);\n  error NoMoreSupplyToken(uint256 supply, uint256 quantity, uint256 tokenId);\n  error NoMoreBalanceToken(\n    uint256 balance,\n    address sender,\n    uint256 quantity,\n    uint256 tokenId\n  );\n  error ZeroQuantityConvertAvailable(\n    uint256 balance,\n    address sender,\n    uint256 quantity,\n    uint256 tokenId\n  );\n  error SellEquipmentSendEth(address to, uint value);\n  error NotEnoughBalance(uint256 balance, uint256 itemIdQuantity, uint256 itemIdCraft);\n  error AlreadyOwned(uint256 tokenId, address sender, address owner);\n  error NotEnoughEthPurchase(uint256 tokenId, uint256 price, uint256 value);\n  error NotGoodTokenId(uint256 tokenId, address sender, uint256 tokenIdInStructure);\n  error EquipmentNotInSales(uint256 tokenId, uint256 price);\n\n  address private addressEquipment;\n  address private addressItem;\n\n  uint256 private constant utilMathMultiply = 10000000;\n\n  mapping(uint256 => EquipmentsLib.EquipmentInSell) public equipmentsInSell;\n  uint256 countEquipmentsInSell;\n\n  constructor(address _addressEquipment, address _addressItem) {\n    addressEquipment = _addressEquipment;\n    addressItem = _addressItem;\n  }\n\n  function craft(uint256 tokenId, address receiver) external {\n    Equipments equipmentContrat = Equipments(addressEquipment);\n    Items itemContrat = Items(addressItem);\n\n    EquipmentsLib.Equipment memory equipment = equipmentContrat.getEquipmentDetails(\n      tokenId\n    );\n\n    for (uint256 index = 0; index < equipment.itemsIdsCraft.length; index++) {\n      uint256 itemIdCraft = equipment.itemsIdsCraft[index];\n      uint256 itemIdQuantity = equipment.itemsQuantitiesCraft[index];\n\n      if (itemContrat.balanceOf(_msgSender(), itemIdCraft) < itemIdQuantity)\n        revert NotEnoughBalance({\n          balance: itemContrat.balanceOf(_msgSender(), itemIdCraft),\n          itemIdQuantity: itemIdQuantity,\n          itemIdCraft: itemIdCraft\n        });\n      itemContrat.burn(_msgSender(), itemIdCraft, itemIdQuantity);\n    }\n\n    equipmentContrat.mint(receiver, tokenId, 1);\n  }\n\n  ///@notice put equipment in sell market\n  ///@param tokenId id key of token you want to putt in sell\n  ///@param price price of token put in selled\n  function putInSell(uint256 tokenId, uint256 price) external {\n    Equipments equipmentContrat = Equipments(addressEquipment);\n    if (equipmentContrat.balanceOf(_msgSender(), tokenId) < 1)\n      revert NoMoreBalanceToken({\n        balance: equipmentContrat.balanceOf(_msgSender(), tokenId),\n        sender: _msgSender(),\n        quantity: 1,\n        tokenId: tokenId\n      });\n    equipmentsInSell[countEquipmentsInSell] = EquipmentsLib.EquipmentInSell(\n      tokenId,\n      price,\n      _msgSender()\n    );\n    countEquipmentsInSell++;\n  }\n\n  //function stopSell()\n\n  ///@notice return all equipment in sell in market sell\n  ///@return tokens return array structure of equipment\n  function getInSell() external view returns (EquipmentsLib.EquipmentInSell[] memory) {\n    EquipmentsLib.EquipmentInSell[] memory result = new EquipmentsLib.EquipmentInSell[](\n      countEquipmentsInSell\n    );\n    for (uint256 i = 0; i < countEquipmentsInSell; i++) {\n      EquipmentsLib.EquipmentInSell memory equipment = equipmentsInSell[i];\n      result[i] = equipment;\n    }\n    return result;\n  }\n\n  ///@notice purchase a token previously put in sell\n  ///@param id id of key array of equipmentsInSell mapping you want buy\n  ///@param tokenId id key of token you want to buy\n  function purchase(uint256 id, uint256 tokenId, address receiver) external payable {\n    Equipments equipmentContrat = Equipments(addressEquipment);\n\n    uint256 price = equipmentsInSell[id].price;\n    address owner = equipmentsInSell[id].owner;\n\n    if (price <= 0) revert EquipmentNotInSales({ tokenId: tokenId, price: price });\n    if (msg.value < price)\n      revert NotEnoughEthPurchase({ tokenId: tokenId, price: price, value: msg.value });\n    if (owner == _msgSender())\n      revert AlreadyOwned({ tokenId: tokenId, sender: _msgSender(), owner: owner });\n    if (equipmentsInSell[id].tokenId != tokenId)\n      revert NotGoodTokenId({\n        tokenId: tokenId,\n        sender: _msgSender(),\n        tokenIdInStructure: equipmentsInSell[id].tokenId\n      });\n\n    equipmentsInSell[id].price = 0;\n    equipmentsInSell[id].owner = address(0);\n\n    equipmentContrat.burn(owner, tokenId, 1);\n    equipmentContrat.mint(receiver, tokenId, 1);\n\n    (bool sent, ) = owner.call{ value: price }(\"\");\n    if (sent == false) revert SellEquipmentSendEth({ to: owner, value: price });\n  }\n\n  ///@notice purchase of a resource for eth/MATIC\n  ///@param quantity count of equipment you want purchase\n  ///@param receiver receiver address of token\n  ///@param tokenId id of equipment\n  function buyEquipment(\n    uint256 quantity,\n    address receiver,\n    uint256 tokenId\n  ) external payable {\n    Equipments equipmentContrat = Equipments(addressEquipment);\n    EquipmentsLib.Equipment memory equipment = equipmentContrat.getEquipmentDetails(\n      tokenId\n    );\n    if (msg.value < equipment.price * quantity)\n      revert NotEnoughEth({\n        price: equipment.price * quantity,\n        weiSended: msg.value,\n        tokenId: tokenId,\n        quantity: quantity\n      });\n    equipmentContrat.mint(receiver, tokenId, quantity);\n    //setCurrentPrice();\n  }\n\n  ///@notice sell of a resource for eth/MATIC\n  ///@param quantity count of equipment you want purchase\n  ///@param tokenId id of equipment\n  function sellEquipment(uint256 quantity, uint256 tokenId) external {\n    Equipments equipmentContrat = Equipments(addressEquipment);\n    EquipmentsLib.Equipment memory equipment = equipmentContrat.getEquipmentDetails(\n      tokenId\n    );\n    if (equipmentContrat.getSupply(tokenId) < quantity)\n      revert NoMoreSupplyToken({\n        supply: equipmentContrat.getSupply(tokenId),\n        quantity: quantity,\n        tokenId: tokenId\n      });\n    if (equipmentContrat.balanceOf(_msgSender(), tokenId) < quantity)\n      revert NoMoreBalanceToken({\n        balance: equipmentContrat.balanceOf(_msgSender(), tokenId),\n        sender: _msgSender(),\n        quantity: quantity,\n        tokenId: tokenId\n      });\n\n    equipmentContrat.burn(_msgSender(), tokenId, quantity);\n    (bool sent, ) = _msgSender().call{ value: equipment.price * quantity }(\"\");\n    if (sent == false)\n      revert SellEquipmentSendEth({\n        to: _msgSender(),\n        value: equipment.price * quantity\n      });\n    //payable(_msgSender()).transfer(equipment.price * quantity);\n    //setCurrentPrice();\n  }\n\n  ///@notice convert of a resource for another token\n  ///@param receiver address of receiver toToken minted\n  ///@param quantity quantity of fromToken burned for same quantity burned\n  ///@param fromTokenId id of token burned\n  ///@param toTokenId if of token minted\n  function convertToAnotherToken(\n    address receiver,\n    uint256 quantity,\n    uint256 fromTokenId,\n    uint256 toTokenId\n  ) external nonReentrant {\n    Equipments equipmentContrat = Equipments(addressEquipment);\n    EquipmentsLib.Equipment memory fromEquipment = equipmentContrat.getEquipmentDetails(\n      fromTokenId\n    );\n    EquipmentsLib.Equipment memory toEquipment = equipmentContrat.getEquipmentDetails(\n      toTokenId\n    );\n\n    if (equipmentContrat.getSupply(fromTokenId) < quantity)\n      revert NoMoreSupplyToken({\n        supply: equipmentContrat.getSupply(fromTokenId),\n        quantity: quantity,\n        tokenId: fromTokenId\n      });\n\n    if (equipmentContrat.balanceOf(_msgSender(), fromTokenId) < quantity)\n      revert NoMoreBalanceToken({\n        balance: equipmentContrat.balanceOf(_msgSender(), fromTokenId),\n        sender: _msgSender(),\n        quantity: quantity,\n        tokenId: fromTokenId\n      });\n\n    uint256 toQuantityAvailable = calculConversionQuantity(\n      fromEquipment.price,\n      toEquipment.price,\n      quantity\n    );\n\n    if (toQuantityAvailable <= 0)\n      revert ZeroQuantityConvertAvailable({\n        balance: equipmentContrat.balanceOf(_msgSender(), fromTokenId),\n        sender: _msgSender(),\n        quantity: quantity,\n        tokenId: toTokenId\n      });\n\n    equipmentContrat.burn(_msgSender(), fromTokenId, quantity);\n    equipmentContrat.mint(receiver, toTokenId, toQuantityAvailable);\n    //currentprice = setCurrentPrice();\n  }\n\n  /*\n  ///@notice convert of a resource to item\n  ///@param receiver address of receiver toToken minted\n  ///@param quantity quantity of fromToken burned for same quantity burned\n  ///@param fromTokenId id of token burned\n  ///@param toTokenId if of token minted\n  function convertToItem(\n    address receiver,\n    uint256 quantity,\n    uint256 fromTokenId,\n    uint256 toTokenId\n  ) external nonReentrant {}*/\n\n  /*FUNDS OF CONTRACT*/\n\n  function withdraw() external onlyOwner {\n    payable(_msgSender()).transfer(address(this).balance);\n  }\n\n  function calculConversionQuantity(\n    uint firstTokenPrice,\n    uint twoTokenPrice,\n    uint quantity\n  ) public pure returns (uint256) {\n    return\n      firstTokenPrice.mul(utilMathMultiply).div(twoTokenPrice).mul(quantity).div(\n        utilMathMultiply\n      );\n  }\n}\n",
  "sourcePath": "/home/solid-solution/Bureau/HOMEWORK/MYOS/contracts/proxy/ProxyEquipments.sol",
  "compiler": {
    "name": "solc",
    "version": "0.8.11+commit.d7f03943.Emscripten.clang"
  },
  "schemaVersion": "3.4.10",
  "updatedAt": "2022-11-22T18:42:58.725Z",
  "devdoc": {
    "kind": "dev",
    "methods": {
      "buyEquipment(uint256,address,uint256)": {
        "params": {
          "quantity": "count of equipment you want purchase",
          "receiver": "receiver address of token",
          "tokenId": "id of equipment"
        }
      },
      "convertToAnotherToken(address,uint256,uint256,uint256)": {
        "params": {
          "fromTokenId": "id of token burned",
          "quantity": "quantity of fromToken burned for same quantity burned",
          "receiver": "address of receiver toToken minted",
          "toTokenId": "if of token minted"
        }
      },
      "getInSell()": {
        "returns": {
          "_0": "tokens return array structure of equipment"
        }
      },
      "owner()": {
        "details": "Returns the address of the current owner."
      },
      "purchase(uint256,uint256,address)": {
        "params": {
          "id": "id of key array of equipmentsInSell mapping you want buy",
          "tokenId": "id key of token you want to buy"
        }
      },
      "putInSell(uint256,uint256)": {
        "params": {
          "price": "price of token put in selled",
          "tokenId": "id key of token you want to putt in sell"
        }
      },
      "renounceOwnership()": {
        "details": "Leaves the contract without owner. It will not be possible to call `onlyOwner` functions anymore. Can only be called by the current owner. NOTE: Renouncing ownership will leave the contract without an owner, thereby removing any functionality that is only available to the owner."
      },
      "sellEquipment(uint256,uint256)": {
        "params": {
          "quantity": "count of equipment you want purchase",
          "tokenId": "id of equipment"
        }
      },
      "transferOwnership(address)": {
        "details": "Transfers ownership of the contract to a new account (`newOwner`). Can only be called by the current owner."
      }
    },
    "version": 1
  },
  "userdoc": {
    "kind": "user",
    "methods": {
      "buyEquipment(uint256,address,uint256)": {
        "notice": "purchase of a resource for eth/MATIC"
      },
      "convertToAnotherToken(address,uint256,uint256,uint256)": {
        "notice": "convert of a resource for another token"
      },
      "getInSell()": {
        "notice": "return all equipment in sell in market sell"
      },
      "purchase(uint256,uint256,address)": {
        "notice": "purchase a token previously put in sell"
      },
      "putInSell(uint256,uint256)": {
        "notice": "put equipment in sell market"
      },
      "sellEquipment(uint256,uint256)": {
        "notice": "sell of a resource for eth/MATIC"
      }
    },
    "version": 1
  }
}