{
  "contractName": "ProxyGuild",
  "abi": [
    {
      "inputs": [
        {
          "internalType": "address",
          "name": "from",
          "type": "address"
        },
        {
          "internalType": "address",
          "name": "addressGuild",
          "type": "address"
        }
      ],
      "name": "AlreadyHaveGuild",
      "type": "error"
    },
    {
      "inputs": [
        {
          "internalType": "address",
          "name": "from",
          "type": "address"
        },
        {
          "internalType": "address",
          "name": "addressGuild",
          "type": "address"
        }
      ],
      "name": "GuildNotExist",
      "type": "error"
    },
    {
      "anonymous": false,
      "inputs": [
        {
          "indexed": true,
          "internalType": "address",
          "name": "previousOwner",
          "type": "address"
        },
        {
          "indexed": true,
          "internalType": "address",
          "name": "newOwner",
          "type": "address"
        }
      ],
      "name": "OwnershipTransferred",
      "type": "event"
    },
    {
      "inputs": [],
      "name": "owner",
      "outputs": [
        {
          "internalType": "address",
          "name": "",
          "type": "address"
        }
      ],
      "stateMutability": "view",
      "type": "function"
    },
    {
      "inputs": [],
      "name": "renounceOwnership",
      "outputs": [],
      "stateMutability": "nonpayable",
      "type": "function"
    },
    {
      "inputs": [
        {
          "internalType": "address",
          "name": "newOwner",
          "type": "address"
        }
      ],
      "name": "transferOwnership",
      "outputs": [],
      "stateMutability": "nonpayable",
      "type": "function"
    },
    {
      "inputs": [
        {
          "internalType": "address",
          "name": "from",
          "type": "address"
        },
        {
          "internalType": "string",
          "name": "name",
          "type": "string"
        },
        {
          "internalType": "string",
          "name": "symbol",
          "type": "string"
        }
      ],
      "name": "createGuild",
      "outputs": [],
      "stateMutability": "nonpayable",
      "type": "function"
    },
    {
      "inputs": [
        {
          "internalType": "address",
          "name": "from",
          "type": "address"
        }
      ],
      "name": "getOneGuildAddress",
      "outputs": [
        {
          "internalType": "address",
          "name": "",
          "type": "address"
        }
      ],
      "stateMutability": "view",
      "type": "function"
    },
    {
      "inputs": [],
      "name": "getAddressesGuilds",
      "outputs": [
        {
          "internalType": "address[]",
          "name": "",
          "type": "address[]"
        }
      ],
      "stateMutability": "view",
      "type": "function"
    }
  ],
  "bytecode": "0x608060405234801561001057600080fd5b5061001a33610023565b60018055610073565b600080546001600160a01b038381166001600160a01b0319831681178455604051919092169283917f8be0079c531659141344cd1fd0a4f28419497f9722a3daafe3b4186f6b6457e09190a35050565b612e69806100826000396000f3fe60806040523480156200001157600080fd5b50600436106200006a5760003560e01c806348c6309d146200006f578063586e2ee41462000091578063715018a614620000aa5780638da5cb5b14620000b4578063b77f02e814620000da578063f2fde38b14620000f1575b600080fd5b6200007962000108565b604051620000889190620004f7565b60405180910390f35b620000a8620000a2366004620005af565b620001fa565b005b620000a862000324565b6000546001600160a01b03165b6040516001600160a01b03909116815260200162000088565b620000c1620000eb36600462000639565b6200033c565b620000a86200010236600462000639565b620003be565b60045460609060009060ff1667ffffffffffffffff8111156200012f576200012f6200065e565b60405190808252806020026020018201604052801562000159578160200160208202803683370190505b5090506000805b60045460ff16811015620001f2576000818152600360205260409020546001600160a01b031615620001dd5760008181526003602052604090205483516001600160a01b0390911690849084908110620001be57620001be62000674565b6001600160a01b03909216602092830291909101909101526001909101905b80620001e9816200068a565b91505062000160565b509092915050565b6001600160a01b03858116600090815260026020526040902054161562000260576001600160a01b038581166000818152600260205260409081902054905163ce4571ef60e01b8152600481019290925290911660248201526044015b60405180910390fd5b83838383336000546001600160a01b031660045460405160ff909116906200028890620004e9565b6200029a9796959493929190620006dd565b604051809103906000f080158015620002b7573d6000803e3d6000fd5b506001600160a01b039586166000818152600260209081526040808320805495909a166001600160a01b0319958616179099556004805460ff90811684526003909252989091208054909316909117909155855480821660010190911660ff199091161790945550505050565b6200032e6200043d565b6200033a600062000499565b565b6001600160a01b038181166000908152600260205260408120549091166200039f576001600160a01b038281166000818152600260205260409081902054905163629818cb60e01b81526004810192909252909116602482015260440162000257565b506001600160a01b039081166000908152600260205260409020541690565b620003c86200043d565b6001600160a01b0381166200042f5760405162461bcd60e51b815260206004820152602660248201527f4f776e61626c653a206e6577206f776e657220697320746865207a65726f206160448201526564647265737360d01b606482015260840162000257565b6200043a8162000499565b50565b6000546001600160a01b031633146200033a5760405162461bcd60e51b815260206004820181905260248201527f4f776e61626c653a2063616c6c6572206973206e6f7420746865206f776e6572604482015260640162000257565b600080546001600160a01b038381166001600160a01b0319831681178455604051919092169283917f8be0079c531659141344cd1fd0a4f28419497f9722a3daafe3b4186f6b6457e09190a35050565b6126fc806200073883390190565b6020808252825182820181905260009190848201906040850190845b818110156200053a5783516001600160a01b03168352928401929184019160010162000513565b50909695505050505050565b80356001600160a01b03811681146200055e57600080fd5b919050565b60008083601f8401126200057657600080fd5b50813567ffffffffffffffff8111156200058f57600080fd5b602083019150836020828501011115620005a857600080fd5b9250929050565b600080600080600060608688031215620005c857600080fd5b620005d38662000546565b9450602086013567ffffffffffffffff80821115620005f157600080fd5b620005ff89838a0162000563565b909650945060408801359150808211156200061957600080fd5b50620006288882890162000563565b969995985093965092949392505050565b6000602082840312156200064c57600080fd5b620006578262000546565b9392505050565b634e487b7160e01b600052604160045260246000fd5b634e487b7160e01b600052603260045260246000fd5b6000600019821415620006ad57634e487b7160e01b600052601160045260246000fd5b5060010190565b81835281816020850137506000828201602090810191909152601f909101601f19169091010190565b60a081526000620006f360a08301898b620006b4565b82810360208401526200070881888a620006b4565b6001600160a01b0396871660408501529490951660608301525060ff919091166080909101529594505050505056fe60806040523480156200001157600080fd5b50604051620026fc380380620026fc83398101604081905262000034916200022e565b8451859085906200004d906003906020850190620000a2565b50805162000063906004906020840190620000a2565b5050600c80546001600160a01b039586166001600160a01b031991821617909155600d80549490951693169290921790925550600855506200030b9050565b828054620000b090620002ce565b90600052602060002090601f016020900481019282620000d457600085556200011f565b82601f10620000ef57805160ff19168380011785556200011f565b828001600101855582156200011f579182015b828111156200011f57825182559160200191906001019062000102565b506200012d92915062000131565b5090565b5b808211156200012d576000815560010162000132565b634e487b7160e01b600052604160045260246000fd5b600082601f8301126200017057600080fd5b81516001600160401b03808211156200018d576200018d62000148565b604051601f8301601f19908116603f01168101908282118183101715620001b857620001b862000148565b81604052838152602092508683858801011115620001d557600080fd5b600091505b83821015620001f95785820183015181830184015290820190620001da565b838211156200020b5760008385830101525b9695505050505050565b6001600160a01b03811681146200022b57600080fd5b50565b600080600080600060a086880312156200024757600080fd5b85516001600160401b03808211156200025f57600080fd5b6200026d89838a016200015e565b965060208801519150808211156200028457600080fd5b5062000293888289016200015e565b9450506040860151620002a68162000215565b6060870151909350620002b98162000215565b80925050608086015190509295509295909350565b600181811c90821680620002e357607f821691505b602082108114156200030557634e487b7160e01b600052602260045260246000fd5b50919050565b6123e1806200031b6000396000f3fe6080604052600436106101b75760003560e01c806372a2377f116100ec578063ca6d56dc1161008a578063dd62ed3e11610064578063dd62ed3e146104e9578063e0f9895514610509578063f798e52514610529578063fd0232b21461054957600080fd5b8063ca6d56dc14610494578063ccf25b4d146104b4578063cd9f0921146104e157600080fd5b8063a457c2d7116100c6578063a457c2d714610414578063a9059cbb14610434578063aa887bb614610454578063c7f067441461047457600080fd5b806372a2377f146103bd5780637c0f6b35146103dd57806395d89b41146103ff57600080fd5b8063395093511161015957806355f6e5071161013357806355f6e507146103255780635d1ca631146103525780636586737a1461036757806370a082311461038757600080fd5b806339509351146102c357806340566488146102e357806344a96ce01461030557600080fd5b806323b872dd1161019557806323b872dd146102365780632f54bf6e14610256578063313ce567146102855780633597f252146102a157600080fd5b806306fdde03146101bc578063095ea7b3146101e757806318160ddd14610217575b600080fd5b3480156101c857600080fd5b506101d1610576565b6040516101de9190611e45565b60405180910390f35b3480156101f357600080fd5b50610207610202366004611e74565b610608565b60405190151581526020016101de565b34801561022357600080fd5b506002545b6040519081526020016101de565b34801561024257600080fd5b50610207610251366004611e9e565b610622565b34801561026257600080fd5b50610207610271366004611eda565b600c546001600160a01b0391821691161490565b34801561029157600080fd5b50604051601281526020016101de565b3480156102ad57600080fd5b506102c16102bc366004611f4f565b610648565b005b3480156102cf57600080fd5b506102076102de366004611e74565b610792565b3480156102ef57600080fd5b506102f86107b4565b6040516101de9190611fdc565b34801561031157600080fd5b506102c161032036600461204e565b6109ac565b34801561033157600080fd5b50610345610340366004611eda565b610a3d565b6040516101de91906120b5565b34801561035e57600080fd5b50600854610228565b34801561037357600080fd5b506102c16103823660046120c3565b610b07565b34801561039357600080fd5b506102286103a2366004611eda565b6001600160a01b031660009081526020819052604090205490565b3480156103c957600080fd5b506102c16103d8366004612105565b610bd5565b3480156103e957600080fd5b506103f2610d2d565b6040516101de919061211e565b34801561040b57600080fd5b506101d1610e8e565b34801561042057600080fd5b5061020761042f366004611e74565b610e9d565b34801561044057600080fd5b5061020761044f366004611e74565b610f23565b34801561046057600080fd5b506102c161046f366004611eda565b610f31565b34801561048057600080fd5b506102c161048f366004612105565b611199565b3480156104a057600080fd5b506102c16104af366004611eda565b6112a6565b3480156104c057600080fd5b506104d46104cf36600461216c565b6114eb565b6040516101de9190612187565b6102c16115bf565b3480156104f557600080fd5b506102286105043660046121ac565b611662565b34801561051557600080fd5b506102286105243660046121df565b61168d565b34801561053557600080fd5b506102c1610544366004612214565b6116b0565b34801561055557600080fd5b50610569610564366004612105565b6118fe565b6040516101de919061223e565b60606003805461058590612251565b80601f01602080910402602001604051908101604052809291908181526020018280546105b190612251565b80156105fe5780601f106105d3576101008083540402835291602001916105fe565b820191906000526020600020905b8154815290600101906020018083116105e157829003601f168201915b5050505050905090565b6000336106168185856119cd565b60019150505b92915050565b600033610630858285611af1565b61063b858585611b6b565b60019150505b9392505050565b600c546001600160a01b0316336001600160a01b0316148061067d5750600d546001600160a01b0316336001600160a01b0316145b6106bf5760405162461bcd60e51b815260206004820152600e60248201526d139bdd081e5bdd5c8819dd5a5b1960921b60448201526064015b60405180910390fd5b60008360ff161180156106d55750600a8360ff16105b6107105760405162461bcd60e51b815260206004820152600c60248201526b06260408ee4c2c8ca409ac2f60a31b60448201526064016106b6565b604051806040016040528085815260200183838080601f016020809104026020016040519081016040528093929190818152602001838380828437600092018290525093909452505060ff8616815260056020908152604090912083518155838201518051919350610789926001850192910190611d2a565b50505050505050565b6000336106168185856107a58383611662565b6107af919061229c565b6119cd565b6060600b546000141561080c576040805160008082526020820190925290610806565b604080516060808201835260008083526020830152918101919091528152602001906001900390816107d75790505b50905090565b6000600b5467ffffffffffffffff811115610829576108296122b4565b60405190808252806020026020018201604052801561087657816020015b604080516060808201835260008083526020830152918101919091528152602001906001900390816108475790505b50905060005b600b548110156109a65760008181526007602052604090205460ff16151560011415610994576000818152600760209081526040918290208251606081018452815460ff81161515825261010090046001600160a01b0316928101929092526001810180549193849290840191906108f390612251565b80601f016020809104026020016040519081016040528092919081815260200182805461091f90612251565b801561096c5780601f106109415761010080835404028352916020019161096c565b820191906000526020600020905b81548152906001019060200180831161094f57829003601f168201915b505050505081525050838381518110610987576109876122ca565b6020026020010181905250505b8061099e816122e0565b91505061087c565b50919050565b600c546001600160a01b0316336001600160a01b031614806109e15750600d546001600160a01b0316336001600160a01b0316145b610a1e5760405162461bcd60e51b815260206004820152600e60248201526d139bdd081e5bdd5c8819dd5a5b1960921b60448201526064016106b6565b6000908152600660205260409020805460ff1916911515919091179055565b610a45611dae565b610a4d611dae565b60005b600a54811015610b00576000818152600660205260409020600401546001600160a01b0385811691161415610aee57600081815260066020908152604091829020825160c081018452815460ff8082161515835261010090910416928101929092526001810154928201929092526002820154606082015260038201546001600160a01b03908116608083015260049092015490911660a082015291505b80610af8816122e0565b915050610a50565b5092915050565b60408051606081019091526001815260208101336001600160a01b0316815260200183838080601f0160208091040260200160405190810160405280939291908181526020018383808284376000920182905250939094525050600b5481526007602090815260409182902084518154868401516001600160a01b031661010002610100600160a81b0319921515929092166001600160a81b031990911617178155918401518051929350610bc59260018501929190910190611d2a565b5050600b80546001019055505050565b60008181526007602052604090205460ff161515600114610c385760405162461bcd60e51b815260206004820181905260248201527f5468697320696e7669746174696f6e206973206e6f206d6f72652076616c696460448201526064016106b6565b6000805b600a54811015610c7e576000818152600660205260409020600401546001600160a01b0316331415610c6c578091505b80610c76816122e0565b915050610c3c565b506000828152600760205260409020546001600160a01b0361010090910416331480610cf8575060008181526006602052604090205460ff1615156001148015610cf85750600081815260066020908152604080832054610100900460ff1683526005909152902054610cf2906004611d0f565b15156001145b610d145760405162461bcd60e51b81526004016106b6906122fb565b506000908152600760205260409020805460ff19169055565b6060600a5460001415610d70576040805160008082526020820190925290610806565b610d58611dae565b815260200190600190039081610d5057905050905090565b6000600a5467ffffffffffffffff811115610d8d57610d8d6122b4565b604051908082528060200260200182016040528015610dc657816020015b610db3611dae565b815260200190600190039081610dab5790505b50905060005b600a548110156109a65760008181526006602052604090205460ff16151560011415610e7c57600081815260066020908152604091829020825160c081018452815460ff8082161515835261010090910416928101929092526001810154928201929092526002820154606082015260038201546001600160a01b03908116608083015260048301541660a08201528351849084908110610e6f57610e6f6122ca565b6020026020010181905250505b80610e86816122e0565b915050610dcc565b60606004805461058590612251565b60003381610eab8286611662565b905083811015610f0b5760405162461bcd60e51b815260206004820152602560248201527f45524332303a2064656372656173656420616c6c6f77616e63652062656c6f77604482015264207a65726f60d81b60648201526084016106b6565b610f1882868684036119cd565b506001949350505050565b600033610616818585611b6b565b60008060005b600a54811015610fa2576000818152600660205260409020600401546001600160a01b0316331415610f67578092505b6000818152600660205260409020600401546001600160a01b0385811691161415610f90578091505b80610f9a816122e0565b915050610f37565b50600082815260066020908152604080832054610100900460ff1683526005909152902054610fd2906004611d0f565b151560011480610ff55750600c546001600160a01b0316336001600160a01b0316145b806110135750600d546001600160a01b0316336001600160a01b0316145b61102f5760405162461bcd60e51b81526004016106b69061233d565b6000818152600660205260408082205484835291205460ff610100928390048116929091041611806110745750600c546001600160a01b0316336001600160a01b0316145b806110925750600d546001600160a01b0316336001600160a01b0316145b6110de5760405162461bcd60e51b815260206004820152601c60248201527f596f75722072616e6b206973206e6f74206869676820656e6f7567680000000060448201526064016106b6565b60008181526006602052604090205460ff1615156001148015611114575060008281526006602052604090205460ff1615156001145b6111305760405162461bcd60e51b81526004016106b690612383565b600081815260066020526040808220600481015460029091015491516001600160a01b039091169282156108fc02929190818181858888f1935050505015801561117e573d6000803e3d6000fd5b506000908152600660205260409020805460ff191690555050565b6000805b600a548110156111df576000818152600660205260409020600401546001600160a01b03163314156111cd578091505b806111d7816122e0565b91505061119d565b5060008181526006602052604090205460ff1615156001146112135760405162461bcd60e51b81526004016106b690612383565b6000818152600660205260409020600201548211156112745760405162461bcd60e51b815260206004820152601a60248201527f4e6f7420656e6f7567746820657468657220696e20636865737400000000000060448201526064016106b6565b604051339083156108fc029084906000818181858888f193505050501580156112a1573d6000803e3d6000fd5b505050565b60008060005b600a548110156112ee576000818152600660205260409020600401546001600160a01b03163314156112dc578092505b806112e6816122e0565b9150506112ac565b5060005b600b54811015611339576000818152600760205260409020546001600160a01b03858116610100909204161415611327578091505b80611331816122e0565b9150506112f2565b5060008181526006602052604090205460ff16151560011461138e5760405162461bcd60e51b815260206004820152600e60248201526d155cd95c881b9bdd081d985b1a5960921b60448201526064016106b6565b60008281526006602052604090205460ff16151560011480156113e15750600082815260066020908152604080832054610100900460ff16835260059091529020546113db906003611d0f565b15156001145b6113fd5760405162461bcd60e51b81526004016106b6906122fb565b6040518060c00160405280600015158152602001600060ff1681526020014281526020016000815260200161142f3390565b6001600160a01b039081168252948516602091820152600980546000908152600683526040808220855181549587015160ff166101000261ff00199115159190911661ffff199096169590951794909417845584810151600180860191909155606086015160028601556080860151600386018054918b166001600160a01b031992831617905560a09096015160049095018054959099169490951693909317909655928552909320805460ff19169055805490920190915550565b60408051808201909152600081526060602082015260ff8216600090815260056020908152604091829020825180840190935280548352600181018054919284019161153690612251565b80601f016020809104026020016040519081016040528092919081815260200182805461156290612251565b80156115af5780601f10611584576101008083540402835291602001916115af565b820191906000526020600020905b81548152906001019060200180831161159257829003601f168201915b5050505050815250509050919050565b6000805b600a54811015611605576000818152600660205260409020600401546001600160a01b03163314156115f3578091505b806115fd816122e0565b9150506115c3565b5060008181526006602052604090205460ff1615156001146116395760405162461bcd60e51b81526004016106b690612383565b6000818152600660205260408120600201805434929061165a90849061229c565b909155505050565b6001600160a01b03918216600090815260016020908152604080832093909416825291909152205490565b600081156116a557506001821b929092179182610641565b50506001901b191690565b60008060005b600a54811015611721576000818152600660205260409020600401546001600160a01b03163314156116e6578092505b6000818152600660205260409020600401546001600160a01b038681169116141561170f578091505b80611719816122e0565b9150506116b6565b50600082815260066020908152604080832054610100900460ff1683526005909152902054611751906007611d0f565b1515600114806117745750600c546001600160a01b0316336001600160a01b0316145b806117925750600d546001600160a01b0316336001600160a01b0316145b6117ae5760405162461bcd60e51b81526004016106b69061233d565b60008281526006602052604090205460ff80851661010090920416108015906117fa57506000818152600660205260408082205484835291205460ff6101009283900481169290910416115b806118185750600c546001600160a01b0316336001600160a01b0316145b806118365750600d546001600160a01b0316336001600160a01b0316145b6118825760405162461bcd60e51b815260206004820152601c60248201527f596f75722072616e6b206973206e6f74206869676820656e6f7567680000000060448201526064016106b6565b60008181526006602052604090205460ff16151560011480156118b8575060008281526006602052604090205460ff1615156001145b6118d45760405162461bcd60e51b81526004016106b690612383565b506000908152600660205260409020805460ff9092166101000261ff001990921691909117905550565b6040805160608082018352600080835260208301529181019190915260008281526007602052604090205460ff16151560011461197d5760405162461bcd60e51b815260206004820181905260248201527f5468697320696e7669746174696f6e206973206e6f206d6f72652076616c696460448201526064016106b6565b6000828152600760209081526040918290208251606081018452815460ff81161515825261010090046001600160a01b031692810192909252600181018054929391929184019161153690612251565b6001600160a01b038316611a2f5760405162461bcd60e51b8152602060048201526024808201527f45524332303a20617070726f76652066726f6d20746865207a65726f206164646044820152637265737360e01b60648201526084016106b6565b6001600160a01b038216611a905760405162461bcd60e51b815260206004820152602260248201527f45524332303a20617070726f766520746f20746865207a65726f206164647265604482015261737360f01b60648201526084016106b6565b6001600160a01b0383811660008181526001602090815260408083209487168084529482529182902085905590518481527f8c5be1e5ebec7d5bd14f71427d1e84f3dd0314c0f7b2291e5b200ac8c7c3b925910160405180910390a3505050565b6000611afd8484611662565b90506000198114611b655781811015611b585760405162461bcd60e51b815260206004820152601d60248201527f45524332303a20696e73756666696369656e7420616c6c6f77616e636500000060448201526064016106b6565b611b6584848484036119cd565b50505050565b6001600160a01b038316611bcf5760405162461bcd60e51b815260206004820152602560248201527f45524332303a207472616e736665722066726f6d20746865207a65726f206164604482015264647265737360d81b60648201526084016106b6565b6001600160a01b038216611c315760405162461bcd60e51b815260206004820152602360248201527f45524332303a207472616e7366657220746f20746865207a65726f206164647260448201526265737360e81b60648201526084016106b6565b6001600160a01b03831660009081526020819052604090205481811015611ca95760405162461bcd60e51b815260206004820152602660248201527f45524332303a207472616e7366657220616d6f756e7420657863656564732062604482015265616c616e636560d01b60648201526084016106b6565b6001600160a01b03848116600081815260208181526040808320878703905593871680835291849020805487019055925185815290927fddf252ad1be2c89b69c2b068fc378daa952ba7f163c4a11628f55a4df523b3ef910160405180910390a3611b65565b6000600183831c81169081146106165760005b949350505050565b828054611d3690612251565b90600052602060002090601f016020900481019282611d585760008555611d9e565b82601f10611d7157805160ff1916838001178555611d9e565b82800160010185558215611d9e579182015b82811115611d9e578251825591602001919060010190611d83565b50611daa929150611de3565b5090565b6040805160c081018252600080825260208201819052918101829052606081018290526080810182905260a081019190915290565b5b80821115611daa5760008155600101611de4565b6000815180845260005b81811015611e1e57602081850181015186830182015201611e02565b81811115611e30576000602083870101525b50601f01601f19169290920160200192915050565b6020815260006106416020830184611df8565b80356001600160a01b0381168114611e6f57600080fd5b919050565b60008060408385031215611e8757600080fd5b611e9083611e58565b946020939093013593505050565b600080600060608486031215611eb357600080fd5b611ebc84611e58565b9250611eca60208501611e58565b9150604084013590509250925092565b600060208284031215611eec57600080fd5b61064182611e58565b803560ff81168114611e6f57600080fd5b60008083601f840112611f1857600080fd5b50813567ffffffffffffffff811115611f3057600080fd5b602083019150836020828501011115611f4857600080fd5b9250929050565b60008060008060608587031215611f6557600080fd5b84359350611f7560208601611ef5565b9250604085013567ffffffffffffffff811115611f9157600080fd5b611f9d87828801611f06565b95989497509550505050565b80511515825260018060a01b0360208201511660208301526000604082015160606040850152611d226060850182611df8565b6000602080830181845280855180835260408601915060408160051b870101925083870160005b8281101561203157603f1988860301845261201f858351611fa9565b94509285019290850190600101612003565b5092979650505050505050565b80358015158114611e6f57600080fd5b6000806040838503121561206157600080fd5b611e908361203e565b80511515825260208082015160ff169083015260408082015190830152606080820151908301526080808201516001600160a01b039081169184019190915260a09182015116910152565b60c0810161061c828461206a565b600080602083850312156120d657600080fd5b823567ffffffffffffffff8111156120ed57600080fd5b6120f985828601611f06565b90969095509350505050565b60006020828403121561211757600080fd5b5035919050565b6020808252825182820181905260009190848201906040850190845b818110156121605761214d83855161206a565b9284019260c0929092019160010161213a565b50909695505050505050565b60006020828403121561217e57600080fd5b61064182611ef5565b602081528151602082015260006020830151604080840152611d226060840182611df8565b600080604083850312156121bf57600080fd5b6121c883611e58565b91506121d660208401611e58565b90509250929050565b6000806000606084860312156121f457600080fd5b833592506020840135915061220b6040850161203e565b90509250925092565b6000806040838503121561222757600080fd5b61223083611e58565b91506121d660208401611ef5565b6020815260006106416020830184611fa9565b600181811c9082168061226557607f821691505b602082108114156109a657634e487b7160e01b600052602260045260246000fd5b634e487b7160e01b600052601160045260246000fd5b600082198211156122af576122af612286565b500190565b634e487b7160e01b600052604160045260246000fd5b634e487b7160e01b600052603260045260246000fd5b60006000198214156122f4576122f4612286565b5060010190565b60208082526022908201527f596f757220617265206e6f7420617574686f72697a656420746f20646f207468604082015261697360f01b606082015260800190565b60208082526026908201527f596f75722072616e6b20646f6573206e6f7420617574686f72697a6520757067604082015265726164696e6760d01b606082015260800190565b6020808252600e908201526d2737ba103b30b634b2103ab9b2b960911b60408201526060019056fea26469706673582212207452970a1f1e920de0b4bb9ea87a162e628facb2671fe74296a8412e0f46296364736f6c634300080b0033a2646970667358221220848e4d0806e7b76120dd5ee9b0581952f043d9c238e61ffcb2db1e688147095c64736f6c634300080b0033",
  "immutableReferences": {},
  "source": "// SPDX-License-Identifier: MIT\n// Delegation contract\npragma solidity ^0.8.0;\n\nimport \"@openzeppelin/contracts/access/Ownable.sol\";\nimport \"@openzeppelin/contracts/security/ReentrancyGuard.sol\";\nimport \"@openzeppelin/contracts/utils/math/SafeMath.sol\";\n\nimport \"../immutable/Guild.sol\";\n\ncontract ProxyGuild is Ownable, ReentrancyGuard {\n  error AlreadyHaveGuild(address from, address addressGuild);\n  error GuildNotExist(address from, address addressGuild);\n\n  mapping(address => Guild) private guilds; //address = creator\n  mapping(uint256 => address) private addressGuilds; //address = creator\n  uint8 private countGuilds;\n\n  ///@notice Create a guild by also deleting its contract\n  ///@param from user for found addresses of your contract by creator mapping\n  ///@param name name of your created contract\n  ///@param symbol name of your created contract\n  function createGuild(\n    address from,\n    string calldata name,\n    string calldata symbol\n  ) external {\n    if (address(guilds[from]) != address(0))\n      revert AlreadyHaveGuild({ from: from, addressGuild: address(guilds[from]) });\n    guilds[from] = new Guild(name, symbol, payable(_msgSender()), owner(), countGuilds);\n    addressGuilds[countGuilds] = from;\n    unchecked {\n      countGuilds++;\n    }\n  }\n\n  ///@notice return one guild by address creator\n  ///@param from user for found addresses of your contract by creator mapping\n  ///@return addressContract address of the contract guild\n  function getOneGuildAddress(address from) external view returns (address) {\n    if (address(guilds[from]) == address(0))\n      revert GuildNotExist({ from: from, addressGuild: address(guilds[from]) });\n    return address(guilds[from]);\n  }\n\n  ///@notice return all guilds addresses\n  ///@return result an array of address for all guilds created\n  function getAddressesGuilds() external view returns (address[] memory) {\n    address[] memory result = new address[](countGuilds);\n    uint256 resultIndex = 0;\n    uint256 i;\n    for (i = 0; i < countGuilds; i++) {\n      if (addressGuilds[i] != address(0)) {\n        result[resultIndex] = addressGuilds[i];\n        unchecked {\n          resultIndex++;\n        }\n      }\n    }\n    return result;\n  }\n\n  ///@notice Deleted a guild by also deleting its contract\n  ///@dev ATTENTION, the totality of the ether contained above atters to the creator of the contract\n  ///@param from user for found addresses of your contract by creator mapping\n  //function deleteGuild(address from) external {\n  //  require(address(guilds[from]) != address(0), \"Guild not exist\");\n  //  require(guilds[from].isOwner(_msgSender()), \"Is not your guild\");\n  //  guilds[from].kill();\n  //  addressGuilds[guilds[from].getId()] = address(0);\n  //}\n}\n",
  "sourcePath": "/home/solid-solution/Bureau/HOMEWORK/MYOS/contracts/proxy/ProxyGuild.sol",
  "compiler": {
    "name": "solc",
    "version": "0.8.11+commit.d7f03943.Emscripten.clang"
  },
  "schemaVersion": "3.4.10",
  "updatedAt": "2022-11-22T20:53:26.366Z",
  "devdoc": {
    "kind": "dev",
    "methods": {
      "createGuild(address,string,string)": {
        "params": {
          "from": "user for found addresses of your contract by creator mapping",
          "name": "name of your created contract",
          "symbol": "name of your created contract"
        }
      },
      "getAddressesGuilds()": {
        "returns": {
          "_0": "result an array of address for all guilds created"
        }
      },
      "getOneGuildAddress(address)": {
        "params": {
          "from": "user for found addresses of your contract by creator mapping"
        },
        "returns": {
          "_0": "addressContract address of the contract guild"
        }
      },
      "owner()": {
        "details": "Returns the address of the current owner."
      },
      "renounceOwnership()": {
        "details": "Leaves the contract without owner. It will not be possible to call `onlyOwner` functions anymore. Can only be called by the current owner. NOTE: Renouncing ownership will leave the contract without an owner, thereby removing any functionality that is only available to the owner."
      },
      "transferOwnership(address)": {
        "details": "Transfers ownership of the contract to a new account (`newOwner`). Can only be called by the current owner."
      }
    },
    "version": 1
  },
  "userdoc": {
    "kind": "user",
    "methods": {
      "createGuild(address,string,string)": {
        "notice": "Create a guild by also deleting its contract"
      },
      "getAddressesGuilds()": {
        "notice": "return all guilds addresses"
      },
      "getOneGuildAddress(address)": {
        "notice": "return one guild by address creator"
      }
    },
    "version": 1
  }
}