{
  "contractName": "Quest",
  "abi": [
    {
      "inputs": [],
      "stateMutability": "nonpayable",
      "type": "constructor"
    },
    {
      "anonymous": false,
      "inputs": [
        {
          "indexed": true,
          "internalType": "address",
          "name": "previousOwner",
          "type": "address"
        },
        {
          "indexed": true,
          "internalType": "address",
          "name": "newOwner",
          "type": "address"
        }
      ],
      "name": "OwnershipTransferred",
      "type": "event"
    },
    {
      "inputs": [],
      "name": "owner",
      "outputs": [
        {
          "internalType": "address",
          "name": "",
          "type": "address"
        }
      ],
      "stateMutability": "view",
      "type": "function"
    },
    {
      "inputs": [],
      "name": "renounceOwnership",
      "outputs": [],
      "stateMutability": "nonpayable",
      "type": "function"
    },
    {
      "inputs": [
        {
          "internalType": "address",
          "name": "newOwner",
          "type": "address"
        }
      ],
      "name": "transferOwnership",
      "outputs": [],
      "stateMutability": "nonpayable",
      "type": "function"
    },
    {
      "inputs": [
        {
          "internalType": "uint256",
          "name": "id",
          "type": "uint256"
        },
        {
          "internalType": "uint256",
          "name": "time",
          "type": "uint256"
        },
        {
          "internalType": "uint8",
          "name": "exp",
          "type": "uint8"
        },
        {
          "internalType": "uint8",
          "name": "percentDifficulty",
          "type": "uint8"
        },
        {
          "internalType": "uint8[]",
          "name": "stats",
          "type": "uint8[]"
        }
      ],
      "name": "setQuest",
      "outputs": [],
      "stateMutability": "nonpayable",
      "type": "function"
    },
    {
      "inputs": [
        {
          "internalType": "uint256",
          "name": "id",
          "type": "uint256"
        }
      ],
      "name": "removeQuest",
      "outputs": [],
      "stateMutability": "nonpayable",
      "type": "function"
    },
    {
      "inputs": [
        {
          "internalType": "uint256",
          "name": "questId",
          "type": "uint256"
        }
      ],
      "name": "getQuestDetails",
      "outputs": [
        {
          "components": [
            {
              "internalType": "uint8",
              "name": "exp",
              "type": "uint8"
            },
            {
              "internalType": "uint8",
              "name": "percentDifficulty",
              "type": "uint8"
            },
            {
              "internalType": "uint8[]",
              "name": "stats",
              "type": "uint8[]"
            },
            {
              "internalType": "uint256",
              "name": "id",
              "type": "uint256"
            },
            {
              "internalType": "uint256",
              "name": "time",
              "type": "uint256"
            },
            {
              "internalType": "bool",
              "name": "valid",
              "type": "bool"
            }
          ],
          "internalType": "struct Quest.Quest",
          "name": "",
          "type": "tuple"
        }
      ],
      "stateMutability": "view",
      "type": "function"
    },
    {
      "inputs": [],
      "name": "getMultiplicateurExp",
      "outputs": [
        {
          "internalType": "uint8",
          "name": "",
          "type": "uint8"
        }
      ],
      "stateMutability": "view",
      "type": "function"
    },
    {
      "inputs": [],
      "name": "getAllQuests",
      "outputs": [
        {
          "internalType": "uint256[]",
          "name": "",
          "type": "uint256[]"
        }
      ],
      "stateMutability": "view",
      "type": "function"
    }
  ],
  "bytecode": "0x608060405234801561001057600080fd5b5061001a3361002e565b6002805461ff00191661010017905561007e565b600080546001600160a01b038381166001600160a01b0319831681178455604051919092169283917f8be0079c531659141344cd1fd0a4f28419497f9722a3daafe3b4186f6b6457e09190a35050565b61097b8061008d6000396000f3fe608060405234801561001057600080fd5b50600436106100885760003560e01c8063715018a61161005b578063715018a6146100f05780638da5cb5b146100f8578063b0f929b014610113578063f2fde38b1461013357600080fd5b80631ca4d41c1461008d5780633bb659a2146100a2578063487239d1146100c05780636827822e146100d3575b600080fd5b6100a061009b366004610672565b610146565b005b6100aa6101b6565b6040516100b7919061068b565b60405180910390f35b6100a06100ce3660046106fb565b610270565b600254610100900460ff1660405160ff90911681526020016100b7565b6100a0610371565b6000546040516001600160a01b0390911681526020016100b7565b610126610121366004610672565b610385565b6040516100b791906107f7565b6100a0610141366004610891565b61048f565b61014e61050d565b60008181526001602081905260409091206004015460ff161515141561019b576002805460ff16906000610181836108d7565b91906101000a81548160ff021916908360ff160217905550505b6000908152600160205260409020600401805460ff19169055565b60025460609060009060ff1667ffffffffffffffff8111156101da576101da6106e5565b604051908082528060200260200182016040528015610203578160200160208202803683370190505b5090506000805b60025460ff1681101561026857600081815260016020526040902060020154835184908490811061023d5761023d6108f4565b6020908102919091010152816102528161090a565b92505080806102609061090a565b91505061020a565b509092915050565b61027861050d565b60008581526001602052604090206004015460ff166102be576002805460ff169060006102a483610925565b91906101000a81548160ff021916908360ff160217905550505b6040805160c08101825260ff80861682528481166020808401918252838501868152606085018b9052608085018a9052600160a0860181905260008c81528184529690962085518154945186166101000261ffff19909516951694909417929092178355905180519394929361033b9385019291909101906105b7565b50606082015160028201556080820151600382015560a0909101516004909101805460ff19169115159190911790555050505050565b61037961050d565b6103836000610567565b565b6103c66040518060c00160405280600060ff168152602001600060ff1681526020016060815260200160008152602001600081526020016000151581525090565b600082815260016020818152604092839020835160c081018552815460ff8082168352610100909104168184015292810180548551818502810185018752818152949592949286019383018282801561045c57602002820191906000526020600020906000905b825461010083900a900460ff1681526020600192830181810494850194909303909202910180841161042d5790505b5050509183525050600282015460208201526003820154604082015260049091015460ff16151560609091015292915050565b61049761050d565b6001600160a01b0381166105015760405162461bcd60e51b815260206004820152602660248201527f4f776e61626c653a206e6577206f776e657220697320746865207a65726f206160448201526564647265737360d01b60648201526084015b60405180910390fd5b61050a81610567565b50565b6000546001600160a01b031633146103835760405162461bcd60e51b815260206004820181905260248201527f4f776e61626c653a2063616c6c6572206973206e6f7420746865206f776e657260448201526064016104f8565b600080546001600160a01b038381166001600160a01b0319831681178455604051919092169283917f8be0079c531659141344cd1fd0a4f28419497f9722a3daafe3b4186f6b6457e09190a35050565b82805482825590600052602060002090601f0160209004810192821561064d5791602002820160005b8382111561061e57835183826101000a81548160ff021916908360ff16021790555092602001926001016020816000010492830192600103026105e0565b801561064b5782816101000a81549060ff021916905560010160208160000104928301926001030261061e565b505b5061065992915061065d565b5090565b5b80821115610659576000815560010161065e565b60006020828403121561068457600080fd5b5035919050565b6020808252825182820181905260009190848201906040850190845b818110156106c3578351835292840192918401916001016106a7565b50909695505050505050565b803560ff811681146106e057600080fd5b919050565b634e487b7160e01b600052604160045260246000fd5b600080600080600060a0868803121561071357600080fd5b85359450602080870135945061072b604088016106cf565b9350610739606088016106cf565b9250608087013567ffffffffffffffff8082111561075657600080fd5b818901915089601f83011261076a57600080fd5b81358181111561077c5761077c6106e5565b8060051b604051601f19603f830116810181811085821117156107a1576107a16106e5565b60405291825284820192508381018501918c8311156107bf57600080fd5b938501935b828510156107e4576107d5856106cf565b845293850193928501926107c4565b8096505050505050509295509295909350565b6000602080835260e0830160ff80865116838601528083870151166040860152604086015160c06060870152828151808552610100880191508583019450600092505b8083101561085c5784518416825293850193600192909201919085019061083a565b5060608801516080880152608088015160a088015260a0880151945061088660c088018615159052565b979650505050505050565b6000602082840312156108a357600080fd5b81356001600160a01b03811681146108ba57600080fd5b9392505050565b634e487b7160e01b600052601160045260246000fd5b600060ff8216806108ea576108ea6108c1565b6000190192915050565b634e487b7160e01b600052603260045260246000fd5b600060001982141561091e5761091e6108c1565b5060010190565b600060ff821660ff81141561093c5761093c6108c1565b6001019291505056fea2646970667358221220fe9fb621f480e04b37f2d3c835dbb1591de2985834b557feace94b10926fdd9964736f6c634300080b0033",
  "immutableReferences": {},
  "source": "// SPDX-License-Identifier: MIT\n// Quest Contract\npragma solidity ^0.8.0;\n\nimport \"@openzeppelin/contracts/access/Ownable.sol\";\n\ncontract Quest is Ownable {\n  /**\n    Pour les quetes pas d'obligation de stat\n    On dfini le taux de russite de 0 a 100 %\n    Quetes avec recommandation de stats (exemple 20 de force) si en dessous de 20 on retire le manque aux % de chance de reussite de 0 a 100 %\n    Si plus aucune diffrence de russite\n    */\n  struct Quest {\n    uint8 exp;\n    uint8 percentDifficulty; //0 a 100\n    uint8[] stats; //required\n    uint256 id;\n    uint256 time;\n    bool valid;\n  }\n\n  constructor() {\n    multiplicateurExp = 1;\n  }\n\n  mapping(uint256 => Quest) private _questDetails;\n\n  uint8 questCount;\n  uint8 multiplicateurExp;\n\n  /* QUEST */\n  function setQuest(\n    uint256 id,\n    uint256 time,\n    uint8 exp,\n    uint8 percentDifficulty,\n    uint8[] memory stats\n  ) public onlyOwner {\n    if (_questDetails[id].valid == false) questCount++;\n    _questDetails[id] = Quest(exp, percentDifficulty, stats, id, time, true);\n  }\n\n  function removeQuest(uint256 id) public onlyOwner {\n    if (_questDetails[id].valid == true) questCount--;\n    _questDetails[id].valid = false;\n  }\n\n  function getQuestDetails(uint256 questId) external view returns (Quest memory) {\n    //require(_questDetails[questId],\"Quest not exist\");\n    return _questDetails[questId];\n  }\n\n  function getMultiplicateurExp() external view returns (uint8) {\n    //require(_questDetails[questId],\"Quest not exist\");\n    return multiplicateurExp;\n  }\n\n  /**\n    Rcuprer dans un tableau tout les id token d'un utilisateur\n    */\n  function getAllQuests() external view returns (uint256[] memory) {\n    uint256[] memory result = new uint256[](questCount);\n    uint256 resultIndex = 0;\n    uint256 i;\n    for (i = 0; i < questCount; i++) {\n      result[resultIndex] = _questDetails[i].id;\n      resultIndex++;\n    }\n    return result;\n  }\n}\n",
  "sourcePath": "/home/kevin/Bureau/homework/MYOS/contracts/Quest.sol",
  "compiler": {
    "name": "solc",
    "version": "0.8.11+commit.d7f03943.Emscripten.clang"
  },
  "schemaVersion": "3.4.7",
  "updatedAt": "2022-10-31T19:57:32.424Z",
  "devdoc": {
    "kind": "dev",
    "methods": {
      "owner()": {
        "details": "Returns the address of the current owner."
      },
      "renounceOwnership()": {
        "details": "Leaves the contract without owner. It will not be possible to call `onlyOwner` functions anymore. Can only be called by the current owner. NOTE: Renouncing ownership will leave the contract without an owner, thereby removing any functionality that is only available to the owner."
      },
      "transferOwnership(address)": {
        "details": "Transfers ownership of the contract to a new account (`newOwner`). Can only be called by the current owner."
      }
    },
    "version": 1
  },
  "userdoc": {
    "kind": "user",
    "methods": {
      "getAllQuests()": {
        "notice": "Rcuprer dans un tableau tout les id token d'un utilisateur"
      }
    },
    "version": 1
  }
}