{
  "contractName": "Quest",
  "abi": [
    {
      "inputs": [],
      "stateMutability": "nonpayable",
      "type": "constructor"
    },
    {
      "anonymous": false,
      "inputs": [
        {
          "indexed": true,
          "internalType": "address",
          "name": "previousOwner",
          "type": "address"
        },
        {
          "indexed": true,
          "internalType": "address",
          "name": "newOwner",
          "type": "address"
        }
      ],
      "name": "OwnershipTransferred",
      "type": "event"
    },
    {
      "inputs": [],
      "name": "owner",
      "outputs": [
        {
          "internalType": "address",
          "name": "",
          "type": "address"
        }
      ],
      "stateMutability": "view",
      "type": "function"
    },
    {
      "inputs": [],
      "name": "renounceOwnership",
      "outputs": [],
      "stateMutability": "nonpayable",
      "type": "function"
    },
    {
      "inputs": [
        {
          "internalType": "address",
          "name": "newOwner",
          "type": "address"
        }
      ],
      "name": "transferOwnership",
      "outputs": [],
      "stateMutability": "nonpayable",
      "type": "function"
    },
    {
      "inputs": [
        {
          "internalType": "uint256",
          "name": "id",
          "type": "uint256"
        },
        {
          "internalType": "uint256",
          "name": "time",
          "type": "uint256"
        },
        {
          "internalType": "uint8",
          "name": "exp",
          "type": "uint8"
        },
        {
          "internalType": "uint8",
          "name": "percentDifficulty",
          "type": "uint8"
        },
        {
          "internalType": "uint8[]",
          "name": "stats",
          "type": "uint8[]"
        },
        {
          "internalType": "uint8[]",
          "name": "items",
          "type": "uint8[]"
        }
      ],
      "name": "setQuest",
      "outputs": [],
      "stateMutability": "nonpayable",
      "type": "function"
    },
    {
      "inputs": [
        {
          "internalType": "uint256",
          "name": "questId",
          "type": "uint256"
        }
      ],
      "name": "removeQuest",
      "outputs": [],
      "stateMutability": "nonpayable",
      "type": "function"
    },
    {
      "inputs": [
        {
          "internalType": "uint256",
          "name": "questId",
          "type": "uint256"
        }
      ],
      "name": "getQuestDetails",
      "outputs": [
        {
          "components": [
            {
              "internalType": "uint8",
              "name": "exp",
              "type": "uint8"
            },
            {
              "internalType": "uint8",
              "name": "percentDifficulty",
              "type": "uint8"
            },
            {
              "internalType": "uint8[]",
              "name": "stats",
              "type": "uint8[]"
            },
            {
              "internalType": "uint8[]",
              "name": "items",
              "type": "uint8[]"
            },
            {
              "internalType": "uint256",
              "name": "id",
              "type": "uint256"
            },
            {
              "internalType": "uint256",
              "name": "time",
              "type": "uint256"
            },
            {
              "internalType": "bool",
              "name": "valid",
              "type": "bool"
            }
          ],
          "internalType": "struct Quest.Quest",
          "name": "",
          "type": "tuple"
        }
      ],
      "stateMutability": "view",
      "type": "function"
    },
    {
      "inputs": [],
      "name": "getMultiplicateurExp",
      "outputs": [
        {
          "internalType": "uint8",
          "name": "",
          "type": "uint8"
        }
      ],
      "stateMutability": "view",
      "type": "function"
    },
    {
      "inputs": [],
      "name": "getAllQuests",
      "outputs": [
        {
          "internalType": "uint256[]",
          "name": "",
          "type": "uint256[]"
        }
      ],
      "stateMutability": "view",
      "type": "function"
    }
  ],
  "bytecode": "0x608060405234801561001057600080fd5b5061001a3361002e565b6002805461ff00191661010017905561007e565b600080546001600160a01b038381166001600160a01b0319831681178455604051919092169283917f8be0079c531659141344cd1fd0a4f28419497f9722a3daafe3b4186f6b6457e09190a35050565b610b3a8061008d6000396000f3fe608060405234801561001057600080fd5b50600436106100885760003560e01c8063715018a61161005b578063715018a6146100f05780638da5cb5b146100f8578063b0f929b014610113578063f2fde38b1461013357600080fd5b80631ca4d41c1461008d5780633bb659a2146100a257806355caac1c146100c05780636827822e146100d3575b600080fd5b6100a061009b3660046107cf565b610146565b005b6100aa610219565b6040516100b791906107e8565b60405180910390f35b6100a06100ce3660046108fa565b6102d3565b600254610100900460ff1660405160ff90911681526020016100b7565b6100a06103f8565b6000546040516001600160a01b0390911681526020016100b7565b6101266101213660046107cf565b61040c565b6040516100b791906109cf565b6100a0610141366004610a50565b6105f1565b61014e61066a565b600081815260016020819052604090912060050154829160ff9091161515146101b05760405162461bcd60e51b815260206004820152600f60248201526e145d595cdd081b9bdd08195e1a5cdd608a1b60448201526064015b60405180910390fd5b60008281526001602081905260409091206005015460ff16151514156101fd576002805460ff169060006101e383610a96565b91906101000a81548160ff021916908360ff160217905550505b506000908152600160205260409020600501805460ff19169055565b60025460609060009060ff1667ffffffffffffffff81111561023d5761023d610842565b604051908082528060200260200182016040528015610266578160200160208202803683370190505b5090506000805b60025460ff168110156102cb5760008181526001602052604090206003015483518490849081106102a0576102a0610ab3565b6020908102919091010152816102b581610ac9565b92505080806102c390610ac9565b91505061026d565b509092915050565b6102db61066a565b60008681526001602052604090206005015460ff16610321576002805460ff1690600061030783610ae4565b91906101000a81548160ff021916908360ff160217905550505b6040805160e08101825260ff8087168252858116602080840191825283850187815260608501879052608085018c905260a085018b9052600160c0860181905260008d81528184529690962085518154945186166101000261ffff1990951695169490941792909217835590518051939492936103a5938501929190910190610714565b50606082015180516103c1916002840191602090910190610714565b506080820151600382015560a0820151600482015560c0909101516005909101805460ff1916911515919091179055505050505050565b61040061066a565b61040a60006106c4565b565b6104546040518060e00160405280600060ff168152602001600060ff168152602001606081526020016060815260200160008152602001600081526020016000151581525090565b600082815260016020819052604090912060050154839160ff9091161515146104b15760405162461bcd60e51b815260206004820152600f60248201526e145d595cdd081b9bdd08195e1a5cdd608a1b60448201526064016101a7565b600083815260016020818152604092839020835160e081018552815460ff8082168352610100909104168184015292810180548551818502810185018752818152949592949286019383018282801561054757602002820191906000526020600020906000905b825461010083900a900460ff168152602060019283018181049485019490930390920291018084116105185790505b50505050508152602001600282018054806020026020016040519081016040528092919081815260200182805480156105bd57602002820191906000526020600020906000905b825461010083900a900460ff1681526020600192830181810494850194909303909202910180841161058e5790505b5050509183525050600382015460208201526004820154604082015260059091015460ff1615156060909101529392505050565b6105f961066a565b6001600160a01b03811661065e5760405162461bcd60e51b815260206004820152602660248201527f4f776e61626c653a206e6577206f776e657220697320746865207a65726f206160448201526564647265737360d01b60648201526084016101a7565b610667816106c4565b50565b6000546001600160a01b0316331461040a5760405162461bcd60e51b815260206004820181905260248201527f4f776e61626c653a2063616c6c6572206973206e6f7420746865206f776e657260448201526064016101a7565b600080546001600160a01b038381166001600160a01b0319831681178455604051919092169283917f8be0079c531659141344cd1fd0a4f28419497f9722a3daafe3b4186f6b6457e09190a35050565b82805482825590600052602060002090601f016020900481019282156107aa5791602002820160005b8382111561077b57835183826101000a81548160ff021916908360ff160217905550926020019260010160208160000104928301926001030261073d565b80156107a85782816101000a81549060ff021916905560010160208160000104928301926001030261077b565b505b506107b69291506107ba565b5090565b5b808211156107b657600081556001016107bb565b6000602082840312156107e157600080fd5b5035919050565b6020808252825182820181905260009190848201906040850190845b8181101561082057835183529284019291840191600101610804565b50909695505050505050565b803560ff8116811461083d57600080fd5b919050565b634e487b7160e01b600052604160045260246000fd5b600082601f83011261086957600080fd5b8135602067ffffffffffffffff8083111561088657610886610842565b8260051b604051601f19603f830116810181811084821117156108ab576108ab610842565b6040529384528581018301938381019250878511156108c957600080fd5b83870191505b848210156108ef576108e08261082c565b835291830191908301906108cf565b979650505050505050565b60008060008060008060c0878903121561091357600080fd5b863595506020870135945061092a6040880161082c565b93506109386060880161082c565b9250608087013567ffffffffffffffff8082111561095557600080fd5b6109618a838b01610858565b935060a089013591508082111561097757600080fd5b5061098489828a01610858565b9150509295509295509295565b600081518084526020808501945080840160005b838110156109c457815160ff16875295820195908201906001016109a5565b509495945050505050565b6020815260ff825116602082015260ff60208301511660408201526000604083015160e06060840152610a06610100840182610991565b90506060840151601f19848303016080850152610a238282610991565b915050608084015160a084015260a084015160c084015260c0840151151560e08401528091505092915050565b600060208284031215610a6257600080fd5b81356001600160a01b0381168114610a7957600080fd5b9392505050565b634e487b7160e01b600052601160045260246000fd5b600060ff821680610aa957610aa9610a80565b6000190192915050565b634e487b7160e01b600052603260045260246000fd5b6000600019821415610add57610add610a80565b5060010190565b600060ff821660ff811415610afb57610afb610a80565b6001019291505056fea26469706673582212206ffb2d5988e9df9c98fc5f0321bc96c25f7e9ebafee414d8a6cc7988ac3dfb2064736f6c634300080b0033",
  "immutableReferences": {},
  "source": "// SPDX-License-Identifier: MIT\n// Quest Contract\npragma solidity ^0.8.0;\n\nimport \"@openzeppelin/contracts/access/Ownable.sol\";\n\ncontract Quest is Ownable {\n\n  ///@dev For the quests no obligation of stat\n  ///@dev We define the success rate from 0 to 100%.\n  ///@dev Quests with recommendation of stats (example 20 of strength) if below 20 we remove the lack to the % of chance of success from 0 to 100\n  ///@dev If no more difference in success\n  struct Quest {\n    uint8 exp;\n    uint8 percentDifficulty; //0 - 100\n    uint8[] stats; //required\n    uint8[] items;\n    uint256 id;\n    uint256 time;\n    bool valid;\n  }\n\n  constructor() {\n    multiplicateurExp = 1;\n  }\n\n  mapping(uint256 => Quest) private _questDetails;\n\n  uint8 questCount;\n  uint8 multiplicateurExp;\n\n  ///@notice create or update quest\n  ///@param id id key of quest you want to upsert\n  ///@param time during of quest for complete them\n  ///@param exp experience gained to complete quest\n  ///@param percentDifficulty difficulty of quest 0 - 100 %\n  ///@param stats stats needed to complete quest (malus - bonus)\n  function setQuest(\n    uint256 id,\n    uint256 time,\n    uint8 exp,\n    uint8 percentDifficulty,\n    uint8[] memory stats,\n    uint8[] memory items\n  ) external onlyOwner {\n    if (_questDetails[id].valid == false) questCount++;\n    _questDetails[id] = Quest(exp, percentDifficulty, stats,items, id, time, true);\n  }\n\n  ///@notice modifier to check if quest exist by id\n  ///@param questId id key of quest you want to check\n  modifier questExist(uint256 questId) {\n    require(_questDetails[questId].valid == true, \"Quest not exist\");\n    _;\n  }\n\n  ///@notice remove a quest by id\n  ///@param questId key index of quest you want delete\n  function removeQuest(uint256 questId) external onlyOwner questExist(questId) {\n    if (_questDetails[questId].valid == true) questCount--;\n    _questDetails[questId].valid = false;\n  }\n\n  ///@notice return detail of one quest\n  ///@param questId id key of quest you want to return\n  ///@return questDetail quest structure\n  function getQuestDetails(uint256 questId)\n    external\n    view\n    questExist(questId)\n    returns (Quest memory)\n  {\n    return _questDetails[questId];\n  }\n\n  function getMultiplicateurExp() external view returns (uint8) {\n    return multiplicateurExp;\n  }\n\n  ///@notice Retrieve in a table ids of quest\n  ///@return result array of uint256\n  function getAllQuests() external view returns (uint256[] memory) {\n    uint256[] memory result = new uint256[](questCount);\n    uint256 resultIndex = 0;\n    uint256 i;\n    for (i = 0; i < questCount; i++) {\n      result[resultIndex] = _questDetails[i].id;\n      resultIndex++;\n    }\n    return result;\n  }\n}\n",
  "sourcePath": "/home/kevin/Bureau/homework/MYOS/contracts/Quest.sol",
  "compiler": {
    "name": "solc",
    "version": "0.8.11+commit.d7f03943.Emscripten.clang"
  },
  "schemaVersion": "3.4.7",
  "updatedAt": "2022-10-31T23:33:50.561Z",
  "devdoc": {
    "kind": "dev",
    "methods": {
      "getAllQuests()": {
        "returns": {
          "_0": "result array of uint256"
        }
      },
      "getQuestDetails(uint256)": {
        "params": {
          "questId": "id key of quest you want to return"
        },
        "returns": {
          "_0": "questDetail quest structure"
        }
      },
      "owner()": {
        "details": "Returns the address of the current owner."
      },
      "removeQuest(uint256)": {
        "params": {
          "questId": "key index of quest you want delete"
        }
      },
      "renounceOwnership()": {
        "details": "Leaves the contract without owner. It will not be possible to call `onlyOwner` functions anymore. Can only be called by the current owner. NOTE: Renouncing ownership will leave the contract without an owner, thereby removing any functionality that is only available to the owner."
      },
      "setQuest(uint256,uint256,uint8,uint8,uint8[],uint8[])": {
        "params": {
          "exp": "experience gained to complete quest",
          "id": "id key of quest you want to upsert",
          "percentDifficulty": "difficulty of quest 0 - 100 %",
          "stats": "stats needed to complete quest (malus - bonus)",
          "time": "during of quest for complete them"
        }
      },
      "transferOwnership(address)": {
        "details": "Transfers ownership of the contract to a new account (`newOwner`). Can only be called by the current owner."
      }
    },
    "version": 1
  },
  "userdoc": {
    "kind": "user",
    "methods": {
      "getAllQuests()": {
        "notice": "Retrieve in a table ids of quest"
      },
      "getQuestDetails(uint256)": {
        "notice": "return detail of one quest"
      },
      "removeQuest(uint256)": {
        "notice": "remove a quest by id"
      },
      "setQuest(uint256,uint256,uint8,uint8,uint8[],uint8[])": {
        "notice": "create or update quest"
      }
    },
    "version": 1
  }
}