{
  "contractName": "Quest",
  "abi": [
    {
      "inputs": [],
      "stateMutability": "nonpayable",
      "type": "constructor"
    },
    {
      "anonymous": false,
      "inputs": [
        {
          "indexed": true,
          "internalType": "address",
          "name": "previousOwner",
          "type": "address"
        },
        {
          "indexed": true,
          "internalType": "address",
          "name": "newOwner",
          "type": "address"
        }
      ],
      "name": "OwnershipTransferred",
      "type": "event"
    },
    {
      "inputs": [],
      "name": "owner",
      "outputs": [
        {
          "internalType": "address",
          "name": "",
          "type": "address"
        }
      ],
      "stateMutability": "view",
      "type": "function"
    },
    {
      "inputs": [],
      "name": "renounceOwnership",
      "outputs": [],
      "stateMutability": "nonpayable",
      "type": "function"
    },
    {
      "inputs": [
        {
          "internalType": "address",
          "name": "newOwner",
          "type": "address"
        }
      ],
      "name": "transferOwnership",
      "outputs": [],
      "stateMutability": "nonpayable",
      "type": "function"
    },
    {
      "inputs": [
        {
          "internalType": "uint256",
          "name": "id",
          "type": "uint256"
        },
        {
          "internalType": "uint256",
          "name": "time",
          "type": "uint256"
        },
        {
          "internalType": "uint16",
          "name": "exp",
          "type": "uint16"
        },
        {
          "internalType": "uint8",
          "name": "percentDifficulty",
          "type": "uint8"
        },
        {
          "internalType": "uint8[]",
          "name": "stats",
          "type": "uint8[]"
        },
        {
          "internalType": "uint8[]",
          "name": "items",
          "type": "uint8[]"
        }
      ],
      "name": "setQuest",
      "outputs": [],
      "stateMutability": "nonpayable",
      "type": "function"
    },
    {
      "inputs": [
        {
          "internalType": "uint256",
          "name": "questId",
          "type": "uint256"
        }
      ],
      "name": "removeQuest",
      "outputs": [],
      "stateMutability": "nonpayable",
      "type": "function"
    },
    {
      "inputs": [
        {
          "internalType": "uint256",
          "name": "questId",
          "type": "uint256"
        }
      ],
      "name": "getQuestDetails",
      "outputs": [
        {
          "components": [
            {
              "internalType": "uint16",
              "name": "exp",
              "type": "uint16"
            },
            {
              "internalType": "uint8",
              "name": "percentDifficulty",
              "type": "uint8"
            },
            {
              "internalType": "uint8[]",
              "name": "stats",
              "type": "uint8[]"
            },
            {
              "internalType": "uint8[]",
              "name": "items",
              "type": "uint8[]"
            },
            {
              "internalType": "uint256",
              "name": "id",
              "type": "uint256"
            },
            {
              "internalType": "uint256",
              "name": "time",
              "type": "uint256"
            },
            {
              "internalType": "bool",
              "name": "valid",
              "type": "bool"
            }
          ],
          "internalType": "struct QuestLib.QuestStruct",
          "name": "",
          "type": "tuple"
        }
      ],
      "stateMutability": "view",
      "type": "function"
    },
    {
      "inputs": [],
      "name": "getMultiplicateurExp",
      "outputs": [
        {
          "internalType": "uint8",
          "name": "",
          "type": "uint8"
        }
      ],
      "stateMutability": "view",
      "type": "function"
    },
    {
      "inputs": [],
      "name": "getAllQuests",
      "outputs": [
        {
          "internalType": "uint256[]",
          "name": "",
          "type": "uint256[]"
        }
      ],
      "stateMutability": "view",
      "type": "function"
    }
  ],
  "bytecode": "0x608060405234801561001057600080fd5b5061001a3361002e565b6002805461ff00191661010017905561007e565b600080546001600160a01b038381166001600160a01b0319831681178455604051919092169283917f8be0079c531659141344cd1fd0a4f28419497f9722a3daafe3b4186f6b6457e09190a35050565b610b4f8061008d6000396000f3fe608060405234801561001057600080fd5b50600436106100885760003560e01c8063715018a61161005b578063715018a6146100f05780638da5cb5b146100f8578063b0f929b014610113578063f2fde38b1461013357600080fd5b80631ca4d41c1461008d5780633bb659a2146100a2578063469900ef146100c05780636827822e146100d3575b600080fd5b6100a061009b3660046107da565b610146565b005b6100aa610219565b6040516100b791906107f3565b60405180910390f35b6100a06100ce366004610905565b6102d3565b600254610100900460ff1660405160ff90911681526020016100b7565b6100a0610400565b6000546040516001600160a01b0390911681526020016100b7565b6101266101213660046107da565b610414565b6040516100b791906109e3565b6100a0610141366004610a65565b6105fc565b61014e610675565b600081815260016020819052604090912060050154829160ff9091161515146101b05760405162461bcd60e51b815260206004820152600f60248201526e145d595cdd081b9bdd08195e1a5cdd608a1b60448201526064015b60405180910390fd5b60008281526001602081905260409091206005015460ff16151514156101fd576002805460ff169060006101e383610aab565b91906101000a81548160ff021916908360ff160217905550505b506000908152600160205260409020600501805460ff19169055565b60025460609060009060ff1667ffffffffffffffff81111561023d5761023d61084d565b604051908082528060200260200182016040528015610266578160200160208202803683370190505b5090506000805b60025460ff168110156102cb5760008181526001602052604090206003015483518490849081106102a0576102a0610ac8565b6020908102919091010152816102b581610ade565b92505080806102c390610ade565b91505061026d565b509092915050565b6102db610675565b60008681526001602052604090206005015460ff16610321576002805460ff1690600061030783610af9565b91906101000a81548160ff021916908360ff160217905550505b6040805160e08101825261ffff808716825260ff808716602080850191825284860188815260608601889052608086018d905260a086018c9052600160c0870181905260008e815281845297909720865181549451909516620100000262ffffff19909416949095169390931791909117835590518051939492936103ad93850192919091019061071f565b50606082015180516103c991600284019160209091019061071f565b506080820151600382015560a0820151600482015560c0909101516005909101805460ff1916911515919091179055505050505050565b610408610675565b61041260006106cf565b565b61045d6040518060e00160405280600061ffff168152602001600060ff168152602001606081526020016060815260200160008152602001600081526020016000151581525090565b600082815260016020819052604090912060050154839160ff9091161515146104ba5760405162461bcd60e51b815260206004820152600f60248201526e145d595cdd081b9bdd08195e1a5cdd608a1b60448201526064016101a7565b600083815260016020818152604092839020835160e081018552815461ffff8116825262010000900460ff168184015292810180548551818502810185018752818152949592949286019383018282801561055257602002820191906000526020600020906000905b825461010083900a900460ff168152602060019283018181049485019490930390920291018084116105235790505b50505050508152602001600282018054806020026020016040519081016040528092919081815260200182805480156105c857602002820191906000526020600020906000905b825461010083900a900460ff168152602060019283018181049485019490930390920291018084116105995790505b5050509183525050600382015460208201526004820154604082015260059091015460ff1615156060909101529392505050565b610604610675565b6001600160a01b0381166106695760405162461bcd60e51b815260206004820152602660248201527f4f776e61626c653a206e6577206f776e657220697320746865207a65726f206160448201526564647265737360d01b60648201526084016101a7565b610672816106cf565b50565b6000546001600160a01b031633146104125760405162461bcd60e51b815260206004820181905260248201527f4f776e61626c653a2063616c6c6572206973206e6f7420746865206f776e657260448201526064016101a7565b600080546001600160a01b038381166001600160a01b0319831681178455604051919092169283917f8be0079c531659141344cd1fd0a4f28419497f9722a3daafe3b4186f6b6457e09190a35050565b82805482825590600052602060002090601f016020900481019282156107b55791602002820160005b8382111561078657835183826101000a81548160ff021916908360ff1602179055509260200192600101602081600001049283019260010302610748565b80156107b35782816101000a81549060ff0219169055600101602081600001049283019260010302610786565b505b506107c19291506107c5565b5090565b5b808211156107c157600081556001016107c6565b6000602082840312156107ec57600080fd5b5035919050565b6020808252825182820181905260009190848201906040850190845b8181101561082b5783518352928401929184019160010161080f565b50909695505050505050565b803560ff8116811461084857600080fd5b919050565b634e487b7160e01b600052604160045260246000fd5b600082601f83011261087457600080fd5b8135602067ffffffffffffffff808311156108915761089161084d565b8260051b604051601f19603f830116810181811084821117156108b6576108b661084d565b6040529384528581018301938381019250878511156108d457600080fd5b83870191505b848210156108fa576108eb82610837565b835291830191908301906108da565b979650505050505050565b60008060008060008060c0878903121561091e57600080fd5b8635955060208701359450604087013561ffff8116811461093e57600080fd5b935061094c60608801610837565b9250608087013567ffffffffffffffff8082111561096957600080fd5b6109758a838b01610863565b935060a089013591508082111561098b57600080fd5b5061099889828a01610863565b9150509295509295509295565b600081518084526020808501945080840160005b838110156109d857815160ff16875295820195908201906001016109b9565b509495945050505050565b6020815261ffff825116602082015260ff60208301511660408201526000604083015160e06060840152610a1b6101008401826109a5565b90506060840151601f19848303016080850152610a3882826109a5565b915050608084015160a084015260a084015160c084015260c0840151151560e08401528091505092915050565b600060208284031215610a7757600080fd5b81356001600160a01b0381168114610a8e57600080fd5b9392505050565b634e487b7160e01b600052601160045260246000fd5b600060ff821680610abe57610abe610a95565b6000190192915050565b634e487b7160e01b600052603260045260246000fd5b6000600019821415610af257610af2610a95565b5060010190565b600060ff821660ff811415610b1057610b10610a95565b6001019291505056fea2646970667358221220d593be9690d8cdfbf9a61d51a7c2b982aee03f47a20a9aa600242a3eeeb9f10764736f6c634300080b0033",
  "immutableReferences": {},
  "source": "// SPDX-License-Identifier: MIT\r\n// Quest Contract\r\npragma solidity ^0.8.0;\r\n\r\nimport \"@openzeppelin/contracts/access/Ownable.sol\";\r\n\r\nimport \"./interfaces/IQuest.sol\";\r\nimport \"./library/LQuest.sol\";\r\n\r\ncontract Quest is Ownable, IQuest {\r\n  constructor() {\r\n    multiplicateurExp = 1;\r\n  }\r\n\r\n  mapping(uint256 => QuestLib.QuestStruct) private _questDetails;\r\n\r\n  uint8 questCount;\r\n  uint8 multiplicateurExp;\r\n\r\n  ///@notice create or update quest\r\n  ///@param id id key of quest you want to upsert\r\n  ///@param time during of quest for complete them\r\n  ///@param exp experience gained to complete quest\r\n  ///@param percentDifficulty difficulty of quest 0 - 100 %\r\n  ///@param stats stats needed to complete quest (malus - bonus)\r\n  ///@param items array of items win in complete quest\r\n  function setQuest(\r\n    uint256 id,\r\n    uint256 time,\r\n    uint16 exp,\r\n    uint8 percentDifficulty,\r\n    uint8[] memory stats,\r\n    uint8[] memory items\r\n  ) external onlyOwner {\r\n    if (_questDetails[id].valid == false) questCount++;\r\n    _questDetails[id] = QuestLib.QuestStruct(\r\n      exp,\r\n      percentDifficulty,\r\n      stats,\r\n      items,\r\n      id,\r\n      time,\r\n      true\r\n    );\r\n  }\r\n\r\n  ///@notice modifier to check if quest exist by id\r\n  ///@param questId id key of quest you want to check\r\n  modifier questExist(uint256 questId) {\r\n    require(_questDetails[questId].valid == true, \"Quest not exist\");\r\n    _;\r\n  }\r\n\r\n  ///@notice remove a quest by id\r\n  ///@param questId key index of quest you want delete\r\n  function removeQuest(uint256 questId) external onlyOwner questExist(questId) {\r\n    if (_questDetails[questId].valid == true) questCount--;\r\n    _questDetails[questId].valid = false;\r\n  }\r\n\r\n  ///@notice return detail of one quest\r\n  ///@param questId id key of quest you want to return\r\n  ///@return questDetail quest structure\r\n  function getQuestDetails(\r\n    uint256 questId\r\n  ) external view questExist(questId) returns (QuestLib.QuestStruct memory) {\r\n    return _questDetails[questId];\r\n  }\r\n\r\n  function getMultiplicateurExp() external view returns (uint8) {\r\n    return multiplicateurExp;\r\n  }\r\n\r\n  ///@notice Retrieve in a table ids of quest\r\n  ///@return result array of uint256\r\n  function getAllQuests() external view returns (uint256[] memory) {\r\n    uint256[] memory result = new uint256[](questCount);\r\n    uint256 resultIndex = 0;\r\n    uint256 i;\r\n    for (i = 0; i < questCount; i++) {\r\n      result[resultIndex] = _questDetails[i].id;\r\n      resultIndex++;\r\n    }\r\n    return result;\r\n  }\r\n}\r\n",
  "sourcePath": "C:\\Users\\Kevin\\Desktop\\WorkHome\\--Solidity--MYOS\\contracts\\Quest.sol",
  "compiler": {
    "name": "solc",
    "version": "0.8.11+commit.d7f03943.Emscripten.clang"
  },
  "schemaVersion": "3.4.6",
  "updatedAt": "2022-11-05T23:24:39.481Z",
  "devdoc": {
    "kind": "dev",
    "methods": {
      "getAllQuests()": {
        "returns": {
          "_0": "result array of uint256"
        }
      },
      "getQuestDetails(uint256)": {
        "params": {
          "questId": "id key of quest you want to return"
        },
        "returns": {
          "_0": "questDetail quest structure"
        }
      },
      "owner()": {
        "details": "Returns the address of the current owner."
      },
      "removeQuest(uint256)": {
        "params": {
          "questId": "key index of quest you want delete"
        }
      },
      "renounceOwnership()": {
        "details": "Leaves the contract without owner. It will not be possible to call `onlyOwner` functions anymore. Can only be called by the current owner. NOTE: Renouncing ownership will leave the contract without an owner, thereby removing any functionality that is only available to the owner."
      },
      "setQuest(uint256,uint256,uint16,uint8,uint8[],uint8[])": {
        "params": {
          "exp": "experience gained to complete quest",
          "id": "id key of quest you want to upsert",
          "items": "array of items win in complete quest",
          "percentDifficulty": "difficulty of quest 0 - 100 %",
          "stats": "stats needed to complete quest (malus - bonus)",
          "time": "during of quest for complete them"
        }
      },
      "transferOwnership(address)": {
        "details": "Transfers ownership of the contract to a new account (`newOwner`). Can only be called by the current owner."
      }
    },
    "version": 1
  },
  "userdoc": {
    "kind": "user",
    "methods": {
      "getAllQuests()": {
        "notice": "Retrieve in a table ids of quest"
      },
      "getQuestDetails(uint256)": {
        "notice": "return detail of one quest"
      },
      "removeQuest(uint256)": {
        "notice": "remove a quest by id"
      },
      "setQuest(uint256,uint256,uint16,uint8,uint8[],uint8[])": {
        "notice": "create or update quest"
      }
    },
    "version": 1
  }
}