{
  "contractName": "Quest",
  "abi": [
    {
      "inputs": [],
      "stateMutability": "nonpayable",
      "type": "constructor"
    },
    {
      "anonymous": false,
      "inputs": [
        {
          "indexed": true,
          "internalType": "address",
          "name": "previousOwner",
          "type": "address"
        },
        {
          "indexed": true,
          "internalType": "address",
          "name": "newOwner",
          "type": "address"
        }
      ],
      "name": "OwnershipTransferred",
      "type": "event"
    },
    {
      "inputs": [],
      "name": "owner",
      "outputs": [
        {
          "internalType": "address",
          "name": "",
          "type": "address"
        }
      ],
      "stateMutability": "view",
      "type": "function"
    },
    {
      "inputs": [],
      "name": "renounceOwnership",
      "outputs": [],
      "stateMutability": "nonpayable",
      "type": "function"
    },
    {
      "inputs": [
        {
          "internalType": "address",
          "name": "newOwner",
          "type": "address"
        }
      ],
      "name": "transferOwnership",
      "outputs": [],
      "stateMutability": "nonpayable",
      "type": "function"
    },
    {
      "inputs": [
        {
          "internalType": "uint256",
          "name": "id",
          "type": "uint256"
        },
        {
          "internalType": "uint256",
          "name": "time",
          "type": "uint256"
        },
        {
          "internalType": "uint8",
          "name": "exp",
          "type": "uint8"
        },
        {
          "internalType": "uint8",
          "name": "percentDifficulty",
          "type": "uint8"
        },
        {
          "internalType": "uint8[]",
          "name": "stats",
          "type": "uint8[]"
        }
      ],
      "name": "setQuest",
      "outputs": [],
      "stateMutability": "nonpayable",
      "type": "function"
    },
    {
      "inputs": [
        {
          "internalType": "uint256",
          "name": "questId",
          "type": "uint256"
        }
      ],
      "name": "removeQuest",
      "outputs": [],
      "stateMutability": "nonpayable",
      "type": "function"
    },
    {
      "inputs": [
        {
          "internalType": "uint256",
          "name": "questId",
          "type": "uint256"
        }
      ],
      "name": "getQuestDetails",
      "outputs": [
        {
          "components": [
            {
              "internalType": "uint8",
              "name": "exp",
              "type": "uint8"
            },
            {
              "internalType": "uint8",
              "name": "percentDifficulty",
              "type": "uint8"
            },
            {
              "internalType": "uint8[]",
              "name": "stats",
              "type": "uint8[]"
            },
            {
              "internalType": "uint256",
              "name": "id",
              "type": "uint256"
            },
            {
              "internalType": "uint256",
              "name": "time",
              "type": "uint256"
            },
            {
              "internalType": "bool",
              "name": "valid",
              "type": "bool"
            }
          ],
          "internalType": "struct Quest.Quest",
          "name": "",
          "type": "tuple"
        }
      ],
      "stateMutability": "view",
      "type": "function"
    },
    {
      "inputs": [],
      "name": "getMultiplicateurExp",
      "outputs": [
        {
          "internalType": "uint8",
          "name": "",
          "type": "uint8"
        }
      ],
      "stateMutability": "view",
      "type": "function"
    },
    {
      "inputs": [],
      "name": "getAllQuests",
      "outputs": [
        {
          "internalType": "uint256[]",
          "name": "",
          "type": "uint256[]"
        }
      ],
      "stateMutability": "view",
      "type": "function"
    }
  ],
  "bytecode": "0x608060405234801561001057600080fd5b5061001a3361002e565b6002805461ff00191661010017905561007e565b600080546001600160a01b038381166001600160a01b0319831681178455604051919092169283917f8be0079c531659141344cd1fd0a4f28419497f9722a3daafe3b4186f6b6457e09190a35050565b610a378061008d6000396000f3fe608060405234801561001057600080fd5b50600436106100885760003560e01c8063715018a61161005b578063715018a6146100f05780638da5cb5b146100f8578063b0f929b014610113578063f2fde38b1461013357600080fd5b80631ca4d41c1461008d5780633bb659a2146100a2578063487239d1146100c05780636827822e146100d3575b600080fd5b6100a061009b36600461072e565b610146565b005b6100aa610219565b6040516100b79190610747565b60405180910390f35b6100a06100ce3660046107b7565b6102d3565b600254610100900460ff1660405160ff90911681526020016100b7565b6100a06103d4565b6000546040516001600160a01b0390911681526020016100b7565b61012661012136600461072e565b6103e8565b6040516100b791906108b3565b6100a061014136600461094d565b610550565b61014e6105c9565b600081815260016020819052604090912060040154829160ff9091161515146101b05760405162461bcd60e51b815260206004820152600f60248201526e145d595cdd081b9bdd08195e1a5cdd608a1b60448201526064015b60405180910390fd5b60008281526001602081905260409091206004015460ff16151514156101fd576002805460ff169060006101e383610993565b91906101000a81548160ff021916908360ff160217905550505b506000908152600160205260409020600401805460ff19169055565b60025460609060009060ff1667ffffffffffffffff81111561023d5761023d6107a1565b604051908082528060200260200182016040528015610266578160200160208202803683370190505b5090506000805b60025460ff168110156102cb5760008181526001602052604090206002015483518490849081106102a0576102a06109b0565b6020908102919091010152816102b5816109c6565b92505080806102c3906109c6565b91505061026d565b509092915050565b6102db6105c9565b60008581526001602052604090206004015460ff16610321576002805460ff16906000610307836109e1565b91906101000a81548160ff021916908360ff160217905550505b6040805160c08101825260ff80861682528481166020808401918252838501868152606085018b9052608085018a9052600160a0860181905260008c81528184529690962085518154945186166101000261ffff19909516951694909417929092178355905180519394929361039e938501929190910190610673565b50606082015160028201556080820151600382015560a0909101516004909101805460ff19169115159190911790555050505050565b6103dc6105c9565b6103e66000610623565b565b6104296040518060c00160405280600060ff168152602001600060ff1681526020016060815260200160008152602001600081526020016000151581525090565b600082815260016020819052604090912060040154839160ff9091161515146104865760405162461bcd60e51b815260206004820152600f60248201526e145d595cdd081b9bdd08195e1a5cdd608a1b60448201526064016101a7565b600083815260016020818152604092839020835160c081018552815460ff8082168352610100909104168184015292810180548551818502810185018752818152949592949286019383018282801561051c57602002820191906000526020600020906000905b825461010083900a900460ff168152602060019283018181049485019490930390920291018084116104ed5790505b5050509183525050600282015460208201526003820154604082015260049091015460ff1615156060909101529392505050565b6105586105c9565b6001600160a01b0381166105bd5760405162461bcd60e51b815260206004820152602660248201527f4f776e61626c653a206e6577206f776e657220697320746865207a65726f206160448201526564647265737360d01b60648201526084016101a7565b6105c681610623565b50565b6000546001600160a01b031633146103e65760405162461bcd60e51b815260206004820181905260248201527f4f776e61626c653a2063616c6c6572206973206e6f7420746865206f776e657260448201526064016101a7565b600080546001600160a01b038381166001600160a01b0319831681178455604051919092169283917f8be0079c531659141344cd1fd0a4f28419497f9722a3daafe3b4186f6b6457e09190a35050565b82805482825590600052602060002090601f016020900481019282156107095791602002820160005b838211156106da57835183826101000a81548160ff021916908360ff160217905550926020019260010160208160000104928301926001030261069c565b80156107075782816101000a81549060ff02191690556001016020816000010492830192600103026106da565b505b50610715929150610719565b5090565b5b80821115610715576000815560010161071a565b60006020828403121561074057600080fd5b5035919050565b6020808252825182820181905260009190848201906040850190845b8181101561077f57835183529284019291840191600101610763565b50909695505050505050565b803560ff8116811461079c57600080fd5b919050565b634e487b7160e01b600052604160045260246000fd5b600080600080600060a086880312156107cf57600080fd5b8535945060208087013594506107e76040880161078b565b93506107f56060880161078b565b9250608087013567ffffffffffffffff8082111561081257600080fd5b818901915089601f83011261082657600080fd5b813581811115610838576108386107a1565b8060051b604051601f19603f8301168101818110858211171561085d5761085d6107a1565b60405291825284820192508381018501918c83111561087b57600080fd5b938501935b828510156108a0576108918561078b565b84529385019392850192610880565b8096505050505050509295509295909350565b6000602080835260e0830160ff80865116838601528083870151166040860152604086015160c06060870152828151808552610100880191508583019450600092505b80831015610918578451841682529385019360019290920191908501906108f6565b5060608801516080880152608088015160a088015260a0880151945061094260c088018615159052565b979650505050505050565b60006020828403121561095f57600080fd5b81356001600160a01b038116811461097657600080fd5b9392505050565b634e487b7160e01b600052601160045260246000fd5b600060ff8216806109a6576109a661097d565b6000190192915050565b634e487b7160e01b600052603260045260246000fd5b60006000198214156109da576109da61097d565b5060010190565b600060ff821660ff8114156109f8576109f861097d565b6001019291505056fea2646970667358221220a154e40212eba1b9f4349983d3941fe9aa370d332e66067c967ac179c66049ec64736f6c634300080b0033",
  "immutableReferences": {},
  "source": "// SPDX-License-Identifier: MIT\n// Quest Contract\npragma solidity ^0.8.0;\n\nimport \"@openzeppelin/contracts/access/Ownable.sol\";\n\ncontract Quest is Ownable {\n  /**\n    Pour les quetes pas d'obligation de stat\n    On dfini le taux de russite de 0 a 100 %\n    Quetes avec recommandation de stats (exemple 20 de force) si en dessous de 20 on retire le manque aux % de chance de reussite de 0 a 100 %\n    Si plus aucune diffrence de russite\n    */\n  struct Quest {\n    uint8 exp;\n    uint8 percentDifficulty; //0 a 100\n    uint8[] stats; //required\n    uint256 id;\n    uint256 time;\n    bool valid;\n  }\n\n  constructor() {\n    multiplicateurExp = 1;\n  }\n\n  mapping(uint256 => Quest) private _questDetails;\n\n  uint8 questCount;\n  uint8 multiplicateurExp;\n\n  /* QUEST */\n  function setQuest(\n    uint256 id,\n    uint256 time,\n    uint8 exp,\n    uint8 percentDifficulty,\n    uint8[] memory stats\n  ) external onlyOwner {\n    if (_questDetails[id].valid == false) questCount++;\n    _questDetails[id] = Quest(exp, percentDifficulty, stats, id, time, true);\n  }\n\n  modifier questExist(uint256 questId) {\n    require(_questDetails[questId].valid == true, \"Quest not exist\");\n    _;\n  }\n\n  function removeQuest(uint256 questId) external onlyOwner questExist(questId) {\n    if (_questDetails[questId].valid == true) questCount--;\n    _questDetails[questId].valid = false;\n  }\n\n  function getQuestDetails(uint256 questId)\n    external\n    view\n    questExist(questId)\n    returns (Quest memory)\n  {\n    return _questDetails[questId];\n  }\n\n  function getMultiplicateurExp() external view returns (uint8) {\n    return multiplicateurExp;\n  }\n\n  /**\n    Rcuprer dans un tableau tout les id token d'un utilisateur\n    */\n  function getAllQuests() external view returns (uint256[] memory) {\n    uint256[] memory result = new uint256[](questCount);\n    uint256 resultIndex = 0;\n    uint256 i;\n    for (i = 0; i < questCount; i++) {\n      result[resultIndex] = _questDetails[i].id;\n      resultIndex++;\n    }\n    return result;\n  }\n}\n",
  "sourcePath": "/home/kevin/Bureau/homework/MYOS/contracts/Quest.sol",
  "compiler": {
    "name": "solc",
    "version": "0.8.11+commit.d7f03943.Emscripten.clang"
  },
  "schemaVersion": "3.4.7",
  "updatedAt": "2022-10-31T22:36:34.887Z",
  "devdoc": {
    "kind": "dev",
    "methods": {
      "owner()": {
        "details": "Returns the address of the current owner."
      },
      "renounceOwnership()": {
        "details": "Leaves the contract without owner. It will not be possible to call `onlyOwner` functions anymore. Can only be called by the current owner. NOTE: Renouncing ownership will leave the contract without an owner, thereby removing any functionality that is only available to the owner."
      },
      "transferOwnership(address)": {
        "details": "Transfers ownership of the contract to a new account (`newOwner`). Can only be called by the current owner."
      }
    },
    "version": 1
  },
  "userdoc": {
    "kind": "user",
    "methods": {
      "getAllQuests()": {
        "notice": "Rcuprer dans un tableau tout les id token d'un utilisateur"
      }
    },
    "version": 1
  }
}