{
  "contractName": "Quest",
  "abi": [
    {
      "inputs": [],
      "stateMutability": "nonpayable",
      "type": "constructor"
    },
    {
      "anonymous": false,
      "inputs": [
        {
          "indexed": true,
          "internalType": "address",
          "name": "previousOwner",
          "type": "address"
        },
        {
          "indexed": true,
          "internalType": "address",
          "name": "newOwner",
          "type": "address"
        }
      ],
      "name": "OwnershipTransferred",
      "type": "event"
    },
    {
      "inputs": [],
      "name": "owner",
      "outputs": [
        {
          "internalType": "address",
          "name": "",
          "type": "address"
        }
      ],
      "stateMutability": "view",
      "type": "function"
    },
    {
      "inputs": [],
      "name": "renounceOwnership",
      "outputs": [],
      "stateMutability": "nonpayable",
      "type": "function"
    },
    {
      "inputs": [
        {
          "internalType": "address",
          "name": "newOwner",
          "type": "address"
        }
      ],
      "name": "transferOwnership",
      "outputs": [],
      "stateMutability": "nonpayable",
      "type": "function"
    },
    {
      "inputs": [
        {
          "internalType": "uint256",
          "name": "id",
          "type": "uint256"
        },
        {
          "internalType": "uint256",
          "name": "time",
          "type": "uint256"
        },
        {
          "internalType": "uint16",
          "name": "exp",
          "type": "uint16"
        },
        {
          "internalType": "uint8",
          "name": "percentDifficulty",
          "type": "uint8"
        },
        {
          "internalType": "uint8[]",
          "name": "stats",
          "type": "uint8[]"
        },
        {
          "internalType": "uint8[]",
          "name": "items",
          "type": "uint8[]"
        }
      ],
      "name": "setQuest",
      "outputs": [],
      "stateMutability": "nonpayable",
      "type": "function"
    },
    {
      "inputs": [
        {
          "internalType": "uint256",
          "name": "questId",
          "type": "uint256"
        }
      ],
      "name": "removeQuest",
      "outputs": [],
      "stateMutability": "nonpayable",
      "type": "function"
    },
    {
      "inputs": [
        {
          "internalType": "uint256",
          "name": "questId",
          "type": "uint256"
        }
      ],
      "name": "getQuestDetails",
      "outputs": [
        {
          "components": [
            {
              "internalType": "uint16",
              "name": "exp",
              "type": "uint16"
            },
            {
              "internalType": "uint8",
              "name": "percentDifficulty",
              "type": "uint8"
            },
            {
              "internalType": "uint8[]",
              "name": "stats",
              "type": "uint8[]"
            },
            {
              "internalType": "uint8[]",
              "name": "items",
              "type": "uint8[]"
            },
            {
              "internalType": "uint256",
              "name": "id",
              "type": "uint256"
            },
            {
              "internalType": "uint256",
              "name": "time",
              "type": "uint256"
            },
            {
              "internalType": "bool",
              "name": "valid",
              "type": "bool"
            }
          ],
          "internalType": "struct QuestLib.QuestStruct",
          "name": "",
          "type": "tuple"
        }
      ],
      "stateMutability": "view",
      "type": "function"
    },
    {
      "inputs": [],
      "name": "getMultiplicateurExp",
      "outputs": [
        {
          "internalType": "uint8",
          "name": "",
          "type": "uint8"
        }
      ],
      "stateMutability": "view",
      "type": "function"
    },
    {
      "inputs": [],
      "name": "getAllQuests",
      "outputs": [
        {
          "internalType": "uint256[]",
          "name": "",
          "type": "uint256[]"
        }
      ],
      "stateMutability": "view",
      "type": "function"
    }
  ],
  "bytecode": "0x608060405234801561001057600080fd5b5061001a3361002e565b6002805461ff00191661010017905561007e565b600080546001600160a01b038381166001600160a01b0319831681178455604051919092169283917f8be0079c531659141344cd1fd0a4f28419497f9722a3daafe3b4186f6b6457e09190a35050565b610b5c8061008d6000396000f3fe608060405234801561001057600080fd5b50600436106100885760003560e01c8063715018a61161005b578063715018a6146100f05780638da5cb5b146100f8578063b0f929b014610113578063f2fde38b1461013357600080fd5b80631ca4d41c1461008d5780633bb659a2146100a2578063469900ef146100c05780636827822e146100d3575b600080fd5b6100a061009b36600461083e565b610146565b005b6100aa610219565b6040516100b79190610857565b60405180910390f35b6100a06100ce3660046108e7565b6102d3565b600254610100900460ff1660405160ff90911681526020016100b7565b6100a0610464565b6000546040516001600160a01b0390911681526020016100b7565b61012661012136600461083e565b610478565b6040516100b791906109da565b6100a0610141366004610a5c565b610660565b61014e6106d9565b600081815260016020819052604090912060050154829160ff9091161515146101b05760405162461bcd60e51b815260206004820152600f60248201526e145d595cdd081b9bdd08195e1a5cdd608a1b60448201526064015b60405180910390fd5b60008281526001602081905260409091206005015460ff16151514156101fd576002805460ff169060006101e383610aa2565b91906101000a81548160ff021916908360ff160217905550505b506000908152600160205260409020600501805460ff19169055565b60025460609060009060ff1667ffffffffffffffff81111561023d5761023d610abf565b604051908082528060200260200182016040528015610266578160200160208202803683370190505b5090506000805b60025460ff168110156102cb5760008181526001602052604090206003015483518490849081106102a0576102a0610ad5565b6020908102919091010152816102b581610aeb565b92505080806102c390610aeb565b91505061026d565b509092915050565b6102db6106d9565b60008881526001602052604090206005015460ff16610321576002805460ff1690600061030783610b06565b91906101000a81548160ff021916908360ff160217905550505b6040518060e001604052808761ffff1681526020018660ff1681526020018585808060200260200160405190810160405280939291908181526020018383602002808284376000920191909152505050908252506040805160208581028281018201909352858252928301929091869186918291850190849080828437600092018290525093855250505060208083018c905260408084018c9052600160609094018490528c835283825291829020845181548684015160ff16620100000262ffffff1990911661ffff90921691909117178155918401518051929361040f93908501929190910190610783565b506060820151805161042b916002840191602090910190610783565b506080820151600382015560a0820151600482015560c0909101516005909101805460ff19169115159190911790555050505050505050565b61046c6106d9565b6104766000610733565b565b6104c16040518060e00160405280600061ffff168152602001600060ff168152602001606081526020016060815260200160008152602001600081526020016000151581525090565b600082815260016020819052604090912060050154839160ff90911615151461051e5760405162461bcd60e51b815260206004820152600f60248201526e145d595cdd081b9bdd08195e1a5cdd608a1b60448201526064016101a7565b600083815260016020818152604092839020835160e081018552815461ffff8116825262010000900460ff16818401529281018054855181850281018501875281815294959294928601938301828280156105b657602002820191906000526020600020906000905b825461010083900a900460ff168152602060019283018181049485019490930390920291018084116105875790505b505050505081526020016002820180548060200260200160405190810160405280929190818152602001828054801561062c57602002820191906000526020600020906000905b825461010083900a900460ff168152602060019283018181049485019490930390920291018084116105fd5790505b5050509183525050600382015460208201526004820154604082015260059091015460ff1615156060909101529392505050565b6106686106d9565b6001600160a01b0381166106cd5760405162461bcd60e51b815260206004820152602660248201527f4f776e61626c653a206e6577206f776e657220697320746865207a65726f206160448201526564647265737360d01b60648201526084016101a7565b6106d681610733565b50565b6000546001600160a01b031633146104765760405162461bcd60e51b815260206004820181905260248201527f4f776e61626c653a2063616c6c6572206973206e6f7420746865206f776e657260448201526064016101a7565b600080546001600160a01b038381166001600160a01b0319831681178455604051919092169283917f8be0079c531659141344cd1fd0a4f28419497f9722a3daafe3b4186f6b6457e09190a35050565b82805482825590600052602060002090601f016020900481019282156108195791602002820160005b838211156107ea57835183826101000a81548160ff021916908360ff16021790555092602001926001016020816000010492830192600103026107ac565b80156108175782816101000a81549060ff02191690556001016020816000010492830192600103026107ea565b505b50610825929150610829565b5090565b5b80821115610825576000815560010161082a565b60006020828403121561085057600080fd5b5035919050565b6020808252825182820181905260009190848201906040850190845b8181101561088f57835183529284019291840191600101610873565b50909695505050505050565b60008083601f8401126108ad57600080fd5b50813567ffffffffffffffff8111156108c557600080fd5b6020830191508360208260051b85010111156108e057600080fd5b9250929050565b60008060008060008060008060c0898b03121561090357600080fd5b8835975060208901359650604089013561ffff8116811461092357600080fd5b9550606089013560ff8116811461093957600080fd5b9450608089013567ffffffffffffffff8082111561095657600080fd5b6109628c838d0161089b565b909650945060a08b013591508082111561097b57600080fd5b506109888b828c0161089b565b999c989b5096995094979396929594505050565b600081518084526020808501945080840160005b838110156109cf57815160ff16875295820195908201906001016109b0565b509495945050505050565b6020815261ffff825116602082015260ff60208301511660408201526000604083015160e06060840152610a1261010084018261099c565b90506060840151601f19848303016080850152610a2f828261099c565b915050608084015160a084015260a084015160c084015260c0840151151560e08401528091505092915050565b600060208284031215610a6e57600080fd5b81356001600160a01b0381168114610a8557600080fd5b9392505050565b634e487b7160e01b600052601160045260246000fd5b600060ff821680610ab557610ab5610a8c565b6000190192915050565b634e487b7160e01b600052604160045260246000fd5b634e487b7160e01b600052603260045260246000fd5b6000600019821415610aff57610aff610a8c565b5060010190565b600060ff821660ff811415610b1d57610b1d610a8c565b6001019291505056fea2646970667358221220c91c8b24b06236917c5d5ad5dd4b6ef0292d0abf7d03a4fc0e45e61674d1e27e64736f6c634300080b0033",
  "immutableReferences": {},
  "source": "// SPDX-License-Identifier: MIT\n// Quest Contract\npragma solidity ^0.8.0;\n\nimport \"@openzeppelin/contracts/access/Ownable.sol\";\n\nimport \"../library/LQuest.sol\";\n\ncontract Quest is Ownable {\n  constructor() {\n    multiplicateurExp = 1;\n  }\n\n  mapping(uint256 => QuestLib.QuestStruct) private _questDetails;\n\n  uint8 questCount;\n  uint8 multiplicateurExp;\n\n  ///@notice create or update quest\n  ///@param id id key of quest you want to upsert\n  ///@param time during of quest for complete them\n  ///@param exp experience gained to complete quest\n  ///@param percentDifficulty difficulty of quest 0 - 100 %\n  ///@param stats stats needed to complete quest (malus - bonus)\n  ///@param items array of items win in complete quest\n  function setQuest(\n    uint256 id,\n    uint256 time,\n    uint16 exp,\n    uint8 percentDifficulty,\n    uint8[] calldata stats,\n    uint8[] calldata items\n  ) external onlyOwner {\n    if (_questDetails[id].valid == false) questCount++;\n    _questDetails[id] = QuestLib.QuestStruct(\n      exp,\n      percentDifficulty,\n      stats,\n      items,\n      id,\n      time,\n      true\n    );\n  }\n\n  ///@notice modifier to check if quest exist by id\n  ///@param questId id key of quest you want to check\n  modifier questExist(uint256 questId) {\n    require(_questDetails[questId].valid == true, \"Quest not exist\");\n    _;\n  }\n\n  ///@notice remove a quest by id\n  ///@param questId key index of quest you want delete\n  function removeQuest(uint256 questId) external onlyOwner questExist(questId) {\n    if (_questDetails[questId].valid == true) questCount--;\n    _questDetails[questId].valid = false;\n  }\n\n  ///@notice return detail of one quest\n  ///@param questId id key of quest you want to return\n  ///@return questDetail quest structure\n  function getQuestDetails(\n    uint256 questId\n  ) external view questExist(questId) returns (QuestLib.QuestStruct memory) {\n    return _questDetails[questId];\n  }\n\n  function getMultiplicateurExp() external view returns (uint8) {\n    return multiplicateurExp;\n  }\n\n  ///@notice Retrieve in a table ids of quest\n  ///@return result array of uint256\n  function getAllQuests() external view returns (uint256[] memory) {\n    uint256[] memory result = new uint256[](questCount);\n    uint256 resultIndex = 0;\n    uint256 i;\n    for (i = 0; i < questCount; i++) {\n      result[resultIndex] = _questDetails[i].id;\n      resultIndex++;\n    }\n    return result;\n  }\n}\n",
  "sourcePath": "/home/solid-solution/Bureau/HOMEWORK/MYOS/contracts/immutable/Quest.sol",
  "compiler": {
    "name": "solc",
    "version": "0.8.11+commit.d7f03943.Emscripten.clang"
  },
  "schemaVersion": "3.4.10",
  "updatedAt": "2022-11-22T19:00:37.104Z",
  "devdoc": {
    "kind": "dev",
    "methods": {
      "getAllQuests()": {
        "returns": {
          "_0": "result array of uint256"
        }
      },
      "getQuestDetails(uint256)": {
        "params": {
          "questId": "id key of quest you want to return"
        },
        "returns": {
          "_0": "questDetail quest structure"
        }
      },
      "owner()": {
        "details": "Returns the address of the current owner."
      },
      "removeQuest(uint256)": {
        "params": {
          "questId": "key index of quest you want delete"
        }
      },
      "renounceOwnership()": {
        "details": "Leaves the contract without owner. It will not be possible to call `onlyOwner` functions anymore. Can only be called by the current owner. NOTE: Renouncing ownership will leave the contract without an owner, thereby removing any functionality that is only available to the owner."
      },
      "setQuest(uint256,uint256,uint16,uint8,uint8[],uint8[])": {
        "params": {
          "exp": "experience gained to complete quest",
          "id": "id key of quest you want to upsert",
          "items": "array of items win in complete quest",
          "percentDifficulty": "difficulty of quest 0 - 100 %",
          "stats": "stats needed to complete quest (malus - bonus)",
          "time": "during of quest for complete them"
        }
      },
      "transferOwnership(address)": {
        "details": "Transfers ownership of the contract to a new account (`newOwner`). Can only be called by the current owner."
      }
    },
    "version": 1
  },
  "userdoc": {
    "kind": "user",
    "methods": {
      "getAllQuests()": {
        "notice": "Retrieve in a table ids of quest"
      },
      "getQuestDetails(uint256)": {
        "notice": "return detail of one quest"
      },
      "removeQuest(uint256)": {
        "notice": "remove a quest by id"
      },
      "setQuest(uint256,uint256,uint16,uint8,uint8[],uint8[])": {
        "notice": "create or update quest"
      }
    },
    "version": 1
  }
}