{
  "contractName": "Token",
  "abi": [
    {
      "inputs": [
        {
          "internalType": "string",
          "name": "name",
          "type": "string"
        },
        {
          "internalType": "string",
          "name": "symbol",
          "type": "string"
        }
      ],
      "stateMutability": "nonpayable",
      "type": "constructor"
    },
    {
      "anonymous": false,
      "inputs": [
        {
          "indexed": true,
          "internalType": "address",
          "name": "owner",
          "type": "address"
        },
        {
          "indexed": true,
          "internalType": "address",
          "name": "approved",
          "type": "address"
        },
        {
          "indexed": true,
          "internalType": "uint256",
          "name": "tokenId",
          "type": "uint256"
        }
      ],
      "name": "Approval",
      "type": "event"
    },
    {
      "anonymous": false,
      "inputs": [
        {
          "indexed": true,
          "internalType": "address",
          "name": "owner",
          "type": "address"
        },
        {
          "indexed": true,
          "internalType": "address",
          "name": "operator",
          "type": "address"
        },
        {
          "indexed": false,
          "internalType": "bool",
          "name": "approved",
          "type": "bool"
        }
      ],
      "name": "ApprovalForAll",
      "type": "event"
    },
    {
      "anonymous": false,
      "inputs": [
        {
          "indexed": true,
          "internalType": "address",
          "name": "previousOwner",
          "type": "address"
        },
        {
          "indexed": true,
          "internalType": "address",
          "name": "newOwner",
          "type": "address"
        }
      ],
      "name": "OwnershipTransferred",
      "type": "event"
    },
    {
      "anonymous": false,
      "inputs": [
        {
          "indexed": true,
          "internalType": "address",
          "name": "from",
          "type": "address"
        },
        {
          "indexed": true,
          "internalType": "address",
          "name": "to",
          "type": "address"
        },
        {
          "indexed": true,
          "internalType": "uint256",
          "name": "tokenId",
          "type": "uint256"
        }
      ],
      "name": "Transfer",
      "type": "event"
    },
    {
      "inputs": [
        {
          "internalType": "address",
          "name": "to",
          "type": "address"
        },
        {
          "internalType": "uint256",
          "name": "tokenId",
          "type": "uint256"
        }
      ],
      "name": "approve",
      "outputs": [],
      "stateMutability": "nonpayable",
      "type": "function"
    },
    {
      "inputs": [
        {
          "internalType": "address",
          "name": "owner",
          "type": "address"
        }
      ],
      "name": "balanceOf",
      "outputs": [
        {
          "internalType": "uint256",
          "name": "",
          "type": "uint256"
        }
      ],
      "stateMutability": "view",
      "type": "function"
    },
    {
      "inputs": [
        {
          "internalType": "uint256",
          "name": "tokenId",
          "type": "uint256"
        }
      ],
      "name": "getApproved",
      "outputs": [
        {
          "internalType": "address",
          "name": "",
          "type": "address"
        }
      ],
      "stateMutability": "view",
      "type": "function"
    },
    {
      "inputs": [
        {
          "internalType": "address",
          "name": "owner",
          "type": "address"
        },
        {
          "internalType": "address",
          "name": "operator",
          "type": "address"
        }
      ],
      "name": "isApprovedForAll",
      "outputs": [
        {
          "internalType": "bool",
          "name": "",
          "type": "bool"
        }
      ],
      "stateMutability": "view",
      "type": "function"
    },
    {
      "inputs": [],
      "name": "name",
      "outputs": [
        {
          "internalType": "string",
          "name": "",
          "type": "string"
        }
      ],
      "stateMutability": "view",
      "type": "function"
    },
    {
      "inputs": [],
      "name": "owner",
      "outputs": [
        {
          "internalType": "address",
          "name": "",
          "type": "address"
        }
      ],
      "stateMutability": "view",
      "type": "function"
    },
    {
      "inputs": [
        {
          "internalType": "uint256",
          "name": "tokenId",
          "type": "uint256"
        }
      ],
      "name": "ownerOf",
      "outputs": [
        {
          "internalType": "address",
          "name": "",
          "type": "address"
        }
      ],
      "stateMutability": "view",
      "type": "function"
    },
    {
      "inputs": [],
      "name": "renounceOwnership",
      "outputs": [],
      "stateMutability": "nonpayable",
      "type": "function"
    },
    {
      "inputs": [
        {
          "internalType": "address",
          "name": "from",
          "type": "address"
        },
        {
          "internalType": "address",
          "name": "to",
          "type": "address"
        },
        {
          "internalType": "uint256",
          "name": "tokenId",
          "type": "uint256"
        }
      ],
      "name": "safeTransferFrom",
      "outputs": [],
      "stateMutability": "nonpayable",
      "type": "function"
    },
    {
      "inputs": [
        {
          "internalType": "address",
          "name": "from",
          "type": "address"
        },
        {
          "internalType": "address",
          "name": "to",
          "type": "address"
        },
        {
          "internalType": "uint256",
          "name": "tokenId",
          "type": "uint256"
        },
        {
          "internalType": "bytes",
          "name": "_data",
          "type": "bytes"
        }
      ],
      "name": "safeTransferFrom",
      "outputs": [],
      "stateMutability": "nonpayable",
      "type": "function"
    },
    {
      "inputs": [
        {
          "internalType": "address",
          "name": "operator",
          "type": "address"
        },
        {
          "internalType": "bool",
          "name": "approved",
          "type": "bool"
        }
      ],
      "name": "setApprovalForAll",
      "outputs": [],
      "stateMutability": "nonpayable",
      "type": "function"
    },
    {
      "inputs": [
        {
          "internalType": "bytes4",
          "name": "interfaceId",
          "type": "bytes4"
        }
      ],
      "name": "supportsInterface",
      "outputs": [
        {
          "internalType": "bool",
          "name": "",
          "type": "bool"
        }
      ],
      "stateMutability": "view",
      "type": "function"
    },
    {
      "inputs": [],
      "name": "symbol",
      "outputs": [
        {
          "internalType": "string",
          "name": "",
          "type": "string"
        }
      ],
      "stateMutability": "view",
      "type": "function"
    },
    {
      "inputs": [
        {
          "internalType": "uint256",
          "name": "tokenId",
          "type": "uint256"
        }
      ],
      "name": "tokenURI",
      "outputs": [
        {
          "internalType": "string",
          "name": "",
          "type": "string"
        }
      ],
      "stateMutability": "view",
      "type": "function"
    },
    {
      "inputs": [
        {
          "internalType": "address",
          "name": "from",
          "type": "address"
        },
        {
          "internalType": "address",
          "name": "to",
          "type": "address"
        },
        {
          "internalType": "uint256",
          "name": "tokenId",
          "type": "uint256"
        }
      ],
      "name": "transferFrom",
      "outputs": [],
      "stateMutability": "nonpayable",
      "type": "function"
    },
    {
      "inputs": [
        {
          "internalType": "address",
          "name": "newOwner",
          "type": "address"
        }
      ],
      "name": "transferOwnership",
      "outputs": [],
      "stateMutability": "nonpayable",
      "type": "function"
    },
    {
      "inputs": [
        {
          "internalType": "uint8",
          "name": "typeMint",
          "type": "uint8"
        }
      ],
      "name": "mint",
      "outputs": [],
      "stateMutability": "payable",
      "type": "function"
    },
    {
      "inputs": [
        {
          "internalType": "uint256",
          "name": "price",
          "type": "uint256"
        },
        {
          "internalType": "uint8",
          "name": "typeEgg",
          "type": "uint8"
        }
      ],
      "name": "priceEgg",
      "outputs": [],
      "stateMutability": "nonpayable",
      "type": "function"
    },
    {
      "inputs": [
        {
          "internalType": "uint256",
          "name": "tokenId",
          "type": "uint256"
        }
      ],
      "name": "burn",
      "outputs": [],
      "stateMutability": "nonpayable",
      "type": "function"
    },
    {
      "inputs": [
        {
          "internalType": "uint8[]",
          "name": "partsOne",
          "type": "uint8[]"
        },
        {
          "internalType": "uint256",
          "name": "tokenIdOne",
          "type": "uint256"
        },
        {
          "internalType": "uint8[]",
          "name": "partsTwo",
          "type": "uint8[]"
        },
        {
          "internalType": "address",
          "name": "senderInvit",
          "type": "address"
        },
        {
          "internalType": "uint256",
          "name": "tokenIdTwo",
          "type": "uint256"
        }
      ],
      "name": "reproduce",
      "outputs": [],
      "stateMutability": "nonpayable",
      "type": "function"
    },
    {
      "inputs": [
        {
          "internalType": "uint256",
          "name": "tokenId",
          "type": "uint256"
        }
      ],
      "name": "getTokenDetails",
      "outputs": [
        {
          "components": [
            {
              "internalType": "uint8",
              "name": "numberReproduce",
              "type": "uint8"
            },
            {
              "internalType": "uint8",
              "name": "mother",
              "type": "uint8"
            },
            {
              "internalType": "uint8",
              "name": "father",
              "type": "uint8"
            },
            {
              "internalType": "uint8[]",
              "name": "parts",
              "type": "uint8[]"
            },
            {
              "internalType": "bool",
              "name": "inSell",
              "type": "bool"
            },
            {
              "internalType": "bool",
              "name": "egg",
              "type": "bool"
            },
            {
              "internalType": "uint256",
              "name": "createdAt",
              "type": "uint256"
            },
            {
              "internalType": "uint256",
              "name": "price",
              "type": "uint256"
            },
            {
              "internalType": "uint256",
              "name": "tokenIdReproducable",
              "type": "uint256"
            }
          ],
          "internalType": "struct Token.Mystic",
          "name": "",
          "type": "tuple"
        }
      ],
      "stateMutability": "view",
      "type": "function"
    },
    {
      "inputs": [
        {
          "internalType": "address",
          "name": "user",
          "type": "address"
        }
      ],
      "name": "getAllTokensForUser",
      "outputs": [
        {
          "internalType": "uint256[]",
          "name": "",
          "type": "uint256[]"
        }
      ],
      "stateMutability": "view",
      "type": "function"
    },
    {
      "inputs": [
        {
          "internalType": "address",
          "name": "contactAddr",
          "type": "address"
        },
        {
          "internalType": "uint256",
          "name": "tokenId",
          "type": "uint256"
        },
        {
          "internalType": "uint256",
          "name": "amount",
          "type": "uint256"
        },
        {
          "internalType": "bool",
          "name": "purchase",
          "type": "bool"
        }
      ],
      "name": "purchaseAndTransfer",
      "outputs": [],
      "stateMutability": "payable",
      "type": "function"
    },
    {
      "inputs": [
        {
          "internalType": "uint256",
          "name": "tokenId",
          "type": "uint256"
        },
        {
          "internalType": "bool",
          "name": "sellable",
          "type": "bool"
        },
        {
          "internalType": "bool",
          "name": "egg",
          "type": "bool"
        },
        {
          "internalType": "uint8",
          "name": "tokenIdReproducable",
          "type": "uint8"
        }
      ],
      "name": "paramsMystic",
      "outputs": [],
      "stateMutability": "nonpayable",
      "type": "function"
    },
    {
      "inputs": [
        {
          "internalType": "uint8",
          "name": "maxNumber",
          "type": "uint8"
        }
      ],
      "name": "random",
      "outputs": [
        {
          "internalType": "uint8",
          "name": "",
          "type": "uint8"
        }
      ],
      "stateMutability": "nonpayable",
      "type": "function"
    }
  ],
  "bytecode": "0x608060405267016345785d8a000060075566470de4df820000600855662386f26fc100006009556000600a556000600b556000600c556000600d553480156200004757600080fd5b50604051620055f7380380620055f783398181016040528101906200006d9190620002bb565b818181600090805190602001906200008792919062000199565b508060019080519060200190620000a092919062000199565b505050620000c3620000b7620000cb60201b60201c565b620000d360201b60201c565b50506200045f565b600033905090565b6000600660009054906101000a900473ffffffffffffffffffffffffffffffffffffffff16905081600660006101000a81548173ffffffffffffffffffffffffffffffffffffffff021916908373ffffffffffffffffffffffffffffffffffffffff1602179055508173ffffffffffffffffffffffffffffffffffffffff168173ffffffffffffffffffffffffffffffffffffffff167f8be0079c531659141344cd1fd0a4f28419497f9722a3daafe3b4186f6b6457e060405160405180910390a35050565b828054620001a790620003cb565b90600052602060002090601f016020900481019282620001cb576000855562000217565b82601f10620001e657805160ff191683800117855562000217565b8280016001018555821562000217579182015b8281111562000216578251825591602001919060010190620001f9565b5b5090506200022691906200022a565b5090565b5b80821115620002455760008160009055506001016200022b565b5090565b6000620002606200025a8462000362565b6200032e565b9050828152602081018484840111156200027957600080fd5b6200028684828562000395565b509392505050565b600082601f830112620002a057600080fd5b8151620002b284826020860162000249565b91505092915050565b60008060408385031215620002cf57600080fd5b600083015167ffffffffffffffff811115620002ea57600080fd5b620002f8858286016200028e565b925050602083015167ffffffffffffffff8111156200031657600080fd5b62000324858286016200028e565b9150509250929050565b6000604051905081810181811067ffffffffffffffff8211171562000358576200035762000430565b5b8060405250919050565b600067ffffffffffffffff82111562000380576200037f62000430565b5b601f19601f8301169050602081019050919050565b60005b83811015620003b557808201518184015260208101905062000398565b83811115620003c5576000848401525b50505050565b60006002820490506001821680620003e457607f821691505b60208210811415620003fb57620003fa62000401565b5b50919050565b7f4e487b7100000000000000000000000000000000000000000000000000000000600052602260045260246000fd5b7f4e487b7100000000000000000000000000000000000000000000000000000000600052604160045260246000fd5b615188806200046f6000396000f3fe6080604052600436106101665760003560e01c80638082d330116100d1578063c1e037281161008a578063e0e0e2d311610064578063e0e0e2d31461053b578063e144c76f14610578578063e985e9c514610594578063f2fde38b146105d157610166565b8063c1e0372814610498578063c87b56dd146104d5578063ddef2b391461051257610166565b80638082d3301461038a57806382de8fe9146103b35780638da5cb5b146103f057806395d89b411461041b578063a22cb46514610446578063b88d4fde1461046f57610166565b806342966c681161012357806342966c681461028b5780634ba34b48146102b45780636352211e146102dd5780636ecd23061461031a57806370a0823114610336578063715018a61461037357610166565b806301ffc9a71461016b57806306fdde03146101a8578063081812fc146101d3578063095ea7b31461021057806323b872dd1461023957806342842e0e14610262575b600080fd5b34801561017757600080fd5b50610192600480360381019061018d91906139f1565b6105fa565b60405161019f9190614791565b60405180910390f35b3480156101b457600080fd5b506101bd6106dc565b6040516101ca91906147ac565b60405180910390f35b3480156101df57600080fd5b506101fa60048036038101906101f59190613a43565b61076e565b6040516102079190614708565b60405180910390f35b34801561021c57600080fd5b50610237600480360381019061023291906138ab565b6107f3565b005b34801561024557600080fd5b50610260600480360381019061025b91906137a5565b61090b565b005b34801561026e57600080fd5b50610289600480360381019061028491906137a5565b61096b565b005b34801561029757600080fd5b506102b260048036038101906102ad9190613a43565b61098b565b005b3480156102c057600080fd5b506102db60048036038101906102d69190613acf565b6109af565b005b3480156102e957600080fd5b5061030460048036038101906102ff9190613a43565b610a6b565b6040516103119190614708565b60405180910390f35b610334600480360381019061032f9190613b0b565b610b1d565b005b34801561034257600080fd5b5061035d60048036038101906103589190613740565b6110d4565b60405161036a9190614b50565b60405180910390f35b34801561037f57600080fd5b5061038861118c565b005b34801561039657600080fd5b506103b160048036038101906103ac919061394a565b611214565b005b3480156103bf57600080fd5b506103da60048036038101906103d59190613740565b611ab4565b6040516103e7919061476f565b60405180910390f35b3480156103fc57600080fd5b50610405611c7c565b6040516104129190614708565b60405180910390f35b34801561042757600080fd5b50610430611ca6565b60405161043d91906147ac565b60405180910390f35b34801561045257600080fd5b5061046d6004803603810190610468919061386f565b611d38565b005b34801561047b57600080fd5b50610496600480360381019061049191906137f4565b611d4e565b005b3480156104a457600080fd5b506104bf60048036038101906104ba9190613a43565b611db0565b6040516104cc9190614b2e565b60405180910390f35b3480156104e157600080fd5b506104fc60048036038101906104f79190613a43565b611f07565b60405161050991906147ac565b60405180910390f35b34801561051e57600080fd5b5061053960048036038101906105349190613a6c565b611fae565b005b34801561054757600080fd5b50610562600480360381019061055d9190613b0b565b6120ee565b60405161056f9190614b6b565b60405180910390f35b610592600480360381019061058d91906138e7565b612152565b005b3480156105a057600080fd5b506105bb60048036038101906105b69190613769565b6124f0565b6040516105c89190614791565b60405180910390f35b3480156105dd57600080fd5b506105f860048036038101906105f39190613740565b612584565b005b60007f80ac58cd000000000000000000000000000000000000000000000000000000007bffffffffffffffffffffffffffffffffffffffffffffffffffffffff1916827bffffffffffffffffffffffffffffffffffffffffffffffffffffffff191614806106c557507f5b5e139f000000000000000000000000000000000000000000000000000000007bffffffffffffffffffffffffffffffffffffffffffffffffffffffff1916827bffffffffffffffffffffffffffffffffffffffffffffffffffffffff1916145b806106d557506106d48261267c565b5b9050919050565b6060600080546106eb90614f01565b80601f016020809104026020016040519081016040528092919081815260200182805461071790614f01565b80156107645780601f1061073957610100808354040283529160200191610764565b820191906000526020600020905b81548152906001019060200180831161074757829003601f168201915b5050505050905090565b6000610779826126e6565b6107b8576040517f08c379a00000000000000000000000000000000000000000000000000000000081526004016107af9061496e565b60405180910390fd5b6004600083815260200190815260200160002060009054906101000a900473ffffffffffffffffffffffffffffffffffffffff169050919050565b60006107fe82610a6b565b90508073ffffffffffffffffffffffffffffffffffffffff168373ffffffffffffffffffffffffffffffffffffffff16141561086f576040517f08c379a000000000000000000000000000000000000000000000000000000000815260040161086690614a2e565b60405180910390fd5b8073ffffffffffffffffffffffffffffffffffffffff1661088e612752565b73ffffffffffffffffffffffffffffffffffffffff1614806108bd57506108bc816108b7612752565b6124f0565b5b6108fc576040517f08c379a00000000000000000000000000000000000000000000000000000000081526004016108f3906148ce565b60405180910390fd5b610906838361275a565b505050565b61091c610916612752565b82612813565b61095b576040517f08c379a000000000000000000000000000000000000000000000000000000000815260040161095290614ace565b60405180910390fd5b6109668383836128f1565b505050565b61098683838360405180602001604052806000815250611d4e565b505050565b61099481612b4d565b600c60008154809291906109a790614ed7565b919050555050565b6109b7612752565b73ffffffffffffffffffffffffffffffffffffffff166109d5611c7c565b73ffffffffffffffffffffffffffffffffffffffff1614610a2b576040517f08c379a0000000000000000000000000000000000000000000000000000000008152600401610a229061498e565b60405180910390fd5b60018160ff161415610a3f57816007819055505b60028160ff161415610a5357816008819055505b60038160ff161415610a6757816009819055505b5050565b6000806002600084815260200190815260200160002060009054906101000a900473ffffffffffffffffffffffffffffffffffffffff169050600073ffffffffffffffffffffffffffffffffffffffff168173ffffffffffffffffffffffffffffffffffffffff161415610b14576040517f08c379a0000000000000000000000000000000000000000000000000000000008152600401610b0b9061490e565b60405180910390fd5b80915050919050565b600060018260ff161480610b34575060028260ff16145b80610b42575060038260ff16145b610b81576040517f08c379a0000000000000000000000000000000000000000000000000000000008152600401610b78906148ae565b60405180910390fd5b60018260ff161415610bd757600754341015610bd2576040517f08c379a0000000000000000000000000000000000000000000000000000000008152600401610bc990614a0e565b60405180910390fd5b600890505b60028260ff161415610c2d57600854341015610c28576040517f08c379a0000000000000000000000000000000000000000000000000000000008152600401610c1f90614a8e565b60405180910390fd5b600490505b60038260ff161415610c8357600954341015610c7e576040517f08c379a0000000000000000000000000000000000000000000000000000000008152600401610c7590614b0e565b60405180910390fd5b600090505b6000600667ffffffffffffffff811115610cc6577f4e487b7100000000000000000000000000000000000000000000000000000000600052604160045260246000fd5b604051908082528060200260200182016040528015610cf45781602001602082028036833780820191505090505b50905081610d0260046120ee565b610d0c9190614d1e565b81600081518110610d46577f4e487b7100000000000000000000000000000000000000000000000000000000600052603260045260246000fd5b602002602001019060ff16908160ff168152505081610d6560046120ee565b610d6f9190614d1e565b81600181518110610da9577f4e487b7100000000000000000000000000000000000000000000000000000000600052603260045260246000fd5b602002602001019060ff16908160ff168152505081610dc860046120ee565b610dd29190614d1e565b81600281518110610e0c577f4e487b7100000000000000000000000000000000000000000000000000000000600052603260045260246000fd5b602002602001019060ff16908160ff168152505081610e2b60046120ee565b610e359190614d1e565b81600381518110610e6f577f4e487b7100000000000000000000000000000000000000000000000000000000600052603260045260246000fd5b602002602001019060ff16908160ff168152505081610e8e60046120ee565b610e989190614d1e565b81600481518110610ed2577f4e487b7100000000000000000000000000000000000000000000000000000000600052603260045260246000fd5b602002602001019060ff16908160ff168152505081610ef160046120ee565b610efb9190614d1e565b81600581518110610f35577f4e487b7100000000000000000000000000000000000000000000000000000000600052603260045260246000fd5b602002602001019060ff16908160ff1681525050604051806101200160405280600060ff168152602001600060ff168152602001600060ff1681526020018281526020016000151581526020016001151581526020014281526020013481526020016000815250600e6000600b54815260200190815260200160002060008201518160000160006101000a81548160ff021916908360ff16021790555060208201518160000160016101000a81548160ff021916908360ff16021790555060408201518160000160026101000a81548160ff021916908360ff16021790555060608201518160010190805190602001906110309291906134a7565b5060808201518160020160006101000a81548160ff02191690831515021790555060a08201518160020160016101000a81548160ff02191690831515021790555060c0820151816003015560e08201518160040155610100820151816005015590505061109f33600b54612c5e565b600b60008154809291906110b290614f33565b9190505550600c60008154809291906110ca90614f33565b9190505550505050565b60008073ffffffffffffffffffffffffffffffffffffffff168273ffffffffffffffffffffffffffffffffffffffff161415611145576040517f08c379a000000000000000000000000000000000000000000000000000000000815260040161113c906148ee565b60405180910390fd5b600360008373ffffffffffffffffffffffffffffffffffffffff1673ffffffffffffffffffffffffffffffffffffffff168152602001908152602001600020549050919050565b611194612752565b73ffffffffffffffffffffffffffffffffffffffff166111b2611c7c565b73ffffffffffffffffffffffffffffffffffffffff1614611208576040517f08c379a00000000000000000000000000000000000000000000000000000000081526004016111ff9061498e565b60405180910390fd5b6112126000612c7c565b565b6000600e6000868152602001908152602001600020600301541415801561125257506000600e60008381526020019081526020016000206003015414155b611291576040517f08c379a0000000000000000000000000000000000000000000000000000000008152600401611288906147ee565b60405180910390fd5b600e600082815260200190815260200160002060000160019054906101000a900460ff1660ff1684141580156112ed5750600e600082815260200190815260200160002060000160029054906101000a900460ff1660ff168414155b801561131f5750600e600085815260200190815260200160002060000160019054906101000a900460ff1660ff168114155b80156113515750600e600085815260200190815260200160002060000160029054906101000a900460ff1660ff168414155b80156113a95750600e600082815260200190815260200160002060000160029054906101000a900460ff1660ff16600e600086815260200190815260200160002060000160029054906101000a900460ff1660ff1614155b80156114015750600e600082815260200190815260200160002060000160019054906101000a900460ff1660ff16600e600086815260200190815260200160002060000160029054906101000a900460ff1660ff1614155b80156114595750600e600082815260200190815260200160002060000160029054906101000a900460ff1660ff16600e600086815260200190815260200160002060000160019054906101000a900460ff1660ff1614155b80156114b15750600e600082815260200190815260200160002060000160019054906101000a900460ff1660ff16600e600086815260200190815260200160002060000160019054906101000a900460ff1660ff1614155b8061157857506000600e600083815260200190815260200160002060000160019054906101000a900460ff1660ff1614801561151357506000600e600083815260200190815260200160002060000160029054906101000a900460ff1660ff16145b801561154557506000600e600086815260200190815260200160002060000160019054906101000a900460ff1660ff16145b801561157757506000600e600086815260200190815260200160002060000160029054906101000a900460ff1660ff16145b5b6115b7576040517f08c379a00000000000000000000000000000000000000000000000000000000081526004016115ae90614aae565b60405180910390fd5b83600e60008381526020019081526020016000206005015414801561160f57503373ffffffffffffffffffffffffffffffffffffffff166115f785610a6b565b73ffffffffffffffffffffffffffffffffffffffff16145b801561164e57508173ffffffffffffffffffffffffffffffffffffffff1661163682610a6b565b73ffffffffffffffffffffffffffffffffffffffff16145b801561168057506003600e600083815260200190815260200160002060000160009054906101000a900460ff1660ff16105b80156116b257506003600e600086815260200190815260200160002060000160009054906101000a900460ff1660ff16105b6116f1576040517f08c379a00000000000000000000000000000000000000000000000000000000081526004016116e890614a6e565b60405180910390fd5b604051806101200160405280600060ff168152602001600060ff168152602001600060ff168152602001868152602001600015158152602001600115158152602001428152602001600e60008781526020019081526020016000206004015481526020016000815250600e6000600b54815260200190815260200160002060008201518160000160006101000a81548160ff021916908360ff16021790555060208201518160000160016101000a81548160ff021916908360ff16021790555060408201518160000160026101000a81548160ff021916908360ff16021790555060608201518160010190805190602001906117ee9291906134a7565b5060808201518160020160006101000a81548160ff02191690831515021790555060a08201518160020160016101000a81548160ff02191690831515021790555060c0820151816003015560e08201518160040155610100820151816005015590505061185d33600b54612c5e565b600b600081548092919061187090614f33565b9190505550604051806101200160405280600060ff168152602001600060ff168152602001600060ff168152602001848152602001600015158152602001600115158152602001428152602001600e60008481526020019081526020016000206004015481526020016000815250600e6000600b54815260200190815260200160002060008201518160000160006101000a81548160ff021916908360ff16021790555060208201518160000160016101000a81548160ff021916908360ff16021790555060408201518160000160026101000a81548160ff021916908360ff16021790555060608201518160010190805190602001906119729291906134a7565b5060808201518160020160006101000a81548160ff02191690831515021790555060a08201518160020160016101000a81548160ff02191690831515021790555060c0820151816003015560e0820151816004015561010082015181600501559050506119e182600b54612c5e565b600b60008154809291906119f490614f33565b9190505550600e6000858152602001908152602001600020600001600081819054906101000a900460ff1680929190611a2c90614f7c565b91906101000a81548160ff021916908360ff16021790555050600e6000828152602001908152602001600020600001600081819054906101000a900460ff1680929190611a7890614f7c565b91906101000a81548160ff021916908360ff160217905550506000600e6000838152602001908152602001600020600501819055505050505050565b60606000611ac1836110d4565b90506000811415611b4457600067ffffffffffffffff811115611b0d577f4e487b7100000000000000000000000000000000000000000000000000000000600052604160045260246000fd5b604051908082528060200260200182016040528015611b3b5781602001602082028036833780820191505090505b50915050611c77565b60008167ffffffffffffffff811115611b86577f4e487b7100000000000000000000000000000000000000000000000000000000600052604160045260246000fd5b604051908082528060200260200182016040528015611bb45781602001602082028036833780820191505090505b5090506000600b5490506000805b82811015611c6e578673ffffffffffffffffffffffffffffffffffffffff16611bea82610a6b565b73ffffffffffffffffffffffffffffffffffffffff161415611c5b5780848381518110611c40577f4e487b7100000000000000000000000000000000000000000000000000000000600052603260045260246000fd5b6020026020010181815250508180611c5790614f33565b9250505b8080611c6690614f33565b915050611bc2565b83955050505050505b919050565b6000600660009054906101000a900473ffffffffffffffffffffffffffffffffffffffff16905090565b606060018054611cb590614f01565b80601f0160208091040260200160405190810160405280929190818152602001828054611ce190614f01565b8015611d2e5780601f10611d0357610100808354040283529160200191611d2e565b820191906000526020600020905b815481529060010190602001808311611d1157829003601f168201915b5050505050905090565b611d4a611d43612752565b8383612d42565b5050565b611d5f611d59612752565b83612813565b611d9e576040517f08c379a0000000000000000000000000000000000000000000000000000000008152600401611d9590614ace565b60405180910390fd5b611daa84848484612eaf565b50505050565b611db861354e565b600e6000838152602001908152602001600020604051806101200160405290816000820160009054906101000a900460ff1660ff1660ff1681526020016000820160019054906101000a900460ff1660ff1660ff1681526020016000820160029054906101000a900460ff1660ff1660ff16815260200160018201805480602002602001604051908101604052809291908181526020018280548015611ea357602002820191906000526020600020906000905b82829054906101000a900460ff1660ff1681526020019060010190602082600001049283019260010382029150808411611e6c5790505b505050505081526020016002820160009054906101000a900460ff161515151581526020016002820160019054906101000a900460ff1615151515815260200160038201548152602001600482015481526020016005820154815250509050919050565b6060611f12826126e6565b611f51576040517f08c379a0000000000000000000000000000000000000000000000000000000008152600401611f48906149ee565b60405180910390fd5b6000611f5b612f0b565b90506000815111611f7b5760405180602001604052806000815250611fa6565b80611f8584612f22565b604051602001611f969291906146a7565b6040516020818303038152906040525b915050919050565b3373ffffffffffffffffffffffffffffffffffffffff16611fce85610a6b565b73ffffffffffffffffffffffffffffffffffffffff1614612024576040517f08c379a000000000000000000000000000000000000000000000000000000000815260040161201b90614aee565b60405180910390fd5b82600e600086815260200190815260200160002060020160006101000a81548160ff021916908315150217905550811515600e600086815260200190815260200160002060020160019054906101000a900460ff1615151461209c5742600e6000868152602001908152602001600020600301819055505b81600e600086815260200190815260200160002060020160016101000a81548160ff0219169083151502179055508060ff16600e60008681526020019081526020016000206005018190555050505050565b6000808260ff164233600a5460405160200161210c939291906146cb565b6040516020818303038152906040528051906020012060001c61212f9190614fd4565b9050600a600081548092919061214490614f33565b919050555080915050919050565b34600d546121609190614cc8565b600d819055506000600e6000858152602001908152602001600020604051806101200160405290816000820160009054906101000a900460ff1660ff1660ff1681526020016000820160019054906101000a900460ff1660ff1660ff1681526020016000820160029054906101000a900460ff1660ff1660ff1681526020016001820180548060200260200160405190810160405280929190818152602001828054801561225357602002820191906000526020600020906000905b82829054906101000a900460ff1660ff168152602001906001019060208260000104928301926001038202915080841161221c5790505b505050505081526020016002820160009054906101000a900460ff161515151581526020016002820160019054906101000a900460ff16151515158152602001600382015481526020016004820154815260200160058201548152505090506000831461230d57828160e001516122ca9190614d86565b34101561230c576040517f08c379a0000000000000000000000000000000000000000000000000000000008152600401612303906149ce565b60405180910390fd5b5b81612318578461231a565b335b73ffffffffffffffffffffffffffffffffffffffff1661233985610a6b565b73ffffffffffffffffffffffffffffffffffffffff161415612390576040517f08c379a00000000000000000000000000000000000000000000000000000000081526004016123879061492e565b60405180910390fd5b6000600b5490506000805b8281101561244057846123ae57876123b0565b335b73ffffffffffffffffffffffffffffffffffffffff166123cf82610a6b565b73ffffffffffffffffffffffffffffffffffffffff16148015612419575060001515600e600083815260200190815260200160002060020160019054906101000a900460ff161515145b1561242d57818061242990614f33565b9250505b808061243890614f33565b91505061239b565b6001821115612484576040517f08c379a000000000000000000000000000000000000000000000000000000000815260040161247b90614a4e565b60405180910390fd5b6000600e600083815260200190815260200160002060020160006101000a81548160ff0219169083151502179055506124e6856124c157336124c3565b885b866124ce57896124d0565b335b8960405180602001604052806000815250612eaf565b5050505050505050565b6000600560008473ffffffffffffffffffffffffffffffffffffffff1673ffffffffffffffffffffffffffffffffffffffff16815260200190815260200160002060008373ffffffffffffffffffffffffffffffffffffffff1673ffffffffffffffffffffffffffffffffffffffff16815260200190815260200160002060009054906101000a900460ff16905092915050565b61258c612752565b73ffffffffffffffffffffffffffffffffffffffff166125aa611c7c565b73ffffffffffffffffffffffffffffffffffffffff1614612600576040517f08c379a00000000000000000000000000000000000000000000000000000000081526004016125f79061498e565b60405180910390fd5b600073ffffffffffffffffffffffffffffffffffffffff168173ffffffffffffffffffffffffffffffffffffffff161415612670576040517f08c379a00000000000000000000000000000000000000000000000000000000081526004016126679061480e565b60405180910390fd5b61267981612c7c565b50565b60007f01ffc9a7000000000000000000000000000000000000000000000000000000007bffffffffffffffffffffffffffffffffffffffffffffffffffffffff1916827bffffffffffffffffffffffffffffffffffffffffffffffffffffffff1916149050919050565b60008073ffffffffffffffffffffffffffffffffffffffff166002600084815260200190815260200160002060009054906101000a900473ffffffffffffffffffffffffffffffffffffffff1673ffffffffffffffffffffffffffffffffffffffff1614159050919050565b600033905090565b816004600083815260200190815260200160002060006101000a81548173ffffffffffffffffffffffffffffffffffffffff021916908373ffffffffffffffffffffffffffffffffffffffff160217905550808273ffffffffffffffffffffffffffffffffffffffff166127cd83610a6b565b73ffffffffffffffffffffffffffffffffffffffff167f8c5be1e5ebec7d5bd14f71427d1e84f3dd0314c0f7b2291e5b200ac8c7c3b92560405160405180910390a45050565b600061281e826126e6565b61285d576040517f08c379a00000000000000000000000000000000000000000000000000000000081526004016128549061488e565b60405180910390fd5b600061286883610a6b565b90508073ffffffffffffffffffffffffffffffffffffffff168473ffffffffffffffffffffffffffffffffffffffff1614806128d757508373ffffffffffffffffffffffffffffffffffffffff166128bf8461076e565b73ffffffffffffffffffffffffffffffffffffffff16145b806128e857506128e781856124f0565b5b91505092915050565b8273ffffffffffffffffffffffffffffffffffffffff1661291182610a6b565b73ffffffffffffffffffffffffffffffffffffffff1614612967576040517f08c379a000000000000000000000000000000000000000000000000000000000815260040161295e906149ae565b60405180910390fd5b600073ffffffffffffffffffffffffffffffffffffffff168273ffffffffffffffffffffffffffffffffffffffff1614156129d7576040517f08c379a00000000000000000000000000000000000000000000000000000000081526004016129ce9061484e565b60405180910390fd5b6129e28383836130cf565b6129ed60008261275a565b6001600360008573ffffffffffffffffffffffffffffffffffffffff1673ffffffffffffffffffffffffffffffffffffffff1681526020019081526020016000206000828254612a3d9190614de0565b925050819055506001600360008473ffffffffffffffffffffffffffffffffffffffff1673ffffffffffffffffffffffffffffffffffffffff1681526020019081526020016000206000828254612a949190614cc8565b92505081905550816002600083815260200190815260200160002060006101000a81548173ffffffffffffffffffffffffffffffffffffffff021916908373ffffffffffffffffffffffffffffffffffffffff160217905550808273ffffffffffffffffffffffffffffffffffffffff168473ffffffffffffffffffffffffffffffffffffffff167fddf252ad1be2c89b69c2b068fc378daa952ba7f163c4a11628f55a4df523b3ef60405160405180910390a4505050565b6000612b5882610a6b565b9050612b66816000846130cf565b612b7160008361275a565b6001600360008373ffffffffffffffffffffffffffffffffffffffff1673ffffffffffffffffffffffffffffffffffffffff1681526020019081526020016000206000828254612bc19190614de0565b925050819055506002600083815260200190815260200160002060006101000a81549073ffffffffffffffffffffffffffffffffffffffff021916905581600073ffffffffffffffffffffffffffffffffffffffff168273ffffffffffffffffffffffffffffffffffffffff167fddf252ad1be2c89b69c2b068fc378daa952ba7f163c4a11628f55a4df523b3ef60405160405180910390a45050565b612c788282604051806020016040528060008152506130d4565b5050565b6000600660009054906101000a900473ffffffffffffffffffffffffffffffffffffffff16905081600660006101000a81548173ffffffffffffffffffffffffffffffffffffffff021916908373ffffffffffffffffffffffffffffffffffffffff1602179055508173ffffffffffffffffffffffffffffffffffffffff168173ffffffffffffffffffffffffffffffffffffffff167f8be0079c531659141344cd1fd0a4f28419497f9722a3daafe3b4186f6b6457e060405160405180910390a35050565b8173ffffffffffffffffffffffffffffffffffffffff168373ffffffffffffffffffffffffffffffffffffffff161415612db1576040517f08c379a0000000000000000000000000000000000000000000000000000000008152600401612da89061486e565b60405180910390fd5b80600560008573ffffffffffffffffffffffffffffffffffffffff1673ffffffffffffffffffffffffffffffffffffffff16815260200190815260200160002060008473ffffffffffffffffffffffffffffffffffffffff1673ffffffffffffffffffffffffffffffffffffffff16815260200190815260200160002060006101000a81548160ff0219169083151502179055508173ffffffffffffffffffffffffffffffffffffffff168373ffffffffffffffffffffffffffffffffffffffff167f17307eab39ab6107e8899845ad3d59bd9653f200f220920489ca2b5937696c3183604051612ea29190614791565b60405180910390a3505050565b612eba8484846128f1565b612ec68484848461312f565b612f05576040517f08c379a0000000000000000000000000000000000000000000000000000000008152600401612efc906147ce565b60405180910390fd5b50505050565b606060405180602001604052806000815250905090565b60606000821415612f6a576040518060400160405280600181526020017f300000000000000000000000000000000000000000000000000000000000000081525090506130ca565b600082905060005b60008214612f9c578080612f8590614f33565b915050600a82612f959190614d55565b9150612f72565b60008167ffffffffffffffff811115612fde577f4e487b7100000000000000000000000000000000000000000000000000000000600052604160045260246000fd5b6040519080825280601f01601f1916602001820160405280156130105781602001600182028036833780820191505090505b5090505b600085146130c3576001826130299190614de0565b9150600a856130389190614fd4565b60306130449190614cc8565b60f81b818381518110613080577f4e487b7100000000000000000000000000000000000000000000000000000000600052603260045260246000fd5b60200101907effffffffffffffffffffffffffffffffffffffffffffffffffffffffffffff1916908160001a905350600a856130bc9190614d55565b9450613014565b8093505050505b919050565b505050565b6130de83836132c6565b6130eb600084848461312f565b61312a576040517f08c379a0000000000000000000000000000000000000000000000000000000008152600401613121906147ce565b60405180910390fd5b505050565b60006131508473ffffffffffffffffffffffffffffffffffffffff16613494565b156132b9578373ffffffffffffffffffffffffffffffffffffffff1663150b7a02613179612752565b8786866040518563ffffffff1660e01b815260040161319b9493929190614723565b602060405180830381600087803b1580156131b557600080fd5b505af19250505080156131e657506040513d601f19601f820116820180604052508101906131e39190613a1a565b60015b613269573d8060008114613216576040519150601f19603f3d011682016040523d82523d6000602084013e61321b565b606091505b50600081511415613261576040517f08c379a0000000000000000000000000000000000000000000000000000000008152600401613258906147ce565b60405180910390fd5b805181602001fd5b63150b7a0260e01b7bffffffffffffffffffffffffffffffffffffffffffffffffffffffff1916817bffffffffffffffffffffffffffffffffffffffffffffffffffffffff1916149150506132be565b600190505b949350505050565b600073ffffffffffffffffffffffffffffffffffffffff168273ffffffffffffffffffffffffffffffffffffffff161415613336576040517f08c379a000000000000000000000000000000000000000000000000000000000815260040161332d9061494e565b60405180910390fd5b61333f816126e6565b1561337f576040517f08c379a00000000000000000000000000000000000000000000000000000000081526004016133769061482e565b60405180910390fd5b61338b600083836130cf565b6001600360008473ffffffffffffffffffffffffffffffffffffffff1673ffffffffffffffffffffffffffffffffffffffff16815260200190815260200160002060008282546133db9190614cc8565b92505081905550816002600083815260200190815260200160002060006101000a81548173ffffffffffffffffffffffffffffffffffffffff021916908373ffffffffffffffffffffffffffffffffffffffff160217905550808273ffffffffffffffffffffffffffffffffffffffff16600073ffffffffffffffffffffffffffffffffffffffff167fddf252ad1be2c89b69c2b068fc378daa952ba7f163c4a11628f55a4df523b3ef60405160405180910390a45050565b600080823b905060008111915050919050565b82805482825590600052602060002090601f0160209004810192821561353d5791602002820160005b8382111561350e57835183826101000a81548160ff021916908360ff16021790555092602001926001016020816000010492830192600103026134d0565b801561353b5782816101000a81549060ff021916905560010160208160000104928301926001030261350e565b505b50905061354a91906135a7565b5090565b604051806101200160405280600060ff168152602001600060ff168152602001600060ff168152602001606081526020016000151581526020016000151581526020016000815260200160008152602001600081525090565b5b808211156135c05760008160009055506001016135a8565b5090565b60006135d76135d284614bb7565b614b86565b905080838252602082019050828560208602820111156135f657600080fd5b60005b85811015613626578161360c888261372b565b8452602084019350602083019250506001810190506135f9565b5050509392505050565b600061364361363e84614be3565b614b86565b90508281526020810184848401111561365b57600080fd5b613666848285614e95565b509392505050565b60008135905061367d816150df565b92915050565b600082601f83011261369457600080fd5b81356136a48482602086016135c4565b91505092915050565b6000813590506136bc816150f6565b92915050565b6000813590506136d18161510d565b92915050565b6000815190506136e68161510d565b92915050565b600082601f8301126136fd57600080fd5b813561370d848260208601613630565b91505092915050565b60008135905061372581615124565b92915050565b60008135905061373a8161513b565b92915050565b60006020828403121561375257600080fd5b60006137608482850161366e565b91505092915050565b6000806040838503121561377c57600080fd5b600061378a8582860161366e565b925050602061379b8582860161366e565b9150509250929050565b6000806000606084860312156137ba57600080fd5b60006137c88682870161366e565b93505060206137d98682870161366e565b92505060406137ea86828701613716565b9150509250925092565b6000806000806080858703121561380a57600080fd5b60006138188782880161366e565b94505060206138298782880161366e565b935050604061383a87828801613716565b925050606085013567ffffffffffffffff81111561385757600080fd5b613863878288016136ec565b91505092959194509250565b6000806040838503121561388257600080fd5b60006138908582860161366e565b92505060206138a1858286016136ad565b9150509250929050565b600080604083850312156138be57600080fd5b60006138cc8582860161366e565b92505060206138dd85828601613716565b9150509250929050565b600080600080608085870312156138fd57600080fd5b600061390b8782880161366e565b945050602061391c87828801613716565b935050604061392d87828801613716565b925050606061393e878288016136ad565b91505092959194509250565b600080600080600060a0868803121561396257600080fd5b600086013567ffffffffffffffff81111561397c57600080fd5b61398888828901613683565b955050602061399988828901613716565b945050604086013567ffffffffffffffff8111156139b657600080fd5b6139c288828901613683565b93505060606139d38882890161366e565b92505060806139e488828901613716565b9150509295509295909350565b600060208284031215613a0357600080fd5b6000613a11848285016136c2565b91505092915050565b600060208284031215613a2c57600080fd5b6000613a3a848285016136d7565b91505092915050565b600060208284031215613a5557600080fd5b6000613a6384828501613716565b91505092915050565b60008060008060808587031215613a8257600080fd5b6000613a9087828801613716565b9450506020613aa1878288016136ad565b9350506040613ab2878288016136ad565b9250506060613ac38782880161372b565b91505092959194509250565b60008060408385031215613ae257600080fd5b6000613af085828601613716565b9250506020613b018582860161372b565b9150509250929050565b600060208284031215613b1d57600080fd5b6000613b2b8482850161372b565b91505092915050565b6000613b408383614654565b60208301905092915050565b6000613b588383614689565b60208301905092915050565b613b6d81614e14565b82525050565b613b84613b7f82614e14565b614fa6565b82525050565b6000613b9582614c33565b613b9f8185614c79565b9350613baa83614c13565b8060005b83811015613bdb578151613bc28882613b34565b9750613bcd83614c5f565b925050600181019050613bae565b5085935050505092915050565b6000613bf382614c3e565b613bfd8185614c8a565b9350613c0883614c23565b8060005b83811015613c39578151613c208882613b4c565b9750613c2b83614c6c565b925050600181019050613c0c565b5085935050505092915050565b613c4f81614e26565b82525050565b613c5e81614e26565b82525050565b6000613c6f82614c49565b613c798185614c9b565b9350613c89818560208601614ea4565b613c92816150c1565b840191505092915050565b6000613ca882614c54565b613cb28185614cac565b9350613cc2818560208601614ea4565b613ccb816150c1565b840191505092915050565b6000613ce182614c54565b613ceb8185614cbd565b9350613cfb818560208601614ea4565b80840191505092915050565b6000613d14603283614cac565b91507f4552433732313a207472616e7366657220746f206e6f6e20455243373231526560008301527f63656976657220696d706c656d656e74657200000000000000000000000000006020830152604082019050919050565b6000613d7a601083614cac565b91507f4d7973746963206e6f74206578697374000000000000000000000000000000006000830152602082019050919050565b6000613dba602683614cac565b91507f4f776e61626c653a206e6577206f776e657220697320746865207a65726f206160008301527f64647265737300000000000000000000000000000000000000000000000000006020830152604082019050919050565b6000613e20601c83614cac565b91507f4552433732313a20746f6b656e20616c7265616479206d696e746564000000006000830152602082019050919050565b6000613e60602483614cac565b91507f4552433732313a207472616e7366657220746f20746865207a65726f2061646460008301527f72657373000000000000000000000000000000000000000000000000000000006020830152604082019050919050565b6000613ec6601983614cac565b91507f4552433732313a20617070726f766520746f2063616c6c6572000000000000006000830152602082019050919050565b6000613f06602c83614cac565b91507f4552433732313a206f70657261746f7220717565727920666f72206e6f6e657860008301527f697374656e7420746f6b656e00000000000000000000000000000000000000006020830152604082019050919050565b6000613f6c600d83614cac565b91507f54797065206e6f7420676f6f64000000000000000000000000000000000000006000830152602082019050919050565b6000613fac603883614cac565b91507f4552433732313a20617070726f76652063616c6c6572206973206e6f74206f7760008301527f6e6572206e6f7220617070726f76656420666f7220616c6c00000000000000006020830152604082019050919050565b6000614012602a83614cac565b91507f4552433732313a2062616c616e636520717565727920666f7220746865207a6560008301527f726f2061646472657373000000000000000000000000000000000000000000006020830152604082019050919050565b6000614078602983614cac565b91507f4552433732313a206f776e657220717565727920666f72206e6f6e657869737460008301527f656e7420746f6b656e00000000000000000000000000000000000000000000006020830152604082019050919050565b60006140de600d83614cac565b91507f416c7265616479204f776e6564000000000000000000000000000000000000006000830152602082019050919050565b600061411e602083614cac565b91507f4552433732313a206d696e7420746f20746865207a65726f20616464726573736000830152602082019050919050565b600061415e602c83614cac565b91507f4552433732313a20617070726f76656420717565727920666f72206e6f6e657860008301527f697374656e7420746f6b656e00000000000000000000000000000000000000006020830152604082019050919050565b60006141c4602083614cac565b91507f4f776e61626c653a2063616c6c6572206973206e6f7420746865206f776e65726000830152602082019050919050565b6000614204602983614cac565b91507f4552433732313a207472616e73666572206f6620746f6b656e2074686174206960008301527f73206e6f74206f776e00000000000000000000000000000000000000000000006020830152604082019050919050565b600061426a601783614cac565b91507f496e73756666696369656e7420666f6e64732073656e740000000000000000006000830152602082019050919050565b60006142aa602f83614cac565b91507f4552433732314d657461646174613a2055524920717565727920666f72206e6f60008301527f6e6578697374656e7420746f6b656e00000000000000000000000000000000006020830152604082019050919050565b6000614310601083614cac565b91507f302e3120455448207265717569726564000000000000000000000000000000006000830152602082019050919050565b6000614350602183614cac565b91507f4552433732313a20617070726f76616c20746f2063757272656e74206f776e6560008301527f72000000000000000000000000000000000000000000000000000000000000006020830152604082019050919050565b60006143b6601583614cac565b91507f416c726561647920686176652061206d797374696300000000000000000000006000830152602082019050919050565b60006143f6601783614cac565b91507f546f6f206d616e7920726570726f647563652074696d650000000000000000006000830152602082019050919050565b6000614436601183614cac565b91507f302e3032204554482072657175697265640000000000000000000000000000006000830152602082019050919050565b6000614476601283614cac565b91507f506172656e746c7920746f6f20636c6f736500000000000000000000000000006000830152602082019050919050565b60006144b6603183614cac565b91507f4552433732313a207472616e736665722063616c6c6572206973206e6f74206f60008301527f776e6572206e6f7220617070726f7665640000000000000000000000000000006020830152604082019050919050565b600061451c600f83614cac565b91507f4e6f7420596f7572206d797374696300000000000000000000000000000000006000830152602082019050919050565b600061455c601183614cac565b91507f302e3031204554482072657175697265640000000000000000000000000000006000830152602082019050919050565b6000610120830160008301516145a86000860182614689565b5060208301516145bb6020860182614689565b5060408301516145ce6040860182614689565b50606083015184820360608601526145e68282613be8565b91505060808301516145fb6080860182613c46565b5060a083015161460e60a0860182613c46565b5060c083015161462160c0860182614654565b5060e083015161463460e0860182614654565b50610100830151614649610100860182614654565b508091505092915050565b61465d81614e7e565b82525050565b61466c81614e7e565b82525050565b61468361467e82614e7e565b614fca565b82525050565b61469281614e88565b82525050565b6146a181614e88565b82525050565b60006146b38285613cd6565b91506146bf8284613cd6565b91508190509392505050565b60006146d78286614672565b6020820191506146e78285613b73565b6014820191506146f78284614672565b602082019150819050949350505050565b600060208201905061471d6000830184613b64565b92915050565b60006080820190506147386000830187613b64565b6147456020830186613b64565b6147526040830185614663565b81810360608301526147648184613c64565b905095945050505050565b600060208201905081810360008301526147898184613b8a565b905092915050565b60006020820190506147a66000830184613c55565b92915050565b600060208201905081810360008301526147c68184613c9d565b905092915050565b600060208201905081810360008301526147e781613d07565b9050919050565b6000602082019050818103600083015261480781613d6d565b9050919050565b6000602082019050818103600083015261482781613dad565b9050919050565b6000602082019050818103600083015261484781613e13565b9050919050565b6000602082019050818103600083015261486781613e53565b9050919050565b6000602082019050818103600083015261488781613eb9565b9050919050565b600060208201905081810360008301526148a781613ef9565b9050919050565b600060208201905081810360008301526148c781613f5f565b9050919050565b600060208201905081810360008301526148e781613f9f565b9050919050565b6000602082019050818103600083015261490781614005565b9050919050565b600060208201905081810360008301526149278161406b565b9050919050565b60006020820190508181036000830152614947816140d1565b9050919050565b6000602082019050818103600083015261496781614111565b9050919050565b6000602082019050818103600083015261498781614151565b9050919050565b600060208201905081810360008301526149a7816141b7565b9050919050565b600060208201905081810360008301526149c7816141f7565b9050919050565b600060208201905081810360008301526149e78161425d565b9050919050565b60006020820190508181036000830152614a078161429d565b9050919050565b60006020820190508181036000830152614a2781614303565b9050919050565b60006020820190508181036000830152614a4781614343565b9050919050565b60006020820190508181036000830152614a67816143a9565b9050919050565b60006020820190508181036000830152614a87816143e9565b9050919050565b60006020820190508181036000830152614aa781614429565b9050919050565b60006020820190508181036000830152614ac781614469565b9050919050565b60006020820190508181036000830152614ae7816144a9565b9050919050565b60006020820190508181036000830152614b078161450f565b9050919050565b60006020820190508181036000830152614b278161454f565b9050919050565b60006020820190508181036000830152614b48818461458f565b905092915050565b6000602082019050614b656000830184614663565b92915050565b6000602082019050614b806000830184614698565b92915050565b6000604051905081810181811067ffffffffffffffff82111715614bad57614bac615092565b5b8060405250919050565b600067ffffffffffffffff821115614bd257614bd1615092565b5b602082029050602081019050919050565b600067ffffffffffffffff821115614bfe57614bfd615092565b5b601f19601f8301169050602081019050919050565b6000819050602082019050919050565b6000819050602082019050919050565b600081519050919050565b600081519050919050565b600081519050919050565b600081519050919050565b6000602082019050919050565b6000602082019050919050565b600082825260208201905092915050565b600082825260208201905092915050565b600082825260208201905092915050565b600082825260208201905092915050565b600081905092915050565b6000614cd382614e7e565b9150614cde83614e7e565b9250827fffffffffffffffffffffffffffffffffffffffffffffffffffffffffffffffff03821115614d1357614d12615005565b5b828201905092915050565b6000614d2982614e88565b9150614d3483614e88565b92508260ff03821115614d4a57614d49615005565b5b828201905092915050565b6000614d6082614e7e565b9150614d6b83614e7e565b925082614d7b57614d7a615034565b5b828204905092915050565b6000614d9182614e7e565b9150614d9c83614e7e565b9250817fffffffffffffffffffffffffffffffffffffffffffffffffffffffffffffffff0483118215151615614dd557614dd4615005565b5b828202905092915050565b6000614deb82614e7e565b9150614df683614e7e565b925082821015614e0957614e08615005565b5b828203905092915050565b6000614e1f82614e5e565b9050919050565b60008115159050919050565b60007fffffffff0000000000000000000000000000000000000000000000000000000082169050919050565b600073ffffffffffffffffffffffffffffffffffffffff82169050919050565b6000819050919050565b600060ff82169050919050565b82818337600083830152505050565b60005b83811015614ec2578082015181840152602081019050614ea7565b83811115614ed1576000848401525b50505050565b6000614ee282614e7e565b91506000821415614ef657614ef5615005565b5b600182039050919050565b60006002820490506001821680614f1957607f821691505b60208210811415614f2d57614f2c615063565b5b50919050565b6000614f3e82614e7e565b91507fffffffffffffffffffffffffffffffffffffffffffffffffffffffffffffffff821415614f7157614f70615005565b5b600182019050919050565b6000614f8782614e88565b915060ff821415614f9b57614f9a615005565b5b600182019050919050565b6000614fb182614fb8565b9050919050565b6000614fc3826150d2565b9050919050565b6000819050919050565b6000614fdf82614e7e565b9150614fea83614e7e565b925082614ffa57614ff9615034565b5b828206905092915050565b7f4e487b7100000000000000000000000000000000000000000000000000000000600052601160045260246000fd5b7f4e487b7100000000000000000000000000000000000000000000000000000000600052601260045260246000fd5b7f4e487b7100000000000000000000000000000000000000000000000000000000600052602260045260246000fd5b7f4e487b7100000000000000000000000000000000000000000000000000000000600052604160045260246000fd5b6000601f19601f8301169050919050565b60008160601b9050919050565b6150e881614e14565b81146150f357600080fd5b50565b6150ff81614e26565b811461510a57600080fd5b50565b61511681614e32565b811461512157600080fd5b50565b61512d81614e7e565b811461513857600080fd5b50565b61514481614e88565b811461514f57600080fd5b5056fea26469706673582212201aa9e7de71097fe4f4a02b48e0337ceed7aff4ecf09ca82a1f7c0d865f08f94a64736f6c63430008000033",
  "immutableReferences": {},
  "source": "pragma solidity 0.8.0;\r\n\r\nimport '../node_modules/@openzeppelin/contracts/token/ERC721/ERC721.sol';\r\nimport '../node_modules/@openzeppelin/contracts/access/Ownable.sol';\r\n\r\ncontract DelegateContract {\r\n    address addressContract;\r\n\r\n    function setAddress(address _address) external{\r\n        addressContract = _address;\r\n    }\r\n\r\n}\r\n\r\ncontract Token is ERC721, Ownable{\r\n    /**\r\n    Ici on crer l'objet Token avec lequel on remplira des variables\r\n     */\r\n    struct  Mystic {\r\n        uint8 numberReproduce;\r\n        uint8 mother;\r\n        uint8 father;\r\n        uint8[] parts;\r\n        bool inSell;\r\n        bool egg;\r\n        uint256 createdAt;\r\n        uint256 price;\r\n        uint256 tokenIdReproducable;\r\n    }\r\n\r\n    uint256 priceEggOne = 100000000000000000;\r\n    uint256 priceEggTwo= 20000000000000000;\r\n    uint256 priceEggThree = 10000000000000000;\r\n    uint256 nonce = 0;\r\n    uint256 nextId = 0;//Le premier Id token et on incrmente a chaque cration\r\n    uint256 nbrMystic = 0;//Le nombre total de token\r\n    uint256 balance = 0;//Le nombre d'eth envoy sur le contrat\r\n\r\n    mapping( uint256 => Mystic ) private _tokenDetails;\r\n\r\n    constructor(string memory name, string memory symbol) ERC721(name, symbol){ }\r\n\r\n    /**\r\n    Fonction de cration de token\r\n     */\r\n    function mint(uint8 typeMint) public payable {//onlyOwner\r\n        uint8 bonus = 0;\r\n        require(typeMint == 1 || typeMint == 2 || typeMint == 3,\"Type not good\");\r\n        if(typeMint == 1){require(msg.value >= priceEggOne,\"0.1 ETH required\");bonus = 8;}\r\n        if(typeMint == 2){require(msg.value >= priceEggTwo,\"0.02 ETH required\");bonus = 4;}\r\n        if(typeMint == 3){require(msg.value >= priceEggThree,\"0.01 ETH required\");bonus = 0;}\r\n        uint8[] memory randomParts = new uint8[](6);\r\n        randomParts[0] = random(4)+bonus;\r\n        randomParts[1] = random(4)+bonus;\r\n        randomParts[2] = random(4)+bonus;\r\n        randomParts[3] = random(4)+bonus;\r\n        randomParts[4] = random(4)+bonus;\r\n        randomParts[5] = random(4)+bonus;\r\n        _tokenDetails[nextId] = Mystic(0,0,0,randomParts,false,true,block.timestamp,msg.value,0);\r\n        _safeMint(msg.sender, nextId);\r\n        nextId++;nbrMystic++;\r\n    }\r\n\r\n    /**\r\n    Quand meurs de veillesse ou jeter le burn\r\n     */\r\n    function priceEgg(uint256 price, uint8 typeEgg) public onlyOwner {\r\n        if(typeEgg==1) priceEggOne = price;\r\n        if(typeEgg==2) priceEggTwo = price;\r\n        if(typeEgg==3) priceEggThree = price;\r\n    }\r\n\r\n    /**\r\n    Quand meurs de veillesse ou jeter le burn\r\n     */\r\n    function burn(uint256 tokenId) public{\r\n        _burn(tokenId);\r\n        nbrMystic--;\r\n    }\r\n    \r\n    /*\r\n    faire l'alatoire depuis le front et mttre dans parts one et parts two\r\n    */\r\n    function reproduce( uint8[] memory partsOne, uint256 tokenIdOne, uint8[] memory partsTwo, address senderInvit, uint256 tokenIdTwo) public {\r\n        require(_tokenDetails[tokenIdOne].createdAt != 0 && _tokenDetails[tokenIdTwo].createdAt != 0,\"Mystic not exist\");\r\n        require((tokenIdOne != _tokenDetails[tokenIdTwo].mother && tokenIdOne != _tokenDetails[tokenIdTwo].father && tokenIdTwo != _tokenDetails[tokenIdOne].mother && tokenIdOne != _tokenDetails[tokenIdOne].father && _tokenDetails[tokenIdOne].father != _tokenDetails[tokenIdTwo].father && _tokenDetails[tokenIdOne].father != _tokenDetails[tokenIdTwo].mother && _tokenDetails[tokenIdOne].mother != _tokenDetails[tokenIdTwo].father && _tokenDetails[tokenIdOne].mother != _tokenDetails[tokenIdTwo].mother) || (_tokenDetails[tokenIdTwo].mother == 0 && _tokenDetails[tokenIdTwo].father == 0 && _tokenDetails[tokenIdOne].mother == 0 && _tokenDetails[tokenIdOne].father == 0) ,\"Parently too close\");\r\n        require(_tokenDetails[tokenIdTwo].tokenIdReproducable == tokenIdOne && ownerOf(tokenIdOne) == msg.sender && ownerOf(tokenIdTwo) == senderInvit && _tokenDetails[tokenIdTwo].numberReproduce < 3 && _tokenDetails[tokenIdOne].numberReproduce < 3 ,\"Too many reproduce time\");\r\n        \r\n        _tokenDetails[nextId] = Mystic(0,0,0,partsOne,false,true,block.timestamp,_tokenDetails[tokenIdOne].price,0);\r\n        _safeMint(msg.sender, nextId);\r\n        nextId++;\r\n\r\n        _tokenDetails[nextId] = Mystic(0,0,0,partsTwo,false,true,block.timestamp,_tokenDetails[tokenIdTwo].price,0);\r\n        _safeMint(senderInvit, nextId);\r\n        nextId++;\r\n        \r\n        _tokenDetails[tokenIdOne].numberReproduce++;\r\n        _tokenDetails[tokenIdTwo].numberReproduce++;\r\n        _tokenDetails[tokenIdTwo].tokenIdReproducable = 0;\r\n    }\r\n\r\n    /**\r\n    Rcuprer le token et ces variable grace a son token id\r\n     */\r\n    function getTokenDetails(uint256 tokenId) public view returns (Mystic memory){\r\n        return _tokenDetails[tokenId];\r\n    }\r\n\r\n    function getAllTokensForUser(address user) public view returns (uint256[] memory){\r\n        uint256 tokenCount = balanceOf(user);\r\n        if(tokenCount == 0){\r\n            return new uint256[](0);\r\n        }\r\n        else{\r\n            uint[] memory result = new uint256[](tokenCount);\r\n            uint256 totalMystics = nextId;\r\n            uint256 resultIndex = 0;\r\n            uint256 i;\r\n            for(i = 0; i < totalMystics; i++){\r\n                if(ownerOf(i) == user){\r\n                    result[resultIndex] = i;\r\n                    resultIndex++;\r\n                }\r\n            }\r\n            return result;\r\n        }\r\n    }\r\n\r\n    /*function transfer(address to, uint256 tokenId) public {\r\n        require(_tokenDetails[tokenId].createdAt != 0,\"Mystic not exist\");\r\n        require(ownerOf(tokenId) == msg.sender,\"Not Your mystic\");\r\n        require(ownerOf(tokenId) != to, \"User already owned this mystic\");\r\n        uint256 tokenCount = balanceOf(to);\r\n        if(tokenCount == 0){\r\n            _safeTransfer(msg.sender, to, tokenId, \"\");\r\n        }\r\n        else{\r\n            uint[] memory result = new uint256[](tokenCount);\r\n            uint256 totalMystics = nextId;\r\n            uint256 resultIndex = 0;\r\n            uint256 i;\r\n            for(i = 0; i < totalMystics; i++){\r\n                if(ownerOf(i) == to && _tokenDetails[i].egg == false){\r\n                    resultIndex++;\r\n                }\r\n            }\r\n            require(resultIndex <= 1, \"User already have a mystic\");\r\n            _safeTransfer(msg.sender, to, tokenId, \"\");\r\n        }\r\n    }\r\n\r\n    function purchase(address contactAddr, uint256 tokenId, uint256 amount) external payable {\r\n        balance = balance+msg.value;\r\n        Mystic memory mystic = _tokenDetails[tokenId];\r\n        require(msg.value >= mystic.price * amount, \"insufficient fonds sent\");\r\n        require(ownerOf(tokenId) != msg.sender, \"Already Owned\");\r\n        uint256 tokenCount = balanceOf(msg.sender);\r\n        if(tokenCount == 0){\r\n            _safeTransfer(contactAddr, msg.sender, tokenId, \"\");\r\n        }\r\n        else{\r\n            uint[] memory result = new uint256[](tokenCount);\r\n            uint256 totalMystics = nextId;\r\n            uint256 resultIndex = 0;\r\n            uint256 i;\r\n            for(i = 0; i < totalMystics; i++){\r\n                if(ownerOf(i) == msg.sender && _tokenDetails[i].egg == false){\r\n                    resultIndex++;\r\n                }\r\n            }\r\n            require(resultIndex <= 1, \"Already have a mystic\");\r\n            _safeTransfer(contactAddr, msg.sender, tokenId, \"\");\r\n        }\r\n    }*/\r\n\r\n    /**\r\n    Fonction de transfer ou d'achat d'un token d'un compte user a un autre en passant par metamask, ultra secure\r\n    Et comme tu le vois au dessus, y avais les mmes fonctions sauf que pour l'opti je les ai transformer en une fonction plus lgre\r\n     */\r\n    function purchaseAndTransfer(address contactAddr, uint256 tokenId, uint256 amount,bool purchase) external payable {\r\n        balance = balance+msg.value;\r\n        Mystic memory mystic = _tokenDetails[tokenId];\r\n        if(amount != 0) require(msg.value >= mystic.price * amount, \"Insufficient fonds sent\");\r\n        require(ownerOf(tokenId) != (purchase?msg.sender:contactAddr), \"Already Owned\");\r\n        uint256 totalMystics = nextId;\r\n        uint256 resultIndex = 0;\r\n        uint256 i;\r\n        for(i = 0; i < totalMystics; i++){\r\n            if(ownerOf(i) == (purchase?msg.sender:contactAddr) && _tokenDetails[i].egg == false){\r\n                resultIndex++;\r\n            }\r\n        }\r\n        require(resultIndex <= 1, \"Already have a mystic\");\r\n        _tokenDetails[i].inSell=false;\r\n        _safeTransfer((purchase?contactAddr:msg.sender), (purchase?msg.sender:contactAddr), tokenId, \"\");\r\n    }\r\n\r\n    /**\r\n    Modifier les paramtre d'un token en utilisant son id\r\n     */\r\n    function paramsMystic(uint256 tokenId,bool sellable,bool egg, uint8 tokenIdReproducable) public {\r\n        require(ownerOf(tokenId) == msg.sender,\"Not Your mystic\");\r\n        _tokenDetails[tokenId].inSell = sellable;\r\n        if(_tokenDetails[tokenId].egg != egg) _tokenDetails[tokenId].createdAt = block.timestamp;\r\n        _tokenDetails[tokenId].egg = egg;\r\n        _tokenDetails[tokenId].tokenIdReproducable = tokenIdReproducable;\r\n    }\r\n\r\n    function random(uint8 maxNumber) public returns (uint8) {\r\n        uint256 randomnumber = uint256(keccak256(abi.encodePacked(block.timestamp, msg.sender, nonce))) % maxNumber;\r\n        randomnumber = randomnumber ;\r\n        nonce++;\r\n        return uint8(randomnumber);\r\n    }\r\n\r\n}",
  "sourcePath": "C:\\laragon\\www\\nftWithFlo\\contracts\\Token.sol",
  "compiler": {
    "name": "solc",
    "version": "0.8.0+commit.c7dfd78e.Emscripten.clang"
  },
  "schemaVersion": "3.4.4",
  "updatedAt": "2022-01-24T16:03:49.199Z",
  "devdoc": {
    "kind": "dev",
    "methods": {
      "approve(address,uint256)": {
        "details": "See {IERC721-approve}."
      },
      "balanceOf(address)": {
        "details": "See {IERC721-balanceOf}."
      },
      "getApproved(uint256)": {
        "details": "See {IERC721-getApproved}."
      },
      "isApprovedForAll(address,address)": {
        "details": "See {IERC721-isApprovedForAll}."
      },
      "name()": {
        "details": "See {IERC721Metadata-name}."
      },
      "owner()": {
        "details": "Returns the address of the current owner."
      },
      "ownerOf(uint256)": {
        "details": "See {IERC721-ownerOf}."
      },
      "renounceOwnership()": {
        "details": "Leaves the contract without owner. It will not be possible to call `onlyOwner` functions anymore. Can only be called by the current owner. NOTE: Renouncing ownership will leave the contract without an owner, thereby removing any functionality that is only available to the owner."
      },
      "safeTransferFrom(address,address,uint256)": {
        "details": "See {IERC721-safeTransferFrom}."
      },
      "safeTransferFrom(address,address,uint256,bytes)": {
        "details": "See {IERC721-safeTransferFrom}."
      },
      "setApprovalForAll(address,bool)": {
        "details": "See {IERC721-setApprovalForAll}."
      },
      "supportsInterface(bytes4)": {
        "details": "See {IERC165-supportsInterface}."
      },
      "symbol()": {
        "details": "See {IERC721Metadata-symbol}."
      },
      "tokenURI(uint256)": {
        "details": "See {IERC721Metadata-tokenURI}."
      },
      "transferFrom(address,address,uint256)": {
        "details": "See {IERC721-transferFrom}."
      },
      "transferOwnership(address)": {
        "details": "Transfers ownership of the contract to a new account (`newOwner`). Can only be called by the current owner."
      }
    },
    "version": 1
  },
  "userdoc": {
    "kind": "user",
    "methods": {
      "burn(uint256)": {
        "notice": "Quand meurs de veillesse ou jeter le burn"
      },
      "getTokenDetails(uint256)": {
        "notice": "Rcuprer le token et ces variable grace a son token id"
      },
      "mint(uint8)": {
        "notice": "Fonction de cration de token"
      },
      "paramsMystic(uint256,bool,bool,uint8)": {
        "notice": "Modifier les paramtre d'un token en utilisant son id"
      },
      "priceEgg(uint256,uint8)": {
        "notice": "Quand meurs de veillesse ou jeter le burn"
      },
      "purchaseAndTransfer(address,uint256,uint256,bool)": {
        "notice": "Fonction de transfer ou d'achat d'un token d'un compte user a un autre en passant par metamask, ultra secure Et comme tu le vois au dessus, y avais les mmes fonctions sauf que pour l'opti je les ai transformer en une fonction plus lgre"
      }
    },
    "version": 1
  }
}