{
  "contractName": "TokenDelegable",
  "abi": [
    {
      "inputs": [
        {
          "internalType": "string",
          "name": "name",
          "type": "string"
        },
        {
          "internalType": "string",
          "name": "symbol",
          "type": "string"
        },
        {
          "internalType": "string",
          "name": "_initBaseURI",
          "type": "string"
        }
      ],
      "stateMutability": "nonpayable",
      "type": "constructor"
    },
    {
      "anonymous": false,
      "inputs": [
        {
          "indexed": true,
          "internalType": "address",
          "name": "owner",
          "type": "address"
        },
        {
          "indexed": true,
          "internalType": "address",
          "name": "approved",
          "type": "address"
        },
        {
          "indexed": true,
          "internalType": "uint256",
          "name": "tokenId",
          "type": "uint256"
        }
      ],
      "name": "Approval",
      "type": "event"
    },
    {
      "anonymous": false,
      "inputs": [
        {
          "indexed": true,
          "internalType": "address",
          "name": "owner",
          "type": "address"
        },
        {
          "indexed": true,
          "internalType": "address",
          "name": "operator",
          "type": "address"
        },
        {
          "indexed": false,
          "internalType": "bool",
          "name": "approved",
          "type": "bool"
        }
      ],
      "name": "ApprovalForAll",
      "type": "event"
    },
    {
      "anonymous": false,
      "inputs": [
        {
          "indexed": true,
          "internalType": "address",
          "name": "previousOwner",
          "type": "address"
        },
        {
          "indexed": true,
          "internalType": "address",
          "name": "newOwner",
          "type": "address"
        }
      ],
      "name": "OwnershipTransferred",
      "type": "event"
    },
    {
      "anonymous": false,
      "inputs": [
        {
          "indexed": true,
          "internalType": "address",
          "name": "from",
          "type": "address"
        },
        {
          "indexed": true,
          "internalType": "address",
          "name": "to",
          "type": "address"
        },
        {
          "indexed": true,
          "internalType": "uint256",
          "name": "tokenId",
          "type": "uint256"
        }
      ],
      "name": "Transfer",
      "type": "event"
    },
    {
      "inputs": [
        {
          "internalType": "address",
          "name": "to",
          "type": "address"
        },
        {
          "internalType": "uint256",
          "name": "tokenId",
          "type": "uint256"
        }
      ],
      "name": "approve",
      "outputs": [],
      "stateMutability": "nonpayable",
      "type": "function"
    },
    {
      "inputs": [
        {
          "internalType": "address",
          "name": "owner",
          "type": "address"
        }
      ],
      "name": "balanceOf",
      "outputs": [
        {
          "internalType": "uint256",
          "name": "",
          "type": "uint256"
        }
      ],
      "stateMutability": "view",
      "type": "function",
      "constant": true
    },
    {
      "inputs": [],
      "name": "baseExtension",
      "outputs": [
        {
          "internalType": "string",
          "name": "",
          "type": "string"
        }
      ],
      "stateMutability": "view",
      "type": "function",
      "constant": true
    },
    {
      "inputs": [],
      "name": "baseURI",
      "outputs": [
        {
          "internalType": "string",
          "name": "",
          "type": "string"
        }
      ],
      "stateMutability": "view",
      "type": "function",
      "constant": true
    },
    {
      "inputs": [
        {
          "internalType": "uint256",
          "name": "tokenId",
          "type": "uint256"
        }
      ],
      "name": "getApproved",
      "outputs": [
        {
          "internalType": "address",
          "name": "",
          "type": "address"
        }
      ],
      "stateMutability": "view",
      "type": "function",
      "constant": true
    },
    {
      "inputs": [
        {
          "internalType": "address",
          "name": "owner",
          "type": "address"
        },
        {
          "internalType": "address",
          "name": "operator",
          "type": "address"
        }
      ],
      "name": "isApprovedForAll",
      "outputs": [
        {
          "internalType": "bool",
          "name": "",
          "type": "bool"
        }
      ],
      "stateMutability": "view",
      "type": "function",
      "constant": true
    },
    {
      "inputs": [],
      "name": "name",
      "outputs": [
        {
          "internalType": "string",
          "name": "",
          "type": "string"
        }
      ],
      "stateMutability": "view",
      "type": "function",
      "constant": true
    },
    {
      "inputs": [],
      "name": "owner",
      "outputs": [
        {
          "internalType": "address",
          "name": "",
          "type": "address"
        }
      ],
      "stateMutability": "view",
      "type": "function",
      "constant": true
    },
    {
      "inputs": [
        {
          "internalType": "uint256",
          "name": "tokenId",
          "type": "uint256"
        }
      ],
      "name": "ownerOf",
      "outputs": [
        {
          "internalType": "address",
          "name": "",
          "type": "address"
        }
      ],
      "stateMutability": "view",
      "type": "function",
      "constant": true
    },
    {
      "inputs": [],
      "name": "paused",
      "outputs": [
        {
          "internalType": "bool",
          "name": "",
          "type": "bool"
        }
      ],
      "stateMutability": "view",
      "type": "function",
      "constant": true
    },
    {
      "inputs": [],
      "name": "renounceOwnership",
      "outputs": [],
      "stateMutability": "nonpayable",
      "type": "function"
    },
    {
      "inputs": [
        {
          "internalType": "address",
          "name": "from",
          "type": "address"
        },
        {
          "internalType": "address",
          "name": "to",
          "type": "address"
        },
        {
          "internalType": "uint256",
          "name": "tokenId",
          "type": "uint256"
        }
      ],
      "name": "safeTransferFrom",
      "outputs": [],
      "stateMutability": "nonpayable",
      "type": "function"
    },
    {
      "inputs": [
        {
          "internalType": "address",
          "name": "from",
          "type": "address"
        },
        {
          "internalType": "address",
          "name": "to",
          "type": "address"
        },
        {
          "internalType": "uint256",
          "name": "tokenId",
          "type": "uint256"
        },
        {
          "internalType": "bytes",
          "name": "_data",
          "type": "bytes"
        }
      ],
      "name": "safeTransferFrom",
      "outputs": [],
      "stateMutability": "nonpayable",
      "type": "function"
    },
    {
      "inputs": [
        {
          "internalType": "address",
          "name": "operator",
          "type": "address"
        },
        {
          "internalType": "bool",
          "name": "approved",
          "type": "bool"
        }
      ],
      "name": "setApprovalForAll",
      "outputs": [],
      "stateMutability": "nonpayable",
      "type": "function"
    },
    {
      "inputs": [
        {
          "internalType": "bytes4",
          "name": "interfaceId",
          "type": "bytes4"
        }
      ],
      "name": "supportsInterface",
      "outputs": [
        {
          "internalType": "bool",
          "name": "",
          "type": "bool"
        }
      ],
      "stateMutability": "view",
      "type": "function",
      "constant": true
    },
    {
      "inputs": [],
      "name": "symbol",
      "outputs": [
        {
          "internalType": "string",
          "name": "",
          "type": "string"
        }
      ],
      "stateMutability": "view",
      "type": "function",
      "constant": true
    },
    {
      "inputs": [
        {
          "internalType": "uint256",
          "name": "index",
          "type": "uint256"
        }
      ],
      "name": "tokenByIndex",
      "outputs": [
        {
          "internalType": "uint256",
          "name": "",
          "type": "uint256"
        }
      ],
      "stateMutability": "view",
      "type": "function",
      "constant": true
    },
    {
      "inputs": [
        {
          "internalType": "address",
          "name": "owner",
          "type": "address"
        },
        {
          "internalType": "uint256",
          "name": "index",
          "type": "uint256"
        }
      ],
      "name": "tokenOfOwnerByIndex",
      "outputs": [
        {
          "internalType": "uint256",
          "name": "",
          "type": "uint256"
        }
      ],
      "stateMutability": "view",
      "type": "function",
      "constant": true
    },
    {
      "inputs": [],
      "name": "totalSupply",
      "outputs": [
        {
          "internalType": "uint256",
          "name": "",
          "type": "uint256"
        }
      ],
      "stateMutability": "view",
      "type": "function",
      "constant": true
    },
    {
      "inputs": [
        {
          "internalType": "address",
          "name": "from",
          "type": "address"
        },
        {
          "internalType": "address",
          "name": "to",
          "type": "address"
        },
        {
          "internalType": "uint256",
          "name": "tokenId",
          "type": "uint256"
        }
      ],
      "name": "transferFrom",
      "outputs": [],
      "stateMutability": "nonpayable",
      "type": "function"
    },
    {
      "inputs": [
        {
          "internalType": "address",
          "name": "newOwner",
          "type": "address"
        }
      ],
      "name": "transferOwnership",
      "outputs": [],
      "stateMutability": "nonpayable",
      "type": "function"
    },
    {
      "inputs": [
        {
          "internalType": "string",
          "name": "_newBaseURI",
          "type": "string"
        }
      ],
      "name": "setBaseURI",
      "outputs": [],
      "stateMutability": "nonpayable",
      "type": "function"
    },
    {
      "inputs": [
        {
          "internalType": "uint256",
          "name": "tokenId",
          "type": "uint256"
        }
      ],
      "name": "tokenURI",
      "outputs": [
        {
          "internalType": "string",
          "name": "",
          "type": "string"
        }
      ],
      "stateMutability": "view",
      "type": "function",
      "constant": true
    },
    {
      "inputs": [
        {
          "internalType": "bool",
          "name": "_state",
          "type": "bool"
        }
      ],
      "name": "pause",
      "outputs": [],
      "stateMutability": "nonpayable",
      "type": "function"
    },
    {
      "inputs": [
        {
          "internalType": "address",
          "name": "sender",
          "type": "address"
        },
        {
          "internalType": "uint8[]",
          "name": "params8",
          "type": "uint8[]"
        },
        {
          "internalType": "uint256[]",
          "name": "params256",
          "type": "uint256[]"
        }
      ],
      "name": "mint",
      "outputs": [],
      "stateMutability": "payable",
      "type": "function",
      "payable": true
    },
    {
      "inputs": [
        {
          "internalType": "uint256",
          "name": "tokenId",
          "type": "uint256"
        }
      ],
      "name": "burn",
      "outputs": [],
      "stateMutability": "nonpayable",
      "type": "function"
    },
    {
      "inputs": [
        {
          "internalType": "address",
          "name": "from",
          "type": "address"
        },
        {
          "internalType": "address",
          "name": "to",
          "type": "address"
        },
        {
          "internalType": "uint256",
          "name": "tokenId",
          "type": "uint256"
        }
      ],
      "name": "transfer",
      "outputs": [],
      "stateMutability": "nonpayable",
      "type": "function"
    },
    {
      "inputs": [
        {
          "internalType": "uint256",
          "name": "tokenId",
          "type": "uint256"
        }
      ],
      "name": "getTokenDetails",
      "outputs": [
        {
          "components": [
            {
              "internalType": "bool",
              "name": "inSell",
              "type": "bool"
            },
            {
              "internalType": "bool",
              "name": "egg",
              "type": "bool"
            },
            {
              "internalType": "uint8[]",
              "name": "params8",
              "type": "uint8[]"
            },
            {
              "internalType": "uint256[]",
              "name": "params256",
              "type": "uint256[]"
            }
          ],
          "internalType": "struct TokenDelegable.Nyxies",
          "name": "",
          "type": "tuple"
        }
      ],
      "stateMutability": "view",
      "type": "function",
      "constant": true
    },
    {
      "inputs": [
        {
          "internalType": "address",
          "name": "user",
          "type": "address"
        }
      ],
      "name": "getAllTokensForUser",
      "outputs": [
        {
          "internalType": "uint256[]",
          "name": "",
          "type": "uint256[]"
        }
      ],
      "stateMutability": "view",
      "type": "function",
      "constant": true
    },
    {
      "inputs": [
        {
          "internalType": "uint256",
          "name": "tokenId",
          "type": "uint256"
        }
      ],
      "name": "getOwnerOf",
      "outputs": [
        {
          "internalType": "address",
          "name": "",
          "type": "address"
        }
      ],
      "stateMutability": "view",
      "type": "function",
      "constant": true
    },
    {
      "inputs": [
        {
          "internalType": "address",
          "name": "user",
          "type": "address"
        }
      ],
      "name": "getBalanceOf",
      "outputs": [
        {
          "internalType": "uint256",
          "name": "",
          "type": "uint256"
        }
      ],
      "stateMutability": "view",
      "type": "function",
      "constant": true
    },
    {
      "inputs": [
        {
          "components": [
            {
              "internalType": "bool",
              "name": "inSell",
              "type": "bool"
            },
            {
              "internalType": "bool",
              "name": "egg",
              "type": "bool"
            },
            {
              "internalType": "uint8[]",
              "name": "params8",
              "type": "uint8[]"
            },
            {
              "internalType": "uint256[]",
              "name": "params256",
              "type": "uint256[]"
            }
          ],
          "internalType": "struct TokenDelegable.Nyxies",
          "name": "nyxiesTemp",
          "type": "tuple"
        },
        {
          "internalType": "uint256",
          "name": "tokenId",
          "type": "uint256"
        },
        {
          "internalType": "address",
          "name": "owner",
          "type": "address"
        }
      ],
      "name": "updateToken",
      "outputs": [],
      "stateMutability": "nonpayable",
      "type": "function"
    },
    {
      "inputs": [
        {
          "internalType": "string",
          "name": "keyParams",
          "type": "string"
        },
        {
          "internalType": "uint256",
          "name": "valueParams",
          "type": "uint256"
        }
      ],
      "name": "setParamsContract",
      "outputs": [],
      "stateMutability": "nonpayable",
      "type": "function"
    },
    {
      "inputs": [
        {
          "internalType": "string",
          "name": "keyParams",
          "type": "string"
        }
      ],
      "name": "getParamsContract",
      "outputs": [
        {
          "internalType": "uint256",
          "name": "",
          "type": "uint256"
        }
      ],
      "stateMutability": "view",
      "type": "function",
      "constant": true
    },
    {
      "inputs": [
        {
          "internalType": "address",
          "name": "_adress",
          "type": "address"
        }
      ],
      "name": "setAdressDelegateContract",
      "outputs": [],
      "stateMutability": "nonpayable",
      "type": "function"
    }
  ],
  "bytecode": "0x60806040526040518060400160405280600581526020017f2e6a736f6e000000000000000000000000000000000000000000000000000000815250600f908051906020019062000051929190620002fb565b506000601060006101000a81548160ff0219169083151502179055503480156200007a57600080fd5b506040516200563c3803806200563c8339818101604052810190620000a091906200041d565b82828160009080519060200190620000ba929190620002fb565b508060019080519060200190620000d3929190620002fb565b505050620000f6620000ea6200015860201b60201c565b6200016060201b60201c565b6000600c604051620001089062000584565b9081526020016040518091039020819055506000600c6040516200012c906200059b565b9081526020016040518091039020819055506200014f816200022660201b60201c565b50505062000721565b600033905090565b6000600a60009054906101000a900473ffffffffffffffffffffffffffffffffffffffff16905081600a60006101000a81548173ffffffffffffffffffffffffffffffffffffffff021916908373ffffffffffffffffffffffffffffffffffffffff1602179055508173ffffffffffffffffffffffffffffffffffffffff168173ffffffffffffffffffffffffffffffffffffffff167f8be0079c531659141344cd1fd0a4f28419497f9722a3daafe3b4186f6b6457e060405160405180910390a35050565b620002366200015860201b60201c565b73ffffffffffffffffffffffffffffffffffffffff166200025c620002d160201b60201c565b73ffffffffffffffffffffffffffffffffffffffff1614620002b5576040517f08c379a0000000000000000000000000000000000000000000000000000000008152600401620002ac90620005b2565b60405180910390fd5b80600e9080519060200190620002cd929190620002fb565b5050565b6000600a60009054906101000a900473ffffffffffffffffffffffffffffffffffffffff16905090565b82805462000309906200068d565b90600052602060002090601f0160209004810192826200032d576000855562000379565b82601f106200034857805160ff191683800117855562000379565b8280016001018555821562000379579182015b82811115620003785782518255916020019190600101906200035b565b5b5090506200038891906200038c565b5090565b5b80821115620003a75760008160009055506001016200038d565b5090565b6000620003c2620003bc8462000608565b620005d4565b905082815260208101848484011115620003db57600080fd5b620003e884828562000657565b509392505050565b600082601f8301126200040257600080fd5b815162000414848260208601620003ab565b91505092915050565b6000806000606084860312156200043357600080fd5b600084015167ffffffffffffffff8111156200044e57600080fd5b6200045c86828701620003f0565b935050602084015167ffffffffffffffff8111156200047a57600080fd5b6200048886828701620003f0565b925050604084015167ffffffffffffffff811115620004a657600080fd5b620004b486828701620003f0565b9150509250925092565b6000620004cd6006836200064c565b91507f6e657874496400000000000000000000000000000000000000000000000000006000830152600682019050919050565b60006200050f6020836200063b565b91507f4f776e61626c653a2063616c6c6572206973206e6f7420746865206f776e65726000830152602082019050919050565b6000620005516009836200064c565b91507f6e62724e797869657300000000000000000000000000000000000000000000006000830152600982019050919050565b60006200059182620004be565b9150819050919050565b6000620005a88262000542565b9150819050919050565b60006020820190508181036000830152620005cd8162000500565b9050919050565b6000604051905081810181811067ffffffffffffffff82111715620005fe57620005fd620006f2565b5b8060405250919050565b600067ffffffffffffffff821115620006265762000625620006f2565b5b601f19601f8301169050602081019050919050565b600082825260208201905092915050565b600081905092915050565b60005b83811015620006775780820151818401526020810190506200065a565b8381111562000687576000848401525b50505050565b60006002820490506001821680620006a657607f821691505b60208210811415620006bd57620006bc620006c3565b5b50919050565b7f4e487b7100000000000000000000000000000000000000000000000000000000600052602260045260246000fd5b7f4e487b7100000000000000000000000000000000000000000000000000000000600052604160045260246000fd5b614f0b80620007316000396000f3fe6080604052600436106102045760003560e01c80636c0360eb11610118578063b88d4fde116100a0578063c87b56dd1161006f578063c87b56dd1461079b578063e985e9c5146107d8578063ea4edda214610815578063f26bf0b714610831578063f2fde38b1461086e57610204565b8063b88d4fde146106e1578063beabacc81461070a578063c1e0372814610733578063c66828621461077057610204565b806383638710116100e757806383638710146105e85780638da5cb5b1461062557806395d89b41146106505780639b96eece1461067b578063a22cb465146106b857610204565b80636c0360eb1461052c57806370a0823114610557578063715018a61461059457806382de8fe9146105ab57610204565b80633cb119441161019b5780634f6ccce71161016a5780634f6ccce7146104355780635105d1711461047257806355f804b31461049b5780635c975abb146104c45780636352211e146104ef57610204565b80633cb119441461039157806342842e0e146103ba57806342966c68146103e3578063489720341461040c57610204565b8063095ea7b3116101d7578063095ea7b3146102d757806318160ddd1461030057806323b872dd1461032b5780632f745c591461035457610204565b806301ffc9a71461020957806302329a291461024657806306fdde031461026f578063081812fc1461029a575b600080fd5b34801561021557600080fd5b50610230600480360381019061022b919061394d565b610897565b60405161023d9190614683565b60405180910390f35b34801561025257600080fd5b5061026d60048036038101906102689190613924565b610911565b005b34801561027b57600080fd5b506102846109aa565b604051610291919061469e565b60405180910390f35b3480156102a657600080fd5b506102c160048036038101906102bc9190613a9b565b610a3c565b6040516102ce91906145fa565b60405180910390f35b3480156102e357600080fd5b506102fe60048036038101906102f991906138e8565b610ac1565b005b34801561030c57600080fd5b50610315610bd9565b6040516103229190614962565b60405180910390f35b34801561033757600080fd5b50610352600480360381019061034d9190613763565b610be6565b005b34801561036057600080fd5b5061037b600480360381019061037691906138e8565b610c46565b6040516103889190614962565b60405180910390f35b34801561039d57600080fd5b506103b860048036038101906103b391906139e0565b610ceb565b005b3480156103c657600080fd5b506103e160048036038101906103dc9190613763565b610d8e565b005b3480156103ef57600080fd5b5061040a60048036038101906104059190613a9b565b610dae565b005b34801561041857600080fd5b50610433600480360381019061042e91906136fe565b610e7c565b005b34801561044157600080fd5b5061045c60048036038101906104579190613a9b565b610f3c565b6040516104699190614962565b60405180910390f35b34801561047e57600080fd5b5061049960048036038101906104949190613a34565b610fd3565b005b3480156104a757600080fd5b506104c260048036038101906104bd919061399f565b61116f565b005b3480156104d057600080fd5b506104d9611205565b6040516104e69190614683565b60405180910390f35b3480156104fb57600080fd5b5061051660048036038101906105119190613a9b565b611218565b60405161052391906145fa565b60405180910390f35b34801561053857600080fd5b506105416112ca565b60405161054e919061469e565b60405180910390f35b34801561056357600080fd5b5061057e600480360381019061057991906136fe565b611358565b60405161058b9190614962565b60405180910390f35b3480156105a057600080fd5b506105a9611410565b005b3480156105b757600080fd5b506105d260048036038101906105cd91906136fe565b611498565b6040516105df9190614661565b60405180910390f35b3480156105f457600080fd5b5061060f600480360381019061060a9190613a9b565b61167a565b60405161061c91906145fa565b60405180910390f35b34801561063157600080fd5b5061063a61168c565b60405161064791906145fa565b60405180910390f35b34801561065c57600080fd5b506106656116b6565b604051610672919061469e565b60405180910390f35b34801561068757600080fd5b506106a2600480360381019061069d91906136fe565b611748565b6040516106af9190614962565b60405180910390f35b3480156106c457600080fd5b506106df60048036038101906106da91906138ac565b61175a565b005b3480156106ed57600080fd5b50610708600480360381019061070391906137b2565b611770565b005b34801561071657600080fd5b50610731600480360381019061072c9190613763565b6117d2565b005b34801561073f57600080fd5b5061075a60048036038101906107559190613a9b565b611882565b6040516107679190614940565b60405180910390f35b34801561077c57600080fd5b506107856119bb565b604051610792919061469e565b60405180910390f35b3480156107a757600080fd5b506107c260048036038101906107bd9190613a9b565b611a49565b6040516107cf919061469e565b60405180910390f35b3480156107e457600080fd5b506107ff60048036038101906107fa9190613727565b611af3565b60405161080c9190614683565b60405180910390f35b61082f600480360381019061082a919061382d565b611b87565b005b34801561083d57600080fd5b506108586004803603810190610853919061399f565b611ce9565b6040516108659190614962565b60405180910390f35b34801561087a57600080fd5b50610895600480360381019061089091906136fe565b611d11565b005b60007f780e9d63000000000000000000000000000000000000000000000000000000007bffffffffffffffffffffffffffffffffffffffffffffffffffffffff1916827bffffffffffffffffffffffffffffffffffffffffffffffffffffffff1916148061090a575061090982611e09565b5b9050919050565b610919611eeb565b73ffffffffffffffffffffffffffffffffffffffff1661093761168c565b73ffffffffffffffffffffffffffffffffffffffff161461098d576040517f08c379a000000000000000000000000000000000000000000000000000000000815260040161098490614860565b60405180910390fd5b80601060006101000a81548160ff02191690831515021790555050565b6060600080546109b990614ce9565b80601f01602080910402602001604051908101604052809291908181526020018280546109e590614ce9565b8015610a325780601f10610a0757610100808354040283529160200191610a32565b820191906000526020600020905b815481529060010190602001808311610a1557829003601f168201915b5050505050905090565b6000610a4782611ef3565b610a86576040517f08c379a0000000000000000000000000000000000000000000000000000000008152600401610a7d90614840565b60405180910390fd5b6004600083815260200190815260200160002060009054906101000a900473ffffffffffffffffffffffffffffffffffffffff169050919050565b6000610acc82611218565b90508073ffffffffffffffffffffffffffffffffffffffff168373ffffffffffffffffffffffffffffffffffffffff161415610b3d576040517f08c379a0000000000000000000000000000000000000000000000000000000008152600401610b34906148c0565b60405180910390fd5b8073ffffffffffffffffffffffffffffffffffffffff16610b5c611eeb565b73ffffffffffffffffffffffffffffffffffffffff161480610b8b5750610b8a81610b85611eeb565b611af3565b5b610bca576040517f08c379a0000000000000000000000000000000000000000000000000000000008152600401610bc1906147c0565b60405180910390fd5b610bd48383611f5f565b505050565b6000600880549050905090565b610bf7610bf1611eeb565b82612018565b610c36576040517f08c379a0000000000000000000000000000000000000000000000000000000008152600401610c2d90614900565b60405180910390fd5b610c418383836120f6565b505050565b6000610c5183611358565b8210610c92576040517f08c379a0000000000000000000000000000000000000000000000000000000008152600401610c89906146c0565b60405180910390fd5b600660008473ffffffffffffffffffffffffffffffffffffffff1673ffffffffffffffffffffffffffffffffffffffff168152602001908152602001600020600083815260200190815260200160002054905092915050565b610cf3611eeb565b73ffffffffffffffffffffffffffffffffffffffff16610d1161168c565b73ffffffffffffffffffffffffffffffffffffffff1614610d67576040517f08c379a0000000000000000000000000000000000000000000000000000000008152600401610d5e90614860565b60405180910390fd5b80600c83604051610d789190614588565b9081526020016040518091039020819055505050565b610da983838360405180602001604052806000815250611770565b505050565b600b60009054906101000a900473ffffffffffffffffffffffffffffffffffffffff1673ffffffffffffffffffffffffffffffffffffffff163373ffffffffffffffffffffffffffffffffffffffff1614610e3e576040517f08c379a0000000000000000000000000000000000000000000000000000000008152600401610e3590614740565b60405180910390fd5b610e4781612352565b600c604051610e55906145e5565b90815260200160405180910390206000815480929190610e7490614cbf565b919050555050565b610e84611eeb565b73ffffffffffffffffffffffffffffffffffffffff16610ea261168c565b73ffffffffffffffffffffffffffffffffffffffff1614610ef8576040517f08c379a0000000000000000000000000000000000000000000000000000000008152600401610eef90614860565b60405180910390fd5b80600b60006101000a81548173ffffffffffffffffffffffffffffffffffffffff021916908373ffffffffffffffffffffffffffffffffffffffff16021790555050565b6000610f46610bd9565b8210610f87576040517f08c379a0000000000000000000000000000000000000000000000000000000008152600401610f7e90614920565b60405180910390fd5b60088281548110610fc1577f4e487b7100000000000000000000000000000000000000000000000000000000600052603260045260246000fd5b90600052602060002001549050919050565b600b60009054906101000a900473ffffffffffffffffffffffffffffffffffffffff1673ffffffffffffffffffffffffffffffffffffffff163373ffffffffffffffffffffffffffffffffffffffff1614611063576040517f08c379a000000000000000000000000000000000000000000000000000000000815260040161105a90614740565b60405180910390fd5b8073ffffffffffffffffffffffffffffffffffffffff1661108383611218565b73ffffffffffffffffffffffffffffffffffffffff16146110d9576040517f08c379a00000000000000000000000000000000000000000000000000000000081526004016110d0906148e0565b60405180910390fd5b82600d600084815260200190815260200160002060008201518160000160006101000a81548160ff02191690831515021790555060208201518160000160016101000a81548160ff021916908315150217905550604082015181600101908051906020019061114992919061321d565b5060608201518160020190805190602001906111669291906132c4565b50905050505050565b611177611eeb565b73ffffffffffffffffffffffffffffffffffffffff1661119561168c565b73ffffffffffffffffffffffffffffffffffffffff16146111eb576040517f08c379a00000000000000000000000000000000000000000000000000000000081526004016111e290614860565b60405180910390fd5b80600e9080519060200190611201929190613311565b5050565b601060009054906101000a900460ff1681565b6000806002600084815260200190815260200160002060009054906101000a900473ffffffffffffffffffffffffffffffffffffffff169050600073ffffffffffffffffffffffffffffffffffffffff168173ffffffffffffffffffffffffffffffffffffffff1614156112c1576040517f08c379a00000000000000000000000000000000000000000000000000000000081526004016112b890614800565b60405180910390fd5b80915050919050565b600e80546112d790614ce9565b80601f016020809104026020016040519081016040528092919081815260200182805461130390614ce9565b80156113505780601f1061132557610100808354040283529160200191611350565b820191906000526020600020905b81548152906001019060200180831161133357829003601f168201915b505050505081565b60008073ffffffffffffffffffffffffffffffffffffffff168273ffffffffffffffffffffffffffffffffffffffff1614156113c9576040517f08c379a00000000000000000000000000000000000000000000000000000000081526004016113c0906147e0565b60405180910390fd5b600360008373ffffffffffffffffffffffffffffffffffffffff1673ffffffffffffffffffffffffffffffffffffffff168152602001908152602001600020549050919050565b611418611eeb565b73ffffffffffffffffffffffffffffffffffffffff1661143661168c565b73ffffffffffffffffffffffffffffffffffffffff161461148c576040517f08c379a000000000000000000000000000000000000000000000000000000000815260040161148390614860565b60405180910390fd5b6114966000612463565b565b606060006114a583611358565b9050600081141561152857600067ffffffffffffffff8111156114f1577f4e487b7100000000000000000000000000000000000000000000000000000000600052604160045260246000fd5b60405190808252806020026020018201604052801561151f5781602001602082028036833780820191505090505b50915050611675565b60008167ffffffffffffffff81111561156a577f4e487b7100000000000000000000000000000000000000000000000000000000600052604160045260246000fd5b6040519080825280602002602001820160405280156115985781602001602082028036833780820191505090505b5090506000600c6040516115ab906145d0565b90815260200160405180910390205490506000805b8281101561166c578673ffffffffffffffffffffffffffffffffffffffff166115e882611218565b73ffffffffffffffffffffffffffffffffffffffff161415611659578084838151811061163e577f4e487b7100000000000000000000000000000000000000000000000000000000600052603260045260246000fd5b602002602001018181525050818061165590614d1b565b9250505b808061166490614d1b565b9150506115c0565b83955050505050505b919050565b600061168582611218565b9050919050565b6000600a60009054906101000a900473ffffffffffffffffffffffffffffffffffffffff16905090565b6060600180546116c590614ce9565b80601f01602080910402602001604051908101604052809291908181526020018280546116f190614ce9565b801561173e5780601f106117135761010080835404028352916020019161173e565b820191906000526020600020905b81548152906001019060200180831161172157829003601f168201915b5050505050905090565b600061175382611358565b9050919050565b61176c611765611eeb565b8383612529565b5050565b61178161177b611eeb565b83612018565b6117c0576040517f08c379a00000000000000000000000000000000000000000000000000000000081526004016117b790614900565b60405180910390fd5b6117cc84848484612696565b50505050565b600b60009054906101000a900473ffffffffffffffffffffffffffffffffffffffff1673ffffffffffffffffffffffffffffffffffffffff163373ffffffffffffffffffffffffffffffffffffffff1614611862576040517f08c379a000000000000000000000000000000000000000000000000000000000815260040161185990614740565b60405180910390fd5b61187d83838360405180602001604052806000815250612696565b505050565b61188a613397565b600d60008381526020019081526020016000206040518060800160405290816000820160009054906101000a900460ff161515151581526020016000820160019054906101000a900460ff161515151581526020016001820180548060200260200160405190810160405280929190818152602001828054801561195357602002820191906000526020600020906000905b82829054906101000a900460ff1660ff168152602001906001019060208260000104928301926001038202915080841161191c5790505b50505050508152602001600282018054806020026020016040519081016040528092919081815260200182805480156119ab57602002820191906000526020600020905b815481526020019060010190808311611997575b5050505050815250509050919050565b600f80546119c890614ce9565b80601f01602080910402602001604051908101604052809291908181526020018280546119f490614ce9565b8015611a415780601f10611a1657610100808354040283529160200191611a41565b820191906000526020600020905b815481529060010190602001808311611a2457829003601f168201915b505050505081565b6060611a5482611ef3565b611a93576040517f08c379a0000000000000000000000000000000000000000000000000000000008152600401611a8a906148a0565b60405180910390fd5b6000611a9d6126f2565b90506000815111611abd5760405180602001604052806000815250611aeb565b80611ac784612784565b600f604051602001611adb9392919061459f565b6040516020818303038152906040525b915050919050565b6000600560008473ffffffffffffffffffffffffffffffffffffffff1673ffffffffffffffffffffffffffffffffffffffff16815260200190815260200160002060008373ffffffffffffffffffffffffffffffffffffffff1673ffffffffffffffffffffffffffffffffffffffff16815260200190815260200160002060009054906101000a900460ff16905092915050565b604051806080016040528060001515815260200160011515815260200183815260200182815250600d6000600c604051611bc0906145d0565b908152602001604051809103902054815260200190815260200160002060008201518160000160006101000a81548160ff02191690831515021790555060208201518160000160016101000a81548160ff0219169083151502179055506040820151816001019080519060200190611c3992919061321d565b506060820151816002019080519060200190611c569291906132c4565b50905050611c8083600c604051611c6c906145d0565b908152602001604051809103902054612931565b600c604051611c8e906145d0565b90815260200160405180910390206000815480929190611cad90614d1b565b9190505550600c604051611cc0906145e5565b90815260200160405180910390206000815480929190611cdf90614d1b565b9190505550505050565b6000600c82604051611cfb9190614588565b9081526020016040518091039020549050919050565b611d19611eeb565b73ffffffffffffffffffffffffffffffffffffffff16611d3761168c565b73ffffffffffffffffffffffffffffffffffffffff1614611d8d576040517f08c379a0000000000000000000000000000000000000000000000000000000008152600401611d8490614860565b60405180910390fd5b600073ffffffffffffffffffffffffffffffffffffffff168173ffffffffffffffffffffffffffffffffffffffff161415611dfd576040517f08c379a0000000000000000000000000000000000000000000000000000000008152600401611df490614700565b60405180910390fd5b611e0681612463565b50565b60007f80ac58cd000000000000000000000000000000000000000000000000000000007bffffffffffffffffffffffffffffffffffffffffffffffffffffffff1916827bffffffffffffffffffffffffffffffffffffffffffffffffffffffff19161480611ed457507f5b5e139f000000000000000000000000000000000000000000000000000000007bffffffffffffffffffffffffffffffffffffffffffffffffffffffff1916827bffffffffffffffffffffffffffffffffffffffffffffffffffffffff1916145b80611ee45750611ee38261294f565b5b9050919050565b600033905090565b60008073ffffffffffffffffffffffffffffffffffffffff166002600084815260200190815260200160002060009054906101000a900473ffffffffffffffffffffffffffffffffffffffff1673ffffffffffffffffffffffffffffffffffffffff1614159050919050565b816004600083815260200190815260200160002060006101000a81548173ffffffffffffffffffffffffffffffffffffffff021916908373ffffffffffffffffffffffffffffffffffffffff160217905550808273ffffffffffffffffffffffffffffffffffffffff16611fd283611218565b73ffffffffffffffffffffffffffffffffffffffff167f8c5be1e5ebec7d5bd14f71427d1e84f3dd0314c0f7b2291e5b200ac8c7c3b92560405160405180910390a45050565b600061202382611ef3565b612062576040517f08c379a0000000000000000000000000000000000000000000000000000000008152600401612059906147a0565b60405180910390fd5b600061206d83611218565b90508073ffffffffffffffffffffffffffffffffffffffff168473ffffffffffffffffffffffffffffffffffffffff1614806120dc57508373ffffffffffffffffffffffffffffffffffffffff166120c484610a3c565b73ffffffffffffffffffffffffffffffffffffffff16145b806120ed57506120ec8185611af3565b5b91505092915050565b8273ffffffffffffffffffffffffffffffffffffffff1661211682611218565b73ffffffffffffffffffffffffffffffffffffffff161461216c576040517f08c379a000000000000000000000000000000000000000000000000000000000815260040161216390614880565b60405180910390fd5b600073ffffffffffffffffffffffffffffffffffffffff168273ffffffffffffffffffffffffffffffffffffffff1614156121dc576040517f08c379a00000000000000000000000000000000000000000000000000000000081526004016121d390614760565b60405180910390fd5b6121e78383836129b9565b6121f2600082611f5f565b6001600360008573ffffffffffffffffffffffffffffffffffffffff1673ffffffffffffffffffffffffffffffffffffffff16815260200190815260200160002060008282546122429190614bc8565b925050819055506001600360008473ffffffffffffffffffffffffffffffffffffffff1673ffffffffffffffffffffffffffffffffffffffff16815260200190815260200160002060008282546122999190614b41565b92505081905550816002600083815260200190815260200160002060006101000a81548173ffffffffffffffffffffffffffffffffffffffff021916908373ffffffffffffffffffffffffffffffffffffffff160217905550808273ffffffffffffffffffffffffffffffffffffffff168473ffffffffffffffffffffffffffffffffffffffff167fddf252ad1be2c89b69c2b068fc378daa952ba7f163c4a11628f55a4df523b3ef60405160405180910390a4505050565b600061235d82611218565b905061236b816000846129b9565b612376600083611f5f565b6001600360008373ffffffffffffffffffffffffffffffffffffffff1673ffffffffffffffffffffffffffffffffffffffff16815260200190815260200160002060008282546123c69190614bc8565b925050819055506002600083815260200190815260200160002060006101000a81549073ffffffffffffffffffffffffffffffffffffffff021916905581600073ffffffffffffffffffffffffffffffffffffffff168273ffffffffffffffffffffffffffffffffffffffff167fddf252ad1be2c89b69c2b068fc378daa952ba7f163c4a11628f55a4df523b3ef60405160405180910390a45050565b6000600a60009054906101000a900473ffffffffffffffffffffffffffffffffffffffff16905081600a60006101000a81548173ffffffffffffffffffffffffffffffffffffffff021916908373ffffffffffffffffffffffffffffffffffffffff1602179055508173ffffffffffffffffffffffffffffffffffffffff168173ffffffffffffffffffffffffffffffffffffffff167f8be0079c531659141344cd1fd0a4f28419497f9722a3daafe3b4186f6b6457e060405160405180910390a35050565b8173ffffffffffffffffffffffffffffffffffffffff168373ffffffffffffffffffffffffffffffffffffffff161415612598576040517f08c379a000000000000000000000000000000000000000000000000000000000815260040161258f90614780565b60405180910390fd5b80600560008573ffffffffffffffffffffffffffffffffffffffff1673ffffffffffffffffffffffffffffffffffffffff16815260200190815260200160002060008473ffffffffffffffffffffffffffffffffffffffff1673ffffffffffffffffffffffffffffffffffffffff16815260200190815260200160002060006101000a81548160ff0219169083151502179055508173ffffffffffffffffffffffffffffffffffffffff168373ffffffffffffffffffffffffffffffffffffffff167f17307eab39ab6107e8899845ad3d59bd9653f200f220920489ca2b5937696c31836040516126899190614683565b60405180910390a3505050565b6126a18484846120f6565b6126ad84848484612acd565b6126ec576040517f08c379a00000000000000000000000000000000000000000000000000000000081526004016126e3906146e0565b60405180910390fd5b50505050565b6060600e805461270190614ce9565b80601f016020809104026020016040519081016040528092919081815260200182805461272d90614ce9565b801561277a5780601f1061274f5761010080835404028352916020019161277a565b820191906000526020600020905b81548152906001019060200180831161275d57829003601f168201915b5050505050905090565b606060008214156127cc576040518060400160405280600181526020017f3000000000000000000000000000000000000000000000000000000000000000815250905061292c565b600082905060005b600082146127fe5780806127e790614d1b565b915050600a826127f79190614b97565b91506127d4565b60008167ffffffffffffffff811115612840577f4e487b7100000000000000000000000000000000000000000000000000000000600052604160045260246000fd5b6040519080825280601f01601f1916602001820160405280156128725781602001600182028036833780820191505090505b5090505b600085146129255760018261288b9190614bc8565b9150600a8561289a9190614d64565b60306128a69190614b41565b60f81b8183815181106128e2577f4e487b7100000000000000000000000000000000000000000000000000000000600052603260045260246000fd5b60200101907effffffffffffffffffffffffffffffffffffffffffffffffffffffffffffff1916908160001a905350600a8561291e9190614b97565b9450612876565b8093505050505b919050565b61294b828260405180602001604052806000815250612c64565b5050565b60007f01ffc9a7000000000000000000000000000000000000000000000000000000007bffffffffffffffffffffffffffffffffffffffffffffffffffffffff1916827bffffffffffffffffffffffffffffffffffffffffffffffffffffffff1916149050919050565b6129c4838383612cbf565b600073ffffffffffffffffffffffffffffffffffffffff168373ffffffffffffffffffffffffffffffffffffffff161415612a0757612a0281612cc4565b612a46565b8173ffffffffffffffffffffffffffffffffffffffff168373ffffffffffffffffffffffffffffffffffffffff1614612a4557612a448382612d0d565b5b5b600073ffffffffffffffffffffffffffffffffffffffff168273ffffffffffffffffffffffffffffffffffffffff161415612a8957612a8481612e7a565b612ac8565b8273ffffffffffffffffffffffffffffffffffffffff168273ffffffffffffffffffffffffffffffffffffffff1614612ac757612ac68282612fbd565b5b5b505050565b6000612aee8473ffffffffffffffffffffffffffffffffffffffff1661303c565b15612c57578373ffffffffffffffffffffffffffffffffffffffff1663150b7a02612b17611eeb565b8786866040518563ffffffff1660e01b8152600401612b399493929190614615565b602060405180830381600087803b158015612b5357600080fd5b505af1925050508015612b8457506040513d601f19601f82011682018060405250810190612b819190613976565b60015b612c07573d8060008114612bb4576040519150601f19603f3d011682016040523d82523d6000602084013e612bb9565b606091505b50600081511415612bff576040517f08c379a0000000000000000000000000000000000000000000000000000000008152600401612bf6906146e0565b60405180910390fd5b805181602001fd5b63150b7a0260e01b7bffffffffffffffffffffffffffffffffffffffffffffffffffffffff1916817bffffffffffffffffffffffffffffffffffffffffffffffffffffffff191614915050612c5c565b600190505b949350505050565b612c6e838361304f565b612c7b6000848484612acd565b612cba576040517f08c379a0000000000000000000000000000000000000000000000000000000008152600401612cb1906146e0565b60405180910390fd5b505050565b505050565b6008805490506009600083815260200190815260200160002081905550600881908060018154018082558091505060019003906000526020600020016000909190919091505550565b60006001612d1a84611358565b612d249190614bc8565b9050600060076000848152602001908152602001600020549050818114612e09576000600660008673ffffffffffffffffffffffffffffffffffffffff1673ffffffffffffffffffffffffffffffffffffffff168152602001908152602001600020600084815260200190815260200160002054905080600660008773ffffffffffffffffffffffffffffffffffffffff1673ffffffffffffffffffffffffffffffffffffffff168152602001908152602001600020600084815260200190815260200160002081905550816007600083815260200190815260200160002081905550505b6007600084815260200190815260200160002060009055600660008573ffffffffffffffffffffffffffffffffffffffff1673ffffffffffffffffffffffffffffffffffffffff16815260200190815260200160002060008381526020019081526020016000206000905550505050565b60006001600880549050612e8e9190614bc8565b9050600060096000848152602001908152602001600020549050600060088381548110612ee4577f4e487b7100000000000000000000000000000000000000000000000000000000600052603260045260246000fd5b906000526020600020015490508060088381548110612f2c577f4e487b7100000000000000000000000000000000000000000000000000000000600052603260045260246000fd5b906000526020600020018190555081600960008381526020019081526020016000208190555060096000858152602001908152602001600020600090556008805480612fa1577f4e487b7100000000000000000000000000000000000000000000000000000000600052603160045260246000fd5b6001900381819060005260206000200160009055905550505050565b6000612fc883611358565b905081600660008573ffffffffffffffffffffffffffffffffffffffff1673ffffffffffffffffffffffffffffffffffffffff168152602001908152602001600020600083815260200190815260200160002081905550806007600084815260200190815260200160002081905550505050565b600080823b905060008111915050919050565b600073ffffffffffffffffffffffffffffffffffffffff168273ffffffffffffffffffffffffffffffffffffffff1614156130bf576040517f08c379a00000000000000000000000000000000000000000000000000000000081526004016130b690614820565b60405180910390fd5b6130c881611ef3565b15613108576040517f08c379a00000000000000000000000000000000000000000000000000000000081526004016130ff90614720565b60405180910390fd5b613114600083836129b9565b6001600360008473ffffffffffffffffffffffffffffffffffffffff1673ffffffffffffffffffffffffffffffffffffffff16815260200190815260200160002060008282546131649190614b41565b92505081905550816002600083815260200190815260200160002060006101000a81548173ffffffffffffffffffffffffffffffffffffffff021916908373ffffffffffffffffffffffffffffffffffffffff160217905550808273ffffffffffffffffffffffffffffffffffffffff16600073ffffffffffffffffffffffffffffffffffffffff167fddf252ad1be2c89b69c2b068fc378daa952ba7f163c4a11628f55a4df523b3ef60405160405180910390a45050565b82805482825590600052602060002090601f016020900481019282156132b35791602002820160005b8382111561328457835183826101000a81548160ff021916908360ff1602179055509260200192600101602081600001049283019260010302613246565b80156132b15782816101000a81549060ff0219169055600101602081600001049283019260010302613284565b505b5090506132c091906133c3565b5090565b828054828255906000526020600020908101928215613300579160200282015b828111156132ff5782518255916020019190600101906132e4565b5b50905061330d91906133c3565b5090565b82805461331d90614ce9565b90600052602060002090601f01602090048101928261333f5760008555613386565b82601f1061335857805160ff1916838001178555613386565b82800160010185558215613386579182015b8281111561338557825182559160200191906001019061336a565b5b50905061339391906133c3565b5090565b604051806080016040528060001515815260200160001515815260200160608152602001606081525090565b5b808211156133dc5760008160009055506001016133c4565b5090565b60006133f36133ee846149ae565b61497d565b9050808382526020820190508285602086028201111561341257600080fd5b60005b85811015613442578161342888826136d4565b845260208401935060208301925050600181019050613415565b5050509392505050565b600061345f61345a846149da565b61497d565b9050808382526020820190508285602086028201111561347e57600080fd5b60005b858110156134ae578161349488826136e9565b845260208401935060208301925050600181019050613481565b5050509392505050565b60006134cb6134c684614a06565b61497d565b9050828152602081018484840111156134e357600080fd5b6134ee848285614c7d565b509392505050565b600061350961350484614a36565b61497d565b90508281526020810184848401111561352157600080fd5b61352c848285614c7d565b509392505050565b60008135905061354381614e62565b92915050565b600082601f83011261355a57600080fd5b813561356a8482602086016133e0565b91505092915050565b600082601f83011261358457600080fd5b813561359484826020860161344c565b91505092915050565b6000813590506135ac81614e79565b92915050565b6000813590506135c181614e90565b92915050565b6000815190506135d681614e90565b92915050565b600082601f8301126135ed57600080fd5b81356135fd8482602086016134b8565b91505092915050565b600082601f83011261361757600080fd5b81356136278482602086016134f6565b91505092915050565b60006080828403121561364257600080fd5b61364c608061497d565b9050600061365c8482850161359d565b60008301525060206136708482850161359d565b602083015250604082013567ffffffffffffffff81111561369057600080fd5b61369c84828501613573565b604083015250606082013567ffffffffffffffff8111156136bc57600080fd5b6136c884828501613549565b60608301525092915050565b6000813590506136e381614ea7565b92915050565b6000813590506136f881614ebe565b92915050565b60006020828403121561371057600080fd5b600061371e84828501613534565b91505092915050565b6000806040838503121561373a57600080fd5b600061374885828601613534565b925050602061375985828601613534565b9150509250929050565b60008060006060848603121561377857600080fd5b600061378686828701613534565b935050602061379786828701613534565b92505060406137a8868287016136d4565b9150509250925092565b600080600080608085870312156137c857600080fd5b60006137d687828801613534565b94505060206137e787828801613534565b93505060406137f8878288016136d4565b925050606085013567ffffffffffffffff81111561381557600080fd5b613821878288016135dc565b91505092959194509250565b60008060006060848603121561384257600080fd5b600061385086828701613534565b935050602084013567ffffffffffffffff81111561386d57600080fd5b61387986828701613573565b925050604084013567ffffffffffffffff81111561389657600080fd5b6138a286828701613549565b9150509250925092565b600080604083850312156138bf57600080fd5b60006138cd85828601613534565b92505060206138de8582860161359d565b9150509250929050565b600080604083850312156138fb57600080fd5b600061390985828601613534565b925050602061391a858286016136d4565b9150509250929050565b60006020828403121561393657600080fd5b60006139448482850161359d565b91505092915050565b60006020828403121561395f57600080fd5b600061396d848285016135b2565b91505092915050565b60006020828403121561398857600080fd5b6000613996848285016135c7565b91505092915050565b6000602082840312156139b157600080fd5b600082013567ffffffffffffffff8111156139cb57600080fd5b6139d784828501613606565b91505092915050565b600080604083850312156139f357600080fd5b600083013567ffffffffffffffff811115613a0d57600080fd5b613a1985828601613606565b9250506020613a2a858286016136d4565b9150509250929050565b600080600060608486031215613a4957600080fd5b600084013567ffffffffffffffff811115613a6357600080fd5b613a6f86828701613630565b9350506020613a80868287016136d4565b9250506040613a9186828701613534565b9150509250925092565b600060208284031215613aad57600080fd5b6000613abb848285016136d4565b91505092915050565b6000613ad0838361455b565b60208301905092915050565b6000613ae88383614579565b60208301905092915050565b613afd81614bfc565b82525050565b6000613b0e82614a9b565b613b188185614ae1565b9350613b2383614a66565b8060005b83811015613b54578151613b3b8882613ac4565b9750613b4683614ac7565b925050600181019050613b27565b5085935050505092915050565b6000613b6c82614a9b565b613b768185614af2565b9350613b8183614a66565b8060005b83811015613bb2578151613b998882613ac4565b9750613ba483614ac7565b925050600181019050613b85565b5085935050505092915050565b6000613bca82614aa6565b613bd48185614b03565b9350613bdf83614a76565b8060005b83811015613c10578151613bf78882613adc565b9750613c0283614ad4565b925050600181019050613be3565b5085935050505092915050565b613c2681614c0e565b82525050565b613c3581614c0e565b82525050565b6000613c4682614ab1565b613c508185614b14565b9350613c60818560208601614c8c565b613c6981614e51565b840191505092915050565b6000613c7f82614abc565b613c898185614b25565b9350613c99818560208601614c8c565b613ca281614e51565b840191505092915050565b6000613cb882614abc565b613cc28185614b36565b9350613cd2818560208601614c8c565b80840191505092915050565b60008154613ceb81614ce9565b613cf58186614b36565b94506001821660008114613d105760018114613d2157613d54565b60ff19831686528186019350613d54565b613d2a85614a86565b60005b83811015613d4c57815481890152600182019150602081019050613d2d565b838801955050505b50505092915050565b6000613d6a602b83614b25565b91507f455243373231456e756d657261626c653a206f776e657220696e646578206f7560008301527f74206f6620626f756e64730000000000000000000000000000000000000000006020830152604082019050919050565b6000613dd0603283614b25565b91507f4552433732313a207472616e7366657220746f206e6f6e20455243373231526560008301527f63656976657220696d706c656d656e74657200000000000000000000000000006020830152604082019050919050565b6000613e36602683614b25565b91507f4f776e61626c653a206e6577206f776e657220697320746865207a65726f206160008301527f64647265737300000000000000000000000000000000000000000000000000006020830152604082019050919050565b6000613e9c601c83614b25565b91507f4552433732313a20746f6b656e20616c7265616479206d696e746564000000006000830152602082019050919050565b6000613edc601a83614b25565b91507f4e6f7420676f6f642064656c656761746520636f6e74726163740000000000006000830152602082019050919050565b6000613f1c602483614b25565b91507f4552433732313a207472616e7366657220746f20746865207a65726f2061646460008301527f72657373000000000000000000000000000000000000000000000000000000006020830152604082019050919050565b6000613f82601983614b25565b91507f4552433732313a20617070726f766520746f2063616c6c6572000000000000006000830152602082019050919050565b6000613fc2600683614b36565b91507f6e657874496400000000000000000000000000000000000000000000000000006000830152600682019050919050565b6000614002602c83614b25565b91507f4552433732313a206f70657261746f7220717565727920666f72206e6f6e657860008301527f697374656e7420746f6b656e00000000000000000000000000000000000000006020830152604082019050919050565b6000614068603883614b25565b91507f4552433732313a20617070726f76652063616c6c6572206973206e6f74206f7760008301527f6e6572206e6f7220617070726f76656420666f7220616c6c00000000000000006020830152604082019050919050565b60006140ce602a83614b25565b91507f4552433732313a2062616c616e636520717565727920666f7220746865207a6560008301527f726f2061646472657373000000000000000000000000000000000000000000006020830152604082019050919050565b6000614134602983614b25565b91507f4552433732313a206f776e657220717565727920666f72206e6f6e657869737460008301527f656e7420746f6b656e00000000000000000000000000000000000000000000006020830152604082019050919050565b600061419a602083614b25565b91507f4552433732313a206d696e7420746f20746865207a65726f20616464726573736000830152602082019050919050565b60006141da602c83614b25565b91507f4552433732313a20617070726f76656420717565727920666f72206e6f6e657860008301527f697374656e7420746f6b656e00000000000000000000000000000000000000006020830152604082019050919050565b6000614240602083614b25565b91507f4f776e61626c653a2063616c6c6572206973206e6f7420746865206f776e65726000830152602082019050919050565b6000614280602983614b25565b91507f4552433732313a207472616e73666572206f6620746f6b656e2074686174206960008301527f73206e6f74206f776e00000000000000000000000000000000000000000000006020830152604082019050919050565b60006142e6602f83614b25565b91507f4552433732314d657461646174613a2055524920717565727920666f72206e6f60008301527f6e6578697374656e7420746f6b656e00000000000000000000000000000000006020830152604082019050919050565b600061434c602183614b25565b91507f4552433732313a20617070726f76616c20746f2063757272656e74206f776e6560008301527f72000000000000000000000000000000000000000000000000000000000000006020830152604082019050919050565b60006143b2600983614b36565b91507f6e62724e797869657300000000000000000000000000000000000000000000006000830152600982019050919050565b60006143f2600f83614b25565b91507f4e6f7420596f7572206e797869657300000000000000000000000000000000006000830152602082019050919050565b6000614432603183614b25565b91507f4552433732313a207472616e736665722063616c6c6572206973206e6f74206f60008301527f776e6572206e6f7220617070726f7665640000000000000000000000000000006020830152604082019050919050565b6000614498602c83614b25565b91507f455243373231456e756d657261626c653a20676c6f62616c20696e646578206f60008301527f7574206f6620626f756e647300000000000000000000000000000000000000006020830152604082019050919050565b60006080830160008301516145096000860182613c1d565b50602083015161451c6020860182613c1d565b50604083015184820360408601526145348282613bbf565b9150506060830151848203606086015261454e8282613b03565b9150508091505092915050565b61456481614c66565b82525050565b61457381614c66565b82525050565b61458281614c70565b82525050565b60006145948284613cad565b915081905092915050565b60006145ab8286613cad565b91506145b78285613cad565b91506145c38284613cde565b9150819050949350505050565b60006145db82613fb5565b9150819050919050565b60006145f0826143a5565b9150819050919050565b600060208201905061460f6000830184613af4565b92915050565b600060808201905061462a6000830187613af4565b6146376020830186613af4565b614644604083018561456a565b81810360608301526146568184613c3b565b905095945050505050565b6000602082019050818103600083015261467b8184613b61565b905092915050565b60006020820190506146986000830184613c2c565b92915050565b600060208201905081810360008301526146b88184613c74565b905092915050565b600060208201905081810360008301526146d981613d5d565b9050919050565b600060208201905081810360008301526146f981613dc3565b9050919050565b6000602082019050818103600083015261471981613e29565b9050919050565b6000602082019050818103600083015261473981613e8f565b9050919050565b6000602082019050818103600083015261475981613ecf565b9050919050565b6000602082019050818103600083015261477981613f0f565b9050919050565b6000602082019050818103600083015261479981613f75565b9050919050565b600060208201905081810360008301526147b981613ff5565b9050919050565b600060208201905081810360008301526147d98161405b565b9050919050565b600060208201905081810360008301526147f9816140c1565b9050919050565b6000602082019050818103600083015261481981614127565b9050919050565b600060208201905081810360008301526148398161418d565b9050919050565b60006020820190508181036000830152614859816141cd565b9050919050565b6000602082019050818103600083015261487981614233565b9050919050565b6000602082019050818103600083015261489981614273565b9050919050565b600060208201905081810360008301526148b9816142d9565b9050919050565b600060208201905081810360008301526148d98161433f565b9050919050565b600060208201905081810360008301526148f9816143e5565b9050919050565b6000602082019050818103600083015261491981614425565b9050919050565b600060208201905081810360008301526149398161448b565b9050919050565b6000602082019050818103600083015261495a81846144f1565b905092915050565b6000602082019050614977600083018461456a565b92915050565b6000604051905081810181811067ffffffffffffffff821117156149a4576149a3614e22565b5b8060405250919050565b600067ffffffffffffffff8211156149c9576149c8614e22565b5b602082029050602081019050919050565b600067ffffffffffffffff8211156149f5576149f4614e22565b5b602082029050602081019050919050565b600067ffffffffffffffff821115614a2157614a20614e22565b5b601f19601f8301169050602081019050919050565b600067ffffffffffffffff821115614a5157614a50614e22565b5b601f19601f8301169050602081019050919050565b6000819050602082019050919050565b6000819050602082019050919050565b60008190508160005260206000209050919050565b600081519050919050565b600081519050919050565b600081519050919050565b600081519050919050565b6000602082019050919050565b6000602082019050919050565b600082825260208201905092915050565b600082825260208201905092915050565b600082825260208201905092915050565b600082825260208201905092915050565b600082825260208201905092915050565b600081905092915050565b6000614b4c82614c66565b9150614b5783614c66565b9250827fffffffffffffffffffffffffffffffffffffffffffffffffffffffffffffffff03821115614b8c57614b8b614d95565b5b828201905092915050565b6000614ba282614c66565b9150614bad83614c66565b925082614bbd57614bbc614dc4565b5b828204905092915050565b6000614bd382614c66565b9150614bde83614c66565b925082821015614bf157614bf0614d95565b5b828203905092915050565b6000614c0782614c46565b9050919050565b60008115159050919050565b60007fffffffff0000000000000000000000000000000000000000000000000000000082169050919050565b600073ffffffffffffffffffffffffffffffffffffffff82169050919050565b6000819050919050565b600060ff82169050919050565b82818337600083830152505050565b60005b83811015614caa578082015181840152602081019050614c8f565b83811115614cb9576000848401525b50505050565b6000614cca82614c66565b91506000821415614cde57614cdd614d95565b5b600182039050919050565b60006002820490506001821680614d0157607f821691505b60208210811415614d1557614d14614df3565b5b50919050565b6000614d2682614c66565b91507fffffffffffffffffffffffffffffffffffffffffffffffffffffffffffffffff821415614d5957614d58614d95565b5b600182019050919050565b6000614d6f82614c66565b9150614d7a83614c66565b925082614d8a57614d89614dc4565b5b828206905092915050565b7f4e487b7100000000000000000000000000000000000000000000000000000000600052601160045260246000fd5b7f4e487b7100000000000000000000000000000000000000000000000000000000600052601260045260246000fd5b7f4e487b7100000000000000000000000000000000000000000000000000000000600052602260045260246000fd5b7f4e487b7100000000000000000000000000000000000000000000000000000000600052604160045260246000fd5b6000601f19601f8301169050919050565b614e6b81614bfc565b8114614e7657600080fd5b50565b614e8281614c0e565b8114614e8d57600080fd5b50565b614e9981614c1a565b8114614ea457600080fd5b50565b614eb081614c66565b8114614ebb57600080fd5b50565b614ec781614c70565b8114614ed257600080fd5b5056fea26469706673582212206dac551d391a571ce01c3334e741013c7f8f00bb7b819771585ffb2f9ec1f0e664736f6c63430008000033",
  "immutableReferences": {},
  "source": "pragma solidity 0.8.0;\r\n\r\nimport '@openzeppelin/contracts/token/ERC721/extensions/ERC721Enumerable.sol';\r\nimport '@openzeppelin/contracts/access/Ownable.sol';\r\n\r\ncontract DelegateContract is Ownable {\r\n\r\n    constructor(address _addressContract) {\r\n        addressContract = _addressContract;\r\n        paramsContract[\"nextId\"] = TokenDelegable(addressContract).getParamsContract(\"nextId\");\r\n        paramsContract[\"priceEggOne\"] = 100000000000000000000;//dev:100000000000000000\r\n        paramsContract[\"priceEggTwo\"] = 20000000000000000000;//dev:20000000000000000\r\n        paramsContract[\"priceEggThree\"] = 10000000000000000000;//dev:10000000000000000\r\n        \r\n        paramsContract[\"eggOneRemain\"] = 1000;\r\n        paramsContract[\"eggTwoRemain\"] = 3000;\r\n        paramsContract[\"eggThreeRemain\"] = 6000;\r\n     }\r\n\r\n    address addressContract;\r\n    mapping( string => uint ) paramsContract;\r\n\r\n    function setAddressContract(address _addressContract) external onlyOwner {\r\n        addressContract = _addressContract;\r\n    }\r\n\r\n    function setParamsContract(string memory keyParams, uint valueParams) external onlyOwner {\r\n        paramsContract[keyParams] = valueParams;\r\n    }\r\n\r\n    function getParamsContract(string memory keyParams) external view returns (uint256){\r\n        return paramsContract[keyParams];\r\n    }\r\n\r\n    function setParamsDelegate(string memory keyParams, uint256 valueParams ) external {\r\n        TokenDelegable contrat = TokenDelegable(addressContract);\r\n        contrat.setParamsContract(keyParams, valueParams);\r\n    }\r\n\r\n    function giveNyxie(uint8 typeMint, address to, uint256 number) public onlyOwner{\r\n        uint8 bonus = 0;\r\n        uint256 price = 0;\r\n        require(typeMint == 0 || typeMint == 1 || typeMint == 2,\"Type not good\");\r\n        if(typeMint == 0){\r\n            bonus = 8;\r\n            price = paramsContract[\"priceEggOne\"];\r\n        }else if(typeMint == 1){\r\n            bonus = 4;\r\n            price = paramsContract[\"priceEggTwo\"];\r\n        }else if(typeMint == 2){\r\n            bonus = 0;\r\n            price = paramsContract[\"priceEggThree\"];\r\n        }\r\n        uint8[] memory randomParts = new uint8[](6);\r\n        uint256[] memory randomParams = new uint256[](10);\r\n        randomParts[0] = random(4);//color\r\n        randomParts[1] = random(4)+bonus;//part1\r\n        randomParts[2] = random(4)+bonus;//part2\r\n        randomParts[3] = random(4)+bonus;//part3\r\n        randomParts[4] = random(4)+bonus;//part4\r\n        randomParts[5] = 0;\r\n        randomParams[0] = block.timestamp;\r\n        randomParams[1] = price;\r\n        randomParams[2] = 0;//idreproduce\r\n        randomParams[3] = 0;//mother\r\n        randomParams[4] = 0;//father\r\n        randomParams[5] = 0;//nbrreproduce\r\n        randomParams[6] = paramsContract[\"nextId\"];//tokenId\r\n        randomParams[7] = typeMint;//type\r\n        paramsContract[\"nextId\"]++;\r\n\r\n        TokenDelegable contrat = TokenDelegable(addressContract);\r\n        contrat.mint(to, randomParts, randomParams);\r\n    }\r\n\r\n    function mintDelegate(uint8 typeMint) public payable{\r\n\r\n        uint8 bonus = 0;\r\n        require(typeMint == 0 || typeMint == 1 || typeMint == 2,\"Type not good\");\r\n        if(typeMint == 0){\r\n            require(msg.value >= paramsContract[\"priceEggOne\"],\"More ETH required\");\r\n            require(paramsContract[\"eggOneRemain\"] > 0,\"No eggs remaining\");\r\n            bonus = 8;\r\n            paramsContract[\"eggOneRemain\"]--;\r\n        }else if(typeMint == 1){\r\n            require(msg.value >= paramsContract[\"priceEggTwo\"],\"More ETH required\");\r\n            require(paramsContract[\"eggTwoRemain\"] > 0,\"No eggs remaining\");\r\n            bonus = 4;\r\n            paramsContract[\"eggTwoRemain\"]--;\r\n        }else if(typeMint == 2){\r\n            require(msg.value >= paramsContract[\"priceEggThree\"],\"More ETH required\");\r\n            require(paramsContract[\"eggThreeRemain\"] > 0,\"No eggs remaining\");\r\n            bonus = 0;\r\n            paramsContract[\"eggThreeRemain\"]--;\r\n        }\r\n        uint8[] memory randomParts = new uint8[](6);\r\n        uint256[] memory randomParams = new uint256[](10);\r\n        randomParts[0] = random(4);//color\r\n        randomParts[1] = random(4)+bonus;//part1\r\n        randomParts[2] = random(4)+bonus;//part2\r\n        randomParts[3] = random(4)+bonus;//part3\r\n        randomParts[4] = random(4)+bonus;//part4\r\n        randomParts[5] = 0;\r\n        randomParams[0] = block.timestamp;\r\n        randomParams[1] = msg.value;\r\n        randomParams[2] = 0;//idreproduce\r\n        randomParams[3] = 0;//mother\r\n        randomParams[4] = 0;//father\r\n        randomParams[5] = 0;//nbrreproduce\r\n        randomParams[6] = paramsContract[\"nextId\"];//tokenId\r\n        randomParams[7] = typeMint;//type\r\n        paramsContract[\"nextId\"]++;\r\n        uint256 number = uint256(typeMint+1);\r\n        TokenDelegable contrat = TokenDelegable(addressContract);\r\n        contrat.mint(msg.sender, randomParts, randomParams);\r\n    }\r\n\r\n    \r\n    function paramsNyxies(uint256 tokenId,bool sellable,bool egg, uint256 tokenIdReproducable) public {\r\n        \r\n        TokenDelegable contrat = TokenDelegable(addressContract);\r\n        TokenDelegable.Nyxies memory nyxiesTemp =  contrat.getTokenDetails(tokenId);\r\n        nyxiesTemp.inSell = sellable;\r\n        if(nyxiesTemp.egg != egg) nyxiesTemp.params256[0] = block.timestamp;\r\n        nyxiesTemp.egg = egg;\r\n        nyxiesTemp.params256[1] = tokenIdReproducable;\r\n\r\n        contrat.updateToken(nyxiesTemp,tokenId,msg.sender);\r\n    }\r\n\r\n    /*function purchaseAndTransfer(address contactAddr, uint256 tokenId,bool purchase) external payable {\r\n        TokenDelegable contrat = TokenDelegable(addressContract);\r\n        TokenDelegable.Nyxies memory nyxies =  contrat.getTokenDetails(tokenId);\r\n        require(msg.value >= nyxies.params256[1], \"Insufficient fonds sent\");\r\n        require(contrat.getOwnerOf(tokenId) != (purchase?msg.sender:contactAddr), \"Already Owned\");\r\n        uint256[] memory resultIndex = contrat.getAllTokensForUser(msg.sender);\r\n        require(resultIndex.length <= 1, \"Already have a nyxies\");\r\n        nyxies.inSell=false;\r\n        contrat.updateToken(nyxies,tokenId,msg.sender);\r\n        contrat.transfer((purchase?contactAddr:msg.sender), (purchase?msg.sender:contactAddr), tokenId);\r\n    }*/\r\n\r\n    function purchase(address contactAddr, uint256 tokenId) external payable {//vendre que des oeufs ou si adulte checker qu'ont a pas d'autre adulte\r\n        TokenDelegable contrat = TokenDelegable(addressContract);\r\n        TokenDelegable.Nyxies memory nyxie = contrat.getTokenDetails(tokenId);\r\n        require(msg.value >= nyxie.params256[1], \"Insufficient fonds sent\");\r\n        require(contrat.getOwnerOf(tokenId) != msg.sender, \"Already Owned\");\r\n        if(nyxie.egg == false){\r\n            uint256[] memory resultIndex = contrat.getAllTokensForUser(msg.sender);\r\n            bool alreadyHaveAdult = false;\r\n            uint256 i;\r\n            for(i = 0; i < resultIndex.length; i++){\r\n                //TokenDelegable.Nyxies memory nyxieOwned = contrat.getTokenDetails(resultIndex[i]);\r\n                if(contrat.getTokenDetails(resultIndex[i]).egg == false) alreadyHaveAdult = true;\r\n            }\r\n            require(alreadyHaveAdult == false, \"Already have a nyxies\");\r\n        }\r\n        nyxie.inSell=false;\r\n        contrat.updateToken(nyxie,tokenId,msg.sender);\r\n        contrat.transfer(contactAddr, msg.sender, tokenId);\r\n    }\r\n\r\n    function getAllTokensForUser(address user) external view returns (uint256[] memory){\r\n        TokenDelegable contrat = TokenDelegable(addressContract);\r\n        return contrat.getAllTokensForUser(user);\r\n    }\r\n\r\n    function getTokenDetails(uint256 tokenId) external view returns (TokenDelegable.Nyxies memory){\r\n        TokenDelegable contrat = TokenDelegable(addressContract);\r\n        return contrat.getTokenDetails(tokenId);\r\n    }\r\n\r\n    /*function reproduce( uint256 tokenIdOne, address senderInvit, uint256 tokenIdTwo) public {\r\n\r\n        TokenDelegable contrat = TokenDelegable(addressContract);\r\n        TokenDelegable.Nyxies memory nyxiesOne =  contrat.getTokenDetails(tokenIdOne);\r\n        TokenDelegable.Nyxies memory nyxiesTwo =  contrat.getTokenDetails(tokenIdTwo);\r\n\r\n        require(nyxiesOne.params256[0] != 0 && nyxiesTwo.params256[0] != 0,\"Nyxies not exist\");\r\n        require((tokenIdOne != nyxiesTwo.params256[3] && tokenIdOne != nyxiesTwo.params256[4] && tokenIdTwo != nyxiesOne.params256[3] && tokenIdOne != nyxiesOne.params256[4] && nyxiesOne.params256[4] != nyxiesTwo.params256[4] && nyxiesOne.params256[4] != nyxiesTwo.params256[3] && nyxiesOne.params256[3] != nyxiesTwo.params256[4] && nyxiesOne.params256[3] != nyxiesTwo.params256[3]) || (nyxiesTwo.params256[3] == 0 && nyxiesTwo.params256[4] == 0 && nyxiesOne.params256[3] == 0 && nyxiesOne.params256[4] == 0) ,\"Parently too close\");\r\n        require(nyxiesTwo.params256[2] == tokenIdOne && contrat.getOwnerOf(tokenIdOne) == msg.sender && contrat.getOwnerOf(tokenIdTwo) == senderInvit && nyxiesTwo.params256[5] < 3 && nyxiesOne.params256[5] < 3 ,\"Too many reproduce time\");\r\n\r\n        \r\n        uint8[] memory randomParts = new uint8[](6);\r\n        uint256[] memory randomParams = new uint256[](10);\r\n        randomParts[0] = random(2)==0?nyxiesOne.params8[0]:nyxiesTwo.params8[0];\r\n        randomParts[1] = random(2)==0?nyxiesOne.params8[1]:nyxiesTwo.params8[1];\r\n        randomParts[2] = random(2)==0?nyxiesOne.params8[2]:nyxiesTwo.params8[2];\r\n        randomParts[3] = random(2)==0?nyxiesOne.params8[3]:nyxiesTwo.params8[3];\r\n        randomParts[4] = random(2)==0?nyxiesOne.params8[4]:nyxiesTwo.params8[4];\r\n        randomParts[5] = random(2)==0?nyxiesOne.params8[5]:nyxiesTwo.params8[5];\r\n        randomParams[0] = block.timestamp;\r\n        randomParams[1] = (nyxiesOne.params256[1]+nyxiesTwo.params256[1])/2;\r\n        randomParams[2] = 0;//idreproduce\r\n        randomParams[3] = tokenIdOne;//mother\r\n        randomParams[4] = tokenIdTwo;//father\r\n        randomParams[5] = 0;//nbrreproduce\r\n        randomParams[6] = paramsContract[\"nextId\"];//tokenId\r\n        randomParams[7] = 3;//type\r\n\r\n        \r\n        contrat.mint(msg.sender, randomParts, randomParams);\r\n        paramsContract[\"nextId\"]++;\r\n        randomParts[0] = random(2)==0?nyxiesOne.params8[0]:nyxiesTwo.params8[0];\r\n        randomParts[1] = random(2)==0?nyxiesOne.params8[1]:nyxiesTwo.params8[1];\r\n        randomParts[2] = random(2)==0?nyxiesOne.params8[2]:nyxiesTwo.params8[2];\r\n        randomParts[3] = random(2)==0?nyxiesOne.params8[3]:nyxiesTwo.params8[3];\r\n        randomParts[4] = random(2)==0?nyxiesOne.params8[4]:nyxiesTwo.params8[4];\r\n        randomParts[5] = random(2)==0?nyxiesOne.params8[5]:nyxiesTwo.params8[5];\r\n        randomParams[6] = paramsContract[\"nextId\"];//tokenId\r\n        contrat.mint(senderInvit, randomParts, randomParams);\r\n        paramsContract[\"nextId\"]++;\r\n        \r\n        nyxiesOne.params256[5]++;\r\n        nyxiesTwo.params256[5]++;\r\n        nyxiesTwo.params256[1] = 0;\r\n        \r\n        contrat.updateToken(nyxiesOne,tokenIdOne,msg.sender);\r\n        contrat.updateToken(nyxiesTwo,tokenIdTwo,senderInvit);\r\n    }*/\r\n\r\n    function random(uint8 maxNumber) public returns (uint8) {\r\n        uint256 randomnumber = uint256(keccak256(abi.encodePacked(block.timestamp, msg.sender, paramsContract[\"nonce\"]))) % maxNumber;\r\n        randomnumber = randomnumber ;\r\n        paramsContract[\"nonce\"]++;\r\n        return uint8(randomnumber);\r\n    }\r\n\r\n    /*FUNDS*/\r\n\r\n    function withdraw() public onlyOwner {\r\n        payable(msg.sender).transfer(address(this).balance);\r\n    }\r\n\r\n    function deposit(uint256 amount) payable public onlyOwner {\r\n        require(msg.value == amount);\r\n    }\r\n\r\n    function getBalance() public view returns (uint256)  {\r\n        return address(this).balance;\r\n    }\r\n\r\n}\r\n\r\n\r\n\r\n\r\n\r\n\r\n\r\n\r\n\r\n\r\ncontract TokenDelegable is ERC721Enumerable, Ownable{\r\n    using Strings for uint256;\r\n    \r\n    struct  Nyxies {\r\n        bool inSell;\r\n        bool egg;\r\n        uint8[] params8;//parts \r\n        uint256[] params256;//params\r\n    }\r\n\r\n    address adressDelegateContract;\r\n    mapping( string => uint ) paramsContract;\r\n    mapping( uint256 => Nyxies ) private _tokenDetails;\r\n    string public baseURI;\r\n    string public baseExtension = \".json\";\r\n    bool public paused = false;\r\n\r\n    constructor(string memory name, string memory symbol, string memory _initBaseURI) ERC721(name, symbol){\r\n        paramsContract[\"nextId\"] = 0;\r\n        paramsContract[\"nbrNyxies\"] = 0;\r\n        setBaseURI(_initBaseURI);\r\n    }\r\n\r\n    function _baseURI() internal view virtual override returns (string memory) {\r\n        return baseURI;\r\n    }\r\n\r\n     function setBaseURI(string memory _newBaseURI) public onlyOwner {\r\n        baseURI = _newBaseURI;\r\n    }\r\n\r\n    function tokenURI(uint256 tokenId) public view virtual override returns (string memory) {\r\n        require( _exists(tokenId), \"ERC721Metadata: URI query for nonexistent token\" );\r\n        string memory currentBaseURI = _baseURI();\r\n        return bytes(currentBaseURI).length > 0 ? string(abi.encodePacked(currentBaseURI, tokenId.toString(), baseExtension)) : \"\";\r\n    }\r\n\r\n    modifier byDelegate() {\r\n        require(msg.sender == adressDelegateContract,\"Not good delegate contract\");\r\n        _;\r\n    }\r\n\r\n    function pause(bool _state) public onlyOwner {\r\n        paused = _state;\r\n    }\r\n\r\n    function mint(address sender, uint8[] memory params8, uint256[] memory params256) external payable {\r\n        _tokenDetails[paramsContract[\"nextId\"]] = Nyxies(false,true,params8,params256);\r\n        _safeMint(sender, paramsContract[\"nextId\"]);\r\n        paramsContract[\"nextId\"]++;\r\n        paramsContract[\"nbrNyxies\"]++;\r\n    }\r\n    \r\n    function burn(uint256 tokenId) public byDelegate {\r\n        _burn(tokenId);\r\n        paramsContract[\"nbrNyxies\"]--;\r\n    }\r\n\r\n    function transfer(address from, address to ,uint256 tokenId) external byDelegate {\r\n        _safeTransfer(from, to, tokenId, \"\");\r\n    }\r\n\r\n    function getTokenDetails(uint256 tokenId) external view returns (Nyxies memory){\r\n        return _tokenDetails[tokenId];\r\n    }\r\n\r\n    function getAllTokensForUser(address user) external view returns (uint256[] memory){\r\n        uint256 tokenCount = balanceOf(user);\r\n        if(tokenCount == 0){\r\n            return new uint256[](0);\r\n        }\r\n        else{\r\n            uint[] memory result = new uint256[](tokenCount);\r\n            uint256 totalNyxiess = paramsContract[\"nextId\"];\r\n            uint256 resultIndex = 0;\r\n            uint256 i;\r\n            for(i = 0; i < totalNyxiess; i++){\r\n                if(ownerOf(i) == user){\r\n                    result[resultIndex] = i;\r\n                    resultIndex++;\r\n                }\r\n            }\r\n            return result;\r\n        }\r\n    }\r\n\r\n    function getOwnerOf(uint256 tokenId) external view returns (address) {\r\n        return ownerOf(tokenId);\r\n    }\r\n\r\n    function getBalanceOf(address user) external view returns (uint) {\r\n        return balanceOf(user);\r\n    }\r\n\r\n    function updateToken(Nyxies memory nyxiesTemp,uint256 tokenId,address owner) external byDelegate {\r\n        require(ownerOf(tokenId) == owner,\"Not Your nyxies\");\r\n        _tokenDetails[tokenId] = nyxiesTemp;\r\n    }\r\n\r\n    function setParamsContract(string memory keyParams, uint valueParams) external onlyOwner {\r\n        paramsContract[keyParams] = valueParams;\r\n    }\r\n\r\n    function getParamsContract(string memory keyParams) external view returns (uint){\r\n        return paramsContract[keyParams];\r\n    }\r\n\r\n    function setAdressDelegateContract(address _adress) external onlyOwner {\r\n        adressDelegateContract = _adress;\r\n    }\r\n\r\n}\r\n",
  "sourcePath": "C:\\laragon\\www\\nftWithFlo\\contracts\\TokenDelegable.sol",
  "compiler": {
    "name": "solc",
    "version": "0.8.0+commit.c7dfd78e.Emscripten.clang"
  },
  "schemaVersion": "3.4.4",
  "updatedAt": "2022-01-26T21:59:59.677Z",
  "networkType": "ethereum",
  "devdoc": {
    "kind": "dev",
    "methods": {
      "approve(address,uint256)": {
        "details": "See {IERC721-approve}."
      },
      "balanceOf(address)": {
        "details": "See {IERC721-balanceOf}."
      },
      "getApproved(uint256)": {
        "details": "See {IERC721-getApproved}."
      },
      "isApprovedForAll(address,address)": {
        "details": "See {IERC721-isApprovedForAll}."
      },
      "name()": {
        "details": "See {IERC721Metadata-name}."
      },
      "owner()": {
        "details": "Returns the address of the current owner."
      },
      "ownerOf(uint256)": {
        "details": "See {IERC721-ownerOf}."
      },
      "renounceOwnership()": {
        "details": "Leaves the contract without owner. It will not be possible to call `onlyOwner` functions anymore. Can only be called by the current owner. NOTE: Renouncing ownership will leave the contract without an owner, thereby removing any functionality that is only available to the owner."
      },
      "safeTransferFrom(address,address,uint256)": {
        "details": "See {IERC721-safeTransferFrom}."
      },
      "safeTransferFrom(address,address,uint256,bytes)": {
        "details": "See {IERC721-safeTransferFrom}."
      },
      "setApprovalForAll(address,bool)": {
        "details": "See {IERC721-setApprovalForAll}."
      },
      "supportsInterface(bytes4)": {
        "details": "See {IERC165-supportsInterface}."
      },
      "symbol()": {
        "details": "See {IERC721Metadata-symbol}."
      },
      "tokenByIndex(uint256)": {
        "details": "See {IERC721Enumerable-tokenByIndex}."
      },
      "tokenOfOwnerByIndex(address,uint256)": {
        "details": "See {IERC721Enumerable-tokenOfOwnerByIndex}."
      },
      "tokenURI(uint256)": {
        "details": "See {IERC721Metadata-tokenURI}."
      },
      "totalSupply()": {
        "details": "See {IERC721Enumerable-totalSupply}."
      },
      "transferFrom(address,address,uint256)": {
        "details": "See {IERC721-transferFrom}."
      },
      "transferOwnership(address)": {
        "details": "Transfers ownership of the contract to a new account (`newOwner`). Can only be called by the current owner."
      }
    },
    "version": 1
  },
  "userdoc": {
    "kind": "user",
    "methods": {},
    "version": 1
  }
}