{
  "contractName": "ProxyHero",
  "abi": [
    {
      "inputs": [
        {
          "internalType": "address",
          "name": "_addressHero",
          "type": "address"
        },
        {
          "internalType": "address",
          "name": "_addressQuest",
          "type": "address"
        },
        {
          "internalType": "address",
          "name": "_addressClass",
          "type": "address"
        },
        {
          "internalType": "address",
          "name": "_addressItem",
          "type": "address"
        }
      ],
      "stateMutability": "nonpayable",
      "type": "constructor"
    },
    {
      "inputs": [
        {
          "internalType": "address",
          "name": "sender",
          "type": "address"
        },
        {
          "internalType": "uint256",
          "name": "questId",
          "type": "uint256"
        },
        {
          "internalType": "uint256",
          "name": "currentQuestId",
          "type": "uint256"
        },
        {
          "internalType": "uint256",
          "name": "tokenId",
          "type": "uint256"
        }
      ],
      "name": "AlreadyInQuest",
      "type": "error"
    },
    {
      "inputs": [
        {
          "internalType": "uint256",
          "name": "statToLvlUp",
          "type": "uint256"
        },
        {
          "internalType": "uint256",
          "name": "tokenId",
          "type": "uint256"
        }
      ],
      "name": "NotAStat",
      "type": "error"
    },
    {
      "inputs": [
        {
          "internalType": "uint256",
          "name": "price",
          "type": "uint256"
        },
        {
          "internalType": "uint256",
          "name": "weiSended",
          "type": "uint256"
        },
        {
          "internalType": "uint256",
          "name": "tokenId",
          "type": "uint256"
        },
        {
          "internalType": "uint256",
          "name": "quantity",
          "type": "uint256"
        }
      ],
      "name": "NotEnoughEth",
      "type": "error"
    },
    {
      "inputs": [
        {
          "internalType": "uint256",
          "name": "price",
          "type": "uint256"
        },
        {
          "internalType": "uint256",
          "name": "weiSended",
          "type": "uint256"
        }
      ],
      "name": "NotEnoughEthHero",
      "type": "error"
    },
    {
      "inputs": [
        {
          "internalType": "uint256",
          "name": "experienceHero",
          "type": "uint256"
        },
        {
          "internalType": "uint256",
          "name": "experienceNeeded",
          "type": "uint256"
        },
        {
          "internalType": "uint256",
          "name": "tokenId",
          "type": "uint256"
        }
      ],
      "name": "NotEnoughExperience",
      "type": "error"
    },
    {
      "inputs": [
        {
          "internalType": "uint256",
          "name": "tokenLimit",
          "type": "uint256"
        },
        {
          "internalType": "uint256",
          "name": "nextTokenIdToMint",
          "type": "uint256"
        }
      ],
      "name": "NotRemainingHero",
      "type": "error"
    },
    {
      "inputs": [
        {
          "internalType": "address",
          "name": "sender",
          "type": "address"
        },
        {
          "internalType": "address",
          "name": "ownerOfToken",
          "type": "address"
        },
        {
          "internalType": "uint256",
          "name": "tokenId",
          "type": "uint256"
        }
      ],
      "name": "NotYourToken",
      "type": "error"
    },
    {
      "inputs": [
        {
          "internalType": "uint256",
          "name": "blockTimestamp",
          "type": "uint256"
        },
        {
          "internalType": "uint256",
          "name": "heroQuestTime",
          "type": "uint256"
        },
        {
          "internalType": "uint256",
          "name": "currentQuestTime",
          "type": "uint256"
        },
        {
          "internalType": "uint256",
          "name": "tokenId",
          "type": "uint256"
        }
      ],
      "name": "QuestNotFinished",
      "type": "error"
    },
    {
      "inputs": [
        {
          "internalType": "address",
          "name": "to",
          "type": "address"
        },
        {
          "internalType": "uint256",
          "name": "value",
          "type": "uint256"
        }
      ],
      "name": "SellMyosSendEth",
      "type": "error"
    },
    {
      "anonymous": false,
      "inputs": [
        {
          "indexed": true,
          "internalType": "address",
          "name": "previousOwner",
          "type": "address"
        },
        {
          "indexed": true,
          "internalType": "address",
          "name": "newOwner",
          "type": "address"
        }
      ],
      "name": "OwnershipTransferred",
      "type": "event"
    },
    {
      "inputs": [],
      "name": "owner",
      "outputs": [
        {
          "internalType": "address",
          "name": "",
          "type": "address"
        }
      ],
      "stateMutability": "view",
      "type": "function"
    },
    {
      "inputs": [
        {
          "internalType": "string",
          "name": "",
          "type": "string"
        }
      ],
      "name": "paramsContract",
      "outputs": [
        {
          "internalType": "uint256",
          "name": "",
          "type": "uint256"
        }
      ],
      "stateMutability": "view",
      "type": "function"
    },
    {
      "inputs": [],
      "name": "renounceOwnership",
      "outputs": [],
      "stateMutability": "nonpayable",
      "type": "function"
    },
    {
      "inputs": [
        {
          "internalType": "address",
          "name": "newOwner",
          "type": "address"
        }
      ],
      "name": "transferOwnership",
      "outputs": [],
      "stateMutability": "nonpayable",
      "type": "function"
    },
    {
      "inputs": [
        {
          "internalType": "string",
          "name": "key",
          "type": "string"
        },
        {
          "internalType": "uint256",
          "name": "value",
          "type": "uint256"
        }
      ],
      "name": "setParamsContract",
      "outputs": [],
      "stateMutability": "nonpayable",
      "type": "function"
    },
    {
      "inputs": [
        {
          "internalType": "string",
          "name": "key",
          "type": "string"
        }
      ],
      "name": "getParamsContract",
      "outputs": [
        {
          "internalType": "uint256",
          "name": "",
          "type": "uint256"
        }
      ],
      "stateMutability": "view",
      "type": "function"
    },
    {
      "inputs": [
        {
          "internalType": "uint8",
          "name": "generation",
          "type": "uint8"
        },
        {
          "internalType": "uint8",
          "name": "faction",
          "type": "uint8"
        },
        {
          "internalType": "string",
          "name": "_tokenUri",
          "type": "string"
        }
      ],
      "name": "mintHero",
      "outputs": [],
      "stateMutability": "payable",
      "type": "function"
    },
    {
      "inputs": [
        {
          "internalType": "uint256",
          "name": "tokenId",
          "type": "uint256"
        },
        {
          "internalType": "uint256",
          "name": "questId",
          "type": "uint256"
        }
      ],
      "name": "startQuest",
      "outputs": [],
      "stateMutability": "nonpayable",
      "type": "function"
    },
    {
      "inputs": [
        {
          "internalType": "uint256",
          "name": "tokenId",
          "type": "uint256"
        }
      ],
      "name": "completeQuest",
      "outputs": [],
      "stateMutability": "nonpayable",
      "type": "function"
    },
    {
      "inputs": [
        {
          "internalType": "uint8",
          "name": "statToLvlUp",
          "type": "uint8"
        },
        {
          "internalType": "uint256",
          "name": "tokenId",
          "type": "uint256"
        }
      ],
      "name": "levelUp",
      "outputs": [],
      "stateMutability": "nonpayable",
      "type": "function"
    },
    {
      "inputs": [],
      "name": "withdraw",
      "outputs": [],
      "stateMutability": "nonpayable",
      "type": "function"
    },
    {
      "inputs": [
        {
          "internalType": "uint256",
          "name": "tokenId",
          "type": "uint256"
        },
        {
          "internalType": "uint256",
          "name": "price",
          "type": "uint256"
        }
      ],
      "name": "putHeroInSell",
      "outputs": [],
      "stateMutability": "nonpayable",
      "type": "function"
    },
    {
      "inputs": [],
      "name": "getHerosInSell",
      "outputs": [
        {
          "components": [
            {
              "internalType": "uint8[]",
              "name": "params8",
              "type": "uint8[]"
            },
            {
              "internalType": "uint256[]",
              "name": "params256",
              "type": "uint256[]"
            }
          ],
          "internalType": "struct HeroLib.Token[]",
          "name": "",
          "type": "tuple[]"
        }
      ],
      "stateMutability": "view",
      "type": "function"
    },
    {
      "inputs": [
        {
          "internalType": "uint256",
          "name": "tokenId",
          "type": "uint256"
        }
      ],
      "name": "purchase",
      "outputs": [],
      "stateMutability": "payable",
      "type": "function"
    }
  ],
  "bytecode": "0x60806040523480156200001157600080fd5b5060405162002fbe38038062002fbe83398101604081905262000034916200027e565b6200003f3362000211565b60018055600280546001600160a01b038087166001600160a01b03199283168117909355600380548783169084161790556004805486831690841617815560058054928616929093169190911790915560405163f26bf0b760e01b815263f26bf0b791620000d391016020808252601190820152701b995e1d151bdad95b9259151bd35a5b9d607a1b604082015260600190565b602060405180830381865afa158015620000f1573d6000803e3d6000fd5b505050506040513d601f19601f82011682018060405250810190620001179190620002db565b60408051701b995e1d151bdad95b9259151bd35a5b9d607a1b815260066011820181905282519182900360310182209390935564707269636560d81b815260058082018490528251918290036025908101832067016345785d8a00009055671d1bdd185b141b9d60c21b8352600883018590528351928390036028018320829055691d1bdad95b931a5b5a5d60b21b8352600a8301859052835192839003602a0183206127109055646e6f6e636560d81b8352908201849052825191829003018120600090556c0657870466f724c6576656c557609c1b8152600d8101929092525190819003602d0190206064905550620002f592505050565b600080546001600160a01b038381166001600160a01b0319831681178455604051919092169283917f8be0079c531659141344cd1fd0a4f28419497f9722a3daafe3b4186f6b6457e09190a35050565b80516001600160a01b03811681146200027957600080fd5b919050565b600080600080608085870312156200029557600080fd5b620002a08562000261565b9350620002b06020860162000261565b9250620002c06040860162000261565b9150620002d06060860162000261565b905092959194509250565b600060208284031215620002ee57600080fd5b5051919050565b612cb980620003056000396000f3fe6080604052600436106100dd5760003560e01c80638da5cb5b1161007f578063efef39a111610059578063efef39a114610247578063f26bf0b71461025a578063f2fde38b1461027a578063fa84413a1461029a57600080fd5b80638da5cb5b146101df578063c3c33b4014610207578063d706b9ba1461022757600080fd5b8063464fa3f5116100bb578063464fa3f514610139578063528be0a9146101645780635f9d45d814610184578063715018a6146101ca57600080fd5b80630b275db4146100e25780633cb11944146101045780633ccfd60b14610124575b600080fd5b3480156100ee57600080fd5b506101026100fd366004612138565b6102ad565b005b34801561011057600080fd5b5061010261011f3660046121ac565b6106a1565b34801561013057600080fd5b506101026106d1565b34801561014557600080fd5b5061014e610708565b60405161015b919061227f565b60405180910390f35b34801561017057600080fd5b5061010261017f3660046122e1565b6108a6565b34801561019057600080fd5b506101bc61019f3660046123d3565b805160208183018101805160068252928201919093012091525481565b60405190815260200161015b565b3480156101d657600080fd5b50610102610e65565b3480156101eb57600080fd5b506000546040516001600160a01b03909116815260200161015b565b34801561021357600080fd5b50610102610222366004612452565b610e79565b34801561023357600080fd5b50610102610242366004612452565b611159565b6101026102553660046122e1565b61129b565b34801561026657600080fd5b506101bc610275366004612474565b611703565b34801561028657600080fd5b506101026102953660046124ca565b61172f565b6101026102a83660046124ee565b6117a5565b60025481906001600160a01b0316336040516331a9108f60e11b8152600481018490526001600160a01b0391821691831690636352211e90602401602060405180830381865afa158015610305573d6000803e3d6000fd5b505050506040513d601f19601f820116820180604052508101906103299190612552565b6001600160a01b0316146103da57335b6040516331a9108f60e11b8152600481018490526001600160a01b03831690636352211e90602401602060405180830381865afa15801561037e573d6000803e3d6000fd5b505050506040513d601f19601f820116820180604052508101906103a29190612552565b6040516365165d8160e11b81526001600160a01b03928316600482015291166024820152604481018390526064015b60405180910390fd5b60025460405163183c06e560e31b8152600481018590526001600160a01b0390911690600090829063c1e0372890602401600060405180830381865afa158015610428573d6000803e3d6000fd5b505050506040513d6000823e601f3d908101601f191682016040526104509190810190612606565b90508060200151600981518110610469576104696126ee565b60200260200101516006604051610493906c0657870466f724c6576656c557609c1b8152600d0190565b9081526020016040518091039020546104ac91906127fe565b6104b790606461280a565b81602001516008815181106104ce576104ce6126ee565b6020026020010151116105885780602001516008815181106104f2576104f26126ee565b60200260200101518160200151600981518110610511576105116126ee565b6020026020010151600660405161053b906c0657870466f724c6576656c557609c1b8152600d0190565b90815260200160405180910390205461055491906127fe565b61055f90606461280a565b60405163c2f02ac960e01b815260048101929092526024820152604481018690526064016103d1565b60058660ff1611156105b957604051632f62314360e11b815260ff87166004820152602481018690526044016103d1565b8051805160ff88169081106105d0576105d06126ee565b60200260200101805180919060010160ff1660ff168152505060008160200151600881518110610602576106026126ee565b6020026020010181815250508060200151600981518110610625576106256126ee565b60209081029190910101805160010190526001600160a01b03821663e2f6215c8287335b6040518463ffffffff1660e01b815260040161066793929190612822565b600060405180830381600087803b15801561068157600080fd5b505af1158015610695573d6000803e3d6000fd5b50505050505050505050565b6106a9611a37565b80600684846040516106bc929190612855565b90815260405190819003602001902055505050565b6106d9611a37565b60405133904780156108fc02916000818181858888f19350505050158015610705573d6000803e3d6000fd5b50565b6002546040516060916001600160a01b03169060009060069061072a90612865565b9081526020016040518091039020546001610745919061280a565b6001600160401b0381111561075c5761075c6122fa565b6040519080825280602002602001820160405280156107a157816020015b604080518082019091526060808252602082015281526020019060019003908161077a5790505b5090506000805b60066040516107b690612865565b90815260200160405180910390205481101561089d5760405163183c06e560e31b8152600481018290526000906001600160a01b0386169063c1e0372890602401600060405180830381865afa158015610814573d6000803e3d6000fd5b505050506040513d6000823e601f3d908101601f1916820160405261083c9190810190612606565b905060008160200151600b81518110610857576108576126ee565b6020026020010151111561088a5780848481518110610878576108786126ee565b60209081029190910101526001909201915b508061089581612882565b9150506107a8565b50909392505050565b60025481906001600160a01b0316336040516331a9108f60e11b8152600481018490526001600160a01b0391821691831690636352211e90602401602060405180830381865afa1580156108fe573d6000803e3d6000fd5b505050506040513d601f19601f820116820180604052508101906109229190612552565b6001600160a01b0316146109365733610339565b60025460405163183c06e560e31b8152600481018590526001600160a01b0390911690600090829063c1e0372890602401600060405180830381865afa158015610984573d6000803e3d6000fd5b505050506040513d6000823e601f3d908101601f191682016040526109ac9190810190612606565b60038054602083015180519394506001600160a01b0390911692600092849263b0f929b09290919081106109e2576109e26126ee565b60200260200101516040518263ffffffff1660e01b8152600401610a0891815260200190565b600060405180830381865afa158015610a25573d6000803e3d6000fd5b505050506040513d6000823e601f3d908101601f19168201604052610a4d91908101906128bf565b90508060a001518360200151600281518110610a6b57610a6b6126ee565b602002602001015142610a7e9190612996565b11610adc57428360200151600281518110610a9b57610a9b6126ee565b60200260200101518260a001518960405163250ebb6160e21b81526004016103d1949392919093845260208401929092526040830152606082015260800190565b6000805b8260400151518160ff161015610ba5578451805160ff8316908110610b0757610b076126ee565b602002602001015160ff1683604001518260ff1681518110610b2b57610b2b6126ee565b602002602001015160ff161115610b93578451805160ff8316908110610b5357610b536126ee565b602002602001015183604001518260ff1681518110610b7457610b746126ee565b6020026020010151610b8691906129ad565b610b9090836129d0565b91505b80610b9d816129f5565b915050610ae0565b506000610bbb610bb68360646129ad565b611a91565b60ff169050808560200151600781518110610bd857610bd86126ee565b602002602001018181525050826020015160ff16811115610d8a5760018560200151600681518110610c0c57610c0c6126ee565b602002602001018181525050836001600160a01b0316636827822e6040518163ffffffff1660e01b8152600401602060405180830381865afa158015610c56573d6000803e3d6000fd5b505050506040513d601f19601f82011682018060405250810190610c7a9190612a15565b8351610c899160ff1690612a32565b61ffff168560200151600881518110610ca457610ca46126ee565b60200260200101818151610cb8919061280a565b9052506005546001600160a01b031660005b846060015151811015610d83576001600160a01b03821663156e29f63387606001518481518110610cfd57610cfd6126ee565b60209081029190910101516040516001600160e01b031960e085901b1681526001600160a01b03909216600483015260ff16602482015260016044820152606401600060405180830381600087803b158015610d5857600080fd5b505af1158015610d6c573d6000803e3d6000fd5b505050508080610d7b90612882565b915050610cca565b5050610db0565b60008560200151600681518110610da357610da36126ee565b6020026020010181815250505b428560200151600281518110610dc857610dc86126ee565b60200260200101818152505060008560200151600481518110610ded57610ded6126ee565b60209081029190910101526040516338bd885760e21b81526001600160a01b0387169063e2f6215c90610e289088908d903390600401612822565b600060405180830381600087803b158015610e4257600080fd5b505af1158015610e56573d6000803e3d6000fd5b50505050505050505050505050565b610e6d611a37565b610e776000611a9f565b565b60025482906001600160a01b0316336040516331a9108f60e11b8152600481018490526001600160a01b0391821691831690636352211e90602401602060405180830381865afa158015610ed1573d6000803e3d6000fd5b505050506040513d601f19601f82011682018060405250810190610ef59190612552565b6001600160a01b031614610f095733610339565b600254600354604051630b0f929b60e41b8152600481018690526001600160a01b039283169290911690600090829063b0f929b090602401600060405180830381865afa158015610f5e573d6000803e3d6000fd5b505050506040513d6000823e601f3d908101601f19168201604052610f8691908101906128bf565b60405163183c06e560e31b8152600481018990529091506000906001600160a01b0385169063c1e0372890602401600060405180830381865afa158015610fd1573d6000803e3d6000fd5b505050506040513d6000823e601f3d908101601f19168201604052610ff99190810190612606565b90508060200151600481518110611012576110126126ee565b602002602001015160001461107e573387826020015160048151811061103a5761103a6126ee565b602090810291909101015160405163c9913a8d60e01b81526001600160a01b03909316600484015260248301919091526044820152606481018990526084016103d1565b428160200151600281518110611096576110966126ee565b6020026020010181815250508681602001516003815181106110ba576110ba6126ee565b6020026020010181815250508160a0015181602001516004815181106110e2576110e26126ee565b60209081029190910101526040516338bd885760e21b81526001600160a01b0385169063e2f6215c9061111d9084908c903390600401612822565b600060405180830381600087803b15801561113757600080fd5b505af115801561114b573d6000803e3d6000fd5b505050505050505050505050565b60025482906001600160a01b0316336040516331a9108f60e11b8152600481018490526001600160a01b0391821691831690636352211e90602401602060405180830381865afa1580156111b1573d6000803e3d6000fd5b505050506040513d601f19601f820116820180604052508101906111d59190612552565b6001600160a01b0316146111e95733610339565b60025460405163183c06e560e31b8152600481018690526001600160a01b0390911690600090829063c1e0372890602401600060405180830381865afa158015611237573d6000803e3d6000fd5b505050506040513d6000823e601f3d908101601f1916820160405261125f9190810190612606565b9050848160200151600b81518110611279576112796126ee565b60209081029190910101526001600160a01b03821663e2f6215c828833610649565b600260015414156112ee5760405162461bcd60e51b815260206004820152601f60248201527f5265656e7472616e637947756172643a207265656e7472616e742063616c6c0060448201526064016103d1565b600260018190555460405163183c06e560e31b8152600481018390526001600160a01b0390911690600090829063c1e0372890602401600060405180830381865afa158015611341573d6000803e3d6000fd5b505050506040513d6000823e601f3d908101601f191682016040526113699190810190612606565b905060008160200151600b81518110611384576113846126ee565b6020026020010151116113ce5760405162461bcd60e51b8152602060048201526012602482015271546f6b656e206e6f7420696e2073616c657360701b60448201526064016103d1565b8060200151600b815181106113e5576113e56126ee565b602002602001015134101561143c5760405162461bcd60e51b815260206004820152601760248201527f496e73756666696369656e7420666f6e64732073656e7400000000000000000060448201526064016103d1565b336040516331a9108f60e11b8152600481018590526001600160a01b0391821691841690636352211e90602401602060405180830381865afa158015611486573d6000803e3d6000fd5b505050506040513d601f19601f820116820180604052508101906114aa9190612552565b6001600160a01b031614156114f15760405162461bcd60e51b815260206004820152600d60248201526c105b1c9958591e4813dddb9959609a1b60448201526064016103d1565b6040516331a9108f60e11b8152600481018490526001600160a01b0383169063beabacc8908290636352211e90602401602060405180830381865afa15801561153e573d6000803e3d6000fd5b505050506040513d601f19601f820116820180604052508101906115629190612552565b60405160e083901b6001600160e01b03191681526001600160a01b0391909116600482015233602482015260448101869052606401600060405180830381600087803b1580156115b157600080fd5b505af11580156115c5573d6000803e3d6000fd5b50506040516331a9108f60e11b815260048101869052600092506001600160a01b0385169150636352211e90602401602060405180830381865afa158015611611573d6000803e3d6000fd5b505050506040513d601f19601f820116820180604052508101906116359190612552565b6001600160a01b03168260200151600b81518110611655576116556126ee565b602002602001015160405160006040518083038185875af1925050503d806000811461169d576040519150601f19603f3d011682016040523d82523d6000602084013e6116a2565b606091505b5090915050806116f957338260200151600b815181106116c4576116c46126ee565b6020908102919091010151604051634482712560e11b81526001600160a01b03909216600483015260248201526044016103d1565b5050600180555050565b600060068383604051611717929190612855565b90815260200160405180910390205490505b92915050565b611737611a37565b6001600160a01b03811661179c5760405162461bcd60e51b815260206004820152602660248201527f4f776e61626c653a206e6577206f776e657220697320746865207a65726f206160448201526564647265737360d01b60648201526084016103d1565b61070581611a9f565b600260015414156117f85760405162461bcd60e51b815260206004820152601f60248201527f5265656e7472616e637947756172643a207265656e7472616e742063616c6c0060448201526064016103d1565b600260015560405164707269636560d81b81526006906005019081526020016040518091039020543410156118635760405162461bcd60e51b8152602060048201526011602482015270135bdc9948115512081c995c5d5a5c9959607a1b60448201526064016103d1565b60405164707269636560d81b81526006906005019081526020016040518091039020543410156118cd5760405164707269636560d81b81526006906005019081526040519081900360200181205462a184d760e21b825260048201523460248201526044016103d1565b60066040516118db90612865565b90815260405190819003602001812054691d1bdad95b931a5b5a5d60b21b825290600690600a019081526020016040518091039020541161197c57604051691d1bdad95b931a5b5a5d60b21b8152600690600a01908152602001604051809103902054600660405161194c90612865565b90815260405190819003602001812054633a3b705560e11b82526103d19291600401918252602082015260400190565b600061198784611aef565b905060006119953487611f29565b905060066040516119a590612865565b908152604051908190036020019020805460010190556002546001600160a01b031680639005ba956119d43390565b858589896040518663ffffffff1660e01b81526004016119f8959493929190612a85565b600060405180830381600087803b158015611a1257600080fd5b505af1158015611a26573d6000803e3d6000fd5b505060018055505050505050505050565b6000546001600160a01b03163314610e775760405162461bcd60e51b815260206004820181905260248201527f4f776e61626c653a2063616c6c6572206973206e6f7420746865206f776e657260448201526064016103d1565b60006117298260ff1661207a565b600080546001600160a01b038381166001600160a01b0319831681178455604051919092169283917f8be0079c531659141344cd1fd0a4f28419497f9722a3daafe3b4186f6b6457e09190a35050565b6040805160148082526102a08201909252606091600091906020820161028080368337019050506004546040805160a08101825260008082526020820181905260609282018390528282015260808101919091529192506001600160a01b03169060405163323eae4960e01b8152600060048201526001600160a01b0383169063323eae4990602401600060405180830381865afa158015611b95573d6000803e3d6000fd5b505050506040513d6000823e601f3d908101601f19168201604052611bbd9190810190612b9a565b905060005b826001600160a01b0316630b01ca3b6040518163ffffffff1660e01b8152600401602060405180830381865afa158015611c00573d6000803e3d6000fd5b505050506040513d601f19601f82011682018060405250810190611c249190612a15565b60ff168160ff161015611d3b5760405163323eae4960e01b815260ff821660048201526001600160a01b0384169063323eae4990602401600060405180830381865afa158015611c78573d6000803e3d6000fd5b505050506040513d6000823e601f3d908101601f19168201604052611ca09190810190612b9a565b5160ff16611cae6064611a91565b60ff161015611d295760405163323eae4960e01b815260ff821660048201526001600160a01b0384169063323eae4990602401600060405180830381865afa158015611cfe573d6000803e3d6000fd5b505050506040513d6000823e601f3d908101601f19168201604052611d269190810190612b9a565b91505b80611d33816129f5565b915050611bc2565b50604081015180518190600090611d5457611d546126ee565b602002602001015184600081518110611d6f57611d6f6126ee565b602002602001019060ff16908160ff168152505080600181518110611d9657611d966126ee565b602002602001015184600181518110611db157611db16126ee565b602002602001019060ff16908160ff168152505080600281518110611dd857611dd86126ee565b602002602001015184600281518110611df357611df36126ee565b602002602001019060ff16908160ff168152505080600381518110611e1a57611e1a6126ee565b602002602001015184600381518110611e3557611e356126ee565b602002602001019060ff16908160ff168152505080600481518110611e5c57611e5c6126ee565b602002602001015184600481518110611e7757611e776126ee565b602002602001019060ff16908160ff168152505080600581518110611e9e57611e9e6126ee565b602002602001015184600581518110611eb957611eb96126ee565b602002602001019060ff16908160ff16815250508584600881518110611ee157611ee16126ee565b602002602001019060ff16908160ff1681525050816020015184600981518110611f0d57611f0d6126ee565b60ff909216602092830291909101909101525091949350505050565b6040805160148082526102a082019092526060916000919060208201610280803683370190505090504281600081518110611f6657611f666126ee565b6020026020010181815250508381600181518110611f8657611f866126ee565b6020026020010181815250504281600281518110611fa657611fa66126ee565b6020026020010181815250506006604051611fc090612865565b90815260200160405180910390205481600681518110611fe257611fe26126ee565b6020026020010181815250508260ff1681600781518110612005576120056126ee565b602002602001018181525050600181600981518110612026576120266126ee565b602002602001018181525050606481600a81518110612047576120476126ee565b602002602001018181525050600081600b81518110612068576120686126ee565b60209081029190910101529392505050565b60408051646e6f6e636560d81b8152600660058201528151908190036025018120544260208301526bffffffffffffffffffffffff193360601b16928201929092526054810191909152600090819083906074016040516020818303038152906040528051906020012060001c6120f19190612c61565b9050600660405161210d90646e6f6e636560d81b815260050190565b9081526040519081900360200190208054600101905592915050565b60ff8116811461070557600080fd5b6000806040838503121561214b57600080fd5b823561215681612129565b946020939093013593505050565b60008083601f84011261217657600080fd5b5081356001600160401b0381111561218d57600080fd5b6020830191508360208285010111156121a557600080fd5b9250929050565b6000806000604084860312156121c157600080fd5b83356001600160401b038111156121d757600080fd5b6121e386828701612164565b909790965060209590950135949350505050565b805160408084528151908401819052600091602091908201906060860190845b8181101561223657835160ff1683529284019291840191600101612217565b50508483015186820387850152805180835290840192506000918401905b808310156122745783518252928401926001929092019190840190612254565b509695505050505050565b6000602080830181845280855180835260408601915060408160051b870101925083870160005b828110156122d457603f198886030184526122c28583516121f7565b945092850192908501906001016122a6565b5092979650505050505050565b6000602082840312156122f357600080fd5b5035919050565b634e487b7160e01b600052604160045260246000fd5b604080519081016001600160401b0381118282101715612332576123326122fa565b60405290565b60405160e081016001600160401b0381118282101715612332576123326122fa565b60405160a081016001600160401b0381118282101715612332576123326122fa565b604051601f8201601f191681016001600160401b03811182821017156123a4576123a46122fa565b604052919050565b60006001600160401b038211156123c5576123c56122fa565b50601f01601f191660200190565b6000602082840312156123e557600080fd5b81356001600160401b038111156123fb57600080fd5b8201601f8101841361240c57600080fd5b803561241f61241a826123ac565b61237c565b81815285602083850101111561243457600080fd5b81602084016020830137600091810160200191909152949350505050565b6000806040838503121561246557600080fd5b50508035926020909101359150565b6000806020838503121561248757600080fd5b82356001600160401b0381111561249d57600080fd5b6124a985828601612164565b90969095509350505050565b6001600160a01b038116811461070557600080fd5b6000602082840312156124dc57600080fd5b81356124e7816124b5565b9392505050565b6000806000806060858703121561250457600080fd5b843561250f81612129565b9350602085013561251f81612129565b925060408501356001600160401b0381111561253a57600080fd5b61254687828801612164565b95989497509550505050565b60006020828403121561256457600080fd5b81516124e7816124b5565b60006001600160401b03821115612588576125886122fa565b5060051b60200190565b805161259d81612129565b919050565b600082601f8301126125b357600080fd5b815160206125c361241a8361256f565b82815260059290921b840181019181810190868411156125e257600080fd5b8286015b848110156122745780516125f981612129565b83529183019183016125e6565b6000602080838503121561261957600080fd5b82516001600160401b038082111561263057600080fd5b908401906040828703121561264457600080fd5b61264c612310565b82518281111561265b57600080fd5b612667888286016125a2565b825250838301518281111561267b57600080fd5b80840193505086601f84011261269057600080fd5b825191506126a061241a8361256f565b82815260059290921b830184019184810190888411156126bf57600080fd5b938501935b838510156126dd578451825293850193908501906126c4565b948201949094529695505050505050565b634e487b7160e01b600052603260045260246000fd5b634e487b7160e01b600052601160045260246000fd5b600181815b8085111561275557816000190482111561273b5761273b612704565b8085161561274857918102915b93841c939080029061271f565b509250929050565b60008261276c57506001611729565b8161277957506000611729565b816001811461278f5760028114612799576127b5565b6001915050611729565b60ff8411156127aa576127aa612704565b50506001821b611729565b5060208310610133831016604e8410600b84101617156127d8575081810a611729565b6127e2838361271a565b80600019048211156127f6576127f6612704565b029392505050565b60006124e7838361275d565b6000821982111561281d5761281d612704565b500190565b60608152600061283560608301866121f7565b6020830194909452506001600160a01b0391909116604090910152919050565b8183823760009101908152919050565b701b995e1d151bdad95b9259151bd35a5b9d607a1b815260110190565b600060001982141561289657612896612704565b5060010190565b805161ffff8116811461259d57600080fd5b8051801515811461259d57600080fd5b6000602082840312156128d157600080fd5b81516001600160401b03808211156128e857600080fd5b9083019060e082860312156128fc57600080fd5b612904612338565b61290d8361289d565b815261291b60208401612592565b602082015260408301518281111561293257600080fd5b61293e878286016125a2565b60408301525060608301518281111561295657600080fd5b612962878286016125a2565b6060830152506080830151608082015260a083015160a082015261298860c084016128af565b60c082015295945050505050565b6000828210156129a8576129a8612704565b500390565b600060ff821660ff8416808210156129c7576129c7612704565b90039392505050565b600060ff821660ff84168060ff038211156129ed576129ed612704565b019392505050565b600060ff821660ff811415612a0c57612a0c612704565b60010192915050565b600060208284031215612a2757600080fd5b81516124e781612129565b600061ffff80831681851681830481118215151615612a5357612a53612704565b02949350505050565b81835281816020850137506000828201602090810191909152601f909101601f19169091010190565b6001600160a01b0386168152608060208083018290528651918301829052600091878201919060a0850190845b81811015612ad157845160ff1683529383019391830191600101612ab2565b50508481036040860152875180825290820192508188019060005b81811015612b0857825185529383019391830191600101612aec565b505050508281036060840152612b1f818587612a5c565b98975050505050505050565b600082601f830112612b3c57600080fd5b8151612b4a61241a826123ac565b81815260208581848701011115612b6057600080fd5b60005b83811015612b7e578581018201518382018301528101612b63565b83811115612b8f5760008285850101525b509095945050505050565b600060208284031215612bac57600080fd5b81516001600160401b0380821115612bc357600080fd5b9083019060a08286031215612bd757600080fd5b612bdf61235a565b8251612bea81612129565b81526020830151612bfa81612129565b6020820152604083015182811115612c1157600080fd5b612c1d878286016125a2565b604083015250612c2f606084016128af565b6060820152608083015182811115612c4657600080fd5b612c5287828601612b2b565b60808301525095945050505050565b600082612c7e57634e487b7160e01b600052601260045260246000fd5b50069056fea2646970667358221220b47afd613bb94f9f2041d0eda8f9c3e866dc186864ce3136bd4b77dac97ec6a764736f6c634300080b0033",
  "immutableReferences": {},
  "source": "// SPDX-License-Identifier: MIT\r\n// Delegation contract\r\npragma solidity ^0.8.0;\r\n\r\nimport \"@openzeppelin/contracts/access/Ownable.sol\";\r\nimport \"@openzeppelin/contracts/security/ReentrancyGuard.sol\";\r\nimport \"@openzeppelin/contracts/utils/math/SafeMath.sol\";\r\n\r\nimport \"../immutable/Items.sol\";\r\nimport \"../immutable/Class.sol\";\r\nimport \"../immutable/Quest.sol\";\r\nimport \"../immutable/Hero.sol\";\r\n\r\nimport \"../library/LClass.sol\";\r\nimport \"../library/LHero.sol\";\r\nimport \"../library/LItems.sol\";\r\nimport \"../library/LQuest.sol\";\r\n\r\nimport \"../interfaces/IProxyHero.sol\";\r\n\r\n//enum Numbers {strong,endurance,concentration,agility,charisma,stealth,exp,level,faction,classe}\r\n\r\ncontract ProxyHero is Ownable, IProxyHero, ReentrancyGuard {\r\n  using SafeMath for uint;\r\n  error NotEnoughEth(uint256 price, uint256 weiSended, uint256 tokenId, uint256 quantity);\r\n  error NotEnoughEthHero(uint256 price, uint256 weiSended);\r\n  error NotRemainingHero(uint256 tokenLimit, uint256 nextTokenIdToMint);\r\n  error NotYourToken(address sender, address ownerOfToken, uint256 tokenId);\r\n  error AlreadyInQuest(\r\n    address sender,\r\n    uint256 questId,\r\n    uint256 currentQuestId,\r\n    uint256 tokenId\r\n  );\r\n  error QuestNotFinished(\r\n    uint256 blockTimestamp,\r\n    uint256 heroQuestTime,\r\n    uint256 currentQuestTime,\r\n    uint256 tokenId\r\n  );\r\n  error NotEnoughExperience(\r\n    uint256 experienceHero,\r\n    uint256 experienceNeeded,\r\n    uint256 tokenId\r\n  );\r\n  error NotAStat(uint256 statToLvlUp, uint256 tokenId);\r\n  error SellMyosSendEth(address to, uint value);\r\n\r\n  address private addressHero;\r\n  address private addressQuest;\r\n  address private addressClass;\r\n  address private addressItem;\r\n  mapping(string => uint256) public paramsContract;\r\n\r\n  uint256 private constant utilMathMultiply = 10000000;\r\n\r\n  constructor(\r\n    address _addressHero,\r\n    address _addressQuest,\r\n    address _addressClass,\r\n    address _addressItem\r\n  ) {\r\n    addressHero = _addressHero;\r\n    addressQuest = _addressQuest;\r\n    addressClass = _addressClass;\r\n    addressItem = _addressItem;\r\n    paramsContract[\"nextTokenIdToMint\"] = Hero(addressHero).getParamsContract(\r\n      \"nextTokenIdToMint\"\r\n    );\r\n    paramsContract[\"price\"] = 100000000000000000; //dev:100000000000000000000 == 100 eth\r\n    paramsContract[\"totalPnt\"] = 5;\r\n    paramsContract[\"tokenLimit\"] = 10000;\r\n    paramsContract[\"nonce\"] = 0;\r\n    paramsContract[\"expForLevelUp\"] = 100;\r\n  }\r\n\r\n  modifier isYourToken(uint256 tokenId) {\r\n    Hero contrat = Hero(addressHero);\r\n    if (contrat.ownerOf(tokenId) != _msgSender())\r\n      revert NotYourToken({\r\n        sender: _msgSender(),\r\n        ownerOfToken: contrat.ownerOf(tokenId),\r\n        tokenId: tokenId\r\n      });\r\n    _;\r\n  }\r\n\r\n  ///@notice Update a parameter of contract\r\n  ///@param key key index of params contract you want set\r\n  ///@param value value of params contract you want set\r\n  function setParamsContract(string calldata key, uint256 value) external onlyOwner {\r\n    paramsContract[key] = value;\r\n  }\r\n\r\n  ///@notice Return a parameter of contract by key index\r\n  ///@param key key index of param your want to return\r\n  ///@return param value of parameter contract\r\n  function getParamsContract(string calldata key) external view returns (uint256) {\r\n    return paramsContract[key];\r\n  }\r\n\r\n  ///@notice Update a parameter of hero contract\r\n  ///@param key key index of params contract you want set\r\n  ///@param value value of params contract you want set\r\n  function setParamsHeroContract(string calldata key, uint256 value) internal {\r\n    Hero contrat = Hero(addressHero);\r\n    contrat.setParamsContract(key, value);\r\n  }\r\n\r\n  ///@notice mint a hero for a value price and generate stats and parameterr\r\n  ///@param generation generation of creation hero\r\n  ///@param faction faction with class and stat linked\r\n  ///@param _tokenUri uri of metadata token hero\r\n  function mintHero(\r\n    uint8 generation,\r\n    uint8 faction,\r\n    string calldata _tokenUri\r\n  ) external payable nonReentrant {\r\n    require(msg.value >= paramsContract[\"price\"], \"More ETH required\");\r\n    if (msg.value < paramsContract[\"price\"])\r\n      revert NotEnoughEthHero({ price: paramsContract[\"price\"], weiSended: msg.value });\r\n    if (paramsContract[\"tokenLimit\"] <= paramsContract[\"nextTokenIdToMint\"])\r\n      revert NotRemainingHero({\r\n        tokenLimit: paramsContract[\"tokenLimit\"],\r\n        nextTokenIdToMint: paramsContract[\"nextTokenIdToMint\"]\r\n      });\r\n    uint8[] memory randomParts = randomStats(faction);\r\n    uint256[] memory randomParams = randomParameters(msg.value, generation);\r\n    unchecked {\r\n      paramsContract[\"nextTokenIdToMint\"]++;\r\n    }\r\n\r\n    Hero contrat = Hero(addressHero);\r\n    contrat.mint(_msgSender(), randomParts, randomParams, _tokenUri);\r\n  }\r\n\r\n  ///@notice generate stats for your hero in uint8\r\n  ///@param faction faction of hero generated\r\n  ///@return randomParts array of stats uint8 for hero\r\n  function randomStats(uint8 faction) internal virtual returns (uint8[] memory) {\r\n    uint8[] memory randomParts = new uint8[](20);\r\n\r\n    Class classContrat = Class(addressClass);\r\n    ClassLib.Classes memory class;\r\n    class = classContrat.getClassDetails(0);\r\n    for (uint8 index = 0; index < classContrat.getClassCount(); index++) {\r\n      if (random(100) < classContrat.getClassDetails(index).rarity)\r\n        class = classContrat.getClassDetails(index);\r\n    }\r\n    uint8[] memory stats = class.stats;\r\n\r\n    randomParts[0] = stats[0]; //Strong\r\n    randomParts[1] = stats[1]; //Stamina\r\n    randomParts[2] = stats[2]; //Focus\r\n    randomParts[3] = stats[3]; //Swiftness\r\n    randomParts[4] = stats[4]; //Charisma\r\n    randomParts[5] = stats[5]; //Stealth\r\n\r\n    randomParts[8] = faction; //faction\r\n    randomParts[9] = class.id; //class\r\n\r\n    return randomParts;\r\n  }\r\n\r\n  ///@notice generate parameter for your hero in uint256\r\n  ///@param price price of buying hero\r\n  ///@param generation generation fo hero\r\n  ///@return randomParams array of parameters uint256 for hero\r\n  function randomParameters(\r\n    uint256 price,\r\n    uint8 generation\r\n  ) internal virtual returns (uint256[] memory) {\r\n    uint256[] memory randomParams = new uint256[](20);\r\n    randomParams[0] = block.timestamp; //date de cration\r\n    randomParams[1] = price; //prix d'achat\r\n    randomParams[2] = block.timestamp; //date de la drnire action (il y a une heure) permettant de participer a des missions\r\n    //randomParams[3] = 0;//Mission choisis (si 0 aucune current mission)\r\n    //randomParams[4] = 0;//seconds pour finir la mission\r\n    //randomParams[5] = 0;//difficult de la qute (dtermine l'exp gagn, et les objets % gagn)\r\n    //randomParams[6] = 0;//last quest succeded\r\n    randomParams[6] = paramsContract[\"nextTokenIdToMint\"]; //tokenId\r\n    randomParams[7] = generation; //type\r\n    //randomParams[8] = 0;//exp\r\n    randomParams[9] = 1; //level\r\n    randomParams[10] = 100; //energy\r\n    randomParams[11] = 0; //priceInSell\r\n    return randomParams;\r\n  }\r\n\r\n  ///@notice start a quest by id for one hero token\r\n  ///@param tokenId id of token you want to launch in quest\r\n  ///@param questId id of quest you want to start\r\n  function startQuest(uint256 tokenId, uint256 questId) external isYourToken(tokenId) {\r\n    Hero contrat = Hero(addressHero);\r\n    Quest questContrat = Quest(addressQuest);\r\n    QuestLib.QuestStruct memory questTemp = questContrat.getQuestDetails(questId);\r\n    HeroLib.Token memory hero = contrat.getTokenDetails(tokenId);\r\n    if (hero.params256[4] != 0)\r\n      revert AlreadyInQuest({\r\n        sender: _msgSender(),\r\n        questId: questId,\r\n        currentQuestId: hero.params256[4],\r\n        tokenId: tokenId\r\n      });\r\n    hero.params256[2] = block.timestamp;\r\n    hero.params256[3] = questId;\r\n    hero.params256[4] = questTemp.time;\r\n    contrat.updateToken(hero, tokenId, _msgSender());\r\n  }\r\n\r\n  ///@notice Validation of the quest at the end of a quest\r\n  ///@param tokenId id of token you want to complete quest\r\n  function completeQuest(uint256 tokenId) external isYourToken(tokenId) {\r\n    Hero contrat = Hero(addressHero);\r\n    HeroLib.Token memory hero = contrat.getTokenDetails(tokenId);\r\n\r\n    Quest questContrat = Quest(addressQuest);\r\n    QuestLib.QuestStruct memory questTemp = questContrat.getQuestDetails(\r\n      hero.params256[3]\r\n    );\r\n    if (block.timestamp - hero.params256[2] <= (questTemp.time))\r\n      revert QuestNotFinished({\r\n        blockTimestamp: block.timestamp,\r\n        heroQuestTime: hero.params256[2],\r\n        currentQuestTime: questTemp.time,\r\n        tokenId: tokenId\r\n      });\r\n    uint8 malus = 0;\r\n    for (uint8 index = 0; index < questTemp.stats.length; index++) {\r\n      if (questTemp.stats[index] > hero.params8[index]) {\r\n        malus += questTemp.stats[index] - hero.params8[index];\r\n      }\r\n    }\r\n    ///SUCCESS QUEST\r\n    uint256 percentSuccess = random(100 - malus);\r\n    hero.params256[7] = percentSuccess;\r\n    if (percentSuccess > questTemp.percentDifficulty) {\r\n      hero.params256[6] = 1;\r\n      hero.params256[8] += (questTemp.exp * questContrat.getMultiplicateurExp());\r\n\r\n      Items itemContrat = Items(addressItem);\r\n\r\n      for (uint256 index = 0; index < questTemp.items.length; index++) {\r\n        itemContrat.mint(_msgSender(), questTemp.items[index], 1);\r\n      }\r\n      //recuperer les items dans la quest !IMPORTANT\r\n      /*for (uint256 index = 0; index < countItems; index++) {\r\n        Items itemtemp = Items(items[index]);\r\n        if (random256(100000) > itemtemp.getRarity()) {\r\n          itemtemp.mint(1, _msgSender());\r\n        }\r\n      }*/\r\n    } else {\r\n      hero.params256[6] = 0;\r\n    }\r\n    hero.params256[2] = block.timestamp;\r\n    hero.params256[4] = 0;\r\n\r\n    contrat.updateToken(hero, tokenId, _msgSender());\r\n  }\r\n\r\n  ///@notice level up hero and increment one stat\r\n  ///@param statToLvlUp id of stat you wan increment\r\n  ///@param tokenId id of token you want level up\r\n  function levelUp(uint8 statToLvlUp, uint256 tokenId) external isYourToken(tokenId) {\r\n    Hero contrat = Hero(addressHero);\r\n    HeroLib.Token memory hero = contrat.getTokenDetails(tokenId);\r\n    if (\r\n      hero.params256[8] <= (100 + (paramsContract[\"expForLevelUp\"] ** hero.params256[9]))\r\n    )\r\n      revert NotEnoughExperience({\r\n        experienceHero: hero.params256[8],\r\n        experienceNeeded: (100 + (paramsContract[\"expForLevelUp\"] ** hero.params256[9])),\r\n        tokenId: tokenId\r\n      });\r\n    if (statToLvlUp < 0 || statToLvlUp > 5)\r\n      revert NotAStat({ statToLvlUp: statToLvlUp, tokenId: tokenId });\r\n    unchecked {\r\n      hero.params8[statToLvlUp]++;\r\n    }\r\n    hero.params256[8] = 0;\r\n    unchecked {\r\n      hero.params256[9]++;\r\n    }\r\n\r\n    contrat.updateToken(hero, tokenId, _msgSender());\r\n  }\r\n\r\n  /****************************************\r\n    UTILS\r\n     ****************************************/\r\n\r\n  ///@notice return random number\r\n  ///@param maxNumber max number random to return\r\n  ///@return randomNumber random uint256 returned\r\n  function random(uint8 maxNumber) internal returns (uint8) {\r\n    return uint8(random256(uint8(maxNumber)));\r\n  }\r\n\r\n  ///@notice return random number\r\n  ///@param maxNumber max number random to return\r\n  ///@return randomNumber random uint256 returned\r\n  function random256(uint256 maxNumber) internal returns (uint256) {\r\n    uint256 randomNumber = uint256(\r\n      keccak256(abi.encodePacked(block.timestamp, _msgSender(), paramsContract[\"nonce\"]))\r\n    ) % maxNumber;\r\n    unchecked {\r\n      paramsContract[\"nonce\"]++;\r\n    }\r\n    return randomNumber;\r\n  }\r\n\r\n  /*FUNDS OF CONTRACT*/\r\n\r\n  function withdraw() external onlyOwner {\r\n    payable(_msgSender()).transfer(address(this).balance);\r\n  }\r\n\r\n  function putHeroInSell(uint256 tokenId, uint256 price) external isYourToken(tokenId) {\r\n    Hero contrat = Hero(addressHero);\r\n    HeroLib.Token memory hero = contrat.getTokenDetails(tokenId);\r\n    hero.params256[11] = price;\r\n    contrat.updateToken(hero, tokenId, _msgSender());\r\n  }\r\n\r\n  function getHerosInSell() external view returns (HeroLib.Token[] memory) {\r\n    Hero contrat = Hero(addressHero);\r\n    HeroLib.Token[] memory result = new HeroLib.Token[](\r\n      paramsContract[\"nextTokenIdToMint\"] + 1\r\n    );\r\n    uint256 resultIndex;\r\n\r\n    for (uint256 i = 0; i < paramsContract[\"nextTokenIdToMint\"]; i++) {\r\n      HeroLib.Token memory hero = contrat.getTokenDetails(i);\r\n      if (hero.params256[11] > 0) {\r\n        result[resultIndex] = hero;\r\n        unchecked {\r\n          resultIndex++;\r\n        }\r\n      }\r\n    }\r\n    return result;\r\n  }\r\n\r\n  function purchase( uint256 tokenId) external payable nonReentrant {\r\n    Hero contrat = Hero(addressHero);\r\n    HeroLib.Token memory hero = contrat.getTokenDetails(tokenId);\r\n    require(hero.params256[11] > 0, \"Token not in sales\");\r\n    require(msg.value >= hero.params256[11], \"Insufficient fonds sent\");\r\n    require(contrat.ownerOf(tokenId) != _msgSender(), \"Already Owned\");\r\n    \r\n    contrat.transfer(contrat.ownerOf(tokenId), _msgSender(), tokenId);\r\n\r\n    (bool sent, ) = contrat.ownerOf(tokenId).call{ value: hero.params256[11] }(\"\");\r\n    if (sent == false)\r\n      revert SellMyosSendEth({ to: _msgSender(), value: hero.params256[11] });\r\n  }\r\n\r\n  /**\r\n    a finaliser\r\n     */\r\n  /*function calculPriceSupply() public{\r\n        Hero contrat = Hero(addressHero);\r\n        uint totalSupply = contrat.getParamsContract(\"totalSupply\");\r\n        //priceInUsd = (item.price/(10**18)) * (latestPrice/10**8)\r\n    }*/\r\n}\r\n",
  "sourcePath": "C:\\Users\\Kevin\\Desktop\\WorkHome\\--Solidity--MYOS\\contracts\\proxy\\ProxyHero.sol",
  "compiler": {
    "name": "solc",
    "version": "0.8.11+commit.d7f03943.Emscripten.clang"
  },
  "schemaVersion": "3.4.6",
  "updatedAt": "2022-11-07T23:36:55.951Z",
  "devdoc": {
    "kind": "dev",
    "methods": {
      "completeQuest(uint256)": {
        "params": {
          "tokenId": "id of token you want to complete quest"
        }
      },
      "getParamsContract(string)": {
        "params": {
          "key": "key index of param your want to return"
        },
        "returns": {
          "_0": "param value of parameter contract"
        }
      },
      "levelUp(uint8,uint256)": {
        "params": {
          "statToLvlUp": "id of stat you wan increment",
          "tokenId": "id of token you want level up"
        }
      },
      "mintHero(uint8,uint8,string)": {
        "params": {
          "_tokenUri": "uri of metadata token hero",
          "faction": "faction with class and stat linked",
          "generation": "generation of creation hero"
        }
      },
      "owner()": {
        "details": "Returns the address of the current owner."
      },
      "renounceOwnership()": {
        "details": "Leaves the contract without owner. It will not be possible to call `onlyOwner` functions anymore. Can only be called by the current owner. NOTE: Renouncing ownership will leave the contract without an owner, thereby removing any functionality that is only available to the owner."
      },
      "setParamsContract(string,uint256)": {
        "params": {
          "key": "key index of params contract you want set",
          "value": "value of params contract you want set"
        }
      },
      "startQuest(uint256,uint256)": {
        "params": {
          "questId": "id of quest you want to start",
          "tokenId": "id of token you want to launch in quest"
        }
      },
      "transferOwnership(address)": {
        "details": "Transfers ownership of the contract to a new account (`newOwner`). Can only be called by the current owner."
      }
    },
    "version": 1
  },
  "userdoc": {
    "kind": "user",
    "methods": {
      "completeQuest(uint256)": {
        "notice": "Validation of the quest at the end of a quest"
      },
      "getParamsContract(string)": {
        "notice": "Return a parameter of contract by key index"
      },
      "levelUp(uint8,uint256)": {
        "notice": "level up hero and increment one stat"
      },
      "mintHero(uint8,uint8,string)": {
        "notice": "mint a hero for a value price and generate stats and parameterr"
      },
      "setParamsContract(string,uint256)": {
        "notice": "Update a parameter of contract"
      },
      "startQuest(uint256,uint256)": {
        "notice": "start a quest by id for one hero token"
      }
    },
    "version": 1
  }
}